{
	".deps/npm/@openzeppelin/contracts/token/ERC20/ERC20.sol": {
		"ERC20": {
			"abi": [
				{
					"inputs": [
						{
							"internalType": "string",
							"name": "name_",
							"type": "string"
						},
						{
							"internalType": "string",
							"name": "symbol_",
							"type": "string"
						},
						{
							"internalType": "uint256",
							"name": "totalSupply_",
							"type": "uint256"
						}
					],
					"stateMutability": "nonpayable",
					"type": "constructor"
				},
				{
					"anonymous": false,
					"inputs": [
						{
							"indexed": true,
							"internalType": "address",
							"name": "owner",
							"type": "address"
						},
						{
							"indexed": true,
							"internalType": "address",
							"name": "spender",
							"type": "address"
						},
						{
							"indexed": false,
							"internalType": "uint256",
							"name": "value",
							"type": "uint256"
						}
					],
					"name": "Approval",
					"type": "event"
				},
				{
					"anonymous": false,
					"inputs": [
						{
							"indexed": true,
							"internalType": "address",
							"name": "from",
							"type": "address"
						},
						{
							"indexed": true,
							"internalType": "address",
							"name": "to",
							"type": "address"
						},
						{
							"indexed": false,
							"internalType": "uint256",
							"name": "value",
							"type": "uint256"
						}
					],
					"name": "Transfer",
					"type": "event"
				},
				{
					"inputs": [
						{
							"internalType": "address",
							"name": "owner",
							"type": "address"
						},
						{
							"internalType": "address",
							"name": "spender",
							"type": "address"
						}
					],
					"name": "allowance",
					"outputs": [
						{
							"internalType": "uint256",
							"name": "",
							"type": "uint256"
						}
					],
					"stateMutability": "view",
					"type": "function"
				},
				{
					"inputs": [
						{
							"internalType": "address",
							"name": "spender",
							"type": "address"
						},
						{
							"internalType": "uint256",
							"name": "amount",
							"type": "uint256"
						}
					],
					"name": "approve",
					"outputs": [
						{
							"internalType": "bool",
							"name": "",
							"type": "bool"
						}
					],
					"stateMutability": "nonpayable",
					"type": "function"
				},
				{
					"inputs": [
						{
							"internalType": "address",
							"name": "account",
							"type": "address"
						}
					],
					"name": "balanceOf",
					"outputs": [
						{
							"internalType": "uint256",
							"name": "",
							"type": "uint256"
						}
					],
					"stateMutability": "view",
					"type": "function"
				},
				{
					"inputs": [],
					"name": "decimals",
					"outputs": [
						{
							"internalType": "uint8",
							"name": "",
							"type": "uint8"
						}
					],
					"stateMutability": "view",
					"type": "function"
				},
				{
					"inputs": [
						{
							"internalType": "address",
							"name": "spender",
							"type": "address"
						},
						{
							"internalType": "uint256",
							"name": "subtractedValue",
							"type": "uint256"
						}
					],
					"name": "decreaseAllowance",
					"outputs": [
						{
							"internalType": "bool",
							"name": "",
							"type": "bool"
						}
					],
					"stateMutability": "nonpayable",
					"type": "function"
				},
				{
					"inputs": [
						{
							"internalType": "address",
							"name": "spender",
							"type": "address"
						},
						{
							"internalType": "uint256",
							"name": "addedValue",
							"type": "uint256"
						}
					],
					"name": "increaseAllowance",
					"outputs": [
						{
							"internalType": "bool",
							"name": "",
							"type": "bool"
						}
					],
					"stateMutability": "nonpayable",
					"type": "function"
				},
				{
					"inputs": [
						{
							"internalType": "string",
							"name": "name_",
							"type": "string"
						},
						{
							"internalType": "string",
							"name": "symbol_",
							"type": "string"
						},
						{
							"internalType": "uint256",
							"name": "totalSupply_",
							"type": "uint256"
						}
					],
					"name": "init",
					"outputs": [],
					"stateMutability": "nonpayable",
					"type": "function"
				},
				{
					"inputs": [],
					"name": "name",
					"outputs": [
						{
							"internalType": "string",
							"name": "",
							"type": "string"
						}
					],
					"stateMutability": "view",
					"type": "function"
				},
				{
					"inputs": [],
					"name": "symbol",
					"outputs": [
						{
							"internalType": "string",
							"name": "",
							"type": "string"
						}
					],
					"stateMutability": "view",
					"type": "function"
				},
				{
					"inputs": [],
					"name": "totalSupply",
					"outputs": [
						{
							"internalType": "uint256",
							"name": "",
							"type": "uint256"
						}
					],
					"stateMutability": "view",
					"type": "function"
				},
				{
					"inputs": [
						{
							"internalType": "address",
							"name": "to",
							"type": "address"
						},
						{
							"internalType": "uint256",
							"name": "amount",
							"type": "uint256"
						}
					],
					"name": "transfer",
					"outputs": [
						{
							"internalType": "bool",
							"name": "",
							"type": "bool"
						}
					],
					"stateMutability": "nonpayable",
					"type": "function"
				},
				{
					"inputs": [
						{
							"internalType": "address",
							"name": "from",
							"type": "address"
						},
						{
							"internalType": "address",
							"name": "to",
							"type": "address"
						},
						{
							"internalType": "uint256",
							"name": "amount",
							"type": "uint256"
						}
					],
					"name": "transferFrom",
					"outputs": [
						{
							"internalType": "bool",
							"name": "",
							"type": "bool"
						}
					],
					"stateMutability": "nonpayable",
					"type": "function"
				}
			],
			"devdoc": {
				"details": "Implementation of the {IERC20} interface. This implementation is agnostic to the way tokens are created. This means that a supply mechanism has to be added in a derived contract using {_mint}. For a generic mechanism see {ERC20PresetMinterPauser}. TIP: For a detailed writeup see our guide https://forum.openzeppelin.com/t/how-to-implement-erc20-supply-mechanisms/226[How to implement supply mechanisms]. We have followed general OpenZeppelin Contracts guidelines: functions revert instead returning `false` on failure. This behavior is nonetheless conventional and does not conflict with the expectations of ERC20 applications. Additionally, an {Approval} event is emitted on calls to {transferFrom}. This allows applications to reconstruct the allowance for all accounts just by listening to said events. Other implementations of the EIP may not emit these events, as it isn't required by the specification. Finally, the non-standard {decreaseAllowance} and {increaseAllowance} functions have been added to mitigate the well-known issues around setting allowances. See {IERC20-approve}.",
				"kind": "dev",
				"methods": {
					"allowance(address,address)": {
						"details": "See {IERC20-allowance}."
					},
					"approve(address,uint256)": {
						"details": "See {IERC20-approve}. NOTE: If `amount` is the maximum `uint256`, the allowance is not updated on `transferFrom`. This is semantically equivalent to an infinite approval. Requirements: - `spender` cannot be the zero address."
					},
					"balanceOf(address)": {
						"details": "See {IERC20-balanceOf}."
					},
					"constructor": {
						"details": "Sets the values for {name} and {symbol}. The default value of {decimals} is 18. To select a different value for {decimals} you should overload it. All two of these values are immutable: they can only be set once during construction."
					},
					"decimals()": {
						"details": "Returns the number of decimals used to get its user representation. For example, if `decimals` equals `2`, a balance of `505` tokens should be displayed to a user as `5.05` (`505 / 10 ** 2`). Tokens usually opt for a value of 18, imitating the relationship between Ether and Wei. This is the value {ERC20} uses, unless this function is overridden; NOTE: This information is only used for _display_ purposes: it in no way affects any of the arithmetic of the contract, including {IERC20-balanceOf} and {IERC20-transfer}."
					},
					"decreaseAllowance(address,uint256)": {
						"details": "Atomically decreases the allowance granted to `spender` by the caller. This is an alternative to {approve} that can be used as a mitigation for problems described in {IERC20-approve}. Emits an {Approval} event indicating the updated allowance. Requirements: - `spender` cannot be the zero address. - `spender` must have allowance for the caller of at least `subtractedValue`."
					},
					"increaseAllowance(address,uint256)": {
						"details": "Atomically increases the allowance granted to `spender` by the caller. This is an alternative to {approve} that can be used as a mitigation for problems described in {IERC20-approve}. Emits an {Approval} event indicating the updated allowance. Requirements: - `spender` cannot be the zero address."
					},
					"name()": {
						"details": "Returns the name of the token."
					},
					"symbol()": {
						"details": "Returns the symbol of the token, usually a shorter version of the name."
					},
					"totalSupply()": {
						"details": "See {IERC20-totalSupply}."
					},
					"transfer(address,uint256)": {
						"details": "See {IERC20-transfer}. Requirements: - `to` cannot be the zero address. - the caller must have a balance of at least `amount`."
					},
					"transferFrom(address,address,uint256)": {
						"details": "See {IERC20-transferFrom}. Emits an {Approval} event indicating the updated allowance. This is not required by the EIP. See the note at the beginning of {ERC20}. NOTE: Does not update the allowance if the current allowance is the maximum `uint256`. Requirements: - `from` and `to` cannot be the zero address. - `from` must have a balance of at least `amount`. - the caller must have allowance for ``from``'s tokens of at least `amount`."
					}
				},
				"version": 1
			},
			"evm": {
				"assembly": "    /* \".deps/npm/@openzeppelin/contracts/token/ERC20/ERC20.sol\":1401:13461  contract ERC20 is Context, IERC20, IERC20Metadata {... */\n  mstore(0x40, 0x80)\n    /* \".deps/npm/@openzeppelin/contracts/token/ERC20/ERC20.sol\":1976:2250  constructor(string memory name_, string memory symbol_, uint256 totalSupply_) {... */\n  callvalue\n  dup1\n  iszero\n  tag_1\n  jumpi\n  0x00\n  dup1\n  revert\ntag_1:\n  pop\n  mload(0x40)\n  sub(codesize, bytecodeSize)\n  dup1\n  bytecodeSize\n  dup4\n  codecopy\n  dup2\n  dup2\n  add\n  0x40\n  mstore\n  dup2\n  add\n  swap1\n  tag_2\n  swap2\n  swap1\n  tag_3\n  jump\t// in\ntag_2:\n    /* \".deps/npm/@openzeppelin/contracts/token/ERC20/ERC20.sol\":2072:2077  name_ */\n  dup3\n    /* \".deps/npm/@openzeppelin/contracts/token/ERC20/ERC20.sol\":2064:2069  _name */\n  0x03\n    /* \".deps/npm/@openzeppelin/contracts/token/ERC20/ERC20.sol\":2064:2077  _name = name_ */\n  swap1\n  dup1\n  mload\n  swap1\n  0x20\n  add\n  swap1\n  tag_6\n  swap3\n  swap2\n  swap1\n  tag_7\n  jump\t// in\ntag_6:\n  pop\n    /* \".deps/npm/@openzeppelin/contracts/token/ERC20/ERC20.sol\":2097:2104  symbol_ */\n  dup2\n    /* \".deps/npm/@openzeppelin/contracts/token/ERC20/ERC20.sol\":2087:2094  _symbol */\n  0x04\n    /* \".deps/npm/@openzeppelin/contracts/token/ERC20/ERC20.sol\":2087:2104  _symbol = symbol_ */\n  swap1\n  dup1\n  mload\n  swap1\n  0x20\n  add\n  swap1\n  tag_8\n  swap3\n  swap2\n  swap1\n  tag_7\n  jump\t// in\ntag_8:\n  pop\n    /* \".deps/npm/@openzeppelin/contracts/token/ERC20/ERC20.sol\":2152:2164  totalSupply_ */\n  dup1\n    /* \".deps/npm/@openzeppelin/contracts/token/ERC20/ERC20.sol\":2137:2149  _totalSupply */\n  0x02\n    /* \".deps/npm/@openzeppelin/contracts/token/ERC20/ERC20.sol\":2137:2164  _totalSupply = totalSupply_ */\n  dup2\n  swap1\n  sstore\n  pop\n    /* \".deps/npm/@openzeppelin/contracts/token/ERC20/ERC20.sol\":2174:2187  address owner */\n  0x00\n    /* \".deps/npm/@openzeppelin/contracts/token/ERC20/ERC20.sol\":2190:2202  _msgSender() */\n  tag_9\n    /* \".deps/npm/@openzeppelin/contracts/token/ERC20/ERC20.sol\":2190:2200  _msgSender */\n  shl(0x20, tag_10)\n    /* \".deps/npm/@openzeppelin/contracts/token/ERC20/ERC20.sol\":2190:2202  _msgSender() */\n  0x20\n  shr\n  jump\t// in\ntag_9:\n    /* \".deps/npm/@openzeppelin/contracts/token/ERC20/ERC20.sol\":2174:2202  address owner = _msgSender() */\n  swap1\n  pop\n    /* \".deps/npm/@openzeppelin/contracts/token/ERC20/ERC20.sol\":2231:2243  _totalSupply */\n  sload(0x02)\n    /* \".deps/npm/@openzeppelin/contracts/token/ERC20/ERC20.sol\":2212:2221  _balances */\n  0x00\n    /* \".deps/npm/@openzeppelin/contracts/token/ERC20/ERC20.sol\":2212:2228  _balances[owner] */\n  dup1\n    /* \".deps/npm/@openzeppelin/contracts/token/ERC20/ERC20.sol\":2222:2227  owner */\n  dup4\n    /* \".deps/npm/@openzeppelin/contracts/token/ERC20/ERC20.sol\":2212:2228  _balances[owner] */\n  0xffffffffffffffffffffffffffffffffffffffff\n  and\n  0xffffffffffffffffffffffffffffffffffffffff\n  and\n  dup2\n  mstore\n  0x20\n  add\n  swap1\n  dup2\n  mstore\n  0x20\n  add\n  0x00\n  keccak256\n    /* \".deps/npm/@openzeppelin/contracts/token/ERC20/ERC20.sol\":2212:2243  _balances[owner] = _totalSupply */\n  dup2\n  swap1\n  sstore\n  pop\n    /* \".deps/npm/@openzeppelin/contracts/token/ERC20/ERC20.sol\":2054:2250  {... */\n  pop\n    /* \".deps/npm/@openzeppelin/contracts/token/ERC20/ERC20.sol\":1976:2250  constructor(string memory name_, string memory symbol_, uint256 totalSupply_) {... */\n  pop\n  pop\n  pop\n    /* \".deps/npm/@openzeppelin/contracts/token/ERC20/ERC20.sol\":1401:13461  contract ERC20 is Context, IERC20, IERC20Metadata {... */\n  jump(tag_11)\n    /* \".deps/npm/@openzeppelin/contracts/utils/Context.sol\":640:736  function _msgSender() internal view virtual returns (address) {... */\ntag_10:\n    /* \".deps/npm/@openzeppelin/contracts/utils/Context.sol\":693:700  address */\n  0x00\n    /* \".deps/npm/@openzeppelin/contracts/utils/Context.sol\":719:729  msg.sender */\n  caller\n    /* \".deps/npm/@openzeppelin/contracts/utils/Context.sol\":712:729  return msg.sender */\n  swap1\n  pop\n    /* \".deps/npm/@openzeppelin/contracts/utils/Context.sol\":640:736  function _msgSender() internal view virtual returns (address) {... */\n  swap1\n  jump\t// out\n    /* \".deps/npm/@openzeppelin/contracts/token/ERC20/ERC20.sol\":1401:13461  contract ERC20 is Context, IERC20, IERC20Metadata {... */\ntag_7:\n  dup3\n  dup1\n  sload\n  tag_13\n  swap1\n  tag_14\n  jump\t// in\ntag_13:\n  swap1\n  0x00\n  mstore\n  keccak256(0x00, 0x20)\n  swap1\n  0x1f\n  add\n  0x20\n  swap1\n  div\n  dup2\n  add\n  swap3\n  dup3\n  tag_16\n  jumpi\n  0x00\n  dup6\n  sstore\n  jump(tag_15)\ntag_16:\n  dup3\n  0x1f\n  lt\n  tag_17\n  jumpi\n  dup1\n  mload\n  not(0xff)\n  and\n  dup4\n  dup1\n  add\n  or\n  dup6\n  sstore\n  jump(tag_15)\ntag_17:\n  dup3\n  dup1\n  add\n  0x01\n  add\n  dup6\n  sstore\n  dup3\n  iszero\n  tag_15\n  jumpi\n  swap2\n  dup3\n  add\ntag_18:\n  dup3\n  dup2\n  gt\n  iszero\n  tag_19\n  jumpi\n  dup3\n  mload\n  dup3\n  sstore\n  swap2\n  0x20\n  add\n  swap2\n  swap1\n  0x01\n  add\n  swap1\n  jump(tag_18)\ntag_19:\ntag_15:\n  pop\n  swap1\n  pop\n  tag_20\n  swap2\n  swap1\n  tag_21\n  jump\t// in\ntag_20:\n  pop\n  swap1\n  jump\t// out\ntag_21:\ntag_22:\n  dup1\n  dup3\n  gt\n  iszero\n  tag_23\n  jumpi\n  0x00\n  dup2\n  0x00\n  swap1\n  sstore\n  pop\n  0x01\n  add\n  jump(tag_22)\ntag_23:\n  pop\n  swap1\n  jump\t// out\n    /* \"#utility.yul\":7:82   */\ntag_24:\n    /* \"#utility.yul\":40:46   */\n  0x00\n    /* \"#utility.yul\":73:75   */\n  0x40\n    /* \"#utility.yul\":67:76   */\n  mload\n    /* \"#utility.yul\":57:76   */\n  swap1\n  pop\n    /* \"#utility.yul\":7:82   */\n  swap1\n  jump\t// out\n    /* \"#utility.yul\":88:205   */\ntag_25:\n    /* \"#utility.yul\":197:198   */\n  0x00\n    /* \"#utility.yul\":194:195   */\n  dup1\n    /* \"#utility.yul\":187:199   */\n  revert\n    /* \"#utility.yul\":211:328   */\ntag_26:\n    /* \"#utility.yul\":320:321   */\n  0x00\n    /* \"#utility.yul\":317:318   */\n  dup1\n    /* \"#utility.yul\":310:322   */\n  revert\n    /* \"#utility.yul\":334:451   */\ntag_27:\n    /* \"#utility.yul\":443:444   */\n  0x00\n    /* \"#utility.yul\":440:441   */\n  dup1\n    /* \"#utility.yul\":433:445   */\n  revert\n    /* \"#utility.yul\":457:574   */\ntag_28:\n    /* \"#utility.yul\":566:567   */\n  0x00\n    /* \"#utility.yul\":563:564   */\n  dup1\n    /* \"#utility.yul\":556:568   */\n  revert\n    /* \"#utility.yul\":580:682   */\ntag_29:\n    /* \"#utility.yul\":621:627   */\n  0x00\n    /* \"#utility.yul\":672:674   */\n  0x1f\n    /* \"#utility.yul\":668:675   */\n  not\n    /* \"#utility.yul\":663:665   */\n  0x1f\n    /* \"#utility.yul\":656:661   */\n  dup4\n    /* \"#utility.yul\":652:666   */\n  add\n    /* \"#utility.yul\":648:676   */\n  and\n    /* \"#utility.yul\":638:676   */\n  swap1\n  pop\n    /* \"#utility.yul\":580:682   */\n  swap2\n  swap1\n  pop\n  jump\t// out\n    /* \"#utility.yul\":688:868   */\ntag_30:\n    /* \"#utility.yul\":736:813   */\n  0x4e487b7100000000000000000000000000000000000000000000000000000000\n    /* \"#utility.yul\":733:734   */\n  0x00\n    /* \"#utility.yul\":726:814   */\n  mstore\n    /* \"#utility.yul\":833:837   */\n  0x41\n    /* \"#utility.yul\":830:831   */\n  0x04\n    /* \"#utility.yul\":823:838   */\n  mstore\n    /* \"#utility.yul\":857:861   */\n  0x24\n    /* \"#utility.yul\":854:855   */\n  0x00\n    /* \"#utility.yul\":847:862   */\n  revert\n    /* \"#utility.yul\":874:1155   */\ntag_31:\n    /* \"#utility.yul\":957:984   */\n  tag_50\n    /* \"#utility.yul\":979:983   */\n  dup3\n    /* \"#utility.yul\":957:984   */\n  tag_29\n  jump\t// in\ntag_50:\n    /* \"#utility.yul\":949:955   */\n  dup2\n    /* \"#utility.yul\":945:985   */\n  add\n    /* \"#utility.yul\":1087:1093   */\n  dup2\n    /* \"#utility.yul\":1075:1085   */\n  dup2\n    /* \"#utility.yul\":1072:1094   */\n  lt\n    /* \"#utility.yul\":1051:1069   */\n  0xffffffffffffffff\n    /* \"#utility.yul\":1039:1049   */\n  dup3\n    /* \"#utility.yul\":1036:1070   */\n  gt\n    /* \"#utility.yul\":1033:1095   */\n  or\n    /* \"#utility.yul\":1030:1118   */\n  iszero\n  tag_51\n  jumpi\n    /* \"#utility.yul\":1098:1116   */\n  tag_52\n  tag_30\n  jump\t// in\ntag_52:\n    /* \"#utility.yul\":1030:1118   */\ntag_51:\n    /* \"#utility.yul\":1138:1148   */\n  dup1\n    /* \"#utility.yul\":1134:1136   */\n  0x40\n    /* \"#utility.yul\":1127:1149   */\n  mstore\n    /* \"#utility.yul\":917:1155   */\n  pop\n    /* \"#utility.yul\":874:1155   */\n  pop\n  pop\n  jump\t// out\n    /* \"#utility.yul\":1161:1290   */\ntag_32:\n    /* \"#utility.yul\":1195:1201   */\n  0x00\n    /* \"#utility.yul\":1222:1242   */\n  tag_54\n  tag_24\n  jump\t// in\ntag_54:\n    /* \"#utility.yul\":1212:1242   */\n  swap1\n  pop\n    /* \"#utility.yul\":1251:1284   */\n  tag_55\n    /* \"#utility.yul\":1279:1283   */\n  dup3\n    /* \"#utility.yul\":1271:1277   */\n  dup3\n    /* \"#utility.yul\":1251:1284   */\n  tag_31\n  jump\t// in\ntag_55:\n    /* \"#utility.yul\":1161:1290   */\n  swap2\n  swap1\n  pop\n  jump\t// out\n    /* \"#utility.yul\":1296:1604   */\ntag_33:\n    /* \"#utility.yul\":1358:1362   */\n  0x00\n    /* \"#utility.yul\":1448:1466   */\n  0xffffffffffffffff\n    /* \"#utility.yul\":1440:1446   */\n  dup3\n    /* \"#utility.yul\":1437:1467   */\n  gt\n    /* \"#utility.yul\":1434:1490   */\n  iszero\n  tag_57\n  jumpi\n    /* \"#utility.yul\":1470:1488   */\n  tag_58\n  tag_30\n  jump\t// in\ntag_58:\n    /* \"#utility.yul\":1434:1490   */\ntag_57:\n    /* \"#utility.yul\":1508:1537   */\n  tag_59\n    /* \"#utility.yul\":1530:1536   */\n  dup3\n    /* \"#utility.yul\":1508:1537   */\n  tag_29\n  jump\t// in\ntag_59:\n    /* \"#utility.yul\":1500:1537   */\n  swap1\n  pop\n    /* \"#utility.yul\":1592:1596   */\n  0x20\n    /* \"#utility.yul\":1586:1590   */\n  dup2\n    /* \"#utility.yul\":1582:1597   */\n  add\n    /* \"#utility.yul\":1574:1597   */\n  swap1\n  pop\n    /* \"#utility.yul\":1296:1604   */\n  swap2\n  swap1\n  pop\n  jump\t// out\n    /* \"#utility.yul\":1610:1917   */\ntag_34:\n    /* \"#utility.yul\":1678:1679   */\n  0x00\n    /* \"#utility.yul\":1688:1801   */\ntag_61:\n    /* \"#utility.yul\":1702:1708   */\n  dup4\n    /* \"#utility.yul\":1699:1700   */\n  dup2\n    /* \"#utility.yul\":1696:1709   */\n  lt\n    /* \"#utility.yul\":1688:1801   */\n  iszero\n  tag_63\n  jumpi\n    /* \"#utility.yul\":1787:1788   */\n  dup1\n    /* \"#utility.yul\":1782:1785   */\n  dup3\n    /* \"#utility.yul\":1778:1789   */\n  add\n    /* \"#utility.yul\":1772:1790   */\n  mload\n    /* \"#utility.yul\":1768:1769   */\n  dup2\n    /* \"#utility.yul\":1763:1766   */\n  dup5\n    /* \"#utility.yul\":1759:1770   */\n  add\n    /* \"#utility.yul\":1752:1791   */\n  mstore\n    /* \"#utility.yul\":1724:1726   */\n  0x20\n    /* \"#utility.yul\":1721:1722   */\n  dup2\n    /* \"#utility.yul\":1717:1727   */\n  add\n    /* \"#utility.yul\":1712:1727   */\n  swap1\n  pop\n    /* \"#utility.yul\":1688:1801   */\n  jump(tag_61)\ntag_63:\n    /* \"#utility.yul\":1819:1825   */\n  dup4\n    /* \"#utility.yul\":1816:1817   */\n  dup2\n    /* \"#utility.yul\":1813:1826   */\n  gt\n    /* \"#utility.yul\":1810:1911   */\n  iszero\n  tag_64\n  jumpi\n    /* \"#utility.yul\":1899:1900   */\n  0x00\n    /* \"#utility.yul\":1890:1896   */\n  dup5\n    /* \"#utility.yul\":1885:1888   */\n  dup5\n    /* \"#utility.yul\":1881:1897   */\n  add\n    /* \"#utility.yul\":1874:1901   */\n  mstore\n    /* \"#utility.yul\":1810:1911   */\ntag_64:\n    /* \"#utility.yul\":1659:1917   */\n  pop\n    /* \"#utility.yul\":1610:1917   */\n  pop\n  pop\n  pop\n  jump\t// out\n    /* \"#utility.yul\":1923:2344   */\ntag_35:\n    /* \"#utility.yul\":2012:2017   */\n  0x00\n    /* \"#utility.yul\":2037:2103   */\n  tag_66\n    /* \"#utility.yul\":2053:2102   */\n  tag_67\n    /* \"#utility.yul\":2095:2101   */\n  dup5\n    /* \"#utility.yul\":2053:2102   */\n  tag_33\n  jump\t// in\ntag_67:\n    /* \"#utility.yul\":2037:2103   */\n  tag_32\n  jump\t// in\ntag_66:\n    /* \"#utility.yul\":2028:2103   */\n  swap1\n  pop\n    /* \"#utility.yul\":2126:2132   */\n  dup3\n    /* \"#utility.yul\":2119:2124   */\n  dup2\n    /* \"#utility.yul\":2112:2133   */\n  mstore\n    /* \"#utility.yul\":2164:2168   */\n  0x20\n    /* \"#utility.yul\":2157:2162   */\n  dup2\n    /* \"#utility.yul\":2153:2169   */\n  add\n    /* \"#utility.yul\":2202:2205   */\n  dup5\n    /* \"#utility.yul\":2193:2199   */\n  dup5\n    /* \"#utility.yul\":2188:2191   */\n  dup5\n    /* \"#utility.yul\":2184:2200   */\n  add\n    /* \"#utility.yul\":2181:2206   */\n  gt\n    /* \"#utility.yul\":2178:2290   */\n  iszero\n  tag_68\n  jumpi\n    /* \"#utility.yul\":2209:2288   */\n  tag_69\n  tag_28\n  jump\t// in\ntag_69:\n    /* \"#utility.yul\":2178:2290   */\ntag_68:\n    /* \"#utility.yul\":2299:2338   */\n  tag_70\n    /* \"#utility.yul\":2331:2337   */\n  dup5\n    /* \"#utility.yul\":2326:2329   */\n  dup3\n    /* \"#utility.yul\":2321:2324   */\n  dup6\n    /* \"#utility.yul\":2299:2338   */\n  tag_34\n  jump\t// in\ntag_70:\n    /* \"#utility.yul\":2018:2344   */\n  pop\n    /* \"#utility.yul\":1923:2344   */\n  swap4\n  swap3\n  pop\n  pop\n  pop\n  jump\t// out\n    /* \"#utility.yul\":2364:2719   */\ntag_36:\n    /* \"#utility.yul\":2431:2436   */\n  0x00\n    /* \"#utility.yul\":2480:2483   */\n  dup3\n    /* \"#utility.yul\":2473:2477   */\n  0x1f\n    /* \"#utility.yul\":2465:2471   */\n  dup4\n    /* \"#utility.yul\":2461:2478   */\n  add\n    /* \"#utility.yul\":2457:2484   */\n  slt\n    /* \"#utility.yul\":2447:2569   */\n  tag_72\n  jumpi\n    /* \"#utility.yul\":2488:2567   */\n  tag_73\n  tag_27\n  jump\t// in\ntag_73:\n    /* \"#utility.yul\":2447:2569   */\ntag_72:\n    /* \"#utility.yul\":2598:2604   */\n  dup2\n    /* \"#utility.yul\":2592:2605   */\n  mload\n    /* \"#utility.yul\":2623:2713   */\n  tag_74\n    /* \"#utility.yul\":2709:2712   */\n  dup5\n    /* \"#utility.yul\":2701:2707   */\n  dup3\n    /* \"#utility.yul\":2694:2698   */\n  0x20\n    /* \"#utility.yul\":2686:2692   */\n  dup7\n    /* \"#utility.yul\":2682:2699   */\n  add\n    /* \"#utility.yul\":2623:2713   */\n  tag_35\n  jump\t// in\ntag_74:\n    /* \"#utility.yul\":2614:2713   */\n  swap2\n  pop\n    /* \"#utility.yul\":2437:2719   */\n  pop\n    /* \"#utility.yul\":2364:2719   */\n  swap3\n  swap2\n  pop\n  pop\n  jump\t// out\n    /* \"#utility.yul\":2725:2802   */\ntag_37:\n    /* \"#utility.yul\":2762:2769   */\n  0x00\n    /* \"#utility.yul\":2791:2796   */\n  dup2\n    /* \"#utility.yul\":2780:2796   */\n  swap1\n  pop\n    /* \"#utility.yul\":2725:2802   */\n  swap2\n  swap1\n  pop\n  jump\t// out\n    /* \"#utility.yul\":2808:2930   */\ntag_38:\n    /* \"#utility.yul\":2881:2905   */\n  tag_77\n    /* \"#utility.yul\":2899:2904   */\n  dup2\n    /* \"#utility.yul\":2881:2905   */\n  tag_37\n  jump\t// in\ntag_77:\n    /* \"#utility.yul\":2874:2879   */\n  dup2\n    /* \"#utility.yul\":2871:2906   */\n  eq\n    /* \"#utility.yul\":2861:2924   */\n  tag_78\n  jumpi\n    /* \"#utility.yul\":2920:2921   */\n  0x00\n    /* \"#utility.yul\":2917:2918   */\n  dup1\n    /* \"#utility.yul\":2910:2922   */\n  revert\n    /* \"#utility.yul\":2861:2924   */\ntag_78:\n    /* \"#utility.yul\":2808:2930   */\n  pop\n  jump\t// out\n    /* \"#utility.yul\":2936:3079   */\ntag_39:\n    /* \"#utility.yul\":2993:2998   */\n  0x00\n    /* \"#utility.yul\":3024:3030   */\n  dup2\n    /* \"#utility.yul\":3018:3031   */\n  mload\n    /* \"#utility.yul\":3009:3031   */\n  swap1\n  pop\n    /* \"#utility.yul\":3040:3073   */\n  tag_80\n    /* \"#utility.yul\":3067:3072   */\n  dup2\n    /* \"#utility.yul\":3040:3073   */\n  tag_38\n  jump\t// in\ntag_80:\n    /* \"#utility.yul\":2936:3079   */\n  swap3\n  swap2\n  pop\n  pop\n  jump\t// out\n    /* \"#utility.yul\":3085:4094   */\ntag_3:\n    /* \"#utility.yul\":3193:3199   */\n  0x00\n    /* \"#utility.yul\":3201:3207   */\n  dup1\n    /* \"#utility.yul\":3209:3215   */\n  0x00\n    /* \"#utility.yul\":3258:3260   */\n  0x60\n    /* \"#utility.yul\":3246:3255   */\n  dup5\n    /* \"#utility.yul\":3237:3244   */\n  dup7\n    /* \"#utility.yul\":3233:3256   */\n  sub\n    /* \"#utility.yul\":3229:3261   */\n  slt\n    /* \"#utility.yul\":3226:3345   */\n  iszero\n  tag_82\n  jumpi\n    /* \"#utility.yul\":3264:3343   */\n  tag_83\n  tag_25\n  jump\t// in\ntag_83:\n    /* \"#utility.yul\":3226:3345   */\ntag_82:\n    /* \"#utility.yul\":3405:3406   */\n  0x00\n    /* \"#utility.yul\":3394:3403   */\n  dup5\n    /* \"#utility.yul\":3390:3407   */\n  add\n    /* \"#utility.yul\":3384:3408   */\n  mload\n    /* \"#utility.yul\":3435:3453   */\n  0xffffffffffffffff\n    /* \"#utility.yul\":3427:3433   */\n  dup2\n    /* \"#utility.yul\":3424:3454   */\n  gt\n    /* \"#utility.yul\":3421:3538   */\n  iszero\n  tag_84\n  jumpi\n    /* \"#utility.yul\":3457:3536   */\n  tag_85\n  tag_26\n  jump\t// in\ntag_85:\n    /* \"#utility.yul\":3421:3538   */\ntag_84:\n    /* \"#utility.yul\":3562:3636   */\n  tag_86\n    /* \"#utility.yul\":3628:3635   */\n  dup7\n    /* \"#utility.yul\":3619:3625   */\n  dup3\n    /* \"#utility.yul\":3608:3617   */\n  dup8\n    /* \"#utility.yul\":3604:3626   */\n  add\n    /* \"#utility.yul\":3562:3636   */\n  tag_36\n  jump\t// in\ntag_86:\n    /* \"#utility.yul\":3552:3636   */\n  swap4\n  pop\n    /* \"#utility.yul\":3355:3646   */\n  pop\n    /* \"#utility.yul\":3706:3708   */\n  0x20\n    /* \"#utility.yul\":3695:3704   */\n  dup5\n    /* \"#utility.yul\":3691:3709   */\n  add\n    /* \"#utility.yul\":3685:3710   */\n  mload\n    /* \"#utility.yul\":3737:3755   */\n  0xffffffffffffffff\n    /* \"#utility.yul\":3729:3735   */\n  dup2\n    /* \"#utility.yul\":3726:3756   */\n  gt\n    /* \"#utility.yul\":3723:3840   */\n  iszero\n  tag_87\n  jumpi\n    /* \"#utility.yul\":3759:3838   */\n  tag_88\n  tag_26\n  jump\t// in\ntag_88:\n    /* \"#utility.yul\":3723:3840   */\ntag_87:\n    /* \"#utility.yul\":3864:3938   */\n  tag_89\n    /* \"#utility.yul\":3930:3937   */\n  dup7\n    /* \"#utility.yul\":3921:3927   */\n  dup3\n    /* \"#utility.yul\":3910:3919   */\n  dup8\n    /* \"#utility.yul\":3906:3928   */\n  add\n    /* \"#utility.yul\":3864:3938   */\n  tag_36\n  jump\t// in\ntag_89:\n    /* \"#utility.yul\":3854:3938   */\n  swap3\n  pop\n    /* \"#utility.yul\":3656:3948   */\n  pop\n    /* \"#utility.yul\":3987:3989   */\n  0x40\n    /* \"#utility.yul\":4013:4077   */\n  tag_90\n    /* \"#utility.yul\":4069:4076   */\n  dup7\n    /* \"#utility.yul\":4060:4066   */\n  dup3\n    /* \"#utility.yul\":4049:4058   */\n  dup8\n    /* \"#utility.yul\":4045:4067   */\n  add\n    /* \"#utility.yul\":4013:4077   */\n  tag_39\n  jump\t// in\ntag_90:\n    /* \"#utility.yul\":4003:4077   */\n  swap2\n  pop\n    /* \"#utility.yul\":3958:4087   */\n  pop\n    /* \"#utility.yul\":3085:4094   */\n  swap3\n  pop\n  swap3\n  pop\n  swap3\n  jump\t// out\n    /* \"#utility.yul\":4100:4280   */\ntag_40:\n    /* \"#utility.yul\":4148:4225   */\n  0x4e487b7100000000000000000000000000000000000000000000000000000000\n    /* \"#utility.yul\":4145:4146   */\n  0x00\n    /* \"#utility.yul\":4138:4226   */\n  mstore\n    /* \"#utility.yul\":4245:4249   */\n  0x22\n    /* \"#utility.yul\":4242:4243   */\n  0x04\n    /* \"#utility.yul\":4235:4250   */\n  mstore\n    /* \"#utility.yul\":4269:4273   */\n  0x24\n    /* \"#utility.yul\":4266:4267   */\n  0x00\n    /* \"#utility.yul\":4259:4274   */\n  revert\n    /* \"#utility.yul\":4286:4606   */\ntag_14:\n    /* \"#utility.yul\":4330:4336   */\n  0x00\n    /* \"#utility.yul\":4367:4368   */\n  0x02\n    /* \"#utility.yul\":4361:4365   */\n  dup3\n    /* \"#utility.yul\":4357:4369   */\n  div\n    /* \"#utility.yul\":4347:4369   */\n  swap1\n  pop\n    /* \"#utility.yul\":4414:4415   */\n  0x01\n    /* \"#utility.yul\":4408:4412   */\n  dup3\n    /* \"#utility.yul\":4404:4416   */\n  and\n    /* \"#utility.yul\":4435:4453   */\n  dup1\n    /* \"#utility.yul\":4425:4506   */\n  tag_93\n  jumpi\n    /* \"#utility.yul\":4491:4495   */\n  0x7f\n    /* \"#utility.yul\":4483:4489   */\n  dup3\n    /* \"#utility.yul\":4479:4496   */\n  and\n    /* \"#utility.yul\":4469:4496   */\n  swap2\n  pop\n    /* \"#utility.yul\":4425:4506   */\ntag_93:\n    /* \"#utility.yul\":4553:4555   */\n  0x20\n    /* \"#utility.yul\":4545:4551   */\n  dup3\n    /* \"#utility.yul\":4542:4556   */\n  lt\n    /* \"#utility.yul\":4522:4540   */\n  dup2\n    /* \"#utility.yul\":4519:4557   */\n  eq\n    /* \"#utility.yul\":4516:4600   */\n  iszero\n  tag_94\n  jumpi\n    /* \"#utility.yul\":4572:4590   */\n  tag_95\n  tag_40\n  jump\t// in\ntag_95:\n    /* \"#utility.yul\":4516:4600   */\ntag_94:\n    /* \"#utility.yul\":4337:4606   */\n  pop\n    /* \"#utility.yul\":4286:4606   */\n  swap2\n  swap1\n  pop\n  jump\t// out\n    /* \".deps/npm/@openzeppelin/contracts/token/ERC20/ERC20.sol\":1401:13461  contract ERC20 is Context, IERC20, IERC20Metadata {... */\ntag_11:\n  dataSize(sub_0)\n  dup1\n  dataOffset(sub_0)\n  0x00\n  codecopy\n  0x00\n  return\nstop\n\nsub_0: assembly {\n        /* \".deps/npm/@openzeppelin/contracts/token/ERC20/ERC20.sol\":1401:13461  contract ERC20 is Context, IERC20, IERC20Metadata {... */\n      mstore(0x40, 0x80)\n      callvalue\n      dup1\n      iszero\n      tag_1\n      jumpi\n      0x00\n      dup1\n      revert\n    tag_1:\n      pop\n      jumpi(tag_2, lt(calldatasize, 0x04))\n      shr(0xe0, calldataload(0x00))\n      dup1\n      0x39509351\n      gt\n      tag_15\n      jumpi\n      dup1\n      0x39509351\n      eq\n      tag_9\n      jumpi\n      dup1\n      0x70a08231\n      eq\n      tag_10\n      jumpi\n      dup1\n      0x95d89b41\n      eq\n      tag_11\n      jumpi\n      dup1\n      0xa457c2d7\n      eq\n      tag_12\n      jumpi\n      dup1\n      0xa9059cbb\n      eq\n      tag_13\n      jumpi\n      dup1\n      0xdd62ed3e\n      eq\n      tag_14\n      jumpi\n      jump(tag_2)\n    tag_15:\n      dup1\n      0x06fdde03\n      eq\n      tag_3\n      jumpi\n      dup1\n      0x095ea7b3\n      eq\n      tag_4\n      jumpi\n      dup1\n      0x18160ddd\n      eq\n      tag_5\n      jumpi\n      dup1\n      0x23b872dd\n      eq\n      tag_6\n      jumpi\n      dup1\n      0x2eabc917\n      eq\n      tag_7\n      jumpi\n      dup1\n      0x313ce567\n      eq\n      tag_8\n      jumpi\n    tag_2:\n      0x00\n      dup1\n      revert\n        /* \".deps/npm/@openzeppelin/contracts/token/ERC20/ERC20.sol\":2604:2702  function name() public view virtual override returns (string memory) {... */\n    tag_3:\n      tag_16\n      tag_17\n      jump\t// in\n    tag_16:\n      mload(0x40)\n      tag_18\n      swap2\n      swap1\n      tag_19\n      jump\t// in\n    tag_18:\n      mload(0x40)\n      dup1\n      swap2\n      sub\n      swap1\n      return\n        /* \".deps/npm/@openzeppelin/contracts/token/ERC20/ERC20.sol\":4881:5078  function approve(address spender, uint256 amount) public virtual override returns (bool) {... */\n    tag_4:\n      tag_20\n      0x04\n      dup1\n      calldatasize\n      sub\n      dup2\n      add\n      swap1\n      tag_21\n      swap2\n      swap1\n      tag_22\n      jump\t// in\n    tag_21:\n      tag_23\n      jump\t// in\n    tag_20:\n      mload(0x40)\n      tag_24\n      swap2\n      swap1\n      tag_25\n      jump\t// in\n    tag_24:\n      mload(0x40)\n      dup1\n      swap2\n      sub\n      swap1\n      return\n        /* \".deps/npm/@openzeppelin/contracts/token/ERC20/ERC20.sol\":3692:3798  function totalSupply() public view virtual override returns (uint256) {... */\n    tag_5:\n      tag_26\n      tag_27\n      jump\t// in\n    tag_26:\n      mload(0x40)\n      tag_28\n      swap2\n      swap1\n      tag_29\n      jump\t// in\n    tag_28:\n      mload(0x40)\n      dup1\n      swap2\n      sub\n      swap1\n      return\n        /* \".deps/npm/@openzeppelin/contracts/token/ERC20/ERC20.sol\":5640:5926  function transferFrom(... */\n    tag_6:\n      tag_30\n      0x04\n      dup1\n      calldatasize\n      sub\n      dup2\n      add\n      swap1\n      tag_31\n      swap2\n      swap1\n      tag_32\n      jump\t// in\n    tag_31:\n      tag_33\n      jump\t// in\n    tag_30:\n      mload(0x40)\n      tag_34\n      swap2\n      swap1\n      tag_25\n      jump\t// in\n    tag_34:\n      mload(0x40)\n      dup1\n      swap2\n      sub\n      swap1\n      return\n        /* \".deps/npm/@openzeppelin/contracts/token/ERC20/ERC20.sol\":2256:2539  function init(string memory name_, string memory symbol_, uint256 totalSupply_) public {... */\n    tag_7:\n      tag_35\n      0x04\n      dup1\n      calldatasize\n      sub\n      dup2\n      add\n      swap1\n      tag_36\n      swap2\n      swap1\n      tag_37\n      jump\t// in\n    tag_36:\n      tag_38\n      jump\t// in\n    tag_35:\n      stop\n        /* \".deps/npm/@openzeppelin/contracts/token/ERC20/ERC20.sol\":3541:3632  function decimals() public view virtual override returns (uint8) {... */\n    tag_8:\n      tag_39\n      tag_40\n      jump\t// in\n    tag_39:\n      mload(0x40)\n      tag_41\n      swap2\n      swap1\n      tag_42\n      jump\t// in\n    tag_41:\n      mload(0x40)\n      dup1\n      swap2\n      sub\n      swap1\n      return\n        /* \".deps/npm/@openzeppelin/contracts/token/ERC20/ERC20.sol\":6321:6555  function increaseAllowance(address spender, uint256 addedValue) public virtual returns (bool) {... */\n    tag_9:\n      tag_43\n      0x04\n      dup1\n      calldatasize\n      sub\n      dup2\n      add\n      swap1\n      tag_44\n      swap2\n      swap1\n      tag_22\n      jump\t// in\n    tag_44:\n      tag_45\n      jump\t// in\n    tag_43:\n      mload(0x40)\n      tag_46\n      swap2\n      swap1\n      tag_25\n      jump\t// in\n    tag_46:\n      mload(0x40)\n      dup1\n      swap2\n      sub\n      swap1\n      return\n        /* \".deps/npm/@openzeppelin/contracts/token/ERC20/ERC20.sol\":3856:3981  function balanceOf(address account) public view virtual override returns (uint256) {... */\n    tag_10:\n      tag_47\n      0x04\n      dup1\n      calldatasize\n      sub\n      dup2\n      add\n      swap1\n      tag_48\n      swap2\n      swap1\n      tag_49\n      jump\t// in\n    tag_48:\n      tag_50\n      jump\t// in\n    tag_47:\n      mload(0x40)\n      tag_51\n      swap2\n      swap1\n      tag_29\n      jump\t// in\n    tag_51:\n      mload(0x40)\n      dup1\n      swap2\n      sub\n      swap1\n      return\n        /* \".deps/npm/@openzeppelin/contracts/token/ERC20/ERC20.sol\":2815:2917  function symbol() public view virtual override returns (string memory) {... */\n    tag_11:\n      tag_52\n      tag_53\n      jump\t// in\n    tag_52:\n      mload(0x40)\n      tag_54\n      swap2\n      swap1\n      tag_19\n      jump\t// in\n    tag_54:\n      mload(0x40)\n      dup1\n      swap2\n      sub\n      swap1\n      return\n        /* \".deps/npm/@openzeppelin/contracts/token/ERC20/ERC20.sol\":7042:7469  function decreaseAllowance(address spender, uint256 subtractedValue) public virtual returns (bool) {... */\n    tag_12:\n      tag_55\n      0x04\n      dup1\n      calldatasize\n      sub\n      dup2\n      add\n      swap1\n      tag_56\n      swap2\n      swap1\n      tag_22\n      jump\t// in\n    tag_56:\n      tag_57\n      jump\t// in\n    tag_55:\n      mload(0x40)\n      tag_58\n      swap2\n      swap1\n      tag_25\n      jump\t// in\n    tag_58:\n      mload(0x40)\n      dup1\n      swap2\n      sub\n      swap1\n      return\n        /* \".deps/npm/@openzeppelin/contracts/token/ERC20/ERC20.sol\":4177:4366  function transfer(address to, uint256 amount) public virtual override returns (bool) {... */\n    tag_13:\n      tag_59\n      0x04\n      dup1\n      calldatasize\n      sub\n      dup2\n      add\n      swap1\n      tag_60\n      swap2\n      swap1\n      tag_22\n      jump\t// in\n    tag_60:\n      tag_61\n      jump\t// in\n    tag_59:\n      mload(0x40)\n      tag_62\n      swap2\n      swap1\n      tag_25\n      jump\t// in\n    tag_62:\n      mload(0x40)\n      dup1\n      swap2\n      sub\n      swap1\n      return\n        /* \".deps/npm/@openzeppelin/contracts/token/ERC20/ERC20.sol\":4424:4573  function allowance(address owner, address spender) public view virtual override returns (uint256) {... */\n    tag_14:\n      tag_63\n      0x04\n      dup1\n      calldatasize\n      sub\n      dup2\n      add\n      swap1\n      tag_64\n      swap2\n      swap1\n      tag_65\n      jump\t// in\n    tag_64:\n      tag_66\n      jump\t// in\n    tag_63:\n      mload(0x40)\n      tag_67\n      swap2\n      swap1\n      tag_29\n      jump\t// in\n    tag_67:\n      mload(0x40)\n      dup1\n      swap2\n      sub\n      swap1\n      return\n        /* \".deps/npm/@openzeppelin/contracts/token/ERC20/ERC20.sol\":2604:2702  function name() public view virtual override returns (string memory) {... */\n    tag_17:\n        /* \".deps/npm/@openzeppelin/contracts/token/ERC20/ERC20.sol\":2658:2671  string memory */\n      0x60\n        /* \".deps/npm/@openzeppelin/contracts/token/ERC20/ERC20.sol\":2690:2695  _name */\n      0x03\n        /* \".deps/npm/@openzeppelin/contracts/token/ERC20/ERC20.sol\":2683:2695  return _name */\n      dup1\n      sload\n      tag_69\n      swap1\n      tag_70\n      jump\t// in\n    tag_69:\n      dup1\n      0x1f\n      add\n      0x20\n      dup1\n      swap2\n      div\n      mul\n      0x20\n      add\n      mload(0x40)\n      swap1\n      dup2\n      add\n      0x40\n      mstore\n      dup1\n      swap3\n      swap2\n      swap1\n      dup2\n      dup2\n      mstore\n      0x20\n      add\n      dup3\n      dup1\n      sload\n      tag_71\n      swap1\n      tag_70\n      jump\t// in\n    tag_71:\n      dup1\n      iszero\n      tag_72\n      jumpi\n      dup1\n      0x1f\n      lt\n      tag_73\n      jumpi\n      0x0100\n      dup1\n      dup4\n      sload\n      div\n      mul\n      dup4\n      mstore\n      swap2\n      0x20\n      add\n      swap2\n      jump(tag_72)\n    tag_73:\n      dup3\n      add\n      swap2\n      swap1\n      0x00\n      mstore\n      keccak256(0x00, 0x20)\n      swap1\n    tag_74:\n      dup2\n      sload\n      dup2\n      mstore\n      swap1\n      0x01\n      add\n      swap1\n      0x20\n      add\n      dup1\n      dup4\n      gt\n      tag_74\n      jumpi\n      dup3\n      swap1\n      sub\n      0x1f\n      and\n      dup3\n      add\n      swap2\n    tag_72:\n      pop\n      pop\n      pop\n      pop\n      pop\n      swap1\n      pop\n        /* \".deps/npm/@openzeppelin/contracts/token/ERC20/ERC20.sol\":2604:2702  function name() public view virtual override returns (string memory) {... */\n      swap1\n      jump\t// out\n        /* \".deps/npm/@openzeppelin/contracts/token/ERC20/ERC20.sol\":4881:5078  function approve(address spender, uint256 amount) public virtual override returns (bool) {... */\n    tag_23:\n        /* \".deps/npm/@openzeppelin/contracts/token/ERC20/ERC20.sol\":4964:4968  bool */\n      0x00\n        /* \".deps/npm/@openzeppelin/contracts/token/ERC20/ERC20.sol\":4980:4993  address owner */\n      dup1\n        /* \".deps/npm/@openzeppelin/contracts/token/ERC20/ERC20.sol\":4996:5008  _msgSender() */\n      tag_76\n        /* \".deps/npm/@openzeppelin/contracts/token/ERC20/ERC20.sol\":4996:5006  _msgSender */\n      tag_77\n        /* \".deps/npm/@openzeppelin/contracts/token/ERC20/ERC20.sol\":4996:5008  _msgSender() */\n      jump\t// in\n    tag_76:\n        /* \".deps/npm/@openzeppelin/contracts/token/ERC20/ERC20.sol\":4980:5008  address owner = _msgSender() */\n      swap1\n      pop\n        /* \".deps/npm/@openzeppelin/contracts/token/ERC20/ERC20.sol\":5018:5050  _approve(owner, spender, amount) */\n      tag_78\n        /* \".deps/npm/@openzeppelin/contracts/token/ERC20/ERC20.sol\":5027:5032  owner */\n      dup2\n        /* \".deps/npm/@openzeppelin/contracts/token/ERC20/ERC20.sol\":5034:5041  spender */\n      dup6\n        /* \".deps/npm/@openzeppelin/contracts/token/ERC20/ERC20.sol\":5043:5049  amount */\n      dup6\n        /* \".deps/npm/@openzeppelin/contracts/token/ERC20/ERC20.sol\":5018:5026  _approve */\n      tag_79\n        /* \".deps/npm/@openzeppelin/contracts/token/ERC20/ERC20.sol\":5018:5050  _approve(owner, spender, amount) */\n      jump\t// in\n    tag_78:\n        /* \".deps/npm/@openzeppelin/contracts/token/ERC20/ERC20.sol\":5067:5071  true */\n      0x01\n        /* \".deps/npm/@openzeppelin/contracts/token/ERC20/ERC20.sol\":5060:5071  return true */\n      swap2\n      pop\n      pop\n        /* \".deps/npm/@openzeppelin/contracts/token/ERC20/ERC20.sol\":4881:5078  function approve(address spender, uint256 amount) public virtual override returns (bool) {... */\n      swap3\n      swap2\n      pop\n      pop\n      jump\t// out\n        /* \".deps/npm/@openzeppelin/contracts/token/ERC20/ERC20.sol\":3692:3798  function totalSupply() public view virtual override returns (uint256) {... */\n    tag_27:\n        /* \".deps/npm/@openzeppelin/contracts/token/ERC20/ERC20.sol\":3753:3760  uint256 */\n      0x00\n        /* \".deps/npm/@openzeppelin/contracts/token/ERC20/ERC20.sol\":3779:3791  _totalSupply */\n      sload(0x02)\n        /* \".deps/npm/@openzeppelin/contracts/token/ERC20/ERC20.sol\":3772:3791  return _totalSupply */\n      swap1\n      pop\n        /* \".deps/npm/@openzeppelin/contracts/token/ERC20/ERC20.sol\":3692:3798  function totalSupply() public view virtual override returns (uint256) {... */\n      swap1\n      jump\t// out\n        /* \".deps/npm/@openzeppelin/contracts/token/ERC20/ERC20.sol\":5640:5926  function transferFrom(... */\n    tag_33:\n        /* \".deps/npm/@openzeppelin/contracts/token/ERC20/ERC20.sol\":5767:5771  bool */\n      0x00\n        /* \".deps/npm/@openzeppelin/contracts/token/ERC20/ERC20.sol\":5783:5798  address spender */\n      dup1\n        /* \".deps/npm/@openzeppelin/contracts/token/ERC20/ERC20.sol\":5801:5813  _msgSender() */\n      tag_82\n        /* \".deps/npm/@openzeppelin/contracts/token/ERC20/ERC20.sol\":5801:5811  _msgSender */\n      tag_77\n        /* \".deps/npm/@openzeppelin/contracts/token/ERC20/ERC20.sol\":5801:5813  _msgSender() */\n      jump\t// in\n    tag_82:\n        /* \".deps/npm/@openzeppelin/contracts/token/ERC20/ERC20.sol\":5783:5813  address spender = _msgSender() */\n      swap1\n      pop\n        /* \".deps/npm/@openzeppelin/contracts/token/ERC20/ERC20.sol\":5823:5861  _spendAllowance(from, spender, amount) */\n      tag_83\n        /* \".deps/npm/@openzeppelin/contracts/token/ERC20/ERC20.sol\":5839:5843  from */\n      dup6\n        /* \".deps/npm/@openzeppelin/contracts/token/ERC20/ERC20.sol\":5845:5852  spender */\n      dup3\n        /* \".deps/npm/@openzeppelin/contracts/token/ERC20/ERC20.sol\":5854:5860  amount */\n      dup6\n        /* \".deps/npm/@openzeppelin/contracts/token/ERC20/ERC20.sol\":5823:5838  _spendAllowance */\n      tag_84\n        /* \".deps/npm/@openzeppelin/contracts/token/ERC20/ERC20.sol\":5823:5861  _spendAllowance(from, spender, amount) */\n      jump\t// in\n    tag_83:\n        /* \".deps/npm/@openzeppelin/contracts/token/ERC20/ERC20.sol\":5871:5898  _transfer(from, to, amount) */\n      tag_85\n        /* \".deps/npm/@openzeppelin/contracts/token/ERC20/ERC20.sol\":5881:5885  from */\n      dup6\n        /* \".deps/npm/@openzeppelin/contracts/token/ERC20/ERC20.sol\":5887:5889  to */\n      dup6\n        /* \".deps/npm/@openzeppelin/contracts/token/ERC20/ERC20.sol\":5891:5897  amount */\n      dup6\n        /* \".deps/npm/@openzeppelin/contracts/token/ERC20/ERC20.sol\":5871:5880  _transfer */\n      tag_86\n        /* \".deps/npm/@openzeppelin/contracts/token/ERC20/ERC20.sol\":5871:5898  _transfer(from, to, amount) */\n      jump\t// in\n    tag_85:\n        /* \".deps/npm/@openzeppelin/contracts/token/ERC20/ERC20.sol\":5915:5919  true */\n      0x01\n        /* \".deps/npm/@openzeppelin/contracts/token/ERC20/ERC20.sol\":5908:5919  return true */\n      swap2\n      pop\n      pop\n        /* \".deps/npm/@openzeppelin/contracts/token/ERC20/ERC20.sol\":5640:5926  function transferFrom(... */\n      swap4\n      swap3\n      pop\n      pop\n      pop\n      jump\t// out\n        /* \".deps/npm/@openzeppelin/contracts/token/ERC20/ERC20.sol\":2256:2539  function init(string memory name_, string memory symbol_, uint256 totalSupply_) public {... */\n    tag_38:\n        /* \".deps/npm/@openzeppelin/contracts/token/ERC20/ERC20.sol\":2361:2366  name_ */\n      dup3\n        /* \".deps/npm/@openzeppelin/contracts/token/ERC20/ERC20.sol\":2353:2358  _name */\n      0x03\n        /* \".deps/npm/@openzeppelin/contracts/token/ERC20/ERC20.sol\":2353:2366  _name = name_ */\n      swap1\n      dup1\n      mload\n      swap1\n      0x20\n      add\n      swap1\n      tag_88\n      swap3\n      swap2\n      swap1\n      tag_89\n      jump\t// in\n    tag_88:\n      pop\n        /* \".deps/npm/@openzeppelin/contracts/token/ERC20/ERC20.sol\":2386:2393  symbol_ */\n      dup2\n        /* \".deps/npm/@openzeppelin/contracts/token/ERC20/ERC20.sol\":2376:2383  _symbol */\n      0x04\n        /* \".deps/npm/@openzeppelin/contracts/token/ERC20/ERC20.sol\":2376:2393  _symbol = symbol_ */\n      swap1\n      dup1\n      mload\n      swap1\n      0x20\n      add\n      swap1\n      tag_90\n      swap3\n      swap2\n      swap1\n      tag_89\n      jump\t// in\n    tag_90:\n      pop\n        /* \".deps/npm/@openzeppelin/contracts/token/ERC20/ERC20.sol\":2441:2453  totalSupply_ */\n      dup1\n        /* \".deps/npm/@openzeppelin/contracts/token/ERC20/ERC20.sol\":2426:2438  _totalSupply */\n      0x02\n        /* \".deps/npm/@openzeppelin/contracts/token/ERC20/ERC20.sol\":2426:2453  _totalSupply = totalSupply_ */\n      dup2\n      swap1\n      sstore\n      pop\n        /* \".deps/npm/@openzeppelin/contracts/token/ERC20/ERC20.sol\":2463:2476  address owner */\n      0x00\n        /* \".deps/npm/@openzeppelin/contracts/token/ERC20/ERC20.sol\":2479:2491  _msgSender() */\n      tag_91\n        /* \".deps/npm/@openzeppelin/contracts/token/ERC20/ERC20.sol\":2479:2489  _msgSender */\n      tag_77\n        /* \".deps/npm/@openzeppelin/contracts/token/ERC20/ERC20.sol\":2479:2491  _msgSender() */\n      jump\t// in\n    tag_91:\n        /* \".deps/npm/@openzeppelin/contracts/token/ERC20/ERC20.sol\":2463:2491  address owner = _msgSender() */\n      swap1\n      pop\n        /* \".deps/npm/@openzeppelin/contracts/token/ERC20/ERC20.sol\":2520:2532  _totalSupply */\n      sload(0x02)\n        /* \".deps/npm/@openzeppelin/contracts/token/ERC20/ERC20.sol\":2501:2510  _balances */\n      0x00\n        /* \".deps/npm/@openzeppelin/contracts/token/ERC20/ERC20.sol\":2501:2517  _balances[owner] */\n      dup1\n        /* \".deps/npm/@openzeppelin/contracts/token/ERC20/ERC20.sol\":2511:2516  owner */\n      dup4\n        /* \".deps/npm/@openzeppelin/contracts/token/ERC20/ERC20.sol\":2501:2517  _balances[owner] */\n      0xffffffffffffffffffffffffffffffffffffffff\n      and\n      0xffffffffffffffffffffffffffffffffffffffff\n      and\n      dup2\n      mstore\n      0x20\n      add\n      swap1\n      dup2\n      mstore\n      0x20\n      add\n      0x00\n      keccak256\n        /* \".deps/npm/@openzeppelin/contracts/token/ERC20/ERC20.sol\":2501:2532  _balances[owner] = _totalSupply */\n      dup2\n      swap1\n      sstore\n      pop\n        /* \".deps/npm/@openzeppelin/contracts/token/ERC20/ERC20.sol\":2343:2539  {... */\n      pop\n        /* \".deps/npm/@openzeppelin/contracts/token/ERC20/ERC20.sol\":2256:2539  function init(string memory name_, string memory symbol_, uint256 totalSupply_) public {... */\n      pop\n      pop\n      pop\n      jump\t// out\n        /* \".deps/npm/@openzeppelin/contracts/token/ERC20/ERC20.sol\":3541:3632  function decimals() public view virtual override returns (uint8) {... */\n    tag_40:\n        /* \".deps/npm/@openzeppelin/contracts/token/ERC20/ERC20.sol\":3599:3604  uint8 */\n      0x00\n        /* \".deps/npm/@openzeppelin/contracts/token/ERC20/ERC20.sol\":3623:3625  18 */\n      0x12\n        /* \".deps/npm/@openzeppelin/contracts/token/ERC20/ERC20.sol\":3616:3625  return 18 */\n      swap1\n      pop\n        /* \".deps/npm/@openzeppelin/contracts/token/ERC20/ERC20.sol\":3541:3632  function decimals() public view virtual override returns (uint8) {... */\n      swap1\n      jump\t// out\n        /* \".deps/npm/@openzeppelin/contracts/token/ERC20/ERC20.sol\":6321:6555  function increaseAllowance(address spender, uint256 addedValue) public virtual returns (bool) {... */\n    tag_45:\n        /* \".deps/npm/@openzeppelin/contracts/token/ERC20/ERC20.sol\":6409:6413  bool */\n      0x00\n        /* \".deps/npm/@openzeppelin/contracts/token/ERC20/ERC20.sol\":6425:6438  address owner */\n      dup1\n        /* \".deps/npm/@openzeppelin/contracts/token/ERC20/ERC20.sol\":6441:6453  _msgSender() */\n      tag_94\n        /* \".deps/npm/@openzeppelin/contracts/token/ERC20/ERC20.sol\":6441:6451  _msgSender */\n      tag_77\n        /* \".deps/npm/@openzeppelin/contracts/token/ERC20/ERC20.sol\":6441:6453  _msgSender() */\n      jump\t// in\n    tag_94:\n        /* \".deps/npm/@openzeppelin/contracts/token/ERC20/ERC20.sol\":6425:6453  address owner = _msgSender() */\n      swap1\n      pop\n        /* \".deps/npm/@openzeppelin/contracts/token/ERC20/ERC20.sol\":6463:6527  _approve(owner, spender, allowance(owner, spender) + addedValue) */\n      tag_95\n        /* \".deps/npm/@openzeppelin/contracts/token/ERC20/ERC20.sol\":6472:6477  owner */\n      dup2\n        /* \".deps/npm/@openzeppelin/contracts/token/ERC20/ERC20.sol\":6479:6486  spender */\n      dup6\n        /* \".deps/npm/@openzeppelin/contracts/token/ERC20/ERC20.sol\":6516:6526  addedValue */\n      dup6\n        /* \".deps/npm/@openzeppelin/contracts/token/ERC20/ERC20.sol\":6488:6513  allowance(owner, spender) */\n      tag_96\n        /* \".deps/npm/@openzeppelin/contracts/token/ERC20/ERC20.sol\":6498:6503  owner */\n      dup6\n        /* \".deps/npm/@openzeppelin/contracts/token/ERC20/ERC20.sol\":6505:6512  spender */\n      dup10\n        /* \".deps/npm/@openzeppelin/contracts/token/ERC20/ERC20.sol\":6488:6497  allowance */\n      tag_66\n        /* \".deps/npm/@openzeppelin/contracts/token/ERC20/ERC20.sol\":6488:6513  allowance(owner, spender) */\n      jump\t// in\n    tag_96:\n        /* \".deps/npm/@openzeppelin/contracts/token/ERC20/ERC20.sol\":6488:6526  allowance(owner, spender) + addedValue */\n      tag_97\n      swap2\n      swap1\n      tag_98\n      jump\t// in\n    tag_97:\n        /* \".deps/npm/@openzeppelin/contracts/token/ERC20/ERC20.sol\":6463:6471  _approve */\n      tag_79\n        /* \".deps/npm/@openzeppelin/contracts/token/ERC20/ERC20.sol\":6463:6527  _approve(owner, spender, allowance(owner, spender) + addedValue) */\n      jump\t// in\n    tag_95:\n        /* \".deps/npm/@openzeppelin/contracts/token/ERC20/ERC20.sol\":6544:6548  true */\n      0x01\n        /* \".deps/npm/@openzeppelin/contracts/token/ERC20/ERC20.sol\":6537:6548  return true */\n      swap2\n      pop\n      pop\n        /* \".deps/npm/@openzeppelin/contracts/token/ERC20/ERC20.sol\":6321:6555  function increaseAllowance(address spender, uint256 addedValue) public virtual returns (bool) {... */\n      swap3\n      swap2\n      pop\n      pop\n      jump\t// out\n        /* \".deps/npm/@openzeppelin/contracts/token/ERC20/ERC20.sol\":3856:3981  function balanceOf(address account) public view virtual override returns (uint256) {... */\n    tag_50:\n        /* \".deps/npm/@openzeppelin/contracts/token/ERC20/ERC20.sol\":3930:3937  uint256 */\n      0x00\n        /* \".deps/npm/@openzeppelin/contracts/token/ERC20/ERC20.sol\":3956:3965  _balances */\n      dup1\n        /* \".deps/npm/@openzeppelin/contracts/token/ERC20/ERC20.sol\":3956:3974  _balances[account] */\n      0x00\n        /* \".deps/npm/@openzeppelin/contracts/token/ERC20/ERC20.sol\":3966:3973  account */\n      dup4\n        /* \".deps/npm/@openzeppelin/contracts/token/ERC20/ERC20.sol\":3956:3974  _balances[account] */\n      0xffffffffffffffffffffffffffffffffffffffff\n      and\n      0xffffffffffffffffffffffffffffffffffffffff\n      and\n      dup2\n      mstore\n      0x20\n      add\n      swap1\n      dup2\n      mstore\n      0x20\n      add\n      0x00\n      keccak256\n      sload\n        /* \".deps/npm/@openzeppelin/contracts/token/ERC20/ERC20.sol\":3949:3974  return _balances[account] */\n      swap1\n      pop\n        /* \".deps/npm/@openzeppelin/contracts/token/ERC20/ERC20.sol\":3856:3981  function balanceOf(address account) public view virtual override returns (uint256) {... */\n      swap2\n      swap1\n      pop\n      jump\t// out\n        /* \".deps/npm/@openzeppelin/contracts/token/ERC20/ERC20.sol\":2815:2917  function symbol() public view virtual override returns (string memory) {... */\n    tag_53:\n        /* \".deps/npm/@openzeppelin/contracts/token/ERC20/ERC20.sol\":2871:2884  string memory */\n      0x60\n        /* \".deps/npm/@openzeppelin/contracts/token/ERC20/ERC20.sol\":2903:2910  _symbol */\n      0x04\n        /* \".deps/npm/@openzeppelin/contracts/token/ERC20/ERC20.sol\":2896:2910  return _symbol */\n      dup1\n      sload\n      tag_101\n      swap1\n      tag_70\n      jump\t// in\n    tag_101:\n      dup1\n      0x1f\n      add\n      0x20\n      dup1\n      swap2\n      div\n      mul\n      0x20\n      add\n      mload(0x40)\n      swap1\n      dup2\n      add\n      0x40\n      mstore\n      dup1\n      swap3\n      swap2\n      swap1\n      dup2\n      dup2\n      mstore\n      0x20\n      add\n      dup3\n      dup1\n      sload\n      tag_102\n      swap1\n      tag_70\n      jump\t// in\n    tag_102:\n      dup1\n      iszero\n      tag_103\n      jumpi\n      dup1\n      0x1f\n      lt\n      tag_104\n      jumpi\n      0x0100\n      dup1\n      dup4\n      sload\n      div\n      mul\n      dup4\n      mstore\n      swap2\n      0x20\n      add\n      swap2\n      jump(tag_103)\n    tag_104:\n      dup3\n      add\n      swap2\n      swap1\n      0x00\n      mstore\n      keccak256(0x00, 0x20)\n      swap1\n    tag_105:\n      dup2\n      sload\n      dup2\n      mstore\n      swap1\n      0x01\n      add\n      swap1\n      0x20\n      add\n      dup1\n      dup4\n      gt\n      tag_105\n      jumpi\n      dup3\n      swap1\n      sub\n      0x1f\n      and\n      dup3\n      add\n      swap2\n    tag_103:\n      pop\n      pop\n      pop\n      pop\n      pop\n      swap1\n      pop\n        /* \".deps/npm/@openzeppelin/contracts/token/ERC20/ERC20.sol\":2815:2917  function symbol() public view virtual override returns (string memory) {... */\n      swap1\n      jump\t// out\n        /* \".deps/npm/@openzeppelin/contracts/token/ERC20/ERC20.sol\":7042:7469  function decreaseAllowance(address spender, uint256 subtractedValue) public virtual returns (bool) {... */\n    tag_57:\n        /* \".deps/npm/@openzeppelin/contracts/token/ERC20/ERC20.sol\":7135:7139  bool */\n      0x00\n        /* \".deps/npm/@openzeppelin/contracts/token/ERC20/ERC20.sol\":7151:7164  address owner */\n      dup1\n        /* \".deps/npm/@openzeppelin/contracts/token/ERC20/ERC20.sol\":7167:7179  _msgSender() */\n      tag_107\n        /* \".deps/npm/@openzeppelin/contracts/token/ERC20/ERC20.sol\":7167:7177  _msgSender */\n      tag_77\n        /* \".deps/npm/@openzeppelin/contracts/token/ERC20/ERC20.sol\":7167:7179  _msgSender() */\n      jump\t// in\n    tag_107:\n        /* \".deps/npm/@openzeppelin/contracts/token/ERC20/ERC20.sol\":7151:7179  address owner = _msgSender() */\n      swap1\n      pop\n        /* \".deps/npm/@openzeppelin/contracts/token/ERC20/ERC20.sol\":7189:7213  uint256 currentAllowance */\n      0x00\n        /* \".deps/npm/@openzeppelin/contracts/token/ERC20/ERC20.sol\":7216:7241  allowance(owner, spender) */\n      tag_108\n        /* \".deps/npm/@openzeppelin/contracts/token/ERC20/ERC20.sol\":7226:7231  owner */\n      dup3\n        /* \".deps/npm/@openzeppelin/contracts/token/ERC20/ERC20.sol\":7233:7240  spender */\n      dup7\n        /* \".deps/npm/@openzeppelin/contracts/token/ERC20/ERC20.sol\":7216:7225  allowance */\n      tag_66\n        /* \".deps/npm/@openzeppelin/contracts/token/ERC20/ERC20.sol\":7216:7241  allowance(owner, spender) */\n      jump\t// in\n    tag_108:\n        /* \".deps/npm/@openzeppelin/contracts/token/ERC20/ERC20.sol\":7189:7241  uint256 currentAllowance = allowance(owner, spender) */\n      swap1\n      pop\n        /* \".deps/npm/@openzeppelin/contracts/token/ERC20/ERC20.sol\":7279:7294  subtractedValue */\n      dup4\n        /* \".deps/npm/@openzeppelin/contracts/token/ERC20/ERC20.sol\":7259:7275  currentAllowance */\n      dup2\n        /* \".deps/npm/@openzeppelin/contracts/token/ERC20/ERC20.sol\":7259:7294  currentAllowance >= subtractedValue */\n      lt\n      iszero\n        /* \".deps/npm/@openzeppelin/contracts/token/ERC20/ERC20.sol\":7251:7336  require(currentAllowance >= subtractedValue, \"ERC20: decreased allowance below zero\") */\n      tag_109\n      jumpi\n      mload(0x40)\n      0x08c379a000000000000000000000000000000000000000000000000000000000\n      dup2\n      mstore\n      0x04\n      add\n      tag_110\n      swap1\n      tag_111\n      jump\t// in\n    tag_110:\n      mload(0x40)\n      dup1\n      swap2\n      sub\n      swap1\n      revert\n    tag_109:\n        /* \".deps/npm/@openzeppelin/contracts/token/ERC20/ERC20.sol\":7370:7430  _approve(owner, spender, currentAllowance - subtractedValue) */\n      tag_112\n        /* \".deps/npm/@openzeppelin/contracts/token/ERC20/ERC20.sol\":7379:7384  owner */\n      dup3\n        /* \".deps/npm/@openzeppelin/contracts/token/ERC20/ERC20.sol\":7386:7393  spender */\n      dup7\n        /* \".deps/npm/@openzeppelin/contracts/token/ERC20/ERC20.sol\":7414:7429  subtractedValue */\n      dup7\n        /* \".deps/npm/@openzeppelin/contracts/token/ERC20/ERC20.sol\":7395:7411  currentAllowance */\n      dup5\n        /* \".deps/npm/@openzeppelin/contracts/token/ERC20/ERC20.sol\":7395:7429  currentAllowance - subtractedValue */\n      sub\n        /* \".deps/npm/@openzeppelin/contracts/token/ERC20/ERC20.sol\":7370:7378  _approve */\n      tag_79\n        /* \".deps/npm/@openzeppelin/contracts/token/ERC20/ERC20.sol\":7370:7430  _approve(owner, spender, currentAllowance - subtractedValue) */\n      jump\t// in\n    tag_112:\n        /* \".deps/npm/@openzeppelin/contracts/token/ERC20/ERC20.sol\":7458:7462  true */\n      0x01\n        /* \".deps/npm/@openzeppelin/contracts/token/ERC20/ERC20.sol\":7451:7462  return true */\n      swap3\n      pop\n      pop\n      pop\n        /* \".deps/npm/@openzeppelin/contracts/token/ERC20/ERC20.sol\":7042:7469  function decreaseAllowance(address spender, uint256 subtractedValue) public virtual returns (bool) {... */\n      swap3\n      swap2\n      pop\n      pop\n      jump\t// out\n        /* \".deps/npm/@openzeppelin/contracts/token/ERC20/ERC20.sol\":4177:4366  function transfer(address to, uint256 amount) public virtual override returns (bool) {... */\n    tag_61:\n        /* \".deps/npm/@openzeppelin/contracts/token/ERC20/ERC20.sol\":4256:4260  bool */\n      0x00\n        /* \".deps/npm/@openzeppelin/contracts/token/ERC20/ERC20.sol\":4272:4285  address owner */\n      dup1\n        /* \".deps/npm/@openzeppelin/contracts/token/ERC20/ERC20.sol\":4288:4300  _msgSender() */\n      tag_114\n        /* \".deps/npm/@openzeppelin/contracts/token/ERC20/ERC20.sol\":4288:4298  _msgSender */\n      tag_77\n        /* \".deps/npm/@openzeppelin/contracts/token/ERC20/ERC20.sol\":4288:4300  _msgSender() */\n      jump\t// in\n    tag_114:\n        /* \".deps/npm/@openzeppelin/contracts/token/ERC20/ERC20.sol\":4272:4300  address owner = _msgSender() */\n      swap1\n      pop\n        /* \".deps/npm/@openzeppelin/contracts/token/ERC20/ERC20.sol\":4310:4338  _transfer(owner, to, amount) */\n      tag_115\n        /* \".deps/npm/@openzeppelin/contracts/token/ERC20/ERC20.sol\":4320:4325  owner */\n      dup2\n        /* \".deps/npm/@openzeppelin/contracts/token/ERC20/ERC20.sol\":4327:4329  to */\n      dup6\n        /* \".deps/npm/@openzeppelin/contracts/token/ERC20/ERC20.sol\":4331:4337  amount */\n      dup6\n        /* \".deps/npm/@openzeppelin/contracts/token/ERC20/ERC20.sol\":4310:4319  _transfer */\n      tag_86\n        /* \".deps/npm/@openzeppelin/contracts/token/ERC20/ERC20.sol\":4310:4338  _transfer(owner, to, amount) */\n      jump\t// in\n    tag_115:\n        /* \".deps/npm/@openzeppelin/contracts/token/ERC20/ERC20.sol\":4355:4359  true */\n      0x01\n        /* \".deps/npm/@openzeppelin/contracts/token/ERC20/ERC20.sol\":4348:4359  return true */\n      swap2\n      pop\n      pop\n        /* \".deps/npm/@openzeppelin/contracts/token/ERC20/ERC20.sol\":4177:4366  function transfer(address to, uint256 amount) public virtual override returns (bool) {... */\n      swap3\n      swap2\n      pop\n      pop\n      jump\t// out\n        /* \".deps/npm/@openzeppelin/contracts/token/ERC20/ERC20.sol\":4424:4573  function allowance(address owner, address spender) public view virtual override returns (uint256) {... */\n    tag_66:\n        /* \".deps/npm/@openzeppelin/contracts/token/ERC20/ERC20.sol\":4513:4520  uint256 */\n      0x00\n        /* \".deps/npm/@openzeppelin/contracts/token/ERC20/ERC20.sol\":4539:4550  _allowances */\n      0x01\n        /* \".deps/npm/@openzeppelin/contracts/token/ERC20/ERC20.sol\":4539:4557  _allowances[owner] */\n      0x00\n        /* \".deps/npm/@openzeppelin/contracts/token/ERC20/ERC20.sol\":4551:4556  owner */\n      dup5\n        /* \".deps/npm/@openzeppelin/contracts/token/ERC20/ERC20.sol\":4539:4557  _allowances[owner] */\n      0xffffffffffffffffffffffffffffffffffffffff\n      and\n      0xffffffffffffffffffffffffffffffffffffffff\n      and\n      dup2\n      mstore\n      0x20\n      add\n      swap1\n      dup2\n      mstore\n      0x20\n      add\n      0x00\n      keccak256\n        /* \".deps/npm/@openzeppelin/contracts/token/ERC20/ERC20.sol\":4539:4566  _allowances[owner][spender] */\n      0x00\n        /* \".deps/npm/@openzeppelin/contracts/token/ERC20/ERC20.sol\":4558:4565  spender */\n      dup4\n        /* \".deps/npm/@openzeppelin/contracts/token/ERC20/ERC20.sol\":4539:4566  _allowances[owner][spender] */\n      0xffffffffffffffffffffffffffffffffffffffff\n      and\n      0xffffffffffffffffffffffffffffffffffffffff\n      and\n      dup2\n      mstore\n      0x20\n      add\n      swap1\n      dup2\n      mstore\n      0x20\n      add\n      0x00\n      keccak256\n      sload\n        /* \".deps/npm/@openzeppelin/contracts/token/ERC20/ERC20.sol\":4532:4566  return _allowances[owner][spender] */\n      swap1\n      pop\n        /* \".deps/npm/@openzeppelin/contracts/token/ERC20/ERC20.sol\":4424:4573  function allowance(address owner, address spender) public view virtual override returns (uint256) {... */\n      swap3\n      swap2\n      pop\n      pop\n      jump\t// out\n        /* \".deps/npm/@openzeppelin/contracts/utils/Context.sol\":640:736  function _msgSender() internal view virtual returns (address) {... */\n    tag_77:\n        /* \".deps/npm/@openzeppelin/contracts/utils/Context.sol\":693:700  address */\n      0x00\n        /* \".deps/npm/@openzeppelin/contracts/utils/Context.sol\":719:729  msg.sender */\n      caller\n        /* \".deps/npm/@openzeppelin/contracts/utils/Context.sol\":712:729  return msg.sender */\n      swap1\n      pop\n        /* \".deps/npm/@openzeppelin/contracts/utils/Context.sol\":640:736  function _msgSender() internal view virtual returns (address) {... */\n      swap1\n      jump\t// out\n        /* \".deps/npm/@openzeppelin/contracts/token/ERC20/ERC20.sol\":10954:11324  function _approve(... */\n    tag_79:\n        /* \".deps/npm/@openzeppelin/contracts/token/ERC20/ERC20.sol\":11102:11103  0 */\n      0x00\n        /* \".deps/npm/@openzeppelin/contracts/token/ERC20/ERC20.sol\":11085:11104  owner != address(0) */\n      0xffffffffffffffffffffffffffffffffffffffff\n      and\n        /* \".deps/npm/@openzeppelin/contracts/token/ERC20/ERC20.sol\":11085:11090  owner */\n      dup4\n        /* \".deps/npm/@openzeppelin/contracts/token/ERC20/ERC20.sol\":11085:11104  owner != address(0) */\n      0xffffffffffffffffffffffffffffffffffffffff\n      and\n      eq\n      iszero\n        /* \".deps/npm/@openzeppelin/contracts/token/ERC20/ERC20.sol\":11077:11145  require(owner != address(0), \"ERC20: approve from the zero address\") */\n      tag_119\n      jumpi\n      mload(0x40)\n      0x08c379a000000000000000000000000000000000000000000000000000000000\n      dup2\n      mstore\n      0x04\n      add\n      tag_120\n      swap1\n      tag_121\n      jump\t// in\n    tag_120:\n      mload(0x40)\n      dup1\n      swap2\n      sub\n      swap1\n      revert\n    tag_119:\n        /* \".deps/npm/@openzeppelin/contracts/token/ERC20/ERC20.sol\":11182:11183  0 */\n      0x00\n        /* \".deps/npm/@openzeppelin/contracts/token/ERC20/ERC20.sol\":11163:11184  spender != address(0) */\n      0xffffffffffffffffffffffffffffffffffffffff\n      and\n        /* \".deps/npm/@openzeppelin/contracts/token/ERC20/ERC20.sol\":11163:11170  spender */\n      dup3\n        /* \".deps/npm/@openzeppelin/contracts/token/ERC20/ERC20.sol\":11163:11184  spender != address(0) */\n      0xffffffffffffffffffffffffffffffffffffffff\n      and\n      eq\n      iszero\n        /* \".deps/npm/@openzeppelin/contracts/token/ERC20/ERC20.sol\":11155:11223  require(spender != address(0), \"ERC20: approve to the zero address\") */\n      tag_122\n      jumpi\n      mload(0x40)\n      0x08c379a000000000000000000000000000000000000000000000000000000000\n      dup2\n      mstore\n      0x04\n      add\n      tag_123\n      swap1\n      tag_124\n      jump\t// in\n    tag_123:\n      mload(0x40)\n      dup1\n      swap2\n      sub\n      swap1\n      revert\n    tag_122:\n        /* \".deps/npm/@openzeppelin/contracts/token/ERC20/ERC20.sol\":11264:11270  amount */\n      dup1\n        /* \".deps/npm/@openzeppelin/contracts/token/ERC20/ERC20.sol\":11234:11245  _allowances */\n      0x01\n        /* \".deps/npm/@openzeppelin/contracts/token/ERC20/ERC20.sol\":11234:11252  _allowances[owner] */\n      0x00\n        /* \".deps/npm/@openzeppelin/contracts/token/ERC20/ERC20.sol\":11246:11251  owner */\n      dup6\n        /* \".deps/npm/@openzeppelin/contracts/token/ERC20/ERC20.sol\":11234:11252  _allowances[owner] */\n      0xffffffffffffffffffffffffffffffffffffffff\n      and\n      0xffffffffffffffffffffffffffffffffffffffff\n      and\n      dup2\n      mstore\n      0x20\n      add\n      swap1\n      dup2\n      mstore\n      0x20\n      add\n      0x00\n      keccak256\n        /* \".deps/npm/@openzeppelin/contracts/token/ERC20/ERC20.sol\":11234:11261  _allowances[owner][spender] */\n      0x00\n        /* \".deps/npm/@openzeppelin/contracts/token/ERC20/ERC20.sol\":11253:11260  spender */\n      dup5\n        /* \".deps/npm/@openzeppelin/contracts/token/ERC20/ERC20.sol\":11234:11261  _allowances[owner][spender] */\n      0xffffffffffffffffffffffffffffffffffffffff\n      and\n      0xffffffffffffffffffffffffffffffffffffffff\n      and\n      dup2\n      mstore\n      0x20\n      add\n      swap1\n      dup2\n      mstore\n      0x20\n      add\n      0x00\n      keccak256\n        /* \".deps/npm/@openzeppelin/contracts/token/ERC20/ERC20.sol\":11234:11270  _allowances[owner][spender] = amount */\n      dup2\n      swap1\n      sstore\n      pop\n        /* \".deps/npm/@openzeppelin/contracts/token/ERC20/ERC20.sol\":11301:11308  spender */\n      dup2\n        /* \".deps/npm/@openzeppelin/contracts/token/ERC20/ERC20.sol\":11285:11317  Approval(owner, spender, amount) */\n      0xffffffffffffffffffffffffffffffffffffffff\n      and\n        /* \".deps/npm/@openzeppelin/contracts/token/ERC20/ERC20.sol\":11294:11299  owner */\n      dup4\n        /* \".deps/npm/@openzeppelin/contracts/token/ERC20/ERC20.sol\":11285:11317  Approval(owner, spender, amount) */\n      0xffffffffffffffffffffffffffffffffffffffff\n      and\n      0x8c5be1e5ebec7d5bd14f71427d1e84f3dd0314c0f7b2291e5b200ac8c7c3b925\n        /* \".deps/npm/@openzeppelin/contracts/token/ERC20/ERC20.sol\":11310:11316  amount */\n      dup4\n        /* \".deps/npm/@openzeppelin/contracts/token/ERC20/ERC20.sol\":11285:11317  Approval(owner, spender, amount) */\n      mload(0x40)\n      tag_125\n      swap2\n      swap1\n      tag_29\n      jump\t// in\n    tag_125:\n      mload(0x40)\n      dup1\n      swap2\n      sub\n      swap1\n      log3\n        /* \".deps/npm/@openzeppelin/contracts/token/ERC20/ERC20.sol\":10954:11324  function _approve(... */\n      pop\n      pop\n      pop\n      jump\t// out\n        /* \".deps/npm/@openzeppelin/contracts/token/ERC20/ERC20.sol\":11605:12046  function _spendAllowance(... */\n    tag_84:\n        /* \".deps/npm/@openzeppelin/contracts/token/ERC20/ERC20.sol\":11735:11759  uint256 currentAllowance */\n      0x00\n        /* \".deps/npm/@openzeppelin/contracts/token/ERC20/ERC20.sol\":11762:11787  allowance(owner, spender) */\n      tag_127\n        /* \".deps/npm/@openzeppelin/contracts/token/ERC20/ERC20.sol\":11772:11777  owner */\n      dup5\n        /* \".deps/npm/@openzeppelin/contracts/token/ERC20/ERC20.sol\":11779:11786  spender */\n      dup5\n        /* \".deps/npm/@openzeppelin/contracts/token/ERC20/ERC20.sol\":11762:11771  allowance */\n      tag_66\n        /* \".deps/npm/@openzeppelin/contracts/token/ERC20/ERC20.sol\":11762:11787  allowance(owner, spender) */\n      jump\t// in\n    tag_127:\n        /* \".deps/npm/@openzeppelin/contracts/token/ERC20/ERC20.sol\":11735:11787  uint256 currentAllowance = allowance(owner, spender) */\n      swap1\n      pop\n        /* \".deps/npm/@openzeppelin/contracts/token/ERC20/ERC20.sol\":11821:11838  type(uint256).max */\n      0xffffffffffffffffffffffffffffffffffffffffffffffffffffffffffffffff\n        /* \".deps/npm/@openzeppelin/contracts/token/ERC20/ERC20.sol\":11801:11817  currentAllowance */\n      dup2\n        /* \".deps/npm/@openzeppelin/contracts/token/ERC20/ERC20.sol\":11801:11838  currentAllowance != type(uint256).max */\n      eq\n        /* \".deps/npm/@openzeppelin/contracts/token/ERC20/ERC20.sol\":11797:12040  if (currentAllowance != type(uint256).max) {... */\n      tag_128\n      jumpi\n        /* \".deps/npm/@openzeppelin/contracts/token/ERC20/ERC20.sol\":11882:11888  amount */\n      dup2\n        /* \".deps/npm/@openzeppelin/contracts/token/ERC20/ERC20.sol\":11862:11878  currentAllowance */\n      dup2\n        /* \".deps/npm/@openzeppelin/contracts/token/ERC20/ERC20.sol\":11862:11888  currentAllowance >= amount */\n      lt\n      iszero\n        /* \".deps/npm/@openzeppelin/contracts/token/ERC20/ERC20.sol\":11854:11922  require(currentAllowance >= amount, \"ERC20: insufficient allowance\") */\n      tag_129\n      jumpi\n      mload(0x40)\n      0x08c379a000000000000000000000000000000000000000000000000000000000\n      dup2\n      mstore\n      0x04\n      add\n      tag_130\n      swap1\n      tag_131\n      jump\t// in\n    tag_130:\n      mload(0x40)\n      dup1\n      swap2\n      sub\n      swap1\n      revert\n    tag_129:\n        /* \".deps/npm/@openzeppelin/contracts/token/ERC20/ERC20.sol\":11964:12015  _approve(owner, spender, currentAllowance - amount) */\n      tag_132\n        /* \".deps/npm/@openzeppelin/contracts/token/ERC20/ERC20.sol\":11973:11978  owner */\n      dup5\n        /* \".deps/npm/@openzeppelin/contracts/token/ERC20/ERC20.sol\":11980:11987  spender */\n      dup5\n        /* \".deps/npm/@openzeppelin/contracts/token/ERC20/ERC20.sol\":12008:12014  amount */\n      dup5\n        /* \".deps/npm/@openzeppelin/contracts/token/ERC20/ERC20.sol\":11989:12005  currentAllowance */\n      dup5\n        /* \".deps/npm/@openzeppelin/contracts/token/ERC20/ERC20.sol\":11989:12014  currentAllowance - amount */\n      sub\n        /* \".deps/npm/@openzeppelin/contracts/token/ERC20/ERC20.sol\":11964:11972  _approve */\n      tag_79\n        /* \".deps/npm/@openzeppelin/contracts/token/ERC20/ERC20.sol\":11964:12015  _approve(owner, spender, currentAllowance - amount) */\n      jump\t// in\n    tag_132:\n        /* \".deps/npm/@openzeppelin/contracts/token/ERC20/ERC20.sol\":11797:12040  if (currentAllowance != type(uint256).max) {... */\n    tag_128:\n        /* \".deps/npm/@openzeppelin/contracts/token/ERC20/ERC20.sol\":11725:12046  {... */\n      pop\n        /* \".deps/npm/@openzeppelin/contracts/token/ERC20/ERC20.sol\":11605:12046  function _spendAllowance(... */\n      pop\n      pop\n      pop\n      jump\t// out\n        /* \".deps/npm/@openzeppelin/contracts/token/ERC20/ERC20.sol\":7923:8741  function _transfer(... */\n    tag_86:\n        /* \".deps/npm/@openzeppelin/contracts/token/ERC20/ERC20.sol\":8065:8066  0 */\n      0x00\n        /* \".deps/npm/@openzeppelin/contracts/token/ERC20/ERC20.sol\":8049:8067  from != address(0) */\n      0xffffffffffffffffffffffffffffffffffffffff\n      and\n        /* \".deps/npm/@openzeppelin/contracts/token/ERC20/ERC20.sol\":8049:8053  from */\n      dup4\n        /* \".deps/npm/@openzeppelin/contracts/token/ERC20/ERC20.sol\":8049:8067  from != address(0) */\n      0xffffffffffffffffffffffffffffffffffffffff\n      and\n      eq\n      iszero\n        /* \".deps/npm/@openzeppelin/contracts/token/ERC20/ERC20.sol\":8041:8109  require(from != address(0), \"ERC20: transfer from the zero address\") */\n      tag_134\n      jumpi\n      mload(0x40)\n      0x08c379a000000000000000000000000000000000000000000000000000000000\n      dup2\n      mstore\n      0x04\n      add\n      tag_135\n      swap1\n      tag_136\n      jump\t// in\n    tag_135:\n      mload(0x40)\n      dup1\n      swap2\n      sub\n      swap1\n      revert\n    tag_134:\n        /* \".deps/npm/@openzeppelin/contracts/token/ERC20/ERC20.sol\":8141:8142  0 */\n      0x00\n        /* \".deps/npm/@openzeppelin/contracts/token/ERC20/ERC20.sol\":8127:8143  to != address(0) */\n      0xffffffffffffffffffffffffffffffffffffffff\n      and\n        /* \".deps/npm/@openzeppelin/contracts/token/ERC20/ERC20.sol\":8127:8129  to */\n      dup3\n        /* \".deps/npm/@openzeppelin/contracts/token/ERC20/ERC20.sol\":8127:8143  to != address(0) */\n      0xffffffffffffffffffffffffffffffffffffffff\n      and\n      eq\n      iszero\n        /* \".deps/npm/@openzeppelin/contracts/token/ERC20/ERC20.sol\":8119:8183  require(to != address(0), \"ERC20: transfer to the zero address\") */\n      tag_137\n      jumpi\n      mload(0x40)\n      0x08c379a000000000000000000000000000000000000000000000000000000000\n      dup2\n      mstore\n      0x04\n      add\n      tag_138\n      swap1\n      tag_139\n      jump\t// in\n    tag_138:\n      mload(0x40)\n      dup1\n      swap2\n      sub\n      swap1\n      revert\n    tag_137:\n        /* \".deps/npm/@openzeppelin/contracts/token/ERC20/ERC20.sol\":8194:8232  _beforeTokenTransfer(from, to, amount) */\n      tag_140\n        /* \".deps/npm/@openzeppelin/contracts/token/ERC20/ERC20.sol\":8215:8219  from */\n      dup4\n        /* \".deps/npm/@openzeppelin/contracts/token/ERC20/ERC20.sol\":8221:8223  to */\n      dup4\n        /* \".deps/npm/@openzeppelin/contracts/token/ERC20/ERC20.sol\":8225:8231  amount */\n      dup4\n        /* \".deps/npm/@openzeppelin/contracts/token/ERC20/ERC20.sol\":8194:8214  _beforeTokenTransfer */\n      tag_141\n        /* \".deps/npm/@openzeppelin/contracts/token/ERC20/ERC20.sol\":8194:8232  _beforeTokenTransfer(from, to, amount) */\n      jump\t// in\n    tag_140:\n        /* \".deps/npm/@openzeppelin/contracts/token/ERC20/ERC20.sol\":8243:8262  uint256 fromBalance */\n      0x00\n        /* \".deps/npm/@openzeppelin/contracts/token/ERC20/ERC20.sol\":8265:8274  _balances */\n      dup1\n        /* \".deps/npm/@openzeppelin/contracts/token/ERC20/ERC20.sol\":8265:8280  _balances[from] */\n      0x00\n        /* \".deps/npm/@openzeppelin/contracts/token/ERC20/ERC20.sol\":8275:8279  from */\n      dup6\n        /* \".deps/npm/@openzeppelin/contracts/token/ERC20/ERC20.sol\":8265:8280  _balances[from] */\n      0xffffffffffffffffffffffffffffffffffffffff\n      and\n      0xffffffffffffffffffffffffffffffffffffffff\n      and\n      dup2\n      mstore\n      0x20\n      add\n      swap1\n      dup2\n      mstore\n      0x20\n      add\n      0x00\n      keccak256\n      sload\n        /* \".deps/npm/@openzeppelin/contracts/token/ERC20/ERC20.sol\":8243:8280  uint256 fromBalance = _balances[from] */\n      swap1\n      pop\n        /* \".deps/npm/@openzeppelin/contracts/token/ERC20/ERC20.sol\":8313:8319  amount */\n      dup2\n        /* \".deps/npm/@openzeppelin/contracts/token/ERC20/ERC20.sol\":8298:8309  fromBalance */\n      dup2\n        /* \".deps/npm/@openzeppelin/contracts/token/ERC20/ERC20.sol\":8298:8319  fromBalance >= amount */\n      lt\n      iszero\n        /* \".deps/npm/@openzeppelin/contracts/token/ERC20/ERC20.sol\":8290:8362  require(fromBalance >= amount, \"ERC20: transfer amount exceeds balance\") */\n      tag_142\n      jumpi\n      mload(0x40)\n      0x08c379a000000000000000000000000000000000000000000000000000000000\n      dup2\n      mstore\n      0x04\n      add\n      tag_143\n      swap1\n      tag_144\n      jump\t// in\n    tag_143:\n      mload(0x40)\n      dup1\n      swap2\n      sub\n      swap1\n      revert\n    tag_142:\n        /* \".deps/npm/@openzeppelin/contracts/token/ERC20/ERC20.sol\":8428:8434  amount */\n      dup2\n        /* \".deps/npm/@openzeppelin/contracts/token/ERC20/ERC20.sol\":8414:8425  fromBalance */\n      dup2\n        /* \".deps/npm/@openzeppelin/contracts/token/ERC20/ERC20.sol\":8414:8434  fromBalance - amount */\n      sub\n        /* \".deps/npm/@openzeppelin/contracts/token/ERC20/ERC20.sol\":8396:8405  _balances */\n      0x00\n        /* \".deps/npm/@openzeppelin/contracts/token/ERC20/ERC20.sol\":8396:8411  _balances[from] */\n      dup1\n        /* \".deps/npm/@openzeppelin/contracts/token/ERC20/ERC20.sol\":8406:8410  from */\n      dup7\n        /* \".deps/npm/@openzeppelin/contracts/token/ERC20/ERC20.sol\":8396:8411  _balances[from] */\n      0xffffffffffffffffffffffffffffffffffffffff\n      and\n      0xffffffffffffffffffffffffffffffffffffffff\n      and\n      dup2\n      mstore\n      0x20\n      add\n      swap1\n      dup2\n      mstore\n      0x20\n      add\n      0x00\n      keccak256\n        /* \".deps/npm/@openzeppelin/contracts/token/ERC20/ERC20.sol\":8396:8434  _balances[from] = fromBalance - amount */\n      dup2\n      swap1\n      sstore\n      pop\n        /* \".deps/npm/@openzeppelin/contracts/token/ERC20/ERC20.sol\":8628:8634  amount */\n      dup2\n        /* \".deps/npm/@openzeppelin/contracts/token/ERC20/ERC20.sol\":8611:8620  _balances */\n      0x00\n        /* \".deps/npm/@openzeppelin/contracts/token/ERC20/ERC20.sol\":8611:8624  _balances[to] */\n      dup1\n        /* \".deps/npm/@openzeppelin/contracts/token/ERC20/ERC20.sol\":8621:8623  to */\n      dup6\n        /* \".deps/npm/@openzeppelin/contracts/token/ERC20/ERC20.sol\":8611:8624  _balances[to] */\n      0xffffffffffffffffffffffffffffffffffffffff\n      and\n      0xffffffffffffffffffffffffffffffffffffffff\n      and\n      dup2\n      mstore\n      0x20\n      add\n      swap1\n      dup2\n      mstore\n      0x20\n      add\n      0x00\n      keccak256\n      0x00\n        /* \".deps/npm/@openzeppelin/contracts/token/ERC20/ERC20.sol\":8611:8634  _balances[to] += amount */\n      dup3\n      dup3\n      sload\n      add\n      swap3\n      pop\n      pop\n      dup2\n      swap1\n      sstore\n      pop\n        /* \".deps/npm/@openzeppelin/contracts/token/ERC20/ERC20.sol\":8675:8677  to */\n      dup3\n        /* \".deps/npm/@openzeppelin/contracts/token/ERC20/ERC20.sol\":8660:8686  Transfer(from, to, amount) */\n      0xffffffffffffffffffffffffffffffffffffffff\n      and\n        /* \".deps/npm/@openzeppelin/contracts/token/ERC20/ERC20.sol\":8669:8673  from */\n      dup5\n        /* \".deps/npm/@openzeppelin/contracts/token/ERC20/ERC20.sol\":8660:8686  Transfer(from, to, amount) */\n      0xffffffffffffffffffffffffffffffffffffffff\n      and\n      0xddf252ad1be2c89b69c2b068fc378daa952ba7f163c4a11628f55a4df523b3ef\n        /* \".deps/npm/@openzeppelin/contracts/token/ERC20/ERC20.sol\":8679:8685  amount */\n      dup5\n        /* \".deps/npm/@openzeppelin/contracts/token/ERC20/ERC20.sol\":8660:8686  Transfer(from, to, amount) */\n      mload(0x40)\n      tag_145\n      swap2\n      swap1\n      tag_29\n      jump\t// in\n    tag_145:\n      mload(0x40)\n      dup1\n      swap2\n      sub\n      swap1\n      log3\n        /* \".deps/npm/@openzeppelin/contracts/token/ERC20/ERC20.sol\":8697:8734  _afterTokenTransfer(from, to, amount) */\n      tag_146\n        /* \".deps/npm/@openzeppelin/contracts/token/ERC20/ERC20.sol\":8717:8721  from */\n      dup5\n        /* \".deps/npm/@openzeppelin/contracts/token/ERC20/ERC20.sol\":8723:8725  to */\n      dup5\n        /* \".deps/npm/@openzeppelin/contracts/token/ERC20/ERC20.sol\":8727:8733  amount */\n      dup5\n        /* \".deps/npm/@openzeppelin/contracts/token/ERC20/ERC20.sol\":8697:8716  _afterTokenTransfer */\n      tag_147\n        /* \".deps/npm/@openzeppelin/contracts/token/ERC20/ERC20.sol\":8697:8734  _afterTokenTransfer(from, to, amount) */\n      jump\t// in\n    tag_146:\n        /* \".deps/npm/@openzeppelin/contracts/token/ERC20/ERC20.sol\":8031:8741  {... */\n      pop\n        /* \".deps/npm/@openzeppelin/contracts/token/ERC20/ERC20.sol\":7923:8741  function _transfer(... */\n      pop\n      pop\n      pop\n      jump\t// out\n        /* \".deps/npm/@openzeppelin/contracts/token/ERC20/ERC20.sol\":12630:12751  function _beforeTokenTransfer(... */\n    tag_141:\n      pop\n      pop\n      pop\n      jump\t// out\n        /* \".deps/npm/@openzeppelin/contracts/token/ERC20/ERC20.sol\":13339:13459  function _afterTokenTransfer(... */\n    tag_147:\n      pop\n      pop\n      pop\n      jump\t// out\n    tag_89:\n      dup3\n      dup1\n      sload\n      tag_150\n      swap1\n      tag_70\n      jump\t// in\n    tag_150:\n      swap1\n      0x00\n      mstore\n      keccak256(0x00, 0x20)\n      swap1\n      0x1f\n      add\n      0x20\n      swap1\n      div\n      dup2\n      add\n      swap3\n      dup3\n      tag_152\n      jumpi\n      0x00\n      dup6\n      sstore\n      jump(tag_151)\n    tag_152:\n      dup3\n      0x1f\n      lt\n      tag_153\n      jumpi\n      dup1\n      mload\n      not(0xff)\n      and\n      dup4\n      dup1\n      add\n      or\n      dup6\n      sstore\n      jump(tag_151)\n    tag_153:\n      dup3\n      dup1\n      add\n      0x01\n      add\n      dup6\n      sstore\n      dup3\n      iszero\n      tag_151\n      jumpi\n      swap2\n      dup3\n      add\n    tag_154:\n      dup3\n      dup2\n      gt\n      iszero\n      tag_155\n      jumpi\n      dup3\n      mload\n      dup3\n      sstore\n      swap2\n      0x20\n      add\n      swap2\n      swap1\n      0x01\n      add\n      swap1\n      jump(tag_154)\n    tag_155:\n    tag_151:\n      pop\n      swap1\n      pop\n      tag_156\n      swap2\n      swap1\n      tag_157\n      jump\t// in\n    tag_156:\n      pop\n      swap1\n      jump\t// out\n    tag_157:\n    tag_158:\n      dup1\n      dup3\n      gt\n      iszero\n      tag_159\n      jumpi\n      0x00\n      dup2\n      0x00\n      swap1\n      sstore\n      pop\n      0x01\n      add\n      jump(tag_158)\n    tag_159:\n      pop\n      swap1\n      jump\t// out\n        /* \"#utility.yul\":7:106   */\n    tag_160:\n        /* \"#utility.yul\":59:65   */\n      0x00\n        /* \"#utility.yul\":93:98   */\n      dup2\n        /* \"#utility.yul\":87:99   */\n      mload\n        /* \"#utility.yul\":77:99   */\n      swap1\n      pop\n        /* \"#utility.yul\":7:106   */\n      swap2\n      swap1\n      pop\n      jump\t// out\n        /* \"#utility.yul\":112:281   */\n    tag_161:\n        /* \"#utility.yul\":196:207   */\n      0x00\n        /* \"#utility.yul\":230:236   */\n      dup3\n        /* \"#utility.yul\":225:228   */\n      dup3\n        /* \"#utility.yul\":218:237   */\n      mstore\n        /* \"#utility.yul\":270:274   */\n      0x20\n        /* \"#utility.yul\":265:268   */\n      dup3\n        /* \"#utility.yul\":261:275   */\n      add\n        /* \"#utility.yul\":246:275   */\n      swap1\n      pop\n        /* \"#utility.yul\":112:281   */\n      swap3\n      swap2\n      pop\n      pop\n      jump\t// out\n        /* \"#utility.yul\":287:594   */\n    tag_162:\n        /* \"#utility.yul\":355:356   */\n      0x00\n        /* \"#utility.yul\":365:478   */\n    tag_209:\n        /* \"#utility.yul\":379:385   */\n      dup4\n        /* \"#utility.yul\":376:377   */\n      dup2\n        /* \"#utility.yul\":373:386   */\n      lt\n        /* \"#utility.yul\":365:478   */\n      iszero\n      tag_211\n      jumpi\n        /* \"#utility.yul\":464:465   */\n      dup1\n        /* \"#utility.yul\":459:462   */\n      dup3\n        /* \"#utility.yul\":455:466   */\n      add\n        /* \"#utility.yul\":449:467   */\n      mload\n        /* \"#utility.yul\":445:446   */\n      dup2\n        /* \"#utility.yul\":440:443   */\n      dup5\n        /* \"#utility.yul\":436:447   */\n      add\n        /* \"#utility.yul\":429:468   */\n      mstore\n        /* \"#utility.yul\":401:403   */\n      0x20\n        /* \"#utility.yul\":398:399   */\n      dup2\n        /* \"#utility.yul\":394:404   */\n      add\n        /* \"#utility.yul\":389:404   */\n      swap1\n      pop\n        /* \"#utility.yul\":365:478   */\n      jump(tag_209)\n    tag_211:\n        /* \"#utility.yul\":496:502   */\n      dup4\n        /* \"#utility.yul\":493:494   */\n      dup2\n        /* \"#utility.yul\":490:503   */\n      gt\n        /* \"#utility.yul\":487:588   */\n      iszero\n      tag_212\n      jumpi\n        /* \"#utility.yul\":576:577   */\n      0x00\n        /* \"#utility.yul\":567:573   */\n      dup5\n        /* \"#utility.yul\":562:565   */\n      dup5\n        /* \"#utility.yul\":558:574   */\n      add\n        /* \"#utility.yul\":551:578   */\n      mstore\n        /* \"#utility.yul\":487:588   */\n    tag_212:\n        /* \"#utility.yul\":336:594   */\n      pop\n        /* \"#utility.yul\":287:594   */\n      pop\n      pop\n      pop\n      jump\t// out\n        /* \"#utility.yul\":600:702   */\n    tag_163:\n        /* \"#utility.yul\":641:647   */\n      0x00\n        /* \"#utility.yul\":692:694   */\n      0x1f\n        /* \"#utility.yul\":688:695   */\n      not\n        /* \"#utility.yul\":683:685   */\n      0x1f\n        /* \"#utility.yul\":676:681   */\n      dup4\n        /* \"#utility.yul\":672:686   */\n      add\n        /* \"#utility.yul\":668:696   */\n      and\n        /* \"#utility.yul\":658:696   */\n      swap1\n      pop\n        /* \"#utility.yul\":600:702   */\n      swap2\n      swap1\n      pop\n      jump\t// out\n        /* \"#utility.yul\":708:1072   */\n    tag_164:\n        /* \"#utility.yul\":796:799   */\n      0x00\n        /* \"#utility.yul\":824:863   */\n      tag_215\n        /* \"#utility.yul\":857:862   */\n      dup3\n        /* \"#utility.yul\":824:863   */\n      tag_160\n      jump\t// in\n    tag_215:\n        /* \"#utility.yul\":879:950   */\n      tag_216\n        /* \"#utility.yul\":943:949   */\n      dup2\n        /* \"#utility.yul\":938:941   */\n      dup6\n        /* \"#utility.yul\":879:950   */\n      tag_161\n      jump\t// in\n    tag_216:\n        /* \"#utility.yul\":872:950   */\n      swap4\n      pop\n        /* \"#utility.yul\":959:1011   */\n      tag_217\n        /* \"#utility.yul\":1004:1010   */\n      dup2\n        /* \"#utility.yul\":999:1002   */\n      dup6\n        /* \"#utility.yul\":992:996   */\n      0x20\n        /* \"#utility.yul\":985:990   */\n      dup7\n        /* \"#utility.yul\":981:997   */\n      add\n        /* \"#utility.yul\":959:1011   */\n      tag_162\n      jump\t// in\n    tag_217:\n        /* \"#utility.yul\":1036:1065   */\n      tag_218\n        /* \"#utility.yul\":1058:1064   */\n      dup2\n        /* \"#utility.yul\":1036:1065   */\n      tag_163\n      jump\t// in\n    tag_218:\n        /* \"#utility.yul\":1031:1034   */\n      dup5\n        /* \"#utility.yul\":1027:1066   */\n      add\n        /* \"#utility.yul\":1020:1066   */\n      swap2\n      pop\n        /* \"#utility.yul\":800:1072   */\n      pop\n        /* \"#utility.yul\":708:1072   */\n      swap3\n      swap2\n      pop\n      pop\n      jump\t// out\n        /* \"#utility.yul\":1078:1391   */\n    tag_19:\n        /* \"#utility.yul\":1191:1195   */\n      0x00\n        /* \"#utility.yul\":1229:1231   */\n      0x20\n        /* \"#utility.yul\":1218:1227   */\n      dup3\n        /* \"#utility.yul\":1214:1232   */\n      add\n        /* \"#utility.yul\":1206:1232   */\n      swap1\n      pop\n        /* \"#utility.yul\":1278:1287   */\n      dup2\n        /* \"#utility.yul\":1272:1276   */\n      dup2\n        /* \"#utility.yul\":1268:1288   */\n      sub\n        /* \"#utility.yul\":1264:1265   */\n      0x00\n        /* \"#utility.yul\":1253:1262   */\n      dup4\n        /* \"#utility.yul\":1249:1266   */\n      add\n        /* \"#utility.yul\":1242:1289   */\n      mstore\n        /* \"#utility.yul\":1306:1384   */\n      tag_220\n        /* \"#utility.yul\":1379:1383   */\n      dup2\n        /* \"#utility.yul\":1370:1376   */\n      dup5\n        /* \"#utility.yul\":1306:1384   */\n      tag_164\n      jump\t// in\n    tag_220:\n        /* \"#utility.yul\":1298:1384   */\n      swap1\n      pop\n        /* \"#utility.yul\":1078:1391   */\n      swap3\n      swap2\n      pop\n      pop\n      jump\t// out\n        /* \"#utility.yul\":1397:1472   */\n    tag_165:\n        /* \"#utility.yul\":1430:1436   */\n      0x00\n        /* \"#utility.yul\":1463:1465   */\n      0x40\n        /* \"#utility.yul\":1457:1466   */\n      mload\n        /* \"#utility.yul\":1447:1466   */\n      swap1\n      pop\n        /* \"#utility.yul\":1397:1472   */\n      swap1\n      jump\t// out\n        /* \"#utility.yul\":1478:1595   */\n    tag_166:\n        /* \"#utility.yul\":1587:1588   */\n      0x00\n        /* \"#utility.yul\":1584:1585   */\n      dup1\n        /* \"#utility.yul\":1577:1589   */\n      revert\n        /* \"#utility.yul\":1601:1718   */\n    tag_167:\n        /* \"#utility.yul\":1710:1711   */\n      0x00\n        /* \"#utility.yul\":1707:1708   */\n      dup1\n        /* \"#utility.yul\":1700:1712   */\n      revert\n        /* \"#utility.yul\":1724:1850   */\n    tag_168:\n        /* \"#utility.yul\":1761:1768   */\n      0x00\n        /* \"#utility.yul\":1801:1843   */\n      0xffffffffffffffffffffffffffffffffffffffff\n        /* \"#utility.yul\":1794:1799   */\n      dup3\n        /* \"#utility.yul\":1790:1844   */\n      and\n        /* \"#utility.yul\":1779:1844   */\n      swap1\n      pop\n        /* \"#utility.yul\":1724:1850   */\n      swap2\n      swap1\n      pop\n      jump\t// out\n        /* \"#utility.yul\":1856:1952   */\n    tag_169:\n        /* \"#utility.yul\":1893:1900   */\n      0x00\n        /* \"#utility.yul\":1922:1946   */\n      tag_226\n        /* \"#utility.yul\":1940:1945   */\n      dup3\n        /* \"#utility.yul\":1922:1946   */\n      tag_168\n      jump\t// in\n    tag_226:\n        /* \"#utility.yul\":1911:1946   */\n      swap1\n      pop\n        /* \"#utility.yul\":1856:1952   */\n      swap2\n      swap1\n      pop\n      jump\t// out\n        /* \"#utility.yul\":1958:2080   */\n    tag_170:\n        /* \"#utility.yul\":2031:2055   */\n      tag_228\n        /* \"#utility.yul\":2049:2054   */\n      dup2\n        /* \"#utility.yul\":2031:2055   */\n      tag_169\n      jump\t// in\n    tag_228:\n        /* \"#utility.yul\":2024:2029   */\n      dup2\n        /* \"#utility.yul\":2021:2056   */\n      eq\n        /* \"#utility.yul\":2011:2074   */\n      tag_229\n      jumpi\n        /* \"#utility.yul\":2070:2071   */\n      0x00\n        /* \"#utility.yul\":2067:2068   */\n      dup1\n        /* \"#utility.yul\":2060:2072   */\n      revert\n        /* \"#utility.yul\":2011:2074   */\n    tag_229:\n        /* \"#utility.yul\":1958:2080   */\n      pop\n      jump\t// out\n        /* \"#utility.yul\":2086:2225   */\n    tag_171:\n        /* \"#utility.yul\":2132:2137   */\n      0x00\n        /* \"#utility.yul\":2170:2176   */\n      dup2\n        /* \"#utility.yul\":2157:2177   */\n      calldataload\n        /* \"#utility.yul\":2148:2177   */\n      swap1\n      pop\n        /* \"#utility.yul\":2186:2219   */\n      tag_231\n        /* \"#utility.yul\":2213:2218   */\n      dup2\n        /* \"#utility.yul\":2186:2219   */\n      tag_170\n      jump\t// in\n    tag_231:\n        /* \"#utility.yul\":2086:2225   */\n      swap3\n      swap2\n      pop\n      pop\n      jump\t// out\n        /* \"#utility.yul\":2231:2308   */\n    tag_172:\n        /* \"#utility.yul\":2268:2275   */\n      0x00\n        /* \"#utility.yul\":2297:2302   */\n      dup2\n        /* \"#utility.yul\":2286:2302   */\n      swap1\n      pop\n        /* \"#utility.yul\":2231:2308   */\n      swap2\n      swap1\n      pop\n      jump\t// out\n        /* \"#utility.yul\":2314:2436   */\n    tag_173:\n        /* \"#utility.yul\":2387:2411   */\n      tag_234\n        /* \"#utility.yul\":2405:2410   */\n      dup2\n        /* \"#utility.yul\":2387:2411   */\n      tag_172\n      jump\t// in\n    tag_234:\n        /* \"#utility.yul\":2380:2385   */\n      dup2\n        /* \"#utility.yul\":2377:2412   */\n      eq\n        /* \"#utility.yul\":2367:2430   */\n      tag_235\n      jumpi\n        /* \"#utility.yul\":2426:2427   */\n      0x00\n        /* \"#utility.yul\":2423:2424   */\n      dup1\n        /* \"#utility.yul\":2416:2428   */\n      revert\n        /* \"#utility.yul\":2367:2430   */\n    tag_235:\n        /* \"#utility.yul\":2314:2436   */\n      pop\n      jump\t// out\n        /* \"#utility.yul\":2442:2581   */\n    tag_174:\n        /* \"#utility.yul\":2488:2493   */\n      0x00\n        /* \"#utility.yul\":2526:2532   */\n      dup2\n        /* \"#utility.yul\":2513:2533   */\n      calldataload\n        /* \"#utility.yul\":2504:2533   */\n      swap1\n      pop\n        /* \"#utility.yul\":2542:2575   */\n      tag_237\n        /* \"#utility.yul\":2569:2574   */\n      dup2\n        /* \"#utility.yul\":2542:2575   */\n      tag_173\n      jump\t// in\n    tag_237:\n        /* \"#utility.yul\":2442:2581   */\n      swap3\n      swap2\n      pop\n      pop\n      jump\t// out\n        /* \"#utility.yul\":2587:3061   */\n    tag_22:\n        /* \"#utility.yul\":2655:2661   */\n      0x00\n        /* \"#utility.yul\":2663:2669   */\n      dup1\n        /* \"#utility.yul\":2712:2714   */\n      0x40\n        /* \"#utility.yul\":2700:2709   */\n      dup4\n        /* \"#utility.yul\":2691:2698   */\n      dup6\n        /* \"#utility.yul\":2687:2710   */\n      sub\n        /* \"#utility.yul\":2683:2715   */\n      slt\n        /* \"#utility.yul\":2680:2799   */\n      iszero\n      tag_239\n      jumpi\n        /* \"#utility.yul\":2718:2797   */\n      tag_240\n      tag_166\n      jump\t// in\n    tag_240:\n        /* \"#utility.yul\":2680:2799   */\n    tag_239:\n        /* \"#utility.yul\":2838:2839   */\n      0x00\n        /* \"#utility.yul\":2863:2916   */\n      tag_241\n        /* \"#utility.yul\":2908:2915   */\n      dup6\n        /* \"#utility.yul\":2899:2905   */\n      dup3\n        /* \"#utility.yul\":2888:2897   */\n      dup7\n        /* \"#utility.yul\":2884:2906   */\n      add\n        /* \"#utility.yul\":2863:2916   */\n      tag_171\n      jump\t// in\n    tag_241:\n        /* \"#utility.yul\":2853:2916   */\n      swap3\n      pop\n        /* \"#utility.yul\":2809:2926   */\n      pop\n        /* \"#utility.yul\":2965:2967   */\n      0x20\n        /* \"#utility.yul\":2991:3044   */\n      tag_242\n        /* \"#utility.yul\":3036:3043   */\n      dup6\n        /* \"#utility.yul\":3027:3033   */\n      dup3\n        /* \"#utility.yul\":3016:3025   */\n      dup7\n        /* \"#utility.yul\":3012:3034   */\n      add\n        /* \"#utility.yul\":2991:3044   */\n      tag_174\n      jump\t// in\n    tag_242:\n        /* \"#utility.yul\":2981:3044   */\n      swap2\n      pop\n        /* \"#utility.yul\":2936:3054   */\n      pop\n        /* \"#utility.yul\":2587:3061   */\n      swap3\n      pop\n      swap3\n      swap1\n      pop\n      jump\t// out\n        /* \"#utility.yul\":3067:3157   */\n    tag_175:\n        /* \"#utility.yul\":3101:3108   */\n      0x00\n        /* \"#utility.yul\":3144:3149   */\n      dup2\n        /* \"#utility.yul\":3137:3150   */\n      iszero\n        /* \"#utility.yul\":3130:3151   */\n      iszero\n        /* \"#utility.yul\":3119:3151   */\n      swap1\n      pop\n        /* \"#utility.yul\":3067:3157   */\n      swap2\n      swap1\n      pop\n      jump\t// out\n        /* \"#utility.yul\":3163:3272   */\n    tag_176:\n        /* \"#utility.yul\":3244:3265   */\n      tag_245\n        /* \"#utility.yul\":3259:3264   */\n      dup2\n        /* \"#utility.yul\":3244:3265   */\n      tag_175\n      jump\t// in\n    tag_245:\n        /* \"#utility.yul\":3239:3242   */\n      dup3\n        /* \"#utility.yul\":3232:3266   */\n      mstore\n        /* \"#utility.yul\":3163:3272   */\n      pop\n      pop\n      jump\t// out\n        /* \"#utility.yul\":3278:3488   */\n    tag_25:\n        /* \"#utility.yul\":3365:3369   */\n      0x00\n        /* \"#utility.yul\":3403:3405   */\n      0x20\n        /* \"#utility.yul\":3392:3401   */\n      dup3\n        /* \"#utility.yul\":3388:3406   */\n      add\n        /* \"#utility.yul\":3380:3406   */\n      swap1\n      pop\n        /* \"#utility.yul\":3416:3481   */\n      tag_247\n        /* \"#utility.yul\":3478:3479   */\n      0x00\n        /* \"#utility.yul\":3467:3476   */\n      dup4\n        /* \"#utility.yul\":3463:3480   */\n      add\n        /* \"#utility.yul\":3454:3460   */\n      dup5\n        /* \"#utility.yul\":3416:3481   */\n      tag_176\n      jump\t// in\n    tag_247:\n        /* \"#utility.yul\":3278:3488   */\n      swap3\n      swap2\n      pop\n      pop\n      jump\t// out\n        /* \"#utility.yul\":3494:3612   */\n    tag_177:\n        /* \"#utility.yul\":3581:3605   */\n      tag_249\n        /* \"#utility.yul\":3599:3604   */\n      dup2\n        /* \"#utility.yul\":3581:3605   */\n      tag_172\n      jump\t// in\n    tag_249:\n        /* \"#utility.yul\":3576:3579   */\n      dup3\n        /* \"#utility.yul\":3569:3606   */\n      mstore\n        /* \"#utility.yul\":3494:3612   */\n      pop\n      pop\n      jump\t// out\n        /* \"#utility.yul\":3618:3840   */\n    tag_29:\n        /* \"#utility.yul\":3711:3715   */\n      0x00\n        /* \"#utility.yul\":3749:3751   */\n      0x20\n        /* \"#utility.yul\":3738:3747   */\n      dup3\n        /* \"#utility.yul\":3734:3752   */\n      add\n        /* \"#utility.yul\":3726:3752   */\n      swap1\n      pop\n        /* \"#utility.yul\":3762:3833   */\n      tag_251\n        /* \"#utility.yul\":3830:3831   */\n      0x00\n        /* \"#utility.yul\":3819:3828   */\n      dup4\n        /* \"#utility.yul\":3815:3832   */\n      add\n        /* \"#utility.yul\":3806:3812   */\n      dup5\n        /* \"#utility.yul\":3762:3833   */\n      tag_177\n      jump\t// in\n    tag_251:\n        /* \"#utility.yul\":3618:3840   */\n      swap3\n      swap2\n      pop\n      pop\n      jump\t// out\n        /* \"#utility.yul\":3846:4465   */\n    tag_32:\n        /* \"#utility.yul\":3923:3929   */\n      0x00\n        /* \"#utility.yul\":3931:3937   */\n      dup1\n        /* \"#utility.yul\":3939:3945   */\n      0x00\n        /* \"#utility.yul\":3988:3990   */\n      0x60\n        /* \"#utility.yul\":3976:3985   */\n      dup5\n        /* \"#utility.yul\":3967:3974   */\n      dup7\n        /* \"#utility.yul\":3963:3986   */\n      sub\n        /* \"#utility.yul\":3959:3991   */\n      slt\n        /* \"#utility.yul\":3956:4075   */\n      iszero\n      tag_253\n      jumpi\n        /* \"#utility.yul\":3994:4073   */\n      tag_254\n      tag_166\n      jump\t// in\n    tag_254:\n        /* \"#utility.yul\":3956:4075   */\n    tag_253:\n        /* \"#utility.yul\":4114:4115   */\n      0x00\n        /* \"#utility.yul\":4139:4192   */\n      tag_255\n        /* \"#utility.yul\":4184:4191   */\n      dup7\n        /* \"#utility.yul\":4175:4181   */\n      dup3\n        /* \"#utility.yul\":4164:4173   */\n      dup8\n        /* \"#utility.yul\":4160:4182   */\n      add\n        /* \"#utility.yul\":4139:4192   */\n      tag_171\n      jump\t// in\n    tag_255:\n        /* \"#utility.yul\":4129:4192   */\n      swap4\n      pop\n        /* \"#utility.yul\":4085:4202   */\n      pop\n        /* \"#utility.yul\":4241:4243   */\n      0x20\n        /* \"#utility.yul\":4267:4320   */\n      tag_256\n        /* \"#utility.yul\":4312:4319   */\n      dup7\n        /* \"#utility.yul\":4303:4309   */\n      dup3\n        /* \"#utility.yul\":4292:4301   */\n      dup8\n        /* \"#utility.yul\":4288:4310   */\n      add\n        /* \"#utility.yul\":4267:4320   */\n      tag_171\n      jump\t// in\n    tag_256:\n        /* \"#utility.yul\":4257:4320   */\n      swap3\n      pop\n        /* \"#utility.yul\":4212:4330   */\n      pop\n        /* \"#utility.yul\":4369:4371   */\n      0x40\n        /* \"#utility.yul\":4395:4448   */\n      tag_257\n        /* \"#utility.yul\":4440:4447   */\n      dup7\n        /* \"#utility.yul\":4431:4437   */\n      dup3\n        /* \"#utility.yul\":4420:4429   */\n      dup8\n        /* \"#utility.yul\":4416:4438   */\n      add\n        /* \"#utility.yul\":4395:4448   */\n      tag_174\n      jump\t// in\n    tag_257:\n        /* \"#utility.yul\":4385:4448   */\n      swap2\n      pop\n        /* \"#utility.yul\":4340:4458   */\n      pop\n        /* \"#utility.yul\":3846:4465   */\n      swap3\n      pop\n      swap3\n      pop\n      swap3\n      jump\t// out\n        /* \"#utility.yul\":4471:4588   */\n    tag_178:\n        /* \"#utility.yul\":4580:4581   */\n      0x00\n        /* \"#utility.yul\":4577:4578   */\n      dup1\n        /* \"#utility.yul\":4570:4582   */\n      revert\n        /* \"#utility.yul\":4594:4711   */\n    tag_179:\n        /* \"#utility.yul\":4703:4704   */\n      0x00\n        /* \"#utility.yul\":4700:4701   */\n      dup1\n        /* \"#utility.yul\":4693:4705   */\n      revert\n        /* \"#utility.yul\":4717:4897   */\n    tag_180:\n        /* \"#utility.yul\":4765:4842   */\n      0x4e487b7100000000000000000000000000000000000000000000000000000000\n        /* \"#utility.yul\":4762:4763   */\n      0x00\n        /* \"#utility.yul\":4755:4843   */\n      mstore\n        /* \"#utility.yul\":4862:4866   */\n      0x41\n        /* \"#utility.yul\":4859:4860   */\n      0x04\n        /* \"#utility.yul\":4852:4867   */\n      mstore\n        /* \"#utility.yul\":4886:4890   */\n      0x24\n        /* \"#utility.yul\":4883:4884   */\n      0x00\n        /* \"#utility.yul\":4876:4891   */\n      revert\n        /* \"#utility.yul\":4903:5184   */\n    tag_181:\n        /* \"#utility.yul\":4986:5013   */\n      tag_262\n        /* \"#utility.yul\":5008:5012   */\n      dup3\n        /* \"#utility.yul\":4986:5013   */\n      tag_163\n      jump\t// in\n    tag_262:\n        /* \"#utility.yul\":4978:4984   */\n      dup2\n        /* \"#utility.yul\":4974:5014   */\n      add\n        /* \"#utility.yul\":5116:5122   */\n      dup2\n        /* \"#utility.yul\":5104:5114   */\n      dup2\n        /* \"#utility.yul\":5101:5123   */\n      lt\n        /* \"#utility.yul\":5080:5098   */\n      0xffffffffffffffff\n        /* \"#utility.yul\":5068:5078   */\n      dup3\n        /* \"#utility.yul\":5065:5099   */\n      gt\n        /* \"#utility.yul\":5062:5124   */\n      or\n        /* \"#utility.yul\":5059:5147   */\n      iszero\n      tag_263\n      jumpi\n        /* \"#utility.yul\":5127:5145   */\n      tag_264\n      tag_180\n      jump\t// in\n    tag_264:\n        /* \"#utility.yul\":5059:5147   */\n    tag_263:\n        /* \"#utility.yul\":5167:5177   */\n      dup1\n        /* \"#utility.yul\":5163:5165   */\n      0x40\n        /* \"#utility.yul\":5156:5178   */\n      mstore\n        /* \"#utility.yul\":4946:5184   */\n      pop\n        /* \"#utility.yul\":4903:5184   */\n      pop\n      pop\n      jump\t// out\n        /* \"#utility.yul\":5190:5319   */\n    tag_182:\n        /* \"#utility.yul\":5224:5230   */\n      0x00\n        /* \"#utility.yul\":5251:5271   */\n      tag_266\n      tag_165\n      jump\t// in\n    tag_266:\n        /* \"#utility.yul\":5241:5271   */\n      swap1\n      pop\n        /* \"#utility.yul\":5280:5313   */\n      tag_267\n        /* \"#utility.yul\":5308:5312   */\n      dup3\n        /* \"#utility.yul\":5300:5306   */\n      dup3\n        /* \"#utility.yul\":5280:5313   */\n      tag_181\n      jump\t// in\n    tag_267:\n        /* \"#utility.yul\":5190:5319   */\n      swap2\n      swap1\n      pop\n      jump\t// out\n        /* \"#utility.yul\":5325:5633   */\n    tag_183:\n        /* \"#utility.yul\":5387:5391   */\n      0x00\n        /* \"#utility.yul\":5477:5495   */\n      0xffffffffffffffff\n        /* \"#utility.yul\":5469:5475   */\n      dup3\n        /* \"#utility.yul\":5466:5496   */\n      gt\n        /* \"#utility.yul\":5463:5519   */\n      iszero\n      tag_269\n      jumpi\n        /* \"#utility.yul\":5499:5517   */\n      tag_270\n      tag_180\n      jump\t// in\n    tag_270:\n        /* \"#utility.yul\":5463:5519   */\n    tag_269:\n        /* \"#utility.yul\":5537:5566   */\n      tag_271\n        /* \"#utility.yul\":5559:5565   */\n      dup3\n        /* \"#utility.yul\":5537:5566   */\n      tag_163\n      jump\t// in\n    tag_271:\n        /* \"#utility.yul\":5529:5566   */\n      swap1\n      pop\n        /* \"#utility.yul\":5621:5625   */\n      0x20\n        /* \"#utility.yul\":5615:5619   */\n      dup2\n        /* \"#utility.yul\":5611:5626   */\n      add\n        /* \"#utility.yul\":5603:5626   */\n      swap1\n      pop\n        /* \"#utility.yul\":5325:5633   */\n      swap2\n      swap1\n      pop\n      jump\t// out\n        /* \"#utility.yul\":5639:5793   */\n    tag_184:\n        /* \"#utility.yul\":5723:5729   */\n      dup3\n        /* \"#utility.yul\":5718:5721   */\n      dup2\n        /* \"#utility.yul\":5713:5716   */\n      dup4\n        /* \"#utility.yul\":5700:5730   */\n      calldatacopy\n        /* \"#utility.yul\":5785:5786   */\n      0x00\n        /* \"#utility.yul\":5776:5782   */\n      dup4\n        /* \"#utility.yul\":5771:5774   */\n      dup4\n        /* \"#utility.yul\":5767:5783   */\n      add\n        /* \"#utility.yul\":5760:5787   */\n      mstore\n        /* \"#utility.yul\":5639:5793   */\n      pop\n      pop\n      pop\n      jump\t// out\n        /* \"#utility.yul\":5799:6211   */\n    tag_185:\n        /* \"#utility.yul\":5877:5882   */\n      0x00\n        /* \"#utility.yul\":5902:5968   */\n      tag_274\n        /* \"#utility.yul\":5918:5967   */\n      tag_275\n        /* \"#utility.yul\":5960:5966   */\n      dup5\n        /* \"#utility.yul\":5918:5967   */\n      tag_183\n      jump\t// in\n    tag_275:\n        /* \"#utility.yul\":5902:5968   */\n      tag_182\n      jump\t// in\n    tag_274:\n        /* \"#utility.yul\":5893:5968   */\n      swap1\n      pop\n        /* \"#utility.yul\":5991:5997   */\n      dup3\n        /* \"#utility.yul\":5984:5989   */\n      dup2\n        /* \"#utility.yul\":5977:5998   */\n      mstore\n        /* \"#utility.yul\":6029:6033   */\n      0x20\n        /* \"#utility.yul\":6022:6027   */\n      dup2\n        /* \"#utility.yul\":6018:6034   */\n      add\n        /* \"#utility.yul\":6067:6070   */\n      dup5\n        /* \"#utility.yul\":6058:6064   */\n      dup5\n        /* \"#utility.yul\":6053:6056   */\n      dup5\n        /* \"#utility.yul\":6049:6065   */\n      add\n        /* \"#utility.yul\":6046:6071   */\n      gt\n        /* \"#utility.yul\":6043:6155   */\n      iszero\n      tag_276\n      jumpi\n        /* \"#utility.yul\":6074:6153   */\n      tag_277\n      tag_179\n      jump\t// in\n    tag_277:\n        /* \"#utility.yul\":6043:6155   */\n    tag_276:\n        /* \"#utility.yul\":6164:6205   */\n      tag_278\n        /* \"#utility.yul\":6198:6204   */\n      dup5\n        /* \"#utility.yul\":6193:6196   */\n      dup3\n        /* \"#utility.yul\":6188:6191   */\n      dup6\n        /* \"#utility.yul\":6164:6205   */\n      tag_184\n      jump\t// in\n    tag_278:\n        /* \"#utility.yul\":5883:6211   */\n      pop\n        /* \"#utility.yul\":5799:6211   */\n      swap4\n      swap3\n      pop\n      pop\n      pop\n      jump\t// out\n        /* \"#utility.yul\":6231:6571   */\n    tag_186:\n        /* \"#utility.yul\":6287:6292   */\n      0x00\n        /* \"#utility.yul\":6336:6339   */\n      dup3\n        /* \"#utility.yul\":6329:6333   */\n      0x1f\n        /* \"#utility.yul\":6321:6327   */\n      dup4\n        /* \"#utility.yul\":6317:6334   */\n      add\n        /* \"#utility.yul\":6313:6340   */\n      slt\n        /* \"#utility.yul\":6303:6425   */\n      tag_280\n      jumpi\n        /* \"#utility.yul\":6344:6423   */\n      tag_281\n      tag_178\n      jump\t// in\n    tag_281:\n        /* \"#utility.yul\":6303:6425   */\n    tag_280:\n        /* \"#utility.yul\":6461:6467   */\n      dup2\n        /* \"#utility.yul\":6448:6468   */\n      calldataload\n        /* \"#utility.yul\":6486:6565   */\n      tag_282\n        /* \"#utility.yul\":6561:6564   */\n      dup5\n        /* \"#utility.yul\":6553:6559   */\n      dup3\n        /* \"#utility.yul\":6546:6550   */\n      0x20\n        /* \"#utility.yul\":6538:6544   */\n      dup7\n        /* \"#utility.yul\":6534:6551   */\n      add\n        /* \"#utility.yul\":6486:6565   */\n      tag_185\n      jump\t// in\n    tag_282:\n        /* \"#utility.yul\":6477:6565   */\n      swap2\n      pop\n        /* \"#utility.yul\":6293:6571   */\n      pop\n        /* \"#utility.yul\":6231:6571   */\n      swap3\n      swap2\n      pop\n      pop\n      jump\t// out\n        /* \"#utility.yul\":6577:7556   */\n    tag_37:\n        /* \"#utility.yul\":6674:6680   */\n      0x00\n        /* \"#utility.yul\":6682:6688   */\n      dup1\n        /* \"#utility.yul\":6690:6696   */\n      0x00\n        /* \"#utility.yul\":6739:6741   */\n      0x60\n        /* \"#utility.yul\":6727:6736   */\n      dup5\n        /* \"#utility.yul\":6718:6725   */\n      dup7\n        /* \"#utility.yul\":6714:6737   */\n      sub\n        /* \"#utility.yul\":6710:6742   */\n      slt\n        /* \"#utility.yul\":6707:6826   */\n      iszero\n      tag_284\n      jumpi\n        /* \"#utility.yul\":6745:6824   */\n      tag_285\n      tag_166\n      jump\t// in\n    tag_285:\n        /* \"#utility.yul\":6707:6826   */\n    tag_284:\n        /* \"#utility.yul\":6893:6894   */\n      0x00\n        /* \"#utility.yul\":6882:6891   */\n      dup5\n        /* \"#utility.yul\":6878:6895   */\n      add\n        /* \"#utility.yul\":6865:6896   */\n      calldataload\n        /* \"#utility.yul\":6923:6941   */\n      0xffffffffffffffff\n        /* \"#utility.yul\":6915:6921   */\n      dup2\n        /* \"#utility.yul\":6912:6942   */\n      gt\n        /* \"#utility.yul\":6909:7026   */\n      iszero\n      tag_286\n      jumpi\n        /* \"#utility.yul\":6945:7024   */\n      tag_287\n      tag_167\n      jump\t// in\n    tag_287:\n        /* \"#utility.yul\":6909:7026   */\n    tag_286:\n        /* \"#utility.yul\":7050:7113   */\n      tag_288\n        /* \"#utility.yul\":7105:7112   */\n      dup7\n        /* \"#utility.yul\":7096:7102   */\n      dup3\n        /* \"#utility.yul\":7085:7094   */\n      dup8\n        /* \"#utility.yul\":7081:7103   */\n      add\n        /* \"#utility.yul\":7050:7113   */\n      tag_186\n      jump\t// in\n    tag_288:\n        /* \"#utility.yul\":7040:7113   */\n      swap4\n      pop\n        /* \"#utility.yul\":6836:7123   */\n      pop\n        /* \"#utility.yul\":7190:7192   */\n      0x20\n        /* \"#utility.yul\":7179:7188   */\n      dup5\n        /* \"#utility.yul\":7175:7193   */\n      add\n        /* \"#utility.yul\":7162:7194   */\n      calldataload\n        /* \"#utility.yul\":7221:7239   */\n      0xffffffffffffffff\n        /* \"#utility.yul\":7213:7219   */\n      dup2\n        /* \"#utility.yul\":7210:7240   */\n      gt\n        /* \"#utility.yul\":7207:7324   */\n      iszero\n      tag_289\n      jumpi\n        /* \"#utility.yul\":7243:7322   */\n      tag_290\n      tag_167\n      jump\t// in\n    tag_290:\n        /* \"#utility.yul\":7207:7324   */\n    tag_289:\n        /* \"#utility.yul\":7348:7411   */\n      tag_291\n        /* \"#utility.yul\":7403:7410   */\n      dup7\n        /* \"#utility.yul\":7394:7400   */\n      dup3\n        /* \"#utility.yul\":7383:7392   */\n      dup8\n        /* \"#utility.yul\":7379:7401   */\n      add\n        /* \"#utility.yul\":7348:7411   */\n      tag_186\n      jump\t// in\n    tag_291:\n        /* \"#utility.yul\":7338:7411   */\n      swap3\n      pop\n        /* \"#utility.yul\":7133:7421   */\n      pop\n        /* \"#utility.yul\":7460:7462   */\n      0x40\n        /* \"#utility.yul\":7486:7539   */\n      tag_292\n        /* \"#utility.yul\":7531:7538   */\n      dup7\n        /* \"#utility.yul\":7522:7528   */\n      dup3\n        /* \"#utility.yul\":7511:7520   */\n      dup8\n        /* \"#utility.yul\":7507:7529   */\n      add\n        /* \"#utility.yul\":7486:7539   */\n      tag_174\n      jump\t// in\n    tag_292:\n        /* \"#utility.yul\":7476:7539   */\n      swap2\n      pop\n        /* \"#utility.yul\":7431:7549   */\n      pop\n        /* \"#utility.yul\":6577:7556   */\n      swap3\n      pop\n      swap3\n      pop\n      swap3\n      jump\t// out\n        /* \"#utility.yul\":7562:7648   */\n    tag_187:\n        /* \"#utility.yul\":7597:7604   */\n      0x00\n        /* \"#utility.yul\":7637:7641   */\n      0xff\n        /* \"#utility.yul\":7630:7635   */\n      dup3\n        /* \"#utility.yul\":7626:7642   */\n      and\n        /* \"#utility.yul\":7615:7642   */\n      swap1\n      pop\n        /* \"#utility.yul\":7562:7648   */\n      swap2\n      swap1\n      pop\n      jump\t// out\n        /* \"#utility.yul\":7654:7766   */\n    tag_188:\n        /* \"#utility.yul\":7737:7759   */\n      tag_295\n        /* \"#utility.yul\":7753:7758   */\n      dup2\n        /* \"#utility.yul\":7737:7759   */\n      tag_187\n      jump\t// in\n    tag_295:\n        /* \"#utility.yul\":7732:7735   */\n      dup3\n        /* \"#utility.yul\":7725:7760   */\n      mstore\n        /* \"#utility.yul\":7654:7766   */\n      pop\n      pop\n      jump\t// out\n        /* \"#utility.yul\":7772:7986   */\n    tag_42:\n        /* \"#utility.yul\":7861:7865   */\n      0x00\n        /* \"#utility.yul\":7899:7901   */\n      0x20\n        /* \"#utility.yul\":7888:7897   */\n      dup3\n        /* \"#utility.yul\":7884:7902   */\n      add\n        /* \"#utility.yul\":7876:7902   */\n      swap1\n      pop\n        /* \"#utility.yul\":7912:7979   */\n      tag_297\n        /* \"#utility.yul\":7976:7977   */\n      0x00\n        /* \"#utility.yul\":7965:7974   */\n      dup4\n        /* \"#utility.yul\":7961:7978   */\n      add\n        /* \"#utility.yul\":7952:7958   */\n      dup5\n        /* \"#utility.yul\":7912:7979   */\n      tag_188\n      jump\t// in\n    tag_297:\n        /* \"#utility.yul\":7772:7986   */\n      swap3\n      swap2\n      pop\n      pop\n      jump\t// out\n        /* \"#utility.yul\":7992:8321   */\n    tag_49:\n        /* \"#utility.yul\":8051:8057   */\n      0x00\n        /* \"#utility.yul\":8100:8102   */\n      0x20\n        /* \"#utility.yul\":8088:8097   */\n      dup3\n        /* \"#utility.yul\":8079:8086   */\n      dup5\n        /* \"#utility.yul\":8075:8098   */\n      sub\n        /* \"#utility.yul\":8071:8103   */\n      slt\n        /* \"#utility.yul\":8068:8187   */\n      iszero\n      tag_299\n      jumpi\n        /* \"#utility.yul\":8106:8185   */\n      tag_300\n      tag_166\n      jump\t// in\n    tag_300:\n        /* \"#utility.yul\":8068:8187   */\n    tag_299:\n        /* \"#utility.yul\":8226:8227   */\n      0x00\n        /* \"#utility.yul\":8251:8304   */\n      tag_301\n        /* \"#utility.yul\":8296:8303   */\n      dup5\n        /* \"#utility.yul\":8287:8293   */\n      dup3\n        /* \"#utility.yul\":8276:8285   */\n      dup6\n        /* \"#utility.yul\":8272:8294   */\n      add\n        /* \"#utility.yul\":8251:8304   */\n      tag_171\n      jump\t// in\n    tag_301:\n        /* \"#utility.yul\":8241:8304   */\n      swap2\n      pop\n        /* \"#utility.yul\":8197:8314   */\n      pop\n        /* \"#utility.yul\":7992:8321   */\n      swap3\n      swap2\n      pop\n      pop\n      jump\t// out\n        /* \"#utility.yul\":8327:8801   */\n    tag_65:\n        /* \"#utility.yul\":8395:8401   */\n      0x00\n        /* \"#utility.yul\":8403:8409   */\n      dup1\n        /* \"#utility.yul\":8452:8454   */\n      0x40\n        /* \"#utility.yul\":8440:8449   */\n      dup4\n        /* \"#utility.yul\":8431:8438   */\n      dup6\n        /* \"#utility.yul\":8427:8450   */\n      sub\n        /* \"#utility.yul\":8423:8455   */\n      slt\n        /* \"#utility.yul\":8420:8539   */\n      iszero\n      tag_303\n      jumpi\n        /* \"#utility.yul\":8458:8537   */\n      tag_304\n      tag_166\n      jump\t// in\n    tag_304:\n        /* \"#utility.yul\":8420:8539   */\n    tag_303:\n        /* \"#utility.yul\":8578:8579   */\n      0x00\n        /* \"#utility.yul\":8603:8656   */\n      tag_305\n        /* \"#utility.yul\":8648:8655   */\n      dup6\n        /* \"#utility.yul\":8639:8645   */\n      dup3\n        /* \"#utility.yul\":8628:8637   */\n      dup7\n        /* \"#utility.yul\":8624:8646   */\n      add\n        /* \"#utility.yul\":8603:8656   */\n      tag_171\n      jump\t// in\n    tag_305:\n        /* \"#utility.yul\":8593:8656   */\n      swap3\n      pop\n        /* \"#utility.yul\":8549:8666   */\n      pop\n        /* \"#utility.yul\":8705:8707   */\n      0x20\n        /* \"#utility.yul\":8731:8784   */\n      tag_306\n        /* \"#utility.yul\":8776:8783   */\n      dup6\n        /* \"#utility.yul\":8767:8773   */\n      dup3\n        /* \"#utility.yul\":8756:8765   */\n      dup7\n        /* \"#utility.yul\":8752:8774   */\n      add\n        /* \"#utility.yul\":8731:8784   */\n      tag_171\n      jump\t// in\n    tag_306:\n        /* \"#utility.yul\":8721:8784   */\n      swap2\n      pop\n        /* \"#utility.yul\":8676:8794   */\n      pop\n        /* \"#utility.yul\":8327:8801   */\n      swap3\n      pop\n      swap3\n      swap1\n      pop\n      jump\t// out\n        /* \"#utility.yul\":8807:8987   */\n    tag_189:\n        /* \"#utility.yul\":8855:8932   */\n      0x4e487b7100000000000000000000000000000000000000000000000000000000\n        /* \"#utility.yul\":8852:8853   */\n      0x00\n        /* \"#utility.yul\":8845:8933   */\n      mstore\n        /* \"#utility.yul\":8952:8956   */\n      0x22\n        /* \"#utility.yul\":8949:8950   */\n      0x04\n        /* \"#utility.yul\":8942:8957   */\n      mstore\n        /* \"#utility.yul\":8976:8980   */\n      0x24\n        /* \"#utility.yul\":8973:8974   */\n      0x00\n        /* \"#utility.yul\":8966:8981   */\n      revert\n        /* \"#utility.yul\":8993:9313   */\n    tag_70:\n        /* \"#utility.yul\":9037:9043   */\n      0x00\n        /* \"#utility.yul\":9074:9075   */\n      0x02\n        /* \"#utility.yul\":9068:9072   */\n      dup3\n        /* \"#utility.yul\":9064:9076   */\n      div\n        /* \"#utility.yul\":9054:9076   */\n      swap1\n      pop\n        /* \"#utility.yul\":9121:9122   */\n      0x01\n        /* \"#utility.yul\":9115:9119   */\n      dup3\n        /* \"#utility.yul\":9111:9123   */\n      and\n        /* \"#utility.yul\":9142:9160   */\n      dup1\n        /* \"#utility.yul\":9132:9213   */\n      tag_309\n      jumpi\n        /* \"#utility.yul\":9198:9202   */\n      0x7f\n        /* \"#utility.yul\":9190:9196   */\n      dup3\n        /* \"#utility.yul\":9186:9203   */\n      and\n        /* \"#utility.yul\":9176:9203   */\n      swap2\n      pop\n        /* \"#utility.yul\":9132:9213   */\n    tag_309:\n        /* \"#utility.yul\":9260:9262   */\n      0x20\n        /* \"#utility.yul\":9252:9258   */\n      dup3\n        /* \"#utility.yul\":9249:9263   */\n      lt\n        /* \"#utility.yul\":9229:9247   */\n      dup2\n        /* \"#utility.yul\":9226:9264   */\n      eq\n        /* \"#utility.yul\":9223:9307   */\n      iszero\n      tag_310\n      jumpi\n        /* \"#utility.yul\":9279:9297   */\n      tag_311\n      tag_189\n      jump\t// in\n    tag_311:\n        /* \"#utility.yul\":9223:9307   */\n    tag_310:\n        /* \"#utility.yul\":9044:9313   */\n      pop\n        /* \"#utility.yul\":8993:9313   */\n      swap2\n      swap1\n      pop\n      jump\t// out\n        /* \"#utility.yul\":9319:9499   */\n    tag_190:\n        /* \"#utility.yul\":9367:9444   */\n      0x4e487b7100000000000000000000000000000000000000000000000000000000\n        /* \"#utility.yul\":9364:9365   */\n      0x00\n        /* \"#utility.yul\":9357:9445   */\n      mstore\n        /* \"#utility.yul\":9464:9468   */\n      0x11\n        /* \"#utility.yul\":9461:9462   */\n      0x04\n        /* \"#utility.yul\":9454:9469   */\n      mstore\n        /* \"#utility.yul\":9488:9492   */\n      0x24\n        /* \"#utility.yul\":9485:9486   */\n      0x00\n        /* \"#utility.yul\":9478:9493   */\n      revert\n        /* \"#utility.yul\":9505:9810   */\n    tag_98:\n        /* \"#utility.yul\":9545:9548   */\n      0x00\n        /* \"#utility.yul\":9564:9584   */\n      tag_314\n        /* \"#utility.yul\":9582:9583   */\n      dup3\n        /* \"#utility.yul\":9564:9584   */\n      tag_172\n      jump\t// in\n    tag_314:\n        /* \"#utility.yul\":9559:9584   */\n      swap2\n      pop\n        /* \"#utility.yul\":9598:9618   */\n      tag_315\n        /* \"#utility.yul\":9616:9617   */\n      dup4\n        /* \"#utility.yul\":9598:9618   */\n      tag_172\n      jump\t// in\n    tag_315:\n        /* \"#utility.yul\":9593:9618   */\n      swap3\n      pop\n        /* \"#utility.yul\":9752:9753   */\n      dup3\n        /* \"#utility.yul\":9684:9750   */\n      0xffffffffffffffffffffffffffffffffffffffffffffffffffffffffffffffff\n        /* \"#utility.yul\":9680:9754   */\n      sub\n        /* \"#utility.yul\":9677:9678   */\n      dup3\n        /* \"#utility.yul\":9674:9755   */\n      gt\n        /* \"#utility.yul\":9671:9778   */\n      iszero\n      tag_316\n      jumpi\n        /* \"#utility.yul\":9758:9776   */\n      tag_317\n      tag_190\n      jump\t// in\n    tag_317:\n        /* \"#utility.yul\":9671:9778   */\n    tag_316:\n        /* \"#utility.yul\":9802:9803   */\n      dup3\n        /* \"#utility.yul\":9799:9800   */\n      dup3\n        /* \"#utility.yul\":9795:9804   */\n      add\n        /* \"#utility.yul\":9788:9804   */\n      swap1\n      pop\n        /* \"#utility.yul\":9505:9810   */\n      swap3\n      swap2\n      pop\n      pop\n      jump\t// out\n        /* \"#utility.yul\":9816:10040   */\n    tag_191:\n        /* \"#utility.yul\":9956:9990   */\n      0x45524332303a2064656372656173656420616c6c6f77616e63652062656c6f77\n        /* \"#utility.yul\":9952:9953   */\n      0x00\n        /* \"#utility.yul\":9944:9950   */\n      dup3\n        /* \"#utility.yul\":9940:9954   */\n      add\n        /* \"#utility.yul\":9933:9991   */\n      mstore\n        /* \"#utility.yul\":10025:10032   */\n      0x207a65726f000000000000000000000000000000000000000000000000000000\n        /* \"#utility.yul\":10020:10022   */\n      0x20\n        /* \"#utility.yul\":10012:10018   */\n      dup3\n        /* \"#utility.yul\":10008:10023   */\n      add\n        /* \"#utility.yul\":10001:10033   */\n      mstore\n        /* \"#utility.yul\":9816:10040   */\n      pop\n      jump\t// out\n        /* \"#utility.yul\":10046:10412   */\n    tag_192:\n        /* \"#utility.yul\":10188:10191   */\n      0x00\n        /* \"#utility.yul\":10209:10276   */\n      tag_320\n        /* \"#utility.yul\":10273:10275   */\n      0x25\n        /* \"#utility.yul\":10268:10271   */\n      dup4\n        /* \"#utility.yul\":10209:10276   */\n      tag_161\n      jump\t// in\n    tag_320:\n        /* \"#utility.yul\":10202:10276   */\n      swap2\n      pop\n        /* \"#utility.yul\":10285:10378   */\n      tag_321\n        /* \"#utility.yul\":10374:10377   */\n      dup3\n        /* \"#utility.yul\":10285:10378   */\n      tag_191\n      jump\t// in\n    tag_321:\n        /* \"#utility.yul\":10403:10405   */\n      0x40\n        /* \"#utility.yul\":10398:10401   */\n      dup3\n        /* \"#utility.yul\":10394:10406   */\n      add\n        /* \"#utility.yul\":10387:10406   */\n      swap1\n      pop\n        /* \"#utility.yul\":10046:10412   */\n      swap2\n      swap1\n      pop\n      jump\t// out\n        /* \"#utility.yul\":10418:10837   */\n    tag_111:\n        /* \"#utility.yul\":10584:10588   */\n      0x00\n        /* \"#utility.yul\":10622:10624   */\n      0x20\n        /* \"#utility.yul\":10611:10620   */\n      dup3\n        /* \"#utility.yul\":10607:10625   */\n      add\n        /* \"#utility.yul\":10599:10625   */\n      swap1\n      pop\n        /* \"#utility.yul\":10671:10680   */\n      dup2\n        /* \"#utility.yul\":10665:10669   */\n      dup2\n        /* \"#utility.yul\":10661:10681   */\n      sub\n        /* \"#utility.yul\":10657:10658   */\n      0x00\n        /* \"#utility.yul\":10646:10655   */\n      dup4\n        /* \"#utility.yul\":10642:10659   */\n      add\n        /* \"#utility.yul\":10635:10682   */\n      mstore\n        /* \"#utility.yul\":10699:10830   */\n      tag_323\n        /* \"#utility.yul\":10825:10829   */\n      dup2\n        /* \"#utility.yul\":10699:10830   */\n      tag_192\n      jump\t// in\n    tag_323:\n        /* \"#utility.yul\":10691:10830   */\n      swap1\n      pop\n        /* \"#utility.yul\":10418:10837   */\n      swap2\n      swap1\n      pop\n      jump\t// out\n        /* \"#utility.yul\":10843:11066   */\n    tag_193:\n        /* \"#utility.yul\":10983:11017   */\n      0x45524332303a20617070726f76652066726f6d20746865207a65726f20616464\n        /* \"#utility.yul\":10979:10980   */\n      0x00\n        /* \"#utility.yul\":10971:10977   */\n      dup3\n        /* \"#utility.yul\":10967:10981   */\n      add\n        /* \"#utility.yul\":10960:11018   */\n      mstore\n        /* \"#utility.yul\":11052:11058   */\n      0x7265737300000000000000000000000000000000000000000000000000000000\n        /* \"#utility.yul\":11047:11049   */\n      0x20\n        /* \"#utility.yul\":11039:11045   */\n      dup3\n        /* \"#utility.yul\":11035:11050   */\n      add\n        /* \"#utility.yul\":11028:11059   */\n      mstore\n        /* \"#utility.yul\":10843:11066   */\n      pop\n      jump\t// out\n        /* \"#utility.yul\":11072:11438   */\n    tag_194:\n        /* \"#utility.yul\":11214:11217   */\n      0x00\n        /* \"#utility.yul\":11235:11302   */\n      tag_326\n        /* \"#utility.yul\":11299:11301   */\n      0x24\n        /* \"#utility.yul\":11294:11297   */\n      dup4\n        /* \"#utility.yul\":11235:11302   */\n      tag_161\n      jump\t// in\n    tag_326:\n        /* \"#utility.yul\":11228:11302   */\n      swap2\n      pop\n        /* \"#utility.yul\":11311:11404   */\n      tag_327\n        /* \"#utility.yul\":11400:11403   */\n      dup3\n        /* \"#utility.yul\":11311:11404   */\n      tag_193\n      jump\t// in\n    tag_327:\n        /* \"#utility.yul\":11429:11431   */\n      0x40\n        /* \"#utility.yul\":11424:11427   */\n      dup3\n        /* \"#utility.yul\":11420:11432   */\n      add\n        /* \"#utility.yul\":11413:11432   */\n      swap1\n      pop\n        /* \"#utility.yul\":11072:11438   */\n      swap2\n      swap1\n      pop\n      jump\t// out\n        /* \"#utility.yul\":11444:11863   */\n    tag_121:\n        /* \"#utility.yul\":11610:11614   */\n      0x00\n        /* \"#utility.yul\":11648:11650   */\n      0x20\n        /* \"#utility.yul\":11637:11646   */\n      dup3\n        /* \"#utility.yul\":11633:11651   */\n      add\n        /* \"#utility.yul\":11625:11651   */\n      swap1\n      pop\n        /* \"#utility.yul\":11697:11706   */\n      dup2\n        /* \"#utility.yul\":11691:11695   */\n      dup2\n        /* \"#utility.yul\":11687:11707   */\n      sub\n        /* \"#utility.yul\":11683:11684   */\n      0x00\n        /* \"#utility.yul\":11672:11681   */\n      dup4\n        /* \"#utility.yul\":11668:11685   */\n      add\n        /* \"#utility.yul\":11661:11708   */\n      mstore\n        /* \"#utility.yul\":11725:11856   */\n      tag_329\n        /* \"#utility.yul\":11851:11855   */\n      dup2\n        /* \"#utility.yul\":11725:11856   */\n      tag_194\n      jump\t// in\n    tag_329:\n        /* \"#utility.yul\":11717:11856   */\n      swap1\n      pop\n        /* \"#utility.yul\":11444:11863   */\n      swap2\n      swap1\n      pop\n      jump\t// out\n        /* \"#utility.yul\":11869:12090   */\n    tag_195:\n        /* \"#utility.yul\":12009:12043   */\n      0x45524332303a20617070726f766520746f20746865207a65726f206164647265\n        /* \"#utility.yul\":12005:12006   */\n      0x00\n        /* \"#utility.yul\":11997:12003   */\n      dup3\n        /* \"#utility.yul\":11993:12007   */\n      add\n        /* \"#utility.yul\":11986:12044   */\n      mstore\n        /* \"#utility.yul\":12078:12082   */\n      0x7373000000000000000000000000000000000000000000000000000000000000\n        /* \"#utility.yul\":12073:12075   */\n      0x20\n        /* \"#utility.yul\":12065:12071   */\n      dup3\n        /* \"#utility.yul\":12061:12076   */\n      add\n        /* \"#utility.yul\":12054:12083   */\n      mstore\n        /* \"#utility.yul\":11869:12090   */\n      pop\n      jump\t// out\n        /* \"#utility.yul\":12096:12462   */\n    tag_196:\n        /* \"#utility.yul\":12238:12241   */\n      0x00\n        /* \"#utility.yul\":12259:12326   */\n      tag_332\n        /* \"#utility.yul\":12323:12325   */\n      0x22\n        /* \"#utility.yul\":12318:12321   */\n      dup4\n        /* \"#utility.yul\":12259:12326   */\n      tag_161\n      jump\t// in\n    tag_332:\n        /* \"#utility.yul\":12252:12326   */\n      swap2\n      pop\n        /* \"#utility.yul\":12335:12428   */\n      tag_333\n        /* \"#utility.yul\":12424:12427   */\n      dup3\n        /* \"#utility.yul\":12335:12428   */\n      tag_195\n      jump\t// in\n    tag_333:\n        /* \"#utility.yul\":12453:12455   */\n      0x40\n        /* \"#utility.yul\":12448:12451   */\n      dup3\n        /* \"#utility.yul\":12444:12456   */\n      add\n        /* \"#utility.yul\":12437:12456   */\n      swap1\n      pop\n        /* \"#utility.yul\":12096:12462   */\n      swap2\n      swap1\n      pop\n      jump\t// out\n        /* \"#utility.yul\":12468:12887   */\n    tag_124:\n        /* \"#utility.yul\":12634:12638   */\n      0x00\n        /* \"#utility.yul\":12672:12674   */\n      0x20\n        /* \"#utility.yul\":12661:12670   */\n      dup3\n        /* \"#utility.yul\":12657:12675   */\n      add\n        /* \"#utility.yul\":12649:12675   */\n      swap1\n      pop\n        /* \"#utility.yul\":12721:12730   */\n      dup2\n        /* \"#utility.yul\":12715:12719   */\n      dup2\n        /* \"#utility.yul\":12711:12731   */\n      sub\n        /* \"#utility.yul\":12707:12708   */\n      0x00\n        /* \"#utility.yul\":12696:12705   */\n      dup4\n        /* \"#utility.yul\":12692:12709   */\n      add\n        /* \"#utility.yul\":12685:12732   */\n      mstore\n        /* \"#utility.yul\":12749:12880   */\n      tag_335\n        /* \"#utility.yul\":12875:12879   */\n      dup2\n        /* \"#utility.yul\":12749:12880   */\n      tag_196\n      jump\t// in\n    tag_335:\n        /* \"#utility.yul\":12741:12880   */\n      swap1\n      pop\n        /* \"#utility.yul\":12468:12887   */\n      swap2\n      swap1\n      pop\n      jump\t// out\n        /* \"#utility.yul\":12893:13072   */\n    tag_197:\n        /* \"#utility.yul\":13033:13064   */\n      0x45524332303a20696e73756666696369656e7420616c6c6f77616e6365000000\n        /* \"#utility.yul\":13029:13030   */\n      0x00\n        /* \"#utility.yul\":13021:13027   */\n      dup3\n        /* \"#utility.yul\":13017:13031   */\n      add\n        /* \"#utility.yul\":13010:13065   */\n      mstore\n        /* \"#utility.yul\":12893:13072   */\n      pop\n      jump\t// out\n        /* \"#utility.yul\":13078:13444   */\n    tag_198:\n        /* \"#utility.yul\":13220:13223   */\n      0x00\n        /* \"#utility.yul\":13241:13308   */\n      tag_338\n        /* \"#utility.yul\":13305:13307   */\n      0x1d\n        /* \"#utility.yul\":13300:13303   */\n      dup4\n        /* \"#utility.yul\":13241:13308   */\n      tag_161\n      jump\t// in\n    tag_338:\n        /* \"#utility.yul\":13234:13308   */\n      swap2\n      pop\n        /* \"#utility.yul\":13317:13410   */\n      tag_339\n        /* \"#utility.yul\":13406:13409   */\n      dup3\n        /* \"#utility.yul\":13317:13410   */\n      tag_197\n      jump\t// in\n    tag_339:\n        /* \"#utility.yul\":13435:13437   */\n      0x20\n        /* \"#utility.yul\":13430:13433   */\n      dup3\n        /* \"#utility.yul\":13426:13438   */\n      add\n        /* \"#utility.yul\":13419:13438   */\n      swap1\n      pop\n        /* \"#utility.yul\":13078:13444   */\n      swap2\n      swap1\n      pop\n      jump\t// out\n        /* \"#utility.yul\":13450:13869   */\n    tag_131:\n        /* \"#utility.yul\":13616:13620   */\n      0x00\n        /* \"#utility.yul\":13654:13656   */\n      0x20\n        /* \"#utility.yul\":13643:13652   */\n      dup3\n        /* \"#utility.yul\":13639:13657   */\n      add\n        /* \"#utility.yul\":13631:13657   */\n      swap1\n      pop\n        /* \"#utility.yul\":13703:13712   */\n      dup2\n        /* \"#utility.yul\":13697:13701   */\n      dup2\n        /* \"#utility.yul\":13693:13713   */\n      sub\n        /* \"#utility.yul\":13689:13690   */\n      0x00\n        /* \"#utility.yul\":13678:13687   */\n      dup4\n        /* \"#utility.yul\":13674:13691   */\n      add\n        /* \"#utility.yul\":13667:13714   */\n      mstore\n        /* \"#utility.yul\":13731:13862   */\n      tag_341\n        /* \"#utility.yul\":13857:13861   */\n      dup2\n        /* \"#utility.yul\":13731:13862   */\n      tag_198\n      jump\t// in\n    tag_341:\n        /* \"#utility.yul\":13723:13862   */\n      swap1\n      pop\n        /* \"#utility.yul\":13450:13869   */\n      swap2\n      swap1\n      pop\n      jump\t// out\n        /* \"#utility.yul\":13875:14099   */\n    tag_199:\n        /* \"#utility.yul\":14015:14049   */\n      0x45524332303a207472616e736665722066726f6d20746865207a65726f206164\n        /* \"#utility.yul\":14011:14012   */\n      0x00\n        /* \"#utility.yul\":14003:14009   */\n      dup3\n        /* \"#utility.yul\":13999:14013   */\n      add\n        /* \"#utility.yul\":13992:14050   */\n      mstore\n        /* \"#utility.yul\":14084:14091   */\n      0x6472657373000000000000000000000000000000000000000000000000000000\n        /* \"#utility.yul\":14079:14081   */\n      0x20\n        /* \"#utility.yul\":14071:14077   */\n      dup3\n        /* \"#utility.yul\":14067:14082   */\n      add\n        /* \"#utility.yul\":14060:14092   */\n      mstore\n        /* \"#utility.yul\":13875:14099   */\n      pop\n      jump\t// out\n        /* \"#utility.yul\":14105:14471   */\n    tag_200:\n        /* \"#utility.yul\":14247:14250   */\n      0x00\n        /* \"#utility.yul\":14268:14335   */\n      tag_344\n        /* \"#utility.yul\":14332:14334   */\n      0x25\n        /* \"#utility.yul\":14327:14330   */\n      dup4\n        /* \"#utility.yul\":14268:14335   */\n      tag_161\n      jump\t// in\n    tag_344:\n        /* \"#utility.yul\":14261:14335   */\n      swap2\n      pop\n        /* \"#utility.yul\":14344:14437   */\n      tag_345\n        /* \"#utility.yul\":14433:14436   */\n      dup3\n        /* \"#utility.yul\":14344:14437   */\n      tag_199\n      jump\t// in\n    tag_345:\n        /* \"#utility.yul\":14462:14464   */\n      0x40\n        /* \"#utility.yul\":14457:14460   */\n      dup3\n        /* \"#utility.yul\":14453:14465   */\n      add\n        /* \"#utility.yul\":14446:14465   */\n      swap1\n      pop\n        /* \"#utility.yul\":14105:14471   */\n      swap2\n      swap1\n      pop\n      jump\t// out\n        /* \"#utility.yul\":14477:14896   */\n    tag_136:\n        /* \"#utility.yul\":14643:14647   */\n      0x00\n        /* \"#utility.yul\":14681:14683   */\n      0x20\n        /* \"#utility.yul\":14670:14679   */\n      dup3\n        /* \"#utility.yul\":14666:14684   */\n      add\n        /* \"#utility.yul\":14658:14684   */\n      swap1\n      pop\n        /* \"#utility.yul\":14730:14739   */\n      dup2\n        /* \"#utility.yul\":14724:14728   */\n      dup2\n        /* \"#utility.yul\":14720:14740   */\n      sub\n        /* \"#utility.yul\":14716:14717   */\n      0x00\n        /* \"#utility.yul\":14705:14714   */\n      dup4\n        /* \"#utility.yul\":14701:14718   */\n      add\n        /* \"#utility.yul\":14694:14741   */\n      mstore\n        /* \"#utility.yul\":14758:14889   */\n      tag_347\n        /* \"#utility.yul\":14884:14888   */\n      dup2\n        /* \"#utility.yul\":14758:14889   */\n      tag_200\n      jump\t// in\n    tag_347:\n        /* \"#utility.yul\":14750:14889   */\n      swap1\n      pop\n        /* \"#utility.yul\":14477:14896   */\n      swap2\n      swap1\n      pop\n      jump\t// out\n        /* \"#utility.yul\":14902:15124   */\n    tag_201:\n        /* \"#utility.yul\":15042:15076   */\n      0x45524332303a207472616e7366657220746f20746865207a65726f2061646472\n        /* \"#utility.yul\":15038:15039   */\n      0x00\n        /* \"#utility.yul\":15030:15036   */\n      dup3\n        /* \"#utility.yul\":15026:15040   */\n      add\n        /* \"#utility.yul\":15019:15077   */\n      mstore\n        /* \"#utility.yul\":15111:15116   */\n      0x6573730000000000000000000000000000000000000000000000000000000000\n        /* \"#utility.yul\":15106:15108   */\n      0x20\n        /* \"#utility.yul\":15098:15104   */\n      dup3\n        /* \"#utility.yul\":15094:15109   */\n      add\n        /* \"#utility.yul\":15087:15117   */\n      mstore\n        /* \"#utility.yul\":14902:15124   */\n      pop\n      jump\t// out\n        /* \"#utility.yul\":15130:15496   */\n    tag_202:\n        /* \"#utility.yul\":15272:15275   */\n      0x00\n        /* \"#utility.yul\":15293:15360   */\n      tag_350\n        /* \"#utility.yul\":15357:15359   */\n      0x23\n        /* \"#utility.yul\":15352:15355   */\n      dup4\n        /* \"#utility.yul\":15293:15360   */\n      tag_161\n      jump\t// in\n    tag_350:\n        /* \"#utility.yul\":15286:15360   */\n      swap2\n      pop\n        /* \"#utility.yul\":15369:15462   */\n      tag_351\n        /* \"#utility.yul\":15458:15461   */\n      dup3\n        /* \"#utility.yul\":15369:15462   */\n      tag_201\n      jump\t// in\n    tag_351:\n        /* \"#utility.yul\":15487:15489   */\n      0x40\n        /* \"#utility.yul\":15482:15485   */\n      dup3\n        /* \"#utility.yul\":15478:15490   */\n      add\n        /* \"#utility.yul\":15471:15490   */\n      swap1\n      pop\n        /* \"#utility.yul\":15130:15496   */\n      swap2\n      swap1\n      pop\n      jump\t// out\n        /* \"#utility.yul\":15502:15921   */\n    tag_139:\n        /* \"#utility.yul\":15668:15672   */\n      0x00\n        /* \"#utility.yul\":15706:15708   */\n      0x20\n        /* \"#utility.yul\":15695:15704   */\n      dup3\n        /* \"#utility.yul\":15691:15709   */\n      add\n        /* \"#utility.yul\":15683:15709   */\n      swap1\n      pop\n        /* \"#utility.yul\":15755:15764   */\n      dup2\n        /* \"#utility.yul\":15749:15753   */\n      dup2\n        /* \"#utility.yul\":15745:15765   */\n      sub\n        /* \"#utility.yul\":15741:15742   */\n      0x00\n        /* \"#utility.yul\":15730:15739   */\n      dup4\n        /* \"#utility.yul\":15726:15743   */\n      add\n        /* \"#utility.yul\":15719:15766   */\n      mstore\n        /* \"#utility.yul\":15783:15914   */\n      tag_353\n        /* \"#utility.yul\":15909:15913   */\n      dup2\n        /* \"#utility.yul\":15783:15914   */\n      tag_202\n      jump\t// in\n    tag_353:\n        /* \"#utility.yul\":15775:15914   */\n      swap1\n      pop\n        /* \"#utility.yul\":15502:15921   */\n      swap2\n      swap1\n      pop\n      jump\t// out\n        /* \"#utility.yul\":15927:16152   */\n    tag_203:\n        /* \"#utility.yul\":16067:16101   */\n      0x45524332303a207472616e7366657220616d6f756e7420657863656564732062\n        /* \"#utility.yul\":16063:16064   */\n      0x00\n        /* \"#utility.yul\":16055:16061   */\n      dup3\n        /* \"#utility.yul\":16051:16065   */\n      add\n        /* \"#utility.yul\":16044:16102   */\n      mstore\n        /* \"#utility.yul\":16136:16144   */\n      0x616c616e63650000000000000000000000000000000000000000000000000000\n        /* \"#utility.yul\":16131:16133   */\n      0x20\n        /* \"#utility.yul\":16123:16129   */\n      dup3\n        /* \"#utility.yul\":16119:16134   */\n      add\n        /* \"#utility.yul\":16112:16145   */\n      mstore\n        /* \"#utility.yul\":15927:16152   */\n      pop\n      jump\t// out\n        /* \"#utility.yul\":16158:16524   */\n    tag_204:\n        /* \"#utility.yul\":16300:16303   */\n      0x00\n        /* \"#utility.yul\":16321:16388   */\n      tag_356\n        /* \"#utility.yul\":16385:16387   */\n      0x26\n        /* \"#utility.yul\":16380:16383   */\n      dup4\n        /* \"#utility.yul\":16321:16388   */\n      tag_161\n      jump\t// in\n    tag_356:\n        /* \"#utility.yul\":16314:16388   */\n      swap2\n      pop\n        /* \"#utility.yul\":16397:16490   */\n      tag_357\n        /* \"#utility.yul\":16486:16489   */\n      dup3\n        /* \"#utility.yul\":16397:16490   */\n      tag_203\n      jump\t// in\n    tag_357:\n        /* \"#utility.yul\":16515:16517   */\n      0x40\n        /* \"#utility.yul\":16510:16513   */\n      dup3\n        /* \"#utility.yul\":16506:16518   */\n      add\n        /* \"#utility.yul\":16499:16518   */\n      swap1\n      pop\n        /* \"#utility.yul\":16158:16524   */\n      swap2\n      swap1\n      pop\n      jump\t// out\n        /* \"#utility.yul\":16530:16949   */\n    tag_144:\n        /* \"#utility.yul\":16696:16700   */\n      0x00\n        /* \"#utility.yul\":16734:16736   */\n      0x20\n        /* \"#utility.yul\":16723:16732   */\n      dup3\n        /* \"#utility.yul\":16719:16737   */\n      add\n        /* \"#utility.yul\":16711:16737   */\n      swap1\n      pop\n        /* \"#utility.yul\":16783:16792   */\n      dup2\n        /* \"#utility.yul\":16777:16781   */\n      dup2\n        /* \"#utility.yul\":16773:16793   */\n      sub\n        /* \"#utility.yul\":16769:16770   */\n      0x00\n        /* \"#utility.yul\":16758:16767   */\n      dup4\n        /* \"#utility.yul\":16754:16771   */\n      add\n        /* \"#utility.yul\":16747:16794   */\n      mstore\n        /* \"#utility.yul\":16811:16942   */\n      tag_359\n        /* \"#utility.yul\":16937:16941   */\n      dup2\n        /* \"#utility.yul\":16811:16942   */\n      tag_204\n      jump\t// in\n    tag_359:\n        /* \"#utility.yul\":16803:16942   */\n      swap1\n      pop\n        /* \"#utility.yul\":16530:16949   */\n      swap2\n      swap1\n      pop\n      jump\t// out\n\n    auxdata: 0xa26469706673582212204b9b9f533d60b0bed9cf5e6d8929c14f434195d9d5aa000fa985f01de577cfb464736f6c63430008090033\n}\n",
				"bytecode": {
					"linkReferences": {},
					"object": "60806040523480156200001157600080fd5b50604051620019f6380380620019f6833981810160405281019062000037919062000363565b82600390805190602001906200004f929190620000db565b50816004908051906020019062000068929190620000db565b5080600281905550600062000082620000d360201b60201c565b90506002546000808373ffffffffffffffffffffffffffffffffffffffff1673ffffffffffffffffffffffffffffffffffffffff168152602001908152602001600020819055505050505062000462565b600033905090565b828054620000e9906200042c565b90600052602060002090601f0160209004810192826200010d576000855562000159565b82601f106200012857805160ff191683800117855562000159565b8280016001018555821562000159579182015b82811115620001585782518255916020019190600101906200013b565b5b5090506200016891906200016c565b5090565b5b80821115620001875760008160009055506001016200016d565b5090565b6000604051905090565b600080fd5b600080fd5b600080fd5b600080fd5b6000601f19601f8301169050919050565b7f4e487b7100000000000000000000000000000000000000000000000000000000600052604160045260246000fd5b620001f482620001a9565b810181811067ffffffffffffffff82111715620002165762000215620001ba565b5b80604052505050565b60006200022b6200018b565b9050620002398282620001e9565b919050565b600067ffffffffffffffff8211156200025c576200025b620001ba565b5b6200026782620001a9565b9050602081019050919050565b60005b838110156200029457808201518184015260208101905062000277565b83811115620002a4576000848401525b50505050565b6000620002c1620002bb846200023e565b6200021f565b905082815260208101848484011115620002e057620002df620001a4565b5b620002ed84828562000274565b509392505050565b600082601f8301126200030d576200030c6200019f565b5b81516200031f848260208601620002aa565b91505092915050565b6000819050919050565b6200033d8162000328565b81146200034957600080fd5b50565b6000815190506200035d8162000332565b92915050565b6000806000606084860312156200037f576200037e62000195565b5b600084015167ffffffffffffffff811115620003a0576200039f6200019a565b5b620003ae86828701620002f5565b935050602084015167ffffffffffffffff811115620003d257620003d16200019a565b5b620003e086828701620002f5565b9250506040620003f3868287016200034c565b9150509250925092565b7f4e487b7100000000000000000000000000000000000000000000000000000000600052602260045260246000fd5b600060028204905060018216806200044557607f821691505b602082108114156200045c576200045b620003fd565b5b50919050565b61158480620004726000396000f3fe608060405234801561001057600080fd5b50600436106100b45760003560e01c80633950935111610071578063395093511461018f57806370a08231146101bf57806395d89b41146101ef578063a457c2d71461020d578063a9059cbb1461023d578063dd62ed3e1461026d576100b4565b806306fdde03146100b9578063095ea7b3146100d757806318160ddd1461010757806323b872dd146101255780632eabc91714610155578063313ce56714610171575b600080fd5b6100c161029d565b6040516100ce9190610c6f565b60405180910390f35b6100f160048036038101906100ec9190610d39565b61032f565b6040516100fe9190610d94565b60405180910390f35b61010f610352565b60405161011c9190610dbe565b60405180910390f35b61013f600480360381019061013a9190610dd9565b61035c565b60405161014c9190610d94565b60405180910390f35b61016f600480360381019061016a9190610f61565b61038b565b005b610179610417565b6040516101869190611008565b60405180910390f35b6101a960048036038101906101a49190610d39565b610420565b6040516101b69190610d94565b60405180910390f35b6101d960048036038101906101d49190611023565b610457565b6040516101e69190610dbe565b60405180910390f35b6101f761049f565b6040516102049190610c6f565b60405180910390f35b61022760048036038101906102229190610d39565b610531565b6040516102349190610d94565b60405180910390f35b61025760048036038101906102529190610d39565b6105a8565b6040516102649190610d94565b60405180910390f35b61028760048036038101906102829190611050565b6105cb565b6040516102949190610dbe565b60405180910390f35b6060600380546102ac906110bf565b80601f01602080910402602001604051908101604052809291908181526020018280546102d8906110bf565b80156103255780601f106102fa57610100808354040283529160200191610325565b820191906000526020600020905b81548152906001019060200180831161030857829003601f168201915b5050505050905090565b60008061033a610652565b905061034781858561065a565b600191505092915050565b6000600254905090565b600080610367610652565b9050610374858285610825565b61037f8585856108b1565b60019150509392505050565b82600390805190602001906103a1929190610b33565b5081600490805190602001906103b8929190610b33565b508060028190555060006103ca610652565b90506002546000808373ffffffffffffffffffffffffffffffffffffffff1673ffffffffffffffffffffffffffffffffffffffff1681526020019081526020016000208190555050505050565b60006012905090565b60008061042b610652565b905061044c81858561043d85896105cb565b6104479190611120565b61065a565b600191505092915050565b60008060008373ffffffffffffffffffffffffffffffffffffffff1673ffffffffffffffffffffffffffffffffffffffff168152602001908152602001600020549050919050565b6060600480546104ae906110bf565b80601f01602080910402602001604051908101604052809291908181526020018280546104da906110bf565b80156105275780601f106104fc57610100808354040283529160200191610527565b820191906000526020600020905b81548152906001019060200180831161050a57829003601f168201915b5050505050905090565b60008061053c610652565b9050600061054a82866105cb565b90508381101561058f576040517f08c379a0000000000000000000000000000000000000000000000000000000008152600401610586906111e8565b60405180910390fd5b61059c828686840361065a565b60019250505092915050565b6000806105b3610652565b90506105c08185856108b1565b600191505092915050565b6000600160008473ffffffffffffffffffffffffffffffffffffffff1673ffffffffffffffffffffffffffffffffffffffff16815260200190815260200160002060008373ffffffffffffffffffffffffffffffffffffffff1673ffffffffffffffffffffffffffffffffffffffff16815260200190815260200160002054905092915050565b600033905090565b600073ffffffffffffffffffffffffffffffffffffffff168373ffffffffffffffffffffffffffffffffffffffff1614156106ca576040517f08c379a00000000000000000000000000000000000000000000000000000000081526004016106c19061127a565b60405180910390fd5b600073ffffffffffffffffffffffffffffffffffffffff168273ffffffffffffffffffffffffffffffffffffffff16141561073a576040517f08c379a00000000000000000000000000000000000000000000000000000000081526004016107319061130c565b60405180910390fd5b80600160008573ffffffffffffffffffffffffffffffffffffffff1673ffffffffffffffffffffffffffffffffffffffff16815260200190815260200160002060008473ffffffffffffffffffffffffffffffffffffffff1673ffffffffffffffffffffffffffffffffffffffff168152602001908152602001600020819055508173ffffffffffffffffffffffffffffffffffffffff168373ffffffffffffffffffffffffffffffffffffffff167f8c5be1e5ebec7d5bd14f71427d1e84f3dd0314c0f7b2291e5b200ac8c7c3b925836040516108189190610dbe565b60405180910390a3505050565b600061083184846105cb565b90507fffffffffffffffffffffffffffffffffffffffffffffffffffffffffffffffff81146108ab578181101561089d576040517f08c379a000000000000000000000000000000000000000000000000000000000815260040161089490611378565b60405180910390fd5b6108aa848484840361065a565b5b50505050565b600073ffffffffffffffffffffffffffffffffffffffff168373ffffffffffffffffffffffffffffffffffffffff161415610921576040517f08c379a00000000000000000000000000000000000000000000000000000000081526004016109189061140a565b60405180910390fd5b600073ffffffffffffffffffffffffffffffffffffffff168273ffffffffffffffffffffffffffffffffffffffff161415610991576040517f08c379a00000000000000000000000000000000000000000000000000000000081526004016109889061149c565b60405180910390fd5b61099c838383610b29565b60008060008573ffffffffffffffffffffffffffffffffffffffff1673ffffffffffffffffffffffffffffffffffffffff16815260200190815260200160002054905081811015610a22576040517f08c379a0000000000000000000000000000000000000000000000000000000008152600401610a199061152e565b60405180910390fd5b8181036000808673ffffffffffffffffffffffffffffffffffffffff1673ffffffffffffffffffffffffffffffffffffffff16815260200190815260200160002081905550816000808573ffffffffffffffffffffffffffffffffffffffff1673ffffffffffffffffffffffffffffffffffffffff168152602001908152602001600020600082825401925050819055508273ffffffffffffffffffffffffffffffffffffffff168473ffffffffffffffffffffffffffffffffffffffff167fddf252ad1be2c89b69c2b068fc378daa952ba7f163c4a11628f55a4df523b3ef84604051610b109190610dbe565b60405180910390a3610b23848484610b2e565b50505050565b505050565b505050565b828054610b3f906110bf565b90600052602060002090601f016020900481019282610b615760008555610ba8565b82601f10610b7a57805160ff1916838001178555610ba8565b82800160010185558215610ba8579182015b82811115610ba7578251825591602001919060010190610b8c565b5b509050610bb59190610bb9565b5090565b5b80821115610bd2576000816000905550600101610bba565b5090565b600081519050919050565b600082825260208201905092915050565b60005b83811015610c10578082015181840152602081019050610bf5565b83811115610c1f576000848401525b50505050565b6000601f19601f8301169050919050565b6000610c4182610bd6565b610c4b8185610be1565b9350610c5b818560208601610bf2565b610c6481610c25565b840191505092915050565b60006020820190508181036000830152610c898184610c36565b905092915050565b6000604051905090565b600080fd5b600080fd5b600073ffffffffffffffffffffffffffffffffffffffff82169050919050565b6000610cd082610ca5565b9050919050565b610ce081610cc5565b8114610ceb57600080fd5b50565b600081359050610cfd81610cd7565b92915050565b6000819050919050565b610d1681610d03565b8114610d2157600080fd5b50565b600081359050610d3381610d0d565b92915050565b60008060408385031215610d5057610d4f610c9b565b5b6000610d5e85828601610cee565b9250506020610d6f85828601610d24565b9150509250929050565b60008115159050919050565b610d8e81610d79565b82525050565b6000602082019050610da96000830184610d85565b92915050565b610db881610d03565b82525050565b6000602082019050610dd36000830184610daf565b92915050565b600080600060608486031215610df257610df1610c9b565b5b6000610e0086828701610cee565b9350506020610e1186828701610cee565b9250506040610e2286828701610d24565b9150509250925092565b600080fd5b600080fd5b7f4e487b7100000000000000000000000000000000000000000000000000000000600052604160045260246000fd5b610e6e82610c25565b810181811067ffffffffffffffff82111715610e8d57610e8c610e36565b5b80604052505050565b6000610ea0610c91565b9050610eac8282610e65565b919050565b600067ffffffffffffffff821115610ecc57610ecb610e36565b5b610ed582610c25565b9050602081019050919050565b82818337600083830152505050565b6000610f04610eff84610eb1565b610e96565b905082815260208101848484011115610f2057610f1f610e31565b5b610f2b848285610ee2565b509392505050565b600082601f830112610f4857610f47610e2c565b5b8135610f58848260208601610ef1565b91505092915050565b600080600060608486031215610f7a57610f79610c9b565b5b600084013567ffffffffffffffff811115610f9857610f97610ca0565b5b610fa486828701610f33565b935050602084013567ffffffffffffffff811115610fc557610fc4610ca0565b5b610fd186828701610f33565b9250506040610fe286828701610d24565b9150509250925092565b600060ff82169050919050565b61100281610fec565b82525050565b600060208201905061101d6000830184610ff9565b92915050565b60006020828403121561103957611038610c9b565b5b600061104784828501610cee565b91505092915050565b6000806040838503121561106757611066610c9b565b5b600061107585828601610cee565b925050602061108685828601610cee565b9150509250929050565b7f4e487b7100000000000000000000000000000000000000000000000000000000600052602260045260246000fd5b600060028204905060018216806110d757607f821691505b602082108114156110eb576110ea611090565b5b50919050565b7f4e487b7100000000000000000000000000000000000000000000000000000000600052601160045260246000fd5b600061112b82610d03565b915061113683610d03565b9250827fffffffffffffffffffffffffffffffffffffffffffffffffffffffffffffffff0382111561116b5761116a6110f1565b5b828201905092915050565b7f45524332303a2064656372656173656420616c6c6f77616e63652062656c6f7760008201527f207a65726f000000000000000000000000000000000000000000000000000000602082015250565b60006111d2602583610be1565b91506111dd82611176565b604082019050919050565b60006020820190508181036000830152611201816111c5565b9050919050565b7f45524332303a20617070726f76652066726f6d20746865207a65726f2061646460008201527f7265737300000000000000000000000000000000000000000000000000000000602082015250565b6000611264602483610be1565b915061126f82611208565b604082019050919050565b6000602082019050818103600083015261129381611257565b9050919050565b7f45524332303a20617070726f766520746f20746865207a65726f20616464726560008201527f7373000000000000000000000000000000000000000000000000000000000000602082015250565b60006112f6602283610be1565b91506113018261129a565b604082019050919050565b60006020820190508181036000830152611325816112e9565b9050919050565b7f45524332303a20696e73756666696369656e7420616c6c6f77616e6365000000600082015250565b6000611362601d83610be1565b915061136d8261132c565b602082019050919050565b6000602082019050818103600083015261139181611355565b9050919050565b7f45524332303a207472616e736665722066726f6d20746865207a65726f20616460008201527f6472657373000000000000000000000000000000000000000000000000000000602082015250565b60006113f4602583610be1565b91506113ff82611398565b604082019050919050565b60006020820190508181036000830152611423816113e7565b9050919050565b7f45524332303a207472616e7366657220746f20746865207a65726f206164647260008201527f6573730000000000000000000000000000000000000000000000000000000000602082015250565b6000611486602383610be1565b91506114918261142a565b604082019050919050565b600060208201905081810360008301526114b581611479565b9050919050565b7f45524332303a207472616e7366657220616d6f756e742065786365656473206260008201527f616c616e63650000000000000000000000000000000000000000000000000000602082015250565b6000611518602683610be1565b9150611523826114bc565b604082019050919050565b600060208201905081810360008301526115478161150b565b905091905056fea26469706673582212204b9b9f533d60b0bed9cf5e6d8929c14f434195d9d5aa000fa985f01de577cfb464736f6c63430008090033",
					"opcodes": "PUSH1 0x80 PUSH1 0x40 MSTORE CALLVALUE DUP1 ISZERO PUSH3 0x11 JUMPI PUSH1 0x0 DUP1 REVERT JUMPDEST POP PUSH1 0x40 MLOAD PUSH3 0x19F6 CODESIZE SUB DUP1 PUSH3 0x19F6 DUP4 CODECOPY DUP2 DUP2 ADD PUSH1 0x40 MSTORE DUP2 ADD SWAP1 PUSH3 0x37 SWAP2 SWAP1 PUSH3 0x363 JUMP JUMPDEST DUP3 PUSH1 0x3 SWAP1 DUP1 MLOAD SWAP1 PUSH1 0x20 ADD SWAP1 PUSH3 0x4F SWAP3 SWAP2 SWAP1 PUSH3 0xDB JUMP JUMPDEST POP DUP2 PUSH1 0x4 SWAP1 DUP1 MLOAD SWAP1 PUSH1 0x20 ADD SWAP1 PUSH3 0x68 SWAP3 SWAP2 SWAP1 PUSH3 0xDB JUMP JUMPDEST POP DUP1 PUSH1 0x2 DUP2 SWAP1 SSTORE POP PUSH1 0x0 PUSH3 0x82 PUSH3 0xD3 PUSH1 0x20 SHL PUSH1 0x20 SHR JUMP JUMPDEST SWAP1 POP PUSH1 0x2 SLOAD PUSH1 0x0 DUP1 DUP4 PUSH20 0xFFFFFFFFFFFFFFFFFFFFFFFFFFFFFFFFFFFFFFFF AND PUSH20 0xFFFFFFFFFFFFFFFFFFFFFFFFFFFFFFFFFFFFFFFF AND DUP2 MSTORE PUSH1 0x20 ADD SWAP1 DUP2 MSTORE PUSH1 0x20 ADD PUSH1 0x0 KECCAK256 DUP2 SWAP1 SSTORE POP POP POP POP POP PUSH3 0x462 JUMP JUMPDEST PUSH1 0x0 CALLER SWAP1 POP SWAP1 JUMP JUMPDEST DUP3 DUP1 SLOAD PUSH3 0xE9 SWAP1 PUSH3 0x42C JUMP JUMPDEST SWAP1 PUSH1 0x0 MSTORE PUSH1 0x20 PUSH1 0x0 KECCAK256 SWAP1 PUSH1 0x1F ADD PUSH1 0x20 SWAP1 DIV DUP2 ADD SWAP3 DUP3 PUSH3 0x10D JUMPI PUSH1 0x0 DUP6 SSTORE PUSH3 0x159 JUMP JUMPDEST DUP3 PUSH1 0x1F LT PUSH3 0x128 JUMPI DUP1 MLOAD PUSH1 0xFF NOT AND DUP4 DUP1 ADD OR DUP6 SSTORE PUSH3 0x159 JUMP JUMPDEST DUP3 DUP1 ADD PUSH1 0x1 ADD DUP6 SSTORE DUP3 ISZERO PUSH3 0x159 JUMPI SWAP2 DUP3 ADD JUMPDEST DUP3 DUP2 GT ISZERO PUSH3 0x158 JUMPI DUP3 MLOAD DUP3 SSTORE SWAP2 PUSH1 0x20 ADD SWAP2 SWAP1 PUSH1 0x1 ADD SWAP1 PUSH3 0x13B JUMP JUMPDEST JUMPDEST POP SWAP1 POP PUSH3 0x168 SWAP2 SWAP1 PUSH3 0x16C JUMP JUMPDEST POP SWAP1 JUMP JUMPDEST JUMPDEST DUP1 DUP3 GT ISZERO PUSH3 0x187 JUMPI PUSH1 0x0 DUP2 PUSH1 0x0 SWAP1 SSTORE POP PUSH1 0x1 ADD PUSH3 0x16D JUMP JUMPDEST POP SWAP1 JUMP JUMPDEST PUSH1 0x0 PUSH1 0x40 MLOAD SWAP1 POP SWAP1 JUMP JUMPDEST PUSH1 0x0 DUP1 REVERT JUMPDEST PUSH1 0x0 DUP1 REVERT JUMPDEST PUSH1 0x0 DUP1 REVERT JUMPDEST PUSH1 0x0 DUP1 REVERT JUMPDEST PUSH1 0x0 PUSH1 0x1F NOT PUSH1 0x1F DUP4 ADD AND SWAP1 POP SWAP2 SWAP1 POP JUMP JUMPDEST PUSH32 0x4E487B7100000000000000000000000000000000000000000000000000000000 PUSH1 0x0 MSTORE PUSH1 0x41 PUSH1 0x4 MSTORE PUSH1 0x24 PUSH1 0x0 REVERT JUMPDEST PUSH3 0x1F4 DUP3 PUSH3 0x1A9 JUMP JUMPDEST DUP2 ADD DUP2 DUP2 LT PUSH8 0xFFFFFFFFFFFFFFFF DUP3 GT OR ISZERO PUSH3 0x216 JUMPI PUSH3 0x215 PUSH3 0x1BA JUMP JUMPDEST JUMPDEST DUP1 PUSH1 0x40 MSTORE POP POP POP JUMP JUMPDEST PUSH1 0x0 PUSH3 0x22B PUSH3 0x18B JUMP JUMPDEST SWAP1 POP PUSH3 0x239 DUP3 DUP3 PUSH3 0x1E9 JUMP JUMPDEST SWAP2 SWAP1 POP JUMP JUMPDEST PUSH1 0x0 PUSH8 0xFFFFFFFFFFFFFFFF DUP3 GT ISZERO PUSH3 0x25C JUMPI PUSH3 0x25B PUSH3 0x1BA JUMP JUMPDEST JUMPDEST PUSH3 0x267 DUP3 PUSH3 0x1A9 JUMP JUMPDEST SWAP1 POP PUSH1 0x20 DUP2 ADD SWAP1 POP SWAP2 SWAP1 POP JUMP JUMPDEST PUSH1 0x0 JUMPDEST DUP4 DUP2 LT ISZERO PUSH3 0x294 JUMPI DUP1 DUP3 ADD MLOAD DUP2 DUP5 ADD MSTORE PUSH1 0x20 DUP2 ADD SWAP1 POP PUSH3 0x277 JUMP JUMPDEST DUP4 DUP2 GT ISZERO PUSH3 0x2A4 JUMPI PUSH1 0x0 DUP5 DUP5 ADD MSTORE JUMPDEST POP POP POP POP JUMP JUMPDEST PUSH1 0x0 PUSH3 0x2C1 PUSH3 0x2BB DUP5 PUSH3 0x23E JUMP JUMPDEST PUSH3 0x21F JUMP JUMPDEST SWAP1 POP DUP3 DUP2 MSTORE PUSH1 0x20 DUP2 ADD DUP5 DUP5 DUP5 ADD GT ISZERO PUSH3 0x2E0 JUMPI PUSH3 0x2DF PUSH3 0x1A4 JUMP JUMPDEST JUMPDEST PUSH3 0x2ED DUP5 DUP3 DUP6 PUSH3 0x274 JUMP JUMPDEST POP SWAP4 SWAP3 POP POP POP JUMP JUMPDEST PUSH1 0x0 DUP3 PUSH1 0x1F DUP4 ADD SLT PUSH3 0x30D JUMPI PUSH3 0x30C PUSH3 0x19F JUMP JUMPDEST JUMPDEST DUP2 MLOAD PUSH3 0x31F DUP5 DUP3 PUSH1 0x20 DUP7 ADD PUSH3 0x2AA JUMP JUMPDEST SWAP2 POP POP SWAP3 SWAP2 POP POP JUMP JUMPDEST PUSH1 0x0 DUP2 SWAP1 POP SWAP2 SWAP1 POP JUMP JUMPDEST PUSH3 0x33D DUP2 PUSH3 0x328 JUMP JUMPDEST DUP2 EQ PUSH3 0x349 JUMPI PUSH1 0x0 DUP1 REVERT JUMPDEST POP JUMP JUMPDEST PUSH1 0x0 DUP2 MLOAD SWAP1 POP PUSH3 0x35D DUP2 PUSH3 0x332 JUMP JUMPDEST SWAP3 SWAP2 POP POP JUMP JUMPDEST PUSH1 0x0 DUP1 PUSH1 0x0 PUSH1 0x60 DUP5 DUP7 SUB SLT ISZERO PUSH3 0x37F JUMPI PUSH3 0x37E PUSH3 0x195 JUMP JUMPDEST JUMPDEST PUSH1 0x0 DUP5 ADD MLOAD PUSH8 0xFFFFFFFFFFFFFFFF DUP2 GT ISZERO PUSH3 0x3A0 JUMPI PUSH3 0x39F PUSH3 0x19A JUMP JUMPDEST JUMPDEST PUSH3 0x3AE DUP7 DUP3 DUP8 ADD PUSH3 0x2F5 JUMP JUMPDEST SWAP4 POP POP PUSH1 0x20 DUP5 ADD MLOAD PUSH8 0xFFFFFFFFFFFFFFFF DUP2 GT ISZERO PUSH3 0x3D2 JUMPI PUSH3 0x3D1 PUSH3 0x19A JUMP JUMPDEST JUMPDEST PUSH3 0x3E0 DUP7 DUP3 DUP8 ADD PUSH3 0x2F5 JUMP JUMPDEST SWAP3 POP POP PUSH1 0x40 PUSH3 0x3F3 DUP7 DUP3 DUP8 ADD PUSH3 0x34C JUMP JUMPDEST SWAP2 POP POP SWAP3 POP SWAP3 POP SWAP3 JUMP JUMPDEST PUSH32 0x4E487B7100000000000000000000000000000000000000000000000000000000 PUSH1 0x0 MSTORE PUSH1 0x22 PUSH1 0x4 MSTORE PUSH1 0x24 PUSH1 0x0 REVERT JUMPDEST PUSH1 0x0 PUSH1 0x2 DUP3 DIV SWAP1 POP PUSH1 0x1 DUP3 AND DUP1 PUSH3 0x445 JUMPI PUSH1 0x7F DUP3 AND SWAP2 POP JUMPDEST PUSH1 0x20 DUP3 LT DUP2 EQ ISZERO PUSH3 0x45C JUMPI PUSH3 0x45B PUSH3 0x3FD JUMP JUMPDEST JUMPDEST POP SWAP2 SWAP1 POP JUMP JUMPDEST PUSH2 0x1584 DUP1 PUSH3 0x472 PUSH1 0x0 CODECOPY PUSH1 0x0 RETURN INVALID PUSH1 0x80 PUSH1 0x40 MSTORE CALLVALUE DUP1 ISZERO PUSH2 0x10 JUMPI PUSH1 0x0 DUP1 REVERT JUMPDEST POP PUSH1 0x4 CALLDATASIZE LT PUSH2 0xB4 JUMPI PUSH1 0x0 CALLDATALOAD PUSH1 0xE0 SHR DUP1 PUSH4 0x39509351 GT PUSH2 0x71 JUMPI DUP1 PUSH4 0x39509351 EQ PUSH2 0x18F JUMPI DUP1 PUSH4 0x70A08231 EQ PUSH2 0x1BF JUMPI DUP1 PUSH4 0x95D89B41 EQ PUSH2 0x1EF JUMPI DUP1 PUSH4 0xA457C2D7 EQ PUSH2 0x20D JUMPI DUP1 PUSH4 0xA9059CBB EQ PUSH2 0x23D JUMPI DUP1 PUSH4 0xDD62ED3E EQ PUSH2 0x26D JUMPI PUSH2 0xB4 JUMP JUMPDEST DUP1 PUSH4 0x6FDDE03 EQ PUSH2 0xB9 JUMPI DUP1 PUSH4 0x95EA7B3 EQ PUSH2 0xD7 JUMPI DUP1 PUSH4 0x18160DDD EQ PUSH2 0x107 JUMPI DUP1 PUSH4 0x23B872DD EQ PUSH2 0x125 JUMPI DUP1 PUSH4 0x2EABC917 EQ PUSH2 0x155 JUMPI DUP1 PUSH4 0x313CE567 EQ PUSH2 0x171 JUMPI JUMPDEST PUSH1 0x0 DUP1 REVERT JUMPDEST PUSH2 0xC1 PUSH2 0x29D JUMP JUMPDEST PUSH1 0x40 MLOAD PUSH2 0xCE SWAP2 SWAP1 PUSH2 0xC6F JUMP JUMPDEST PUSH1 0x40 MLOAD DUP1 SWAP2 SUB SWAP1 RETURN JUMPDEST PUSH2 0xF1 PUSH1 0x4 DUP1 CALLDATASIZE SUB DUP2 ADD SWAP1 PUSH2 0xEC SWAP2 SWAP1 PUSH2 0xD39 JUMP JUMPDEST PUSH2 0x32F JUMP JUMPDEST PUSH1 0x40 MLOAD PUSH2 0xFE SWAP2 SWAP1 PUSH2 0xD94 JUMP JUMPDEST PUSH1 0x40 MLOAD DUP1 SWAP2 SUB SWAP1 RETURN JUMPDEST PUSH2 0x10F PUSH2 0x352 JUMP JUMPDEST PUSH1 0x40 MLOAD PUSH2 0x11C SWAP2 SWAP1 PUSH2 0xDBE JUMP JUMPDEST PUSH1 0x40 MLOAD DUP1 SWAP2 SUB SWAP1 RETURN JUMPDEST PUSH2 0x13F PUSH1 0x4 DUP1 CALLDATASIZE SUB DUP2 ADD SWAP1 PUSH2 0x13A SWAP2 SWAP1 PUSH2 0xDD9 JUMP JUMPDEST PUSH2 0x35C JUMP JUMPDEST PUSH1 0x40 MLOAD PUSH2 0x14C SWAP2 SWAP1 PUSH2 0xD94 JUMP JUMPDEST PUSH1 0x40 MLOAD DUP1 SWAP2 SUB SWAP1 RETURN JUMPDEST PUSH2 0x16F PUSH1 0x4 DUP1 CALLDATASIZE SUB DUP2 ADD SWAP1 PUSH2 0x16A SWAP2 SWAP1 PUSH2 0xF61 JUMP JUMPDEST PUSH2 0x38B JUMP JUMPDEST STOP JUMPDEST PUSH2 0x179 PUSH2 0x417 JUMP JUMPDEST PUSH1 0x40 MLOAD PUSH2 0x186 SWAP2 SWAP1 PUSH2 0x1008 JUMP JUMPDEST PUSH1 0x40 MLOAD DUP1 SWAP2 SUB SWAP1 RETURN JUMPDEST PUSH2 0x1A9 PUSH1 0x4 DUP1 CALLDATASIZE SUB DUP2 ADD SWAP1 PUSH2 0x1A4 SWAP2 SWAP1 PUSH2 0xD39 JUMP JUMPDEST PUSH2 0x420 JUMP JUMPDEST PUSH1 0x40 MLOAD PUSH2 0x1B6 SWAP2 SWAP1 PUSH2 0xD94 JUMP JUMPDEST PUSH1 0x40 MLOAD DUP1 SWAP2 SUB SWAP1 RETURN JUMPDEST PUSH2 0x1D9 PUSH1 0x4 DUP1 CALLDATASIZE SUB DUP2 ADD SWAP1 PUSH2 0x1D4 SWAP2 SWAP1 PUSH2 0x1023 JUMP JUMPDEST PUSH2 0x457 JUMP JUMPDEST PUSH1 0x40 MLOAD PUSH2 0x1E6 SWAP2 SWAP1 PUSH2 0xDBE JUMP JUMPDEST PUSH1 0x40 MLOAD DUP1 SWAP2 SUB SWAP1 RETURN JUMPDEST PUSH2 0x1F7 PUSH2 0x49F JUMP JUMPDEST PUSH1 0x40 MLOAD PUSH2 0x204 SWAP2 SWAP1 PUSH2 0xC6F JUMP JUMPDEST PUSH1 0x40 MLOAD DUP1 SWAP2 SUB SWAP1 RETURN JUMPDEST PUSH2 0x227 PUSH1 0x4 DUP1 CALLDATASIZE SUB DUP2 ADD SWAP1 PUSH2 0x222 SWAP2 SWAP1 PUSH2 0xD39 JUMP JUMPDEST PUSH2 0x531 JUMP JUMPDEST PUSH1 0x40 MLOAD PUSH2 0x234 SWAP2 SWAP1 PUSH2 0xD94 JUMP JUMPDEST PUSH1 0x40 MLOAD DUP1 SWAP2 SUB SWAP1 RETURN JUMPDEST PUSH2 0x257 PUSH1 0x4 DUP1 CALLDATASIZE SUB DUP2 ADD SWAP1 PUSH2 0x252 SWAP2 SWAP1 PUSH2 0xD39 JUMP JUMPDEST PUSH2 0x5A8 JUMP JUMPDEST PUSH1 0x40 MLOAD PUSH2 0x264 SWAP2 SWAP1 PUSH2 0xD94 JUMP JUMPDEST PUSH1 0x40 MLOAD DUP1 SWAP2 SUB SWAP1 RETURN JUMPDEST PUSH2 0x287 PUSH1 0x4 DUP1 CALLDATASIZE SUB DUP2 ADD SWAP1 PUSH2 0x282 SWAP2 SWAP1 PUSH2 0x1050 JUMP JUMPDEST PUSH2 0x5CB JUMP JUMPDEST PUSH1 0x40 MLOAD PUSH2 0x294 SWAP2 SWAP1 PUSH2 0xDBE JUMP JUMPDEST PUSH1 0x40 MLOAD DUP1 SWAP2 SUB SWAP1 RETURN JUMPDEST PUSH1 0x60 PUSH1 0x3 DUP1 SLOAD PUSH2 0x2AC SWAP1 PUSH2 0x10BF JUMP JUMPDEST DUP1 PUSH1 0x1F ADD PUSH1 0x20 DUP1 SWAP2 DIV MUL PUSH1 0x20 ADD PUSH1 0x40 MLOAD SWAP1 DUP2 ADD PUSH1 0x40 MSTORE DUP1 SWAP3 SWAP2 SWAP1 DUP2 DUP2 MSTORE PUSH1 0x20 ADD DUP3 DUP1 SLOAD PUSH2 0x2D8 SWAP1 PUSH2 0x10BF JUMP JUMPDEST DUP1 ISZERO PUSH2 0x325 JUMPI DUP1 PUSH1 0x1F LT PUSH2 0x2FA JUMPI PUSH2 0x100 DUP1 DUP4 SLOAD DIV MUL DUP4 MSTORE SWAP2 PUSH1 0x20 ADD SWAP2 PUSH2 0x325 JUMP JUMPDEST DUP3 ADD SWAP2 SWAP1 PUSH1 0x0 MSTORE PUSH1 0x20 PUSH1 0x0 KECCAK256 SWAP1 JUMPDEST DUP2 SLOAD DUP2 MSTORE SWAP1 PUSH1 0x1 ADD SWAP1 PUSH1 0x20 ADD DUP1 DUP4 GT PUSH2 0x308 JUMPI DUP3 SWAP1 SUB PUSH1 0x1F AND DUP3 ADD SWAP2 JUMPDEST POP POP POP POP POP SWAP1 POP SWAP1 JUMP JUMPDEST PUSH1 0x0 DUP1 PUSH2 0x33A PUSH2 0x652 JUMP JUMPDEST SWAP1 POP PUSH2 0x347 DUP2 DUP6 DUP6 PUSH2 0x65A JUMP JUMPDEST PUSH1 0x1 SWAP2 POP POP SWAP3 SWAP2 POP POP JUMP JUMPDEST PUSH1 0x0 PUSH1 0x2 SLOAD SWAP1 POP SWAP1 JUMP JUMPDEST PUSH1 0x0 DUP1 PUSH2 0x367 PUSH2 0x652 JUMP JUMPDEST SWAP1 POP PUSH2 0x374 DUP6 DUP3 DUP6 PUSH2 0x825 JUMP JUMPDEST PUSH2 0x37F DUP6 DUP6 DUP6 PUSH2 0x8B1 JUMP JUMPDEST PUSH1 0x1 SWAP2 POP POP SWAP4 SWAP3 POP POP POP JUMP JUMPDEST DUP3 PUSH1 0x3 SWAP1 DUP1 MLOAD SWAP1 PUSH1 0x20 ADD SWAP1 PUSH2 0x3A1 SWAP3 SWAP2 SWAP1 PUSH2 0xB33 JUMP JUMPDEST POP DUP2 PUSH1 0x4 SWAP1 DUP1 MLOAD SWAP1 PUSH1 0x20 ADD SWAP1 PUSH2 0x3B8 SWAP3 SWAP2 SWAP1 PUSH2 0xB33 JUMP JUMPDEST POP DUP1 PUSH1 0x2 DUP2 SWAP1 SSTORE POP PUSH1 0x0 PUSH2 0x3CA PUSH2 0x652 JUMP JUMPDEST SWAP1 POP PUSH1 0x2 SLOAD PUSH1 0x0 DUP1 DUP4 PUSH20 0xFFFFFFFFFFFFFFFFFFFFFFFFFFFFFFFFFFFFFFFF AND PUSH20 0xFFFFFFFFFFFFFFFFFFFFFFFFFFFFFFFFFFFFFFFF AND DUP2 MSTORE PUSH1 0x20 ADD SWAP1 DUP2 MSTORE PUSH1 0x20 ADD PUSH1 0x0 KECCAK256 DUP2 SWAP1 SSTORE POP POP POP POP POP JUMP JUMPDEST PUSH1 0x0 PUSH1 0x12 SWAP1 POP SWAP1 JUMP JUMPDEST PUSH1 0x0 DUP1 PUSH2 0x42B PUSH2 0x652 JUMP JUMPDEST SWAP1 POP PUSH2 0x44C DUP2 DUP6 DUP6 PUSH2 0x43D DUP6 DUP10 PUSH2 0x5CB JUMP JUMPDEST PUSH2 0x447 SWAP2 SWAP1 PUSH2 0x1120 JUMP JUMPDEST PUSH2 0x65A JUMP JUMPDEST PUSH1 0x1 SWAP2 POP POP SWAP3 SWAP2 POP POP JUMP JUMPDEST PUSH1 0x0 DUP1 PUSH1 0x0 DUP4 PUSH20 0xFFFFFFFFFFFFFFFFFFFFFFFFFFFFFFFFFFFFFFFF AND PUSH20 0xFFFFFFFFFFFFFFFFFFFFFFFFFFFFFFFFFFFFFFFF AND DUP2 MSTORE PUSH1 0x20 ADD SWAP1 DUP2 MSTORE PUSH1 0x20 ADD PUSH1 0x0 KECCAK256 SLOAD SWAP1 POP SWAP2 SWAP1 POP JUMP JUMPDEST PUSH1 0x60 PUSH1 0x4 DUP1 SLOAD PUSH2 0x4AE SWAP1 PUSH2 0x10BF JUMP JUMPDEST DUP1 PUSH1 0x1F ADD PUSH1 0x20 DUP1 SWAP2 DIV MUL PUSH1 0x20 ADD PUSH1 0x40 MLOAD SWAP1 DUP2 ADD PUSH1 0x40 MSTORE DUP1 SWAP3 SWAP2 SWAP1 DUP2 DUP2 MSTORE PUSH1 0x20 ADD DUP3 DUP1 SLOAD PUSH2 0x4DA SWAP1 PUSH2 0x10BF JUMP JUMPDEST DUP1 ISZERO PUSH2 0x527 JUMPI DUP1 PUSH1 0x1F LT PUSH2 0x4FC JUMPI PUSH2 0x100 DUP1 DUP4 SLOAD DIV MUL DUP4 MSTORE SWAP2 PUSH1 0x20 ADD SWAP2 PUSH2 0x527 JUMP JUMPDEST DUP3 ADD SWAP2 SWAP1 PUSH1 0x0 MSTORE PUSH1 0x20 PUSH1 0x0 KECCAK256 SWAP1 JUMPDEST DUP2 SLOAD DUP2 MSTORE SWAP1 PUSH1 0x1 ADD SWAP1 PUSH1 0x20 ADD DUP1 DUP4 GT PUSH2 0x50A JUMPI DUP3 SWAP1 SUB PUSH1 0x1F AND DUP3 ADD SWAP2 JUMPDEST POP POP POP POP POP SWAP1 POP SWAP1 JUMP JUMPDEST PUSH1 0x0 DUP1 PUSH2 0x53C PUSH2 0x652 JUMP JUMPDEST SWAP1 POP PUSH1 0x0 PUSH2 0x54A DUP3 DUP7 PUSH2 0x5CB JUMP JUMPDEST SWAP1 POP DUP4 DUP2 LT ISZERO PUSH2 0x58F JUMPI PUSH1 0x40 MLOAD PUSH32 0x8C379A000000000000000000000000000000000000000000000000000000000 DUP2 MSTORE PUSH1 0x4 ADD PUSH2 0x586 SWAP1 PUSH2 0x11E8 JUMP JUMPDEST PUSH1 0x40 MLOAD DUP1 SWAP2 SUB SWAP1 REVERT JUMPDEST PUSH2 0x59C DUP3 DUP7 DUP7 DUP5 SUB PUSH2 0x65A JUMP JUMPDEST PUSH1 0x1 SWAP3 POP POP POP SWAP3 SWAP2 POP POP JUMP JUMPDEST PUSH1 0x0 DUP1 PUSH2 0x5B3 PUSH2 0x652 JUMP JUMPDEST SWAP1 POP PUSH2 0x5C0 DUP2 DUP6 DUP6 PUSH2 0x8B1 JUMP JUMPDEST PUSH1 0x1 SWAP2 POP POP SWAP3 SWAP2 POP POP JUMP JUMPDEST PUSH1 0x0 PUSH1 0x1 PUSH1 0x0 DUP5 PUSH20 0xFFFFFFFFFFFFFFFFFFFFFFFFFFFFFFFFFFFFFFFF AND PUSH20 0xFFFFFFFFFFFFFFFFFFFFFFFFFFFFFFFFFFFFFFFF AND DUP2 MSTORE PUSH1 0x20 ADD SWAP1 DUP2 MSTORE PUSH1 0x20 ADD PUSH1 0x0 KECCAK256 PUSH1 0x0 DUP4 PUSH20 0xFFFFFFFFFFFFFFFFFFFFFFFFFFFFFFFFFFFFFFFF AND PUSH20 0xFFFFFFFFFFFFFFFFFFFFFFFFFFFFFFFFFFFFFFFF AND DUP2 MSTORE PUSH1 0x20 ADD SWAP1 DUP2 MSTORE PUSH1 0x20 ADD PUSH1 0x0 KECCAK256 SLOAD SWAP1 POP SWAP3 SWAP2 POP POP JUMP JUMPDEST PUSH1 0x0 CALLER SWAP1 POP SWAP1 JUMP JUMPDEST PUSH1 0x0 PUSH20 0xFFFFFFFFFFFFFFFFFFFFFFFFFFFFFFFFFFFFFFFF AND DUP4 PUSH20 0xFFFFFFFFFFFFFFFFFFFFFFFFFFFFFFFFFFFFFFFF AND EQ ISZERO PUSH2 0x6CA JUMPI PUSH1 0x40 MLOAD PUSH32 0x8C379A000000000000000000000000000000000000000000000000000000000 DUP2 MSTORE PUSH1 0x4 ADD PUSH2 0x6C1 SWAP1 PUSH2 0x127A JUMP JUMPDEST PUSH1 0x40 MLOAD DUP1 SWAP2 SUB SWAP1 REVERT JUMPDEST PUSH1 0x0 PUSH20 0xFFFFFFFFFFFFFFFFFFFFFFFFFFFFFFFFFFFFFFFF AND DUP3 PUSH20 0xFFFFFFFFFFFFFFFFFFFFFFFFFFFFFFFFFFFFFFFF AND EQ ISZERO PUSH2 0x73A JUMPI PUSH1 0x40 MLOAD PUSH32 0x8C379A000000000000000000000000000000000000000000000000000000000 DUP2 MSTORE PUSH1 0x4 ADD PUSH2 0x731 SWAP1 PUSH2 0x130C JUMP JUMPDEST PUSH1 0x40 MLOAD DUP1 SWAP2 SUB SWAP1 REVERT JUMPDEST DUP1 PUSH1 0x1 PUSH1 0x0 DUP6 PUSH20 0xFFFFFFFFFFFFFFFFFFFFFFFFFFFFFFFFFFFFFFFF AND PUSH20 0xFFFFFFFFFFFFFFFFFFFFFFFFFFFFFFFFFFFFFFFF AND DUP2 MSTORE PUSH1 0x20 ADD SWAP1 DUP2 MSTORE PUSH1 0x20 ADD PUSH1 0x0 KECCAK256 PUSH1 0x0 DUP5 PUSH20 0xFFFFFFFFFFFFFFFFFFFFFFFFFFFFFFFFFFFFFFFF AND PUSH20 0xFFFFFFFFFFFFFFFFFFFFFFFFFFFFFFFFFFFFFFFF AND DUP2 MSTORE PUSH1 0x20 ADD SWAP1 DUP2 MSTORE PUSH1 0x20 ADD PUSH1 0x0 KECCAK256 DUP2 SWAP1 SSTORE POP DUP2 PUSH20 0xFFFFFFFFFFFFFFFFFFFFFFFFFFFFFFFFFFFFFFFF AND DUP4 PUSH20 0xFFFFFFFFFFFFFFFFFFFFFFFFFFFFFFFFFFFFFFFF AND PUSH32 0x8C5BE1E5EBEC7D5BD14F71427D1E84F3DD0314C0F7B2291E5B200AC8C7C3B925 DUP4 PUSH1 0x40 MLOAD PUSH2 0x818 SWAP2 SWAP1 PUSH2 0xDBE JUMP JUMPDEST PUSH1 0x40 MLOAD DUP1 SWAP2 SUB SWAP1 LOG3 POP POP POP JUMP JUMPDEST PUSH1 0x0 PUSH2 0x831 DUP5 DUP5 PUSH2 0x5CB JUMP JUMPDEST SWAP1 POP PUSH32 0xFFFFFFFFFFFFFFFFFFFFFFFFFFFFFFFFFFFFFFFFFFFFFFFFFFFFFFFFFFFFFFFF DUP2 EQ PUSH2 0x8AB JUMPI DUP2 DUP2 LT ISZERO PUSH2 0x89D JUMPI PUSH1 0x40 MLOAD PUSH32 0x8C379A000000000000000000000000000000000000000000000000000000000 DUP2 MSTORE PUSH1 0x4 ADD PUSH2 0x894 SWAP1 PUSH2 0x1378 JUMP JUMPDEST PUSH1 0x40 MLOAD DUP1 SWAP2 SUB SWAP1 REVERT JUMPDEST PUSH2 0x8AA DUP5 DUP5 DUP5 DUP5 SUB PUSH2 0x65A JUMP JUMPDEST JUMPDEST POP POP POP POP JUMP JUMPDEST PUSH1 0x0 PUSH20 0xFFFFFFFFFFFFFFFFFFFFFFFFFFFFFFFFFFFFFFFF AND DUP4 PUSH20 0xFFFFFFFFFFFFFFFFFFFFFFFFFFFFFFFFFFFFFFFF AND EQ ISZERO PUSH2 0x921 JUMPI PUSH1 0x40 MLOAD PUSH32 0x8C379A000000000000000000000000000000000000000000000000000000000 DUP2 MSTORE PUSH1 0x4 ADD PUSH2 0x918 SWAP1 PUSH2 0x140A JUMP JUMPDEST PUSH1 0x40 MLOAD DUP1 SWAP2 SUB SWAP1 REVERT JUMPDEST PUSH1 0x0 PUSH20 0xFFFFFFFFFFFFFFFFFFFFFFFFFFFFFFFFFFFFFFFF AND DUP3 PUSH20 0xFFFFFFFFFFFFFFFFFFFFFFFFFFFFFFFFFFFFFFFF AND EQ ISZERO PUSH2 0x991 JUMPI PUSH1 0x40 MLOAD PUSH32 0x8C379A000000000000000000000000000000000000000000000000000000000 DUP2 MSTORE PUSH1 0x4 ADD PUSH2 0x988 SWAP1 PUSH2 0x149C JUMP JUMPDEST PUSH1 0x40 MLOAD DUP1 SWAP2 SUB SWAP1 REVERT JUMPDEST PUSH2 0x99C DUP4 DUP4 DUP4 PUSH2 0xB29 JUMP JUMPDEST PUSH1 0x0 DUP1 PUSH1 0x0 DUP6 PUSH20 0xFFFFFFFFFFFFFFFFFFFFFFFFFFFFFFFFFFFFFFFF AND PUSH20 0xFFFFFFFFFFFFFFFFFFFFFFFFFFFFFFFFFFFFFFFF AND DUP2 MSTORE PUSH1 0x20 ADD SWAP1 DUP2 MSTORE PUSH1 0x20 ADD PUSH1 0x0 KECCAK256 SLOAD SWAP1 POP DUP2 DUP2 LT ISZERO PUSH2 0xA22 JUMPI PUSH1 0x40 MLOAD PUSH32 0x8C379A000000000000000000000000000000000000000000000000000000000 DUP2 MSTORE PUSH1 0x4 ADD PUSH2 0xA19 SWAP1 PUSH2 0x152E JUMP JUMPDEST PUSH1 0x40 MLOAD DUP1 SWAP2 SUB SWAP1 REVERT JUMPDEST DUP2 DUP2 SUB PUSH1 0x0 DUP1 DUP7 PUSH20 0xFFFFFFFFFFFFFFFFFFFFFFFFFFFFFFFFFFFFFFFF AND PUSH20 0xFFFFFFFFFFFFFFFFFFFFFFFFFFFFFFFFFFFFFFFF AND DUP2 MSTORE PUSH1 0x20 ADD SWAP1 DUP2 MSTORE PUSH1 0x20 ADD PUSH1 0x0 KECCAK256 DUP2 SWAP1 SSTORE POP DUP2 PUSH1 0x0 DUP1 DUP6 PUSH20 0xFFFFFFFFFFFFFFFFFFFFFFFFFFFFFFFFFFFFFFFF AND PUSH20 0xFFFFFFFFFFFFFFFFFFFFFFFFFFFFFFFFFFFFFFFF AND DUP2 MSTORE PUSH1 0x20 ADD SWAP1 DUP2 MSTORE PUSH1 0x20 ADD PUSH1 0x0 KECCAK256 PUSH1 0x0 DUP3 DUP3 SLOAD ADD SWAP3 POP POP DUP2 SWAP1 SSTORE POP DUP3 PUSH20 0xFFFFFFFFFFFFFFFFFFFFFFFFFFFFFFFFFFFFFFFF AND DUP5 PUSH20 0xFFFFFFFFFFFFFFFFFFFFFFFFFFFFFFFFFFFFFFFF AND PUSH32 0xDDF252AD1BE2C89B69C2B068FC378DAA952BA7F163C4A11628F55A4DF523B3EF DUP5 PUSH1 0x40 MLOAD PUSH2 0xB10 SWAP2 SWAP1 PUSH2 0xDBE JUMP JUMPDEST PUSH1 0x40 MLOAD DUP1 SWAP2 SUB SWAP1 LOG3 PUSH2 0xB23 DUP5 DUP5 DUP5 PUSH2 0xB2E JUMP JUMPDEST POP POP POP POP JUMP JUMPDEST POP POP POP JUMP JUMPDEST POP POP POP JUMP JUMPDEST DUP3 DUP1 SLOAD PUSH2 0xB3F SWAP1 PUSH2 0x10BF JUMP JUMPDEST SWAP1 PUSH1 0x0 MSTORE PUSH1 0x20 PUSH1 0x0 KECCAK256 SWAP1 PUSH1 0x1F ADD PUSH1 0x20 SWAP1 DIV DUP2 ADD SWAP3 DUP3 PUSH2 0xB61 JUMPI PUSH1 0x0 DUP6 SSTORE PUSH2 0xBA8 JUMP JUMPDEST DUP3 PUSH1 0x1F LT PUSH2 0xB7A JUMPI DUP1 MLOAD PUSH1 0xFF NOT AND DUP4 DUP1 ADD OR DUP6 SSTORE PUSH2 0xBA8 JUMP JUMPDEST DUP3 DUP1 ADD PUSH1 0x1 ADD DUP6 SSTORE DUP3 ISZERO PUSH2 0xBA8 JUMPI SWAP2 DUP3 ADD JUMPDEST DUP3 DUP2 GT ISZERO PUSH2 0xBA7 JUMPI DUP3 MLOAD DUP3 SSTORE SWAP2 PUSH1 0x20 ADD SWAP2 SWAP1 PUSH1 0x1 ADD SWAP1 PUSH2 0xB8C JUMP JUMPDEST JUMPDEST POP SWAP1 POP PUSH2 0xBB5 SWAP2 SWAP1 PUSH2 0xBB9 JUMP JUMPDEST POP SWAP1 JUMP JUMPDEST JUMPDEST DUP1 DUP3 GT ISZERO PUSH2 0xBD2 JUMPI PUSH1 0x0 DUP2 PUSH1 0x0 SWAP1 SSTORE POP PUSH1 0x1 ADD PUSH2 0xBBA JUMP JUMPDEST POP SWAP1 JUMP JUMPDEST PUSH1 0x0 DUP2 MLOAD SWAP1 POP SWAP2 SWAP1 POP JUMP JUMPDEST PUSH1 0x0 DUP3 DUP3 MSTORE PUSH1 0x20 DUP3 ADD SWAP1 POP SWAP3 SWAP2 POP POP JUMP JUMPDEST PUSH1 0x0 JUMPDEST DUP4 DUP2 LT ISZERO PUSH2 0xC10 JUMPI DUP1 DUP3 ADD MLOAD DUP2 DUP5 ADD MSTORE PUSH1 0x20 DUP2 ADD SWAP1 POP PUSH2 0xBF5 JUMP JUMPDEST DUP4 DUP2 GT ISZERO PUSH2 0xC1F JUMPI PUSH1 0x0 DUP5 DUP5 ADD MSTORE JUMPDEST POP POP POP POP JUMP JUMPDEST PUSH1 0x0 PUSH1 0x1F NOT PUSH1 0x1F DUP4 ADD AND SWAP1 POP SWAP2 SWAP1 POP JUMP JUMPDEST PUSH1 0x0 PUSH2 0xC41 DUP3 PUSH2 0xBD6 JUMP JUMPDEST PUSH2 0xC4B DUP2 DUP6 PUSH2 0xBE1 JUMP JUMPDEST SWAP4 POP PUSH2 0xC5B DUP2 DUP6 PUSH1 0x20 DUP7 ADD PUSH2 0xBF2 JUMP JUMPDEST PUSH2 0xC64 DUP2 PUSH2 0xC25 JUMP JUMPDEST DUP5 ADD SWAP2 POP POP SWAP3 SWAP2 POP POP JUMP JUMPDEST PUSH1 0x0 PUSH1 0x20 DUP3 ADD SWAP1 POP DUP2 DUP2 SUB PUSH1 0x0 DUP4 ADD MSTORE PUSH2 0xC89 DUP2 DUP5 PUSH2 0xC36 JUMP JUMPDEST SWAP1 POP SWAP3 SWAP2 POP POP JUMP JUMPDEST PUSH1 0x0 PUSH1 0x40 MLOAD SWAP1 POP SWAP1 JUMP JUMPDEST PUSH1 0x0 DUP1 REVERT JUMPDEST PUSH1 0x0 DUP1 REVERT JUMPDEST PUSH1 0x0 PUSH20 0xFFFFFFFFFFFFFFFFFFFFFFFFFFFFFFFFFFFFFFFF DUP3 AND SWAP1 POP SWAP2 SWAP1 POP JUMP JUMPDEST PUSH1 0x0 PUSH2 0xCD0 DUP3 PUSH2 0xCA5 JUMP JUMPDEST SWAP1 POP SWAP2 SWAP1 POP JUMP JUMPDEST PUSH2 0xCE0 DUP2 PUSH2 0xCC5 JUMP JUMPDEST DUP2 EQ PUSH2 0xCEB JUMPI PUSH1 0x0 DUP1 REVERT JUMPDEST POP JUMP JUMPDEST PUSH1 0x0 DUP2 CALLDATALOAD SWAP1 POP PUSH2 0xCFD DUP2 PUSH2 0xCD7 JUMP JUMPDEST SWAP3 SWAP2 POP POP JUMP JUMPDEST PUSH1 0x0 DUP2 SWAP1 POP SWAP2 SWAP1 POP JUMP JUMPDEST PUSH2 0xD16 DUP2 PUSH2 0xD03 JUMP JUMPDEST DUP2 EQ PUSH2 0xD21 JUMPI PUSH1 0x0 DUP1 REVERT JUMPDEST POP JUMP JUMPDEST PUSH1 0x0 DUP2 CALLDATALOAD SWAP1 POP PUSH2 0xD33 DUP2 PUSH2 0xD0D JUMP JUMPDEST SWAP3 SWAP2 POP POP JUMP JUMPDEST PUSH1 0x0 DUP1 PUSH1 0x40 DUP4 DUP6 SUB SLT ISZERO PUSH2 0xD50 JUMPI PUSH2 0xD4F PUSH2 0xC9B JUMP JUMPDEST JUMPDEST PUSH1 0x0 PUSH2 0xD5E DUP6 DUP3 DUP7 ADD PUSH2 0xCEE JUMP JUMPDEST SWAP3 POP POP PUSH1 0x20 PUSH2 0xD6F DUP6 DUP3 DUP7 ADD PUSH2 0xD24 JUMP JUMPDEST SWAP2 POP POP SWAP3 POP SWAP3 SWAP1 POP JUMP JUMPDEST PUSH1 0x0 DUP2 ISZERO ISZERO SWAP1 POP SWAP2 SWAP1 POP JUMP JUMPDEST PUSH2 0xD8E DUP2 PUSH2 0xD79 JUMP JUMPDEST DUP3 MSTORE POP POP JUMP JUMPDEST PUSH1 0x0 PUSH1 0x20 DUP3 ADD SWAP1 POP PUSH2 0xDA9 PUSH1 0x0 DUP4 ADD DUP5 PUSH2 0xD85 JUMP JUMPDEST SWAP3 SWAP2 POP POP JUMP JUMPDEST PUSH2 0xDB8 DUP2 PUSH2 0xD03 JUMP JUMPDEST DUP3 MSTORE POP POP JUMP JUMPDEST PUSH1 0x0 PUSH1 0x20 DUP3 ADD SWAP1 POP PUSH2 0xDD3 PUSH1 0x0 DUP4 ADD DUP5 PUSH2 0xDAF JUMP JUMPDEST SWAP3 SWAP2 POP POP JUMP JUMPDEST PUSH1 0x0 DUP1 PUSH1 0x0 PUSH1 0x60 DUP5 DUP7 SUB SLT ISZERO PUSH2 0xDF2 JUMPI PUSH2 0xDF1 PUSH2 0xC9B JUMP JUMPDEST JUMPDEST PUSH1 0x0 PUSH2 0xE00 DUP7 DUP3 DUP8 ADD PUSH2 0xCEE JUMP JUMPDEST SWAP4 POP POP PUSH1 0x20 PUSH2 0xE11 DUP7 DUP3 DUP8 ADD PUSH2 0xCEE JUMP JUMPDEST SWAP3 POP POP PUSH1 0x40 PUSH2 0xE22 DUP7 DUP3 DUP8 ADD PUSH2 0xD24 JUMP JUMPDEST SWAP2 POP POP SWAP3 POP SWAP3 POP SWAP3 JUMP JUMPDEST PUSH1 0x0 DUP1 REVERT JUMPDEST PUSH1 0x0 DUP1 REVERT JUMPDEST PUSH32 0x4E487B7100000000000000000000000000000000000000000000000000000000 PUSH1 0x0 MSTORE PUSH1 0x41 PUSH1 0x4 MSTORE PUSH1 0x24 PUSH1 0x0 REVERT JUMPDEST PUSH2 0xE6E DUP3 PUSH2 0xC25 JUMP JUMPDEST DUP2 ADD DUP2 DUP2 LT PUSH8 0xFFFFFFFFFFFFFFFF DUP3 GT OR ISZERO PUSH2 0xE8D JUMPI PUSH2 0xE8C PUSH2 0xE36 JUMP JUMPDEST JUMPDEST DUP1 PUSH1 0x40 MSTORE POP POP POP JUMP JUMPDEST PUSH1 0x0 PUSH2 0xEA0 PUSH2 0xC91 JUMP JUMPDEST SWAP1 POP PUSH2 0xEAC DUP3 DUP3 PUSH2 0xE65 JUMP JUMPDEST SWAP2 SWAP1 POP JUMP JUMPDEST PUSH1 0x0 PUSH8 0xFFFFFFFFFFFFFFFF DUP3 GT ISZERO PUSH2 0xECC JUMPI PUSH2 0xECB PUSH2 0xE36 JUMP JUMPDEST JUMPDEST PUSH2 0xED5 DUP3 PUSH2 0xC25 JUMP JUMPDEST SWAP1 POP PUSH1 0x20 DUP2 ADD SWAP1 POP SWAP2 SWAP1 POP JUMP JUMPDEST DUP3 DUP2 DUP4 CALLDATACOPY PUSH1 0x0 DUP4 DUP4 ADD MSTORE POP POP POP JUMP JUMPDEST PUSH1 0x0 PUSH2 0xF04 PUSH2 0xEFF DUP5 PUSH2 0xEB1 JUMP JUMPDEST PUSH2 0xE96 JUMP JUMPDEST SWAP1 POP DUP3 DUP2 MSTORE PUSH1 0x20 DUP2 ADD DUP5 DUP5 DUP5 ADD GT ISZERO PUSH2 0xF20 JUMPI PUSH2 0xF1F PUSH2 0xE31 JUMP JUMPDEST JUMPDEST PUSH2 0xF2B DUP5 DUP3 DUP6 PUSH2 0xEE2 JUMP JUMPDEST POP SWAP4 SWAP3 POP POP POP JUMP JUMPDEST PUSH1 0x0 DUP3 PUSH1 0x1F DUP4 ADD SLT PUSH2 0xF48 JUMPI PUSH2 0xF47 PUSH2 0xE2C JUMP JUMPDEST JUMPDEST DUP2 CALLDATALOAD PUSH2 0xF58 DUP5 DUP3 PUSH1 0x20 DUP7 ADD PUSH2 0xEF1 JUMP JUMPDEST SWAP2 POP POP SWAP3 SWAP2 POP POP JUMP JUMPDEST PUSH1 0x0 DUP1 PUSH1 0x0 PUSH1 0x60 DUP5 DUP7 SUB SLT ISZERO PUSH2 0xF7A JUMPI PUSH2 0xF79 PUSH2 0xC9B JUMP JUMPDEST JUMPDEST PUSH1 0x0 DUP5 ADD CALLDATALOAD PUSH8 0xFFFFFFFFFFFFFFFF DUP2 GT ISZERO PUSH2 0xF98 JUMPI PUSH2 0xF97 PUSH2 0xCA0 JUMP JUMPDEST JUMPDEST PUSH2 0xFA4 DUP7 DUP3 DUP8 ADD PUSH2 0xF33 JUMP JUMPDEST SWAP4 POP POP PUSH1 0x20 DUP5 ADD CALLDATALOAD PUSH8 0xFFFFFFFFFFFFFFFF DUP2 GT ISZERO PUSH2 0xFC5 JUMPI PUSH2 0xFC4 PUSH2 0xCA0 JUMP JUMPDEST JUMPDEST PUSH2 0xFD1 DUP7 DUP3 DUP8 ADD PUSH2 0xF33 JUMP JUMPDEST SWAP3 POP POP PUSH1 0x40 PUSH2 0xFE2 DUP7 DUP3 DUP8 ADD PUSH2 0xD24 JUMP JUMPDEST SWAP2 POP POP SWAP3 POP SWAP3 POP SWAP3 JUMP JUMPDEST PUSH1 0x0 PUSH1 0xFF DUP3 AND SWAP1 POP SWAP2 SWAP1 POP JUMP JUMPDEST PUSH2 0x1002 DUP2 PUSH2 0xFEC JUMP JUMPDEST DUP3 MSTORE POP POP JUMP JUMPDEST PUSH1 0x0 PUSH1 0x20 DUP3 ADD SWAP1 POP PUSH2 0x101D PUSH1 0x0 DUP4 ADD DUP5 PUSH2 0xFF9 JUMP JUMPDEST SWAP3 SWAP2 POP POP JUMP JUMPDEST PUSH1 0x0 PUSH1 0x20 DUP3 DUP5 SUB SLT ISZERO PUSH2 0x1039 JUMPI PUSH2 0x1038 PUSH2 0xC9B JUMP JUMPDEST JUMPDEST PUSH1 0x0 PUSH2 0x1047 DUP5 DUP3 DUP6 ADD PUSH2 0xCEE JUMP JUMPDEST SWAP2 POP POP SWAP3 SWAP2 POP POP JUMP JUMPDEST PUSH1 0x0 DUP1 PUSH1 0x40 DUP4 DUP6 SUB SLT ISZERO PUSH2 0x1067 JUMPI PUSH2 0x1066 PUSH2 0xC9B JUMP JUMPDEST JUMPDEST PUSH1 0x0 PUSH2 0x1075 DUP6 DUP3 DUP7 ADD PUSH2 0xCEE JUMP JUMPDEST SWAP3 POP POP PUSH1 0x20 PUSH2 0x1086 DUP6 DUP3 DUP7 ADD PUSH2 0xCEE JUMP JUMPDEST SWAP2 POP POP SWAP3 POP SWAP3 SWAP1 POP JUMP JUMPDEST PUSH32 0x4E487B7100000000000000000000000000000000000000000000000000000000 PUSH1 0x0 MSTORE PUSH1 0x22 PUSH1 0x4 MSTORE PUSH1 0x24 PUSH1 0x0 REVERT JUMPDEST PUSH1 0x0 PUSH1 0x2 DUP3 DIV SWAP1 POP PUSH1 0x1 DUP3 AND DUP1 PUSH2 0x10D7 JUMPI PUSH1 0x7F DUP3 AND SWAP2 POP JUMPDEST PUSH1 0x20 DUP3 LT DUP2 EQ ISZERO PUSH2 0x10EB JUMPI PUSH2 0x10EA PUSH2 0x1090 JUMP JUMPDEST JUMPDEST POP SWAP2 SWAP1 POP JUMP JUMPDEST PUSH32 0x4E487B7100000000000000000000000000000000000000000000000000000000 PUSH1 0x0 MSTORE PUSH1 0x11 PUSH1 0x4 MSTORE PUSH1 0x24 PUSH1 0x0 REVERT JUMPDEST PUSH1 0x0 PUSH2 0x112B DUP3 PUSH2 0xD03 JUMP JUMPDEST SWAP2 POP PUSH2 0x1136 DUP4 PUSH2 0xD03 JUMP JUMPDEST SWAP3 POP DUP3 PUSH32 0xFFFFFFFFFFFFFFFFFFFFFFFFFFFFFFFFFFFFFFFFFFFFFFFFFFFFFFFFFFFFFFFF SUB DUP3 GT ISZERO PUSH2 0x116B JUMPI PUSH2 0x116A PUSH2 0x10F1 JUMP JUMPDEST JUMPDEST DUP3 DUP3 ADD SWAP1 POP SWAP3 SWAP2 POP POP JUMP JUMPDEST PUSH32 0x45524332303A2064656372656173656420616C6C6F77616E63652062656C6F77 PUSH1 0x0 DUP3 ADD MSTORE PUSH32 0x207A65726F000000000000000000000000000000000000000000000000000000 PUSH1 0x20 DUP3 ADD MSTORE POP JUMP JUMPDEST PUSH1 0x0 PUSH2 0x11D2 PUSH1 0x25 DUP4 PUSH2 0xBE1 JUMP JUMPDEST SWAP2 POP PUSH2 0x11DD DUP3 PUSH2 0x1176 JUMP JUMPDEST PUSH1 0x40 DUP3 ADD SWAP1 POP SWAP2 SWAP1 POP JUMP JUMPDEST PUSH1 0x0 PUSH1 0x20 DUP3 ADD SWAP1 POP DUP2 DUP2 SUB PUSH1 0x0 DUP4 ADD MSTORE PUSH2 0x1201 DUP2 PUSH2 0x11C5 JUMP JUMPDEST SWAP1 POP SWAP2 SWAP1 POP JUMP JUMPDEST PUSH32 0x45524332303A20617070726F76652066726F6D20746865207A65726F20616464 PUSH1 0x0 DUP3 ADD MSTORE PUSH32 0x7265737300000000000000000000000000000000000000000000000000000000 PUSH1 0x20 DUP3 ADD MSTORE POP JUMP JUMPDEST PUSH1 0x0 PUSH2 0x1264 PUSH1 0x24 DUP4 PUSH2 0xBE1 JUMP JUMPDEST SWAP2 POP PUSH2 0x126F DUP3 PUSH2 0x1208 JUMP JUMPDEST PUSH1 0x40 DUP3 ADD SWAP1 POP SWAP2 SWAP1 POP JUMP JUMPDEST PUSH1 0x0 PUSH1 0x20 DUP3 ADD SWAP1 POP DUP2 DUP2 SUB PUSH1 0x0 DUP4 ADD MSTORE PUSH2 0x1293 DUP2 PUSH2 0x1257 JUMP JUMPDEST SWAP1 POP SWAP2 SWAP1 POP JUMP JUMPDEST PUSH32 0x45524332303A20617070726F766520746F20746865207A65726F206164647265 PUSH1 0x0 DUP3 ADD MSTORE PUSH32 0x7373000000000000000000000000000000000000000000000000000000000000 PUSH1 0x20 DUP3 ADD MSTORE POP JUMP JUMPDEST PUSH1 0x0 PUSH2 0x12F6 PUSH1 0x22 DUP4 PUSH2 0xBE1 JUMP JUMPDEST SWAP2 POP PUSH2 0x1301 DUP3 PUSH2 0x129A JUMP JUMPDEST PUSH1 0x40 DUP3 ADD SWAP1 POP SWAP2 SWAP1 POP JUMP JUMPDEST PUSH1 0x0 PUSH1 0x20 DUP3 ADD SWAP1 POP DUP2 DUP2 SUB PUSH1 0x0 DUP4 ADD MSTORE PUSH2 0x1325 DUP2 PUSH2 0x12E9 JUMP JUMPDEST SWAP1 POP SWAP2 SWAP1 POP JUMP JUMPDEST PUSH32 0x45524332303A20696E73756666696369656E7420616C6C6F77616E6365000000 PUSH1 0x0 DUP3 ADD MSTORE POP JUMP JUMPDEST PUSH1 0x0 PUSH2 0x1362 PUSH1 0x1D DUP4 PUSH2 0xBE1 JUMP JUMPDEST SWAP2 POP PUSH2 0x136D DUP3 PUSH2 0x132C JUMP JUMPDEST PUSH1 0x20 DUP3 ADD SWAP1 POP SWAP2 SWAP1 POP JUMP JUMPDEST PUSH1 0x0 PUSH1 0x20 DUP3 ADD SWAP1 POP DUP2 DUP2 SUB PUSH1 0x0 DUP4 ADD MSTORE PUSH2 0x1391 DUP2 PUSH2 0x1355 JUMP JUMPDEST SWAP1 POP SWAP2 SWAP1 POP JUMP JUMPDEST PUSH32 0x45524332303A207472616E736665722066726F6D20746865207A65726F206164 PUSH1 0x0 DUP3 ADD MSTORE PUSH32 0x6472657373000000000000000000000000000000000000000000000000000000 PUSH1 0x20 DUP3 ADD MSTORE POP JUMP JUMPDEST PUSH1 0x0 PUSH2 0x13F4 PUSH1 0x25 DUP4 PUSH2 0xBE1 JUMP JUMPDEST SWAP2 POP PUSH2 0x13FF DUP3 PUSH2 0x1398 JUMP JUMPDEST PUSH1 0x40 DUP3 ADD SWAP1 POP SWAP2 SWAP1 POP JUMP JUMPDEST PUSH1 0x0 PUSH1 0x20 DUP3 ADD SWAP1 POP DUP2 DUP2 SUB PUSH1 0x0 DUP4 ADD MSTORE PUSH2 0x1423 DUP2 PUSH2 0x13E7 JUMP JUMPDEST SWAP1 POP SWAP2 SWAP1 POP JUMP JUMPDEST PUSH32 0x45524332303A207472616E7366657220746F20746865207A65726F2061646472 PUSH1 0x0 DUP3 ADD MSTORE PUSH32 0x6573730000000000000000000000000000000000000000000000000000000000 PUSH1 0x20 DUP3 ADD MSTORE POP JUMP JUMPDEST PUSH1 0x0 PUSH2 0x1486 PUSH1 0x23 DUP4 PUSH2 0xBE1 JUMP JUMPDEST SWAP2 POP PUSH2 0x1491 DUP3 PUSH2 0x142A JUMP JUMPDEST PUSH1 0x40 DUP3 ADD SWAP1 POP SWAP2 SWAP1 POP JUMP JUMPDEST PUSH1 0x0 PUSH1 0x20 DUP3 ADD SWAP1 POP DUP2 DUP2 SUB PUSH1 0x0 DUP4 ADD MSTORE PUSH2 0x14B5 DUP2 PUSH2 0x1479 JUMP JUMPDEST SWAP1 POP SWAP2 SWAP1 POP JUMP JUMPDEST PUSH32 0x45524332303A207472616E7366657220616D6F756E7420657863656564732062 PUSH1 0x0 DUP3 ADD MSTORE PUSH32 0x616C616E63650000000000000000000000000000000000000000000000000000 PUSH1 0x20 DUP3 ADD MSTORE POP JUMP JUMPDEST PUSH1 0x0 PUSH2 0x1518 PUSH1 0x26 DUP4 PUSH2 0xBE1 JUMP JUMPDEST SWAP2 POP PUSH2 0x1523 DUP3 PUSH2 0x14BC JUMP JUMPDEST PUSH1 0x40 DUP3 ADD SWAP1 POP SWAP2 SWAP1 POP JUMP JUMPDEST PUSH1 0x0 PUSH1 0x20 DUP3 ADD SWAP1 POP DUP2 DUP2 SUB PUSH1 0x0 DUP4 ADD MSTORE PUSH2 0x1547 DUP2 PUSH2 0x150B JUMP JUMPDEST SWAP1 POP SWAP2 SWAP1 POP JUMP INVALID LOG2 PUSH5 0x6970667358 0x22 SLT KECCAK256 0x4B SWAP12 SWAP16 MSTORE8 RETURNDATASIZE PUSH1 0xB0 0xBE 0xD9 0xCF 0x5E PUSH14 0x8929C14F434195D9D5AA000FA985 CREATE SAR 0xE5 PUSH24 0xCFB464736F6C634300080900330000000000000000000000 "
				},
				"gasEstimates": {
					"creation": {
						"codeDepositCost": "1101600",
						"executionCost": "infinite",
						"totalCost": "infinite"
					},
					"external": {
						"allowance(address,address)": "infinite",
						"approve(address,uint256)": "infinite",
						"balanceOf(address)": "2863",
						"decimals()": "454",
						"decreaseAllowance(address,uint256)": "infinite",
						"increaseAllowance(address,uint256)": "infinite",
						"init(string,string,uint256)": "infinite",
						"name()": "infinite",
						"symbol()": "infinite",
						"totalSupply()": "2482",
						"transfer(address,uint256)": "infinite",
						"transferFrom(address,address,uint256)": "infinite"
					},
					"internal": {
						"_afterTokenTransfer(address,address,uint256)": "15",
						"_approve(address,address,uint256)": "infinite",
						"_beforeTokenTransfer(address,address,uint256)": "15",
						"_burn(address,uint256)": "infinite",
						"_mint(address,uint256)": "infinite",
						"_spendAllowance(address,address,uint256)": "infinite",
						"_transfer(address,address,uint256)": "infinite"
					}
				},
				"methodIdentifiers": {
					"allowance(address,address)": "dd62ed3e",
					"approve(address,uint256)": "095ea7b3",
					"balanceOf(address)": "70a08231",
					"decimals()": "313ce567",
					"decreaseAllowance(address,uint256)": "a457c2d7",
					"increaseAllowance(address,uint256)": "39509351",
					"init(string,string,uint256)": "2eabc917",
					"name()": "06fdde03",
					"symbol()": "95d89b41",
					"totalSupply()": "18160ddd",
					"transfer(address,uint256)": "a9059cbb",
					"transferFrom(address,address,uint256)": "23b872dd"
				}
			},
			"storageLayout": {
				"storage": [
					{
						"astId": 15,
						"contract": ".deps/npm/@openzeppelin/contracts/token/ERC20/ERC20.sol:ERC20",
						"label": "_balances",
						"offset": 0,
						"slot": "0",
						"type": "t_mapping(t_address,t_uint256)"
					},
					{
						"astId": 21,
						"contract": ".deps/npm/@openzeppelin/contracts/token/ERC20/ERC20.sol:ERC20",
						"label": "_allowances",
						"offset": 0,
						"slot": "1",
						"type": "t_mapping(t_address,t_mapping(t_address,t_uint256))"
					},
					{
						"astId": 23,
						"contract": ".deps/npm/@openzeppelin/contracts/token/ERC20/ERC20.sol:ERC20",
						"label": "_totalSupply",
						"offset": 0,
						"slot": "2",
						"type": "t_uint256"
					},
					{
						"astId": 25,
						"contract": ".deps/npm/@openzeppelin/contracts/token/ERC20/ERC20.sol:ERC20",
						"label": "_name",
						"offset": 0,
						"slot": "3",
						"type": "t_string_storage"
					},
					{
						"astId": 27,
						"contract": ".deps/npm/@openzeppelin/contracts/token/ERC20/ERC20.sol:ERC20",
						"label": "_symbol",
						"offset": 0,
						"slot": "4",
						"type": "t_string_storage"
					}
				],
				"types": {
					"t_address": {
						"encoding": "inplace",
						"label": "address",
						"numberOfBytes": "20"
					},
					"t_mapping(t_address,t_mapping(t_address,t_uint256))": {
						"encoding": "mapping",
						"key": "t_address",
						"label": "mapping(address => mapping(address => uint256))",
						"numberOfBytes": "32",
						"value": "t_mapping(t_address,t_uint256)"
					},
					"t_mapping(t_address,t_uint256)": {
						"encoding": "mapping",
						"key": "t_address",
						"label": "mapping(address => uint256)",
						"numberOfBytes": "32",
						"value": "t_uint256"
					},
					"t_string_storage": {
						"encoding": "bytes",
						"label": "string",
						"numberOfBytes": "32"
					},
					"t_uint256": {
						"encoding": "inplace",
						"label": "uint256",
						"numberOfBytes": "32"
					}
				}
			},
			"userdoc": {
				"kind": "user",
				"methods": {},
				"version": 1
			}
		}
	}
}