{
	"contracts/CrowdFunding.sol": {
		"CrowdFundingStorage": {
			"abi": [
				{
					"inputs": [
						{
							"internalType": "uint256",
							"name": "",
							"type": "uint256"
						}
					],
					"name": "campaignsArray",
					"outputs": [
						{
							"internalType": "address payable",
							"name": "receiver",
							"type": "address"
						},
						{
							"internalType": "uint256",
							"name": "numFunders",
							"type": "uint256"
						},
						{
							"internalType": "uint256",
							"name": "fundingGoal",
							"type": "uint256"
						},
						{
							"internalType": "uint256",
							"name": "totalRaisedAmount",
							"type": "uint256"
						}
					],
					"stateMutability": "view",
					"type": "function"
				},
				{
					"inputs": [
						{
							"internalType": "uint256",
							"name": "",
							"type": "uint256"
						},
						{
							"internalType": "address",
							"name": "",
							"type": "address"
						}
					],
					"name": "isPaticipated",
					"outputs": [
						{
							"internalType": "bool",
							"name": "",
							"type": "bool"
						}
					],
					"stateMutability": "view",
					"type": "function"
				},
				{
					"inputs": [],
					"name": "numCampaigns",
					"outputs": [
						{
							"internalType": "uint256",
							"name": "",
							"type": "uint256"
						}
					],
					"stateMutability": "view",
					"type": "function"
				}
			],
			"devdoc": {
				"kind": "dev",
				"methods": {},
				"version": 1
			},
			"evm": {
				"assembly": "    /* \"contracts/CrowdFunding.sol\":389:889  contract CrowdFundingStorage {\r... */\n  mstore(0x40, 0x80)\n  callvalue\n  dup1\n  iszero\n  tag_1\n  jumpi\n  0x00\n  dup1\n  revert\ntag_1:\n  pop\n  dataSize(sub_0)\n  dup1\n  dataOffset(sub_0)\n  0x00\n  codecopy\n  0x00\n  return\nstop\n\nsub_0: assembly {\n        /* \"contracts/CrowdFunding.sol\":389:889  contract CrowdFundingStorage {\r... */\n      mstore(0x40, 0x80)\n      callvalue\n      dup1\n      iszero\n      tag_1\n      jumpi\n      0x00\n      dup1\n      revert\n    tag_1:\n      pop\n      jumpi(tag_2, lt(calldatasize, 0x04))\n      shr(0xe0, calldataload(0x00))\n      dup1\n      0x2c0f7b6f\n      eq\n      tag_3\n      jumpi\n      dup1\n      0x6780b75a\n      eq\n      tag_4\n      jumpi\n      dup1\n      0x72174d57\n      eq\n      tag_5\n      jumpi\n    tag_2:\n      0x00\n      dup1\n      revert\n        /* \"contracts/CrowdFunding.sol\":656:680  uint public numCampaigns */\n    tag_3:\n      tag_6\n      tag_7\n      jump\t// in\n    tag_6:\n      mload(0x40)\n      tag_8\n      swap2\n      swap1\n      tag_9\n      jump\t// in\n    tag_8:\n      mload(0x40)\n      dup1\n      swap2\n      sub\n      swap1\n      return\n        /* \"contracts/CrowdFunding.sol\":769:801  Campaign[] public campaignsArray */\n    tag_4:\n      tag_10\n      0x04\n      dup1\n      calldatasize\n      sub\n      dup2\n      add\n      swap1\n      tag_11\n      swap2\n      swap1\n      tag_12\n      jump\t// in\n    tag_11:\n      tag_13\n      jump\t// in\n    tag_10:\n      mload(0x40)\n      tag_14\n      swap5\n      swap4\n      swap3\n      swap2\n      swap1\n      tag_15\n      jump\t// in\n    tag_14:\n      mload(0x40)\n      dup1\n      swap2\n      sub\n      swap1\n      return\n        /* \"contracts/CrowdFunding.sol\":823:885  mapping(uint => mapping(address => bool)) public isPaticipated */\n    tag_5:\n      tag_16\n      0x04\n      dup1\n      calldatasize\n      sub\n      dup2\n      add\n      swap1\n      tag_17\n      swap2\n      swap1\n      tag_18\n      jump\t// in\n    tag_17:\n      tag_19\n      jump\t// in\n    tag_16:\n      mload(0x40)\n      tag_20\n      swap2\n      swap1\n      tag_21\n      jump\t// in\n    tag_20:\n      mload(0x40)\n      dup1\n      swap2\n      sub\n      swap1\n      return\n        /* \"contracts/CrowdFunding.sol\":656:680  uint public numCampaigns */\n    tag_7:\n      sload(0x00)\n      dup2\n      jump\t// out\n        /* \"contracts/CrowdFunding.sol\":769:801  Campaign[] public campaignsArray */\n    tag_13:\n      0x03\n      dup2\n      dup2\n      sload\n      dup2\n      lt\n      tag_22\n      jumpi\n      0x00\n      dup1\n      revert\n    tag_22:\n      swap1\n      0x00\n      mstore\n      keccak256(0x00, 0x20)\n      swap1\n      0x04\n      mul\n      add\n      0x00\n      swap2\n      pop\n      swap1\n      pop\n      dup1\n      0x00\n      add\n      0x00\n      swap1\n      sload\n      swap1\n      0x0100\n      exp\n      swap1\n      div\n      0xffffffffffffffffffffffffffffffffffffffff\n      and\n      swap1\n      dup1\n      0x01\n      add\n      sload\n      swap1\n      dup1\n      0x02\n      add\n      sload\n      swap1\n      dup1\n      0x03\n      add\n      sload\n      swap1\n      pop\n      dup5\n      jump\t// out\n        /* \"contracts/CrowdFunding.sol\":823:885  mapping(uint => mapping(address => bool)) public isPaticipated */\n    tag_19:\n      mstore(0x20, 0x04)\n      dup2\n      0x00\n      mstore\n      mstore(0x20, keccak256(0x00, 0x40))\n      dup1\n      0x00\n      mstore\n      keccak256(0x00, 0x40)\n      0x00\n      swap2\n      pop\n      swap2\n      pop\n      swap1\n      sload\n      swap1\n      0x0100\n      exp\n      swap1\n      div\n      0xff\n      and\n      dup2\n      jump\t// out\n        /* \"#utility.yul\":7:146   */\n    tag_25:\n        /* \"#utility.yul\":53:58   */\n      0x00\n        /* \"#utility.yul\":91:97   */\n      dup2\n        /* \"#utility.yul\":78:98   */\n      calldataload\n        /* \"#utility.yul\":69:98   */\n      swap1\n      pop\n        /* \"#utility.yul\":107:140   */\n      tag_27\n        /* \"#utility.yul\":134:139   */\n      dup2\n        /* \"#utility.yul\":107:140   */\n      tag_28\n      jump\t// in\n    tag_27:\n        /* \"#utility.yul\":7:146   */\n      swap3\n      swap2\n      pop\n      pop\n      jump\t// out\n        /* \"#utility.yul\":152:291   */\n    tag_29:\n        /* \"#utility.yul\":198:203   */\n      0x00\n        /* \"#utility.yul\":236:242   */\n      dup2\n        /* \"#utility.yul\":223:243   */\n      calldataload\n        /* \"#utility.yul\":214:243   */\n      swap1\n      pop\n        /* \"#utility.yul\":252:285   */\n      tag_31\n        /* \"#utility.yul\":279:284   */\n      dup2\n        /* \"#utility.yul\":252:285   */\n      tag_32\n      jump\t// in\n    tag_31:\n        /* \"#utility.yul\":152:291   */\n      swap3\n      swap2\n      pop\n      pop\n      jump\t// out\n        /* \"#utility.yul\":297:626   */\n    tag_12:\n        /* \"#utility.yul\":356:362   */\n      0x00\n        /* \"#utility.yul\":405:407   */\n      0x20\n        /* \"#utility.yul\":393:402   */\n      dup3\n        /* \"#utility.yul\":384:391   */\n      dup5\n        /* \"#utility.yul\":380:403   */\n      sub\n        /* \"#utility.yul\":376:408   */\n      slt\n        /* \"#utility.yul\":373:492   */\n      iszero\n      tag_34\n      jumpi\n        /* \"#utility.yul\":411:490   */\n      tag_35\n      tag_36\n      jump\t// in\n    tag_35:\n        /* \"#utility.yul\":373:492   */\n    tag_34:\n        /* \"#utility.yul\":531:532   */\n      0x00\n        /* \"#utility.yul\":556:609   */\n      tag_37\n        /* \"#utility.yul\":601:608   */\n      dup5\n        /* \"#utility.yul\":592:598   */\n      dup3\n        /* \"#utility.yul\":581:590   */\n      dup6\n        /* \"#utility.yul\":577:599   */\n      add\n        /* \"#utility.yul\":556:609   */\n      tag_29\n      jump\t// in\n    tag_37:\n        /* \"#utility.yul\":546:609   */\n      swap2\n      pop\n        /* \"#utility.yul\":502:619   */\n      pop\n        /* \"#utility.yul\":297:626   */\n      swap3\n      swap2\n      pop\n      pop\n      jump\t// out\n        /* \"#utility.yul\":632:1106   */\n    tag_18:\n        /* \"#utility.yul\":700:706   */\n      0x00\n        /* \"#utility.yul\":708:714   */\n      dup1\n        /* \"#utility.yul\":757:759   */\n      0x40\n        /* \"#utility.yul\":745:754   */\n      dup4\n        /* \"#utility.yul\":736:743   */\n      dup6\n        /* \"#utility.yul\":732:755   */\n      sub\n        /* \"#utility.yul\":728:760   */\n      slt\n        /* \"#utility.yul\":725:844   */\n      iszero\n      tag_39\n      jumpi\n        /* \"#utility.yul\":763:842   */\n      tag_40\n      tag_36\n      jump\t// in\n    tag_40:\n        /* \"#utility.yul\":725:844   */\n    tag_39:\n        /* \"#utility.yul\":883:884   */\n      0x00\n        /* \"#utility.yul\":908:961   */\n      tag_41\n        /* \"#utility.yul\":953:960   */\n      dup6\n        /* \"#utility.yul\":944:950   */\n      dup3\n        /* \"#utility.yul\":933:942   */\n      dup7\n        /* \"#utility.yul\":929:951   */\n      add\n        /* \"#utility.yul\":908:961   */\n      tag_29\n      jump\t// in\n    tag_41:\n        /* \"#utility.yul\":898:961   */\n      swap3\n      pop\n        /* \"#utility.yul\":854:971   */\n      pop\n        /* \"#utility.yul\":1010:1012   */\n      0x20\n        /* \"#utility.yul\":1036:1089   */\n      tag_42\n        /* \"#utility.yul\":1081:1088   */\n      dup6\n        /* \"#utility.yul\":1072:1078   */\n      dup3\n        /* \"#utility.yul\":1061:1070   */\n      dup7\n        /* \"#utility.yul\":1057:1079   */\n      add\n        /* \"#utility.yul\":1036:1089   */\n      tag_25\n      jump\t// in\n    tag_42:\n        /* \"#utility.yul\":1026:1089   */\n      swap2\n      pop\n        /* \"#utility.yul\":981:1099   */\n      pop\n        /* \"#utility.yul\":632:1106   */\n      swap3\n      pop\n      swap3\n      swap1\n      pop\n      jump\t// out\n        /* \"#utility.yul\":1112:1254   */\n    tag_43:\n        /* \"#utility.yul\":1215:1247   */\n      tag_45\n        /* \"#utility.yul\":1241:1246   */\n      dup2\n        /* \"#utility.yul\":1215:1247   */\n      tag_46\n      jump\t// in\n    tag_45:\n        /* \"#utility.yul\":1210:1213   */\n      dup3\n        /* \"#utility.yul\":1203:1248   */\n      mstore\n        /* \"#utility.yul\":1112:1254   */\n      pop\n      pop\n      jump\t// out\n        /* \"#utility.yul\":1260:1369   */\n    tag_47:\n        /* \"#utility.yul\":1341:1362   */\n      tag_49\n        /* \"#utility.yul\":1356:1361   */\n      dup2\n        /* \"#utility.yul\":1341:1362   */\n      tag_50\n      jump\t// in\n    tag_49:\n        /* \"#utility.yul\":1336:1339   */\n      dup3\n        /* \"#utility.yul\":1329:1363   */\n      mstore\n        /* \"#utility.yul\":1260:1369   */\n      pop\n      pop\n      jump\t// out\n        /* \"#utility.yul\":1375:1493   */\n    tag_51:\n        /* \"#utility.yul\":1462:1486   */\n      tag_53\n        /* \"#utility.yul\":1480:1485   */\n      dup2\n        /* \"#utility.yul\":1462:1486   */\n      tag_54\n      jump\t// in\n    tag_53:\n        /* \"#utility.yul\":1457:1460   */\n      dup3\n        /* \"#utility.yul\":1450:1487   */\n      mstore\n        /* \"#utility.yul\":1375:1493   */\n      pop\n      pop\n      jump\t// out\n        /* \"#utility.yul\":1499:2084   */\n    tag_15:\n        /* \"#utility.yul\":1692:1696   */\n      0x00\n        /* \"#utility.yul\":1730:1733   */\n      0x80\n        /* \"#utility.yul\":1719:1728   */\n      dup3\n        /* \"#utility.yul\":1715:1734   */\n      add\n        /* \"#utility.yul\":1707:1734   */\n      swap1\n      pop\n        /* \"#utility.yul\":1744:1831   */\n      tag_56\n        /* \"#utility.yul\":1828:1829   */\n      0x00\n        /* \"#utility.yul\":1817:1826   */\n      dup4\n        /* \"#utility.yul\":1813:1830   */\n      add\n        /* \"#utility.yul\":1804:1810   */\n      dup8\n        /* \"#utility.yul\":1744:1831   */\n      tag_43\n      jump\t// in\n    tag_56:\n        /* \"#utility.yul\":1841:1913   */\n      tag_57\n        /* \"#utility.yul\":1909:1911   */\n      0x20\n        /* \"#utility.yul\":1898:1907   */\n      dup4\n        /* \"#utility.yul\":1894:1912   */\n      add\n        /* \"#utility.yul\":1885:1891   */\n      dup7\n        /* \"#utility.yul\":1841:1913   */\n      tag_51\n      jump\t// in\n    tag_57:\n        /* \"#utility.yul\":1923:1995   */\n      tag_58\n        /* \"#utility.yul\":1991:1993   */\n      0x40\n        /* \"#utility.yul\":1980:1989   */\n      dup4\n        /* \"#utility.yul\":1976:1994   */\n      add\n        /* \"#utility.yul\":1967:1973   */\n      dup6\n        /* \"#utility.yul\":1923:1995   */\n      tag_51\n      jump\t// in\n    tag_58:\n        /* \"#utility.yul\":2005:2077   */\n      tag_59\n        /* \"#utility.yul\":2073:2075   */\n      0x60\n        /* \"#utility.yul\":2062:2071   */\n      dup4\n        /* \"#utility.yul\":2058:2076   */\n      add\n        /* \"#utility.yul\":2049:2055   */\n      dup5\n        /* \"#utility.yul\":2005:2077   */\n      tag_51\n      jump\t// in\n    tag_59:\n        /* \"#utility.yul\":1499:2084   */\n      swap6\n      swap5\n      pop\n      pop\n      pop\n      pop\n      pop\n      jump\t// out\n        /* \"#utility.yul\":2090:2300   */\n    tag_21:\n        /* \"#utility.yul\":2177:2181   */\n      0x00\n        /* \"#utility.yul\":2215:2217   */\n      0x20\n        /* \"#utility.yul\":2204:2213   */\n      dup3\n        /* \"#utility.yul\":2200:2218   */\n      add\n        /* \"#utility.yul\":2192:2218   */\n      swap1\n      pop\n        /* \"#utility.yul\":2228:2293   */\n      tag_61\n        /* \"#utility.yul\":2290:2291   */\n      0x00\n        /* \"#utility.yul\":2279:2288   */\n      dup4\n        /* \"#utility.yul\":2275:2292   */\n      add\n        /* \"#utility.yul\":2266:2272   */\n      dup5\n        /* \"#utility.yul\":2228:2293   */\n      tag_47\n      jump\t// in\n    tag_61:\n        /* \"#utility.yul\":2090:2300   */\n      swap3\n      swap2\n      pop\n      pop\n      jump\t// out\n        /* \"#utility.yul\":2306:2528   */\n    tag_9:\n        /* \"#utility.yul\":2399:2403   */\n      0x00\n        /* \"#utility.yul\":2437:2439   */\n      0x20\n        /* \"#utility.yul\":2426:2435   */\n      dup3\n        /* \"#utility.yul\":2422:2440   */\n      add\n        /* \"#utility.yul\":2414:2440   */\n      swap1\n      pop\n        /* \"#utility.yul\":2450:2521   */\n      tag_63\n        /* \"#utility.yul\":2518:2519   */\n      0x00\n        /* \"#utility.yul\":2507:2516   */\n      dup4\n        /* \"#utility.yul\":2503:2520   */\n      add\n        /* \"#utility.yul\":2494:2500   */\n      dup5\n        /* \"#utility.yul\":2450:2521   */\n      tag_51\n      jump\t// in\n    tag_63:\n        /* \"#utility.yul\":2306:2528   */\n      swap3\n      swap2\n      pop\n      pop\n      jump\t// out\n        /* \"#utility.yul\":2615:2711   */\n    tag_66:\n        /* \"#utility.yul\":2652:2659   */\n      0x00\n        /* \"#utility.yul\":2681:2705   */\n      tag_68\n        /* \"#utility.yul\":2699:2704   */\n      dup3\n        /* \"#utility.yul\":2681:2705   */\n      tag_69\n      jump\t// in\n    tag_68:\n        /* \"#utility.yul\":2670:2705   */\n      swap1\n      pop\n        /* \"#utility.yul\":2615:2711   */\n      swap2\n      swap1\n      pop\n      jump\t// out\n        /* \"#utility.yul\":2717:2821   */\n    tag_46:\n        /* \"#utility.yul\":2762:2769   */\n      0x00\n        /* \"#utility.yul\":2791:2815   */\n      tag_71\n        /* \"#utility.yul\":2809:2814   */\n      dup3\n        /* \"#utility.yul\":2791:2815   */\n      tag_69\n      jump\t// in\n    tag_71:\n        /* \"#utility.yul\":2780:2815   */\n      swap1\n      pop\n        /* \"#utility.yul\":2717:2821   */\n      swap2\n      swap1\n      pop\n      jump\t// out\n        /* \"#utility.yul\":2827:2917   */\n    tag_50:\n        /* \"#utility.yul\":2861:2868   */\n      0x00\n        /* \"#utility.yul\":2904:2909   */\n      dup2\n        /* \"#utility.yul\":2897:2910   */\n      iszero\n        /* \"#utility.yul\":2890:2911   */\n      iszero\n        /* \"#utility.yul\":2879:2911   */\n      swap1\n      pop\n        /* \"#utility.yul\":2827:2917   */\n      swap2\n      swap1\n      pop\n      jump\t// out\n        /* \"#utility.yul\":2923:3049   */\n    tag_69:\n        /* \"#utility.yul\":2960:2967   */\n      0x00\n        /* \"#utility.yul\":3000:3042   */\n      0xffffffffffffffffffffffffffffffffffffffff\n        /* \"#utility.yul\":2993:2998   */\n      dup3\n        /* \"#utility.yul\":2989:3043   */\n      and\n        /* \"#utility.yul\":2978:3043   */\n      swap1\n      pop\n        /* \"#utility.yul\":2923:3049   */\n      swap2\n      swap1\n      pop\n      jump\t// out\n        /* \"#utility.yul\":3055:3132   */\n    tag_54:\n        /* \"#utility.yul\":3092:3099   */\n      0x00\n        /* \"#utility.yul\":3121:3126   */\n      dup2\n        /* \"#utility.yul\":3110:3126   */\n      swap1\n      pop\n        /* \"#utility.yul\":3055:3132   */\n      swap2\n      swap1\n      pop\n      jump\t// out\n        /* \"#utility.yul\":3261:3378   */\n    tag_36:\n        /* \"#utility.yul\":3370:3371   */\n      0x00\n        /* \"#utility.yul\":3367:3368   */\n      dup1\n        /* \"#utility.yul\":3360:3372   */\n      revert\n        /* \"#utility.yul\":3384:3506   */\n    tag_28:\n        /* \"#utility.yul\":3457:3481   */\n      tag_79\n        /* \"#utility.yul\":3475:3480   */\n      dup2\n        /* \"#utility.yul\":3457:3481   */\n      tag_66\n      jump\t// in\n    tag_79:\n        /* \"#utility.yul\":3450:3455   */\n      dup2\n        /* \"#utility.yul\":3447:3482   */\n      eq\n        /* \"#utility.yul\":3437:3500   */\n      tag_80\n      jumpi\n        /* \"#utility.yul\":3496:3497   */\n      0x00\n        /* \"#utility.yul\":3493:3494   */\n      dup1\n        /* \"#utility.yul\":3486:3498   */\n      revert\n        /* \"#utility.yul\":3437:3500   */\n    tag_80:\n        /* \"#utility.yul\":3384:3506   */\n      pop\n      jump\t// out\n        /* \"#utility.yul\":3512:3634   */\n    tag_32:\n        /* \"#utility.yul\":3585:3609   */\n      tag_82\n        /* \"#utility.yul\":3603:3608   */\n      dup2\n        /* \"#utility.yul\":3585:3609   */\n      tag_54\n      jump\t// in\n    tag_82:\n        /* \"#utility.yul\":3578:3583   */\n      dup2\n        /* \"#utility.yul\":3575:3610   */\n      eq\n        /* \"#utility.yul\":3565:3628   */\n      tag_83\n      jumpi\n        /* \"#utility.yul\":3624:3625   */\n      0x00\n        /* \"#utility.yul\":3621:3622   */\n      dup1\n        /* \"#utility.yul\":3614:3626   */\n      revert\n        /* \"#utility.yul\":3565:3628   */\n    tag_83:\n        /* \"#utility.yul\":3512:3634   */\n      pop\n      jump\t// out\n\n    auxdata: 0xa2646970667358221220d01b5688a6c2d51bce1ad10321e9fb83b53ac5443f2638ee5378922676d0f0d964736f6c63430008070033\n}\n",
				"bytecode": {
					"linkReferences": {},
					"object": "608060405234801561001057600080fd5b5061035e806100206000396000f3fe608060405234801561001057600080fd5b50600436106100415760003560e01c80632c0f7b6f146100465780636780b75a1461006457806372174d5714610097575b600080fd5b61004e6100c7565b60405161005b9190610280565b60405180910390f35b61007e60048036038101906100799190610186565b6100cd565b60405161008e9493929190610220565b60405180910390f35b6100b160048036038101906100ac91906101b3565b61012d565b6040516100be9190610265565b60405180910390f35b60005481565b600381815481106100dd57600080fd5b90600052602060002090600402016000915090508060000160009054906101000a900473ffffffffffffffffffffffffffffffffffffffff16908060010154908060020154908060030154905084565b60046020528160005260406000206020528060005260406000206000915091509054906101000a900460ff1681565b60008135905061016b816102fa565b92915050565b60008135905061018081610311565b92915050565b60006020828403121561019c5761019b6102f5565b5b60006101aa84828501610171565b91505092915050565b600080604083850312156101ca576101c96102f5565b5b60006101d885828601610171565b92505060206101e98582860161015c565b9150509250929050565b6101fc816102ad565b82525050565b61020b816102bf565b82525050565b61021a816102eb565b82525050565b600060808201905061023560008301876101f3565b6102426020830186610211565b61024f6040830185610211565b61025c6060830184610211565b95945050505050565b600060208201905061027a6000830184610202565b92915050565b60006020820190506102956000830184610211565b92915050565b60006102a6826102cb565b9050919050565b60006102b8826102cb565b9050919050565b60008115159050919050565b600073ffffffffffffffffffffffffffffffffffffffff82169050919050565b6000819050919050565b600080fd5b6103038161029b565b811461030e57600080fd5b50565b61031a816102eb565b811461032557600080fd5b5056fea2646970667358221220d01b5688a6c2d51bce1ad10321e9fb83b53ac5443f2638ee5378922676d0f0d964736f6c63430008070033",
					"opcodes": "PUSH1 0x80 PUSH1 0x40 MSTORE CALLVALUE DUP1 ISZERO PUSH2 0x10 JUMPI PUSH1 0x0 DUP1 REVERT JUMPDEST POP PUSH2 0x35E DUP1 PUSH2 0x20 PUSH1 0x0 CODECOPY PUSH1 0x0 RETURN INVALID PUSH1 0x80 PUSH1 0x40 MSTORE CALLVALUE DUP1 ISZERO PUSH2 0x10 JUMPI PUSH1 0x0 DUP1 REVERT JUMPDEST POP PUSH1 0x4 CALLDATASIZE LT PUSH2 0x41 JUMPI PUSH1 0x0 CALLDATALOAD PUSH1 0xE0 SHR DUP1 PUSH4 0x2C0F7B6F EQ PUSH2 0x46 JUMPI DUP1 PUSH4 0x6780B75A EQ PUSH2 0x64 JUMPI DUP1 PUSH4 0x72174D57 EQ PUSH2 0x97 JUMPI JUMPDEST PUSH1 0x0 DUP1 REVERT JUMPDEST PUSH2 0x4E PUSH2 0xC7 JUMP JUMPDEST PUSH1 0x40 MLOAD PUSH2 0x5B SWAP2 SWAP1 PUSH2 0x280 JUMP JUMPDEST PUSH1 0x40 MLOAD DUP1 SWAP2 SUB SWAP1 RETURN JUMPDEST PUSH2 0x7E PUSH1 0x4 DUP1 CALLDATASIZE SUB DUP2 ADD SWAP1 PUSH2 0x79 SWAP2 SWAP1 PUSH2 0x186 JUMP JUMPDEST PUSH2 0xCD JUMP JUMPDEST PUSH1 0x40 MLOAD PUSH2 0x8E SWAP5 SWAP4 SWAP3 SWAP2 SWAP1 PUSH2 0x220 JUMP JUMPDEST PUSH1 0x40 MLOAD DUP1 SWAP2 SUB SWAP1 RETURN JUMPDEST PUSH2 0xB1 PUSH1 0x4 DUP1 CALLDATASIZE SUB DUP2 ADD SWAP1 PUSH2 0xAC SWAP2 SWAP1 PUSH2 0x1B3 JUMP JUMPDEST PUSH2 0x12D JUMP JUMPDEST PUSH1 0x40 MLOAD PUSH2 0xBE SWAP2 SWAP1 PUSH2 0x265 JUMP JUMPDEST PUSH1 0x40 MLOAD DUP1 SWAP2 SUB SWAP1 RETURN JUMPDEST PUSH1 0x0 SLOAD DUP2 JUMP JUMPDEST PUSH1 0x3 DUP2 DUP2 SLOAD DUP2 LT PUSH2 0xDD JUMPI PUSH1 0x0 DUP1 REVERT JUMPDEST SWAP1 PUSH1 0x0 MSTORE PUSH1 0x20 PUSH1 0x0 KECCAK256 SWAP1 PUSH1 0x4 MUL ADD PUSH1 0x0 SWAP2 POP SWAP1 POP DUP1 PUSH1 0x0 ADD PUSH1 0x0 SWAP1 SLOAD SWAP1 PUSH2 0x100 EXP SWAP1 DIV PUSH20 0xFFFFFFFFFFFFFFFFFFFFFFFFFFFFFFFFFFFFFFFF AND SWAP1 DUP1 PUSH1 0x1 ADD SLOAD SWAP1 DUP1 PUSH1 0x2 ADD SLOAD SWAP1 DUP1 PUSH1 0x3 ADD SLOAD SWAP1 POP DUP5 JUMP JUMPDEST PUSH1 0x4 PUSH1 0x20 MSTORE DUP2 PUSH1 0x0 MSTORE PUSH1 0x40 PUSH1 0x0 KECCAK256 PUSH1 0x20 MSTORE DUP1 PUSH1 0x0 MSTORE PUSH1 0x40 PUSH1 0x0 KECCAK256 PUSH1 0x0 SWAP2 POP SWAP2 POP SWAP1 SLOAD SWAP1 PUSH2 0x100 EXP SWAP1 DIV PUSH1 0xFF AND DUP2 JUMP JUMPDEST PUSH1 0x0 DUP2 CALLDATALOAD SWAP1 POP PUSH2 0x16B DUP2 PUSH2 0x2FA JUMP JUMPDEST SWAP3 SWAP2 POP POP JUMP JUMPDEST PUSH1 0x0 DUP2 CALLDATALOAD SWAP1 POP PUSH2 0x180 DUP2 PUSH2 0x311 JUMP JUMPDEST SWAP3 SWAP2 POP POP JUMP JUMPDEST PUSH1 0x0 PUSH1 0x20 DUP3 DUP5 SUB SLT ISZERO PUSH2 0x19C JUMPI PUSH2 0x19B PUSH2 0x2F5 JUMP JUMPDEST JUMPDEST PUSH1 0x0 PUSH2 0x1AA DUP5 DUP3 DUP6 ADD PUSH2 0x171 JUMP JUMPDEST SWAP2 POP POP SWAP3 SWAP2 POP POP JUMP JUMPDEST PUSH1 0x0 DUP1 PUSH1 0x40 DUP4 DUP6 SUB SLT ISZERO PUSH2 0x1CA JUMPI PUSH2 0x1C9 PUSH2 0x2F5 JUMP JUMPDEST JUMPDEST PUSH1 0x0 PUSH2 0x1D8 DUP6 DUP3 DUP7 ADD PUSH2 0x171 JUMP JUMPDEST SWAP3 POP POP PUSH1 0x20 PUSH2 0x1E9 DUP6 DUP3 DUP7 ADD PUSH2 0x15C JUMP JUMPDEST SWAP2 POP POP SWAP3 POP SWAP3 SWAP1 POP JUMP JUMPDEST PUSH2 0x1FC DUP2 PUSH2 0x2AD JUMP JUMPDEST DUP3 MSTORE POP POP JUMP JUMPDEST PUSH2 0x20B DUP2 PUSH2 0x2BF JUMP JUMPDEST DUP3 MSTORE POP POP JUMP JUMPDEST PUSH2 0x21A DUP2 PUSH2 0x2EB JUMP JUMPDEST DUP3 MSTORE POP POP JUMP JUMPDEST PUSH1 0x0 PUSH1 0x80 DUP3 ADD SWAP1 POP PUSH2 0x235 PUSH1 0x0 DUP4 ADD DUP8 PUSH2 0x1F3 JUMP JUMPDEST PUSH2 0x242 PUSH1 0x20 DUP4 ADD DUP7 PUSH2 0x211 JUMP JUMPDEST PUSH2 0x24F PUSH1 0x40 DUP4 ADD DUP6 PUSH2 0x211 JUMP JUMPDEST PUSH2 0x25C PUSH1 0x60 DUP4 ADD DUP5 PUSH2 0x211 JUMP JUMPDEST SWAP6 SWAP5 POP POP POP POP POP JUMP JUMPDEST PUSH1 0x0 PUSH1 0x20 DUP3 ADD SWAP1 POP PUSH2 0x27A PUSH1 0x0 DUP4 ADD DUP5 PUSH2 0x202 JUMP JUMPDEST SWAP3 SWAP2 POP POP JUMP JUMPDEST PUSH1 0x0 PUSH1 0x20 DUP3 ADD SWAP1 POP PUSH2 0x295 PUSH1 0x0 DUP4 ADD DUP5 PUSH2 0x211 JUMP JUMPDEST SWAP3 SWAP2 POP POP JUMP JUMPDEST PUSH1 0x0 PUSH2 0x2A6 DUP3 PUSH2 0x2CB JUMP JUMPDEST SWAP1 POP SWAP2 SWAP1 POP JUMP JUMPDEST PUSH1 0x0 PUSH2 0x2B8 DUP3 PUSH2 0x2CB JUMP JUMPDEST SWAP1 POP SWAP2 SWAP1 POP JUMP JUMPDEST PUSH1 0x0 DUP2 ISZERO ISZERO SWAP1 POP SWAP2 SWAP1 POP JUMP JUMPDEST PUSH1 0x0 PUSH20 0xFFFFFFFFFFFFFFFFFFFFFFFFFFFFFFFFFFFFFFFF DUP3 AND SWAP1 POP SWAP2 SWAP1 POP JUMP JUMPDEST PUSH1 0x0 DUP2 SWAP1 POP SWAP2 SWAP1 POP JUMP JUMPDEST PUSH1 0x0 DUP1 REVERT JUMPDEST PUSH2 0x303 DUP2 PUSH2 0x29B JUMP JUMPDEST DUP2 EQ PUSH2 0x30E JUMPI PUSH1 0x0 DUP1 REVERT JUMPDEST POP JUMP JUMPDEST PUSH2 0x31A DUP2 PUSH2 0x2EB JUMP JUMPDEST DUP2 EQ PUSH2 0x325 JUMPI PUSH1 0x0 DUP1 REVERT JUMPDEST POP JUMP INVALID LOG2 PUSH5 0x6970667358 0x22 SLT KECCAK256 0xD0 SHL JUMP DUP9 0xA6 0xC2 0xD5 SHL 0xCE BYTE 0xD1 SUB 0x21 0xE9 0xFB DUP4 0xB5 GASPRICE 0xC5 DIFFICULTY EXTCODEHASH 0x26 CODESIZE 0xEE MSTORE8 PUSH25 0x922676D0F0D964736F6C634300080700330000000000000000 "
				},
				"gasEstimates": {
					"creation": {
						"codeDepositCost": "172400",
						"executionCost": "214",
						"totalCost": "172614"
					},
					"external": {
						"campaignsArray(uint256)": "infinite",
						"isPaticipated(uint256,address)": "3109",
						"numCampaigns()": "2407"
					}
				},
				"methodIdentifiers": {
					"campaignsArray(uint256)": "6780b75a",
					"isPaticipated(uint256,address)": "72174d57",
					"numCampaigns()": "2c0f7b6f"
				}
			},
			"storageLayout": {
				"storage": [
					{
						"astId": 17,
						"contract": "contracts/CrowdFunding.sol:CrowdFundingStorage",
						"label": "numCampaigns",
						"offset": 0,
						"slot": "0",
						"type": "t_uint256"
					},
					{
						"astId": 22,
						"contract": "contracts/CrowdFunding.sol:CrowdFundingStorage",
						"label": "campaigns",
						"offset": 0,
						"slot": "1",
						"type": "t_mapping(t_uint256,t_struct(Campaign)10_storage)"
					},
					{
						"astId": 28,
						"contract": "contracts/CrowdFunding.sol:CrowdFundingStorage",
						"label": "funders",
						"offset": 0,
						"slot": "2",
						"type": "t_mapping(t_uint256,t_array(t_struct(Funder)15_storage)dyn_storage)"
					},
					{
						"astId": 32,
						"contract": "contracts/CrowdFunding.sol:CrowdFundingStorage",
						"label": "campaignsArray",
						"offset": 0,
						"slot": "3",
						"type": "t_array(t_struct(Campaign)10_storage)dyn_storage"
					},
					{
						"astId": 38,
						"contract": "contracts/CrowdFunding.sol:CrowdFundingStorage",
						"label": "isPaticipated",
						"offset": 0,
						"slot": "4",
						"type": "t_mapping(t_uint256,t_mapping(t_address,t_bool))"
					}
				],
				"types": {
					"t_address": {
						"encoding": "inplace",
						"label": "address",
						"numberOfBytes": "20"
					},
					"t_address_payable": {
						"encoding": "inplace",
						"label": "address payable",
						"numberOfBytes": "20"
					},
					"t_array(t_struct(Campaign)10_storage)dyn_storage": {
						"base": "t_struct(Campaign)10_storage",
						"encoding": "dynamic_array",
						"label": "struct CrowdFundingStorage.Campaign[]",
						"numberOfBytes": "32"
					},
					"t_array(t_struct(Funder)15_storage)dyn_storage": {
						"base": "t_struct(Funder)15_storage",
						"encoding": "dynamic_array",
						"label": "struct CrowdFundingStorage.Funder[]",
						"numberOfBytes": "32"
					},
					"t_bool": {
						"encoding": "inplace",
						"label": "bool",
						"numberOfBytes": "1"
					},
					"t_mapping(t_address,t_bool)": {
						"encoding": "mapping",
						"key": "t_address",
						"label": "mapping(address => bool)",
						"numberOfBytes": "32",
						"value": "t_bool"
					},
					"t_mapping(t_uint256,t_array(t_struct(Funder)15_storage)dyn_storage)": {
						"encoding": "mapping",
						"key": "t_uint256",
						"label": "mapping(uint256 => struct CrowdFundingStorage.Funder[])",
						"numberOfBytes": "32",
						"value": "t_array(t_struct(Funder)15_storage)dyn_storage"
					},
					"t_mapping(t_uint256,t_mapping(t_address,t_bool))": {
						"encoding": "mapping",
						"key": "t_uint256",
						"label": "mapping(uint256 => mapping(address => bool))",
						"numberOfBytes": "32",
						"value": "t_mapping(t_address,t_bool)"
					},
					"t_mapping(t_uint256,t_struct(Campaign)10_storage)": {
						"encoding": "mapping",
						"key": "t_uint256",
						"label": "mapping(uint256 => struct CrowdFundingStorage.Campaign)",
						"numberOfBytes": "32",
						"value": "t_struct(Campaign)10_storage"
					},
					"t_struct(Campaign)10_storage": {
						"encoding": "inplace",
						"label": "struct CrowdFundingStorage.Campaign",
						"members": [
							{
								"astId": 3,
								"contract": "contracts/CrowdFunding.sol:CrowdFundingStorage",
								"label": "receiver",
								"offset": 0,
								"slot": "0",
								"type": "t_address_payable"
							},
							{
								"astId": 5,
								"contract": "contracts/CrowdFunding.sol:CrowdFundingStorage",
								"label": "numFunders",
								"offset": 0,
								"slot": "1",
								"type": "t_uint256"
							},
							{
								"astId": 7,
								"contract": "contracts/CrowdFunding.sol:CrowdFundingStorage",
								"label": "fundingGoal",
								"offset": 0,
								"slot": "2",
								"type": "t_uint256"
							},
							{
								"astId": 9,
								"contract": "contracts/CrowdFunding.sol:CrowdFundingStorage",
								"label": "totalRaisedAmount",
								"offset": 0,
								"slot": "3",
								"type": "t_uint256"
							}
						],
						"numberOfBytes": "128"
					},
					"t_struct(Funder)15_storage": {
						"encoding": "inplace",
						"label": "struct CrowdFundingStorage.Funder",
						"members": [
							{
								"astId": 12,
								"contract": "contracts/CrowdFunding.sol:CrowdFundingStorage",
								"label": "addr",
								"offset": 0,
								"slot": "0",
								"type": "t_address"
							},
							{
								"astId": 14,
								"contract": "contracts/CrowdFunding.sol:CrowdFundingStorage",
								"label": "amount",
								"offset": 0,
								"slot": "1",
								"type": "t_uint256"
							}
						],
						"numberOfBytes": "64"
					},
					"t_uint256": {
						"encoding": "inplace",
						"label": "uint256",
						"numberOfBytes": "32"
					}
				}
			},
			"userdoc": {
				"kind": "user",
				"methods": {},
				"version": 1
			}
		}
	}
}