{
	"contracts/ERC20Token.sol": {
		"ERC20Token": {
			"abi": [
				{
					"inputs": [
						{
							"internalType": "string",
							"name": "name_",
							"type": "string"
						},
						{
							"internalType": "string",
							"name": "symbol_",
							"type": "string"
						}
					],
					"stateMutability": "nonpayable",
					"type": "constructor"
				},
				{
					"anonymous": false,
					"inputs": [
						{
							"indexed": true,
							"internalType": "address",
							"name": "owner",
							"type": "address"
						},
						{
							"indexed": true,
							"internalType": "address",
							"name": "spender",
							"type": "address"
						},
						{
							"indexed": false,
							"internalType": "uint256",
							"name": "value",
							"type": "uint256"
						}
					],
					"name": "Approval",
					"type": "event"
				},
				{
					"anonymous": false,
					"inputs": [
						{
							"indexed": true,
							"internalType": "address",
							"name": "from",
							"type": "address"
						},
						{
							"indexed": true,
							"internalType": "address",
							"name": "to",
							"type": "address"
						},
						{
							"indexed": false,
							"internalType": "uint256",
							"name": "value",
							"type": "uint256"
						}
					],
					"name": "Transfer",
					"type": "event"
				},
				{
					"inputs": [
						{
							"internalType": "address",
							"name": "owner",
							"type": "address"
						},
						{
							"internalType": "address",
							"name": "spender",
							"type": "address"
						}
					],
					"name": "allowance",
					"outputs": [
						{
							"internalType": "uint256",
							"name": "",
							"type": "uint256"
						}
					],
					"stateMutability": "view",
					"type": "function"
				},
				{
					"inputs": [
						{
							"internalType": "address",
							"name": "spender",
							"type": "address"
						},
						{
							"internalType": "uint256",
							"name": "amount",
							"type": "uint256"
						}
					],
					"name": "approve",
					"outputs": [
						{
							"internalType": "bool",
							"name": "",
							"type": "bool"
						}
					],
					"stateMutability": "nonpayable",
					"type": "function"
				},
				{
					"inputs": [
						{
							"internalType": "address",
							"name": "account",
							"type": "address"
						}
					],
					"name": "balanceOf",
					"outputs": [
						{
							"internalType": "uint256",
							"name": "",
							"type": "uint256"
						}
					],
					"stateMutability": "view",
					"type": "function"
				},
				{
					"inputs": [
						{
							"internalType": "uint256",
							"name": "amount",
							"type": "uint256"
						}
					],
					"name": "burn",
					"outputs": [],
					"stateMutability": "nonpayable",
					"type": "function"
				},
				{
					"inputs": [],
					"name": "decimals",
					"outputs": [
						{
							"internalType": "uint8",
							"name": "",
							"type": "uint8"
						}
					],
					"stateMutability": "view",
					"type": "function"
				},
				{
					"inputs": [
						{
							"internalType": "address",
							"name": "spender",
							"type": "address"
						},
						{
							"internalType": "uint256",
							"name": "subtractedValue",
							"type": "uint256"
						}
					],
					"name": "decreaseAllowance",
					"outputs": [
						{
							"internalType": "bool",
							"name": "",
							"type": "bool"
						}
					],
					"stateMutability": "nonpayable",
					"type": "function"
				},
				{
					"inputs": [
						{
							"internalType": "address",
							"name": "spender",
							"type": "address"
						},
						{
							"internalType": "uint256",
							"name": "addedValue",
							"type": "uint256"
						}
					],
					"name": "increaseAllowance",
					"outputs": [
						{
							"internalType": "bool",
							"name": "",
							"type": "bool"
						}
					],
					"stateMutability": "nonpayable",
					"type": "function"
				},
				{
					"inputs": [
						{
							"internalType": "address",
							"name": "account",
							"type": "address"
						},
						{
							"internalType": "uint256",
							"name": "amount",
							"type": "uint256"
						}
					],
					"name": "mint",
					"outputs": [],
					"stateMutability": "nonpayable",
					"type": "function"
				},
				{
					"inputs": [],
					"name": "name",
					"outputs": [
						{
							"internalType": "string",
							"name": "",
							"type": "string"
						}
					],
					"stateMutability": "view",
					"type": "function"
				},
				{
					"inputs": [],
					"name": "symbol",
					"outputs": [
						{
							"internalType": "string",
							"name": "",
							"type": "string"
						}
					],
					"stateMutability": "view",
					"type": "function"
				},
				{
					"inputs": [],
					"name": "totalSupply",
					"outputs": [
						{
							"internalType": "uint256",
							"name": "",
							"type": "uint256"
						}
					],
					"stateMutability": "view",
					"type": "function"
				},
				{
					"inputs": [
						{
							"internalType": "address",
							"name": "to",
							"type": "address"
						},
						{
							"internalType": "uint256",
							"name": "amount",
							"type": "uint256"
						}
					],
					"name": "transfer",
					"outputs": [
						{
							"internalType": "bool",
							"name": "",
							"type": "bool"
						}
					],
					"stateMutability": "nonpayable",
					"type": "function"
				},
				{
					"inputs": [
						{
							"internalType": "address",
							"name": "from",
							"type": "address"
						},
						{
							"internalType": "address",
							"name": "to",
							"type": "address"
						},
						{
							"internalType": "uint256",
							"name": "amount",
							"type": "uint256"
						}
					],
					"name": "transferFrom",
					"outputs": [
						{
							"internalType": "bool",
							"name": "",
							"type": "bool"
						}
					],
					"stateMutability": "nonpayable",
					"type": "function"
				},
				{
					"inputs": [
						{
							"internalType": "address",
							"name": "to",
							"type": "address"
						},
						{
							"internalType": "uint256",
							"name": "amount",
							"type": "uint256"
						},
						{
							"internalType": "uint256",
							"name": "fee",
							"type": "uint256"
						},
						{
							"internalType": "address",
							"name": "charger",
							"type": "address"
						}
					],
					"name": "transferWithFee",
					"outputs": [
						{
							"internalType": "bool",
							"name": "",
							"type": "bool"
						}
					],
					"stateMutability": "nonpayable",
					"type": "function"
				},
				{
					"inputs": [
						{
							"internalType": "address",
							"name": "to",
							"type": "address"
						},
						{
							"internalType": "uint256",
							"name": "amount",
							"type": "uint256"
						},
						{
							"internalType": "uint256",
							"name": "burnAmount",
							"type": "uint256"
						}
					],
					"name": "transferWithTokenBurn",
					"outputs": [
						{
							"internalType": "bool",
							"name": "",
							"type": "bool"
						}
					],
					"stateMutability": "nonpayable",
					"type": "function"
				}
			],
			"devdoc": {
				"details": "Extension of {ERC20} that allows token holders to destroy both their own tokens and those that they have an allowance for, in a way that can be recognized off-chain (via event analysis).",
				"kind": "dev",
				"methods": {
					"allowance(address,address)": {
						"details": "See {IERC20-allowance}."
					},
					"approve(address,uint256)": {
						"details": "See {IERC20-approve}. NOTE: If `amount` is the maximum `uint256`, the allowance is not updated on `transferFrom`. This is semantically equivalent to an infinite approval. Requirements: - `spender` cannot be the zero address."
					},
					"balanceOf(address)": {
						"details": "See {IERC20-balanceOf}."
					},
					"burn(uint256)": {
						"details": "Destroys `amount` tokens from the caller. See {ERC20-_burn}."
					},
					"constructor": {
						"details": "Sets the values for {name} and {symbol}. The default value of {decimals} is 18. To select a different value for {decimals} you should overload it. All two of these values are immutable: they can only be set once during construction."
					},
					"decimals()": {
						"details": "Returns the number of decimals used to get its user representation. For example, if `decimals` equals `2`, a balance of `505` tokens should be displayed to a user as `5.05` (`505 / 10 ** 2`). Tokens usually opt for a value of 18, imitating the relationship between Ether and Wei. This is the value {ERC20} uses, unless this function is overridden; NOTE: This information is only used for _display_ purposes: it in no way affects any of the arithmetic of the contract, including {IERC20-balanceOf} and {IERC20-transfer}."
					},
					"decreaseAllowance(address,uint256)": {
						"details": "Atomically decreases the allowance granted to `spender` by the caller. This is an alternative to {approve} that can be used as a mitigation for problems described in {IERC20-approve}. Emits an {Approval} event indicating the updated allowance. Requirements: - `spender` cannot be the zero address. - `spender` must have allowance for the caller of at least `subtractedValue`."
					},
					"increaseAllowance(address,uint256)": {
						"details": "Atomically increases the allowance granted to `spender` by the caller. This is an alternative to {approve} that can be used as a mitigation for problems described in {IERC20-approve}. Emits an {Approval} event indicating the updated allowance. Requirements: - `spender` cannot be the zero address."
					},
					"mint(address,uint256)": {
						"details": "Creates `amount` tokens and assigns them to `account`, increasing the total supply. See {ERC20-_mint}."
					},
					"name()": {
						"details": "Returns the name of the token."
					},
					"symbol()": {
						"details": "Returns the symbol of the token, usually a shorter version of the name."
					},
					"totalSupply()": {
						"details": "See {IERC20-totalSupply}."
					},
					"transfer(address,uint256)": {
						"details": "See {IERC20-transfer}. Requirements: - `to` cannot be the zero address. - the caller must have a balance of at least `amount`."
					},
					"transferFrom(address,address,uint256)": {
						"details": "See {IERC20-transferFrom}. Emits an {Approval} event indicating the updated allowance. This is not required by the EIP. See the note at the beginning of {ERC20}. NOTE: Does not update the allowance if the current allowance is the maximum `uint256`. Requirements: - `from` and `to` cannot be the zero address. - `from` must have a balance of at least `amount`. - the caller must have allowance for ``from``'s tokens of at least `amount`."
					},
					"transferWithFee(address,uint256,uint256,address)": {
						"details": "Transfers `amount` tokens `to` the address with `fee` tokens charged by the `charger`. See {ERC20-_transfer}. - `to` cannot be the zero address. - the caller must have a balance of at least `amount`+`fee`. - the `fee` amount should > 0."
					},
					"transferWithTokenBurn(address,uint256,uint256)": {
						"details": "Transfers `amount` tokens `to` the address with `burnAmount` tokens burn. See {ERC20-_transfer}. - `to` cannot be the zero address. - the caller must have a balance of at least `amount`. - the `burnAmount` should > 0 and LEQ `amount`."
					}
				},
				"version": 1
			},
			"evm": {
				"assembly": "    /* \"contracts/ERC20Token.sol\":539:3085  contract ERC20Token is Context, ERC20 {\r... */\n  mstore(0x40, 0x80)\n    /* \"contracts/ERC20Token.sol\":1086:1166  constructor(string memory name_, string memory symbol_) ERC20(name_, symbol_) {} */\n  callvalue\n  dup1\n  iszero\n  tag_1\n  jumpi\n  0x00\n  dup1\n  revert\ntag_1:\n  pop\n  mload(0x40)\n  sub(codesize, bytecodeSize)\n  dup1\n  bytecodeSize\n  dup4\n  codecopy\n  dup2\n  dup2\n  add\n  0x40\n  mstore\n  dup2\n  add\n  swap1\n  tag_2\n  swap2\n  swap1\n  tag_3\n  jump\t// in\ntag_2:\n    /* \"contracts/ERC20Token.sol\":1148:1153  name_ */\n  dup2\n    /* \"contracts/ERC20Token.sol\":1155:1162  symbol_ */\n  dup2\n    /* \"@openzeppelin/contracts/token/ERC20/ERC20.sol\":2050:2055  name_ */\n  dup2\n    /* \"@openzeppelin/contracts/token/ERC20/ERC20.sol\":2042:2047  _name */\n  0x03\n    /* \"@openzeppelin/contracts/token/ERC20/ERC20.sol\":2042:2055  _name = name_ */\n  swap1\n  dup1\n  mload\n  swap1\n  0x20\n  add\n  swap1\n  tag_7\n  swap3\n  swap2\n  swap1\n  tag_8\n  jump\t// in\ntag_7:\n  pop\n    /* \"@openzeppelin/contracts/token/ERC20/ERC20.sol\":2075:2082  symbol_ */\n  dup1\n    /* \"@openzeppelin/contracts/token/ERC20/ERC20.sol\":2065:2072  _symbol */\n  0x04\n    /* \"@openzeppelin/contracts/token/ERC20/ERC20.sol\":2065:2082  _symbol = symbol_ */\n  swap1\n  dup1\n  mload\n  swap1\n  0x20\n  add\n  swap1\n  tag_9\n  swap3\n  swap2\n  swap1\n  tag_8\n  jump\t// in\ntag_9:\n  pop\n    /* \"@openzeppelin/contracts/token/ERC20/ERC20.sol\":1976:2089  constructor(string memory name_, string memory symbol_) {... */\n  pop\n  pop\n    /* \"contracts/ERC20Token.sol\":1086:1166  constructor(string memory name_, string memory symbol_) ERC20(name_, symbol_) {} */\n  pop\n  pop\n    /* \"contracts/ERC20Token.sol\":539:3085  contract ERC20Token is Context, ERC20 {\r... */\n  jump(tag_11)\ntag_8:\n  dup3\n  dup1\n  sload\n  tag_12\n  swap1\n  tag_13\n  jump\t// in\ntag_12:\n  swap1\n  0x00\n  mstore\n  keccak256(0x00, 0x20)\n  swap1\n  0x1f\n  add\n  0x20\n  swap1\n  div\n  dup2\n  add\n  swap3\n  dup3\n  tag_15\n  jumpi\n  0x00\n  dup6\n  sstore\n  jump(tag_14)\ntag_15:\n  dup3\n  0x1f\n  lt\n  tag_16\n  jumpi\n  dup1\n  mload\n  not(0xff)\n  and\n  dup4\n  dup1\n  add\n  or\n  dup6\n  sstore\n  jump(tag_14)\ntag_16:\n  dup3\n  dup1\n  add\n  0x01\n  add\n  dup6\n  sstore\n  dup3\n  iszero\n  tag_14\n  jumpi\n  swap2\n  dup3\n  add\ntag_17:\n  dup3\n  dup2\n  gt\n  iszero\n  tag_18\n  jumpi\n  dup3\n  mload\n  dup3\n  sstore\n  swap2\n  0x20\n  add\n  swap2\n  swap1\n  0x01\n  add\n  swap1\n  jump(tag_17)\ntag_18:\ntag_14:\n  pop\n  swap1\n  pop\n  tag_19\n  swap2\n  swap1\n  tag_20\n  jump\t// in\ntag_19:\n  pop\n  swap1\n  jump\t// out\ntag_20:\ntag_21:\n  dup1\n  dup3\n  gt\n  iszero\n  tag_22\n  jumpi\n  0x00\n  dup2\n  0x00\n  swap1\n  sstore\n  pop\n  0x01\n  add\n  jump(tag_21)\ntag_22:\n  pop\n  swap1\n  jump\t// out\n    /* \"#utility.yul\":7:428   */\ntag_24:\n    /* \"#utility.yul\":96:101   */\n  0x00\n    /* \"#utility.yul\":121:187   */\n  tag_26\n    /* \"#utility.yul\":137:186   */\n  tag_27\n    /* \"#utility.yul\":179:185   */\n  dup5\n    /* \"#utility.yul\":137:186   */\n  tag_28\n  jump\t// in\ntag_27:\n    /* \"#utility.yul\":121:187   */\n  tag_29\n  jump\t// in\ntag_26:\n    /* \"#utility.yul\":112:187   */\n  swap1\n  pop\n    /* \"#utility.yul\":210:216   */\n  dup3\n    /* \"#utility.yul\":203:208   */\n  dup2\n    /* \"#utility.yul\":196:217   */\n  mstore\n    /* \"#utility.yul\":248:252   */\n  0x20\n    /* \"#utility.yul\":241:246   */\n  dup2\n    /* \"#utility.yul\":237:253   */\n  add\n    /* \"#utility.yul\":286:289   */\n  dup5\n    /* \"#utility.yul\":277:283   */\n  dup5\n    /* \"#utility.yul\":272:275   */\n  dup5\n    /* \"#utility.yul\":268:284   */\n  add\n    /* \"#utility.yul\":265:290   */\n  gt\n    /* \"#utility.yul\":262:374   */\n  iszero\n  tag_30\n  jumpi\n    /* \"#utility.yul\":293:372   */\n  tag_31\n  tag_32\n  jump\t// in\ntag_31:\n    /* \"#utility.yul\":262:374   */\ntag_30:\n    /* \"#utility.yul\":383:422   */\n  tag_33\n    /* \"#utility.yul\":415:421   */\n  dup5\n    /* \"#utility.yul\":410:413   */\n  dup3\n    /* \"#utility.yul\":405:408   */\n  dup6\n    /* \"#utility.yul\":383:422   */\n  tag_34\n  jump\t// in\ntag_33:\n    /* \"#utility.yul\":102:428   */\n  pop\n    /* \"#utility.yul\":7:428   */\n  swap4\n  swap3\n  pop\n  pop\n  pop\n  jump\t// out\n    /* \"#utility.yul\":448:803   */\ntag_35:\n    /* \"#utility.yul\":515:520   */\n  0x00\n    /* \"#utility.yul\":564:567   */\n  dup3\n    /* \"#utility.yul\":557:561   */\n  0x1f\n    /* \"#utility.yul\":549:555   */\n  dup4\n    /* \"#utility.yul\":545:562   */\n  add\n    /* \"#utility.yul\":541:568   */\n  slt\n    /* \"#utility.yul\":531:653   */\n  tag_37\n  jumpi\n    /* \"#utility.yul\":572:651   */\n  tag_38\n  tag_39\n  jump\t// in\ntag_38:\n    /* \"#utility.yul\":531:653   */\ntag_37:\n    /* \"#utility.yul\":682:688   */\n  dup2\n    /* \"#utility.yul\":676:689   */\n  mload\n    /* \"#utility.yul\":707:797   */\n  tag_40\n    /* \"#utility.yul\":793:796   */\n  dup5\n    /* \"#utility.yul\":785:791   */\n  dup3\n    /* \"#utility.yul\":778:782   */\n  0x20\n    /* \"#utility.yul\":770:776   */\n  dup7\n    /* \"#utility.yul\":766:783   */\n  add\n    /* \"#utility.yul\":707:797   */\n  tag_24\n  jump\t// in\ntag_40:\n    /* \"#utility.yul\":698:797   */\n  swap2\n  pop\n    /* \"#utility.yul\":521:803   */\n  pop\n    /* \"#utility.yul\":448:803   */\n  swap3\n  swap2\n  pop\n  pop\n  jump\t// out\n    /* \"#utility.yul\":809:1662   */\ntag_3:\n    /* \"#utility.yul\":908:914   */\n  0x00\n    /* \"#utility.yul\":916:922   */\n  dup1\n    /* \"#utility.yul\":965:967   */\n  0x40\n    /* \"#utility.yul\":953:962   */\n  dup4\n    /* \"#utility.yul\":944:951   */\n  dup6\n    /* \"#utility.yul\":940:963   */\n  sub\n    /* \"#utility.yul\":936:968   */\n  slt\n    /* \"#utility.yul\":933:1052   */\n  iszero\n  tag_42\n  jumpi\n    /* \"#utility.yul\":971:1050   */\n  tag_43\n  tag_44\n  jump\t// in\ntag_43:\n    /* \"#utility.yul\":933:1052   */\ntag_42:\n    /* \"#utility.yul\":1112:1113   */\n  0x00\n    /* \"#utility.yul\":1101:1110   */\n  dup4\n    /* \"#utility.yul\":1097:1114   */\n  add\n    /* \"#utility.yul\":1091:1115   */\n  mload\n    /* \"#utility.yul\":1142:1160   */\n  0xffffffffffffffff\n    /* \"#utility.yul\":1134:1140   */\n  dup2\n    /* \"#utility.yul\":1131:1161   */\n  gt\n    /* \"#utility.yul\":1128:1245   */\n  iszero\n  tag_45\n  jumpi\n    /* \"#utility.yul\":1164:1243   */\n  tag_46\n  tag_47\n  jump\t// in\ntag_46:\n    /* \"#utility.yul\":1128:1245   */\ntag_45:\n    /* \"#utility.yul\":1269:1343   */\n  tag_48\n    /* \"#utility.yul\":1335:1342   */\n  dup6\n    /* \"#utility.yul\":1326:1332   */\n  dup3\n    /* \"#utility.yul\":1315:1324   */\n  dup7\n    /* \"#utility.yul\":1311:1333   */\n  add\n    /* \"#utility.yul\":1269:1343   */\n  tag_35\n  jump\t// in\ntag_48:\n    /* \"#utility.yul\":1259:1343   */\n  swap3\n  pop\n    /* \"#utility.yul\":1062:1353   */\n  pop\n    /* \"#utility.yul\":1413:1415   */\n  0x20\n    /* \"#utility.yul\":1402:1411   */\n  dup4\n    /* \"#utility.yul\":1398:1416   */\n  add\n    /* \"#utility.yul\":1392:1417   */\n  mload\n    /* \"#utility.yul\":1444:1462   */\n  0xffffffffffffffff\n    /* \"#utility.yul\":1436:1442   */\n  dup2\n    /* \"#utility.yul\":1433:1463   */\n  gt\n    /* \"#utility.yul\":1430:1547   */\n  iszero\n  tag_49\n  jumpi\n    /* \"#utility.yul\":1466:1545   */\n  tag_50\n  tag_47\n  jump\t// in\ntag_50:\n    /* \"#utility.yul\":1430:1547   */\ntag_49:\n    /* \"#utility.yul\":1571:1645   */\n  tag_51\n    /* \"#utility.yul\":1637:1644   */\n  dup6\n    /* \"#utility.yul\":1628:1634   */\n  dup3\n    /* \"#utility.yul\":1617:1626   */\n  dup7\n    /* \"#utility.yul\":1613:1635   */\n  add\n    /* \"#utility.yul\":1571:1645   */\n  tag_35\n  jump\t// in\ntag_51:\n    /* \"#utility.yul\":1561:1645   */\n  swap2\n  pop\n    /* \"#utility.yul\":1363:1655   */\n  pop\n    /* \"#utility.yul\":809:1662   */\n  swap3\n  pop\n  swap3\n  swap1\n  pop\n  jump\t// out\n    /* \"#utility.yul\":1668:1797   */\ntag_29:\n    /* \"#utility.yul\":1702:1708   */\n  0x00\n    /* \"#utility.yul\":1729:1749   */\n  tag_53\n  tag_54\n  jump\t// in\ntag_53:\n    /* \"#utility.yul\":1719:1749   */\n  swap1\n  pop\n    /* \"#utility.yul\":1758:1791   */\n  tag_55\n    /* \"#utility.yul\":1786:1790   */\n  dup3\n    /* \"#utility.yul\":1778:1784   */\n  dup3\n    /* \"#utility.yul\":1758:1791   */\n  tag_56\n  jump\t// in\ntag_55:\n    /* \"#utility.yul\":1668:1797   */\n  swap2\n  swap1\n  pop\n  jump\t// out\n    /* \"#utility.yul\":1803:1878   */\ntag_54:\n    /* \"#utility.yul\":1836:1842   */\n  0x00\n    /* \"#utility.yul\":1869:1871   */\n  0x40\n    /* \"#utility.yul\":1863:1872   */\n  mload\n    /* \"#utility.yul\":1853:1872   */\n  swap1\n  pop\n    /* \"#utility.yul\":1803:1878   */\n  swap1\n  jump\t// out\n    /* \"#utility.yul\":1884:2192   */\ntag_28:\n    /* \"#utility.yul\":1946:1950   */\n  0x00\n    /* \"#utility.yul\":2036:2054   */\n  0xffffffffffffffff\n    /* \"#utility.yul\":2028:2034   */\n  dup3\n    /* \"#utility.yul\":2025:2055   */\n  gt\n    /* \"#utility.yul\":2022:2078   */\n  iszero\n  tag_59\n  jumpi\n    /* \"#utility.yul\":2058:2076   */\n  tag_60\n  tag_61\n  jump\t// in\ntag_60:\n    /* \"#utility.yul\":2022:2078   */\ntag_59:\n    /* \"#utility.yul\":2096:2125   */\n  tag_62\n    /* \"#utility.yul\":2118:2124   */\n  dup3\n    /* \"#utility.yul\":2096:2125   */\n  tag_63\n  jump\t// in\ntag_62:\n    /* \"#utility.yul\":2088:2125   */\n  swap1\n  pop\n    /* \"#utility.yul\":2180:2184   */\n  0x20\n    /* \"#utility.yul\":2174:2178   */\n  dup2\n    /* \"#utility.yul\":2170:2185   */\n  add\n    /* \"#utility.yul\":2162:2185   */\n  swap1\n  pop\n    /* \"#utility.yul\":1884:2192   */\n  swap2\n  swap1\n  pop\n  jump\t// out\n    /* \"#utility.yul\":2198:2505   */\ntag_34:\n    /* \"#utility.yul\":2266:2267   */\n  0x00\n    /* \"#utility.yul\":2276:2389   */\ntag_65:\n    /* \"#utility.yul\":2290:2296   */\n  dup4\n    /* \"#utility.yul\":2287:2288   */\n  dup2\n    /* \"#utility.yul\":2284:2297   */\n  lt\n    /* \"#utility.yul\":2276:2389   */\n  iszero\n  tag_67\n  jumpi\n    /* \"#utility.yul\":2375:2376   */\n  dup1\n    /* \"#utility.yul\":2370:2373   */\n  dup3\n    /* \"#utility.yul\":2366:2377   */\n  add\n    /* \"#utility.yul\":2360:2378   */\n  mload\n    /* \"#utility.yul\":2356:2357   */\n  dup2\n    /* \"#utility.yul\":2351:2354   */\n  dup5\n    /* \"#utility.yul\":2347:2358   */\n  add\n    /* \"#utility.yul\":2340:2379   */\n  mstore\n    /* \"#utility.yul\":2312:2314   */\n  0x20\n    /* \"#utility.yul\":2309:2310   */\n  dup2\n    /* \"#utility.yul\":2305:2315   */\n  add\n    /* \"#utility.yul\":2300:2315   */\n  swap1\n  pop\n    /* \"#utility.yul\":2276:2389   */\n  jump(tag_65)\ntag_67:\n    /* \"#utility.yul\":2407:2413   */\n  dup4\n    /* \"#utility.yul\":2404:2405   */\n  dup2\n    /* \"#utility.yul\":2401:2414   */\n  gt\n    /* \"#utility.yul\":2398:2499   */\n  iszero\n  tag_68\n  jumpi\n    /* \"#utility.yul\":2487:2488   */\n  0x00\n    /* \"#utility.yul\":2478:2484   */\n  dup5\n    /* \"#utility.yul\":2473:2476   */\n  dup5\n    /* \"#utility.yul\":2469:2485   */\n  add\n    /* \"#utility.yul\":2462:2489   */\n  mstore\n    /* \"#utility.yul\":2398:2499   */\ntag_68:\n    /* \"#utility.yul\":2247:2505   */\n  pop\n    /* \"#utility.yul\":2198:2505   */\n  pop\n  pop\n  pop\n  jump\t// out\n    /* \"#utility.yul\":2511:2831   */\ntag_13:\n    /* \"#utility.yul\":2555:2561   */\n  0x00\n    /* \"#utility.yul\":2592:2593   */\n  0x02\n    /* \"#utility.yul\":2586:2590   */\n  dup3\n    /* \"#utility.yul\":2582:2594   */\n  div\n    /* \"#utility.yul\":2572:2594   */\n  swap1\n  pop\n    /* \"#utility.yul\":2639:2640   */\n  0x01\n    /* \"#utility.yul\":2633:2637   */\n  dup3\n    /* \"#utility.yul\":2629:2641   */\n  and\n    /* \"#utility.yul\":2660:2678   */\n  dup1\n    /* \"#utility.yul\":2650:2731   */\n  tag_70\n  jumpi\n    /* \"#utility.yul\":2716:2720   */\n  0x7f\n    /* \"#utility.yul\":2708:2714   */\n  dup3\n    /* \"#utility.yul\":2704:2721   */\n  and\n    /* \"#utility.yul\":2694:2721   */\n  swap2\n  pop\n    /* \"#utility.yul\":2650:2731   */\ntag_70:\n    /* \"#utility.yul\":2778:2780   */\n  0x20\n    /* \"#utility.yul\":2770:2776   */\n  dup3\n    /* \"#utility.yul\":2767:2781   */\n  lt\n    /* \"#utility.yul\":2747:2765   */\n  dup2\n    /* \"#utility.yul\":2744:2782   */\n  eq\n    /* \"#utility.yul\":2741:2825   */\n  iszero\n  tag_71\n  jumpi\n    /* \"#utility.yul\":2797:2815   */\n  tag_72\n  tag_73\n  jump\t// in\ntag_72:\n    /* \"#utility.yul\":2741:2825   */\ntag_71:\n    /* \"#utility.yul\":2562:2831   */\n  pop\n    /* \"#utility.yul\":2511:2831   */\n  swap2\n  swap1\n  pop\n  jump\t// out\n    /* \"#utility.yul\":2837:3118   */\ntag_56:\n    /* \"#utility.yul\":2920:2947   */\n  tag_75\n    /* \"#utility.yul\":2942:2946   */\n  dup3\n    /* \"#utility.yul\":2920:2947   */\n  tag_63\n  jump\t// in\ntag_75:\n    /* \"#utility.yul\":2912:2918   */\n  dup2\n    /* \"#utility.yul\":2908:2948   */\n  add\n    /* \"#utility.yul\":3050:3056   */\n  dup2\n    /* \"#utility.yul\":3038:3048   */\n  dup2\n    /* \"#utility.yul\":3035:3057   */\n  lt\n    /* \"#utility.yul\":3014:3032   */\n  0xffffffffffffffff\n    /* \"#utility.yul\":3002:3012   */\n  dup3\n    /* \"#utility.yul\":2999:3033   */\n  gt\n    /* \"#utility.yul\":2996:3058   */\n  or\n    /* \"#utility.yul\":2993:3081   */\n  iszero\n  tag_76\n  jumpi\n    /* \"#utility.yul\":3061:3079   */\n  tag_77\n  tag_61\n  jump\t// in\ntag_77:\n    /* \"#utility.yul\":2993:3081   */\ntag_76:\n    /* \"#utility.yul\":3101:3111   */\n  dup1\n    /* \"#utility.yul\":3097:3099   */\n  0x40\n    /* \"#utility.yul\":3090:3112   */\n  mstore\n    /* \"#utility.yul\":2880:3118   */\n  pop\n    /* \"#utility.yul\":2837:3118   */\n  pop\n  pop\n  jump\t// out\n    /* \"#utility.yul\":3124:3304   */\ntag_73:\n    /* \"#utility.yul\":3172:3249   */\n  0x4e487b7100000000000000000000000000000000000000000000000000000000\n    /* \"#utility.yul\":3169:3170   */\n  0x00\n    /* \"#utility.yul\":3162:3250   */\n  mstore\n    /* \"#utility.yul\":3269:3273   */\n  0x22\n    /* \"#utility.yul\":3266:3267   */\n  0x04\n    /* \"#utility.yul\":3259:3274   */\n  mstore\n    /* \"#utility.yul\":3293:3297   */\n  0x24\n    /* \"#utility.yul\":3290:3291   */\n  0x00\n    /* \"#utility.yul\":3283:3298   */\n  revert\n    /* \"#utility.yul\":3310:3490   */\ntag_61:\n    /* \"#utility.yul\":3358:3435   */\n  0x4e487b7100000000000000000000000000000000000000000000000000000000\n    /* \"#utility.yul\":3355:3356   */\n  0x00\n    /* \"#utility.yul\":3348:3436   */\n  mstore\n    /* \"#utility.yul\":3455:3459   */\n  0x41\n    /* \"#utility.yul\":3452:3453   */\n  0x04\n    /* \"#utility.yul\":3445:3460   */\n  mstore\n    /* \"#utility.yul\":3479:3483   */\n  0x24\n    /* \"#utility.yul\":3476:3477   */\n  0x00\n    /* \"#utility.yul\":3469:3484   */\n  revert\n    /* \"#utility.yul\":3496:3613   */\ntag_39:\n    /* \"#utility.yul\":3605:3606   */\n  0x00\n    /* \"#utility.yul\":3602:3603   */\n  dup1\n    /* \"#utility.yul\":3595:3607   */\n  revert\n    /* \"#utility.yul\":3619:3736   */\ntag_32:\n    /* \"#utility.yul\":3728:3729   */\n  0x00\n    /* \"#utility.yul\":3725:3726   */\n  dup1\n    /* \"#utility.yul\":3718:3730   */\n  revert\n    /* \"#utility.yul\":3742:3859   */\ntag_47:\n    /* \"#utility.yul\":3851:3852   */\n  0x00\n    /* \"#utility.yul\":3848:3849   */\n  dup1\n    /* \"#utility.yul\":3841:3853   */\n  revert\n    /* \"#utility.yul\":3865:3982   */\ntag_44:\n    /* \"#utility.yul\":3974:3975   */\n  0x00\n    /* \"#utility.yul\":3971:3972   */\n  dup1\n    /* \"#utility.yul\":3964:3976   */\n  revert\n    /* \"#utility.yul\":3988:4090   */\ntag_63:\n    /* \"#utility.yul\":4029:4035   */\n  0x00\n    /* \"#utility.yul\":4080:4082   */\n  0x1f\n    /* \"#utility.yul\":4076:4083   */\n  not\n    /* \"#utility.yul\":4071:4073   */\n  0x1f\n    /* \"#utility.yul\":4064:4069   */\n  dup4\n    /* \"#utility.yul\":4060:4074   */\n  add\n    /* \"#utility.yul\":4056:4084   */\n  and\n    /* \"#utility.yul\":4046:4084   */\n  swap1\n  pop\n    /* \"#utility.yul\":3988:4090   */\n  swap2\n  swap1\n  pop\n  jump\t// out\n    /* \"contracts/ERC20Token.sol\":539:3085  contract ERC20Token is Context, ERC20 {\r... */\ntag_11:\n  dataSize(sub_0)\n  dup1\n  dataOffset(sub_0)\n  0x00\n  codecopy\n  0x00\n  return\nstop\n\nsub_0: assembly {\n        /* \"contracts/ERC20Token.sol\":539:3085  contract ERC20Token is Context, ERC20 {\r... */\n      mstore(0x40, 0x80)\n      callvalue\n      dup1\n      iszero\n      tag_1\n      jumpi\n      0x00\n      dup1\n      revert\n    tag_1:\n      pop\n      jumpi(tag_2, lt(calldatasize, 0x04))\n      shr(0xe0, calldataload(0x00))\n      dup1\n      0x40c10f19\n      gt\n      tag_18\n      jumpi\n      dup1\n      0xa457c2d7\n      gt\n      tag_19\n      jumpi\n      dup1\n      0xa457c2d7\n      eq\n      tag_14\n      jumpi\n      dup1\n      0xa9059cbb\n      eq\n      tag_15\n      jumpi\n      dup1\n      0xbb9c1ad9\n      eq\n      tag_16\n      jumpi\n      dup1\n      0xdd62ed3e\n      eq\n      tag_17\n      jumpi\n      jump(tag_2)\n    tag_19:\n      dup1\n      0x40c10f19\n      eq\n      tag_10\n      jumpi\n      dup1\n      0x42966c68\n      eq\n      tag_11\n      jumpi\n      dup1\n      0x70a08231\n      eq\n      tag_12\n      jumpi\n      dup1\n      0x95d89b41\n      eq\n      tag_13\n      jumpi\n      jump(tag_2)\n    tag_18:\n      dup1\n      0x23b872dd\n      gt\n      tag_20\n      jumpi\n      dup1\n      0x23b872dd\n      eq\n      tag_6\n      jumpi\n      dup1\n      0x313ce567\n      eq\n      tag_7\n      jumpi\n      dup1\n      0x39509351\n      eq\n      tag_8\n      jumpi\n      dup1\n      0x3f50a705\n      eq\n      tag_9\n      jumpi\n      jump(tag_2)\n    tag_20:\n      dup1\n      0x06fdde03\n      eq\n      tag_3\n      jumpi\n      dup1\n      0x095ea7b3\n      eq\n      tag_4\n      jumpi\n      dup1\n      0x18160ddd\n      eq\n      tag_5\n      jumpi\n    tag_2:\n      0x00\n      dup1\n      revert\n        /* \"@openzeppelin/contracts/token/ERC20/ERC20.sol\":2154:2252  function name() public view virtual override returns (string memory) {... */\n    tag_3:\n      tag_21\n      tag_22\n      jump\t// in\n    tag_21:\n      mload(0x40)\n      tag_23\n      swap2\n      swap1\n      tag_24\n      jump\t// in\n    tag_23:\n      mload(0x40)\n      dup1\n      swap2\n      sub\n      swap1\n      return\n        /* \"@openzeppelin/contracts/token/ERC20/ERC20.sol\":4431:4628  function approve(address spender, uint256 amount) public virtual override returns (bool) {... */\n    tag_4:\n      tag_25\n      0x04\n      dup1\n      calldatasize\n      sub\n      dup2\n      add\n      swap1\n      tag_26\n      swap2\n      swap1\n      tag_27\n      jump\t// in\n    tag_26:\n      tag_28\n      jump\t// in\n    tag_25:\n      mload(0x40)\n      tag_29\n      swap2\n      swap1\n      tag_30\n      jump\t// in\n    tag_29:\n      mload(0x40)\n      dup1\n      swap2\n      sub\n      swap1\n      return\n        /* \"@openzeppelin/contracts/token/ERC20/ERC20.sol\":3242:3348  function totalSupply() public view virtual override returns (uint256) {... */\n    tag_5:\n      tag_31\n      tag_32\n      jump\t// in\n    tag_31:\n      mload(0x40)\n      tag_33\n      swap2\n      swap1\n      tag_34\n      jump\t// in\n    tag_33:\n      mload(0x40)\n      dup1\n      swap2\n      sub\n      swap1\n      return\n        /* \"@openzeppelin/contracts/token/ERC20/ERC20.sol\":5190:5476  function transferFrom(... */\n    tag_6:\n      tag_35\n      0x04\n      dup1\n      calldatasize\n      sub\n      dup2\n      add\n      swap1\n      tag_36\n      swap2\n      swap1\n      tag_37\n      jump\t// in\n    tag_36:\n      tag_38\n      jump\t// in\n    tag_35:\n      mload(0x40)\n      tag_39\n      swap2\n      swap1\n      tag_30\n      jump\t// in\n    tag_39:\n      mload(0x40)\n      dup1\n      swap2\n      sub\n      swap1\n      return\n        /* \"@openzeppelin/contracts/token/ERC20/ERC20.sol\":3091:3182  function decimals() public view virtual override returns (uint8) {... */\n    tag_7:\n      tag_40\n      tag_41\n      jump\t// in\n    tag_40:\n      mload(0x40)\n      tag_42\n      swap2\n      swap1\n      tag_43\n      jump\t// in\n    tag_42:\n      mload(0x40)\n      dup1\n      swap2\n      sub\n      swap1\n      return\n        /* \"@openzeppelin/contracts/token/ERC20/ERC20.sol\":5871:6105  function increaseAllowance(address spender, uint256 addedValue) public virtual returns (bool) {... */\n    tag_8:\n      tag_44\n      0x04\n      dup1\n      calldatasize\n      sub\n      dup2\n      add\n      swap1\n      tag_45\n      swap2\n      swap1\n      tag_27\n      jump\t// in\n    tag_45:\n      tag_46\n      jump\t// in\n    tag_44:\n      mload(0x40)\n      tag_47\n      swap2\n      swap1\n      tag_30\n      jump\t// in\n    tag_47:\n      mload(0x40)\n      dup1\n      swap2\n      sub\n      swap1\n      return\n        /* \"contracts/ERC20Token.sol\":1950:2271  function transferWithFee(address to, uint256 amount, uint256 fee, address charger) public returns (bool) {\r... */\n    tag_9:\n      tag_48\n      0x04\n      dup1\n      calldatasize\n      sub\n      dup2\n      add\n      swap1\n      tag_49\n      swap2\n      swap1\n      tag_50\n      jump\t// in\n    tag_49:\n      tag_51\n      jump\t// in\n    tag_48:\n      mload(0x40)\n      tag_52\n      swap2\n      swap1\n      tag_30\n      jump\t// in\n    tag_52:\n      mload(0x40)\n      dup1\n      swap2\n      sub\n      swap1\n      return\n        /* \"contracts/ERC20Token.sol\":1332:1427  function mint(address account, uint256 amount) public {\r... */\n    tag_10:\n      tag_53\n      0x04\n      dup1\n      calldatasize\n      sub\n      dup2\n      add\n      swap1\n      tag_54\n      swap2\n      swap1\n      tag_27\n      jump\t// in\n    tag_54:\n      tag_55\n      jump\t// in\n    tag_53:\n      stop\n        /* \"contracts/ERC20Token.sol\":1543:1626  function burn(uint256 amount) public {\r... */\n    tag_11:\n      tag_56\n      0x04\n      dup1\n      calldatasize\n      sub\n      dup2\n      add\n      swap1\n      tag_57\n      swap2\n      swap1\n      tag_58\n      jump\t// in\n    tag_57:\n      tag_59\n      jump\t// in\n    tag_56:\n      stop\n        /* \"@openzeppelin/contracts/token/ERC20/ERC20.sol\":3406:3531  function balanceOf(address account) public view virtual override returns (uint256) {... */\n    tag_12:\n      tag_60\n      0x04\n      dup1\n      calldatasize\n      sub\n      dup2\n      add\n      swap1\n      tag_61\n      swap2\n      swap1\n      tag_62\n      jump\t// in\n    tag_61:\n      tag_63\n      jump\t// in\n    tag_60:\n      mload(0x40)\n      tag_64\n      swap2\n      swap1\n      tag_34\n      jump\t// in\n    tag_64:\n      mload(0x40)\n      dup1\n      swap2\n      sub\n      swap1\n      return\n        /* \"@openzeppelin/contracts/token/ERC20/ERC20.sol\":2365:2467  function symbol() public view virtual override returns (string memory) {... */\n    tag_13:\n      tag_65\n      tag_66\n      jump\t// in\n    tag_65:\n      mload(0x40)\n      tag_67\n      swap2\n      swap1\n      tag_24\n      jump\t// in\n    tag_67:\n      mload(0x40)\n      dup1\n      swap2\n      sub\n      swap1\n      return\n        /* \"@openzeppelin/contracts/token/ERC20/ERC20.sol\":6592:7019  function decreaseAllowance(address spender, uint256 subtractedValue) public virtual returns (bool) {... */\n    tag_14:\n      tag_68\n      0x04\n      dup1\n      calldatasize\n      sub\n      dup2\n      add\n      swap1\n      tag_69\n      swap2\n      swap1\n      tag_27\n      jump\t// in\n    tag_69:\n      tag_70\n      jump\t// in\n    tag_68:\n      mload(0x40)\n      tag_71\n      swap2\n      swap1\n      tag_30\n      jump\t// in\n    tag_71:\n      mload(0x40)\n      dup1\n      swap2\n      sub\n      swap1\n      return\n        /* \"@openzeppelin/contracts/token/ERC20/ERC20.sol\":3727:3916  function transfer(address to, uint256 amount) public virtual override returns (bool) {... */\n    tag_15:\n      tag_72\n      0x04\n      dup1\n      calldatasize\n      sub\n      dup2\n      add\n      swap1\n      tag_73\n      swap2\n      swap1\n      tag_27\n      jump\t// in\n    tag_73:\n      tag_74\n      jump\t// in\n    tag_72:\n      mload(0x40)\n      tag_75\n      swap2\n      swap1\n      tag_30\n      jump\t// in\n    tag_75:\n      mload(0x40)\n      dup1\n      swap2\n      sub\n      swap1\n      return\n        /* \"contracts/ERC20Token.sol\":2593:3082  function transferWithTokenBurn(address to, uint256 amount, uint256 burnAmount) public returns (bool) {\r... */\n    tag_16:\n      tag_76\n      0x04\n      dup1\n      calldatasize\n      sub\n      dup2\n      add\n      swap1\n      tag_77\n      swap2\n      swap1\n      tag_78\n      jump\t// in\n    tag_77:\n      tag_79\n      jump\t// in\n    tag_76:\n      mload(0x40)\n      tag_80\n      swap2\n      swap1\n      tag_30\n      jump\t// in\n    tag_80:\n      mload(0x40)\n      dup1\n      swap2\n      sub\n      swap1\n      return\n        /* \"@openzeppelin/contracts/token/ERC20/ERC20.sol\":3974:4123  function allowance(address owner, address spender) public view virtual override returns (uint256) {... */\n    tag_17:\n      tag_81\n      0x04\n      dup1\n      calldatasize\n      sub\n      dup2\n      add\n      swap1\n      tag_82\n      swap2\n      swap1\n      tag_83\n      jump\t// in\n    tag_82:\n      tag_84\n      jump\t// in\n    tag_81:\n      mload(0x40)\n      tag_85\n      swap2\n      swap1\n      tag_34\n      jump\t// in\n    tag_85:\n      mload(0x40)\n      dup1\n      swap2\n      sub\n      swap1\n      return\n        /* \"@openzeppelin/contracts/token/ERC20/ERC20.sol\":2154:2252  function name() public view virtual override returns (string memory) {... */\n    tag_22:\n        /* \"@openzeppelin/contracts/token/ERC20/ERC20.sol\":2208:2221  string memory */\n      0x60\n        /* \"@openzeppelin/contracts/token/ERC20/ERC20.sol\":2240:2245  _name */\n      0x03\n        /* \"@openzeppelin/contracts/token/ERC20/ERC20.sol\":2233:2245  return _name */\n      dup1\n      sload\n      tag_87\n      swap1\n      tag_88\n      jump\t// in\n    tag_87:\n      dup1\n      0x1f\n      add\n      0x20\n      dup1\n      swap2\n      div\n      mul\n      0x20\n      add\n      mload(0x40)\n      swap1\n      dup2\n      add\n      0x40\n      mstore\n      dup1\n      swap3\n      swap2\n      swap1\n      dup2\n      dup2\n      mstore\n      0x20\n      add\n      dup3\n      dup1\n      sload\n      tag_89\n      swap1\n      tag_88\n      jump\t// in\n    tag_89:\n      dup1\n      iszero\n      tag_90\n      jumpi\n      dup1\n      0x1f\n      lt\n      tag_91\n      jumpi\n      0x0100\n      dup1\n      dup4\n      sload\n      div\n      mul\n      dup4\n      mstore\n      swap2\n      0x20\n      add\n      swap2\n      jump(tag_90)\n    tag_91:\n      dup3\n      add\n      swap2\n      swap1\n      0x00\n      mstore\n      keccak256(0x00, 0x20)\n      swap1\n    tag_92:\n      dup2\n      sload\n      dup2\n      mstore\n      swap1\n      0x01\n      add\n      swap1\n      0x20\n      add\n      dup1\n      dup4\n      gt\n      tag_92\n      jumpi\n      dup3\n      swap1\n      sub\n      0x1f\n      and\n      dup3\n      add\n      swap2\n    tag_90:\n      pop\n      pop\n      pop\n      pop\n      pop\n      swap1\n      pop\n        /* \"@openzeppelin/contracts/token/ERC20/ERC20.sol\":2154:2252  function name() public view virtual override returns (string memory) {... */\n      swap1\n      jump\t// out\n        /* \"@openzeppelin/contracts/token/ERC20/ERC20.sol\":4431:4628  function approve(address spender, uint256 amount) public virtual override returns (bool) {... */\n    tag_28:\n        /* \"@openzeppelin/contracts/token/ERC20/ERC20.sol\":4514:4518  bool */\n      0x00\n        /* \"@openzeppelin/contracts/token/ERC20/ERC20.sol\":4530:4543  address owner */\n      dup1\n        /* \"@openzeppelin/contracts/token/ERC20/ERC20.sol\":4546:4558  _msgSender() */\n      tag_94\n        /* \"@openzeppelin/contracts/token/ERC20/ERC20.sol\":4546:4556  _msgSender */\n      tag_95\n        /* \"@openzeppelin/contracts/token/ERC20/ERC20.sol\":4546:4558  _msgSender() */\n      jump\t// in\n    tag_94:\n        /* \"@openzeppelin/contracts/token/ERC20/ERC20.sol\":4530:4558  address owner = _msgSender() */\n      swap1\n      pop\n        /* \"@openzeppelin/contracts/token/ERC20/ERC20.sol\":4568:4600  _approve(owner, spender, amount) */\n      tag_96\n        /* \"@openzeppelin/contracts/token/ERC20/ERC20.sol\":4577:4582  owner */\n      dup2\n        /* \"@openzeppelin/contracts/token/ERC20/ERC20.sol\":4584:4591  spender */\n      dup6\n        /* \"@openzeppelin/contracts/token/ERC20/ERC20.sol\":4593:4599  amount */\n      dup6\n        /* \"@openzeppelin/contracts/token/ERC20/ERC20.sol\":4568:4576  _approve */\n      tag_97\n        /* \"@openzeppelin/contracts/token/ERC20/ERC20.sol\":4568:4600  _approve(owner, spender, amount) */\n      jump\t// in\n    tag_96:\n        /* \"@openzeppelin/contracts/token/ERC20/ERC20.sol\":4617:4621  true */\n      0x01\n        /* \"@openzeppelin/contracts/token/ERC20/ERC20.sol\":4610:4621  return true */\n      swap2\n      pop\n      pop\n        /* \"@openzeppelin/contracts/token/ERC20/ERC20.sol\":4431:4628  function approve(address spender, uint256 amount) public virtual override returns (bool) {... */\n      swap3\n      swap2\n      pop\n      pop\n      jump\t// out\n        /* \"@openzeppelin/contracts/token/ERC20/ERC20.sol\":3242:3348  function totalSupply() public view virtual override returns (uint256) {... */\n    tag_32:\n        /* \"@openzeppelin/contracts/token/ERC20/ERC20.sol\":3303:3310  uint256 */\n      0x00\n        /* \"@openzeppelin/contracts/token/ERC20/ERC20.sol\":3329:3341  _totalSupply */\n      sload(0x02)\n        /* \"@openzeppelin/contracts/token/ERC20/ERC20.sol\":3322:3341  return _totalSupply */\n      swap1\n      pop\n        /* \"@openzeppelin/contracts/token/ERC20/ERC20.sol\":3242:3348  function totalSupply() public view virtual override returns (uint256) {... */\n      swap1\n      jump\t// out\n        /* \"@openzeppelin/contracts/token/ERC20/ERC20.sol\":5190:5476  function transferFrom(... */\n    tag_38:\n        /* \"@openzeppelin/contracts/token/ERC20/ERC20.sol\":5317:5321  bool */\n      0x00\n        /* \"@openzeppelin/contracts/token/ERC20/ERC20.sol\":5333:5348  address spender */\n      dup1\n        /* \"@openzeppelin/contracts/token/ERC20/ERC20.sol\":5351:5363  _msgSender() */\n      tag_100\n        /* \"@openzeppelin/contracts/token/ERC20/ERC20.sol\":5351:5361  _msgSender */\n      tag_95\n        /* \"@openzeppelin/contracts/token/ERC20/ERC20.sol\":5351:5363  _msgSender() */\n      jump\t// in\n    tag_100:\n        /* \"@openzeppelin/contracts/token/ERC20/ERC20.sol\":5333:5363  address spender = _msgSender() */\n      swap1\n      pop\n        /* \"@openzeppelin/contracts/token/ERC20/ERC20.sol\":5373:5411  _spendAllowance(from, spender, amount) */\n      tag_101\n        /* \"@openzeppelin/contracts/token/ERC20/ERC20.sol\":5389:5393  from */\n      dup6\n        /* \"@openzeppelin/contracts/token/ERC20/ERC20.sol\":5395:5402  spender */\n      dup3\n        /* \"@openzeppelin/contracts/token/ERC20/ERC20.sol\":5404:5410  amount */\n      dup6\n        /* \"@openzeppelin/contracts/token/ERC20/ERC20.sol\":5373:5388  _spendAllowance */\n      tag_102\n        /* \"@openzeppelin/contracts/token/ERC20/ERC20.sol\":5373:5411  _spendAllowance(from, spender, amount) */\n      jump\t// in\n    tag_101:\n        /* \"@openzeppelin/contracts/token/ERC20/ERC20.sol\":5421:5448  _transfer(from, to, amount) */\n      tag_103\n        /* \"@openzeppelin/contracts/token/ERC20/ERC20.sol\":5431:5435  from */\n      dup6\n        /* \"@openzeppelin/contracts/token/ERC20/ERC20.sol\":5437:5439  to */\n      dup6\n        /* \"@openzeppelin/contracts/token/ERC20/ERC20.sol\":5441:5447  amount */\n      dup6\n        /* \"@openzeppelin/contracts/token/ERC20/ERC20.sol\":5421:5430  _transfer */\n      tag_104\n        /* \"@openzeppelin/contracts/token/ERC20/ERC20.sol\":5421:5448  _transfer(from, to, amount) */\n      jump\t// in\n    tag_103:\n        /* \"@openzeppelin/contracts/token/ERC20/ERC20.sol\":5465:5469  true */\n      0x01\n        /* \"@openzeppelin/contracts/token/ERC20/ERC20.sol\":5458:5469  return true */\n      swap2\n      pop\n      pop\n        /* \"@openzeppelin/contracts/token/ERC20/ERC20.sol\":5190:5476  function transferFrom(... */\n      swap4\n      swap3\n      pop\n      pop\n      pop\n      jump\t// out\n        /* \"@openzeppelin/contracts/token/ERC20/ERC20.sol\":3091:3182  function decimals() public view virtual override returns (uint8) {... */\n    tag_41:\n        /* \"@openzeppelin/contracts/token/ERC20/ERC20.sol\":3149:3154  uint8 */\n      0x00\n        /* \"@openzeppelin/contracts/token/ERC20/ERC20.sol\":3173:3175  18 */\n      0x12\n        /* \"@openzeppelin/contracts/token/ERC20/ERC20.sol\":3166:3175  return 18 */\n      swap1\n      pop\n        /* \"@openzeppelin/contracts/token/ERC20/ERC20.sol\":3091:3182  function decimals() public view virtual override returns (uint8) {... */\n      swap1\n      jump\t// out\n        /* \"@openzeppelin/contracts/token/ERC20/ERC20.sol\":5871:6105  function increaseAllowance(address spender, uint256 addedValue) public virtual returns (bool) {... */\n    tag_46:\n        /* \"@openzeppelin/contracts/token/ERC20/ERC20.sol\":5959:5963  bool */\n      0x00\n        /* \"@openzeppelin/contracts/token/ERC20/ERC20.sol\":5975:5988  address owner */\n      dup1\n        /* \"@openzeppelin/contracts/token/ERC20/ERC20.sol\":5991:6003  _msgSender() */\n      tag_107\n        /* \"@openzeppelin/contracts/token/ERC20/ERC20.sol\":5991:6001  _msgSender */\n      tag_95\n        /* \"@openzeppelin/contracts/token/ERC20/ERC20.sol\":5991:6003  _msgSender() */\n      jump\t// in\n    tag_107:\n        /* \"@openzeppelin/contracts/token/ERC20/ERC20.sol\":5975:6003  address owner = _msgSender() */\n      swap1\n      pop\n        /* \"@openzeppelin/contracts/token/ERC20/ERC20.sol\":6013:6077  _approve(owner, spender, allowance(owner, spender) + addedValue) */\n      tag_108\n        /* \"@openzeppelin/contracts/token/ERC20/ERC20.sol\":6022:6027  owner */\n      dup2\n        /* \"@openzeppelin/contracts/token/ERC20/ERC20.sol\":6029:6036  spender */\n      dup6\n        /* \"@openzeppelin/contracts/token/ERC20/ERC20.sol\":6066:6076  addedValue */\n      dup6\n        /* \"@openzeppelin/contracts/token/ERC20/ERC20.sol\":6038:6063  allowance(owner, spender) */\n      tag_109\n        /* \"@openzeppelin/contracts/token/ERC20/ERC20.sol\":6048:6053  owner */\n      dup6\n        /* \"@openzeppelin/contracts/token/ERC20/ERC20.sol\":6055:6062  spender */\n      dup10\n        /* \"@openzeppelin/contracts/token/ERC20/ERC20.sol\":6038:6047  allowance */\n      tag_84\n        /* \"@openzeppelin/contracts/token/ERC20/ERC20.sol\":6038:6063  allowance(owner, spender) */\n      jump\t// in\n    tag_109:\n        /* \"@openzeppelin/contracts/token/ERC20/ERC20.sol\":6038:6076  allowance(owner, spender) + addedValue */\n      tag_110\n      swap2\n      swap1\n      tag_111\n      jump\t// in\n    tag_110:\n        /* \"@openzeppelin/contracts/token/ERC20/ERC20.sol\":6013:6021  _approve */\n      tag_97\n        /* \"@openzeppelin/contracts/token/ERC20/ERC20.sol\":6013:6077  _approve(owner, spender, allowance(owner, spender) + addedValue) */\n      jump\t// in\n    tag_108:\n        /* \"@openzeppelin/contracts/token/ERC20/ERC20.sol\":6094:6098  true */\n      0x01\n        /* \"@openzeppelin/contracts/token/ERC20/ERC20.sol\":6087:6098  return true */\n      swap2\n      pop\n      pop\n        /* \"@openzeppelin/contracts/token/ERC20/ERC20.sol\":5871:6105  function increaseAllowance(address spender, uint256 addedValue) public virtual returns (bool) {... */\n      swap3\n      swap2\n      pop\n      pop\n      jump\t// out\n        /* \"contracts/ERC20Token.sol\":1950:2271  function transferWithFee(address to, uint256 amount, uint256 fee, address charger) public returns (bool) {\r... */\n    tag_51:\n        /* \"contracts/ERC20Token.sol\":2049:2053  bool */\n      0x00\n        /* \"contracts/ERC20Token.sol\":2080:2081  0 */\n      dup1\n        /* \"contracts/ERC20Token.sol\":2074:2077  fee */\n      dup4\n        /* \"contracts/ERC20Token.sol\":2074:2081  fee > 0 */\n      gt\n        /* \"contracts/ERC20Token.sol\":2066:2122  require(fee > 0, \"Fee amount must be greater than zero\") */\n      tag_113\n      jumpi\n      mload(0x40)\n      0x08c379a000000000000000000000000000000000000000000000000000000000\n      dup2\n      mstore\n      0x04\n      add\n      tag_114\n      swap1\n      tag_115\n      jump\t// in\n    tag_114:\n      mload(0x40)\n      dup1\n      swap2\n      sub\n      swap1\n      revert\n    tag_113:\n        /* \"contracts/ERC20Token.sol\":2133:2146  address owner */\n      0x00\n        /* \"contracts/ERC20Token.sol\":2149:2161  _msgSender() */\n      tag_116\n        /* \"contracts/ERC20Token.sol\":2149:2159  _msgSender */\n      tag_95\n        /* \"contracts/ERC20Token.sol\":2149:2161  _msgSender() */\n      jump\t// in\n    tag_116:\n        /* \"contracts/ERC20Token.sol\":2133:2161  address owner = _msgSender() */\n      swap1\n      pop\n        /* \"contracts/ERC20Token.sol\":2172:2202  _transfer(owner, charger, fee) */\n      tag_117\n        /* \"contracts/ERC20Token.sol\":2182:2187  owner */\n      dup2\n        /* \"contracts/ERC20Token.sol\":2189:2196  charger */\n      dup5\n        /* \"contracts/ERC20Token.sol\":2198:2201  fee */\n      dup7\n        /* \"contracts/ERC20Token.sol\":2172:2181  _transfer */\n      tag_104\n        /* \"contracts/ERC20Token.sol\":2172:2202  _transfer(owner, charger, fee) */\n      jump\t// in\n    tag_117:\n        /* \"contracts/ERC20Token.sol\":2213:2241  _transfer(owner, to, amount) */\n      tag_118\n        /* \"contracts/ERC20Token.sol\":2223:2228  owner */\n      dup2\n        /* \"contracts/ERC20Token.sol\":2230:2232  to */\n      dup8\n        /* \"contracts/ERC20Token.sol\":2234:2240  amount */\n      dup8\n        /* \"contracts/ERC20Token.sol\":2213:2222  _transfer */\n      tag_104\n        /* \"contracts/ERC20Token.sol\":2213:2241  _transfer(owner, to, amount) */\n      jump\t// in\n    tag_118:\n        /* \"contracts/ERC20Token.sol\":2259:2263  true */\n      0x01\n        /* \"contracts/ERC20Token.sol\":2252:2263  return true */\n      swap2\n      pop\n      pop\n        /* \"contracts/ERC20Token.sol\":1950:2271  function transferWithFee(address to, uint256 amount, uint256 fee, address charger) public returns (bool) {\r... */\n      swap5\n      swap4\n      pop\n      pop\n      pop\n      pop\n      jump\t// out\n        /* \"contracts/ERC20Token.sol\":1332:1427  function mint(address account, uint256 amount) public {\r... */\n    tag_55:\n        /* \"contracts/ERC20Token.sol\":1397:1419  _mint(account, amount) */\n      tag_120\n        /* \"contracts/ERC20Token.sol\":1403:1410  account */\n      dup3\n        /* \"contracts/ERC20Token.sol\":1412:1418  amount */\n      dup3\n        /* \"contracts/ERC20Token.sol\":1397:1402  _mint */\n      tag_121\n        /* \"contracts/ERC20Token.sol\":1397:1419  _mint(account, amount) */\n      jump\t// in\n    tag_120:\n        /* \"contracts/ERC20Token.sol\":1332:1427  function mint(address account, uint256 amount) public {\r... */\n      pop\n      pop\n      jump\t// out\n        /* \"contracts/ERC20Token.sol\":1543:1626  function burn(uint256 amount) public {\r... */\n    tag_59:\n        /* \"contracts/ERC20Token.sol\":1591:1618  _burn(_msgSender(), amount) */\n      tag_123\n        /* \"contracts/ERC20Token.sol\":1597:1609  _msgSender() */\n      tag_124\n        /* \"contracts/ERC20Token.sol\":1597:1607  _msgSender */\n      tag_95\n        /* \"contracts/ERC20Token.sol\":1597:1609  _msgSender() */\n      jump\t// in\n    tag_124:\n        /* \"contracts/ERC20Token.sol\":1611:1617  amount */\n      dup3\n        /* \"contracts/ERC20Token.sol\":1591:1596  _burn */\n      tag_125\n        /* \"contracts/ERC20Token.sol\":1591:1618  _burn(_msgSender(), amount) */\n      jump\t// in\n    tag_123:\n        /* \"contracts/ERC20Token.sol\":1543:1626  function burn(uint256 amount) public {\r... */\n      pop\n      jump\t// out\n        /* \"@openzeppelin/contracts/token/ERC20/ERC20.sol\":3406:3531  function balanceOf(address account) public view virtual override returns (uint256) {... */\n    tag_63:\n        /* \"@openzeppelin/contracts/token/ERC20/ERC20.sol\":3480:3487  uint256 */\n      0x00\n        /* \"@openzeppelin/contracts/token/ERC20/ERC20.sol\":3506:3515  _balances */\n      dup1\n        /* \"@openzeppelin/contracts/token/ERC20/ERC20.sol\":3506:3524  _balances[account] */\n      0x00\n        /* \"@openzeppelin/contracts/token/ERC20/ERC20.sol\":3516:3523  account */\n      dup4\n        /* \"@openzeppelin/contracts/token/ERC20/ERC20.sol\":3506:3524  _balances[account] */\n      0xffffffffffffffffffffffffffffffffffffffff\n      and\n      0xffffffffffffffffffffffffffffffffffffffff\n      and\n      dup2\n      mstore\n      0x20\n      add\n      swap1\n      dup2\n      mstore\n      0x20\n      add\n      0x00\n      keccak256\n      sload\n        /* \"@openzeppelin/contracts/token/ERC20/ERC20.sol\":3499:3524  return _balances[account] */\n      swap1\n      pop\n        /* \"@openzeppelin/contracts/token/ERC20/ERC20.sol\":3406:3531  function balanceOf(address account) public view virtual override returns (uint256) {... */\n      swap2\n      swap1\n      pop\n      jump\t// out\n        /* \"@openzeppelin/contracts/token/ERC20/ERC20.sol\":2365:2467  function symbol() public view virtual override returns (string memory) {... */\n    tag_66:\n        /* \"@openzeppelin/contracts/token/ERC20/ERC20.sol\":2421:2434  string memory */\n      0x60\n        /* \"@openzeppelin/contracts/token/ERC20/ERC20.sol\":2453:2460  _symbol */\n      0x04\n        /* \"@openzeppelin/contracts/token/ERC20/ERC20.sol\":2446:2460  return _symbol */\n      dup1\n      sload\n      tag_128\n      swap1\n      tag_88\n      jump\t// in\n    tag_128:\n      dup1\n      0x1f\n      add\n      0x20\n      dup1\n      swap2\n      div\n      mul\n      0x20\n      add\n      mload(0x40)\n      swap1\n      dup2\n      add\n      0x40\n      mstore\n      dup1\n      swap3\n      swap2\n      swap1\n      dup2\n      dup2\n      mstore\n      0x20\n      add\n      dup3\n      dup1\n      sload\n      tag_129\n      swap1\n      tag_88\n      jump\t// in\n    tag_129:\n      dup1\n      iszero\n      tag_130\n      jumpi\n      dup1\n      0x1f\n      lt\n      tag_131\n      jumpi\n      0x0100\n      dup1\n      dup4\n      sload\n      div\n      mul\n      dup4\n      mstore\n      swap2\n      0x20\n      add\n      swap2\n      jump(tag_130)\n    tag_131:\n      dup3\n      add\n      swap2\n      swap1\n      0x00\n      mstore\n      keccak256(0x00, 0x20)\n      swap1\n    tag_132:\n      dup2\n      sload\n      dup2\n      mstore\n      swap1\n      0x01\n      add\n      swap1\n      0x20\n      add\n      dup1\n      dup4\n      gt\n      tag_132\n      jumpi\n      dup3\n      swap1\n      sub\n      0x1f\n      and\n      dup3\n      add\n      swap2\n    tag_130:\n      pop\n      pop\n      pop\n      pop\n      pop\n      swap1\n      pop\n        /* \"@openzeppelin/contracts/token/ERC20/ERC20.sol\":2365:2467  function symbol() public view virtual override returns (string memory) {... */\n      swap1\n      jump\t// out\n        /* \"@openzeppelin/contracts/token/ERC20/ERC20.sol\":6592:7019  function decreaseAllowance(address spender, uint256 subtractedValue) public virtual returns (bool) {... */\n    tag_70:\n        /* \"@openzeppelin/contracts/token/ERC20/ERC20.sol\":6685:6689  bool */\n      0x00\n        /* \"@openzeppelin/contracts/token/ERC20/ERC20.sol\":6701:6714  address owner */\n      dup1\n        /* \"@openzeppelin/contracts/token/ERC20/ERC20.sol\":6717:6729  _msgSender() */\n      tag_134\n        /* \"@openzeppelin/contracts/token/ERC20/ERC20.sol\":6717:6727  _msgSender */\n      tag_95\n        /* \"@openzeppelin/contracts/token/ERC20/ERC20.sol\":6717:6729  _msgSender() */\n      jump\t// in\n    tag_134:\n        /* \"@openzeppelin/contracts/token/ERC20/ERC20.sol\":6701:6729  address owner = _msgSender() */\n      swap1\n      pop\n        /* \"@openzeppelin/contracts/token/ERC20/ERC20.sol\":6739:6763  uint256 currentAllowance */\n      0x00\n        /* \"@openzeppelin/contracts/token/ERC20/ERC20.sol\":6766:6791  allowance(owner, spender) */\n      tag_135\n        /* \"@openzeppelin/contracts/token/ERC20/ERC20.sol\":6776:6781  owner */\n      dup3\n        /* \"@openzeppelin/contracts/token/ERC20/ERC20.sol\":6783:6790  spender */\n      dup7\n        /* \"@openzeppelin/contracts/token/ERC20/ERC20.sol\":6766:6775  allowance */\n      tag_84\n        /* \"@openzeppelin/contracts/token/ERC20/ERC20.sol\":6766:6791  allowance(owner, spender) */\n      jump\t// in\n    tag_135:\n        /* \"@openzeppelin/contracts/token/ERC20/ERC20.sol\":6739:6791  uint256 currentAllowance = allowance(owner, spender) */\n      swap1\n      pop\n        /* \"@openzeppelin/contracts/token/ERC20/ERC20.sol\":6829:6844  subtractedValue */\n      dup4\n        /* \"@openzeppelin/contracts/token/ERC20/ERC20.sol\":6809:6825  currentAllowance */\n      dup2\n        /* \"@openzeppelin/contracts/token/ERC20/ERC20.sol\":6809:6844  currentAllowance >= subtractedValue */\n      lt\n      iszero\n        /* \"@openzeppelin/contracts/token/ERC20/ERC20.sol\":6801:6886  require(currentAllowance >= subtractedValue, \"ERC20: decreased allowance below zero\") */\n      tag_136\n      jumpi\n      mload(0x40)\n      0x08c379a000000000000000000000000000000000000000000000000000000000\n      dup2\n      mstore\n      0x04\n      add\n      tag_137\n      swap1\n      tag_138\n      jump\t// in\n    tag_137:\n      mload(0x40)\n      dup1\n      swap2\n      sub\n      swap1\n      revert\n    tag_136:\n        /* \"@openzeppelin/contracts/token/ERC20/ERC20.sol\":6920:6980  _approve(owner, spender, currentAllowance - subtractedValue) */\n      tag_139\n        /* \"@openzeppelin/contracts/token/ERC20/ERC20.sol\":6929:6934  owner */\n      dup3\n        /* \"@openzeppelin/contracts/token/ERC20/ERC20.sol\":6936:6943  spender */\n      dup7\n        /* \"@openzeppelin/contracts/token/ERC20/ERC20.sol\":6964:6979  subtractedValue */\n      dup7\n        /* \"@openzeppelin/contracts/token/ERC20/ERC20.sol\":6945:6961  currentAllowance */\n      dup5\n        /* \"@openzeppelin/contracts/token/ERC20/ERC20.sol\":6945:6979  currentAllowance - subtractedValue */\n      sub\n        /* \"@openzeppelin/contracts/token/ERC20/ERC20.sol\":6920:6928  _approve */\n      tag_97\n        /* \"@openzeppelin/contracts/token/ERC20/ERC20.sol\":6920:6980  _approve(owner, spender, currentAllowance - subtractedValue) */\n      jump\t// in\n    tag_139:\n        /* \"@openzeppelin/contracts/token/ERC20/ERC20.sol\":7008:7012  true */\n      0x01\n        /* \"@openzeppelin/contracts/token/ERC20/ERC20.sol\":7001:7012  return true */\n      swap3\n      pop\n      pop\n      pop\n        /* \"@openzeppelin/contracts/token/ERC20/ERC20.sol\":6592:7019  function decreaseAllowance(address spender, uint256 subtractedValue) public virtual returns (bool) {... */\n      swap3\n      swap2\n      pop\n      pop\n      jump\t// out\n        /* \"@openzeppelin/contracts/token/ERC20/ERC20.sol\":3727:3916  function transfer(address to, uint256 amount) public virtual override returns (bool) {... */\n    tag_74:\n        /* \"@openzeppelin/contracts/token/ERC20/ERC20.sol\":3806:3810  bool */\n      0x00\n        /* \"@openzeppelin/contracts/token/ERC20/ERC20.sol\":3822:3835  address owner */\n      dup1\n        /* \"@openzeppelin/contracts/token/ERC20/ERC20.sol\":3838:3850  _msgSender() */\n      tag_141\n        /* \"@openzeppelin/contracts/token/ERC20/ERC20.sol\":3838:3848  _msgSender */\n      tag_95\n        /* \"@openzeppelin/contracts/token/ERC20/ERC20.sol\":3838:3850  _msgSender() */\n      jump\t// in\n    tag_141:\n        /* \"@openzeppelin/contracts/token/ERC20/ERC20.sol\":3822:3850  address owner = _msgSender() */\n      swap1\n      pop\n        /* \"@openzeppelin/contracts/token/ERC20/ERC20.sol\":3860:3888  _transfer(owner, to, amount) */\n      tag_142\n        /* \"@openzeppelin/contracts/token/ERC20/ERC20.sol\":3870:3875  owner */\n      dup2\n        /* \"@openzeppelin/contracts/token/ERC20/ERC20.sol\":3877:3879  to */\n      dup6\n        /* \"@openzeppelin/contracts/token/ERC20/ERC20.sol\":3881:3887  amount */\n      dup6\n        /* \"@openzeppelin/contracts/token/ERC20/ERC20.sol\":3860:3869  _transfer */\n      tag_104\n        /* \"@openzeppelin/contracts/token/ERC20/ERC20.sol\":3860:3888  _transfer(owner, to, amount) */\n      jump\t// in\n    tag_142:\n        /* \"@openzeppelin/contracts/token/ERC20/ERC20.sol\":3905:3909  true */\n      0x01\n        /* \"@openzeppelin/contracts/token/ERC20/ERC20.sol\":3898:3909  return true */\n      swap2\n      pop\n      pop\n        /* \"@openzeppelin/contracts/token/ERC20/ERC20.sol\":3727:3916  function transfer(address to, uint256 amount) public virtual override returns (bool) {... */\n      swap3\n      swap2\n      pop\n      pop\n      jump\t// out\n        /* \"contracts/ERC20Token.sol\":2593:3082  function transferWithTokenBurn(address to, uint256 amount, uint256 burnAmount) public returns (bool) {\r... */\n    tag_79:\n        /* \"contracts/ERC20Token.sol\":2688:2692  bool */\n      0x00\n        /* \"contracts/ERC20Token.sol\":2726:2727  0 */\n      dup1\n        /* \"contracts/ERC20Token.sol\":2713:2723  burnAmount */\n      dup3\n        /* \"contracts/ERC20Token.sol\":2713:2727  burnAmount > 0 */\n      gt\n        /* \"contracts/ERC20Token.sol\":2705:2769  require(burnAmount > 0, \"Burn amount must be greater than zero\") */\n      tag_144\n      jumpi\n      mload(0x40)\n      0x08c379a000000000000000000000000000000000000000000000000000000000\n      dup2\n      mstore\n      0x04\n      add\n      tag_145\n      swap1\n      tag_146\n      jump\t// in\n    tag_145:\n      mload(0x40)\n      dup1\n      swap2\n      sub\n      swap1\n      revert\n    tag_144:\n        /* \"contracts/ERC20Token.sol\":2802:2808  amount */\n      dup3\n        /* \"contracts/ERC20Token.sol\":2788:2798  burnAmount */\n      dup3\n        /* \"contracts/ERC20Token.sol\":2788:2808  burnAmount <= amount */\n      gt\n      iszero\n        /* \"contracts/ERC20Token.sol\":2780:2874  require(burnAmount <= amount, \"Burn amount must be less than or equal to the transfer amount\") */\n      tag_147\n      jumpi\n      mload(0x40)\n      0x08c379a000000000000000000000000000000000000000000000000000000000\n      dup2\n      mstore\n      0x04\n      add\n      tag_148\n      swap1\n      tag_149\n      jump\t// in\n    tag_148:\n      mload(0x40)\n      dup1\n      swap2\n      sub\n      swap1\n      revert\n    tag_147:\n        /* \"contracts/ERC20Token.sol\":2885:2898  address owner */\n      0x00\n        /* \"contracts/ERC20Token.sol\":2901:2913  _msgSender() */\n      tag_150\n        /* \"contracts/ERC20Token.sol\":2901:2911  _msgSender */\n      tag_95\n        /* \"contracts/ERC20Token.sol\":2901:2913  _msgSender() */\n      jump\t// in\n    tag_150:\n        /* \"contracts/ERC20Token.sol\":2885:2913  address owner = _msgSender() */\n      swap1\n      pop\n        /* \"contracts/ERC20Token.sol\":2924:2947  uint256 transfterAmount */\n      0x00\n        /* \"contracts/ERC20Token.sol\":2959:2969  burnAmount */\n      dup4\n        /* \"contracts/ERC20Token.sol\":2950:2956  amount */\n      dup6\n        /* \"contracts/ERC20Token.sol\":2950:2969  amount - burnAmount */\n      tag_151\n      swap2\n      swap1\n      tag_152\n      jump\t// in\n    tag_151:\n        /* \"contracts/ERC20Token.sol\":2924:2969  uint256 transfterAmount = amount - burnAmount */\n      swap1\n      pop\n        /* \"contracts/ERC20Token.sol\":2980:3004  _burn(owner, burnAmount) */\n      tag_153\n        /* \"contracts/ERC20Token.sol\":2986:2991  owner */\n      dup3\n        /* \"contracts/ERC20Token.sol\":2993:3003  burnAmount */\n      dup6\n        /* \"contracts/ERC20Token.sol\":2980:2985  _burn */\n      tag_125\n        /* \"contracts/ERC20Token.sol\":2980:3004  _burn(owner, burnAmount) */\n      jump\t// in\n    tag_153:\n        /* \"contracts/ERC20Token.sol\":3015:3052  _transfer(owner, to, transfterAmount) */\n      tag_154\n        /* \"contracts/ERC20Token.sol\":3025:3030  owner */\n      dup3\n        /* \"contracts/ERC20Token.sol\":3032:3034  to */\n      dup8\n        /* \"contracts/ERC20Token.sol\":3036:3051  transfterAmount */\n      dup4\n        /* \"contracts/ERC20Token.sol\":3015:3024  _transfer */\n      tag_104\n        /* \"contracts/ERC20Token.sol\":3015:3052  _transfer(owner, to, transfterAmount) */\n      jump\t// in\n    tag_154:\n        /* \"contracts/ERC20Token.sol\":3070:3074  true */\n      0x01\n        /* \"contracts/ERC20Token.sol\":3063:3074  return true */\n      swap3\n      pop\n      pop\n      pop\n        /* \"contracts/ERC20Token.sol\":2593:3082  function transferWithTokenBurn(address to, uint256 amount, uint256 burnAmount) public returns (bool) {\r... */\n      swap4\n      swap3\n      pop\n      pop\n      pop\n      jump\t// out\n        /* \"@openzeppelin/contracts/token/ERC20/ERC20.sol\":3974:4123  function allowance(address owner, address spender) public view virtual override returns (uint256) {... */\n    tag_84:\n        /* \"@openzeppelin/contracts/token/ERC20/ERC20.sol\":4063:4070  uint256 */\n      0x00\n        /* \"@openzeppelin/contracts/token/ERC20/ERC20.sol\":4089:4100  _allowances */\n      0x01\n        /* \"@openzeppelin/contracts/token/ERC20/ERC20.sol\":4089:4107  _allowances[owner] */\n      0x00\n        /* \"@openzeppelin/contracts/token/ERC20/ERC20.sol\":4101:4106  owner */\n      dup5\n        /* \"@openzeppelin/contracts/token/ERC20/ERC20.sol\":4089:4107  _allowances[owner] */\n      0xffffffffffffffffffffffffffffffffffffffff\n      and\n      0xffffffffffffffffffffffffffffffffffffffff\n      and\n      dup2\n      mstore\n      0x20\n      add\n      swap1\n      dup2\n      mstore\n      0x20\n      add\n      0x00\n      keccak256\n        /* \"@openzeppelin/contracts/token/ERC20/ERC20.sol\":4089:4116  _allowances[owner][spender] */\n      0x00\n        /* \"@openzeppelin/contracts/token/ERC20/ERC20.sol\":4108:4115  spender */\n      dup4\n        /* \"@openzeppelin/contracts/token/ERC20/ERC20.sol\":4089:4116  _allowances[owner][spender] */\n      0xffffffffffffffffffffffffffffffffffffffff\n      and\n      0xffffffffffffffffffffffffffffffffffffffff\n      and\n      dup2\n      mstore\n      0x20\n      add\n      swap1\n      dup2\n      mstore\n      0x20\n      add\n      0x00\n      keccak256\n      sload\n        /* \"@openzeppelin/contracts/token/ERC20/ERC20.sol\":4082:4116  return _allowances[owner][spender] */\n      swap1\n      pop\n        /* \"@openzeppelin/contracts/token/ERC20/ERC20.sol\":3974:4123  function allowance(address owner, address spender) public view virtual override returns (uint256) {... */\n      swap3\n      swap2\n      pop\n      pop\n      jump\t// out\n        /* \"@openzeppelin/contracts/utils/Context.sol\":640:736  function _msgSender() internal view virtual returns (address) {... */\n    tag_95:\n        /* \"@openzeppelin/contracts/utils/Context.sol\":693:700  address */\n      0x00\n        /* \"@openzeppelin/contracts/utils/Context.sol\":719:729  msg.sender */\n      caller\n        /* \"@openzeppelin/contracts/utils/Context.sol\":712:729  return msg.sender */\n      swap1\n      pop\n        /* \"@openzeppelin/contracts/utils/Context.sol\":640:736  function _msgSender() internal view virtual returns (address) {... */\n      swap1\n      jump\t// out\n        /* \"@openzeppelin/contracts/token/ERC20/ERC20.sol\":10504:10874  function _approve(... */\n    tag_97:\n        /* \"@openzeppelin/contracts/token/ERC20/ERC20.sol\":10652:10653  0 */\n      0x00\n        /* \"@openzeppelin/contracts/token/ERC20/ERC20.sol\":10635:10654  owner != address(0) */\n      0xffffffffffffffffffffffffffffffffffffffff\n      and\n        /* \"@openzeppelin/contracts/token/ERC20/ERC20.sol\":10635:10640  owner */\n      dup4\n        /* \"@openzeppelin/contracts/token/ERC20/ERC20.sol\":10635:10654  owner != address(0) */\n      0xffffffffffffffffffffffffffffffffffffffff\n      and\n      eq\n      iszero\n        /* \"@openzeppelin/contracts/token/ERC20/ERC20.sol\":10627:10695  require(owner != address(0), \"ERC20: approve from the zero address\") */\n      tag_158\n      jumpi\n      mload(0x40)\n      0x08c379a000000000000000000000000000000000000000000000000000000000\n      dup2\n      mstore\n      0x04\n      add\n      tag_159\n      swap1\n      tag_160\n      jump\t// in\n    tag_159:\n      mload(0x40)\n      dup1\n      swap2\n      sub\n      swap1\n      revert\n    tag_158:\n        /* \"@openzeppelin/contracts/token/ERC20/ERC20.sol\":10732:10733  0 */\n      0x00\n        /* \"@openzeppelin/contracts/token/ERC20/ERC20.sol\":10713:10734  spender != address(0) */\n      0xffffffffffffffffffffffffffffffffffffffff\n      and\n        /* \"@openzeppelin/contracts/token/ERC20/ERC20.sol\":10713:10720  spender */\n      dup3\n        /* \"@openzeppelin/contracts/token/ERC20/ERC20.sol\":10713:10734  spender != address(0) */\n      0xffffffffffffffffffffffffffffffffffffffff\n      and\n      eq\n      iszero\n        /* \"@openzeppelin/contracts/token/ERC20/ERC20.sol\":10705:10773  require(spender != address(0), \"ERC20: approve to the zero address\") */\n      tag_161\n      jumpi\n      mload(0x40)\n      0x08c379a000000000000000000000000000000000000000000000000000000000\n      dup2\n      mstore\n      0x04\n      add\n      tag_162\n      swap1\n      tag_163\n      jump\t// in\n    tag_162:\n      mload(0x40)\n      dup1\n      swap2\n      sub\n      swap1\n      revert\n    tag_161:\n        /* \"@openzeppelin/contracts/token/ERC20/ERC20.sol\":10814:10820  amount */\n      dup1\n        /* \"@openzeppelin/contracts/token/ERC20/ERC20.sol\":10784:10795  _allowances */\n      0x01\n        /* \"@openzeppelin/contracts/token/ERC20/ERC20.sol\":10784:10802  _allowances[owner] */\n      0x00\n        /* \"@openzeppelin/contracts/token/ERC20/ERC20.sol\":10796:10801  owner */\n      dup6\n        /* \"@openzeppelin/contracts/token/ERC20/ERC20.sol\":10784:10802  _allowances[owner] */\n      0xffffffffffffffffffffffffffffffffffffffff\n      and\n      0xffffffffffffffffffffffffffffffffffffffff\n      and\n      dup2\n      mstore\n      0x20\n      add\n      swap1\n      dup2\n      mstore\n      0x20\n      add\n      0x00\n      keccak256\n        /* \"@openzeppelin/contracts/token/ERC20/ERC20.sol\":10784:10811  _allowances[owner][spender] */\n      0x00\n        /* \"@openzeppelin/contracts/token/ERC20/ERC20.sol\":10803:10810  spender */\n      dup5\n        /* \"@openzeppelin/contracts/token/ERC20/ERC20.sol\":10784:10811  _allowances[owner][spender] */\n      0xffffffffffffffffffffffffffffffffffffffff\n      and\n      0xffffffffffffffffffffffffffffffffffffffff\n      and\n      dup2\n      mstore\n      0x20\n      add\n      swap1\n      dup2\n      mstore\n      0x20\n      add\n      0x00\n      keccak256\n        /* \"@openzeppelin/contracts/token/ERC20/ERC20.sol\":10784:10820  _allowances[owner][spender] = amount */\n      dup2\n      swap1\n      sstore\n      pop\n        /* \"@openzeppelin/contracts/token/ERC20/ERC20.sol\":10851:10858  spender */\n      dup2\n        /* \"@openzeppelin/contracts/token/ERC20/ERC20.sol\":10835:10867  Approval(owner, spender, amount) */\n      0xffffffffffffffffffffffffffffffffffffffff\n      and\n        /* \"@openzeppelin/contracts/token/ERC20/ERC20.sol\":10844:10849  owner */\n      dup4\n        /* \"@openzeppelin/contracts/token/ERC20/ERC20.sol\":10835:10867  Approval(owner, spender, amount) */\n      0xffffffffffffffffffffffffffffffffffffffff\n      and\n      0x8c5be1e5ebec7d5bd14f71427d1e84f3dd0314c0f7b2291e5b200ac8c7c3b925\n        /* \"@openzeppelin/contracts/token/ERC20/ERC20.sol\":10860:10866  amount */\n      dup4\n        /* \"@openzeppelin/contracts/token/ERC20/ERC20.sol\":10835:10867  Approval(owner, spender, amount) */\n      mload(0x40)\n      tag_164\n      swap2\n      swap1\n      tag_34\n      jump\t// in\n    tag_164:\n      mload(0x40)\n      dup1\n      swap2\n      sub\n      swap1\n      log3\n        /* \"@openzeppelin/contracts/token/ERC20/ERC20.sol\":10504:10874  function _approve(... */\n      pop\n      pop\n      pop\n      jump\t// out\n        /* \"@openzeppelin/contracts/token/ERC20/ERC20.sol\":11155:11596  function _spendAllowance(... */\n    tag_102:\n        /* \"@openzeppelin/contracts/token/ERC20/ERC20.sol\":11285:11309  uint256 currentAllowance */\n      0x00\n        /* \"@openzeppelin/contracts/token/ERC20/ERC20.sol\":11312:11337  allowance(owner, spender) */\n      tag_166\n        /* \"@openzeppelin/contracts/token/ERC20/ERC20.sol\":11322:11327  owner */\n      dup5\n        /* \"@openzeppelin/contracts/token/ERC20/ERC20.sol\":11329:11336  spender */\n      dup5\n        /* \"@openzeppelin/contracts/token/ERC20/ERC20.sol\":11312:11321  allowance */\n      tag_84\n        /* \"@openzeppelin/contracts/token/ERC20/ERC20.sol\":11312:11337  allowance(owner, spender) */\n      jump\t// in\n    tag_166:\n        /* \"@openzeppelin/contracts/token/ERC20/ERC20.sol\":11285:11337  uint256 currentAllowance = allowance(owner, spender) */\n      swap1\n      pop\n        /* \"@openzeppelin/contracts/token/ERC20/ERC20.sol\":11371:11388  type(uint256).max */\n      0xffffffffffffffffffffffffffffffffffffffffffffffffffffffffffffffff\n        /* \"@openzeppelin/contracts/token/ERC20/ERC20.sol\":11351:11367  currentAllowance */\n      dup2\n        /* \"@openzeppelin/contracts/token/ERC20/ERC20.sol\":11351:11388  currentAllowance != type(uint256).max */\n      eq\n        /* \"@openzeppelin/contracts/token/ERC20/ERC20.sol\":11347:11590  if (currentAllowance != type(uint256).max) {... */\n      tag_167\n      jumpi\n        /* \"@openzeppelin/contracts/token/ERC20/ERC20.sol\":11432:11438  amount */\n      dup2\n        /* \"@openzeppelin/contracts/token/ERC20/ERC20.sol\":11412:11428  currentAllowance */\n      dup2\n        /* \"@openzeppelin/contracts/token/ERC20/ERC20.sol\":11412:11438  currentAllowance >= amount */\n      lt\n      iszero\n        /* \"@openzeppelin/contracts/token/ERC20/ERC20.sol\":11404:11472  require(currentAllowance >= amount, \"ERC20: insufficient allowance\") */\n      tag_168\n      jumpi\n      mload(0x40)\n      0x08c379a000000000000000000000000000000000000000000000000000000000\n      dup2\n      mstore\n      0x04\n      add\n      tag_169\n      swap1\n      tag_170\n      jump\t// in\n    tag_169:\n      mload(0x40)\n      dup1\n      swap2\n      sub\n      swap1\n      revert\n    tag_168:\n        /* \"@openzeppelin/contracts/token/ERC20/ERC20.sol\":11514:11565  _approve(owner, spender, currentAllowance - amount) */\n      tag_171\n        /* \"@openzeppelin/contracts/token/ERC20/ERC20.sol\":11523:11528  owner */\n      dup5\n        /* \"@openzeppelin/contracts/token/ERC20/ERC20.sol\":11530:11537  spender */\n      dup5\n        /* \"@openzeppelin/contracts/token/ERC20/ERC20.sol\":11558:11564  amount */\n      dup5\n        /* \"@openzeppelin/contracts/token/ERC20/ERC20.sol\":11539:11555  currentAllowance */\n      dup5\n        /* \"@openzeppelin/contracts/token/ERC20/ERC20.sol\":11539:11564  currentAllowance - amount */\n      sub\n        /* \"@openzeppelin/contracts/token/ERC20/ERC20.sol\":11514:11522  _approve */\n      tag_97\n        /* \"@openzeppelin/contracts/token/ERC20/ERC20.sol\":11514:11565  _approve(owner, spender, currentAllowance - amount) */\n      jump\t// in\n    tag_171:\n        /* \"@openzeppelin/contracts/token/ERC20/ERC20.sol\":11347:11590  if (currentAllowance != type(uint256).max) {... */\n    tag_167:\n        /* \"@openzeppelin/contracts/token/ERC20/ERC20.sol\":11275:11596  {... */\n      pop\n        /* \"@openzeppelin/contracts/token/ERC20/ERC20.sol\":11155:11596  function _spendAllowance(... */\n      pop\n      pop\n      pop\n      jump\t// out\n        /* \"@openzeppelin/contracts/token/ERC20/ERC20.sol\":7473:8291  function _transfer(... */\n    tag_104:\n        /* \"@openzeppelin/contracts/token/ERC20/ERC20.sol\":7615:7616  0 */\n      0x00\n        /* \"@openzeppelin/contracts/token/ERC20/ERC20.sol\":7599:7617  from != address(0) */\n      0xffffffffffffffffffffffffffffffffffffffff\n      and\n        /* \"@openzeppelin/contracts/token/ERC20/ERC20.sol\":7599:7603  from */\n      dup4\n        /* \"@openzeppelin/contracts/token/ERC20/ERC20.sol\":7599:7617  from != address(0) */\n      0xffffffffffffffffffffffffffffffffffffffff\n      and\n      eq\n      iszero\n        /* \"@openzeppelin/contracts/token/ERC20/ERC20.sol\":7591:7659  require(from != address(0), \"ERC20: transfer from the zero address\") */\n      tag_173\n      jumpi\n      mload(0x40)\n      0x08c379a000000000000000000000000000000000000000000000000000000000\n      dup2\n      mstore\n      0x04\n      add\n      tag_174\n      swap1\n      tag_175\n      jump\t// in\n    tag_174:\n      mload(0x40)\n      dup1\n      swap2\n      sub\n      swap1\n      revert\n    tag_173:\n        /* \"@openzeppelin/contracts/token/ERC20/ERC20.sol\":7691:7692  0 */\n      0x00\n        /* \"@openzeppelin/contracts/token/ERC20/ERC20.sol\":7677:7693  to != address(0) */\n      0xffffffffffffffffffffffffffffffffffffffff\n      and\n        /* \"@openzeppelin/contracts/token/ERC20/ERC20.sol\":7677:7679  to */\n      dup3\n        /* \"@openzeppelin/contracts/token/ERC20/ERC20.sol\":7677:7693  to != address(0) */\n      0xffffffffffffffffffffffffffffffffffffffff\n      and\n      eq\n      iszero\n        /* \"@openzeppelin/contracts/token/ERC20/ERC20.sol\":7669:7733  require(to != address(0), \"ERC20: transfer to the zero address\") */\n      tag_176\n      jumpi\n      mload(0x40)\n      0x08c379a000000000000000000000000000000000000000000000000000000000\n      dup2\n      mstore\n      0x04\n      add\n      tag_177\n      swap1\n      tag_178\n      jump\t// in\n    tag_177:\n      mload(0x40)\n      dup1\n      swap2\n      sub\n      swap1\n      revert\n    tag_176:\n        /* \"@openzeppelin/contracts/token/ERC20/ERC20.sol\":7744:7782  _beforeTokenTransfer(from, to, amount) */\n      tag_179\n        /* \"@openzeppelin/contracts/token/ERC20/ERC20.sol\":7765:7769  from */\n      dup4\n        /* \"@openzeppelin/contracts/token/ERC20/ERC20.sol\":7771:7773  to */\n      dup4\n        /* \"@openzeppelin/contracts/token/ERC20/ERC20.sol\":7775:7781  amount */\n      dup4\n        /* \"@openzeppelin/contracts/token/ERC20/ERC20.sol\":7744:7764  _beforeTokenTransfer */\n      tag_180\n        /* \"@openzeppelin/contracts/token/ERC20/ERC20.sol\":7744:7782  _beforeTokenTransfer(from, to, amount) */\n      jump\t// in\n    tag_179:\n        /* \"@openzeppelin/contracts/token/ERC20/ERC20.sol\":7793:7812  uint256 fromBalance */\n      0x00\n        /* \"@openzeppelin/contracts/token/ERC20/ERC20.sol\":7815:7824  _balances */\n      dup1\n        /* \"@openzeppelin/contracts/token/ERC20/ERC20.sol\":7815:7830  _balances[from] */\n      0x00\n        /* \"@openzeppelin/contracts/token/ERC20/ERC20.sol\":7825:7829  from */\n      dup6\n        /* \"@openzeppelin/contracts/token/ERC20/ERC20.sol\":7815:7830  _balances[from] */\n      0xffffffffffffffffffffffffffffffffffffffff\n      and\n      0xffffffffffffffffffffffffffffffffffffffff\n      and\n      dup2\n      mstore\n      0x20\n      add\n      swap1\n      dup2\n      mstore\n      0x20\n      add\n      0x00\n      keccak256\n      sload\n        /* \"@openzeppelin/contracts/token/ERC20/ERC20.sol\":7793:7830  uint256 fromBalance = _balances[from] */\n      swap1\n      pop\n        /* \"@openzeppelin/contracts/token/ERC20/ERC20.sol\":7863:7869  amount */\n      dup2\n        /* \"@openzeppelin/contracts/token/ERC20/ERC20.sol\":7848:7859  fromBalance */\n      dup2\n        /* \"@openzeppelin/contracts/token/ERC20/ERC20.sol\":7848:7869  fromBalance >= amount */\n      lt\n      iszero\n        /* \"@openzeppelin/contracts/token/ERC20/ERC20.sol\":7840:7912  require(fromBalance >= amount, \"ERC20: transfer amount exceeds balance\") */\n      tag_181\n      jumpi\n      mload(0x40)\n      0x08c379a000000000000000000000000000000000000000000000000000000000\n      dup2\n      mstore\n      0x04\n      add\n      tag_182\n      swap1\n      tag_183\n      jump\t// in\n    tag_182:\n      mload(0x40)\n      dup1\n      swap2\n      sub\n      swap1\n      revert\n    tag_181:\n        /* \"@openzeppelin/contracts/token/ERC20/ERC20.sol\":7978:7984  amount */\n      dup2\n        /* \"@openzeppelin/contracts/token/ERC20/ERC20.sol\":7964:7975  fromBalance */\n      dup2\n        /* \"@openzeppelin/contracts/token/ERC20/ERC20.sol\":7964:7984  fromBalance - amount */\n      sub\n        /* \"@openzeppelin/contracts/token/ERC20/ERC20.sol\":7946:7955  _balances */\n      0x00\n        /* \"@openzeppelin/contracts/token/ERC20/ERC20.sol\":7946:7961  _balances[from] */\n      dup1\n        /* \"@openzeppelin/contracts/token/ERC20/ERC20.sol\":7956:7960  from */\n      dup7\n        /* \"@openzeppelin/contracts/token/ERC20/ERC20.sol\":7946:7961  _balances[from] */\n      0xffffffffffffffffffffffffffffffffffffffff\n      and\n      0xffffffffffffffffffffffffffffffffffffffff\n      and\n      dup2\n      mstore\n      0x20\n      add\n      swap1\n      dup2\n      mstore\n      0x20\n      add\n      0x00\n      keccak256\n        /* \"@openzeppelin/contracts/token/ERC20/ERC20.sol\":7946:7984  _balances[from] = fromBalance - amount */\n      dup2\n      swap1\n      sstore\n      pop\n        /* \"@openzeppelin/contracts/token/ERC20/ERC20.sol\":8178:8184  amount */\n      dup2\n        /* \"@openzeppelin/contracts/token/ERC20/ERC20.sol\":8161:8170  _balances */\n      0x00\n        /* \"@openzeppelin/contracts/token/ERC20/ERC20.sol\":8161:8174  _balances[to] */\n      dup1\n        /* \"@openzeppelin/contracts/token/ERC20/ERC20.sol\":8171:8173  to */\n      dup6\n        /* \"@openzeppelin/contracts/token/ERC20/ERC20.sol\":8161:8174  _balances[to] */\n      0xffffffffffffffffffffffffffffffffffffffff\n      and\n      0xffffffffffffffffffffffffffffffffffffffff\n      and\n      dup2\n      mstore\n      0x20\n      add\n      swap1\n      dup2\n      mstore\n      0x20\n      add\n      0x00\n      keccak256\n      0x00\n        /* \"@openzeppelin/contracts/token/ERC20/ERC20.sol\":8161:8184  _balances[to] += amount */\n      dup3\n      dup3\n      sload\n      add\n      swap3\n      pop\n      pop\n      dup2\n      swap1\n      sstore\n      pop\n        /* \"@openzeppelin/contracts/token/ERC20/ERC20.sol\":8225:8227  to */\n      dup3\n        /* \"@openzeppelin/contracts/token/ERC20/ERC20.sol\":8210:8236  Transfer(from, to, amount) */\n      0xffffffffffffffffffffffffffffffffffffffff\n      and\n        /* \"@openzeppelin/contracts/token/ERC20/ERC20.sol\":8219:8223  from */\n      dup5\n        /* \"@openzeppelin/contracts/token/ERC20/ERC20.sol\":8210:8236  Transfer(from, to, amount) */\n      0xffffffffffffffffffffffffffffffffffffffff\n      and\n      0xddf252ad1be2c89b69c2b068fc378daa952ba7f163c4a11628f55a4df523b3ef\n        /* \"@openzeppelin/contracts/token/ERC20/ERC20.sol\":8229:8235  amount */\n      dup5\n        /* \"@openzeppelin/contracts/token/ERC20/ERC20.sol\":8210:8236  Transfer(from, to, amount) */\n      mload(0x40)\n      tag_184\n      swap2\n      swap1\n      tag_34\n      jump\t// in\n    tag_184:\n      mload(0x40)\n      dup1\n      swap2\n      sub\n      swap1\n      log3\n        /* \"@openzeppelin/contracts/token/ERC20/ERC20.sol\":8247:8284  _afterTokenTransfer(from, to, amount) */\n      tag_185\n        /* \"@openzeppelin/contracts/token/ERC20/ERC20.sol\":8267:8271  from */\n      dup5\n        /* \"@openzeppelin/contracts/token/ERC20/ERC20.sol\":8273:8275  to */\n      dup5\n        /* \"@openzeppelin/contracts/token/ERC20/ERC20.sol\":8277:8283  amount */\n      dup5\n        /* \"@openzeppelin/contracts/token/ERC20/ERC20.sol\":8247:8266  _afterTokenTransfer */\n      tag_186\n        /* \"@openzeppelin/contracts/token/ERC20/ERC20.sol\":8247:8284  _afterTokenTransfer(from, to, amount) */\n      jump\t// in\n    tag_185:\n        /* \"@openzeppelin/contracts/token/ERC20/ERC20.sol\":7581:8291  {... */\n      pop\n        /* \"@openzeppelin/contracts/token/ERC20/ERC20.sol\":7473:8291  function _transfer(... */\n      pop\n      pop\n      pop\n      jump\t// out\n        /* \"@openzeppelin/contracts/token/ERC20/ERC20.sol\":8567:9102  function _mint(address account, uint256 amount) internal virtual {... */\n    tag_121:\n        /* \"@openzeppelin/contracts/token/ERC20/ERC20.sol\":8669:8670  0 */\n      0x00\n        /* \"@openzeppelin/contracts/token/ERC20/ERC20.sol\":8650:8671  account != address(0) */\n      0xffffffffffffffffffffffffffffffffffffffff\n      and\n        /* \"@openzeppelin/contracts/token/ERC20/ERC20.sol\":8650:8657  account */\n      dup3\n        /* \"@openzeppelin/contracts/token/ERC20/ERC20.sol\":8650:8671  account != address(0) */\n      0xffffffffffffffffffffffffffffffffffffffff\n      and\n      eq\n      iszero\n        /* \"@openzeppelin/contracts/token/ERC20/ERC20.sol\":8642:8707  require(account != address(0), \"ERC20: mint to the zero address\") */\n      tag_188\n      jumpi\n      mload(0x40)\n      0x08c379a000000000000000000000000000000000000000000000000000000000\n      dup2\n      mstore\n      0x04\n      add\n      tag_189\n      swap1\n      tag_190\n      jump\t// in\n    tag_189:\n      mload(0x40)\n      dup1\n      swap2\n      sub\n      swap1\n      revert\n    tag_188:\n        /* \"@openzeppelin/contracts/token/ERC20/ERC20.sol\":8718:8767  _beforeTokenTransfer(address(0), account, amount) */\n      tag_191\n        /* \"@openzeppelin/contracts/token/ERC20/ERC20.sol\":8747:8748  0 */\n      0x00\n        /* \"@openzeppelin/contracts/token/ERC20/ERC20.sol\":8751:8758  account */\n      dup4\n        /* \"@openzeppelin/contracts/token/ERC20/ERC20.sol\":8760:8766  amount */\n      dup4\n        /* \"@openzeppelin/contracts/token/ERC20/ERC20.sol\":8718:8738  _beforeTokenTransfer */\n      tag_180\n        /* \"@openzeppelin/contracts/token/ERC20/ERC20.sol\":8718:8767  _beforeTokenTransfer(address(0), account, amount) */\n      jump\t// in\n    tag_191:\n        /* \"@openzeppelin/contracts/token/ERC20/ERC20.sol\":8794:8800  amount */\n      dup1\n        /* \"@openzeppelin/contracts/token/ERC20/ERC20.sol\":8778:8790  _totalSupply */\n      0x02\n      0x00\n        /* \"@openzeppelin/contracts/token/ERC20/ERC20.sol\":8778:8800  _totalSupply += amount */\n      dup3\n      dup3\n      sload\n      tag_192\n      swap2\n      swap1\n      tag_111\n      jump\t// in\n    tag_192:\n      swap3\n      pop\n      pop\n      dup2\n      swap1\n      sstore\n      pop\n        /* \"@openzeppelin/contracts/token/ERC20/ERC20.sol\":8968:8974  amount */\n      dup1\n        /* \"@openzeppelin/contracts/token/ERC20/ERC20.sol\":8946:8955  _balances */\n      0x00\n        /* \"@openzeppelin/contracts/token/ERC20/ERC20.sol\":8946:8964  _balances[account] */\n      dup1\n        /* \"@openzeppelin/contracts/token/ERC20/ERC20.sol\":8956:8963  account */\n      dup5\n        /* \"@openzeppelin/contracts/token/ERC20/ERC20.sol\":8946:8964  _balances[account] */\n      0xffffffffffffffffffffffffffffffffffffffff\n      and\n      0xffffffffffffffffffffffffffffffffffffffff\n      and\n      dup2\n      mstore\n      0x20\n      add\n      swap1\n      dup2\n      mstore\n      0x20\n      add\n      0x00\n      keccak256\n      0x00\n        /* \"@openzeppelin/contracts/token/ERC20/ERC20.sol\":8946:8974  _balances[account] += amount */\n      dup3\n      dup3\n      sload\n      add\n      swap3\n      pop\n      pop\n      dup2\n      swap1\n      sstore\n      pop\n        /* \"@openzeppelin/contracts/token/ERC20/ERC20.sol\":9020:9027  account */\n      dup2\n        /* \"@openzeppelin/contracts/token/ERC20/ERC20.sol\":8999:9036  Transfer(address(0), account, amount) */\n      0xffffffffffffffffffffffffffffffffffffffff\n      and\n        /* \"@openzeppelin/contracts/token/ERC20/ERC20.sol\":9016:9017  0 */\n      0x00\n        /* \"@openzeppelin/contracts/token/ERC20/ERC20.sol\":8999:9036  Transfer(address(0), account, amount) */\n      0xffffffffffffffffffffffffffffffffffffffff\n      and\n      0xddf252ad1be2c89b69c2b068fc378daa952ba7f163c4a11628f55a4df523b3ef\n        /* \"@openzeppelin/contracts/token/ERC20/ERC20.sol\":9029:9035  amount */\n      dup4\n        /* \"@openzeppelin/contracts/token/ERC20/ERC20.sol\":8999:9036  Transfer(address(0), account, amount) */\n      mload(0x40)\n      tag_193\n      swap2\n      swap1\n      tag_34\n      jump\t// in\n    tag_193:\n      mload(0x40)\n      dup1\n      swap2\n      sub\n      swap1\n      log3\n        /* \"@openzeppelin/contracts/token/ERC20/ERC20.sol\":9047:9095  _afterTokenTransfer(address(0), account, amount) */\n      tag_194\n        /* \"@openzeppelin/contracts/token/ERC20/ERC20.sol\":9075:9076  0 */\n      0x00\n        /* \"@openzeppelin/contracts/token/ERC20/ERC20.sol\":9079:9086  account */\n      dup4\n        /* \"@openzeppelin/contracts/token/ERC20/ERC20.sol\":9088:9094  amount */\n      dup4\n        /* \"@openzeppelin/contracts/token/ERC20/ERC20.sol\":9047:9066  _afterTokenTransfer */\n      tag_186\n        /* \"@openzeppelin/contracts/token/ERC20/ERC20.sol\":9047:9095  _afterTokenTransfer(address(0), account, amount) */\n      jump\t// in\n    tag_194:\n        /* \"@openzeppelin/contracts/token/ERC20/ERC20.sol\":8567:9102  function _mint(address account, uint256 amount) internal virtual {... */\n      pop\n      pop\n      jump\t// out\n        /* \"@openzeppelin/contracts/token/ERC20/ERC20.sol\":9422:10081  function _burn(address account, uint256 amount) internal virtual {... */\n    tag_125:\n        /* \"@openzeppelin/contracts/token/ERC20/ERC20.sol\":9524:9525  0 */\n      0x00\n        /* \"@openzeppelin/contracts/token/ERC20/ERC20.sol\":9505:9526  account != address(0) */\n      0xffffffffffffffffffffffffffffffffffffffff\n      and\n        /* \"@openzeppelin/contracts/token/ERC20/ERC20.sol\":9505:9512  account */\n      dup3\n        /* \"@openzeppelin/contracts/token/ERC20/ERC20.sol\":9505:9526  account != address(0) */\n      0xffffffffffffffffffffffffffffffffffffffff\n      and\n      eq\n      iszero\n        /* \"@openzeppelin/contracts/token/ERC20/ERC20.sol\":9497:9564  require(account != address(0), \"ERC20: burn from the zero address\") */\n      tag_196\n      jumpi\n      mload(0x40)\n      0x08c379a000000000000000000000000000000000000000000000000000000000\n      dup2\n      mstore\n      0x04\n      add\n      tag_197\n      swap1\n      tag_198\n      jump\t// in\n    tag_197:\n      mload(0x40)\n      dup1\n      swap2\n      sub\n      swap1\n      revert\n    tag_196:\n        /* \"@openzeppelin/contracts/token/ERC20/ERC20.sol\":9575:9624  _beforeTokenTransfer(account, address(0), amount) */\n      tag_199\n        /* \"@openzeppelin/contracts/token/ERC20/ERC20.sol\":9596:9603  account */\n      dup3\n        /* \"@openzeppelin/contracts/token/ERC20/ERC20.sol\":9613:9614  0 */\n      0x00\n        /* \"@openzeppelin/contracts/token/ERC20/ERC20.sol\":9617:9623  amount */\n      dup4\n        /* \"@openzeppelin/contracts/token/ERC20/ERC20.sol\":9575:9595  _beforeTokenTransfer */\n      tag_180\n        /* \"@openzeppelin/contracts/token/ERC20/ERC20.sol\":9575:9624  _beforeTokenTransfer(account, address(0), amount) */\n      jump\t// in\n    tag_199:\n        /* \"@openzeppelin/contracts/token/ERC20/ERC20.sol\":9635:9657  uint256 accountBalance */\n      0x00\n        /* \"@openzeppelin/contracts/token/ERC20/ERC20.sol\":9660:9669  _balances */\n      dup1\n        /* \"@openzeppelin/contracts/token/ERC20/ERC20.sol\":9660:9678  _balances[account] */\n      0x00\n        /* \"@openzeppelin/contracts/token/ERC20/ERC20.sol\":9670:9677  account */\n      dup5\n        /* \"@openzeppelin/contracts/token/ERC20/ERC20.sol\":9660:9678  _balances[account] */\n      0xffffffffffffffffffffffffffffffffffffffff\n      and\n      0xffffffffffffffffffffffffffffffffffffffff\n      and\n      dup2\n      mstore\n      0x20\n      add\n      swap1\n      dup2\n      mstore\n      0x20\n      add\n      0x00\n      keccak256\n      sload\n        /* \"@openzeppelin/contracts/token/ERC20/ERC20.sol\":9635:9678  uint256 accountBalance = _balances[account] */\n      swap1\n      pop\n        /* \"@openzeppelin/contracts/token/ERC20/ERC20.sol\":9714:9720  amount */\n      dup2\n        /* \"@openzeppelin/contracts/token/ERC20/ERC20.sol\":9696:9710  accountBalance */\n      dup2\n        /* \"@openzeppelin/contracts/token/ERC20/ERC20.sol\":9696:9720  accountBalance >= amount */\n      lt\n      iszero\n        /* \"@openzeppelin/contracts/token/ERC20/ERC20.sol\":9688:9759  require(accountBalance >= amount, \"ERC20: burn amount exceeds balance\") */\n      tag_200\n      jumpi\n      mload(0x40)\n      0x08c379a000000000000000000000000000000000000000000000000000000000\n      dup2\n      mstore\n      0x04\n      add\n      tag_201\n      swap1\n      tag_202\n      jump\t// in\n    tag_201:\n      mload(0x40)\n      dup1\n      swap2\n      sub\n      swap1\n      revert\n    tag_200:\n        /* \"@openzeppelin/contracts/token/ERC20/ERC20.sol\":9831:9837  amount */\n      dup2\n        /* \"@openzeppelin/contracts/token/ERC20/ERC20.sol\":9814:9828  accountBalance */\n      dup2\n        /* \"@openzeppelin/contracts/token/ERC20/ERC20.sol\":9814:9837  accountBalance - amount */\n      sub\n        /* \"@openzeppelin/contracts/token/ERC20/ERC20.sol\":9793:9802  _balances */\n      0x00\n        /* \"@openzeppelin/contracts/token/ERC20/ERC20.sol\":9793:9811  _balances[account] */\n      dup1\n        /* \"@openzeppelin/contracts/token/ERC20/ERC20.sol\":9803:9810  account */\n      dup6\n        /* \"@openzeppelin/contracts/token/ERC20/ERC20.sol\":9793:9811  _balances[account] */\n      0xffffffffffffffffffffffffffffffffffffffff\n      and\n      0xffffffffffffffffffffffffffffffffffffffff\n      and\n      dup2\n      mstore\n      0x20\n      add\n      swap1\n      dup2\n      mstore\n      0x20\n      add\n      0x00\n      keccak256\n        /* \"@openzeppelin/contracts/token/ERC20/ERC20.sol\":9793:9837  _balances[account] = accountBalance - amount */\n      dup2\n      swap1\n      sstore\n      pop\n        /* \"@openzeppelin/contracts/token/ERC20/ERC20.sol\":9946:9952  amount */\n      dup2\n        /* \"@openzeppelin/contracts/token/ERC20/ERC20.sol\":9930:9942  _totalSupply */\n      0x02\n      0x00\n        /* \"@openzeppelin/contracts/token/ERC20/ERC20.sol\":9930:9952  _totalSupply -= amount */\n      dup3\n      dup3\n      sload\n      sub\n      swap3\n      pop\n      pop\n      dup2\n      swap1\n      sstore\n      pop\n        /* \"@openzeppelin/contracts/token/ERC20/ERC20.sol\":10004:10005  0 */\n      0x00\n        /* \"@openzeppelin/contracts/token/ERC20/ERC20.sol\":9978:10015  Transfer(account, address(0), amount) */\n      0xffffffffffffffffffffffffffffffffffffffff\n      and\n        /* \"@openzeppelin/contracts/token/ERC20/ERC20.sol\":9987:9994  account */\n      dup4\n        /* \"@openzeppelin/contracts/token/ERC20/ERC20.sol\":9978:10015  Transfer(account, address(0), amount) */\n      0xffffffffffffffffffffffffffffffffffffffff\n      and\n      0xddf252ad1be2c89b69c2b068fc378daa952ba7f163c4a11628f55a4df523b3ef\n        /* \"@openzeppelin/contracts/token/ERC20/ERC20.sol\":10008:10014  amount */\n      dup5\n        /* \"@openzeppelin/contracts/token/ERC20/ERC20.sol\":9978:10015  Transfer(account, address(0), amount) */\n      mload(0x40)\n      tag_203\n      swap2\n      swap1\n      tag_34\n      jump\t// in\n    tag_203:\n      mload(0x40)\n      dup1\n      swap2\n      sub\n      swap1\n      log3\n        /* \"@openzeppelin/contracts/token/ERC20/ERC20.sol\":10026:10074  _afterTokenTransfer(account, address(0), amount) */\n      tag_204\n        /* \"@openzeppelin/contracts/token/ERC20/ERC20.sol\":10046:10053  account */\n      dup4\n        /* \"@openzeppelin/contracts/token/ERC20/ERC20.sol\":10063:10064  0 */\n      0x00\n        /* \"@openzeppelin/contracts/token/ERC20/ERC20.sol\":10067:10073  amount */\n      dup5\n        /* \"@openzeppelin/contracts/token/ERC20/ERC20.sol\":10026:10045  _afterTokenTransfer */\n      tag_186\n        /* \"@openzeppelin/contracts/token/ERC20/ERC20.sol\":10026:10074  _afterTokenTransfer(account, address(0), amount) */\n      jump\t// in\n    tag_204:\n        /* \"@openzeppelin/contracts/token/ERC20/ERC20.sol\":9487:10081  {... */\n      pop\n        /* \"@openzeppelin/contracts/token/ERC20/ERC20.sol\":9422:10081  function _burn(address account, uint256 amount) internal virtual {... */\n      pop\n      pop\n      jump\t// out\n        /* \"@openzeppelin/contracts/token/ERC20/ERC20.sol\":12180:12301  function _beforeTokenTransfer(... */\n    tag_180:\n      pop\n      pop\n      pop\n      jump\t// out\n        /* \"@openzeppelin/contracts/token/ERC20/ERC20.sol\":12889:13009  function _afterTokenTransfer(... */\n    tag_186:\n      pop\n      pop\n      pop\n      jump\t// out\n        /* \"#utility.yul\":7:146   */\n    tag_208:\n        /* \"#utility.yul\":53:58   */\n      0x00\n        /* \"#utility.yul\":91:97   */\n      dup2\n        /* \"#utility.yul\":78:98   */\n      calldataload\n        /* \"#utility.yul\":69:98   */\n      swap1\n      pop\n        /* \"#utility.yul\":107:140   */\n      tag_210\n        /* \"#utility.yul\":134:139   */\n      dup2\n        /* \"#utility.yul\":107:140   */\n      tag_211\n      jump\t// in\n    tag_210:\n        /* \"#utility.yul\":7:146   */\n      swap3\n      swap2\n      pop\n      pop\n      jump\t// out\n        /* \"#utility.yul\":152:291   */\n    tag_212:\n        /* \"#utility.yul\":198:203   */\n      0x00\n        /* \"#utility.yul\":236:242   */\n      dup2\n        /* \"#utility.yul\":223:243   */\n      calldataload\n        /* \"#utility.yul\":214:243   */\n      swap1\n      pop\n        /* \"#utility.yul\":252:285   */\n      tag_214\n        /* \"#utility.yul\":279:284   */\n      dup2\n        /* \"#utility.yul\":252:285   */\n      tag_215\n      jump\t// in\n    tag_214:\n        /* \"#utility.yul\":152:291   */\n      swap3\n      swap2\n      pop\n      pop\n      jump\t// out\n        /* \"#utility.yul\":297:626   */\n    tag_62:\n        /* \"#utility.yul\":356:362   */\n      0x00\n        /* \"#utility.yul\":405:407   */\n      0x20\n        /* \"#utility.yul\":393:402   */\n      dup3\n        /* \"#utility.yul\":384:391   */\n      dup5\n        /* \"#utility.yul\":380:403   */\n      sub\n        /* \"#utility.yul\":376:408   */\n      slt\n        /* \"#utility.yul\":373:492   */\n      iszero\n      tag_217\n      jumpi\n        /* \"#utility.yul\":411:490   */\n      tag_218\n      tag_219\n      jump\t// in\n    tag_218:\n        /* \"#utility.yul\":373:492   */\n    tag_217:\n        /* \"#utility.yul\":531:532   */\n      0x00\n        /* \"#utility.yul\":556:609   */\n      tag_220\n        /* \"#utility.yul\":601:608   */\n      dup5\n        /* \"#utility.yul\":592:598   */\n      dup3\n        /* \"#utility.yul\":581:590   */\n      dup6\n        /* \"#utility.yul\":577:599   */\n      add\n        /* \"#utility.yul\":556:609   */\n      tag_208\n      jump\t// in\n    tag_220:\n        /* \"#utility.yul\":546:609   */\n      swap2\n      pop\n        /* \"#utility.yul\":502:619   */\n      pop\n        /* \"#utility.yul\":297:626   */\n      swap3\n      swap2\n      pop\n      pop\n      jump\t// out\n        /* \"#utility.yul\":632:1106   */\n    tag_83:\n        /* \"#utility.yul\":700:706   */\n      0x00\n        /* \"#utility.yul\":708:714   */\n      dup1\n        /* \"#utility.yul\":757:759   */\n      0x40\n        /* \"#utility.yul\":745:754   */\n      dup4\n        /* \"#utility.yul\":736:743   */\n      dup6\n        /* \"#utility.yul\":732:755   */\n      sub\n        /* \"#utility.yul\":728:760   */\n      slt\n        /* \"#utility.yul\":725:844   */\n      iszero\n      tag_222\n      jumpi\n        /* \"#utility.yul\":763:842   */\n      tag_223\n      tag_219\n      jump\t// in\n    tag_223:\n        /* \"#utility.yul\":725:844   */\n    tag_222:\n        /* \"#utility.yul\":883:884   */\n      0x00\n        /* \"#utility.yul\":908:961   */\n      tag_224\n        /* \"#utility.yul\":953:960   */\n      dup6\n        /* \"#utility.yul\":944:950   */\n      dup3\n        /* \"#utility.yul\":933:942   */\n      dup7\n        /* \"#utility.yul\":929:951   */\n      add\n        /* \"#utility.yul\":908:961   */\n      tag_208\n      jump\t// in\n    tag_224:\n        /* \"#utility.yul\":898:961   */\n      swap3\n      pop\n        /* \"#utility.yul\":854:971   */\n      pop\n        /* \"#utility.yul\":1010:1012   */\n      0x20\n        /* \"#utility.yul\":1036:1089   */\n      tag_225\n        /* \"#utility.yul\":1081:1088   */\n      dup6\n        /* \"#utility.yul\":1072:1078   */\n      dup3\n        /* \"#utility.yul\":1061:1070   */\n      dup7\n        /* \"#utility.yul\":1057:1079   */\n      add\n        /* \"#utility.yul\":1036:1089   */\n      tag_208\n      jump\t// in\n    tag_225:\n        /* \"#utility.yul\":1026:1089   */\n      swap2\n      pop\n        /* \"#utility.yul\":981:1099   */\n      pop\n        /* \"#utility.yul\":632:1106   */\n      swap3\n      pop\n      swap3\n      swap1\n      pop\n      jump\t// out\n        /* \"#utility.yul\":1112:1731   */\n    tag_37:\n        /* \"#utility.yul\":1189:1195   */\n      0x00\n        /* \"#utility.yul\":1197:1203   */\n      dup1\n        /* \"#utility.yul\":1205:1211   */\n      0x00\n        /* \"#utility.yul\":1254:1256   */\n      0x60\n        /* \"#utility.yul\":1242:1251   */\n      dup5\n        /* \"#utility.yul\":1233:1240   */\n      dup7\n        /* \"#utility.yul\":1229:1252   */\n      sub\n        /* \"#utility.yul\":1225:1257   */\n      slt\n        /* \"#utility.yul\":1222:1341   */\n      iszero\n      tag_227\n      jumpi\n        /* \"#utility.yul\":1260:1339   */\n      tag_228\n      tag_219\n      jump\t// in\n    tag_228:\n        /* \"#utility.yul\":1222:1341   */\n    tag_227:\n        /* \"#utility.yul\":1380:1381   */\n      0x00\n        /* \"#utility.yul\":1405:1458   */\n      tag_229\n        /* \"#utility.yul\":1450:1457   */\n      dup7\n        /* \"#utility.yul\":1441:1447   */\n      dup3\n        /* \"#utility.yul\":1430:1439   */\n      dup8\n        /* \"#utility.yul\":1426:1448   */\n      add\n        /* \"#utility.yul\":1405:1458   */\n      tag_208\n      jump\t// in\n    tag_229:\n        /* \"#utility.yul\":1395:1458   */\n      swap4\n      pop\n        /* \"#utility.yul\":1351:1468   */\n      pop\n        /* \"#utility.yul\":1507:1509   */\n      0x20\n        /* \"#utility.yul\":1533:1586   */\n      tag_230\n        /* \"#utility.yul\":1578:1585   */\n      dup7\n        /* \"#utility.yul\":1569:1575   */\n      dup3\n        /* \"#utility.yul\":1558:1567   */\n      dup8\n        /* \"#utility.yul\":1554:1576   */\n      add\n        /* \"#utility.yul\":1533:1586   */\n      tag_208\n      jump\t// in\n    tag_230:\n        /* \"#utility.yul\":1523:1586   */\n      swap3\n      pop\n        /* \"#utility.yul\":1478:1596   */\n      pop\n        /* \"#utility.yul\":1635:1637   */\n      0x40\n        /* \"#utility.yul\":1661:1714   */\n      tag_231\n        /* \"#utility.yul\":1706:1713   */\n      dup7\n        /* \"#utility.yul\":1697:1703   */\n      dup3\n        /* \"#utility.yul\":1686:1695   */\n      dup8\n        /* \"#utility.yul\":1682:1704   */\n      add\n        /* \"#utility.yul\":1661:1714   */\n      tag_212\n      jump\t// in\n    tag_231:\n        /* \"#utility.yul\":1651:1714   */\n      swap2\n      pop\n        /* \"#utility.yul\":1606:1724   */\n      pop\n        /* \"#utility.yul\":1112:1731   */\n      swap3\n      pop\n      swap3\n      pop\n      swap3\n      jump\t// out\n        /* \"#utility.yul\":1737:2211   */\n    tag_27:\n        /* \"#utility.yul\":1805:1811   */\n      0x00\n        /* \"#utility.yul\":1813:1819   */\n      dup1\n        /* \"#utility.yul\":1862:1864   */\n      0x40\n        /* \"#utility.yul\":1850:1859   */\n      dup4\n        /* \"#utility.yul\":1841:1848   */\n      dup6\n        /* \"#utility.yul\":1837:1860   */\n      sub\n        /* \"#utility.yul\":1833:1865   */\n      slt\n        /* \"#utility.yul\":1830:1949   */\n      iszero\n      tag_233\n      jumpi\n        /* \"#utility.yul\":1868:1947   */\n      tag_234\n      tag_219\n      jump\t// in\n    tag_234:\n        /* \"#utility.yul\":1830:1949   */\n    tag_233:\n        /* \"#utility.yul\":1988:1989   */\n      0x00\n        /* \"#utility.yul\":2013:2066   */\n      tag_235\n        /* \"#utility.yul\":2058:2065   */\n      dup6\n        /* \"#utility.yul\":2049:2055   */\n      dup3\n        /* \"#utility.yul\":2038:2047   */\n      dup7\n        /* \"#utility.yul\":2034:2056   */\n      add\n        /* \"#utility.yul\":2013:2066   */\n      tag_208\n      jump\t// in\n    tag_235:\n        /* \"#utility.yul\":2003:2066   */\n      swap3\n      pop\n        /* \"#utility.yul\":1959:2076   */\n      pop\n        /* \"#utility.yul\":2115:2117   */\n      0x20\n        /* \"#utility.yul\":2141:2194   */\n      tag_236\n        /* \"#utility.yul\":2186:2193   */\n      dup6\n        /* \"#utility.yul\":2177:2183   */\n      dup3\n        /* \"#utility.yul\":2166:2175   */\n      dup7\n        /* \"#utility.yul\":2162:2184   */\n      add\n        /* \"#utility.yul\":2141:2194   */\n      tag_212\n      jump\t// in\n    tag_236:\n        /* \"#utility.yul\":2131:2194   */\n      swap2\n      pop\n        /* \"#utility.yul\":2086:2204   */\n      pop\n        /* \"#utility.yul\":1737:2211   */\n      swap3\n      pop\n      swap3\n      swap1\n      pop\n      jump\t// out\n        /* \"#utility.yul\":2217:2836   */\n    tag_78:\n        /* \"#utility.yul\":2294:2300   */\n      0x00\n        /* \"#utility.yul\":2302:2308   */\n      dup1\n        /* \"#utility.yul\":2310:2316   */\n      0x00\n        /* \"#utility.yul\":2359:2361   */\n      0x60\n        /* \"#utility.yul\":2347:2356   */\n      dup5\n        /* \"#utility.yul\":2338:2345   */\n      dup7\n        /* \"#utility.yul\":2334:2357   */\n      sub\n        /* \"#utility.yul\":2330:2362   */\n      slt\n        /* \"#utility.yul\":2327:2446   */\n      iszero\n      tag_238\n      jumpi\n        /* \"#utility.yul\":2365:2444   */\n      tag_239\n      tag_219\n      jump\t// in\n    tag_239:\n        /* \"#utility.yul\":2327:2446   */\n    tag_238:\n        /* \"#utility.yul\":2485:2486   */\n      0x00\n        /* \"#utility.yul\":2510:2563   */\n      tag_240\n        /* \"#utility.yul\":2555:2562   */\n      dup7\n        /* \"#utility.yul\":2546:2552   */\n      dup3\n        /* \"#utility.yul\":2535:2544   */\n      dup8\n        /* \"#utility.yul\":2531:2553   */\n      add\n        /* \"#utility.yul\":2510:2563   */\n      tag_208\n      jump\t// in\n    tag_240:\n        /* \"#utility.yul\":2500:2563   */\n      swap4\n      pop\n        /* \"#utility.yul\":2456:2573   */\n      pop\n        /* \"#utility.yul\":2612:2614   */\n      0x20\n        /* \"#utility.yul\":2638:2691   */\n      tag_241\n        /* \"#utility.yul\":2683:2690   */\n      dup7\n        /* \"#utility.yul\":2674:2680   */\n      dup3\n        /* \"#utility.yul\":2663:2672   */\n      dup8\n        /* \"#utility.yul\":2659:2681   */\n      add\n        /* \"#utility.yul\":2638:2691   */\n      tag_212\n      jump\t// in\n    tag_241:\n        /* \"#utility.yul\":2628:2691   */\n      swap3\n      pop\n        /* \"#utility.yul\":2583:2701   */\n      pop\n        /* \"#utility.yul\":2740:2742   */\n      0x40\n        /* \"#utility.yul\":2766:2819   */\n      tag_242\n        /* \"#utility.yul\":2811:2818   */\n      dup7\n        /* \"#utility.yul\":2802:2808   */\n      dup3\n        /* \"#utility.yul\":2791:2800   */\n      dup8\n        /* \"#utility.yul\":2787:2809   */\n      add\n        /* \"#utility.yul\":2766:2819   */\n      tag_212\n      jump\t// in\n    tag_242:\n        /* \"#utility.yul\":2756:2819   */\n      swap2\n      pop\n        /* \"#utility.yul\":2711:2829   */\n      pop\n        /* \"#utility.yul\":2217:2836   */\n      swap3\n      pop\n      swap3\n      pop\n      swap3\n      jump\t// out\n        /* \"#utility.yul\":2842:3607   */\n    tag_50:\n        /* \"#utility.yul\":2928:2934   */\n      0x00\n        /* \"#utility.yul\":2936:2942   */\n      dup1\n        /* \"#utility.yul\":2944:2950   */\n      0x00\n        /* \"#utility.yul\":2952:2958   */\n      dup1\n        /* \"#utility.yul\":3001:3004   */\n      0x80\n        /* \"#utility.yul\":2989:2998   */\n      dup6\n        /* \"#utility.yul\":2980:2987   */\n      dup8\n        /* \"#utility.yul\":2976:2999   */\n      sub\n        /* \"#utility.yul\":2972:3005   */\n      slt\n        /* \"#utility.yul\":2969:3089   */\n      iszero\n      tag_244\n      jumpi\n        /* \"#utility.yul\":3008:3087   */\n      tag_245\n      tag_219\n      jump\t// in\n    tag_245:\n        /* \"#utility.yul\":2969:3089   */\n    tag_244:\n        /* \"#utility.yul\":3128:3129   */\n      0x00\n        /* \"#utility.yul\":3153:3206   */\n      tag_246\n        /* \"#utility.yul\":3198:3205   */\n      dup8\n        /* \"#utility.yul\":3189:3195   */\n      dup3\n        /* \"#utility.yul\":3178:3187   */\n      dup9\n        /* \"#utility.yul\":3174:3196   */\n      add\n        /* \"#utility.yul\":3153:3206   */\n      tag_208\n      jump\t// in\n    tag_246:\n        /* \"#utility.yul\":3143:3206   */\n      swap5\n      pop\n        /* \"#utility.yul\":3099:3216   */\n      pop\n        /* \"#utility.yul\":3255:3257   */\n      0x20\n        /* \"#utility.yul\":3281:3334   */\n      tag_247\n        /* \"#utility.yul\":3326:3333   */\n      dup8\n        /* \"#utility.yul\":3317:3323   */\n      dup3\n        /* \"#utility.yul\":3306:3315   */\n      dup9\n        /* \"#utility.yul\":3302:3324   */\n      add\n        /* \"#utility.yul\":3281:3334   */\n      tag_212\n      jump\t// in\n    tag_247:\n        /* \"#utility.yul\":3271:3334   */\n      swap4\n      pop\n        /* \"#utility.yul\":3226:3344   */\n      pop\n        /* \"#utility.yul\":3383:3385   */\n      0x40\n        /* \"#utility.yul\":3409:3462   */\n      tag_248\n        /* \"#utility.yul\":3454:3461   */\n      dup8\n        /* \"#utility.yul\":3445:3451   */\n      dup3\n        /* \"#utility.yul\":3434:3443   */\n      dup9\n        /* \"#utility.yul\":3430:3452   */\n      add\n        /* \"#utility.yul\":3409:3462   */\n      tag_212\n      jump\t// in\n    tag_248:\n        /* \"#utility.yul\":3399:3462   */\n      swap3\n      pop\n        /* \"#utility.yul\":3354:3472   */\n      pop\n        /* \"#utility.yul\":3511:3513   */\n      0x60\n        /* \"#utility.yul\":3537:3590   */\n      tag_249\n        /* \"#utility.yul\":3582:3589   */\n      dup8\n        /* \"#utility.yul\":3573:3579   */\n      dup3\n        /* \"#utility.yul\":3562:3571   */\n      dup9\n        /* \"#utility.yul\":3558:3580   */\n      add\n        /* \"#utility.yul\":3537:3590   */\n      tag_208\n      jump\t// in\n    tag_249:\n        /* \"#utility.yul\":3527:3590   */\n      swap2\n      pop\n        /* \"#utility.yul\":3482:3600   */\n      pop\n        /* \"#utility.yul\":2842:3607   */\n      swap3\n      swap6\n      swap2\n      swap5\n      pop\n      swap3\n      pop\n      jump\t// out\n        /* \"#utility.yul\":3613:3942   */\n    tag_58:\n        /* \"#utility.yul\":3672:3678   */\n      0x00\n        /* \"#utility.yul\":3721:3723   */\n      0x20\n        /* \"#utility.yul\":3709:3718   */\n      dup3\n        /* \"#utility.yul\":3700:3707   */\n      dup5\n        /* \"#utility.yul\":3696:3719   */\n      sub\n        /* \"#utility.yul\":3692:3724   */\n      slt\n        /* \"#utility.yul\":3689:3808   */\n      iszero\n      tag_251\n      jumpi\n        /* \"#utility.yul\":3727:3806   */\n      tag_252\n      tag_219\n      jump\t// in\n    tag_252:\n        /* \"#utility.yul\":3689:3808   */\n    tag_251:\n        /* \"#utility.yul\":3847:3848   */\n      0x00\n        /* \"#utility.yul\":3872:3925   */\n      tag_253\n        /* \"#utility.yul\":3917:3924   */\n      dup5\n        /* \"#utility.yul\":3908:3914   */\n      dup3\n        /* \"#utility.yul\":3897:3906   */\n      dup6\n        /* \"#utility.yul\":3893:3915   */\n      add\n        /* \"#utility.yul\":3872:3925   */\n      tag_212\n      jump\t// in\n    tag_253:\n        /* \"#utility.yul\":3862:3925   */\n      swap2\n      pop\n        /* \"#utility.yul\":3818:3935   */\n      pop\n        /* \"#utility.yul\":3613:3942   */\n      swap3\n      swap2\n      pop\n      pop\n      jump\t// out\n        /* \"#utility.yul\":3948:4057   */\n    tag_254:\n        /* \"#utility.yul\":4029:4050   */\n      tag_256\n        /* \"#utility.yul\":4044:4049   */\n      dup2\n        /* \"#utility.yul\":4029:4050   */\n      tag_257\n      jump\t// in\n    tag_256:\n        /* \"#utility.yul\":4024:4027   */\n      dup3\n        /* \"#utility.yul\":4017:4051   */\n      mstore\n        /* \"#utility.yul\":3948:4057   */\n      pop\n      pop\n      jump\t// out\n        /* \"#utility.yul\":4063:4427   */\n    tag_258:\n        /* \"#utility.yul\":4151:4154   */\n      0x00\n        /* \"#utility.yul\":4179:4218   */\n      tag_260\n        /* \"#utility.yul\":4212:4217   */\n      dup3\n        /* \"#utility.yul\":4179:4218   */\n      tag_261\n      jump\t// in\n    tag_260:\n        /* \"#utility.yul\":4234:4305   */\n      tag_262\n        /* \"#utility.yul\":4298:4304   */\n      dup2\n        /* \"#utility.yul\":4293:4296   */\n      dup6\n        /* \"#utility.yul\":4234:4305   */\n      tag_263\n      jump\t// in\n    tag_262:\n        /* \"#utility.yul\":4227:4305   */\n      swap4\n      pop\n        /* \"#utility.yul\":4314:4366   */\n      tag_264\n        /* \"#utility.yul\":4359:4365   */\n      dup2\n        /* \"#utility.yul\":4354:4357   */\n      dup6\n        /* \"#utility.yul\":4347:4351   */\n      0x20\n        /* \"#utility.yul\":4340:4345   */\n      dup7\n        /* \"#utility.yul\":4336:4352   */\n      add\n        /* \"#utility.yul\":4314:4366   */\n      tag_265\n      jump\t// in\n    tag_264:\n        /* \"#utility.yul\":4391:4420   */\n      tag_266\n        /* \"#utility.yul\":4413:4419   */\n      dup2\n        /* \"#utility.yul\":4391:4420   */\n      tag_267\n      jump\t// in\n    tag_266:\n        /* \"#utility.yul\":4386:4389   */\n      dup5\n        /* \"#utility.yul\":4382:4421   */\n      add\n        /* \"#utility.yul\":4375:4421   */\n      swap2\n      pop\n        /* \"#utility.yul\":4155:4427   */\n      pop\n        /* \"#utility.yul\":4063:4427   */\n      swap3\n      swap2\n      pop\n      pop\n      jump\t// out\n        /* \"#utility.yul\":4433:4799   */\n    tag_268:\n        /* \"#utility.yul\":4575:4578   */\n      0x00\n        /* \"#utility.yul\":4596:4663   */\n      tag_270\n        /* \"#utility.yul\":4660:4662   */\n      0x23\n        /* \"#utility.yul\":4655:4658   */\n      dup4\n        /* \"#utility.yul\":4596:4663   */\n      tag_263\n      jump\t// in\n    tag_270:\n        /* \"#utility.yul\":4589:4663   */\n      swap2\n      pop\n        /* \"#utility.yul\":4672:4765   */\n      tag_271\n        /* \"#utility.yul\":4761:4764   */\n      dup3\n        /* \"#utility.yul\":4672:4765   */\n      tag_272\n      jump\t// in\n    tag_271:\n        /* \"#utility.yul\":4790:4792   */\n      0x40\n        /* \"#utility.yul\":4785:4788   */\n      dup3\n        /* \"#utility.yul\":4781:4793   */\n      add\n        /* \"#utility.yul\":4774:4793   */\n      swap1\n      pop\n        /* \"#utility.yul\":4433:4799   */\n      swap2\n      swap1\n      pop\n      jump\t// out\n        /* \"#utility.yul\":4805:5171   */\n    tag_273:\n        /* \"#utility.yul\":4947:4950   */\n      0x00\n        /* \"#utility.yul\":4968:5035   */\n      tag_275\n        /* \"#utility.yul\":5032:5034   */\n      0x3d\n        /* \"#utility.yul\":5027:5030   */\n      dup4\n        /* \"#utility.yul\":4968:5035   */\n      tag_263\n      jump\t// in\n    tag_275:\n        /* \"#utility.yul\":4961:5035   */\n      swap2\n      pop\n        /* \"#utility.yul\":5044:5137   */\n      tag_276\n        /* \"#utility.yul\":5133:5136   */\n      dup3\n        /* \"#utility.yul\":5044:5137   */\n      tag_277\n      jump\t// in\n    tag_276:\n        /* \"#utility.yul\":5162:5164   */\n      0x40\n        /* \"#utility.yul\":5157:5160   */\n      dup3\n        /* \"#utility.yul\":5153:5165   */\n      add\n        /* \"#utility.yul\":5146:5165   */\n      swap1\n      pop\n        /* \"#utility.yul\":4805:5171   */\n      swap2\n      swap1\n      pop\n      jump\t// out\n        /* \"#utility.yul\":5177:5543   */\n    tag_278:\n        /* \"#utility.yul\":5319:5322   */\n      0x00\n        /* \"#utility.yul\":5340:5407   */\n      tag_280\n        /* \"#utility.yul\":5404:5406   */\n      0x22\n        /* \"#utility.yul\":5399:5402   */\n      dup4\n        /* \"#utility.yul\":5340:5407   */\n      tag_263\n      jump\t// in\n    tag_280:\n        /* \"#utility.yul\":5333:5407   */\n      swap2\n      pop\n        /* \"#utility.yul\":5416:5509   */\n      tag_281\n        /* \"#utility.yul\":5505:5508   */\n      dup3\n        /* \"#utility.yul\":5416:5509   */\n      tag_282\n      jump\t// in\n    tag_281:\n        /* \"#utility.yul\":5534:5536   */\n      0x40\n        /* \"#utility.yul\":5529:5532   */\n      dup3\n        /* \"#utility.yul\":5525:5537   */\n      add\n        /* \"#utility.yul\":5518:5537   */\n      swap1\n      pop\n        /* \"#utility.yul\":5177:5543   */\n      swap2\n      swap1\n      pop\n      jump\t// out\n        /* \"#utility.yul\":5549:5915   */\n    tag_283:\n        /* \"#utility.yul\":5691:5694   */\n      0x00\n        /* \"#utility.yul\":5712:5779   */\n      tag_285\n        /* \"#utility.yul\":5776:5778   */\n      0x22\n        /* \"#utility.yul\":5771:5774   */\n      dup4\n        /* \"#utility.yul\":5712:5779   */\n      tag_263\n      jump\t// in\n    tag_285:\n        /* \"#utility.yul\":5705:5779   */\n      swap2\n      pop\n        /* \"#utility.yul\":5788:5881   */\n      tag_286\n        /* \"#utility.yul\":5877:5880   */\n      dup3\n        /* \"#utility.yul\":5788:5881   */\n      tag_287\n      jump\t// in\n    tag_286:\n        /* \"#utility.yul\":5906:5908   */\n      0x40\n        /* \"#utility.yul\":5901:5904   */\n      dup3\n        /* \"#utility.yul\":5897:5909   */\n      add\n        /* \"#utility.yul\":5890:5909   */\n      swap1\n      pop\n        /* \"#utility.yul\":5549:5915   */\n      swap2\n      swap1\n      pop\n      jump\t// out\n        /* \"#utility.yul\":5921:6287   */\n    tag_288:\n        /* \"#utility.yul\":6063:6066   */\n      0x00\n        /* \"#utility.yul\":6084:6151   */\n      tag_290\n        /* \"#utility.yul\":6148:6150   */\n      0x25\n        /* \"#utility.yul\":6143:6146   */\n      dup4\n        /* \"#utility.yul\":6084:6151   */\n      tag_263\n      jump\t// in\n    tag_290:\n        /* \"#utility.yul\":6077:6151   */\n      swap2\n      pop\n        /* \"#utility.yul\":6160:6253   */\n      tag_291\n        /* \"#utility.yul\":6249:6252   */\n      dup3\n        /* \"#utility.yul\":6160:6253   */\n      tag_292\n      jump\t// in\n    tag_291:\n        /* \"#utility.yul\":6278:6280   */\n      0x40\n        /* \"#utility.yul\":6273:6276   */\n      dup3\n        /* \"#utility.yul\":6269:6281   */\n      add\n        /* \"#utility.yul\":6262:6281   */\n      swap1\n      pop\n        /* \"#utility.yul\":5921:6287   */\n      swap2\n      swap1\n      pop\n      jump\t// out\n        /* \"#utility.yul\":6293:6659   */\n    tag_293:\n        /* \"#utility.yul\":6435:6438   */\n      0x00\n        /* \"#utility.yul\":6456:6523   */\n      tag_295\n        /* \"#utility.yul\":6520:6522   */\n      0x1d\n        /* \"#utility.yul\":6515:6518   */\n      dup4\n        /* \"#utility.yul\":6456:6523   */\n      tag_263\n      jump\t// in\n    tag_295:\n        /* \"#utility.yul\":6449:6523   */\n      swap2\n      pop\n        /* \"#utility.yul\":6532:6625   */\n      tag_296\n        /* \"#utility.yul\":6621:6624   */\n      dup3\n        /* \"#utility.yul\":6532:6625   */\n      tag_297\n      jump\t// in\n    tag_296:\n        /* \"#utility.yul\":6650:6652   */\n      0x20\n        /* \"#utility.yul\":6645:6648   */\n      dup3\n        /* \"#utility.yul\":6641:6653   */\n      add\n        /* \"#utility.yul\":6634:6653   */\n      swap1\n      pop\n        /* \"#utility.yul\":6293:6659   */\n      swap2\n      swap1\n      pop\n      jump\t// out\n        /* \"#utility.yul\":6665:7031   */\n    tag_298:\n        /* \"#utility.yul\":6807:6810   */\n      0x00\n        /* \"#utility.yul\":6828:6895   */\n      tag_300\n        /* \"#utility.yul\":6892:6894   */\n      0x26\n        /* \"#utility.yul\":6887:6890   */\n      dup4\n        /* \"#utility.yul\":6828:6895   */\n      tag_263\n      jump\t// in\n    tag_300:\n        /* \"#utility.yul\":6821:6895   */\n      swap2\n      pop\n        /* \"#utility.yul\":6904:6997   */\n      tag_301\n        /* \"#utility.yul\":6993:6996   */\n      dup3\n        /* \"#utility.yul\":6904:6997   */\n      tag_302\n      jump\t// in\n    tag_301:\n        /* \"#utility.yul\":7022:7024   */\n      0x40\n        /* \"#utility.yul\":7017:7020   */\n      dup3\n        /* \"#utility.yul\":7013:7025   */\n      add\n        /* \"#utility.yul\":7006:7025   */\n      swap1\n      pop\n        /* \"#utility.yul\":6665:7031   */\n      swap2\n      swap1\n      pop\n      jump\t// out\n        /* \"#utility.yul\":7037:7403   */\n    tag_303:\n        /* \"#utility.yul\":7179:7182   */\n      0x00\n        /* \"#utility.yul\":7200:7267   */\n      tag_305\n        /* \"#utility.yul\":7264:7266   */\n      0x24\n        /* \"#utility.yul\":7259:7262   */\n      dup4\n        /* \"#utility.yul\":7200:7267   */\n      tag_263\n      jump\t// in\n    tag_305:\n        /* \"#utility.yul\":7193:7267   */\n      swap2\n      pop\n        /* \"#utility.yul\":7276:7369   */\n      tag_306\n        /* \"#utility.yul\":7365:7368   */\n      dup3\n        /* \"#utility.yul\":7276:7369   */\n      tag_307\n      jump\t// in\n    tag_306:\n        /* \"#utility.yul\":7394:7396   */\n      0x40\n        /* \"#utility.yul\":7389:7392   */\n      dup3\n        /* \"#utility.yul\":7385:7397   */\n      add\n        /* \"#utility.yul\":7378:7397   */\n      swap1\n      pop\n        /* \"#utility.yul\":7037:7403   */\n      swap2\n      swap1\n      pop\n      jump\t// out\n        /* \"#utility.yul\":7409:7775   */\n    tag_308:\n        /* \"#utility.yul\":7551:7554   */\n      0x00\n        /* \"#utility.yul\":7572:7639   */\n      tag_310\n        /* \"#utility.yul\":7636:7638   */\n      0x21\n        /* \"#utility.yul\":7631:7634   */\n      dup4\n        /* \"#utility.yul\":7572:7639   */\n      tag_263\n      jump\t// in\n    tag_310:\n        /* \"#utility.yul\":7565:7639   */\n      swap2\n      pop\n        /* \"#utility.yul\":7648:7741   */\n      tag_311\n        /* \"#utility.yul\":7737:7740   */\n      dup3\n        /* \"#utility.yul\":7648:7741   */\n      tag_312\n      jump\t// in\n    tag_311:\n        /* \"#utility.yul\":7766:7768   */\n      0x40\n        /* \"#utility.yul\":7761:7764   */\n      dup3\n        /* \"#utility.yul\":7757:7769   */\n      add\n        /* \"#utility.yul\":7750:7769   */\n      swap1\n      pop\n        /* \"#utility.yul\":7409:7775   */\n      swap2\n      swap1\n      pop\n      jump\t// out\n        /* \"#utility.yul\":7781:8147   */\n    tag_313:\n        /* \"#utility.yul\":7923:7926   */\n      0x00\n        /* \"#utility.yul\":7944:8011   */\n      tag_315\n        /* \"#utility.yul\":8008:8010   */\n      0x25\n        /* \"#utility.yul\":8003:8006   */\n      dup4\n        /* \"#utility.yul\":7944:8011   */\n      tag_263\n      jump\t// in\n    tag_315:\n        /* \"#utility.yul\":7937:8011   */\n      swap2\n      pop\n        /* \"#utility.yul\":8020:8113   */\n      tag_316\n        /* \"#utility.yul\":8109:8112   */\n      dup3\n        /* \"#utility.yul\":8020:8113   */\n      tag_317\n      jump\t// in\n    tag_316:\n        /* \"#utility.yul\":8138:8140   */\n      0x40\n        /* \"#utility.yul\":8133:8136   */\n      dup3\n        /* \"#utility.yul\":8129:8141   */\n      add\n        /* \"#utility.yul\":8122:8141   */\n      swap1\n      pop\n        /* \"#utility.yul\":7781:8147   */\n      swap2\n      swap1\n      pop\n      jump\t// out\n        /* \"#utility.yul\":8153:8519   */\n    tag_318:\n        /* \"#utility.yul\":8295:8298   */\n      0x00\n        /* \"#utility.yul\":8316:8383   */\n      tag_320\n        /* \"#utility.yul\":8380:8382   */\n      0x24\n        /* \"#utility.yul\":8375:8378   */\n      dup4\n        /* \"#utility.yul\":8316:8383   */\n      tag_263\n      jump\t// in\n    tag_320:\n        /* \"#utility.yul\":8309:8383   */\n      swap2\n      pop\n        /* \"#utility.yul\":8392:8485   */\n      tag_321\n        /* \"#utility.yul\":8481:8484   */\n      dup3\n        /* \"#utility.yul\":8392:8485   */\n      tag_322\n      jump\t// in\n    tag_321:\n        /* \"#utility.yul\":8510:8512   */\n      0x40\n        /* \"#utility.yul\":8505:8508   */\n      dup3\n        /* \"#utility.yul\":8501:8513   */\n      add\n        /* \"#utility.yul\":8494:8513   */\n      swap1\n      pop\n        /* \"#utility.yul\":8153:8519   */\n      swap2\n      swap1\n      pop\n      jump\t// out\n        /* \"#utility.yul\":8525:8891   */\n    tag_323:\n        /* \"#utility.yul\":8667:8670   */\n      0x00\n        /* \"#utility.yul\":8688:8755   */\n      tag_325\n        /* \"#utility.yul\":8752:8754   */\n      0x25\n        /* \"#utility.yul\":8747:8750   */\n      dup4\n        /* \"#utility.yul\":8688:8755   */\n      tag_263\n      jump\t// in\n    tag_325:\n        /* \"#utility.yul\":8681:8755   */\n      swap2\n      pop\n        /* \"#utility.yul\":8764:8857   */\n      tag_326\n        /* \"#utility.yul\":8853:8856   */\n      dup3\n        /* \"#utility.yul\":8764:8857   */\n      tag_327\n      jump\t// in\n    tag_326:\n        /* \"#utility.yul\":8882:8884   */\n      0x40\n        /* \"#utility.yul\":8877:8880   */\n      dup3\n        /* \"#utility.yul\":8873:8885   */\n      add\n        /* \"#utility.yul\":8866:8885   */\n      swap1\n      pop\n        /* \"#utility.yul\":8525:8891   */\n      swap2\n      swap1\n      pop\n      jump\t// out\n        /* \"#utility.yul\":8897:9263   */\n    tag_328:\n        /* \"#utility.yul\":9039:9042   */\n      0x00\n        /* \"#utility.yul\":9060:9127   */\n      tag_330\n        /* \"#utility.yul\":9124:9126   */\n      0x1f\n        /* \"#utility.yul\":9119:9122   */\n      dup4\n        /* \"#utility.yul\":9060:9127   */\n      tag_263\n      jump\t// in\n    tag_330:\n        /* \"#utility.yul\":9053:9127   */\n      swap2\n      pop\n        /* \"#utility.yul\":9136:9229   */\n      tag_331\n        /* \"#utility.yul\":9225:9228   */\n      dup3\n        /* \"#utility.yul\":9136:9229   */\n      tag_332\n      jump\t// in\n    tag_331:\n        /* \"#utility.yul\":9254:9256   */\n      0x20\n        /* \"#utility.yul\":9249:9252   */\n      dup3\n        /* \"#utility.yul\":9245:9257   */\n      add\n        /* \"#utility.yul\":9238:9257   */\n      swap1\n      pop\n        /* \"#utility.yul\":8897:9263   */\n      swap2\n      swap1\n      pop\n      jump\t// out\n        /* \"#utility.yul\":9269:9387   */\n    tag_333:\n        /* \"#utility.yul\":9356:9380   */\n      tag_335\n        /* \"#utility.yul\":9374:9379   */\n      dup2\n        /* \"#utility.yul\":9356:9380   */\n      tag_336\n      jump\t// in\n    tag_335:\n        /* \"#utility.yul\":9351:9354   */\n      dup3\n        /* \"#utility.yul\":9344:9381   */\n      mstore\n        /* \"#utility.yul\":9269:9387   */\n      pop\n      pop\n      jump\t// out\n        /* \"#utility.yul\":9393:9505   */\n    tag_337:\n        /* \"#utility.yul\":9476:9498   */\n      tag_339\n        /* \"#utility.yul\":9492:9497   */\n      dup2\n        /* \"#utility.yul\":9476:9498   */\n      tag_340\n      jump\t// in\n    tag_339:\n        /* \"#utility.yul\":9471:9474   */\n      dup3\n        /* \"#utility.yul\":9464:9499   */\n      mstore\n        /* \"#utility.yul\":9393:9505   */\n      pop\n      pop\n      jump\t// out\n        /* \"#utility.yul\":9511:9721   */\n    tag_30:\n        /* \"#utility.yul\":9598:9602   */\n      0x00\n        /* \"#utility.yul\":9636:9638   */\n      0x20\n        /* \"#utility.yul\":9625:9634   */\n      dup3\n        /* \"#utility.yul\":9621:9639   */\n      add\n        /* \"#utility.yul\":9613:9639   */\n      swap1\n      pop\n        /* \"#utility.yul\":9649:9714   */\n      tag_342\n        /* \"#utility.yul\":9711:9712   */\n      0x00\n        /* \"#utility.yul\":9700:9709   */\n      dup4\n        /* \"#utility.yul\":9696:9713   */\n      add\n        /* \"#utility.yul\":9687:9693   */\n      dup5\n        /* \"#utility.yul\":9649:9714   */\n      tag_254\n      jump\t// in\n    tag_342:\n        /* \"#utility.yul\":9511:9721   */\n      swap3\n      swap2\n      pop\n      pop\n      jump\t// out\n        /* \"#utility.yul\":9727:10040   */\n    tag_24:\n        /* \"#utility.yul\":9840:9844   */\n      0x00\n        /* \"#utility.yul\":9878:9880   */\n      0x20\n        /* \"#utility.yul\":9867:9876   */\n      dup3\n        /* \"#utility.yul\":9863:9881   */\n      add\n        /* \"#utility.yul\":9855:9881   */\n      swap1\n      pop\n        /* \"#utility.yul\":9927:9936   */\n      dup2\n        /* \"#utility.yul\":9921:9925   */\n      dup2\n        /* \"#utility.yul\":9917:9937   */\n      sub\n        /* \"#utility.yul\":9913:9914   */\n      0x00\n        /* \"#utility.yul\":9902:9911   */\n      dup4\n        /* \"#utility.yul\":9898:9915   */\n      add\n        /* \"#utility.yul\":9891:9938   */\n      mstore\n        /* \"#utility.yul\":9955:10033   */\n      tag_344\n        /* \"#utility.yul\":10028:10032   */\n      dup2\n        /* \"#utility.yul\":10019:10025   */\n      dup5\n        /* \"#utility.yul\":9955:10033   */\n      tag_258\n      jump\t// in\n    tag_344:\n        /* \"#utility.yul\":9947:10033   */\n      swap1\n      pop\n        /* \"#utility.yul\":9727:10040   */\n      swap3\n      swap2\n      pop\n      pop\n      jump\t// out\n        /* \"#utility.yul\":10046:10465   */\n    tag_178:\n        /* \"#utility.yul\":10212:10216   */\n      0x00\n        /* \"#utility.yul\":10250:10252   */\n      0x20\n        /* \"#utility.yul\":10239:10248   */\n      dup3\n        /* \"#utility.yul\":10235:10253   */\n      add\n        /* \"#utility.yul\":10227:10253   */\n      swap1\n      pop\n        /* \"#utility.yul\":10299:10308   */\n      dup2\n        /* \"#utility.yul\":10293:10297   */\n      dup2\n        /* \"#utility.yul\":10289:10309   */\n      sub\n        /* \"#utility.yul\":10285:10286   */\n      0x00\n        /* \"#utility.yul\":10274:10283   */\n      dup4\n        /* \"#utility.yul\":10270:10287   */\n      add\n        /* \"#utility.yul\":10263:10310   */\n      mstore\n        /* \"#utility.yul\":10327:10458   */\n      tag_346\n        /* \"#utility.yul\":10453:10457   */\n      dup2\n        /* \"#utility.yul\":10327:10458   */\n      tag_268\n      jump\t// in\n    tag_346:\n        /* \"#utility.yul\":10319:10458   */\n      swap1\n      pop\n        /* \"#utility.yul\":10046:10465   */\n      swap2\n      swap1\n      pop\n      jump\t// out\n        /* \"#utility.yul\":10471:10890   */\n    tag_149:\n        /* \"#utility.yul\":10637:10641   */\n      0x00\n        /* \"#utility.yul\":10675:10677   */\n      0x20\n        /* \"#utility.yul\":10664:10673   */\n      dup3\n        /* \"#utility.yul\":10660:10678   */\n      add\n        /* \"#utility.yul\":10652:10678   */\n      swap1\n      pop\n        /* \"#utility.yul\":10724:10733   */\n      dup2\n        /* \"#utility.yul\":10718:10722   */\n      dup2\n        /* \"#utility.yul\":10714:10734   */\n      sub\n        /* \"#utility.yul\":10710:10711   */\n      0x00\n        /* \"#utility.yul\":10699:10708   */\n      dup4\n        /* \"#utility.yul\":10695:10712   */\n      add\n        /* \"#utility.yul\":10688:10735   */\n      mstore\n        /* \"#utility.yul\":10752:10883   */\n      tag_348\n        /* \"#utility.yul\":10878:10882   */\n      dup2\n        /* \"#utility.yul\":10752:10883   */\n      tag_273\n      jump\t// in\n    tag_348:\n        /* \"#utility.yul\":10744:10883   */\n      swap1\n      pop\n        /* \"#utility.yul\":10471:10890   */\n      swap2\n      swap1\n      pop\n      jump\t// out\n        /* \"#utility.yul\":10896:11315   */\n    tag_202:\n        /* \"#utility.yul\":11062:11066   */\n      0x00\n        /* \"#utility.yul\":11100:11102   */\n      0x20\n        /* \"#utility.yul\":11089:11098   */\n      dup3\n        /* \"#utility.yul\":11085:11103   */\n      add\n        /* \"#utility.yul\":11077:11103   */\n      swap1\n      pop\n        /* \"#utility.yul\":11149:11158   */\n      dup2\n        /* \"#utility.yul\":11143:11147   */\n      dup2\n        /* \"#utility.yul\":11139:11159   */\n      sub\n        /* \"#utility.yul\":11135:11136   */\n      0x00\n        /* \"#utility.yul\":11124:11133   */\n      dup4\n        /* \"#utility.yul\":11120:11137   */\n      add\n        /* \"#utility.yul\":11113:11160   */\n      mstore\n        /* \"#utility.yul\":11177:11308   */\n      tag_350\n        /* \"#utility.yul\":11303:11307   */\n      dup2\n        /* \"#utility.yul\":11177:11308   */\n      tag_278\n      jump\t// in\n    tag_350:\n        /* \"#utility.yul\":11169:11308   */\n      swap1\n      pop\n        /* \"#utility.yul\":10896:11315   */\n      swap2\n      swap1\n      pop\n      jump\t// out\n        /* \"#utility.yul\":11321:11740   */\n    tag_163:\n        /* \"#utility.yul\":11487:11491   */\n      0x00\n        /* \"#utility.yul\":11525:11527   */\n      0x20\n        /* \"#utility.yul\":11514:11523   */\n      dup3\n        /* \"#utility.yul\":11510:11528   */\n      add\n        /* \"#utility.yul\":11502:11528   */\n      swap1\n      pop\n        /* \"#utility.yul\":11574:11583   */\n      dup2\n        /* \"#utility.yul\":11568:11572   */\n      dup2\n        /* \"#utility.yul\":11564:11584   */\n      sub\n        /* \"#utility.yul\":11560:11561   */\n      0x00\n        /* \"#utility.yul\":11549:11558   */\n      dup4\n        /* \"#utility.yul\":11545:11562   */\n      add\n        /* \"#utility.yul\":11538:11585   */\n      mstore\n        /* \"#utility.yul\":11602:11733   */\n      tag_352\n        /* \"#utility.yul\":11728:11732   */\n      dup2\n        /* \"#utility.yul\":11602:11733   */\n      tag_283\n      jump\t// in\n    tag_352:\n        /* \"#utility.yul\":11594:11733   */\n      swap1\n      pop\n        /* \"#utility.yul\":11321:11740   */\n      swap2\n      swap1\n      pop\n      jump\t// out\n        /* \"#utility.yul\":11746:12165   */\n    tag_146:\n        /* \"#utility.yul\":11912:11916   */\n      0x00\n        /* \"#utility.yul\":11950:11952   */\n      0x20\n        /* \"#utility.yul\":11939:11948   */\n      dup3\n        /* \"#utility.yul\":11935:11953   */\n      add\n        /* \"#utility.yul\":11927:11953   */\n      swap1\n      pop\n        /* \"#utility.yul\":11999:12008   */\n      dup2\n        /* \"#utility.yul\":11993:11997   */\n      dup2\n        /* \"#utility.yul\":11989:12009   */\n      sub\n        /* \"#utility.yul\":11985:11986   */\n      0x00\n        /* \"#utility.yul\":11974:11983   */\n      dup4\n        /* \"#utility.yul\":11970:11987   */\n      add\n        /* \"#utility.yul\":11963:12010   */\n      mstore\n        /* \"#utility.yul\":12027:12158   */\n      tag_354\n        /* \"#utility.yul\":12153:12157   */\n      dup2\n        /* \"#utility.yul\":12027:12158   */\n      tag_288\n      jump\t// in\n    tag_354:\n        /* \"#utility.yul\":12019:12158   */\n      swap1\n      pop\n        /* \"#utility.yul\":11746:12165   */\n      swap2\n      swap1\n      pop\n      jump\t// out\n        /* \"#utility.yul\":12171:12590   */\n    tag_170:\n        /* \"#utility.yul\":12337:12341   */\n      0x00\n        /* \"#utility.yul\":12375:12377   */\n      0x20\n        /* \"#utility.yul\":12364:12373   */\n      dup3\n        /* \"#utility.yul\":12360:12378   */\n      add\n        /* \"#utility.yul\":12352:12378   */\n      swap1\n      pop\n        /* \"#utility.yul\":12424:12433   */\n      dup2\n        /* \"#utility.yul\":12418:12422   */\n      dup2\n        /* \"#utility.yul\":12414:12434   */\n      sub\n        /* \"#utility.yul\":12410:12411   */\n      0x00\n        /* \"#utility.yul\":12399:12408   */\n      dup4\n        /* \"#utility.yul\":12395:12412   */\n      add\n        /* \"#utility.yul\":12388:12435   */\n      mstore\n        /* \"#utility.yul\":12452:12583   */\n      tag_356\n        /* \"#utility.yul\":12578:12582   */\n      dup2\n        /* \"#utility.yul\":12452:12583   */\n      tag_293\n      jump\t// in\n    tag_356:\n        /* \"#utility.yul\":12444:12583   */\n      swap1\n      pop\n        /* \"#utility.yul\":12171:12590   */\n      swap2\n      swap1\n      pop\n      jump\t// out\n        /* \"#utility.yul\":12596:13015   */\n    tag_183:\n        /* \"#utility.yul\":12762:12766   */\n      0x00\n        /* \"#utility.yul\":12800:12802   */\n      0x20\n        /* \"#utility.yul\":12789:12798   */\n      dup3\n        /* \"#utility.yul\":12785:12803   */\n      add\n        /* \"#utility.yul\":12777:12803   */\n      swap1\n      pop\n        /* \"#utility.yul\":12849:12858   */\n      dup2\n        /* \"#utility.yul\":12843:12847   */\n      dup2\n        /* \"#utility.yul\":12839:12859   */\n      sub\n        /* \"#utility.yul\":12835:12836   */\n      0x00\n        /* \"#utility.yul\":12824:12833   */\n      dup4\n        /* \"#utility.yul\":12820:12837   */\n      add\n        /* \"#utility.yul\":12813:12860   */\n      mstore\n        /* \"#utility.yul\":12877:13008   */\n      tag_358\n        /* \"#utility.yul\":13003:13007   */\n      dup2\n        /* \"#utility.yul\":12877:13008   */\n      tag_298\n      jump\t// in\n    tag_358:\n        /* \"#utility.yul\":12869:13008   */\n      swap1\n      pop\n        /* \"#utility.yul\":12596:13015   */\n      swap2\n      swap1\n      pop\n      jump\t// out\n        /* \"#utility.yul\":13021:13440   */\n    tag_115:\n        /* \"#utility.yul\":13187:13191   */\n      0x00\n        /* \"#utility.yul\":13225:13227   */\n      0x20\n        /* \"#utility.yul\":13214:13223   */\n      dup3\n        /* \"#utility.yul\":13210:13228   */\n      add\n        /* \"#utility.yul\":13202:13228   */\n      swap1\n      pop\n        /* \"#utility.yul\":13274:13283   */\n      dup2\n        /* \"#utility.yul\":13268:13272   */\n      dup2\n        /* \"#utility.yul\":13264:13284   */\n      sub\n        /* \"#utility.yul\":13260:13261   */\n      0x00\n        /* \"#utility.yul\":13249:13258   */\n      dup4\n        /* \"#utility.yul\":13245:13262   */\n      add\n        /* \"#utility.yul\":13238:13285   */\n      mstore\n        /* \"#utility.yul\":13302:13433   */\n      tag_360\n        /* \"#utility.yul\":13428:13432   */\n      dup2\n        /* \"#utility.yul\":13302:13433   */\n      tag_303\n      jump\t// in\n    tag_360:\n        /* \"#utility.yul\":13294:13433   */\n      swap1\n      pop\n        /* \"#utility.yul\":13021:13440   */\n      swap2\n      swap1\n      pop\n      jump\t// out\n        /* \"#utility.yul\":13446:13865   */\n    tag_198:\n        /* \"#utility.yul\":13612:13616   */\n      0x00\n        /* \"#utility.yul\":13650:13652   */\n      0x20\n        /* \"#utility.yul\":13639:13648   */\n      dup3\n        /* \"#utility.yul\":13635:13653   */\n      add\n        /* \"#utility.yul\":13627:13653   */\n      swap1\n      pop\n        /* \"#utility.yul\":13699:13708   */\n      dup2\n        /* \"#utility.yul\":13693:13697   */\n      dup2\n        /* \"#utility.yul\":13689:13709   */\n      sub\n        /* \"#utility.yul\":13685:13686   */\n      0x00\n        /* \"#utility.yul\":13674:13683   */\n      dup4\n        /* \"#utility.yul\":13670:13687   */\n      add\n        /* \"#utility.yul\":13663:13710   */\n      mstore\n        /* \"#utility.yul\":13727:13858   */\n      tag_362\n        /* \"#utility.yul\":13853:13857   */\n      dup2\n        /* \"#utility.yul\":13727:13858   */\n      tag_308\n      jump\t// in\n    tag_362:\n        /* \"#utility.yul\":13719:13858   */\n      swap1\n      pop\n        /* \"#utility.yul\":13446:13865   */\n      swap2\n      swap1\n      pop\n      jump\t// out\n        /* \"#utility.yul\":13871:14290   */\n    tag_175:\n        /* \"#utility.yul\":14037:14041   */\n      0x00\n        /* \"#utility.yul\":14075:14077   */\n      0x20\n        /* \"#utility.yul\":14064:14073   */\n      dup3\n        /* \"#utility.yul\":14060:14078   */\n      add\n        /* \"#utility.yul\":14052:14078   */\n      swap1\n      pop\n        /* \"#utility.yul\":14124:14133   */\n      dup2\n        /* \"#utility.yul\":14118:14122   */\n      dup2\n        /* \"#utility.yul\":14114:14134   */\n      sub\n        /* \"#utility.yul\":14110:14111   */\n      0x00\n        /* \"#utility.yul\":14099:14108   */\n      dup4\n        /* \"#utility.yul\":14095:14112   */\n      add\n        /* \"#utility.yul\":14088:14135   */\n      mstore\n        /* \"#utility.yul\":14152:14283   */\n      tag_364\n        /* \"#utility.yul\":14278:14282   */\n      dup2\n        /* \"#utility.yul\":14152:14283   */\n      tag_313\n      jump\t// in\n    tag_364:\n        /* \"#utility.yul\":14144:14283   */\n      swap1\n      pop\n        /* \"#utility.yul\":13871:14290   */\n      swap2\n      swap1\n      pop\n      jump\t// out\n        /* \"#utility.yul\":14296:14715   */\n    tag_160:\n        /* \"#utility.yul\":14462:14466   */\n      0x00\n        /* \"#utility.yul\":14500:14502   */\n      0x20\n        /* \"#utility.yul\":14489:14498   */\n      dup3\n        /* \"#utility.yul\":14485:14503   */\n      add\n        /* \"#utility.yul\":14477:14503   */\n      swap1\n      pop\n        /* \"#utility.yul\":14549:14558   */\n      dup2\n        /* \"#utility.yul\":14543:14547   */\n      dup2\n        /* \"#utility.yul\":14539:14559   */\n      sub\n        /* \"#utility.yul\":14535:14536   */\n      0x00\n        /* \"#utility.yul\":14524:14533   */\n      dup4\n        /* \"#utility.yul\":14520:14537   */\n      add\n        /* \"#utility.yul\":14513:14560   */\n      mstore\n        /* \"#utility.yul\":14577:14708   */\n      tag_366\n        /* \"#utility.yul\":14703:14707   */\n      dup2\n        /* \"#utility.yul\":14577:14708   */\n      tag_318\n      jump\t// in\n    tag_366:\n        /* \"#utility.yul\":14569:14708   */\n      swap1\n      pop\n        /* \"#utility.yul\":14296:14715   */\n      swap2\n      swap1\n      pop\n      jump\t// out\n        /* \"#utility.yul\":14721:15140   */\n    tag_138:\n        /* \"#utility.yul\":14887:14891   */\n      0x00\n        /* \"#utility.yul\":14925:14927   */\n      0x20\n        /* \"#utility.yul\":14914:14923   */\n      dup3\n        /* \"#utility.yul\":14910:14928   */\n      add\n        /* \"#utility.yul\":14902:14928   */\n      swap1\n      pop\n        /* \"#utility.yul\":14974:14983   */\n      dup2\n        /* \"#utility.yul\":14968:14972   */\n      dup2\n        /* \"#utility.yul\":14964:14984   */\n      sub\n        /* \"#utility.yul\":14960:14961   */\n      0x00\n        /* \"#utility.yul\":14949:14958   */\n      dup4\n        /* \"#utility.yul\":14945:14962   */\n      add\n        /* \"#utility.yul\":14938:14985   */\n      mstore\n        /* \"#utility.yul\":15002:15133   */\n      tag_368\n        /* \"#utility.yul\":15128:15132   */\n      dup2\n        /* \"#utility.yul\":15002:15133   */\n      tag_323\n      jump\t// in\n    tag_368:\n        /* \"#utility.yul\":14994:15133   */\n      swap1\n      pop\n        /* \"#utility.yul\":14721:15140   */\n      swap2\n      swap1\n      pop\n      jump\t// out\n        /* \"#utility.yul\":15146:15565   */\n    tag_190:\n        /* \"#utility.yul\":15312:15316   */\n      0x00\n        /* \"#utility.yul\":15350:15352   */\n      0x20\n        /* \"#utility.yul\":15339:15348   */\n      dup3\n        /* \"#utility.yul\":15335:15353   */\n      add\n        /* \"#utility.yul\":15327:15353   */\n      swap1\n      pop\n        /* \"#utility.yul\":15399:15408   */\n      dup2\n        /* \"#utility.yul\":15393:15397   */\n      dup2\n        /* \"#utility.yul\":15389:15409   */\n      sub\n        /* \"#utility.yul\":15385:15386   */\n      0x00\n        /* \"#utility.yul\":15374:15383   */\n      dup4\n        /* \"#utility.yul\":15370:15387   */\n      add\n        /* \"#utility.yul\":15363:15410   */\n      mstore\n        /* \"#utility.yul\":15427:15558   */\n      tag_370\n        /* \"#utility.yul\":15553:15557   */\n      dup2\n        /* \"#utility.yul\":15427:15558   */\n      tag_328\n      jump\t// in\n    tag_370:\n        /* \"#utility.yul\":15419:15558   */\n      swap1\n      pop\n        /* \"#utility.yul\":15146:15565   */\n      swap2\n      swap1\n      pop\n      jump\t// out\n        /* \"#utility.yul\":15571:15793   */\n    tag_34:\n        /* \"#utility.yul\":15664:15668   */\n      0x00\n        /* \"#utility.yul\":15702:15704   */\n      0x20\n        /* \"#utility.yul\":15691:15700   */\n      dup3\n        /* \"#utility.yul\":15687:15705   */\n      add\n        /* \"#utility.yul\":15679:15705   */\n      swap1\n      pop\n        /* \"#utility.yul\":15715:15786   */\n      tag_372\n        /* \"#utility.yul\":15783:15784   */\n      0x00\n        /* \"#utility.yul\":15772:15781   */\n      dup4\n        /* \"#utility.yul\":15768:15785   */\n      add\n        /* \"#utility.yul\":15759:15765   */\n      dup5\n        /* \"#utility.yul\":15715:15786   */\n      tag_333\n      jump\t// in\n    tag_372:\n        /* \"#utility.yul\":15571:15793   */\n      swap3\n      swap2\n      pop\n      pop\n      jump\t// out\n        /* \"#utility.yul\":15799:16013   */\n    tag_43:\n        /* \"#utility.yul\":15888:15892   */\n      0x00\n        /* \"#utility.yul\":15926:15928   */\n      0x20\n        /* \"#utility.yul\":15915:15924   */\n      dup3\n        /* \"#utility.yul\":15911:15929   */\n      add\n        /* \"#utility.yul\":15903:15929   */\n      swap1\n      pop\n        /* \"#utility.yul\":15939:16006   */\n      tag_374\n        /* \"#utility.yul\":16003:16004   */\n      0x00\n        /* \"#utility.yul\":15992:16001   */\n      dup4\n        /* \"#utility.yul\":15988:16005   */\n      add\n        /* \"#utility.yul\":15979:15985   */\n      dup5\n        /* \"#utility.yul\":15939:16006   */\n      tag_337\n      jump\t// in\n    tag_374:\n        /* \"#utility.yul\":15799:16013   */\n      swap3\n      swap2\n      pop\n      pop\n      jump\t// out\n        /* \"#utility.yul\":16100:16199   */\n    tag_261:\n        /* \"#utility.yul\":16152:16158   */\n      0x00\n        /* \"#utility.yul\":16186:16191   */\n      dup2\n        /* \"#utility.yul\":16180:16192   */\n      mload\n        /* \"#utility.yul\":16170:16192   */\n      swap1\n      pop\n        /* \"#utility.yul\":16100:16199   */\n      swap2\n      swap1\n      pop\n      jump\t// out\n        /* \"#utility.yul\":16205:16374   */\n    tag_263:\n        /* \"#utility.yul\":16289:16300   */\n      0x00\n        /* \"#utility.yul\":16323:16329   */\n      dup3\n        /* \"#utility.yul\":16318:16321   */\n      dup3\n        /* \"#utility.yul\":16311:16330   */\n      mstore\n        /* \"#utility.yul\":16363:16367   */\n      0x20\n        /* \"#utility.yul\":16358:16361   */\n      dup3\n        /* \"#utility.yul\":16354:16368   */\n      add\n        /* \"#utility.yul\":16339:16368   */\n      swap1\n      pop\n        /* \"#utility.yul\":16205:16374   */\n      swap3\n      swap2\n      pop\n      pop\n      jump\t// out\n        /* \"#utility.yul\":16380:16685   */\n    tag_111:\n        /* \"#utility.yul\":16420:16423   */\n      0x00\n        /* \"#utility.yul\":16439:16459   */\n      tag_380\n        /* \"#utility.yul\":16457:16458   */\n      dup3\n        /* \"#utility.yul\":16439:16459   */\n      tag_336\n      jump\t// in\n    tag_380:\n        /* \"#utility.yul\":16434:16459   */\n      swap2\n      pop\n        /* \"#utility.yul\":16473:16493   */\n      tag_381\n        /* \"#utility.yul\":16491:16492   */\n      dup4\n        /* \"#utility.yul\":16473:16493   */\n      tag_336\n      jump\t// in\n    tag_381:\n        /* \"#utility.yul\":16468:16493   */\n      swap3\n      pop\n        /* \"#utility.yul\":16627:16628   */\n      dup3\n        /* \"#utility.yul\":16559:16625   */\n      0xffffffffffffffffffffffffffffffffffffffffffffffffffffffffffffffff\n        /* \"#utility.yul\":16555:16629   */\n      sub\n        /* \"#utility.yul\":16552:16553   */\n      dup3\n        /* \"#utility.yul\":16549:16630   */\n      gt\n        /* \"#utility.yul\":16546:16653   */\n      iszero\n      tag_382\n      jumpi\n        /* \"#utility.yul\":16633:16651   */\n      tag_383\n      tag_384\n      jump\t// in\n    tag_383:\n        /* \"#utility.yul\":16546:16653   */\n    tag_382:\n        /* \"#utility.yul\":16677:16678   */\n      dup3\n        /* \"#utility.yul\":16674:16675   */\n      dup3\n        /* \"#utility.yul\":16670:16679   */\n      add\n        /* \"#utility.yul\":16663:16679   */\n      swap1\n      pop\n        /* \"#utility.yul\":16380:16685   */\n      swap3\n      swap2\n      pop\n      pop\n      jump\t// out\n        /* \"#utility.yul\":16691:16882   */\n    tag_152:\n        /* \"#utility.yul\":16731:16735   */\n      0x00\n        /* \"#utility.yul\":16751:16771   */\n      tag_386\n        /* \"#utility.yul\":16769:16770   */\n      dup3\n        /* \"#utility.yul\":16751:16771   */\n      tag_336\n      jump\t// in\n    tag_386:\n        /* \"#utility.yul\":16746:16771   */\n      swap2\n      pop\n        /* \"#utility.yul\":16785:16805   */\n      tag_387\n        /* \"#utility.yul\":16803:16804   */\n      dup4\n        /* \"#utility.yul\":16785:16805   */\n      tag_336\n      jump\t// in\n    tag_387:\n        /* \"#utility.yul\":16780:16805   */\n      swap3\n      pop\n        /* \"#utility.yul\":16824:16825   */\n      dup3\n        /* \"#utility.yul\":16821:16822   */\n      dup3\n        /* \"#utility.yul\":16818:16826   */\n      lt\n        /* \"#utility.yul\":16815:16849   */\n      iszero\n      tag_388\n      jumpi\n        /* \"#utility.yul\":16829:16847   */\n      tag_389\n      tag_384\n      jump\t// in\n    tag_389:\n        /* \"#utility.yul\":16815:16849   */\n    tag_388:\n        /* \"#utility.yul\":16874:16875   */\n      dup3\n        /* \"#utility.yul\":16871:16872   */\n      dup3\n        /* \"#utility.yul\":16867:16876   */\n      sub\n        /* \"#utility.yul\":16859:16876   */\n      swap1\n      pop\n        /* \"#utility.yul\":16691:16882   */\n      swap3\n      swap2\n      pop\n      pop\n      jump\t// out\n        /* \"#utility.yul\":16888:16984   */\n    tag_390:\n        /* \"#utility.yul\":16925:16932   */\n      0x00\n        /* \"#utility.yul\":16954:16978   */\n      tag_392\n        /* \"#utility.yul\":16972:16977   */\n      dup3\n        /* \"#utility.yul\":16954:16978   */\n      tag_393\n      jump\t// in\n    tag_392:\n        /* \"#utility.yul\":16943:16978   */\n      swap1\n      pop\n        /* \"#utility.yul\":16888:16984   */\n      swap2\n      swap1\n      pop\n      jump\t// out\n        /* \"#utility.yul\":16990:17080   */\n    tag_257:\n        /* \"#utility.yul\":17024:17031   */\n      0x00\n        /* \"#utility.yul\":17067:17072   */\n      dup2\n        /* \"#utility.yul\":17060:17073   */\n      iszero\n        /* \"#utility.yul\":17053:17074   */\n      iszero\n        /* \"#utility.yul\":17042:17074   */\n      swap1\n      pop\n        /* \"#utility.yul\":16990:17080   */\n      swap2\n      swap1\n      pop\n      jump\t// out\n        /* \"#utility.yul\":17086:17212   */\n    tag_393:\n        /* \"#utility.yul\":17123:17130   */\n      0x00\n        /* \"#utility.yul\":17163:17205   */\n      0xffffffffffffffffffffffffffffffffffffffff\n        /* \"#utility.yul\":17156:17161   */\n      dup3\n        /* \"#utility.yul\":17152:17206   */\n      and\n        /* \"#utility.yul\":17141:17206   */\n      swap1\n      pop\n        /* \"#utility.yul\":17086:17212   */\n      swap2\n      swap1\n      pop\n      jump\t// out\n        /* \"#utility.yul\":17218:17295   */\n    tag_336:\n        /* \"#utility.yul\":17255:17262   */\n      0x00\n        /* \"#utility.yul\":17284:17289   */\n      dup2\n        /* \"#utility.yul\":17273:17289   */\n      swap1\n      pop\n        /* \"#utility.yul\":17218:17295   */\n      swap2\n      swap1\n      pop\n      jump\t// out\n        /* \"#utility.yul\":17301:17387   */\n    tag_340:\n        /* \"#utility.yul\":17336:17343   */\n      0x00\n        /* \"#utility.yul\":17376:17380   */\n      0xff\n        /* \"#utility.yul\":17369:17374   */\n      dup3\n        /* \"#utility.yul\":17365:17381   */\n      and\n        /* \"#utility.yul\":17354:17381   */\n      swap1\n      pop\n        /* \"#utility.yul\":17301:17387   */\n      swap2\n      swap1\n      pop\n      jump\t// out\n        /* \"#utility.yul\":17393:17700   */\n    tag_265:\n        /* \"#utility.yul\":17461:17462   */\n      0x00\n        /* \"#utility.yul\":17471:17584   */\n    tag_399:\n        /* \"#utility.yul\":17485:17491   */\n      dup4\n        /* \"#utility.yul\":17482:17483   */\n      dup2\n        /* \"#utility.yul\":17479:17492   */\n      lt\n        /* \"#utility.yul\":17471:17584   */\n      iszero\n      tag_401\n      jumpi\n        /* \"#utility.yul\":17570:17571   */\n      dup1\n        /* \"#utility.yul\":17565:17568   */\n      dup3\n        /* \"#utility.yul\":17561:17572   */\n      add\n        /* \"#utility.yul\":17555:17573   */\n      mload\n        /* \"#utility.yul\":17551:17552   */\n      dup2\n        /* \"#utility.yul\":17546:17549   */\n      dup5\n        /* \"#utility.yul\":17542:17553   */\n      add\n        /* \"#utility.yul\":17535:17574   */\n      mstore\n        /* \"#utility.yul\":17507:17509   */\n      0x20\n        /* \"#utility.yul\":17504:17505   */\n      dup2\n        /* \"#utility.yul\":17500:17510   */\n      add\n        /* \"#utility.yul\":17495:17510   */\n      swap1\n      pop\n        /* \"#utility.yul\":17471:17584   */\n      jump(tag_399)\n    tag_401:\n        /* \"#utility.yul\":17602:17608   */\n      dup4\n        /* \"#utility.yul\":17599:17600   */\n      dup2\n        /* \"#utility.yul\":17596:17609   */\n      gt\n        /* \"#utility.yul\":17593:17694   */\n      iszero\n      tag_402\n      jumpi\n        /* \"#utility.yul\":17682:17683   */\n      0x00\n        /* \"#utility.yul\":17673:17679   */\n      dup5\n        /* \"#utility.yul\":17668:17671   */\n      dup5\n        /* \"#utility.yul\":17664:17680   */\n      add\n        /* \"#utility.yul\":17657:17684   */\n      mstore\n        /* \"#utility.yul\":17593:17694   */\n    tag_402:\n        /* \"#utility.yul\":17442:17700   */\n      pop\n        /* \"#utility.yul\":17393:17700   */\n      pop\n      pop\n      pop\n      jump\t// out\n        /* \"#utility.yul\":17706:18026   */\n    tag_88:\n        /* \"#utility.yul\":17750:17756   */\n      0x00\n        /* \"#utility.yul\":17787:17788   */\n      0x02\n        /* \"#utility.yul\":17781:17785   */\n      dup3\n        /* \"#utility.yul\":17777:17789   */\n      div\n        /* \"#utility.yul\":17767:17789   */\n      swap1\n      pop\n        /* \"#utility.yul\":17834:17835   */\n      0x01\n        /* \"#utility.yul\":17828:17832   */\n      dup3\n        /* \"#utility.yul\":17824:17836   */\n      and\n        /* \"#utility.yul\":17855:17873   */\n      dup1\n        /* \"#utility.yul\":17845:17926   */\n      tag_404\n      jumpi\n        /* \"#utility.yul\":17911:17915   */\n      0x7f\n        /* \"#utility.yul\":17903:17909   */\n      dup3\n        /* \"#utility.yul\":17899:17916   */\n      and\n        /* \"#utility.yul\":17889:17916   */\n      swap2\n      pop\n        /* \"#utility.yul\":17845:17926   */\n    tag_404:\n        /* \"#utility.yul\":17973:17975   */\n      0x20\n        /* \"#utility.yul\":17965:17971   */\n      dup3\n        /* \"#utility.yul\":17962:17976   */\n      lt\n        /* \"#utility.yul\":17942:17960   */\n      dup2\n        /* \"#utility.yul\":17939:17977   */\n      eq\n        /* \"#utility.yul\":17936:18020   */\n      iszero\n      tag_405\n      jumpi\n        /* \"#utility.yul\":17992:18010   */\n      tag_406\n      tag_407\n      jump\t// in\n    tag_406:\n        /* \"#utility.yul\":17936:18020   */\n    tag_405:\n        /* \"#utility.yul\":17757:18026   */\n      pop\n        /* \"#utility.yul\":17706:18026   */\n      swap2\n      swap1\n      pop\n      jump\t// out\n        /* \"#utility.yul\":18032:18212   */\n    tag_384:\n        /* \"#utility.yul\":18080:18157   */\n      0x4e487b7100000000000000000000000000000000000000000000000000000000\n        /* \"#utility.yul\":18077:18078   */\n      0x00\n        /* \"#utility.yul\":18070:18158   */\n      mstore\n        /* \"#utility.yul\":18177:18181   */\n      0x11\n        /* \"#utility.yul\":18174:18175   */\n      0x04\n        /* \"#utility.yul\":18167:18182   */\n      mstore\n        /* \"#utility.yul\":18201:18205   */\n      0x24\n        /* \"#utility.yul\":18198:18199   */\n      0x00\n        /* \"#utility.yul\":18191:18206   */\n      revert\n        /* \"#utility.yul\":18218:18398   */\n    tag_407:\n        /* \"#utility.yul\":18266:18343   */\n      0x4e487b7100000000000000000000000000000000000000000000000000000000\n        /* \"#utility.yul\":18263:18264   */\n      0x00\n        /* \"#utility.yul\":18256:18344   */\n      mstore\n        /* \"#utility.yul\":18363:18367   */\n      0x22\n        /* \"#utility.yul\":18360:18361   */\n      0x04\n        /* \"#utility.yul\":18353:18368   */\n      mstore\n        /* \"#utility.yul\":18387:18391   */\n      0x24\n        /* \"#utility.yul\":18384:18385   */\n      0x00\n        /* \"#utility.yul\":18377:18392   */\n      revert\n        /* \"#utility.yul\":18527:18644   */\n    tag_219:\n        /* \"#utility.yul\":18636:18637   */\n      0x00\n        /* \"#utility.yul\":18633:18634   */\n      dup1\n        /* \"#utility.yul\":18626:18638   */\n      revert\n        /* \"#utility.yul\":18650:18752   */\n    tag_267:\n        /* \"#utility.yul\":18691:18697   */\n      0x00\n        /* \"#utility.yul\":18742:18744   */\n      0x1f\n        /* \"#utility.yul\":18738:18745   */\n      not\n        /* \"#utility.yul\":18733:18735   */\n      0x1f\n        /* \"#utility.yul\":18726:18731   */\n      dup4\n        /* \"#utility.yul\":18722:18736   */\n      add\n        /* \"#utility.yul\":18718:18746   */\n      and\n        /* \"#utility.yul\":18708:18746   */\n      swap1\n      pop\n        /* \"#utility.yul\":18650:18752   */\n      swap2\n      swap1\n      pop\n      jump\t// out\n        /* \"#utility.yul\":18758:18980   */\n    tag_272:\n        /* \"#utility.yul\":18898:18932   */\n      0x45524332303a207472616e7366657220746f20746865207a65726f2061646472\n        /* \"#utility.yul\":18894:18895   */\n      0x00\n        /* \"#utility.yul\":18886:18892   */\n      dup3\n        /* \"#utility.yul\":18882:18896   */\n      add\n        /* \"#utility.yul\":18875:18933   */\n      mstore\n        /* \"#utility.yul\":18967:18972   */\n      0x6573730000000000000000000000000000000000000000000000000000000000\n        /* \"#utility.yul\":18962:18964   */\n      0x20\n        /* \"#utility.yul\":18954:18960   */\n      dup3\n        /* \"#utility.yul\":18950:18965   */\n      add\n        /* \"#utility.yul\":18943:18973   */\n      mstore\n        /* \"#utility.yul\":18758:18980   */\n      pop\n      jump\t// out\n        /* \"#utility.yul\":18986:19234   */\n    tag_277:\n        /* \"#utility.yul\":19126:19160   */\n      0x4275726e20616d6f756e74206d757374206265206c657373207468616e206f72\n        /* \"#utility.yul\":19122:19123   */\n      0x00\n        /* \"#utility.yul\":19114:19120   */\n      dup3\n        /* \"#utility.yul\":19110:19124   */\n      add\n        /* \"#utility.yul\":19103:19161   */\n      mstore\n        /* \"#utility.yul\":19195:19226   */\n      0x20657175616c20746f20746865207472616e7366657220616d6f756e74000000\n        /* \"#utility.yul\":19190:19192   */\n      0x20\n        /* \"#utility.yul\":19182:19188   */\n      dup3\n        /* \"#utility.yul\":19178:19193   */\n      add\n        /* \"#utility.yul\":19171:19227   */\n      mstore\n        /* \"#utility.yul\":18986:19234   */\n      pop\n      jump\t// out\n        /* \"#utility.yul\":19240:19461   */\n    tag_282:\n        /* \"#utility.yul\":19380:19414   */\n      0x45524332303a206275726e20616d6f756e7420657863656564732062616c616e\n        /* \"#utility.yul\":19376:19377   */\n      0x00\n        /* \"#utility.yul\":19368:19374   */\n      dup3\n        /* \"#utility.yul\":19364:19378   */\n      add\n        /* \"#utility.yul\":19357:19415   */\n      mstore\n        /* \"#utility.yul\":19449:19453   */\n      0x6365000000000000000000000000000000000000000000000000000000000000\n        /* \"#utility.yul\":19444:19446   */\n      0x20\n        /* \"#utility.yul\":19436:19442   */\n      dup3\n        /* \"#utility.yul\":19432:19447   */\n      add\n        /* \"#utility.yul\":19425:19454   */\n      mstore\n        /* \"#utility.yul\":19240:19461   */\n      pop\n      jump\t// out\n        /* \"#utility.yul\":19467:19688   */\n    tag_287:\n        /* \"#utility.yul\":19607:19641   */\n      0x45524332303a20617070726f766520746f20746865207a65726f206164647265\n        /* \"#utility.yul\":19603:19604   */\n      0x00\n        /* \"#utility.yul\":19595:19601   */\n      dup3\n        /* \"#utility.yul\":19591:19605   */\n      add\n        /* \"#utility.yul\":19584:19642   */\n      mstore\n        /* \"#utility.yul\":19676:19680   */\n      0x7373000000000000000000000000000000000000000000000000000000000000\n        /* \"#utility.yul\":19671:19673   */\n      0x20\n        /* \"#utility.yul\":19663:19669   */\n      dup3\n        /* \"#utility.yul\":19659:19674   */\n      add\n        /* \"#utility.yul\":19652:19681   */\n      mstore\n        /* \"#utility.yul\":19467:19688   */\n      pop\n      jump\t// out\n        /* \"#utility.yul\":19694:19918   */\n    tag_292:\n        /* \"#utility.yul\":19834:19868   */\n      0x4275726e20616d6f756e74206d7573742062652067726561746572207468616e\n        /* \"#utility.yul\":19830:19831   */\n      0x00\n        /* \"#utility.yul\":19822:19828   */\n      dup3\n        /* \"#utility.yul\":19818:19832   */\n      add\n        /* \"#utility.yul\":19811:19869   */\n      mstore\n        /* \"#utility.yul\":19903:19910   */\n      0x207a65726f000000000000000000000000000000000000000000000000000000\n        /* \"#utility.yul\":19898:19900   */\n      0x20\n        /* \"#utility.yul\":19890:19896   */\n      dup3\n        /* \"#utility.yul\":19886:19901   */\n      add\n        /* \"#utility.yul\":19879:19911   */\n      mstore\n        /* \"#utility.yul\":19694:19918   */\n      pop\n      jump\t// out\n        /* \"#utility.yul\":19924:20103   */\n    tag_297:\n        /* \"#utility.yul\":20064:20095   */\n      0x45524332303a20696e73756666696369656e7420616c6c6f77616e6365000000\n        /* \"#utility.yul\":20060:20061   */\n      0x00\n        /* \"#utility.yul\":20052:20058   */\n      dup3\n        /* \"#utility.yul\":20048:20062   */\n      add\n        /* \"#utility.yul\":20041:20096   */\n      mstore\n        /* \"#utility.yul\":19924:20103   */\n      pop\n      jump\t// out\n        /* \"#utility.yul\":20109:20334   */\n    tag_302:\n        /* \"#utility.yul\":20249:20283   */\n      0x45524332303a207472616e7366657220616d6f756e7420657863656564732062\n        /* \"#utility.yul\":20245:20246   */\n      0x00\n        /* \"#utility.yul\":20237:20243   */\n      dup3\n        /* \"#utility.yul\":20233:20247   */\n      add\n        /* \"#utility.yul\":20226:20284   */\n      mstore\n        /* \"#utility.yul\":20318:20326   */\n      0x616c616e63650000000000000000000000000000000000000000000000000000\n        /* \"#utility.yul\":20313:20315   */\n      0x20\n        /* \"#utility.yul\":20305:20311   */\n      dup3\n        /* \"#utility.yul\":20301:20316   */\n      add\n        /* \"#utility.yul\":20294:20327   */\n      mstore\n        /* \"#utility.yul\":20109:20334   */\n      pop\n      jump\t// out\n        /* \"#utility.yul\":20340:20563   */\n    tag_307:\n        /* \"#utility.yul\":20480:20514   */\n      0x46656520616d6f756e74206d7573742062652067726561746572207468616e20\n        /* \"#utility.yul\":20476:20477   */\n      0x00\n        /* \"#utility.yul\":20468:20474   */\n      dup3\n        /* \"#utility.yul\":20464:20478   */\n      add\n        /* \"#utility.yul\":20457:20515   */\n      mstore\n        /* \"#utility.yul\":20549:20555   */\n      0x7a65726f00000000000000000000000000000000000000000000000000000000\n        /* \"#utility.yul\":20544:20546   */\n      0x20\n        /* \"#utility.yul\":20536:20542   */\n      dup3\n        /* \"#utility.yul\":20532:20547   */\n      add\n        /* \"#utility.yul\":20525:20556   */\n      mstore\n        /* \"#utility.yul\":20340:20563   */\n      pop\n      jump\t// out\n        /* \"#utility.yul\":20569:20789   */\n    tag_312:\n        /* \"#utility.yul\":20709:20743   */\n      0x45524332303a206275726e2066726f6d20746865207a65726f20616464726573\n        /* \"#utility.yul\":20705:20706   */\n      0x00\n        /* \"#utility.yul\":20697:20703   */\n      dup3\n        /* \"#utility.yul\":20693:20707   */\n      add\n        /* \"#utility.yul\":20686:20744   */\n      mstore\n        /* \"#utility.yul\":20778:20781   */\n      0x7300000000000000000000000000000000000000000000000000000000000000\n        /* \"#utility.yul\":20773:20775   */\n      0x20\n        /* \"#utility.yul\":20765:20771   */\n      dup3\n        /* \"#utility.yul\":20761:20776   */\n      add\n        /* \"#utility.yul\":20754:20782   */\n      mstore\n        /* \"#utility.yul\":20569:20789   */\n      pop\n      jump\t// out\n        /* \"#utility.yul\":20795:21019   */\n    tag_317:\n        /* \"#utility.yul\":20935:20969   */\n      0x45524332303a207472616e736665722066726f6d20746865207a65726f206164\n        /* \"#utility.yul\":20931:20932   */\n      0x00\n        /* \"#utility.yul\":20923:20929   */\n      dup3\n        /* \"#utility.yul\":20919:20933   */\n      add\n        /* \"#utility.yul\":20912:20970   */\n      mstore\n        /* \"#utility.yul\":21004:21011   */\n      0x6472657373000000000000000000000000000000000000000000000000000000\n        /* \"#utility.yul\":20999:21001   */\n      0x20\n        /* \"#utility.yul\":20991:20997   */\n      dup3\n        /* \"#utility.yul\":20987:21002   */\n      add\n        /* \"#utility.yul\":20980:21012   */\n      mstore\n        /* \"#utility.yul\":20795:21019   */\n      pop\n      jump\t// out\n        /* \"#utility.yul\":21025:21248   */\n    tag_322:\n        /* \"#utility.yul\":21165:21199   */\n      0x45524332303a20617070726f76652066726f6d20746865207a65726f20616464\n        /* \"#utility.yul\":21161:21162   */\n      0x00\n        /* \"#utility.yul\":21153:21159   */\n      dup3\n        /* \"#utility.yul\":21149:21163   */\n      add\n        /* \"#utility.yul\":21142:21200   */\n      mstore\n        /* \"#utility.yul\":21234:21240   */\n      0x7265737300000000000000000000000000000000000000000000000000000000\n        /* \"#utility.yul\":21229:21231   */\n      0x20\n        /* \"#utility.yul\":21221:21227   */\n      dup3\n        /* \"#utility.yul\":21217:21232   */\n      add\n        /* \"#utility.yul\":21210:21241   */\n      mstore\n        /* \"#utility.yul\":21025:21248   */\n      pop\n      jump\t// out\n        /* \"#utility.yul\":21254:21478   */\n    tag_327:\n        /* \"#utility.yul\":21394:21428   */\n      0x45524332303a2064656372656173656420616c6c6f77616e63652062656c6f77\n        /* \"#utility.yul\":21390:21391   */\n      0x00\n        /* \"#utility.yul\":21382:21388   */\n      dup3\n        /* \"#utility.yul\":21378:21392   */\n      add\n        /* \"#utility.yul\":21371:21429   */\n      mstore\n        /* \"#utility.yul\":21463:21470   */\n      0x207a65726f000000000000000000000000000000000000000000000000000000\n        /* \"#utility.yul\":21458:21460   */\n      0x20\n        /* \"#utility.yul\":21450:21456   */\n      dup3\n        /* \"#utility.yul\":21446:21461   */\n      add\n        /* \"#utility.yul\":21439:21471   */\n      mstore\n        /* \"#utility.yul\":21254:21478   */\n      pop\n      jump\t// out\n        /* \"#utility.yul\":21484:21665   */\n    tag_332:\n        /* \"#utility.yul\":21624:21657   */\n      0x45524332303a206d696e7420746f20746865207a65726f206164647265737300\n        /* \"#utility.yul\":21620:21621   */\n      0x00\n        /* \"#utility.yul\":21612:21618   */\n      dup3\n        /* \"#utility.yul\":21608:21622   */\n      add\n        /* \"#utility.yul\":21601:21658   */\n      mstore\n        /* \"#utility.yul\":21484:21665   */\n      pop\n      jump\t// out\n        /* \"#utility.yul\":21671:21793   */\n    tag_211:\n        /* \"#utility.yul\":21744:21768   */\n      tag_428\n        /* \"#utility.yul\":21762:21767   */\n      dup2\n        /* \"#utility.yul\":21744:21768   */\n      tag_390\n      jump\t// in\n    tag_428:\n        /* \"#utility.yul\":21737:21742   */\n      dup2\n        /* \"#utility.yul\":21734:21769   */\n      eq\n        /* \"#utility.yul\":21724:21787   */\n      tag_429\n      jumpi\n        /* \"#utility.yul\":21783:21784   */\n      0x00\n        /* \"#utility.yul\":21780:21781   */\n      dup1\n        /* \"#utility.yul\":21773:21785   */\n      revert\n        /* \"#utility.yul\":21724:21787   */\n    tag_429:\n        /* \"#utility.yul\":21671:21793   */\n      pop\n      jump\t// out\n        /* \"#utility.yul\":21799:21921   */\n    tag_215:\n        /* \"#utility.yul\":21872:21896   */\n      tag_431\n        /* \"#utility.yul\":21890:21895   */\n      dup2\n        /* \"#utility.yul\":21872:21896   */\n      tag_336\n      jump\t// in\n    tag_431:\n        /* \"#utility.yul\":21865:21870   */\n      dup2\n        /* \"#utility.yul\":21862:21897   */\n      eq\n        /* \"#utility.yul\":21852:21915   */\n      tag_432\n      jumpi\n        /* \"#utility.yul\":21911:21912   */\n      0x00\n        /* \"#utility.yul\":21908:21909   */\n      dup1\n        /* \"#utility.yul\":21901:21913   */\n      revert\n        /* \"#utility.yul\":21852:21915   */\n    tag_432:\n        /* \"#utility.yul\":21799:21921   */\n      pop\n      jump\t// out\n\n    auxdata: 0xa264697066735822122024e2ddc92303ae86457131043c280dd506115dde8914290d4094281981d0af3564736f6c63430008070033\n}\n",
				"bytecode": {
					"linkReferences": {},
					"object": "60806040523480156200001157600080fd5b5060405162001fdf38038062001fdf8339818101604052810190620000379190620001a3565b818181600390805190602001906200005192919062000075565b5080600490805190602001906200006a92919062000075565b5050505050620003ac565b8280546200008390620002bd565b90600052602060002090601f016020900481019282620000a75760008555620000f3565b82601f10620000c257805160ff1916838001178555620000f3565b82800160010185558215620000f3579182015b82811115620000f2578251825591602001919060010190620000d5565b5b50905062000102919062000106565b5090565b5b808211156200012157600081600090555060010162000107565b5090565b60006200013c620001368462000251565b62000228565b9050828152602081018484840111156200015b576200015a6200038c565b5b6200016884828562000287565b509392505050565b600082601f83011262000188576200018762000387565b5b81516200019a84826020860162000125565b91505092915050565b60008060408385031215620001bd57620001bc62000396565b5b600083015167ffffffffffffffff811115620001de57620001dd62000391565b5b620001ec8582860162000170565b925050602083015167ffffffffffffffff81111562000210576200020f62000391565b5b6200021e8582860162000170565b9150509250929050565b60006200023462000247565b9050620002428282620002f3565b919050565b6000604051905090565b600067ffffffffffffffff8211156200026f576200026e62000358565b5b6200027a826200039b565b9050602081019050919050565b60005b83811015620002a75780820151818401526020810190506200028a565b83811115620002b7576000848401525b50505050565b60006002820490506001821680620002d657607f821691505b60208210811415620002ed57620002ec62000329565b5b50919050565b620002fe826200039b565b810181811067ffffffffffffffff8211171562000320576200031f62000358565b5b80604052505050565b7f4e487b7100000000000000000000000000000000000000000000000000000000600052602260045260246000fd5b7f4e487b7100000000000000000000000000000000000000000000000000000000600052604160045260246000fd5b600080fd5b600080fd5b600080fd5b600080fd5b6000601f19601f8301169050919050565b611c2380620003bc6000396000f3fe608060405234801561001057600080fd5b50600436106100f55760003560e01c806340c10f1911610097578063a457c2d711610066578063a457c2d71461029a578063a9059cbb146102ca578063bb9c1ad9146102fa578063dd62ed3e1461032a576100f5565b806340c10f191461021457806342966c681461023057806370a082311461024c57806395d89b411461027c576100f5565b806323b872dd116100d357806323b872dd14610166578063313ce5671461019657806339509351146101b45780633f50a705146101e4576100f5565b806306fdde03146100fa578063095ea7b31461011857806318160ddd14610148575b600080fd5b61010261035a565b60405161010f919061143c565b60405180910390f35b610132600480360381019061012d91906110cd565b6103ec565b60405161013f9190611421565b60405180910390f35b61015061040f565b60405161015d91906115fe565b60405180910390f35b610180600480360381019061017b919061107a565b610419565b60405161018d9190611421565b60405180910390f35b61019e610448565b6040516101ab9190611619565b60405180910390f35b6101ce60048036038101906101c991906110cd565b610451565b6040516101db9190611421565b60405180910390f35b6101fe60048036038101906101f99190611160565b610488565b60405161020b9190611421565b60405180910390f35b61022e600480360381019061022991906110cd565b6104fb565b005b61024a600480360381019061024591906111c7565b610509565b005b6102666004803603810190610261919061100d565b61051d565b60405161027391906115fe565b60405180910390f35b610284610565565b604051610291919061143c565b60405180910390f35b6102b460048036038101906102af91906110cd565b6105f7565b6040516102c19190611421565b60405180910390f35b6102e460048036038101906102df91906110cd565b61066e565b6040516102f19190611421565b60405180910390f35b610314600480360381019061030f919061110d565b610691565b6040516103219190611421565b60405180910390f35b610344600480360381019061033f919061103a565b610756565b60405161035191906115fe565b60405180910390f35b60606003805461036990611762565b80601f016020809104026020016040519081016040528092919081815260200182805461039590611762565b80156103e25780601f106103b7576101008083540402835291602001916103e2565b820191906000526020600020905b8154815290600101906020018083116103c557829003601f168201915b5050505050905090565b6000806103f76107dd565b90506104048185856107e5565b600191505092915050565b6000600254905090565b6000806104246107dd565b90506104318582856109b0565b61043c858585610a3c565b60019150509392505050565b60006012905090565b60008061045c6107dd565b905061047d81858561046e8589610756565b6104789190611650565b6107e5565b600191505092915050565b60008083116104cc576040517f08c379a00000000000000000000000000000000000000000000000000000000081526004016104c39061153e565b60405180910390fd5b60006104d66107dd565b90506104e3818486610a3c565b6104ee818787610a3c565b6001915050949350505050565b6105058282610cb4565b5050565b61051a6105146107dd565b82610e0b565b50565b60008060008373ffffffffffffffffffffffffffffffffffffffff1673ffffffffffffffffffffffffffffffffffffffff168152602001908152602001600020549050919050565b60606004805461057490611762565b80601f01602080910402602001604051908101604052809291908181526020018280546105a090611762565b80156105ed5780601f106105c2576101008083540402835291602001916105ed565b820191906000526020600020905b8154815290600101906020018083116105d057829003601f168201915b5050505050905090565b6000806106026107dd565b905060006106108286610756565b905083811015610655576040517f08c379a000000000000000000000000000000000000000000000000000000000815260040161064c906115be565b60405180910390fd5b61066282868684036107e5565b60019250505092915050565b6000806106796107dd565b9050610686818585610a3c565b600191505092915050565b60008082116106d5576040517f08c379a00000000000000000000000000000000000000000000000000000000081526004016106cc906114de565b60405180910390fd5b82821115610718576040517f08c379a000000000000000000000000000000000000000000000000000000000815260040161070f9061147e565b60405180910390fd5b60006107226107dd565b90506000838561073291906116a6565b905061073e8285610e0b565b610749828783610a3c565b6001925050509392505050565b6000600160008473ffffffffffffffffffffffffffffffffffffffff1673ffffffffffffffffffffffffffffffffffffffff16815260200190815260200160002060008373ffffffffffffffffffffffffffffffffffffffff1673ffffffffffffffffffffffffffffffffffffffff16815260200190815260200160002054905092915050565b600033905090565b600073ffffffffffffffffffffffffffffffffffffffff168373ffffffffffffffffffffffffffffffffffffffff161415610855576040517f08c379a000000000000000000000000000000000000000000000000000000000815260040161084c9061159e565b60405180910390fd5b600073ffffffffffffffffffffffffffffffffffffffff168273ffffffffffffffffffffffffffffffffffffffff1614156108c5576040517f08c379a00000000000000000000000000000000000000000000000000000000081526004016108bc906114be565b60405180910390fd5b80600160008573ffffffffffffffffffffffffffffffffffffffff1673ffffffffffffffffffffffffffffffffffffffff16815260200190815260200160002060008473ffffffffffffffffffffffffffffffffffffffff1673ffffffffffffffffffffffffffffffffffffffff168152602001908152602001600020819055508173ffffffffffffffffffffffffffffffffffffffff168373ffffffffffffffffffffffffffffffffffffffff167f8c5be1e5ebec7d5bd14f71427d1e84f3dd0314c0f7b2291e5b200ac8c7c3b925836040516109a391906115fe565b60405180910390a3505050565b60006109bc8484610756565b90507fffffffffffffffffffffffffffffffffffffffffffffffffffffffffffffffff8114610a365781811015610a28576040517f08c379a0000000000000000000000000000000000000000000000000000000008152600401610a1f906114fe565b60405180910390fd5b610a3584848484036107e5565b5b50505050565b600073ffffffffffffffffffffffffffffffffffffffff168373ffffffffffffffffffffffffffffffffffffffff161415610aac576040517f08c379a0000000000000000000000000000000000000000000000000000000008152600401610aa39061157e565b60405180910390fd5b600073ffffffffffffffffffffffffffffffffffffffff168273ffffffffffffffffffffffffffffffffffffffff161415610b1c576040517f08c379a0000000000000000000000000000000000000000000000000000000008152600401610b139061145e565b60405180910390fd5b610b27838383610fd9565b60008060008573ffffffffffffffffffffffffffffffffffffffff1673ffffffffffffffffffffffffffffffffffffffff16815260200190815260200160002054905081811015610bad576040517f08c379a0000000000000000000000000000000000000000000000000000000008152600401610ba49061151e565b60405180910390fd5b8181036000808673ffffffffffffffffffffffffffffffffffffffff1673ffffffffffffffffffffffffffffffffffffffff16815260200190815260200160002081905550816000808573ffffffffffffffffffffffffffffffffffffffff1673ffffffffffffffffffffffffffffffffffffffff168152602001908152602001600020600082825401925050819055508273ffffffffffffffffffffffffffffffffffffffff168473ffffffffffffffffffffffffffffffffffffffff167fddf252ad1be2c89b69c2b068fc378daa952ba7f163c4a11628f55a4df523b3ef84604051610c9b91906115fe565b60405180910390a3610cae848484610fde565b50505050565b600073ffffffffffffffffffffffffffffffffffffffff168273ffffffffffffffffffffffffffffffffffffffff161415610d24576040517f08c379a0000000000000000000000000000000000000000000000000000000008152600401610d1b906115de565b60405180910390fd5b610d3060008383610fd9565b8060026000828254610d429190611650565b92505081905550806000808473ffffffffffffffffffffffffffffffffffffffff1673ffffffffffffffffffffffffffffffffffffffff168152602001908152602001600020600082825401925050819055508173ffffffffffffffffffffffffffffffffffffffff16600073ffffffffffffffffffffffffffffffffffffffff167fddf252ad1be2c89b69c2b068fc378daa952ba7f163c4a11628f55a4df523b3ef83604051610df391906115fe565b60405180910390a3610e0760008383610fde565b5050565b600073ffffffffffffffffffffffffffffffffffffffff168273ffffffffffffffffffffffffffffffffffffffff161415610e7b576040517f08c379a0000000000000000000000000000000000000000000000000000000008152600401610e729061155e565b60405180910390fd5b610e8782600083610fd9565b60008060008473ffffffffffffffffffffffffffffffffffffffff1673ffffffffffffffffffffffffffffffffffffffff16815260200190815260200160002054905081811015610f0d576040517f08c379a0000000000000000000000000000000000000000000000000000000008152600401610f049061149e565b60405180910390fd5b8181036000808573ffffffffffffffffffffffffffffffffffffffff1673ffffffffffffffffffffffffffffffffffffffff1681526020019081526020016000208190555081600260008282540392505081905550600073ffffffffffffffffffffffffffffffffffffffff168373ffffffffffffffffffffffffffffffffffffffff167fddf252ad1be2c89b69c2b068fc378daa952ba7f163c4a11628f55a4df523b3ef84604051610fc091906115fe565b60405180910390a3610fd483600084610fde565b505050565b505050565b505050565b600081359050610ff281611bbf565b92915050565b60008135905061100781611bd6565b92915050565b600060208284031215611023576110226117f2565b5b600061103184828501610fe3565b91505092915050565b60008060408385031215611051576110506117f2565b5b600061105f85828601610fe3565b925050602061107085828601610fe3565b9150509250929050565b600080600060608486031215611093576110926117f2565b5b60006110a186828701610fe3565b93505060206110b286828701610fe3565b92505060406110c386828701610ff8565b9150509250925092565b600080604083850312156110e4576110e36117f2565b5b60006110f285828601610fe3565b925050602061110385828601610ff8565b9150509250929050565b600080600060608486031215611126576111256117f2565b5b600061113486828701610fe3565b935050602061114586828701610ff8565b925050604061115686828701610ff8565b9150509250925092565b6000806000806080858703121561117a576111796117f2565b5b600061118887828801610fe3565b945050602061119987828801610ff8565b93505060406111aa87828801610ff8565b92505060606111bb87828801610fe3565b91505092959194509250565b6000602082840312156111dd576111dc6117f2565b5b60006111eb84828501610ff8565b91505092915050565b6111fd816116ec565b82525050565b600061120e82611634565b611218818561163f565b935061122881856020860161172f565b611231816117f7565b840191505092915050565b600061124960238361163f565b915061125482611808565b604082019050919050565b600061126c603d8361163f565b915061127782611857565b604082019050919050565b600061128f60228361163f565b915061129a826118a6565b604082019050919050565b60006112b260228361163f565b91506112bd826118f5565b604082019050919050565b60006112d560258361163f565b91506112e082611944565b604082019050919050565b60006112f8601d8361163f565b915061130382611993565b602082019050919050565b600061131b60268361163f565b9150611326826119bc565b604082019050919050565b600061133e60248361163f565b915061134982611a0b565b604082019050919050565b600061136160218361163f565b915061136c82611a5a565b604082019050919050565b600061138460258361163f565b915061138f82611aa9565b604082019050919050565b60006113a760248361163f565b91506113b282611af8565b604082019050919050565b60006113ca60258361163f565b91506113d582611b47565b604082019050919050565b60006113ed601f8361163f565b91506113f882611b96565b602082019050919050565b61140c81611718565b82525050565b61141b81611722565b82525050565b600060208201905061143660008301846111f4565b92915050565b600060208201905081810360008301526114568184611203565b905092915050565b600060208201905081810360008301526114778161123c565b9050919050565b600060208201905081810360008301526114978161125f565b9050919050565b600060208201905081810360008301526114b781611282565b9050919050565b600060208201905081810360008301526114d7816112a5565b9050919050565b600060208201905081810360008301526114f7816112c8565b9050919050565b60006020820190508181036000830152611517816112eb565b9050919050565b600060208201905081810360008301526115378161130e565b9050919050565b6000602082019050818103600083015261155781611331565b9050919050565b6000602082019050818103600083015261157781611354565b9050919050565b6000602082019050818103600083015261159781611377565b9050919050565b600060208201905081810360008301526115b78161139a565b9050919050565b600060208201905081810360008301526115d7816113bd565b9050919050565b600060208201905081810360008301526115f7816113e0565b9050919050565b60006020820190506116136000830184611403565b92915050565b600060208201905061162e6000830184611412565b92915050565b600081519050919050565b600082825260208201905092915050565b600061165b82611718565b915061166683611718565b9250827fffffffffffffffffffffffffffffffffffffffffffffffffffffffffffffffff0382111561169b5761169a611794565b5b828201905092915050565b60006116b182611718565b91506116bc83611718565b9250828210156116cf576116ce611794565b5b828203905092915050565b60006116e5826116f8565b9050919050565b60008115159050919050565b600073ffffffffffffffffffffffffffffffffffffffff82169050919050565b6000819050919050565b600060ff82169050919050565b60005b8381101561174d578082015181840152602081019050611732565b8381111561175c576000848401525b50505050565b6000600282049050600182168061177a57607f821691505b6020821081141561178e5761178d6117c3565b5b50919050565b7f4e487b7100000000000000000000000000000000000000000000000000000000600052601160045260246000fd5b7f4e487b7100000000000000000000000000000000000000000000000000000000600052602260045260246000fd5b600080fd5b6000601f19601f8301169050919050565b7f45524332303a207472616e7366657220746f20746865207a65726f206164647260008201527f6573730000000000000000000000000000000000000000000000000000000000602082015250565b7f4275726e20616d6f756e74206d757374206265206c657373207468616e206f7260008201527f20657175616c20746f20746865207472616e7366657220616d6f756e74000000602082015250565b7f45524332303a206275726e20616d6f756e7420657863656564732062616c616e60008201527f6365000000000000000000000000000000000000000000000000000000000000602082015250565b7f45524332303a20617070726f766520746f20746865207a65726f20616464726560008201527f7373000000000000000000000000000000000000000000000000000000000000602082015250565b7f4275726e20616d6f756e74206d7573742062652067726561746572207468616e60008201527f207a65726f000000000000000000000000000000000000000000000000000000602082015250565b7f45524332303a20696e73756666696369656e7420616c6c6f77616e6365000000600082015250565b7f45524332303a207472616e7366657220616d6f756e742065786365656473206260008201527f616c616e63650000000000000000000000000000000000000000000000000000602082015250565b7f46656520616d6f756e74206d7573742062652067726561746572207468616e2060008201527f7a65726f00000000000000000000000000000000000000000000000000000000602082015250565b7f45524332303a206275726e2066726f6d20746865207a65726f2061646472657360008201527f7300000000000000000000000000000000000000000000000000000000000000602082015250565b7f45524332303a207472616e736665722066726f6d20746865207a65726f20616460008201527f6472657373000000000000000000000000000000000000000000000000000000602082015250565b7f45524332303a20617070726f76652066726f6d20746865207a65726f2061646460008201527f7265737300000000000000000000000000000000000000000000000000000000602082015250565b7f45524332303a2064656372656173656420616c6c6f77616e63652062656c6f7760008201527f207a65726f000000000000000000000000000000000000000000000000000000602082015250565b7f45524332303a206d696e7420746f20746865207a65726f206164647265737300600082015250565b611bc8816116da565b8114611bd357600080fd5b50565b611bdf81611718565b8114611bea57600080fd5b5056fea264697066735822122024e2ddc92303ae86457131043c280dd506115dde8914290d4094281981d0af3564736f6c63430008070033",
					"opcodes": "PUSH1 0x80 PUSH1 0x40 MSTORE CALLVALUE DUP1 ISZERO PUSH3 0x11 JUMPI PUSH1 0x0 DUP1 REVERT JUMPDEST POP PUSH1 0x40 MLOAD PUSH3 0x1FDF CODESIZE SUB DUP1 PUSH3 0x1FDF DUP4 CODECOPY DUP2 DUP2 ADD PUSH1 0x40 MSTORE DUP2 ADD SWAP1 PUSH3 0x37 SWAP2 SWAP1 PUSH3 0x1A3 JUMP JUMPDEST DUP2 DUP2 DUP2 PUSH1 0x3 SWAP1 DUP1 MLOAD SWAP1 PUSH1 0x20 ADD SWAP1 PUSH3 0x51 SWAP3 SWAP2 SWAP1 PUSH3 0x75 JUMP JUMPDEST POP DUP1 PUSH1 0x4 SWAP1 DUP1 MLOAD SWAP1 PUSH1 0x20 ADD SWAP1 PUSH3 0x6A SWAP3 SWAP2 SWAP1 PUSH3 0x75 JUMP JUMPDEST POP POP POP POP POP PUSH3 0x3AC JUMP JUMPDEST DUP3 DUP1 SLOAD PUSH3 0x83 SWAP1 PUSH3 0x2BD JUMP JUMPDEST SWAP1 PUSH1 0x0 MSTORE PUSH1 0x20 PUSH1 0x0 KECCAK256 SWAP1 PUSH1 0x1F ADD PUSH1 0x20 SWAP1 DIV DUP2 ADD SWAP3 DUP3 PUSH3 0xA7 JUMPI PUSH1 0x0 DUP6 SSTORE PUSH3 0xF3 JUMP JUMPDEST DUP3 PUSH1 0x1F LT PUSH3 0xC2 JUMPI DUP1 MLOAD PUSH1 0xFF NOT AND DUP4 DUP1 ADD OR DUP6 SSTORE PUSH3 0xF3 JUMP JUMPDEST DUP3 DUP1 ADD PUSH1 0x1 ADD DUP6 SSTORE DUP3 ISZERO PUSH3 0xF3 JUMPI SWAP2 DUP3 ADD JUMPDEST DUP3 DUP2 GT ISZERO PUSH3 0xF2 JUMPI DUP3 MLOAD DUP3 SSTORE SWAP2 PUSH1 0x20 ADD SWAP2 SWAP1 PUSH1 0x1 ADD SWAP1 PUSH3 0xD5 JUMP JUMPDEST JUMPDEST POP SWAP1 POP PUSH3 0x102 SWAP2 SWAP1 PUSH3 0x106 JUMP JUMPDEST POP SWAP1 JUMP JUMPDEST JUMPDEST DUP1 DUP3 GT ISZERO PUSH3 0x121 JUMPI PUSH1 0x0 DUP2 PUSH1 0x0 SWAP1 SSTORE POP PUSH1 0x1 ADD PUSH3 0x107 JUMP JUMPDEST POP SWAP1 JUMP JUMPDEST PUSH1 0x0 PUSH3 0x13C PUSH3 0x136 DUP5 PUSH3 0x251 JUMP JUMPDEST PUSH3 0x228 JUMP JUMPDEST SWAP1 POP DUP3 DUP2 MSTORE PUSH1 0x20 DUP2 ADD DUP5 DUP5 DUP5 ADD GT ISZERO PUSH3 0x15B JUMPI PUSH3 0x15A PUSH3 0x38C JUMP JUMPDEST JUMPDEST PUSH3 0x168 DUP5 DUP3 DUP6 PUSH3 0x287 JUMP JUMPDEST POP SWAP4 SWAP3 POP POP POP JUMP JUMPDEST PUSH1 0x0 DUP3 PUSH1 0x1F DUP4 ADD SLT PUSH3 0x188 JUMPI PUSH3 0x187 PUSH3 0x387 JUMP JUMPDEST JUMPDEST DUP2 MLOAD PUSH3 0x19A DUP5 DUP3 PUSH1 0x20 DUP7 ADD PUSH3 0x125 JUMP JUMPDEST SWAP2 POP POP SWAP3 SWAP2 POP POP JUMP JUMPDEST PUSH1 0x0 DUP1 PUSH1 0x40 DUP4 DUP6 SUB SLT ISZERO PUSH3 0x1BD JUMPI PUSH3 0x1BC PUSH3 0x396 JUMP JUMPDEST JUMPDEST PUSH1 0x0 DUP4 ADD MLOAD PUSH8 0xFFFFFFFFFFFFFFFF DUP2 GT ISZERO PUSH3 0x1DE JUMPI PUSH3 0x1DD PUSH3 0x391 JUMP JUMPDEST JUMPDEST PUSH3 0x1EC DUP6 DUP3 DUP7 ADD PUSH3 0x170 JUMP JUMPDEST SWAP3 POP POP PUSH1 0x20 DUP4 ADD MLOAD PUSH8 0xFFFFFFFFFFFFFFFF DUP2 GT ISZERO PUSH3 0x210 JUMPI PUSH3 0x20F PUSH3 0x391 JUMP JUMPDEST JUMPDEST PUSH3 0x21E DUP6 DUP3 DUP7 ADD PUSH3 0x170 JUMP JUMPDEST SWAP2 POP POP SWAP3 POP SWAP3 SWAP1 POP JUMP JUMPDEST PUSH1 0x0 PUSH3 0x234 PUSH3 0x247 JUMP JUMPDEST SWAP1 POP PUSH3 0x242 DUP3 DUP3 PUSH3 0x2F3 JUMP JUMPDEST SWAP2 SWAP1 POP JUMP JUMPDEST PUSH1 0x0 PUSH1 0x40 MLOAD SWAP1 POP SWAP1 JUMP JUMPDEST PUSH1 0x0 PUSH8 0xFFFFFFFFFFFFFFFF DUP3 GT ISZERO PUSH3 0x26F JUMPI PUSH3 0x26E PUSH3 0x358 JUMP JUMPDEST JUMPDEST PUSH3 0x27A DUP3 PUSH3 0x39B JUMP JUMPDEST SWAP1 POP PUSH1 0x20 DUP2 ADD SWAP1 POP SWAP2 SWAP1 POP JUMP JUMPDEST PUSH1 0x0 JUMPDEST DUP4 DUP2 LT ISZERO PUSH3 0x2A7 JUMPI DUP1 DUP3 ADD MLOAD DUP2 DUP5 ADD MSTORE PUSH1 0x20 DUP2 ADD SWAP1 POP PUSH3 0x28A JUMP JUMPDEST DUP4 DUP2 GT ISZERO PUSH3 0x2B7 JUMPI PUSH1 0x0 DUP5 DUP5 ADD MSTORE JUMPDEST POP POP POP POP JUMP JUMPDEST PUSH1 0x0 PUSH1 0x2 DUP3 DIV SWAP1 POP PUSH1 0x1 DUP3 AND DUP1 PUSH3 0x2D6 JUMPI PUSH1 0x7F DUP3 AND SWAP2 POP JUMPDEST PUSH1 0x20 DUP3 LT DUP2 EQ ISZERO PUSH3 0x2ED JUMPI PUSH3 0x2EC PUSH3 0x329 JUMP JUMPDEST JUMPDEST POP SWAP2 SWAP1 POP JUMP JUMPDEST PUSH3 0x2FE DUP3 PUSH3 0x39B JUMP JUMPDEST DUP2 ADD DUP2 DUP2 LT PUSH8 0xFFFFFFFFFFFFFFFF DUP3 GT OR ISZERO PUSH3 0x320 JUMPI PUSH3 0x31F PUSH3 0x358 JUMP JUMPDEST JUMPDEST DUP1 PUSH1 0x40 MSTORE POP POP POP JUMP JUMPDEST PUSH32 0x4E487B7100000000000000000000000000000000000000000000000000000000 PUSH1 0x0 MSTORE PUSH1 0x22 PUSH1 0x4 MSTORE PUSH1 0x24 PUSH1 0x0 REVERT JUMPDEST PUSH32 0x4E487B7100000000000000000000000000000000000000000000000000000000 PUSH1 0x0 MSTORE PUSH1 0x41 PUSH1 0x4 MSTORE PUSH1 0x24 PUSH1 0x0 REVERT JUMPDEST PUSH1 0x0 DUP1 REVERT JUMPDEST PUSH1 0x0 DUP1 REVERT JUMPDEST PUSH1 0x0 DUP1 REVERT JUMPDEST PUSH1 0x0 DUP1 REVERT JUMPDEST PUSH1 0x0 PUSH1 0x1F NOT PUSH1 0x1F DUP4 ADD AND SWAP1 POP SWAP2 SWAP1 POP JUMP JUMPDEST PUSH2 0x1C23 DUP1 PUSH3 0x3BC PUSH1 0x0 CODECOPY PUSH1 0x0 RETURN INVALID PUSH1 0x80 PUSH1 0x40 MSTORE CALLVALUE DUP1 ISZERO PUSH2 0x10 JUMPI PUSH1 0x0 DUP1 REVERT JUMPDEST POP PUSH1 0x4 CALLDATASIZE LT PUSH2 0xF5 JUMPI PUSH1 0x0 CALLDATALOAD PUSH1 0xE0 SHR DUP1 PUSH4 0x40C10F19 GT PUSH2 0x97 JUMPI DUP1 PUSH4 0xA457C2D7 GT PUSH2 0x66 JUMPI DUP1 PUSH4 0xA457C2D7 EQ PUSH2 0x29A JUMPI DUP1 PUSH4 0xA9059CBB EQ PUSH2 0x2CA JUMPI DUP1 PUSH4 0xBB9C1AD9 EQ PUSH2 0x2FA JUMPI DUP1 PUSH4 0xDD62ED3E EQ PUSH2 0x32A JUMPI PUSH2 0xF5 JUMP JUMPDEST DUP1 PUSH4 0x40C10F19 EQ PUSH2 0x214 JUMPI DUP1 PUSH4 0x42966C68 EQ PUSH2 0x230 JUMPI DUP1 PUSH4 0x70A08231 EQ PUSH2 0x24C JUMPI DUP1 PUSH4 0x95D89B41 EQ PUSH2 0x27C JUMPI PUSH2 0xF5 JUMP JUMPDEST DUP1 PUSH4 0x23B872DD GT PUSH2 0xD3 JUMPI DUP1 PUSH4 0x23B872DD EQ PUSH2 0x166 JUMPI DUP1 PUSH4 0x313CE567 EQ PUSH2 0x196 JUMPI DUP1 PUSH4 0x39509351 EQ PUSH2 0x1B4 JUMPI DUP1 PUSH4 0x3F50A705 EQ PUSH2 0x1E4 JUMPI PUSH2 0xF5 JUMP JUMPDEST DUP1 PUSH4 0x6FDDE03 EQ PUSH2 0xFA JUMPI DUP1 PUSH4 0x95EA7B3 EQ PUSH2 0x118 JUMPI DUP1 PUSH4 0x18160DDD EQ PUSH2 0x148 JUMPI JUMPDEST PUSH1 0x0 DUP1 REVERT JUMPDEST PUSH2 0x102 PUSH2 0x35A JUMP JUMPDEST PUSH1 0x40 MLOAD PUSH2 0x10F SWAP2 SWAP1 PUSH2 0x143C JUMP JUMPDEST PUSH1 0x40 MLOAD DUP1 SWAP2 SUB SWAP1 RETURN JUMPDEST PUSH2 0x132 PUSH1 0x4 DUP1 CALLDATASIZE SUB DUP2 ADD SWAP1 PUSH2 0x12D SWAP2 SWAP1 PUSH2 0x10CD JUMP JUMPDEST PUSH2 0x3EC JUMP JUMPDEST PUSH1 0x40 MLOAD PUSH2 0x13F SWAP2 SWAP1 PUSH2 0x1421 JUMP JUMPDEST PUSH1 0x40 MLOAD DUP1 SWAP2 SUB SWAP1 RETURN JUMPDEST PUSH2 0x150 PUSH2 0x40F JUMP JUMPDEST PUSH1 0x40 MLOAD PUSH2 0x15D SWAP2 SWAP1 PUSH2 0x15FE JUMP JUMPDEST PUSH1 0x40 MLOAD DUP1 SWAP2 SUB SWAP1 RETURN JUMPDEST PUSH2 0x180 PUSH1 0x4 DUP1 CALLDATASIZE SUB DUP2 ADD SWAP1 PUSH2 0x17B SWAP2 SWAP1 PUSH2 0x107A JUMP JUMPDEST PUSH2 0x419 JUMP JUMPDEST PUSH1 0x40 MLOAD PUSH2 0x18D SWAP2 SWAP1 PUSH2 0x1421 JUMP JUMPDEST PUSH1 0x40 MLOAD DUP1 SWAP2 SUB SWAP1 RETURN JUMPDEST PUSH2 0x19E PUSH2 0x448 JUMP JUMPDEST PUSH1 0x40 MLOAD PUSH2 0x1AB SWAP2 SWAP1 PUSH2 0x1619 JUMP JUMPDEST PUSH1 0x40 MLOAD DUP1 SWAP2 SUB SWAP1 RETURN JUMPDEST PUSH2 0x1CE PUSH1 0x4 DUP1 CALLDATASIZE SUB DUP2 ADD SWAP1 PUSH2 0x1C9 SWAP2 SWAP1 PUSH2 0x10CD JUMP JUMPDEST PUSH2 0x451 JUMP JUMPDEST PUSH1 0x40 MLOAD PUSH2 0x1DB SWAP2 SWAP1 PUSH2 0x1421 JUMP JUMPDEST PUSH1 0x40 MLOAD DUP1 SWAP2 SUB SWAP1 RETURN JUMPDEST PUSH2 0x1FE PUSH1 0x4 DUP1 CALLDATASIZE SUB DUP2 ADD SWAP1 PUSH2 0x1F9 SWAP2 SWAP1 PUSH2 0x1160 JUMP JUMPDEST PUSH2 0x488 JUMP JUMPDEST PUSH1 0x40 MLOAD PUSH2 0x20B SWAP2 SWAP1 PUSH2 0x1421 JUMP JUMPDEST PUSH1 0x40 MLOAD DUP1 SWAP2 SUB SWAP1 RETURN JUMPDEST PUSH2 0x22E PUSH1 0x4 DUP1 CALLDATASIZE SUB DUP2 ADD SWAP1 PUSH2 0x229 SWAP2 SWAP1 PUSH2 0x10CD JUMP JUMPDEST PUSH2 0x4FB JUMP JUMPDEST STOP JUMPDEST PUSH2 0x24A PUSH1 0x4 DUP1 CALLDATASIZE SUB DUP2 ADD SWAP1 PUSH2 0x245 SWAP2 SWAP1 PUSH2 0x11C7 JUMP JUMPDEST PUSH2 0x509 JUMP JUMPDEST STOP JUMPDEST PUSH2 0x266 PUSH1 0x4 DUP1 CALLDATASIZE SUB DUP2 ADD SWAP1 PUSH2 0x261 SWAP2 SWAP1 PUSH2 0x100D JUMP JUMPDEST PUSH2 0x51D JUMP JUMPDEST PUSH1 0x40 MLOAD PUSH2 0x273 SWAP2 SWAP1 PUSH2 0x15FE JUMP JUMPDEST PUSH1 0x40 MLOAD DUP1 SWAP2 SUB SWAP1 RETURN JUMPDEST PUSH2 0x284 PUSH2 0x565 JUMP JUMPDEST PUSH1 0x40 MLOAD PUSH2 0x291 SWAP2 SWAP1 PUSH2 0x143C JUMP JUMPDEST PUSH1 0x40 MLOAD DUP1 SWAP2 SUB SWAP1 RETURN JUMPDEST PUSH2 0x2B4 PUSH1 0x4 DUP1 CALLDATASIZE SUB DUP2 ADD SWAP1 PUSH2 0x2AF SWAP2 SWAP1 PUSH2 0x10CD JUMP JUMPDEST PUSH2 0x5F7 JUMP JUMPDEST PUSH1 0x40 MLOAD PUSH2 0x2C1 SWAP2 SWAP1 PUSH2 0x1421 JUMP JUMPDEST PUSH1 0x40 MLOAD DUP1 SWAP2 SUB SWAP1 RETURN JUMPDEST PUSH2 0x2E4 PUSH1 0x4 DUP1 CALLDATASIZE SUB DUP2 ADD SWAP1 PUSH2 0x2DF SWAP2 SWAP1 PUSH2 0x10CD JUMP JUMPDEST PUSH2 0x66E JUMP JUMPDEST PUSH1 0x40 MLOAD PUSH2 0x2F1 SWAP2 SWAP1 PUSH2 0x1421 JUMP JUMPDEST PUSH1 0x40 MLOAD DUP1 SWAP2 SUB SWAP1 RETURN JUMPDEST PUSH2 0x314 PUSH1 0x4 DUP1 CALLDATASIZE SUB DUP2 ADD SWAP1 PUSH2 0x30F SWAP2 SWAP1 PUSH2 0x110D JUMP JUMPDEST PUSH2 0x691 JUMP JUMPDEST PUSH1 0x40 MLOAD PUSH2 0x321 SWAP2 SWAP1 PUSH2 0x1421 JUMP JUMPDEST PUSH1 0x40 MLOAD DUP1 SWAP2 SUB SWAP1 RETURN JUMPDEST PUSH2 0x344 PUSH1 0x4 DUP1 CALLDATASIZE SUB DUP2 ADD SWAP1 PUSH2 0x33F SWAP2 SWAP1 PUSH2 0x103A JUMP JUMPDEST PUSH2 0x756 JUMP JUMPDEST PUSH1 0x40 MLOAD PUSH2 0x351 SWAP2 SWAP1 PUSH2 0x15FE JUMP JUMPDEST PUSH1 0x40 MLOAD DUP1 SWAP2 SUB SWAP1 RETURN JUMPDEST PUSH1 0x60 PUSH1 0x3 DUP1 SLOAD PUSH2 0x369 SWAP1 PUSH2 0x1762 JUMP JUMPDEST DUP1 PUSH1 0x1F ADD PUSH1 0x20 DUP1 SWAP2 DIV MUL PUSH1 0x20 ADD PUSH1 0x40 MLOAD SWAP1 DUP2 ADD PUSH1 0x40 MSTORE DUP1 SWAP3 SWAP2 SWAP1 DUP2 DUP2 MSTORE PUSH1 0x20 ADD DUP3 DUP1 SLOAD PUSH2 0x395 SWAP1 PUSH2 0x1762 JUMP JUMPDEST DUP1 ISZERO PUSH2 0x3E2 JUMPI DUP1 PUSH1 0x1F LT PUSH2 0x3B7 JUMPI PUSH2 0x100 DUP1 DUP4 SLOAD DIV MUL DUP4 MSTORE SWAP2 PUSH1 0x20 ADD SWAP2 PUSH2 0x3E2 JUMP JUMPDEST DUP3 ADD SWAP2 SWAP1 PUSH1 0x0 MSTORE PUSH1 0x20 PUSH1 0x0 KECCAK256 SWAP1 JUMPDEST DUP2 SLOAD DUP2 MSTORE SWAP1 PUSH1 0x1 ADD SWAP1 PUSH1 0x20 ADD DUP1 DUP4 GT PUSH2 0x3C5 JUMPI DUP3 SWAP1 SUB PUSH1 0x1F AND DUP3 ADD SWAP2 JUMPDEST POP POP POP POP POP SWAP1 POP SWAP1 JUMP JUMPDEST PUSH1 0x0 DUP1 PUSH2 0x3F7 PUSH2 0x7DD JUMP JUMPDEST SWAP1 POP PUSH2 0x404 DUP2 DUP6 DUP6 PUSH2 0x7E5 JUMP JUMPDEST PUSH1 0x1 SWAP2 POP POP SWAP3 SWAP2 POP POP JUMP JUMPDEST PUSH1 0x0 PUSH1 0x2 SLOAD SWAP1 POP SWAP1 JUMP JUMPDEST PUSH1 0x0 DUP1 PUSH2 0x424 PUSH2 0x7DD JUMP JUMPDEST SWAP1 POP PUSH2 0x431 DUP6 DUP3 DUP6 PUSH2 0x9B0 JUMP JUMPDEST PUSH2 0x43C DUP6 DUP6 DUP6 PUSH2 0xA3C JUMP JUMPDEST PUSH1 0x1 SWAP2 POP POP SWAP4 SWAP3 POP POP POP JUMP JUMPDEST PUSH1 0x0 PUSH1 0x12 SWAP1 POP SWAP1 JUMP JUMPDEST PUSH1 0x0 DUP1 PUSH2 0x45C PUSH2 0x7DD JUMP JUMPDEST SWAP1 POP PUSH2 0x47D DUP2 DUP6 DUP6 PUSH2 0x46E DUP6 DUP10 PUSH2 0x756 JUMP JUMPDEST PUSH2 0x478 SWAP2 SWAP1 PUSH2 0x1650 JUMP JUMPDEST PUSH2 0x7E5 JUMP JUMPDEST PUSH1 0x1 SWAP2 POP POP SWAP3 SWAP2 POP POP JUMP JUMPDEST PUSH1 0x0 DUP1 DUP4 GT PUSH2 0x4CC JUMPI PUSH1 0x40 MLOAD PUSH32 0x8C379A000000000000000000000000000000000000000000000000000000000 DUP2 MSTORE PUSH1 0x4 ADD PUSH2 0x4C3 SWAP1 PUSH2 0x153E JUMP JUMPDEST PUSH1 0x40 MLOAD DUP1 SWAP2 SUB SWAP1 REVERT JUMPDEST PUSH1 0x0 PUSH2 0x4D6 PUSH2 0x7DD JUMP JUMPDEST SWAP1 POP PUSH2 0x4E3 DUP2 DUP5 DUP7 PUSH2 0xA3C JUMP JUMPDEST PUSH2 0x4EE DUP2 DUP8 DUP8 PUSH2 0xA3C JUMP JUMPDEST PUSH1 0x1 SWAP2 POP POP SWAP5 SWAP4 POP POP POP POP JUMP JUMPDEST PUSH2 0x505 DUP3 DUP3 PUSH2 0xCB4 JUMP JUMPDEST POP POP JUMP JUMPDEST PUSH2 0x51A PUSH2 0x514 PUSH2 0x7DD JUMP JUMPDEST DUP3 PUSH2 0xE0B JUMP JUMPDEST POP JUMP JUMPDEST PUSH1 0x0 DUP1 PUSH1 0x0 DUP4 PUSH20 0xFFFFFFFFFFFFFFFFFFFFFFFFFFFFFFFFFFFFFFFF AND PUSH20 0xFFFFFFFFFFFFFFFFFFFFFFFFFFFFFFFFFFFFFFFF AND DUP2 MSTORE PUSH1 0x20 ADD SWAP1 DUP2 MSTORE PUSH1 0x20 ADD PUSH1 0x0 KECCAK256 SLOAD SWAP1 POP SWAP2 SWAP1 POP JUMP JUMPDEST PUSH1 0x60 PUSH1 0x4 DUP1 SLOAD PUSH2 0x574 SWAP1 PUSH2 0x1762 JUMP JUMPDEST DUP1 PUSH1 0x1F ADD PUSH1 0x20 DUP1 SWAP2 DIV MUL PUSH1 0x20 ADD PUSH1 0x40 MLOAD SWAP1 DUP2 ADD PUSH1 0x40 MSTORE DUP1 SWAP3 SWAP2 SWAP1 DUP2 DUP2 MSTORE PUSH1 0x20 ADD DUP3 DUP1 SLOAD PUSH2 0x5A0 SWAP1 PUSH2 0x1762 JUMP JUMPDEST DUP1 ISZERO PUSH2 0x5ED JUMPI DUP1 PUSH1 0x1F LT PUSH2 0x5C2 JUMPI PUSH2 0x100 DUP1 DUP4 SLOAD DIV MUL DUP4 MSTORE SWAP2 PUSH1 0x20 ADD SWAP2 PUSH2 0x5ED JUMP JUMPDEST DUP3 ADD SWAP2 SWAP1 PUSH1 0x0 MSTORE PUSH1 0x20 PUSH1 0x0 KECCAK256 SWAP1 JUMPDEST DUP2 SLOAD DUP2 MSTORE SWAP1 PUSH1 0x1 ADD SWAP1 PUSH1 0x20 ADD DUP1 DUP4 GT PUSH2 0x5D0 JUMPI DUP3 SWAP1 SUB PUSH1 0x1F AND DUP3 ADD SWAP2 JUMPDEST POP POP POP POP POP SWAP1 POP SWAP1 JUMP JUMPDEST PUSH1 0x0 DUP1 PUSH2 0x602 PUSH2 0x7DD JUMP JUMPDEST SWAP1 POP PUSH1 0x0 PUSH2 0x610 DUP3 DUP7 PUSH2 0x756 JUMP JUMPDEST SWAP1 POP DUP4 DUP2 LT ISZERO PUSH2 0x655 JUMPI PUSH1 0x40 MLOAD PUSH32 0x8C379A000000000000000000000000000000000000000000000000000000000 DUP2 MSTORE PUSH1 0x4 ADD PUSH2 0x64C SWAP1 PUSH2 0x15BE JUMP JUMPDEST PUSH1 0x40 MLOAD DUP1 SWAP2 SUB SWAP1 REVERT JUMPDEST PUSH2 0x662 DUP3 DUP7 DUP7 DUP5 SUB PUSH2 0x7E5 JUMP JUMPDEST PUSH1 0x1 SWAP3 POP POP POP SWAP3 SWAP2 POP POP JUMP JUMPDEST PUSH1 0x0 DUP1 PUSH2 0x679 PUSH2 0x7DD JUMP JUMPDEST SWAP1 POP PUSH2 0x686 DUP2 DUP6 DUP6 PUSH2 0xA3C JUMP JUMPDEST PUSH1 0x1 SWAP2 POP POP SWAP3 SWAP2 POP POP JUMP JUMPDEST PUSH1 0x0 DUP1 DUP3 GT PUSH2 0x6D5 JUMPI PUSH1 0x40 MLOAD PUSH32 0x8C379A000000000000000000000000000000000000000000000000000000000 DUP2 MSTORE PUSH1 0x4 ADD PUSH2 0x6CC SWAP1 PUSH2 0x14DE JUMP JUMPDEST PUSH1 0x40 MLOAD DUP1 SWAP2 SUB SWAP1 REVERT JUMPDEST DUP3 DUP3 GT ISZERO PUSH2 0x718 JUMPI PUSH1 0x40 MLOAD PUSH32 0x8C379A000000000000000000000000000000000000000000000000000000000 DUP2 MSTORE PUSH1 0x4 ADD PUSH2 0x70F SWAP1 PUSH2 0x147E JUMP JUMPDEST PUSH1 0x40 MLOAD DUP1 SWAP2 SUB SWAP1 REVERT JUMPDEST PUSH1 0x0 PUSH2 0x722 PUSH2 0x7DD JUMP JUMPDEST SWAP1 POP PUSH1 0x0 DUP4 DUP6 PUSH2 0x732 SWAP2 SWAP1 PUSH2 0x16A6 JUMP JUMPDEST SWAP1 POP PUSH2 0x73E DUP3 DUP6 PUSH2 0xE0B JUMP JUMPDEST PUSH2 0x749 DUP3 DUP8 DUP4 PUSH2 0xA3C JUMP JUMPDEST PUSH1 0x1 SWAP3 POP POP POP SWAP4 SWAP3 POP POP POP JUMP JUMPDEST PUSH1 0x0 PUSH1 0x1 PUSH1 0x0 DUP5 PUSH20 0xFFFFFFFFFFFFFFFFFFFFFFFFFFFFFFFFFFFFFFFF AND PUSH20 0xFFFFFFFFFFFFFFFFFFFFFFFFFFFFFFFFFFFFFFFF AND DUP2 MSTORE PUSH1 0x20 ADD SWAP1 DUP2 MSTORE PUSH1 0x20 ADD PUSH1 0x0 KECCAK256 PUSH1 0x0 DUP4 PUSH20 0xFFFFFFFFFFFFFFFFFFFFFFFFFFFFFFFFFFFFFFFF AND PUSH20 0xFFFFFFFFFFFFFFFFFFFFFFFFFFFFFFFFFFFFFFFF AND DUP2 MSTORE PUSH1 0x20 ADD SWAP1 DUP2 MSTORE PUSH1 0x20 ADD PUSH1 0x0 KECCAK256 SLOAD SWAP1 POP SWAP3 SWAP2 POP POP JUMP JUMPDEST PUSH1 0x0 CALLER SWAP1 POP SWAP1 JUMP JUMPDEST PUSH1 0x0 PUSH20 0xFFFFFFFFFFFFFFFFFFFFFFFFFFFFFFFFFFFFFFFF AND DUP4 PUSH20 0xFFFFFFFFFFFFFFFFFFFFFFFFFFFFFFFFFFFFFFFF AND EQ ISZERO PUSH2 0x855 JUMPI PUSH1 0x40 MLOAD PUSH32 0x8C379A000000000000000000000000000000000000000000000000000000000 DUP2 MSTORE PUSH1 0x4 ADD PUSH2 0x84C SWAP1 PUSH2 0x159E JUMP JUMPDEST PUSH1 0x40 MLOAD DUP1 SWAP2 SUB SWAP1 REVERT JUMPDEST PUSH1 0x0 PUSH20 0xFFFFFFFFFFFFFFFFFFFFFFFFFFFFFFFFFFFFFFFF AND DUP3 PUSH20 0xFFFFFFFFFFFFFFFFFFFFFFFFFFFFFFFFFFFFFFFF AND EQ ISZERO PUSH2 0x8C5 JUMPI PUSH1 0x40 MLOAD PUSH32 0x8C379A000000000000000000000000000000000000000000000000000000000 DUP2 MSTORE PUSH1 0x4 ADD PUSH2 0x8BC SWAP1 PUSH2 0x14BE JUMP JUMPDEST PUSH1 0x40 MLOAD DUP1 SWAP2 SUB SWAP1 REVERT JUMPDEST DUP1 PUSH1 0x1 PUSH1 0x0 DUP6 PUSH20 0xFFFFFFFFFFFFFFFFFFFFFFFFFFFFFFFFFFFFFFFF AND PUSH20 0xFFFFFFFFFFFFFFFFFFFFFFFFFFFFFFFFFFFFFFFF AND DUP2 MSTORE PUSH1 0x20 ADD SWAP1 DUP2 MSTORE PUSH1 0x20 ADD PUSH1 0x0 KECCAK256 PUSH1 0x0 DUP5 PUSH20 0xFFFFFFFFFFFFFFFFFFFFFFFFFFFFFFFFFFFFFFFF AND PUSH20 0xFFFFFFFFFFFFFFFFFFFFFFFFFFFFFFFFFFFFFFFF AND DUP2 MSTORE PUSH1 0x20 ADD SWAP1 DUP2 MSTORE PUSH1 0x20 ADD PUSH1 0x0 KECCAK256 DUP2 SWAP1 SSTORE POP DUP2 PUSH20 0xFFFFFFFFFFFFFFFFFFFFFFFFFFFFFFFFFFFFFFFF AND DUP4 PUSH20 0xFFFFFFFFFFFFFFFFFFFFFFFFFFFFFFFFFFFFFFFF AND PUSH32 0x8C5BE1E5EBEC7D5BD14F71427D1E84F3DD0314C0F7B2291E5B200AC8C7C3B925 DUP4 PUSH1 0x40 MLOAD PUSH2 0x9A3 SWAP2 SWAP1 PUSH2 0x15FE JUMP JUMPDEST PUSH1 0x40 MLOAD DUP1 SWAP2 SUB SWAP1 LOG3 POP POP POP JUMP JUMPDEST PUSH1 0x0 PUSH2 0x9BC DUP5 DUP5 PUSH2 0x756 JUMP JUMPDEST SWAP1 POP PUSH32 0xFFFFFFFFFFFFFFFFFFFFFFFFFFFFFFFFFFFFFFFFFFFFFFFFFFFFFFFFFFFFFFFF DUP2 EQ PUSH2 0xA36 JUMPI DUP2 DUP2 LT ISZERO PUSH2 0xA28 JUMPI PUSH1 0x40 MLOAD PUSH32 0x8C379A000000000000000000000000000000000000000000000000000000000 DUP2 MSTORE PUSH1 0x4 ADD PUSH2 0xA1F SWAP1 PUSH2 0x14FE JUMP JUMPDEST PUSH1 0x40 MLOAD DUP1 SWAP2 SUB SWAP1 REVERT JUMPDEST PUSH2 0xA35 DUP5 DUP5 DUP5 DUP5 SUB PUSH2 0x7E5 JUMP JUMPDEST JUMPDEST POP POP POP POP JUMP JUMPDEST PUSH1 0x0 PUSH20 0xFFFFFFFFFFFFFFFFFFFFFFFFFFFFFFFFFFFFFFFF AND DUP4 PUSH20 0xFFFFFFFFFFFFFFFFFFFFFFFFFFFFFFFFFFFFFFFF AND EQ ISZERO PUSH2 0xAAC JUMPI PUSH1 0x40 MLOAD PUSH32 0x8C379A000000000000000000000000000000000000000000000000000000000 DUP2 MSTORE PUSH1 0x4 ADD PUSH2 0xAA3 SWAP1 PUSH2 0x157E JUMP JUMPDEST PUSH1 0x40 MLOAD DUP1 SWAP2 SUB SWAP1 REVERT JUMPDEST PUSH1 0x0 PUSH20 0xFFFFFFFFFFFFFFFFFFFFFFFFFFFFFFFFFFFFFFFF AND DUP3 PUSH20 0xFFFFFFFFFFFFFFFFFFFFFFFFFFFFFFFFFFFFFFFF AND EQ ISZERO PUSH2 0xB1C JUMPI PUSH1 0x40 MLOAD PUSH32 0x8C379A000000000000000000000000000000000000000000000000000000000 DUP2 MSTORE PUSH1 0x4 ADD PUSH2 0xB13 SWAP1 PUSH2 0x145E JUMP JUMPDEST PUSH1 0x40 MLOAD DUP1 SWAP2 SUB SWAP1 REVERT JUMPDEST PUSH2 0xB27 DUP4 DUP4 DUP4 PUSH2 0xFD9 JUMP JUMPDEST PUSH1 0x0 DUP1 PUSH1 0x0 DUP6 PUSH20 0xFFFFFFFFFFFFFFFFFFFFFFFFFFFFFFFFFFFFFFFF AND PUSH20 0xFFFFFFFFFFFFFFFFFFFFFFFFFFFFFFFFFFFFFFFF AND DUP2 MSTORE PUSH1 0x20 ADD SWAP1 DUP2 MSTORE PUSH1 0x20 ADD PUSH1 0x0 KECCAK256 SLOAD SWAP1 POP DUP2 DUP2 LT ISZERO PUSH2 0xBAD JUMPI PUSH1 0x40 MLOAD PUSH32 0x8C379A000000000000000000000000000000000000000000000000000000000 DUP2 MSTORE PUSH1 0x4 ADD PUSH2 0xBA4 SWAP1 PUSH2 0x151E JUMP JUMPDEST PUSH1 0x40 MLOAD DUP1 SWAP2 SUB SWAP1 REVERT JUMPDEST DUP2 DUP2 SUB PUSH1 0x0 DUP1 DUP7 PUSH20 0xFFFFFFFFFFFFFFFFFFFFFFFFFFFFFFFFFFFFFFFF AND PUSH20 0xFFFFFFFFFFFFFFFFFFFFFFFFFFFFFFFFFFFFFFFF AND DUP2 MSTORE PUSH1 0x20 ADD SWAP1 DUP2 MSTORE PUSH1 0x20 ADD PUSH1 0x0 KECCAK256 DUP2 SWAP1 SSTORE POP DUP2 PUSH1 0x0 DUP1 DUP6 PUSH20 0xFFFFFFFFFFFFFFFFFFFFFFFFFFFFFFFFFFFFFFFF AND PUSH20 0xFFFFFFFFFFFFFFFFFFFFFFFFFFFFFFFFFFFFFFFF AND DUP2 MSTORE PUSH1 0x20 ADD SWAP1 DUP2 MSTORE PUSH1 0x20 ADD PUSH1 0x0 KECCAK256 PUSH1 0x0 DUP3 DUP3 SLOAD ADD SWAP3 POP POP DUP2 SWAP1 SSTORE POP DUP3 PUSH20 0xFFFFFFFFFFFFFFFFFFFFFFFFFFFFFFFFFFFFFFFF AND DUP5 PUSH20 0xFFFFFFFFFFFFFFFFFFFFFFFFFFFFFFFFFFFFFFFF AND PUSH32 0xDDF252AD1BE2C89B69C2B068FC378DAA952BA7F163C4A11628F55A4DF523B3EF DUP5 PUSH1 0x40 MLOAD PUSH2 0xC9B SWAP2 SWAP1 PUSH2 0x15FE JUMP JUMPDEST PUSH1 0x40 MLOAD DUP1 SWAP2 SUB SWAP1 LOG3 PUSH2 0xCAE DUP5 DUP5 DUP5 PUSH2 0xFDE JUMP JUMPDEST POP POP POP POP JUMP JUMPDEST PUSH1 0x0 PUSH20 0xFFFFFFFFFFFFFFFFFFFFFFFFFFFFFFFFFFFFFFFF AND DUP3 PUSH20 0xFFFFFFFFFFFFFFFFFFFFFFFFFFFFFFFFFFFFFFFF AND EQ ISZERO PUSH2 0xD24 JUMPI PUSH1 0x40 MLOAD PUSH32 0x8C379A000000000000000000000000000000000000000000000000000000000 DUP2 MSTORE PUSH1 0x4 ADD PUSH2 0xD1B SWAP1 PUSH2 0x15DE JUMP JUMPDEST PUSH1 0x40 MLOAD DUP1 SWAP2 SUB SWAP1 REVERT JUMPDEST PUSH2 0xD30 PUSH1 0x0 DUP4 DUP4 PUSH2 0xFD9 JUMP JUMPDEST DUP1 PUSH1 0x2 PUSH1 0x0 DUP3 DUP3 SLOAD PUSH2 0xD42 SWAP2 SWAP1 PUSH2 0x1650 JUMP JUMPDEST SWAP3 POP POP DUP2 SWAP1 SSTORE POP DUP1 PUSH1 0x0 DUP1 DUP5 PUSH20 0xFFFFFFFFFFFFFFFFFFFFFFFFFFFFFFFFFFFFFFFF AND PUSH20 0xFFFFFFFFFFFFFFFFFFFFFFFFFFFFFFFFFFFFFFFF AND DUP2 MSTORE PUSH1 0x20 ADD SWAP1 DUP2 MSTORE PUSH1 0x20 ADD PUSH1 0x0 KECCAK256 PUSH1 0x0 DUP3 DUP3 SLOAD ADD SWAP3 POP POP DUP2 SWAP1 SSTORE POP DUP2 PUSH20 0xFFFFFFFFFFFFFFFFFFFFFFFFFFFFFFFFFFFFFFFF AND PUSH1 0x0 PUSH20 0xFFFFFFFFFFFFFFFFFFFFFFFFFFFFFFFFFFFFFFFF AND PUSH32 0xDDF252AD1BE2C89B69C2B068FC378DAA952BA7F163C4A11628F55A4DF523B3EF DUP4 PUSH1 0x40 MLOAD PUSH2 0xDF3 SWAP2 SWAP1 PUSH2 0x15FE JUMP JUMPDEST PUSH1 0x40 MLOAD DUP1 SWAP2 SUB SWAP1 LOG3 PUSH2 0xE07 PUSH1 0x0 DUP4 DUP4 PUSH2 0xFDE JUMP JUMPDEST POP POP JUMP JUMPDEST PUSH1 0x0 PUSH20 0xFFFFFFFFFFFFFFFFFFFFFFFFFFFFFFFFFFFFFFFF AND DUP3 PUSH20 0xFFFFFFFFFFFFFFFFFFFFFFFFFFFFFFFFFFFFFFFF AND EQ ISZERO PUSH2 0xE7B JUMPI PUSH1 0x40 MLOAD PUSH32 0x8C379A000000000000000000000000000000000000000000000000000000000 DUP2 MSTORE PUSH1 0x4 ADD PUSH2 0xE72 SWAP1 PUSH2 0x155E JUMP JUMPDEST PUSH1 0x40 MLOAD DUP1 SWAP2 SUB SWAP1 REVERT JUMPDEST PUSH2 0xE87 DUP3 PUSH1 0x0 DUP4 PUSH2 0xFD9 JUMP JUMPDEST PUSH1 0x0 DUP1 PUSH1 0x0 DUP5 PUSH20 0xFFFFFFFFFFFFFFFFFFFFFFFFFFFFFFFFFFFFFFFF AND PUSH20 0xFFFFFFFFFFFFFFFFFFFFFFFFFFFFFFFFFFFFFFFF AND DUP2 MSTORE PUSH1 0x20 ADD SWAP1 DUP2 MSTORE PUSH1 0x20 ADD PUSH1 0x0 KECCAK256 SLOAD SWAP1 POP DUP2 DUP2 LT ISZERO PUSH2 0xF0D JUMPI PUSH1 0x40 MLOAD PUSH32 0x8C379A000000000000000000000000000000000000000000000000000000000 DUP2 MSTORE PUSH1 0x4 ADD PUSH2 0xF04 SWAP1 PUSH2 0x149E JUMP JUMPDEST PUSH1 0x40 MLOAD DUP1 SWAP2 SUB SWAP1 REVERT JUMPDEST DUP2 DUP2 SUB PUSH1 0x0 DUP1 DUP6 PUSH20 0xFFFFFFFFFFFFFFFFFFFFFFFFFFFFFFFFFFFFFFFF AND PUSH20 0xFFFFFFFFFFFFFFFFFFFFFFFFFFFFFFFFFFFFFFFF AND DUP2 MSTORE PUSH1 0x20 ADD SWAP1 DUP2 MSTORE PUSH1 0x20 ADD PUSH1 0x0 KECCAK256 DUP2 SWAP1 SSTORE POP DUP2 PUSH1 0x2 PUSH1 0x0 DUP3 DUP3 SLOAD SUB SWAP3 POP POP DUP2 SWAP1 SSTORE POP PUSH1 0x0 PUSH20 0xFFFFFFFFFFFFFFFFFFFFFFFFFFFFFFFFFFFFFFFF AND DUP4 PUSH20 0xFFFFFFFFFFFFFFFFFFFFFFFFFFFFFFFFFFFFFFFF AND PUSH32 0xDDF252AD1BE2C89B69C2B068FC378DAA952BA7F163C4A11628F55A4DF523B3EF DUP5 PUSH1 0x40 MLOAD PUSH2 0xFC0 SWAP2 SWAP1 PUSH2 0x15FE JUMP JUMPDEST PUSH1 0x40 MLOAD DUP1 SWAP2 SUB SWAP1 LOG3 PUSH2 0xFD4 DUP4 PUSH1 0x0 DUP5 PUSH2 0xFDE JUMP JUMPDEST POP POP POP JUMP JUMPDEST POP POP POP JUMP JUMPDEST POP POP POP JUMP JUMPDEST PUSH1 0x0 DUP2 CALLDATALOAD SWAP1 POP PUSH2 0xFF2 DUP2 PUSH2 0x1BBF JUMP JUMPDEST SWAP3 SWAP2 POP POP JUMP JUMPDEST PUSH1 0x0 DUP2 CALLDATALOAD SWAP1 POP PUSH2 0x1007 DUP2 PUSH2 0x1BD6 JUMP JUMPDEST SWAP3 SWAP2 POP POP JUMP JUMPDEST PUSH1 0x0 PUSH1 0x20 DUP3 DUP5 SUB SLT ISZERO PUSH2 0x1023 JUMPI PUSH2 0x1022 PUSH2 0x17F2 JUMP JUMPDEST JUMPDEST PUSH1 0x0 PUSH2 0x1031 DUP5 DUP3 DUP6 ADD PUSH2 0xFE3 JUMP JUMPDEST SWAP2 POP POP SWAP3 SWAP2 POP POP JUMP JUMPDEST PUSH1 0x0 DUP1 PUSH1 0x40 DUP4 DUP6 SUB SLT ISZERO PUSH2 0x1051 JUMPI PUSH2 0x1050 PUSH2 0x17F2 JUMP JUMPDEST JUMPDEST PUSH1 0x0 PUSH2 0x105F DUP6 DUP3 DUP7 ADD PUSH2 0xFE3 JUMP JUMPDEST SWAP3 POP POP PUSH1 0x20 PUSH2 0x1070 DUP6 DUP3 DUP7 ADD PUSH2 0xFE3 JUMP JUMPDEST SWAP2 POP POP SWAP3 POP SWAP3 SWAP1 POP JUMP JUMPDEST PUSH1 0x0 DUP1 PUSH1 0x0 PUSH1 0x60 DUP5 DUP7 SUB SLT ISZERO PUSH2 0x1093 JUMPI PUSH2 0x1092 PUSH2 0x17F2 JUMP JUMPDEST JUMPDEST PUSH1 0x0 PUSH2 0x10A1 DUP7 DUP3 DUP8 ADD PUSH2 0xFE3 JUMP JUMPDEST SWAP4 POP POP PUSH1 0x20 PUSH2 0x10B2 DUP7 DUP3 DUP8 ADD PUSH2 0xFE3 JUMP JUMPDEST SWAP3 POP POP PUSH1 0x40 PUSH2 0x10C3 DUP7 DUP3 DUP8 ADD PUSH2 0xFF8 JUMP JUMPDEST SWAP2 POP POP SWAP3 POP SWAP3 POP SWAP3 JUMP JUMPDEST PUSH1 0x0 DUP1 PUSH1 0x40 DUP4 DUP6 SUB SLT ISZERO PUSH2 0x10E4 JUMPI PUSH2 0x10E3 PUSH2 0x17F2 JUMP JUMPDEST JUMPDEST PUSH1 0x0 PUSH2 0x10F2 DUP6 DUP3 DUP7 ADD PUSH2 0xFE3 JUMP JUMPDEST SWAP3 POP POP PUSH1 0x20 PUSH2 0x1103 DUP6 DUP3 DUP7 ADD PUSH2 0xFF8 JUMP JUMPDEST SWAP2 POP POP SWAP3 POP SWAP3 SWAP1 POP JUMP JUMPDEST PUSH1 0x0 DUP1 PUSH1 0x0 PUSH1 0x60 DUP5 DUP7 SUB SLT ISZERO PUSH2 0x1126 JUMPI PUSH2 0x1125 PUSH2 0x17F2 JUMP JUMPDEST JUMPDEST PUSH1 0x0 PUSH2 0x1134 DUP7 DUP3 DUP8 ADD PUSH2 0xFE3 JUMP JUMPDEST SWAP4 POP POP PUSH1 0x20 PUSH2 0x1145 DUP7 DUP3 DUP8 ADD PUSH2 0xFF8 JUMP JUMPDEST SWAP3 POP POP PUSH1 0x40 PUSH2 0x1156 DUP7 DUP3 DUP8 ADD PUSH2 0xFF8 JUMP JUMPDEST SWAP2 POP POP SWAP3 POP SWAP3 POP SWAP3 JUMP JUMPDEST PUSH1 0x0 DUP1 PUSH1 0x0 DUP1 PUSH1 0x80 DUP6 DUP8 SUB SLT ISZERO PUSH2 0x117A JUMPI PUSH2 0x1179 PUSH2 0x17F2 JUMP JUMPDEST JUMPDEST PUSH1 0x0 PUSH2 0x1188 DUP8 DUP3 DUP9 ADD PUSH2 0xFE3 JUMP JUMPDEST SWAP5 POP POP PUSH1 0x20 PUSH2 0x1199 DUP8 DUP3 DUP9 ADD PUSH2 0xFF8 JUMP JUMPDEST SWAP4 POP POP PUSH1 0x40 PUSH2 0x11AA DUP8 DUP3 DUP9 ADD PUSH2 0xFF8 JUMP JUMPDEST SWAP3 POP POP PUSH1 0x60 PUSH2 0x11BB DUP8 DUP3 DUP9 ADD PUSH2 0xFE3 JUMP JUMPDEST SWAP2 POP POP SWAP3 SWAP6 SWAP2 SWAP5 POP SWAP3 POP JUMP JUMPDEST PUSH1 0x0 PUSH1 0x20 DUP3 DUP5 SUB SLT ISZERO PUSH2 0x11DD JUMPI PUSH2 0x11DC PUSH2 0x17F2 JUMP JUMPDEST JUMPDEST PUSH1 0x0 PUSH2 0x11EB DUP5 DUP3 DUP6 ADD PUSH2 0xFF8 JUMP JUMPDEST SWAP2 POP POP SWAP3 SWAP2 POP POP JUMP JUMPDEST PUSH2 0x11FD DUP2 PUSH2 0x16EC JUMP JUMPDEST DUP3 MSTORE POP POP JUMP JUMPDEST PUSH1 0x0 PUSH2 0x120E DUP3 PUSH2 0x1634 JUMP JUMPDEST PUSH2 0x1218 DUP2 DUP6 PUSH2 0x163F JUMP JUMPDEST SWAP4 POP PUSH2 0x1228 DUP2 DUP6 PUSH1 0x20 DUP7 ADD PUSH2 0x172F JUMP JUMPDEST PUSH2 0x1231 DUP2 PUSH2 0x17F7 JUMP JUMPDEST DUP5 ADD SWAP2 POP POP SWAP3 SWAP2 POP POP JUMP JUMPDEST PUSH1 0x0 PUSH2 0x1249 PUSH1 0x23 DUP4 PUSH2 0x163F JUMP JUMPDEST SWAP2 POP PUSH2 0x1254 DUP3 PUSH2 0x1808 JUMP JUMPDEST PUSH1 0x40 DUP3 ADD SWAP1 POP SWAP2 SWAP1 POP JUMP JUMPDEST PUSH1 0x0 PUSH2 0x126C PUSH1 0x3D DUP4 PUSH2 0x163F JUMP JUMPDEST SWAP2 POP PUSH2 0x1277 DUP3 PUSH2 0x1857 JUMP JUMPDEST PUSH1 0x40 DUP3 ADD SWAP1 POP SWAP2 SWAP1 POP JUMP JUMPDEST PUSH1 0x0 PUSH2 0x128F PUSH1 0x22 DUP4 PUSH2 0x163F JUMP JUMPDEST SWAP2 POP PUSH2 0x129A DUP3 PUSH2 0x18A6 JUMP JUMPDEST PUSH1 0x40 DUP3 ADD SWAP1 POP SWAP2 SWAP1 POP JUMP JUMPDEST PUSH1 0x0 PUSH2 0x12B2 PUSH1 0x22 DUP4 PUSH2 0x163F JUMP JUMPDEST SWAP2 POP PUSH2 0x12BD DUP3 PUSH2 0x18F5 JUMP JUMPDEST PUSH1 0x40 DUP3 ADD SWAP1 POP SWAP2 SWAP1 POP JUMP JUMPDEST PUSH1 0x0 PUSH2 0x12D5 PUSH1 0x25 DUP4 PUSH2 0x163F JUMP JUMPDEST SWAP2 POP PUSH2 0x12E0 DUP3 PUSH2 0x1944 JUMP JUMPDEST PUSH1 0x40 DUP3 ADD SWAP1 POP SWAP2 SWAP1 POP JUMP JUMPDEST PUSH1 0x0 PUSH2 0x12F8 PUSH1 0x1D DUP4 PUSH2 0x163F JUMP JUMPDEST SWAP2 POP PUSH2 0x1303 DUP3 PUSH2 0x1993 JUMP JUMPDEST PUSH1 0x20 DUP3 ADD SWAP1 POP SWAP2 SWAP1 POP JUMP JUMPDEST PUSH1 0x0 PUSH2 0x131B PUSH1 0x26 DUP4 PUSH2 0x163F JUMP JUMPDEST SWAP2 POP PUSH2 0x1326 DUP3 PUSH2 0x19BC JUMP JUMPDEST PUSH1 0x40 DUP3 ADD SWAP1 POP SWAP2 SWAP1 POP JUMP JUMPDEST PUSH1 0x0 PUSH2 0x133E PUSH1 0x24 DUP4 PUSH2 0x163F JUMP JUMPDEST SWAP2 POP PUSH2 0x1349 DUP3 PUSH2 0x1A0B JUMP JUMPDEST PUSH1 0x40 DUP3 ADD SWAP1 POP SWAP2 SWAP1 POP JUMP JUMPDEST PUSH1 0x0 PUSH2 0x1361 PUSH1 0x21 DUP4 PUSH2 0x163F JUMP JUMPDEST SWAP2 POP PUSH2 0x136C DUP3 PUSH2 0x1A5A JUMP JUMPDEST PUSH1 0x40 DUP3 ADD SWAP1 POP SWAP2 SWAP1 POP JUMP JUMPDEST PUSH1 0x0 PUSH2 0x1384 PUSH1 0x25 DUP4 PUSH2 0x163F JUMP JUMPDEST SWAP2 POP PUSH2 0x138F DUP3 PUSH2 0x1AA9 JUMP JUMPDEST PUSH1 0x40 DUP3 ADD SWAP1 POP SWAP2 SWAP1 POP JUMP JUMPDEST PUSH1 0x0 PUSH2 0x13A7 PUSH1 0x24 DUP4 PUSH2 0x163F JUMP JUMPDEST SWAP2 POP PUSH2 0x13B2 DUP3 PUSH2 0x1AF8 JUMP JUMPDEST PUSH1 0x40 DUP3 ADD SWAP1 POP SWAP2 SWAP1 POP JUMP JUMPDEST PUSH1 0x0 PUSH2 0x13CA PUSH1 0x25 DUP4 PUSH2 0x163F JUMP JUMPDEST SWAP2 POP PUSH2 0x13D5 DUP3 PUSH2 0x1B47 JUMP JUMPDEST PUSH1 0x40 DUP3 ADD SWAP1 POP SWAP2 SWAP1 POP JUMP JUMPDEST PUSH1 0x0 PUSH2 0x13ED PUSH1 0x1F DUP4 PUSH2 0x163F JUMP JUMPDEST SWAP2 POP PUSH2 0x13F8 DUP3 PUSH2 0x1B96 JUMP JUMPDEST PUSH1 0x20 DUP3 ADD SWAP1 POP SWAP2 SWAP1 POP JUMP JUMPDEST PUSH2 0x140C DUP2 PUSH2 0x1718 JUMP JUMPDEST DUP3 MSTORE POP POP JUMP JUMPDEST PUSH2 0x141B DUP2 PUSH2 0x1722 JUMP JUMPDEST DUP3 MSTORE POP POP JUMP JUMPDEST PUSH1 0x0 PUSH1 0x20 DUP3 ADD SWAP1 POP PUSH2 0x1436 PUSH1 0x0 DUP4 ADD DUP5 PUSH2 0x11F4 JUMP JUMPDEST SWAP3 SWAP2 POP POP JUMP JUMPDEST PUSH1 0x0 PUSH1 0x20 DUP3 ADD SWAP1 POP DUP2 DUP2 SUB PUSH1 0x0 DUP4 ADD MSTORE PUSH2 0x1456 DUP2 DUP5 PUSH2 0x1203 JUMP JUMPDEST SWAP1 POP SWAP3 SWAP2 POP POP JUMP JUMPDEST PUSH1 0x0 PUSH1 0x20 DUP3 ADD SWAP1 POP DUP2 DUP2 SUB PUSH1 0x0 DUP4 ADD MSTORE PUSH2 0x1477 DUP2 PUSH2 0x123C JUMP JUMPDEST SWAP1 POP SWAP2 SWAP1 POP JUMP JUMPDEST PUSH1 0x0 PUSH1 0x20 DUP3 ADD SWAP1 POP DUP2 DUP2 SUB PUSH1 0x0 DUP4 ADD MSTORE PUSH2 0x1497 DUP2 PUSH2 0x125F JUMP JUMPDEST SWAP1 POP SWAP2 SWAP1 POP JUMP JUMPDEST PUSH1 0x0 PUSH1 0x20 DUP3 ADD SWAP1 POP DUP2 DUP2 SUB PUSH1 0x0 DUP4 ADD MSTORE PUSH2 0x14B7 DUP2 PUSH2 0x1282 JUMP JUMPDEST SWAP1 POP SWAP2 SWAP1 POP JUMP JUMPDEST PUSH1 0x0 PUSH1 0x20 DUP3 ADD SWAP1 POP DUP2 DUP2 SUB PUSH1 0x0 DUP4 ADD MSTORE PUSH2 0x14D7 DUP2 PUSH2 0x12A5 JUMP JUMPDEST SWAP1 POP SWAP2 SWAP1 POP JUMP JUMPDEST PUSH1 0x0 PUSH1 0x20 DUP3 ADD SWAP1 POP DUP2 DUP2 SUB PUSH1 0x0 DUP4 ADD MSTORE PUSH2 0x14F7 DUP2 PUSH2 0x12C8 JUMP JUMPDEST SWAP1 POP SWAP2 SWAP1 POP JUMP JUMPDEST PUSH1 0x0 PUSH1 0x20 DUP3 ADD SWAP1 POP DUP2 DUP2 SUB PUSH1 0x0 DUP4 ADD MSTORE PUSH2 0x1517 DUP2 PUSH2 0x12EB JUMP JUMPDEST SWAP1 POP SWAP2 SWAP1 POP JUMP JUMPDEST PUSH1 0x0 PUSH1 0x20 DUP3 ADD SWAP1 POP DUP2 DUP2 SUB PUSH1 0x0 DUP4 ADD MSTORE PUSH2 0x1537 DUP2 PUSH2 0x130E JUMP JUMPDEST SWAP1 POP SWAP2 SWAP1 POP JUMP JUMPDEST PUSH1 0x0 PUSH1 0x20 DUP3 ADD SWAP1 POP DUP2 DUP2 SUB PUSH1 0x0 DUP4 ADD MSTORE PUSH2 0x1557 DUP2 PUSH2 0x1331 JUMP JUMPDEST SWAP1 POP SWAP2 SWAP1 POP JUMP JUMPDEST PUSH1 0x0 PUSH1 0x20 DUP3 ADD SWAP1 POP DUP2 DUP2 SUB PUSH1 0x0 DUP4 ADD MSTORE PUSH2 0x1577 DUP2 PUSH2 0x1354 JUMP JUMPDEST SWAP1 POP SWAP2 SWAP1 POP JUMP JUMPDEST PUSH1 0x0 PUSH1 0x20 DUP3 ADD SWAP1 POP DUP2 DUP2 SUB PUSH1 0x0 DUP4 ADD MSTORE PUSH2 0x1597 DUP2 PUSH2 0x1377 JUMP JUMPDEST SWAP1 POP SWAP2 SWAP1 POP JUMP JUMPDEST PUSH1 0x0 PUSH1 0x20 DUP3 ADD SWAP1 POP DUP2 DUP2 SUB PUSH1 0x0 DUP4 ADD MSTORE PUSH2 0x15B7 DUP2 PUSH2 0x139A JUMP JUMPDEST SWAP1 POP SWAP2 SWAP1 POP JUMP JUMPDEST PUSH1 0x0 PUSH1 0x20 DUP3 ADD SWAP1 POP DUP2 DUP2 SUB PUSH1 0x0 DUP4 ADD MSTORE PUSH2 0x15D7 DUP2 PUSH2 0x13BD JUMP JUMPDEST SWAP1 POP SWAP2 SWAP1 POP JUMP JUMPDEST PUSH1 0x0 PUSH1 0x20 DUP3 ADD SWAP1 POP DUP2 DUP2 SUB PUSH1 0x0 DUP4 ADD MSTORE PUSH2 0x15F7 DUP2 PUSH2 0x13E0 JUMP JUMPDEST SWAP1 POP SWAP2 SWAP1 POP JUMP JUMPDEST PUSH1 0x0 PUSH1 0x20 DUP3 ADD SWAP1 POP PUSH2 0x1613 PUSH1 0x0 DUP4 ADD DUP5 PUSH2 0x1403 JUMP JUMPDEST SWAP3 SWAP2 POP POP JUMP JUMPDEST PUSH1 0x0 PUSH1 0x20 DUP3 ADD SWAP1 POP PUSH2 0x162E PUSH1 0x0 DUP4 ADD DUP5 PUSH2 0x1412 JUMP JUMPDEST SWAP3 SWAP2 POP POP JUMP JUMPDEST PUSH1 0x0 DUP2 MLOAD SWAP1 POP SWAP2 SWAP1 POP JUMP JUMPDEST PUSH1 0x0 DUP3 DUP3 MSTORE PUSH1 0x20 DUP3 ADD SWAP1 POP SWAP3 SWAP2 POP POP JUMP JUMPDEST PUSH1 0x0 PUSH2 0x165B DUP3 PUSH2 0x1718 JUMP JUMPDEST SWAP2 POP PUSH2 0x1666 DUP4 PUSH2 0x1718 JUMP JUMPDEST SWAP3 POP DUP3 PUSH32 0xFFFFFFFFFFFFFFFFFFFFFFFFFFFFFFFFFFFFFFFFFFFFFFFFFFFFFFFFFFFFFFFF SUB DUP3 GT ISZERO PUSH2 0x169B JUMPI PUSH2 0x169A PUSH2 0x1794 JUMP JUMPDEST JUMPDEST DUP3 DUP3 ADD SWAP1 POP SWAP3 SWAP2 POP POP JUMP JUMPDEST PUSH1 0x0 PUSH2 0x16B1 DUP3 PUSH2 0x1718 JUMP JUMPDEST SWAP2 POP PUSH2 0x16BC DUP4 PUSH2 0x1718 JUMP JUMPDEST SWAP3 POP DUP3 DUP3 LT ISZERO PUSH2 0x16CF JUMPI PUSH2 0x16CE PUSH2 0x1794 JUMP JUMPDEST JUMPDEST DUP3 DUP3 SUB SWAP1 POP SWAP3 SWAP2 POP POP JUMP JUMPDEST PUSH1 0x0 PUSH2 0x16E5 DUP3 PUSH2 0x16F8 JUMP JUMPDEST SWAP1 POP SWAP2 SWAP1 POP JUMP JUMPDEST PUSH1 0x0 DUP2 ISZERO ISZERO SWAP1 POP SWAP2 SWAP1 POP JUMP JUMPDEST PUSH1 0x0 PUSH20 0xFFFFFFFFFFFFFFFFFFFFFFFFFFFFFFFFFFFFFFFF DUP3 AND SWAP1 POP SWAP2 SWAP1 POP JUMP JUMPDEST PUSH1 0x0 DUP2 SWAP1 POP SWAP2 SWAP1 POP JUMP JUMPDEST PUSH1 0x0 PUSH1 0xFF DUP3 AND SWAP1 POP SWAP2 SWAP1 POP JUMP JUMPDEST PUSH1 0x0 JUMPDEST DUP4 DUP2 LT ISZERO PUSH2 0x174D JUMPI DUP1 DUP3 ADD MLOAD DUP2 DUP5 ADD MSTORE PUSH1 0x20 DUP2 ADD SWAP1 POP PUSH2 0x1732 JUMP JUMPDEST DUP4 DUP2 GT ISZERO PUSH2 0x175C JUMPI PUSH1 0x0 DUP5 DUP5 ADD MSTORE JUMPDEST POP POP POP POP JUMP JUMPDEST PUSH1 0x0 PUSH1 0x2 DUP3 DIV SWAP1 POP PUSH1 0x1 DUP3 AND DUP1 PUSH2 0x177A JUMPI PUSH1 0x7F DUP3 AND SWAP2 POP JUMPDEST PUSH1 0x20 DUP3 LT DUP2 EQ ISZERO PUSH2 0x178E JUMPI PUSH2 0x178D PUSH2 0x17C3 JUMP JUMPDEST JUMPDEST POP SWAP2 SWAP1 POP JUMP JUMPDEST PUSH32 0x4E487B7100000000000000000000000000000000000000000000000000000000 PUSH1 0x0 MSTORE PUSH1 0x11 PUSH1 0x4 MSTORE PUSH1 0x24 PUSH1 0x0 REVERT JUMPDEST PUSH32 0x4E487B7100000000000000000000000000000000000000000000000000000000 PUSH1 0x0 MSTORE PUSH1 0x22 PUSH1 0x4 MSTORE PUSH1 0x24 PUSH1 0x0 REVERT JUMPDEST PUSH1 0x0 DUP1 REVERT JUMPDEST PUSH1 0x0 PUSH1 0x1F NOT PUSH1 0x1F DUP4 ADD AND SWAP1 POP SWAP2 SWAP1 POP JUMP JUMPDEST PUSH32 0x45524332303A207472616E7366657220746F20746865207A65726F2061646472 PUSH1 0x0 DUP3 ADD MSTORE PUSH32 0x6573730000000000000000000000000000000000000000000000000000000000 PUSH1 0x20 DUP3 ADD MSTORE POP JUMP JUMPDEST PUSH32 0x4275726E20616D6F756E74206D757374206265206C657373207468616E206F72 PUSH1 0x0 DUP3 ADD MSTORE PUSH32 0x20657175616C20746F20746865207472616E7366657220616D6F756E74000000 PUSH1 0x20 DUP3 ADD MSTORE POP JUMP JUMPDEST PUSH32 0x45524332303A206275726E20616D6F756E7420657863656564732062616C616E PUSH1 0x0 DUP3 ADD MSTORE PUSH32 0x6365000000000000000000000000000000000000000000000000000000000000 PUSH1 0x20 DUP3 ADD MSTORE POP JUMP JUMPDEST PUSH32 0x45524332303A20617070726F766520746F20746865207A65726F206164647265 PUSH1 0x0 DUP3 ADD MSTORE PUSH32 0x7373000000000000000000000000000000000000000000000000000000000000 PUSH1 0x20 DUP3 ADD MSTORE POP JUMP JUMPDEST PUSH32 0x4275726E20616D6F756E74206D7573742062652067726561746572207468616E PUSH1 0x0 DUP3 ADD MSTORE PUSH32 0x207A65726F000000000000000000000000000000000000000000000000000000 PUSH1 0x20 DUP3 ADD MSTORE POP JUMP JUMPDEST PUSH32 0x45524332303A20696E73756666696369656E7420616C6C6F77616E6365000000 PUSH1 0x0 DUP3 ADD MSTORE POP JUMP JUMPDEST PUSH32 0x45524332303A207472616E7366657220616D6F756E7420657863656564732062 PUSH1 0x0 DUP3 ADD MSTORE PUSH32 0x616C616E63650000000000000000000000000000000000000000000000000000 PUSH1 0x20 DUP3 ADD MSTORE POP JUMP JUMPDEST PUSH32 0x46656520616D6F756E74206D7573742062652067726561746572207468616E20 PUSH1 0x0 DUP3 ADD MSTORE PUSH32 0x7A65726F00000000000000000000000000000000000000000000000000000000 PUSH1 0x20 DUP3 ADD MSTORE POP JUMP JUMPDEST PUSH32 0x45524332303A206275726E2066726F6D20746865207A65726F20616464726573 PUSH1 0x0 DUP3 ADD MSTORE PUSH32 0x7300000000000000000000000000000000000000000000000000000000000000 PUSH1 0x20 DUP3 ADD MSTORE POP JUMP JUMPDEST PUSH32 0x45524332303A207472616E736665722066726F6D20746865207A65726F206164 PUSH1 0x0 DUP3 ADD MSTORE PUSH32 0x6472657373000000000000000000000000000000000000000000000000000000 PUSH1 0x20 DUP3 ADD MSTORE POP JUMP JUMPDEST PUSH32 0x45524332303A20617070726F76652066726F6D20746865207A65726F20616464 PUSH1 0x0 DUP3 ADD MSTORE PUSH32 0x7265737300000000000000000000000000000000000000000000000000000000 PUSH1 0x20 DUP3 ADD MSTORE POP JUMP JUMPDEST PUSH32 0x45524332303A2064656372656173656420616C6C6F77616E63652062656C6F77 PUSH1 0x0 DUP3 ADD MSTORE PUSH32 0x207A65726F000000000000000000000000000000000000000000000000000000 PUSH1 0x20 DUP3 ADD MSTORE POP JUMP JUMPDEST PUSH32 0x45524332303A206D696E7420746F20746865207A65726F206164647265737300 PUSH1 0x0 DUP3 ADD MSTORE POP JUMP JUMPDEST PUSH2 0x1BC8 DUP2 PUSH2 0x16DA JUMP JUMPDEST DUP2 EQ PUSH2 0x1BD3 JUMPI PUSH1 0x0 DUP1 REVERT JUMPDEST POP JUMP JUMPDEST PUSH2 0x1BDF DUP2 PUSH2 0x1718 JUMP JUMPDEST DUP2 EQ PUSH2 0x1BEA JUMPI PUSH1 0x0 DUP1 REVERT JUMPDEST POP JUMP INVALID LOG2 PUSH5 0x6970667358 0x22 SLT KECCAK256 0x24 0xE2 0xDD 0xC9 0x23 SUB 0xAE DUP7 GASLIMIT PUSH18 0x31043C280DD506115DDE8914290D40942819 DUP2 0xD0 0xAF CALLDATALOAD PUSH5 0x736F6C6343 STOP ADDMOD SMOD STOP CALLER "
				},
				"gasEstimates": {
					"creation": {
						"codeDepositCost": "1440600",
						"executionCost": "infinite",
						"totalCost": "infinite"
					},
					"external": {
						"allowance(address,address)": "infinite",
						"approve(address,uint256)": "infinite",
						"balanceOf(address)": "2908",
						"burn(uint256)": "infinite",
						"decimals()": "388",
						"decreaseAllowance(address,uint256)": "infinite",
						"increaseAllowance(address,uint256)": "infinite",
						"mint(address,uint256)": "infinite",
						"name()": "infinite",
						"symbol()": "infinite",
						"totalSupply()": "2505",
						"transfer(address,uint256)": "infinite",
						"transferFrom(address,address,uint256)": "infinite",
						"transferWithFee(address,uint256,uint256,address)": "infinite",
						"transferWithTokenBurn(address,uint256,uint256)": "infinite"
					}
				},
				"methodIdentifiers": {
					"allowance(address,address)": "dd62ed3e",
					"approve(address,uint256)": "095ea7b3",
					"balanceOf(address)": "70a08231",
					"burn(uint256)": "42966c68",
					"decimals()": "313ce567",
					"decreaseAllowance(address,uint256)": "a457c2d7",
					"increaseAllowance(address,uint256)": "39509351",
					"mint(address,uint256)": "40c10f19",
					"name()": "06fdde03",
					"symbol()": "95d89b41",
					"totalSupply()": "18160ddd",
					"transfer(address,uint256)": "a9059cbb",
					"transferFrom(address,address,uint256)": "23b872dd",
					"transferWithFee(address,uint256,uint256,address)": "3f50a705",
					"transferWithTokenBurn(address,uint256,uint256)": "bb9c1ad9"
				}
			},
			"storageLayout": {
				"storage": [
					{
						"astId": 15,
						"contract": "contracts/ERC20Token.sol:ERC20Token",
						"label": "_balances",
						"offset": 0,
						"slot": "0",
						"type": "t_mapping(t_address,t_uint256)"
					},
					{
						"astId": 21,
						"contract": "contracts/ERC20Token.sol:ERC20Token",
						"label": "_allowances",
						"offset": 0,
						"slot": "1",
						"type": "t_mapping(t_address,t_mapping(t_address,t_uint256))"
					},
					{
						"astId": 23,
						"contract": "contracts/ERC20Token.sol:ERC20Token",
						"label": "_totalSupply",
						"offset": 0,
						"slot": "2",
						"type": "t_uint256"
					},
					{
						"astId": 25,
						"contract": "contracts/ERC20Token.sol:ERC20Token",
						"label": "_name",
						"offset": 0,
						"slot": "3",
						"type": "t_string_storage"
					},
					{
						"astId": 27,
						"contract": "contracts/ERC20Token.sol:ERC20Token",
						"label": "_symbol",
						"offset": 0,
						"slot": "4",
						"type": "t_string_storage"
					}
				],
				"types": {
					"t_address": {
						"encoding": "inplace",
						"label": "address",
						"numberOfBytes": "20"
					},
					"t_mapping(t_address,t_mapping(t_address,t_uint256))": {
						"encoding": "mapping",
						"key": "t_address",
						"label": "mapping(address => mapping(address => uint256))",
						"numberOfBytes": "32",
						"value": "t_mapping(t_address,t_uint256)"
					},
					"t_mapping(t_address,t_uint256)": {
						"encoding": "mapping",
						"key": "t_address",
						"label": "mapping(address => uint256)",
						"numberOfBytes": "32",
						"value": "t_uint256"
					},
					"t_string_storage": {
						"encoding": "bytes",
						"label": "string",
						"numberOfBytes": "32"
					},
					"t_uint256": {
						"encoding": "inplace",
						"label": "uint256",
						"numberOfBytes": "32"
					}
				}
			},
			"userdoc": {
				"kind": "user",
				"methods": {},
				"version": 1
			}
		}
	}
}