{
	"contracts/ERC20TokenABC.sol": {
		"ERC20TokenABC": {
			"abi": [
				{
					"inputs": [
						{
							"internalType": "string",
							"name": "name_",
							"type": "string"
						},
						{
							"internalType": "string",
							"name": "symbol_",
							"type": "string"
						},
						{
							"internalType": "uint256",
							"name": "totalSupply_",
							"type": "uint256"
						}
					],
					"stateMutability": "nonpayable",
					"type": "constructor"
				},
				{
					"anonymous": false,
					"inputs": [
						{
							"indexed": true,
							"internalType": "address",
							"name": "owner",
							"type": "address"
						},
						{
							"indexed": true,
							"internalType": "address",
							"name": "spender",
							"type": "address"
						},
						{
							"indexed": false,
							"internalType": "uint256",
							"name": "value",
							"type": "uint256"
						}
					],
					"name": "Approval",
					"type": "event"
				},
				{
					"anonymous": false,
					"inputs": [
						{
							"indexed": true,
							"internalType": "address",
							"name": "from",
							"type": "address"
						},
						{
							"indexed": true,
							"internalType": "address",
							"name": "to",
							"type": "address"
						},
						{
							"indexed": false,
							"internalType": "uint256",
							"name": "value",
							"type": "uint256"
						}
					],
					"name": "Transfer",
					"type": "event"
				},
				{
					"inputs": [
						{
							"internalType": "address",
							"name": "owner",
							"type": "address"
						},
						{
							"internalType": "address",
							"name": "spender",
							"type": "address"
						}
					],
					"name": "allowance",
					"outputs": [
						{
							"internalType": "uint256",
							"name": "",
							"type": "uint256"
						}
					],
					"stateMutability": "view",
					"type": "function"
				},
				{
					"inputs": [
						{
							"internalType": "address",
							"name": "spender",
							"type": "address"
						},
						{
							"internalType": "uint256",
							"name": "amount",
							"type": "uint256"
						}
					],
					"name": "approve",
					"outputs": [
						{
							"internalType": "bool",
							"name": "",
							"type": "bool"
						}
					],
					"stateMutability": "nonpayable",
					"type": "function"
				},
				{
					"inputs": [
						{
							"internalType": "address",
							"name": "account",
							"type": "address"
						}
					],
					"name": "balanceOf",
					"outputs": [
						{
							"internalType": "uint256",
							"name": "",
							"type": "uint256"
						}
					],
					"stateMutability": "view",
					"type": "function"
				},
				{
					"inputs": [
						{
							"internalType": "uint256",
							"name": "amount",
							"type": "uint256"
						}
					],
					"name": "burn",
					"outputs": [],
					"stateMutability": "nonpayable",
					"type": "function"
				},
				{
					"inputs": [],
					"name": "decimals",
					"outputs": [
						{
							"internalType": "uint8",
							"name": "",
							"type": "uint8"
						}
					],
					"stateMutability": "view",
					"type": "function"
				},
				{
					"inputs": [
						{
							"internalType": "address",
							"name": "spender",
							"type": "address"
						},
						{
							"internalType": "uint256",
							"name": "subtractedValue",
							"type": "uint256"
						}
					],
					"name": "decreaseAllowance",
					"outputs": [
						{
							"internalType": "bool",
							"name": "",
							"type": "bool"
						}
					],
					"stateMutability": "nonpayable",
					"type": "function"
				},
				{
					"inputs": [
						{
							"internalType": "address",
							"name": "spender",
							"type": "address"
						},
						{
							"internalType": "uint256",
							"name": "addedValue",
							"type": "uint256"
						}
					],
					"name": "increaseAllowance",
					"outputs": [
						{
							"internalType": "bool",
							"name": "",
							"type": "bool"
						}
					],
					"stateMutability": "nonpayable",
					"type": "function"
				},
				{
					"inputs": [
						{
							"internalType": "string",
							"name": "name_",
							"type": "string"
						},
						{
							"internalType": "string",
							"name": "symbol_",
							"type": "string"
						},
						{
							"internalType": "uint256",
							"name": "totalSupply_",
							"type": "uint256"
						}
					],
					"name": "init",
					"outputs": [],
					"stateMutability": "nonpayable",
					"type": "function"
				},
				{
					"inputs": [
						{
							"internalType": "address",
							"name": "account",
							"type": "address"
						},
						{
							"internalType": "uint256",
							"name": "amount",
							"type": "uint256"
						}
					],
					"name": "mint",
					"outputs": [],
					"stateMutability": "nonpayable",
					"type": "function"
				},
				{
					"inputs": [],
					"name": "name",
					"outputs": [
						{
							"internalType": "string",
							"name": "",
							"type": "string"
						}
					],
					"stateMutability": "view",
					"type": "function"
				},
				{
					"inputs": [],
					"name": "symbol",
					"outputs": [
						{
							"internalType": "string",
							"name": "",
							"type": "string"
						}
					],
					"stateMutability": "view",
					"type": "function"
				},
				{
					"inputs": [],
					"name": "totalSupply",
					"outputs": [
						{
							"internalType": "uint256",
							"name": "",
							"type": "uint256"
						}
					],
					"stateMutability": "view",
					"type": "function"
				},
				{
					"inputs": [
						{
							"internalType": "address",
							"name": "to",
							"type": "address"
						},
						{
							"internalType": "uint256",
							"name": "amount",
							"type": "uint256"
						}
					],
					"name": "transfer",
					"outputs": [
						{
							"internalType": "bool",
							"name": "",
							"type": "bool"
						}
					],
					"stateMutability": "nonpayable",
					"type": "function"
				},
				{
					"inputs": [
						{
							"internalType": "address",
							"name": "from",
							"type": "address"
						},
						{
							"internalType": "address",
							"name": "to",
							"type": "address"
						},
						{
							"internalType": "uint256",
							"name": "amount",
							"type": "uint256"
						}
					],
					"name": "transferFrom",
					"outputs": [
						{
							"internalType": "bool",
							"name": "",
							"type": "bool"
						}
					],
					"stateMutability": "nonpayable",
					"type": "function"
				},
				{
					"inputs": [
						{
							"internalType": "address",
							"name": "to",
							"type": "address"
						},
						{
							"internalType": "uint256",
							"name": "amount",
							"type": "uint256"
						},
						{
							"internalType": "uint256",
							"name": "fee",
							"type": "uint256"
						},
						{
							"internalType": "address",
							"name": "charger",
							"type": "address"
						}
					],
					"name": "transferWithFee",
					"outputs": [
						{
							"internalType": "bool",
							"name": "",
							"type": "bool"
						}
					],
					"stateMutability": "nonpayable",
					"type": "function"
				},
				{
					"inputs": [
						{
							"internalType": "address",
							"name": "to",
							"type": "address"
						},
						{
							"internalType": "uint256",
							"name": "amount",
							"type": "uint256"
						},
						{
							"internalType": "uint256",
							"name": "burnAmount",
							"type": "uint256"
						}
					],
					"name": "transferWithTokenBurn",
					"outputs": [
						{
							"internalType": "bool",
							"name": "",
							"type": "bool"
						}
					],
					"stateMutability": "nonpayable",
					"type": "function"
				}
			],
			"devdoc": {
				"details": "Extension of {ERC20} that allows token holders to destroy both their own tokens and those that they have an allowance for, in a way that can be recognized off-chain (via event analysis).",
				"kind": "dev",
				"methods": {
					"allowance(address,address)": {
						"details": "See {IERC20-allowance}."
					},
					"approve(address,uint256)": {
						"details": "See {IERC20-approve}. NOTE: If `amount` is the maximum `uint256`, the allowance is not updated on `transferFrom`. This is semantically equivalent to an infinite approval. Requirements: - `spender` cannot be the zero address."
					},
					"balanceOf(address)": {
						"details": "See {IERC20-balanceOf}."
					},
					"burn(uint256)": {
						"details": "Destroys `amount` tokens from the caller. See {ERC20-_burn}."
					},
					"constructor": {
						"details": "Sets the values for {name}, {symbol} and {totalSupply}. The default value of {decimals} is 18. To select a different value for {decimals} you should overload it. All three of these values are immutable: they can only be set once during construction."
					},
					"decimals()": {
						"details": "Returns the number of decimals used to get its user representation. For example, if `decimals` equals `2`, a balance of `505` tokens should be displayed to a user as `5.05` (`505 / 10 ** 2`). Tokens usually opt for a value of 18, imitating the relationship between Ether and Wei. This is the value {ERC20} uses, unless this function is overridden; NOTE: This information is only used for _display_ purposes: it in no way affects any of the arithmetic of the contract, including {IERC20-balanceOf} and {IERC20-transfer}."
					},
					"decreaseAllowance(address,uint256)": {
						"details": "Atomically decreases the allowance granted to `spender` by the caller. This is an alternative to {approve} that can be used as a mitigation for problems described in {IERC20-approve}. Emits an {Approval} event indicating the updated allowance. Requirements: - `spender` cannot be the zero address. - `spender` must have allowance for the caller of at least `subtractedValue`."
					},
					"increaseAllowance(address,uint256)": {
						"details": "Atomically increases the allowance granted to `spender` by the caller. This is an alternative to {approve} that can be used as a mitigation for problems described in {IERC20-approve}. Emits an {Approval} event indicating the updated allowance. Requirements: - `spender` cannot be the zero address."
					},
					"mint(address,uint256)": {
						"details": "Creates `amount` tokens and assigns them to `account`, increasing the total supply. See {ERC20-_mint}."
					},
					"name()": {
						"details": "Returns the name of the token."
					},
					"symbol()": {
						"details": "Returns the symbol of the token, usually a shorter version of the name."
					},
					"totalSupply()": {
						"details": "See {IERC20-totalSupply}."
					},
					"transfer(address,uint256)": {
						"details": "See {IERC20-transfer}. Requirements: - `to` cannot be the zero address. - the caller must have a balance of at least `amount`."
					},
					"transferFrom(address,address,uint256)": {
						"details": "See {IERC20-transferFrom}. Emits an {Approval} event indicating the updated allowance. This is not required by the EIP. See the note at the beginning of {ERC20}. NOTE: Does not update the allowance if the current allowance is the maximum `uint256`. Requirements: - `from` and `to` cannot be the zero address. - `from` must have a balance of at least `amount`. - the caller must have allowance for ``from``'s tokens of at least `amount`."
					},
					"transferWithFee(address,uint256,uint256,address)": {
						"details": "Transfers `amount` tokens `to` the address with `fee` tokens charged by the `charger`. See {ERC20-_transfer}. - `to` cannot be the zero address. - the caller must have a balance of at least `amount`+`fee`. - the `fee` amount should > 0."
					},
					"transferWithTokenBurn(address,uint256,uint256)": {
						"details": "Transfers `amount` tokens `to` the address with `burnAmount` tokens burn. See {ERC20-_transfer}. - `to` cannot be the zero address. - the caller must have a balance of at least `amount`. - the `burnAmount` should > 0 and LEQ `amount`."
					}
				},
				"version": 1
			},
			"evm": {
				"assembly": "    /* \"contracts/ERC20TokenABC.sol\":646:3999  contract ERC20TokenABC is Context, ERC20 {\r... */\n  mstore(0x40, 0x80)\n    /* \"contracts/ERC20TokenABC.sol\":1213:1329  constructor(string memory name_, string memory symbol_, uint256 totalSupply_) ERC20(name_, symbol_, totalSupply_) {} */\n  callvalue\n  dup1\n  iszero\n  tag_1\n  jumpi\n  0x00\n  dup1\n  revert\ntag_1:\n  pop\n  mload(0x40)\n  sub(codesize, bytecodeSize)\n  dup1\n  bytecodeSize\n  dup4\n  codecopy\n  dup2\n  dup2\n  add\n  0x40\n  mstore\n  dup2\n  add\n  swap1\n  tag_2\n  swap2\n  swap1\n  tag_3\n  jump\t// in\ntag_2:\n    /* \"contracts/ERC20TokenABC.sol\":1297:1302  name_ */\n  dup3\n    /* \"contracts/ERC20TokenABC.sol\":1304:1311  symbol_ */\n  dup3\n    /* \"contracts/ERC20TokenABC.sol\":1313:1325  totalSupply_ */\n  dup3\n    /* \"@openzeppelin/contracts/token/ERC20/ERC20.sol\":2072:2077  name_ */\n  dup3\n    /* \"@openzeppelin/contracts/token/ERC20/ERC20.sol\":2064:2069  _name */\n  0x03\n    /* \"@openzeppelin/contracts/token/ERC20/ERC20.sol\":2064:2077  _name = name_ */\n  swap1\n  dup1\n  mload\n  swap1\n  0x20\n  add\n  swap1\n  tag_7\n  swap3\n  swap2\n  swap1\n  tag_8\n  jump\t// in\ntag_7:\n  pop\n    /* \"@openzeppelin/contracts/token/ERC20/ERC20.sol\":2097:2104  symbol_ */\n  dup2\n    /* \"@openzeppelin/contracts/token/ERC20/ERC20.sol\":2087:2094  _symbol */\n  0x04\n    /* \"@openzeppelin/contracts/token/ERC20/ERC20.sol\":2087:2104  _symbol = symbol_ */\n  swap1\n  dup1\n  mload\n  swap1\n  0x20\n  add\n  swap1\n  tag_9\n  swap3\n  swap2\n  swap1\n  tag_8\n  jump\t// in\ntag_9:\n  pop\n    /* \"@openzeppelin/contracts/token/ERC20/ERC20.sol\":2152:2164  totalSupply_ */\n  dup1\n    /* \"@openzeppelin/contracts/token/ERC20/ERC20.sol\":2137:2149  _totalSupply */\n  0x02\n    /* \"@openzeppelin/contracts/token/ERC20/ERC20.sol\":2137:2164  _totalSupply = totalSupply_ */\n  dup2\n  swap1\n  sstore\n  pop\n    /* \"@openzeppelin/contracts/token/ERC20/ERC20.sol\":2174:2187  address owner */\n  0x00\n    /* \"@openzeppelin/contracts/token/ERC20/ERC20.sol\":2190:2202  _msgSender() */\n  tag_10\n    /* \"@openzeppelin/contracts/token/ERC20/ERC20.sol\":2190:2200  _msgSender */\n  shl(0x20, tag_11)\n    /* \"@openzeppelin/contracts/token/ERC20/ERC20.sol\":2190:2202  _msgSender() */\n  0x20\n  shr\n  jump\t// in\ntag_10:\n    /* \"@openzeppelin/contracts/token/ERC20/ERC20.sol\":2174:2202  address owner = _msgSender() */\n  swap1\n  pop\n    /* \"@openzeppelin/contracts/token/ERC20/ERC20.sol\":2231:2243  _totalSupply */\n  sload(0x02)\n    /* \"@openzeppelin/contracts/token/ERC20/ERC20.sol\":2212:2221  _balances */\n  0x00\n    /* \"@openzeppelin/contracts/token/ERC20/ERC20.sol\":2212:2228  _balances[owner] */\n  dup1\n    /* \"@openzeppelin/contracts/token/ERC20/ERC20.sol\":2222:2227  owner */\n  dup4\n    /* \"@openzeppelin/contracts/token/ERC20/ERC20.sol\":2212:2228  _balances[owner] */\n  0xffffffffffffffffffffffffffffffffffffffff\n  and\n  0xffffffffffffffffffffffffffffffffffffffff\n  and\n  dup2\n  mstore\n  0x20\n  add\n  swap1\n  dup2\n  mstore\n  0x20\n  add\n  0x00\n  keccak256\n    /* \"@openzeppelin/contracts/token/ERC20/ERC20.sol\":2212:2243  _balances[owner] = _totalSupply */\n  dup2\n  swap1\n  sstore\n  pop\n    /* \"@openzeppelin/contracts/token/ERC20/ERC20.sol\":2054:2250  {... */\n  pop\n    /* \"@openzeppelin/contracts/token/ERC20/ERC20.sol\":1976:2250  constructor(string memory name_, string memory symbol_, uint256 totalSupply_) {... */\n  pop\n  pop\n  pop\n    /* \"contracts/ERC20TokenABC.sol\":1213:1329  constructor(string memory name_, string memory symbol_, uint256 totalSupply_) ERC20(name_, symbol_, totalSupply_) {} */\n  pop\n  pop\n  pop\n    /* \"contracts/ERC20TokenABC.sol\":646:3999  contract ERC20TokenABC is Context, ERC20 {\r... */\n  jump(tag_13)\n    /* \"@openzeppelin/contracts/utils/Context.sol\":640:736  function _msgSender() internal view virtual returns (address) {... */\ntag_11:\n    /* \"@openzeppelin/contracts/utils/Context.sol\":693:700  address */\n  0x00\n    /* \"@openzeppelin/contracts/utils/Context.sol\":719:729  msg.sender */\n  caller\n    /* \"@openzeppelin/contracts/utils/Context.sol\":712:729  return msg.sender */\n  swap1\n  pop\n    /* \"@openzeppelin/contracts/utils/Context.sol\":640:736  function _msgSender() internal view virtual returns (address) {... */\n  swap1\n  jump\t// out\n    /* \"contracts/ERC20TokenABC.sol\":646:3999  contract ERC20TokenABC is Context, ERC20 {\r... */\ntag_8:\n  dup3\n  dup1\n  sload\n  tag_15\n  swap1\n  tag_16\n  jump\t// in\ntag_15:\n  swap1\n  0x00\n  mstore\n  keccak256(0x00, 0x20)\n  swap1\n  0x1f\n  add\n  0x20\n  swap1\n  div\n  dup2\n  add\n  swap3\n  dup3\n  tag_18\n  jumpi\n  0x00\n  dup6\n  sstore\n  jump(tag_17)\ntag_18:\n  dup3\n  0x1f\n  lt\n  tag_19\n  jumpi\n  dup1\n  mload\n  not(0xff)\n  and\n  dup4\n  dup1\n  add\n  or\n  dup6\n  sstore\n  jump(tag_17)\ntag_19:\n  dup3\n  dup1\n  add\n  0x01\n  add\n  dup6\n  sstore\n  dup3\n  iszero\n  tag_17\n  jumpi\n  swap2\n  dup3\n  add\ntag_20:\n  dup3\n  dup2\n  gt\n  iszero\n  tag_21\n  jumpi\n  dup3\n  mload\n  dup3\n  sstore\n  swap2\n  0x20\n  add\n  swap2\n  swap1\n  0x01\n  add\n  swap1\n  jump(tag_20)\ntag_21:\ntag_17:\n  pop\n  swap1\n  pop\n  tag_22\n  swap2\n  swap1\n  tag_23\n  jump\t// in\ntag_22:\n  pop\n  swap1\n  jump\t// out\ntag_23:\ntag_24:\n  dup1\n  dup3\n  gt\n  iszero\n  tag_25\n  jumpi\n  0x00\n  dup2\n  0x00\n  swap1\n  sstore\n  pop\n  0x01\n  add\n  jump(tag_24)\ntag_25:\n  pop\n  swap1\n  jump\t// out\n    /* \"#utility.yul\":7:428   */\ntag_27:\n    /* \"#utility.yul\":96:101   */\n  0x00\n    /* \"#utility.yul\":121:187   */\n  tag_29\n    /* \"#utility.yul\":137:186   */\n  tag_30\n    /* \"#utility.yul\":179:185   */\n  dup5\n    /* \"#utility.yul\":137:186   */\n  tag_31\n  jump\t// in\ntag_30:\n    /* \"#utility.yul\":121:187   */\n  tag_32\n  jump\t// in\ntag_29:\n    /* \"#utility.yul\":112:187   */\n  swap1\n  pop\n    /* \"#utility.yul\":210:216   */\n  dup3\n    /* \"#utility.yul\":203:208   */\n  dup2\n    /* \"#utility.yul\":196:217   */\n  mstore\n    /* \"#utility.yul\":248:252   */\n  0x20\n    /* \"#utility.yul\":241:246   */\n  dup2\n    /* \"#utility.yul\":237:253   */\n  add\n    /* \"#utility.yul\":286:289   */\n  dup5\n    /* \"#utility.yul\":277:283   */\n  dup5\n    /* \"#utility.yul\":272:275   */\n  dup5\n    /* \"#utility.yul\":268:284   */\n  add\n    /* \"#utility.yul\":265:290   */\n  gt\n    /* \"#utility.yul\":262:374   */\n  iszero\n  tag_33\n  jumpi\n    /* \"#utility.yul\":293:372   */\n  tag_34\n  tag_35\n  jump\t// in\ntag_34:\n    /* \"#utility.yul\":262:374   */\ntag_33:\n    /* \"#utility.yul\":383:422   */\n  tag_36\n    /* \"#utility.yul\":415:421   */\n  dup5\n    /* \"#utility.yul\":410:413   */\n  dup3\n    /* \"#utility.yul\":405:408   */\n  dup6\n    /* \"#utility.yul\":383:422   */\n  tag_37\n  jump\t// in\ntag_36:\n    /* \"#utility.yul\":102:428   */\n  pop\n    /* \"#utility.yul\":7:428   */\n  swap4\n  swap3\n  pop\n  pop\n  pop\n  jump\t// out\n    /* \"#utility.yul\":448:803   */\ntag_38:\n    /* \"#utility.yul\":515:520   */\n  0x00\n    /* \"#utility.yul\":564:567   */\n  dup3\n    /* \"#utility.yul\":557:561   */\n  0x1f\n    /* \"#utility.yul\":549:555   */\n  dup4\n    /* \"#utility.yul\":545:562   */\n  add\n    /* \"#utility.yul\":541:568   */\n  slt\n    /* \"#utility.yul\":531:653   */\n  tag_40\n  jumpi\n    /* \"#utility.yul\":572:651   */\n  tag_41\n  tag_42\n  jump\t// in\ntag_41:\n    /* \"#utility.yul\":531:653   */\ntag_40:\n    /* \"#utility.yul\":682:688   */\n  dup2\n    /* \"#utility.yul\":676:689   */\n  mload\n    /* \"#utility.yul\":707:797   */\n  tag_43\n    /* \"#utility.yul\":793:796   */\n  dup5\n    /* \"#utility.yul\":785:791   */\n  dup3\n    /* \"#utility.yul\":778:782   */\n  0x20\n    /* \"#utility.yul\":770:776   */\n  dup7\n    /* \"#utility.yul\":766:783   */\n  add\n    /* \"#utility.yul\":707:797   */\n  tag_27\n  jump\t// in\ntag_43:\n    /* \"#utility.yul\":698:797   */\n  swap2\n  pop\n    /* \"#utility.yul\":521:803   */\n  pop\n    /* \"#utility.yul\":448:803   */\n  swap3\n  swap2\n  pop\n  pop\n  jump\t// out\n    /* \"#utility.yul\":809:952   */\ntag_44:\n    /* \"#utility.yul\":866:871   */\n  0x00\n    /* \"#utility.yul\":897:903   */\n  dup2\n    /* \"#utility.yul\":891:904   */\n  mload\n    /* \"#utility.yul\":882:904   */\n  swap1\n  pop\n    /* \"#utility.yul\":913:946   */\n  tag_46\n    /* \"#utility.yul\":940:945   */\n  dup2\n    /* \"#utility.yul\":913:946   */\n  tag_47\n  jump\t// in\ntag_46:\n    /* \"#utility.yul\":809:952   */\n  swap3\n  swap2\n  pop\n  pop\n  jump\t// out\n    /* \"#utility.yul\":958:1967   */\ntag_3:\n    /* \"#utility.yul\":1066:1072   */\n  0x00\n    /* \"#utility.yul\":1074:1080   */\n  dup1\n    /* \"#utility.yul\":1082:1088   */\n  0x00\n    /* \"#utility.yul\":1131:1133   */\n  0x60\n    /* \"#utility.yul\":1119:1128   */\n  dup5\n    /* \"#utility.yul\":1110:1117   */\n  dup7\n    /* \"#utility.yul\":1106:1129   */\n  sub\n    /* \"#utility.yul\":1102:1134   */\n  slt\n    /* \"#utility.yul\":1099:1218   */\n  iszero\n  tag_49\n  jumpi\n    /* \"#utility.yul\":1137:1216   */\n  tag_50\n  tag_51\n  jump\t// in\ntag_50:\n    /* \"#utility.yul\":1099:1218   */\ntag_49:\n    /* \"#utility.yul\":1278:1279   */\n  0x00\n    /* \"#utility.yul\":1267:1276   */\n  dup5\n    /* \"#utility.yul\":1263:1280   */\n  add\n    /* \"#utility.yul\":1257:1281   */\n  mload\n    /* \"#utility.yul\":1308:1326   */\n  0xffffffffffffffff\n    /* \"#utility.yul\":1300:1306   */\n  dup2\n    /* \"#utility.yul\":1297:1327   */\n  gt\n    /* \"#utility.yul\":1294:1411   */\n  iszero\n  tag_52\n  jumpi\n    /* \"#utility.yul\":1330:1409   */\n  tag_53\n  tag_54\n  jump\t// in\ntag_53:\n    /* \"#utility.yul\":1294:1411   */\ntag_52:\n    /* \"#utility.yul\":1435:1509   */\n  tag_55\n    /* \"#utility.yul\":1501:1508   */\n  dup7\n    /* \"#utility.yul\":1492:1498   */\n  dup3\n    /* \"#utility.yul\":1481:1490   */\n  dup8\n    /* \"#utility.yul\":1477:1499   */\n  add\n    /* \"#utility.yul\":1435:1509   */\n  tag_38\n  jump\t// in\ntag_55:\n    /* \"#utility.yul\":1425:1509   */\n  swap4\n  pop\n    /* \"#utility.yul\":1228:1519   */\n  pop\n    /* \"#utility.yul\":1579:1581   */\n  0x20\n    /* \"#utility.yul\":1568:1577   */\n  dup5\n    /* \"#utility.yul\":1564:1582   */\n  add\n    /* \"#utility.yul\":1558:1583   */\n  mload\n    /* \"#utility.yul\":1610:1628   */\n  0xffffffffffffffff\n    /* \"#utility.yul\":1602:1608   */\n  dup2\n    /* \"#utility.yul\":1599:1629   */\n  gt\n    /* \"#utility.yul\":1596:1713   */\n  iszero\n  tag_56\n  jumpi\n    /* \"#utility.yul\":1632:1711   */\n  tag_57\n  tag_54\n  jump\t// in\ntag_57:\n    /* \"#utility.yul\":1596:1713   */\ntag_56:\n    /* \"#utility.yul\":1737:1811   */\n  tag_58\n    /* \"#utility.yul\":1803:1810   */\n  dup7\n    /* \"#utility.yul\":1794:1800   */\n  dup3\n    /* \"#utility.yul\":1783:1792   */\n  dup8\n    /* \"#utility.yul\":1779:1801   */\n  add\n    /* \"#utility.yul\":1737:1811   */\n  tag_38\n  jump\t// in\ntag_58:\n    /* \"#utility.yul\":1727:1811   */\n  swap3\n  pop\n    /* \"#utility.yul\":1529:1821   */\n  pop\n    /* \"#utility.yul\":1860:1862   */\n  0x40\n    /* \"#utility.yul\":1886:1950   */\n  tag_59\n    /* \"#utility.yul\":1942:1949   */\n  dup7\n    /* \"#utility.yul\":1933:1939   */\n  dup3\n    /* \"#utility.yul\":1922:1931   */\n  dup8\n    /* \"#utility.yul\":1918:1940   */\n  add\n    /* \"#utility.yul\":1886:1950   */\n  tag_44\n  jump\t// in\ntag_59:\n    /* \"#utility.yul\":1876:1950   */\n  swap2\n  pop\n    /* \"#utility.yul\":1831:1960   */\n  pop\n    /* \"#utility.yul\":958:1967   */\n  swap3\n  pop\n  swap3\n  pop\n  swap3\n  jump\t// out\n    /* \"#utility.yul\":1973:2102   */\ntag_32:\n    /* \"#utility.yul\":2007:2013   */\n  0x00\n    /* \"#utility.yul\":2034:2054   */\n  tag_61\n  tag_62\n  jump\t// in\ntag_61:\n    /* \"#utility.yul\":2024:2054   */\n  swap1\n  pop\n    /* \"#utility.yul\":2063:2096   */\n  tag_63\n    /* \"#utility.yul\":2091:2095   */\n  dup3\n    /* \"#utility.yul\":2083:2089   */\n  dup3\n    /* \"#utility.yul\":2063:2096   */\n  tag_64\n  jump\t// in\ntag_63:\n    /* \"#utility.yul\":1973:2102   */\n  swap2\n  swap1\n  pop\n  jump\t// out\n    /* \"#utility.yul\":2108:2183   */\ntag_62:\n    /* \"#utility.yul\":2141:2147   */\n  0x00\n    /* \"#utility.yul\":2174:2176   */\n  0x40\n    /* \"#utility.yul\":2168:2177   */\n  mload\n    /* \"#utility.yul\":2158:2177   */\n  swap1\n  pop\n    /* \"#utility.yul\":2108:2183   */\n  swap1\n  jump\t// out\n    /* \"#utility.yul\":2189:2497   */\ntag_31:\n    /* \"#utility.yul\":2251:2255   */\n  0x00\n    /* \"#utility.yul\":2341:2359   */\n  0xffffffffffffffff\n    /* \"#utility.yul\":2333:2339   */\n  dup3\n    /* \"#utility.yul\":2330:2360   */\n  gt\n    /* \"#utility.yul\":2327:2383   */\n  iszero\n  tag_67\n  jumpi\n    /* \"#utility.yul\":2363:2381   */\n  tag_68\n  tag_69\n  jump\t// in\ntag_68:\n    /* \"#utility.yul\":2327:2383   */\ntag_67:\n    /* \"#utility.yul\":2401:2430   */\n  tag_70\n    /* \"#utility.yul\":2423:2429   */\n  dup3\n    /* \"#utility.yul\":2401:2430   */\n  tag_71\n  jump\t// in\ntag_70:\n    /* \"#utility.yul\":2393:2430   */\n  swap1\n  pop\n    /* \"#utility.yul\":2485:2489   */\n  0x20\n    /* \"#utility.yul\":2479:2483   */\n  dup2\n    /* \"#utility.yul\":2475:2490   */\n  add\n    /* \"#utility.yul\":2467:2490   */\n  swap1\n  pop\n    /* \"#utility.yul\":2189:2497   */\n  swap2\n  swap1\n  pop\n  jump\t// out\n    /* \"#utility.yul\":2503:2580   */\ntag_72:\n    /* \"#utility.yul\":2540:2547   */\n  0x00\n    /* \"#utility.yul\":2569:2574   */\n  dup2\n    /* \"#utility.yul\":2558:2574   */\n  swap1\n  pop\n    /* \"#utility.yul\":2503:2580   */\n  swap2\n  swap1\n  pop\n  jump\t// out\n    /* \"#utility.yul\":2586:2893   */\ntag_37:\n    /* \"#utility.yul\":2654:2655   */\n  0x00\n    /* \"#utility.yul\":2664:2777   */\ntag_75:\n    /* \"#utility.yul\":2678:2684   */\n  dup4\n    /* \"#utility.yul\":2675:2676   */\n  dup2\n    /* \"#utility.yul\":2672:2685   */\n  lt\n    /* \"#utility.yul\":2664:2777   */\n  iszero\n  tag_77\n  jumpi\n    /* \"#utility.yul\":2763:2764   */\n  dup1\n    /* \"#utility.yul\":2758:2761   */\n  dup3\n    /* \"#utility.yul\":2754:2765   */\n  add\n    /* \"#utility.yul\":2748:2766   */\n  mload\n    /* \"#utility.yul\":2744:2745   */\n  dup2\n    /* \"#utility.yul\":2739:2742   */\n  dup5\n    /* \"#utility.yul\":2735:2746   */\n  add\n    /* \"#utility.yul\":2728:2767   */\n  mstore\n    /* \"#utility.yul\":2700:2702   */\n  0x20\n    /* \"#utility.yul\":2697:2698   */\n  dup2\n    /* \"#utility.yul\":2693:2703   */\n  add\n    /* \"#utility.yul\":2688:2703   */\n  swap1\n  pop\n    /* \"#utility.yul\":2664:2777   */\n  jump(tag_75)\ntag_77:\n    /* \"#utility.yul\":2795:2801   */\n  dup4\n    /* \"#utility.yul\":2792:2793   */\n  dup2\n    /* \"#utility.yul\":2789:2802   */\n  gt\n    /* \"#utility.yul\":2786:2887   */\n  iszero\n  tag_78\n  jumpi\n    /* \"#utility.yul\":2875:2876   */\n  0x00\n    /* \"#utility.yul\":2866:2872   */\n  dup5\n    /* \"#utility.yul\":2861:2864   */\n  dup5\n    /* \"#utility.yul\":2857:2873   */\n  add\n    /* \"#utility.yul\":2850:2877   */\n  mstore\n    /* \"#utility.yul\":2786:2887   */\ntag_78:\n    /* \"#utility.yul\":2635:2893   */\n  pop\n    /* \"#utility.yul\":2586:2893   */\n  pop\n  pop\n  pop\n  jump\t// out\n    /* \"#utility.yul\":2899:3219   */\ntag_16:\n    /* \"#utility.yul\":2943:2949   */\n  0x00\n    /* \"#utility.yul\":2980:2981   */\n  0x02\n    /* \"#utility.yul\":2974:2978   */\n  dup3\n    /* \"#utility.yul\":2970:2982   */\n  div\n    /* \"#utility.yul\":2960:2982   */\n  swap1\n  pop\n    /* \"#utility.yul\":3027:3028   */\n  0x01\n    /* \"#utility.yul\":3021:3025   */\n  dup3\n    /* \"#utility.yul\":3017:3029   */\n  and\n    /* \"#utility.yul\":3048:3066   */\n  dup1\n    /* \"#utility.yul\":3038:3119   */\n  tag_80\n  jumpi\n    /* \"#utility.yul\":3104:3108   */\n  0x7f\n    /* \"#utility.yul\":3096:3102   */\n  dup3\n    /* \"#utility.yul\":3092:3109   */\n  and\n    /* \"#utility.yul\":3082:3109   */\n  swap2\n  pop\n    /* \"#utility.yul\":3038:3119   */\ntag_80:\n    /* \"#utility.yul\":3166:3168   */\n  0x20\n    /* \"#utility.yul\":3158:3164   */\n  dup3\n    /* \"#utility.yul\":3155:3169   */\n  lt\n    /* \"#utility.yul\":3135:3153   */\n  dup2\n    /* \"#utility.yul\":3132:3170   */\n  eq\n    /* \"#utility.yul\":3129:3213   */\n  iszero\n  tag_81\n  jumpi\n    /* \"#utility.yul\":3185:3203   */\n  tag_82\n  tag_83\n  jump\t// in\ntag_82:\n    /* \"#utility.yul\":3129:3213   */\ntag_81:\n    /* \"#utility.yul\":2950:3219   */\n  pop\n    /* \"#utility.yul\":2899:3219   */\n  swap2\n  swap1\n  pop\n  jump\t// out\n    /* \"#utility.yul\":3225:3506   */\ntag_64:\n    /* \"#utility.yul\":3308:3335   */\n  tag_85\n    /* \"#utility.yul\":3330:3334   */\n  dup3\n    /* \"#utility.yul\":3308:3335   */\n  tag_71\n  jump\t// in\ntag_85:\n    /* \"#utility.yul\":3300:3306   */\n  dup2\n    /* \"#utility.yul\":3296:3336   */\n  add\n    /* \"#utility.yul\":3438:3444   */\n  dup2\n    /* \"#utility.yul\":3426:3436   */\n  dup2\n    /* \"#utility.yul\":3423:3445   */\n  lt\n    /* \"#utility.yul\":3402:3420   */\n  0xffffffffffffffff\n    /* \"#utility.yul\":3390:3400   */\n  dup3\n    /* \"#utility.yul\":3387:3421   */\n  gt\n    /* \"#utility.yul\":3384:3446   */\n  or\n    /* \"#utility.yul\":3381:3469   */\n  iszero\n  tag_86\n  jumpi\n    /* \"#utility.yul\":3449:3467   */\n  tag_87\n  tag_69\n  jump\t// in\ntag_87:\n    /* \"#utility.yul\":3381:3469   */\ntag_86:\n    /* \"#utility.yul\":3489:3499   */\n  dup1\n    /* \"#utility.yul\":3485:3487   */\n  0x40\n    /* \"#utility.yul\":3478:3500   */\n  mstore\n    /* \"#utility.yul\":3268:3506   */\n  pop\n    /* \"#utility.yul\":3225:3506   */\n  pop\n  pop\n  jump\t// out\n    /* \"#utility.yul\":3512:3692   */\ntag_83:\n    /* \"#utility.yul\":3560:3637   */\n  0x4e487b7100000000000000000000000000000000000000000000000000000000\n    /* \"#utility.yul\":3557:3558   */\n  0x00\n    /* \"#utility.yul\":3550:3638   */\n  mstore\n    /* \"#utility.yul\":3657:3661   */\n  0x22\n    /* \"#utility.yul\":3654:3655   */\n  0x04\n    /* \"#utility.yul\":3647:3662   */\n  mstore\n    /* \"#utility.yul\":3681:3685   */\n  0x24\n    /* \"#utility.yul\":3678:3679   */\n  0x00\n    /* \"#utility.yul\":3671:3686   */\n  revert\n    /* \"#utility.yul\":3698:3878   */\ntag_69:\n    /* \"#utility.yul\":3746:3823   */\n  0x4e487b7100000000000000000000000000000000000000000000000000000000\n    /* \"#utility.yul\":3743:3744   */\n  0x00\n    /* \"#utility.yul\":3736:3824   */\n  mstore\n    /* \"#utility.yul\":3843:3847   */\n  0x41\n    /* \"#utility.yul\":3840:3841   */\n  0x04\n    /* \"#utility.yul\":3833:3848   */\n  mstore\n    /* \"#utility.yul\":3867:3871   */\n  0x24\n    /* \"#utility.yul\":3864:3865   */\n  0x00\n    /* \"#utility.yul\":3857:3872   */\n  revert\n    /* \"#utility.yul\":3884:4001   */\ntag_42:\n    /* \"#utility.yul\":3993:3994   */\n  0x00\n    /* \"#utility.yul\":3990:3991   */\n  dup1\n    /* \"#utility.yul\":3983:3995   */\n  revert\n    /* \"#utility.yul\":4007:4124   */\ntag_35:\n    /* \"#utility.yul\":4116:4117   */\n  0x00\n    /* \"#utility.yul\":4113:4114   */\n  dup1\n    /* \"#utility.yul\":4106:4118   */\n  revert\n    /* \"#utility.yul\":4130:4247   */\ntag_54:\n    /* \"#utility.yul\":4239:4240   */\n  0x00\n    /* \"#utility.yul\":4236:4237   */\n  dup1\n    /* \"#utility.yul\":4229:4241   */\n  revert\n    /* \"#utility.yul\":4253:4370   */\ntag_51:\n    /* \"#utility.yul\":4362:4363   */\n  0x00\n    /* \"#utility.yul\":4359:4360   */\n  dup1\n    /* \"#utility.yul\":4352:4364   */\n  revert\n    /* \"#utility.yul\":4376:4478   */\ntag_71:\n    /* \"#utility.yul\":4417:4423   */\n  0x00\n    /* \"#utility.yul\":4468:4470   */\n  0x1f\n    /* \"#utility.yul\":4464:4471   */\n  not\n    /* \"#utility.yul\":4459:4461   */\n  0x1f\n    /* \"#utility.yul\":4452:4457   */\n  dup4\n    /* \"#utility.yul\":4448:4462   */\n  add\n    /* \"#utility.yul\":4444:4472   */\n  and\n    /* \"#utility.yul\":4434:4472   */\n  swap1\n  pop\n    /* \"#utility.yul\":4376:4478   */\n  swap2\n  swap1\n  pop\n  jump\t// out\n    /* \"#utility.yul\":4484:4606   */\ntag_47:\n    /* \"#utility.yul\":4557:4581   */\n  tag_96\n    /* \"#utility.yul\":4575:4580   */\n  dup2\n    /* \"#utility.yul\":4557:4581   */\n  tag_72\n  jump\t// in\ntag_96:\n    /* \"#utility.yul\":4550:4555   */\n  dup2\n    /* \"#utility.yul\":4547:4582   */\n  eq\n    /* \"#utility.yul\":4537:4600   */\n  tag_97\n  jumpi\n    /* \"#utility.yul\":4596:4597   */\n  0x00\n    /* \"#utility.yul\":4593:4594   */\n  dup1\n    /* \"#utility.yul\":4586:4598   */\n  revert\n    /* \"#utility.yul\":4537:4600   */\ntag_97:\n    /* \"#utility.yul\":4484:4606   */\n  pop\n  jump\t// out\n    /* \"contracts/ERC20TokenABC.sol\":646:3999  contract ERC20TokenABC is Context, ERC20 {\r... */\ntag_13:\n  dataSize(sub_0)\n  dup1\n  dataOffset(sub_0)\n  0x00\n  codecopy\n  0x00\n  return\nstop\n\nsub_0: assembly {\n        /* \"contracts/ERC20TokenABC.sol\":646:3999  contract ERC20TokenABC is Context, ERC20 {\r... */\n      mstore(0x40, 0x80)\n      callvalue\n      dup1\n      iszero\n      tag_1\n      jumpi\n      0x00\n      dup1\n      revert\n    tag_1:\n      pop\n      jumpi(tag_2, lt(calldatasize, 0x04))\n      shr(0xe0, calldataload(0x00))\n      dup1\n      0x40c10f19\n      gt\n      tag_19\n      jumpi\n      dup1\n      0xa457c2d7\n      gt\n      tag_20\n      jumpi\n      dup1\n      0xa457c2d7\n      eq\n      tag_15\n      jumpi\n      dup1\n      0xa9059cbb\n      eq\n      tag_16\n      jumpi\n      dup1\n      0xbb9c1ad9\n      eq\n      tag_17\n      jumpi\n      dup1\n      0xdd62ed3e\n      eq\n      tag_18\n      jumpi\n      jump(tag_2)\n    tag_20:\n      dup1\n      0x40c10f19\n      eq\n      tag_11\n      jumpi\n      dup1\n      0x42966c68\n      eq\n      tag_12\n      jumpi\n      dup1\n      0x70a08231\n      eq\n      tag_13\n      jumpi\n      dup1\n      0x95d89b41\n      eq\n      tag_14\n      jumpi\n      jump(tag_2)\n    tag_19:\n      dup1\n      0x2eabc917\n      gt\n      tag_21\n      jumpi\n      dup1\n      0x2eabc917\n      eq\n      tag_7\n      jumpi\n      dup1\n      0x313ce567\n      eq\n      tag_8\n      jumpi\n      dup1\n      0x39509351\n      eq\n      tag_9\n      jumpi\n      dup1\n      0x3f50a705\n      eq\n      tag_10\n      jumpi\n      jump(tag_2)\n    tag_21:\n      dup1\n      0x06fdde03\n      eq\n      tag_3\n      jumpi\n      dup1\n      0x095ea7b3\n      eq\n      tag_4\n      jumpi\n      dup1\n      0x18160ddd\n      eq\n      tag_5\n      jumpi\n      dup1\n      0x23b872dd\n      eq\n      tag_6\n      jumpi\n    tag_2:\n      0x00\n      dup1\n      revert\n        /* \"contracts/ERC20TokenABC.sol\":1399:1498  function name() public view override returns (string memory) {\r... */\n    tag_3:\n      tag_22\n      tag_23\n      jump\t// in\n    tag_22:\n      mload(0x40)\n      tag_24\n      swap2\n      swap1\n      tag_25\n      jump\t// in\n    tag_24:\n      mload(0x40)\n      dup1\n      swap2\n      sub\n      swap1\n      return\n        /* \"@openzeppelin/contracts/token/ERC20/ERC20.sol\":4881:5078  function approve(address spender, uint256 amount) public virtual override returns (bool) {... */\n    tag_4:\n      tag_26\n      0x04\n      dup1\n      calldatasize\n      sub\n      dup2\n      add\n      swap1\n      tag_27\n      swap2\n      swap1\n      tag_28\n      jump\t// in\n    tag_27:\n      tag_29\n      jump\t// in\n    tag_26:\n      mload(0x40)\n      tag_30\n      swap2\n      swap1\n      tag_31\n      jump\t// in\n    tag_30:\n      mload(0x40)\n      dup1\n      swap2\n      sub\n      swap1\n      return\n        /* \"contracts/ERC20TokenABC.sol\":1785:1892  function totalSupply() public view override returns (uint256) {\r... */\n    tag_5:\n      tag_32\n      tag_33\n      jump\t// in\n    tag_32:\n      mload(0x40)\n      tag_34\n      swap2\n      swap1\n      tag_35\n      jump\t// in\n    tag_34:\n      mload(0x40)\n      dup1\n      swap2\n      sub\n      swap1\n      return\n        /* \"@openzeppelin/contracts/token/ERC20/ERC20.sol\":5640:5926  function transferFrom(... */\n    tag_6:\n      tag_36\n      0x04\n      dup1\n      calldatasize\n      sub\n      dup2\n      add\n      swap1\n      tag_37\n      swap2\n      swap1\n      tag_38\n      jump\t// in\n    tag_37:\n      tag_39\n      jump\t// in\n    tag_36:\n      mload(0x40)\n      tag_40\n      swap2\n      swap1\n      tag_31\n      jump\t// in\n    tag_40:\n      mload(0x40)\n      dup1\n      swap2\n      sub\n      swap1\n      return\n        /* \"@openzeppelin/contracts/token/ERC20/ERC20.sol\":2256:2539  function init(string memory name_, string memory symbol_, uint256 totalSupply_) public {... */\n    tag_7:\n      tag_41\n      0x04\n      dup1\n      calldatasize\n      sub\n      dup2\n      add\n      swap1\n      tag_42\n      swap2\n      swap1\n      tag_43\n      jump\t// in\n    tag_42:\n      tag_44\n      jump\t// in\n    tag_41:\n      stop\n        /* \"@openzeppelin/contracts/token/ERC20/ERC20.sol\":3541:3632  function decimals() public view virtual override returns (uint8) {... */\n    tag_8:\n      tag_45\n      tag_46\n      jump\t// in\n    tag_45:\n      mload(0x40)\n      tag_47\n      swap2\n      swap1\n      tag_48\n      jump\t// in\n    tag_47:\n      mload(0x40)\n      dup1\n      swap2\n      sub\n      swap1\n      return\n        /* \"@openzeppelin/contracts/token/ERC20/ERC20.sol\":6321:6555  function increaseAllowance(address spender, uint256 addedValue) public virtual returns (bool) {... */\n    tag_9:\n      tag_49\n      0x04\n      dup1\n      calldatasize\n      sub\n      dup2\n      add\n      swap1\n      tag_50\n      swap2\n      swap1\n      tag_28\n      jump\t// in\n    tag_50:\n      tag_51\n      jump\t// in\n    tag_49:\n      mload(0x40)\n      tag_52\n      swap2\n      swap1\n      tag_31\n      jump\t// in\n    tag_52:\n      mload(0x40)\n      dup1\n      swap2\n      sub\n      swap1\n      return\n        /* \"contracts/ERC20TokenABC.sol\":2864:3185  function transferWithFee(address to, uint256 amount, uint256 fee, address charger) public returns (bool) {\r... */\n    tag_10:\n      tag_53\n      0x04\n      dup1\n      calldatasize\n      sub\n      dup2\n      add\n      swap1\n      tag_54\n      swap2\n      swap1\n      tag_55\n      jump\t// in\n    tag_54:\n      tag_56\n      jump\t// in\n    tag_53:\n      mload(0x40)\n      tag_57\n      swap2\n      swap1\n      tag_31\n      jump\t// in\n    tag_57:\n      mload(0x40)\n      dup1\n      swap2\n      sub\n      swap1\n      return\n        /* \"contracts/ERC20TokenABC.sol\":2246:2341  function mint(address account, uint256 amount) public {\r... */\n    tag_11:\n      tag_58\n      0x04\n      dup1\n      calldatasize\n      sub\n      dup2\n      add\n      swap1\n      tag_59\n      swap2\n      swap1\n      tag_28\n      jump\t// in\n    tag_59:\n      tag_60\n      jump\t// in\n    tag_58:\n      stop\n        /* \"contracts/ERC20TokenABC.sol\":2457:2540  function burn(uint256 amount) public {\r... */\n    tag_12:\n      tag_61\n      0x04\n      dup1\n      calldatasize\n      sub\n      dup2\n      add\n      swap1\n      tag_62\n      swap2\n      swap1\n      tag_63\n      jump\t// in\n    tag_62:\n      tag_64\n      jump\t// in\n    tag_61:\n      stop\n        /* \"contracts/ERC20TokenABC.sol\":1955:2080  function balanceOf(address account) public view override returns (uint256) {\r... */\n    tag_13:\n      tag_65\n      0x04\n      dup1\n      calldatasize\n      sub\n      dup2\n      add\n      swap1\n      tag_66\n      swap2\n      swap1\n      tag_67\n      jump\t// in\n    tag_66:\n      tag_68\n      jump\t// in\n    tag_65:\n      mload(0x40)\n      tag_69\n      swap2\n      swap1\n      tag_35\n      jump\t// in\n    tag_69:\n      mload(0x40)\n      dup1\n      swap2\n      sub\n      swap1\n      return\n        /* \"contracts/ERC20TokenABC.sol\":1617:1720  function symbol() public view override returns (string memory) {\r... */\n    tag_14:\n      tag_70\n      tag_71\n      jump\t// in\n    tag_70:\n      mload(0x40)\n      tag_72\n      swap2\n      swap1\n      tag_25\n      jump\t// in\n    tag_72:\n      mload(0x40)\n      dup1\n      swap2\n      sub\n      swap1\n      return\n        /* \"@openzeppelin/contracts/token/ERC20/ERC20.sol\":7042:7469  function decreaseAllowance(address spender, uint256 subtractedValue) public virtual returns (bool) {... */\n    tag_15:\n      tag_73\n      0x04\n      dup1\n      calldatasize\n      sub\n      dup2\n      add\n      swap1\n      tag_74\n      swap2\n      swap1\n      tag_28\n      jump\t// in\n    tag_74:\n      tag_75\n      jump\t// in\n    tag_73:\n      mload(0x40)\n      tag_76\n      swap2\n      swap1\n      tag_31\n      jump\t// in\n    tag_76:\n      mload(0x40)\n      dup1\n      swap2\n      sub\n      swap1\n      return\n        /* \"@openzeppelin/contracts/token/ERC20/ERC20.sol\":4177:4366  function transfer(address to, uint256 amount) public virtual override returns (bool) {... */\n    tag_16:\n      tag_77\n      0x04\n      dup1\n      calldatasize\n      sub\n      dup2\n      add\n      swap1\n      tag_78\n      swap2\n      swap1\n      tag_28\n      jump\t// in\n    tag_78:\n      tag_79\n      jump\t// in\n    tag_77:\n      mload(0x40)\n      tag_80\n      swap2\n      swap1\n      tag_31\n      jump\t// in\n    tag_80:\n      mload(0x40)\n      dup1\n      swap2\n      sub\n      swap1\n      return\n        /* \"contracts/ERC20TokenABC.sol\":3507:3996  function transferWithTokenBurn(address to, uint256 amount, uint256 burnAmount) public returns (bool) {\r... */\n    tag_17:\n      tag_81\n      0x04\n      dup1\n      calldatasize\n      sub\n      dup2\n      add\n      swap1\n      tag_82\n      swap2\n      swap1\n      tag_83\n      jump\t// in\n    tag_82:\n      tag_84\n      jump\t// in\n    tag_81:\n      mload(0x40)\n      tag_85\n      swap2\n      swap1\n      tag_31\n      jump\t// in\n    tag_85:\n      mload(0x40)\n      dup1\n      swap2\n      sub\n      swap1\n      return\n        /* \"@openzeppelin/contracts/token/ERC20/ERC20.sol\":4424:4573  function allowance(address owner, address spender) public view virtual override returns (uint256) {... */\n    tag_18:\n      tag_86\n      0x04\n      dup1\n      calldatasize\n      sub\n      dup2\n      add\n      swap1\n      tag_87\n      swap2\n      swap1\n      tag_88\n      jump\t// in\n    tag_87:\n      tag_89\n      jump\t// in\n    tag_86:\n      mload(0x40)\n      tag_90\n      swap2\n      swap1\n      tag_35\n      jump\t// in\n    tag_90:\n      mload(0x40)\n      dup1\n      swap2\n      sub\n      swap1\n      return\n        /* \"contracts/ERC20TokenABC.sol\":1399:1498  function name() public view override returns (string memory) {\r... */\n    tag_23:\n        /* \"contracts/ERC20TokenABC.sol\":1445:1458  string memory */\n      0x60\n        /* \"contracts/ERC20TokenABC.sol\":1478:1490  super.name() */\n      tag_92\n        /* \"contracts/ERC20TokenABC.sol\":1478:1488  super.name */\n      tag_93\n        /* \"contracts/ERC20TokenABC.sol\":1478:1490  super.name() */\n      jump\t// in\n    tag_92:\n        /* \"contracts/ERC20TokenABC.sol\":1471:1490  return super.name() */\n      swap1\n      pop\n        /* \"contracts/ERC20TokenABC.sol\":1399:1498  function name() public view override returns (string memory) {\r... */\n      swap1\n      jump\t// out\n        /* \"@openzeppelin/contracts/token/ERC20/ERC20.sol\":4881:5078  function approve(address spender, uint256 amount) public virtual override returns (bool) {... */\n    tag_29:\n        /* \"@openzeppelin/contracts/token/ERC20/ERC20.sol\":4964:4968  bool */\n      0x00\n        /* \"@openzeppelin/contracts/token/ERC20/ERC20.sol\":4980:4993  address owner */\n      dup1\n        /* \"@openzeppelin/contracts/token/ERC20/ERC20.sol\":4996:5008  _msgSender() */\n      tag_95\n        /* \"@openzeppelin/contracts/token/ERC20/ERC20.sol\":4996:5006  _msgSender */\n      tag_96\n        /* \"@openzeppelin/contracts/token/ERC20/ERC20.sol\":4996:5008  _msgSender() */\n      jump\t// in\n    tag_95:\n        /* \"@openzeppelin/contracts/token/ERC20/ERC20.sol\":4980:5008  address owner = _msgSender() */\n      swap1\n      pop\n        /* \"@openzeppelin/contracts/token/ERC20/ERC20.sol\":5018:5050  _approve(owner, spender, amount) */\n      tag_97\n        /* \"@openzeppelin/contracts/token/ERC20/ERC20.sol\":5027:5032  owner */\n      dup2\n        /* \"@openzeppelin/contracts/token/ERC20/ERC20.sol\":5034:5041  spender */\n      dup6\n        /* \"@openzeppelin/contracts/token/ERC20/ERC20.sol\":5043:5049  amount */\n      dup6\n        /* \"@openzeppelin/contracts/token/ERC20/ERC20.sol\":5018:5026  _approve */\n      tag_98\n        /* \"@openzeppelin/contracts/token/ERC20/ERC20.sol\":5018:5050  _approve(owner, spender, amount) */\n      jump\t// in\n    tag_97:\n        /* \"@openzeppelin/contracts/token/ERC20/ERC20.sol\":5067:5071  true */\n      0x01\n        /* \"@openzeppelin/contracts/token/ERC20/ERC20.sol\":5060:5071  return true */\n      swap2\n      pop\n      pop\n        /* \"@openzeppelin/contracts/token/ERC20/ERC20.sol\":4881:5078  function approve(address spender, uint256 amount) public virtual override returns (bool) {... */\n      swap3\n      swap2\n      pop\n      pop\n      jump\t// out\n        /* \"contracts/ERC20TokenABC.sol\":1785:1892  function totalSupply() public view override returns (uint256) {\r... */\n    tag_33:\n        /* \"contracts/ERC20TokenABC.sol\":1838:1845  uint256 */\n      0x00\n        /* \"contracts/ERC20TokenABC.sol\":1865:1884  super.totalSupply() */\n      tag_100\n        /* \"contracts/ERC20TokenABC.sol\":1865:1882  super.totalSupply */\n      tag_101\n        /* \"contracts/ERC20TokenABC.sol\":1865:1884  super.totalSupply() */\n      jump\t// in\n    tag_100:\n        /* \"contracts/ERC20TokenABC.sol\":1858:1884  return super.totalSupply() */\n      swap1\n      pop\n        /* \"contracts/ERC20TokenABC.sol\":1785:1892  function totalSupply() public view override returns (uint256) {\r... */\n      swap1\n      jump\t// out\n        /* \"@openzeppelin/contracts/token/ERC20/ERC20.sol\":5640:5926  function transferFrom(... */\n    tag_39:\n        /* \"@openzeppelin/contracts/token/ERC20/ERC20.sol\":5767:5771  bool */\n      0x00\n        /* \"@openzeppelin/contracts/token/ERC20/ERC20.sol\":5783:5798  address spender */\n      dup1\n        /* \"@openzeppelin/contracts/token/ERC20/ERC20.sol\":5801:5813  _msgSender() */\n      tag_103\n        /* \"@openzeppelin/contracts/token/ERC20/ERC20.sol\":5801:5811  _msgSender */\n      tag_96\n        /* \"@openzeppelin/contracts/token/ERC20/ERC20.sol\":5801:5813  _msgSender() */\n      jump\t// in\n    tag_103:\n        /* \"@openzeppelin/contracts/token/ERC20/ERC20.sol\":5783:5813  address spender = _msgSender() */\n      swap1\n      pop\n        /* \"@openzeppelin/contracts/token/ERC20/ERC20.sol\":5823:5861  _spendAllowance(from, spender, amount) */\n      tag_104\n        /* \"@openzeppelin/contracts/token/ERC20/ERC20.sol\":5839:5843  from */\n      dup6\n        /* \"@openzeppelin/contracts/token/ERC20/ERC20.sol\":5845:5852  spender */\n      dup3\n        /* \"@openzeppelin/contracts/token/ERC20/ERC20.sol\":5854:5860  amount */\n      dup6\n        /* \"@openzeppelin/contracts/token/ERC20/ERC20.sol\":5823:5838  _spendAllowance */\n      tag_105\n        /* \"@openzeppelin/contracts/token/ERC20/ERC20.sol\":5823:5861  _spendAllowance(from, spender, amount) */\n      jump\t// in\n    tag_104:\n        /* \"@openzeppelin/contracts/token/ERC20/ERC20.sol\":5871:5898  _transfer(from, to, amount) */\n      tag_106\n        /* \"@openzeppelin/contracts/token/ERC20/ERC20.sol\":5881:5885  from */\n      dup6\n        /* \"@openzeppelin/contracts/token/ERC20/ERC20.sol\":5887:5889  to */\n      dup6\n        /* \"@openzeppelin/contracts/token/ERC20/ERC20.sol\":5891:5897  amount */\n      dup6\n        /* \"@openzeppelin/contracts/token/ERC20/ERC20.sol\":5871:5880  _transfer */\n      tag_107\n        /* \"@openzeppelin/contracts/token/ERC20/ERC20.sol\":5871:5898  _transfer(from, to, amount) */\n      jump\t// in\n    tag_106:\n        /* \"@openzeppelin/contracts/token/ERC20/ERC20.sol\":5915:5919  true */\n      0x01\n        /* \"@openzeppelin/contracts/token/ERC20/ERC20.sol\":5908:5919  return true */\n      swap2\n      pop\n      pop\n        /* \"@openzeppelin/contracts/token/ERC20/ERC20.sol\":5640:5926  function transferFrom(... */\n      swap4\n      swap3\n      pop\n      pop\n      pop\n      jump\t// out\n        /* \"@openzeppelin/contracts/token/ERC20/ERC20.sol\":2256:2539  function init(string memory name_, string memory symbol_, uint256 totalSupply_) public {... */\n    tag_44:\n        /* \"@openzeppelin/contracts/token/ERC20/ERC20.sol\":2361:2366  name_ */\n      dup3\n        /* \"@openzeppelin/contracts/token/ERC20/ERC20.sol\":2353:2358  _name */\n      0x03\n        /* \"@openzeppelin/contracts/token/ERC20/ERC20.sol\":2353:2366  _name = name_ */\n      swap1\n      dup1\n      mload\n      swap1\n      0x20\n      add\n      swap1\n      tag_109\n      swap3\n      swap2\n      swap1\n      tag_110\n      jump\t// in\n    tag_109:\n      pop\n        /* \"@openzeppelin/contracts/token/ERC20/ERC20.sol\":2386:2393  symbol_ */\n      dup2\n        /* \"@openzeppelin/contracts/token/ERC20/ERC20.sol\":2376:2383  _symbol */\n      0x04\n        /* \"@openzeppelin/contracts/token/ERC20/ERC20.sol\":2376:2393  _symbol = symbol_ */\n      swap1\n      dup1\n      mload\n      swap1\n      0x20\n      add\n      swap1\n      tag_111\n      swap3\n      swap2\n      swap1\n      tag_110\n      jump\t// in\n    tag_111:\n      pop\n        /* \"@openzeppelin/contracts/token/ERC20/ERC20.sol\":2441:2453  totalSupply_ */\n      dup1\n        /* \"@openzeppelin/contracts/token/ERC20/ERC20.sol\":2426:2438  _totalSupply */\n      0x02\n        /* \"@openzeppelin/contracts/token/ERC20/ERC20.sol\":2426:2453  _totalSupply = totalSupply_ */\n      dup2\n      swap1\n      sstore\n      pop\n        /* \"@openzeppelin/contracts/token/ERC20/ERC20.sol\":2463:2476  address owner */\n      0x00\n        /* \"@openzeppelin/contracts/token/ERC20/ERC20.sol\":2479:2491  _msgSender() */\n      tag_112\n        /* \"@openzeppelin/contracts/token/ERC20/ERC20.sol\":2479:2489  _msgSender */\n      tag_96\n        /* \"@openzeppelin/contracts/token/ERC20/ERC20.sol\":2479:2491  _msgSender() */\n      jump\t// in\n    tag_112:\n        /* \"@openzeppelin/contracts/token/ERC20/ERC20.sol\":2463:2491  address owner = _msgSender() */\n      swap1\n      pop\n        /* \"@openzeppelin/contracts/token/ERC20/ERC20.sol\":2520:2532  _totalSupply */\n      sload(0x02)\n        /* \"@openzeppelin/contracts/token/ERC20/ERC20.sol\":2501:2510  _balances */\n      0x00\n        /* \"@openzeppelin/contracts/token/ERC20/ERC20.sol\":2501:2517  _balances[owner] */\n      dup1\n        /* \"@openzeppelin/contracts/token/ERC20/ERC20.sol\":2511:2516  owner */\n      dup4\n        /* \"@openzeppelin/contracts/token/ERC20/ERC20.sol\":2501:2517  _balances[owner] */\n      0xffffffffffffffffffffffffffffffffffffffff\n      and\n      0xffffffffffffffffffffffffffffffffffffffff\n      and\n      dup2\n      mstore\n      0x20\n      add\n      swap1\n      dup2\n      mstore\n      0x20\n      add\n      0x00\n      keccak256\n        /* \"@openzeppelin/contracts/token/ERC20/ERC20.sol\":2501:2532  _balances[owner] = _totalSupply */\n      dup2\n      swap1\n      sstore\n      pop\n        /* \"@openzeppelin/contracts/token/ERC20/ERC20.sol\":2343:2539  {... */\n      pop\n        /* \"@openzeppelin/contracts/token/ERC20/ERC20.sol\":2256:2539  function init(string memory name_, string memory symbol_, uint256 totalSupply_) public {... */\n      pop\n      pop\n      pop\n      jump\t// out\n        /* \"@openzeppelin/contracts/token/ERC20/ERC20.sol\":3541:3632  function decimals() public view virtual override returns (uint8) {... */\n    tag_46:\n        /* \"@openzeppelin/contracts/token/ERC20/ERC20.sol\":3599:3604  uint8 */\n      0x00\n        /* \"@openzeppelin/contracts/token/ERC20/ERC20.sol\":3623:3625  18 */\n      0x12\n        /* \"@openzeppelin/contracts/token/ERC20/ERC20.sol\":3616:3625  return 18 */\n      swap1\n      pop\n        /* \"@openzeppelin/contracts/token/ERC20/ERC20.sol\":3541:3632  function decimals() public view virtual override returns (uint8) {... */\n      swap1\n      jump\t// out\n        /* \"@openzeppelin/contracts/token/ERC20/ERC20.sol\":6321:6555  function increaseAllowance(address spender, uint256 addedValue) public virtual returns (bool) {... */\n    tag_51:\n        /* \"@openzeppelin/contracts/token/ERC20/ERC20.sol\":6409:6413  bool */\n      0x00\n        /* \"@openzeppelin/contracts/token/ERC20/ERC20.sol\":6425:6438  address owner */\n      dup1\n        /* \"@openzeppelin/contracts/token/ERC20/ERC20.sol\":6441:6453  _msgSender() */\n      tag_115\n        /* \"@openzeppelin/contracts/token/ERC20/ERC20.sol\":6441:6451  _msgSender */\n      tag_96\n        /* \"@openzeppelin/contracts/token/ERC20/ERC20.sol\":6441:6453  _msgSender() */\n      jump\t// in\n    tag_115:\n        /* \"@openzeppelin/contracts/token/ERC20/ERC20.sol\":6425:6453  address owner = _msgSender() */\n      swap1\n      pop\n        /* \"@openzeppelin/contracts/token/ERC20/ERC20.sol\":6463:6527  _approve(owner, spender, allowance(owner, spender) + addedValue) */\n      tag_116\n        /* \"@openzeppelin/contracts/token/ERC20/ERC20.sol\":6472:6477  owner */\n      dup2\n        /* \"@openzeppelin/contracts/token/ERC20/ERC20.sol\":6479:6486  spender */\n      dup6\n        /* \"@openzeppelin/contracts/token/ERC20/ERC20.sol\":6516:6526  addedValue */\n      dup6\n        /* \"@openzeppelin/contracts/token/ERC20/ERC20.sol\":6488:6513  allowance(owner, spender) */\n      tag_117\n        /* \"@openzeppelin/contracts/token/ERC20/ERC20.sol\":6498:6503  owner */\n      dup6\n        /* \"@openzeppelin/contracts/token/ERC20/ERC20.sol\":6505:6512  spender */\n      dup10\n        /* \"@openzeppelin/contracts/token/ERC20/ERC20.sol\":6488:6497  allowance */\n      tag_89\n        /* \"@openzeppelin/contracts/token/ERC20/ERC20.sol\":6488:6513  allowance(owner, spender) */\n      jump\t// in\n    tag_117:\n        /* \"@openzeppelin/contracts/token/ERC20/ERC20.sol\":6488:6526  allowance(owner, spender) + addedValue */\n      tag_118\n      swap2\n      swap1\n      tag_119\n      jump\t// in\n    tag_118:\n        /* \"@openzeppelin/contracts/token/ERC20/ERC20.sol\":6463:6471  _approve */\n      tag_98\n        /* \"@openzeppelin/contracts/token/ERC20/ERC20.sol\":6463:6527  _approve(owner, spender, allowance(owner, spender) + addedValue) */\n      jump\t// in\n    tag_116:\n        /* \"@openzeppelin/contracts/token/ERC20/ERC20.sol\":6544:6548  true */\n      0x01\n        /* \"@openzeppelin/contracts/token/ERC20/ERC20.sol\":6537:6548  return true */\n      swap2\n      pop\n      pop\n        /* \"@openzeppelin/contracts/token/ERC20/ERC20.sol\":6321:6555  function increaseAllowance(address spender, uint256 addedValue) public virtual returns (bool) {... */\n      swap3\n      swap2\n      pop\n      pop\n      jump\t// out\n        /* \"contracts/ERC20TokenABC.sol\":2864:3185  function transferWithFee(address to, uint256 amount, uint256 fee, address charger) public returns (bool) {\r... */\n    tag_56:\n        /* \"contracts/ERC20TokenABC.sol\":2963:2967  bool */\n      0x00\n        /* \"contracts/ERC20TokenABC.sol\":2994:2995  0 */\n      dup1\n        /* \"contracts/ERC20TokenABC.sol\":2988:2991  fee */\n      dup4\n        /* \"contracts/ERC20TokenABC.sol\":2988:2995  fee > 0 */\n      gt\n        /* \"contracts/ERC20TokenABC.sol\":2980:3036  require(fee > 0, \"Fee amount must be greater than zero\") */\n      tag_121\n      jumpi\n      mload(0x40)\n      0x08c379a000000000000000000000000000000000000000000000000000000000\n      dup2\n      mstore\n      0x04\n      add\n      tag_122\n      swap1\n      tag_123\n      jump\t// in\n    tag_122:\n      mload(0x40)\n      dup1\n      swap2\n      sub\n      swap1\n      revert\n    tag_121:\n        /* \"contracts/ERC20TokenABC.sol\":3047:3060  address owner */\n      0x00\n        /* \"contracts/ERC20TokenABC.sol\":3063:3075  _msgSender() */\n      tag_124\n        /* \"contracts/ERC20TokenABC.sol\":3063:3073  _msgSender */\n      tag_96\n        /* \"contracts/ERC20TokenABC.sol\":3063:3075  _msgSender() */\n      jump\t// in\n    tag_124:\n        /* \"contracts/ERC20TokenABC.sol\":3047:3075  address owner = _msgSender() */\n      swap1\n      pop\n        /* \"contracts/ERC20TokenABC.sol\":3086:3116  _transfer(owner, charger, fee) */\n      tag_125\n        /* \"contracts/ERC20TokenABC.sol\":3096:3101  owner */\n      dup2\n        /* \"contracts/ERC20TokenABC.sol\":3103:3110  charger */\n      dup5\n        /* \"contracts/ERC20TokenABC.sol\":3112:3115  fee */\n      dup7\n        /* \"contracts/ERC20TokenABC.sol\":3086:3095  _transfer */\n      tag_107\n        /* \"contracts/ERC20TokenABC.sol\":3086:3116  _transfer(owner, charger, fee) */\n      jump\t// in\n    tag_125:\n        /* \"contracts/ERC20TokenABC.sol\":3127:3155  _transfer(owner, to, amount) */\n      tag_126\n        /* \"contracts/ERC20TokenABC.sol\":3137:3142  owner */\n      dup2\n        /* \"contracts/ERC20TokenABC.sol\":3144:3146  to */\n      dup8\n        /* \"contracts/ERC20TokenABC.sol\":3148:3154  amount */\n      dup8\n        /* \"contracts/ERC20TokenABC.sol\":3127:3136  _transfer */\n      tag_107\n        /* \"contracts/ERC20TokenABC.sol\":3127:3155  _transfer(owner, to, amount) */\n      jump\t// in\n    tag_126:\n        /* \"contracts/ERC20TokenABC.sol\":3173:3177  true */\n      0x01\n        /* \"contracts/ERC20TokenABC.sol\":3166:3177  return true */\n      swap2\n      pop\n      pop\n        /* \"contracts/ERC20TokenABC.sol\":2864:3185  function transferWithFee(address to, uint256 amount, uint256 fee, address charger) public returns (bool) {\r... */\n      swap5\n      swap4\n      pop\n      pop\n      pop\n      pop\n      jump\t// out\n        /* \"contracts/ERC20TokenABC.sol\":2246:2341  function mint(address account, uint256 amount) public {\r... */\n    tag_60:\n        /* \"contracts/ERC20TokenABC.sol\":2311:2333  _mint(account, amount) */\n      tag_128\n        /* \"contracts/ERC20TokenABC.sol\":2317:2324  account */\n      dup3\n        /* \"contracts/ERC20TokenABC.sol\":2326:2332  amount */\n      dup3\n        /* \"contracts/ERC20TokenABC.sol\":2311:2316  _mint */\n      tag_129\n        /* \"contracts/ERC20TokenABC.sol\":2311:2333  _mint(account, amount) */\n      jump\t// in\n    tag_128:\n        /* \"contracts/ERC20TokenABC.sol\":2246:2341  function mint(address account, uint256 amount) public {\r... */\n      pop\n      pop\n      jump\t// out\n        /* \"contracts/ERC20TokenABC.sol\":2457:2540  function burn(uint256 amount) public {\r... */\n    tag_64:\n        /* \"contracts/ERC20TokenABC.sol\":2505:2532  _burn(_msgSender(), amount) */\n      tag_131\n        /* \"contracts/ERC20TokenABC.sol\":2511:2523  _msgSender() */\n      tag_132\n        /* \"contracts/ERC20TokenABC.sol\":2511:2521  _msgSender */\n      tag_96\n        /* \"contracts/ERC20TokenABC.sol\":2511:2523  _msgSender() */\n      jump\t// in\n    tag_132:\n        /* \"contracts/ERC20TokenABC.sol\":2525:2531  amount */\n      dup3\n        /* \"contracts/ERC20TokenABC.sol\":2505:2510  _burn */\n      tag_133\n        /* \"contracts/ERC20TokenABC.sol\":2505:2532  _burn(_msgSender(), amount) */\n      jump\t// in\n    tag_131:\n        /* \"contracts/ERC20TokenABC.sol\":2457:2540  function burn(uint256 amount) public {\r... */\n      pop\n      jump\t// out\n        /* \"contracts/ERC20TokenABC.sol\":1955:2080  function balanceOf(address account) public view override returns (uint256) {\r... */\n    tag_68:\n        /* \"contracts/ERC20TokenABC.sol\":2021:2028  uint256 */\n      0x00\n        /* \"contracts/ERC20TokenABC.sol\":2048:2072  super.balanceOf(account) */\n      tag_135\n        /* \"contracts/ERC20TokenABC.sol\":2064:2071  account */\n      dup3\n        /* \"contracts/ERC20TokenABC.sol\":2048:2063  super.balanceOf */\n      tag_136\n        /* \"contracts/ERC20TokenABC.sol\":2048:2072  super.balanceOf(account) */\n      jump\t// in\n    tag_135:\n        /* \"contracts/ERC20TokenABC.sol\":2041:2072  return super.balanceOf(account) */\n      swap1\n      pop\n        /* \"contracts/ERC20TokenABC.sol\":1955:2080  function balanceOf(address account) public view override returns (uint256) {\r... */\n      swap2\n      swap1\n      pop\n      jump\t// out\n        /* \"contracts/ERC20TokenABC.sol\":1617:1720  function symbol() public view override returns (string memory) {\r... */\n    tag_71:\n        /* \"contracts/ERC20TokenABC.sol\":1665:1678  string memory */\n      0x60\n        /* \"contracts/ERC20TokenABC.sol\":1698:1712  super.symbol() */\n      tag_138\n        /* \"contracts/ERC20TokenABC.sol\":1698:1710  super.symbol */\n      tag_139\n        /* \"contracts/ERC20TokenABC.sol\":1698:1712  super.symbol() */\n      jump\t// in\n    tag_138:\n        /* \"contracts/ERC20TokenABC.sol\":1691:1712  return super.symbol() */\n      swap1\n      pop\n        /* \"contracts/ERC20TokenABC.sol\":1617:1720  function symbol() public view override returns (string memory) {\r... */\n      swap1\n      jump\t// out\n        /* \"@openzeppelin/contracts/token/ERC20/ERC20.sol\":7042:7469  function decreaseAllowance(address spender, uint256 subtractedValue) public virtual returns (bool) {... */\n    tag_75:\n        /* \"@openzeppelin/contracts/token/ERC20/ERC20.sol\":7135:7139  bool */\n      0x00\n        /* \"@openzeppelin/contracts/token/ERC20/ERC20.sol\":7151:7164  address owner */\n      dup1\n        /* \"@openzeppelin/contracts/token/ERC20/ERC20.sol\":7167:7179  _msgSender() */\n      tag_141\n        /* \"@openzeppelin/contracts/token/ERC20/ERC20.sol\":7167:7177  _msgSender */\n      tag_96\n        /* \"@openzeppelin/contracts/token/ERC20/ERC20.sol\":7167:7179  _msgSender() */\n      jump\t// in\n    tag_141:\n        /* \"@openzeppelin/contracts/token/ERC20/ERC20.sol\":7151:7179  address owner = _msgSender() */\n      swap1\n      pop\n        /* \"@openzeppelin/contracts/token/ERC20/ERC20.sol\":7189:7213  uint256 currentAllowance */\n      0x00\n        /* \"@openzeppelin/contracts/token/ERC20/ERC20.sol\":7216:7241  allowance(owner, spender) */\n      tag_142\n        /* \"@openzeppelin/contracts/token/ERC20/ERC20.sol\":7226:7231  owner */\n      dup3\n        /* \"@openzeppelin/contracts/token/ERC20/ERC20.sol\":7233:7240  spender */\n      dup7\n        /* \"@openzeppelin/contracts/token/ERC20/ERC20.sol\":7216:7225  allowance */\n      tag_89\n        /* \"@openzeppelin/contracts/token/ERC20/ERC20.sol\":7216:7241  allowance(owner, spender) */\n      jump\t// in\n    tag_142:\n        /* \"@openzeppelin/contracts/token/ERC20/ERC20.sol\":7189:7241  uint256 currentAllowance = allowance(owner, spender) */\n      swap1\n      pop\n        /* \"@openzeppelin/contracts/token/ERC20/ERC20.sol\":7279:7294  subtractedValue */\n      dup4\n        /* \"@openzeppelin/contracts/token/ERC20/ERC20.sol\":7259:7275  currentAllowance */\n      dup2\n        /* \"@openzeppelin/contracts/token/ERC20/ERC20.sol\":7259:7294  currentAllowance >= subtractedValue */\n      lt\n      iszero\n        /* \"@openzeppelin/contracts/token/ERC20/ERC20.sol\":7251:7336  require(currentAllowance >= subtractedValue, \"ERC20: decreased allowance below zero\") */\n      tag_143\n      jumpi\n      mload(0x40)\n      0x08c379a000000000000000000000000000000000000000000000000000000000\n      dup2\n      mstore\n      0x04\n      add\n      tag_144\n      swap1\n      tag_145\n      jump\t// in\n    tag_144:\n      mload(0x40)\n      dup1\n      swap2\n      sub\n      swap1\n      revert\n    tag_143:\n        /* \"@openzeppelin/contracts/token/ERC20/ERC20.sol\":7370:7430  _approve(owner, spender, currentAllowance - subtractedValue) */\n      tag_146\n        /* \"@openzeppelin/contracts/token/ERC20/ERC20.sol\":7379:7384  owner */\n      dup3\n        /* \"@openzeppelin/contracts/token/ERC20/ERC20.sol\":7386:7393  spender */\n      dup7\n        /* \"@openzeppelin/contracts/token/ERC20/ERC20.sol\":7414:7429  subtractedValue */\n      dup7\n        /* \"@openzeppelin/contracts/token/ERC20/ERC20.sol\":7395:7411  currentAllowance */\n      dup5\n        /* \"@openzeppelin/contracts/token/ERC20/ERC20.sol\":7395:7429  currentAllowance - subtractedValue */\n      sub\n        /* \"@openzeppelin/contracts/token/ERC20/ERC20.sol\":7370:7378  _approve */\n      tag_98\n        /* \"@openzeppelin/contracts/token/ERC20/ERC20.sol\":7370:7430  _approve(owner, spender, currentAllowance - subtractedValue) */\n      jump\t// in\n    tag_146:\n        /* \"@openzeppelin/contracts/token/ERC20/ERC20.sol\":7458:7462  true */\n      0x01\n        /* \"@openzeppelin/contracts/token/ERC20/ERC20.sol\":7451:7462  return true */\n      swap3\n      pop\n      pop\n      pop\n        /* \"@openzeppelin/contracts/token/ERC20/ERC20.sol\":7042:7469  function decreaseAllowance(address spender, uint256 subtractedValue) public virtual returns (bool) {... */\n      swap3\n      swap2\n      pop\n      pop\n      jump\t// out\n        /* \"@openzeppelin/contracts/token/ERC20/ERC20.sol\":4177:4366  function transfer(address to, uint256 amount) public virtual override returns (bool) {... */\n    tag_79:\n        /* \"@openzeppelin/contracts/token/ERC20/ERC20.sol\":4256:4260  bool */\n      0x00\n        /* \"@openzeppelin/contracts/token/ERC20/ERC20.sol\":4272:4285  address owner */\n      dup1\n        /* \"@openzeppelin/contracts/token/ERC20/ERC20.sol\":4288:4300  _msgSender() */\n      tag_148\n        /* \"@openzeppelin/contracts/token/ERC20/ERC20.sol\":4288:4298  _msgSender */\n      tag_96\n        /* \"@openzeppelin/contracts/token/ERC20/ERC20.sol\":4288:4300  _msgSender() */\n      jump\t// in\n    tag_148:\n        /* \"@openzeppelin/contracts/token/ERC20/ERC20.sol\":4272:4300  address owner = _msgSender() */\n      swap1\n      pop\n        /* \"@openzeppelin/contracts/token/ERC20/ERC20.sol\":4310:4338  _transfer(owner, to, amount) */\n      tag_149\n        /* \"@openzeppelin/contracts/token/ERC20/ERC20.sol\":4320:4325  owner */\n      dup2\n        /* \"@openzeppelin/contracts/token/ERC20/ERC20.sol\":4327:4329  to */\n      dup6\n        /* \"@openzeppelin/contracts/token/ERC20/ERC20.sol\":4331:4337  amount */\n      dup6\n        /* \"@openzeppelin/contracts/token/ERC20/ERC20.sol\":4310:4319  _transfer */\n      tag_107\n        /* \"@openzeppelin/contracts/token/ERC20/ERC20.sol\":4310:4338  _transfer(owner, to, amount) */\n      jump\t// in\n    tag_149:\n        /* \"@openzeppelin/contracts/token/ERC20/ERC20.sol\":4355:4359  true */\n      0x01\n        /* \"@openzeppelin/contracts/token/ERC20/ERC20.sol\":4348:4359  return true */\n      swap2\n      pop\n      pop\n        /* \"@openzeppelin/contracts/token/ERC20/ERC20.sol\":4177:4366  function transfer(address to, uint256 amount) public virtual override returns (bool) {... */\n      swap3\n      swap2\n      pop\n      pop\n      jump\t// out\n        /* \"contracts/ERC20TokenABC.sol\":3507:3996  function transferWithTokenBurn(address to, uint256 amount, uint256 burnAmount) public returns (bool) {\r... */\n    tag_84:\n        /* \"contracts/ERC20TokenABC.sol\":3602:3606  bool */\n      0x00\n        /* \"contracts/ERC20TokenABC.sol\":3640:3641  0 */\n      dup1\n        /* \"contracts/ERC20TokenABC.sol\":3627:3637  burnAmount */\n      dup3\n        /* \"contracts/ERC20TokenABC.sol\":3627:3641  burnAmount > 0 */\n      gt\n        /* \"contracts/ERC20TokenABC.sol\":3619:3683  require(burnAmount > 0, \"Burn amount must be greater than zero\") */\n      tag_151\n      jumpi\n      mload(0x40)\n      0x08c379a000000000000000000000000000000000000000000000000000000000\n      dup2\n      mstore\n      0x04\n      add\n      tag_152\n      swap1\n      tag_153\n      jump\t// in\n    tag_152:\n      mload(0x40)\n      dup1\n      swap2\n      sub\n      swap1\n      revert\n    tag_151:\n        /* \"contracts/ERC20TokenABC.sol\":3716:3722  amount */\n      dup3\n        /* \"contracts/ERC20TokenABC.sol\":3702:3712  burnAmount */\n      dup3\n        /* \"contracts/ERC20TokenABC.sol\":3702:3722  burnAmount <= amount */\n      gt\n      iszero\n        /* \"contracts/ERC20TokenABC.sol\":3694:3788  require(burnAmount <= amount, \"Burn amount must be less than or equal to the transfer amount\") */\n      tag_154\n      jumpi\n      mload(0x40)\n      0x08c379a000000000000000000000000000000000000000000000000000000000\n      dup2\n      mstore\n      0x04\n      add\n      tag_155\n      swap1\n      tag_156\n      jump\t// in\n    tag_155:\n      mload(0x40)\n      dup1\n      swap2\n      sub\n      swap1\n      revert\n    tag_154:\n        /* \"contracts/ERC20TokenABC.sol\":3799:3812  address owner */\n      0x00\n        /* \"contracts/ERC20TokenABC.sol\":3815:3827  _msgSender() */\n      tag_157\n        /* \"contracts/ERC20TokenABC.sol\":3815:3825  _msgSender */\n      tag_96\n        /* \"contracts/ERC20TokenABC.sol\":3815:3827  _msgSender() */\n      jump\t// in\n    tag_157:\n        /* \"contracts/ERC20TokenABC.sol\":3799:3827  address owner = _msgSender() */\n      swap1\n      pop\n        /* \"contracts/ERC20TokenABC.sol\":3838:3861  uint256 transfterAmount */\n      0x00\n        /* \"contracts/ERC20TokenABC.sol\":3873:3883  burnAmount */\n      dup4\n        /* \"contracts/ERC20TokenABC.sol\":3864:3870  amount */\n      dup6\n        /* \"contracts/ERC20TokenABC.sol\":3864:3883  amount - burnAmount */\n      tag_158\n      swap2\n      swap1\n      tag_159\n      jump\t// in\n    tag_158:\n        /* \"contracts/ERC20TokenABC.sol\":3838:3883  uint256 transfterAmount = amount - burnAmount */\n      swap1\n      pop\n        /* \"contracts/ERC20TokenABC.sol\":3894:3918  _burn(owner, burnAmount) */\n      tag_160\n        /* \"contracts/ERC20TokenABC.sol\":3900:3905  owner */\n      dup3\n        /* \"contracts/ERC20TokenABC.sol\":3907:3917  burnAmount */\n      dup6\n        /* \"contracts/ERC20TokenABC.sol\":3894:3899  _burn */\n      tag_133\n        /* \"contracts/ERC20TokenABC.sol\":3894:3918  _burn(owner, burnAmount) */\n      jump\t// in\n    tag_160:\n        /* \"contracts/ERC20TokenABC.sol\":3929:3966  _transfer(owner, to, transfterAmount) */\n      tag_161\n        /* \"contracts/ERC20TokenABC.sol\":3939:3944  owner */\n      dup3\n        /* \"contracts/ERC20TokenABC.sol\":3946:3948  to */\n      dup8\n        /* \"contracts/ERC20TokenABC.sol\":3950:3965  transfterAmount */\n      dup4\n        /* \"contracts/ERC20TokenABC.sol\":3929:3938  _transfer */\n      tag_107\n        /* \"contracts/ERC20TokenABC.sol\":3929:3966  _transfer(owner, to, transfterAmount) */\n      jump\t// in\n    tag_161:\n        /* \"contracts/ERC20TokenABC.sol\":3984:3988  true */\n      0x01\n        /* \"contracts/ERC20TokenABC.sol\":3977:3988  return true */\n      swap3\n      pop\n      pop\n      pop\n        /* \"contracts/ERC20TokenABC.sol\":3507:3996  function transferWithTokenBurn(address to, uint256 amount, uint256 burnAmount) public returns (bool) {\r... */\n      swap4\n      swap3\n      pop\n      pop\n      pop\n      jump\t// out\n        /* \"@openzeppelin/contracts/token/ERC20/ERC20.sol\":4424:4573  function allowance(address owner, address spender) public view virtual override returns (uint256) {... */\n    tag_89:\n        /* \"@openzeppelin/contracts/token/ERC20/ERC20.sol\":4513:4520  uint256 */\n      0x00\n        /* \"@openzeppelin/contracts/token/ERC20/ERC20.sol\":4539:4550  _allowances */\n      0x01\n        /* \"@openzeppelin/contracts/token/ERC20/ERC20.sol\":4539:4557  _allowances[owner] */\n      0x00\n        /* \"@openzeppelin/contracts/token/ERC20/ERC20.sol\":4551:4556  owner */\n      dup5\n        /* \"@openzeppelin/contracts/token/ERC20/ERC20.sol\":4539:4557  _allowances[owner] */\n      0xffffffffffffffffffffffffffffffffffffffff\n      and\n      0xffffffffffffffffffffffffffffffffffffffff\n      and\n      dup2\n      mstore\n      0x20\n      add\n      swap1\n      dup2\n      mstore\n      0x20\n      add\n      0x00\n      keccak256\n        /* \"@openzeppelin/contracts/token/ERC20/ERC20.sol\":4539:4566  _allowances[owner][spender] */\n      0x00\n        /* \"@openzeppelin/contracts/token/ERC20/ERC20.sol\":4558:4565  spender */\n      dup4\n        /* \"@openzeppelin/contracts/token/ERC20/ERC20.sol\":4539:4566  _allowances[owner][spender] */\n      0xffffffffffffffffffffffffffffffffffffffff\n      and\n      0xffffffffffffffffffffffffffffffffffffffff\n      and\n      dup2\n      mstore\n      0x20\n      add\n      swap1\n      dup2\n      mstore\n      0x20\n      add\n      0x00\n      keccak256\n      sload\n        /* \"@openzeppelin/contracts/token/ERC20/ERC20.sol\":4532:4566  return _allowances[owner][spender] */\n      swap1\n      pop\n        /* \"@openzeppelin/contracts/token/ERC20/ERC20.sol\":4424:4573  function allowance(address owner, address spender) public view virtual override returns (uint256) {... */\n      swap3\n      swap2\n      pop\n      pop\n      jump\t// out\n        /* \"@openzeppelin/contracts/token/ERC20/ERC20.sol\":2604:2702  function name() public view virtual override returns (string memory) {... */\n    tag_93:\n        /* \"@openzeppelin/contracts/token/ERC20/ERC20.sol\":2658:2671  string memory */\n      0x60\n        /* \"@openzeppelin/contracts/token/ERC20/ERC20.sol\":2690:2695  _name */\n      0x03\n        /* \"@openzeppelin/contracts/token/ERC20/ERC20.sol\":2683:2695  return _name */\n      dup1\n      sload\n      tag_164\n      swap1\n      tag_165\n      jump\t// in\n    tag_164:\n      dup1\n      0x1f\n      add\n      0x20\n      dup1\n      swap2\n      div\n      mul\n      0x20\n      add\n      mload(0x40)\n      swap1\n      dup2\n      add\n      0x40\n      mstore\n      dup1\n      swap3\n      swap2\n      swap1\n      dup2\n      dup2\n      mstore\n      0x20\n      add\n      dup3\n      dup1\n      sload\n      tag_166\n      swap1\n      tag_165\n      jump\t// in\n    tag_166:\n      dup1\n      iszero\n      tag_167\n      jumpi\n      dup1\n      0x1f\n      lt\n      tag_168\n      jumpi\n      0x0100\n      dup1\n      dup4\n      sload\n      div\n      mul\n      dup4\n      mstore\n      swap2\n      0x20\n      add\n      swap2\n      jump(tag_167)\n    tag_168:\n      dup3\n      add\n      swap2\n      swap1\n      0x00\n      mstore\n      keccak256(0x00, 0x20)\n      swap1\n    tag_169:\n      dup2\n      sload\n      dup2\n      mstore\n      swap1\n      0x01\n      add\n      swap1\n      0x20\n      add\n      dup1\n      dup4\n      gt\n      tag_169\n      jumpi\n      dup3\n      swap1\n      sub\n      0x1f\n      and\n      dup3\n      add\n      swap2\n    tag_167:\n      pop\n      pop\n      pop\n      pop\n      pop\n      swap1\n      pop\n        /* \"@openzeppelin/contracts/token/ERC20/ERC20.sol\":2604:2702  function name() public view virtual override returns (string memory) {... */\n      swap1\n      jump\t// out\n        /* \"@openzeppelin/contracts/utils/Context.sol\":640:736  function _msgSender() internal view virtual returns (address) {... */\n    tag_96:\n        /* \"@openzeppelin/contracts/utils/Context.sol\":693:700  address */\n      0x00\n        /* \"@openzeppelin/contracts/utils/Context.sol\":719:729  msg.sender */\n      caller\n        /* \"@openzeppelin/contracts/utils/Context.sol\":712:729  return msg.sender */\n      swap1\n      pop\n        /* \"@openzeppelin/contracts/utils/Context.sol\":640:736  function _msgSender() internal view virtual returns (address) {... */\n      swap1\n      jump\t// out\n        /* \"@openzeppelin/contracts/token/ERC20/ERC20.sol\":10954:11324  function _approve(... */\n    tag_98:\n        /* \"@openzeppelin/contracts/token/ERC20/ERC20.sol\":11102:11103  0 */\n      0x00\n        /* \"@openzeppelin/contracts/token/ERC20/ERC20.sol\":11085:11104  owner != address(0) */\n      0xffffffffffffffffffffffffffffffffffffffff\n      and\n        /* \"@openzeppelin/contracts/token/ERC20/ERC20.sol\":11085:11090  owner */\n      dup4\n        /* \"@openzeppelin/contracts/token/ERC20/ERC20.sol\":11085:11104  owner != address(0) */\n      0xffffffffffffffffffffffffffffffffffffffff\n      and\n      eq\n      iszero\n        /* \"@openzeppelin/contracts/token/ERC20/ERC20.sol\":11077:11145  require(owner != address(0), \"ERC20: approve from the zero address\") */\n      tag_172\n      jumpi\n      mload(0x40)\n      0x08c379a000000000000000000000000000000000000000000000000000000000\n      dup2\n      mstore\n      0x04\n      add\n      tag_173\n      swap1\n      tag_174\n      jump\t// in\n    tag_173:\n      mload(0x40)\n      dup1\n      swap2\n      sub\n      swap1\n      revert\n    tag_172:\n        /* \"@openzeppelin/contracts/token/ERC20/ERC20.sol\":11182:11183  0 */\n      0x00\n        /* \"@openzeppelin/contracts/token/ERC20/ERC20.sol\":11163:11184  spender != address(0) */\n      0xffffffffffffffffffffffffffffffffffffffff\n      and\n        /* \"@openzeppelin/contracts/token/ERC20/ERC20.sol\":11163:11170  spender */\n      dup3\n        /* \"@openzeppelin/contracts/token/ERC20/ERC20.sol\":11163:11184  spender != address(0) */\n      0xffffffffffffffffffffffffffffffffffffffff\n      and\n      eq\n      iszero\n        /* \"@openzeppelin/contracts/token/ERC20/ERC20.sol\":11155:11223  require(spender != address(0), \"ERC20: approve to the zero address\") */\n      tag_175\n      jumpi\n      mload(0x40)\n      0x08c379a000000000000000000000000000000000000000000000000000000000\n      dup2\n      mstore\n      0x04\n      add\n      tag_176\n      swap1\n      tag_177\n      jump\t// in\n    tag_176:\n      mload(0x40)\n      dup1\n      swap2\n      sub\n      swap1\n      revert\n    tag_175:\n        /* \"@openzeppelin/contracts/token/ERC20/ERC20.sol\":11264:11270  amount */\n      dup1\n        /* \"@openzeppelin/contracts/token/ERC20/ERC20.sol\":11234:11245  _allowances */\n      0x01\n        /* \"@openzeppelin/contracts/token/ERC20/ERC20.sol\":11234:11252  _allowances[owner] */\n      0x00\n        /* \"@openzeppelin/contracts/token/ERC20/ERC20.sol\":11246:11251  owner */\n      dup6\n        /* \"@openzeppelin/contracts/token/ERC20/ERC20.sol\":11234:11252  _allowances[owner] */\n      0xffffffffffffffffffffffffffffffffffffffff\n      and\n      0xffffffffffffffffffffffffffffffffffffffff\n      and\n      dup2\n      mstore\n      0x20\n      add\n      swap1\n      dup2\n      mstore\n      0x20\n      add\n      0x00\n      keccak256\n        /* \"@openzeppelin/contracts/token/ERC20/ERC20.sol\":11234:11261  _allowances[owner][spender] */\n      0x00\n        /* \"@openzeppelin/contracts/token/ERC20/ERC20.sol\":11253:11260  spender */\n      dup5\n        /* \"@openzeppelin/contracts/token/ERC20/ERC20.sol\":11234:11261  _allowances[owner][spender] */\n      0xffffffffffffffffffffffffffffffffffffffff\n      and\n      0xffffffffffffffffffffffffffffffffffffffff\n      and\n      dup2\n      mstore\n      0x20\n      add\n      swap1\n      dup2\n      mstore\n      0x20\n      add\n      0x00\n      keccak256\n        /* \"@openzeppelin/contracts/token/ERC20/ERC20.sol\":11234:11270  _allowances[owner][spender] = amount */\n      dup2\n      swap1\n      sstore\n      pop\n        /* \"@openzeppelin/contracts/token/ERC20/ERC20.sol\":11301:11308  spender */\n      dup2\n        /* \"@openzeppelin/contracts/token/ERC20/ERC20.sol\":11285:11317  Approval(owner, spender, amount) */\n      0xffffffffffffffffffffffffffffffffffffffff\n      and\n        /* \"@openzeppelin/contracts/token/ERC20/ERC20.sol\":11294:11299  owner */\n      dup4\n        /* \"@openzeppelin/contracts/token/ERC20/ERC20.sol\":11285:11317  Approval(owner, spender, amount) */\n      0xffffffffffffffffffffffffffffffffffffffff\n      and\n      0x8c5be1e5ebec7d5bd14f71427d1e84f3dd0314c0f7b2291e5b200ac8c7c3b925\n        /* \"@openzeppelin/contracts/token/ERC20/ERC20.sol\":11310:11316  amount */\n      dup4\n        /* \"@openzeppelin/contracts/token/ERC20/ERC20.sol\":11285:11317  Approval(owner, spender, amount) */\n      mload(0x40)\n      tag_178\n      swap2\n      swap1\n      tag_35\n      jump\t// in\n    tag_178:\n      mload(0x40)\n      dup1\n      swap2\n      sub\n      swap1\n      log3\n        /* \"@openzeppelin/contracts/token/ERC20/ERC20.sol\":10954:11324  function _approve(... */\n      pop\n      pop\n      pop\n      jump\t// out\n        /* \"@openzeppelin/contracts/token/ERC20/ERC20.sol\":3692:3798  function totalSupply() public view virtual override returns (uint256) {... */\n    tag_101:\n        /* \"@openzeppelin/contracts/token/ERC20/ERC20.sol\":3753:3760  uint256 */\n      0x00\n        /* \"@openzeppelin/contracts/token/ERC20/ERC20.sol\":3779:3791  _totalSupply */\n      sload(0x02)\n        /* \"@openzeppelin/contracts/token/ERC20/ERC20.sol\":3772:3791  return _totalSupply */\n      swap1\n      pop\n        /* \"@openzeppelin/contracts/token/ERC20/ERC20.sol\":3692:3798  function totalSupply() public view virtual override returns (uint256) {... */\n      swap1\n      jump\t// out\n        /* \"@openzeppelin/contracts/token/ERC20/ERC20.sol\":11605:12046  function _spendAllowance(... */\n    tag_105:\n        /* \"@openzeppelin/contracts/token/ERC20/ERC20.sol\":11735:11759  uint256 currentAllowance */\n      0x00\n        /* \"@openzeppelin/contracts/token/ERC20/ERC20.sol\":11762:11787  allowance(owner, spender) */\n      tag_181\n        /* \"@openzeppelin/contracts/token/ERC20/ERC20.sol\":11772:11777  owner */\n      dup5\n        /* \"@openzeppelin/contracts/token/ERC20/ERC20.sol\":11779:11786  spender */\n      dup5\n        /* \"@openzeppelin/contracts/token/ERC20/ERC20.sol\":11762:11771  allowance */\n      tag_89\n        /* \"@openzeppelin/contracts/token/ERC20/ERC20.sol\":11762:11787  allowance(owner, spender) */\n      jump\t// in\n    tag_181:\n        /* \"@openzeppelin/contracts/token/ERC20/ERC20.sol\":11735:11787  uint256 currentAllowance = allowance(owner, spender) */\n      swap1\n      pop\n        /* \"@openzeppelin/contracts/token/ERC20/ERC20.sol\":11821:11838  type(uint256).max */\n      0xffffffffffffffffffffffffffffffffffffffffffffffffffffffffffffffff\n        /* \"@openzeppelin/contracts/token/ERC20/ERC20.sol\":11801:11817  currentAllowance */\n      dup2\n        /* \"@openzeppelin/contracts/token/ERC20/ERC20.sol\":11801:11838  currentAllowance != type(uint256).max */\n      eq\n        /* \"@openzeppelin/contracts/token/ERC20/ERC20.sol\":11797:12040  if (currentAllowance != type(uint256).max) {... */\n      tag_182\n      jumpi\n        /* \"@openzeppelin/contracts/token/ERC20/ERC20.sol\":11882:11888  amount */\n      dup2\n        /* \"@openzeppelin/contracts/token/ERC20/ERC20.sol\":11862:11878  currentAllowance */\n      dup2\n        /* \"@openzeppelin/contracts/token/ERC20/ERC20.sol\":11862:11888  currentAllowance >= amount */\n      lt\n      iszero\n        /* \"@openzeppelin/contracts/token/ERC20/ERC20.sol\":11854:11922  require(currentAllowance >= amount, \"ERC20: insufficient allowance\") */\n      tag_183\n      jumpi\n      mload(0x40)\n      0x08c379a000000000000000000000000000000000000000000000000000000000\n      dup2\n      mstore\n      0x04\n      add\n      tag_184\n      swap1\n      tag_185\n      jump\t// in\n    tag_184:\n      mload(0x40)\n      dup1\n      swap2\n      sub\n      swap1\n      revert\n    tag_183:\n        /* \"@openzeppelin/contracts/token/ERC20/ERC20.sol\":11964:12015  _approve(owner, spender, currentAllowance - amount) */\n      tag_186\n        /* \"@openzeppelin/contracts/token/ERC20/ERC20.sol\":11973:11978  owner */\n      dup5\n        /* \"@openzeppelin/contracts/token/ERC20/ERC20.sol\":11980:11987  spender */\n      dup5\n        /* \"@openzeppelin/contracts/token/ERC20/ERC20.sol\":12008:12014  amount */\n      dup5\n        /* \"@openzeppelin/contracts/token/ERC20/ERC20.sol\":11989:12005  currentAllowance */\n      dup5\n        /* \"@openzeppelin/contracts/token/ERC20/ERC20.sol\":11989:12014  currentAllowance - amount */\n      sub\n        /* \"@openzeppelin/contracts/token/ERC20/ERC20.sol\":11964:11972  _approve */\n      tag_98\n        /* \"@openzeppelin/contracts/token/ERC20/ERC20.sol\":11964:12015  _approve(owner, spender, currentAllowance - amount) */\n      jump\t// in\n    tag_186:\n        /* \"@openzeppelin/contracts/token/ERC20/ERC20.sol\":11797:12040  if (currentAllowance != type(uint256).max) {... */\n    tag_182:\n        /* \"@openzeppelin/contracts/token/ERC20/ERC20.sol\":11725:12046  {... */\n      pop\n        /* \"@openzeppelin/contracts/token/ERC20/ERC20.sol\":11605:12046  function _spendAllowance(... */\n      pop\n      pop\n      pop\n      jump\t// out\n        /* \"@openzeppelin/contracts/token/ERC20/ERC20.sol\":7923:8741  function _transfer(... */\n    tag_107:\n        /* \"@openzeppelin/contracts/token/ERC20/ERC20.sol\":8065:8066  0 */\n      0x00\n        /* \"@openzeppelin/contracts/token/ERC20/ERC20.sol\":8049:8067  from != address(0) */\n      0xffffffffffffffffffffffffffffffffffffffff\n      and\n        /* \"@openzeppelin/contracts/token/ERC20/ERC20.sol\":8049:8053  from */\n      dup4\n        /* \"@openzeppelin/contracts/token/ERC20/ERC20.sol\":8049:8067  from != address(0) */\n      0xffffffffffffffffffffffffffffffffffffffff\n      and\n      eq\n      iszero\n        /* \"@openzeppelin/contracts/token/ERC20/ERC20.sol\":8041:8109  require(from != address(0), \"ERC20: transfer from the zero address\") */\n      tag_188\n      jumpi\n      mload(0x40)\n      0x08c379a000000000000000000000000000000000000000000000000000000000\n      dup2\n      mstore\n      0x04\n      add\n      tag_189\n      swap1\n      tag_190\n      jump\t// in\n    tag_189:\n      mload(0x40)\n      dup1\n      swap2\n      sub\n      swap1\n      revert\n    tag_188:\n        /* \"@openzeppelin/contracts/token/ERC20/ERC20.sol\":8141:8142  0 */\n      0x00\n        /* \"@openzeppelin/contracts/token/ERC20/ERC20.sol\":8127:8143  to != address(0) */\n      0xffffffffffffffffffffffffffffffffffffffff\n      and\n        /* \"@openzeppelin/contracts/token/ERC20/ERC20.sol\":8127:8129  to */\n      dup3\n        /* \"@openzeppelin/contracts/token/ERC20/ERC20.sol\":8127:8143  to != address(0) */\n      0xffffffffffffffffffffffffffffffffffffffff\n      and\n      eq\n      iszero\n        /* \"@openzeppelin/contracts/token/ERC20/ERC20.sol\":8119:8183  require(to != address(0), \"ERC20: transfer to the zero address\") */\n      tag_191\n      jumpi\n      mload(0x40)\n      0x08c379a000000000000000000000000000000000000000000000000000000000\n      dup2\n      mstore\n      0x04\n      add\n      tag_192\n      swap1\n      tag_193\n      jump\t// in\n    tag_192:\n      mload(0x40)\n      dup1\n      swap2\n      sub\n      swap1\n      revert\n    tag_191:\n        /* \"@openzeppelin/contracts/token/ERC20/ERC20.sol\":8194:8232  _beforeTokenTransfer(from, to, amount) */\n      tag_194\n        /* \"@openzeppelin/contracts/token/ERC20/ERC20.sol\":8215:8219  from */\n      dup4\n        /* \"@openzeppelin/contracts/token/ERC20/ERC20.sol\":8221:8223  to */\n      dup4\n        /* \"@openzeppelin/contracts/token/ERC20/ERC20.sol\":8225:8231  amount */\n      dup4\n        /* \"@openzeppelin/contracts/token/ERC20/ERC20.sol\":8194:8214  _beforeTokenTransfer */\n      tag_195\n        /* \"@openzeppelin/contracts/token/ERC20/ERC20.sol\":8194:8232  _beforeTokenTransfer(from, to, amount) */\n      jump\t// in\n    tag_194:\n        /* \"@openzeppelin/contracts/token/ERC20/ERC20.sol\":8243:8262  uint256 fromBalance */\n      0x00\n        /* \"@openzeppelin/contracts/token/ERC20/ERC20.sol\":8265:8274  _balances */\n      dup1\n        /* \"@openzeppelin/contracts/token/ERC20/ERC20.sol\":8265:8280  _balances[from] */\n      0x00\n        /* \"@openzeppelin/contracts/token/ERC20/ERC20.sol\":8275:8279  from */\n      dup6\n        /* \"@openzeppelin/contracts/token/ERC20/ERC20.sol\":8265:8280  _balances[from] */\n      0xffffffffffffffffffffffffffffffffffffffff\n      and\n      0xffffffffffffffffffffffffffffffffffffffff\n      and\n      dup2\n      mstore\n      0x20\n      add\n      swap1\n      dup2\n      mstore\n      0x20\n      add\n      0x00\n      keccak256\n      sload\n        /* \"@openzeppelin/contracts/token/ERC20/ERC20.sol\":8243:8280  uint256 fromBalance = _balances[from] */\n      swap1\n      pop\n        /* \"@openzeppelin/contracts/token/ERC20/ERC20.sol\":8313:8319  amount */\n      dup2\n        /* \"@openzeppelin/contracts/token/ERC20/ERC20.sol\":8298:8309  fromBalance */\n      dup2\n        /* \"@openzeppelin/contracts/token/ERC20/ERC20.sol\":8298:8319  fromBalance >= amount */\n      lt\n      iszero\n        /* \"@openzeppelin/contracts/token/ERC20/ERC20.sol\":8290:8362  require(fromBalance >= amount, \"ERC20: transfer amount exceeds balance\") */\n      tag_196\n      jumpi\n      mload(0x40)\n      0x08c379a000000000000000000000000000000000000000000000000000000000\n      dup2\n      mstore\n      0x04\n      add\n      tag_197\n      swap1\n      tag_198\n      jump\t// in\n    tag_197:\n      mload(0x40)\n      dup1\n      swap2\n      sub\n      swap1\n      revert\n    tag_196:\n        /* \"@openzeppelin/contracts/token/ERC20/ERC20.sol\":8428:8434  amount */\n      dup2\n        /* \"@openzeppelin/contracts/token/ERC20/ERC20.sol\":8414:8425  fromBalance */\n      dup2\n        /* \"@openzeppelin/contracts/token/ERC20/ERC20.sol\":8414:8434  fromBalance - amount */\n      sub\n        /* \"@openzeppelin/contracts/token/ERC20/ERC20.sol\":8396:8405  _balances */\n      0x00\n        /* \"@openzeppelin/contracts/token/ERC20/ERC20.sol\":8396:8411  _balances[from] */\n      dup1\n        /* \"@openzeppelin/contracts/token/ERC20/ERC20.sol\":8406:8410  from */\n      dup7\n        /* \"@openzeppelin/contracts/token/ERC20/ERC20.sol\":8396:8411  _balances[from] */\n      0xffffffffffffffffffffffffffffffffffffffff\n      and\n      0xffffffffffffffffffffffffffffffffffffffff\n      and\n      dup2\n      mstore\n      0x20\n      add\n      swap1\n      dup2\n      mstore\n      0x20\n      add\n      0x00\n      keccak256\n        /* \"@openzeppelin/contracts/token/ERC20/ERC20.sol\":8396:8434  _balances[from] = fromBalance - amount */\n      dup2\n      swap1\n      sstore\n      pop\n        /* \"@openzeppelin/contracts/token/ERC20/ERC20.sol\":8628:8634  amount */\n      dup2\n        /* \"@openzeppelin/contracts/token/ERC20/ERC20.sol\":8611:8620  _balances */\n      0x00\n        /* \"@openzeppelin/contracts/token/ERC20/ERC20.sol\":8611:8624  _balances[to] */\n      dup1\n        /* \"@openzeppelin/contracts/token/ERC20/ERC20.sol\":8621:8623  to */\n      dup6\n        /* \"@openzeppelin/contracts/token/ERC20/ERC20.sol\":8611:8624  _balances[to] */\n      0xffffffffffffffffffffffffffffffffffffffff\n      and\n      0xffffffffffffffffffffffffffffffffffffffff\n      and\n      dup2\n      mstore\n      0x20\n      add\n      swap1\n      dup2\n      mstore\n      0x20\n      add\n      0x00\n      keccak256\n      0x00\n        /* \"@openzeppelin/contracts/token/ERC20/ERC20.sol\":8611:8634  _balances[to] += amount */\n      dup3\n      dup3\n      sload\n      add\n      swap3\n      pop\n      pop\n      dup2\n      swap1\n      sstore\n      pop\n        /* \"@openzeppelin/contracts/token/ERC20/ERC20.sol\":8675:8677  to */\n      dup3\n        /* \"@openzeppelin/contracts/token/ERC20/ERC20.sol\":8660:8686  Transfer(from, to, amount) */\n      0xffffffffffffffffffffffffffffffffffffffff\n      and\n        /* \"@openzeppelin/contracts/token/ERC20/ERC20.sol\":8669:8673  from */\n      dup5\n        /* \"@openzeppelin/contracts/token/ERC20/ERC20.sol\":8660:8686  Transfer(from, to, amount) */\n      0xffffffffffffffffffffffffffffffffffffffff\n      and\n      0xddf252ad1be2c89b69c2b068fc378daa952ba7f163c4a11628f55a4df523b3ef\n        /* \"@openzeppelin/contracts/token/ERC20/ERC20.sol\":8679:8685  amount */\n      dup5\n        /* \"@openzeppelin/contracts/token/ERC20/ERC20.sol\":8660:8686  Transfer(from, to, amount) */\n      mload(0x40)\n      tag_199\n      swap2\n      swap1\n      tag_35\n      jump\t// in\n    tag_199:\n      mload(0x40)\n      dup1\n      swap2\n      sub\n      swap1\n      log3\n        /* \"@openzeppelin/contracts/token/ERC20/ERC20.sol\":8697:8734  _afterTokenTransfer(from, to, amount) */\n      tag_200\n        /* \"@openzeppelin/contracts/token/ERC20/ERC20.sol\":8717:8721  from */\n      dup5\n        /* \"@openzeppelin/contracts/token/ERC20/ERC20.sol\":8723:8725  to */\n      dup5\n        /* \"@openzeppelin/contracts/token/ERC20/ERC20.sol\":8727:8733  amount */\n      dup5\n        /* \"@openzeppelin/contracts/token/ERC20/ERC20.sol\":8697:8716  _afterTokenTransfer */\n      tag_201\n        /* \"@openzeppelin/contracts/token/ERC20/ERC20.sol\":8697:8734  _afterTokenTransfer(from, to, amount) */\n      jump\t// in\n    tag_200:\n        /* \"@openzeppelin/contracts/token/ERC20/ERC20.sol\":8031:8741  {... */\n      pop\n        /* \"@openzeppelin/contracts/token/ERC20/ERC20.sol\":7923:8741  function _transfer(... */\n      pop\n      pop\n      pop\n      jump\t// out\n        /* \"@openzeppelin/contracts/token/ERC20/ERC20.sol\":9017:9552  function _mint(address account, uint256 amount) internal virtual {... */\n    tag_129:\n        /* \"@openzeppelin/contracts/token/ERC20/ERC20.sol\":9119:9120  0 */\n      0x00\n        /* \"@openzeppelin/contracts/token/ERC20/ERC20.sol\":9100:9121  account != address(0) */\n      0xffffffffffffffffffffffffffffffffffffffff\n      and\n        /* \"@openzeppelin/contracts/token/ERC20/ERC20.sol\":9100:9107  account */\n      dup3\n        /* \"@openzeppelin/contracts/token/ERC20/ERC20.sol\":9100:9121  account != address(0) */\n      0xffffffffffffffffffffffffffffffffffffffff\n      and\n      eq\n      iszero\n        /* \"@openzeppelin/contracts/token/ERC20/ERC20.sol\":9092:9157  require(account != address(0), \"ERC20: mint to the zero address\") */\n      tag_203\n      jumpi\n      mload(0x40)\n      0x08c379a000000000000000000000000000000000000000000000000000000000\n      dup2\n      mstore\n      0x04\n      add\n      tag_204\n      swap1\n      tag_205\n      jump\t// in\n    tag_204:\n      mload(0x40)\n      dup1\n      swap2\n      sub\n      swap1\n      revert\n    tag_203:\n        /* \"@openzeppelin/contracts/token/ERC20/ERC20.sol\":9168:9217  _beforeTokenTransfer(address(0), account, amount) */\n      tag_206\n        /* \"@openzeppelin/contracts/token/ERC20/ERC20.sol\":9197:9198  0 */\n      0x00\n        /* \"@openzeppelin/contracts/token/ERC20/ERC20.sol\":9201:9208  account */\n      dup4\n        /* \"@openzeppelin/contracts/token/ERC20/ERC20.sol\":9210:9216  amount */\n      dup4\n        /* \"@openzeppelin/contracts/token/ERC20/ERC20.sol\":9168:9188  _beforeTokenTransfer */\n      tag_195\n        /* \"@openzeppelin/contracts/token/ERC20/ERC20.sol\":9168:9217  _beforeTokenTransfer(address(0), account, amount) */\n      jump\t// in\n    tag_206:\n        /* \"@openzeppelin/contracts/token/ERC20/ERC20.sol\":9244:9250  amount */\n      dup1\n        /* \"@openzeppelin/contracts/token/ERC20/ERC20.sol\":9228:9240  _totalSupply */\n      0x02\n      0x00\n        /* \"@openzeppelin/contracts/token/ERC20/ERC20.sol\":9228:9250  _totalSupply += amount */\n      dup3\n      dup3\n      sload\n      tag_207\n      swap2\n      swap1\n      tag_119\n      jump\t// in\n    tag_207:\n      swap3\n      pop\n      pop\n      dup2\n      swap1\n      sstore\n      pop\n        /* \"@openzeppelin/contracts/token/ERC20/ERC20.sol\":9418:9424  amount */\n      dup1\n        /* \"@openzeppelin/contracts/token/ERC20/ERC20.sol\":9396:9405  _balances */\n      0x00\n        /* \"@openzeppelin/contracts/token/ERC20/ERC20.sol\":9396:9414  _balances[account] */\n      dup1\n        /* \"@openzeppelin/contracts/token/ERC20/ERC20.sol\":9406:9413  account */\n      dup5\n        /* \"@openzeppelin/contracts/token/ERC20/ERC20.sol\":9396:9414  _balances[account] */\n      0xffffffffffffffffffffffffffffffffffffffff\n      and\n      0xffffffffffffffffffffffffffffffffffffffff\n      and\n      dup2\n      mstore\n      0x20\n      add\n      swap1\n      dup2\n      mstore\n      0x20\n      add\n      0x00\n      keccak256\n      0x00\n        /* \"@openzeppelin/contracts/token/ERC20/ERC20.sol\":9396:9424  _balances[account] += amount */\n      dup3\n      dup3\n      sload\n      add\n      swap3\n      pop\n      pop\n      dup2\n      swap1\n      sstore\n      pop\n        /* \"@openzeppelin/contracts/token/ERC20/ERC20.sol\":9470:9477  account */\n      dup2\n        /* \"@openzeppelin/contracts/token/ERC20/ERC20.sol\":9449:9486  Transfer(address(0), account, amount) */\n      0xffffffffffffffffffffffffffffffffffffffff\n      and\n        /* \"@openzeppelin/contracts/token/ERC20/ERC20.sol\":9466:9467  0 */\n      0x00\n        /* \"@openzeppelin/contracts/token/ERC20/ERC20.sol\":9449:9486  Transfer(address(0), account, amount) */\n      0xffffffffffffffffffffffffffffffffffffffff\n      and\n      0xddf252ad1be2c89b69c2b068fc378daa952ba7f163c4a11628f55a4df523b3ef\n        /* \"@openzeppelin/contracts/token/ERC20/ERC20.sol\":9479:9485  amount */\n      dup4\n        /* \"@openzeppelin/contracts/token/ERC20/ERC20.sol\":9449:9486  Transfer(address(0), account, amount) */\n      mload(0x40)\n      tag_208\n      swap2\n      swap1\n      tag_35\n      jump\t// in\n    tag_208:\n      mload(0x40)\n      dup1\n      swap2\n      sub\n      swap1\n      log3\n        /* \"@openzeppelin/contracts/token/ERC20/ERC20.sol\":9497:9545  _afterTokenTransfer(address(0), account, amount) */\n      tag_209\n        /* \"@openzeppelin/contracts/token/ERC20/ERC20.sol\":9525:9526  0 */\n      0x00\n        /* \"@openzeppelin/contracts/token/ERC20/ERC20.sol\":9529:9536  account */\n      dup4\n        /* \"@openzeppelin/contracts/token/ERC20/ERC20.sol\":9538:9544  amount */\n      dup4\n        /* \"@openzeppelin/contracts/token/ERC20/ERC20.sol\":9497:9516  _afterTokenTransfer */\n      tag_201\n        /* \"@openzeppelin/contracts/token/ERC20/ERC20.sol\":9497:9545  _afterTokenTransfer(address(0), account, amount) */\n      jump\t// in\n    tag_209:\n        /* \"@openzeppelin/contracts/token/ERC20/ERC20.sol\":9017:9552  function _mint(address account, uint256 amount) internal virtual {... */\n      pop\n      pop\n      jump\t// out\n        /* \"@openzeppelin/contracts/token/ERC20/ERC20.sol\":9872:10531  function _burn(address account, uint256 amount) internal virtual {... */\n    tag_133:\n        /* \"@openzeppelin/contracts/token/ERC20/ERC20.sol\":9974:9975  0 */\n      0x00\n        /* \"@openzeppelin/contracts/token/ERC20/ERC20.sol\":9955:9976  account != address(0) */\n      0xffffffffffffffffffffffffffffffffffffffff\n      and\n        /* \"@openzeppelin/contracts/token/ERC20/ERC20.sol\":9955:9962  account */\n      dup3\n        /* \"@openzeppelin/contracts/token/ERC20/ERC20.sol\":9955:9976  account != address(0) */\n      0xffffffffffffffffffffffffffffffffffffffff\n      and\n      eq\n      iszero\n        /* \"@openzeppelin/contracts/token/ERC20/ERC20.sol\":9947:10014  require(account != address(0), \"ERC20: burn from the zero address\") */\n      tag_211\n      jumpi\n      mload(0x40)\n      0x08c379a000000000000000000000000000000000000000000000000000000000\n      dup2\n      mstore\n      0x04\n      add\n      tag_212\n      swap1\n      tag_213\n      jump\t// in\n    tag_212:\n      mload(0x40)\n      dup1\n      swap2\n      sub\n      swap1\n      revert\n    tag_211:\n        /* \"@openzeppelin/contracts/token/ERC20/ERC20.sol\":10025:10074  _beforeTokenTransfer(account, address(0), amount) */\n      tag_214\n        /* \"@openzeppelin/contracts/token/ERC20/ERC20.sol\":10046:10053  account */\n      dup3\n        /* \"@openzeppelin/contracts/token/ERC20/ERC20.sol\":10063:10064  0 */\n      0x00\n        /* \"@openzeppelin/contracts/token/ERC20/ERC20.sol\":10067:10073  amount */\n      dup4\n        /* \"@openzeppelin/contracts/token/ERC20/ERC20.sol\":10025:10045  _beforeTokenTransfer */\n      tag_195\n        /* \"@openzeppelin/contracts/token/ERC20/ERC20.sol\":10025:10074  _beforeTokenTransfer(account, address(0), amount) */\n      jump\t// in\n    tag_214:\n        /* \"@openzeppelin/contracts/token/ERC20/ERC20.sol\":10085:10107  uint256 accountBalance */\n      0x00\n        /* \"@openzeppelin/contracts/token/ERC20/ERC20.sol\":10110:10119  _balances */\n      dup1\n        /* \"@openzeppelin/contracts/token/ERC20/ERC20.sol\":10110:10128  _balances[account] */\n      0x00\n        /* \"@openzeppelin/contracts/token/ERC20/ERC20.sol\":10120:10127  account */\n      dup5\n        /* \"@openzeppelin/contracts/token/ERC20/ERC20.sol\":10110:10128  _balances[account] */\n      0xffffffffffffffffffffffffffffffffffffffff\n      and\n      0xffffffffffffffffffffffffffffffffffffffff\n      and\n      dup2\n      mstore\n      0x20\n      add\n      swap1\n      dup2\n      mstore\n      0x20\n      add\n      0x00\n      keccak256\n      sload\n        /* \"@openzeppelin/contracts/token/ERC20/ERC20.sol\":10085:10128  uint256 accountBalance = _balances[account] */\n      swap1\n      pop\n        /* \"@openzeppelin/contracts/token/ERC20/ERC20.sol\":10164:10170  amount */\n      dup2\n        /* \"@openzeppelin/contracts/token/ERC20/ERC20.sol\":10146:10160  accountBalance */\n      dup2\n        /* \"@openzeppelin/contracts/token/ERC20/ERC20.sol\":10146:10170  accountBalance >= amount */\n      lt\n      iszero\n        /* \"@openzeppelin/contracts/token/ERC20/ERC20.sol\":10138:10209  require(accountBalance >= amount, \"ERC20: burn amount exceeds balance\") */\n      tag_215\n      jumpi\n      mload(0x40)\n      0x08c379a000000000000000000000000000000000000000000000000000000000\n      dup2\n      mstore\n      0x04\n      add\n      tag_216\n      swap1\n      tag_217\n      jump\t// in\n    tag_216:\n      mload(0x40)\n      dup1\n      swap2\n      sub\n      swap1\n      revert\n    tag_215:\n        /* \"@openzeppelin/contracts/token/ERC20/ERC20.sol\":10281:10287  amount */\n      dup2\n        /* \"@openzeppelin/contracts/token/ERC20/ERC20.sol\":10264:10278  accountBalance */\n      dup2\n        /* \"@openzeppelin/contracts/token/ERC20/ERC20.sol\":10264:10287  accountBalance - amount */\n      sub\n        /* \"@openzeppelin/contracts/token/ERC20/ERC20.sol\":10243:10252  _balances */\n      0x00\n        /* \"@openzeppelin/contracts/token/ERC20/ERC20.sol\":10243:10261  _balances[account] */\n      dup1\n        /* \"@openzeppelin/contracts/token/ERC20/ERC20.sol\":10253:10260  account */\n      dup6\n        /* \"@openzeppelin/contracts/token/ERC20/ERC20.sol\":10243:10261  _balances[account] */\n      0xffffffffffffffffffffffffffffffffffffffff\n      and\n      0xffffffffffffffffffffffffffffffffffffffff\n      and\n      dup2\n      mstore\n      0x20\n      add\n      swap1\n      dup2\n      mstore\n      0x20\n      add\n      0x00\n      keccak256\n        /* \"@openzeppelin/contracts/token/ERC20/ERC20.sol\":10243:10287  _balances[account] = accountBalance - amount */\n      dup2\n      swap1\n      sstore\n      pop\n        /* \"@openzeppelin/contracts/token/ERC20/ERC20.sol\":10396:10402  amount */\n      dup2\n        /* \"@openzeppelin/contracts/token/ERC20/ERC20.sol\":10380:10392  _totalSupply */\n      0x02\n      0x00\n        /* \"@openzeppelin/contracts/token/ERC20/ERC20.sol\":10380:10402  _totalSupply -= amount */\n      dup3\n      dup3\n      sload\n      sub\n      swap3\n      pop\n      pop\n      dup2\n      swap1\n      sstore\n      pop\n        /* \"@openzeppelin/contracts/token/ERC20/ERC20.sol\":10454:10455  0 */\n      0x00\n        /* \"@openzeppelin/contracts/token/ERC20/ERC20.sol\":10428:10465  Transfer(account, address(0), amount) */\n      0xffffffffffffffffffffffffffffffffffffffff\n      and\n        /* \"@openzeppelin/contracts/token/ERC20/ERC20.sol\":10437:10444  account */\n      dup4\n        /* \"@openzeppelin/contracts/token/ERC20/ERC20.sol\":10428:10465  Transfer(account, address(0), amount) */\n      0xffffffffffffffffffffffffffffffffffffffff\n      and\n      0xddf252ad1be2c89b69c2b068fc378daa952ba7f163c4a11628f55a4df523b3ef\n        /* \"@openzeppelin/contracts/token/ERC20/ERC20.sol\":10458:10464  amount */\n      dup5\n        /* \"@openzeppelin/contracts/token/ERC20/ERC20.sol\":10428:10465  Transfer(account, address(0), amount) */\n      mload(0x40)\n      tag_218\n      swap2\n      swap1\n      tag_35\n      jump\t// in\n    tag_218:\n      mload(0x40)\n      dup1\n      swap2\n      sub\n      swap1\n      log3\n        /* \"@openzeppelin/contracts/token/ERC20/ERC20.sol\":10476:10524  _afterTokenTransfer(account, address(0), amount) */\n      tag_219\n        /* \"@openzeppelin/contracts/token/ERC20/ERC20.sol\":10496:10503  account */\n      dup4\n        /* \"@openzeppelin/contracts/token/ERC20/ERC20.sol\":10513:10514  0 */\n      0x00\n        /* \"@openzeppelin/contracts/token/ERC20/ERC20.sol\":10517:10523  amount */\n      dup5\n        /* \"@openzeppelin/contracts/token/ERC20/ERC20.sol\":10476:10495  _afterTokenTransfer */\n      tag_201\n        /* \"@openzeppelin/contracts/token/ERC20/ERC20.sol\":10476:10524  _afterTokenTransfer(account, address(0), amount) */\n      jump\t// in\n    tag_219:\n        /* \"@openzeppelin/contracts/token/ERC20/ERC20.sol\":9937:10531  {... */\n      pop\n        /* \"@openzeppelin/contracts/token/ERC20/ERC20.sol\":9872:10531  function _burn(address account, uint256 amount) internal virtual {... */\n      pop\n      pop\n      jump\t// out\n        /* \"@openzeppelin/contracts/token/ERC20/ERC20.sol\":3856:3981  function balanceOf(address account) public view virtual override returns (uint256) {... */\n    tag_136:\n        /* \"@openzeppelin/contracts/token/ERC20/ERC20.sol\":3930:3937  uint256 */\n      0x00\n        /* \"@openzeppelin/contracts/token/ERC20/ERC20.sol\":3956:3965  _balances */\n      dup1\n        /* \"@openzeppelin/contracts/token/ERC20/ERC20.sol\":3956:3974  _balances[account] */\n      0x00\n        /* \"@openzeppelin/contracts/token/ERC20/ERC20.sol\":3966:3973  account */\n      dup4\n        /* \"@openzeppelin/contracts/token/ERC20/ERC20.sol\":3956:3974  _balances[account] */\n      0xffffffffffffffffffffffffffffffffffffffff\n      and\n      0xffffffffffffffffffffffffffffffffffffffff\n      and\n      dup2\n      mstore\n      0x20\n      add\n      swap1\n      dup2\n      mstore\n      0x20\n      add\n      0x00\n      keccak256\n      sload\n        /* \"@openzeppelin/contracts/token/ERC20/ERC20.sol\":3949:3974  return _balances[account] */\n      swap1\n      pop\n        /* \"@openzeppelin/contracts/token/ERC20/ERC20.sol\":3856:3981  function balanceOf(address account) public view virtual override returns (uint256) {... */\n      swap2\n      swap1\n      pop\n      jump\t// out\n        /* \"@openzeppelin/contracts/token/ERC20/ERC20.sol\":2815:2917  function symbol() public view virtual override returns (string memory) {... */\n    tag_139:\n        /* \"@openzeppelin/contracts/token/ERC20/ERC20.sol\":2871:2884  string memory */\n      0x60\n        /* \"@openzeppelin/contracts/token/ERC20/ERC20.sol\":2903:2910  _symbol */\n      0x04\n        /* \"@openzeppelin/contracts/token/ERC20/ERC20.sol\":2896:2910  return _symbol */\n      dup1\n      sload\n      tag_222\n      swap1\n      tag_165\n      jump\t// in\n    tag_222:\n      dup1\n      0x1f\n      add\n      0x20\n      dup1\n      swap2\n      div\n      mul\n      0x20\n      add\n      mload(0x40)\n      swap1\n      dup2\n      add\n      0x40\n      mstore\n      dup1\n      swap3\n      swap2\n      swap1\n      dup2\n      dup2\n      mstore\n      0x20\n      add\n      dup3\n      dup1\n      sload\n      tag_223\n      swap1\n      tag_165\n      jump\t// in\n    tag_223:\n      dup1\n      iszero\n      tag_224\n      jumpi\n      dup1\n      0x1f\n      lt\n      tag_225\n      jumpi\n      0x0100\n      dup1\n      dup4\n      sload\n      div\n      mul\n      dup4\n      mstore\n      swap2\n      0x20\n      add\n      swap2\n      jump(tag_224)\n    tag_225:\n      dup3\n      add\n      swap2\n      swap1\n      0x00\n      mstore\n      keccak256(0x00, 0x20)\n      swap1\n    tag_226:\n      dup2\n      sload\n      dup2\n      mstore\n      swap1\n      0x01\n      add\n      swap1\n      0x20\n      add\n      dup1\n      dup4\n      gt\n      tag_226\n      jumpi\n      dup3\n      swap1\n      sub\n      0x1f\n      and\n      dup3\n      add\n      swap2\n    tag_224:\n      pop\n      pop\n      pop\n      pop\n      pop\n      swap1\n      pop\n        /* \"@openzeppelin/contracts/token/ERC20/ERC20.sol\":2815:2917  function symbol() public view virtual override returns (string memory) {... */\n      swap1\n      jump\t// out\n        /* \"@openzeppelin/contracts/token/ERC20/ERC20.sol\":12630:12751  function _beforeTokenTransfer(... */\n    tag_195:\n      pop\n      pop\n      pop\n      jump\t// out\n        /* \"@openzeppelin/contracts/token/ERC20/ERC20.sol\":13339:13459  function _afterTokenTransfer(... */\n    tag_201:\n      pop\n      pop\n      pop\n      jump\t// out\n    tag_110:\n      dup3\n      dup1\n      sload\n      tag_229\n      swap1\n      tag_165\n      jump\t// in\n    tag_229:\n      swap1\n      0x00\n      mstore\n      keccak256(0x00, 0x20)\n      swap1\n      0x1f\n      add\n      0x20\n      swap1\n      div\n      dup2\n      add\n      swap3\n      dup3\n      tag_231\n      jumpi\n      0x00\n      dup6\n      sstore\n      jump(tag_230)\n    tag_231:\n      dup3\n      0x1f\n      lt\n      tag_232\n      jumpi\n      dup1\n      mload\n      not(0xff)\n      and\n      dup4\n      dup1\n      add\n      or\n      dup6\n      sstore\n      jump(tag_230)\n    tag_232:\n      dup3\n      dup1\n      add\n      0x01\n      add\n      dup6\n      sstore\n      dup3\n      iszero\n      tag_230\n      jumpi\n      swap2\n      dup3\n      add\n    tag_233:\n      dup3\n      dup2\n      gt\n      iszero\n      tag_234\n      jumpi\n      dup3\n      mload\n      dup3\n      sstore\n      swap2\n      0x20\n      add\n      swap2\n      swap1\n      0x01\n      add\n      swap1\n      jump(tag_233)\n    tag_234:\n    tag_230:\n      pop\n      swap1\n      pop\n      tag_235\n      swap2\n      swap1\n      tag_236\n      jump\t// in\n    tag_235:\n      pop\n      swap1\n      jump\t// out\n    tag_236:\n    tag_237:\n      dup1\n      dup3\n      gt\n      iszero\n      tag_238\n      jumpi\n      0x00\n      dup2\n      0x00\n      swap1\n      sstore\n      pop\n      0x01\n      add\n      jump(tag_237)\n    tag_238:\n      pop\n      swap1\n      jump\t// out\n        /* \"#utility.yul\":7:419   */\n    tag_240:\n        /* \"#utility.yul\":85:90   */\n      0x00\n        /* \"#utility.yul\":110:176   */\n      tag_242\n        /* \"#utility.yul\":126:175   */\n      tag_243\n        /* \"#utility.yul\":168:174   */\n      dup5\n        /* \"#utility.yul\":126:175   */\n      tag_244\n      jump\t// in\n    tag_243:\n        /* \"#utility.yul\":110:176   */\n      tag_245\n      jump\t// in\n    tag_242:\n        /* \"#utility.yul\":101:176   */\n      swap1\n      pop\n        /* \"#utility.yul\":199:205   */\n      dup3\n        /* \"#utility.yul\":192:197   */\n      dup2\n        /* \"#utility.yul\":185:206   */\n      mstore\n        /* \"#utility.yul\":237:241   */\n      0x20\n        /* \"#utility.yul\":230:235   */\n      dup2\n        /* \"#utility.yul\":226:242   */\n      add\n        /* \"#utility.yul\":275:278   */\n      dup5\n        /* \"#utility.yul\":266:272   */\n      dup5\n        /* \"#utility.yul\":261:264   */\n      dup5\n        /* \"#utility.yul\":257:273   */\n      add\n        /* \"#utility.yul\":254:279   */\n      gt\n        /* \"#utility.yul\":251:363   */\n      iszero\n      tag_246\n      jumpi\n        /* \"#utility.yul\":282:361   */\n      tag_247\n      tag_248\n      jump\t// in\n    tag_247:\n        /* \"#utility.yul\":251:363   */\n    tag_246:\n        /* \"#utility.yul\":372:413   */\n      tag_249\n        /* \"#utility.yul\":406:412   */\n      dup5\n        /* \"#utility.yul\":401:404   */\n      dup3\n        /* \"#utility.yul\":396:399   */\n      dup6\n        /* \"#utility.yul\":372:413   */\n      tag_250\n      jump\t// in\n    tag_249:\n        /* \"#utility.yul\":91:419   */\n      pop\n        /* \"#utility.yul\":7:419   */\n      swap4\n      swap3\n      pop\n      pop\n      pop\n      jump\t// out\n        /* \"#utility.yul\":425:564   */\n    tag_251:\n        /* \"#utility.yul\":471:476   */\n      0x00\n        /* \"#utility.yul\":509:515   */\n      dup2\n        /* \"#utility.yul\":496:516   */\n      calldataload\n        /* \"#utility.yul\":487:516   */\n      swap1\n      pop\n        /* \"#utility.yul\":525:558   */\n      tag_253\n        /* \"#utility.yul\":552:557   */\n      dup2\n        /* \"#utility.yul\":525:558   */\n      tag_254\n      jump\t// in\n    tag_253:\n        /* \"#utility.yul\":425:564   */\n      swap3\n      swap2\n      pop\n      pop\n      jump\t// out\n        /* \"#utility.yul\":584:924   */\n    tag_255:\n        /* \"#utility.yul\":640:645   */\n      0x00\n        /* \"#utility.yul\":689:692   */\n      dup3\n        /* \"#utility.yul\":682:686   */\n      0x1f\n        /* \"#utility.yul\":674:680   */\n      dup4\n        /* \"#utility.yul\":670:687   */\n      add\n        /* \"#utility.yul\":666:693   */\n      slt\n        /* \"#utility.yul\":656:778   */\n      tag_257\n      jumpi\n        /* \"#utility.yul\":697:776   */\n      tag_258\n      tag_259\n      jump\t// in\n    tag_258:\n        /* \"#utility.yul\":656:778   */\n    tag_257:\n        /* \"#utility.yul\":814:820   */\n      dup2\n        /* \"#utility.yul\":801:821   */\n      calldataload\n        /* \"#utility.yul\":839:918   */\n      tag_260\n        /* \"#utility.yul\":914:917   */\n      dup5\n        /* \"#utility.yul\":906:912   */\n      dup3\n        /* \"#utility.yul\":899:903   */\n      0x20\n        /* \"#utility.yul\":891:897   */\n      dup7\n        /* \"#utility.yul\":887:904   */\n      add\n        /* \"#utility.yul\":839:918   */\n      tag_240\n      jump\t// in\n    tag_260:\n        /* \"#utility.yul\":830:918   */\n      swap2\n      pop\n        /* \"#utility.yul\":646:924   */\n      pop\n        /* \"#utility.yul\":584:924   */\n      swap3\n      swap2\n      pop\n      pop\n      jump\t// out\n        /* \"#utility.yul\":930:1069   */\n    tag_261:\n        /* \"#utility.yul\":976:981   */\n      0x00\n        /* \"#utility.yul\":1014:1020   */\n      dup2\n        /* \"#utility.yul\":1001:1021   */\n      calldataload\n        /* \"#utility.yul\":992:1021   */\n      swap1\n      pop\n        /* \"#utility.yul\":1030:1063   */\n      tag_263\n        /* \"#utility.yul\":1057:1062   */\n      dup2\n        /* \"#utility.yul\":1030:1063   */\n      tag_264\n      jump\t// in\n    tag_263:\n        /* \"#utility.yul\":930:1069   */\n      swap3\n      swap2\n      pop\n      pop\n      jump\t// out\n        /* \"#utility.yul\":1075:1404   */\n    tag_67:\n        /* \"#utility.yul\":1134:1140   */\n      0x00\n        /* \"#utility.yul\":1183:1185   */\n      0x20\n        /* \"#utility.yul\":1171:1180   */\n      dup3\n        /* \"#utility.yul\":1162:1169   */\n      dup5\n        /* \"#utility.yul\":1158:1181   */\n      sub\n        /* \"#utility.yul\":1154:1186   */\n      slt\n        /* \"#utility.yul\":1151:1270   */\n      iszero\n      tag_266\n      jumpi\n        /* \"#utility.yul\":1189:1268   */\n      tag_267\n      tag_268\n      jump\t// in\n    tag_267:\n        /* \"#utility.yul\":1151:1270   */\n    tag_266:\n        /* \"#utility.yul\":1309:1310   */\n      0x00\n        /* \"#utility.yul\":1334:1387   */\n      tag_269\n        /* \"#utility.yul\":1379:1386   */\n      dup5\n        /* \"#utility.yul\":1370:1376   */\n      dup3\n        /* \"#utility.yul\":1359:1368   */\n      dup6\n        /* \"#utility.yul\":1355:1377   */\n      add\n        /* \"#utility.yul\":1334:1387   */\n      tag_251\n      jump\t// in\n    tag_269:\n        /* \"#utility.yul\":1324:1387   */\n      swap2\n      pop\n        /* \"#utility.yul\":1280:1397   */\n      pop\n        /* \"#utility.yul\":1075:1404   */\n      swap3\n      swap2\n      pop\n      pop\n      jump\t// out\n        /* \"#utility.yul\":1410:1884   */\n    tag_88:\n        /* \"#utility.yul\":1478:1484   */\n      0x00\n        /* \"#utility.yul\":1486:1492   */\n      dup1\n        /* \"#utility.yul\":1535:1537   */\n      0x40\n        /* \"#utility.yul\":1523:1532   */\n      dup4\n        /* \"#utility.yul\":1514:1521   */\n      dup6\n        /* \"#utility.yul\":1510:1533   */\n      sub\n        /* \"#utility.yul\":1506:1538   */\n      slt\n        /* \"#utility.yul\":1503:1622   */\n      iszero\n      tag_271\n      jumpi\n        /* \"#utility.yul\":1541:1620   */\n      tag_272\n      tag_268\n      jump\t// in\n    tag_272:\n        /* \"#utility.yul\":1503:1622   */\n    tag_271:\n        /* \"#utility.yul\":1661:1662   */\n      0x00\n        /* \"#utility.yul\":1686:1739   */\n      tag_273\n        /* \"#utility.yul\":1731:1738   */\n      dup6\n        /* \"#utility.yul\":1722:1728   */\n      dup3\n        /* \"#utility.yul\":1711:1720   */\n      dup7\n        /* \"#utility.yul\":1707:1729   */\n      add\n        /* \"#utility.yul\":1686:1739   */\n      tag_251\n      jump\t// in\n    tag_273:\n        /* \"#utility.yul\":1676:1739   */\n      swap3\n      pop\n        /* \"#utility.yul\":1632:1749   */\n      pop\n        /* \"#utility.yul\":1788:1790   */\n      0x20\n        /* \"#utility.yul\":1814:1867   */\n      tag_274\n        /* \"#utility.yul\":1859:1866   */\n      dup6\n        /* \"#utility.yul\":1850:1856   */\n      dup3\n        /* \"#utility.yul\":1839:1848   */\n      dup7\n        /* \"#utility.yul\":1835:1857   */\n      add\n        /* \"#utility.yul\":1814:1867   */\n      tag_251\n      jump\t// in\n    tag_274:\n        /* \"#utility.yul\":1804:1867   */\n      swap2\n      pop\n        /* \"#utility.yul\":1759:1877   */\n      pop\n        /* \"#utility.yul\":1410:1884   */\n      swap3\n      pop\n      swap3\n      swap1\n      pop\n      jump\t// out\n        /* \"#utility.yul\":1890:2509   */\n    tag_38:\n        /* \"#utility.yul\":1967:1973   */\n      0x00\n        /* \"#utility.yul\":1975:1981   */\n      dup1\n        /* \"#utility.yul\":1983:1989   */\n      0x00\n        /* \"#utility.yul\":2032:2034   */\n      0x60\n        /* \"#utility.yul\":2020:2029   */\n      dup5\n        /* \"#utility.yul\":2011:2018   */\n      dup7\n        /* \"#utility.yul\":2007:2030   */\n      sub\n        /* \"#utility.yul\":2003:2035   */\n      slt\n        /* \"#utility.yul\":2000:2119   */\n      iszero\n      tag_276\n      jumpi\n        /* \"#utility.yul\":2038:2117   */\n      tag_277\n      tag_268\n      jump\t// in\n    tag_277:\n        /* \"#utility.yul\":2000:2119   */\n    tag_276:\n        /* \"#utility.yul\":2158:2159   */\n      0x00\n        /* \"#utility.yul\":2183:2236   */\n      tag_278\n        /* \"#utility.yul\":2228:2235   */\n      dup7\n        /* \"#utility.yul\":2219:2225   */\n      dup3\n        /* \"#utility.yul\":2208:2217   */\n      dup8\n        /* \"#utility.yul\":2204:2226   */\n      add\n        /* \"#utility.yul\":2183:2236   */\n      tag_251\n      jump\t// in\n    tag_278:\n        /* \"#utility.yul\":2173:2236   */\n      swap4\n      pop\n        /* \"#utility.yul\":2129:2246   */\n      pop\n        /* \"#utility.yul\":2285:2287   */\n      0x20\n        /* \"#utility.yul\":2311:2364   */\n      tag_279\n        /* \"#utility.yul\":2356:2363   */\n      dup7\n        /* \"#utility.yul\":2347:2353   */\n      dup3\n        /* \"#utility.yul\":2336:2345   */\n      dup8\n        /* \"#utility.yul\":2332:2354   */\n      add\n        /* \"#utility.yul\":2311:2364   */\n      tag_251\n      jump\t// in\n    tag_279:\n        /* \"#utility.yul\":2301:2364   */\n      swap3\n      pop\n        /* \"#utility.yul\":2256:2374   */\n      pop\n        /* \"#utility.yul\":2413:2415   */\n      0x40\n        /* \"#utility.yul\":2439:2492   */\n      tag_280\n        /* \"#utility.yul\":2484:2491   */\n      dup7\n        /* \"#utility.yul\":2475:2481   */\n      dup3\n        /* \"#utility.yul\":2464:2473   */\n      dup8\n        /* \"#utility.yul\":2460:2482   */\n      add\n        /* \"#utility.yul\":2439:2492   */\n      tag_261\n      jump\t// in\n    tag_280:\n        /* \"#utility.yul\":2429:2492   */\n      swap2\n      pop\n        /* \"#utility.yul\":2384:2502   */\n      pop\n        /* \"#utility.yul\":1890:2509   */\n      swap3\n      pop\n      swap3\n      pop\n      swap3\n      jump\t// out\n        /* \"#utility.yul\":2515:2989   */\n    tag_28:\n        /* \"#utility.yul\":2583:2589   */\n      0x00\n        /* \"#utility.yul\":2591:2597   */\n      dup1\n        /* \"#utility.yul\":2640:2642   */\n      0x40\n        /* \"#utility.yul\":2628:2637   */\n      dup4\n        /* \"#utility.yul\":2619:2626   */\n      dup6\n        /* \"#utility.yul\":2615:2638   */\n      sub\n        /* \"#utility.yul\":2611:2643   */\n      slt\n        /* \"#utility.yul\":2608:2727   */\n      iszero\n      tag_282\n      jumpi\n        /* \"#utility.yul\":2646:2725   */\n      tag_283\n      tag_268\n      jump\t// in\n    tag_283:\n        /* \"#utility.yul\":2608:2727   */\n    tag_282:\n        /* \"#utility.yul\":2766:2767   */\n      0x00\n        /* \"#utility.yul\":2791:2844   */\n      tag_284\n        /* \"#utility.yul\":2836:2843   */\n      dup6\n        /* \"#utility.yul\":2827:2833   */\n      dup3\n        /* \"#utility.yul\":2816:2825   */\n      dup7\n        /* \"#utility.yul\":2812:2834   */\n      add\n        /* \"#utility.yul\":2791:2844   */\n      tag_251\n      jump\t// in\n    tag_284:\n        /* \"#utility.yul\":2781:2844   */\n      swap3\n      pop\n        /* \"#utility.yul\":2737:2854   */\n      pop\n        /* \"#utility.yul\":2893:2895   */\n      0x20\n        /* \"#utility.yul\":2919:2972   */\n      tag_285\n        /* \"#utility.yul\":2964:2971   */\n      dup6\n        /* \"#utility.yul\":2955:2961   */\n      dup3\n        /* \"#utility.yul\":2944:2953   */\n      dup7\n        /* \"#utility.yul\":2940:2962   */\n      add\n        /* \"#utility.yul\":2919:2972   */\n      tag_261\n      jump\t// in\n    tag_285:\n        /* \"#utility.yul\":2909:2972   */\n      swap2\n      pop\n        /* \"#utility.yul\":2864:2982   */\n      pop\n        /* \"#utility.yul\":2515:2989   */\n      swap3\n      pop\n      swap3\n      swap1\n      pop\n      jump\t// out\n        /* \"#utility.yul\":2995:3614   */\n    tag_83:\n        /* \"#utility.yul\":3072:3078   */\n      0x00\n        /* \"#utility.yul\":3080:3086   */\n      dup1\n        /* \"#utility.yul\":3088:3094   */\n      0x00\n        /* \"#utility.yul\":3137:3139   */\n      0x60\n        /* \"#utility.yul\":3125:3134   */\n      dup5\n        /* \"#utility.yul\":3116:3123   */\n      dup7\n        /* \"#utility.yul\":3112:3135   */\n      sub\n        /* \"#utility.yul\":3108:3140   */\n      slt\n        /* \"#utility.yul\":3105:3224   */\n      iszero\n      tag_287\n      jumpi\n        /* \"#utility.yul\":3143:3222   */\n      tag_288\n      tag_268\n      jump\t// in\n    tag_288:\n        /* \"#utility.yul\":3105:3224   */\n    tag_287:\n        /* \"#utility.yul\":3263:3264   */\n      0x00\n        /* \"#utility.yul\":3288:3341   */\n      tag_289\n        /* \"#utility.yul\":3333:3340   */\n      dup7\n        /* \"#utility.yul\":3324:3330   */\n      dup3\n        /* \"#utility.yul\":3313:3322   */\n      dup8\n        /* \"#utility.yul\":3309:3331   */\n      add\n        /* \"#utility.yul\":3288:3341   */\n      tag_251\n      jump\t// in\n    tag_289:\n        /* \"#utility.yul\":3278:3341   */\n      swap4\n      pop\n        /* \"#utility.yul\":3234:3351   */\n      pop\n        /* \"#utility.yul\":3390:3392   */\n      0x20\n        /* \"#utility.yul\":3416:3469   */\n      tag_290\n        /* \"#utility.yul\":3461:3468   */\n      dup7\n        /* \"#utility.yul\":3452:3458   */\n      dup3\n        /* \"#utility.yul\":3441:3450   */\n      dup8\n        /* \"#utility.yul\":3437:3459   */\n      add\n        /* \"#utility.yul\":3416:3469   */\n      tag_261\n      jump\t// in\n    tag_290:\n        /* \"#utility.yul\":3406:3469   */\n      swap3\n      pop\n        /* \"#utility.yul\":3361:3479   */\n      pop\n        /* \"#utility.yul\":3518:3520   */\n      0x40\n        /* \"#utility.yul\":3544:3597   */\n      tag_291\n        /* \"#utility.yul\":3589:3596   */\n      dup7\n        /* \"#utility.yul\":3580:3586   */\n      dup3\n        /* \"#utility.yul\":3569:3578   */\n      dup8\n        /* \"#utility.yul\":3565:3587   */\n      add\n        /* \"#utility.yul\":3544:3597   */\n      tag_261\n      jump\t// in\n    tag_291:\n        /* \"#utility.yul\":3534:3597   */\n      swap2\n      pop\n        /* \"#utility.yul\":3489:3607   */\n      pop\n        /* \"#utility.yul\":2995:3614   */\n      swap3\n      pop\n      swap3\n      pop\n      swap3\n      jump\t// out\n        /* \"#utility.yul\":3620:4385   */\n    tag_55:\n        /* \"#utility.yul\":3706:3712   */\n      0x00\n        /* \"#utility.yul\":3714:3720   */\n      dup1\n        /* \"#utility.yul\":3722:3728   */\n      0x00\n        /* \"#utility.yul\":3730:3736   */\n      dup1\n        /* \"#utility.yul\":3779:3782   */\n      0x80\n        /* \"#utility.yul\":3767:3776   */\n      dup6\n        /* \"#utility.yul\":3758:3765   */\n      dup8\n        /* \"#utility.yul\":3754:3777   */\n      sub\n        /* \"#utility.yul\":3750:3783   */\n      slt\n        /* \"#utility.yul\":3747:3867   */\n      iszero\n      tag_293\n      jumpi\n        /* \"#utility.yul\":3786:3865   */\n      tag_294\n      tag_268\n      jump\t// in\n    tag_294:\n        /* \"#utility.yul\":3747:3867   */\n    tag_293:\n        /* \"#utility.yul\":3906:3907   */\n      0x00\n        /* \"#utility.yul\":3931:3984   */\n      tag_295\n        /* \"#utility.yul\":3976:3983   */\n      dup8\n        /* \"#utility.yul\":3967:3973   */\n      dup3\n        /* \"#utility.yul\":3956:3965   */\n      dup9\n        /* \"#utility.yul\":3952:3974   */\n      add\n        /* \"#utility.yul\":3931:3984   */\n      tag_251\n      jump\t// in\n    tag_295:\n        /* \"#utility.yul\":3921:3984   */\n      swap5\n      pop\n        /* \"#utility.yul\":3877:3994   */\n      pop\n        /* \"#utility.yul\":4033:4035   */\n      0x20\n        /* \"#utility.yul\":4059:4112   */\n      tag_296\n        /* \"#utility.yul\":4104:4111   */\n      dup8\n        /* \"#utility.yul\":4095:4101   */\n      dup3\n        /* \"#utility.yul\":4084:4093   */\n      dup9\n        /* \"#utility.yul\":4080:4102   */\n      add\n        /* \"#utility.yul\":4059:4112   */\n      tag_261\n      jump\t// in\n    tag_296:\n        /* \"#utility.yul\":4049:4112   */\n      swap4\n      pop\n        /* \"#utility.yul\":4004:4122   */\n      pop\n        /* \"#utility.yul\":4161:4163   */\n      0x40\n        /* \"#utility.yul\":4187:4240   */\n      tag_297\n        /* \"#utility.yul\":4232:4239   */\n      dup8\n        /* \"#utility.yul\":4223:4229   */\n      dup3\n        /* \"#utility.yul\":4212:4221   */\n      dup9\n        /* \"#utility.yul\":4208:4230   */\n      add\n        /* \"#utility.yul\":4187:4240   */\n      tag_261\n      jump\t// in\n    tag_297:\n        /* \"#utility.yul\":4177:4240   */\n      swap3\n      pop\n        /* \"#utility.yul\":4132:4250   */\n      pop\n        /* \"#utility.yul\":4289:4291   */\n      0x60\n        /* \"#utility.yul\":4315:4368   */\n      tag_298\n        /* \"#utility.yul\":4360:4367   */\n      dup8\n        /* \"#utility.yul\":4351:4357   */\n      dup3\n        /* \"#utility.yul\":4340:4349   */\n      dup9\n        /* \"#utility.yul\":4336:4358   */\n      add\n        /* \"#utility.yul\":4315:4368   */\n      tag_251\n      jump\t// in\n    tag_298:\n        /* \"#utility.yul\":4305:4368   */\n      swap2\n      pop\n        /* \"#utility.yul\":4260:4378   */\n      pop\n        /* \"#utility.yul\":3620:4385   */\n      swap3\n      swap6\n      swap2\n      swap5\n      pop\n      swap3\n      pop\n      jump\t// out\n        /* \"#utility.yul\":4391:5370   */\n    tag_43:\n        /* \"#utility.yul\":4488:4494   */\n      0x00\n        /* \"#utility.yul\":4496:4502   */\n      dup1\n        /* \"#utility.yul\":4504:4510   */\n      0x00\n        /* \"#utility.yul\":4553:4555   */\n      0x60\n        /* \"#utility.yul\":4541:4550   */\n      dup5\n        /* \"#utility.yul\":4532:4539   */\n      dup7\n        /* \"#utility.yul\":4528:4551   */\n      sub\n        /* \"#utility.yul\":4524:4556   */\n      slt\n        /* \"#utility.yul\":4521:4640   */\n      iszero\n      tag_300\n      jumpi\n        /* \"#utility.yul\":4559:4638   */\n      tag_301\n      tag_268\n      jump\t// in\n    tag_301:\n        /* \"#utility.yul\":4521:4640   */\n    tag_300:\n        /* \"#utility.yul\":4707:4708   */\n      0x00\n        /* \"#utility.yul\":4696:4705   */\n      dup5\n        /* \"#utility.yul\":4692:4709   */\n      add\n        /* \"#utility.yul\":4679:4710   */\n      calldataload\n        /* \"#utility.yul\":4737:4755   */\n      0xffffffffffffffff\n        /* \"#utility.yul\":4729:4735   */\n      dup2\n        /* \"#utility.yul\":4726:4756   */\n      gt\n        /* \"#utility.yul\":4723:4840   */\n      iszero\n      tag_302\n      jumpi\n        /* \"#utility.yul\":4759:4838   */\n      tag_303\n      tag_304\n      jump\t// in\n    tag_303:\n        /* \"#utility.yul\":4723:4840   */\n    tag_302:\n        /* \"#utility.yul\":4864:4927   */\n      tag_305\n        /* \"#utility.yul\":4919:4926   */\n      dup7\n        /* \"#utility.yul\":4910:4916   */\n      dup3\n        /* \"#utility.yul\":4899:4908   */\n      dup8\n        /* \"#utility.yul\":4895:4917   */\n      add\n        /* \"#utility.yul\":4864:4927   */\n      tag_255\n      jump\t// in\n    tag_305:\n        /* \"#utility.yul\":4854:4927   */\n      swap4\n      pop\n        /* \"#utility.yul\":4650:4937   */\n      pop\n        /* \"#utility.yul\":5004:5006   */\n      0x20\n        /* \"#utility.yul\":4993:5002   */\n      dup5\n        /* \"#utility.yul\":4989:5007   */\n      add\n        /* \"#utility.yul\":4976:5008   */\n      calldataload\n        /* \"#utility.yul\":5035:5053   */\n      0xffffffffffffffff\n        /* \"#utility.yul\":5027:5033   */\n      dup2\n        /* \"#utility.yul\":5024:5054   */\n      gt\n        /* \"#utility.yul\":5021:5138   */\n      iszero\n      tag_306\n      jumpi\n        /* \"#utility.yul\":5057:5136   */\n      tag_307\n      tag_304\n      jump\t// in\n    tag_307:\n        /* \"#utility.yul\":5021:5138   */\n    tag_306:\n        /* \"#utility.yul\":5162:5225   */\n      tag_308\n        /* \"#utility.yul\":5217:5224   */\n      dup7\n        /* \"#utility.yul\":5208:5214   */\n      dup3\n        /* \"#utility.yul\":5197:5206   */\n      dup8\n        /* \"#utility.yul\":5193:5215   */\n      add\n        /* \"#utility.yul\":5162:5225   */\n      tag_255\n      jump\t// in\n    tag_308:\n        /* \"#utility.yul\":5152:5225   */\n      swap3\n      pop\n        /* \"#utility.yul\":4947:5235   */\n      pop\n        /* \"#utility.yul\":5274:5276   */\n      0x40\n        /* \"#utility.yul\":5300:5353   */\n      tag_309\n        /* \"#utility.yul\":5345:5352   */\n      dup7\n        /* \"#utility.yul\":5336:5342   */\n      dup3\n        /* \"#utility.yul\":5325:5334   */\n      dup8\n        /* \"#utility.yul\":5321:5343   */\n      add\n        /* \"#utility.yul\":5300:5353   */\n      tag_261\n      jump\t// in\n    tag_309:\n        /* \"#utility.yul\":5290:5353   */\n      swap2\n      pop\n        /* \"#utility.yul\":5245:5363   */\n      pop\n        /* \"#utility.yul\":4391:5370   */\n      swap3\n      pop\n      swap3\n      pop\n      swap3\n      jump\t// out\n        /* \"#utility.yul\":5376:5705   */\n    tag_63:\n        /* \"#utility.yul\":5435:5441   */\n      0x00\n        /* \"#utility.yul\":5484:5486   */\n      0x20\n        /* \"#utility.yul\":5472:5481   */\n      dup3\n        /* \"#utility.yul\":5463:5470   */\n      dup5\n        /* \"#utility.yul\":5459:5482   */\n      sub\n        /* \"#utility.yul\":5455:5487   */\n      slt\n        /* \"#utility.yul\":5452:5571   */\n      iszero\n      tag_311\n      jumpi\n        /* \"#utility.yul\":5490:5569   */\n      tag_312\n      tag_268\n      jump\t// in\n    tag_312:\n        /* \"#utility.yul\":5452:5571   */\n    tag_311:\n        /* \"#utility.yul\":5610:5611   */\n      0x00\n        /* \"#utility.yul\":5635:5688   */\n      tag_313\n        /* \"#utility.yul\":5680:5687   */\n      dup5\n        /* \"#utility.yul\":5671:5677   */\n      dup3\n        /* \"#utility.yul\":5660:5669   */\n      dup6\n        /* \"#utility.yul\":5656:5678   */\n      add\n        /* \"#utility.yul\":5635:5688   */\n      tag_261\n      jump\t// in\n    tag_313:\n        /* \"#utility.yul\":5625:5688   */\n      swap2\n      pop\n        /* \"#utility.yul\":5581:5698   */\n      pop\n        /* \"#utility.yul\":5376:5705   */\n      swap3\n      swap2\n      pop\n      pop\n      jump\t// out\n        /* \"#utility.yul\":5711:5820   */\n    tag_314:\n        /* \"#utility.yul\":5792:5813   */\n      tag_316\n        /* \"#utility.yul\":5807:5812   */\n      dup2\n        /* \"#utility.yul\":5792:5813   */\n      tag_317\n      jump\t// in\n    tag_316:\n        /* \"#utility.yul\":5787:5790   */\n      dup3\n        /* \"#utility.yul\":5780:5814   */\n      mstore\n        /* \"#utility.yul\":5711:5820   */\n      pop\n      pop\n      jump\t// out\n        /* \"#utility.yul\":5826:6190   */\n    tag_318:\n        /* \"#utility.yul\":5914:5917   */\n      0x00\n        /* \"#utility.yul\":5942:5981   */\n      tag_320\n        /* \"#utility.yul\":5975:5980   */\n      dup3\n        /* \"#utility.yul\":5942:5981   */\n      tag_321\n      jump\t// in\n    tag_320:\n        /* \"#utility.yul\":5997:6068   */\n      tag_322\n        /* \"#utility.yul\":6061:6067   */\n      dup2\n        /* \"#utility.yul\":6056:6059   */\n      dup6\n        /* \"#utility.yul\":5997:6068   */\n      tag_323\n      jump\t// in\n    tag_322:\n        /* \"#utility.yul\":5990:6068   */\n      swap4\n      pop\n        /* \"#utility.yul\":6077:6129   */\n      tag_324\n        /* \"#utility.yul\":6122:6128   */\n      dup2\n        /* \"#utility.yul\":6117:6120   */\n      dup6\n        /* \"#utility.yul\":6110:6114   */\n      0x20\n        /* \"#utility.yul\":6103:6108   */\n      dup7\n        /* \"#utility.yul\":6099:6115   */\n      add\n        /* \"#utility.yul\":6077:6129   */\n      tag_325\n      jump\t// in\n    tag_324:\n        /* \"#utility.yul\":6154:6183   */\n      tag_326\n        /* \"#utility.yul\":6176:6182   */\n      dup2\n        /* \"#utility.yul\":6154:6183   */\n      tag_327\n      jump\t// in\n    tag_326:\n        /* \"#utility.yul\":6149:6152   */\n      dup5\n        /* \"#utility.yul\":6145:6184   */\n      add\n        /* \"#utility.yul\":6138:6184   */\n      swap2\n      pop\n        /* \"#utility.yul\":5918:6190   */\n      pop\n        /* \"#utility.yul\":5826:6190   */\n      swap3\n      swap2\n      pop\n      pop\n      jump\t// out\n        /* \"#utility.yul\":6196:6562   */\n    tag_328:\n        /* \"#utility.yul\":6338:6341   */\n      0x00\n        /* \"#utility.yul\":6359:6426   */\n      tag_330\n        /* \"#utility.yul\":6423:6425   */\n      0x23\n        /* \"#utility.yul\":6418:6421   */\n      dup4\n        /* \"#utility.yul\":6359:6426   */\n      tag_323\n      jump\t// in\n    tag_330:\n        /* \"#utility.yul\":6352:6426   */\n      swap2\n      pop\n        /* \"#utility.yul\":6435:6528   */\n      tag_331\n        /* \"#utility.yul\":6524:6527   */\n      dup3\n        /* \"#utility.yul\":6435:6528   */\n      tag_332\n      jump\t// in\n    tag_331:\n        /* \"#utility.yul\":6553:6555   */\n      0x40\n        /* \"#utility.yul\":6548:6551   */\n      dup3\n        /* \"#utility.yul\":6544:6556   */\n      add\n        /* \"#utility.yul\":6537:6556   */\n      swap1\n      pop\n        /* \"#utility.yul\":6196:6562   */\n      swap2\n      swap1\n      pop\n      jump\t// out\n        /* \"#utility.yul\":6568:6934   */\n    tag_333:\n        /* \"#utility.yul\":6710:6713   */\n      0x00\n        /* \"#utility.yul\":6731:6798   */\n      tag_335\n        /* \"#utility.yul\":6795:6797   */\n      0x3d\n        /* \"#utility.yul\":6790:6793   */\n      dup4\n        /* \"#utility.yul\":6731:6798   */\n      tag_323\n      jump\t// in\n    tag_335:\n        /* \"#utility.yul\":6724:6798   */\n      swap2\n      pop\n        /* \"#utility.yul\":6807:6900   */\n      tag_336\n        /* \"#utility.yul\":6896:6899   */\n      dup3\n        /* \"#utility.yul\":6807:6900   */\n      tag_337\n      jump\t// in\n    tag_336:\n        /* \"#utility.yul\":6925:6927   */\n      0x40\n        /* \"#utility.yul\":6920:6923   */\n      dup3\n        /* \"#utility.yul\":6916:6928   */\n      add\n        /* \"#utility.yul\":6909:6928   */\n      swap1\n      pop\n        /* \"#utility.yul\":6568:6934   */\n      swap2\n      swap1\n      pop\n      jump\t// out\n        /* \"#utility.yul\":6940:7306   */\n    tag_338:\n        /* \"#utility.yul\":7082:7085   */\n      0x00\n        /* \"#utility.yul\":7103:7170   */\n      tag_340\n        /* \"#utility.yul\":7167:7169   */\n      0x22\n        /* \"#utility.yul\":7162:7165   */\n      dup4\n        /* \"#utility.yul\":7103:7170   */\n      tag_323\n      jump\t// in\n    tag_340:\n        /* \"#utility.yul\":7096:7170   */\n      swap2\n      pop\n        /* \"#utility.yul\":7179:7272   */\n      tag_341\n        /* \"#utility.yul\":7268:7271   */\n      dup3\n        /* \"#utility.yul\":7179:7272   */\n      tag_342\n      jump\t// in\n    tag_341:\n        /* \"#utility.yul\":7297:7299   */\n      0x40\n        /* \"#utility.yul\":7292:7295   */\n      dup3\n        /* \"#utility.yul\":7288:7300   */\n      add\n        /* \"#utility.yul\":7281:7300   */\n      swap1\n      pop\n        /* \"#utility.yul\":6940:7306   */\n      swap2\n      swap1\n      pop\n      jump\t// out\n        /* \"#utility.yul\":7312:7678   */\n    tag_343:\n        /* \"#utility.yul\":7454:7457   */\n      0x00\n        /* \"#utility.yul\":7475:7542   */\n      tag_345\n        /* \"#utility.yul\":7539:7541   */\n      0x22\n        /* \"#utility.yul\":7534:7537   */\n      dup4\n        /* \"#utility.yul\":7475:7542   */\n      tag_323\n      jump\t// in\n    tag_345:\n        /* \"#utility.yul\":7468:7542   */\n      swap2\n      pop\n        /* \"#utility.yul\":7551:7644   */\n      tag_346\n        /* \"#utility.yul\":7640:7643   */\n      dup3\n        /* \"#utility.yul\":7551:7644   */\n      tag_347\n      jump\t// in\n    tag_346:\n        /* \"#utility.yul\":7669:7671   */\n      0x40\n        /* \"#utility.yul\":7664:7667   */\n      dup3\n        /* \"#utility.yul\":7660:7672   */\n      add\n        /* \"#utility.yul\":7653:7672   */\n      swap1\n      pop\n        /* \"#utility.yul\":7312:7678   */\n      swap2\n      swap1\n      pop\n      jump\t// out\n        /* \"#utility.yul\":7684:8050   */\n    tag_348:\n        /* \"#utility.yul\":7826:7829   */\n      0x00\n        /* \"#utility.yul\":7847:7914   */\n      tag_350\n        /* \"#utility.yul\":7911:7913   */\n      0x25\n        /* \"#utility.yul\":7906:7909   */\n      dup4\n        /* \"#utility.yul\":7847:7914   */\n      tag_323\n      jump\t// in\n    tag_350:\n        /* \"#utility.yul\":7840:7914   */\n      swap2\n      pop\n        /* \"#utility.yul\":7923:8016   */\n      tag_351\n        /* \"#utility.yul\":8012:8015   */\n      dup3\n        /* \"#utility.yul\":7923:8016   */\n      tag_352\n      jump\t// in\n    tag_351:\n        /* \"#utility.yul\":8041:8043   */\n      0x40\n        /* \"#utility.yul\":8036:8039   */\n      dup3\n        /* \"#utility.yul\":8032:8044   */\n      add\n        /* \"#utility.yul\":8025:8044   */\n      swap1\n      pop\n        /* \"#utility.yul\":7684:8050   */\n      swap2\n      swap1\n      pop\n      jump\t// out\n        /* \"#utility.yul\":8056:8422   */\n    tag_353:\n        /* \"#utility.yul\":8198:8201   */\n      0x00\n        /* \"#utility.yul\":8219:8286   */\n      tag_355\n        /* \"#utility.yul\":8283:8285   */\n      0x1d\n        /* \"#utility.yul\":8278:8281   */\n      dup4\n        /* \"#utility.yul\":8219:8286   */\n      tag_323\n      jump\t// in\n    tag_355:\n        /* \"#utility.yul\":8212:8286   */\n      swap2\n      pop\n        /* \"#utility.yul\":8295:8388   */\n      tag_356\n        /* \"#utility.yul\":8384:8387   */\n      dup3\n        /* \"#utility.yul\":8295:8388   */\n      tag_357\n      jump\t// in\n    tag_356:\n        /* \"#utility.yul\":8413:8415   */\n      0x20\n        /* \"#utility.yul\":8408:8411   */\n      dup3\n        /* \"#utility.yul\":8404:8416   */\n      add\n        /* \"#utility.yul\":8397:8416   */\n      swap1\n      pop\n        /* \"#utility.yul\":8056:8422   */\n      swap2\n      swap1\n      pop\n      jump\t// out\n        /* \"#utility.yul\":8428:8794   */\n    tag_358:\n        /* \"#utility.yul\":8570:8573   */\n      0x00\n        /* \"#utility.yul\":8591:8658   */\n      tag_360\n        /* \"#utility.yul\":8655:8657   */\n      0x26\n        /* \"#utility.yul\":8650:8653   */\n      dup4\n        /* \"#utility.yul\":8591:8658   */\n      tag_323\n      jump\t// in\n    tag_360:\n        /* \"#utility.yul\":8584:8658   */\n      swap2\n      pop\n        /* \"#utility.yul\":8667:8760   */\n      tag_361\n        /* \"#utility.yul\":8756:8759   */\n      dup3\n        /* \"#utility.yul\":8667:8760   */\n      tag_362\n      jump\t// in\n    tag_361:\n        /* \"#utility.yul\":8785:8787   */\n      0x40\n        /* \"#utility.yul\":8780:8783   */\n      dup3\n        /* \"#utility.yul\":8776:8788   */\n      add\n        /* \"#utility.yul\":8769:8788   */\n      swap1\n      pop\n        /* \"#utility.yul\":8428:8794   */\n      swap2\n      swap1\n      pop\n      jump\t// out\n        /* \"#utility.yul\":8800:9166   */\n    tag_363:\n        /* \"#utility.yul\":8942:8945   */\n      0x00\n        /* \"#utility.yul\":8963:9030   */\n      tag_365\n        /* \"#utility.yul\":9027:9029   */\n      0x24\n        /* \"#utility.yul\":9022:9025   */\n      dup4\n        /* \"#utility.yul\":8963:9030   */\n      tag_323\n      jump\t// in\n    tag_365:\n        /* \"#utility.yul\":8956:9030   */\n      swap2\n      pop\n        /* \"#utility.yul\":9039:9132   */\n      tag_366\n        /* \"#utility.yul\":9128:9131   */\n      dup3\n        /* \"#utility.yul\":9039:9132   */\n      tag_367\n      jump\t// in\n    tag_366:\n        /* \"#utility.yul\":9157:9159   */\n      0x40\n        /* \"#utility.yul\":9152:9155   */\n      dup3\n        /* \"#utility.yul\":9148:9160   */\n      add\n        /* \"#utility.yul\":9141:9160   */\n      swap1\n      pop\n        /* \"#utility.yul\":8800:9166   */\n      swap2\n      swap1\n      pop\n      jump\t// out\n        /* \"#utility.yul\":9172:9538   */\n    tag_368:\n        /* \"#utility.yul\":9314:9317   */\n      0x00\n        /* \"#utility.yul\":9335:9402   */\n      tag_370\n        /* \"#utility.yul\":9399:9401   */\n      0x21\n        /* \"#utility.yul\":9394:9397   */\n      dup4\n        /* \"#utility.yul\":9335:9402   */\n      tag_323\n      jump\t// in\n    tag_370:\n        /* \"#utility.yul\":9328:9402   */\n      swap2\n      pop\n        /* \"#utility.yul\":9411:9504   */\n      tag_371\n        /* \"#utility.yul\":9500:9503   */\n      dup3\n        /* \"#utility.yul\":9411:9504   */\n      tag_372\n      jump\t// in\n    tag_371:\n        /* \"#utility.yul\":9529:9531   */\n      0x40\n        /* \"#utility.yul\":9524:9527   */\n      dup3\n        /* \"#utility.yul\":9520:9532   */\n      add\n        /* \"#utility.yul\":9513:9532   */\n      swap1\n      pop\n        /* \"#utility.yul\":9172:9538   */\n      swap2\n      swap1\n      pop\n      jump\t// out\n        /* \"#utility.yul\":9544:9910   */\n    tag_373:\n        /* \"#utility.yul\":9686:9689   */\n      0x00\n        /* \"#utility.yul\":9707:9774   */\n      tag_375\n        /* \"#utility.yul\":9771:9773   */\n      0x25\n        /* \"#utility.yul\":9766:9769   */\n      dup4\n        /* \"#utility.yul\":9707:9774   */\n      tag_323\n      jump\t// in\n    tag_375:\n        /* \"#utility.yul\":9700:9774   */\n      swap2\n      pop\n        /* \"#utility.yul\":9783:9876   */\n      tag_376\n        /* \"#utility.yul\":9872:9875   */\n      dup3\n        /* \"#utility.yul\":9783:9876   */\n      tag_377\n      jump\t// in\n    tag_376:\n        /* \"#utility.yul\":9901:9903   */\n      0x40\n        /* \"#utility.yul\":9896:9899   */\n      dup3\n        /* \"#utility.yul\":9892:9904   */\n      add\n        /* \"#utility.yul\":9885:9904   */\n      swap1\n      pop\n        /* \"#utility.yul\":9544:9910   */\n      swap2\n      swap1\n      pop\n      jump\t// out\n        /* \"#utility.yul\":9916:10282   */\n    tag_378:\n        /* \"#utility.yul\":10058:10061   */\n      0x00\n        /* \"#utility.yul\":10079:10146   */\n      tag_380\n        /* \"#utility.yul\":10143:10145   */\n      0x24\n        /* \"#utility.yul\":10138:10141   */\n      dup4\n        /* \"#utility.yul\":10079:10146   */\n      tag_323\n      jump\t// in\n    tag_380:\n        /* \"#utility.yul\":10072:10146   */\n      swap2\n      pop\n        /* \"#utility.yul\":10155:10248   */\n      tag_381\n        /* \"#utility.yul\":10244:10247   */\n      dup3\n        /* \"#utility.yul\":10155:10248   */\n      tag_382\n      jump\t// in\n    tag_381:\n        /* \"#utility.yul\":10273:10275   */\n      0x40\n        /* \"#utility.yul\":10268:10271   */\n      dup3\n        /* \"#utility.yul\":10264:10276   */\n      add\n        /* \"#utility.yul\":10257:10276   */\n      swap1\n      pop\n        /* \"#utility.yul\":9916:10282   */\n      swap2\n      swap1\n      pop\n      jump\t// out\n        /* \"#utility.yul\":10288:10654   */\n    tag_383:\n        /* \"#utility.yul\":10430:10433   */\n      0x00\n        /* \"#utility.yul\":10451:10518   */\n      tag_385\n        /* \"#utility.yul\":10515:10517   */\n      0x25\n        /* \"#utility.yul\":10510:10513   */\n      dup4\n        /* \"#utility.yul\":10451:10518   */\n      tag_323\n      jump\t// in\n    tag_385:\n        /* \"#utility.yul\":10444:10518   */\n      swap2\n      pop\n        /* \"#utility.yul\":10527:10620   */\n      tag_386\n        /* \"#utility.yul\":10616:10619   */\n      dup3\n        /* \"#utility.yul\":10527:10620   */\n      tag_387\n      jump\t// in\n    tag_386:\n        /* \"#utility.yul\":10645:10647   */\n      0x40\n        /* \"#utility.yul\":10640:10643   */\n      dup3\n        /* \"#utility.yul\":10636:10648   */\n      add\n        /* \"#utility.yul\":10629:10648   */\n      swap1\n      pop\n        /* \"#utility.yul\":10288:10654   */\n      swap2\n      swap1\n      pop\n      jump\t// out\n        /* \"#utility.yul\":10660:11026   */\n    tag_388:\n        /* \"#utility.yul\":10802:10805   */\n      0x00\n        /* \"#utility.yul\":10823:10890   */\n      tag_390\n        /* \"#utility.yul\":10887:10889   */\n      0x1f\n        /* \"#utility.yul\":10882:10885   */\n      dup4\n        /* \"#utility.yul\":10823:10890   */\n      tag_323\n      jump\t// in\n    tag_390:\n        /* \"#utility.yul\":10816:10890   */\n      swap2\n      pop\n        /* \"#utility.yul\":10899:10992   */\n      tag_391\n        /* \"#utility.yul\":10988:10991   */\n      dup3\n        /* \"#utility.yul\":10899:10992   */\n      tag_392\n      jump\t// in\n    tag_391:\n        /* \"#utility.yul\":11017:11019   */\n      0x20\n        /* \"#utility.yul\":11012:11015   */\n      dup3\n        /* \"#utility.yul\":11008:11020   */\n      add\n        /* \"#utility.yul\":11001:11020   */\n      swap1\n      pop\n        /* \"#utility.yul\":10660:11026   */\n      swap2\n      swap1\n      pop\n      jump\t// out\n        /* \"#utility.yul\":11032:11150   */\n    tag_393:\n        /* \"#utility.yul\":11119:11143   */\n      tag_395\n        /* \"#utility.yul\":11137:11142   */\n      dup2\n        /* \"#utility.yul\":11119:11143   */\n      tag_396\n      jump\t// in\n    tag_395:\n        /* \"#utility.yul\":11114:11117   */\n      dup3\n        /* \"#utility.yul\":11107:11144   */\n      mstore\n        /* \"#utility.yul\":11032:11150   */\n      pop\n      pop\n      jump\t// out\n        /* \"#utility.yul\":11156:11268   */\n    tag_397:\n        /* \"#utility.yul\":11239:11261   */\n      tag_399\n        /* \"#utility.yul\":11255:11260   */\n      dup2\n        /* \"#utility.yul\":11239:11261   */\n      tag_400\n      jump\t// in\n    tag_399:\n        /* \"#utility.yul\":11234:11237   */\n      dup3\n        /* \"#utility.yul\":11227:11262   */\n      mstore\n        /* \"#utility.yul\":11156:11268   */\n      pop\n      pop\n      jump\t// out\n        /* \"#utility.yul\":11274:11484   */\n    tag_31:\n        /* \"#utility.yul\":11361:11365   */\n      0x00\n        /* \"#utility.yul\":11399:11401   */\n      0x20\n        /* \"#utility.yul\":11388:11397   */\n      dup3\n        /* \"#utility.yul\":11384:11402   */\n      add\n        /* \"#utility.yul\":11376:11402   */\n      swap1\n      pop\n        /* \"#utility.yul\":11412:11477   */\n      tag_402\n        /* \"#utility.yul\":11474:11475   */\n      0x00\n        /* \"#utility.yul\":11463:11472   */\n      dup4\n        /* \"#utility.yul\":11459:11476   */\n      add\n        /* \"#utility.yul\":11450:11456   */\n      dup5\n        /* \"#utility.yul\":11412:11477   */\n      tag_314\n      jump\t// in\n    tag_402:\n        /* \"#utility.yul\":11274:11484   */\n      swap3\n      swap2\n      pop\n      pop\n      jump\t// out\n        /* \"#utility.yul\":11490:11803   */\n    tag_25:\n        /* \"#utility.yul\":11603:11607   */\n      0x00\n        /* \"#utility.yul\":11641:11643   */\n      0x20\n        /* \"#utility.yul\":11630:11639   */\n      dup3\n        /* \"#utility.yul\":11626:11644   */\n      add\n        /* \"#utility.yul\":11618:11644   */\n      swap1\n      pop\n        /* \"#utility.yul\":11690:11699   */\n      dup2\n        /* \"#utility.yul\":11684:11688   */\n      dup2\n        /* \"#utility.yul\":11680:11700   */\n      sub\n        /* \"#utility.yul\":11676:11677   */\n      0x00\n        /* \"#utility.yul\":11665:11674   */\n      dup4\n        /* \"#utility.yul\":11661:11678   */\n      add\n        /* \"#utility.yul\":11654:11701   */\n      mstore\n        /* \"#utility.yul\":11718:11796   */\n      tag_404\n        /* \"#utility.yul\":11791:11795   */\n      dup2\n        /* \"#utility.yul\":11782:11788   */\n      dup5\n        /* \"#utility.yul\":11718:11796   */\n      tag_318\n      jump\t// in\n    tag_404:\n        /* \"#utility.yul\":11710:11796   */\n      swap1\n      pop\n        /* \"#utility.yul\":11490:11803   */\n      swap3\n      swap2\n      pop\n      pop\n      jump\t// out\n        /* \"#utility.yul\":11809:12228   */\n    tag_193:\n        /* \"#utility.yul\":11975:11979   */\n      0x00\n        /* \"#utility.yul\":12013:12015   */\n      0x20\n        /* \"#utility.yul\":12002:12011   */\n      dup3\n        /* \"#utility.yul\":11998:12016   */\n      add\n        /* \"#utility.yul\":11990:12016   */\n      swap1\n      pop\n        /* \"#utility.yul\":12062:12071   */\n      dup2\n        /* \"#utility.yul\":12056:12060   */\n      dup2\n        /* \"#utility.yul\":12052:12072   */\n      sub\n        /* \"#utility.yul\":12048:12049   */\n      0x00\n        /* \"#utility.yul\":12037:12046   */\n      dup4\n        /* \"#utility.yul\":12033:12050   */\n      add\n        /* \"#utility.yul\":12026:12073   */\n      mstore\n        /* \"#utility.yul\":12090:12221   */\n      tag_406\n        /* \"#utility.yul\":12216:12220   */\n      dup2\n        /* \"#utility.yul\":12090:12221   */\n      tag_328\n      jump\t// in\n    tag_406:\n        /* \"#utility.yul\":12082:12221   */\n      swap1\n      pop\n        /* \"#utility.yul\":11809:12228   */\n      swap2\n      swap1\n      pop\n      jump\t// out\n        /* \"#utility.yul\":12234:12653   */\n    tag_156:\n        /* \"#utility.yul\":12400:12404   */\n      0x00\n        /* \"#utility.yul\":12438:12440   */\n      0x20\n        /* \"#utility.yul\":12427:12436   */\n      dup3\n        /* \"#utility.yul\":12423:12441   */\n      add\n        /* \"#utility.yul\":12415:12441   */\n      swap1\n      pop\n        /* \"#utility.yul\":12487:12496   */\n      dup2\n        /* \"#utility.yul\":12481:12485   */\n      dup2\n        /* \"#utility.yul\":12477:12497   */\n      sub\n        /* \"#utility.yul\":12473:12474   */\n      0x00\n        /* \"#utility.yul\":12462:12471   */\n      dup4\n        /* \"#utility.yul\":12458:12475   */\n      add\n        /* \"#utility.yul\":12451:12498   */\n      mstore\n        /* \"#utility.yul\":12515:12646   */\n      tag_408\n        /* \"#utility.yul\":12641:12645   */\n      dup2\n        /* \"#utility.yul\":12515:12646   */\n      tag_333\n      jump\t// in\n    tag_408:\n        /* \"#utility.yul\":12507:12646   */\n      swap1\n      pop\n        /* \"#utility.yul\":12234:12653   */\n      swap2\n      swap1\n      pop\n      jump\t// out\n        /* \"#utility.yul\":12659:13078   */\n    tag_217:\n        /* \"#utility.yul\":12825:12829   */\n      0x00\n        /* \"#utility.yul\":12863:12865   */\n      0x20\n        /* \"#utility.yul\":12852:12861   */\n      dup3\n        /* \"#utility.yul\":12848:12866   */\n      add\n        /* \"#utility.yul\":12840:12866   */\n      swap1\n      pop\n        /* \"#utility.yul\":12912:12921   */\n      dup2\n        /* \"#utility.yul\":12906:12910   */\n      dup2\n        /* \"#utility.yul\":12902:12922   */\n      sub\n        /* \"#utility.yul\":12898:12899   */\n      0x00\n        /* \"#utility.yul\":12887:12896   */\n      dup4\n        /* \"#utility.yul\":12883:12900   */\n      add\n        /* \"#utility.yul\":12876:12923   */\n      mstore\n        /* \"#utility.yul\":12940:13071   */\n      tag_410\n        /* \"#utility.yul\":13066:13070   */\n      dup2\n        /* \"#utility.yul\":12940:13071   */\n      tag_338\n      jump\t// in\n    tag_410:\n        /* \"#utility.yul\":12932:13071   */\n      swap1\n      pop\n        /* \"#utility.yul\":12659:13078   */\n      swap2\n      swap1\n      pop\n      jump\t// out\n        /* \"#utility.yul\":13084:13503   */\n    tag_177:\n        /* \"#utility.yul\":13250:13254   */\n      0x00\n        /* \"#utility.yul\":13288:13290   */\n      0x20\n        /* \"#utility.yul\":13277:13286   */\n      dup3\n        /* \"#utility.yul\":13273:13291   */\n      add\n        /* \"#utility.yul\":13265:13291   */\n      swap1\n      pop\n        /* \"#utility.yul\":13337:13346   */\n      dup2\n        /* \"#utility.yul\":13331:13335   */\n      dup2\n        /* \"#utility.yul\":13327:13347   */\n      sub\n        /* \"#utility.yul\":13323:13324   */\n      0x00\n        /* \"#utility.yul\":13312:13321   */\n      dup4\n        /* \"#utility.yul\":13308:13325   */\n      add\n        /* \"#utility.yul\":13301:13348   */\n      mstore\n        /* \"#utility.yul\":13365:13496   */\n      tag_412\n        /* \"#utility.yul\":13491:13495   */\n      dup2\n        /* \"#utility.yul\":13365:13496   */\n      tag_343\n      jump\t// in\n    tag_412:\n        /* \"#utility.yul\":13357:13496   */\n      swap1\n      pop\n        /* \"#utility.yul\":13084:13503   */\n      swap2\n      swap1\n      pop\n      jump\t// out\n        /* \"#utility.yul\":13509:13928   */\n    tag_153:\n        /* \"#utility.yul\":13675:13679   */\n      0x00\n        /* \"#utility.yul\":13713:13715   */\n      0x20\n        /* \"#utility.yul\":13702:13711   */\n      dup3\n        /* \"#utility.yul\":13698:13716   */\n      add\n        /* \"#utility.yul\":13690:13716   */\n      swap1\n      pop\n        /* \"#utility.yul\":13762:13771   */\n      dup2\n        /* \"#utility.yul\":13756:13760   */\n      dup2\n        /* \"#utility.yul\":13752:13772   */\n      sub\n        /* \"#utility.yul\":13748:13749   */\n      0x00\n        /* \"#utility.yul\":13737:13746   */\n      dup4\n        /* \"#utility.yul\":13733:13750   */\n      add\n        /* \"#utility.yul\":13726:13773   */\n      mstore\n        /* \"#utility.yul\":13790:13921   */\n      tag_414\n        /* \"#utility.yul\":13916:13920   */\n      dup2\n        /* \"#utility.yul\":13790:13921   */\n      tag_348\n      jump\t// in\n    tag_414:\n        /* \"#utility.yul\":13782:13921   */\n      swap1\n      pop\n        /* \"#utility.yul\":13509:13928   */\n      swap2\n      swap1\n      pop\n      jump\t// out\n        /* \"#utility.yul\":13934:14353   */\n    tag_185:\n        /* \"#utility.yul\":14100:14104   */\n      0x00\n        /* \"#utility.yul\":14138:14140   */\n      0x20\n        /* \"#utility.yul\":14127:14136   */\n      dup3\n        /* \"#utility.yul\":14123:14141   */\n      add\n        /* \"#utility.yul\":14115:14141   */\n      swap1\n      pop\n        /* \"#utility.yul\":14187:14196   */\n      dup2\n        /* \"#utility.yul\":14181:14185   */\n      dup2\n        /* \"#utility.yul\":14177:14197   */\n      sub\n        /* \"#utility.yul\":14173:14174   */\n      0x00\n        /* \"#utility.yul\":14162:14171   */\n      dup4\n        /* \"#utility.yul\":14158:14175   */\n      add\n        /* \"#utility.yul\":14151:14198   */\n      mstore\n        /* \"#utility.yul\":14215:14346   */\n      tag_416\n        /* \"#utility.yul\":14341:14345   */\n      dup2\n        /* \"#utility.yul\":14215:14346   */\n      tag_353\n      jump\t// in\n    tag_416:\n        /* \"#utility.yul\":14207:14346   */\n      swap1\n      pop\n        /* \"#utility.yul\":13934:14353   */\n      swap2\n      swap1\n      pop\n      jump\t// out\n        /* \"#utility.yul\":14359:14778   */\n    tag_198:\n        /* \"#utility.yul\":14525:14529   */\n      0x00\n        /* \"#utility.yul\":14563:14565   */\n      0x20\n        /* \"#utility.yul\":14552:14561   */\n      dup3\n        /* \"#utility.yul\":14548:14566   */\n      add\n        /* \"#utility.yul\":14540:14566   */\n      swap1\n      pop\n        /* \"#utility.yul\":14612:14621   */\n      dup2\n        /* \"#utility.yul\":14606:14610   */\n      dup2\n        /* \"#utility.yul\":14602:14622   */\n      sub\n        /* \"#utility.yul\":14598:14599   */\n      0x00\n        /* \"#utility.yul\":14587:14596   */\n      dup4\n        /* \"#utility.yul\":14583:14600   */\n      add\n        /* \"#utility.yul\":14576:14623   */\n      mstore\n        /* \"#utility.yul\":14640:14771   */\n      tag_418\n        /* \"#utility.yul\":14766:14770   */\n      dup2\n        /* \"#utility.yul\":14640:14771   */\n      tag_358\n      jump\t// in\n    tag_418:\n        /* \"#utility.yul\":14632:14771   */\n      swap1\n      pop\n        /* \"#utility.yul\":14359:14778   */\n      swap2\n      swap1\n      pop\n      jump\t// out\n        /* \"#utility.yul\":14784:15203   */\n    tag_123:\n        /* \"#utility.yul\":14950:14954   */\n      0x00\n        /* \"#utility.yul\":14988:14990   */\n      0x20\n        /* \"#utility.yul\":14977:14986   */\n      dup3\n        /* \"#utility.yul\":14973:14991   */\n      add\n        /* \"#utility.yul\":14965:14991   */\n      swap1\n      pop\n        /* \"#utility.yul\":15037:15046   */\n      dup2\n        /* \"#utility.yul\":15031:15035   */\n      dup2\n        /* \"#utility.yul\":15027:15047   */\n      sub\n        /* \"#utility.yul\":15023:15024   */\n      0x00\n        /* \"#utility.yul\":15012:15021   */\n      dup4\n        /* \"#utility.yul\":15008:15025   */\n      add\n        /* \"#utility.yul\":15001:15048   */\n      mstore\n        /* \"#utility.yul\":15065:15196   */\n      tag_420\n        /* \"#utility.yul\":15191:15195   */\n      dup2\n        /* \"#utility.yul\":15065:15196   */\n      tag_363\n      jump\t// in\n    tag_420:\n        /* \"#utility.yul\":15057:15196   */\n      swap1\n      pop\n        /* \"#utility.yul\":14784:15203   */\n      swap2\n      swap1\n      pop\n      jump\t// out\n        /* \"#utility.yul\":15209:15628   */\n    tag_213:\n        /* \"#utility.yul\":15375:15379   */\n      0x00\n        /* \"#utility.yul\":15413:15415   */\n      0x20\n        /* \"#utility.yul\":15402:15411   */\n      dup3\n        /* \"#utility.yul\":15398:15416   */\n      add\n        /* \"#utility.yul\":15390:15416   */\n      swap1\n      pop\n        /* \"#utility.yul\":15462:15471   */\n      dup2\n        /* \"#utility.yul\":15456:15460   */\n      dup2\n        /* \"#utility.yul\":15452:15472   */\n      sub\n        /* \"#utility.yul\":15448:15449   */\n      0x00\n        /* \"#utility.yul\":15437:15446   */\n      dup4\n        /* \"#utility.yul\":15433:15450   */\n      add\n        /* \"#utility.yul\":15426:15473   */\n      mstore\n        /* \"#utility.yul\":15490:15621   */\n      tag_422\n        /* \"#utility.yul\":15616:15620   */\n      dup2\n        /* \"#utility.yul\":15490:15621   */\n      tag_368\n      jump\t// in\n    tag_422:\n        /* \"#utility.yul\":15482:15621   */\n      swap1\n      pop\n        /* \"#utility.yul\":15209:15628   */\n      swap2\n      swap1\n      pop\n      jump\t// out\n        /* \"#utility.yul\":15634:16053   */\n    tag_190:\n        /* \"#utility.yul\":15800:15804   */\n      0x00\n        /* \"#utility.yul\":15838:15840   */\n      0x20\n        /* \"#utility.yul\":15827:15836   */\n      dup3\n        /* \"#utility.yul\":15823:15841   */\n      add\n        /* \"#utility.yul\":15815:15841   */\n      swap1\n      pop\n        /* \"#utility.yul\":15887:15896   */\n      dup2\n        /* \"#utility.yul\":15881:15885   */\n      dup2\n        /* \"#utility.yul\":15877:15897   */\n      sub\n        /* \"#utility.yul\":15873:15874   */\n      0x00\n        /* \"#utility.yul\":15862:15871   */\n      dup4\n        /* \"#utility.yul\":15858:15875   */\n      add\n        /* \"#utility.yul\":15851:15898   */\n      mstore\n        /* \"#utility.yul\":15915:16046   */\n      tag_424\n        /* \"#utility.yul\":16041:16045   */\n      dup2\n        /* \"#utility.yul\":15915:16046   */\n      tag_373\n      jump\t// in\n    tag_424:\n        /* \"#utility.yul\":15907:16046   */\n      swap1\n      pop\n        /* \"#utility.yul\":15634:16053   */\n      swap2\n      swap1\n      pop\n      jump\t// out\n        /* \"#utility.yul\":16059:16478   */\n    tag_174:\n        /* \"#utility.yul\":16225:16229   */\n      0x00\n        /* \"#utility.yul\":16263:16265   */\n      0x20\n        /* \"#utility.yul\":16252:16261   */\n      dup3\n        /* \"#utility.yul\":16248:16266   */\n      add\n        /* \"#utility.yul\":16240:16266   */\n      swap1\n      pop\n        /* \"#utility.yul\":16312:16321   */\n      dup2\n        /* \"#utility.yul\":16306:16310   */\n      dup2\n        /* \"#utility.yul\":16302:16322   */\n      sub\n        /* \"#utility.yul\":16298:16299   */\n      0x00\n        /* \"#utility.yul\":16287:16296   */\n      dup4\n        /* \"#utility.yul\":16283:16300   */\n      add\n        /* \"#utility.yul\":16276:16323   */\n      mstore\n        /* \"#utility.yul\":16340:16471   */\n      tag_426\n        /* \"#utility.yul\":16466:16470   */\n      dup2\n        /* \"#utility.yul\":16340:16471   */\n      tag_378\n      jump\t// in\n    tag_426:\n        /* \"#utility.yul\":16332:16471   */\n      swap1\n      pop\n        /* \"#utility.yul\":16059:16478   */\n      swap2\n      swap1\n      pop\n      jump\t// out\n        /* \"#utility.yul\":16484:16903   */\n    tag_145:\n        /* \"#utility.yul\":16650:16654   */\n      0x00\n        /* \"#utility.yul\":16688:16690   */\n      0x20\n        /* \"#utility.yul\":16677:16686   */\n      dup3\n        /* \"#utility.yul\":16673:16691   */\n      add\n        /* \"#utility.yul\":16665:16691   */\n      swap1\n      pop\n        /* \"#utility.yul\":16737:16746   */\n      dup2\n        /* \"#utility.yul\":16731:16735   */\n      dup2\n        /* \"#utility.yul\":16727:16747   */\n      sub\n        /* \"#utility.yul\":16723:16724   */\n      0x00\n        /* \"#utility.yul\":16712:16721   */\n      dup4\n        /* \"#utility.yul\":16708:16725   */\n      add\n        /* \"#utility.yul\":16701:16748   */\n      mstore\n        /* \"#utility.yul\":16765:16896   */\n      tag_428\n        /* \"#utility.yul\":16891:16895   */\n      dup2\n        /* \"#utility.yul\":16765:16896   */\n      tag_383\n      jump\t// in\n    tag_428:\n        /* \"#utility.yul\":16757:16896   */\n      swap1\n      pop\n        /* \"#utility.yul\":16484:16903   */\n      swap2\n      swap1\n      pop\n      jump\t// out\n        /* \"#utility.yul\":16909:17328   */\n    tag_205:\n        /* \"#utility.yul\":17075:17079   */\n      0x00\n        /* \"#utility.yul\":17113:17115   */\n      0x20\n        /* \"#utility.yul\":17102:17111   */\n      dup3\n        /* \"#utility.yul\":17098:17116   */\n      add\n        /* \"#utility.yul\":17090:17116   */\n      swap1\n      pop\n        /* \"#utility.yul\":17162:17171   */\n      dup2\n        /* \"#utility.yul\":17156:17160   */\n      dup2\n        /* \"#utility.yul\":17152:17172   */\n      sub\n        /* \"#utility.yul\":17148:17149   */\n      0x00\n        /* \"#utility.yul\":17137:17146   */\n      dup4\n        /* \"#utility.yul\":17133:17150   */\n      add\n        /* \"#utility.yul\":17126:17173   */\n      mstore\n        /* \"#utility.yul\":17190:17321   */\n      tag_430\n        /* \"#utility.yul\":17316:17320   */\n      dup2\n        /* \"#utility.yul\":17190:17321   */\n      tag_388\n      jump\t// in\n    tag_430:\n        /* \"#utility.yul\":17182:17321   */\n      swap1\n      pop\n        /* \"#utility.yul\":16909:17328   */\n      swap2\n      swap1\n      pop\n      jump\t// out\n        /* \"#utility.yul\":17334:17556   */\n    tag_35:\n        /* \"#utility.yul\":17427:17431   */\n      0x00\n        /* \"#utility.yul\":17465:17467   */\n      0x20\n        /* \"#utility.yul\":17454:17463   */\n      dup3\n        /* \"#utility.yul\":17450:17468   */\n      add\n        /* \"#utility.yul\":17442:17468   */\n      swap1\n      pop\n        /* \"#utility.yul\":17478:17549   */\n      tag_432\n        /* \"#utility.yul\":17546:17547   */\n      0x00\n        /* \"#utility.yul\":17535:17544   */\n      dup4\n        /* \"#utility.yul\":17531:17548   */\n      add\n        /* \"#utility.yul\":17522:17528   */\n      dup5\n        /* \"#utility.yul\":17478:17549   */\n      tag_393\n      jump\t// in\n    tag_432:\n        /* \"#utility.yul\":17334:17556   */\n      swap3\n      swap2\n      pop\n      pop\n      jump\t// out\n        /* \"#utility.yul\":17562:17776   */\n    tag_48:\n        /* \"#utility.yul\":17651:17655   */\n      0x00\n        /* \"#utility.yul\":17689:17691   */\n      0x20\n        /* \"#utility.yul\":17678:17687   */\n      dup3\n        /* \"#utility.yul\":17674:17692   */\n      add\n        /* \"#utility.yul\":17666:17692   */\n      swap1\n      pop\n        /* \"#utility.yul\":17702:17769   */\n      tag_434\n        /* \"#utility.yul\":17766:17767   */\n      0x00\n        /* \"#utility.yul\":17755:17764   */\n      dup4\n        /* \"#utility.yul\":17751:17768   */\n      add\n        /* \"#utility.yul\":17742:17748   */\n      dup5\n        /* \"#utility.yul\":17702:17769   */\n      tag_397\n      jump\t// in\n    tag_434:\n        /* \"#utility.yul\":17562:17776   */\n      swap3\n      swap2\n      pop\n      pop\n      jump\t// out\n        /* \"#utility.yul\":17782:17911   */\n    tag_245:\n        /* \"#utility.yul\":17816:17822   */\n      0x00\n        /* \"#utility.yul\":17843:17863   */\n      tag_436\n      tag_437\n      jump\t// in\n    tag_436:\n        /* \"#utility.yul\":17833:17863   */\n      swap1\n      pop\n        /* \"#utility.yul\":17872:17905   */\n      tag_438\n        /* \"#utility.yul\":17900:17904   */\n      dup3\n        /* \"#utility.yul\":17892:17898   */\n      dup3\n        /* \"#utility.yul\":17872:17905   */\n      tag_439\n      jump\t// in\n    tag_438:\n        /* \"#utility.yul\":17782:17911   */\n      swap2\n      swap1\n      pop\n      jump\t// out\n        /* \"#utility.yul\":17917:17992   */\n    tag_437:\n        /* \"#utility.yul\":17950:17956   */\n      0x00\n        /* \"#utility.yul\":17983:17985   */\n      0x40\n        /* \"#utility.yul\":17977:17986   */\n      mload\n        /* \"#utility.yul\":17967:17986   */\n      swap1\n      pop\n        /* \"#utility.yul\":17917:17992   */\n      swap1\n      jump\t// out\n        /* \"#utility.yul\":17998:18306   */\n    tag_244:\n        /* \"#utility.yul\":18060:18064   */\n      0x00\n        /* \"#utility.yul\":18150:18168   */\n      0xffffffffffffffff\n        /* \"#utility.yul\":18142:18148   */\n      dup3\n        /* \"#utility.yul\":18139:18169   */\n      gt\n        /* \"#utility.yul\":18136:18192   */\n      iszero\n      tag_442\n      jumpi\n        /* \"#utility.yul\":18172:18190   */\n      tag_443\n      tag_444\n      jump\t// in\n    tag_443:\n        /* \"#utility.yul\":18136:18192   */\n    tag_442:\n        /* \"#utility.yul\":18210:18239   */\n      tag_445\n        /* \"#utility.yul\":18232:18238   */\n      dup3\n        /* \"#utility.yul\":18210:18239   */\n      tag_327\n      jump\t// in\n    tag_445:\n        /* \"#utility.yul\":18202:18239   */\n      swap1\n      pop\n        /* \"#utility.yul\":18294:18298   */\n      0x20\n        /* \"#utility.yul\":18288:18292   */\n      dup2\n        /* \"#utility.yul\":18284:18299   */\n      add\n        /* \"#utility.yul\":18276:18299   */\n      swap1\n      pop\n        /* \"#utility.yul\":17998:18306   */\n      swap2\n      swap1\n      pop\n      jump\t// out\n        /* \"#utility.yul\":18312:18411   */\n    tag_321:\n        /* \"#utility.yul\":18364:18370   */\n      0x00\n        /* \"#utility.yul\":18398:18403   */\n      dup2\n        /* \"#utility.yul\":18392:18404   */\n      mload\n        /* \"#utility.yul\":18382:18404   */\n      swap1\n      pop\n        /* \"#utility.yul\":18312:18411   */\n      swap2\n      swap1\n      pop\n      jump\t// out\n        /* \"#utility.yul\":18417:18586   */\n    tag_323:\n        /* \"#utility.yul\":18501:18512   */\n      0x00\n        /* \"#utility.yul\":18535:18541   */\n      dup3\n        /* \"#utility.yul\":18530:18533   */\n      dup3\n        /* \"#utility.yul\":18523:18542   */\n      mstore\n        /* \"#utility.yul\":18575:18579   */\n      0x20\n        /* \"#utility.yul\":18570:18573   */\n      dup3\n        /* \"#utility.yul\":18566:18580   */\n      add\n        /* \"#utility.yul\":18551:18580   */\n      swap1\n      pop\n        /* \"#utility.yul\":18417:18586   */\n      swap3\n      swap2\n      pop\n      pop\n      jump\t// out\n        /* \"#utility.yul\":18592:18897   */\n    tag_119:\n        /* \"#utility.yul\":18632:18635   */\n      0x00\n        /* \"#utility.yul\":18651:18671   */\n      tag_449\n        /* \"#utility.yul\":18669:18670   */\n      dup3\n        /* \"#utility.yul\":18651:18671   */\n      tag_396\n      jump\t// in\n    tag_449:\n        /* \"#utility.yul\":18646:18671   */\n      swap2\n      pop\n        /* \"#utility.yul\":18685:18705   */\n      tag_450\n        /* \"#utility.yul\":18703:18704   */\n      dup4\n        /* \"#utility.yul\":18685:18705   */\n      tag_396\n      jump\t// in\n    tag_450:\n        /* \"#utility.yul\":18680:18705   */\n      swap3\n      pop\n        /* \"#utility.yul\":18839:18840   */\n      dup3\n        /* \"#utility.yul\":18771:18837   */\n      0xffffffffffffffffffffffffffffffffffffffffffffffffffffffffffffffff\n        /* \"#utility.yul\":18767:18841   */\n      sub\n        /* \"#utility.yul\":18764:18765   */\n      dup3\n        /* \"#utility.yul\":18761:18842   */\n      gt\n        /* \"#utility.yul\":18758:18865   */\n      iszero\n      tag_451\n      jumpi\n        /* \"#utility.yul\":18845:18863   */\n      tag_452\n      tag_453\n      jump\t// in\n    tag_452:\n        /* \"#utility.yul\":18758:18865   */\n    tag_451:\n        /* \"#utility.yul\":18889:18890   */\n      dup3\n        /* \"#utility.yul\":18886:18887   */\n      dup3\n        /* \"#utility.yul\":18882:18891   */\n      add\n        /* \"#utility.yul\":18875:18891   */\n      swap1\n      pop\n        /* \"#utility.yul\":18592:18897   */\n      swap3\n      swap2\n      pop\n      pop\n      jump\t// out\n        /* \"#utility.yul\":18903:19094   */\n    tag_159:\n        /* \"#utility.yul\":18943:18947   */\n      0x00\n        /* \"#utility.yul\":18963:18983   */\n      tag_455\n        /* \"#utility.yul\":18981:18982   */\n      dup3\n        /* \"#utility.yul\":18963:18983   */\n      tag_396\n      jump\t// in\n    tag_455:\n        /* \"#utility.yul\":18958:18983   */\n      swap2\n      pop\n        /* \"#utility.yul\":18997:19017   */\n      tag_456\n        /* \"#utility.yul\":19015:19016   */\n      dup4\n        /* \"#utility.yul\":18997:19017   */\n      tag_396\n      jump\t// in\n    tag_456:\n        /* \"#utility.yul\":18992:19017   */\n      swap3\n      pop\n        /* \"#utility.yul\":19036:19037   */\n      dup3\n        /* \"#utility.yul\":19033:19034   */\n      dup3\n        /* \"#utility.yul\":19030:19038   */\n      lt\n        /* \"#utility.yul\":19027:19061   */\n      iszero\n      tag_457\n      jumpi\n        /* \"#utility.yul\":19041:19059   */\n      tag_458\n      tag_453\n      jump\t// in\n    tag_458:\n        /* \"#utility.yul\":19027:19061   */\n    tag_457:\n        /* \"#utility.yul\":19086:19087   */\n      dup3\n        /* \"#utility.yul\":19083:19084   */\n      dup3\n        /* \"#utility.yul\":19079:19088   */\n      sub\n        /* \"#utility.yul\":19071:19088   */\n      swap1\n      pop\n        /* \"#utility.yul\":18903:19094   */\n      swap3\n      swap2\n      pop\n      pop\n      jump\t// out\n        /* \"#utility.yul\":19100:19196   */\n    tag_459:\n        /* \"#utility.yul\":19137:19144   */\n      0x00\n        /* \"#utility.yul\":19166:19190   */\n      tag_461\n        /* \"#utility.yul\":19184:19189   */\n      dup3\n        /* \"#utility.yul\":19166:19190   */\n      tag_462\n      jump\t// in\n    tag_461:\n        /* \"#utility.yul\":19155:19190   */\n      swap1\n      pop\n        /* \"#utility.yul\":19100:19196   */\n      swap2\n      swap1\n      pop\n      jump\t// out\n        /* \"#utility.yul\":19202:19292   */\n    tag_317:\n        /* \"#utility.yul\":19236:19243   */\n      0x00\n        /* \"#utility.yul\":19279:19284   */\n      dup2\n        /* \"#utility.yul\":19272:19285   */\n      iszero\n        /* \"#utility.yul\":19265:19286   */\n      iszero\n        /* \"#utility.yul\":19254:19286   */\n      swap1\n      pop\n        /* \"#utility.yul\":19202:19292   */\n      swap2\n      swap1\n      pop\n      jump\t// out\n        /* \"#utility.yul\":19298:19424   */\n    tag_462:\n        /* \"#utility.yul\":19335:19342   */\n      0x00\n        /* \"#utility.yul\":19375:19417   */\n      0xffffffffffffffffffffffffffffffffffffffff\n        /* \"#utility.yul\":19368:19373   */\n      dup3\n        /* \"#utility.yul\":19364:19418   */\n      and\n        /* \"#utility.yul\":19353:19418   */\n      swap1\n      pop\n        /* \"#utility.yul\":19298:19424   */\n      swap2\n      swap1\n      pop\n      jump\t// out\n        /* \"#utility.yul\":19430:19507   */\n    tag_396:\n        /* \"#utility.yul\":19467:19474   */\n      0x00\n        /* \"#utility.yul\":19496:19501   */\n      dup2\n        /* \"#utility.yul\":19485:19501   */\n      swap1\n      pop\n        /* \"#utility.yul\":19430:19507   */\n      swap2\n      swap1\n      pop\n      jump\t// out\n        /* \"#utility.yul\":19513:19599   */\n    tag_400:\n        /* \"#utility.yul\":19548:19555   */\n      0x00\n        /* \"#utility.yul\":19588:19592   */\n      0xff\n        /* \"#utility.yul\":19581:19586   */\n      dup3\n        /* \"#utility.yul\":19577:19593   */\n      and\n        /* \"#utility.yul\":19566:19593   */\n      swap1\n      pop\n        /* \"#utility.yul\":19513:19599   */\n      swap2\n      swap1\n      pop\n      jump\t// out\n        /* \"#utility.yul\":19605:19759   */\n    tag_250:\n        /* \"#utility.yul\":19689:19695   */\n      dup3\n        /* \"#utility.yul\":19684:19687   */\n      dup2\n        /* \"#utility.yul\":19679:19682   */\n      dup4\n        /* \"#utility.yul\":19666:19696   */\n      calldatacopy\n        /* \"#utility.yul\":19751:19752   */\n      0x00\n        /* \"#utility.yul\":19742:19748   */\n      dup4\n        /* \"#utility.yul\":19737:19740   */\n      dup4\n        /* \"#utility.yul\":19733:19749   */\n      add\n        /* \"#utility.yul\":19726:19753   */\n      mstore\n        /* \"#utility.yul\":19605:19759   */\n      pop\n      pop\n      pop\n      jump\t// out\n        /* \"#utility.yul\":19765:20072   */\n    tag_325:\n        /* \"#utility.yul\":19833:19834   */\n      0x00\n        /* \"#utility.yul\":19843:19956   */\n    tag_469:\n        /* \"#utility.yul\":19857:19863   */\n      dup4\n        /* \"#utility.yul\":19854:19855   */\n      dup2\n        /* \"#utility.yul\":19851:19864   */\n      lt\n        /* \"#utility.yul\":19843:19956   */\n      iszero\n      tag_471\n      jumpi\n        /* \"#utility.yul\":19942:19943   */\n      dup1\n        /* \"#utility.yul\":19937:19940   */\n      dup3\n        /* \"#utility.yul\":19933:19944   */\n      add\n        /* \"#utility.yul\":19927:19945   */\n      mload\n        /* \"#utility.yul\":19923:19924   */\n      dup2\n        /* \"#utility.yul\":19918:19921   */\n      dup5\n        /* \"#utility.yul\":19914:19925   */\n      add\n        /* \"#utility.yul\":19907:19946   */\n      mstore\n        /* \"#utility.yul\":19879:19881   */\n      0x20\n        /* \"#utility.yul\":19876:19877   */\n      dup2\n        /* \"#utility.yul\":19872:19882   */\n      add\n        /* \"#utility.yul\":19867:19882   */\n      swap1\n      pop\n        /* \"#utility.yul\":19843:19956   */\n      jump(tag_469)\n    tag_471:\n        /* \"#utility.yul\":19974:19980   */\n      dup4\n        /* \"#utility.yul\":19971:19972   */\n      dup2\n        /* \"#utility.yul\":19968:19981   */\n      gt\n        /* \"#utility.yul\":19965:20066   */\n      iszero\n      tag_472\n      jumpi\n        /* \"#utility.yul\":20054:20055   */\n      0x00\n        /* \"#utility.yul\":20045:20051   */\n      dup5\n        /* \"#utility.yul\":20040:20043   */\n      dup5\n        /* \"#utility.yul\":20036:20052   */\n      add\n        /* \"#utility.yul\":20029:20056   */\n      mstore\n        /* \"#utility.yul\":19965:20066   */\n    tag_472:\n        /* \"#utility.yul\":19814:20072   */\n      pop\n        /* \"#utility.yul\":19765:20072   */\n      pop\n      pop\n      pop\n      jump\t// out\n        /* \"#utility.yul\":20078:20398   */\n    tag_165:\n        /* \"#utility.yul\":20122:20128   */\n      0x00\n        /* \"#utility.yul\":20159:20160   */\n      0x02\n        /* \"#utility.yul\":20153:20157   */\n      dup3\n        /* \"#utility.yul\":20149:20161   */\n      div\n        /* \"#utility.yul\":20139:20161   */\n      swap1\n      pop\n        /* \"#utility.yul\":20206:20207   */\n      0x01\n        /* \"#utility.yul\":20200:20204   */\n      dup3\n        /* \"#utility.yul\":20196:20208   */\n      and\n        /* \"#utility.yul\":20227:20245   */\n      dup1\n        /* \"#utility.yul\":20217:20298   */\n      tag_474\n      jumpi\n        /* \"#utility.yul\":20283:20287   */\n      0x7f\n        /* \"#utility.yul\":20275:20281   */\n      dup3\n        /* \"#utility.yul\":20271:20288   */\n      and\n        /* \"#utility.yul\":20261:20288   */\n      swap2\n      pop\n        /* \"#utility.yul\":20217:20298   */\n    tag_474:\n        /* \"#utility.yul\":20345:20347   */\n      0x20\n        /* \"#utility.yul\":20337:20343   */\n      dup3\n        /* \"#utility.yul\":20334:20348   */\n      lt\n        /* \"#utility.yul\":20314:20332   */\n      dup2\n        /* \"#utility.yul\":20311:20349   */\n      eq\n        /* \"#utility.yul\":20308:20392   */\n      iszero\n      tag_475\n      jumpi\n        /* \"#utility.yul\":20364:20382   */\n      tag_476\n      tag_477\n      jump\t// in\n    tag_476:\n        /* \"#utility.yul\":20308:20392   */\n    tag_475:\n        /* \"#utility.yul\":20129:20398   */\n      pop\n        /* \"#utility.yul\":20078:20398   */\n      swap2\n      swap1\n      pop\n      jump\t// out\n        /* \"#utility.yul\":20404:20685   */\n    tag_439:\n        /* \"#utility.yul\":20487:20514   */\n      tag_479\n        /* \"#utility.yul\":20509:20513   */\n      dup3\n        /* \"#utility.yul\":20487:20514   */\n      tag_327\n      jump\t// in\n    tag_479:\n        /* \"#utility.yul\":20479:20485   */\n      dup2\n        /* \"#utility.yul\":20475:20515   */\n      add\n        /* \"#utility.yul\":20617:20623   */\n      dup2\n        /* \"#utility.yul\":20605:20615   */\n      dup2\n        /* \"#utility.yul\":20602:20624   */\n      lt\n        /* \"#utility.yul\":20581:20599   */\n      0xffffffffffffffff\n        /* \"#utility.yul\":20569:20579   */\n      dup3\n        /* \"#utility.yul\":20566:20600   */\n      gt\n        /* \"#utility.yul\":20563:20625   */\n      or\n        /* \"#utility.yul\":20560:20648   */\n      iszero\n      tag_480\n      jumpi\n        /* \"#utility.yul\":20628:20646   */\n      tag_481\n      tag_444\n      jump\t// in\n    tag_481:\n        /* \"#utility.yul\":20560:20648   */\n    tag_480:\n        /* \"#utility.yul\":20668:20678   */\n      dup1\n        /* \"#utility.yul\":20664:20666   */\n      0x40\n        /* \"#utility.yul\":20657:20679   */\n      mstore\n        /* \"#utility.yul\":20447:20685   */\n      pop\n        /* \"#utility.yul\":20404:20685   */\n      pop\n      pop\n      jump\t// out\n        /* \"#utility.yul\":20691:20871   */\n    tag_453:\n        /* \"#utility.yul\":20739:20816   */\n      0x4e487b7100000000000000000000000000000000000000000000000000000000\n        /* \"#utility.yul\":20736:20737   */\n      0x00\n        /* \"#utility.yul\":20729:20817   */\n      mstore\n        /* \"#utility.yul\":20836:20840   */\n      0x11\n        /* \"#utility.yul\":20833:20834   */\n      0x04\n        /* \"#utility.yul\":20826:20841   */\n      mstore\n        /* \"#utility.yul\":20860:20864   */\n      0x24\n        /* \"#utility.yul\":20857:20858   */\n      0x00\n        /* \"#utility.yul\":20850:20865   */\n      revert\n        /* \"#utility.yul\":20877:21057   */\n    tag_477:\n        /* \"#utility.yul\":20925:21002   */\n      0x4e487b7100000000000000000000000000000000000000000000000000000000\n        /* \"#utility.yul\":20922:20923   */\n      0x00\n        /* \"#utility.yul\":20915:21003   */\n      mstore\n        /* \"#utility.yul\":21022:21026   */\n      0x22\n        /* \"#utility.yul\":21019:21020   */\n      0x04\n        /* \"#utility.yul\":21012:21027   */\n      mstore\n        /* \"#utility.yul\":21046:21050   */\n      0x24\n        /* \"#utility.yul\":21043:21044   */\n      0x00\n        /* \"#utility.yul\":21036:21051   */\n      revert\n        /* \"#utility.yul\":21063:21243   */\n    tag_444:\n        /* \"#utility.yul\":21111:21188   */\n      0x4e487b7100000000000000000000000000000000000000000000000000000000\n        /* \"#utility.yul\":21108:21109   */\n      0x00\n        /* \"#utility.yul\":21101:21189   */\n      mstore\n        /* \"#utility.yul\":21208:21212   */\n      0x41\n        /* \"#utility.yul\":21205:21206   */\n      0x04\n        /* \"#utility.yul\":21198:21213   */\n      mstore\n        /* \"#utility.yul\":21232:21236   */\n      0x24\n        /* \"#utility.yul\":21229:21230   */\n      0x00\n        /* \"#utility.yul\":21222:21237   */\n      revert\n        /* \"#utility.yul\":21249:21366   */\n    tag_259:\n        /* \"#utility.yul\":21358:21359   */\n      0x00\n        /* \"#utility.yul\":21355:21356   */\n      dup1\n        /* \"#utility.yul\":21348:21360   */\n      revert\n        /* \"#utility.yul\":21372:21489   */\n    tag_248:\n        /* \"#utility.yul\":21481:21482   */\n      0x00\n        /* \"#utility.yul\":21478:21479   */\n      dup1\n        /* \"#utility.yul\":21471:21483   */\n      revert\n        /* \"#utility.yul\":21495:21612   */\n    tag_304:\n        /* \"#utility.yul\":21604:21605   */\n      0x00\n        /* \"#utility.yul\":21601:21602   */\n      dup1\n        /* \"#utility.yul\":21594:21606   */\n      revert\n        /* \"#utility.yul\":21618:21735   */\n    tag_268:\n        /* \"#utility.yul\":21727:21728   */\n      0x00\n        /* \"#utility.yul\":21724:21725   */\n      dup1\n        /* \"#utility.yul\":21717:21729   */\n      revert\n        /* \"#utility.yul\":21741:21843   */\n    tag_327:\n        /* \"#utility.yul\":21782:21788   */\n      0x00\n        /* \"#utility.yul\":21833:21835   */\n      0x1f\n        /* \"#utility.yul\":21829:21836   */\n      not\n        /* \"#utility.yul\":21824:21826   */\n      0x1f\n        /* \"#utility.yul\":21817:21822   */\n      dup4\n        /* \"#utility.yul\":21813:21827   */\n      add\n        /* \"#utility.yul\":21809:21837   */\n      and\n        /* \"#utility.yul\":21799:21837   */\n      swap1\n      pop\n        /* \"#utility.yul\":21741:21843   */\n      swap2\n      swap1\n      pop\n      jump\t// out\n        /* \"#utility.yul\":21849:22071   */\n    tag_332:\n        /* \"#utility.yul\":21989:22023   */\n      0x45524332303a207472616e7366657220746f20746865207a65726f2061646472\n        /* \"#utility.yul\":21985:21986   */\n      0x00\n        /* \"#utility.yul\":21977:21983   */\n      dup3\n        /* \"#utility.yul\":21973:21987   */\n      add\n        /* \"#utility.yul\":21966:22024   */\n      mstore\n        /* \"#utility.yul\":22058:22063   */\n      0x6573730000000000000000000000000000000000000000000000000000000000\n        /* \"#utility.yul\":22053:22055   */\n      0x20\n        /* \"#utility.yul\":22045:22051   */\n      dup3\n        /* \"#utility.yul\":22041:22056   */\n      add\n        /* \"#utility.yul\":22034:22064   */\n      mstore\n        /* \"#utility.yul\":21849:22071   */\n      pop\n      jump\t// out\n        /* \"#utility.yul\":22077:22325   */\n    tag_337:\n        /* \"#utility.yul\":22217:22251   */\n      0x4275726e20616d6f756e74206d757374206265206c657373207468616e206f72\n        /* \"#utility.yul\":22213:22214   */\n      0x00\n        /* \"#utility.yul\":22205:22211   */\n      dup3\n        /* \"#utility.yul\":22201:22215   */\n      add\n        /* \"#utility.yul\":22194:22252   */\n      mstore\n        /* \"#utility.yul\":22286:22317   */\n      0x20657175616c20746f20746865207472616e7366657220616d6f756e74000000\n        /* \"#utility.yul\":22281:22283   */\n      0x20\n        /* \"#utility.yul\":22273:22279   */\n      dup3\n        /* \"#utility.yul\":22269:22284   */\n      add\n        /* \"#utility.yul\":22262:22318   */\n      mstore\n        /* \"#utility.yul\":22077:22325   */\n      pop\n      jump\t// out\n        /* \"#utility.yul\":22331:22552   */\n    tag_342:\n        /* \"#utility.yul\":22471:22505   */\n      0x45524332303a206275726e20616d6f756e7420657863656564732062616c616e\n        /* \"#utility.yul\":22467:22468   */\n      0x00\n        /* \"#utility.yul\":22459:22465   */\n      dup3\n        /* \"#utility.yul\":22455:22469   */\n      add\n        /* \"#utility.yul\":22448:22506   */\n      mstore\n        /* \"#utility.yul\":22540:22544   */\n      0x6365000000000000000000000000000000000000000000000000000000000000\n        /* \"#utility.yul\":22535:22537   */\n      0x20\n        /* \"#utility.yul\":22527:22533   */\n      dup3\n        /* \"#utility.yul\":22523:22538   */\n      add\n        /* \"#utility.yul\":22516:22545   */\n      mstore\n        /* \"#utility.yul\":22331:22552   */\n      pop\n      jump\t// out\n        /* \"#utility.yul\":22558:22779   */\n    tag_347:\n        /* \"#utility.yul\":22698:22732   */\n      0x45524332303a20617070726f766520746f20746865207a65726f206164647265\n        /* \"#utility.yul\":22694:22695   */\n      0x00\n        /* \"#utility.yul\":22686:22692   */\n      dup3\n        /* \"#utility.yul\":22682:22696   */\n      add\n        /* \"#utility.yul\":22675:22733   */\n      mstore\n        /* \"#utility.yul\":22767:22771   */\n      0x7373000000000000000000000000000000000000000000000000000000000000\n        /* \"#utility.yul\":22762:22764   */\n      0x20\n        /* \"#utility.yul\":22754:22760   */\n      dup3\n        /* \"#utility.yul\":22750:22765   */\n      add\n        /* \"#utility.yul\":22743:22772   */\n      mstore\n        /* \"#utility.yul\":22558:22779   */\n      pop\n      jump\t// out\n        /* \"#utility.yul\":22785:23009   */\n    tag_352:\n        /* \"#utility.yul\":22925:22959   */\n      0x4275726e20616d6f756e74206d7573742062652067726561746572207468616e\n        /* \"#utility.yul\":22921:22922   */\n      0x00\n        /* \"#utility.yul\":22913:22919   */\n      dup3\n        /* \"#utility.yul\":22909:22923   */\n      add\n        /* \"#utility.yul\":22902:22960   */\n      mstore\n        /* \"#utility.yul\":22994:23001   */\n      0x207a65726f000000000000000000000000000000000000000000000000000000\n        /* \"#utility.yul\":22989:22991   */\n      0x20\n        /* \"#utility.yul\":22981:22987   */\n      dup3\n        /* \"#utility.yul\":22977:22992   */\n      add\n        /* \"#utility.yul\":22970:23002   */\n      mstore\n        /* \"#utility.yul\":22785:23009   */\n      pop\n      jump\t// out\n        /* \"#utility.yul\":23015:23194   */\n    tag_357:\n        /* \"#utility.yul\":23155:23186   */\n      0x45524332303a20696e73756666696369656e7420616c6c6f77616e6365000000\n        /* \"#utility.yul\":23151:23152   */\n      0x00\n        /* \"#utility.yul\":23143:23149   */\n      dup3\n        /* \"#utility.yul\":23139:23153   */\n      add\n        /* \"#utility.yul\":23132:23187   */\n      mstore\n        /* \"#utility.yul\":23015:23194   */\n      pop\n      jump\t// out\n        /* \"#utility.yul\":23200:23425   */\n    tag_362:\n        /* \"#utility.yul\":23340:23374   */\n      0x45524332303a207472616e7366657220616d6f756e7420657863656564732062\n        /* \"#utility.yul\":23336:23337   */\n      0x00\n        /* \"#utility.yul\":23328:23334   */\n      dup3\n        /* \"#utility.yul\":23324:23338   */\n      add\n        /* \"#utility.yul\":23317:23375   */\n      mstore\n        /* \"#utility.yul\":23409:23417   */\n      0x616c616e63650000000000000000000000000000000000000000000000000000\n        /* \"#utility.yul\":23404:23406   */\n      0x20\n        /* \"#utility.yul\":23396:23402   */\n      dup3\n        /* \"#utility.yul\":23392:23407   */\n      add\n        /* \"#utility.yul\":23385:23418   */\n      mstore\n        /* \"#utility.yul\":23200:23425   */\n      pop\n      jump\t// out\n        /* \"#utility.yul\":23431:23654   */\n    tag_367:\n        /* \"#utility.yul\":23571:23605   */\n      0x46656520616d6f756e74206d7573742062652067726561746572207468616e20\n        /* \"#utility.yul\":23567:23568   */\n      0x00\n        /* \"#utility.yul\":23559:23565   */\n      dup3\n        /* \"#utility.yul\":23555:23569   */\n      add\n        /* \"#utility.yul\":23548:23606   */\n      mstore\n        /* \"#utility.yul\":23640:23646   */\n      0x7a65726f00000000000000000000000000000000000000000000000000000000\n        /* \"#utility.yul\":23635:23637   */\n      0x20\n        /* \"#utility.yul\":23627:23633   */\n      dup3\n        /* \"#utility.yul\":23623:23638   */\n      add\n        /* \"#utility.yul\":23616:23647   */\n      mstore\n        /* \"#utility.yul\":23431:23654   */\n      pop\n      jump\t// out\n        /* \"#utility.yul\":23660:23880   */\n    tag_372:\n        /* \"#utility.yul\":23800:23834   */\n      0x45524332303a206275726e2066726f6d20746865207a65726f20616464726573\n        /* \"#utility.yul\":23796:23797   */\n      0x00\n        /* \"#utility.yul\":23788:23794   */\n      dup3\n        /* \"#utility.yul\":23784:23798   */\n      add\n        /* \"#utility.yul\":23777:23835   */\n      mstore\n        /* \"#utility.yul\":23869:23872   */\n      0x7300000000000000000000000000000000000000000000000000000000000000\n        /* \"#utility.yul\":23864:23866   */\n      0x20\n        /* \"#utility.yul\":23856:23862   */\n      dup3\n        /* \"#utility.yul\":23852:23867   */\n      add\n        /* \"#utility.yul\":23845:23873   */\n      mstore\n        /* \"#utility.yul\":23660:23880   */\n      pop\n      jump\t// out\n        /* \"#utility.yul\":23886:24110   */\n    tag_377:\n        /* \"#utility.yul\":24026:24060   */\n      0x45524332303a207472616e736665722066726f6d20746865207a65726f206164\n        /* \"#utility.yul\":24022:24023   */\n      0x00\n        /* \"#utility.yul\":24014:24020   */\n      dup3\n        /* \"#utility.yul\":24010:24024   */\n      add\n        /* \"#utility.yul\":24003:24061   */\n      mstore\n        /* \"#utility.yul\":24095:24102   */\n      0x6472657373000000000000000000000000000000000000000000000000000000\n        /* \"#utility.yul\":24090:24092   */\n      0x20\n        /* \"#utility.yul\":24082:24088   */\n      dup3\n        /* \"#utility.yul\":24078:24093   */\n      add\n        /* \"#utility.yul\":24071:24103   */\n      mstore\n        /* \"#utility.yul\":23886:24110   */\n      pop\n      jump\t// out\n        /* \"#utility.yul\":24116:24339   */\n    tag_382:\n        /* \"#utility.yul\":24256:24290   */\n      0x45524332303a20617070726f76652066726f6d20746865207a65726f20616464\n        /* \"#utility.yul\":24252:24253   */\n      0x00\n        /* \"#utility.yul\":24244:24250   */\n      dup3\n        /* \"#utility.yul\":24240:24254   */\n      add\n        /* \"#utility.yul\":24233:24291   */\n      mstore\n        /* \"#utility.yul\":24325:24331   */\n      0x7265737300000000000000000000000000000000000000000000000000000000\n        /* \"#utility.yul\":24320:24322   */\n      0x20\n        /* \"#utility.yul\":24312:24318   */\n      dup3\n        /* \"#utility.yul\":24308:24323   */\n      add\n        /* \"#utility.yul\":24301:24332   */\n      mstore\n        /* \"#utility.yul\":24116:24339   */\n      pop\n      jump\t// out\n        /* \"#utility.yul\":24345:24569   */\n    tag_387:\n        /* \"#utility.yul\":24485:24519   */\n      0x45524332303a2064656372656173656420616c6c6f77616e63652062656c6f77\n        /* \"#utility.yul\":24481:24482   */\n      0x00\n        /* \"#utility.yul\":24473:24479   */\n      dup3\n        /* \"#utility.yul\":24469:24483   */\n      add\n        /* \"#utility.yul\":24462:24520   */\n      mstore\n        /* \"#utility.yul\":24554:24561   */\n      0x207a65726f000000000000000000000000000000000000000000000000000000\n        /* \"#utility.yul\":24549:24551   */\n      0x20\n        /* \"#utility.yul\":24541:24547   */\n      dup3\n        /* \"#utility.yul\":24537:24552   */\n      add\n        /* \"#utility.yul\":24530:24562   */\n      mstore\n        /* \"#utility.yul\":24345:24569   */\n      pop\n      jump\t// out\n        /* \"#utility.yul\":24575:24756   */\n    tag_392:\n        /* \"#utility.yul\":24715:24748   */\n      0x45524332303a206d696e7420746f20746865207a65726f206164647265737300\n        /* \"#utility.yul\":24711:24712   */\n      0x00\n        /* \"#utility.yul\":24703:24709   */\n      dup3\n        /* \"#utility.yul\":24699:24713   */\n      add\n        /* \"#utility.yul\":24692:24749   */\n      mstore\n        /* \"#utility.yul\":24575:24756   */\n      pop\n      jump\t// out\n        /* \"#utility.yul\":24762:24884   */\n    tag_254:\n        /* \"#utility.yul\":24835:24859   */\n      tag_504\n        /* \"#utility.yul\":24853:24858   */\n      dup2\n        /* \"#utility.yul\":24835:24859   */\n      tag_459\n      jump\t// in\n    tag_504:\n        /* \"#utility.yul\":24828:24833   */\n      dup2\n        /* \"#utility.yul\":24825:24860   */\n      eq\n        /* \"#utility.yul\":24815:24878   */\n      tag_505\n      jumpi\n        /* \"#utility.yul\":24874:24875   */\n      0x00\n        /* \"#utility.yul\":24871:24872   */\n      dup1\n        /* \"#utility.yul\":24864:24876   */\n      revert\n        /* \"#utility.yul\":24815:24878   */\n    tag_505:\n        /* \"#utility.yul\":24762:24884   */\n      pop\n      jump\t// out\n        /* \"#utility.yul\":24890:25012   */\n    tag_264:\n        /* \"#utility.yul\":24963:24987   */\n      tag_507\n        /* \"#utility.yul\":24981:24986   */\n      dup2\n        /* \"#utility.yul\":24963:24987   */\n      tag_396\n      jump\t// in\n    tag_507:\n        /* \"#utility.yul\":24956:24961   */\n      dup2\n        /* \"#utility.yul\":24953:24988   */\n      eq\n        /* \"#utility.yul\":24943:25006   */\n      tag_508\n      jumpi\n        /* \"#utility.yul\":25002:25003   */\n      0x00\n        /* \"#utility.yul\":24999:25000   */\n      dup1\n        /* \"#utility.yul\":24992:25004   */\n      revert\n        /* \"#utility.yul\":24943:25006   */\n    tag_508:\n        /* \"#utility.yul\":24890:25012   */\n      pop\n      jump\t// out\n\n    auxdata: 0xa2646970667358221220ae7566dea550f24633237325eedd3ca5a8a229f6702be115d2201939e9519a5264736f6c63430008070033\n}\n",
				"bytecode": {
					"linkReferences": {},
					"object": "60806040523480156200001157600080fd5b50604051620023ff380380620023ff833981810160405281019062000037919062000226565b828282826003908051906020019062000052929190620000e1565b5081600490805190602001906200006b929190620000e1565b5080600281905550600062000085620000d960201b60201c565b90506002546000808373ffffffffffffffffffffffffffffffffffffffff1673ffffffffffffffffffffffffffffffffffffffff168152602001908152602001600020819055505050505050505062000468565b600033905090565b828054620000ef906200035f565b90600052602060002090601f0160209004810192826200011357600085556200015f565b82601f106200012e57805160ff19168380011785556200015f565b828001600101855582156200015f579182015b828111156200015e57825182559160200191906001019062000141565b5b5090506200016e919062000172565b5090565b5b808211156200018d57600081600090555060010162000173565b5090565b6000620001a8620001a284620002e9565b620002c0565b905082815260208101848484011115620001c757620001c66200042e565b5b620001d484828562000329565b509392505050565b600082601f830112620001f457620001f362000429565b5b81516200020684826020860162000191565b91505092915050565b60008151905062000220816200044e565b92915050565b60008060006060848603121562000242576200024162000438565b5b600084015167ffffffffffffffff81111562000263576200026262000433565b5b6200027186828701620001dc565b935050602084015167ffffffffffffffff81111562000295576200029462000433565b5b620002a386828701620001dc565b9250506040620002b6868287016200020f565b9150509250925092565b6000620002cc620002df565b9050620002da828262000395565b919050565b6000604051905090565b600067ffffffffffffffff821115620003075762000306620003fa565b5b62000312826200043d565b9050602081019050919050565b6000819050919050565b60005b83811015620003495780820151818401526020810190506200032c565b8381111562000359576000848401525b50505050565b600060028204905060018216806200037857607f821691505b602082108114156200038f576200038e620003cb565b5b50919050565b620003a0826200043d565b810181811067ffffffffffffffff82111715620003c257620003c1620003fa565b5b80604052505050565b7f4e487b7100000000000000000000000000000000000000000000000000000000600052602260045260246000fd5b7f4e487b7100000000000000000000000000000000000000000000000000000000600052604160045260246000fd5b600080fd5b600080fd5b600080fd5b600080fd5b6000601f19601f8301169050919050565b62000459816200031f565b81146200046557600080fd5b50565b611f8780620004786000396000f3fe608060405234801561001057600080fd5b50600436106101005760003560e01c806340c10f1911610097578063a457c2d711610066578063a457c2d7146102c1578063a9059cbb146102f1578063bb9c1ad914610321578063dd62ed3e1461035157610100565b806340c10f191461023b57806342966c681461025757806370a082311461027357806395d89b41146102a357610100565b80632eabc917116100d35780632eabc917146101a1578063313ce567146101bd57806339509351146101db5780633f50a7051461020b57610100565b806306fdde0314610105578063095ea7b31461012357806318160ddd1461015357806323b872dd14610171575b600080fd5b61010d610381565b60405161011a91906116cc565b60405180910390f35b61013d600480360381019061013891906112d2565b610390565b60405161014a91906116b1565b60405180910390f35b61015b6103b3565b604051610168919061188e565b60405180910390f35b61018b6004803603810190610186919061127f565b6103c2565b60405161019891906116b1565b60405180910390f35b6101bb60048036038101906101b691906113cc565b6103f1565b005b6101c561047d565b6040516101d291906118a9565b60405180910390f35b6101f560048036038101906101f091906112d2565b610486565b60405161020291906116b1565b60405180910390f35b61022560048036038101906102209190611365565b6104bd565b60405161023291906116b1565b60405180910390f35b610255600480360381019061025091906112d2565b610530565b005b610271600480360381019061026c9190611457565b61053e565b005b61028d60048036038101906102889190611212565b610552565b60405161029a919061188e565b60405180910390f35b6102ab610564565b6040516102b891906116cc565b60405180910390f35b6102db60048036038101906102d691906112d2565b610573565b6040516102e891906116b1565b60405180910390f35b61030b600480360381019061030691906112d2565b6105ea565b60405161031891906116b1565b60405180910390f35b61033b60048036038101906103369190611312565b61060d565b60405161034891906116b1565b60405180910390f35b61036b6004803603810190610366919061123f565b6106d2565b604051610378919061188e565b60405180910390f35b606061038b610759565b905090565b60008061039b6107eb565b90506103a88185856107f3565b600191505092915050565b60006103bd6109be565b905090565b6000806103cd6107eb565b90506103da8582856109c8565b6103e5858585610a54565b60019150509392505050565b82600390805190602001906104079291906110d5565b50816004908051906020019061041e9291906110d5565b508060028190555060006104306107eb565b90506002546000808373ffffffffffffffffffffffffffffffffffffffff1673ffffffffffffffffffffffffffffffffffffffff1681526020019081526020016000208190555050505050565b60006012905090565b6000806104916107eb565b90506104b28185856104a385896106d2565b6104ad9190611936565b6107f3565b600191505092915050565b6000808311610501576040517f08c379a00000000000000000000000000000000000000000000000000000000081526004016104f8906117ce565b60405180910390fd5b600061050b6107eb565b9050610518818486610a54565b610523818787610a54565b6001915050949350505050565b61053a8282610ccc565b5050565b61054f6105496107eb565b82610e23565b50565b600061055d82610ff1565b9050919050565b606061056e611039565b905090565b60008061057e6107eb565b9050600061058c82866106d2565b9050838110156105d1576040517f08c379a00000000000000000000000000000000000000000000000000000000081526004016105c89061184e565b60405180910390fd5b6105de82868684036107f3565b60019250505092915050565b6000806105f56107eb565b9050610602818585610a54565b600191505092915050565b6000808211610651576040517f08c379a00000000000000000000000000000000000000000000000000000000081526004016106489061176e565b60405180910390fd5b82821115610694576040517f08c379a000000000000000000000000000000000000000000000000000000000815260040161068b9061170e565b60405180910390fd5b600061069e6107eb565b9050600083856106ae919061198c565b90506106ba8285610e23565b6106c5828783610a54565b6001925050509392505050565b6000600160008473ffffffffffffffffffffffffffffffffffffffff1673ffffffffffffffffffffffffffffffffffffffff16815260200190815260200160002060008373ffffffffffffffffffffffffffffffffffffffff1673ffffffffffffffffffffffffffffffffffffffff16815260200190815260200160002054905092915050565b60606003805461076890611a57565b80601f016020809104026020016040519081016040528092919081815260200182805461079490611a57565b80156107e15780601f106107b6576101008083540402835291602001916107e1565b820191906000526020600020905b8154815290600101906020018083116107c457829003601f168201915b5050505050905090565b600033905090565b600073ffffffffffffffffffffffffffffffffffffffff168373ffffffffffffffffffffffffffffffffffffffff161415610863576040517f08c379a000000000000000000000000000000000000000000000000000000000815260040161085a9061182e565b60405180910390fd5b600073ffffffffffffffffffffffffffffffffffffffff168273ffffffffffffffffffffffffffffffffffffffff1614156108d3576040517f08c379a00000000000000000000000000000000000000000000000000000000081526004016108ca9061174e565b60405180910390fd5b80600160008573ffffffffffffffffffffffffffffffffffffffff1673ffffffffffffffffffffffffffffffffffffffff16815260200190815260200160002060008473ffffffffffffffffffffffffffffffffffffffff1673ffffffffffffffffffffffffffffffffffffffff168152602001908152602001600020819055508173ffffffffffffffffffffffffffffffffffffffff168373ffffffffffffffffffffffffffffffffffffffff167f8c5be1e5ebec7d5bd14f71427d1e84f3dd0314c0f7b2291e5b200ac8c7c3b925836040516109b1919061188e565b60405180910390a3505050565b6000600254905090565b60006109d484846106d2565b90507fffffffffffffffffffffffffffffffffffffffffffffffffffffffffffffffff8114610a4e5781811015610a40576040517f08c379a0000000000000000000000000000000000000000000000000000000008152600401610a379061178e565b60405180910390fd5b610a4d84848484036107f3565b5b50505050565b600073ffffffffffffffffffffffffffffffffffffffff168373ffffffffffffffffffffffffffffffffffffffff161415610ac4576040517f08c379a0000000000000000000000000000000000000000000000000000000008152600401610abb9061180e565b60405180910390fd5b600073ffffffffffffffffffffffffffffffffffffffff168273ffffffffffffffffffffffffffffffffffffffff161415610b34576040517f08c379a0000000000000000000000000000000000000000000000000000000008152600401610b2b906116ee565b60405180910390fd5b610b3f8383836110cb565b60008060008573ffffffffffffffffffffffffffffffffffffffff1673ffffffffffffffffffffffffffffffffffffffff16815260200190815260200160002054905081811015610bc5576040517f08c379a0000000000000000000000000000000000000000000000000000000008152600401610bbc906117ae565b60405180910390fd5b8181036000808673ffffffffffffffffffffffffffffffffffffffff1673ffffffffffffffffffffffffffffffffffffffff16815260200190815260200160002081905550816000808573ffffffffffffffffffffffffffffffffffffffff1673ffffffffffffffffffffffffffffffffffffffff168152602001908152602001600020600082825401925050819055508273ffffffffffffffffffffffffffffffffffffffff168473ffffffffffffffffffffffffffffffffffffffff167fddf252ad1be2c89b69c2b068fc378daa952ba7f163c4a11628f55a4df523b3ef84604051610cb3919061188e565b60405180910390a3610cc68484846110d0565b50505050565b600073ffffffffffffffffffffffffffffffffffffffff168273ffffffffffffffffffffffffffffffffffffffff161415610d3c576040517f08c379a0000000000000000000000000000000000000000000000000000000008152600401610d339061186e565b60405180910390fd5b610d48600083836110cb565b8060026000828254610d5a9190611936565b92505081905550806000808473ffffffffffffffffffffffffffffffffffffffff1673ffffffffffffffffffffffffffffffffffffffff168152602001908152602001600020600082825401925050819055508173ffffffffffffffffffffffffffffffffffffffff16600073ffffffffffffffffffffffffffffffffffffffff167fddf252ad1be2c89b69c2b068fc378daa952ba7f163c4a11628f55a4df523b3ef83604051610e0b919061188e565b60405180910390a3610e1f600083836110d0565b5050565b600073ffffffffffffffffffffffffffffffffffffffff168273ffffffffffffffffffffffffffffffffffffffff161415610e93576040517f08c379a0000000000000000000000000000000000000000000000000000000008152600401610e8a906117ee565b60405180910390fd5b610e9f826000836110cb565b60008060008473ffffffffffffffffffffffffffffffffffffffff1673ffffffffffffffffffffffffffffffffffffffff16815260200190815260200160002054905081811015610f25576040517f08c379a0000000000000000000000000000000000000000000000000000000008152600401610f1c9061172e565b60405180910390fd5b8181036000808573ffffffffffffffffffffffffffffffffffffffff1673ffffffffffffffffffffffffffffffffffffffff1681526020019081526020016000208190555081600260008282540392505081905550600073ffffffffffffffffffffffffffffffffffffffff168373ffffffffffffffffffffffffffffffffffffffff167fddf252ad1be2c89b69c2b068fc378daa952ba7f163c4a11628f55a4df523b3ef84604051610fd8919061188e565b60405180910390a3610fec836000846110d0565b505050565b60008060008373ffffffffffffffffffffffffffffffffffffffff1673ffffffffffffffffffffffffffffffffffffffff168152602001908152602001600020549050919050565b60606004805461104890611a57565b80601f016020809104026020016040519081016040528092919081815260200182805461107490611a57565b80156110c15780601f10611096576101008083540402835291602001916110c1565b820191906000526020600020905b8154815290600101906020018083116110a457829003601f168201915b5050505050905090565b505050565b505050565b8280546110e190611a57565b90600052602060002090601f016020900481019282611103576000855561114a565b82601f1061111c57805160ff191683800117855561114a565b8280016001018555821561114a579182015b8281111561114957825182559160200191906001019061112e565b5b509050611157919061115b565b5090565b5b8082111561117457600081600090555060010161115c565b5090565b600061118b611186846118e9565b6118c4565b9050828152602081018484840111156111a7576111a6611b4c565b5b6111b2848285611a15565b509392505050565b6000813590506111c981611f23565b92915050565b600082601f8301126111e4576111e3611b47565b5b81356111f4848260208601611178565b91505092915050565b60008135905061120c81611f3a565b92915050565b60006020828403121561122857611227611b56565b5b6000611236848285016111ba565b91505092915050565b6000806040838503121561125657611255611b56565b5b6000611264858286016111ba565b9250506020611275858286016111ba565b9150509250929050565b60008060006060848603121561129857611297611b56565b5b60006112a6868287016111ba565b93505060206112b7868287016111ba565b92505060406112c8868287016111fd565b9150509250925092565b600080604083850312156112e9576112e8611b56565b5b60006112f7858286016111ba565b9250506020611308858286016111fd565b9150509250929050565b60008060006060848603121561132b5761132a611b56565b5b6000611339868287016111ba565b935050602061134a868287016111fd565b925050604061135b868287016111fd565b9150509250925092565b6000806000806080858703121561137f5761137e611b56565b5b600061138d878288016111ba565b945050602061139e878288016111fd565b93505060406113af878288016111fd565b92505060606113c0878288016111ba565b91505092959194509250565b6000806000606084860312156113e5576113e4611b56565b5b600084013567ffffffffffffffff81111561140357611402611b51565b5b61140f868287016111cf565b935050602084013567ffffffffffffffff8111156114305761142f611b51565b5b61143c868287016111cf565b925050604061144d868287016111fd565b9150509250925092565b60006020828403121561146d5761146c611b56565b5b600061147b848285016111fd565b91505092915050565b61148d816119d2565b82525050565b600061149e8261191a565b6114a88185611925565b93506114b8818560208601611a24565b6114c181611b5b565b840191505092915050565b60006114d9602383611925565b91506114e482611b6c565b604082019050919050565b60006114fc603d83611925565b915061150782611bbb565b604082019050919050565b600061151f602283611925565b915061152a82611c0a565b604082019050919050565b6000611542602283611925565b915061154d82611c59565b604082019050919050565b6000611565602583611925565b915061157082611ca8565b604082019050919050565b6000611588601d83611925565b915061159382611cf7565b602082019050919050565b60006115ab602683611925565b91506115b682611d20565b604082019050919050565b60006115ce602483611925565b91506115d982611d6f565b604082019050919050565b60006115f1602183611925565b91506115fc82611dbe565b604082019050919050565b6000611614602583611925565b915061161f82611e0d565b604082019050919050565b6000611637602483611925565b915061164282611e5c565b604082019050919050565b600061165a602583611925565b915061166582611eab565b604082019050919050565b600061167d601f83611925565b915061168882611efa565b602082019050919050565b61169c816119fe565b82525050565b6116ab81611a08565b82525050565b60006020820190506116c66000830184611484565b92915050565b600060208201905081810360008301526116e68184611493565b905092915050565b60006020820190508181036000830152611707816114cc565b9050919050565b60006020820190508181036000830152611727816114ef565b9050919050565b6000602082019050818103600083015261174781611512565b9050919050565b6000602082019050818103600083015261176781611535565b9050919050565b6000602082019050818103600083015261178781611558565b9050919050565b600060208201905081810360008301526117a78161157b565b9050919050565b600060208201905081810360008301526117c78161159e565b9050919050565b600060208201905081810360008301526117e7816115c1565b9050919050565b60006020820190508181036000830152611807816115e4565b9050919050565b6000602082019050818103600083015261182781611607565b9050919050565b600060208201905081810360008301526118478161162a565b9050919050565b600060208201905081810360008301526118678161164d565b9050919050565b6000602082019050818103600083015261188781611670565b9050919050565b60006020820190506118a36000830184611693565b92915050565b60006020820190506118be60008301846116a2565b92915050565b60006118ce6118df565b90506118da8282611a89565b919050565b6000604051905090565b600067ffffffffffffffff82111561190457611903611b18565b5b61190d82611b5b565b9050602081019050919050565b600081519050919050565b600082825260208201905092915050565b6000611941826119fe565b915061194c836119fe565b9250827fffffffffffffffffffffffffffffffffffffffffffffffffffffffffffffffff0382111561198157611980611aba565b5b828201905092915050565b6000611997826119fe565b91506119a2836119fe565b9250828210156119b5576119b4611aba565b5b828203905092915050565b60006119cb826119de565b9050919050565b60008115159050919050565b600073ffffffffffffffffffffffffffffffffffffffff82169050919050565b6000819050919050565b600060ff82169050919050565b82818337600083830152505050565b60005b83811015611a42578082015181840152602081019050611a27565b83811115611a51576000848401525b50505050565b60006002820490506001821680611a6f57607f821691505b60208210811415611a8357611a82611ae9565b5b50919050565b611a9282611b5b565b810181811067ffffffffffffffff82111715611ab157611ab0611b18565b5b80604052505050565b7f4e487b7100000000000000000000000000000000000000000000000000000000600052601160045260246000fd5b7f4e487b7100000000000000000000000000000000000000000000000000000000600052602260045260246000fd5b7f4e487b7100000000000000000000000000000000000000000000000000000000600052604160045260246000fd5b600080fd5b600080fd5b600080fd5b600080fd5b6000601f19601f8301169050919050565b7f45524332303a207472616e7366657220746f20746865207a65726f206164647260008201527f6573730000000000000000000000000000000000000000000000000000000000602082015250565b7f4275726e20616d6f756e74206d757374206265206c657373207468616e206f7260008201527f20657175616c20746f20746865207472616e7366657220616d6f756e74000000602082015250565b7f45524332303a206275726e20616d6f756e7420657863656564732062616c616e60008201527f6365000000000000000000000000000000000000000000000000000000000000602082015250565b7f45524332303a20617070726f766520746f20746865207a65726f20616464726560008201527f7373000000000000000000000000000000000000000000000000000000000000602082015250565b7f4275726e20616d6f756e74206d7573742062652067726561746572207468616e60008201527f207a65726f000000000000000000000000000000000000000000000000000000602082015250565b7f45524332303a20696e73756666696369656e7420616c6c6f77616e6365000000600082015250565b7f45524332303a207472616e7366657220616d6f756e742065786365656473206260008201527f616c616e63650000000000000000000000000000000000000000000000000000602082015250565b7f46656520616d6f756e74206d7573742062652067726561746572207468616e2060008201527f7a65726f00000000000000000000000000000000000000000000000000000000602082015250565b7f45524332303a206275726e2066726f6d20746865207a65726f2061646472657360008201527f7300000000000000000000000000000000000000000000000000000000000000602082015250565b7f45524332303a207472616e736665722066726f6d20746865207a65726f20616460008201527f6472657373000000000000000000000000000000000000000000000000000000602082015250565b7f45524332303a20617070726f76652066726f6d20746865207a65726f2061646460008201527f7265737300000000000000000000000000000000000000000000000000000000602082015250565b7f45524332303a2064656372656173656420616c6c6f77616e63652062656c6f7760008201527f207a65726f000000000000000000000000000000000000000000000000000000602082015250565b7f45524332303a206d696e7420746f20746865207a65726f206164647265737300600082015250565b611f2c816119c0565b8114611f3757600080fd5b50565b611f43816119fe565b8114611f4e57600080fd5b5056fea2646970667358221220ae7566dea550f24633237325eedd3ca5a8a229f6702be115d2201939e9519a5264736f6c63430008070033",
					"opcodes": "PUSH1 0x80 PUSH1 0x40 MSTORE CALLVALUE DUP1 ISZERO PUSH3 0x11 JUMPI PUSH1 0x0 DUP1 REVERT JUMPDEST POP PUSH1 0x40 MLOAD PUSH3 0x23FF CODESIZE SUB DUP1 PUSH3 0x23FF DUP4 CODECOPY DUP2 DUP2 ADD PUSH1 0x40 MSTORE DUP2 ADD SWAP1 PUSH3 0x37 SWAP2 SWAP1 PUSH3 0x226 JUMP JUMPDEST DUP3 DUP3 DUP3 DUP3 PUSH1 0x3 SWAP1 DUP1 MLOAD SWAP1 PUSH1 0x20 ADD SWAP1 PUSH3 0x52 SWAP3 SWAP2 SWAP1 PUSH3 0xE1 JUMP JUMPDEST POP DUP2 PUSH1 0x4 SWAP1 DUP1 MLOAD SWAP1 PUSH1 0x20 ADD SWAP1 PUSH3 0x6B SWAP3 SWAP2 SWAP1 PUSH3 0xE1 JUMP JUMPDEST POP DUP1 PUSH1 0x2 DUP2 SWAP1 SSTORE POP PUSH1 0x0 PUSH3 0x85 PUSH3 0xD9 PUSH1 0x20 SHL PUSH1 0x20 SHR JUMP JUMPDEST SWAP1 POP PUSH1 0x2 SLOAD PUSH1 0x0 DUP1 DUP4 PUSH20 0xFFFFFFFFFFFFFFFFFFFFFFFFFFFFFFFFFFFFFFFF AND PUSH20 0xFFFFFFFFFFFFFFFFFFFFFFFFFFFFFFFFFFFFFFFF AND DUP2 MSTORE PUSH1 0x20 ADD SWAP1 DUP2 MSTORE PUSH1 0x20 ADD PUSH1 0x0 KECCAK256 DUP2 SWAP1 SSTORE POP POP POP POP POP POP POP POP PUSH3 0x468 JUMP JUMPDEST PUSH1 0x0 CALLER SWAP1 POP SWAP1 JUMP JUMPDEST DUP3 DUP1 SLOAD PUSH3 0xEF SWAP1 PUSH3 0x35F JUMP JUMPDEST SWAP1 PUSH1 0x0 MSTORE PUSH1 0x20 PUSH1 0x0 KECCAK256 SWAP1 PUSH1 0x1F ADD PUSH1 0x20 SWAP1 DIV DUP2 ADD SWAP3 DUP3 PUSH3 0x113 JUMPI PUSH1 0x0 DUP6 SSTORE PUSH3 0x15F JUMP JUMPDEST DUP3 PUSH1 0x1F LT PUSH3 0x12E JUMPI DUP1 MLOAD PUSH1 0xFF NOT AND DUP4 DUP1 ADD OR DUP6 SSTORE PUSH3 0x15F JUMP JUMPDEST DUP3 DUP1 ADD PUSH1 0x1 ADD DUP6 SSTORE DUP3 ISZERO PUSH3 0x15F JUMPI SWAP2 DUP3 ADD JUMPDEST DUP3 DUP2 GT ISZERO PUSH3 0x15E JUMPI DUP3 MLOAD DUP3 SSTORE SWAP2 PUSH1 0x20 ADD SWAP2 SWAP1 PUSH1 0x1 ADD SWAP1 PUSH3 0x141 JUMP JUMPDEST JUMPDEST POP SWAP1 POP PUSH3 0x16E SWAP2 SWAP1 PUSH3 0x172 JUMP JUMPDEST POP SWAP1 JUMP JUMPDEST JUMPDEST DUP1 DUP3 GT ISZERO PUSH3 0x18D JUMPI PUSH1 0x0 DUP2 PUSH1 0x0 SWAP1 SSTORE POP PUSH1 0x1 ADD PUSH3 0x173 JUMP JUMPDEST POP SWAP1 JUMP JUMPDEST PUSH1 0x0 PUSH3 0x1A8 PUSH3 0x1A2 DUP5 PUSH3 0x2E9 JUMP JUMPDEST PUSH3 0x2C0 JUMP JUMPDEST SWAP1 POP DUP3 DUP2 MSTORE PUSH1 0x20 DUP2 ADD DUP5 DUP5 DUP5 ADD GT ISZERO PUSH3 0x1C7 JUMPI PUSH3 0x1C6 PUSH3 0x42E JUMP JUMPDEST JUMPDEST PUSH3 0x1D4 DUP5 DUP3 DUP6 PUSH3 0x329 JUMP JUMPDEST POP SWAP4 SWAP3 POP POP POP JUMP JUMPDEST PUSH1 0x0 DUP3 PUSH1 0x1F DUP4 ADD SLT PUSH3 0x1F4 JUMPI PUSH3 0x1F3 PUSH3 0x429 JUMP JUMPDEST JUMPDEST DUP2 MLOAD PUSH3 0x206 DUP5 DUP3 PUSH1 0x20 DUP7 ADD PUSH3 0x191 JUMP JUMPDEST SWAP2 POP POP SWAP3 SWAP2 POP POP JUMP JUMPDEST PUSH1 0x0 DUP2 MLOAD SWAP1 POP PUSH3 0x220 DUP2 PUSH3 0x44E JUMP JUMPDEST SWAP3 SWAP2 POP POP JUMP JUMPDEST PUSH1 0x0 DUP1 PUSH1 0x0 PUSH1 0x60 DUP5 DUP7 SUB SLT ISZERO PUSH3 0x242 JUMPI PUSH3 0x241 PUSH3 0x438 JUMP JUMPDEST JUMPDEST PUSH1 0x0 DUP5 ADD MLOAD PUSH8 0xFFFFFFFFFFFFFFFF DUP2 GT ISZERO PUSH3 0x263 JUMPI PUSH3 0x262 PUSH3 0x433 JUMP JUMPDEST JUMPDEST PUSH3 0x271 DUP7 DUP3 DUP8 ADD PUSH3 0x1DC JUMP JUMPDEST SWAP4 POP POP PUSH1 0x20 DUP5 ADD MLOAD PUSH8 0xFFFFFFFFFFFFFFFF DUP2 GT ISZERO PUSH3 0x295 JUMPI PUSH3 0x294 PUSH3 0x433 JUMP JUMPDEST JUMPDEST PUSH3 0x2A3 DUP7 DUP3 DUP8 ADD PUSH3 0x1DC JUMP JUMPDEST SWAP3 POP POP PUSH1 0x40 PUSH3 0x2B6 DUP7 DUP3 DUP8 ADD PUSH3 0x20F JUMP JUMPDEST SWAP2 POP POP SWAP3 POP SWAP3 POP SWAP3 JUMP JUMPDEST PUSH1 0x0 PUSH3 0x2CC PUSH3 0x2DF JUMP JUMPDEST SWAP1 POP PUSH3 0x2DA DUP3 DUP3 PUSH3 0x395 JUMP JUMPDEST SWAP2 SWAP1 POP JUMP JUMPDEST PUSH1 0x0 PUSH1 0x40 MLOAD SWAP1 POP SWAP1 JUMP JUMPDEST PUSH1 0x0 PUSH8 0xFFFFFFFFFFFFFFFF DUP3 GT ISZERO PUSH3 0x307 JUMPI PUSH3 0x306 PUSH3 0x3FA JUMP JUMPDEST JUMPDEST PUSH3 0x312 DUP3 PUSH3 0x43D JUMP JUMPDEST SWAP1 POP PUSH1 0x20 DUP2 ADD SWAP1 POP SWAP2 SWAP1 POP JUMP JUMPDEST PUSH1 0x0 DUP2 SWAP1 POP SWAP2 SWAP1 POP JUMP JUMPDEST PUSH1 0x0 JUMPDEST DUP4 DUP2 LT ISZERO PUSH3 0x349 JUMPI DUP1 DUP3 ADD MLOAD DUP2 DUP5 ADD MSTORE PUSH1 0x20 DUP2 ADD SWAP1 POP PUSH3 0x32C JUMP JUMPDEST DUP4 DUP2 GT ISZERO PUSH3 0x359 JUMPI PUSH1 0x0 DUP5 DUP5 ADD MSTORE JUMPDEST POP POP POP POP JUMP JUMPDEST PUSH1 0x0 PUSH1 0x2 DUP3 DIV SWAP1 POP PUSH1 0x1 DUP3 AND DUP1 PUSH3 0x378 JUMPI PUSH1 0x7F DUP3 AND SWAP2 POP JUMPDEST PUSH1 0x20 DUP3 LT DUP2 EQ ISZERO PUSH3 0x38F JUMPI PUSH3 0x38E PUSH3 0x3CB JUMP JUMPDEST JUMPDEST POP SWAP2 SWAP1 POP JUMP JUMPDEST PUSH3 0x3A0 DUP3 PUSH3 0x43D JUMP JUMPDEST DUP2 ADD DUP2 DUP2 LT PUSH8 0xFFFFFFFFFFFFFFFF DUP3 GT OR ISZERO PUSH3 0x3C2 JUMPI PUSH3 0x3C1 PUSH3 0x3FA JUMP JUMPDEST JUMPDEST DUP1 PUSH1 0x40 MSTORE POP POP POP JUMP JUMPDEST PUSH32 0x4E487B7100000000000000000000000000000000000000000000000000000000 PUSH1 0x0 MSTORE PUSH1 0x22 PUSH1 0x4 MSTORE PUSH1 0x24 PUSH1 0x0 REVERT JUMPDEST PUSH32 0x4E487B7100000000000000000000000000000000000000000000000000000000 PUSH1 0x0 MSTORE PUSH1 0x41 PUSH1 0x4 MSTORE PUSH1 0x24 PUSH1 0x0 REVERT JUMPDEST PUSH1 0x0 DUP1 REVERT JUMPDEST PUSH1 0x0 DUP1 REVERT JUMPDEST PUSH1 0x0 DUP1 REVERT JUMPDEST PUSH1 0x0 DUP1 REVERT JUMPDEST PUSH1 0x0 PUSH1 0x1F NOT PUSH1 0x1F DUP4 ADD AND SWAP1 POP SWAP2 SWAP1 POP JUMP JUMPDEST PUSH3 0x459 DUP2 PUSH3 0x31F JUMP JUMPDEST DUP2 EQ PUSH3 0x465 JUMPI PUSH1 0x0 DUP1 REVERT JUMPDEST POP JUMP JUMPDEST PUSH2 0x1F87 DUP1 PUSH3 0x478 PUSH1 0x0 CODECOPY PUSH1 0x0 RETURN INVALID PUSH1 0x80 PUSH1 0x40 MSTORE CALLVALUE DUP1 ISZERO PUSH2 0x10 JUMPI PUSH1 0x0 DUP1 REVERT JUMPDEST POP PUSH1 0x4 CALLDATASIZE LT PUSH2 0x100 JUMPI PUSH1 0x0 CALLDATALOAD PUSH1 0xE0 SHR DUP1 PUSH4 0x40C10F19 GT PUSH2 0x97 JUMPI DUP1 PUSH4 0xA457C2D7 GT PUSH2 0x66 JUMPI DUP1 PUSH4 0xA457C2D7 EQ PUSH2 0x2C1 JUMPI DUP1 PUSH4 0xA9059CBB EQ PUSH2 0x2F1 JUMPI DUP1 PUSH4 0xBB9C1AD9 EQ PUSH2 0x321 JUMPI DUP1 PUSH4 0xDD62ED3E EQ PUSH2 0x351 JUMPI PUSH2 0x100 JUMP JUMPDEST DUP1 PUSH4 0x40C10F19 EQ PUSH2 0x23B JUMPI DUP1 PUSH4 0x42966C68 EQ PUSH2 0x257 JUMPI DUP1 PUSH4 0x70A08231 EQ PUSH2 0x273 JUMPI DUP1 PUSH4 0x95D89B41 EQ PUSH2 0x2A3 JUMPI PUSH2 0x100 JUMP JUMPDEST DUP1 PUSH4 0x2EABC917 GT PUSH2 0xD3 JUMPI DUP1 PUSH4 0x2EABC917 EQ PUSH2 0x1A1 JUMPI DUP1 PUSH4 0x313CE567 EQ PUSH2 0x1BD JUMPI DUP1 PUSH4 0x39509351 EQ PUSH2 0x1DB JUMPI DUP1 PUSH4 0x3F50A705 EQ PUSH2 0x20B JUMPI PUSH2 0x100 JUMP JUMPDEST DUP1 PUSH4 0x6FDDE03 EQ PUSH2 0x105 JUMPI DUP1 PUSH4 0x95EA7B3 EQ PUSH2 0x123 JUMPI DUP1 PUSH4 0x18160DDD EQ PUSH2 0x153 JUMPI DUP1 PUSH4 0x23B872DD EQ PUSH2 0x171 JUMPI JUMPDEST PUSH1 0x0 DUP1 REVERT JUMPDEST PUSH2 0x10D PUSH2 0x381 JUMP JUMPDEST PUSH1 0x40 MLOAD PUSH2 0x11A SWAP2 SWAP1 PUSH2 0x16CC JUMP JUMPDEST PUSH1 0x40 MLOAD DUP1 SWAP2 SUB SWAP1 RETURN JUMPDEST PUSH2 0x13D PUSH1 0x4 DUP1 CALLDATASIZE SUB DUP2 ADD SWAP1 PUSH2 0x138 SWAP2 SWAP1 PUSH2 0x12D2 JUMP JUMPDEST PUSH2 0x390 JUMP JUMPDEST PUSH1 0x40 MLOAD PUSH2 0x14A SWAP2 SWAP1 PUSH2 0x16B1 JUMP JUMPDEST PUSH1 0x40 MLOAD DUP1 SWAP2 SUB SWAP1 RETURN JUMPDEST PUSH2 0x15B PUSH2 0x3B3 JUMP JUMPDEST PUSH1 0x40 MLOAD PUSH2 0x168 SWAP2 SWAP1 PUSH2 0x188E JUMP JUMPDEST PUSH1 0x40 MLOAD DUP1 SWAP2 SUB SWAP1 RETURN JUMPDEST PUSH2 0x18B PUSH1 0x4 DUP1 CALLDATASIZE SUB DUP2 ADD SWAP1 PUSH2 0x186 SWAP2 SWAP1 PUSH2 0x127F JUMP JUMPDEST PUSH2 0x3C2 JUMP JUMPDEST PUSH1 0x40 MLOAD PUSH2 0x198 SWAP2 SWAP1 PUSH2 0x16B1 JUMP JUMPDEST PUSH1 0x40 MLOAD DUP1 SWAP2 SUB SWAP1 RETURN JUMPDEST PUSH2 0x1BB PUSH1 0x4 DUP1 CALLDATASIZE SUB DUP2 ADD SWAP1 PUSH2 0x1B6 SWAP2 SWAP1 PUSH2 0x13CC JUMP JUMPDEST PUSH2 0x3F1 JUMP JUMPDEST STOP JUMPDEST PUSH2 0x1C5 PUSH2 0x47D JUMP JUMPDEST PUSH1 0x40 MLOAD PUSH2 0x1D2 SWAP2 SWAP1 PUSH2 0x18A9 JUMP JUMPDEST PUSH1 0x40 MLOAD DUP1 SWAP2 SUB SWAP1 RETURN JUMPDEST PUSH2 0x1F5 PUSH1 0x4 DUP1 CALLDATASIZE SUB DUP2 ADD SWAP1 PUSH2 0x1F0 SWAP2 SWAP1 PUSH2 0x12D2 JUMP JUMPDEST PUSH2 0x486 JUMP JUMPDEST PUSH1 0x40 MLOAD PUSH2 0x202 SWAP2 SWAP1 PUSH2 0x16B1 JUMP JUMPDEST PUSH1 0x40 MLOAD DUP1 SWAP2 SUB SWAP1 RETURN JUMPDEST PUSH2 0x225 PUSH1 0x4 DUP1 CALLDATASIZE SUB DUP2 ADD SWAP1 PUSH2 0x220 SWAP2 SWAP1 PUSH2 0x1365 JUMP JUMPDEST PUSH2 0x4BD JUMP JUMPDEST PUSH1 0x40 MLOAD PUSH2 0x232 SWAP2 SWAP1 PUSH2 0x16B1 JUMP JUMPDEST PUSH1 0x40 MLOAD DUP1 SWAP2 SUB SWAP1 RETURN JUMPDEST PUSH2 0x255 PUSH1 0x4 DUP1 CALLDATASIZE SUB DUP2 ADD SWAP1 PUSH2 0x250 SWAP2 SWAP1 PUSH2 0x12D2 JUMP JUMPDEST PUSH2 0x530 JUMP JUMPDEST STOP JUMPDEST PUSH2 0x271 PUSH1 0x4 DUP1 CALLDATASIZE SUB DUP2 ADD SWAP1 PUSH2 0x26C SWAP2 SWAP1 PUSH2 0x1457 JUMP JUMPDEST PUSH2 0x53E JUMP JUMPDEST STOP JUMPDEST PUSH2 0x28D PUSH1 0x4 DUP1 CALLDATASIZE SUB DUP2 ADD SWAP1 PUSH2 0x288 SWAP2 SWAP1 PUSH2 0x1212 JUMP JUMPDEST PUSH2 0x552 JUMP JUMPDEST PUSH1 0x40 MLOAD PUSH2 0x29A SWAP2 SWAP1 PUSH2 0x188E JUMP JUMPDEST PUSH1 0x40 MLOAD DUP1 SWAP2 SUB SWAP1 RETURN JUMPDEST PUSH2 0x2AB PUSH2 0x564 JUMP JUMPDEST PUSH1 0x40 MLOAD PUSH2 0x2B8 SWAP2 SWAP1 PUSH2 0x16CC JUMP JUMPDEST PUSH1 0x40 MLOAD DUP1 SWAP2 SUB SWAP1 RETURN JUMPDEST PUSH2 0x2DB PUSH1 0x4 DUP1 CALLDATASIZE SUB DUP2 ADD SWAP1 PUSH2 0x2D6 SWAP2 SWAP1 PUSH2 0x12D2 JUMP JUMPDEST PUSH2 0x573 JUMP JUMPDEST PUSH1 0x40 MLOAD PUSH2 0x2E8 SWAP2 SWAP1 PUSH2 0x16B1 JUMP JUMPDEST PUSH1 0x40 MLOAD DUP1 SWAP2 SUB SWAP1 RETURN JUMPDEST PUSH2 0x30B PUSH1 0x4 DUP1 CALLDATASIZE SUB DUP2 ADD SWAP1 PUSH2 0x306 SWAP2 SWAP1 PUSH2 0x12D2 JUMP JUMPDEST PUSH2 0x5EA JUMP JUMPDEST PUSH1 0x40 MLOAD PUSH2 0x318 SWAP2 SWAP1 PUSH2 0x16B1 JUMP JUMPDEST PUSH1 0x40 MLOAD DUP1 SWAP2 SUB SWAP1 RETURN JUMPDEST PUSH2 0x33B PUSH1 0x4 DUP1 CALLDATASIZE SUB DUP2 ADD SWAP1 PUSH2 0x336 SWAP2 SWAP1 PUSH2 0x1312 JUMP JUMPDEST PUSH2 0x60D JUMP JUMPDEST PUSH1 0x40 MLOAD PUSH2 0x348 SWAP2 SWAP1 PUSH2 0x16B1 JUMP JUMPDEST PUSH1 0x40 MLOAD DUP1 SWAP2 SUB SWAP1 RETURN JUMPDEST PUSH2 0x36B PUSH1 0x4 DUP1 CALLDATASIZE SUB DUP2 ADD SWAP1 PUSH2 0x366 SWAP2 SWAP1 PUSH2 0x123F JUMP JUMPDEST PUSH2 0x6D2 JUMP JUMPDEST PUSH1 0x40 MLOAD PUSH2 0x378 SWAP2 SWAP1 PUSH2 0x188E JUMP JUMPDEST PUSH1 0x40 MLOAD DUP1 SWAP2 SUB SWAP1 RETURN JUMPDEST PUSH1 0x60 PUSH2 0x38B PUSH2 0x759 JUMP JUMPDEST SWAP1 POP SWAP1 JUMP JUMPDEST PUSH1 0x0 DUP1 PUSH2 0x39B PUSH2 0x7EB JUMP JUMPDEST SWAP1 POP PUSH2 0x3A8 DUP2 DUP6 DUP6 PUSH2 0x7F3 JUMP JUMPDEST PUSH1 0x1 SWAP2 POP POP SWAP3 SWAP2 POP POP JUMP JUMPDEST PUSH1 0x0 PUSH2 0x3BD PUSH2 0x9BE JUMP JUMPDEST SWAP1 POP SWAP1 JUMP JUMPDEST PUSH1 0x0 DUP1 PUSH2 0x3CD PUSH2 0x7EB JUMP JUMPDEST SWAP1 POP PUSH2 0x3DA DUP6 DUP3 DUP6 PUSH2 0x9C8 JUMP JUMPDEST PUSH2 0x3E5 DUP6 DUP6 DUP6 PUSH2 0xA54 JUMP JUMPDEST PUSH1 0x1 SWAP2 POP POP SWAP4 SWAP3 POP POP POP JUMP JUMPDEST DUP3 PUSH1 0x3 SWAP1 DUP1 MLOAD SWAP1 PUSH1 0x20 ADD SWAP1 PUSH2 0x407 SWAP3 SWAP2 SWAP1 PUSH2 0x10D5 JUMP JUMPDEST POP DUP2 PUSH1 0x4 SWAP1 DUP1 MLOAD SWAP1 PUSH1 0x20 ADD SWAP1 PUSH2 0x41E SWAP3 SWAP2 SWAP1 PUSH2 0x10D5 JUMP JUMPDEST POP DUP1 PUSH1 0x2 DUP2 SWAP1 SSTORE POP PUSH1 0x0 PUSH2 0x430 PUSH2 0x7EB JUMP JUMPDEST SWAP1 POP PUSH1 0x2 SLOAD PUSH1 0x0 DUP1 DUP4 PUSH20 0xFFFFFFFFFFFFFFFFFFFFFFFFFFFFFFFFFFFFFFFF AND PUSH20 0xFFFFFFFFFFFFFFFFFFFFFFFFFFFFFFFFFFFFFFFF AND DUP2 MSTORE PUSH1 0x20 ADD SWAP1 DUP2 MSTORE PUSH1 0x20 ADD PUSH1 0x0 KECCAK256 DUP2 SWAP1 SSTORE POP POP POP POP POP JUMP JUMPDEST PUSH1 0x0 PUSH1 0x12 SWAP1 POP SWAP1 JUMP JUMPDEST PUSH1 0x0 DUP1 PUSH2 0x491 PUSH2 0x7EB JUMP JUMPDEST SWAP1 POP PUSH2 0x4B2 DUP2 DUP6 DUP6 PUSH2 0x4A3 DUP6 DUP10 PUSH2 0x6D2 JUMP JUMPDEST PUSH2 0x4AD SWAP2 SWAP1 PUSH2 0x1936 JUMP JUMPDEST PUSH2 0x7F3 JUMP JUMPDEST PUSH1 0x1 SWAP2 POP POP SWAP3 SWAP2 POP POP JUMP JUMPDEST PUSH1 0x0 DUP1 DUP4 GT PUSH2 0x501 JUMPI PUSH1 0x40 MLOAD PUSH32 0x8C379A000000000000000000000000000000000000000000000000000000000 DUP2 MSTORE PUSH1 0x4 ADD PUSH2 0x4F8 SWAP1 PUSH2 0x17CE JUMP JUMPDEST PUSH1 0x40 MLOAD DUP1 SWAP2 SUB SWAP1 REVERT JUMPDEST PUSH1 0x0 PUSH2 0x50B PUSH2 0x7EB JUMP JUMPDEST SWAP1 POP PUSH2 0x518 DUP2 DUP5 DUP7 PUSH2 0xA54 JUMP JUMPDEST PUSH2 0x523 DUP2 DUP8 DUP8 PUSH2 0xA54 JUMP JUMPDEST PUSH1 0x1 SWAP2 POP POP SWAP5 SWAP4 POP POP POP POP JUMP JUMPDEST PUSH2 0x53A DUP3 DUP3 PUSH2 0xCCC JUMP JUMPDEST POP POP JUMP JUMPDEST PUSH2 0x54F PUSH2 0x549 PUSH2 0x7EB JUMP JUMPDEST DUP3 PUSH2 0xE23 JUMP JUMPDEST POP JUMP JUMPDEST PUSH1 0x0 PUSH2 0x55D DUP3 PUSH2 0xFF1 JUMP JUMPDEST SWAP1 POP SWAP2 SWAP1 POP JUMP JUMPDEST PUSH1 0x60 PUSH2 0x56E PUSH2 0x1039 JUMP JUMPDEST SWAP1 POP SWAP1 JUMP JUMPDEST PUSH1 0x0 DUP1 PUSH2 0x57E PUSH2 0x7EB JUMP JUMPDEST SWAP1 POP PUSH1 0x0 PUSH2 0x58C DUP3 DUP7 PUSH2 0x6D2 JUMP JUMPDEST SWAP1 POP DUP4 DUP2 LT ISZERO PUSH2 0x5D1 JUMPI PUSH1 0x40 MLOAD PUSH32 0x8C379A000000000000000000000000000000000000000000000000000000000 DUP2 MSTORE PUSH1 0x4 ADD PUSH2 0x5C8 SWAP1 PUSH2 0x184E JUMP JUMPDEST PUSH1 0x40 MLOAD DUP1 SWAP2 SUB SWAP1 REVERT JUMPDEST PUSH2 0x5DE DUP3 DUP7 DUP7 DUP5 SUB PUSH2 0x7F3 JUMP JUMPDEST PUSH1 0x1 SWAP3 POP POP POP SWAP3 SWAP2 POP POP JUMP JUMPDEST PUSH1 0x0 DUP1 PUSH2 0x5F5 PUSH2 0x7EB JUMP JUMPDEST SWAP1 POP PUSH2 0x602 DUP2 DUP6 DUP6 PUSH2 0xA54 JUMP JUMPDEST PUSH1 0x1 SWAP2 POP POP SWAP3 SWAP2 POP POP JUMP JUMPDEST PUSH1 0x0 DUP1 DUP3 GT PUSH2 0x651 JUMPI PUSH1 0x40 MLOAD PUSH32 0x8C379A000000000000000000000000000000000000000000000000000000000 DUP2 MSTORE PUSH1 0x4 ADD PUSH2 0x648 SWAP1 PUSH2 0x176E JUMP JUMPDEST PUSH1 0x40 MLOAD DUP1 SWAP2 SUB SWAP1 REVERT JUMPDEST DUP3 DUP3 GT ISZERO PUSH2 0x694 JUMPI PUSH1 0x40 MLOAD PUSH32 0x8C379A000000000000000000000000000000000000000000000000000000000 DUP2 MSTORE PUSH1 0x4 ADD PUSH2 0x68B SWAP1 PUSH2 0x170E JUMP JUMPDEST PUSH1 0x40 MLOAD DUP1 SWAP2 SUB SWAP1 REVERT JUMPDEST PUSH1 0x0 PUSH2 0x69E PUSH2 0x7EB JUMP JUMPDEST SWAP1 POP PUSH1 0x0 DUP4 DUP6 PUSH2 0x6AE SWAP2 SWAP1 PUSH2 0x198C JUMP JUMPDEST SWAP1 POP PUSH2 0x6BA DUP3 DUP6 PUSH2 0xE23 JUMP JUMPDEST PUSH2 0x6C5 DUP3 DUP8 DUP4 PUSH2 0xA54 JUMP JUMPDEST PUSH1 0x1 SWAP3 POP POP POP SWAP4 SWAP3 POP POP POP JUMP JUMPDEST PUSH1 0x0 PUSH1 0x1 PUSH1 0x0 DUP5 PUSH20 0xFFFFFFFFFFFFFFFFFFFFFFFFFFFFFFFFFFFFFFFF AND PUSH20 0xFFFFFFFFFFFFFFFFFFFFFFFFFFFFFFFFFFFFFFFF AND DUP2 MSTORE PUSH1 0x20 ADD SWAP1 DUP2 MSTORE PUSH1 0x20 ADD PUSH1 0x0 KECCAK256 PUSH1 0x0 DUP4 PUSH20 0xFFFFFFFFFFFFFFFFFFFFFFFFFFFFFFFFFFFFFFFF AND PUSH20 0xFFFFFFFFFFFFFFFFFFFFFFFFFFFFFFFFFFFFFFFF AND DUP2 MSTORE PUSH1 0x20 ADD SWAP1 DUP2 MSTORE PUSH1 0x20 ADD PUSH1 0x0 KECCAK256 SLOAD SWAP1 POP SWAP3 SWAP2 POP POP JUMP JUMPDEST PUSH1 0x60 PUSH1 0x3 DUP1 SLOAD PUSH2 0x768 SWAP1 PUSH2 0x1A57 JUMP JUMPDEST DUP1 PUSH1 0x1F ADD PUSH1 0x20 DUP1 SWAP2 DIV MUL PUSH1 0x20 ADD PUSH1 0x40 MLOAD SWAP1 DUP2 ADD PUSH1 0x40 MSTORE DUP1 SWAP3 SWAP2 SWAP1 DUP2 DUP2 MSTORE PUSH1 0x20 ADD DUP3 DUP1 SLOAD PUSH2 0x794 SWAP1 PUSH2 0x1A57 JUMP JUMPDEST DUP1 ISZERO PUSH2 0x7E1 JUMPI DUP1 PUSH1 0x1F LT PUSH2 0x7B6 JUMPI PUSH2 0x100 DUP1 DUP4 SLOAD DIV MUL DUP4 MSTORE SWAP2 PUSH1 0x20 ADD SWAP2 PUSH2 0x7E1 JUMP JUMPDEST DUP3 ADD SWAP2 SWAP1 PUSH1 0x0 MSTORE PUSH1 0x20 PUSH1 0x0 KECCAK256 SWAP1 JUMPDEST DUP2 SLOAD DUP2 MSTORE SWAP1 PUSH1 0x1 ADD SWAP1 PUSH1 0x20 ADD DUP1 DUP4 GT PUSH2 0x7C4 JUMPI DUP3 SWAP1 SUB PUSH1 0x1F AND DUP3 ADD SWAP2 JUMPDEST POP POP POP POP POP SWAP1 POP SWAP1 JUMP JUMPDEST PUSH1 0x0 CALLER SWAP1 POP SWAP1 JUMP JUMPDEST PUSH1 0x0 PUSH20 0xFFFFFFFFFFFFFFFFFFFFFFFFFFFFFFFFFFFFFFFF AND DUP4 PUSH20 0xFFFFFFFFFFFFFFFFFFFFFFFFFFFFFFFFFFFFFFFF AND EQ ISZERO PUSH2 0x863 JUMPI PUSH1 0x40 MLOAD PUSH32 0x8C379A000000000000000000000000000000000000000000000000000000000 DUP2 MSTORE PUSH1 0x4 ADD PUSH2 0x85A SWAP1 PUSH2 0x182E JUMP JUMPDEST PUSH1 0x40 MLOAD DUP1 SWAP2 SUB SWAP1 REVERT JUMPDEST PUSH1 0x0 PUSH20 0xFFFFFFFFFFFFFFFFFFFFFFFFFFFFFFFFFFFFFFFF AND DUP3 PUSH20 0xFFFFFFFFFFFFFFFFFFFFFFFFFFFFFFFFFFFFFFFF AND EQ ISZERO PUSH2 0x8D3 JUMPI PUSH1 0x40 MLOAD PUSH32 0x8C379A000000000000000000000000000000000000000000000000000000000 DUP2 MSTORE PUSH1 0x4 ADD PUSH2 0x8CA SWAP1 PUSH2 0x174E JUMP JUMPDEST PUSH1 0x40 MLOAD DUP1 SWAP2 SUB SWAP1 REVERT JUMPDEST DUP1 PUSH1 0x1 PUSH1 0x0 DUP6 PUSH20 0xFFFFFFFFFFFFFFFFFFFFFFFFFFFFFFFFFFFFFFFF AND PUSH20 0xFFFFFFFFFFFFFFFFFFFFFFFFFFFFFFFFFFFFFFFF AND DUP2 MSTORE PUSH1 0x20 ADD SWAP1 DUP2 MSTORE PUSH1 0x20 ADD PUSH1 0x0 KECCAK256 PUSH1 0x0 DUP5 PUSH20 0xFFFFFFFFFFFFFFFFFFFFFFFFFFFFFFFFFFFFFFFF AND PUSH20 0xFFFFFFFFFFFFFFFFFFFFFFFFFFFFFFFFFFFFFFFF AND DUP2 MSTORE PUSH1 0x20 ADD SWAP1 DUP2 MSTORE PUSH1 0x20 ADD PUSH1 0x0 KECCAK256 DUP2 SWAP1 SSTORE POP DUP2 PUSH20 0xFFFFFFFFFFFFFFFFFFFFFFFFFFFFFFFFFFFFFFFF AND DUP4 PUSH20 0xFFFFFFFFFFFFFFFFFFFFFFFFFFFFFFFFFFFFFFFF AND PUSH32 0x8C5BE1E5EBEC7D5BD14F71427D1E84F3DD0314C0F7B2291E5B200AC8C7C3B925 DUP4 PUSH1 0x40 MLOAD PUSH2 0x9B1 SWAP2 SWAP1 PUSH2 0x188E JUMP JUMPDEST PUSH1 0x40 MLOAD DUP1 SWAP2 SUB SWAP1 LOG3 POP POP POP JUMP JUMPDEST PUSH1 0x0 PUSH1 0x2 SLOAD SWAP1 POP SWAP1 JUMP JUMPDEST PUSH1 0x0 PUSH2 0x9D4 DUP5 DUP5 PUSH2 0x6D2 JUMP JUMPDEST SWAP1 POP PUSH32 0xFFFFFFFFFFFFFFFFFFFFFFFFFFFFFFFFFFFFFFFFFFFFFFFFFFFFFFFFFFFFFFFF DUP2 EQ PUSH2 0xA4E JUMPI DUP2 DUP2 LT ISZERO PUSH2 0xA40 JUMPI PUSH1 0x40 MLOAD PUSH32 0x8C379A000000000000000000000000000000000000000000000000000000000 DUP2 MSTORE PUSH1 0x4 ADD PUSH2 0xA37 SWAP1 PUSH2 0x178E JUMP JUMPDEST PUSH1 0x40 MLOAD DUP1 SWAP2 SUB SWAP1 REVERT JUMPDEST PUSH2 0xA4D DUP5 DUP5 DUP5 DUP5 SUB PUSH2 0x7F3 JUMP JUMPDEST JUMPDEST POP POP POP POP JUMP JUMPDEST PUSH1 0x0 PUSH20 0xFFFFFFFFFFFFFFFFFFFFFFFFFFFFFFFFFFFFFFFF AND DUP4 PUSH20 0xFFFFFFFFFFFFFFFFFFFFFFFFFFFFFFFFFFFFFFFF AND EQ ISZERO PUSH2 0xAC4 JUMPI PUSH1 0x40 MLOAD PUSH32 0x8C379A000000000000000000000000000000000000000000000000000000000 DUP2 MSTORE PUSH1 0x4 ADD PUSH2 0xABB SWAP1 PUSH2 0x180E JUMP JUMPDEST PUSH1 0x40 MLOAD DUP1 SWAP2 SUB SWAP1 REVERT JUMPDEST PUSH1 0x0 PUSH20 0xFFFFFFFFFFFFFFFFFFFFFFFFFFFFFFFFFFFFFFFF AND DUP3 PUSH20 0xFFFFFFFFFFFFFFFFFFFFFFFFFFFFFFFFFFFFFFFF AND EQ ISZERO PUSH2 0xB34 JUMPI PUSH1 0x40 MLOAD PUSH32 0x8C379A000000000000000000000000000000000000000000000000000000000 DUP2 MSTORE PUSH1 0x4 ADD PUSH2 0xB2B SWAP1 PUSH2 0x16EE JUMP JUMPDEST PUSH1 0x40 MLOAD DUP1 SWAP2 SUB SWAP1 REVERT JUMPDEST PUSH2 0xB3F DUP4 DUP4 DUP4 PUSH2 0x10CB JUMP JUMPDEST PUSH1 0x0 DUP1 PUSH1 0x0 DUP6 PUSH20 0xFFFFFFFFFFFFFFFFFFFFFFFFFFFFFFFFFFFFFFFF AND PUSH20 0xFFFFFFFFFFFFFFFFFFFFFFFFFFFFFFFFFFFFFFFF AND DUP2 MSTORE PUSH1 0x20 ADD SWAP1 DUP2 MSTORE PUSH1 0x20 ADD PUSH1 0x0 KECCAK256 SLOAD SWAP1 POP DUP2 DUP2 LT ISZERO PUSH2 0xBC5 JUMPI PUSH1 0x40 MLOAD PUSH32 0x8C379A000000000000000000000000000000000000000000000000000000000 DUP2 MSTORE PUSH1 0x4 ADD PUSH2 0xBBC SWAP1 PUSH2 0x17AE JUMP JUMPDEST PUSH1 0x40 MLOAD DUP1 SWAP2 SUB SWAP1 REVERT JUMPDEST DUP2 DUP2 SUB PUSH1 0x0 DUP1 DUP7 PUSH20 0xFFFFFFFFFFFFFFFFFFFFFFFFFFFFFFFFFFFFFFFF AND PUSH20 0xFFFFFFFFFFFFFFFFFFFFFFFFFFFFFFFFFFFFFFFF AND DUP2 MSTORE PUSH1 0x20 ADD SWAP1 DUP2 MSTORE PUSH1 0x20 ADD PUSH1 0x0 KECCAK256 DUP2 SWAP1 SSTORE POP DUP2 PUSH1 0x0 DUP1 DUP6 PUSH20 0xFFFFFFFFFFFFFFFFFFFFFFFFFFFFFFFFFFFFFFFF AND PUSH20 0xFFFFFFFFFFFFFFFFFFFFFFFFFFFFFFFFFFFFFFFF AND DUP2 MSTORE PUSH1 0x20 ADD SWAP1 DUP2 MSTORE PUSH1 0x20 ADD PUSH1 0x0 KECCAK256 PUSH1 0x0 DUP3 DUP3 SLOAD ADD SWAP3 POP POP DUP2 SWAP1 SSTORE POP DUP3 PUSH20 0xFFFFFFFFFFFFFFFFFFFFFFFFFFFFFFFFFFFFFFFF AND DUP5 PUSH20 0xFFFFFFFFFFFFFFFFFFFFFFFFFFFFFFFFFFFFFFFF AND PUSH32 0xDDF252AD1BE2C89B69C2B068FC378DAA952BA7F163C4A11628F55A4DF523B3EF DUP5 PUSH1 0x40 MLOAD PUSH2 0xCB3 SWAP2 SWAP1 PUSH2 0x188E JUMP JUMPDEST PUSH1 0x40 MLOAD DUP1 SWAP2 SUB SWAP1 LOG3 PUSH2 0xCC6 DUP5 DUP5 DUP5 PUSH2 0x10D0 JUMP JUMPDEST POP POP POP POP JUMP JUMPDEST PUSH1 0x0 PUSH20 0xFFFFFFFFFFFFFFFFFFFFFFFFFFFFFFFFFFFFFFFF AND DUP3 PUSH20 0xFFFFFFFFFFFFFFFFFFFFFFFFFFFFFFFFFFFFFFFF AND EQ ISZERO PUSH2 0xD3C JUMPI PUSH1 0x40 MLOAD PUSH32 0x8C379A000000000000000000000000000000000000000000000000000000000 DUP2 MSTORE PUSH1 0x4 ADD PUSH2 0xD33 SWAP1 PUSH2 0x186E JUMP JUMPDEST PUSH1 0x40 MLOAD DUP1 SWAP2 SUB SWAP1 REVERT JUMPDEST PUSH2 0xD48 PUSH1 0x0 DUP4 DUP4 PUSH2 0x10CB JUMP JUMPDEST DUP1 PUSH1 0x2 PUSH1 0x0 DUP3 DUP3 SLOAD PUSH2 0xD5A SWAP2 SWAP1 PUSH2 0x1936 JUMP JUMPDEST SWAP3 POP POP DUP2 SWAP1 SSTORE POP DUP1 PUSH1 0x0 DUP1 DUP5 PUSH20 0xFFFFFFFFFFFFFFFFFFFFFFFFFFFFFFFFFFFFFFFF AND PUSH20 0xFFFFFFFFFFFFFFFFFFFFFFFFFFFFFFFFFFFFFFFF AND DUP2 MSTORE PUSH1 0x20 ADD SWAP1 DUP2 MSTORE PUSH1 0x20 ADD PUSH1 0x0 KECCAK256 PUSH1 0x0 DUP3 DUP3 SLOAD ADD SWAP3 POP POP DUP2 SWAP1 SSTORE POP DUP2 PUSH20 0xFFFFFFFFFFFFFFFFFFFFFFFFFFFFFFFFFFFFFFFF AND PUSH1 0x0 PUSH20 0xFFFFFFFFFFFFFFFFFFFFFFFFFFFFFFFFFFFFFFFF AND PUSH32 0xDDF252AD1BE2C89B69C2B068FC378DAA952BA7F163C4A11628F55A4DF523B3EF DUP4 PUSH1 0x40 MLOAD PUSH2 0xE0B SWAP2 SWAP1 PUSH2 0x188E JUMP JUMPDEST PUSH1 0x40 MLOAD DUP1 SWAP2 SUB SWAP1 LOG3 PUSH2 0xE1F PUSH1 0x0 DUP4 DUP4 PUSH2 0x10D0 JUMP JUMPDEST POP POP JUMP JUMPDEST PUSH1 0x0 PUSH20 0xFFFFFFFFFFFFFFFFFFFFFFFFFFFFFFFFFFFFFFFF AND DUP3 PUSH20 0xFFFFFFFFFFFFFFFFFFFFFFFFFFFFFFFFFFFFFFFF AND EQ ISZERO PUSH2 0xE93 JUMPI PUSH1 0x40 MLOAD PUSH32 0x8C379A000000000000000000000000000000000000000000000000000000000 DUP2 MSTORE PUSH1 0x4 ADD PUSH2 0xE8A SWAP1 PUSH2 0x17EE JUMP JUMPDEST PUSH1 0x40 MLOAD DUP1 SWAP2 SUB SWAP1 REVERT JUMPDEST PUSH2 0xE9F DUP3 PUSH1 0x0 DUP4 PUSH2 0x10CB JUMP JUMPDEST PUSH1 0x0 DUP1 PUSH1 0x0 DUP5 PUSH20 0xFFFFFFFFFFFFFFFFFFFFFFFFFFFFFFFFFFFFFFFF AND PUSH20 0xFFFFFFFFFFFFFFFFFFFFFFFFFFFFFFFFFFFFFFFF AND DUP2 MSTORE PUSH1 0x20 ADD SWAP1 DUP2 MSTORE PUSH1 0x20 ADD PUSH1 0x0 KECCAK256 SLOAD SWAP1 POP DUP2 DUP2 LT ISZERO PUSH2 0xF25 JUMPI PUSH1 0x40 MLOAD PUSH32 0x8C379A000000000000000000000000000000000000000000000000000000000 DUP2 MSTORE PUSH1 0x4 ADD PUSH2 0xF1C SWAP1 PUSH2 0x172E JUMP JUMPDEST PUSH1 0x40 MLOAD DUP1 SWAP2 SUB SWAP1 REVERT JUMPDEST DUP2 DUP2 SUB PUSH1 0x0 DUP1 DUP6 PUSH20 0xFFFFFFFFFFFFFFFFFFFFFFFFFFFFFFFFFFFFFFFF AND PUSH20 0xFFFFFFFFFFFFFFFFFFFFFFFFFFFFFFFFFFFFFFFF AND DUP2 MSTORE PUSH1 0x20 ADD SWAP1 DUP2 MSTORE PUSH1 0x20 ADD PUSH1 0x0 KECCAK256 DUP2 SWAP1 SSTORE POP DUP2 PUSH1 0x2 PUSH1 0x0 DUP3 DUP3 SLOAD SUB SWAP3 POP POP DUP2 SWAP1 SSTORE POP PUSH1 0x0 PUSH20 0xFFFFFFFFFFFFFFFFFFFFFFFFFFFFFFFFFFFFFFFF AND DUP4 PUSH20 0xFFFFFFFFFFFFFFFFFFFFFFFFFFFFFFFFFFFFFFFF AND PUSH32 0xDDF252AD1BE2C89B69C2B068FC378DAA952BA7F163C4A11628F55A4DF523B3EF DUP5 PUSH1 0x40 MLOAD PUSH2 0xFD8 SWAP2 SWAP1 PUSH2 0x188E JUMP JUMPDEST PUSH1 0x40 MLOAD DUP1 SWAP2 SUB SWAP1 LOG3 PUSH2 0xFEC DUP4 PUSH1 0x0 DUP5 PUSH2 0x10D0 JUMP JUMPDEST POP POP POP JUMP JUMPDEST PUSH1 0x0 DUP1 PUSH1 0x0 DUP4 PUSH20 0xFFFFFFFFFFFFFFFFFFFFFFFFFFFFFFFFFFFFFFFF AND PUSH20 0xFFFFFFFFFFFFFFFFFFFFFFFFFFFFFFFFFFFFFFFF AND DUP2 MSTORE PUSH1 0x20 ADD SWAP1 DUP2 MSTORE PUSH1 0x20 ADD PUSH1 0x0 KECCAK256 SLOAD SWAP1 POP SWAP2 SWAP1 POP JUMP JUMPDEST PUSH1 0x60 PUSH1 0x4 DUP1 SLOAD PUSH2 0x1048 SWAP1 PUSH2 0x1A57 JUMP JUMPDEST DUP1 PUSH1 0x1F ADD PUSH1 0x20 DUP1 SWAP2 DIV MUL PUSH1 0x20 ADD PUSH1 0x40 MLOAD SWAP1 DUP2 ADD PUSH1 0x40 MSTORE DUP1 SWAP3 SWAP2 SWAP1 DUP2 DUP2 MSTORE PUSH1 0x20 ADD DUP3 DUP1 SLOAD PUSH2 0x1074 SWAP1 PUSH2 0x1A57 JUMP JUMPDEST DUP1 ISZERO PUSH2 0x10C1 JUMPI DUP1 PUSH1 0x1F LT PUSH2 0x1096 JUMPI PUSH2 0x100 DUP1 DUP4 SLOAD DIV MUL DUP4 MSTORE SWAP2 PUSH1 0x20 ADD SWAP2 PUSH2 0x10C1 JUMP JUMPDEST DUP3 ADD SWAP2 SWAP1 PUSH1 0x0 MSTORE PUSH1 0x20 PUSH1 0x0 KECCAK256 SWAP1 JUMPDEST DUP2 SLOAD DUP2 MSTORE SWAP1 PUSH1 0x1 ADD SWAP1 PUSH1 0x20 ADD DUP1 DUP4 GT PUSH2 0x10A4 JUMPI DUP3 SWAP1 SUB PUSH1 0x1F AND DUP3 ADD SWAP2 JUMPDEST POP POP POP POP POP SWAP1 POP SWAP1 JUMP JUMPDEST POP POP POP JUMP JUMPDEST POP POP POP JUMP JUMPDEST DUP3 DUP1 SLOAD PUSH2 0x10E1 SWAP1 PUSH2 0x1A57 JUMP JUMPDEST SWAP1 PUSH1 0x0 MSTORE PUSH1 0x20 PUSH1 0x0 KECCAK256 SWAP1 PUSH1 0x1F ADD PUSH1 0x20 SWAP1 DIV DUP2 ADD SWAP3 DUP3 PUSH2 0x1103 JUMPI PUSH1 0x0 DUP6 SSTORE PUSH2 0x114A JUMP JUMPDEST DUP3 PUSH1 0x1F LT PUSH2 0x111C JUMPI DUP1 MLOAD PUSH1 0xFF NOT AND DUP4 DUP1 ADD OR DUP6 SSTORE PUSH2 0x114A JUMP JUMPDEST DUP3 DUP1 ADD PUSH1 0x1 ADD DUP6 SSTORE DUP3 ISZERO PUSH2 0x114A JUMPI SWAP2 DUP3 ADD JUMPDEST DUP3 DUP2 GT ISZERO PUSH2 0x1149 JUMPI DUP3 MLOAD DUP3 SSTORE SWAP2 PUSH1 0x20 ADD SWAP2 SWAP1 PUSH1 0x1 ADD SWAP1 PUSH2 0x112E JUMP JUMPDEST JUMPDEST POP SWAP1 POP PUSH2 0x1157 SWAP2 SWAP1 PUSH2 0x115B JUMP JUMPDEST POP SWAP1 JUMP JUMPDEST JUMPDEST DUP1 DUP3 GT ISZERO PUSH2 0x1174 JUMPI PUSH1 0x0 DUP2 PUSH1 0x0 SWAP1 SSTORE POP PUSH1 0x1 ADD PUSH2 0x115C JUMP JUMPDEST POP SWAP1 JUMP JUMPDEST PUSH1 0x0 PUSH2 0x118B PUSH2 0x1186 DUP5 PUSH2 0x18E9 JUMP JUMPDEST PUSH2 0x18C4 JUMP JUMPDEST SWAP1 POP DUP3 DUP2 MSTORE PUSH1 0x20 DUP2 ADD DUP5 DUP5 DUP5 ADD GT ISZERO PUSH2 0x11A7 JUMPI PUSH2 0x11A6 PUSH2 0x1B4C JUMP JUMPDEST JUMPDEST PUSH2 0x11B2 DUP5 DUP3 DUP6 PUSH2 0x1A15 JUMP JUMPDEST POP SWAP4 SWAP3 POP POP POP JUMP JUMPDEST PUSH1 0x0 DUP2 CALLDATALOAD SWAP1 POP PUSH2 0x11C9 DUP2 PUSH2 0x1F23 JUMP JUMPDEST SWAP3 SWAP2 POP POP JUMP JUMPDEST PUSH1 0x0 DUP3 PUSH1 0x1F DUP4 ADD SLT PUSH2 0x11E4 JUMPI PUSH2 0x11E3 PUSH2 0x1B47 JUMP JUMPDEST JUMPDEST DUP2 CALLDATALOAD PUSH2 0x11F4 DUP5 DUP3 PUSH1 0x20 DUP7 ADD PUSH2 0x1178 JUMP JUMPDEST SWAP2 POP POP SWAP3 SWAP2 POP POP JUMP JUMPDEST PUSH1 0x0 DUP2 CALLDATALOAD SWAP1 POP PUSH2 0x120C DUP2 PUSH2 0x1F3A JUMP JUMPDEST SWAP3 SWAP2 POP POP JUMP JUMPDEST PUSH1 0x0 PUSH1 0x20 DUP3 DUP5 SUB SLT ISZERO PUSH2 0x1228 JUMPI PUSH2 0x1227 PUSH2 0x1B56 JUMP JUMPDEST JUMPDEST PUSH1 0x0 PUSH2 0x1236 DUP5 DUP3 DUP6 ADD PUSH2 0x11BA JUMP JUMPDEST SWAP2 POP POP SWAP3 SWAP2 POP POP JUMP JUMPDEST PUSH1 0x0 DUP1 PUSH1 0x40 DUP4 DUP6 SUB SLT ISZERO PUSH2 0x1256 JUMPI PUSH2 0x1255 PUSH2 0x1B56 JUMP JUMPDEST JUMPDEST PUSH1 0x0 PUSH2 0x1264 DUP6 DUP3 DUP7 ADD PUSH2 0x11BA JUMP JUMPDEST SWAP3 POP POP PUSH1 0x20 PUSH2 0x1275 DUP6 DUP3 DUP7 ADD PUSH2 0x11BA JUMP JUMPDEST SWAP2 POP POP SWAP3 POP SWAP3 SWAP1 POP JUMP JUMPDEST PUSH1 0x0 DUP1 PUSH1 0x0 PUSH1 0x60 DUP5 DUP7 SUB SLT ISZERO PUSH2 0x1298 JUMPI PUSH2 0x1297 PUSH2 0x1B56 JUMP JUMPDEST JUMPDEST PUSH1 0x0 PUSH2 0x12A6 DUP7 DUP3 DUP8 ADD PUSH2 0x11BA JUMP JUMPDEST SWAP4 POP POP PUSH1 0x20 PUSH2 0x12B7 DUP7 DUP3 DUP8 ADD PUSH2 0x11BA JUMP JUMPDEST SWAP3 POP POP PUSH1 0x40 PUSH2 0x12C8 DUP7 DUP3 DUP8 ADD PUSH2 0x11FD JUMP JUMPDEST SWAP2 POP POP SWAP3 POP SWAP3 POP SWAP3 JUMP JUMPDEST PUSH1 0x0 DUP1 PUSH1 0x40 DUP4 DUP6 SUB SLT ISZERO PUSH2 0x12E9 JUMPI PUSH2 0x12E8 PUSH2 0x1B56 JUMP JUMPDEST JUMPDEST PUSH1 0x0 PUSH2 0x12F7 DUP6 DUP3 DUP7 ADD PUSH2 0x11BA JUMP JUMPDEST SWAP3 POP POP PUSH1 0x20 PUSH2 0x1308 DUP6 DUP3 DUP7 ADD PUSH2 0x11FD JUMP JUMPDEST SWAP2 POP POP SWAP3 POP SWAP3 SWAP1 POP JUMP JUMPDEST PUSH1 0x0 DUP1 PUSH1 0x0 PUSH1 0x60 DUP5 DUP7 SUB SLT ISZERO PUSH2 0x132B JUMPI PUSH2 0x132A PUSH2 0x1B56 JUMP JUMPDEST JUMPDEST PUSH1 0x0 PUSH2 0x1339 DUP7 DUP3 DUP8 ADD PUSH2 0x11BA JUMP JUMPDEST SWAP4 POP POP PUSH1 0x20 PUSH2 0x134A DUP7 DUP3 DUP8 ADD PUSH2 0x11FD JUMP JUMPDEST SWAP3 POP POP PUSH1 0x40 PUSH2 0x135B DUP7 DUP3 DUP8 ADD PUSH2 0x11FD JUMP JUMPDEST SWAP2 POP POP SWAP3 POP SWAP3 POP SWAP3 JUMP JUMPDEST PUSH1 0x0 DUP1 PUSH1 0x0 DUP1 PUSH1 0x80 DUP6 DUP8 SUB SLT ISZERO PUSH2 0x137F JUMPI PUSH2 0x137E PUSH2 0x1B56 JUMP JUMPDEST JUMPDEST PUSH1 0x0 PUSH2 0x138D DUP8 DUP3 DUP9 ADD PUSH2 0x11BA JUMP JUMPDEST SWAP5 POP POP PUSH1 0x20 PUSH2 0x139E DUP8 DUP3 DUP9 ADD PUSH2 0x11FD JUMP JUMPDEST SWAP4 POP POP PUSH1 0x40 PUSH2 0x13AF DUP8 DUP3 DUP9 ADD PUSH2 0x11FD JUMP JUMPDEST SWAP3 POP POP PUSH1 0x60 PUSH2 0x13C0 DUP8 DUP3 DUP9 ADD PUSH2 0x11BA JUMP JUMPDEST SWAP2 POP POP SWAP3 SWAP6 SWAP2 SWAP5 POP SWAP3 POP JUMP JUMPDEST PUSH1 0x0 DUP1 PUSH1 0x0 PUSH1 0x60 DUP5 DUP7 SUB SLT ISZERO PUSH2 0x13E5 JUMPI PUSH2 0x13E4 PUSH2 0x1B56 JUMP JUMPDEST JUMPDEST PUSH1 0x0 DUP5 ADD CALLDATALOAD PUSH8 0xFFFFFFFFFFFFFFFF DUP2 GT ISZERO PUSH2 0x1403 JUMPI PUSH2 0x1402 PUSH2 0x1B51 JUMP JUMPDEST JUMPDEST PUSH2 0x140F DUP7 DUP3 DUP8 ADD PUSH2 0x11CF JUMP JUMPDEST SWAP4 POP POP PUSH1 0x20 DUP5 ADD CALLDATALOAD PUSH8 0xFFFFFFFFFFFFFFFF DUP2 GT ISZERO PUSH2 0x1430 JUMPI PUSH2 0x142F PUSH2 0x1B51 JUMP JUMPDEST JUMPDEST PUSH2 0x143C DUP7 DUP3 DUP8 ADD PUSH2 0x11CF JUMP JUMPDEST SWAP3 POP POP PUSH1 0x40 PUSH2 0x144D DUP7 DUP3 DUP8 ADD PUSH2 0x11FD JUMP JUMPDEST SWAP2 POP POP SWAP3 POP SWAP3 POP SWAP3 JUMP JUMPDEST PUSH1 0x0 PUSH1 0x20 DUP3 DUP5 SUB SLT ISZERO PUSH2 0x146D JUMPI PUSH2 0x146C PUSH2 0x1B56 JUMP JUMPDEST JUMPDEST PUSH1 0x0 PUSH2 0x147B DUP5 DUP3 DUP6 ADD PUSH2 0x11FD JUMP JUMPDEST SWAP2 POP POP SWAP3 SWAP2 POP POP JUMP JUMPDEST PUSH2 0x148D DUP2 PUSH2 0x19D2 JUMP JUMPDEST DUP3 MSTORE POP POP JUMP JUMPDEST PUSH1 0x0 PUSH2 0x149E DUP3 PUSH2 0x191A JUMP JUMPDEST PUSH2 0x14A8 DUP2 DUP6 PUSH2 0x1925 JUMP JUMPDEST SWAP4 POP PUSH2 0x14B8 DUP2 DUP6 PUSH1 0x20 DUP7 ADD PUSH2 0x1A24 JUMP JUMPDEST PUSH2 0x14C1 DUP2 PUSH2 0x1B5B JUMP JUMPDEST DUP5 ADD SWAP2 POP POP SWAP3 SWAP2 POP POP JUMP JUMPDEST PUSH1 0x0 PUSH2 0x14D9 PUSH1 0x23 DUP4 PUSH2 0x1925 JUMP JUMPDEST SWAP2 POP PUSH2 0x14E4 DUP3 PUSH2 0x1B6C JUMP JUMPDEST PUSH1 0x40 DUP3 ADD SWAP1 POP SWAP2 SWAP1 POP JUMP JUMPDEST PUSH1 0x0 PUSH2 0x14FC PUSH1 0x3D DUP4 PUSH2 0x1925 JUMP JUMPDEST SWAP2 POP PUSH2 0x1507 DUP3 PUSH2 0x1BBB JUMP JUMPDEST PUSH1 0x40 DUP3 ADD SWAP1 POP SWAP2 SWAP1 POP JUMP JUMPDEST PUSH1 0x0 PUSH2 0x151F PUSH1 0x22 DUP4 PUSH2 0x1925 JUMP JUMPDEST SWAP2 POP PUSH2 0x152A DUP3 PUSH2 0x1C0A JUMP JUMPDEST PUSH1 0x40 DUP3 ADD SWAP1 POP SWAP2 SWAP1 POP JUMP JUMPDEST PUSH1 0x0 PUSH2 0x1542 PUSH1 0x22 DUP4 PUSH2 0x1925 JUMP JUMPDEST SWAP2 POP PUSH2 0x154D DUP3 PUSH2 0x1C59 JUMP JUMPDEST PUSH1 0x40 DUP3 ADD SWAP1 POP SWAP2 SWAP1 POP JUMP JUMPDEST PUSH1 0x0 PUSH2 0x1565 PUSH1 0x25 DUP4 PUSH2 0x1925 JUMP JUMPDEST SWAP2 POP PUSH2 0x1570 DUP3 PUSH2 0x1CA8 JUMP JUMPDEST PUSH1 0x40 DUP3 ADD SWAP1 POP SWAP2 SWAP1 POP JUMP JUMPDEST PUSH1 0x0 PUSH2 0x1588 PUSH1 0x1D DUP4 PUSH2 0x1925 JUMP JUMPDEST SWAP2 POP PUSH2 0x1593 DUP3 PUSH2 0x1CF7 JUMP JUMPDEST PUSH1 0x20 DUP3 ADD SWAP1 POP SWAP2 SWAP1 POP JUMP JUMPDEST PUSH1 0x0 PUSH2 0x15AB PUSH1 0x26 DUP4 PUSH2 0x1925 JUMP JUMPDEST SWAP2 POP PUSH2 0x15B6 DUP3 PUSH2 0x1D20 JUMP JUMPDEST PUSH1 0x40 DUP3 ADD SWAP1 POP SWAP2 SWAP1 POP JUMP JUMPDEST PUSH1 0x0 PUSH2 0x15CE PUSH1 0x24 DUP4 PUSH2 0x1925 JUMP JUMPDEST SWAP2 POP PUSH2 0x15D9 DUP3 PUSH2 0x1D6F JUMP JUMPDEST PUSH1 0x40 DUP3 ADD SWAP1 POP SWAP2 SWAP1 POP JUMP JUMPDEST PUSH1 0x0 PUSH2 0x15F1 PUSH1 0x21 DUP4 PUSH2 0x1925 JUMP JUMPDEST SWAP2 POP PUSH2 0x15FC DUP3 PUSH2 0x1DBE JUMP JUMPDEST PUSH1 0x40 DUP3 ADD SWAP1 POP SWAP2 SWAP1 POP JUMP JUMPDEST PUSH1 0x0 PUSH2 0x1614 PUSH1 0x25 DUP4 PUSH2 0x1925 JUMP JUMPDEST SWAP2 POP PUSH2 0x161F DUP3 PUSH2 0x1E0D JUMP JUMPDEST PUSH1 0x40 DUP3 ADD SWAP1 POP SWAP2 SWAP1 POP JUMP JUMPDEST PUSH1 0x0 PUSH2 0x1637 PUSH1 0x24 DUP4 PUSH2 0x1925 JUMP JUMPDEST SWAP2 POP PUSH2 0x1642 DUP3 PUSH2 0x1E5C JUMP JUMPDEST PUSH1 0x40 DUP3 ADD SWAP1 POP SWAP2 SWAP1 POP JUMP JUMPDEST PUSH1 0x0 PUSH2 0x165A PUSH1 0x25 DUP4 PUSH2 0x1925 JUMP JUMPDEST SWAP2 POP PUSH2 0x1665 DUP3 PUSH2 0x1EAB JUMP JUMPDEST PUSH1 0x40 DUP3 ADD SWAP1 POP SWAP2 SWAP1 POP JUMP JUMPDEST PUSH1 0x0 PUSH2 0x167D PUSH1 0x1F DUP4 PUSH2 0x1925 JUMP JUMPDEST SWAP2 POP PUSH2 0x1688 DUP3 PUSH2 0x1EFA JUMP JUMPDEST PUSH1 0x20 DUP3 ADD SWAP1 POP SWAP2 SWAP1 POP JUMP JUMPDEST PUSH2 0x169C DUP2 PUSH2 0x19FE JUMP JUMPDEST DUP3 MSTORE POP POP JUMP JUMPDEST PUSH2 0x16AB DUP2 PUSH2 0x1A08 JUMP JUMPDEST DUP3 MSTORE POP POP JUMP JUMPDEST PUSH1 0x0 PUSH1 0x20 DUP3 ADD SWAP1 POP PUSH2 0x16C6 PUSH1 0x0 DUP4 ADD DUP5 PUSH2 0x1484 JUMP JUMPDEST SWAP3 SWAP2 POP POP JUMP JUMPDEST PUSH1 0x0 PUSH1 0x20 DUP3 ADD SWAP1 POP DUP2 DUP2 SUB PUSH1 0x0 DUP4 ADD MSTORE PUSH2 0x16E6 DUP2 DUP5 PUSH2 0x1493 JUMP JUMPDEST SWAP1 POP SWAP3 SWAP2 POP POP JUMP JUMPDEST PUSH1 0x0 PUSH1 0x20 DUP3 ADD SWAP1 POP DUP2 DUP2 SUB PUSH1 0x0 DUP4 ADD MSTORE PUSH2 0x1707 DUP2 PUSH2 0x14CC JUMP JUMPDEST SWAP1 POP SWAP2 SWAP1 POP JUMP JUMPDEST PUSH1 0x0 PUSH1 0x20 DUP3 ADD SWAP1 POP DUP2 DUP2 SUB PUSH1 0x0 DUP4 ADD MSTORE PUSH2 0x1727 DUP2 PUSH2 0x14EF JUMP JUMPDEST SWAP1 POP SWAP2 SWAP1 POP JUMP JUMPDEST PUSH1 0x0 PUSH1 0x20 DUP3 ADD SWAP1 POP DUP2 DUP2 SUB PUSH1 0x0 DUP4 ADD MSTORE PUSH2 0x1747 DUP2 PUSH2 0x1512 JUMP JUMPDEST SWAP1 POP SWAP2 SWAP1 POP JUMP JUMPDEST PUSH1 0x0 PUSH1 0x20 DUP3 ADD SWAP1 POP DUP2 DUP2 SUB PUSH1 0x0 DUP4 ADD MSTORE PUSH2 0x1767 DUP2 PUSH2 0x1535 JUMP JUMPDEST SWAP1 POP SWAP2 SWAP1 POP JUMP JUMPDEST PUSH1 0x0 PUSH1 0x20 DUP3 ADD SWAP1 POP DUP2 DUP2 SUB PUSH1 0x0 DUP4 ADD MSTORE PUSH2 0x1787 DUP2 PUSH2 0x1558 JUMP JUMPDEST SWAP1 POP SWAP2 SWAP1 POP JUMP JUMPDEST PUSH1 0x0 PUSH1 0x20 DUP3 ADD SWAP1 POP DUP2 DUP2 SUB PUSH1 0x0 DUP4 ADD MSTORE PUSH2 0x17A7 DUP2 PUSH2 0x157B JUMP JUMPDEST SWAP1 POP SWAP2 SWAP1 POP JUMP JUMPDEST PUSH1 0x0 PUSH1 0x20 DUP3 ADD SWAP1 POP DUP2 DUP2 SUB PUSH1 0x0 DUP4 ADD MSTORE PUSH2 0x17C7 DUP2 PUSH2 0x159E JUMP JUMPDEST SWAP1 POP SWAP2 SWAP1 POP JUMP JUMPDEST PUSH1 0x0 PUSH1 0x20 DUP3 ADD SWAP1 POP DUP2 DUP2 SUB PUSH1 0x0 DUP4 ADD MSTORE PUSH2 0x17E7 DUP2 PUSH2 0x15C1 JUMP JUMPDEST SWAP1 POP SWAP2 SWAP1 POP JUMP JUMPDEST PUSH1 0x0 PUSH1 0x20 DUP3 ADD SWAP1 POP DUP2 DUP2 SUB PUSH1 0x0 DUP4 ADD MSTORE PUSH2 0x1807 DUP2 PUSH2 0x15E4 JUMP JUMPDEST SWAP1 POP SWAP2 SWAP1 POP JUMP JUMPDEST PUSH1 0x0 PUSH1 0x20 DUP3 ADD SWAP1 POP DUP2 DUP2 SUB PUSH1 0x0 DUP4 ADD MSTORE PUSH2 0x1827 DUP2 PUSH2 0x1607 JUMP JUMPDEST SWAP1 POP SWAP2 SWAP1 POP JUMP JUMPDEST PUSH1 0x0 PUSH1 0x20 DUP3 ADD SWAP1 POP DUP2 DUP2 SUB PUSH1 0x0 DUP4 ADD MSTORE PUSH2 0x1847 DUP2 PUSH2 0x162A JUMP JUMPDEST SWAP1 POP SWAP2 SWAP1 POP JUMP JUMPDEST PUSH1 0x0 PUSH1 0x20 DUP3 ADD SWAP1 POP DUP2 DUP2 SUB PUSH1 0x0 DUP4 ADD MSTORE PUSH2 0x1867 DUP2 PUSH2 0x164D JUMP JUMPDEST SWAP1 POP SWAP2 SWAP1 POP JUMP JUMPDEST PUSH1 0x0 PUSH1 0x20 DUP3 ADD SWAP1 POP DUP2 DUP2 SUB PUSH1 0x0 DUP4 ADD MSTORE PUSH2 0x1887 DUP2 PUSH2 0x1670 JUMP JUMPDEST SWAP1 POP SWAP2 SWAP1 POP JUMP JUMPDEST PUSH1 0x0 PUSH1 0x20 DUP3 ADD SWAP1 POP PUSH2 0x18A3 PUSH1 0x0 DUP4 ADD DUP5 PUSH2 0x1693 JUMP JUMPDEST SWAP3 SWAP2 POP POP JUMP JUMPDEST PUSH1 0x0 PUSH1 0x20 DUP3 ADD SWAP1 POP PUSH2 0x18BE PUSH1 0x0 DUP4 ADD DUP5 PUSH2 0x16A2 JUMP JUMPDEST SWAP3 SWAP2 POP POP JUMP JUMPDEST PUSH1 0x0 PUSH2 0x18CE PUSH2 0x18DF JUMP JUMPDEST SWAP1 POP PUSH2 0x18DA DUP3 DUP3 PUSH2 0x1A89 JUMP JUMPDEST SWAP2 SWAP1 POP JUMP JUMPDEST PUSH1 0x0 PUSH1 0x40 MLOAD SWAP1 POP SWAP1 JUMP JUMPDEST PUSH1 0x0 PUSH8 0xFFFFFFFFFFFFFFFF DUP3 GT ISZERO PUSH2 0x1904 JUMPI PUSH2 0x1903 PUSH2 0x1B18 JUMP JUMPDEST JUMPDEST PUSH2 0x190D DUP3 PUSH2 0x1B5B JUMP JUMPDEST SWAP1 POP PUSH1 0x20 DUP2 ADD SWAP1 POP SWAP2 SWAP1 POP JUMP JUMPDEST PUSH1 0x0 DUP2 MLOAD SWAP1 POP SWAP2 SWAP1 POP JUMP JUMPDEST PUSH1 0x0 DUP3 DUP3 MSTORE PUSH1 0x20 DUP3 ADD SWAP1 POP SWAP3 SWAP2 POP POP JUMP JUMPDEST PUSH1 0x0 PUSH2 0x1941 DUP3 PUSH2 0x19FE JUMP JUMPDEST SWAP2 POP PUSH2 0x194C DUP4 PUSH2 0x19FE JUMP JUMPDEST SWAP3 POP DUP3 PUSH32 0xFFFFFFFFFFFFFFFFFFFFFFFFFFFFFFFFFFFFFFFFFFFFFFFFFFFFFFFFFFFFFFFF SUB DUP3 GT ISZERO PUSH2 0x1981 JUMPI PUSH2 0x1980 PUSH2 0x1ABA JUMP JUMPDEST JUMPDEST DUP3 DUP3 ADD SWAP1 POP SWAP3 SWAP2 POP POP JUMP JUMPDEST PUSH1 0x0 PUSH2 0x1997 DUP3 PUSH2 0x19FE JUMP JUMPDEST SWAP2 POP PUSH2 0x19A2 DUP4 PUSH2 0x19FE JUMP JUMPDEST SWAP3 POP DUP3 DUP3 LT ISZERO PUSH2 0x19B5 JUMPI PUSH2 0x19B4 PUSH2 0x1ABA JUMP JUMPDEST JUMPDEST DUP3 DUP3 SUB SWAP1 POP SWAP3 SWAP2 POP POP JUMP JUMPDEST PUSH1 0x0 PUSH2 0x19CB DUP3 PUSH2 0x19DE JUMP JUMPDEST SWAP1 POP SWAP2 SWAP1 POP JUMP JUMPDEST PUSH1 0x0 DUP2 ISZERO ISZERO SWAP1 POP SWAP2 SWAP1 POP JUMP JUMPDEST PUSH1 0x0 PUSH20 0xFFFFFFFFFFFFFFFFFFFFFFFFFFFFFFFFFFFFFFFF DUP3 AND SWAP1 POP SWAP2 SWAP1 POP JUMP JUMPDEST PUSH1 0x0 DUP2 SWAP1 POP SWAP2 SWAP1 POP JUMP JUMPDEST PUSH1 0x0 PUSH1 0xFF DUP3 AND SWAP1 POP SWAP2 SWAP1 POP JUMP JUMPDEST DUP3 DUP2 DUP4 CALLDATACOPY PUSH1 0x0 DUP4 DUP4 ADD MSTORE POP POP POP JUMP JUMPDEST PUSH1 0x0 JUMPDEST DUP4 DUP2 LT ISZERO PUSH2 0x1A42 JUMPI DUP1 DUP3 ADD MLOAD DUP2 DUP5 ADD MSTORE PUSH1 0x20 DUP2 ADD SWAP1 POP PUSH2 0x1A27 JUMP JUMPDEST DUP4 DUP2 GT ISZERO PUSH2 0x1A51 JUMPI PUSH1 0x0 DUP5 DUP5 ADD MSTORE JUMPDEST POP POP POP POP JUMP JUMPDEST PUSH1 0x0 PUSH1 0x2 DUP3 DIV SWAP1 POP PUSH1 0x1 DUP3 AND DUP1 PUSH2 0x1A6F JUMPI PUSH1 0x7F DUP3 AND SWAP2 POP JUMPDEST PUSH1 0x20 DUP3 LT DUP2 EQ ISZERO PUSH2 0x1A83 JUMPI PUSH2 0x1A82 PUSH2 0x1AE9 JUMP JUMPDEST JUMPDEST POP SWAP2 SWAP1 POP JUMP JUMPDEST PUSH2 0x1A92 DUP3 PUSH2 0x1B5B JUMP JUMPDEST DUP2 ADD DUP2 DUP2 LT PUSH8 0xFFFFFFFFFFFFFFFF DUP3 GT OR ISZERO PUSH2 0x1AB1 JUMPI PUSH2 0x1AB0 PUSH2 0x1B18 JUMP JUMPDEST JUMPDEST DUP1 PUSH1 0x40 MSTORE POP POP POP JUMP JUMPDEST PUSH32 0x4E487B7100000000000000000000000000000000000000000000000000000000 PUSH1 0x0 MSTORE PUSH1 0x11 PUSH1 0x4 MSTORE PUSH1 0x24 PUSH1 0x0 REVERT JUMPDEST PUSH32 0x4E487B7100000000000000000000000000000000000000000000000000000000 PUSH1 0x0 MSTORE PUSH1 0x22 PUSH1 0x4 MSTORE PUSH1 0x24 PUSH1 0x0 REVERT JUMPDEST PUSH32 0x4E487B7100000000000000000000000000000000000000000000000000000000 PUSH1 0x0 MSTORE PUSH1 0x41 PUSH1 0x4 MSTORE PUSH1 0x24 PUSH1 0x0 REVERT JUMPDEST PUSH1 0x0 DUP1 REVERT JUMPDEST PUSH1 0x0 DUP1 REVERT JUMPDEST PUSH1 0x0 DUP1 REVERT JUMPDEST PUSH1 0x0 DUP1 REVERT JUMPDEST PUSH1 0x0 PUSH1 0x1F NOT PUSH1 0x1F DUP4 ADD AND SWAP1 POP SWAP2 SWAP1 POP JUMP JUMPDEST PUSH32 0x45524332303A207472616E7366657220746F20746865207A65726F2061646472 PUSH1 0x0 DUP3 ADD MSTORE PUSH32 0x6573730000000000000000000000000000000000000000000000000000000000 PUSH1 0x20 DUP3 ADD MSTORE POP JUMP JUMPDEST PUSH32 0x4275726E20616D6F756E74206D757374206265206C657373207468616E206F72 PUSH1 0x0 DUP3 ADD MSTORE PUSH32 0x20657175616C20746F20746865207472616E7366657220616D6F756E74000000 PUSH1 0x20 DUP3 ADD MSTORE POP JUMP JUMPDEST PUSH32 0x45524332303A206275726E20616D6F756E7420657863656564732062616C616E PUSH1 0x0 DUP3 ADD MSTORE PUSH32 0x6365000000000000000000000000000000000000000000000000000000000000 PUSH1 0x20 DUP3 ADD MSTORE POP JUMP JUMPDEST PUSH32 0x45524332303A20617070726F766520746F20746865207A65726F206164647265 PUSH1 0x0 DUP3 ADD MSTORE PUSH32 0x7373000000000000000000000000000000000000000000000000000000000000 PUSH1 0x20 DUP3 ADD MSTORE POP JUMP JUMPDEST PUSH32 0x4275726E20616D6F756E74206D7573742062652067726561746572207468616E PUSH1 0x0 DUP3 ADD MSTORE PUSH32 0x207A65726F000000000000000000000000000000000000000000000000000000 PUSH1 0x20 DUP3 ADD MSTORE POP JUMP JUMPDEST PUSH32 0x45524332303A20696E73756666696369656E7420616C6C6F77616E6365000000 PUSH1 0x0 DUP3 ADD MSTORE POP JUMP JUMPDEST PUSH32 0x45524332303A207472616E7366657220616D6F756E7420657863656564732062 PUSH1 0x0 DUP3 ADD MSTORE PUSH32 0x616C616E63650000000000000000000000000000000000000000000000000000 PUSH1 0x20 DUP3 ADD MSTORE POP JUMP JUMPDEST PUSH32 0x46656520616D6F756E74206D7573742062652067726561746572207468616E20 PUSH1 0x0 DUP3 ADD MSTORE PUSH32 0x7A65726F00000000000000000000000000000000000000000000000000000000 PUSH1 0x20 DUP3 ADD MSTORE POP JUMP JUMPDEST PUSH32 0x45524332303A206275726E2066726F6D20746865207A65726F20616464726573 PUSH1 0x0 DUP3 ADD MSTORE PUSH32 0x7300000000000000000000000000000000000000000000000000000000000000 PUSH1 0x20 DUP3 ADD MSTORE POP JUMP JUMPDEST PUSH32 0x45524332303A207472616E736665722066726F6D20746865207A65726F206164 PUSH1 0x0 DUP3 ADD MSTORE PUSH32 0x6472657373000000000000000000000000000000000000000000000000000000 PUSH1 0x20 DUP3 ADD MSTORE POP JUMP JUMPDEST PUSH32 0x45524332303A20617070726F76652066726F6D20746865207A65726F20616464 PUSH1 0x0 DUP3 ADD MSTORE PUSH32 0x7265737300000000000000000000000000000000000000000000000000000000 PUSH1 0x20 DUP3 ADD MSTORE POP JUMP JUMPDEST PUSH32 0x45524332303A2064656372656173656420616C6C6F77616E63652062656C6F77 PUSH1 0x0 DUP3 ADD MSTORE PUSH32 0x207A65726F000000000000000000000000000000000000000000000000000000 PUSH1 0x20 DUP3 ADD MSTORE POP JUMP JUMPDEST PUSH32 0x45524332303A206D696E7420746F20746865207A65726F206164647265737300 PUSH1 0x0 DUP3 ADD MSTORE POP JUMP JUMPDEST PUSH2 0x1F2C DUP2 PUSH2 0x19C0 JUMP JUMPDEST DUP2 EQ PUSH2 0x1F37 JUMPI PUSH1 0x0 DUP1 REVERT JUMPDEST POP JUMP JUMPDEST PUSH2 0x1F43 DUP2 PUSH2 0x19FE JUMP JUMPDEST DUP2 EQ PUSH2 0x1F4E JUMPI PUSH1 0x0 DUP1 REVERT JUMPDEST POP JUMP INVALID LOG2 PUSH5 0x6970667358 0x22 SLT KECCAK256 0xAE PUSH22 0x66DEA550F24633237325EEDD3CA5A8A229F6702BE115 0xD2 KECCAK256 NOT CODECOPY 0xE9 MLOAD SWAP11 MSTORE PUSH5 0x736F6C6343 STOP ADDMOD SMOD STOP CALLER "
				},
				"gasEstimates": {
					"creation": {
						"codeDepositCost": "1614200",
						"executionCost": "infinite",
						"totalCost": "infinite"
					},
					"external": {
						"allowance(address,address)": "infinite",
						"approve(address,uint256)": "infinite",
						"balanceOf(address)": "2951",
						"burn(uint256)": "infinite",
						"decimals()": "388",
						"decreaseAllowance(address,uint256)": "infinite",
						"increaseAllowance(address,uint256)": "infinite",
						"init(string,string,uint256)": "infinite",
						"mint(address,uint256)": "infinite",
						"name()": "infinite",
						"symbol()": "infinite",
						"totalSupply()": "2540",
						"transfer(address,uint256)": "infinite",
						"transferFrom(address,address,uint256)": "infinite",
						"transferWithFee(address,uint256,uint256,address)": "infinite",
						"transferWithTokenBurn(address,uint256,uint256)": "infinite"
					}
				},
				"methodIdentifiers": {
					"allowance(address,address)": "dd62ed3e",
					"approve(address,uint256)": "095ea7b3",
					"balanceOf(address)": "70a08231",
					"burn(uint256)": "42966c68",
					"decimals()": "313ce567",
					"decreaseAllowance(address,uint256)": "a457c2d7",
					"increaseAllowance(address,uint256)": "39509351",
					"init(string,string,uint256)": "2eabc917",
					"mint(address,uint256)": "40c10f19",
					"name()": "06fdde03",
					"symbol()": "95d89b41",
					"totalSupply()": "18160ddd",
					"transfer(address,uint256)": "a9059cbb",
					"transferFrom(address,address,uint256)": "23b872dd",
					"transferWithFee(address,uint256,uint256,address)": "3f50a705",
					"transferWithTokenBurn(address,uint256,uint256)": "bb9c1ad9"
				}
			},
			"storageLayout": {
				"storage": [
					{
						"astId": 15,
						"contract": "contracts/ERC20TokenABC.sol:ERC20TokenABC",
						"label": "_balances",
						"offset": 0,
						"slot": "0",
						"type": "t_mapping(t_address,t_uint256)"
					},
					{
						"astId": 21,
						"contract": "contracts/ERC20TokenABC.sol:ERC20TokenABC",
						"label": "_allowances",
						"offset": 0,
						"slot": "1",
						"type": "t_mapping(t_address,t_mapping(t_address,t_uint256))"
					},
					{
						"astId": 23,
						"contract": "contracts/ERC20TokenABC.sol:ERC20TokenABC",
						"label": "_totalSupply",
						"offset": 0,
						"slot": "2",
						"type": "t_uint256"
					},
					{
						"astId": 25,
						"contract": "contracts/ERC20TokenABC.sol:ERC20TokenABC",
						"label": "_name",
						"offset": 0,
						"slot": "3",
						"type": "t_string_storage"
					},
					{
						"astId": 27,
						"contract": "contracts/ERC20TokenABC.sol:ERC20TokenABC",
						"label": "_symbol",
						"offset": 0,
						"slot": "4",
						"type": "t_string_storage"
					}
				],
				"types": {
					"t_address": {
						"encoding": "inplace",
						"label": "address",
						"numberOfBytes": "20"
					},
					"t_mapping(t_address,t_mapping(t_address,t_uint256))": {
						"encoding": "mapping",
						"key": "t_address",
						"label": "mapping(address => mapping(address => uint256))",
						"numberOfBytes": "32",
						"value": "t_mapping(t_address,t_uint256)"
					},
					"t_mapping(t_address,t_uint256)": {
						"encoding": "mapping",
						"key": "t_address",
						"label": "mapping(address => uint256)",
						"numberOfBytes": "32",
						"value": "t_uint256"
					},
					"t_string_storage": {
						"encoding": "bytes",
						"label": "string",
						"numberOfBytes": "32"
					},
					"t_uint256": {
						"encoding": "inplace",
						"label": "uint256",
						"numberOfBytes": "32"
					}
				}
			},
			"userdoc": {
				"kind": "user",
				"methods": {},
				"version": 1
			}
		}
	}
}