{
	"contracts/ERC20V3SimpleFactory.sol": {
		"ERC20V3SimpleFactory": {
			"abi": [
				{
					"inputs": [
						{
							"internalType": "address",
							"name": "cloneFactory",
							"type": "address"
						},
						{
							"internalType": "address",
							"name": "erc20Template",
							"type": "address"
						},
						{
							"internalType": "uint256",
							"name": "createFee",
							"type": "uint256"
						}
					],
					"stateMutability": "nonpayable",
					"type": "constructor"
				},
				{
					"anonymous": false,
					"inputs": [
						{
							"indexed": false,
							"internalType": "uint256",
							"name": "newFee",
							"type": "uint256"
						}
					],
					"name": "ChangeCreateFee",
					"type": "event"
				},
				{
					"anonymous": false,
					"inputs": [
						{
							"indexed": false,
							"internalType": "address",
							"name": "newStdTemplate",
							"type": "address"
						}
					],
					"name": "ChangeStdTemplate",
					"type": "event"
				},
				{
					"anonymous": false,
					"inputs": [
						{
							"indexed": false,
							"internalType": "address",
							"name": "erc20",
							"type": "address"
						},
						{
							"indexed": false,
							"internalType": "address",
							"name": "creator",
							"type": "address"
						},
						{
							"indexed": false,
							"internalType": "uint256",
							"name": "erc20Type",
							"type": "uint256"
						}
					],
					"name": "NewERC20",
					"type": "event"
				},
				{
					"anonymous": false,
					"inputs": [
						{
							"indexed": true,
							"internalType": "address",
							"name": "previousOwner",
							"type": "address"
						},
						{
							"indexed": true,
							"internalType": "address",
							"name": "newOwner",
							"type": "address"
						}
					],
					"name": "OwnershipTransferPrepared",
					"type": "event"
				},
				{
					"anonymous": false,
					"inputs": [
						{
							"indexed": true,
							"internalType": "address",
							"name": "previousOwner",
							"type": "address"
						},
						{
							"indexed": true,
							"internalType": "address",
							"name": "newOwner",
							"type": "address"
						}
					],
					"name": "OwnershipTransferred",
					"type": "event"
				},
				{
					"anonymous": false,
					"inputs": [
						{
							"indexed": false,
							"internalType": "address",
							"name": "account",
							"type": "address"
						},
						{
							"indexed": false,
							"internalType": "uint256",
							"name": "amount",
							"type": "uint256"
						}
					],
					"name": "Withdraw",
					"type": "event"
				},
				{
					"stateMutability": "payable",
					"type": "fallback"
				},
				{
					"inputs": [],
					"name": "_CLONE_FACTORY_",
					"outputs": [
						{
							"internalType": "address",
							"name": "",
							"type": "address"
						}
					],
					"stateMutability": "view",
					"type": "function"
				},
				{
					"inputs": [],
					"name": "_CREATE_FEE_",
					"outputs": [
						{
							"internalType": "uint256",
							"name": "",
							"type": "uint256"
						}
					],
					"stateMutability": "view",
					"type": "function"
				},
				{
					"inputs": [],
					"name": "_ERC20_TEMPLATE_",
					"outputs": [
						{
							"internalType": "address",
							"name": "",
							"type": "address"
						}
					],
					"stateMutability": "view",
					"type": "function"
				},
				{
					"inputs": [],
					"name": "_NEW_OWNER_",
					"outputs": [
						{
							"internalType": "address",
							"name": "",
							"type": "address"
						}
					],
					"stateMutability": "view",
					"type": "function"
				},
				{
					"inputs": [],
					"name": "_OWNER_",
					"outputs": [
						{
							"internalType": "address",
							"name": "",
							"type": "address"
						}
					],
					"stateMutability": "view",
					"type": "function"
				},
				{
					"inputs": [
						{
							"internalType": "address",
							"name": "",
							"type": "address"
						},
						{
							"internalType": "uint256",
							"name": "",
							"type": "uint256"
						}
					],
					"name": "_USER_STD_REGISTRY_",
					"outputs": [
						{
							"internalType": "address",
							"name": "",
							"type": "address"
						}
					],
					"stateMutability": "view",
					"type": "function"
				},
				{
					"inputs": [
						{
							"internalType": "uint256",
							"name": "newFee",
							"type": "uint256"
						}
					],
					"name": "changeCreateFee",
					"outputs": [],
					"stateMutability": "nonpayable",
					"type": "function"
				},
				{
					"inputs": [],
					"name": "claimOwnership",
					"outputs": [],
					"stateMutability": "nonpayable",
					"type": "function"
				},
				{
					"inputs": [
						{
							"internalType": "string",
							"name": "name",
							"type": "string"
						},
						{
							"internalType": "string",
							"name": "symbol",
							"type": "string"
						},
						{
							"internalType": "uint256",
							"name": "totalSupply",
							"type": "uint256"
						},
						{
							"internalType": "uint8",
							"name": "decimals",
							"type": "uint8"
						}
					],
					"name": "createStdERC20",
					"outputs": [
						{
							"internalType": "address",
							"name": "newERC20",
							"type": "address"
						}
					],
					"stateMutability": "payable",
					"type": "function"
				},
				{
					"inputs": [
						{
							"internalType": "address",
							"name": "user",
							"type": "address"
						}
					],
					"name": "getTokenByUser",
					"outputs": [
						{
							"internalType": "address[]",
							"name": "stds",
							"type": "address[]"
						}
					],
					"stateMutability": "view",
					"type": "function"
				},
				{
					"inputs": [
						{
							"internalType": "address",
							"name": "newOwner",
							"type": "address"
						}
					],
					"name": "initOwner",
					"outputs": [],
					"stateMutability": "nonpayable",
					"type": "function"
				},
				{
					"inputs": [
						{
							"internalType": "address",
							"name": "newOwner",
							"type": "address"
						}
					],
					"name": "transferOwnership",
					"outputs": [],
					"stateMutability": "nonpayable",
					"type": "function"
				},
				{
					"inputs": [
						{
							"internalType": "address",
							"name": "newStdTemplate",
							"type": "address"
						}
					],
					"name": "updateStdTemplate",
					"outputs": [],
					"stateMutability": "nonpayable",
					"type": "function"
				},
				{
					"inputs": [],
					"name": "withdraw",
					"outputs": [],
					"stateMutability": "nonpayable",
					"type": "function"
				},
				{
					"stateMutability": "payable",
					"type": "receive"
				}
			],
			"devdoc": {
				"author": "DODO Breeder",
				"kind": "dev",
				"methods": {
					"createStdERC20(string,string,uint256,uint8)": {
						"details": "Create an ERC20 token."
					}
				},
				"title": "DODO ERC20V2Factory",
				"version": 1
			},
			"evm": {
				"assembly": "    /* \"contracts/ERC20V3SimpleFactory.sol\":2909:6156  contract ERC20V3SimpleFactory is InitializableOwnable {... */\n  mstore(0x40, 0xa0)\n    /* \"contracts/ERC20V3SimpleFactory.sol\":3811:4448  constructor(... */\n  callvalue\n  dup1\n  iszero\n  tag_1\n  jumpi\n  0x00\n  dup1\n  revert\ntag_1:\n  pop\n  mload(0x40)\n  sub(codesize, bytecodeSize)\n  dup1\n  bytecodeSize\n  dup4\n  codecopy\n  dup2\n  dup2\n  add\n  0x40\n  mstore\n  dup2\n  add\n  swap1\n  tag_2\n  swap2\n  swap1\n  tag_3\n  jump\t// in\ntag_2:\n    /* \"contracts/ERC20V3SimpleFactory.sol\":4350:4362  cloneFactory */\n  dup3\n    /* \"contracts/ERC20V3SimpleFactory.sol\":4332:4362  _CLONE_FACTORY_ = cloneFactory */\n  0xffffffffffffffffffffffffffffffffffffffff\n  and\n  0x80\n  dup2\n  0xffffffffffffffffffffffffffffffffffffffff\n  and\n  dup2\n  mstore\n  pop\n  pop\n    /* \"contracts/ERC20V3SimpleFactory.sol\":4392:4405  erc20Template */\n  dup2\n    /* \"contracts/ERC20V3SimpleFactory.sol\":4373:4389  _ERC20_TEMPLATE_ */\n  0x02\n  0x00\n    /* \"contracts/ERC20V3SimpleFactory.sol\":4373:4405  _ERC20_TEMPLATE_ = erc20Template */\n  0x0100\n  exp\n  dup2\n  sload\n  dup2\n  0xffffffffffffffffffffffffffffffffffffffff\n  mul\n  not\n  and\n  swap1\n  dup4\n  0xffffffffffffffffffffffffffffffffffffffff\n  and\n  mul\n  or\n  swap1\n  sstore\n  pop\n    /* \"contracts/ERC20V3SimpleFactory.sol\":4431:4440  createFee */\n  dup1\n    /* \"contracts/ERC20V3SimpleFactory.sol\":4416:4428  _CREATE_FEE_ */\n  0x03\n    /* \"contracts/ERC20V3SimpleFactory.sol\":4416:4440  _CREATE_FEE_ = createFee */\n  dup2\n  swap1\n  sstore\n  pop\n    /* \"contracts/ERC20V3SimpleFactory.sol\":3811:4448  constructor(... */\n  pop\n  pop\n  pop\n    /* \"contracts/ERC20V3SimpleFactory.sol\":2909:6156  contract ERC20V3SimpleFactory is InitializableOwnable {... */\n  jump(tag_6)\n    /* \"#utility.yul\":88:205   */\ntag_8:\n    /* \"#utility.yul\":197:198   */\n  0x00\n    /* \"#utility.yul\":194:195   */\n  dup1\n    /* \"#utility.yul\":187:199   */\n  revert\n    /* \"#utility.yul\":334:460   */\ntag_10:\n    /* \"#utility.yul\":371:378   */\n  0x00\n    /* \"#utility.yul\":411:453   */\n  0xffffffffffffffffffffffffffffffffffffffff\n    /* \"#utility.yul\":404:409   */\n  dup3\n    /* \"#utility.yul\":400:454   */\n  and\n    /* \"#utility.yul\":389:454   */\n  swap1\n  pop\n    /* \"#utility.yul\":334:460   */\n  swap2\n  swap1\n  pop\n  jump\t// out\n    /* \"#utility.yul\":466:562   */\ntag_11:\n    /* \"#utility.yul\":503:510   */\n  0x00\n    /* \"#utility.yul\":532:556   */\n  tag_23\n    /* \"#utility.yul\":550:555   */\n  dup3\n    /* \"#utility.yul\":532:556   */\n  tag_10\n  jump\t// in\ntag_23:\n    /* \"#utility.yul\":521:556   */\n  swap1\n  pop\n    /* \"#utility.yul\":466:562   */\n  swap2\n  swap1\n  pop\n  jump\t// out\n    /* \"#utility.yul\":568:690   */\ntag_12:\n    /* \"#utility.yul\":641:665   */\n  tag_25\n    /* \"#utility.yul\":659:664   */\n  dup2\n    /* \"#utility.yul\":641:665   */\n  tag_11\n  jump\t// in\ntag_25:\n    /* \"#utility.yul\":634:639   */\n  dup2\n    /* \"#utility.yul\":631:666   */\n  eq\n    /* \"#utility.yul\":621:684   */\n  tag_26\n  jumpi\n    /* \"#utility.yul\":680:681   */\n  0x00\n    /* \"#utility.yul\":677:678   */\n  dup1\n    /* \"#utility.yul\":670:682   */\n  revert\n    /* \"#utility.yul\":621:684   */\ntag_26:\n    /* \"#utility.yul\":568:690   */\n  pop\n  jump\t// out\n    /* \"#utility.yul\":696:839   */\ntag_13:\n    /* \"#utility.yul\":753:758   */\n  0x00\n    /* \"#utility.yul\":784:790   */\n  dup2\n    /* \"#utility.yul\":778:791   */\n  mload\n    /* \"#utility.yul\":769:791   */\n  swap1\n  pop\n    /* \"#utility.yul\":800:833   */\n  tag_28\n    /* \"#utility.yul\":827:832   */\n  dup2\n    /* \"#utility.yul\":800:833   */\n  tag_12\n  jump\t// in\ntag_28:\n    /* \"#utility.yul\":696:839   */\n  swap3\n  swap2\n  pop\n  pop\n  jump\t// out\n    /* \"#utility.yul\":845:922   */\ntag_14:\n    /* \"#utility.yul\":882:889   */\n  0x00\n    /* \"#utility.yul\":911:916   */\n  dup2\n    /* \"#utility.yul\":900:916   */\n  swap1\n  pop\n    /* \"#utility.yul\":845:922   */\n  swap2\n  swap1\n  pop\n  jump\t// out\n    /* \"#utility.yul\":928:1050   */\ntag_15:\n    /* \"#utility.yul\":1001:1025   */\n  tag_31\n    /* \"#utility.yul\":1019:1024   */\n  dup2\n    /* \"#utility.yul\":1001:1025   */\n  tag_14\n  jump\t// in\ntag_31:\n    /* \"#utility.yul\":994:999   */\n  dup2\n    /* \"#utility.yul\":991:1026   */\n  eq\n    /* \"#utility.yul\":981:1044   */\n  tag_32\n  jumpi\n    /* \"#utility.yul\":1040:1041   */\n  0x00\n    /* \"#utility.yul\":1037:1038   */\n  dup1\n    /* \"#utility.yul\":1030:1042   */\n  revert\n    /* \"#utility.yul\":981:1044   */\ntag_32:\n    /* \"#utility.yul\":928:1050   */\n  pop\n  jump\t// out\n    /* \"#utility.yul\":1056:1199   */\ntag_16:\n    /* \"#utility.yul\":1113:1118   */\n  0x00\n    /* \"#utility.yul\":1144:1150   */\n  dup2\n    /* \"#utility.yul\":1138:1151   */\n  mload\n    /* \"#utility.yul\":1129:1151   */\n  swap1\n  pop\n    /* \"#utility.yul\":1160:1193   */\n  tag_34\n    /* \"#utility.yul\":1187:1192   */\n  dup2\n    /* \"#utility.yul\":1160:1193   */\n  tag_15\n  jump\t// in\ntag_34:\n    /* \"#utility.yul\":1056:1199   */\n  swap3\n  swap2\n  pop\n  pop\n  jump\t// out\n    /* \"#utility.yul\":1205:1868   */\ntag_3:\n    /* \"#utility.yul\":1293:1299   */\n  0x00\n    /* \"#utility.yul\":1301:1307   */\n  dup1\n    /* \"#utility.yul\":1309:1315   */\n  0x00\n    /* \"#utility.yul\":1358:1360   */\n  0x60\n    /* \"#utility.yul\":1346:1355   */\n  dup5\n    /* \"#utility.yul\":1337:1344   */\n  dup7\n    /* \"#utility.yul\":1333:1356   */\n  sub\n    /* \"#utility.yul\":1329:1361   */\n  slt\n    /* \"#utility.yul\":1326:1445   */\n  iszero\n  tag_36\n  jumpi\n    /* \"#utility.yul\":1364:1443   */\n  tag_37\n  tag_8\n  jump\t// in\ntag_37:\n    /* \"#utility.yul\":1326:1445   */\ntag_36:\n    /* \"#utility.yul\":1484:1485   */\n  0x00\n    /* \"#utility.yul\":1509:1573   */\n  tag_38\n    /* \"#utility.yul\":1565:1572   */\n  dup7\n    /* \"#utility.yul\":1556:1562   */\n  dup3\n    /* \"#utility.yul\":1545:1554   */\n  dup8\n    /* \"#utility.yul\":1541:1563   */\n  add\n    /* \"#utility.yul\":1509:1573   */\n  tag_13\n  jump\t// in\ntag_38:\n    /* \"#utility.yul\":1499:1573   */\n  swap4\n  pop\n    /* \"#utility.yul\":1455:1583   */\n  pop\n    /* \"#utility.yul\":1622:1624   */\n  0x20\n    /* \"#utility.yul\":1648:1712   */\n  tag_39\n    /* \"#utility.yul\":1704:1711   */\n  dup7\n    /* \"#utility.yul\":1695:1701   */\n  dup3\n    /* \"#utility.yul\":1684:1693   */\n  dup8\n    /* \"#utility.yul\":1680:1702   */\n  add\n    /* \"#utility.yul\":1648:1712   */\n  tag_13\n  jump\t// in\ntag_39:\n    /* \"#utility.yul\":1638:1712   */\n  swap3\n  pop\n    /* \"#utility.yul\":1593:1722   */\n  pop\n    /* \"#utility.yul\":1761:1763   */\n  0x40\n    /* \"#utility.yul\":1787:1851   */\n  tag_40\n    /* \"#utility.yul\":1843:1850   */\n  dup7\n    /* \"#utility.yul\":1834:1840   */\n  dup3\n    /* \"#utility.yul\":1823:1832   */\n  dup8\n    /* \"#utility.yul\":1819:1841   */\n  add\n    /* \"#utility.yul\":1787:1851   */\n  tag_16\n  jump\t// in\ntag_40:\n    /* \"#utility.yul\":1777:1851   */\n  swap2\n  pop\n    /* \"#utility.yul\":1732:1861   */\n  pop\n    /* \"#utility.yul\":1205:1868   */\n  swap3\n  pop\n  swap3\n  pop\n  swap3\n  jump\t// out\n    /* \"contracts/ERC20V3SimpleFactory.sol\":2909:6156  contract ERC20V3SimpleFactory is InitializableOwnable {... */\ntag_6:\n  mload(0x80)\n  codecopy(0x00, dataOffset(sub_0), dataSize(sub_0))\n  0x00\n  assignImmutable(\"0x880e27052d769eaaa458e1fab30eebf55df2d8be734a5cd4f11ed72af914d1ed\")\n  return(0x00, dataSize(sub_0))\nstop\n\nsub_0: assembly {\n        /* \"contracts/ERC20V3SimpleFactory.sol\":2909:6156  contract ERC20V3SimpleFactory is InitializableOwnable {... */\n      mstore(0x40, 0x80)\n      jumpi(tag_1, lt(calldatasize, 0x04))\n      shr(0xe0, calldataload(0x00))\n      dup1\n      0x4e71e0c8\n      gt\n      tag_17\n      jumpi\n      dup1\n      0xd029d521\n      gt\n      tag_18\n      jumpi\n      dup1\n      0xd029d521\n      eq\n      tag_13\n      jumpi\n      dup1\n      0xe6acc72d\n      eq\n      tag_14\n      jumpi\n      dup1\n      0xeb774d05\n      eq\n      tag_15\n      jumpi\n      dup1\n      0xf2fde38b\n      eq\n      tag_16\n      jumpi\n      jump(tag_2)\n    tag_18:\n      dup1\n      0x4e71e0c8\n      eq\n      tag_10\n      jumpi\n      dup1\n      0x8456db15\n      eq\n      tag_11\n      jumpi\n      dup1\n      0x97381760\n      eq\n      tag_12\n      jumpi\n      jump(tag_2)\n    tag_17:\n      dup1\n      0x21235d4a\n      gt\n      tag_19\n      jumpi\n      dup1\n      0x21235d4a\n      eq\n      tag_6\n      jumpi\n      dup1\n      0x28ab047f\n      eq\n      tag_7\n      jumpi\n      dup1\n      0x35c70da0\n      eq\n      tag_8\n      jumpi\n      dup1\n      0x3ccfd60b\n      eq\n      tag_9\n      jumpi\n      jump(tag_2)\n    tag_19:\n      dup1\n      0x7e4011\n      eq\n      tag_3\n      jumpi\n      dup1\n      0x0d009297\n      eq\n      tag_4\n      jumpi\n      dup1\n      0x16048bc4\n      eq\n      tag_5\n      jumpi\n      jump(tag_2)\n    tag_1:\n      jumpi(tag_2, calldatasize)\n      stop\n    tag_2:\n      stop\n        /* \"contracts/ERC20V3SimpleFactory.sol\":4510:5234  function createStdERC20( // https://goerli.etherscan.io/tx/0x365785f360c60d47537ce7b300ebe4bca5402712c41b6734350e57ab1fcf052a... */\n    tag_3:\n      tag_24\n      0x04\n      dup1\n      calldatasize\n      sub\n      dup2\n      add\n      swap1\n      tag_25\n      swap2\n      swap1\n      tag_26\n      jump\t// in\n    tag_25:\n      tag_27\n      jump\t// in\n    tag_24:\n      mload(0x40)\n      tag_28\n      swap2\n      swap1\n      tag_29\n      jump\t// in\n    tag_28:\n      mload(0x40)\n      dup1\n      swap2\n      sub\n      swap1\n      return\n        /* \"contracts/ERC20V3SimpleFactory.sol\":1995:2122  function initOwner(address newOwner) public notInitialized {... */\n    tag_4:\n      callvalue\n      dup1\n      iszero\n      tag_30\n      jumpi\n      0x00\n      dup1\n      revert\n    tag_30:\n      pop\n      tag_31\n      0x04\n      dup1\n      calldatasize\n      sub\n      dup2\n      add\n      swap1\n      tag_32\n      swap2\n      swap1\n      tag_33\n      jump\t// in\n    tag_32:\n      tag_34\n      jump\t// in\n    tag_31:\n      stop\n        /* \"contracts/ERC20V3SimpleFactory.sol\":1362:1384  address public _OWNER_ */\n    tag_5:\n      callvalue\n      dup1\n      iszero\n      tag_35\n      jumpi\n      0x00\n      dup1\n      revert\n    tag_35:\n      pop\n      tag_36\n      tag_37\n      jump\t// in\n    tag_36:\n      mload(0x40)\n      tag_38\n      swap2\n      swap1\n      tag_29\n      jump\t// in\n    tag_38:\n      mload(0x40)\n      dup1\n      swap2\n      sub\n      swap1\n      return\n        /* \"contracts/ERC20V3SimpleFactory.sol\":3101:3128  uint256 public _CREATE_FEE_ */\n    tag_6:\n      callvalue\n      dup1\n      iszero\n      tag_39\n      jumpi\n      0x00\n      dup1\n      revert\n    tag_39:\n      pop\n      tag_40\n      tag_41\n      jump\t// in\n    tag_40:\n      mload(0x40)\n      tag_42\n      swap2\n      swap1\n      tag_43\n      jump\t// in\n    tag_42:\n      mload(0x40)\n      dup1\n      swap2\n      sub\n      swap1\n      return\n        /* \"contracts/ERC20V3SimpleFactory.sol\":5982:6153  function updateStdTemplate(address newStdTemplate) external onlyOwner {... */\n    tag_7:\n      callvalue\n      dup1\n      iszero\n      tag_44\n      jumpi\n      0x00\n      dup1\n      revert\n    tag_44:\n      pop\n      tag_45\n      0x04\n      dup1\n      calldatasize\n      sub\n      dup2\n      add\n      swap1\n      tag_46\n      swap2\n      swap1\n      tag_33\n      jump\t// in\n    tag_46:\n      tag_47\n      jump\t// in\n    tag_45:\n      stop\n        /* \"contracts/ERC20V3SimpleFactory.sol\":3499:3555  mapping(address => address[]) public _USER_STD_REGISTRY_ */\n    tag_8:\n      callvalue\n      dup1\n      iszero\n      tag_48\n      jumpi\n      0x00\n      dup1\n      revert\n    tag_48:\n      pop\n      tag_49\n      0x04\n      dup1\n      calldatasize\n      sub\n      dup2\n      add\n      swap1\n      tag_50\n      swap2\n      swap1\n      tag_51\n      jump\t// in\n    tag_50:\n      tag_52\n      jump\t// in\n    tag_49:\n      mload(0x40)\n      tag_53\n      swap2\n      swap1\n      tag_29\n      jump\t// in\n    tag_53:\n      mload(0x40)\n      dup1\n      swap2\n      sub\n      swap1\n      return\n        /* \"contracts/ERC20V3SimpleFactory.sol\":5649:5974  function withdraw() external onlyOwner {... */\n    tag_9:\n      callvalue\n      dup1\n      iszero\n      tag_54\n      jumpi\n      0x00\n      dup1\n      revert\n    tag_54:\n      pop\n      tag_55\n      tag_56\n      jump\t// in\n    tag_55:\n      stop\n        /* \"contracts/ERC20V3SimpleFactory.sol\":2301:2529  function claimOwnership() public {... */\n    tag_10:\n      callvalue\n      dup1\n      iszero\n      tag_57\n      jumpi\n      0x00\n      dup1\n      revert\n    tag_57:\n      pop\n      tag_58\n      tag_59\n      jump\t// in\n    tag_58:\n      stop\n        /* \"contracts/ERC20V3SimpleFactory.sol\":1391:1417  address public _NEW_OWNER_ */\n    tag_11:\n      callvalue\n      dup1\n      iszero\n      tag_60\n      jumpi\n      0x00\n      dup1\n      revert\n    tag_60:\n      pop\n      tag_61\n      tag_62\n      jump\t// in\n    tag_61:\n      mload(0x40)\n      tag_63\n      swap2\n      swap1\n      tag_29\n      jump\t// in\n    tag_63:\n      mload(0x40)\n      dup1\n      swap2\n      sub\n      swap1\n      return\n        /* \"contracts/ERC20V3SimpleFactory.sol\":3063:3094  address public _ERC20_TEMPLATE_ */\n    tag_12:\n      callvalue\n      dup1\n      iszero\n      tag_64\n      jumpi\n      0x00\n      dup1\n      revert\n    tag_64:\n      pop\n      tag_65\n      tag_66\n      jump\t// in\n    tag_65:\n      mload(0x40)\n      tag_67\n      swap2\n      swap1\n      tag_29\n      jump\t// in\n    tag_67:\n      mload(0x40)\n      dup1\n      swap2\n      sub\n      swap1\n      return\n        /* \"contracts/ERC20V3SimpleFactory.sol\":5281:5451  function getTokenByUser(address user) ... */\n    tag_13:\n      callvalue\n      dup1\n      iszero\n      tag_68\n      jumpi\n      0x00\n      dup1\n      revert\n    tag_68:\n      pop\n      tag_69\n      0x04\n      dup1\n      calldatasize\n      sub\n      dup2\n      add\n      swap1\n      tag_70\n      swap2\n      swap1\n      tag_33\n      jump\t// in\n    tag_70:\n      tag_71\n      jump\t// in\n    tag_69:\n      mload(0x40)\n      tag_72\n      swap2\n      swap1\n      tag_73\n      jump\t// in\n    tag_72:\n      mload(0x40)\n      dup1\n      swap2\n      sub\n      swap1\n      return\n        /* \"contracts/ERC20V3SimpleFactory.sol\":5502:5641  function changeCreateFee(uint256 newFee) external onlyOwner {... */\n    tag_14:\n      callvalue\n      dup1\n      iszero\n      tag_74\n      jumpi\n      0x00\n      dup1\n      revert\n    tag_74:\n      pop\n      tag_75\n      0x04\n      dup1\n      calldatasize\n      sub\n      dup2\n      add\n      swap1\n      tag_76\n      swap2\n      swap1\n      tag_77\n      jump\t// in\n    tag_76:\n      tag_78\n      jump\t// in\n    tag_75:\n      stop\n        /* \"contracts/ERC20V3SimpleFactory.sol\":3016:3056  address public immutable _CLONE_FACTORY_ */\n    tag_15:\n      callvalue\n      dup1\n      iszero\n      tag_79\n      jumpi\n      0x00\n      dup1\n      revert\n    tag_79:\n      pop\n      tag_80\n      tag_81\n      jump\t// in\n    tag_80:\n      mload(0x40)\n      tag_82\n      swap2\n      swap1\n      tag_29\n      jump\t// in\n    tag_82:\n      mload(0x40)\n      dup1\n      swap2\n      sub\n      swap1\n      return\n        /* \"contracts/ERC20V3SimpleFactory.sol\":2130:2293  function transferOwnership(address newOwner) public onlyOwner {... */\n    tag_16:\n      callvalue\n      dup1\n      iszero\n      tag_83\n      jumpi\n      0x00\n      dup1\n      revert\n    tag_83:\n      pop\n      tag_84\n      0x04\n      dup1\n      calldatasize\n      sub\n      dup2\n      add\n      swap1\n      tag_85\n      swap2\n      swap1\n      tag_33\n      jump\t// in\n    tag_85:\n      tag_86\n      jump\t// in\n    tag_84:\n      stop\n        /* \"contracts/ERC20V3SimpleFactory.sol\":4510:5234  function createStdERC20( // https://goerli.etherscan.io/tx/0x365785f360c60d47537ce7b300ebe4bca5402712c41b6734350e57ab1fcf052a... */\n    tag_27:\n        /* \"contracts/ERC20V3SimpleFactory.sol\":4783:4799  address newERC20 */\n      0x00\n        /* \"contracts/ERC20V3SimpleFactory.sol\":4833:4845  _CREATE_FEE_ */\n      sload(0x03)\n        /* \"contracts/ERC20V3SimpleFactory.sol\":4820:4829  msg.value */\n      callvalue\n        /* \"contracts/ERC20V3SimpleFactory.sol\":4820:4845  msg.value >= _CREATE_FEE_ */\n      lt\n      iszero\n        /* \"contracts/ERC20V3SimpleFactory.sol\":4812:4871  require(msg.value >= _CREATE_FEE_, \"CREATE_FEE_NOT_ENOUGH\") */\n      tag_88\n      jumpi\n      mload(0x40)\n      0x08c379a000000000000000000000000000000000000000000000000000000000\n      dup2\n      mstore\n      0x04\n      add\n      tag_89\n      swap1\n      tag_90\n      jump\t// in\n    tag_89:\n      mload(0x40)\n      dup1\n      swap2\n      sub\n      swap1\n      revert\n    tag_88:\n        /* \"contracts/ERC20V3SimpleFactory.sol\":4907:4922  _CLONE_FACTORY_ */\n      immutable(\"0x880e27052d769eaaa458e1fab30eebf55df2d8be734a5cd4f11ed72af914d1ed\")\n        /* \"contracts/ERC20V3SimpleFactory.sol\":4893:4929  ICloneFactory(_CLONE_FACTORY_).clone */\n      0xffffffffffffffffffffffffffffffffffffffff\n      and\n      0x8124b78e\n        /* \"contracts/ERC20V3SimpleFactory.sol\":4930:4946  _ERC20_TEMPLATE_ */\n      0x02\n      0x00\n      swap1\n      sload\n      swap1\n      0x0100\n      exp\n      swap1\n      div\n      0xffffffffffffffffffffffffffffffffffffffff\n      and\n        /* \"contracts/ERC20V3SimpleFactory.sol\":4893:4947  ICloneFactory(_CLONE_FACTORY_).clone(_ERC20_TEMPLATE_) */\n      mload(0x40)\n      dup3\n      0xffffffff\n      and\n      0xe0\n      shl\n      dup2\n      mstore\n      0x04\n      add\n      tag_91\n      swap2\n      swap1\n      tag_29\n      jump\t// in\n    tag_91:\n      0x20\n      mload(0x40)\n      dup1\n      dup4\n      sub\n      dup2\n      0x00\n      dup8\n      gas\n      call\n      iszero\n      dup1\n      iszero\n      tag_93\n      jumpi\n      returndatasize\n      0x00\n      dup1\n      returndatacopy\n      revert(0x00, returndatasize)\n    tag_93:\n      pop\n      pop\n      pop\n      pop\n      mload(0x40)\n      returndatasize\n      not(0x1f)\n      0x1f\n      dup3\n      add\n      and\n      dup3\n      add\n      dup1\n      0x40\n      mstore\n      pop\n      dup2\n      add\n      swap1\n      tag_94\n      swap2\n      swap1\n      tag_95\n      jump\t// in\n    tag_94:\n        /* \"contracts/ERC20V3SimpleFactory.sol\":4882:4947  newERC20 = ICloneFactory(_CLONE_FACTORY_).clone(_ERC20_TEMPLATE_) */\n      swap1\n      pop\n        /* \"contracts/ERC20V3SimpleFactory.sol\":5057:5065  newERC20 */\n      dup1\n        /* \"contracts/ERC20V3SimpleFactory.sol\":5047:5071  IStdERC20(newERC20).init */\n      0xffffffffffffffffffffffffffffffffffffffff\n      and\n      0xfc90ef18\n        /* \"contracts/ERC20V3SimpleFactory.sol\":5072:5082  msg.sender */\n      caller\n        /* \"contracts/ERC20V3SimpleFactory.sol\":5084:5095  totalSupply */\n      dup6\n        /* \"contracts/ERC20V3SimpleFactory.sol\":5097:5101  name */\n      dup9\n        /* \"contracts/ERC20V3SimpleFactory.sol\":5103:5109  symbol */\n      dup9\n        /* \"contracts/ERC20V3SimpleFactory.sol\":5111:5119  decimals */\n      dup8\n        /* \"contracts/ERC20V3SimpleFactory.sol\":5047:5120  IStdERC20(newERC20).init(msg.sender, totalSupply, name, symbol, decimals) */\n      mload(0x40)\n      dup7\n      0xffffffff\n      and\n      0xe0\n      shl\n      dup2\n      mstore\n      0x04\n      add\n      tag_96\n      swap6\n      swap5\n      swap4\n      swap3\n      swap2\n      swap1\n      tag_97\n      jump\t// in\n    tag_96:\n      0x00\n      mload(0x40)\n      dup1\n      dup4\n      sub\n      dup2\n      0x00\n      dup8\n      dup1\n      extcodesize\n      iszero\n      dup1\n      iszero\n      tag_98\n      jumpi\n      0x00\n      dup1\n      revert\n    tag_98:\n      pop\n      gas\n      call\n      iszero\n      dup1\n      iszero\n      tag_100\n      jumpi\n      returndatasize\n      0x00\n      dup1\n      returndatacopy\n      revert(0x00, returndatasize)\n    tag_100:\n      pop\n      pop\n      pop\n      pop\n        /* \"contracts/ERC20V3SimpleFactory.sol\":5131:5150  _USER_STD_REGISTRY_ */\n      0x04\n        /* \"contracts/ERC20V3SimpleFactory.sol\":5131:5162  _USER_STD_REGISTRY_[msg.sender] */\n      0x00\n        /* \"contracts/ERC20V3SimpleFactory.sol\":5151:5161  msg.sender */\n      caller\n        /* \"contracts/ERC20V3SimpleFactory.sol\":5131:5162  _USER_STD_REGISTRY_[msg.sender] */\n      0xffffffffffffffffffffffffffffffffffffffff\n      and\n      0xffffffffffffffffffffffffffffffffffffffff\n      and\n      dup2\n      mstore\n      0x20\n      add\n      swap1\n      dup2\n      mstore\n      0x20\n      add\n      0x00\n      keccak256\n        /* \"contracts/ERC20V3SimpleFactory.sol\":5168:5176  newERC20 */\n      dup2\n        /* \"contracts/ERC20V3SimpleFactory.sol\":5131:5177  _USER_STD_REGISTRY_[msg.sender].push(newERC20) */\n      swap1\n      dup1\n      0x01\n      dup2\n      sload\n      add\n      dup1\n      dup3\n      sstore\n      dup1\n      swap2\n      pop\n      pop\n      0x01\n      swap1\n      sub\n      swap1\n      0x00\n      mstore\n      keccak256(0x00, 0x20)\n      add\n      0x00\n      swap1\n      swap2\n      swap1\n      swap2\n      swap1\n      swap2\n      0x0100\n      exp\n      dup2\n      sload\n      dup2\n      0xffffffffffffffffffffffffffffffffffffffff\n      mul\n      not\n      and\n      swap1\n      dup4\n      0xffffffffffffffffffffffffffffffffffffffff\n      and\n      mul\n      or\n      swap1\n      sstore\n      pop\n        /* \"contracts/ERC20V3SimpleFactory.sol\":5193:5226  NewERC20(newERC20, msg.sender, 0) */\n      0x1393d5edd44c8974d9f4be5f459e4f6c6c67917e4400784fc61d8a0872a9fc38\n        /* \"contracts/ERC20V3SimpleFactory.sol\":5202:5210  newERC20 */\n      dup2\n        /* \"contracts/ERC20V3SimpleFactory.sol\":5212:5222  msg.sender */\n      caller\n        /* \"contracts/ERC20V3SimpleFactory.sol\":5224:5225  0 */\n      0x00\n        /* \"contracts/ERC20V3SimpleFactory.sol\":5193:5226  NewERC20(newERC20, msg.sender, 0) */\n      mload(0x40)\n      tag_102\n      swap4\n      swap3\n      swap2\n      swap1\n      tag_103\n      jump\t// in\n    tag_102:\n      mload(0x40)\n      dup1\n      swap2\n      sub\n      swap1\n      log1\n        /* \"contracts/ERC20V3SimpleFactory.sol\":4510:5234  function createStdERC20( // https://goerli.etherscan.io/tx/0x365785f360c60d47537ce7b300ebe4bca5402712c41b6734350e57ab1fcf052a... */\n      swap5\n      swap4\n      pop\n      pop\n      pop\n      pop\n      jump\t// out\n        /* \"contracts/ERC20V3SimpleFactory.sol\":1995:2122  function initOwner(address newOwner) public notInitialized {... */\n    tag_34:\n        /* \"contracts/ERC20V3SimpleFactory.sol\":1784:1797  _INITIALIZED_ */\n      0x01\n      0x14\n      swap1\n      sload\n      swap1\n      0x0100\n      exp\n      swap1\n      div\n      0xff\n      and\n        /* \"contracts/ERC20V3SimpleFactory.sol\":1783:1797  !_INITIALIZED_ */\n      iszero\n        /* \"contracts/ERC20V3SimpleFactory.sol\":1775:1818  require(!_INITIALIZED_, \"DODO_INITIALIZED\") */\n      tag_105\n      jumpi\n      mload(0x40)\n      0x08c379a000000000000000000000000000000000000000000000000000000000\n      dup2\n      mstore\n      0x04\n      add\n      tag_106\n      swap1\n      tag_107\n      jump\t// in\n    tag_106:\n      mload(0x40)\n      dup1\n      swap2\n      sub\n      swap1\n      revert\n    tag_105:\n        /* \"contracts/ERC20V3SimpleFactory.sol\":2081:2085  true */\n      0x01\n        /* \"contracts/ERC20V3SimpleFactory.sol\":2065:2078  _INITIALIZED_ */\n      dup1\n      0x14\n        /* \"contracts/ERC20V3SimpleFactory.sol\":2065:2085  _INITIALIZED_ = true */\n      0x0100\n      exp\n      dup2\n      sload\n      dup2\n      0xff\n      mul\n      not\n      and\n      swap1\n      dup4\n      iszero\n      iszero\n      mul\n      or\n      swap1\n      sstore\n      pop\n        /* \"contracts/ERC20V3SimpleFactory.sol\":2106:2114  newOwner */\n      dup1\n        /* \"contracts/ERC20V3SimpleFactory.sol\":2096:2103  _OWNER_ */\n      0x00\n      dup1\n        /* \"contracts/ERC20V3SimpleFactory.sol\":2096:2114  _OWNER_ = newOwner */\n      0x0100\n      exp\n      dup2\n      sload\n      dup2\n      0xffffffffffffffffffffffffffffffffffffffff\n      mul\n      not\n      and\n      swap1\n      dup4\n      0xffffffffffffffffffffffffffffffffffffffff\n      and\n      mul\n      or\n      swap1\n      sstore\n      pop\n        /* \"contracts/ERC20V3SimpleFactory.sol\":1995:2122  function initOwner(address newOwner) public notInitialized {... */\n      pop\n      jump\t// out\n        /* \"contracts/ERC20V3SimpleFactory.sol\":1362:1384  address public _OWNER_ */\n    tag_37:\n      0x00\n      dup1\n      sload\n      swap1\n      0x0100\n      exp\n      swap1\n      div\n      0xffffffffffffffffffffffffffffffffffffffff\n      and\n      dup2\n      jump\t// out\n        /* \"contracts/ERC20V3SimpleFactory.sol\":3101:3128  uint256 public _CREATE_FEE_ */\n    tag_41:\n      sload(0x03)\n      dup2\n      jump\t// out\n        /* \"contracts/ERC20V3SimpleFactory.sol\":5982:6153  function updateStdTemplate(address newStdTemplate) external onlyOwner {... */\n    tag_47:\n        /* \"contracts/ERC20V3SimpleFactory.sol\":1900:1907  _OWNER_ */\n      0x00\n      dup1\n      sload\n      swap1\n      0x0100\n      exp\n      swap1\n      div\n      0xffffffffffffffffffffffffffffffffffffffff\n      and\n        /* \"contracts/ERC20V3SimpleFactory.sol\":1886:1907  msg.sender == _OWNER_ */\n      0xffffffffffffffffffffffffffffffffffffffff\n      and\n        /* \"contracts/ERC20V3SimpleFactory.sol\":1886:1896  msg.sender */\n      caller\n        /* \"contracts/ERC20V3SimpleFactory.sol\":1886:1907  msg.sender == _OWNER_ */\n      0xffffffffffffffffffffffffffffffffffffffff\n      and\n      eq\n        /* \"contracts/ERC20V3SimpleFactory.sol\":1878:1921  require(msg.sender == _OWNER_, \"NOT_OWNER\") */\n      tag_110\n      jumpi\n      mload(0x40)\n      0x08c379a000000000000000000000000000000000000000000000000000000000\n      dup2\n      mstore\n      0x04\n      add\n      tag_111\n      swap1\n      tag_112\n      jump\t// in\n    tag_111:\n      mload(0x40)\n      dup1\n      swap2\n      sub\n      swap1\n      revert\n    tag_110:\n        /* \"contracts/ERC20V3SimpleFactory.sol\":6082:6096  newStdTemplate */\n      dup1\n        /* \"contracts/ERC20V3SimpleFactory.sol\":6063:6079  _ERC20_TEMPLATE_ */\n      0x02\n      0x00\n        /* \"contracts/ERC20V3SimpleFactory.sol\":6063:6096  _ERC20_TEMPLATE_ = newStdTemplate */\n      0x0100\n      exp\n      dup2\n      sload\n      dup2\n      0xffffffffffffffffffffffffffffffffffffffff\n      mul\n      not\n      and\n      swap1\n      dup4\n      0xffffffffffffffffffffffffffffffffffffffff\n      and\n      mul\n      or\n      swap1\n      sstore\n      pop\n        /* \"contracts/ERC20V3SimpleFactory.sol\":6112:6145  ChangeStdTemplate(newStdTemplate) */\n      0xedc968a09f964f0ab07f91c96dd61bbfd3ce2b438ede9e63721d56867ea53365\n        /* \"contracts/ERC20V3SimpleFactory.sol\":6130:6144  newStdTemplate */\n      dup2\n        /* \"contracts/ERC20V3SimpleFactory.sol\":6112:6145  ChangeStdTemplate(newStdTemplate) */\n      mload(0x40)\n      tag_114\n      swap2\n      swap1\n      tag_29\n      jump\t// in\n    tag_114:\n      mload(0x40)\n      dup1\n      swap2\n      sub\n      swap1\n      log1\n        /* \"contracts/ERC20V3SimpleFactory.sol\":5982:6153  function updateStdTemplate(address newStdTemplate) external onlyOwner {... */\n      pop\n      jump\t// out\n        /* \"contracts/ERC20V3SimpleFactory.sol\":3499:3555  mapping(address => address[]) public _USER_STD_REGISTRY_ */\n    tag_52:\n      mstore(0x20, 0x04)\n      dup2\n      0x00\n      mstore\n      keccak256(0x00, 0x40)\n      dup2\n      dup2\n      sload\n      dup2\n      lt\n      tag_115\n      jumpi\n      0x00\n      dup1\n      revert\n    tag_115:\n      swap1\n      0x00\n      mstore\n      keccak256(0x00, 0x20)\n      add\n      0x00\n      swap2\n      pop\n      swap2\n      pop\n      swap1\n      sload\n      swap1\n      0x0100\n      exp\n      swap1\n      div\n      0xffffffffffffffffffffffffffffffffffffffff\n      and\n      dup2\n      jump\t// out\n        /* \"contracts/ERC20V3SimpleFactory.sol\":5649:5974  function withdraw() external onlyOwner {... */\n    tag_56:\n        /* \"contracts/ERC20V3SimpleFactory.sol\":1900:1907  _OWNER_ */\n      0x00\n      dup1\n      sload\n      swap1\n      0x0100\n      exp\n      swap1\n      div\n      0xffffffffffffffffffffffffffffffffffffffff\n      and\n        /* \"contracts/ERC20V3SimpleFactory.sol\":1886:1907  msg.sender == _OWNER_ */\n      0xffffffffffffffffffffffffffffffffffffffff\n      and\n        /* \"contracts/ERC20V3SimpleFactory.sol\":1886:1896  msg.sender */\n      caller\n        /* \"contracts/ERC20V3SimpleFactory.sol\":1886:1907  msg.sender == _OWNER_ */\n      0xffffffffffffffffffffffffffffffffffffffff\n      and\n      eq\n        /* \"contracts/ERC20V3SimpleFactory.sol\":1878:1921  require(msg.sender == _OWNER_, \"NOT_OWNER\") */\n      tag_118\n      jumpi\n      mload(0x40)\n      0x08c379a000000000000000000000000000000000000000000000000000000000\n      dup2\n      mstore\n      0x04\n      add\n      tag_119\n      swap1\n      tag_112\n      jump\t// in\n    tag_119:\n      mload(0x40)\n      dup1\n      swap2\n      sub\n      swap1\n      revert\n    tag_118:\n        /* \"contracts/ERC20V3SimpleFactory.sol\":5699:5713  uint256 amount */\n      0x00\n        /* \"contracts/ERC20V3SimpleFactory.sol\":5716:5737  address(this).balance */\n      selfbalance\n        /* \"contracts/ERC20V3SimpleFactory.sol\":5699:5737  uint256 amount = address(this).balance */\n      swap1\n      pop\n        /* \"contracts/ERC20V3SimpleFactory.sol\":5893:5903  msg.sender */\n      caller\n        /* \"contracts/ERC20V3SimpleFactory.sol\":5885:5913  payable(msg.sender).transfer */\n      0xffffffffffffffffffffffffffffffffffffffff\n      and\n        /* \"contracts/ERC20V3SimpleFactory.sol\":5885:5921  payable(msg.sender).transfer(amount) */\n      0x08fc\n        /* \"contracts/ERC20V3SimpleFactory.sol\":5914:5920  amount */\n      dup3\n        /* \"contracts/ERC20V3SimpleFactory.sol\":5885:5921  payable(msg.sender).transfer(amount) */\n      swap1\n      dup2\n      iszero\n      mul\n      swap1\n      mload(0x40)\n      0x00\n      mload(0x40)\n      dup1\n      dup4\n      sub\n      dup2\n      dup6\n      dup9\n      dup9\n      call\n      swap4\n      pop\n      pop\n      pop\n      pop\n      iszero\n      dup1\n      iszero\n      tag_122\n      jumpi\n      returndatasize\n      0x00\n      dup1\n      returndatacopy\n      revert(0x00, returndatasize)\n    tag_122:\n      pop\n        /* \"contracts/ERC20V3SimpleFactory.sol\":5938:5966  Withdraw(msg.sender, amount) */\n      0x884edad9ce6fa2440d8a54cc123490eb96d2768479d49ff9c7366125a9424364\n        /* \"contracts/ERC20V3SimpleFactory.sol\":5947:5957  msg.sender */\n      caller\n        /* \"contracts/ERC20V3SimpleFactory.sol\":5959:5965  amount */\n      dup3\n        /* \"contracts/ERC20V3SimpleFactory.sol\":5938:5966  Withdraw(msg.sender, amount) */\n      mload(0x40)\n      tag_123\n      swap3\n      swap2\n      swap1\n      tag_124\n      jump\t// in\n    tag_123:\n      mload(0x40)\n      dup1\n      swap2\n      sub\n      swap1\n      log1\n        /* \"contracts/ERC20V3SimpleFactory.sol\":5688:5974  {... */\n      pop\n        /* \"contracts/ERC20V3SimpleFactory.sol\":5649:5974  function withdraw() external onlyOwner {... */\n      jump\t// out\n        /* \"contracts/ERC20V3SimpleFactory.sol\":2301:2529  function claimOwnership() public {... */\n    tag_59:\n        /* \"contracts/ERC20V3SimpleFactory.sol\":2367:2378  _NEW_OWNER_ */\n      0x01\n      0x00\n      swap1\n      sload\n      swap1\n      0x0100\n      exp\n      swap1\n      div\n      0xffffffffffffffffffffffffffffffffffffffff\n      and\n        /* \"contracts/ERC20V3SimpleFactory.sol\":2353:2378  msg.sender == _NEW_OWNER_ */\n      0xffffffffffffffffffffffffffffffffffffffff\n      and\n        /* \"contracts/ERC20V3SimpleFactory.sol\":2353:2363  msg.sender */\n      caller\n        /* \"contracts/ERC20V3SimpleFactory.sol\":2353:2378  msg.sender == _NEW_OWNER_ */\n      0xffffffffffffffffffffffffffffffffffffffff\n      and\n      eq\n        /* \"contracts/ERC20V3SimpleFactory.sol\":2345:2396  require(msg.sender == _NEW_OWNER_, \"INVALID_CLAIM\") */\n      tag_126\n      jumpi\n      mload(0x40)\n      0x08c379a000000000000000000000000000000000000000000000000000000000\n      dup2\n      mstore\n      0x04\n      add\n      tag_127\n      swap1\n      tag_128\n      jump\t// in\n    tag_127:\n      mload(0x40)\n      dup1\n      swap2\n      sub\n      swap1\n      revert\n    tag_126:\n        /* \"contracts/ERC20V3SimpleFactory.sol\":2442:2453  _NEW_OWNER_ */\n      0x01\n      0x00\n      swap1\n      sload\n      swap1\n      0x0100\n      exp\n      swap1\n      div\n      0xffffffffffffffffffffffffffffffffffffffff\n      and\n        /* \"contracts/ERC20V3SimpleFactory.sol\":2412:2454  OwnershipTransferred(_OWNER_, _NEW_OWNER_) */\n      0xffffffffffffffffffffffffffffffffffffffff\n      and\n        /* \"contracts/ERC20V3SimpleFactory.sol\":2433:2440  _OWNER_ */\n      0x00\n      dup1\n      sload\n      swap1\n      0x0100\n      exp\n      swap1\n      div\n      0xffffffffffffffffffffffffffffffffffffffff\n      and\n        /* \"contracts/ERC20V3SimpleFactory.sol\":2412:2454  OwnershipTransferred(_OWNER_, _NEW_OWNER_) */\n      0xffffffffffffffffffffffffffffffffffffffff\n      and\n      0x8be0079c531659141344cd1fd0a4f28419497f9722a3daafe3b4186f6b6457e0\n      mload(0x40)\n      mload(0x40)\n      dup1\n      swap2\n      sub\n      swap1\n      log3\n        /* \"contracts/ERC20V3SimpleFactory.sol\":2475:2486  _NEW_OWNER_ */\n      0x01\n      0x00\n      swap1\n      sload\n      swap1\n      0x0100\n      exp\n      swap1\n      div\n      0xffffffffffffffffffffffffffffffffffffffff\n      and\n        /* \"contracts/ERC20V3SimpleFactory.sol\":2465:2472  _OWNER_ */\n      0x00\n      dup1\n        /* \"contracts/ERC20V3SimpleFactory.sol\":2465:2486  _OWNER_ = _NEW_OWNER_ */\n      0x0100\n      exp\n      dup2\n      sload\n      dup2\n      0xffffffffffffffffffffffffffffffffffffffff\n      mul\n      not\n      and\n      swap1\n      dup4\n      0xffffffffffffffffffffffffffffffffffffffff\n      and\n      mul\n      or\n      swap1\n      sstore\n      pop\n        /* \"contracts/ERC20V3SimpleFactory.sol\":2519:2520  0 */\n      0x00\n        /* \"contracts/ERC20V3SimpleFactory.sol\":2497:2508  _NEW_OWNER_ */\n      0x01\n      0x00\n        /* \"contracts/ERC20V3SimpleFactory.sol\":2497:2521  _NEW_OWNER_ = address(0) */\n      0x0100\n      exp\n      dup2\n      sload\n      dup2\n      0xffffffffffffffffffffffffffffffffffffffff\n      mul\n      not\n      and\n      swap1\n      dup4\n      0xffffffffffffffffffffffffffffffffffffffff\n      and\n      mul\n      or\n      swap1\n      sstore\n      pop\n        /* \"contracts/ERC20V3SimpleFactory.sol\":2301:2529  function claimOwnership() public {... */\n      jump\t// out\n        /* \"contracts/ERC20V3SimpleFactory.sol\":1391:1417  address public _NEW_OWNER_ */\n    tag_62:\n      0x01\n      0x00\n      swap1\n      sload\n      swap1\n      0x0100\n      exp\n      swap1\n      div\n      0xffffffffffffffffffffffffffffffffffffffff\n      and\n      dup2\n      jump\t// out\n        /* \"contracts/ERC20V3SimpleFactory.sol\":3063:3094  address public _ERC20_TEMPLATE_ */\n    tag_66:\n      0x02\n      0x00\n      swap1\n      sload\n      swap1\n      0x0100\n      exp\n      swap1\n      div\n      0xffffffffffffffffffffffffffffffffffffffff\n      and\n      dup2\n      jump\t// out\n        /* \"contracts/ERC20V3SimpleFactory.sol\":5281:5451  function getTokenByUser(address user) ... */\n    tag_71:\n        /* \"contracts/ERC20V3SimpleFactory.sol\":5370:5391  address[] memory stds */\n      0x60\n        /* \"contracts/ERC20V3SimpleFactory.sol\":5417:5436  _USER_STD_REGISTRY_ */\n      0x04\n        /* \"contracts/ERC20V3SimpleFactory.sol\":5417:5442  _USER_STD_REGISTRY_[user] */\n      0x00\n        /* \"contracts/ERC20V3SimpleFactory.sol\":5437:5441  user */\n      dup4\n        /* \"contracts/ERC20V3SimpleFactory.sol\":5417:5442  _USER_STD_REGISTRY_[user] */\n      0xffffffffffffffffffffffffffffffffffffffff\n      and\n      0xffffffffffffffffffffffffffffffffffffffff\n      and\n      dup2\n      mstore\n      0x20\n      add\n      swap1\n      dup2\n      mstore\n      0x20\n      add\n      0x00\n      keccak256\n        /* \"contracts/ERC20V3SimpleFactory.sol\":5409:5443  return (_USER_STD_REGISTRY_[user]) */\n      dup1\n      sload\n      dup1\n      0x20\n      mul\n      0x20\n      add\n      mload(0x40)\n      swap1\n      dup2\n      add\n      0x40\n      mstore\n      dup1\n      swap3\n      swap2\n      swap1\n      dup2\n      dup2\n      mstore\n      0x20\n      add\n      dup3\n      dup1\n      sload\n      dup1\n      iszero\n      tag_130\n      jumpi\n      0x20\n      mul\n      dup3\n      add\n      swap2\n      swap1\n      0x00\n      mstore\n      keccak256(0x00, 0x20)\n      swap1\n    tag_131:\n      dup2\n      0x00\n      swap1\n      sload\n      swap1\n      0x0100\n      exp\n      swap1\n      div\n      0xffffffffffffffffffffffffffffffffffffffff\n      and\n      0xffffffffffffffffffffffffffffffffffffffff\n      and\n      dup2\n      mstore\n      0x20\n      add\n      swap1\n      0x01\n      add\n      swap1\n      dup1\n      dup4\n      gt\n      tag_131\n      jumpi\n    tag_130:\n      pop\n      pop\n      pop\n      pop\n      pop\n      swap1\n      pop\n        /* \"contracts/ERC20V3SimpleFactory.sol\":5281:5451  function getTokenByUser(address user) ... */\n      swap2\n      swap1\n      pop\n      jump\t// out\n        /* \"contracts/ERC20V3SimpleFactory.sol\":5502:5641  function changeCreateFee(uint256 newFee) external onlyOwner {... */\n    tag_78:\n        /* \"contracts/ERC20V3SimpleFactory.sol\":1900:1907  _OWNER_ */\n      0x00\n      dup1\n      sload\n      swap1\n      0x0100\n      exp\n      swap1\n      div\n      0xffffffffffffffffffffffffffffffffffffffff\n      and\n        /* \"contracts/ERC20V3SimpleFactory.sol\":1886:1907  msg.sender == _OWNER_ */\n      0xffffffffffffffffffffffffffffffffffffffff\n      and\n        /* \"contracts/ERC20V3SimpleFactory.sol\":1886:1896  msg.sender */\n      caller\n        /* \"contracts/ERC20V3SimpleFactory.sol\":1886:1907  msg.sender == _OWNER_ */\n      0xffffffffffffffffffffffffffffffffffffffff\n      and\n      eq\n        /* \"contracts/ERC20V3SimpleFactory.sol\":1878:1921  require(msg.sender == _OWNER_, \"NOT_OWNER\") */\n      tag_133\n      jumpi\n      mload(0x40)\n      0x08c379a000000000000000000000000000000000000000000000000000000000\n      dup2\n      mstore\n      0x04\n      add\n      tag_134\n      swap1\n      tag_112\n      jump\t// in\n    tag_134:\n      mload(0x40)\n      dup1\n      swap2\n      sub\n      swap1\n      revert\n    tag_133:\n        /* \"contracts/ERC20V3SimpleFactory.sol\":5588:5594  newFee */\n      dup1\n        /* \"contracts/ERC20V3SimpleFactory.sol\":5573:5585  _CREATE_FEE_ */\n      0x03\n        /* \"contracts/ERC20V3SimpleFactory.sol\":5573:5594  _CREATE_FEE_ = newFee */\n      dup2\n      swap1\n      sstore\n      pop\n        /* \"contracts/ERC20V3SimpleFactory.sol\":5610:5633  ChangeCreateFee(newFee) */\n      0xe2a626dd21b2ca43b97ef589791d30517db1c9676631e68d57b444e2e1826909\n        /* \"contracts/ERC20V3SimpleFactory.sol\":5626:5632  newFee */\n      dup2\n        /* \"contracts/ERC20V3SimpleFactory.sol\":5610:5633  ChangeCreateFee(newFee) */\n      mload(0x40)\n      tag_136\n      swap2\n      swap1\n      tag_43\n      jump\t// in\n    tag_136:\n      mload(0x40)\n      dup1\n      swap2\n      sub\n      swap1\n      log1\n        /* \"contracts/ERC20V3SimpleFactory.sol\":5502:5641  function changeCreateFee(uint256 newFee) external onlyOwner {... */\n      pop\n      jump\t// out\n        /* \"contracts/ERC20V3SimpleFactory.sol\":3016:3056  address public immutable _CLONE_FACTORY_ */\n    tag_81:\n      immutable(\"0x880e27052d769eaaa458e1fab30eebf55df2d8be734a5cd4f11ed72af914d1ed\")\n      dup2\n      jump\t// out\n        /* \"contracts/ERC20V3SimpleFactory.sol\":2130:2293  function transferOwnership(address newOwner) public onlyOwner {... */\n    tag_86:\n        /* \"contracts/ERC20V3SimpleFactory.sol\":1900:1907  _OWNER_ */\n      0x00\n      dup1\n      sload\n      swap1\n      0x0100\n      exp\n      swap1\n      div\n      0xffffffffffffffffffffffffffffffffffffffff\n      and\n        /* \"contracts/ERC20V3SimpleFactory.sol\":1886:1907  msg.sender == _OWNER_ */\n      0xffffffffffffffffffffffffffffffffffffffff\n      and\n        /* \"contracts/ERC20V3SimpleFactory.sol\":1886:1896  msg.sender */\n      caller\n        /* \"contracts/ERC20V3SimpleFactory.sol\":1886:1907  msg.sender == _OWNER_ */\n      0xffffffffffffffffffffffffffffffffffffffff\n      and\n      eq\n        /* \"contracts/ERC20V3SimpleFactory.sol\":1878:1921  require(msg.sender == _OWNER_, \"NOT_OWNER\") */\n      tag_138\n      jumpi\n      mload(0x40)\n      0x08c379a000000000000000000000000000000000000000000000000000000000\n      dup2\n      mstore\n      0x04\n      add\n      tag_139\n      swap1\n      tag_112\n      jump\t// in\n    tag_139:\n      mload(0x40)\n      dup1\n      swap2\n      sub\n      swap1\n      revert\n    tag_138:\n        /* \"contracts/ERC20V3SimpleFactory.sol\":2243:2251  newOwner */\n      dup1\n        /* \"contracts/ERC20V3SimpleFactory.sol\":2208:2252  OwnershipTransferPrepared(_OWNER_, newOwner) */\n      0xffffffffffffffffffffffffffffffffffffffff\n      and\n        /* \"contracts/ERC20V3SimpleFactory.sol\":2234:2241  _OWNER_ */\n      0x00\n      dup1\n      sload\n      swap1\n      0x0100\n      exp\n      swap1\n      div\n      0xffffffffffffffffffffffffffffffffffffffff\n      and\n        /* \"contracts/ERC20V3SimpleFactory.sol\":2208:2252  OwnershipTransferPrepared(_OWNER_, newOwner) */\n      0xffffffffffffffffffffffffffffffffffffffff\n      and\n      0xdcf55418cee3220104fef63f979ff3c4097ad240c0c43dcb33ce837748983e62\n      mload(0x40)\n      mload(0x40)\n      dup1\n      swap2\n      sub\n      swap1\n      log3\n        /* \"contracts/ERC20V3SimpleFactory.sol\":2277:2285  newOwner */\n      dup1\n        /* \"contracts/ERC20V3SimpleFactory.sol\":2263:2274  _NEW_OWNER_ */\n      0x01\n      0x00\n        /* \"contracts/ERC20V3SimpleFactory.sol\":2263:2285  _NEW_OWNER_ = newOwner */\n      0x0100\n      exp\n      dup2\n      sload\n      dup2\n      0xffffffffffffffffffffffffffffffffffffffff\n      mul\n      not\n      and\n      swap1\n      dup4\n      0xffffffffffffffffffffffffffffffffffffffff\n      and\n      mul\n      or\n      swap1\n      sstore\n      pop\n        /* \"contracts/ERC20V3SimpleFactory.sol\":2130:2293  function transferOwnership(address newOwner) public onlyOwner {... */\n      pop\n      jump\t// out\n        /* \"#utility.yul\":7:82   */\n    tag_141:\n        /* \"#utility.yul\":40:46   */\n      0x00\n        /* \"#utility.yul\":73:75   */\n      0x40\n        /* \"#utility.yul\":67:76   */\n      mload\n        /* \"#utility.yul\":57:76   */\n      swap1\n      pop\n        /* \"#utility.yul\":7:82   */\n      swap1\n      jump\t// out\n        /* \"#utility.yul\":88:205   */\n    tag_142:\n        /* \"#utility.yul\":197:198   */\n      0x00\n        /* \"#utility.yul\":194:195   */\n      dup1\n        /* \"#utility.yul\":187:199   */\n      revert\n        /* \"#utility.yul\":211:328   */\n    tag_143:\n        /* \"#utility.yul\":320:321   */\n      0x00\n        /* \"#utility.yul\":317:318   */\n      dup1\n        /* \"#utility.yul\":310:322   */\n      revert\n        /* \"#utility.yul\":334:451   */\n    tag_144:\n        /* \"#utility.yul\":443:444   */\n      0x00\n        /* \"#utility.yul\":440:441   */\n      dup1\n        /* \"#utility.yul\":433:445   */\n      revert\n        /* \"#utility.yul\":457:574   */\n    tag_145:\n        /* \"#utility.yul\":566:567   */\n      0x00\n        /* \"#utility.yul\":563:564   */\n      dup1\n        /* \"#utility.yul\":556:568   */\n      revert\n        /* \"#utility.yul\":580:682   */\n    tag_146:\n        /* \"#utility.yul\":621:627   */\n      0x00\n        /* \"#utility.yul\":672:674   */\n      0x1f\n        /* \"#utility.yul\":668:675   */\n      not\n        /* \"#utility.yul\":663:665   */\n      0x1f\n        /* \"#utility.yul\":656:661   */\n      dup4\n        /* \"#utility.yul\":652:666   */\n      add\n        /* \"#utility.yul\":648:676   */\n      and\n        /* \"#utility.yul\":638:676   */\n      swap1\n      pop\n        /* \"#utility.yul\":580:682   */\n      swap2\n      swap1\n      pop\n      jump\t// out\n        /* \"#utility.yul\":688:868   */\n    tag_147:\n        /* \"#utility.yul\":736:813   */\n      0x4e487b7100000000000000000000000000000000000000000000000000000000\n        /* \"#utility.yul\":733:734   */\n      0x00\n        /* \"#utility.yul\":726:814   */\n      mstore\n        /* \"#utility.yul\":833:837   */\n      0x41\n        /* \"#utility.yul\":830:831   */\n      0x04\n        /* \"#utility.yul\":823:838   */\n      mstore\n        /* \"#utility.yul\":857:861   */\n      0x24\n        /* \"#utility.yul\":854:855   */\n      0x00\n        /* \"#utility.yul\":847:862   */\n      revert\n        /* \"#utility.yul\":874:1155   */\n    tag_148:\n        /* \"#utility.yul\":957:984   */\n      tag_200\n        /* \"#utility.yul\":979:983   */\n      dup3\n        /* \"#utility.yul\":957:984   */\n      tag_146\n      jump\t// in\n    tag_200:\n        /* \"#utility.yul\":949:955   */\n      dup2\n        /* \"#utility.yul\":945:985   */\n      add\n        /* \"#utility.yul\":1087:1093   */\n      dup2\n        /* \"#utility.yul\":1075:1085   */\n      dup2\n        /* \"#utility.yul\":1072:1094   */\n      lt\n        /* \"#utility.yul\":1051:1069   */\n      0xffffffffffffffff\n        /* \"#utility.yul\":1039:1049   */\n      dup3\n        /* \"#utility.yul\":1036:1070   */\n      gt\n        /* \"#utility.yul\":1033:1095   */\n      or\n        /* \"#utility.yul\":1030:1118   */\n      iszero\n      tag_201\n      jumpi\n        /* \"#utility.yul\":1098:1116   */\n      tag_202\n      tag_147\n      jump\t// in\n    tag_202:\n        /* \"#utility.yul\":1030:1118   */\n    tag_201:\n        /* \"#utility.yul\":1138:1148   */\n      dup1\n        /* \"#utility.yul\":1134:1136   */\n      0x40\n        /* \"#utility.yul\":1127:1149   */\n      mstore\n        /* \"#utility.yul\":917:1155   */\n      pop\n        /* \"#utility.yul\":874:1155   */\n      pop\n      pop\n      jump\t// out\n        /* \"#utility.yul\":1161:1290   */\n    tag_149:\n        /* \"#utility.yul\":1195:1201   */\n      0x00\n        /* \"#utility.yul\":1222:1242   */\n      tag_204\n      tag_141\n      jump\t// in\n    tag_204:\n        /* \"#utility.yul\":1212:1242   */\n      swap1\n      pop\n        /* \"#utility.yul\":1251:1284   */\n      tag_205\n        /* \"#utility.yul\":1279:1283   */\n      dup3\n        /* \"#utility.yul\":1271:1277   */\n      dup3\n        /* \"#utility.yul\":1251:1284   */\n      tag_148\n      jump\t// in\n    tag_205:\n        /* \"#utility.yul\":1161:1290   */\n      swap2\n      swap1\n      pop\n      jump\t// out\n        /* \"#utility.yul\":1296:1604   */\n    tag_150:\n        /* \"#utility.yul\":1358:1362   */\n      0x00\n        /* \"#utility.yul\":1448:1466   */\n      0xffffffffffffffff\n        /* \"#utility.yul\":1440:1446   */\n      dup3\n        /* \"#utility.yul\":1437:1467   */\n      gt\n        /* \"#utility.yul\":1434:1490   */\n      iszero\n      tag_207\n      jumpi\n        /* \"#utility.yul\":1470:1488   */\n      tag_208\n      tag_147\n      jump\t// in\n    tag_208:\n        /* \"#utility.yul\":1434:1490   */\n    tag_207:\n        /* \"#utility.yul\":1508:1537   */\n      tag_209\n        /* \"#utility.yul\":1530:1536   */\n      dup3\n        /* \"#utility.yul\":1508:1537   */\n      tag_146\n      jump\t// in\n    tag_209:\n        /* \"#utility.yul\":1500:1537   */\n      swap1\n      pop\n        /* \"#utility.yul\":1592:1596   */\n      0x20\n        /* \"#utility.yul\":1586:1590   */\n      dup2\n        /* \"#utility.yul\":1582:1597   */\n      add\n        /* \"#utility.yul\":1574:1597   */\n      swap1\n      pop\n        /* \"#utility.yul\":1296:1604   */\n      swap2\n      swap1\n      pop\n      jump\t// out\n        /* \"#utility.yul\":1610:1756   */\n    tag_151:\n        /* \"#utility.yul\":1707:1713   */\n      dup3\n        /* \"#utility.yul\":1702:1705   */\n      dup2\n        /* \"#utility.yul\":1697:1700   */\n      dup4\n        /* \"#utility.yul\":1684:1714   */\n      calldatacopy\n        /* \"#utility.yul\":1748:1749   */\n      0x00\n        /* \"#utility.yul\":1739:1745   */\n      dup4\n        /* \"#utility.yul\":1734:1737   */\n      dup4\n        /* \"#utility.yul\":1730:1746   */\n      add\n        /* \"#utility.yul\":1723:1750   */\n      mstore\n        /* \"#utility.yul\":1610:1756   */\n      pop\n      pop\n      pop\n      jump\t// out\n        /* \"#utility.yul\":1762:2187   */\n    tag_152:\n        /* \"#utility.yul\":1840:1845   */\n      0x00\n        /* \"#utility.yul\":1865:1931   */\n      tag_212\n        /* \"#utility.yul\":1881:1930   */\n      tag_213\n        /* \"#utility.yul\":1923:1929   */\n      dup5\n        /* \"#utility.yul\":1881:1930   */\n      tag_150\n      jump\t// in\n    tag_213:\n        /* \"#utility.yul\":1865:1931   */\n      tag_149\n      jump\t// in\n    tag_212:\n        /* \"#utility.yul\":1856:1931   */\n      swap1\n      pop\n        /* \"#utility.yul\":1954:1960   */\n      dup3\n        /* \"#utility.yul\":1947:1952   */\n      dup2\n        /* \"#utility.yul\":1940:1961   */\n      mstore\n        /* \"#utility.yul\":1992:1996   */\n      0x20\n        /* \"#utility.yul\":1985:1990   */\n      dup2\n        /* \"#utility.yul\":1981:1997   */\n      add\n        /* \"#utility.yul\":2030:2033   */\n      dup5\n        /* \"#utility.yul\":2021:2027   */\n      dup5\n        /* \"#utility.yul\":2016:2019   */\n      dup5\n        /* \"#utility.yul\":2012:2028   */\n      add\n        /* \"#utility.yul\":2009:2034   */\n      gt\n        /* \"#utility.yul\":2006:2118   */\n      iszero\n      tag_214\n      jumpi\n        /* \"#utility.yul\":2037:2116   */\n      tag_215\n      tag_145\n      jump\t// in\n    tag_215:\n        /* \"#utility.yul\":2006:2118   */\n    tag_214:\n        /* \"#utility.yul\":2127:2181   */\n      tag_216\n        /* \"#utility.yul\":2174:2180   */\n      dup5\n        /* \"#utility.yul\":2169:2172   */\n      dup3\n        /* \"#utility.yul\":2164:2167   */\n      dup6\n        /* \"#utility.yul\":2127:2181   */\n      tag_151\n      jump\t// in\n    tag_216:\n        /* \"#utility.yul\":1846:2187   */\n      pop\n        /* \"#utility.yul\":1762:2187   */\n      swap4\n      swap3\n      pop\n      pop\n      pop\n      jump\t// out\n        /* \"#utility.yul\":2207:2547   */\n    tag_153:\n        /* \"#utility.yul\":2263:2268   */\n      0x00\n        /* \"#utility.yul\":2312:2315   */\n      dup3\n        /* \"#utility.yul\":2305:2309   */\n      0x1f\n        /* \"#utility.yul\":2297:2303   */\n      dup4\n        /* \"#utility.yul\":2293:2310   */\n      add\n        /* \"#utility.yul\":2289:2316   */\n      slt\n        /* \"#utility.yul\":2279:2401   */\n      tag_218\n      jumpi\n        /* \"#utility.yul\":2320:2399   */\n      tag_219\n      tag_144\n      jump\t// in\n    tag_219:\n        /* \"#utility.yul\":2279:2401   */\n    tag_218:\n        /* \"#utility.yul\":2437:2443   */\n      dup2\n        /* \"#utility.yul\":2424:2444   */\n      calldataload\n        /* \"#utility.yul\":2462:2541   */\n      tag_220\n        /* \"#utility.yul\":2537:2540   */\n      dup5\n        /* \"#utility.yul\":2529:2535   */\n      dup3\n        /* \"#utility.yul\":2522:2526   */\n      0x20\n        /* \"#utility.yul\":2514:2520   */\n      dup7\n        /* \"#utility.yul\":2510:2527   */\n      add\n        /* \"#utility.yul\":2462:2541   */\n      tag_152\n      jump\t// in\n    tag_220:\n        /* \"#utility.yul\":2453:2541   */\n      swap2\n      pop\n        /* \"#utility.yul\":2269:2547   */\n      pop\n        /* \"#utility.yul\":2207:2547   */\n      swap3\n      swap2\n      pop\n      pop\n      jump\t// out\n        /* \"#utility.yul\":2553:2630   */\n    tag_154:\n        /* \"#utility.yul\":2590:2597   */\n      0x00\n        /* \"#utility.yul\":2619:2624   */\n      dup2\n        /* \"#utility.yul\":2608:2624   */\n      swap1\n      pop\n        /* \"#utility.yul\":2553:2630   */\n      swap2\n      swap1\n      pop\n      jump\t// out\n        /* \"#utility.yul\":2636:2758   */\n    tag_155:\n        /* \"#utility.yul\":2709:2733   */\n      tag_223\n        /* \"#utility.yul\":2727:2732   */\n      dup2\n        /* \"#utility.yul\":2709:2733   */\n      tag_154\n      jump\t// in\n    tag_223:\n        /* \"#utility.yul\":2702:2707   */\n      dup2\n        /* \"#utility.yul\":2699:2734   */\n      eq\n        /* \"#utility.yul\":2689:2752   */\n      tag_224\n      jumpi\n        /* \"#utility.yul\":2748:2749   */\n      0x00\n        /* \"#utility.yul\":2745:2746   */\n      dup1\n        /* \"#utility.yul\":2738:2750   */\n      revert\n        /* \"#utility.yul\":2689:2752   */\n    tag_224:\n        /* \"#utility.yul\":2636:2758   */\n      pop\n      jump\t// out\n        /* \"#utility.yul\":2764:2903   */\n    tag_156:\n        /* \"#utility.yul\":2810:2815   */\n      0x00\n        /* \"#utility.yul\":2848:2854   */\n      dup2\n        /* \"#utility.yul\":2835:2855   */\n      calldataload\n        /* \"#utility.yul\":2826:2855   */\n      swap1\n      pop\n        /* \"#utility.yul\":2864:2897   */\n      tag_226\n        /* \"#utility.yul\":2891:2896   */\n      dup2\n        /* \"#utility.yul\":2864:2897   */\n      tag_155\n      jump\t// in\n    tag_226:\n        /* \"#utility.yul\":2764:2903   */\n      swap3\n      swap2\n      pop\n      pop\n      jump\t// out\n        /* \"#utility.yul\":2909:2995   */\n    tag_157:\n        /* \"#utility.yul\":2944:2951   */\n      0x00\n        /* \"#utility.yul\":2984:2988   */\n      0xff\n        /* \"#utility.yul\":2977:2982   */\n      dup3\n        /* \"#utility.yul\":2973:2989   */\n      and\n        /* \"#utility.yul\":2962:2989   */\n      swap1\n      pop\n        /* \"#utility.yul\":2909:2995   */\n      swap2\n      swap1\n      pop\n      jump\t// out\n        /* \"#utility.yul\":3001:3119   */\n    tag_158:\n        /* \"#utility.yul\":3072:3094   */\n      tag_229\n        /* \"#utility.yul\":3088:3093   */\n      dup2\n        /* \"#utility.yul\":3072:3094   */\n      tag_157\n      jump\t// in\n    tag_229:\n        /* \"#utility.yul\":3065:3070   */\n      dup2\n        /* \"#utility.yul\":3062:3095   */\n      eq\n        /* \"#utility.yul\":3052:3113   */\n      tag_230\n      jumpi\n        /* \"#utility.yul\":3109:3110   */\n      0x00\n        /* \"#utility.yul\":3106:3107   */\n      dup1\n        /* \"#utility.yul\":3099:3111   */\n      revert\n        /* \"#utility.yul\":3052:3113   */\n    tag_230:\n        /* \"#utility.yul\":3001:3119   */\n      pop\n      jump\t// out\n        /* \"#utility.yul\":3125:3260   */\n    tag_159:\n        /* \"#utility.yul\":3169:3174   */\n      0x00\n        /* \"#utility.yul\":3207:3213   */\n      dup2\n        /* \"#utility.yul\":3194:3214   */\n      calldataload\n        /* \"#utility.yul\":3185:3214   */\n      swap1\n      pop\n        /* \"#utility.yul\":3223:3254   */\n      tag_232\n        /* \"#utility.yul\":3248:3253   */\n      dup2\n        /* \"#utility.yul\":3223:3254   */\n      tag_158\n      jump\t// in\n    tag_232:\n        /* \"#utility.yul\":3125:3260   */\n      swap3\n      swap2\n      pop\n      pop\n      jump\t// out\n        /* \"#utility.yul\":3266:4387   */\n    tag_26:\n        /* \"#utility.yul\":3370:3376   */\n      0x00\n        /* \"#utility.yul\":3378:3384   */\n      dup1\n        /* \"#utility.yul\":3386:3392   */\n      0x00\n        /* \"#utility.yul\":3394:3400   */\n      dup1\n        /* \"#utility.yul\":3443:3446   */\n      0x80\n        /* \"#utility.yul\":3431:3440   */\n      dup6\n        /* \"#utility.yul\":3422:3429   */\n      dup8\n        /* \"#utility.yul\":3418:3441   */\n      sub\n        /* \"#utility.yul\":3414:3447   */\n      slt\n        /* \"#utility.yul\":3411:3531   */\n      iszero\n      tag_234\n      jumpi\n        /* \"#utility.yul\":3450:3529   */\n      tag_235\n      tag_142\n      jump\t// in\n    tag_235:\n        /* \"#utility.yul\":3411:3531   */\n    tag_234:\n        /* \"#utility.yul\":3598:3599   */\n      0x00\n        /* \"#utility.yul\":3587:3596   */\n      dup6\n        /* \"#utility.yul\":3583:3600   */\n      add\n        /* \"#utility.yul\":3570:3601   */\n      calldataload\n        /* \"#utility.yul\":3628:3646   */\n      0xffffffffffffffff\n        /* \"#utility.yul\":3620:3626   */\n      dup2\n        /* \"#utility.yul\":3617:3647   */\n      gt\n        /* \"#utility.yul\":3614:3731   */\n      iszero\n      tag_236\n      jumpi\n        /* \"#utility.yul\":3650:3729   */\n      tag_237\n      tag_143\n      jump\t// in\n    tag_237:\n        /* \"#utility.yul\":3614:3731   */\n    tag_236:\n        /* \"#utility.yul\":3755:3818   */\n      tag_238\n        /* \"#utility.yul\":3810:3817   */\n      dup8\n        /* \"#utility.yul\":3801:3807   */\n      dup3\n        /* \"#utility.yul\":3790:3799   */\n      dup9\n        /* \"#utility.yul\":3786:3808   */\n      add\n        /* \"#utility.yul\":3755:3818   */\n      tag_153\n      jump\t// in\n    tag_238:\n        /* \"#utility.yul\":3745:3818   */\n      swap5\n      pop\n        /* \"#utility.yul\":3541:3828   */\n      pop\n        /* \"#utility.yul\":3895:3897   */\n      0x20\n        /* \"#utility.yul\":3884:3893   */\n      dup6\n        /* \"#utility.yul\":3880:3898   */\n      add\n        /* \"#utility.yul\":3867:3899   */\n      calldataload\n        /* \"#utility.yul\":3926:3944   */\n      0xffffffffffffffff\n        /* \"#utility.yul\":3918:3924   */\n      dup2\n        /* \"#utility.yul\":3915:3945   */\n      gt\n        /* \"#utility.yul\":3912:4029   */\n      iszero\n      tag_239\n      jumpi\n        /* \"#utility.yul\":3948:4027   */\n      tag_240\n      tag_143\n      jump\t// in\n    tag_240:\n        /* \"#utility.yul\":3912:4029   */\n    tag_239:\n        /* \"#utility.yul\":4053:4116   */\n      tag_241\n        /* \"#utility.yul\":4108:4115   */\n      dup8\n        /* \"#utility.yul\":4099:4105   */\n      dup3\n        /* \"#utility.yul\":4088:4097   */\n      dup9\n        /* \"#utility.yul\":4084:4106   */\n      add\n        /* \"#utility.yul\":4053:4116   */\n      tag_153\n      jump\t// in\n    tag_241:\n        /* \"#utility.yul\":4043:4116   */\n      swap4\n      pop\n        /* \"#utility.yul\":3838:4126   */\n      pop\n        /* \"#utility.yul\":4165:4167   */\n      0x40\n        /* \"#utility.yul\":4191:4244   */\n      tag_242\n        /* \"#utility.yul\":4236:4243   */\n      dup8\n        /* \"#utility.yul\":4227:4233   */\n      dup3\n        /* \"#utility.yul\":4216:4225   */\n      dup9\n        /* \"#utility.yul\":4212:4234   */\n      add\n        /* \"#utility.yul\":4191:4244   */\n      tag_156\n      jump\t// in\n    tag_242:\n        /* \"#utility.yul\":4181:4244   */\n      swap3\n      pop\n        /* \"#utility.yul\":4136:4254   */\n      pop\n        /* \"#utility.yul\":4293:4295   */\n      0x60\n        /* \"#utility.yul\":4319:4370   */\n      tag_243\n        /* \"#utility.yul\":4362:4369   */\n      dup8\n        /* \"#utility.yul\":4353:4359   */\n      dup3\n        /* \"#utility.yul\":4342:4351   */\n      dup9\n        /* \"#utility.yul\":4338:4360   */\n      add\n        /* \"#utility.yul\":4319:4370   */\n      tag_159\n      jump\t// in\n    tag_243:\n        /* \"#utility.yul\":4309:4370   */\n      swap2\n      pop\n        /* \"#utility.yul\":4264:4380   */\n      pop\n        /* \"#utility.yul\":3266:4387   */\n      swap3\n      swap6\n      swap2\n      swap5\n      pop\n      swap3\n      pop\n      jump\t// out\n        /* \"#utility.yul\":4393:4519   */\n    tag_160:\n        /* \"#utility.yul\":4430:4437   */\n      0x00\n        /* \"#utility.yul\":4470:4512   */\n      0xffffffffffffffffffffffffffffffffffffffff\n        /* \"#utility.yul\":4463:4468   */\n      dup3\n        /* \"#utility.yul\":4459:4513   */\n      and\n        /* \"#utility.yul\":4448:4513   */\n      swap1\n      pop\n        /* \"#utility.yul\":4393:4519   */\n      swap2\n      swap1\n      pop\n      jump\t// out\n        /* \"#utility.yul\":4525:4621   */\n    tag_161:\n        /* \"#utility.yul\":4562:4569   */\n      0x00\n        /* \"#utility.yul\":4591:4615   */\n      tag_246\n        /* \"#utility.yul\":4609:4614   */\n      dup3\n        /* \"#utility.yul\":4591:4615   */\n      tag_160\n      jump\t// in\n    tag_246:\n        /* \"#utility.yul\":4580:4615   */\n      swap1\n      pop\n        /* \"#utility.yul\":4525:4621   */\n      swap2\n      swap1\n      pop\n      jump\t// out\n        /* \"#utility.yul\":4627:4745   */\n    tag_162:\n        /* \"#utility.yul\":4714:4738   */\n      tag_248\n        /* \"#utility.yul\":4732:4737   */\n      dup2\n        /* \"#utility.yul\":4714:4738   */\n      tag_161\n      jump\t// in\n    tag_248:\n        /* \"#utility.yul\":4709:4712   */\n      dup3\n        /* \"#utility.yul\":4702:4739   */\n      mstore\n        /* \"#utility.yul\":4627:4745   */\n      pop\n      pop\n      jump\t// out\n        /* \"#utility.yul\":4751:4973   */\n    tag_29:\n        /* \"#utility.yul\":4844:4848   */\n      0x00\n        /* \"#utility.yul\":4882:4884   */\n      0x20\n        /* \"#utility.yul\":4871:4880   */\n      dup3\n        /* \"#utility.yul\":4867:4885   */\n      add\n        /* \"#utility.yul\":4859:4885   */\n      swap1\n      pop\n        /* \"#utility.yul\":4895:4966   */\n      tag_250\n        /* \"#utility.yul\":4963:4964   */\n      0x00\n        /* \"#utility.yul\":4952:4961   */\n      dup4\n        /* \"#utility.yul\":4948:4965   */\n      add\n        /* \"#utility.yul\":4939:4945   */\n      dup5\n        /* \"#utility.yul\":4895:4966   */\n      tag_162\n      jump\t// in\n    tag_250:\n        /* \"#utility.yul\":4751:4973   */\n      swap3\n      swap2\n      pop\n      pop\n      jump\t// out\n        /* \"#utility.yul\":4979:5101   */\n    tag_163:\n        /* \"#utility.yul\":5052:5076   */\n      tag_252\n        /* \"#utility.yul\":5070:5075   */\n      dup2\n        /* \"#utility.yul\":5052:5076   */\n      tag_161\n      jump\t// in\n    tag_252:\n        /* \"#utility.yul\":5045:5050   */\n      dup2\n        /* \"#utility.yul\":5042:5077   */\n      eq\n        /* \"#utility.yul\":5032:5095   */\n      tag_253\n      jumpi\n        /* \"#utility.yul\":5091:5092   */\n      0x00\n        /* \"#utility.yul\":5088:5089   */\n      dup1\n        /* \"#utility.yul\":5081:5093   */\n      revert\n        /* \"#utility.yul\":5032:5095   */\n    tag_253:\n        /* \"#utility.yul\":4979:5101   */\n      pop\n      jump\t// out\n        /* \"#utility.yul\":5107:5246   */\n    tag_164:\n        /* \"#utility.yul\":5153:5158   */\n      0x00\n        /* \"#utility.yul\":5191:5197   */\n      dup2\n        /* \"#utility.yul\":5178:5198   */\n      calldataload\n        /* \"#utility.yul\":5169:5198   */\n      swap1\n      pop\n        /* \"#utility.yul\":5207:5240   */\n      tag_255\n        /* \"#utility.yul\":5234:5239   */\n      dup2\n        /* \"#utility.yul\":5207:5240   */\n      tag_163\n      jump\t// in\n    tag_255:\n        /* \"#utility.yul\":5107:5246   */\n      swap3\n      swap2\n      pop\n      pop\n      jump\t// out\n        /* \"#utility.yul\":5252:5581   */\n    tag_33:\n        /* \"#utility.yul\":5311:5317   */\n      0x00\n        /* \"#utility.yul\":5360:5362   */\n      0x20\n        /* \"#utility.yul\":5348:5357   */\n      dup3\n        /* \"#utility.yul\":5339:5346   */\n      dup5\n        /* \"#utility.yul\":5335:5358   */\n      sub\n        /* \"#utility.yul\":5331:5363   */\n      slt\n        /* \"#utility.yul\":5328:5447   */\n      iszero\n      tag_257\n      jumpi\n        /* \"#utility.yul\":5366:5445   */\n      tag_258\n      tag_142\n      jump\t// in\n    tag_258:\n        /* \"#utility.yul\":5328:5447   */\n    tag_257:\n        /* \"#utility.yul\":5486:5487   */\n      0x00\n        /* \"#utility.yul\":5511:5564   */\n      tag_259\n        /* \"#utility.yul\":5556:5563   */\n      dup5\n        /* \"#utility.yul\":5547:5553   */\n      dup3\n        /* \"#utility.yul\":5536:5545   */\n      dup6\n        /* \"#utility.yul\":5532:5554   */\n      add\n        /* \"#utility.yul\":5511:5564   */\n      tag_164\n      jump\t// in\n    tag_259:\n        /* \"#utility.yul\":5501:5564   */\n      swap2\n      pop\n        /* \"#utility.yul\":5457:5574   */\n      pop\n        /* \"#utility.yul\":5252:5581   */\n      swap3\n      swap2\n      pop\n      pop\n      jump\t// out\n        /* \"#utility.yul\":5587:5705   */\n    tag_165:\n        /* \"#utility.yul\":5674:5698   */\n      tag_261\n        /* \"#utility.yul\":5692:5697   */\n      dup2\n        /* \"#utility.yul\":5674:5698   */\n      tag_154\n      jump\t// in\n    tag_261:\n        /* \"#utility.yul\":5669:5672   */\n      dup3\n        /* \"#utility.yul\":5662:5699   */\n      mstore\n        /* \"#utility.yul\":5587:5705   */\n      pop\n      pop\n      jump\t// out\n        /* \"#utility.yul\":5711:5933   */\n    tag_43:\n        /* \"#utility.yul\":5804:5808   */\n      0x00\n        /* \"#utility.yul\":5842:5844   */\n      0x20\n        /* \"#utility.yul\":5831:5840   */\n      dup3\n        /* \"#utility.yul\":5827:5845   */\n      add\n        /* \"#utility.yul\":5819:5845   */\n      swap1\n      pop\n        /* \"#utility.yul\":5855:5926   */\n      tag_263\n        /* \"#utility.yul\":5923:5924   */\n      0x00\n        /* \"#utility.yul\":5912:5921   */\n      dup4\n        /* \"#utility.yul\":5908:5925   */\n      add\n        /* \"#utility.yul\":5899:5905   */\n      dup5\n        /* \"#utility.yul\":5855:5926   */\n      tag_165\n      jump\t// in\n    tag_263:\n        /* \"#utility.yul\":5711:5933   */\n      swap3\n      swap2\n      pop\n      pop\n      jump\t// out\n        /* \"#utility.yul\":5939:6413   */\n    tag_51:\n        /* \"#utility.yul\":6007:6013   */\n      0x00\n        /* \"#utility.yul\":6015:6021   */\n      dup1\n        /* \"#utility.yul\":6064:6066   */\n      0x40\n        /* \"#utility.yul\":6052:6061   */\n      dup4\n        /* \"#utility.yul\":6043:6050   */\n      dup6\n        /* \"#utility.yul\":6039:6062   */\n      sub\n        /* \"#utility.yul\":6035:6067   */\n      slt\n        /* \"#utility.yul\":6032:6151   */\n      iszero\n      tag_265\n      jumpi\n        /* \"#utility.yul\":6070:6149   */\n      tag_266\n      tag_142\n      jump\t// in\n    tag_266:\n        /* \"#utility.yul\":6032:6151   */\n    tag_265:\n        /* \"#utility.yul\":6190:6191   */\n      0x00\n        /* \"#utility.yul\":6215:6268   */\n      tag_267\n        /* \"#utility.yul\":6260:6267   */\n      dup6\n        /* \"#utility.yul\":6251:6257   */\n      dup3\n        /* \"#utility.yul\":6240:6249   */\n      dup7\n        /* \"#utility.yul\":6236:6258   */\n      add\n        /* \"#utility.yul\":6215:6268   */\n      tag_164\n      jump\t// in\n    tag_267:\n        /* \"#utility.yul\":6205:6268   */\n      swap3\n      pop\n        /* \"#utility.yul\":6161:6278   */\n      pop\n        /* \"#utility.yul\":6317:6319   */\n      0x20\n        /* \"#utility.yul\":6343:6396   */\n      tag_268\n        /* \"#utility.yul\":6388:6395   */\n      dup6\n        /* \"#utility.yul\":6379:6385   */\n      dup3\n        /* \"#utility.yul\":6368:6377   */\n      dup7\n        /* \"#utility.yul\":6364:6386   */\n      add\n        /* \"#utility.yul\":6343:6396   */\n      tag_156\n      jump\t// in\n    tag_268:\n        /* \"#utility.yul\":6333:6396   */\n      swap2\n      pop\n        /* \"#utility.yul\":6288:6406   */\n      pop\n        /* \"#utility.yul\":5939:6413   */\n      swap3\n      pop\n      swap3\n      swap1\n      pop\n      jump\t// out\n        /* \"#utility.yul\":6419:6533   */\n    tag_166:\n        /* \"#utility.yul\":6486:6492   */\n      0x00\n        /* \"#utility.yul\":6520:6525   */\n      dup2\n        /* \"#utility.yul\":6514:6526   */\n      mload\n        /* \"#utility.yul\":6504:6526   */\n      swap1\n      pop\n        /* \"#utility.yul\":6419:6533   */\n      swap2\n      swap1\n      pop\n      jump\t// out\n        /* \"#utility.yul\":6539:6723   */\n    tag_167:\n        /* \"#utility.yul\":6638:6649   */\n      0x00\n        /* \"#utility.yul\":6672:6678   */\n      dup3\n        /* \"#utility.yul\":6667:6670   */\n      dup3\n        /* \"#utility.yul\":6660:6679   */\n      mstore\n        /* \"#utility.yul\":6712:6716   */\n      0x20\n        /* \"#utility.yul\":6707:6710   */\n      dup3\n        /* \"#utility.yul\":6703:6717   */\n      add\n        /* \"#utility.yul\":6688:6717   */\n      swap1\n      pop\n        /* \"#utility.yul\":6539:6723   */\n      swap3\n      swap2\n      pop\n      pop\n      jump\t// out\n        /* \"#utility.yul\":6729:6861   */\n    tag_168:\n        /* \"#utility.yul\":6796:6800   */\n      0x00\n        /* \"#utility.yul\":6819:6822   */\n      dup2\n        /* \"#utility.yul\":6811:6822   */\n      swap1\n      pop\n        /* \"#utility.yul\":6849:6853   */\n      0x20\n        /* \"#utility.yul\":6844:6847   */\n      dup3\n        /* \"#utility.yul\":6840:6854   */\n      add\n        /* \"#utility.yul\":6832:6854   */\n      swap1\n      pop\n        /* \"#utility.yul\":6729:6861   */\n      swap2\n      swap1\n      pop\n      jump\t// out\n        /* \"#utility.yul\":6867:6975   */\n    tag_169:\n        /* \"#utility.yul\":6944:6968   */\n      tag_273\n        /* \"#utility.yul\":6962:6967   */\n      dup2\n        /* \"#utility.yul\":6944:6968   */\n      tag_161\n      jump\t// in\n    tag_273:\n        /* \"#utility.yul\":6939:6942   */\n      dup3\n        /* \"#utility.yul\":6932:6969   */\n      mstore\n        /* \"#utility.yul\":6867:6975   */\n      pop\n      pop\n      jump\t// out\n        /* \"#utility.yul\":6981:7160   */\n    tag_170:\n        /* \"#utility.yul\":7050:7060   */\n      0x00\n        /* \"#utility.yul\":7071:7117   */\n      tag_275\n        /* \"#utility.yul\":7113:7116   */\n      dup4\n        /* \"#utility.yul\":7105:7111   */\n      dup4\n        /* \"#utility.yul\":7071:7117   */\n      tag_169\n      jump\t// in\n    tag_275:\n        /* \"#utility.yul\":7149:7153   */\n      0x20\n        /* \"#utility.yul\":7144:7147   */\n      dup4\n        /* \"#utility.yul\":7140:7154   */\n      add\n        /* \"#utility.yul\":7126:7154   */\n      swap1\n      pop\n        /* \"#utility.yul\":6981:7160   */\n      swap3\n      swap2\n      pop\n      pop\n      jump\t// out\n        /* \"#utility.yul\":7166:7279   */\n    tag_171:\n        /* \"#utility.yul\":7236:7240   */\n      0x00\n        /* \"#utility.yul\":7268:7272   */\n      0x20\n        /* \"#utility.yul\":7263:7266   */\n      dup3\n        /* \"#utility.yul\":7259:7273   */\n      add\n        /* \"#utility.yul\":7251:7273   */\n      swap1\n      pop\n        /* \"#utility.yul\":7166:7279   */\n      swap2\n      swap1\n      pop\n      jump\t// out\n        /* \"#utility.yul\":7315:8047   */\n    tag_172:\n        /* \"#utility.yul\":7434:7437   */\n      0x00\n        /* \"#utility.yul\":7463:7517   */\n      tag_278\n        /* \"#utility.yul\":7511:7516   */\n      dup3\n        /* \"#utility.yul\":7463:7517   */\n      tag_166\n      jump\t// in\n    tag_278:\n        /* \"#utility.yul\":7533:7619   */\n      tag_279\n        /* \"#utility.yul\":7612:7618   */\n      dup2\n        /* \"#utility.yul\":7607:7610   */\n      dup6\n        /* \"#utility.yul\":7533:7619   */\n      tag_167\n      jump\t// in\n    tag_279:\n        /* \"#utility.yul\":7526:7619   */\n      swap4\n      pop\n        /* \"#utility.yul\":7643:7699   */\n      tag_280\n        /* \"#utility.yul\":7693:7698   */\n      dup4\n        /* \"#utility.yul\":7643:7699   */\n      tag_168\n      jump\t// in\n    tag_280:\n        /* \"#utility.yul\":7722:7729   */\n      dup1\n        /* \"#utility.yul\":7753:7754   */\n      0x00\n        /* \"#utility.yul\":7738:8022   */\n    tag_281:\n        /* \"#utility.yul\":7763:7769   */\n      dup4\n        /* \"#utility.yul\":7760:7761   */\n      dup2\n        /* \"#utility.yul\":7757:7770   */\n      lt\n        /* \"#utility.yul\":7738:8022   */\n      iszero\n      tag_283\n      jumpi\n        /* \"#utility.yul\":7839:7845   */\n      dup2\n        /* \"#utility.yul\":7833:7846   */\n      mload\n        /* \"#utility.yul\":7866:7929   */\n      tag_284\n        /* \"#utility.yul\":7925:7928   */\n      dup9\n        /* \"#utility.yul\":7910:7923   */\n      dup3\n        /* \"#utility.yul\":7866:7929   */\n      tag_170\n      jump\t// in\n    tag_284:\n        /* \"#utility.yul\":7859:7929   */\n      swap8\n      pop\n        /* \"#utility.yul\":7952:8012   */\n      tag_285\n        /* \"#utility.yul\":8005:8011   */\n      dup4\n        /* \"#utility.yul\":7952:8012   */\n      tag_171\n      jump\t// in\n    tag_285:\n        /* \"#utility.yul\":7942:8012   */\n      swap3\n      pop\n        /* \"#utility.yul\":7798:8022   */\n      pop\n        /* \"#utility.yul\":7785:7786   */\n      0x01\n        /* \"#utility.yul\":7782:7783   */\n      dup2\n        /* \"#utility.yul\":7778:7787   */\n      add\n        /* \"#utility.yul\":7773:7787   */\n      swap1\n      pop\n        /* \"#utility.yul\":7738:8022   */\n      jump(tag_281)\n    tag_283:\n        /* \"#utility.yul\":7742:7756   */\n      pop\n        /* \"#utility.yul\":8038:8041   */\n      dup6\n        /* \"#utility.yul\":8031:8041   */\n      swap4\n      pop\n        /* \"#utility.yul\":7439:8047   */\n      pop\n      pop\n      pop\n        /* \"#utility.yul\":7315:8047   */\n      swap3\n      swap2\n      pop\n      pop\n      jump\t// out\n        /* \"#utility.yul\":8053:8426   */\n    tag_73:\n        /* \"#utility.yul\":8196:8200   */\n      0x00\n        /* \"#utility.yul\":8234:8236   */\n      0x20\n        /* \"#utility.yul\":8223:8232   */\n      dup3\n        /* \"#utility.yul\":8219:8237   */\n      add\n        /* \"#utility.yul\":8211:8237   */\n      swap1\n      pop\n        /* \"#utility.yul\":8283:8292   */\n      dup2\n        /* \"#utility.yul\":8277:8281   */\n      dup2\n        /* \"#utility.yul\":8273:8293   */\n      sub\n        /* \"#utility.yul\":8269:8270   */\n      0x00\n        /* \"#utility.yul\":8258:8267   */\n      dup4\n        /* \"#utility.yul\":8254:8271   */\n      add\n        /* \"#utility.yul\":8247:8294   */\n      mstore\n        /* \"#utility.yul\":8311:8419   */\n      tag_287\n        /* \"#utility.yul\":8414:8418   */\n      dup2\n        /* \"#utility.yul\":8405:8411   */\n      dup5\n        /* \"#utility.yul\":8311:8419   */\n      tag_172\n      jump\t// in\n    tag_287:\n        /* \"#utility.yul\":8303:8419   */\n      swap1\n      pop\n        /* \"#utility.yul\":8053:8426   */\n      swap3\n      swap2\n      pop\n      pop\n      jump\t// out\n        /* \"#utility.yul\":8432:8761   */\n    tag_77:\n        /* \"#utility.yul\":8491:8497   */\n      0x00\n        /* \"#utility.yul\":8540:8542   */\n      0x20\n        /* \"#utility.yul\":8528:8537   */\n      dup3\n        /* \"#utility.yul\":8519:8526   */\n      dup5\n        /* \"#utility.yul\":8515:8538   */\n      sub\n        /* \"#utility.yul\":8511:8543   */\n      slt\n        /* \"#utility.yul\":8508:8627   */\n      iszero\n      tag_289\n      jumpi\n        /* \"#utility.yul\":8546:8625   */\n      tag_290\n      tag_142\n      jump\t// in\n    tag_290:\n        /* \"#utility.yul\":8508:8627   */\n    tag_289:\n        /* \"#utility.yul\":8666:8667   */\n      0x00\n        /* \"#utility.yul\":8691:8744   */\n      tag_291\n        /* \"#utility.yul\":8736:8743   */\n      dup5\n        /* \"#utility.yul\":8727:8733   */\n      dup3\n        /* \"#utility.yul\":8716:8725   */\n      dup6\n        /* \"#utility.yul\":8712:8734   */\n      add\n        /* \"#utility.yul\":8691:8744   */\n      tag_156\n      jump\t// in\n    tag_291:\n        /* \"#utility.yul\":8681:8744   */\n      swap2\n      pop\n        /* \"#utility.yul\":8637:8754   */\n      pop\n        /* \"#utility.yul\":8432:8761   */\n      swap3\n      swap2\n      pop\n      pop\n      jump\t// out\n        /* \"#utility.yul\":8767:8936   */\n    tag_173:\n        /* \"#utility.yul\":8851:8862   */\n      0x00\n        /* \"#utility.yul\":8885:8891   */\n      dup3\n        /* \"#utility.yul\":8880:8883   */\n      dup3\n        /* \"#utility.yul\":8873:8892   */\n      mstore\n        /* \"#utility.yul\":8925:8929   */\n      0x20\n        /* \"#utility.yul\":8920:8923   */\n      dup3\n        /* \"#utility.yul\":8916:8930   */\n      add\n        /* \"#utility.yul\":8901:8930   */\n      swap1\n      pop\n        /* \"#utility.yul\":8767:8936   */\n      swap3\n      swap2\n      pop\n      pop\n      jump\t// out\n        /* \"#utility.yul\":8942:9113   */\n    tag_174:\n        /* \"#utility.yul\":9082:9105   */\n      0x4352454154455f4645455f4e4f545f454e4f5547480000000000000000000000\n        /* \"#utility.yul\":9078:9079   */\n      0x00\n        /* \"#utility.yul\":9070:9076   */\n      dup3\n        /* \"#utility.yul\":9066:9080   */\n      add\n        /* \"#utility.yul\":9059:9106   */\n      mstore\n        /* \"#utility.yul\":8942:9113   */\n      pop\n      jump\t// out\n        /* \"#utility.yul\":9119:9485   */\n    tag_175:\n        /* \"#utility.yul\":9261:9264   */\n      0x00\n        /* \"#utility.yul\":9282:9349   */\n      tag_295\n        /* \"#utility.yul\":9346:9348   */\n      0x15\n        /* \"#utility.yul\":9341:9344   */\n      dup4\n        /* \"#utility.yul\":9282:9349   */\n      tag_173\n      jump\t// in\n    tag_295:\n        /* \"#utility.yul\":9275:9349   */\n      swap2\n      pop\n        /* \"#utility.yul\":9358:9451   */\n      tag_296\n        /* \"#utility.yul\":9447:9450   */\n      dup3\n        /* \"#utility.yul\":9358:9451   */\n      tag_174\n      jump\t// in\n    tag_296:\n        /* \"#utility.yul\":9476:9478   */\n      0x20\n        /* \"#utility.yul\":9471:9474   */\n      dup3\n        /* \"#utility.yul\":9467:9479   */\n      add\n        /* \"#utility.yul\":9460:9479   */\n      swap1\n      pop\n        /* \"#utility.yul\":9119:9485   */\n      swap2\n      swap1\n      pop\n      jump\t// out\n        /* \"#utility.yul\":9491:9910   */\n    tag_90:\n        /* \"#utility.yul\":9657:9661   */\n      0x00\n        /* \"#utility.yul\":9695:9697   */\n      0x20\n        /* \"#utility.yul\":9684:9693   */\n      dup3\n        /* \"#utility.yul\":9680:9698   */\n      add\n        /* \"#utility.yul\":9672:9698   */\n      swap1\n      pop\n        /* \"#utility.yul\":9744:9753   */\n      dup2\n        /* \"#utility.yul\":9738:9742   */\n      dup2\n        /* \"#utility.yul\":9734:9754   */\n      sub\n        /* \"#utility.yul\":9730:9731   */\n      0x00\n        /* \"#utility.yul\":9719:9728   */\n      dup4\n        /* \"#utility.yul\":9715:9732   */\n      add\n        /* \"#utility.yul\":9708:9755   */\n      mstore\n        /* \"#utility.yul\":9772:9903   */\n      tag_298\n        /* \"#utility.yul\":9898:9902   */\n      dup2\n        /* \"#utility.yul\":9772:9903   */\n      tag_175\n      jump\t// in\n    tag_298:\n        /* \"#utility.yul\":9764:9903   */\n      swap1\n      pop\n        /* \"#utility.yul\":9491:9910   */\n      swap2\n      swap1\n      pop\n      jump\t// out\n        /* \"#utility.yul\":9916:10059   */\n    tag_176:\n        /* \"#utility.yul\":9973:9978   */\n      0x00\n        /* \"#utility.yul\":10004:10010   */\n      dup2\n        /* \"#utility.yul\":9998:10011   */\n      mload\n        /* \"#utility.yul\":9989:10011   */\n      swap1\n      pop\n        /* \"#utility.yul\":10020:10053   */\n      tag_300\n        /* \"#utility.yul\":10047:10052   */\n      dup2\n        /* \"#utility.yul\":10020:10053   */\n      tag_163\n      jump\t// in\n    tag_300:\n        /* \"#utility.yul\":9916:10059   */\n      swap3\n      swap2\n      pop\n      pop\n      jump\t// out\n        /* \"#utility.yul\":10065:10416   */\n    tag_95:\n        /* \"#utility.yul\":10135:10141   */\n      0x00\n        /* \"#utility.yul\":10184:10186   */\n      0x20\n        /* \"#utility.yul\":10172:10181   */\n      dup3\n        /* \"#utility.yul\":10163:10170   */\n      dup5\n        /* \"#utility.yul\":10159:10182   */\n      sub\n        /* \"#utility.yul\":10155:10187   */\n      slt\n        /* \"#utility.yul\":10152:10271   */\n      iszero\n      tag_302\n      jumpi\n        /* \"#utility.yul\":10190:10269   */\n      tag_303\n      tag_142\n      jump\t// in\n    tag_303:\n        /* \"#utility.yul\":10152:10271   */\n    tag_302:\n        /* \"#utility.yul\":10310:10311   */\n      0x00\n        /* \"#utility.yul\":10335:10399   */\n      tag_304\n        /* \"#utility.yul\":10391:10398   */\n      dup5\n        /* \"#utility.yul\":10382:10388   */\n      dup3\n        /* \"#utility.yul\":10371:10380   */\n      dup6\n        /* \"#utility.yul\":10367:10389   */\n      add\n        /* \"#utility.yul\":10335:10399   */\n      tag_176\n      jump\t// in\n    tag_304:\n        /* \"#utility.yul\":10325:10399   */\n      swap2\n      pop\n        /* \"#utility.yul\":10281:10409   */\n      pop\n        /* \"#utility.yul\":10065:10416   */\n      swap3\n      swap2\n      pop\n      pop\n      jump\t// out\n        /* \"#utility.yul\":10422:10521   */\n    tag_177:\n        /* \"#utility.yul\":10474:10480   */\n      0x00\n        /* \"#utility.yul\":10508:10513   */\n      dup2\n        /* \"#utility.yul\":10502:10514   */\n      mload\n        /* \"#utility.yul\":10492:10514   */\n      swap1\n      pop\n        /* \"#utility.yul\":10422:10521   */\n      swap2\n      swap1\n      pop\n      jump\t// out\n        /* \"#utility.yul\":10527:10773   */\n    tag_178:\n        /* \"#utility.yul\":10608:10609   */\n      0x00\n        /* \"#utility.yul\":10618:10731   */\n    tag_307:\n        /* \"#utility.yul\":10632:10638   */\n      dup4\n        /* \"#utility.yul\":10629:10630   */\n      dup2\n        /* \"#utility.yul\":10626:10639   */\n      lt\n        /* \"#utility.yul\":10618:10731   */\n      iszero\n      tag_309\n      jumpi\n        /* \"#utility.yul\":10717:10718   */\n      dup1\n        /* \"#utility.yul\":10712:10715   */\n      dup3\n        /* \"#utility.yul\":10708:10719   */\n      add\n        /* \"#utility.yul\":10702:10720   */\n      mload\n        /* \"#utility.yul\":10698:10699   */\n      dup2\n        /* \"#utility.yul\":10693:10696   */\n      dup5\n        /* \"#utility.yul\":10689:10700   */\n      add\n        /* \"#utility.yul\":10682:10721   */\n      mstore\n        /* \"#utility.yul\":10654:10656   */\n      0x20\n        /* \"#utility.yul\":10651:10652   */\n      dup2\n        /* \"#utility.yul\":10647:10657   */\n      add\n        /* \"#utility.yul\":10642:10657   */\n      swap1\n      pop\n        /* \"#utility.yul\":10618:10731   */\n      jump(tag_307)\n    tag_309:\n        /* \"#utility.yul\":10765:10766   */\n      0x00\n        /* \"#utility.yul\":10756:10762   */\n      dup5\n        /* \"#utility.yul\":10751:10754   */\n      dup5\n        /* \"#utility.yul\":10747:10763   */\n      add\n        /* \"#utility.yul\":10740:10767   */\n      mstore\n        /* \"#utility.yul\":10589:10773   */\n      pop\n        /* \"#utility.yul\":10527:10773   */\n      pop\n      pop\n      pop\n      jump\t// out\n        /* \"#utility.yul\":10779:11156   */\n    tag_179:\n        /* \"#utility.yul\":10867:10870   */\n      0x00\n        /* \"#utility.yul\":10895:10934   */\n      tag_311\n        /* \"#utility.yul\":10928:10933   */\n      dup3\n        /* \"#utility.yul\":10895:10934   */\n      tag_177\n      jump\t// in\n    tag_311:\n        /* \"#utility.yul\":10950:11021   */\n      tag_312\n        /* \"#utility.yul\":11014:11020   */\n      dup2\n        /* \"#utility.yul\":11009:11012   */\n      dup6\n        /* \"#utility.yul\":10950:11021   */\n      tag_173\n      jump\t// in\n    tag_312:\n        /* \"#utility.yul\":10943:11021   */\n      swap4\n      pop\n        /* \"#utility.yul\":11030:11095   */\n      tag_313\n        /* \"#utility.yul\":11088:11094   */\n      dup2\n        /* \"#utility.yul\":11083:11086   */\n      dup6\n        /* \"#utility.yul\":11076:11080   */\n      0x20\n        /* \"#utility.yul\":11069:11074   */\n      dup7\n        /* \"#utility.yul\":11065:11081   */\n      add\n        /* \"#utility.yul\":11030:11095   */\n      tag_178\n      jump\t// in\n    tag_313:\n        /* \"#utility.yul\":11120:11149   */\n      tag_314\n        /* \"#utility.yul\":11142:11148   */\n      dup2\n        /* \"#utility.yul\":11120:11149   */\n      tag_146\n      jump\t// in\n    tag_314:\n        /* \"#utility.yul\":11115:11118   */\n      dup5\n        /* \"#utility.yul\":11111:11150   */\n      add\n        /* \"#utility.yul\":11104:11150   */\n      swap2\n      pop\n        /* \"#utility.yul\":10871:11156   */\n      pop\n        /* \"#utility.yul\":10779:11156   */\n      swap3\n      swap2\n      pop\n      pop\n      jump\t// out\n        /* \"#utility.yul\":11162:11274   */\n    tag_180:\n        /* \"#utility.yul\":11245:11267   */\n      tag_316\n        /* \"#utility.yul\":11261:11266   */\n      dup2\n        /* \"#utility.yul\":11245:11267   */\n      tag_157\n      jump\t// in\n    tag_316:\n        /* \"#utility.yul\":11240:11243   */\n      dup3\n        /* \"#utility.yul\":11233:11268   */\n      mstore\n        /* \"#utility.yul\":11162:11274   */\n      pop\n      pop\n      jump\t// out\n        /* \"#utility.yul\":11280:12118   */\n    tag_97:\n        /* \"#utility.yul\":11521:11525   */\n      0x00\n        /* \"#utility.yul\":11559:11562   */\n      0xa0\n        /* \"#utility.yul\":11548:11557   */\n      dup3\n        /* \"#utility.yul\":11544:11563   */\n      add\n        /* \"#utility.yul\":11536:11563   */\n      swap1\n      pop\n        /* \"#utility.yul\":11573:11644   */\n      tag_318\n        /* \"#utility.yul\":11641:11642   */\n      0x00\n        /* \"#utility.yul\":11630:11639   */\n      dup4\n        /* \"#utility.yul\":11626:11643   */\n      add\n        /* \"#utility.yul\":11617:11623   */\n      dup9\n        /* \"#utility.yul\":11573:11644   */\n      tag_162\n      jump\t// in\n    tag_318:\n        /* \"#utility.yul\":11654:11726   */\n      tag_319\n        /* \"#utility.yul\":11722:11724   */\n      0x20\n        /* \"#utility.yul\":11711:11720   */\n      dup4\n        /* \"#utility.yul\":11707:11725   */\n      add\n        /* \"#utility.yul\":11698:11704   */\n      dup8\n        /* \"#utility.yul\":11654:11726   */\n      tag_165\n      jump\t// in\n    tag_319:\n        /* \"#utility.yul\":11773:11782   */\n      dup2\n        /* \"#utility.yul\":11767:11771   */\n      dup2\n        /* \"#utility.yul\":11763:11783   */\n      sub\n        /* \"#utility.yul\":11758:11760   */\n      0x40\n        /* \"#utility.yul\":11747:11756   */\n      dup4\n        /* \"#utility.yul\":11743:11761   */\n      add\n        /* \"#utility.yul\":11736:11784   */\n      mstore\n        /* \"#utility.yul\":11801:11879   */\n      tag_320\n        /* \"#utility.yul\":11874:11878   */\n      dup2\n        /* \"#utility.yul\":11865:11871   */\n      dup7\n        /* \"#utility.yul\":11801:11879   */\n      tag_179\n      jump\t// in\n    tag_320:\n        /* \"#utility.yul\":11793:11879   */\n      swap1\n      pop\n        /* \"#utility.yul\":11926:11935   */\n      dup2\n        /* \"#utility.yul\":11920:11924   */\n      dup2\n        /* \"#utility.yul\":11916:11936   */\n      sub\n        /* \"#utility.yul\":11911:11913   */\n      0x60\n        /* \"#utility.yul\":11900:11909   */\n      dup4\n        /* \"#utility.yul\":11896:11914   */\n      add\n        /* \"#utility.yul\":11889:11937   */\n      mstore\n        /* \"#utility.yul\":11954:12032   */\n      tag_321\n        /* \"#utility.yul\":12027:12031   */\n      dup2\n        /* \"#utility.yul\":12018:12024   */\n      dup6\n        /* \"#utility.yul\":11954:12032   */\n      tag_179\n      jump\t// in\n    tag_321:\n        /* \"#utility.yul\":11946:12032   */\n      swap1\n      pop\n        /* \"#utility.yul\":12042:12111   */\n      tag_322\n        /* \"#utility.yul\":12106:12109   */\n      0x80\n        /* \"#utility.yul\":12095:12104   */\n      dup4\n        /* \"#utility.yul\":12091:12110   */\n      add\n        /* \"#utility.yul\":12082:12088   */\n      dup5\n        /* \"#utility.yul\":12042:12111   */\n      tag_180\n      jump\t// in\n    tag_322:\n        /* \"#utility.yul\":11280:12118   */\n      swap7\n      swap6\n      pop\n      pop\n      pop\n      pop\n      pop\n      pop\n      jump\t// out\n        /* \"#utility.yul\":12124:12209   */\n    tag_181:\n        /* \"#utility.yul\":12169:12176   */\n      0x00\n        /* \"#utility.yul\":12198:12203   */\n      dup2\n        /* \"#utility.yul\":12187:12203   */\n      swap1\n      pop\n        /* \"#utility.yul\":12124:12209   */\n      swap2\n      swap1\n      pop\n      jump\t// out\n        /* \"#utility.yul\":12215:12275   */\n    tag_182:\n        /* \"#utility.yul\":12243:12246   */\n      0x00\n        /* \"#utility.yul\":12264:12269   */\n      dup2\n        /* \"#utility.yul\":12257:12269   */\n      swap1\n      pop\n        /* \"#utility.yul\":12215:12275   */\n      swap2\n      swap1\n      pop\n      jump\t// out\n        /* \"#utility.yul\":12281:12439   */\n    tag_183:\n        /* \"#utility.yul\":12339:12348   */\n      0x00\n        /* \"#utility.yul\":12372:12433   */\n      tag_326\n        /* \"#utility.yul\":12390:12432   */\n      tag_327\n        /* \"#utility.yul\":12399:12431   */\n      tag_328\n        /* \"#utility.yul\":12425:12430   */\n      dup5\n        /* \"#utility.yul\":12399:12431   */\n      tag_181\n      jump\t// in\n    tag_328:\n        /* \"#utility.yul\":12390:12432   */\n      tag_182\n      jump\t// in\n    tag_327:\n        /* \"#utility.yul\":12372:12433   */\n      tag_154\n      jump\t// in\n    tag_326:\n        /* \"#utility.yul\":12359:12433   */\n      swap1\n      pop\n        /* \"#utility.yul\":12281:12439   */\n      swap2\n      swap1\n      pop\n      jump\t// out\n        /* \"#utility.yul\":12445:12592   */\n    tag_184:\n        /* \"#utility.yul\":12540:12585   */\n      tag_330\n        /* \"#utility.yul\":12579:12584   */\n      dup2\n        /* \"#utility.yul\":12540:12585   */\n      tag_183\n      jump\t// in\n    tag_330:\n        /* \"#utility.yul\":12535:12538   */\n      dup3\n        /* \"#utility.yul\":12528:12586   */\n      mstore\n        /* \"#utility.yul\":12445:12592   */\n      pop\n      pop\n      jump\t// out\n        /* \"#utility.yul\":12598:13056   */\n    tag_103:\n        /* \"#utility.yul\":12755:12759   */\n      0x00\n        /* \"#utility.yul\":12793:12795   */\n      0x60\n        /* \"#utility.yul\":12782:12791   */\n      dup3\n        /* \"#utility.yul\":12778:12796   */\n      add\n        /* \"#utility.yul\":12770:12796   */\n      swap1\n      pop\n        /* \"#utility.yul\":12806:12877   */\n      tag_332\n        /* \"#utility.yul\":12874:12875   */\n      0x00\n        /* \"#utility.yul\":12863:12872   */\n      dup4\n        /* \"#utility.yul\":12859:12876   */\n      add\n        /* \"#utility.yul\":12850:12856   */\n      dup7\n        /* \"#utility.yul\":12806:12877   */\n      tag_162\n      jump\t// in\n    tag_332:\n        /* \"#utility.yul\":12887:12959   */\n      tag_333\n        /* \"#utility.yul\":12955:12957   */\n      0x20\n        /* \"#utility.yul\":12944:12953   */\n      dup4\n        /* \"#utility.yul\":12940:12958   */\n      add\n        /* \"#utility.yul\":12931:12937   */\n      dup6\n        /* \"#utility.yul\":12887:12959   */\n      tag_162\n      jump\t// in\n    tag_333:\n        /* \"#utility.yul\":12969:13049   */\n      tag_334\n        /* \"#utility.yul\":13045:13047   */\n      0x40\n        /* \"#utility.yul\":13034:13043   */\n      dup4\n        /* \"#utility.yul\":13030:13048   */\n      add\n        /* \"#utility.yul\":13021:13027   */\n      dup5\n        /* \"#utility.yul\":12969:13049   */\n      tag_184\n      jump\t// in\n    tag_334:\n        /* \"#utility.yul\":12598:13056   */\n      swap5\n      swap4\n      pop\n      pop\n      pop\n      pop\n      jump\t// out\n        /* \"#utility.yul\":13062:13228   */\n    tag_185:\n        /* \"#utility.yul\":13202:13220   */\n      0x444f444f5f494e495449414c495a454400000000000000000000000000000000\n        /* \"#utility.yul\":13198:13199   */\n      0x00\n        /* \"#utility.yul\":13190:13196   */\n      dup3\n        /* \"#utility.yul\":13186:13200   */\n      add\n        /* \"#utility.yul\":13179:13221   */\n      mstore\n        /* \"#utility.yul\":13062:13228   */\n      pop\n      jump\t// out\n        /* \"#utility.yul\":13234:13600   */\n    tag_186:\n        /* \"#utility.yul\":13376:13379   */\n      0x00\n        /* \"#utility.yul\":13397:13464   */\n      tag_337\n        /* \"#utility.yul\":13461:13463   */\n      0x10\n        /* \"#utility.yul\":13456:13459   */\n      dup4\n        /* \"#utility.yul\":13397:13464   */\n      tag_173\n      jump\t// in\n    tag_337:\n        /* \"#utility.yul\":13390:13464   */\n      swap2\n      pop\n        /* \"#utility.yul\":13473:13566   */\n      tag_338\n        /* \"#utility.yul\":13562:13565   */\n      dup3\n        /* \"#utility.yul\":13473:13566   */\n      tag_185\n      jump\t// in\n    tag_338:\n        /* \"#utility.yul\":13591:13593   */\n      0x20\n        /* \"#utility.yul\":13586:13589   */\n      dup3\n        /* \"#utility.yul\":13582:13594   */\n      add\n        /* \"#utility.yul\":13575:13594   */\n      swap1\n      pop\n        /* \"#utility.yul\":13234:13600   */\n      swap2\n      swap1\n      pop\n      jump\t// out\n        /* \"#utility.yul\":13606:14025   */\n    tag_107:\n        /* \"#utility.yul\":13772:13776   */\n      0x00\n        /* \"#utility.yul\":13810:13812   */\n      0x20\n        /* \"#utility.yul\":13799:13808   */\n      dup3\n        /* \"#utility.yul\":13795:13813   */\n      add\n        /* \"#utility.yul\":13787:13813   */\n      swap1\n      pop\n        /* \"#utility.yul\":13859:13868   */\n      dup2\n        /* \"#utility.yul\":13853:13857   */\n      dup2\n        /* \"#utility.yul\":13849:13869   */\n      sub\n        /* \"#utility.yul\":13845:13846   */\n      0x00\n        /* \"#utility.yul\":13834:13843   */\n      dup4\n        /* \"#utility.yul\":13830:13847   */\n      add\n        /* \"#utility.yul\":13823:13870   */\n      mstore\n        /* \"#utility.yul\":13887:14018   */\n      tag_340\n        /* \"#utility.yul\":14013:14017   */\n      dup2\n        /* \"#utility.yul\":13887:14018   */\n      tag_186\n      jump\t// in\n    tag_340:\n        /* \"#utility.yul\":13879:14018   */\n      swap1\n      pop\n        /* \"#utility.yul\":13606:14025   */\n      swap2\n      swap1\n      pop\n      jump\t// out\n        /* \"#utility.yul\":14031:14190   */\n    tag_187:\n        /* \"#utility.yul\":14171:14182   */\n      0x4e4f545f4f574e45520000000000000000000000000000000000000000000000\n        /* \"#utility.yul\":14167:14168   */\n      0x00\n        /* \"#utility.yul\":14159:14165   */\n      dup3\n        /* \"#utility.yul\":14155:14169   */\n      add\n        /* \"#utility.yul\":14148:14183   */\n      mstore\n        /* \"#utility.yul\":14031:14190   */\n      pop\n      jump\t// out\n        /* \"#utility.yul\":14196:14561   */\n    tag_188:\n        /* \"#utility.yul\":14338:14341   */\n      0x00\n        /* \"#utility.yul\":14359:14425   */\n      tag_343\n        /* \"#utility.yul\":14423:14424   */\n      0x09\n        /* \"#utility.yul\":14418:14421   */\n      dup4\n        /* \"#utility.yul\":14359:14425   */\n      tag_173\n      jump\t// in\n    tag_343:\n        /* \"#utility.yul\":14352:14425   */\n      swap2\n      pop\n        /* \"#utility.yul\":14434:14527   */\n      tag_344\n        /* \"#utility.yul\":14523:14526   */\n      dup3\n        /* \"#utility.yul\":14434:14527   */\n      tag_187\n      jump\t// in\n    tag_344:\n        /* \"#utility.yul\":14552:14554   */\n      0x20\n        /* \"#utility.yul\":14547:14550   */\n      dup3\n        /* \"#utility.yul\":14543:14555   */\n      add\n        /* \"#utility.yul\":14536:14555   */\n      swap1\n      pop\n        /* \"#utility.yul\":14196:14561   */\n      swap2\n      swap1\n      pop\n      jump\t// out\n        /* \"#utility.yul\":14567:14986   */\n    tag_112:\n        /* \"#utility.yul\":14733:14737   */\n      0x00\n        /* \"#utility.yul\":14771:14773   */\n      0x20\n        /* \"#utility.yul\":14760:14769   */\n      dup3\n        /* \"#utility.yul\":14756:14774   */\n      add\n        /* \"#utility.yul\":14748:14774   */\n      swap1\n      pop\n        /* \"#utility.yul\":14820:14829   */\n      dup2\n        /* \"#utility.yul\":14814:14818   */\n      dup2\n        /* \"#utility.yul\":14810:14830   */\n      sub\n        /* \"#utility.yul\":14806:14807   */\n      0x00\n        /* \"#utility.yul\":14795:14804   */\n      dup4\n        /* \"#utility.yul\":14791:14808   */\n      add\n        /* \"#utility.yul\":14784:14831   */\n      mstore\n        /* \"#utility.yul\":14848:14979   */\n      tag_346\n        /* \"#utility.yul\":14974:14978   */\n      dup2\n        /* \"#utility.yul\":14848:14979   */\n      tag_188\n      jump\t// in\n    tag_346:\n        /* \"#utility.yul\":14840:14979   */\n      swap1\n      pop\n        /* \"#utility.yul\":14567:14986   */\n      swap2\n      swap1\n      pop\n      jump\t// out\n        /* \"#utility.yul\":14992:15324   */\n    tag_124:\n        /* \"#utility.yul\":15113:15117   */\n      0x00\n        /* \"#utility.yul\":15151:15153   */\n      0x40\n        /* \"#utility.yul\":15140:15149   */\n      dup3\n        /* \"#utility.yul\":15136:15154   */\n      add\n        /* \"#utility.yul\":15128:15154   */\n      swap1\n      pop\n        /* \"#utility.yul\":15164:15235   */\n      tag_348\n        /* \"#utility.yul\":15232:15233   */\n      0x00\n        /* \"#utility.yul\":15221:15230   */\n      dup4\n        /* \"#utility.yul\":15217:15234   */\n      add\n        /* \"#utility.yul\":15208:15214   */\n      dup6\n        /* \"#utility.yul\":15164:15235   */\n      tag_162\n      jump\t// in\n    tag_348:\n        /* \"#utility.yul\":15245:15317   */\n      tag_349\n        /* \"#utility.yul\":15313:15315   */\n      0x20\n        /* \"#utility.yul\":15302:15311   */\n      dup4\n        /* \"#utility.yul\":15298:15316   */\n      add\n        /* \"#utility.yul\":15289:15295   */\n      dup5\n        /* \"#utility.yul\":15245:15317   */\n      tag_165\n      jump\t// in\n    tag_349:\n        /* \"#utility.yul\":14992:15324   */\n      swap4\n      swap3\n      pop\n      pop\n      pop\n      jump\t// out\n        /* \"#utility.yul\":15330:15493   */\n    tag_189:\n        /* \"#utility.yul\":15470:15485   */\n      0x494e56414c49445f434c41494d00000000000000000000000000000000000000\n        /* \"#utility.yul\":15466:15467   */\n      0x00\n        /* \"#utility.yul\":15458:15464   */\n      dup3\n        /* \"#utility.yul\":15454:15468   */\n      add\n        /* \"#utility.yul\":15447:15486   */\n      mstore\n        /* \"#utility.yul\":15330:15493   */\n      pop\n      jump\t// out\n        /* \"#utility.yul\":15499:15865   */\n    tag_190:\n        /* \"#utility.yul\":15641:15644   */\n      0x00\n        /* \"#utility.yul\":15662:15729   */\n      tag_352\n        /* \"#utility.yul\":15726:15728   */\n      0x0d\n        /* \"#utility.yul\":15721:15724   */\n      dup4\n        /* \"#utility.yul\":15662:15729   */\n      tag_173\n      jump\t// in\n    tag_352:\n        /* \"#utility.yul\":15655:15729   */\n      swap2\n      pop\n        /* \"#utility.yul\":15738:15831   */\n      tag_353\n        /* \"#utility.yul\":15827:15830   */\n      dup3\n        /* \"#utility.yul\":15738:15831   */\n      tag_189\n      jump\t// in\n    tag_353:\n        /* \"#utility.yul\":15856:15858   */\n      0x20\n        /* \"#utility.yul\":15851:15854   */\n      dup3\n        /* \"#utility.yul\":15847:15859   */\n      add\n        /* \"#utility.yul\":15840:15859   */\n      swap1\n      pop\n        /* \"#utility.yul\":15499:15865   */\n      swap2\n      swap1\n      pop\n      jump\t// out\n        /* \"#utility.yul\":15871:16290   */\n    tag_128:\n        /* \"#utility.yul\":16037:16041   */\n      0x00\n        /* \"#utility.yul\":16075:16077   */\n      0x20\n        /* \"#utility.yul\":16064:16073   */\n      dup3\n        /* \"#utility.yul\":16060:16078   */\n      add\n        /* \"#utility.yul\":16052:16078   */\n      swap1\n      pop\n        /* \"#utility.yul\":16124:16133   */\n      dup2\n        /* \"#utility.yul\":16118:16122   */\n      dup2\n        /* \"#utility.yul\":16114:16134   */\n      sub\n        /* \"#utility.yul\":16110:16111   */\n      0x00\n        /* \"#utility.yul\":16099:16108   */\n      dup4\n        /* \"#utility.yul\":16095:16112   */\n      add\n        /* \"#utility.yul\":16088:16135   */\n      mstore\n        /* \"#utility.yul\":16152:16283   */\n      tag_355\n        /* \"#utility.yul\":16278:16282   */\n      dup2\n        /* \"#utility.yul\":16152:16283   */\n      tag_190\n      jump\t// in\n    tag_355:\n        /* \"#utility.yul\":16144:16283   */\n      swap1\n      pop\n        /* \"#utility.yul\":15871:16290   */\n      swap2\n      swap1\n      pop\n      jump\t// out\n\n    auxdata: 0xa26469706673582212209ba7af6e7b2ec60045edefaf309dd01ba547b0e4bf87ef3be8af959ff1e57f7564736f6c63430008130033\n}\n",
				"bytecode": {
					"linkReferences": {},
					"object": "60a06040523480156200001157600080fd5b506040516200183838038062001838833981810160405281019062000037919062000161565b8273ffffffffffffffffffffffffffffffffffffffff1660808173ffffffffffffffffffffffffffffffffffffffff168152505081600260006101000a81548173ffffffffffffffffffffffffffffffffffffffff021916908373ffffffffffffffffffffffffffffffffffffffff16021790555080600381905550505050620001bd565b600080fd5b600073ffffffffffffffffffffffffffffffffffffffff82169050919050565b6000620000ee82620000c1565b9050919050565b6200010081620000e1565b81146200010c57600080fd5b50565b6000815190506200012081620000f5565b92915050565b6000819050919050565b6200013b8162000126565b81146200014757600080fd5b50565b6000815190506200015b8162000130565b92915050565b6000806000606084860312156200017d576200017c620000bc565b5b60006200018d868287016200010f565b9350506020620001a0868287016200010f565b9250506040620001b3868287016200014a565b9150509250925092565b608051611658620001e0600039600081816103850152610c9a01526116586000f3fe6080604052600436106100e05760003560e01c80634e71e0c81161007f578063d029d52111610059578063d029d52114610282578063e6acc72d146102bf578063eb774d05146102e8578063f2fde38b14610313576100e7565b80634e71e0c8146102155780638456db151461022c5780639738176014610257576100e7565b806321235d4a116100bb57806321235d4a1461016d57806328ab047f1461019857806335c70da0146101c15780633ccfd60b146101fe576100e7565b80627e4011146100e95780630d0092971461011957806316048bc414610142576100e7565b366100e757005b005b61010360048036038101906100fe9190610fd1565b61033c565b60405161011091906110b1565b60405180910390f35b34801561012557600080fd5b50610140600480360381019061013b91906110f8565b61059a565b005b34801561014e57600080fd5b50610157610647565b60405161016491906110b1565b60405180910390f35b34801561017957600080fd5b5061018261066b565b60405161018f9190611134565b60405180910390f35b3480156101a457600080fd5b506101bf60048036038101906101ba91906110f8565b610671565b005b3480156101cd57600080fd5b506101e860048036038101906101e3919061114f565b61077a565b6040516101f591906110b1565b60405180910390f35b34801561020a57600080fd5b506102136107c8565b005b34801561022157600080fd5b5061022a6108de565b005b34801561023857600080fd5b50610241610ab0565b60405161024e91906110b1565b60405180910390f35b34801561026357600080fd5b5061026c610ad6565b60405161027991906110b1565b60405180910390f35b34801561028e57600080fd5b506102a960048036038101906102a491906110f8565b610afc565b6040516102b6919061124d565b60405180910390f35b3480156102cb57600080fd5b506102e660048036038101906102e1919061126f565b610bc9565b005b3480156102f457600080fd5b506102fd610c98565b60405161030a91906110b1565b60405180910390f35b34801561031f57600080fd5b5061033a600480360381019061033591906110f8565b610cbc565b005b6000600354341015610383576040517f08c379a000000000000000000000000000000000000000000000000000000000815260040161037a906112f9565b60405180910390fd5b7f000000000000000000000000000000000000000000000000000000000000000073ffffffffffffffffffffffffffffffffffffffff16638124b78e600260009054906101000a900473ffffffffffffffffffffffffffffffffffffffff166040518263ffffffff1660e01b81526004016103fe91906110b1565b6020604051808303816000875af115801561041d573d6000803e3d6000fd5b505050506040513d601f19601f82011682018060405250810190610441919061132e565b90508073ffffffffffffffffffffffffffffffffffffffff1663fc90ef1833858888876040518663ffffffff1660e01b81526004016104849594939291906113d8565b600060405180830381600087803b15801561049e57600080fd5b505af11580156104b2573d6000803e3d6000fd5b50505050600460003373ffffffffffffffffffffffffffffffffffffffff1673ffffffffffffffffffffffffffffffffffffffff168152602001908152602001600020819080600181540180825580915050600190039060005260206000200160009091909190916101000a81548173ffffffffffffffffffffffffffffffffffffffff021916908373ffffffffffffffffffffffffffffffffffffffff1602179055507f1393d5edd44c8974d9f4be5f459e4f6c6c67917e4400784fc61d8a0872a9fc388133600060405161058a9392919061147e565b60405180910390a1949350505050565b600160149054906101000a900460ff16156105ea576040517f08c379a00000000000000000000000000000000000000000000000000000000081526004016105e190611501565b60405180910390fd5b60018060146101000a81548160ff021916908315150217905550806000806101000a81548173ffffffffffffffffffffffffffffffffffffffff021916908373ffffffffffffffffffffffffffffffffffffffff16021790555050565b60008054906101000a900473ffffffffffffffffffffffffffffffffffffffff1681565b60035481565b60008054906101000a900473ffffffffffffffffffffffffffffffffffffffff1673ffffffffffffffffffffffffffffffffffffffff163373ffffffffffffffffffffffffffffffffffffffff16146106ff576040517f08c379a00000000000000000000000000000000000000000000000000000000081526004016106f69061156d565b60405180910390fd5b80600260006101000a81548173ffffffffffffffffffffffffffffffffffffffff021916908373ffffffffffffffffffffffffffffffffffffffff1602179055507fedc968a09f964f0ab07f91c96dd61bbfd3ce2b438ede9e63721d56867ea533658160405161076f91906110b1565b60405180910390a150565b6004602052816000526040600020818154811061079657600080fd5b906000526020600020016000915091509054906101000a900473ffffffffffffffffffffffffffffffffffffffff1681565b60008054906101000a900473ffffffffffffffffffffffffffffffffffffffff1673ffffffffffffffffffffffffffffffffffffffff163373ffffffffffffffffffffffffffffffffffffffff1614610856576040517f08c379a000000000000000000000000000000000000000000000000000000000815260040161084d9061156d565b60405180910390fd5b60004790503373ffffffffffffffffffffffffffffffffffffffff166108fc829081150290604051600060405180830381858888f193505050501580156108a1573d6000803e3d6000fd5b507f884edad9ce6fa2440d8a54cc123490eb96d2768479d49ff9c7366125a942436433826040516108d392919061158d565b60405180910390a150565b600160009054906101000a900473ffffffffffffffffffffffffffffffffffffffff1673ffffffffffffffffffffffffffffffffffffffff163373ffffffffffffffffffffffffffffffffffffffff161461096e576040517f08c379a000000000000000000000000000000000000000000000000000000000815260040161096590611602565b60405180910390fd5b600160009054906101000a900473ffffffffffffffffffffffffffffffffffffffff1673ffffffffffffffffffffffffffffffffffffffff1660008054906101000a900473ffffffffffffffffffffffffffffffffffffffff1673ffffffffffffffffffffffffffffffffffffffff167f8be0079c531659141344cd1fd0a4f28419497f9722a3daafe3b4186f6b6457e060405160405180910390a3600160009054906101000a900473ffffffffffffffffffffffffffffffffffffffff166000806101000a81548173ffffffffffffffffffffffffffffffffffffffff021916908373ffffffffffffffffffffffffffffffffffffffff1602179055506000600160006101000a81548173ffffffffffffffffffffffffffffffffffffffff021916908373ffffffffffffffffffffffffffffffffffffffff160217905550565b600160009054906101000a900473ffffffffffffffffffffffffffffffffffffffff1681565b600260009054906101000a900473ffffffffffffffffffffffffffffffffffffffff1681565b6060600460008373ffffffffffffffffffffffffffffffffffffffff1673ffffffffffffffffffffffffffffffffffffffff168152602001908152602001600020805480602002602001604051908101604052809291908181526020018280548015610bbd57602002820191906000526020600020905b8160009054906101000a900473ffffffffffffffffffffffffffffffffffffffff1673ffffffffffffffffffffffffffffffffffffffff1681526020019060010190808311610b73575b50505050509050919050565b60008054906101000a900473ffffffffffffffffffffffffffffffffffffffff1673ffffffffffffffffffffffffffffffffffffffff163373ffffffffffffffffffffffffffffffffffffffff1614610c57576040517f08c379a0000000000000000000000000000000000000000000000000000000008152600401610c4e9061156d565b60405180910390fd5b806003819055507fe2a626dd21b2ca43b97ef589791d30517db1c9676631e68d57b444e2e182690981604051610c8d9190611134565b60405180910390a150565b7f000000000000000000000000000000000000000000000000000000000000000081565b60008054906101000a900473ffffffffffffffffffffffffffffffffffffffff1673ffffffffffffffffffffffffffffffffffffffff163373ffffffffffffffffffffffffffffffffffffffff1614610d4a576040517f08c379a0000000000000000000000000000000000000000000000000000000008152600401610d419061156d565b60405180910390fd5b8073ffffffffffffffffffffffffffffffffffffffff1660008054906101000a900473ffffffffffffffffffffffffffffffffffffffff1673ffffffffffffffffffffffffffffffffffffffff167fdcf55418cee3220104fef63f979ff3c4097ad240c0c43dcb33ce837748983e6260405160405180910390a380600160006101000a81548173ffffffffffffffffffffffffffffffffffffffff021916908373ffffffffffffffffffffffffffffffffffffffff16021790555050565b6000604051905090565b600080fd5b600080fd5b600080fd5b600080fd5b6000601f19601f8301169050919050565b7f4e487b7100000000000000000000000000000000000000000000000000000000600052604160045260246000fd5b610e6f82610e26565b810181811067ffffffffffffffff82111715610e8e57610e8d610e37565b5b80604052505050565b6000610ea1610e08565b9050610ead8282610e66565b919050565b600067ffffffffffffffff821115610ecd57610ecc610e37565b5b610ed682610e26565b9050602081019050919050565b82818337600083830152505050565b6000610f05610f0084610eb2565b610e97565b905082815260208101848484011115610f2157610f20610e21565b5b610f2c848285610ee3565b509392505050565b600082601f830112610f4957610f48610e1c565b5b8135610f59848260208601610ef2565b91505092915050565b6000819050919050565b610f7581610f62565b8114610f8057600080fd5b50565b600081359050610f9281610f6c565b92915050565b600060ff82169050919050565b610fae81610f98565b8114610fb957600080fd5b50565b600081359050610fcb81610fa5565b92915050565b60008060008060808587031215610feb57610fea610e12565b5b600085013567ffffffffffffffff81111561100957611008610e17565b5b61101587828801610f34565b945050602085013567ffffffffffffffff81111561103657611035610e17565b5b61104287828801610f34565b935050604061105387828801610f83565b925050606061106487828801610fbc565b91505092959194509250565b600073ffffffffffffffffffffffffffffffffffffffff82169050919050565b600061109b82611070565b9050919050565b6110ab81611090565b82525050565b60006020820190506110c660008301846110a2565b92915050565b6110d581611090565b81146110e057600080fd5b50565b6000813590506110f2816110cc565b92915050565b60006020828403121561110e5761110d610e12565b5b600061111c848285016110e3565b91505092915050565b61112e81610f62565b82525050565b60006020820190506111496000830184611125565b92915050565b6000806040838503121561116657611165610e12565b5b6000611174858286016110e3565b925050602061118585828601610f83565b9150509250929050565b600081519050919050565b600082825260208201905092915050565b6000819050602082019050919050565b6111c481611090565b82525050565b60006111d683836111bb565b60208301905092915050565b6000602082019050919050565b60006111fa8261118f565b611204818561119a565b935061120f836111ab565b8060005b8381101561124057815161122788826111ca565b9750611232836111e2565b925050600181019050611213565b5085935050505092915050565b6000602082019050818103600083015261126781846111ef565b905092915050565b60006020828403121561128557611284610e12565b5b600061129384828501610f83565b91505092915050565b600082825260208201905092915050565b7f4352454154455f4645455f4e4f545f454e4f5547480000000000000000000000600082015250565b60006112e360158361129c565b91506112ee826112ad565b602082019050919050565b60006020820190508181036000830152611312816112d6565b9050919050565b600081519050611328816110cc565b92915050565b60006020828403121561134457611343610e12565b5b600061135284828501611319565b91505092915050565b600081519050919050565b60005b83811015611384578082015181840152602081019050611369565b60008484015250505050565b600061139b8261135b565b6113a5818561129c565b93506113b5818560208601611366565b6113be81610e26565b840191505092915050565b6113d281610f98565b82525050565b600060a0820190506113ed60008301886110a2565b6113fa6020830187611125565b818103604083015261140c8186611390565b905081810360608301526114208185611390565b905061142f60808301846113c9565b9695505050505050565b6000819050919050565b6000819050919050565b600061146861146361145e84611439565b611443565b610f62565b9050919050565b6114788161144d565b82525050565b600060608201905061149360008301866110a2565b6114a060208301856110a2565b6114ad604083018461146f565b949350505050565b7f444f444f5f494e495449414c495a454400000000000000000000000000000000600082015250565b60006114eb60108361129c565b91506114f6826114b5565b602082019050919050565b6000602082019050818103600083015261151a816114de565b9050919050565b7f4e4f545f4f574e45520000000000000000000000000000000000000000000000600082015250565b600061155760098361129c565b915061156282611521565b602082019050919050565b600060208201905081810360008301526115868161154a565b9050919050565b60006040820190506115a260008301856110a2565b6115af6020830184611125565b9392505050565b7f494e56414c49445f434c41494d00000000000000000000000000000000000000600082015250565b60006115ec600d8361129c565b91506115f7826115b6565b602082019050919050565b6000602082019050818103600083015261161b816115df565b905091905056fea26469706673582212209ba7af6e7b2ec60045edefaf309dd01ba547b0e4bf87ef3be8af959ff1e57f7564736f6c63430008130033",
					"opcodes": "PUSH1 0xA0 PUSH1 0x40 MSTORE CALLVALUE DUP1 ISZERO PUSH3 0x11 JUMPI PUSH1 0x0 DUP1 REVERT JUMPDEST POP PUSH1 0x40 MLOAD PUSH3 0x1838 CODESIZE SUB DUP1 PUSH3 0x1838 DUP4 CODECOPY DUP2 DUP2 ADD PUSH1 0x40 MSTORE DUP2 ADD SWAP1 PUSH3 0x37 SWAP2 SWAP1 PUSH3 0x161 JUMP JUMPDEST DUP3 PUSH20 0xFFFFFFFFFFFFFFFFFFFFFFFFFFFFFFFFFFFFFFFF AND PUSH1 0x80 DUP2 PUSH20 0xFFFFFFFFFFFFFFFFFFFFFFFFFFFFFFFFFFFFFFFF AND DUP2 MSTORE POP POP DUP2 PUSH1 0x2 PUSH1 0x0 PUSH2 0x100 EXP DUP2 SLOAD DUP2 PUSH20 0xFFFFFFFFFFFFFFFFFFFFFFFFFFFFFFFFFFFFFFFF MUL NOT AND SWAP1 DUP4 PUSH20 0xFFFFFFFFFFFFFFFFFFFFFFFFFFFFFFFFFFFFFFFF AND MUL OR SWAP1 SSTORE POP DUP1 PUSH1 0x3 DUP2 SWAP1 SSTORE POP POP POP POP PUSH3 0x1BD JUMP JUMPDEST PUSH1 0x0 DUP1 REVERT JUMPDEST PUSH1 0x0 PUSH20 0xFFFFFFFFFFFFFFFFFFFFFFFFFFFFFFFFFFFFFFFF DUP3 AND SWAP1 POP SWAP2 SWAP1 POP JUMP JUMPDEST PUSH1 0x0 PUSH3 0xEE DUP3 PUSH3 0xC1 JUMP JUMPDEST SWAP1 POP SWAP2 SWAP1 POP JUMP JUMPDEST PUSH3 0x100 DUP2 PUSH3 0xE1 JUMP JUMPDEST DUP2 EQ PUSH3 0x10C JUMPI PUSH1 0x0 DUP1 REVERT JUMPDEST POP JUMP JUMPDEST PUSH1 0x0 DUP2 MLOAD SWAP1 POP PUSH3 0x120 DUP2 PUSH3 0xF5 JUMP JUMPDEST SWAP3 SWAP2 POP POP JUMP JUMPDEST PUSH1 0x0 DUP2 SWAP1 POP SWAP2 SWAP1 POP JUMP JUMPDEST PUSH3 0x13B DUP2 PUSH3 0x126 JUMP JUMPDEST DUP2 EQ PUSH3 0x147 JUMPI PUSH1 0x0 DUP1 REVERT JUMPDEST POP JUMP JUMPDEST PUSH1 0x0 DUP2 MLOAD SWAP1 POP PUSH3 0x15B DUP2 PUSH3 0x130 JUMP JUMPDEST SWAP3 SWAP2 POP POP JUMP JUMPDEST PUSH1 0x0 DUP1 PUSH1 0x0 PUSH1 0x60 DUP5 DUP7 SUB SLT ISZERO PUSH3 0x17D JUMPI PUSH3 0x17C PUSH3 0xBC JUMP JUMPDEST JUMPDEST PUSH1 0x0 PUSH3 0x18D DUP7 DUP3 DUP8 ADD PUSH3 0x10F JUMP JUMPDEST SWAP4 POP POP PUSH1 0x20 PUSH3 0x1A0 DUP7 DUP3 DUP8 ADD PUSH3 0x10F JUMP JUMPDEST SWAP3 POP POP PUSH1 0x40 PUSH3 0x1B3 DUP7 DUP3 DUP8 ADD PUSH3 0x14A JUMP JUMPDEST SWAP2 POP POP SWAP3 POP SWAP3 POP SWAP3 JUMP JUMPDEST PUSH1 0x80 MLOAD PUSH2 0x1658 PUSH3 0x1E0 PUSH1 0x0 CODECOPY PUSH1 0x0 DUP2 DUP2 PUSH2 0x385 ADD MSTORE PUSH2 0xC9A ADD MSTORE PUSH2 0x1658 PUSH1 0x0 RETURN INVALID PUSH1 0x80 PUSH1 0x40 MSTORE PUSH1 0x4 CALLDATASIZE LT PUSH2 0xE0 JUMPI PUSH1 0x0 CALLDATALOAD PUSH1 0xE0 SHR DUP1 PUSH4 0x4E71E0C8 GT PUSH2 0x7F JUMPI DUP1 PUSH4 0xD029D521 GT PUSH2 0x59 JUMPI DUP1 PUSH4 0xD029D521 EQ PUSH2 0x282 JUMPI DUP1 PUSH4 0xE6ACC72D EQ PUSH2 0x2BF JUMPI DUP1 PUSH4 0xEB774D05 EQ PUSH2 0x2E8 JUMPI DUP1 PUSH4 0xF2FDE38B EQ PUSH2 0x313 JUMPI PUSH2 0xE7 JUMP JUMPDEST DUP1 PUSH4 0x4E71E0C8 EQ PUSH2 0x215 JUMPI DUP1 PUSH4 0x8456DB15 EQ PUSH2 0x22C JUMPI DUP1 PUSH4 0x97381760 EQ PUSH2 0x257 JUMPI PUSH2 0xE7 JUMP JUMPDEST DUP1 PUSH4 0x21235D4A GT PUSH2 0xBB JUMPI DUP1 PUSH4 0x21235D4A EQ PUSH2 0x16D JUMPI DUP1 PUSH4 0x28AB047F EQ PUSH2 0x198 JUMPI DUP1 PUSH4 0x35C70DA0 EQ PUSH2 0x1C1 JUMPI DUP1 PUSH4 0x3CCFD60B EQ PUSH2 0x1FE JUMPI PUSH2 0xE7 JUMP JUMPDEST DUP1 PUSH3 0x7E4011 EQ PUSH2 0xE9 JUMPI DUP1 PUSH4 0xD009297 EQ PUSH2 0x119 JUMPI DUP1 PUSH4 0x16048BC4 EQ PUSH2 0x142 JUMPI PUSH2 0xE7 JUMP JUMPDEST CALLDATASIZE PUSH2 0xE7 JUMPI STOP JUMPDEST STOP JUMPDEST PUSH2 0x103 PUSH1 0x4 DUP1 CALLDATASIZE SUB DUP2 ADD SWAP1 PUSH2 0xFE SWAP2 SWAP1 PUSH2 0xFD1 JUMP JUMPDEST PUSH2 0x33C JUMP JUMPDEST PUSH1 0x40 MLOAD PUSH2 0x110 SWAP2 SWAP1 PUSH2 0x10B1 JUMP JUMPDEST PUSH1 0x40 MLOAD DUP1 SWAP2 SUB SWAP1 RETURN JUMPDEST CALLVALUE DUP1 ISZERO PUSH2 0x125 JUMPI PUSH1 0x0 DUP1 REVERT JUMPDEST POP PUSH2 0x140 PUSH1 0x4 DUP1 CALLDATASIZE SUB DUP2 ADD SWAP1 PUSH2 0x13B SWAP2 SWAP1 PUSH2 0x10F8 JUMP JUMPDEST PUSH2 0x59A JUMP JUMPDEST STOP JUMPDEST CALLVALUE DUP1 ISZERO PUSH2 0x14E JUMPI PUSH1 0x0 DUP1 REVERT JUMPDEST POP PUSH2 0x157 PUSH2 0x647 JUMP JUMPDEST PUSH1 0x40 MLOAD PUSH2 0x164 SWAP2 SWAP1 PUSH2 0x10B1 JUMP JUMPDEST PUSH1 0x40 MLOAD DUP1 SWAP2 SUB SWAP1 RETURN JUMPDEST CALLVALUE DUP1 ISZERO PUSH2 0x179 JUMPI PUSH1 0x0 DUP1 REVERT JUMPDEST POP PUSH2 0x182 PUSH2 0x66B JUMP JUMPDEST PUSH1 0x40 MLOAD PUSH2 0x18F SWAP2 SWAP1 PUSH2 0x1134 JUMP JUMPDEST PUSH1 0x40 MLOAD DUP1 SWAP2 SUB SWAP1 RETURN JUMPDEST CALLVALUE DUP1 ISZERO PUSH2 0x1A4 JUMPI PUSH1 0x0 DUP1 REVERT JUMPDEST POP PUSH2 0x1BF PUSH1 0x4 DUP1 CALLDATASIZE SUB DUP2 ADD SWAP1 PUSH2 0x1BA SWAP2 SWAP1 PUSH2 0x10F8 JUMP JUMPDEST PUSH2 0x671 JUMP JUMPDEST STOP JUMPDEST CALLVALUE DUP1 ISZERO PUSH2 0x1CD JUMPI PUSH1 0x0 DUP1 REVERT JUMPDEST POP PUSH2 0x1E8 PUSH1 0x4 DUP1 CALLDATASIZE SUB DUP2 ADD SWAP1 PUSH2 0x1E3 SWAP2 SWAP1 PUSH2 0x114F JUMP JUMPDEST PUSH2 0x77A JUMP JUMPDEST PUSH1 0x40 MLOAD PUSH2 0x1F5 SWAP2 SWAP1 PUSH2 0x10B1 JUMP JUMPDEST PUSH1 0x40 MLOAD DUP1 SWAP2 SUB SWAP1 RETURN JUMPDEST CALLVALUE DUP1 ISZERO PUSH2 0x20A JUMPI PUSH1 0x0 DUP1 REVERT JUMPDEST POP PUSH2 0x213 PUSH2 0x7C8 JUMP JUMPDEST STOP JUMPDEST CALLVALUE DUP1 ISZERO PUSH2 0x221 JUMPI PUSH1 0x0 DUP1 REVERT JUMPDEST POP PUSH2 0x22A PUSH2 0x8DE JUMP JUMPDEST STOP JUMPDEST CALLVALUE DUP1 ISZERO PUSH2 0x238 JUMPI PUSH1 0x0 DUP1 REVERT JUMPDEST POP PUSH2 0x241 PUSH2 0xAB0 JUMP JUMPDEST PUSH1 0x40 MLOAD PUSH2 0x24E SWAP2 SWAP1 PUSH2 0x10B1 JUMP JUMPDEST PUSH1 0x40 MLOAD DUP1 SWAP2 SUB SWAP1 RETURN JUMPDEST CALLVALUE DUP1 ISZERO PUSH2 0x263 JUMPI PUSH1 0x0 DUP1 REVERT JUMPDEST POP PUSH2 0x26C PUSH2 0xAD6 JUMP JUMPDEST PUSH1 0x40 MLOAD PUSH2 0x279 SWAP2 SWAP1 PUSH2 0x10B1 JUMP JUMPDEST PUSH1 0x40 MLOAD DUP1 SWAP2 SUB SWAP1 RETURN JUMPDEST CALLVALUE DUP1 ISZERO PUSH2 0x28E JUMPI PUSH1 0x0 DUP1 REVERT JUMPDEST POP PUSH2 0x2A9 PUSH1 0x4 DUP1 CALLDATASIZE SUB DUP2 ADD SWAP1 PUSH2 0x2A4 SWAP2 SWAP1 PUSH2 0x10F8 JUMP JUMPDEST PUSH2 0xAFC JUMP JUMPDEST PUSH1 0x40 MLOAD PUSH2 0x2B6 SWAP2 SWAP1 PUSH2 0x124D JUMP JUMPDEST PUSH1 0x40 MLOAD DUP1 SWAP2 SUB SWAP1 RETURN JUMPDEST CALLVALUE DUP1 ISZERO PUSH2 0x2CB JUMPI PUSH1 0x0 DUP1 REVERT JUMPDEST POP PUSH2 0x2E6 PUSH1 0x4 DUP1 CALLDATASIZE SUB DUP2 ADD SWAP1 PUSH2 0x2E1 SWAP2 SWAP1 PUSH2 0x126F JUMP JUMPDEST PUSH2 0xBC9 JUMP JUMPDEST STOP JUMPDEST CALLVALUE DUP1 ISZERO PUSH2 0x2F4 JUMPI PUSH1 0x0 DUP1 REVERT JUMPDEST POP PUSH2 0x2FD PUSH2 0xC98 JUMP JUMPDEST PUSH1 0x40 MLOAD PUSH2 0x30A SWAP2 SWAP1 PUSH2 0x10B1 JUMP JUMPDEST PUSH1 0x40 MLOAD DUP1 SWAP2 SUB SWAP1 RETURN JUMPDEST CALLVALUE DUP1 ISZERO PUSH2 0x31F JUMPI PUSH1 0x0 DUP1 REVERT JUMPDEST POP PUSH2 0x33A PUSH1 0x4 DUP1 CALLDATASIZE SUB DUP2 ADD SWAP1 PUSH2 0x335 SWAP2 SWAP1 PUSH2 0x10F8 JUMP JUMPDEST PUSH2 0xCBC JUMP JUMPDEST STOP JUMPDEST PUSH1 0x0 PUSH1 0x3 SLOAD CALLVALUE LT ISZERO PUSH2 0x383 JUMPI PUSH1 0x40 MLOAD PUSH32 0x8C379A000000000000000000000000000000000000000000000000000000000 DUP2 MSTORE PUSH1 0x4 ADD PUSH2 0x37A SWAP1 PUSH2 0x12F9 JUMP JUMPDEST PUSH1 0x40 MLOAD DUP1 SWAP2 SUB SWAP1 REVERT JUMPDEST PUSH32 0x0 PUSH20 0xFFFFFFFFFFFFFFFFFFFFFFFFFFFFFFFFFFFFFFFF AND PUSH4 0x8124B78E PUSH1 0x2 PUSH1 0x0 SWAP1 SLOAD SWAP1 PUSH2 0x100 EXP SWAP1 DIV PUSH20 0xFFFFFFFFFFFFFFFFFFFFFFFFFFFFFFFFFFFFFFFF AND PUSH1 0x40 MLOAD DUP3 PUSH4 0xFFFFFFFF AND PUSH1 0xE0 SHL DUP2 MSTORE PUSH1 0x4 ADD PUSH2 0x3FE SWAP2 SWAP1 PUSH2 0x10B1 JUMP JUMPDEST PUSH1 0x20 PUSH1 0x40 MLOAD DUP1 DUP4 SUB DUP2 PUSH1 0x0 DUP8 GAS CALL ISZERO DUP1 ISZERO PUSH2 0x41D JUMPI RETURNDATASIZE PUSH1 0x0 DUP1 RETURNDATACOPY RETURNDATASIZE PUSH1 0x0 REVERT JUMPDEST POP POP POP POP PUSH1 0x40 MLOAD RETURNDATASIZE PUSH1 0x1F NOT PUSH1 0x1F DUP3 ADD AND DUP3 ADD DUP1 PUSH1 0x40 MSTORE POP DUP2 ADD SWAP1 PUSH2 0x441 SWAP2 SWAP1 PUSH2 0x132E JUMP JUMPDEST SWAP1 POP DUP1 PUSH20 0xFFFFFFFFFFFFFFFFFFFFFFFFFFFFFFFFFFFFFFFF AND PUSH4 0xFC90EF18 CALLER DUP6 DUP9 DUP9 DUP8 PUSH1 0x40 MLOAD DUP7 PUSH4 0xFFFFFFFF AND PUSH1 0xE0 SHL DUP2 MSTORE PUSH1 0x4 ADD PUSH2 0x484 SWAP6 SWAP5 SWAP4 SWAP3 SWAP2 SWAP1 PUSH2 0x13D8 JUMP JUMPDEST PUSH1 0x0 PUSH1 0x40 MLOAD DUP1 DUP4 SUB DUP2 PUSH1 0x0 DUP8 DUP1 EXTCODESIZE ISZERO DUP1 ISZERO PUSH2 0x49E JUMPI PUSH1 0x0 DUP1 REVERT JUMPDEST POP GAS CALL ISZERO DUP1 ISZERO PUSH2 0x4B2 JUMPI RETURNDATASIZE PUSH1 0x0 DUP1 RETURNDATACOPY RETURNDATASIZE PUSH1 0x0 REVERT JUMPDEST POP POP POP POP PUSH1 0x4 PUSH1 0x0 CALLER PUSH20 0xFFFFFFFFFFFFFFFFFFFFFFFFFFFFFFFFFFFFFFFF AND PUSH20 0xFFFFFFFFFFFFFFFFFFFFFFFFFFFFFFFFFFFFFFFF AND DUP2 MSTORE PUSH1 0x20 ADD SWAP1 DUP2 MSTORE PUSH1 0x20 ADD PUSH1 0x0 KECCAK256 DUP2 SWAP1 DUP1 PUSH1 0x1 DUP2 SLOAD ADD DUP1 DUP3 SSTORE DUP1 SWAP2 POP POP PUSH1 0x1 SWAP1 SUB SWAP1 PUSH1 0x0 MSTORE PUSH1 0x20 PUSH1 0x0 KECCAK256 ADD PUSH1 0x0 SWAP1 SWAP2 SWAP1 SWAP2 SWAP1 SWAP2 PUSH2 0x100 EXP DUP2 SLOAD DUP2 PUSH20 0xFFFFFFFFFFFFFFFFFFFFFFFFFFFFFFFFFFFFFFFF MUL NOT AND SWAP1 DUP4 PUSH20 0xFFFFFFFFFFFFFFFFFFFFFFFFFFFFFFFFFFFFFFFF AND MUL OR SWAP1 SSTORE POP PUSH32 0x1393D5EDD44C8974D9F4BE5F459E4F6C6C67917E4400784FC61D8A0872A9FC38 DUP2 CALLER PUSH1 0x0 PUSH1 0x40 MLOAD PUSH2 0x58A SWAP4 SWAP3 SWAP2 SWAP1 PUSH2 0x147E JUMP JUMPDEST PUSH1 0x40 MLOAD DUP1 SWAP2 SUB SWAP1 LOG1 SWAP5 SWAP4 POP POP POP POP JUMP JUMPDEST PUSH1 0x1 PUSH1 0x14 SWAP1 SLOAD SWAP1 PUSH2 0x100 EXP SWAP1 DIV PUSH1 0xFF AND ISZERO PUSH2 0x5EA JUMPI PUSH1 0x40 MLOAD PUSH32 0x8C379A000000000000000000000000000000000000000000000000000000000 DUP2 MSTORE PUSH1 0x4 ADD PUSH2 0x5E1 SWAP1 PUSH2 0x1501 JUMP JUMPDEST PUSH1 0x40 MLOAD DUP1 SWAP2 SUB SWAP1 REVERT JUMPDEST PUSH1 0x1 DUP1 PUSH1 0x14 PUSH2 0x100 EXP DUP2 SLOAD DUP2 PUSH1 0xFF MUL NOT AND SWAP1 DUP4 ISZERO ISZERO MUL OR SWAP1 SSTORE POP DUP1 PUSH1 0x0 DUP1 PUSH2 0x100 EXP DUP2 SLOAD DUP2 PUSH20 0xFFFFFFFFFFFFFFFFFFFFFFFFFFFFFFFFFFFFFFFF MUL NOT AND SWAP1 DUP4 PUSH20 0xFFFFFFFFFFFFFFFFFFFFFFFFFFFFFFFFFFFFFFFF AND MUL OR SWAP1 SSTORE POP POP JUMP JUMPDEST PUSH1 0x0 DUP1 SLOAD SWAP1 PUSH2 0x100 EXP SWAP1 DIV PUSH20 0xFFFFFFFFFFFFFFFFFFFFFFFFFFFFFFFFFFFFFFFF AND DUP2 JUMP JUMPDEST PUSH1 0x3 SLOAD DUP2 JUMP JUMPDEST PUSH1 0x0 DUP1 SLOAD SWAP1 PUSH2 0x100 EXP SWAP1 DIV PUSH20 0xFFFFFFFFFFFFFFFFFFFFFFFFFFFFFFFFFFFFFFFF AND PUSH20 0xFFFFFFFFFFFFFFFFFFFFFFFFFFFFFFFFFFFFFFFF AND CALLER PUSH20 0xFFFFFFFFFFFFFFFFFFFFFFFFFFFFFFFFFFFFFFFF AND EQ PUSH2 0x6FF JUMPI PUSH1 0x40 MLOAD PUSH32 0x8C379A000000000000000000000000000000000000000000000000000000000 DUP2 MSTORE PUSH1 0x4 ADD PUSH2 0x6F6 SWAP1 PUSH2 0x156D JUMP JUMPDEST PUSH1 0x40 MLOAD DUP1 SWAP2 SUB SWAP1 REVERT JUMPDEST DUP1 PUSH1 0x2 PUSH1 0x0 PUSH2 0x100 EXP DUP2 SLOAD DUP2 PUSH20 0xFFFFFFFFFFFFFFFFFFFFFFFFFFFFFFFFFFFFFFFF MUL NOT AND SWAP1 DUP4 PUSH20 0xFFFFFFFFFFFFFFFFFFFFFFFFFFFFFFFFFFFFFFFF AND MUL OR SWAP1 SSTORE POP PUSH32 0xEDC968A09F964F0AB07F91C96DD61BBFD3CE2B438EDE9E63721D56867EA53365 DUP2 PUSH1 0x40 MLOAD PUSH2 0x76F SWAP2 SWAP1 PUSH2 0x10B1 JUMP JUMPDEST PUSH1 0x40 MLOAD DUP1 SWAP2 SUB SWAP1 LOG1 POP JUMP JUMPDEST PUSH1 0x4 PUSH1 0x20 MSTORE DUP2 PUSH1 0x0 MSTORE PUSH1 0x40 PUSH1 0x0 KECCAK256 DUP2 DUP2 SLOAD DUP2 LT PUSH2 0x796 JUMPI PUSH1 0x0 DUP1 REVERT JUMPDEST SWAP1 PUSH1 0x0 MSTORE PUSH1 0x20 PUSH1 0x0 KECCAK256 ADD PUSH1 0x0 SWAP2 POP SWAP2 POP SWAP1 SLOAD SWAP1 PUSH2 0x100 EXP SWAP1 DIV PUSH20 0xFFFFFFFFFFFFFFFFFFFFFFFFFFFFFFFFFFFFFFFF AND DUP2 JUMP JUMPDEST PUSH1 0x0 DUP1 SLOAD SWAP1 PUSH2 0x100 EXP SWAP1 DIV PUSH20 0xFFFFFFFFFFFFFFFFFFFFFFFFFFFFFFFFFFFFFFFF AND PUSH20 0xFFFFFFFFFFFFFFFFFFFFFFFFFFFFFFFFFFFFFFFF AND CALLER PUSH20 0xFFFFFFFFFFFFFFFFFFFFFFFFFFFFFFFFFFFFFFFF AND EQ PUSH2 0x856 JUMPI PUSH1 0x40 MLOAD PUSH32 0x8C379A000000000000000000000000000000000000000000000000000000000 DUP2 MSTORE PUSH1 0x4 ADD PUSH2 0x84D SWAP1 PUSH2 0x156D JUMP JUMPDEST PUSH1 0x40 MLOAD DUP1 SWAP2 SUB SWAP1 REVERT JUMPDEST PUSH1 0x0 SELFBALANCE SWAP1 POP CALLER PUSH20 0xFFFFFFFFFFFFFFFFFFFFFFFFFFFFFFFFFFFFFFFF AND PUSH2 0x8FC DUP3 SWAP1 DUP2 ISZERO MUL SWAP1 PUSH1 0x40 MLOAD PUSH1 0x0 PUSH1 0x40 MLOAD DUP1 DUP4 SUB DUP2 DUP6 DUP9 DUP9 CALL SWAP4 POP POP POP POP ISZERO DUP1 ISZERO PUSH2 0x8A1 JUMPI RETURNDATASIZE PUSH1 0x0 DUP1 RETURNDATACOPY RETURNDATASIZE PUSH1 0x0 REVERT JUMPDEST POP PUSH32 0x884EDAD9CE6FA2440D8A54CC123490EB96D2768479D49FF9C7366125A9424364 CALLER DUP3 PUSH1 0x40 MLOAD PUSH2 0x8D3 SWAP3 SWAP2 SWAP1 PUSH2 0x158D JUMP JUMPDEST PUSH1 0x40 MLOAD DUP1 SWAP2 SUB SWAP1 LOG1 POP JUMP JUMPDEST PUSH1 0x1 PUSH1 0x0 SWAP1 SLOAD SWAP1 PUSH2 0x100 EXP SWAP1 DIV PUSH20 0xFFFFFFFFFFFFFFFFFFFFFFFFFFFFFFFFFFFFFFFF AND PUSH20 0xFFFFFFFFFFFFFFFFFFFFFFFFFFFFFFFFFFFFFFFF AND CALLER PUSH20 0xFFFFFFFFFFFFFFFFFFFFFFFFFFFFFFFFFFFFFFFF AND EQ PUSH2 0x96E JUMPI PUSH1 0x40 MLOAD PUSH32 0x8C379A000000000000000000000000000000000000000000000000000000000 DUP2 MSTORE PUSH1 0x4 ADD PUSH2 0x965 SWAP1 PUSH2 0x1602 JUMP JUMPDEST PUSH1 0x40 MLOAD DUP1 SWAP2 SUB SWAP1 REVERT JUMPDEST PUSH1 0x1 PUSH1 0x0 SWAP1 SLOAD SWAP1 PUSH2 0x100 EXP SWAP1 DIV PUSH20 0xFFFFFFFFFFFFFFFFFFFFFFFFFFFFFFFFFFFFFFFF AND PUSH20 0xFFFFFFFFFFFFFFFFFFFFFFFFFFFFFFFFFFFFFFFF AND PUSH1 0x0 DUP1 SLOAD SWAP1 PUSH2 0x100 EXP SWAP1 DIV PUSH20 0xFFFFFFFFFFFFFFFFFFFFFFFFFFFFFFFFFFFFFFFF AND PUSH20 0xFFFFFFFFFFFFFFFFFFFFFFFFFFFFFFFFFFFFFFFF AND PUSH32 0x8BE0079C531659141344CD1FD0A4F28419497F9722A3DAAFE3B4186F6B6457E0 PUSH1 0x40 MLOAD PUSH1 0x40 MLOAD DUP1 SWAP2 SUB SWAP1 LOG3 PUSH1 0x1 PUSH1 0x0 SWAP1 SLOAD SWAP1 PUSH2 0x100 EXP SWAP1 DIV PUSH20 0xFFFFFFFFFFFFFFFFFFFFFFFFFFFFFFFFFFFFFFFF AND PUSH1 0x0 DUP1 PUSH2 0x100 EXP DUP2 SLOAD DUP2 PUSH20 0xFFFFFFFFFFFFFFFFFFFFFFFFFFFFFFFFFFFFFFFF MUL NOT AND SWAP1 DUP4 PUSH20 0xFFFFFFFFFFFFFFFFFFFFFFFFFFFFFFFFFFFFFFFF AND MUL OR SWAP1 SSTORE POP PUSH1 0x0 PUSH1 0x1 PUSH1 0x0 PUSH2 0x100 EXP DUP2 SLOAD DUP2 PUSH20 0xFFFFFFFFFFFFFFFFFFFFFFFFFFFFFFFFFFFFFFFF MUL NOT AND SWAP1 DUP4 PUSH20 0xFFFFFFFFFFFFFFFFFFFFFFFFFFFFFFFFFFFFFFFF AND MUL OR SWAP1 SSTORE POP JUMP JUMPDEST PUSH1 0x1 PUSH1 0x0 SWAP1 SLOAD SWAP1 PUSH2 0x100 EXP SWAP1 DIV PUSH20 0xFFFFFFFFFFFFFFFFFFFFFFFFFFFFFFFFFFFFFFFF AND DUP2 JUMP JUMPDEST PUSH1 0x2 PUSH1 0x0 SWAP1 SLOAD SWAP1 PUSH2 0x100 EXP SWAP1 DIV PUSH20 0xFFFFFFFFFFFFFFFFFFFFFFFFFFFFFFFFFFFFFFFF AND DUP2 JUMP JUMPDEST PUSH1 0x60 PUSH1 0x4 PUSH1 0x0 DUP4 PUSH20 0xFFFFFFFFFFFFFFFFFFFFFFFFFFFFFFFFFFFFFFFF AND PUSH20 0xFFFFFFFFFFFFFFFFFFFFFFFFFFFFFFFFFFFFFFFF AND DUP2 MSTORE PUSH1 0x20 ADD SWAP1 DUP2 MSTORE PUSH1 0x20 ADD PUSH1 0x0 KECCAK256 DUP1 SLOAD DUP1 PUSH1 0x20 MUL PUSH1 0x20 ADD PUSH1 0x40 MLOAD SWAP1 DUP2 ADD PUSH1 0x40 MSTORE DUP1 SWAP3 SWAP2 SWAP1 DUP2 DUP2 MSTORE PUSH1 0x20 ADD DUP3 DUP1 SLOAD DUP1 ISZERO PUSH2 0xBBD JUMPI PUSH1 0x20 MUL DUP3 ADD SWAP2 SWAP1 PUSH1 0x0 MSTORE PUSH1 0x20 PUSH1 0x0 KECCAK256 SWAP1 JUMPDEST DUP2 PUSH1 0x0 SWAP1 SLOAD SWAP1 PUSH2 0x100 EXP SWAP1 DIV PUSH20 0xFFFFFFFFFFFFFFFFFFFFFFFFFFFFFFFFFFFFFFFF AND PUSH20 0xFFFFFFFFFFFFFFFFFFFFFFFFFFFFFFFFFFFFFFFF AND DUP2 MSTORE PUSH1 0x20 ADD SWAP1 PUSH1 0x1 ADD SWAP1 DUP1 DUP4 GT PUSH2 0xB73 JUMPI JUMPDEST POP POP POP POP POP SWAP1 POP SWAP2 SWAP1 POP JUMP JUMPDEST PUSH1 0x0 DUP1 SLOAD SWAP1 PUSH2 0x100 EXP SWAP1 DIV PUSH20 0xFFFFFFFFFFFFFFFFFFFFFFFFFFFFFFFFFFFFFFFF AND PUSH20 0xFFFFFFFFFFFFFFFFFFFFFFFFFFFFFFFFFFFFFFFF AND CALLER PUSH20 0xFFFFFFFFFFFFFFFFFFFFFFFFFFFFFFFFFFFFFFFF AND EQ PUSH2 0xC57 JUMPI PUSH1 0x40 MLOAD PUSH32 0x8C379A000000000000000000000000000000000000000000000000000000000 DUP2 MSTORE PUSH1 0x4 ADD PUSH2 0xC4E SWAP1 PUSH2 0x156D JUMP JUMPDEST PUSH1 0x40 MLOAD DUP1 SWAP2 SUB SWAP1 REVERT JUMPDEST DUP1 PUSH1 0x3 DUP2 SWAP1 SSTORE POP PUSH32 0xE2A626DD21B2CA43B97EF589791D30517DB1C9676631E68D57B444E2E1826909 DUP2 PUSH1 0x40 MLOAD PUSH2 0xC8D SWAP2 SWAP1 PUSH2 0x1134 JUMP JUMPDEST PUSH1 0x40 MLOAD DUP1 SWAP2 SUB SWAP1 LOG1 POP JUMP JUMPDEST PUSH32 0x0 DUP2 JUMP JUMPDEST PUSH1 0x0 DUP1 SLOAD SWAP1 PUSH2 0x100 EXP SWAP1 DIV PUSH20 0xFFFFFFFFFFFFFFFFFFFFFFFFFFFFFFFFFFFFFFFF AND PUSH20 0xFFFFFFFFFFFFFFFFFFFFFFFFFFFFFFFFFFFFFFFF AND CALLER PUSH20 0xFFFFFFFFFFFFFFFFFFFFFFFFFFFFFFFFFFFFFFFF AND EQ PUSH2 0xD4A JUMPI PUSH1 0x40 MLOAD PUSH32 0x8C379A000000000000000000000000000000000000000000000000000000000 DUP2 MSTORE PUSH1 0x4 ADD PUSH2 0xD41 SWAP1 PUSH2 0x156D JUMP JUMPDEST PUSH1 0x40 MLOAD DUP1 SWAP2 SUB SWAP1 REVERT JUMPDEST DUP1 PUSH20 0xFFFFFFFFFFFFFFFFFFFFFFFFFFFFFFFFFFFFFFFF AND PUSH1 0x0 DUP1 SLOAD SWAP1 PUSH2 0x100 EXP SWAP1 DIV PUSH20 0xFFFFFFFFFFFFFFFFFFFFFFFFFFFFFFFFFFFFFFFF AND PUSH20 0xFFFFFFFFFFFFFFFFFFFFFFFFFFFFFFFFFFFFFFFF AND PUSH32 0xDCF55418CEE3220104FEF63F979FF3C4097AD240C0C43DCB33CE837748983E62 PUSH1 0x40 MLOAD PUSH1 0x40 MLOAD DUP1 SWAP2 SUB SWAP1 LOG3 DUP1 PUSH1 0x1 PUSH1 0x0 PUSH2 0x100 EXP DUP2 SLOAD DUP2 PUSH20 0xFFFFFFFFFFFFFFFFFFFFFFFFFFFFFFFFFFFFFFFF MUL NOT AND SWAP1 DUP4 PUSH20 0xFFFFFFFFFFFFFFFFFFFFFFFFFFFFFFFFFFFFFFFF AND MUL OR SWAP1 SSTORE POP POP JUMP JUMPDEST PUSH1 0x0 PUSH1 0x40 MLOAD SWAP1 POP SWAP1 JUMP JUMPDEST PUSH1 0x0 DUP1 REVERT JUMPDEST PUSH1 0x0 DUP1 REVERT JUMPDEST PUSH1 0x0 DUP1 REVERT JUMPDEST PUSH1 0x0 DUP1 REVERT JUMPDEST PUSH1 0x0 PUSH1 0x1F NOT PUSH1 0x1F DUP4 ADD AND SWAP1 POP SWAP2 SWAP1 POP JUMP JUMPDEST PUSH32 0x4E487B7100000000000000000000000000000000000000000000000000000000 PUSH1 0x0 MSTORE PUSH1 0x41 PUSH1 0x4 MSTORE PUSH1 0x24 PUSH1 0x0 REVERT JUMPDEST PUSH2 0xE6F DUP3 PUSH2 0xE26 JUMP JUMPDEST DUP2 ADD DUP2 DUP2 LT PUSH8 0xFFFFFFFFFFFFFFFF DUP3 GT OR ISZERO PUSH2 0xE8E JUMPI PUSH2 0xE8D PUSH2 0xE37 JUMP JUMPDEST JUMPDEST DUP1 PUSH1 0x40 MSTORE POP POP POP JUMP JUMPDEST PUSH1 0x0 PUSH2 0xEA1 PUSH2 0xE08 JUMP JUMPDEST SWAP1 POP PUSH2 0xEAD DUP3 DUP3 PUSH2 0xE66 JUMP JUMPDEST SWAP2 SWAP1 POP JUMP JUMPDEST PUSH1 0x0 PUSH8 0xFFFFFFFFFFFFFFFF DUP3 GT ISZERO PUSH2 0xECD JUMPI PUSH2 0xECC PUSH2 0xE37 JUMP JUMPDEST JUMPDEST PUSH2 0xED6 DUP3 PUSH2 0xE26 JUMP JUMPDEST SWAP1 POP PUSH1 0x20 DUP2 ADD SWAP1 POP SWAP2 SWAP1 POP JUMP JUMPDEST DUP3 DUP2 DUP4 CALLDATACOPY PUSH1 0x0 DUP4 DUP4 ADD MSTORE POP POP POP JUMP JUMPDEST PUSH1 0x0 PUSH2 0xF05 PUSH2 0xF00 DUP5 PUSH2 0xEB2 JUMP JUMPDEST PUSH2 0xE97 JUMP JUMPDEST SWAP1 POP DUP3 DUP2 MSTORE PUSH1 0x20 DUP2 ADD DUP5 DUP5 DUP5 ADD GT ISZERO PUSH2 0xF21 JUMPI PUSH2 0xF20 PUSH2 0xE21 JUMP JUMPDEST JUMPDEST PUSH2 0xF2C DUP5 DUP3 DUP6 PUSH2 0xEE3 JUMP JUMPDEST POP SWAP4 SWAP3 POP POP POP JUMP JUMPDEST PUSH1 0x0 DUP3 PUSH1 0x1F DUP4 ADD SLT PUSH2 0xF49 JUMPI PUSH2 0xF48 PUSH2 0xE1C JUMP JUMPDEST JUMPDEST DUP2 CALLDATALOAD PUSH2 0xF59 DUP5 DUP3 PUSH1 0x20 DUP7 ADD PUSH2 0xEF2 JUMP JUMPDEST SWAP2 POP POP SWAP3 SWAP2 POP POP JUMP JUMPDEST PUSH1 0x0 DUP2 SWAP1 POP SWAP2 SWAP1 POP JUMP JUMPDEST PUSH2 0xF75 DUP2 PUSH2 0xF62 JUMP JUMPDEST DUP2 EQ PUSH2 0xF80 JUMPI PUSH1 0x0 DUP1 REVERT JUMPDEST POP JUMP JUMPDEST PUSH1 0x0 DUP2 CALLDATALOAD SWAP1 POP PUSH2 0xF92 DUP2 PUSH2 0xF6C JUMP JUMPDEST SWAP3 SWAP2 POP POP JUMP JUMPDEST PUSH1 0x0 PUSH1 0xFF DUP3 AND SWAP1 POP SWAP2 SWAP1 POP JUMP JUMPDEST PUSH2 0xFAE DUP2 PUSH2 0xF98 JUMP JUMPDEST DUP2 EQ PUSH2 0xFB9 JUMPI PUSH1 0x0 DUP1 REVERT JUMPDEST POP JUMP JUMPDEST PUSH1 0x0 DUP2 CALLDATALOAD SWAP1 POP PUSH2 0xFCB DUP2 PUSH2 0xFA5 JUMP JUMPDEST SWAP3 SWAP2 POP POP JUMP JUMPDEST PUSH1 0x0 DUP1 PUSH1 0x0 DUP1 PUSH1 0x80 DUP6 DUP8 SUB SLT ISZERO PUSH2 0xFEB JUMPI PUSH2 0xFEA PUSH2 0xE12 JUMP JUMPDEST JUMPDEST PUSH1 0x0 DUP6 ADD CALLDATALOAD PUSH8 0xFFFFFFFFFFFFFFFF DUP2 GT ISZERO PUSH2 0x1009 JUMPI PUSH2 0x1008 PUSH2 0xE17 JUMP JUMPDEST JUMPDEST PUSH2 0x1015 DUP8 DUP3 DUP9 ADD PUSH2 0xF34 JUMP JUMPDEST SWAP5 POP POP PUSH1 0x20 DUP6 ADD CALLDATALOAD PUSH8 0xFFFFFFFFFFFFFFFF DUP2 GT ISZERO PUSH2 0x1036 JUMPI PUSH2 0x1035 PUSH2 0xE17 JUMP JUMPDEST JUMPDEST PUSH2 0x1042 DUP8 DUP3 DUP9 ADD PUSH2 0xF34 JUMP JUMPDEST SWAP4 POP POP PUSH1 0x40 PUSH2 0x1053 DUP8 DUP3 DUP9 ADD PUSH2 0xF83 JUMP JUMPDEST SWAP3 POP POP PUSH1 0x60 PUSH2 0x1064 DUP8 DUP3 DUP9 ADD PUSH2 0xFBC JUMP JUMPDEST SWAP2 POP POP SWAP3 SWAP6 SWAP2 SWAP5 POP SWAP3 POP JUMP JUMPDEST PUSH1 0x0 PUSH20 0xFFFFFFFFFFFFFFFFFFFFFFFFFFFFFFFFFFFFFFFF DUP3 AND SWAP1 POP SWAP2 SWAP1 POP JUMP JUMPDEST PUSH1 0x0 PUSH2 0x109B DUP3 PUSH2 0x1070 JUMP JUMPDEST SWAP1 POP SWAP2 SWAP1 POP JUMP JUMPDEST PUSH2 0x10AB DUP2 PUSH2 0x1090 JUMP JUMPDEST DUP3 MSTORE POP POP JUMP JUMPDEST PUSH1 0x0 PUSH1 0x20 DUP3 ADD SWAP1 POP PUSH2 0x10C6 PUSH1 0x0 DUP4 ADD DUP5 PUSH2 0x10A2 JUMP JUMPDEST SWAP3 SWAP2 POP POP JUMP JUMPDEST PUSH2 0x10D5 DUP2 PUSH2 0x1090 JUMP JUMPDEST DUP2 EQ PUSH2 0x10E0 JUMPI PUSH1 0x0 DUP1 REVERT JUMPDEST POP JUMP JUMPDEST PUSH1 0x0 DUP2 CALLDATALOAD SWAP1 POP PUSH2 0x10F2 DUP2 PUSH2 0x10CC JUMP JUMPDEST SWAP3 SWAP2 POP POP JUMP JUMPDEST PUSH1 0x0 PUSH1 0x20 DUP3 DUP5 SUB SLT ISZERO PUSH2 0x110E JUMPI PUSH2 0x110D PUSH2 0xE12 JUMP JUMPDEST JUMPDEST PUSH1 0x0 PUSH2 0x111C DUP5 DUP3 DUP6 ADD PUSH2 0x10E3 JUMP JUMPDEST SWAP2 POP POP SWAP3 SWAP2 POP POP JUMP JUMPDEST PUSH2 0x112E DUP2 PUSH2 0xF62 JUMP JUMPDEST DUP3 MSTORE POP POP JUMP JUMPDEST PUSH1 0x0 PUSH1 0x20 DUP3 ADD SWAP1 POP PUSH2 0x1149 PUSH1 0x0 DUP4 ADD DUP5 PUSH2 0x1125 JUMP JUMPDEST SWAP3 SWAP2 POP POP JUMP JUMPDEST PUSH1 0x0 DUP1 PUSH1 0x40 DUP4 DUP6 SUB SLT ISZERO PUSH2 0x1166 JUMPI PUSH2 0x1165 PUSH2 0xE12 JUMP JUMPDEST JUMPDEST PUSH1 0x0 PUSH2 0x1174 DUP6 DUP3 DUP7 ADD PUSH2 0x10E3 JUMP JUMPDEST SWAP3 POP POP PUSH1 0x20 PUSH2 0x1185 DUP6 DUP3 DUP7 ADD PUSH2 0xF83 JUMP JUMPDEST SWAP2 POP POP SWAP3 POP SWAP3 SWAP1 POP JUMP JUMPDEST PUSH1 0x0 DUP2 MLOAD SWAP1 POP SWAP2 SWAP1 POP JUMP JUMPDEST PUSH1 0x0 DUP3 DUP3 MSTORE PUSH1 0x20 DUP3 ADD SWAP1 POP SWAP3 SWAP2 POP POP JUMP JUMPDEST PUSH1 0x0 DUP2 SWAP1 POP PUSH1 0x20 DUP3 ADD SWAP1 POP SWAP2 SWAP1 POP JUMP JUMPDEST PUSH2 0x11C4 DUP2 PUSH2 0x1090 JUMP JUMPDEST DUP3 MSTORE POP POP JUMP JUMPDEST PUSH1 0x0 PUSH2 0x11D6 DUP4 DUP4 PUSH2 0x11BB JUMP JUMPDEST PUSH1 0x20 DUP4 ADD SWAP1 POP SWAP3 SWAP2 POP POP JUMP JUMPDEST PUSH1 0x0 PUSH1 0x20 DUP3 ADD SWAP1 POP SWAP2 SWAP1 POP JUMP JUMPDEST PUSH1 0x0 PUSH2 0x11FA DUP3 PUSH2 0x118F JUMP JUMPDEST PUSH2 0x1204 DUP2 DUP6 PUSH2 0x119A JUMP JUMPDEST SWAP4 POP PUSH2 0x120F DUP4 PUSH2 0x11AB JUMP JUMPDEST DUP1 PUSH1 0x0 JUMPDEST DUP4 DUP2 LT ISZERO PUSH2 0x1240 JUMPI DUP2 MLOAD PUSH2 0x1227 DUP9 DUP3 PUSH2 0x11CA JUMP JUMPDEST SWAP8 POP PUSH2 0x1232 DUP4 PUSH2 0x11E2 JUMP JUMPDEST SWAP3 POP POP PUSH1 0x1 DUP2 ADD SWAP1 POP PUSH2 0x1213 JUMP JUMPDEST POP DUP6 SWAP4 POP POP POP POP SWAP3 SWAP2 POP POP JUMP JUMPDEST PUSH1 0x0 PUSH1 0x20 DUP3 ADD SWAP1 POP DUP2 DUP2 SUB PUSH1 0x0 DUP4 ADD MSTORE PUSH2 0x1267 DUP2 DUP5 PUSH2 0x11EF JUMP JUMPDEST SWAP1 POP SWAP3 SWAP2 POP POP JUMP JUMPDEST PUSH1 0x0 PUSH1 0x20 DUP3 DUP5 SUB SLT ISZERO PUSH2 0x1285 JUMPI PUSH2 0x1284 PUSH2 0xE12 JUMP JUMPDEST JUMPDEST PUSH1 0x0 PUSH2 0x1293 DUP5 DUP3 DUP6 ADD PUSH2 0xF83 JUMP JUMPDEST SWAP2 POP POP SWAP3 SWAP2 POP POP JUMP JUMPDEST PUSH1 0x0 DUP3 DUP3 MSTORE PUSH1 0x20 DUP3 ADD SWAP1 POP SWAP3 SWAP2 POP POP JUMP JUMPDEST PUSH32 0x4352454154455F4645455F4E4F545F454E4F5547480000000000000000000000 PUSH1 0x0 DUP3 ADD MSTORE POP JUMP JUMPDEST PUSH1 0x0 PUSH2 0x12E3 PUSH1 0x15 DUP4 PUSH2 0x129C JUMP JUMPDEST SWAP2 POP PUSH2 0x12EE DUP3 PUSH2 0x12AD JUMP JUMPDEST PUSH1 0x20 DUP3 ADD SWAP1 POP SWAP2 SWAP1 POP JUMP JUMPDEST PUSH1 0x0 PUSH1 0x20 DUP3 ADD SWAP1 POP DUP2 DUP2 SUB PUSH1 0x0 DUP4 ADD MSTORE PUSH2 0x1312 DUP2 PUSH2 0x12D6 JUMP JUMPDEST SWAP1 POP SWAP2 SWAP1 POP JUMP JUMPDEST PUSH1 0x0 DUP2 MLOAD SWAP1 POP PUSH2 0x1328 DUP2 PUSH2 0x10CC JUMP JUMPDEST SWAP3 SWAP2 POP POP JUMP JUMPDEST PUSH1 0x0 PUSH1 0x20 DUP3 DUP5 SUB SLT ISZERO PUSH2 0x1344 JUMPI PUSH2 0x1343 PUSH2 0xE12 JUMP JUMPDEST JUMPDEST PUSH1 0x0 PUSH2 0x1352 DUP5 DUP3 DUP6 ADD PUSH2 0x1319 JUMP JUMPDEST SWAP2 POP POP SWAP3 SWAP2 POP POP JUMP JUMPDEST PUSH1 0x0 DUP2 MLOAD SWAP1 POP SWAP2 SWAP1 POP JUMP JUMPDEST PUSH1 0x0 JUMPDEST DUP4 DUP2 LT ISZERO PUSH2 0x1384 JUMPI DUP1 DUP3 ADD MLOAD DUP2 DUP5 ADD MSTORE PUSH1 0x20 DUP2 ADD SWAP1 POP PUSH2 0x1369 JUMP JUMPDEST PUSH1 0x0 DUP5 DUP5 ADD MSTORE POP POP POP POP JUMP JUMPDEST PUSH1 0x0 PUSH2 0x139B DUP3 PUSH2 0x135B JUMP JUMPDEST PUSH2 0x13A5 DUP2 DUP6 PUSH2 0x129C JUMP JUMPDEST SWAP4 POP PUSH2 0x13B5 DUP2 DUP6 PUSH1 0x20 DUP7 ADD PUSH2 0x1366 JUMP JUMPDEST PUSH2 0x13BE DUP2 PUSH2 0xE26 JUMP JUMPDEST DUP5 ADD SWAP2 POP POP SWAP3 SWAP2 POP POP JUMP JUMPDEST PUSH2 0x13D2 DUP2 PUSH2 0xF98 JUMP JUMPDEST DUP3 MSTORE POP POP JUMP JUMPDEST PUSH1 0x0 PUSH1 0xA0 DUP3 ADD SWAP1 POP PUSH2 0x13ED PUSH1 0x0 DUP4 ADD DUP9 PUSH2 0x10A2 JUMP JUMPDEST PUSH2 0x13FA PUSH1 0x20 DUP4 ADD DUP8 PUSH2 0x1125 JUMP JUMPDEST DUP2 DUP2 SUB PUSH1 0x40 DUP4 ADD MSTORE PUSH2 0x140C DUP2 DUP7 PUSH2 0x1390 JUMP JUMPDEST SWAP1 POP DUP2 DUP2 SUB PUSH1 0x60 DUP4 ADD MSTORE PUSH2 0x1420 DUP2 DUP6 PUSH2 0x1390 JUMP JUMPDEST SWAP1 POP PUSH2 0x142F PUSH1 0x80 DUP4 ADD DUP5 PUSH2 0x13C9 JUMP JUMPDEST SWAP7 SWAP6 POP POP POP POP POP POP JUMP JUMPDEST PUSH1 0x0 DUP2 SWAP1 POP SWAP2 SWAP1 POP JUMP JUMPDEST PUSH1 0x0 DUP2 SWAP1 POP SWAP2 SWAP1 POP JUMP JUMPDEST PUSH1 0x0 PUSH2 0x1468 PUSH2 0x1463 PUSH2 0x145E DUP5 PUSH2 0x1439 JUMP JUMPDEST PUSH2 0x1443 JUMP JUMPDEST PUSH2 0xF62 JUMP JUMPDEST SWAP1 POP SWAP2 SWAP1 POP JUMP JUMPDEST PUSH2 0x1478 DUP2 PUSH2 0x144D JUMP JUMPDEST DUP3 MSTORE POP POP JUMP JUMPDEST PUSH1 0x0 PUSH1 0x60 DUP3 ADD SWAP1 POP PUSH2 0x1493 PUSH1 0x0 DUP4 ADD DUP7 PUSH2 0x10A2 JUMP JUMPDEST PUSH2 0x14A0 PUSH1 0x20 DUP4 ADD DUP6 PUSH2 0x10A2 JUMP JUMPDEST PUSH2 0x14AD PUSH1 0x40 DUP4 ADD DUP5 PUSH2 0x146F JUMP JUMPDEST SWAP5 SWAP4 POP POP POP POP JUMP JUMPDEST PUSH32 0x444F444F5F494E495449414C495A454400000000000000000000000000000000 PUSH1 0x0 DUP3 ADD MSTORE POP JUMP JUMPDEST PUSH1 0x0 PUSH2 0x14EB PUSH1 0x10 DUP4 PUSH2 0x129C JUMP JUMPDEST SWAP2 POP PUSH2 0x14F6 DUP3 PUSH2 0x14B5 JUMP JUMPDEST PUSH1 0x20 DUP3 ADD SWAP1 POP SWAP2 SWAP1 POP JUMP JUMPDEST PUSH1 0x0 PUSH1 0x20 DUP3 ADD SWAP1 POP DUP2 DUP2 SUB PUSH1 0x0 DUP4 ADD MSTORE PUSH2 0x151A DUP2 PUSH2 0x14DE JUMP JUMPDEST SWAP1 POP SWAP2 SWAP1 POP JUMP JUMPDEST PUSH32 0x4E4F545F4F574E45520000000000000000000000000000000000000000000000 PUSH1 0x0 DUP3 ADD MSTORE POP JUMP JUMPDEST PUSH1 0x0 PUSH2 0x1557 PUSH1 0x9 DUP4 PUSH2 0x129C JUMP JUMPDEST SWAP2 POP PUSH2 0x1562 DUP3 PUSH2 0x1521 JUMP JUMPDEST PUSH1 0x20 DUP3 ADD SWAP1 POP SWAP2 SWAP1 POP JUMP JUMPDEST PUSH1 0x0 PUSH1 0x20 DUP3 ADD SWAP1 POP DUP2 DUP2 SUB PUSH1 0x0 DUP4 ADD MSTORE PUSH2 0x1586 DUP2 PUSH2 0x154A JUMP JUMPDEST SWAP1 POP SWAP2 SWAP1 POP JUMP JUMPDEST PUSH1 0x0 PUSH1 0x40 DUP3 ADD SWAP1 POP PUSH2 0x15A2 PUSH1 0x0 DUP4 ADD DUP6 PUSH2 0x10A2 JUMP JUMPDEST PUSH2 0x15AF PUSH1 0x20 DUP4 ADD DUP5 PUSH2 0x1125 JUMP JUMPDEST SWAP4 SWAP3 POP POP POP JUMP JUMPDEST PUSH32 0x494E56414C49445F434C41494D00000000000000000000000000000000000000 PUSH1 0x0 DUP3 ADD MSTORE POP JUMP JUMPDEST PUSH1 0x0 PUSH2 0x15EC PUSH1 0xD DUP4 PUSH2 0x129C JUMP JUMPDEST SWAP2 POP PUSH2 0x15F7 DUP3 PUSH2 0x15B6 JUMP JUMPDEST PUSH1 0x20 DUP3 ADD SWAP1 POP SWAP2 SWAP1 POP JUMP JUMPDEST PUSH1 0x0 PUSH1 0x20 DUP3 ADD SWAP1 POP DUP2 DUP2 SUB PUSH1 0x0 DUP4 ADD MSTORE PUSH2 0x161B DUP2 PUSH2 0x15DF JUMP JUMPDEST SWAP1 POP SWAP2 SWAP1 POP JUMP INVALID LOG2 PUSH5 0x6970667358 0x22 SLT KECCAK256 SWAP12 0xA7 0xAF PUSH15 0x7B2EC60045EDEFAF309DD01BA547B0 0xE4 0xBF DUP8 0xEF EXTCODESIZE 0xE8 0xAF SWAP6 SWAP16 CALL 0xE5 PUSH32 0x7564736F6C634300081300330000000000000000000000000000000000000000 "
				},
				"gasEstimates": {
					"creation": {
						"codeDepositCost": "1144000",
						"executionCost": "infinite",
						"totalCost": "infinite"
					},
					"external": {
						"": "175",
						"_CLONE_FACTORY_()": "infinite",
						"_CREATE_FEE_()": "2452",
						"_ERC20_TEMPLATE_()": "2581",
						"_NEW_OWNER_()": "2559",
						"_OWNER_()": "2579",
						"_USER_STD_REGISTRY_(address,uint256)": "infinite",
						"changeCreateFee(uint256)": "infinite",
						"claimOwnership()": "58821",
						"createStdERC20(string,string,uint256,uint8)": "infinite",
						"getTokenByUser(address)": "infinite",
						"initOwner(address)": "51291",
						"transferOwnership(address)": "30655",
						"updateStdTemplate(address)": "infinite",
						"withdraw()": "infinite"
					}
				},
				"methodIdentifiers": {
					"_CLONE_FACTORY_()": "eb774d05",
					"_CREATE_FEE_()": "21235d4a",
					"_ERC20_TEMPLATE_()": "97381760",
					"_NEW_OWNER_()": "8456db15",
					"_OWNER_()": "16048bc4",
					"_USER_STD_REGISTRY_(address,uint256)": "35c70da0",
					"changeCreateFee(uint256)": "e6acc72d",
					"claimOwnership()": "4e71e0c8",
					"createStdERC20(string,string,uint256,uint8)": "007e4011",
					"getTokenByUser(address)": "d029d521",
					"initOwner(address)": "0d009297",
					"transferOwnership(address)": "f2fde38b",
					"updateStdTemplate(address)": "28ab047f",
					"withdraw()": "3ccfd60b"
				}
			},
			"storageLayout": {
				"storage": [
					{
						"astId": 35,
						"contract": "contracts/ERC20V3SimpleFactory.sol:ERC20V3SimpleFactory",
						"label": "_OWNER_",
						"offset": 0,
						"slot": "0",
						"type": "t_address"
					},
					{
						"astId": 37,
						"contract": "contracts/ERC20V3SimpleFactory.sol:ERC20V3SimpleFactory",
						"label": "_NEW_OWNER_",
						"offset": 0,
						"slot": "1",
						"type": "t_address"
					},
					{
						"astId": 39,
						"contract": "contracts/ERC20V3SimpleFactory.sol:ERC20V3SimpleFactory",
						"label": "_INITIALIZED_",
						"offset": 20,
						"slot": "1",
						"type": "t_bool"
					},
					{
						"astId": 156,
						"contract": "contracts/ERC20V3SimpleFactory.sol:ERC20V3SimpleFactory",
						"label": "_ERC20_TEMPLATE_",
						"offset": 0,
						"slot": "2",
						"type": "t_address"
					},
					{
						"astId": 158,
						"contract": "contracts/ERC20V3SimpleFactory.sol:ERC20V3SimpleFactory",
						"label": "_CREATE_FEE_",
						"offset": 0,
						"slot": "3",
						"type": "t_uint256"
					},
					{
						"astId": 185,
						"contract": "contracts/ERC20V3SimpleFactory.sol:ERC20V3SimpleFactory",
						"label": "_USER_STD_REGISTRY_",
						"offset": 0,
						"slot": "4",
						"type": "t_mapping(t_address,t_array(t_address)dyn_storage)"
					}
				],
				"types": {
					"t_address": {
						"encoding": "inplace",
						"label": "address",
						"numberOfBytes": "20"
					},
					"t_array(t_address)dyn_storage": {
						"base": "t_address",
						"encoding": "dynamic_array",
						"label": "address[]",
						"numberOfBytes": "32"
					},
					"t_bool": {
						"encoding": "inplace",
						"label": "bool",
						"numberOfBytes": "1"
					},
					"t_mapping(t_address,t_array(t_address)dyn_storage)": {
						"encoding": "mapping",
						"key": "t_address",
						"label": "mapping(address => address[])",
						"numberOfBytes": "32",
						"value": "t_array(t_address)dyn_storage"
					},
					"t_uint256": {
						"encoding": "inplace",
						"label": "uint256",
						"numberOfBytes": "32"
					}
				}
			},
			"userdoc": {
				"kind": "user",
				"methods": {},
				"notice": "Help user to create erc20 token",
				"version": 1
			}
		}
	}
}