{
	"contracts/DODOMine.sol": {
		"DODOMine": {
			"abi": [
				{
					"inputs": [
						{
							"internalType": "address",
							"name": "_dodoToken",
							"type": "address"
						},
						{
							"internalType": "uint256",
							"name": "_startBlock",
							"type": "uint256"
						}
					],
					"stateMutability": "nonpayable",
					"type": "constructor"
				},
				{
					"anonymous": false,
					"inputs": [
						{
							"indexed": true,
							"internalType": "address",
							"name": "user",
							"type": "address"
						},
						{
							"indexed": false,
							"internalType": "uint256",
							"name": "amount",
							"type": "uint256"
						}
					],
					"name": "Claim",
					"type": "event"
				},
				{
					"anonymous": false,
					"inputs": [
						{
							"indexed": true,
							"internalType": "address",
							"name": "user",
							"type": "address"
						},
						{
							"indexed": true,
							"internalType": "uint256",
							"name": "pid",
							"type": "uint256"
						},
						{
							"indexed": false,
							"internalType": "uint256",
							"name": "amount",
							"type": "uint256"
						}
					],
					"name": "Deposit",
					"type": "event"
				},
				{
					"anonymous": false,
					"inputs": [
						{
							"indexed": true,
							"internalType": "address",
							"name": "previousOwner",
							"type": "address"
						},
						{
							"indexed": true,
							"internalType": "address",
							"name": "newOwner",
							"type": "address"
						}
					],
					"name": "OwnershipTransferPrepared",
					"type": "event"
				},
				{
					"anonymous": false,
					"inputs": [
						{
							"indexed": true,
							"internalType": "address",
							"name": "previousOwner",
							"type": "address"
						},
						{
							"indexed": true,
							"internalType": "address",
							"name": "newOwner",
							"type": "address"
						}
					],
					"name": "OwnershipTransferred",
					"type": "event"
				},
				{
					"anonymous": false,
					"inputs": [
						{
							"indexed": true,
							"internalType": "address",
							"name": "user",
							"type": "address"
						},
						{
							"indexed": true,
							"internalType": "uint256",
							"name": "pid",
							"type": "uint256"
						},
						{
							"indexed": false,
							"internalType": "uint256",
							"name": "amount",
							"type": "uint256"
						}
					],
					"name": "Withdraw",
					"type": "event"
				},
				{
					"inputs": [],
					"name": "_NEW_OWNER_",
					"outputs": [
						{
							"internalType": "address",
							"name": "",
							"type": "address"
						}
					],
					"stateMutability": "view",
					"type": "function"
				},
				{
					"inputs": [],
					"name": "_OWNER_",
					"outputs": [
						{
							"internalType": "address",
							"name": "",
							"type": "address"
						}
					],
					"stateMutability": "view",
					"type": "function"
				},
				{
					"inputs": [
						{
							"internalType": "address",
							"name": "_lpToken",
							"type": "address"
						},
						{
							"internalType": "uint256",
							"name": "_allocPoint",
							"type": "uint256"
						},
						{
							"internalType": "bool",
							"name": "_withUpdate",
							"type": "bool"
						}
					],
					"name": "addLpToken",
					"outputs": [],
					"stateMutability": "nonpayable",
					"type": "function"
				},
				{
					"inputs": [
						{
							"internalType": "address",
							"name": "_lpToken",
							"type": "address"
						}
					],
					"name": "claim",
					"outputs": [],
					"stateMutability": "nonpayable",
					"type": "function"
				},
				{
					"inputs": [],
					"name": "claimAll",
					"outputs": [],
					"stateMutability": "nonpayable",
					"type": "function"
				},
				{
					"inputs": [],
					"name": "claimOwnership",
					"outputs": [],
					"stateMutability": "nonpayable",
					"type": "function"
				},
				{
					"inputs": [
						{
							"internalType": "address",
							"name": "_lpToken",
							"type": "address"
						},
						{
							"internalType": "uint256",
							"name": "_amount",
							"type": "uint256"
						}
					],
					"name": "deposit",
					"outputs": [],
					"stateMutability": "nonpayable",
					"type": "function"
				},
				{
					"inputs": [],
					"name": "dodoPerBlock",
					"outputs": [
						{
							"internalType": "uint256",
							"name": "",
							"type": "uint256"
						}
					],
					"stateMutability": "view",
					"type": "function"
				},
				{
					"inputs": [],
					"name": "dodoRewardVault",
					"outputs": [
						{
							"internalType": "address",
							"name": "",
							"type": "address"
						}
					],
					"stateMutability": "view",
					"type": "function"
				},
				{
					"inputs": [
						{
							"internalType": "address",
							"name": "_lpToken",
							"type": "address"
						}
					],
					"name": "emergencyWithdraw",
					"outputs": [],
					"stateMutability": "nonpayable",
					"type": "function"
				},
				{
					"inputs": [
						{
							"internalType": "address",
							"name": "_user",
							"type": "address"
						}
					],
					"name": "getAllPendingReward",
					"outputs": [
						{
							"internalType": "uint256",
							"name": "",
							"type": "uint256"
						}
					],
					"stateMutability": "view",
					"type": "function"
				},
				{
					"inputs": [
						{
							"internalType": "address",
							"name": "_lpToken",
							"type": "address"
						}
					],
					"name": "getDlpMiningSpeed",
					"outputs": [
						{
							"internalType": "uint256",
							"name": "",
							"type": "uint256"
						}
					],
					"stateMutability": "view",
					"type": "function"
				},
				{
					"inputs": [
						{
							"internalType": "address",
							"name": "_lpToken",
							"type": "address"
						},
						{
							"internalType": "address",
							"name": "_user",
							"type": "address"
						}
					],
					"name": "getPendingReward",
					"outputs": [
						{
							"internalType": "uint256",
							"name": "",
							"type": "uint256"
						}
					],
					"stateMutability": "view",
					"type": "function"
				},
				{
					"inputs": [
						{
							"internalType": "address",
							"name": "_lpToken",
							"type": "address"
						}
					],
					"name": "getPid",
					"outputs": [
						{
							"internalType": "uint256",
							"name": "",
							"type": "uint256"
						}
					],
					"stateMutability": "view",
					"type": "function"
				},
				{
					"inputs": [
						{
							"internalType": "address",
							"name": "_user",
							"type": "address"
						}
					],
					"name": "getRealizedReward",
					"outputs": [
						{
							"internalType": "uint256",
							"name": "",
							"type": "uint256"
						}
					],
					"stateMutability": "view",
					"type": "function"
				},
				{
					"inputs": [
						{
							"internalType": "address",
							"name": "_lpToken",
							"type": "address"
						},
						{
							"internalType": "address",
							"name": "_user",
							"type": "address"
						}
					],
					"name": "getUserLpBalance",
					"outputs": [
						{
							"internalType": "uint256",
							"name": "",
							"type": "uint256"
						}
					],
					"stateMutability": "view",
					"type": "function"
				},
				{
					"inputs": [
						{
							"internalType": "address",
							"name": "",
							"type": "address"
						}
					],
					"name": "lpTokenRegistry",
					"outputs": [
						{
							"internalType": "uint256",
							"name": "",
							"type": "uint256"
						}
					],
					"stateMutability": "view",
					"type": "function"
				},
				{
					"inputs": [],
					"name": "massUpdatePools",
					"outputs": [],
					"stateMutability": "nonpayable",
					"type": "function"
				},
				{
					"inputs": [
						{
							"internalType": "uint256",
							"name": "",
							"type": "uint256"
						}
					],
					"name": "poolInfos",
					"outputs": [
						{
							"internalType": "address",
							"name": "lpToken",
							"type": "address"
						},
						{
							"internalType": "uint256",
							"name": "allocPoint",
							"type": "uint256"
						},
						{
							"internalType": "uint256",
							"name": "lastRewardBlock",
							"type": "uint256"
						},
						{
							"internalType": "uint256",
							"name": "accDODOPerShare",
							"type": "uint256"
						}
					],
					"stateMutability": "view",
					"type": "function"
				},
				{
					"inputs": [],
					"name": "poolLength",
					"outputs": [
						{
							"internalType": "uint256",
							"name": "",
							"type": "uint256"
						}
					],
					"stateMutability": "view",
					"type": "function"
				},
				{
					"inputs": [
						{
							"internalType": "address",
							"name": "",
							"type": "address"
						}
					],
					"name": "realizedReward",
					"outputs": [
						{
							"internalType": "uint256",
							"name": "",
							"type": "uint256"
						}
					],
					"stateMutability": "view",
					"type": "function"
				},
				{
					"inputs": [
						{
							"internalType": "address",
							"name": "_lpToken",
							"type": "address"
						},
						{
							"internalType": "uint256",
							"name": "_allocPoint",
							"type": "uint256"
						},
						{
							"internalType": "bool",
							"name": "_withUpdate",
							"type": "bool"
						}
					],
					"name": "setLpToken",
					"outputs": [],
					"stateMutability": "nonpayable",
					"type": "function"
				},
				{
					"inputs": [
						{
							"internalType": "uint256",
							"name": "_dodoPerBlock",
							"type": "uint256"
						},
						{
							"internalType": "bool",
							"name": "_withUpdate",
							"type": "bool"
						}
					],
					"name": "setReward",
					"outputs": [],
					"stateMutability": "nonpayable",
					"type": "function"
				},
				{
					"inputs": [],
					"name": "startBlock",
					"outputs": [
						{
							"internalType": "uint256",
							"name": "",
							"type": "uint256"
						}
					],
					"stateMutability": "view",
					"type": "function"
				},
				{
					"inputs": [],
					"name": "totalAllocPoint",
					"outputs": [
						{
							"internalType": "uint256",
							"name": "",
							"type": "uint256"
						}
					],
					"stateMutability": "view",
					"type": "function"
				},
				{
					"inputs": [
						{
							"internalType": "address",
							"name": "newOwner",
							"type": "address"
						}
					],
					"name": "transferOwnership",
					"outputs": [],
					"stateMutability": "nonpayable",
					"type": "function"
				},
				{
					"inputs": [
						{
							"internalType": "uint256",
							"name": "_pid",
							"type": "uint256"
						}
					],
					"name": "updatePool",
					"outputs": [],
					"stateMutability": "nonpayable",
					"type": "function"
				},
				{
					"inputs": [
						{
							"internalType": "uint256",
							"name": "",
							"type": "uint256"
						},
						{
							"internalType": "address",
							"name": "",
							"type": "address"
						}
					],
					"name": "userInfo",
					"outputs": [
						{
							"internalType": "uint256",
							"name": "amount",
							"type": "uint256"
						},
						{
							"internalType": "uint256",
							"name": "rewardDebt",
							"type": "uint256"
						}
					],
					"stateMutability": "view",
					"type": "function"
				},
				{
					"inputs": [
						{
							"internalType": "address",
							"name": "_lpToken",
							"type": "address"
						},
						{
							"internalType": "uint256",
							"name": "_amount",
							"type": "uint256"
						}
					],
					"name": "withdraw",
					"outputs": [],
					"stateMutability": "nonpayable",
					"type": "function"
				},
				{
					"inputs": [
						{
							"internalType": "address",
							"name": "_lpToken",
							"type": "address"
						}
					],
					"name": "withdrawAll",
					"outputs": [],
					"stateMutability": "nonpayable",
					"type": "function"
				}
			],
			"devdoc": {
				"kind": "dev",
				"methods": {},
				"version": 1
			},
			"evm": {
				"assembly": "    /* \"contracts/DODOMine.sol\":10312:22339  contract DODOMine is Ownable {... */\n  mstore(0x40, 0x80)\n    /* \"contracts/DODOMine.sol\":12141:12142  0 */\n  0x00\n    /* \"contracts/DODOMine.sol\":12108:12142  uint256 public totalAllocPoint = 0 */\n  0x08\n  sstore\n    /* \"contracts/DODOMine.sol\":12520:12685  constructor(address _dodoToken, uint256 _startBlock) {... */\n  callvalue\n  dup1\n  iszero\n  tag_1\n  jumpi\n  0x00\n  dup1\n  revert\ntag_1:\n  pop\n  mload(0x40)\n  sub(codesize, bytecodeSize)\n  dup1\n  bytecodeSize\n  dup4\n  codecopy\n  dup2\n  dup2\n  add\n  0x40\n  mstore\n  dup2\n  add\n  swap1\n  tag_2\n  swap2\n  swap1\n  tag_3\n  jump\t// in\ntag_2:\n    /* \"contracts/DODOMine.sol\":974:984  msg.sender */\n  caller\n    /* \"contracts/DODOMine.sol\":964:971  _OWNER_ */\n  0x00\n  dup1\n    /* \"contracts/DODOMine.sol\":964:984  _OWNER_ = msg.sender */\n  0x0100\n  exp\n  dup2\n  sload\n  dup2\n  0xffffffffffffffffffffffffffffffffffffffff\n  mul\n  not\n  and\n  swap1\n  dup4\n  0xffffffffffffffffffffffffffffffffffffffff\n  and\n  mul\n  or\n  swap1\n  sstore\n  pop\n    /* \"contracts/DODOMine.sol\":1033:1040  _OWNER_ */\n  0x00\n  dup1\n  sload\n  swap1\n  0x0100\n  exp\n  swap1\n  div\n  0xffffffffffffffffffffffffffffffffffffffff\n  and\n    /* \"contracts/DODOMine.sol\":1000:1041  OwnershipTransferred(address(0), _OWNER_) */\n  0xffffffffffffffffffffffffffffffffffffffff\n  and\n    /* \"contracts/DODOMine.sol\":1029:1030  0 */\n  0x00\n    /* \"contracts/DODOMine.sol\":1000:1041  OwnershipTransferred(address(0), _OWNER_) */\n  0xffffffffffffffffffffffffffffffffffffffff\n  and\n  0x8be0079c531659141344cd1fd0a4f28419497f9722a3daafe3b4186f6b6457e0\n  mload(0x40)\n  mload(0x40)\n  dup1\n  swap2\n  sub\n  swap1\n  log3\n    /* \"contracts/DODOMine.sol\":12630:12640  _dodoToken */\n  dup2\n    /* \"contracts/DODOMine.sol\":12610:12641  new DODORewardVault(_dodoToken) */\n  mload(0x40)\n  tag_8\n  swap1\n  tag_9\n  jump\t// in\ntag_8:\n  tag_10\n  swap2\n  swap1\n  tag_11\n  jump\t// in\ntag_10:\n  mload(0x40)\n  dup1\n  swap2\n  sub\n  swap1\n  0x00\n  create\n  dup1\n  iszero\n  dup1\n  iszero\n  tag_12\n  jumpi\n  returndatasize\n  0x00\n  dup1\n  returndatacopy\n  revert(0x00, returndatasize)\ntag_12:\n  pop\n    /* \"contracts/DODOMine.sol\":12584:12599  dodoRewardVault */\n  0x02\n  0x00\n    /* \"contracts/DODOMine.sol\":12584:12642  dodoRewardVault = address(new DODORewardVault(_dodoToken)) */\n  0x0100\n  exp\n  dup2\n  sload\n  dup2\n  0xffffffffffffffffffffffffffffffffffffffff\n  mul\n  not\n  and\n  swap1\n  dup4\n  0xffffffffffffffffffffffffffffffffffffffff\n  and\n  mul\n  or\n  swap1\n  sstore\n  pop\n    /* \"contracts/DODOMine.sol\":12666:12677  _startBlock */\n  dup1\n    /* \"contracts/DODOMine.sol\":12653:12663  startBlock */\n  0x09\n    /* \"contracts/DODOMine.sol\":12653:12677  startBlock = _startBlock */\n  dup2\n  swap1\n  sstore\n  pop\n    /* \"contracts/DODOMine.sol\":12520:12685  constructor(address _dodoToken, uint256 _startBlock) {... */\n  pop\n  pop\n    /* \"contracts/DODOMine.sol\":10312:22339  contract DODOMine is Ownable {... */\n  jump(tag_13)\ntag_9:\n  dataSize(sub_1)\n  dup1\n  dataOffset(sub_1)\n  dup4\n  codecopy\n  add\n  swap1\n  jump\t// out\n    /* \"#utility.yul\":88:205   */\ntag_15:\n    /* \"#utility.yul\":197:198   */\n  0x00\n    /* \"#utility.yul\":194:195   */\n  dup1\n    /* \"#utility.yul\":187:199   */\n  revert\n    /* \"#utility.yul\":334:460   */\ntag_17:\n    /* \"#utility.yul\":371:378   */\n  0x00\n    /* \"#utility.yul\":411:453   */\n  0xffffffffffffffffffffffffffffffffffffffff\n    /* \"#utility.yul\":404:409   */\n  dup3\n    /* \"#utility.yul\":400:454   */\n  and\n    /* \"#utility.yul\":389:454   */\n  swap1\n  pop\n    /* \"#utility.yul\":334:460   */\n  swap2\n  swap1\n  pop\n  jump\t// out\n    /* \"#utility.yul\":466:562   */\ntag_18:\n    /* \"#utility.yul\":503:510   */\n  0x00\n    /* \"#utility.yul\":532:556   */\n  tag_31\n    /* \"#utility.yul\":550:555   */\n  dup3\n    /* \"#utility.yul\":532:556   */\n  tag_17\n  jump\t// in\ntag_31:\n    /* \"#utility.yul\":521:556   */\n  swap1\n  pop\n    /* \"#utility.yul\":466:562   */\n  swap2\n  swap1\n  pop\n  jump\t// out\n    /* \"#utility.yul\":568:690   */\ntag_19:\n    /* \"#utility.yul\":641:665   */\n  tag_33\n    /* \"#utility.yul\":659:664   */\n  dup2\n    /* \"#utility.yul\":641:665   */\n  tag_18\n  jump\t// in\ntag_33:\n    /* \"#utility.yul\":634:639   */\n  dup2\n    /* \"#utility.yul\":631:666   */\n  eq\n    /* \"#utility.yul\":621:684   */\n  tag_34\n  jumpi\n    /* \"#utility.yul\":680:681   */\n  0x00\n    /* \"#utility.yul\":677:678   */\n  dup1\n    /* \"#utility.yul\":670:682   */\n  revert\n    /* \"#utility.yul\":621:684   */\ntag_34:\n    /* \"#utility.yul\":568:690   */\n  pop\n  jump\t// out\n    /* \"#utility.yul\":696:839   */\ntag_20:\n    /* \"#utility.yul\":753:758   */\n  0x00\n    /* \"#utility.yul\":784:790   */\n  dup2\n    /* \"#utility.yul\":778:791   */\n  mload\n    /* \"#utility.yul\":769:791   */\n  swap1\n  pop\n    /* \"#utility.yul\":800:833   */\n  tag_36\n    /* \"#utility.yul\":827:832   */\n  dup2\n    /* \"#utility.yul\":800:833   */\n  tag_19\n  jump\t// in\ntag_36:\n    /* \"#utility.yul\":696:839   */\n  swap3\n  swap2\n  pop\n  pop\n  jump\t// out\n    /* \"#utility.yul\":845:922   */\ntag_21:\n    /* \"#utility.yul\":882:889   */\n  0x00\n    /* \"#utility.yul\":911:916   */\n  dup2\n    /* \"#utility.yul\":900:916   */\n  swap1\n  pop\n    /* \"#utility.yul\":845:922   */\n  swap2\n  swap1\n  pop\n  jump\t// out\n    /* \"#utility.yul\":928:1050   */\ntag_22:\n    /* \"#utility.yul\":1001:1025   */\n  tag_39\n    /* \"#utility.yul\":1019:1024   */\n  dup2\n    /* \"#utility.yul\":1001:1025   */\n  tag_21\n  jump\t// in\ntag_39:\n    /* \"#utility.yul\":994:999   */\n  dup2\n    /* \"#utility.yul\":991:1026   */\n  eq\n    /* \"#utility.yul\":981:1044   */\n  tag_40\n  jumpi\n    /* \"#utility.yul\":1040:1041   */\n  0x00\n    /* \"#utility.yul\":1037:1038   */\n  dup1\n    /* \"#utility.yul\":1030:1042   */\n  revert\n    /* \"#utility.yul\":981:1044   */\ntag_40:\n    /* \"#utility.yul\":928:1050   */\n  pop\n  jump\t// out\n    /* \"#utility.yul\":1056:1199   */\ntag_23:\n    /* \"#utility.yul\":1113:1118   */\n  0x00\n    /* \"#utility.yul\":1144:1150   */\n  dup2\n    /* \"#utility.yul\":1138:1151   */\n  mload\n    /* \"#utility.yul\":1129:1151   */\n  swap1\n  pop\n    /* \"#utility.yul\":1160:1193   */\n  tag_42\n    /* \"#utility.yul\":1187:1192   */\n  dup2\n    /* \"#utility.yul\":1160:1193   */\n  tag_22\n  jump\t// in\ntag_42:\n    /* \"#utility.yul\":1056:1199   */\n  swap3\n  swap2\n  pop\n  pop\n  jump\t// out\n    /* \"#utility.yul\":1205:1712   */\ntag_3:\n    /* \"#utility.yul\":1284:1290   */\n  0x00\n    /* \"#utility.yul\":1292:1298   */\n  dup1\n    /* \"#utility.yul\":1341:1343   */\n  0x40\n    /* \"#utility.yul\":1329:1338   */\n  dup4\n    /* \"#utility.yul\":1320:1327   */\n  dup6\n    /* \"#utility.yul\":1316:1339   */\n  sub\n    /* \"#utility.yul\":1312:1344   */\n  slt\n    /* \"#utility.yul\":1309:1428   */\n  iszero\n  tag_44\n  jumpi\n    /* \"#utility.yul\":1347:1426   */\n  tag_45\n  tag_15\n  jump\t// in\ntag_45:\n    /* \"#utility.yul\":1309:1428   */\ntag_44:\n    /* \"#utility.yul\":1467:1468   */\n  0x00\n    /* \"#utility.yul\":1492:1556   */\n  tag_46\n    /* \"#utility.yul\":1548:1555   */\n  dup6\n    /* \"#utility.yul\":1539:1545   */\n  dup3\n    /* \"#utility.yul\":1528:1537   */\n  dup7\n    /* \"#utility.yul\":1524:1546   */\n  add\n    /* \"#utility.yul\":1492:1556   */\n  tag_20\n  jump\t// in\ntag_46:\n    /* \"#utility.yul\":1482:1556   */\n  swap3\n  pop\n    /* \"#utility.yul\":1438:1566   */\n  pop\n    /* \"#utility.yul\":1605:1607   */\n  0x20\n    /* \"#utility.yul\":1631:1695   */\n  tag_47\n    /* \"#utility.yul\":1687:1694   */\n  dup6\n    /* \"#utility.yul\":1678:1684   */\n  dup3\n    /* \"#utility.yul\":1667:1676   */\n  dup7\n    /* \"#utility.yul\":1663:1685   */\n  add\n    /* \"#utility.yul\":1631:1695   */\n  tag_23\n  jump\t// in\ntag_47:\n    /* \"#utility.yul\":1621:1695   */\n  swap2\n  pop\n    /* \"#utility.yul\":1576:1705   */\n  pop\n    /* \"#utility.yul\":1205:1712   */\n  swap3\n  pop\n  swap3\n  swap1\n  pop\n  jump\t// out\n    /* \"#utility.yul\":1718:1836   */\ntag_24:\n    /* \"#utility.yul\":1805:1829   */\n  tag_49\n    /* \"#utility.yul\":1823:1828   */\n  dup2\n    /* \"#utility.yul\":1805:1829   */\n  tag_18\n  jump\t// in\ntag_49:\n    /* \"#utility.yul\":1800:1803   */\n  dup3\n    /* \"#utility.yul\":1793:1830   */\n  mstore\n    /* \"#utility.yul\":1718:1836   */\n  pop\n  pop\n  jump\t// out\n    /* \"#utility.yul\":1842:2064   */\ntag_11:\n    /* \"#utility.yul\":1935:1939   */\n  0x00\n    /* \"#utility.yul\":1973:1975   */\n  0x20\n    /* \"#utility.yul\":1962:1971   */\n  dup3\n    /* \"#utility.yul\":1958:1976   */\n  add\n    /* \"#utility.yul\":1950:1976   */\n  swap1\n  pop\n    /* \"#utility.yul\":1986:2057   */\n  tag_51\n    /* \"#utility.yul\":2054:2055   */\n  0x00\n    /* \"#utility.yul\":2043:2052   */\n  dup4\n    /* \"#utility.yul\":2039:2056   */\n  add\n    /* \"#utility.yul\":2030:2036   */\n  dup5\n    /* \"#utility.yul\":1986:2057   */\n  tag_24\n  jump\t// in\ntag_51:\n    /* \"#utility.yul\":1842:2064   */\n  swap3\n  swap2\n  pop\n  pop\n  jump\t// out\n    /* \"contracts/DODOMine.sol\":10312:22339  contract DODOMine is Ownable {... */\ntag_13:\n  dataSize(sub_0)\n  dup1\n  dataOffset(sub_0)\n  0x00\n  codecopy\n  0x00\n  return\nstop\n\nsub_0: assembly {\n        /* \"contracts/DODOMine.sol\":10312:22339  contract DODOMine is Ownable {... */\n      mstore(0x40, 0x80)\n      callvalue\n      dup1\n      iszero\n      tag_1\n      jumpi\n      0x00\n      dup1\n      revert\n    tag_1:\n      pop\n      jumpi(tag_2, lt(calldatasize, 0x04))\n      shr(0xe0, calldataload(0x00))\n      dup1\n      0x6ff1c9bc\n      gt\n      tag_33\n      jumpi\n      dup1\n      0xd1058e59\n      gt\n      tag_34\n      jumpi\n      dup1\n      0xf3fef3a3\n      gt\n      tag_35\n      jumpi\n      dup1\n      0xf3fef3a3\n      eq\n      tag_29\n      jumpi\n      dup1\n      0xfa09e630\n      eq\n      tag_30\n      jumpi\n      dup1\n      0xfb7276f4\n      eq\n      tag_31\n      jumpi\n      dup1\n      0xfe0f3a13\n      eq\n      tag_32\n      jumpi\n      jump(tag_2)\n    tag_35:\n      dup1\n      0xd1058e59\n      eq\n      tag_25\n      jumpi\n      dup1\n      0xec83a76a\n      eq\n      tag_26\n      jumpi\n      dup1\n      0xf146b809\n      eq\n      tag_27\n      jumpi\n      dup1\n      0xf2fde38b\n      eq\n      tag_28\n      jumpi\n      jump(tag_2)\n    tag_34:\n      dup1\n      0x8af70336\n      gt\n      tag_36\n      jumpi\n      dup1\n      0x8af70336\n      eq\n      tag_21\n      jumpi\n      dup1\n      0x93f1a40b\n      eq\n      tag_22\n      jumpi\n      dup1\n      0x9599af13\n      eq\n      tag_23\n      jumpi\n      dup1\n      0xbea006e0\n      eq\n      tag_24\n      jumpi\n      jump(tag_2)\n    tag_36:\n      dup1\n      0x6ff1c9bc\n      eq\n      tag_18\n      jumpi\n      dup1\n      0x7f10179f\n      eq\n      tag_19\n      jumpi\n      dup1\n      0x8456db15\n      eq\n      tag_20\n      jumpi\n      jump(tag_2)\n    tag_33:\n      dup1\n      0x43b55f35\n      gt\n      tag_37\n      jumpi\n      dup1\n      0x51eb05a6\n      gt\n      tag_38\n      jumpi\n      dup1\n      0x51eb05a6\n      eq\n      tag_14\n      jumpi\n      dup1\n      0x630b5ba1\n      eq\n      tag_15\n      jumpi\n      dup1\n      0x689d84e4\n      eq\n      tag_16\n      jumpi\n      dup1\n      0x6dc2cc8c\n      eq\n      tag_17\n      jumpi\n      jump(tag_2)\n    tag_38:\n      dup1\n      0x43b55f35\n      eq\n      tag_10\n      jumpi\n      dup1\n      0x47e7ef24\n      eq\n      tag_11\n      jumpi\n      dup1\n      0x48cd4cb1\n      eq\n      tag_12\n      jumpi\n      dup1\n      0x4e71e0c8\n      eq\n      tag_13\n      jumpi\n      jump(tag_2)\n    tag_37:\n      dup1\n      0x19a78f55\n      gt\n      tag_39\n      jumpi\n      dup1\n      0x19a78f55\n      eq\n      tag_6\n      jumpi\n      dup1\n      0x1e83409a\n      eq\n      tag_7\n      jumpi\n      dup1\n      0x34ea5389\n      eq\n      tag_8\n      jumpi\n      dup1\n      0x3d16433e\n      eq\n      tag_9\n      jumpi\n      jump(tag_2)\n    tag_39:\n      dup1\n      0x081e3eda\n      eq\n      tag_3\n      jumpi\n      dup1\n      0x16048bc4\n      eq\n      tag_4\n      jumpi\n      dup1\n      0x17caf6f1\n      eq\n      tag_5\n      jumpi\n    tag_2:\n      0x00\n      dup1\n      revert\n        /* \"contracts/DODOMine.sol\":13064:13160  function poolLength() external view returns (uint256) {... */\n    tag_3:\n      tag_40\n      tag_41\n      jump\t// in\n    tag_40:\n      mload(0x40)\n      tag_42\n      swap2\n      swap1\n      tag_43\n      jump\t// in\n    tag_42:\n      mload(0x40)\n      dup1\n      swap2\n      sub\n      swap1\n      return\n        /* \"contracts/DODOMine.sol\":415:437  address public _OWNER_ */\n    tag_4:\n      tag_44\n      tag_45\n      jump\t// in\n    tag_44:\n      mload(0x40)\n      tag_46\n      swap2\n      swap1\n      tag_47\n      jump\t// in\n    tag_46:\n      mload(0x40)\n      dup1\n      swap2\n      sub\n      swap1\n      return\n        /* \"contracts/DODOMine.sol\":12108:12142  uint256 public totalAllocPoint = 0 */\n    tag_5:\n      tag_48\n      tag_49\n      jump\t// in\n    tag_48:\n      mload(0x40)\n      tag_50\n      swap2\n      swap1\n      tag_43\n      jump\t// in\n    tag_50:\n      mload(0x40)\n      dup1\n      swap2\n      sub\n      swap1\n      return\n        /* \"contracts/DODOMine.sol\":13318:13501  function getUserLpBalance(address _lpToken, address _user) public view returns (uint256) {... */\n    tag_6:\n      tag_51\n      0x04\n      dup1\n      calldatasize\n      sub\n      dup2\n      add\n      swap1\n      tag_52\n      swap2\n      swap1\n      tag_53\n      jump\t// in\n    tag_52:\n      tag_54\n      jump\t// in\n    tag_51:\n      mload(0x40)\n      tag_55\n      swap2\n      swap1\n      tag_43\n      jump\t// in\n    tag_55:\n      mload(0x40)\n      dup1\n      swap2\n      sub\n      swap1\n      return\n        /* \"contracts/DODOMine.sol\":20654:21237  function claim(address _lpToken) public {... */\n    tag_7:\n      tag_56\n      0x04\n      dup1\n      calldatasize\n      sub\n      dup2\n      add\n      swap1\n      tag_57\n      swap2\n      swap1\n      tag_58\n      jump\t// in\n    tag_57:\n      tag_59\n      jump\t// in\n    tag_56:\n      stop\n        /* \"contracts/DODOMine.sol\":14242:14632  function setLpToken(... */\n    tag_8:\n      tag_60\n      0x04\n      dup1\n      calldatasize\n      sub\n      dup2\n      add\n      swap1\n      tag_61\n      swap2\n      swap1\n      tag_62\n      jump\t// in\n    tag_61:\n      tag_63\n      jump\t// in\n    tag_60:\n      stop\n        /* \"contracts/DODOMine.sol\":11783:11833  mapping(address => uint256) public lpTokenRegistry */\n    tag_9:\n      tag_64\n      0x04\n      dup1\n      calldatasize\n      sub\n      dup2\n      add\n      swap1\n      tag_65\n      swap2\n      swap1\n      tag_58\n      jump\t// in\n    tag_65:\n      tag_66\n      jump\t// in\n    tag_64:\n      mload(0x40)\n      tag_67\n      swap2\n      swap1\n      tag_43\n      jump\t// in\n    tag_67:\n      mload(0x40)\n      dup1\n      swap2\n      sub\n      swap1\n      return\n        /* \"contracts/DODOMine.sol\":13168:13310  function getPid(address _lpToken) public view lpTokenExist(_lpToken) returns (uint256) {... */\n    tag_10:\n      tag_68\n      0x04\n      dup1\n      calldatasize\n      sub\n      dup2\n      add\n      swap1\n      tag_69\n      swap2\n      swap1\n      tag_58\n      jump\t// in\n    tag_69:\n      tag_70\n      jump\t// in\n    tag_68:\n      mload(0x40)\n      tag_71\n      swap2\n      swap1\n      tag_43\n      jump\t// in\n    tag_71:\n      mload(0x40)\n      dup1\n      swap2\n      sub\n      swap1\n      return\n        /* \"contracts/DODOMine.sol\":18605:19349  function deposit(address _lpToken, uint256 _amount) public {... */\n    tag_11:\n      tag_72\n      0x04\n      dup1\n      calldatasize\n      sub\n      dup2\n      add\n      swap1\n      tag_73\n      swap2\n      swap1\n      tag_74\n      jump\t// in\n    tag_73:\n      tag_75\n      jump\t// in\n    tag_72:\n      stop\n        /* \"contracts/DODOMine.sol\":12199:12224  uint256 public startBlock */\n    tag_12:\n      tag_76\n      tag_77\n      jump\t// in\n    tag_76:\n      mload(0x40)\n      tag_78\n      swap2\n      swap1\n      tag_43\n      jump\t// in\n    tag_78:\n      mload(0x40)\n      dup1\n      swap2\n      sub\n      swap1\n      return\n        /* \"contracts/DODOMine.sol\":1289:1519  function claimOwnership() external {... */\n    tag_13:\n      tag_79\n      tag_80\n      jump\t// in\n    tag_79:\n      stop\n        /* \"contracts/DODOMine.sol\":17764:18483  function updatePool(uint256 _pid) public {... */\n    tag_14:\n      tag_81\n      0x04\n      dup1\n      calldatasize\n      sub\n      dup2\n      add\n      swap1\n      tag_82\n      swap2\n      swap1\n      tag_83\n      jump\t// in\n    tag_82:\n      tag_84\n      jump\t// in\n    tag_81:\n      stop\n        /* \"contracts/DODOMine.sol\":17507:17688  function massUpdatePools() public {... */\n    tag_15:\n      tag_85\n      tag_86\n      jump\t// in\n    tag_85:\n      stop\n        /* \"contracts/DODOMine.sol\":11749:11776  PoolInfo[] public poolInfos */\n    tag_16:\n      tag_87\n      0x04\n      dup1\n      calldatasize\n      sub\n      dup2\n      add\n      swap1\n      tag_88\n      swap2\n      swap1\n      tag_83\n      jump\t// in\n    tag_88:\n      tag_89\n      jump\t// in\n    tag_87:\n      mload(0x40)\n      tag_90\n      swap5\n      swap4\n      swap3\n      swap2\n      swap1\n      tag_91\n      jump\t// in\n    tag_90:\n      mload(0x40)\n      dup1\n      swap2\n      sub\n      swap1\n      return\n        /* \"contracts/DODOMine.sol\":16999:17120  function getRealizedReward(address _user) external view returns (uint256) {... */\n    tag_17:\n      tag_92\n      0x04\n      dup1\n      calldatasize\n      sub\n      dup2\n      add\n      swap1\n      tag_93\n      swap2\n      swap1\n      tag_58\n      jump\t// in\n    tag_93:\n      tag_94\n      jump\t// in\n    tag_92:\n      mload(0x40)\n      tag_95\n      swap2\n      swap1\n      tag_43\n      jump\t// in\n    tag_95:\n      mload(0x40)\n      dup1\n      swap2\n      sub\n      swap1\n      return\n        /* \"contracts/DODOMine.sol\":20302:20646  function emergencyWithdraw(address _lpToken) public {... */\n    tag_18:\n      tag_96\n      0x04\n      dup1\n      calldatasize\n      sub\n      dup2\n      add\n      swap1\n      tag_97\n      swap2\n      swap1\n      tag_58\n      jump\t// in\n    tag_97:\n      tag_98\n      jump\t// in\n    tag_96:\n      stop\n        /* \"contracts/DODOMine.sol\":14640:14837  function setReward(uint256 _dodoPerBlock, bool _withUpdate) external onlyOwner {... */\n    tag_19:\n      tag_99\n      0x04\n      dup1\n      calldatasize\n      sub\n      dup2\n      add\n      swap1\n      tag_100\n      swap2\n      swap1\n      tag_101\n      jump\t// in\n    tag_100:\n      tag_102\n      jump\t// in\n    tag_99:\n      stop\n        /* \"contracts/DODOMine.sol\":444:470  address public _NEW_OWNER_ */\n    tag_20:\n      tag_103\n      tag_104\n      jump\t// in\n    tag_103:\n      mload(0x40)\n      tag_105\n      swap2\n      swap1\n      tag_47\n      jump\t// in\n    tag_105:\n      mload(0x40)\n      dup1\n      swap2\n      sub\n      swap1\n      return\n        /* \"contracts/DODOMine.sol\":11686:11713  uint256 public dodoPerBlock */\n    tag_21:\n      tag_106\n      tag_107\n      jump\t// in\n    tag_106:\n      mload(0x40)\n      tag_108\n      swap2\n      swap1\n      tag_43\n      jump\t// in\n    tag_108:\n      mload(0x40)\n      dup1\n      swap2\n      sub\n      swap1\n      return\n        /* \"contracts/DODOMine.sol\":11891:11955  mapping(uint256 => mapping(address => UserInfo)) public userInfo */\n    tag_22:\n      tag_109\n      0x04\n      dup1\n      calldatasize\n      sub\n      dup2\n      add\n      swap1\n      tag_110\n      swap2\n      swap1\n      tag_111\n      jump\t// in\n    tag_110:\n      tag_112\n      jump\t// in\n    tag_109:\n      mload(0x40)\n      tag_113\n      swap3\n      swap2\n      swap1\n      tag_114\n      jump\t// in\n    tag_113:\n      mload(0x40)\n      dup1\n      swap2\n      sub\n      swap1\n      return\n        /* \"contracts/DODOMine.sol\":11649:11679  address public dodoRewardVault */\n    tag_23:\n      tag_115\n      tag_116\n      jump\t// in\n    tag_115:\n      mload(0x40)\n      tag_117\n      swap2\n      swap1\n      tag_47\n      jump\t// in\n    tag_117:\n      mload(0x40)\n      dup1\n      swap2\n      sub\n      swap1\n      return\n        /* \"contracts/DODOMine.sol\":13553:14234  function addLpToken(... */\n    tag_24:\n      tag_118\n      0x04\n      dup1\n      calldatasize\n      sub\n      dup2\n      add\n      swap1\n      tag_119\n      swap2\n      swap1\n      tag_62\n      jump\t// in\n    tag_119:\n      tag_120\n      jump\t// in\n    tag_118:\n      stop\n        /* \"contracts/DODOMine.sol\":21245:21984  function claimAll() public {... */\n    tag_25:\n      tag_121\n      tag_122\n      jump\t// in\n    tag_121:\n      stop\n        /* \"contracts/DODOMine.sol\":11962:12011  mapping(address => uint256) public realizedReward */\n    tag_26:\n      tag_123\n      0x04\n      dup1\n      calldatasize\n      sub\n      dup2\n      add\n      swap1\n      tag_124\n      swap2\n      swap1\n      tag_58\n      jump\t// in\n    tag_124:\n      tag_125\n      jump\t// in\n    tag_123:\n      mload(0x40)\n      tag_126\n      swap2\n      swap1\n      tag_43\n      jump\t// in\n    tag_126:\n      mload(0x40)\n      dup1\n      swap2\n      sub\n      swap1\n      return\n        /* \"contracts/DODOMine.sol\":15762:16991  function getAllPendingReward(address _user) external view returns (uint256) {... */\n    tag_27:\n      tag_127\n      0x04\n      dup1\n      calldatasize\n      sub\n      dup2\n      add\n      swap1\n      tag_128\n      swap2\n      swap1\n      tag_58\n      jump\t// in\n    tag_128:\n      tag_129\n      jump\t// in\n    tag_127:\n      mload(0x40)\n      tag_130\n      swap2\n      swap1\n      tag_43\n      jump\t// in\n    tag_130:\n      mload(0x40)\n      dup1\n      swap2\n      sub\n      swap1\n      return\n        /* \"contracts/DODOMine.sol\":1057:1281  function transferOwnership(address newOwner) external onlyOwner {... */\n    tag_28:\n      tag_131\n      0x04\n      dup1\n      calldatasize\n      sub\n      dup2\n      add\n      swap1\n      tag_132\n      swap2\n      swap1\n      tag_58\n      jump\t// in\n    tag_132:\n      tag_133\n      jump\t// in\n    tag_131:\n      stop\n        /* \"contracts/DODOMine.sol\":19357:20064  function withdraw(address _lpToken, uint256 _amount) public {... */\n    tag_29:\n      tag_134\n      0x04\n      dup1\n      calldatasize\n      sub\n      dup2\n      add\n      swap1\n      tag_135\n      swap2\n      swap1\n      tag_74\n      jump\t// in\n    tag_135:\n      tag_136\n      jump\t// in\n    tag_134:\n      stop\n        /* \"contracts/DODOMine.sol\":20072:20231  function withdrawAll(address _lpToken) public {... */\n    tag_30:\n      tag_137\n      0x04\n      dup1\n      calldatasize\n      sub\n      dup2\n      add\n      swap1\n      tag_138\n      swap2\n      swap1\n      tag_58\n      jump\t// in\n    tag_138:\n      tag_139\n      jump\t// in\n    tag_137:\n      stop\n        /* \"contracts/DODOMine.sol\":17128:17375  function getDlpMiningSpeed(address _lpToken) external view returns (uint256) {... */\n    tag_31:\n      tag_140\n      0x04\n      dup1\n      calldatasize\n      sub\n      dup2\n      add\n      swap1\n      tag_141\n      swap2\n      swap1\n      tag_58\n      jump\t// in\n    tag_141:\n      tag_142\n      jump\t// in\n    tag_140:\n      mload(0x40)\n      tag_143\n      swap2\n      swap1\n      tag_43\n      jump\t// in\n    tag_143:\n      mload(0x40)\n      dup1\n      swap2\n      sub\n      swap1\n      return\n        /* \"contracts/DODOMine.sol\":14894:15754  function getPendingReward(address _lpToken, address _user) external view returns (uint256) {... */\n    tag_32:\n      tag_144\n      0x04\n      dup1\n      calldatasize\n      sub\n      dup2\n      add\n      swap1\n      tag_145\n      swap2\n      swap1\n      tag_53\n      jump\t// in\n    tag_145:\n      tag_146\n      jump\t// in\n    tag_144:\n      mload(0x40)\n      tag_147\n      swap2\n      swap1\n      tag_43\n      jump\t// in\n    tag_147:\n      mload(0x40)\n      dup1\n      swap2\n      sub\n      swap1\n      return\n        /* \"contracts/DODOMine.sol\":13064:13160  function poolLength() external view returns (uint256) {... */\n    tag_41:\n        /* \"contracts/DODOMine.sol\":13109:13116  uint256 */\n      0x00\n        /* \"contracts/DODOMine.sol\":13136:13145  poolInfos */\n      0x04\n        /* \"contracts/DODOMine.sol\":13136:13152  poolInfos.length */\n      dup1\n      sload\n      swap1\n      pop\n        /* \"contracts/DODOMine.sol\":13129:13152  return poolInfos.length */\n      swap1\n      pop\n        /* \"contracts/DODOMine.sol\":13064:13160  function poolLength() external view returns (uint256) {... */\n      swap1\n      jump\t// out\n        /* \"contracts/DODOMine.sol\":415:437  address public _OWNER_ */\n    tag_45:\n      0x00\n      dup1\n      sload\n      swap1\n      0x0100\n      exp\n      swap1\n      div\n      0xffffffffffffffffffffffffffffffffffffffff\n      and\n      dup2\n      jump\t// out\n        /* \"contracts/DODOMine.sol\":12108:12142  uint256 public totalAllocPoint = 0 */\n    tag_49:\n      sload(0x08)\n      dup2\n      jump\t// out\n        /* \"contracts/DODOMine.sol\":13318:13501  function getUserLpBalance(address _lpToken, address _user) public view returns (uint256) {... */\n    tag_54:\n        /* \"contracts/DODOMine.sol\":13398:13405  uint256 */\n      0x00\n        /* \"contracts/DODOMine.sol\":13418:13429  uint256 pid */\n      dup1\n        /* \"contracts/DODOMine.sol\":13432:13448  getPid(_lpToken) */\n      tag_150\n        /* \"contracts/DODOMine.sol\":13439:13447  _lpToken */\n      dup5\n        /* \"contracts/DODOMine.sol\":13432:13438  getPid */\n      tag_70\n        /* \"contracts/DODOMine.sol\":13432:13448  getPid(_lpToken) */\n      jump\t// in\n    tag_150:\n        /* \"contracts/DODOMine.sol\":13418:13448  uint256 pid = getPid(_lpToken) */\n      swap1\n      pop\n        /* \"contracts/DODOMine.sol\":13466:13474  userInfo */\n      0x06\n        /* \"contracts/DODOMine.sol\":13466:13479  userInfo[pid] */\n      0x00\n        /* \"contracts/DODOMine.sol\":13475:13478  pid */\n      dup3\n        /* \"contracts/DODOMine.sol\":13466:13479  userInfo[pid] */\n      dup2\n      mstore\n      0x20\n      add\n      swap1\n      dup2\n      mstore\n      0x20\n      add\n      0x00\n      keccak256\n        /* \"contracts/DODOMine.sol\":13466:13486  userInfo[pid][_user] */\n      0x00\n        /* \"contracts/DODOMine.sol\":13480:13485  _user */\n      dup5\n        /* \"contracts/DODOMine.sol\":13466:13486  userInfo[pid][_user] */\n      0xffffffffffffffffffffffffffffffffffffffff\n      and\n      0xffffffffffffffffffffffffffffffffffffffff\n      and\n      dup2\n      mstore\n      0x20\n      add\n      swap1\n      dup2\n      mstore\n      0x20\n      add\n      0x00\n      keccak256\n        /* \"contracts/DODOMine.sol\":13466:13493  userInfo[pid][_user].amount */\n      0x00\n      add\n      sload\n        /* \"contracts/DODOMine.sol\":13459:13493  return userInfo[pid][_user].amount */\n      swap2\n      pop\n      pop\n        /* \"contracts/DODOMine.sol\":13318:13501  function getUserLpBalance(address _lpToken, address _user) public view returns (uint256) {... */\n      swap3\n      swap2\n      pop\n      pop\n      jump\t// out\n        /* \"contracts/DODOMine.sol\":20654:21237  function claim(address _lpToken) public {... */\n    tag_59:\n        /* \"contracts/DODOMine.sol\":20705:20716  uint256 pid */\n      0x00\n        /* \"contracts/DODOMine.sol\":20719:20735  getPid(_lpToken) */\n      tag_152\n        /* \"contracts/DODOMine.sol\":20726:20734  _lpToken */\n      dup3\n        /* \"contracts/DODOMine.sol\":20719:20725  getPid */\n      tag_70\n        /* \"contracts/DODOMine.sol\":20719:20735  getPid(_lpToken) */\n      jump\t// in\n    tag_152:\n        /* \"contracts/DODOMine.sol\":20705:20735  uint256 pid = getPid(_lpToken) */\n      swap1\n      pop\n        /* \"contracts/DODOMine.sol\":20786:20787  0 */\n      0x00\n        /* \"contracts/DODOMine.sol\":20750:20758  userInfo */\n      0x06\n        /* \"contracts/DODOMine.sol\":20750:20763  userInfo[pid] */\n      0x00\n        /* \"contracts/DODOMine.sol\":20759:20762  pid */\n      dup4\n        /* \"contracts/DODOMine.sol\":20750:20763  userInfo[pid] */\n      dup2\n      mstore\n      0x20\n      add\n      swap1\n      dup2\n      mstore\n      0x20\n      add\n      0x00\n      keccak256\n        /* \"contracts/DODOMine.sol\":20750:20775  userInfo[pid][msg.sender] */\n      0x00\n        /* \"contracts/DODOMine.sol\":20764:20774  msg.sender */\n      caller\n        /* \"contracts/DODOMine.sol\":20750:20775  userInfo[pid][msg.sender] */\n      0xffffffffffffffffffffffffffffffffffffffff\n      and\n      0xffffffffffffffffffffffffffffffffffffffff\n      and\n      dup2\n      mstore\n      0x20\n      add\n      swap1\n      dup2\n      mstore\n      0x20\n      add\n      0x00\n      keccak256\n        /* \"contracts/DODOMine.sol\":20750:20782  userInfo[pid][msg.sender].amount */\n      0x00\n      add\n      sload\n        /* \"contracts/DODOMine.sol\":20750:20787  userInfo[pid][msg.sender].amount == 0 */\n      eq\n        /* \"contracts/DODOMine.sol\":20750:20821  userInfo[pid][msg.sender].amount == 0 || poolInfos[pid].allocPoint == 0 */\n      dup1\n      tag_153\n      jumpi\n      pop\n        /* \"contracts/DODOMine.sol\":20820:20821  0 */\n      0x00\n        /* \"contracts/DODOMine.sol\":20791:20800  poolInfos */\n      0x04\n        /* \"contracts/DODOMine.sol\":20801:20804  pid */\n      dup3\n        /* \"contracts/DODOMine.sol\":20791:20805  poolInfos[pid] */\n      dup2\n      sload\n      dup2\n      lt\n      tag_154\n      jumpi\n      tag_155\n      tag_156\n      jump\t// in\n    tag_155:\n    tag_154:\n      swap1\n      0x00\n      mstore\n      keccak256(0x00, 0x20)\n      swap1\n      0x04\n      mul\n      add\n        /* \"contracts/DODOMine.sol\":20791:20816  poolInfos[pid].allocPoint */\n      0x01\n      add\n      sload\n        /* \"contracts/DODOMine.sol\":20791:20821  poolInfos[pid].allocPoint == 0 */\n      eq\n        /* \"contracts/DODOMine.sol\":20750:20821  userInfo[pid][msg.sender].amount == 0 || poolInfos[pid].allocPoint == 0 */\n    tag_153:\n        /* \"contracts/DODOMine.sol\":20746:20868  if (userInfo[pid][msg.sender].amount == 0 || poolInfos[pid].allocPoint == 0) {... */\n      iszero\n      tag_158\n      jumpi\n        /* \"contracts/DODOMine.sol\":20838:20845  return; */\n      pop\n      jump(tag_151)\n        /* \"contracts/DODOMine.sol\":20746:20868  if (userInfo[pid][msg.sender].amount == 0 || poolInfos[pid].allocPoint == 0) {... */\n    tag_158:\n        /* \"contracts/DODOMine.sol\":20878:20899  PoolInfo storage pool */\n      0x00\n        /* \"contracts/DODOMine.sol\":20902:20911  poolInfos */\n      0x04\n        /* \"contracts/DODOMine.sol\":20912:20915  pid */\n      dup3\n        /* \"contracts/DODOMine.sol\":20902:20916  poolInfos[pid] */\n      dup2\n      sload\n      dup2\n      lt\n      tag_159\n      jumpi\n      tag_160\n      tag_156\n      jump\t// in\n    tag_160:\n    tag_159:\n      swap1\n      0x00\n      mstore\n      keccak256(0x00, 0x20)\n      swap1\n      0x04\n      mul\n      add\n        /* \"contracts/DODOMine.sol\":20878:20916  PoolInfo storage pool = poolInfos[pid] */\n      swap1\n      pop\n        /* \"contracts/DODOMine.sol\":20927:20948  UserInfo storage user */\n      0x00\n        /* \"contracts/DODOMine.sol\":20951:20959  userInfo */\n      0x06\n        /* \"contracts/DODOMine.sol\":20951:20964  userInfo[pid] */\n      0x00\n        /* \"contracts/DODOMine.sol\":20960:20963  pid */\n      dup5\n        /* \"contracts/DODOMine.sol\":20951:20964  userInfo[pid] */\n      dup2\n      mstore\n      0x20\n      add\n      swap1\n      dup2\n      mstore\n      0x20\n      add\n      0x00\n      keccak256\n        /* \"contracts/DODOMine.sol\":20951:20976  userInfo[pid][msg.sender] */\n      0x00\n        /* \"contracts/DODOMine.sol\":20965:20975  msg.sender */\n      caller\n        /* \"contracts/DODOMine.sol\":20951:20976  userInfo[pid][msg.sender] */\n      0xffffffffffffffffffffffffffffffffffffffff\n      and\n      0xffffffffffffffffffffffffffffffffffffffff\n      and\n      dup2\n      mstore\n      0x20\n      add\n      swap1\n      dup2\n      mstore\n      0x20\n      add\n      0x00\n      keccak256\n        /* \"contracts/DODOMine.sol\":20927:20976  UserInfo storage user = userInfo[pid][msg.sender] */\n      swap1\n      pop\n        /* \"contracts/DODOMine.sol\":20987:21002  updatePool(pid) */\n      tag_162\n        /* \"contracts/DODOMine.sol\":20998:21001  pid */\n      dup4\n        /* \"contracts/DODOMine.sol\":20987:20997  updatePool */\n      tag_84\n        /* \"contracts/DODOMine.sol\":20987:21002  updatePool(pid) */\n      jump\t// in\n    tag_162:\n        /* \"contracts/DODOMine.sol\":21013:21028  uint256 pending */\n      0x00\n        /* \"contracts/DODOMine.sol\":21031:21102  DecimalMath.mul(user.amount, pool.accDODOPerShare).sub(user.rewardDebt) */\n      tag_163\n        /* \"contracts/DODOMine.sol\":21086:21090  user */\n      dup3\n        /* \"contracts/DODOMine.sol\":21086:21101  user.rewardDebt */\n      0x01\n      add\n      sload\n        /* \"contracts/DODOMine.sol\":21031:21081  DecimalMath.mul(user.amount, pool.accDODOPerShare) */\n      tag_164\n        /* \"contracts/DODOMine.sol\":21047:21051  user */\n      dup5\n        /* \"contracts/DODOMine.sol\":21047:21058  user.amount */\n      0x00\n      add\n      sload\n        /* \"contracts/DODOMine.sol\":21060:21064  pool */\n      dup7\n        /* \"contracts/DODOMine.sol\":21060:21080  pool.accDODOPerShare */\n      0x03\n      add\n      sload\n        /* \"contracts/DODOMine.sol\":21031:21046  DecimalMath.mul */\n      tag_165\n        /* \"contracts/DODOMine.sol\":21031:21081  DecimalMath.mul(user.amount, pool.accDODOPerShare) */\n      jump\t// in\n    tag_164:\n        /* \"contracts/DODOMine.sol\":21031:21085  DecimalMath.mul(user.amount, pool.accDODOPerShare).sub */\n      tag_166\n      swap1\n        /* \"contracts/DODOMine.sol\":21031:21102  DecimalMath.mul(user.amount, pool.accDODOPerShare).sub(user.rewardDebt) */\n      swap2\n      swap1\n      0xffffffff\n      and\n      jump\t// in\n    tag_163:\n        /* \"contracts/DODOMine.sol\":21013:21102  uint256 pending = DecimalMath.mul(user.amount, pool.accDODOPerShare).sub(user.rewardDebt) */\n      swap1\n      pop\n        /* \"contracts/DODOMine.sol\":21131:21181  DecimalMath.mul(user.amount, pool.accDODOPerShare) */\n      tag_167\n        /* \"contracts/DODOMine.sol\":21147:21151  user */\n      dup3\n        /* \"contracts/DODOMine.sol\":21147:21158  user.amount */\n      0x00\n      add\n      sload\n        /* \"contracts/DODOMine.sol\":21160:21164  pool */\n      dup5\n        /* \"contracts/DODOMine.sol\":21160:21180  pool.accDODOPerShare */\n      0x03\n      add\n      sload\n        /* \"contracts/DODOMine.sol\":21131:21146  DecimalMath.mul */\n      tag_165\n        /* \"contracts/DODOMine.sol\":21131:21181  DecimalMath.mul(user.amount, pool.accDODOPerShare) */\n      jump\t// in\n    tag_167:\n        /* \"contracts/DODOMine.sol\":21113:21117  user */\n      dup3\n        /* \"contracts/DODOMine.sol\":21113:21128  user.rewardDebt */\n      0x01\n      add\n        /* \"contracts/DODOMine.sol\":21113:21181  user.rewardDebt = DecimalMath.mul(user.amount, pool.accDODOPerShare) */\n      dup2\n      swap1\n      sstore\n      pop\n        /* \"contracts/DODOMine.sol\":21192:21229  safeDODOTransfer(msg.sender, pending) */\n      tag_168\n        /* \"contracts/DODOMine.sol\":21209:21219  msg.sender */\n      caller\n        /* \"contracts/DODOMine.sol\":21221:21228  pending */\n      dup3\n        /* \"contracts/DODOMine.sol\":21192:21208  safeDODOTransfer */\n      tag_169\n        /* \"contracts/DODOMine.sol\":21192:21229  safeDODOTransfer(msg.sender, pending) */\n      jump\t// in\n    tag_168:\n        /* \"contracts/DODOMine.sol\":20694:21237  {... */\n      pop\n      pop\n      pop\n      pop\n        /* \"contracts/DODOMine.sol\":20654:21237  function claim(address _lpToken) public {... */\n    tag_151:\n      pop\n      jump\t// out\n        /* \"contracts/DODOMine.sol\":14242:14632  function setLpToken(... */\n    tag_63:\n        /* \"contracts/DODOMine.sol\":811:818  _OWNER_ */\n      0x00\n      dup1\n      sload\n      swap1\n      0x0100\n      exp\n      swap1\n      div\n      0xffffffffffffffffffffffffffffffffffffffff\n      and\n        /* \"contracts/DODOMine.sol\":797:818  msg.sender == _OWNER_ */\n      0xffffffffffffffffffffffffffffffffffffffff\n      and\n        /* \"contracts/DODOMine.sol\":797:807  msg.sender */\n      caller\n        /* \"contracts/DODOMine.sol\":797:818  msg.sender == _OWNER_ */\n      0xffffffffffffffffffffffffffffffffffffffff\n      and\n      eq\n        /* \"contracts/DODOMine.sol\":789:832  require(msg.sender == _OWNER_, \"NOT_OWNER\") */\n      tag_171\n      jumpi\n      mload(0x40)\n      0x08c379a000000000000000000000000000000000000000000000000000000000\n      dup2\n      mstore\n      0x04\n      add\n      tag_172\n      swap1\n      tag_173\n      jump\t// in\n    tag_172:\n      mload(0x40)\n      dup1\n      swap2\n      sub\n      swap1\n      revert\n    tag_171:\n        /* \"contracts/DODOMine.sol\":14385:14396  _withUpdate */\n      dup1\n        /* \"contracts/DODOMine.sol\":14381:14442  if (_withUpdate) {... */\n      iszero\n      tag_175\n      jumpi\n        /* \"contracts/DODOMine.sol\":14413:14430  massUpdatePools() */\n      tag_176\n        /* \"contracts/DODOMine.sol\":14413:14428  massUpdatePools */\n      tag_86\n        /* \"contracts/DODOMine.sol\":14413:14430  massUpdatePools() */\n      jump\t// in\n    tag_176:\n        /* \"contracts/DODOMine.sol\":14381:14442  if (_withUpdate) {... */\n    tag_175:\n        /* \"contracts/DODOMine.sol\":14452:14463  uint256 pid */\n      0x00\n        /* \"contracts/DODOMine.sol\":14466:14482  getPid(_lpToken) */\n      tag_177\n        /* \"contracts/DODOMine.sol\":14473:14481  _lpToken */\n      dup5\n        /* \"contracts/DODOMine.sol\":14466:14472  getPid */\n      tag_70\n        /* \"contracts/DODOMine.sol\":14466:14482  getPid(_lpToken) */\n      jump\t// in\n    tag_177:\n        /* \"contracts/DODOMine.sol\":14452:14482  uint256 pid = getPid(_lpToken) */\n      swap1\n      pop\n        /* \"contracts/DODOMine.sol\":14511:14574  totalAllocPoint.sub(poolInfos[pid].allocPoint).add(_allocPoint) */\n      tag_178\n        /* \"contracts/DODOMine.sol\":14562:14573  _allocPoint */\n      dup4\n        /* \"contracts/DODOMine.sol\":14511:14557  totalAllocPoint.sub(poolInfos[pid].allocPoint) */\n      tag_179\n        /* \"contracts/DODOMine.sol\":14531:14540  poolInfos */\n      0x04\n        /* \"contracts/DODOMine.sol\":14541:14544  pid */\n      dup5\n        /* \"contracts/DODOMine.sol\":14531:14545  poolInfos[pid] */\n      dup2\n      sload\n      dup2\n      lt\n      tag_180\n      jumpi\n      tag_181\n      tag_156\n      jump\t// in\n    tag_181:\n    tag_180:\n      swap1\n      0x00\n      mstore\n      keccak256(0x00, 0x20)\n      swap1\n      0x04\n      mul\n      add\n        /* \"contracts/DODOMine.sol\":14531:14556  poolInfos[pid].allocPoint */\n      0x01\n      add\n      sload\n        /* \"contracts/DODOMine.sol\":14511:14526  totalAllocPoint */\n      sload(0x08)\n        /* \"contracts/DODOMine.sol\":14511:14530  totalAllocPoint.sub */\n      tag_166\n      swap1\n        /* \"contracts/DODOMine.sol\":14511:14557  totalAllocPoint.sub(poolInfos[pid].allocPoint) */\n      swap2\n      swap1\n      0xffffffff\n      and\n      jump\t// in\n    tag_179:\n        /* \"contracts/DODOMine.sol\":14511:14561  totalAllocPoint.sub(poolInfos[pid].allocPoint).add */\n      tag_183\n      swap1\n        /* \"contracts/DODOMine.sol\":14511:14574  totalAllocPoint.sub(poolInfos[pid].allocPoint).add(_allocPoint) */\n      swap2\n      swap1\n      0xffffffff\n      and\n      jump\t// in\n    tag_178:\n        /* \"contracts/DODOMine.sol\":14493:14508  totalAllocPoint */\n      0x08\n        /* \"contracts/DODOMine.sol\":14493:14574  totalAllocPoint = totalAllocPoint.sub(poolInfos[pid].allocPoint).add(_allocPoint) */\n      dup2\n      swap1\n      sstore\n      pop\n        /* \"contracts/DODOMine.sol\":14613:14624  _allocPoint */\n      dup3\n        /* \"contracts/DODOMine.sol\":14585:14594  poolInfos */\n      0x04\n        /* \"contracts/DODOMine.sol\":14595:14598  pid */\n      dup3\n        /* \"contracts/DODOMine.sol\":14585:14599  poolInfos[pid] */\n      dup2\n      sload\n      dup2\n      lt\n      tag_184\n      jumpi\n      tag_185\n      tag_156\n      jump\t// in\n    tag_185:\n    tag_184:\n      swap1\n      0x00\n      mstore\n      keccak256(0x00, 0x20)\n      swap1\n      0x04\n      mul\n      add\n        /* \"contracts/DODOMine.sol\":14585:14610  poolInfos[pid].allocPoint */\n      0x01\n      add\n        /* \"contracts/DODOMine.sol\":14585:14624  poolInfos[pid].allocPoint = _allocPoint */\n      dup2\n      swap1\n      sstore\n      pop\n        /* \"contracts/DODOMine.sol\":14370:14632  {... */\n      pop\n        /* \"contracts/DODOMine.sol\":14242:14632  function setLpToken(... */\n      pop\n      pop\n      pop\n      jump\t// out\n        /* \"contracts/DODOMine.sol\":11783:11833  mapping(address => uint256) public lpTokenRegistry */\n    tag_66:\n      mstore(0x20, 0x05)\n      dup1\n      0x00\n      mstore\n      keccak256(0x00, 0x40)\n      0x00\n      swap2\n      pop\n      swap1\n      pop\n      sload\n      dup2\n      jump\t// out\n        /* \"contracts/DODOMine.sol\":13168:13310  function getPid(address _lpToken) public view lpTokenExist(_lpToken) returns (uint256) {... */\n    tag_70:\n        /* \"contracts/DODOMine.sol\":13246:13253  uint256 */\n      0x00\n        /* \"contracts/DODOMine.sol\":13227:13235  _lpToken */\n      dup2\n        /* \"contracts/DODOMine.sol\":12824:12825  0 */\n      0x00\n        /* \"contracts/DODOMine.sol\":12797:12812  lpTokenRegistry */\n      0x05\n        /* \"contracts/DODOMine.sol\":12797:12821  lpTokenRegistry[lpToken] */\n      0x00\n        /* \"contracts/DODOMine.sol\":12813:12820  lpToken */\n      dup4\n        /* \"contracts/DODOMine.sol\":12797:12821  lpTokenRegistry[lpToken] */\n      0xffffffffffffffffffffffffffffffffffffffff\n      and\n      0xffffffffffffffffffffffffffffffffffffffff\n      and\n      dup2\n      mstore\n      0x20\n      add\n      swap1\n      dup2\n      mstore\n      0x20\n      add\n      0x00\n      keccak256\n      sload\n        /* \"contracts/DODOMine.sol\":12797:12825  lpTokenRegistry[lpToken] > 0 */\n      gt\n        /* \"contracts/DODOMine.sol\":12789:12848  require(lpTokenRegistry[lpToken] > 0, \"LP Token Not Exist\") */\n      tag_188\n      jumpi\n      mload(0x40)\n      0x08c379a000000000000000000000000000000000000000000000000000000000\n      dup2\n      mstore\n      0x04\n      add\n      tag_189\n      swap1\n      tag_190\n      jump\t// in\n    tag_189:\n      mload(0x40)\n      dup1\n      swap2\n      sub\n      swap1\n      revert\n    tag_188:\n        /* \"contracts/DODOMine.sol\":13301:13302  1 */\n      0x01\n        /* \"contracts/DODOMine.sol\":13273:13288  lpTokenRegistry */\n      0x05\n        /* \"contracts/DODOMine.sol\":13273:13298  lpTokenRegistry[_lpToken] */\n      0x00\n        /* \"contracts/DODOMine.sol\":13289:13297  _lpToken */\n      dup6\n        /* \"contracts/DODOMine.sol\":13273:13298  lpTokenRegistry[_lpToken] */\n      0xffffffffffffffffffffffffffffffffffffffff\n      and\n      0xffffffffffffffffffffffffffffffffffffffff\n      and\n      dup2\n      mstore\n      0x20\n      add\n      swap1\n      dup2\n      mstore\n      0x20\n      add\n      0x00\n      keccak256\n      sload\n        /* \"contracts/DODOMine.sol\":13273:13302  lpTokenRegistry[_lpToken] - 1 */\n      tag_192\n      swap2\n      swap1\n      tag_193\n      jump\t// in\n    tag_192:\n        /* \"contracts/DODOMine.sol\":13266:13302  return lpTokenRegistry[_lpToken] - 1 */\n      swap2\n      pop\n        /* \"contracts/DODOMine.sol\":13168:13310  function getPid(address _lpToken) public view lpTokenExist(_lpToken) returns (uint256) {... */\n      pop\n      swap2\n      swap1\n      pop\n      jump\t// out\n        /* \"contracts/DODOMine.sol\":18605:19349  function deposit(address _lpToken, uint256 _amount) public {... */\n    tag_75:\n        /* \"contracts/DODOMine.sol\":18675:18686  uint256 pid */\n      0x00\n        /* \"contracts/DODOMine.sol\":18689:18705  getPid(_lpToken) */\n      tag_195\n        /* \"contracts/DODOMine.sol\":18696:18704  _lpToken */\n      dup4\n        /* \"contracts/DODOMine.sol\":18689:18695  getPid */\n      tag_70\n        /* \"contracts/DODOMine.sol\":18689:18705  getPid(_lpToken) */\n      jump\t// in\n    tag_195:\n        /* \"contracts/DODOMine.sol\":18675:18705  uint256 pid = getPid(_lpToken) */\n      swap1\n      pop\n        /* \"contracts/DODOMine.sol\":18716:18737  PoolInfo storage pool */\n      0x00\n        /* \"contracts/DODOMine.sol\":18740:18749  poolInfos */\n      0x04\n        /* \"contracts/DODOMine.sol\":18750:18753  pid */\n      dup3\n        /* \"contracts/DODOMine.sol\":18740:18754  poolInfos[pid] */\n      dup2\n      sload\n      dup2\n      lt\n      tag_196\n      jumpi\n      tag_197\n      tag_156\n      jump\t// in\n    tag_197:\n    tag_196:\n      swap1\n      0x00\n      mstore\n      keccak256(0x00, 0x20)\n      swap1\n      0x04\n      mul\n      add\n        /* \"contracts/DODOMine.sol\":18716:18754  PoolInfo storage pool = poolInfos[pid] */\n      swap1\n      pop\n        /* \"contracts/DODOMine.sol\":18765:18786  UserInfo storage user */\n      0x00\n        /* \"contracts/DODOMine.sol\":18789:18797  userInfo */\n      0x06\n        /* \"contracts/DODOMine.sol\":18789:18802  userInfo[pid] */\n      0x00\n        /* \"contracts/DODOMine.sol\":18798:18801  pid */\n      dup5\n        /* \"contracts/DODOMine.sol\":18789:18802  userInfo[pid] */\n      dup2\n      mstore\n      0x20\n      add\n      swap1\n      dup2\n      mstore\n      0x20\n      add\n      0x00\n      keccak256\n        /* \"contracts/DODOMine.sol\":18789:18814  userInfo[pid][msg.sender] */\n      0x00\n        /* \"contracts/DODOMine.sol\":18803:18813  msg.sender */\n      caller\n        /* \"contracts/DODOMine.sol\":18789:18814  userInfo[pid][msg.sender] */\n      0xffffffffffffffffffffffffffffffffffffffff\n      and\n      0xffffffffffffffffffffffffffffffffffffffff\n      and\n      dup2\n      mstore\n      0x20\n      add\n      swap1\n      dup2\n      mstore\n      0x20\n      add\n      0x00\n      keccak256\n        /* \"contracts/DODOMine.sol\":18765:18814  UserInfo storage user = userInfo[pid][msg.sender] */\n      swap1\n      pop\n        /* \"contracts/DODOMine.sol\":18825:18840  updatePool(pid) */\n      tag_199\n        /* \"contracts/DODOMine.sol\":18836:18839  pid */\n      dup4\n        /* \"contracts/DODOMine.sol\":18825:18835  updatePool */\n      tag_84\n        /* \"contracts/DODOMine.sol\":18825:18840  updatePool(pid) */\n      jump\t// in\n    tag_199:\n        /* \"contracts/DODOMine.sol\":18869:18870  0 */\n      0x00\n        /* \"contracts/DODOMine.sol\":18855:18859  user */\n      dup2\n        /* \"contracts/DODOMine.sol\":18855:18866  user.amount */\n      0x00\n      add\n      sload\n        /* \"contracts/DODOMine.sol\":18855:18870  user.amount > 0 */\n      gt\n        /* \"contracts/DODOMine.sol\":18851:19072  if (user.amount > 0) {... */\n      iszero\n      tag_200\n      jumpi\n        /* \"contracts/DODOMine.sol\":18887:18902  uint256 pending */\n      0x00\n        /* \"contracts/DODOMine.sol\":18905:19008  DecimalMath.mul(user.amount, pool.accDODOPerShare).sub(... */\n      tag_201\n        /* \"contracts/DODOMine.sol\":18978:18982  user */\n      dup3\n        /* \"contracts/DODOMine.sol\":18978:18993  user.rewardDebt */\n      0x01\n      add\n      sload\n        /* \"contracts/DODOMine.sol\":18905:18955  DecimalMath.mul(user.amount, pool.accDODOPerShare) */\n      tag_202\n        /* \"contracts/DODOMine.sol\":18921:18925  user */\n      dup5\n        /* \"contracts/DODOMine.sol\":18921:18932  user.amount */\n      0x00\n      add\n      sload\n        /* \"contracts/DODOMine.sol\":18934:18938  pool */\n      dup7\n        /* \"contracts/DODOMine.sol\":18934:18954  pool.accDODOPerShare */\n      0x03\n      add\n      sload\n        /* \"contracts/DODOMine.sol\":18905:18920  DecimalMath.mul */\n      tag_165\n        /* \"contracts/DODOMine.sol\":18905:18955  DecimalMath.mul(user.amount, pool.accDODOPerShare) */\n      jump\t// in\n    tag_202:\n        /* \"contracts/DODOMine.sol\":18905:18959  DecimalMath.mul(user.amount, pool.accDODOPerShare).sub */\n      tag_166\n      swap1\n        /* \"contracts/DODOMine.sol\":18905:19008  DecimalMath.mul(user.amount, pool.accDODOPerShare).sub(... */\n      swap2\n      swap1\n      0xffffffff\n      and\n      jump\t// in\n    tag_201:\n        /* \"contracts/DODOMine.sol\":18887:19008  uint256 pending = DecimalMath.mul(user.amount, pool.accDODOPerShare).sub(... */\n      swap1\n      pop\n        /* \"contracts/DODOMine.sol\":19023:19060  safeDODOTransfer(msg.sender, pending) */\n      tag_203\n        /* \"contracts/DODOMine.sol\":19040:19050  msg.sender */\n      caller\n        /* \"contracts/DODOMine.sol\":19052:19059  pending */\n      dup3\n        /* \"contracts/DODOMine.sol\":19023:19039  safeDODOTransfer */\n      tag_169\n        /* \"contracts/DODOMine.sol\":19023:19060  safeDODOTransfer(msg.sender, pending) */\n      jump\t// in\n    tag_203:\n        /* \"contracts/DODOMine.sol\":18872:19072  {... */\n      pop\n        /* \"contracts/DODOMine.sol\":18851:19072  if (user.amount > 0) {... */\n    tag_200:\n        /* \"contracts/DODOMine.sol\":19082:19164  IERC20(pool.lpToken).safeTransferFrom(address(msg.sender), address(this), _amount) */\n      tag_204\n        /* \"contracts/DODOMine.sol\":19128:19138  msg.sender */\n      caller\n        /* \"contracts/DODOMine.sol\":19149:19153  this */\n      address\n        /* \"contracts/DODOMine.sol\":19156:19163  _amount */\n      dup7\n        /* \"contracts/DODOMine.sol\":19089:19093  pool */\n      dup6\n        /* \"contracts/DODOMine.sol\":19089:19101  pool.lpToken */\n      0x00\n      add\n      0x00\n      swap1\n      sload\n      swap1\n      0x0100\n      exp\n      swap1\n      div\n      0xffffffffffffffffffffffffffffffffffffffff\n      and\n        /* \"contracts/DODOMine.sol\":19082:19119  IERC20(pool.lpToken).safeTransferFrom */\n      0xffffffffffffffffffffffffffffffffffffffff\n      and\n      tag_205\n      swap1\n        /* \"contracts/DODOMine.sol\":19082:19164  IERC20(pool.lpToken).safeTransferFrom(address(msg.sender), address(this), _amount) */\n      swap4\n      swap3\n      swap2\n      swap1\n      0xffffffff\n      and\n      jump\t// in\n    tag_204:\n        /* \"contracts/DODOMine.sol\":19189:19213  user.amount.add(_amount) */\n      tag_206\n        /* \"contracts/DODOMine.sol\":19205:19212  _amount */\n      dup5\n        /* \"contracts/DODOMine.sol\":19189:19193  user */\n      dup3\n        /* \"contracts/DODOMine.sol\":19189:19200  user.amount */\n      0x00\n      add\n      sload\n        /* \"contracts/DODOMine.sol\":19189:19204  user.amount.add */\n      tag_183\n      swap1\n        /* \"contracts/DODOMine.sol\":19189:19213  user.amount.add(_amount) */\n      swap2\n      swap1\n      0xffffffff\n      and\n      jump\t// in\n    tag_206:\n        /* \"contracts/DODOMine.sol\":19175:19179  user */\n      dup2\n        /* \"contracts/DODOMine.sol\":19175:19186  user.amount */\n      0x00\n      add\n        /* \"contracts/DODOMine.sol\":19175:19213  user.amount = user.amount.add(_amount) */\n      dup2\n      swap1\n      sstore\n      pop\n        /* \"contracts/DODOMine.sol\":19242:19292  DecimalMath.mul(user.amount, pool.accDODOPerShare) */\n      tag_207\n        /* \"contracts/DODOMine.sol\":19258:19262  user */\n      dup2\n        /* \"contracts/DODOMine.sol\":19258:19269  user.amount */\n      0x00\n      add\n      sload\n        /* \"contracts/DODOMine.sol\":19271:19275  pool */\n      dup4\n        /* \"contracts/DODOMine.sol\":19271:19291  pool.accDODOPerShare */\n      0x03\n      add\n      sload\n        /* \"contracts/DODOMine.sol\":19242:19257  DecimalMath.mul */\n      tag_165\n        /* \"contracts/DODOMine.sol\":19242:19292  DecimalMath.mul(user.amount, pool.accDODOPerShare) */\n      jump\t// in\n    tag_207:\n        /* \"contracts/DODOMine.sol\":19224:19228  user */\n      dup2\n        /* \"contracts/DODOMine.sol\":19224:19239  user.rewardDebt */\n      0x01\n      add\n        /* \"contracts/DODOMine.sol\":19224:19292  user.rewardDebt = DecimalMath.mul(user.amount, pool.accDODOPerShare) */\n      dup2\n      swap1\n      sstore\n      pop\n        /* \"contracts/DODOMine.sol\":19328:19331  pid */\n      dup3\n        /* \"contracts/DODOMine.sol\":19316:19326  msg.sender */\n      caller\n        /* \"contracts/DODOMine.sol\":19308:19341  Deposit(msg.sender, pid, _amount) */\n      0xffffffffffffffffffffffffffffffffffffffff\n      and\n      0x90890809c654f11d6e72a28fa60149770a0d11ec6c92319d6ceb2bb0a4ea1a15\n        /* \"contracts/DODOMine.sol\":19333:19340  _amount */\n      dup7\n        /* \"contracts/DODOMine.sol\":19308:19341  Deposit(msg.sender, pid, _amount) */\n      mload(0x40)\n      tag_208\n      swap2\n      swap1\n      tag_43\n      jump\t// in\n    tag_208:\n      mload(0x40)\n      dup1\n      swap2\n      sub\n      swap1\n      log3\n        /* \"contracts/DODOMine.sol\":18664:19349  {... */\n      pop\n      pop\n      pop\n        /* \"contracts/DODOMine.sol\":18605:19349  function deposit(address _lpToken, uint256 _amount) public {... */\n      pop\n      pop\n      jump\t// out\n        /* \"contracts/DODOMine.sol\":12199:12224  uint256 public startBlock */\n    tag_77:\n      sload(0x09)\n      dup2\n      jump\t// out\n        /* \"contracts/DODOMine.sol\":1289:1519  function claimOwnership() external {... */\n    tag_80:\n        /* \"contracts/DODOMine.sol\":1357:1368  _NEW_OWNER_ */\n      0x01\n      0x00\n      swap1\n      sload\n      swap1\n      0x0100\n      exp\n      swap1\n      div\n      0xffffffffffffffffffffffffffffffffffffffff\n      and\n        /* \"contracts/DODOMine.sol\":1343:1368  msg.sender == _NEW_OWNER_ */\n      0xffffffffffffffffffffffffffffffffffffffff\n      and\n        /* \"contracts/DODOMine.sol\":1343:1353  msg.sender */\n      caller\n        /* \"contracts/DODOMine.sol\":1343:1368  msg.sender == _NEW_OWNER_ */\n      0xffffffffffffffffffffffffffffffffffffffff\n      and\n      eq\n        /* \"contracts/DODOMine.sol\":1335:1386  require(msg.sender == _NEW_OWNER_, \"INVALID_CLAIM\") */\n      tag_210\n      jumpi\n      mload(0x40)\n      0x08c379a000000000000000000000000000000000000000000000000000000000\n      dup2\n      mstore\n      0x04\n      add\n      tag_211\n      swap1\n      tag_212\n      jump\t// in\n    tag_211:\n      mload(0x40)\n      dup1\n      swap2\n      sub\n      swap1\n      revert\n    tag_210:\n        /* \"contracts/DODOMine.sol\":1432:1443  _NEW_OWNER_ */\n      0x01\n      0x00\n      swap1\n      sload\n      swap1\n      0x0100\n      exp\n      swap1\n      div\n      0xffffffffffffffffffffffffffffffffffffffff\n      and\n        /* \"contracts/DODOMine.sol\":1402:1444  OwnershipTransferred(_OWNER_, _NEW_OWNER_) */\n      0xffffffffffffffffffffffffffffffffffffffff\n      and\n        /* \"contracts/DODOMine.sol\":1423:1430  _OWNER_ */\n      0x00\n      dup1\n      sload\n      swap1\n      0x0100\n      exp\n      swap1\n      div\n      0xffffffffffffffffffffffffffffffffffffffff\n      and\n        /* \"contracts/DODOMine.sol\":1402:1444  OwnershipTransferred(_OWNER_, _NEW_OWNER_) */\n      0xffffffffffffffffffffffffffffffffffffffff\n      and\n      0x8be0079c531659141344cd1fd0a4f28419497f9722a3daafe3b4186f6b6457e0\n      mload(0x40)\n      mload(0x40)\n      dup1\n      swap2\n      sub\n      swap1\n      log3\n        /* \"contracts/DODOMine.sol\":1465:1476  _NEW_OWNER_ */\n      0x01\n      0x00\n      swap1\n      sload\n      swap1\n      0x0100\n      exp\n      swap1\n      div\n      0xffffffffffffffffffffffffffffffffffffffff\n      and\n        /* \"contracts/DODOMine.sol\":1455:1462  _OWNER_ */\n      0x00\n      dup1\n        /* \"contracts/DODOMine.sol\":1455:1476  _OWNER_ = _NEW_OWNER_ */\n      0x0100\n      exp\n      dup2\n      sload\n      dup2\n      0xffffffffffffffffffffffffffffffffffffffff\n      mul\n      not\n      and\n      swap1\n      dup4\n      0xffffffffffffffffffffffffffffffffffffffff\n      and\n      mul\n      or\n      swap1\n      sstore\n      pop\n        /* \"contracts/DODOMine.sol\":1509:1510  0 */\n      0x00\n        /* \"contracts/DODOMine.sol\":1487:1498  _NEW_OWNER_ */\n      0x01\n      0x00\n        /* \"contracts/DODOMine.sol\":1487:1511  _NEW_OWNER_ = address(0) */\n      0x0100\n      exp\n      dup2\n      sload\n      dup2\n      0xffffffffffffffffffffffffffffffffffffffff\n      mul\n      not\n      and\n      swap1\n      dup4\n      0xffffffffffffffffffffffffffffffffffffffff\n      and\n      mul\n      or\n      swap1\n      sstore\n      pop\n        /* \"contracts/DODOMine.sol\":1289:1519  function claimOwnership() external {... */\n      jump\t// out\n        /* \"contracts/DODOMine.sol\":17764:18483  function updatePool(uint256 _pid) public {... */\n    tag_84:\n        /* \"contracts/DODOMine.sol\":17816:17837  PoolInfo storage pool */\n      0x00\n        /* \"contracts/DODOMine.sol\":17840:17849  poolInfos */\n      0x04\n        /* \"contracts/DODOMine.sol\":17850:17854  _pid */\n      dup3\n        /* \"contracts/DODOMine.sol\":17840:17855  poolInfos[_pid] */\n      dup2\n      sload\n      dup2\n      lt\n      tag_214\n      jumpi\n      tag_215\n      tag_156\n      jump\t// in\n    tag_215:\n    tag_214:\n      swap1\n      0x00\n      mstore\n      keccak256(0x00, 0x20)\n      swap1\n      0x04\n      mul\n      add\n        /* \"contracts/DODOMine.sol\":17816:17855  PoolInfo storage pool = poolInfos[_pid] */\n      swap1\n      pop\n        /* \"contracts/DODOMine.sol\":17886:17890  pool */\n      dup1\n        /* \"contracts/DODOMine.sol\":17886:17906  pool.lastRewardBlock */\n      0x02\n      add\n      sload\n        /* \"contracts/DODOMine.sol\":17870:17882  block.number */\n      number\n        /* \"contracts/DODOMine.sol\":17870:17906  block.number <= pool.lastRewardBlock */\n      gt\n        /* \"contracts/DODOMine.sol\":17866:17941  if (block.number <= pool.lastRewardBlock) {... */\n      tag_217\n      jumpi\n        /* \"contracts/DODOMine.sol\":17923:17930  return; */\n      pop\n      jump(tag_213)\n        /* \"contracts/DODOMine.sol\":17866:17941  if (block.number <= pool.lastRewardBlock) {... */\n    tag_217:\n        /* \"contracts/DODOMine.sol\":17951:17967  uint256 lpSupply */\n      0x00\n        /* \"contracts/DODOMine.sol\":17977:17981  pool */\n      dup2\n        /* \"contracts/DODOMine.sol\":17977:17989  pool.lpToken */\n      0x00\n      add\n      0x00\n      swap1\n      sload\n      swap1\n      0x0100\n      exp\n      swap1\n      div\n      0xffffffffffffffffffffffffffffffffffffffff\n      and\n        /* \"contracts/DODOMine.sol\":17970:18000  IERC20(pool.lpToken).balanceOf */\n      0xffffffffffffffffffffffffffffffffffffffff\n      and\n      0x70a08231\n        /* \"contracts/DODOMine.sol\":18009:18013  this */\n      address\n        /* \"contracts/DODOMine.sol\":17970:18015  IERC20(pool.lpToken).balanceOf(address(this)) */\n      mload(0x40)\n      dup3\n      0xffffffff\n      and\n      0xe0\n      shl\n      dup2\n      mstore\n      0x04\n      add\n      tag_218\n      swap2\n      swap1\n      tag_47\n      jump\t// in\n    tag_218:\n      0x20\n      mload(0x40)\n      dup1\n      dup4\n      sub\n      dup2\n      dup7\n      dup1\n      extcodesize\n      iszero\n      dup1\n      iszero\n      tag_219\n      jumpi\n      0x00\n      dup1\n      revert\n    tag_219:\n      pop\n      gas\n      staticcall\n      iszero\n      dup1\n      iszero\n      tag_221\n      jumpi\n      returndatasize\n      0x00\n      dup1\n      returndatacopy\n      revert(0x00, returndatasize)\n    tag_221:\n      pop\n      pop\n      pop\n      pop\n      mload(0x40)\n      returndatasize\n      not(0x1f)\n      0x1f\n      dup3\n      add\n      and\n      dup3\n      add\n      dup1\n      0x40\n      mstore\n      pop\n      dup2\n      add\n      swap1\n      tag_222\n      swap2\n      swap1\n      tag_223\n      jump\t// in\n    tag_222:\n        /* \"contracts/DODOMine.sol\":17951:18015  uint256 lpSupply = IERC20(pool.lpToken).balanceOf(address(this)) */\n      swap1\n      pop\n        /* \"contracts/DODOMine.sol\":18042:18043  0 */\n      0x00\n        /* \"contracts/DODOMine.sol\":18030:18038  lpSupply */\n      dup2\n        /* \"contracts/DODOMine.sol\":18030:18043  lpSupply == 0 */\n      eq\n        /* \"contracts/DODOMine.sol\":18026:18128  if (lpSupply == 0) {... */\n      iszero\n      tag_224\n      jumpi\n        /* \"contracts/DODOMine.sol\":18083:18095  block.number */\n      number\n        /* \"contracts/DODOMine.sol\":18060:18064  pool */\n      dup3\n        /* \"contracts/DODOMine.sol\":18060:18080  pool.lastRewardBlock */\n      0x02\n      add\n        /* \"contracts/DODOMine.sol\":18060:18095  pool.lastRewardBlock = block.number */\n      dup2\n      swap1\n      sstore\n      pop\n        /* \"contracts/DODOMine.sol\":18110:18117  return; */\n      pop\n      pop\n      jump(tag_213)\n        /* \"contracts/DODOMine.sol\":18026:18128  if (lpSupply == 0) {... */\n    tag_224:\n        /* \"contracts/DODOMine.sol\":18138:18156  uint256 DODOReward */\n      0x00\n        /* \"contracts/DODOMine.sol\":18159:18327  block... */\n      tag_225\n        /* \"contracts/DODOMine.sol\":18311:18326  totalAllocPoint */\n      sload(0x08)\n        /* \"contracts/DODOMine.sol\":18159:18292  block... */\n      tag_226\n        /* \"contracts/DODOMine.sol\":18276:18280  pool */\n      dup6\n        /* \"contracts/DODOMine.sol\":18276:18291  pool.allocPoint */\n      0x01\n      add\n      sload\n        /* \"contracts/DODOMine.sol\":18159:18257  block... */\n      tag_227\n        /* \"contracts/DODOMine.sol\":18244:18256  dodoPerBlock */\n      sload(0x03)\n        /* \"contracts/DODOMine.sol\":18159:18225  block... */\n      tag_228\n        /* \"contracts/DODOMine.sol\":18204:18208  pool */\n      dup10\n        /* \"contracts/DODOMine.sol\":18204:18224  pool.lastRewardBlock */\n      0x02\n      add\n      sload\n        /* \"contracts/DODOMine.sol\":18159:18185  block... */\n      number\n        /* \"contracts/DODOMine.sol\":18159:18203  block... */\n      tag_166\n      swap1\n        /* \"contracts/DODOMine.sol\":18159:18225  block... */\n      swap2\n      swap1\n      0xffffffff\n      and\n      jump\t// in\n    tag_228:\n        /* \"contracts/DODOMine.sol\":18159:18243  block... */\n      tag_229\n      swap1\n        /* \"contracts/DODOMine.sol\":18159:18257  block... */\n      swap2\n      swap1\n      0xffffffff\n      and\n      jump\t// in\n    tag_227:\n        /* \"contracts/DODOMine.sol\":18159:18275  block... */\n      tag_229\n      swap1\n        /* \"contracts/DODOMine.sol\":18159:18292  block... */\n      swap2\n      swap1\n      0xffffffff\n      and\n      jump\t// in\n    tag_226:\n        /* \"contracts/DODOMine.sol\":18159:18310  block... */\n      tag_230\n      swap1\n        /* \"contracts/DODOMine.sol\":18159:18327  block... */\n      swap2\n      swap1\n      0xffffffff\n      and\n      jump\t// in\n    tag_225:\n        /* \"contracts/DODOMine.sol\":18138:18327  uint256 DODOReward = block... */\n      swap1\n      pop\n        /* \"contracts/DODOMine.sol\":18361:18429  pool.accDODOPerShare.add(DecimalMath.divFloor(DODOReward, lpSupply)) */\n      tag_231\n        /* \"contracts/DODOMine.sol\":18386:18428  DecimalMath.divFloor(DODOReward, lpSupply) */\n      tag_232\n        /* \"contracts/DODOMine.sol\":18407:18417  DODOReward */\n      dup3\n        /* \"contracts/DODOMine.sol\":18419:18427  lpSupply */\n      dup5\n        /* \"contracts/DODOMine.sol\":18386:18406  DecimalMath.divFloor */\n      tag_233\n        /* \"contracts/DODOMine.sol\":18386:18428  DecimalMath.divFloor(DODOReward, lpSupply) */\n      jump\t// in\n    tag_232:\n        /* \"contracts/DODOMine.sol\":18361:18365  pool */\n      dup5\n        /* \"contracts/DODOMine.sol\":18361:18381  pool.accDODOPerShare */\n      0x03\n      add\n      sload\n        /* \"contracts/DODOMine.sol\":18361:18385  pool.accDODOPerShare.add */\n      tag_183\n      swap1\n        /* \"contracts/DODOMine.sol\":18361:18429  pool.accDODOPerShare.add(DecimalMath.divFloor(DODOReward, lpSupply)) */\n      swap2\n      swap1\n      0xffffffff\n      and\n      jump\t// in\n    tag_231:\n        /* \"contracts/DODOMine.sol\":18338:18342  pool */\n      dup4\n        /* \"contracts/DODOMine.sol\":18338:18358  pool.accDODOPerShare */\n      0x03\n      add\n        /* \"contracts/DODOMine.sol\":18338:18429  pool.accDODOPerShare = pool.accDODOPerShare.add(DecimalMath.divFloor(DODOReward, lpSupply)) */\n      dup2\n      swap1\n      sstore\n      pop\n        /* \"contracts/DODOMine.sol\":18463:18475  block.number */\n      number\n        /* \"contracts/DODOMine.sol\":18440:18444  pool */\n      dup4\n        /* \"contracts/DODOMine.sol\":18440:18460  pool.lastRewardBlock */\n      0x02\n      add\n        /* \"contracts/DODOMine.sol\":18440:18475  pool.lastRewardBlock = block.number */\n      dup2\n      swap1\n      sstore\n      pop\n        /* \"contracts/DODOMine.sol\":17805:18483  {... */\n      pop\n      pop\n      pop\n        /* \"contracts/DODOMine.sol\":17764:18483  function updatePool(uint256 _pid) public {... */\n    tag_213:\n      pop\n      jump\t// out\n        /* \"contracts/DODOMine.sol\":17507:17688  function massUpdatePools() public {... */\n    tag_86:\n        /* \"contracts/DODOMine.sol\":17552:17566  uint256 length */\n      0x00\n        /* \"contracts/DODOMine.sol\":17569:17578  poolInfos */\n      0x04\n        /* \"contracts/DODOMine.sol\":17569:17585  poolInfos.length */\n      dup1\n      sload\n      swap1\n      pop\n        /* \"contracts/DODOMine.sol\":17552:17585  uint256 length = poolInfos.length */\n      swap1\n      pop\n        /* \"contracts/DODOMine.sol\":17601:17612  uint256 pid */\n      0x00\n        /* \"contracts/DODOMine.sol\":17596:17681  for (uint256 pid = 0; pid < length; ++pid) {... */\n    tag_235:\n        /* \"contracts/DODOMine.sol\":17624:17630  length */\n      dup2\n        /* \"contracts/DODOMine.sol\":17618:17621  pid */\n      dup2\n        /* \"contracts/DODOMine.sol\":17618:17630  pid < length */\n      lt\n        /* \"contracts/DODOMine.sol\":17596:17681  for (uint256 pid = 0; pid < length; ++pid) {... */\n      iszero\n      tag_236\n      jumpi\n        /* \"contracts/DODOMine.sol\":17654:17669  updatePool(pid) */\n      tag_238\n        /* \"contracts/DODOMine.sol\":17665:17668  pid */\n      dup2\n        /* \"contracts/DODOMine.sol\":17654:17664  updatePool */\n      tag_84\n        /* \"contracts/DODOMine.sol\":17654:17669  updatePool(pid) */\n      jump\t// in\n    tag_238:\n        /* \"contracts/DODOMine.sol\":17632:17637  ++pid */\n      dup1\n      tag_239\n      swap1\n      tag_240\n      jump\t// in\n    tag_239:\n      swap1\n      pop\n        /* \"contracts/DODOMine.sol\":17596:17681  for (uint256 pid = 0; pid < length; ++pid) {... */\n      jump(tag_235)\n    tag_236:\n      pop\n        /* \"contracts/DODOMine.sol\":17541:17688  {... */\n      pop\n        /* \"contracts/DODOMine.sol\":17507:17688  function massUpdatePools() public {... */\n      jump\t// out\n        /* \"contracts/DODOMine.sol\":11749:11776  PoolInfo[] public poolInfos */\n    tag_89:\n      0x04\n      dup2\n      dup2\n      sload\n      dup2\n      lt\n      tag_241\n      jumpi\n      0x00\n      dup1\n      revert\n    tag_241:\n      swap1\n      0x00\n      mstore\n      keccak256(0x00, 0x20)\n      swap1\n      0x04\n      mul\n      add\n      0x00\n      swap2\n      pop\n      swap1\n      pop\n      dup1\n      0x00\n      add\n      0x00\n      swap1\n      sload\n      swap1\n      0x0100\n      exp\n      swap1\n      div\n      0xffffffffffffffffffffffffffffffffffffffff\n      and\n      swap1\n      dup1\n      0x01\n      add\n      sload\n      swap1\n      dup1\n      0x02\n      add\n      sload\n      swap1\n      dup1\n      0x03\n      add\n      sload\n      swap1\n      pop\n      dup5\n      jump\t// out\n        /* \"contracts/DODOMine.sol\":16999:17120  function getRealizedReward(address _user) external view returns (uint256) {... */\n    tag_94:\n        /* \"contracts/DODOMine.sol\":17064:17071  uint256 */\n      0x00\n        /* \"contracts/DODOMine.sol\":17091:17105  realizedReward */\n      0x07\n        /* \"contracts/DODOMine.sol\":17091:17112  realizedReward[_user] */\n      0x00\n        /* \"contracts/DODOMine.sol\":17106:17111  _user */\n      dup4\n        /* \"contracts/DODOMine.sol\":17091:17112  realizedReward[_user] */\n      0xffffffffffffffffffffffffffffffffffffffff\n      and\n      0xffffffffffffffffffffffffffffffffffffffff\n      and\n      dup2\n      mstore\n      0x20\n      add\n      swap1\n      dup2\n      mstore\n      0x20\n      add\n      0x00\n      keccak256\n      sload\n        /* \"contracts/DODOMine.sol\":17084:17112  return realizedReward[_user] */\n      swap1\n      pop\n        /* \"contracts/DODOMine.sol\":16999:17120  function getRealizedReward(address _user) external view returns (uint256) {... */\n      swap2\n      swap1\n      pop\n      jump\t// out\n        /* \"contracts/DODOMine.sol\":20302:20646  function emergencyWithdraw(address _lpToken) public {... */\n    tag_98:\n        /* \"contracts/DODOMine.sol\":20365:20376  uint256 pid */\n      0x00\n        /* \"contracts/DODOMine.sol\":20379:20395  getPid(_lpToken) */\n      tag_245\n        /* \"contracts/DODOMine.sol\":20386:20394  _lpToken */\n      dup3\n        /* \"contracts/DODOMine.sol\":20379:20385  getPid */\n      tag_70\n        /* \"contracts/DODOMine.sol\":20379:20395  getPid(_lpToken) */\n      jump\t// in\n    tag_245:\n        /* \"contracts/DODOMine.sol\":20365:20395  uint256 pid = getPid(_lpToken) */\n      swap1\n      pop\n        /* \"contracts/DODOMine.sol\":20406:20427  PoolInfo storage pool */\n      0x00\n        /* \"contracts/DODOMine.sol\":20430:20439  poolInfos */\n      0x04\n        /* \"contracts/DODOMine.sol\":20440:20443  pid */\n      dup3\n        /* \"contracts/DODOMine.sol\":20430:20444  poolInfos[pid] */\n      dup2\n      sload\n      dup2\n      lt\n      tag_246\n      jumpi\n      tag_247\n      tag_156\n      jump\t// in\n    tag_247:\n    tag_246:\n      swap1\n      0x00\n      mstore\n      keccak256(0x00, 0x20)\n      swap1\n      0x04\n      mul\n      add\n        /* \"contracts/DODOMine.sol\":20406:20444  PoolInfo storage pool = poolInfos[pid] */\n      swap1\n      pop\n        /* \"contracts/DODOMine.sol\":20455:20476  UserInfo storage user */\n      0x00\n        /* \"contracts/DODOMine.sol\":20479:20487  userInfo */\n      0x06\n        /* \"contracts/DODOMine.sol\":20479:20492  userInfo[pid] */\n      0x00\n        /* \"contracts/DODOMine.sol\":20488:20491  pid */\n      dup5\n        /* \"contracts/DODOMine.sol\":20479:20492  userInfo[pid] */\n      dup2\n      mstore\n      0x20\n      add\n      swap1\n      dup2\n      mstore\n      0x20\n      add\n      0x00\n      keccak256\n        /* \"contracts/DODOMine.sol\":20479:20504  userInfo[pid][msg.sender] */\n      0x00\n        /* \"contracts/DODOMine.sol\":20493:20503  msg.sender */\n      caller\n        /* \"contracts/DODOMine.sol\":20479:20504  userInfo[pid][msg.sender] */\n      0xffffffffffffffffffffffffffffffffffffffff\n      and\n      0xffffffffffffffffffffffffffffffffffffffff\n      and\n      dup2\n      mstore\n      0x20\n      add\n      swap1\n      dup2\n      mstore\n      0x20\n      add\n      0x00\n      keccak256\n        /* \"contracts/DODOMine.sol\":20455:20504  UserInfo storage user = userInfo[pid][msg.sender] */\n      swap1\n      pop\n        /* \"contracts/DODOMine.sol\":20515:20582  IERC20(pool.lpToken).safeTransfer(address(msg.sender), user.amount) */\n      tag_249\n        /* \"contracts/DODOMine.sol\":20557:20567  msg.sender */\n      caller\n        /* \"contracts/DODOMine.sol\":20570:20574  user */\n      dup3\n        /* \"contracts/DODOMine.sol\":20570:20581  user.amount */\n      0x00\n      add\n      sload\n        /* \"contracts/DODOMine.sol\":20522:20526  pool */\n      dup5\n        /* \"contracts/DODOMine.sol\":20522:20534  pool.lpToken */\n      0x00\n      add\n      0x00\n      swap1\n      sload\n      swap1\n      0x0100\n      exp\n      swap1\n      div\n      0xffffffffffffffffffffffffffffffffffffffff\n      and\n        /* \"contracts/DODOMine.sol\":20515:20548  IERC20(pool.lpToken).safeTransfer */\n      0xffffffffffffffffffffffffffffffffffffffff\n      and\n      tag_250\n      swap1\n        /* \"contracts/DODOMine.sol\":20515:20582  IERC20(pool.lpToken).safeTransfer(address(msg.sender), user.amount) */\n      swap3\n      swap2\n      swap1\n      0xffffffff\n      and\n      jump\t// in\n    tag_249:\n        /* \"contracts/DODOMine.sol\":20607:20608  0 */\n      0x00\n        /* \"contracts/DODOMine.sol\":20593:20597  user */\n      dup2\n        /* \"contracts/DODOMine.sol\":20593:20604  user.amount */\n      0x00\n      add\n        /* \"contracts/DODOMine.sol\":20593:20608  user.amount = 0 */\n      dup2\n      swap1\n      sstore\n      pop\n        /* \"contracts/DODOMine.sol\":20637:20638  0 */\n      0x00\n        /* \"contracts/DODOMine.sol\":20619:20623  user */\n      dup2\n        /* \"contracts/DODOMine.sol\":20619:20634  user.rewardDebt */\n      0x01\n      add\n        /* \"contracts/DODOMine.sol\":20619:20638  user.rewardDebt = 0 */\n      dup2\n      swap1\n      sstore\n      pop\n        /* \"contracts/DODOMine.sol\":20354:20646  {... */\n      pop\n      pop\n      pop\n        /* \"contracts/DODOMine.sol\":20302:20646  function emergencyWithdraw(address _lpToken) public {... */\n      pop\n      jump\t// out\n        /* \"contracts/DODOMine.sol\":14640:14837  function setReward(uint256 _dodoPerBlock, bool _withUpdate) external onlyOwner {... */\n    tag_102:\n        /* \"contracts/DODOMine.sol\":811:818  _OWNER_ */\n      0x00\n      dup1\n      sload\n      swap1\n      0x0100\n      exp\n      swap1\n      div\n      0xffffffffffffffffffffffffffffffffffffffff\n      and\n        /* \"contracts/DODOMine.sol\":797:818  msg.sender == _OWNER_ */\n      0xffffffffffffffffffffffffffffffffffffffff\n      and\n        /* \"contracts/DODOMine.sol\":797:807  msg.sender */\n      caller\n        /* \"contracts/DODOMine.sol\":797:818  msg.sender == _OWNER_ */\n      0xffffffffffffffffffffffffffffffffffffffff\n      and\n      eq\n        /* \"contracts/DODOMine.sol\":789:832  require(msg.sender == _OWNER_, \"NOT_OWNER\") */\n      tag_252\n      jumpi\n      mload(0x40)\n      0x08c379a000000000000000000000000000000000000000000000000000000000\n      dup2\n      mstore\n      0x04\n      add\n      tag_253\n      swap1\n      tag_173\n      jump\t// in\n    tag_253:\n      mload(0x40)\n      dup1\n      swap2\n      sub\n      swap1\n      revert\n    tag_252:\n        /* \"contracts/DODOMine.sol\":14734:14745  _withUpdate */\n      dup1\n        /* \"contracts/DODOMine.sol\":14730:14791  if (_withUpdate) {... */\n      iszero\n      tag_255\n      jumpi\n        /* \"contracts/DODOMine.sol\":14762:14779  massUpdatePools() */\n      tag_256\n        /* \"contracts/DODOMine.sol\":14762:14777  massUpdatePools */\n      tag_86\n        /* \"contracts/DODOMine.sol\":14762:14779  massUpdatePools() */\n      jump\t// in\n    tag_256:\n        /* \"contracts/DODOMine.sol\":14730:14791  if (_withUpdate) {... */\n    tag_255:\n        /* \"contracts/DODOMine.sol\":14816:14829  _dodoPerBlock */\n      dup2\n        /* \"contracts/DODOMine.sol\":14801:14813  dodoPerBlock */\n      0x03\n        /* \"contracts/DODOMine.sol\":14801:14829  dodoPerBlock = _dodoPerBlock */\n      dup2\n      swap1\n      sstore\n      pop\n        /* \"contracts/DODOMine.sol\":14640:14837  function setReward(uint256 _dodoPerBlock, bool _withUpdate) external onlyOwner {... */\n      pop\n      pop\n      jump\t// out\n        /* \"contracts/DODOMine.sol\":444:470  address public _NEW_OWNER_ */\n    tag_104:\n      0x01\n      0x00\n      swap1\n      sload\n      swap1\n      0x0100\n      exp\n      swap1\n      div\n      0xffffffffffffffffffffffffffffffffffffffff\n      and\n      dup2\n      jump\t// out\n        /* \"contracts/DODOMine.sol\":11686:11713  uint256 public dodoPerBlock */\n    tag_107:\n      sload(0x03)\n      dup2\n      jump\t// out\n        /* \"contracts/DODOMine.sol\":11891:11955  mapping(uint256 => mapping(address => UserInfo)) public userInfo */\n    tag_112:\n      mstore(0x20, 0x06)\n      dup2\n      0x00\n      mstore\n      mstore(0x20, keccak256(0x00, 0x40))\n      dup1\n      0x00\n      mstore\n      keccak256(0x00, 0x40)\n      0x00\n      swap2\n      pop\n      swap2\n      pop\n      pop\n      dup1\n      0x00\n      add\n      sload\n      swap1\n      dup1\n      0x01\n      add\n      sload\n      swap1\n      pop\n      dup3\n      jump\t// out\n        /* \"contracts/DODOMine.sol\":11649:11679  address public dodoRewardVault */\n    tag_116:\n      0x02\n      0x00\n      swap1\n      sload\n      swap1\n      0x0100\n      exp\n      swap1\n      div\n      0xffffffffffffffffffffffffffffffffffffffff\n      and\n      dup2\n      jump\t// out\n        /* \"contracts/DODOMine.sol\":13553:14234  function addLpToken(... */\n    tag_120:\n        /* \"contracts/DODOMine.sol\":13687:13695  _lpToken */\n      dup3\n        /* \"contracts/DODOMine.sol\":12965:12966  0 */\n      0x00\n        /* \"contracts/DODOMine.sol\":12937:12952  lpTokenRegistry */\n      0x05\n        /* \"contracts/DODOMine.sol\":12937:12961  lpTokenRegistry[lpToken] */\n      0x00\n        /* \"contracts/DODOMine.sol\":12953:12960  lpToken */\n      dup4\n        /* \"contracts/DODOMine.sol\":12937:12961  lpTokenRegistry[lpToken] */\n      0xffffffffffffffffffffffffffffffffffffffff\n      and\n      0xffffffffffffffffffffffffffffffffffffffff\n      and\n      dup2\n      mstore\n      0x20\n      add\n      swap1\n      dup2\n      mstore\n      0x20\n      add\n      0x00\n      keccak256\n      sload\n        /* \"contracts/DODOMine.sol\":12937:12966  lpTokenRegistry[lpToken] == 0 */\n      eq\n        /* \"contracts/DODOMine.sol\":12929:12993  require(lpTokenRegistry[lpToken] == 0, \"LP Token Already Exist\") */\n      tag_258\n      jumpi\n      mload(0x40)\n      0x08c379a000000000000000000000000000000000000000000000000000000000\n      dup2\n      mstore\n      0x04\n      add\n      tag_259\n      swap1\n      tag_260\n      jump\t// in\n    tag_259:\n      mload(0x40)\n      dup1\n      swap2\n      sub\n      swap1\n      revert\n    tag_258:\n        /* \"contracts/DODOMine.sol\":811:818  _OWNER_ */\n      0x00\n      dup1\n      sload\n      swap1\n      0x0100\n      exp\n      swap1\n      div\n      0xffffffffffffffffffffffffffffffffffffffff\n      and\n        /* \"contracts/DODOMine.sol\":797:818  msg.sender == _OWNER_ */\n      0xffffffffffffffffffffffffffffffffffffffff\n      and\n        /* \"contracts/DODOMine.sol\":797:807  msg.sender */\n      caller\n        /* \"contracts/DODOMine.sol\":797:818  msg.sender == _OWNER_ */\n      0xffffffffffffffffffffffffffffffffffffffff\n      and\n      eq\n        /* \"contracts/DODOMine.sol\":789:832  require(msg.sender == _OWNER_, \"NOT_OWNER\") */\n      tag_262\n      jumpi\n      mload(0x40)\n      0x08c379a000000000000000000000000000000000000000000000000000000000\n      dup2\n      mstore\n      0x04\n      add\n      tag_263\n      swap1\n      tag_173\n      jump\t// in\n    tag_263:\n      mload(0x40)\n      dup1\n      swap2\n      sub\n      swap1\n      revert\n    tag_262:\n        /* \"contracts/DODOMine.sol\":13722:13733  _withUpdate */\n      dup2\n        /* \"contracts/DODOMine.sol\":13718:13779  if (_withUpdate) {... */\n      iszero\n      tag_265\n      jumpi\n        /* \"contracts/DODOMine.sol\":13750:13767  massUpdatePools() */\n      tag_266\n        /* \"contracts/DODOMine.sol\":13750:13765  massUpdatePools */\n      tag_86\n        /* \"contracts/DODOMine.sol\":13750:13767  massUpdatePools() */\n      jump\t// in\n    tag_266:\n        /* \"contracts/DODOMine.sol\":13718:13779  if (_withUpdate) {... */\n    tag_265:\n        /* \"contracts/DODOMine.sol\":13789:13812  uint256 lastRewardBlock */\n      0x00\n        /* \"contracts/DODOMine.sol\":13830:13840  startBlock */\n      sload(0x09)\n        /* \"contracts/DODOMine.sol\":13815:13827  block.number */\n      number\n        /* \"contracts/DODOMine.sol\":13815:13840  block.number > startBlock */\n      gt\n        /* \"contracts/DODOMine.sol\":13815:13868  block.number > startBlock ? block.number : startBlock */\n      tag_267\n      jumpi\n        /* \"contracts/DODOMine.sol\":13858:13868  startBlock */\n      sload(0x09)\n        /* \"contracts/DODOMine.sol\":13815:13868  block.number > startBlock ? block.number : startBlock */\n      jump(tag_268)\n    tag_267:\n        /* \"contracts/DODOMine.sol\":13843:13855  block.number */\n      number\n        /* \"contracts/DODOMine.sol\":13815:13868  block.number > startBlock ? block.number : startBlock */\n    tag_268:\n        /* \"contracts/DODOMine.sol\":13789:13868  uint256 lastRewardBlock = block.number > startBlock ? block.number : startBlock */\n      swap1\n      pop\n        /* \"contracts/DODOMine.sol\":13897:13929  totalAllocPoint.add(_allocPoint) */\n      tag_269\n        /* \"contracts/DODOMine.sol\":13917:13928  _allocPoint */\n      dup5\n        /* \"contracts/DODOMine.sol\":13897:13912  totalAllocPoint */\n      sload(0x08)\n        /* \"contracts/DODOMine.sol\":13897:13916  totalAllocPoint.add */\n      tag_183\n      swap1\n        /* \"contracts/DODOMine.sol\":13897:13929  totalAllocPoint.add(_allocPoint) */\n      swap2\n      swap1\n      0xffffffff\n      and\n      jump\t// in\n    tag_269:\n        /* \"contracts/DODOMine.sol\":13879:13894  totalAllocPoint */\n      0x08\n        /* \"contracts/DODOMine.sol\":13879:13929  totalAllocPoint = totalAllocPoint.add(_allocPoint) */\n      dup2\n      swap1\n      sstore\n      pop\n        /* \"contracts/DODOMine.sol\":13940:13949  poolInfos */\n      0x04\n        /* \"contracts/DODOMine.sol\":13969:14160  PoolInfo({... */\n      mload(0x40)\n      dup1\n      0x80\n      add\n      0x40\n      mstore\n      dup1\n        /* \"contracts/DODOMine.sol\":14006:14014  _lpToken */\n      dup8\n        /* \"contracts/DODOMine.sol\":13969:14160  PoolInfo({... */\n      0xffffffffffffffffffffffffffffffffffffffff\n      and\n      dup2\n      mstore\n      0x20\n      add\n        /* \"contracts/DODOMine.sol\":14045:14056  _allocPoint */\n      dup7\n        /* \"contracts/DODOMine.sol\":13969:14160  PoolInfo({... */\n      dup2\n      mstore\n      0x20\n      add\n        /* \"contracts/DODOMine.sol\":14092:14107  lastRewardBlock */\n      dup4\n        /* \"contracts/DODOMine.sol\":13969:14160  PoolInfo({... */\n      dup2\n      mstore\n      0x20\n      add\n        /* \"contracts/DODOMine.sol\":14143:14144  0 */\n      0x00\n        /* \"contracts/DODOMine.sol\":13969:14160  PoolInfo({... */\n      dup2\n      mstore\n      pop\n        /* \"contracts/DODOMine.sol\":13940:14171  poolInfos.push(... */\n      swap1\n      dup1\n      0x01\n      dup2\n      sload\n      add\n      dup1\n      dup3\n      sstore\n      dup1\n      swap2\n      pop\n      pop\n      0x01\n      swap1\n      sub\n      swap1\n      0x00\n      mstore\n      keccak256(0x00, 0x20)\n      swap1\n      0x04\n      mul\n      add\n      0x00\n      swap1\n      swap2\n      swap1\n      swap2\n      swap1\n      swap2\n      pop\n      0x00\n      dup3\n      add\n      mload\n      dup2\n      0x00\n      add\n      exp(0x0100, 0x00)\n      dup2\n      sload\n      dup2\n      0xffffffffffffffffffffffffffffffffffffffff\n      mul\n      not\n      and\n      swap1\n      dup4\n      0xffffffffffffffffffffffffffffffffffffffff\n      and\n      mul\n      or\n      swap1\n      sstore\n      pop\n      0x20\n      dup3\n      add\n      mload\n      dup2\n      0x01\n      add\n      sstore\n      0x40\n      dup3\n      add\n      mload\n      dup2\n      0x02\n      add\n      sstore\n      0x60\n      dup3\n      add\n      mload\n      dup2\n      0x03\n      add\n      sstore\n      pop\n      pop\n        /* \"contracts/DODOMine.sol\":14210:14219  poolInfos */\n      0x04\n        /* \"contracts/DODOMine.sol\":14210:14226  poolInfos.length */\n      dup1\n      sload\n      swap1\n      pop\n        /* \"contracts/DODOMine.sol\":14182:14197  lpTokenRegistry */\n      0x05\n        /* \"contracts/DODOMine.sol\":14182:14207  lpTokenRegistry[_lpToken] */\n      0x00\n        /* \"contracts/DODOMine.sol\":14198:14206  _lpToken */\n      dup8\n        /* \"contracts/DODOMine.sol\":14182:14207  lpTokenRegistry[_lpToken] */\n      0xffffffffffffffffffffffffffffffffffffffff\n      and\n      0xffffffffffffffffffffffffffffffffffffffff\n      and\n      dup2\n      mstore\n      0x20\n      add\n      swap1\n      dup2\n      mstore\n      0x20\n      add\n      0x00\n      keccak256\n        /* \"contracts/DODOMine.sol\":14182:14226  lpTokenRegistry[_lpToken] = poolInfos.length */\n      dup2\n      swap1\n      sstore\n      pop\n        /* \"contracts/DODOMine.sol\":13707:14234  {... */\n      pop\n        /* \"contracts/DODOMine.sol\":13553:14234  function addLpToken(... */\n      pop\n      pop\n      pop\n      pop\n      jump\t// out\n        /* \"contracts/DODOMine.sol\":21245:21984  function claimAll() public {... */\n    tag_122:\n        /* \"contracts/DODOMine.sol\":21283:21297  uint256 length */\n      0x00\n        /* \"contracts/DODOMine.sol\":21300:21309  poolInfos */\n      0x04\n        /* \"contracts/DODOMine.sol\":21300:21316  poolInfos.length */\n      dup1\n      sload\n      swap1\n      pop\n        /* \"contracts/DODOMine.sol\":21283:21316  uint256 length = poolInfos.length */\n      swap1\n      pop\n        /* \"contracts/DODOMine.sol\":21327:21342  uint256 pending */\n      0x00\n        /* \"contracts/DODOMine.sol\":21362:21373  uint256 pid */\n      dup1\n        /* \"contracts/DODOMine.sol\":21357:21929  for (uint256 pid = 0; pid < length; ++pid) {... */\n    tag_272:\n        /* \"contracts/DODOMine.sol\":21385:21391  length */\n      dup3\n        /* \"contracts/DODOMine.sol\":21379:21382  pid */\n      dup2\n        /* \"contracts/DODOMine.sol\":21379:21391  pid < length */\n      lt\n        /* \"contracts/DODOMine.sol\":21357:21929  for (uint256 pid = 0; pid < length; ++pid) {... */\n      iszero\n      tag_273\n      jumpi\n        /* \"contracts/DODOMine.sol\":21455:21456  0 */\n      0x00\n        /* \"contracts/DODOMine.sol\":21419:21427  userInfo */\n      0x06\n        /* \"contracts/DODOMine.sol\":21419:21432  userInfo[pid] */\n      0x00\n        /* \"contracts/DODOMine.sol\":21428:21431  pid */\n      dup4\n        /* \"contracts/DODOMine.sol\":21419:21432  userInfo[pid] */\n      dup2\n      mstore\n      0x20\n      add\n      swap1\n      dup2\n      mstore\n      0x20\n      add\n      0x00\n      keccak256\n        /* \"contracts/DODOMine.sol\":21419:21444  userInfo[pid][msg.sender] */\n      0x00\n        /* \"contracts/DODOMine.sol\":21433:21443  msg.sender */\n      caller\n        /* \"contracts/DODOMine.sol\":21419:21444  userInfo[pid][msg.sender] */\n      0xffffffffffffffffffffffffffffffffffffffff\n      and\n      0xffffffffffffffffffffffffffffffffffffffff\n      and\n      dup2\n      mstore\n      0x20\n      add\n      swap1\n      dup2\n      mstore\n      0x20\n      add\n      0x00\n      keccak256\n        /* \"contracts/DODOMine.sol\":21419:21451  userInfo[pid][msg.sender].amount */\n      0x00\n      add\n      sload\n        /* \"contracts/DODOMine.sol\":21419:21456  userInfo[pid][msg.sender].amount == 0 */\n      eq\n        /* \"contracts/DODOMine.sol\":21419:21490  userInfo[pid][msg.sender].amount == 0 || poolInfos[pid].allocPoint == 0 */\n      dup1\n      tag_275\n      jumpi\n      pop\n        /* \"contracts/DODOMine.sol\":21489:21490  0 */\n      0x00\n        /* \"contracts/DODOMine.sol\":21460:21469  poolInfos */\n      0x04\n        /* \"contracts/DODOMine.sol\":21470:21473  pid */\n      dup3\n        /* \"contracts/DODOMine.sol\":21460:21474  poolInfos[pid] */\n      dup2\n      sload\n      dup2\n      lt\n      tag_276\n      jumpi\n      tag_277\n      tag_156\n      jump\t// in\n    tag_277:\n    tag_276:\n      swap1\n      0x00\n      mstore\n      keccak256(0x00, 0x20)\n      swap1\n      0x04\n      mul\n      add\n        /* \"contracts/DODOMine.sol\":21460:21485  poolInfos[pid].allocPoint */\n      0x01\n      add\n      sload\n        /* \"contracts/DODOMine.sol\":21460:21490  poolInfos[pid].allocPoint == 0 */\n      eq\n        /* \"contracts/DODOMine.sol\":21419:21490  userInfo[pid][msg.sender].amount == 0 || poolInfos[pid].allocPoint == 0 */\n    tag_275:\n        /* \"contracts/DODOMine.sol\":21415:21547  if (userInfo[pid][msg.sender].amount == 0 || poolInfos[pid].allocPoint == 0) {... */\n      iszero\n      tag_279\n      jumpi\n        /* \"contracts/DODOMine.sol\":21511:21519  continue */\n      jump(tag_274)\n        /* \"contracts/DODOMine.sol\":21415:21547  if (userInfo[pid][msg.sender].amount == 0 || poolInfos[pid].allocPoint == 0) {... */\n    tag_279:\n        /* \"contracts/DODOMine.sol\":21561:21582  PoolInfo storage pool */\n      0x00\n        /* \"contracts/DODOMine.sol\":21585:21594  poolInfos */\n      0x04\n        /* \"contracts/DODOMine.sol\":21595:21598  pid */\n      dup3\n        /* \"contracts/DODOMine.sol\":21585:21599  poolInfos[pid] */\n      dup2\n      sload\n      dup2\n      lt\n      tag_280\n      jumpi\n      tag_281\n      tag_156\n      jump\t// in\n    tag_281:\n    tag_280:\n      swap1\n      0x00\n      mstore\n      keccak256(0x00, 0x20)\n      swap1\n      0x04\n      mul\n      add\n        /* \"contracts/DODOMine.sol\":21561:21599  PoolInfo storage pool = poolInfos[pid] */\n      swap1\n      pop\n        /* \"contracts/DODOMine.sol\":21614:21635  UserInfo storage user */\n      0x00\n        /* \"contracts/DODOMine.sol\":21638:21646  userInfo */\n      0x06\n        /* \"contracts/DODOMine.sol\":21638:21651  userInfo[pid] */\n      0x00\n        /* \"contracts/DODOMine.sol\":21647:21650  pid */\n      dup5\n        /* \"contracts/DODOMine.sol\":21638:21651  userInfo[pid] */\n      dup2\n      mstore\n      0x20\n      add\n      swap1\n      dup2\n      mstore\n      0x20\n      add\n      0x00\n      keccak256\n        /* \"contracts/DODOMine.sol\":21638:21663  userInfo[pid][msg.sender] */\n      0x00\n        /* \"contracts/DODOMine.sol\":21652:21662  msg.sender */\n      caller\n        /* \"contracts/DODOMine.sol\":21638:21663  userInfo[pid][msg.sender] */\n      0xffffffffffffffffffffffffffffffffffffffff\n      and\n      0xffffffffffffffffffffffffffffffffffffffff\n      and\n      dup2\n      mstore\n      0x20\n      add\n      swap1\n      dup2\n      mstore\n      0x20\n      add\n      0x00\n      keccak256\n        /* \"contracts/DODOMine.sol\":21614:21663  UserInfo storage user = userInfo[pid][msg.sender] */\n      swap1\n      pop\n        /* \"contracts/DODOMine.sol\":21678:21693  updatePool(pid) */\n      tag_283\n        /* \"contracts/DODOMine.sol\":21689:21692  pid */\n      dup4\n        /* \"contracts/DODOMine.sol\":21678:21688  updatePool */\n      tag_84\n        /* \"contracts/DODOMine.sol\":21678:21693  updatePool(pid) */\n      jump\t// in\n    tag_283:\n        /* \"contracts/DODOMine.sol\":21718:21834  pending.add(... */\n      tag_284\n        /* \"contracts/DODOMine.sol\":21748:21819  DecimalMath.mul(user.amount, pool.accDODOPerShare).sub(user.rewardDebt) */\n      tag_285\n        /* \"contracts/DODOMine.sol\":21803:21807  user */\n      dup3\n        /* \"contracts/DODOMine.sol\":21803:21818  user.rewardDebt */\n      0x01\n      add\n      sload\n        /* \"contracts/DODOMine.sol\":21748:21798  DecimalMath.mul(user.amount, pool.accDODOPerShare) */\n      tag_286\n        /* \"contracts/DODOMine.sol\":21764:21768  user */\n      dup5\n        /* \"contracts/DODOMine.sol\":21764:21775  user.amount */\n      0x00\n      add\n      sload\n        /* \"contracts/DODOMine.sol\":21777:21781  pool */\n      dup7\n        /* \"contracts/DODOMine.sol\":21777:21797  pool.accDODOPerShare */\n      0x03\n      add\n      sload\n        /* \"contracts/DODOMine.sol\":21748:21763  DecimalMath.mul */\n      tag_165\n        /* \"contracts/DODOMine.sol\":21748:21798  DecimalMath.mul(user.amount, pool.accDODOPerShare) */\n      jump\t// in\n    tag_286:\n        /* \"contracts/DODOMine.sol\":21748:21802  DecimalMath.mul(user.amount, pool.accDODOPerShare).sub */\n      tag_166\n      swap1\n        /* \"contracts/DODOMine.sol\":21748:21819  DecimalMath.mul(user.amount, pool.accDODOPerShare).sub(user.rewardDebt) */\n      swap2\n      swap1\n      0xffffffff\n      and\n      jump\t// in\n    tag_285:\n        /* \"contracts/DODOMine.sol\":21718:21725  pending */\n      dup6\n        /* \"contracts/DODOMine.sol\":21718:21729  pending.add */\n      tag_183\n      swap1\n        /* \"contracts/DODOMine.sol\":21718:21834  pending.add(... */\n      swap2\n      swap1\n      0xffffffff\n      and\n      jump\t// in\n    tag_284:\n        /* \"contracts/DODOMine.sol\":21708:21834  pending = pending.add(... */\n      swap4\n      pop\n        /* \"contracts/DODOMine.sol\":21867:21917  DecimalMath.mul(user.amount, pool.accDODOPerShare) */\n      tag_287\n        /* \"contracts/DODOMine.sol\":21883:21887  user */\n      dup2\n        /* \"contracts/DODOMine.sol\":21883:21894  user.amount */\n      0x00\n      add\n      sload\n        /* \"contracts/DODOMine.sol\":21896:21900  pool */\n      dup4\n        /* \"contracts/DODOMine.sol\":21896:21916  pool.accDODOPerShare */\n      0x03\n      add\n      sload\n        /* \"contracts/DODOMine.sol\":21867:21882  DecimalMath.mul */\n      tag_165\n        /* \"contracts/DODOMine.sol\":21867:21917  DecimalMath.mul(user.amount, pool.accDODOPerShare) */\n      jump\t// in\n    tag_287:\n        /* \"contracts/DODOMine.sol\":21849:21853  user */\n      dup2\n        /* \"contracts/DODOMine.sol\":21849:21864  user.rewardDebt */\n      0x01\n      add\n        /* \"contracts/DODOMine.sol\":21849:21917  user.rewardDebt = DecimalMath.mul(user.amount, pool.accDODOPerShare) */\n      dup2\n      swap1\n      sstore\n      pop\n        /* \"contracts/DODOMine.sol\":21400:21929  {... */\n      pop\n      pop\n        /* \"contracts/DODOMine.sol\":21357:21929  for (uint256 pid = 0; pid < length; ++pid) {... */\n    tag_274:\n        /* \"contracts/DODOMine.sol\":21393:21398  ++pid */\n      dup1\n      tag_288\n      swap1\n      tag_240\n      jump\t// in\n    tag_288:\n      swap1\n      pop\n        /* \"contracts/DODOMine.sol\":21357:21929  for (uint256 pid = 0; pid < length; ++pid) {... */\n      jump(tag_272)\n    tag_273:\n      pop\n        /* \"contracts/DODOMine.sol\":21939:21976  safeDODOTransfer(msg.sender, pending) */\n      tag_289\n        /* \"contracts/DODOMine.sol\":21956:21966  msg.sender */\n      caller\n        /* \"contracts/DODOMine.sol\":21968:21975  pending */\n      dup3\n        /* \"contracts/DODOMine.sol\":21939:21955  safeDODOTransfer */\n      tag_169\n        /* \"contracts/DODOMine.sol\":21939:21976  safeDODOTransfer(msg.sender, pending) */\n      jump\t// in\n    tag_289:\n        /* \"contracts/DODOMine.sol\":21272:21984  {... */\n      pop\n      pop\n        /* \"contracts/DODOMine.sol\":21245:21984  function claimAll() public {... */\n      jump\t// out\n        /* \"contracts/DODOMine.sol\":11962:12011  mapping(address => uint256) public realizedReward */\n    tag_125:\n      mstore(0x20, 0x07)\n      dup1\n      0x00\n      mstore\n      keccak256(0x00, 0x40)\n      0x00\n      swap2\n      pop\n      swap1\n      pop\n      sload\n      dup2\n      jump\t// out\n        /* \"contracts/DODOMine.sol\":15762:16991  function getAllPendingReward(address _user) external view returns (uint256) {... */\n    tag_129:\n        /* \"contracts/DODOMine.sol\":15829:15836  uint256 */\n      0x00\n        /* \"contracts/DODOMine.sol\":15849:15863  uint256 length */\n      dup1\n        /* \"contracts/DODOMine.sol\":15866:15875  poolInfos */\n      0x04\n        /* \"contracts/DODOMine.sol\":15866:15882  poolInfos.length */\n      dup1\n      sload\n      swap1\n      pop\n        /* \"contracts/DODOMine.sol\":15849:15882  uint256 length = poolInfos.length */\n      swap1\n      pop\n        /* \"contracts/DODOMine.sol\":15893:15912  uint256 totalReward */\n      0x00\n        /* \"contracts/DODOMine.sol\":15932:15943  uint256 pid */\n      dup1\n        /* \"contracts/DODOMine.sol\":15927:16955  for (uint256 pid = 0; pid < length; ++pid) {... */\n    tag_291:\n        /* \"contracts/DODOMine.sol\":15955:15961  length */\n      dup3\n        /* \"contracts/DODOMine.sol\":15949:15952  pid */\n      dup2\n        /* \"contracts/DODOMine.sol\":15949:15961  pid < length */\n      lt\n        /* \"contracts/DODOMine.sol\":15927:16955  for (uint256 pid = 0; pid < length; ++pid) {... */\n      iszero\n      tag_292\n      jumpi\n        /* \"contracts/DODOMine.sol\":16020:16021  0 */\n      0x00\n        /* \"contracts/DODOMine.sol\":15989:15997  userInfo */\n      0x06\n        /* \"contracts/DODOMine.sol\":15989:16002  userInfo[pid] */\n      0x00\n        /* \"contracts/DODOMine.sol\":15998:16001  pid */\n      dup4\n        /* \"contracts/DODOMine.sol\":15989:16002  userInfo[pid] */\n      dup2\n      mstore\n      0x20\n      add\n      swap1\n      dup2\n      mstore\n      0x20\n      add\n      0x00\n      keccak256\n        /* \"contracts/DODOMine.sol\":15989:16009  userInfo[pid][_user] */\n      0x00\n        /* \"contracts/DODOMine.sol\":16003:16008  _user */\n      dup8\n        /* \"contracts/DODOMine.sol\":15989:16009  userInfo[pid][_user] */\n      0xffffffffffffffffffffffffffffffffffffffff\n      and\n      0xffffffffffffffffffffffffffffffffffffffff\n      and\n      dup2\n      mstore\n      0x20\n      add\n      swap1\n      dup2\n      mstore\n      0x20\n      add\n      0x00\n      keccak256\n        /* \"contracts/DODOMine.sol\":15989:16016  userInfo[pid][_user].amount */\n      0x00\n      add\n      sload\n        /* \"contracts/DODOMine.sol\":15989:16021  userInfo[pid][_user].amount == 0 */\n      eq\n        /* \"contracts/DODOMine.sol\":15989:16055  userInfo[pid][_user].amount == 0 || poolInfos[pid].allocPoint == 0 */\n      dup1\n      tag_294\n      jumpi\n      pop\n        /* \"contracts/DODOMine.sol\":16054:16055  0 */\n      0x00\n        /* \"contracts/DODOMine.sol\":16025:16034  poolInfos */\n      0x04\n        /* \"contracts/DODOMine.sol\":16035:16038  pid */\n      dup3\n        /* \"contracts/DODOMine.sol\":16025:16039  poolInfos[pid] */\n      dup2\n      sload\n      dup2\n      lt\n      tag_295\n      jumpi\n      tag_296\n      tag_156\n      jump\t// in\n    tag_296:\n    tag_295:\n      swap1\n      0x00\n      mstore\n      keccak256(0x00, 0x20)\n      swap1\n      0x04\n      mul\n      add\n        /* \"contracts/DODOMine.sol\":16025:16050  poolInfos[pid].allocPoint */\n      0x01\n      add\n      sload\n        /* \"contracts/DODOMine.sol\":16025:16055  poolInfos[pid].allocPoint == 0 */\n      eq\n        /* \"contracts/DODOMine.sol\":15989:16055  userInfo[pid][_user].amount == 0 || poolInfos[pid].allocPoint == 0 */\n    tag_294:\n        /* \"contracts/DODOMine.sol\":15985:16112  if (userInfo[pid][_user].amount == 0 || poolInfos[pid].allocPoint == 0) {... */\n      iszero\n      tag_298\n      jumpi\n        /* \"contracts/DODOMine.sol\":16076:16084  continue */\n      jump(tag_293)\n        /* \"contracts/DODOMine.sol\":15985:16112  if (userInfo[pid][_user].amount == 0 || poolInfos[pid].allocPoint == 0) {... */\n    tag_298:\n        /* \"contracts/DODOMine.sol\":16126:16147  PoolInfo storage pool */\n      0x00\n        /* \"contracts/DODOMine.sol\":16150:16159  poolInfos */\n      0x04\n        /* \"contracts/DODOMine.sol\":16160:16163  pid */\n      dup3\n        /* \"contracts/DODOMine.sol\":16150:16164  poolInfos[pid] */\n      dup2\n      sload\n      dup2\n      lt\n      tag_299\n      jumpi\n      tag_300\n      tag_156\n      jump\t// in\n    tag_300:\n    tag_299:\n      swap1\n      0x00\n      mstore\n      keccak256(0x00, 0x20)\n      swap1\n      0x04\n      mul\n      add\n        /* \"contracts/DODOMine.sol\":16126:16164  PoolInfo storage pool = poolInfos[pid] */\n      swap1\n      pop\n        /* \"contracts/DODOMine.sol\":16179:16200  UserInfo storage user */\n      0x00\n        /* \"contracts/DODOMine.sol\":16203:16211  userInfo */\n      0x06\n        /* \"contracts/DODOMine.sol\":16203:16216  userInfo[pid] */\n      0x00\n        /* \"contracts/DODOMine.sol\":16212:16215  pid */\n      dup5\n        /* \"contracts/DODOMine.sol\":16203:16216  userInfo[pid] */\n      dup2\n      mstore\n      0x20\n      add\n      swap1\n      dup2\n      mstore\n      0x20\n      add\n      0x00\n      keccak256\n        /* \"contracts/DODOMine.sol\":16203:16223  userInfo[pid][_user] */\n      0x00\n        /* \"contracts/DODOMine.sol\":16217:16222  _user */\n      dup9\n        /* \"contracts/DODOMine.sol\":16203:16223  userInfo[pid][_user] */\n      0xffffffffffffffffffffffffffffffffffffffff\n      and\n      0xffffffffffffffffffffffffffffffffffffffff\n      and\n      dup2\n      mstore\n      0x20\n      add\n      swap1\n      dup2\n      mstore\n      0x20\n      add\n      0x00\n      keccak256\n        /* \"contracts/DODOMine.sol\":16179:16223  UserInfo storage user = userInfo[pid][_user] */\n      swap1\n      pop\n        /* \"contracts/DODOMine.sol\":16238:16261  uint256 accDODOPerShare */\n      0x00\n        /* \"contracts/DODOMine.sol\":16264:16268  pool */\n      dup3\n        /* \"contracts/DODOMine.sol\":16264:16284  pool.accDODOPerShare */\n      0x03\n      add\n      sload\n        /* \"contracts/DODOMine.sol\":16238:16284  uint256 accDODOPerShare = pool.accDODOPerShare */\n      swap1\n      pop\n        /* \"contracts/DODOMine.sol\":16299:16315  uint256 lpSupply */\n      0x00\n        /* \"contracts/DODOMine.sol\":16325:16329  pool */\n      dup4\n        /* \"contracts/DODOMine.sol\":16325:16337  pool.lpToken */\n      0x00\n      add\n      0x00\n      swap1\n      sload\n      swap1\n      0x0100\n      exp\n      swap1\n      div\n      0xffffffffffffffffffffffffffffffffffffffff\n      and\n        /* \"contracts/DODOMine.sol\":16318:16348  IERC20(pool.lpToken).balanceOf */\n      0xffffffffffffffffffffffffffffffffffffffff\n      and\n      0x70a08231\n        /* \"contracts/DODOMine.sol\":16357:16361  this */\n      address\n        /* \"contracts/DODOMine.sol\":16318:16363  IERC20(pool.lpToken).balanceOf(address(this)) */\n      mload(0x40)\n      dup3\n      0xffffffff\n      and\n      0xe0\n      shl\n      dup2\n      mstore\n      0x04\n      add\n      tag_302\n      swap2\n      swap1\n      tag_47\n      jump\t// in\n    tag_302:\n      0x20\n      mload(0x40)\n      dup1\n      dup4\n      sub\n      dup2\n      dup7\n      dup1\n      extcodesize\n      iszero\n      dup1\n      iszero\n      tag_303\n      jumpi\n      0x00\n      dup1\n      revert\n    tag_303:\n      pop\n      gas\n      staticcall\n      iszero\n      dup1\n      iszero\n      tag_305\n      jumpi\n      returndatasize\n      0x00\n      dup1\n      returndatacopy\n      revert(0x00, returndatasize)\n    tag_305:\n      pop\n      pop\n      pop\n      pop\n      mload(0x40)\n      returndatasize\n      not(0x1f)\n      0x1f\n      dup3\n      add\n      and\n      dup3\n      add\n      dup1\n      0x40\n      mstore\n      pop\n      dup2\n      add\n      swap1\n      tag_306\n      swap2\n      swap1\n      tag_223\n      jump\t// in\n    tag_306:\n        /* \"contracts/DODOMine.sol\":16299:16363  uint256 lpSupply = IERC20(pool.lpToken).balanceOf(address(this)) */\n      swap1\n      pop\n        /* \"contracts/DODOMine.sol\":16397:16401  pool */\n      dup4\n        /* \"contracts/DODOMine.sol\":16397:16417  pool.lastRewardBlock */\n      0x02\n      add\n      sload\n        /* \"contracts/DODOMine.sol\":16382:16394  block.number */\n      number\n        /* \"contracts/DODOMine.sol\":16382:16417  block.number > pool.lastRewardBlock */\n      gt\n        /* \"contracts/DODOMine.sol\":16382:16434  block.number > pool.lastRewardBlock && lpSupply != 0 */\n      dup1\n      iszero\n      tag_307\n      jumpi\n      pop\n        /* \"contracts/DODOMine.sol\":16433:16434  0 */\n      0x00\n        /* \"contracts/DODOMine.sol\":16421:16429  lpSupply */\n      dup2\n        /* \"contracts/DODOMine.sol\":16421:16434  lpSupply != 0 */\n      eq\n      iszero\n        /* \"contracts/DODOMine.sol\":16382:16434  block.number > pool.lastRewardBlock && lpSupply != 0 */\n    tag_307:\n        /* \"contracts/DODOMine.sol\":16378:16800  if (block.number > pool.lastRewardBlock && lpSupply != 0) {... */\n      iszero\n      tag_308\n      jumpi\n        /* \"contracts/DODOMine.sol\":16455:16473  uint256 DODOReward */\n      0x00\n        /* \"contracts/DODOMine.sol\":16476:16684  block... */\n      tag_309\n        /* \"contracts/DODOMine.sol\":16668:16683  totalAllocPoint */\n      sload(0x08)\n        /* \"contracts/DODOMine.sol\":16476:16641  block... */\n      tag_310\n        /* \"contracts/DODOMine.sol\":16625:16629  pool */\n      dup8\n        /* \"contracts/DODOMine.sol\":16625:16640  pool.allocPoint */\n      0x01\n      add\n      sload\n        /* \"contracts/DODOMine.sol\":16476:16598  block... */\n      tag_311\n        /* \"contracts/DODOMine.sol\":16585:16597  dodoPerBlock */\n      sload(0x03)\n        /* \"contracts/DODOMine.sol\":16476:16558  block... */\n      tag_312\n        /* \"contracts/DODOMine.sol\":16537:16541  pool */\n      dup12\n        /* \"contracts/DODOMine.sol\":16537:16557  pool.lastRewardBlock */\n      0x02\n      add\n      sload\n        /* \"contracts/DODOMine.sol\":16476:16510  block... */\n      number\n        /* \"contracts/DODOMine.sol\":16476:16536  block... */\n      tag_166\n      swap1\n        /* \"contracts/DODOMine.sol\":16476:16558  block... */\n      swap2\n      swap1\n      0xffffffff\n      and\n      jump\t// in\n    tag_312:\n        /* \"contracts/DODOMine.sol\":16476:16584  block... */\n      tag_229\n      swap1\n        /* \"contracts/DODOMine.sol\":16476:16598  block... */\n      swap2\n      swap1\n      0xffffffff\n      and\n      jump\t// in\n    tag_311:\n        /* \"contracts/DODOMine.sol\":16476:16624  block... */\n      tag_229\n      swap1\n        /* \"contracts/DODOMine.sol\":16476:16641  block... */\n      swap2\n      swap1\n      0xffffffff\n      and\n      jump\t// in\n    tag_310:\n        /* \"contracts/DODOMine.sol\":16476:16667  block... */\n      tag_230\n      swap1\n        /* \"contracts/DODOMine.sol\":16476:16684  block... */\n      swap2\n      swap1\n      0xffffffff\n      and\n      jump\t// in\n    tag_309:\n        /* \"contracts/DODOMine.sol\":16455:16684  uint256 DODOReward = block... */\n      swap1\n      pop\n        /* \"contracts/DODOMine.sol\":16721:16784  accDODOPerShare.add(DecimalMath.divFloor(DODOReward, lpSupply)) */\n      tag_313\n        /* \"contracts/DODOMine.sol\":16741:16783  DecimalMath.divFloor(DODOReward, lpSupply) */\n      tag_314\n        /* \"contracts/DODOMine.sol\":16762:16772  DODOReward */\n      dup3\n        /* \"contracts/DODOMine.sol\":16774:16782  lpSupply */\n      dup5\n        /* \"contracts/DODOMine.sol\":16741:16761  DecimalMath.divFloor */\n      tag_233\n        /* \"contracts/DODOMine.sol\":16741:16783  DecimalMath.divFloor(DODOReward, lpSupply) */\n      jump\t// in\n    tag_314:\n        /* \"contracts/DODOMine.sol\":16721:16736  accDODOPerShare */\n      dup5\n        /* \"contracts/DODOMine.sol\":16721:16740  accDODOPerShare.add */\n      tag_183\n      swap1\n        /* \"contracts/DODOMine.sol\":16721:16784  accDODOPerShare.add(DecimalMath.divFloor(DODOReward, lpSupply)) */\n      swap2\n      swap1\n      0xffffffff\n      and\n      jump\t// in\n    tag_313:\n        /* \"contracts/DODOMine.sol\":16703:16784  accDODOPerShare = accDODOPerShare.add(DecimalMath.divFloor(DODOReward, lpSupply)) */\n      swap3\n      pop\n        /* \"contracts/DODOMine.sol\":16436:16800  {... */\n      pop\n        /* \"contracts/DODOMine.sol\":16378:16800  if (block.number > pool.lastRewardBlock && lpSupply != 0) {... */\n    tag_308:\n        /* \"contracts/DODOMine.sol\":16828:16943  totalReward.add(... */\n      tag_315\n        /* \"contracts/DODOMine.sol\":16862:16928  DecimalMath.mul(user.amount, accDODOPerShare).sub(user.rewardDebt) */\n      tag_316\n        /* \"contracts/DODOMine.sol\":16912:16916  user */\n      dup5\n        /* \"contracts/DODOMine.sol\":16912:16927  user.rewardDebt */\n      0x01\n      add\n      sload\n        /* \"contracts/DODOMine.sol\":16862:16907  DecimalMath.mul(user.amount, accDODOPerShare) */\n      tag_317\n        /* \"contracts/DODOMine.sol\":16878:16882  user */\n      dup7\n        /* \"contracts/DODOMine.sol\":16878:16889  user.amount */\n      0x00\n      add\n      sload\n        /* \"contracts/DODOMine.sol\":16891:16906  accDODOPerShare */\n      dup7\n        /* \"contracts/DODOMine.sol\":16862:16877  DecimalMath.mul */\n      tag_165\n        /* \"contracts/DODOMine.sol\":16862:16907  DecimalMath.mul(user.amount, accDODOPerShare) */\n      jump\t// in\n    tag_317:\n        /* \"contracts/DODOMine.sol\":16862:16911  DecimalMath.mul(user.amount, accDODOPerShare).sub */\n      tag_166\n      swap1\n        /* \"contracts/DODOMine.sol\":16862:16928  DecimalMath.mul(user.amount, accDODOPerShare).sub(user.rewardDebt) */\n      swap2\n      swap1\n      0xffffffff\n      and\n      jump\t// in\n    tag_316:\n        /* \"contracts/DODOMine.sol\":16828:16839  totalReward */\n      dup8\n        /* \"contracts/DODOMine.sol\":16828:16843  totalReward.add */\n      tag_183\n      swap1\n        /* \"contracts/DODOMine.sol\":16828:16943  totalReward.add(... */\n      swap2\n      swap1\n      0xffffffff\n      and\n      jump\t// in\n    tag_315:\n        /* \"contracts/DODOMine.sol\":16814:16943  totalReward = totalReward.add(... */\n      swap6\n      pop\n        /* \"contracts/DODOMine.sol\":15970:16955  {... */\n      pop\n      pop\n      pop\n      pop\n        /* \"contracts/DODOMine.sol\":15927:16955  for (uint256 pid = 0; pid < length; ++pid) {... */\n    tag_293:\n        /* \"contracts/DODOMine.sol\":15963:15968  ++pid */\n      dup1\n      tag_318\n      swap1\n      tag_240\n      jump\t// in\n    tag_318:\n      swap1\n      pop\n        /* \"contracts/DODOMine.sol\":15927:16955  for (uint256 pid = 0; pid < length; ++pid) {... */\n      jump(tag_291)\n    tag_292:\n      pop\n        /* \"contracts/DODOMine.sol\":16972:16983  totalReward */\n      dup1\n        /* \"contracts/DODOMine.sol\":16965:16983  return totalReward */\n      swap3\n      pop\n      pop\n      pop\n        /* \"contracts/DODOMine.sol\":15762:16991  function getAllPendingReward(address _user) external view returns (uint256) {... */\n      swap2\n      swap1\n      pop\n      jump\t// out\n        /* \"contracts/DODOMine.sol\":1057:1281  function transferOwnership(address newOwner) external onlyOwner {... */\n    tag_133:\n        /* \"contracts/DODOMine.sol\":811:818  _OWNER_ */\n      0x00\n      dup1\n      sload\n      swap1\n      0x0100\n      exp\n      swap1\n      div\n      0xffffffffffffffffffffffffffffffffffffffff\n      and\n        /* \"contracts/DODOMine.sol\":797:818  msg.sender == _OWNER_ */\n      0xffffffffffffffffffffffffffffffffffffffff\n      and\n        /* \"contracts/DODOMine.sol\":797:807  msg.sender */\n      caller\n        /* \"contracts/DODOMine.sol\":797:818  msg.sender == _OWNER_ */\n      0xffffffffffffffffffffffffffffffffffffffff\n      and\n      eq\n        /* \"contracts/DODOMine.sol\":789:832  require(msg.sender == _OWNER_, \"NOT_OWNER\") */\n      tag_320\n      jumpi\n      mload(0x40)\n      0x08c379a000000000000000000000000000000000000000000000000000000000\n      dup2\n      mstore\n      0x04\n      add\n      tag_321\n      swap1\n      tag_173\n      jump\t// in\n    tag_321:\n      mload(0x40)\n      dup1\n      swap2\n      sub\n      swap1\n      revert\n    tag_320:\n        /* \"contracts/DODOMine.sol\":1160:1161  0 */\n      0x00\n        /* \"contracts/DODOMine.sol\":1140:1162  newOwner != address(0) */\n      0xffffffffffffffffffffffffffffffffffffffff\n      and\n        /* \"contracts/DODOMine.sol\":1140:1148  newOwner */\n      dup2\n        /* \"contracts/DODOMine.sol\":1140:1162  newOwner != address(0) */\n      0xffffffffffffffffffffffffffffffffffffffff\n      and\n      eq\n      iszero\n        /* \"contracts/DODOMine.sol\":1132:1180  require(newOwner != address(0), \"INVALID_OWNER\") */\n      tag_323\n      jumpi\n      mload(0x40)\n      0x08c379a000000000000000000000000000000000000000000000000000000000\n      dup2\n      mstore\n      0x04\n      add\n      tag_324\n      swap1\n      tag_325\n      jump\t// in\n    tag_324:\n      mload(0x40)\n      dup1\n      swap2\n      sub\n      swap1\n      revert\n    tag_323:\n        /* \"contracts/DODOMine.sol\":1231:1239  newOwner */\n      dup1\n        /* \"contracts/DODOMine.sol\":1196:1240  OwnershipTransferPrepared(_OWNER_, newOwner) */\n      0xffffffffffffffffffffffffffffffffffffffff\n      and\n        /* \"contracts/DODOMine.sol\":1222:1229  _OWNER_ */\n      0x00\n      dup1\n      sload\n      swap1\n      0x0100\n      exp\n      swap1\n      div\n      0xffffffffffffffffffffffffffffffffffffffff\n      and\n        /* \"contracts/DODOMine.sol\":1196:1240  OwnershipTransferPrepared(_OWNER_, newOwner) */\n      0xffffffffffffffffffffffffffffffffffffffff\n      and\n      0xdcf55418cee3220104fef63f979ff3c4097ad240c0c43dcb33ce837748983e62\n      mload(0x40)\n      mload(0x40)\n      dup1\n      swap2\n      sub\n      swap1\n      log3\n        /* \"contracts/DODOMine.sol\":1265:1273  newOwner */\n      dup1\n        /* \"contracts/DODOMine.sol\":1251:1262  _NEW_OWNER_ */\n      0x01\n      0x00\n        /* \"contracts/DODOMine.sol\":1251:1273  _NEW_OWNER_ = newOwner */\n      0x0100\n      exp\n      dup2\n      sload\n      dup2\n      0xffffffffffffffffffffffffffffffffffffffff\n      mul\n      not\n      and\n      swap1\n      dup4\n      0xffffffffffffffffffffffffffffffffffffffff\n      and\n      mul\n      or\n      swap1\n      sstore\n      pop\n        /* \"contracts/DODOMine.sol\":1057:1281  function transferOwnership(address newOwner) external onlyOwner {... */\n      pop\n      jump\t// out\n        /* \"contracts/DODOMine.sol\":19357:20064  function withdraw(address _lpToken, uint256 _amount) public {... */\n    tag_136:\n        /* \"contracts/DODOMine.sol\":19428:19439  uint256 pid */\n      0x00\n        /* \"contracts/DODOMine.sol\":19442:19458  getPid(_lpToken) */\n      tag_327\n        /* \"contracts/DODOMine.sol\":19449:19457  _lpToken */\n      dup4\n        /* \"contracts/DODOMine.sol\":19442:19448  getPid */\n      tag_70\n        /* \"contracts/DODOMine.sol\":19442:19458  getPid(_lpToken) */\n      jump\t// in\n    tag_327:\n        /* \"contracts/DODOMine.sol\":19428:19458  uint256 pid = getPid(_lpToken) */\n      swap1\n      pop\n        /* \"contracts/DODOMine.sol\":19469:19490  PoolInfo storage pool */\n      0x00\n        /* \"contracts/DODOMine.sol\":19493:19502  poolInfos */\n      0x04\n        /* \"contracts/DODOMine.sol\":19503:19506  pid */\n      dup3\n        /* \"contracts/DODOMine.sol\":19493:19507  poolInfos[pid] */\n      dup2\n      sload\n      dup2\n      lt\n      tag_328\n      jumpi\n      tag_329\n      tag_156\n      jump\t// in\n    tag_329:\n    tag_328:\n      swap1\n      0x00\n      mstore\n      keccak256(0x00, 0x20)\n      swap1\n      0x04\n      mul\n      add\n        /* \"contracts/DODOMine.sol\":19469:19507  PoolInfo storage pool = poolInfos[pid] */\n      swap1\n      pop\n        /* \"contracts/DODOMine.sol\":19518:19539  UserInfo storage user */\n      0x00\n        /* \"contracts/DODOMine.sol\":19542:19550  userInfo */\n      0x06\n        /* \"contracts/DODOMine.sol\":19542:19555  userInfo[pid] */\n      0x00\n        /* \"contracts/DODOMine.sol\":19551:19554  pid */\n      dup5\n        /* \"contracts/DODOMine.sol\":19542:19555  userInfo[pid] */\n      dup2\n      mstore\n      0x20\n      add\n      swap1\n      dup2\n      mstore\n      0x20\n      add\n      0x00\n      keccak256\n        /* \"contracts/DODOMine.sol\":19542:19567  userInfo[pid][msg.sender] */\n      0x00\n        /* \"contracts/DODOMine.sol\":19556:19566  msg.sender */\n      caller\n        /* \"contracts/DODOMine.sol\":19542:19567  userInfo[pid][msg.sender] */\n      0xffffffffffffffffffffffffffffffffffffffff\n      and\n      0xffffffffffffffffffffffffffffffffffffffff\n      and\n      dup2\n      mstore\n      0x20\n      add\n      swap1\n      dup2\n      mstore\n      0x20\n      add\n      0x00\n      keccak256\n        /* \"contracts/DODOMine.sol\":19518:19567  UserInfo storage user = userInfo[pid][msg.sender] */\n      swap1\n      pop\n        /* \"contracts/DODOMine.sol\":19601:19608  _amount */\n      dup4\n        /* \"contracts/DODOMine.sol\":19586:19590  user */\n      dup2\n        /* \"contracts/DODOMine.sol\":19586:19597  user.amount */\n      0x00\n      add\n      sload\n        /* \"contracts/DODOMine.sol\":19586:19608  user.amount >= _amount */\n      lt\n      iszero\n        /* \"contracts/DODOMine.sol\":19578:19630  require(user.amount >= _amount, \"withdraw too much\") */\n      tag_331\n      jumpi\n      mload(0x40)\n      0x08c379a000000000000000000000000000000000000000000000000000000000\n      dup2\n      mstore\n      0x04\n      add\n      tag_332\n      swap1\n      tag_333\n      jump\t// in\n    tag_332:\n      mload(0x40)\n      dup1\n      swap2\n      sub\n      swap1\n      revert\n    tag_331:\n        /* \"contracts/DODOMine.sol\":19641:19656  updatePool(pid) */\n      tag_334\n        /* \"contracts/DODOMine.sol\":19652:19655  pid */\n      dup4\n        /* \"contracts/DODOMine.sol\":19641:19651  updatePool */\n      tag_84\n        /* \"contracts/DODOMine.sol\":19641:19656  updatePool(pid) */\n      jump\t// in\n    tag_334:\n        /* \"contracts/DODOMine.sol\":19667:19682  uint256 pending */\n      0x00\n        /* \"contracts/DODOMine.sol\":19685:19756  DecimalMath.mul(user.amount, pool.accDODOPerShare).sub(user.rewardDebt) */\n      tag_335\n        /* \"contracts/DODOMine.sol\":19740:19744  user */\n      dup3\n        /* \"contracts/DODOMine.sol\":19740:19755  user.rewardDebt */\n      0x01\n      add\n      sload\n        /* \"contracts/DODOMine.sol\":19685:19735  DecimalMath.mul(user.amount, pool.accDODOPerShare) */\n      tag_336\n        /* \"contracts/DODOMine.sol\":19701:19705  user */\n      dup5\n        /* \"contracts/DODOMine.sol\":19701:19712  user.amount */\n      0x00\n      add\n      sload\n        /* \"contracts/DODOMine.sol\":19714:19718  pool */\n      dup7\n        /* \"contracts/DODOMine.sol\":19714:19734  pool.accDODOPerShare */\n      0x03\n      add\n      sload\n        /* \"contracts/DODOMine.sol\":19685:19700  DecimalMath.mul */\n      tag_165\n        /* \"contracts/DODOMine.sol\":19685:19735  DecimalMath.mul(user.amount, pool.accDODOPerShare) */\n      jump\t// in\n    tag_336:\n        /* \"contracts/DODOMine.sol\":19685:19739  DecimalMath.mul(user.amount, pool.accDODOPerShare).sub */\n      tag_166\n      swap1\n        /* \"contracts/DODOMine.sol\":19685:19756  DecimalMath.mul(user.amount, pool.accDODOPerShare).sub(user.rewardDebt) */\n      swap2\n      swap1\n      0xffffffff\n      and\n      jump\t// in\n    tag_335:\n        /* \"contracts/DODOMine.sol\":19667:19756  uint256 pending = DecimalMath.mul(user.amount, pool.accDODOPerShare).sub(user.rewardDebt) */\n      swap1\n      pop\n        /* \"contracts/DODOMine.sol\":19767:19804  safeDODOTransfer(msg.sender, pending) */\n      tag_337\n        /* \"contracts/DODOMine.sol\":19784:19794  msg.sender */\n      caller\n        /* \"contracts/DODOMine.sol\":19796:19803  pending */\n      dup3\n        /* \"contracts/DODOMine.sol\":19767:19783  safeDODOTransfer */\n      tag_169\n        /* \"contracts/DODOMine.sol\":19767:19804  safeDODOTransfer(msg.sender, pending) */\n      jump\t// in\n    tag_337:\n        /* \"contracts/DODOMine.sol\":19829:19853  user.amount.sub(_amount) */\n      tag_338\n        /* \"contracts/DODOMine.sol\":19845:19852  _amount */\n      dup6\n        /* \"contracts/DODOMine.sol\":19829:19833  user */\n      dup4\n        /* \"contracts/DODOMine.sol\":19829:19840  user.amount */\n      0x00\n      add\n      sload\n        /* \"contracts/DODOMine.sol\":19829:19844  user.amount.sub */\n      tag_166\n      swap1\n        /* \"contracts/DODOMine.sol\":19829:19853  user.amount.sub(_amount) */\n      swap2\n      swap1\n      0xffffffff\n      and\n      jump\t// in\n    tag_338:\n        /* \"contracts/DODOMine.sol\":19815:19819  user */\n      dup3\n        /* \"contracts/DODOMine.sol\":19815:19826  user.amount */\n      0x00\n      add\n        /* \"contracts/DODOMine.sol\":19815:19853  user.amount = user.amount.sub(_amount) */\n      dup2\n      swap1\n      sstore\n      pop\n        /* \"contracts/DODOMine.sol\":19882:19932  DecimalMath.mul(user.amount, pool.accDODOPerShare) */\n      tag_339\n        /* \"contracts/DODOMine.sol\":19898:19902  user */\n      dup3\n        /* \"contracts/DODOMine.sol\":19898:19909  user.amount */\n      0x00\n      add\n      sload\n        /* \"contracts/DODOMine.sol\":19911:19915  pool */\n      dup5\n        /* \"contracts/DODOMine.sol\":19911:19931  pool.accDODOPerShare */\n      0x03\n      add\n      sload\n        /* \"contracts/DODOMine.sol\":19882:19897  DecimalMath.mul */\n      tag_165\n        /* \"contracts/DODOMine.sol\":19882:19932  DecimalMath.mul(user.amount, pool.accDODOPerShare) */\n      jump\t// in\n    tag_339:\n        /* \"contracts/DODOMine.sol\":19864:19868  user */\n      dup3\n        /* \"contracts/DODOMine.sol\":19864:19879  user.rewardDebt */\n      0x01\n      add\n        /* \"contracts/DODOMine.sol\":19864:19932  user.rewardDebt = DecimalMath.mul(user.amount, pool.accDODOPerShare) */\n      dup2\n      swap1\n      sstore\n      pop\n        /* \"contracts/DODOMine.sol\":19943:20006  IERC20(pool.lpToken).safeTransfer(address(msg.sender), _amount) */\n      tag_340\n        /* \"contracts/DODOMine.sol\":19985:19995  msg.sender */\n      caller\n        /* \"contracts/DODOMine.sol\":19998:20005  _amount */\n      dup7\n        /* \"contracts/DODOMine.sol\":19950:19954  pool */\n      dup6\n        /* \"contracts/DODOMine.sol\":19950:19962  pool.lpToken */\n      0x00\n      add\n      0x00\n      swap1\n      sload\n      swap1\n      0x0100\n      exp\n      swap1\n      div\n      0xffffffffffffffffffffffffffffffffffffffff\n      and\n        /* \"contracts/DODOMine.sol\":19943:19976  IERC20(pool.lpToken).safeTransfer */\n      0xffffffffffffffffffffffffffffffffffffffff\n      and\n      tag_250\n      swap1\n        /* \"contracts/DODOMine.sol\":19943:20006  IERC20(pool.lpToken).safeTransfer(address(msg.sender), _amount) */\n      swap3\n      swap2\n      swap1\n      0xffffffff\n      and\n      jump\t// in\n    tag_340:\n        /* \"contracts/DODOMine.sol\":20043:20046  pid */\n      dup4\n        /* \"contracts/DODOMine.sol\":20031:20041  msg.sender */\n      caller\n        /* \"contracts/DODOMine.sol\":20022:20056  Withdraw(msg.sender, pid, _amount) */\n      0xffffffffffffffffffffffffffffffffffffffff\n      and\n      0xf279e6a1f5e320cca91135676d9cb6e44ca8a08c0b88342bcdb1144f6511b568\n        /* \"contracts/DODOMine.sol\":20048:20055  _amount */\n      dup8\n        /* \"contracts/DODOMine.sol\":20022:20056  Withdraw(msg.sender, pid, _amount) */\n      mload(0x40)\n      tag_341\n      swap2\n      swap1\n      tag_43\n      jump\t// in\n    tag_341:\n      mload(0x40)\n      dup1\n      swap2\n      sub\n      swap1\n      log3\n        /* \"contracts/DODOMine.sol\":19417:20064  {... */\n      pop\n      pop\n      pop\n      pop\n        /* \"contracts/DODOMine.sol\":19357:20064  function withdraw(address _lpToken, uint256 _amount) public {... */\n      pop\n      pop\n      jump\t// out\n        /* \"contracts/DODOMine.sol\":20072:20231  function withdrawAll(address _lpToken) public {... */\n    tag_139:\n        /* \"contracts/DODOMine.sol\":20129:20144  uint256 balance */\n      0x00\n        /* \"contracts/DODOMine.sol\":20147:20185  getUserLpBalance(_lpToken, msg.sender) */\n      tag_343\n        /* \"contracts/DODOMine.sol\":20164:20172  _lpToken */\n      dup3\n        /* \"contracts/DODOMine.sol\":20174:20184  msg.sender */\n      caller\n        /* \"contracts/DODOMine.sol\":20147:20163  getUserLpBalance */\n      tag_54\n        /* \"contracts/DODOMine.sol\":20147:20185  getUserLpBalance(_lpToken, msg.sender) */\n      jump\t// in\n    tag_343:\n        /* \"contracts/DODOMine.sol\":20129:20185  uint256 balance = getUserLpBalance(_lpToken, msg.sender) */\n      swap1\n      pop\n        /* \"contracts/DODOMine.sol\":20196:20223  withdraw(_lpToken, balance) */\n      tag_344\n        /* \"contracts/DODOMine.sol\":20205:20213  _lpToken */\n      dup3\n        /* \"contracts/DODOMine.sol\":20215:20222  balance */\n      dup3\n        /* \"contracts/DODOMine.sol\":20196:20204  withdraw */\n      tag_136\n        /* \"contracts/DODOMine.sol\":20196:20223  withdraw(_lpToken, balance) */\n      jump\t// in\n    tag_344:\n        /* \"contracts/DODOMine.sol\":20118:20231  {... */\n      pop\n        /* \"contracts/DODOMine.sol\":20072:20231  function withdrawAll(address _lpToken) public {... */\n      pop\n      jump\t// out\n        /* \"contracts/DODOMine.sol\":17128:17375  function getDlpMiningSpeed(address _lpToken) external view returns (uint256) {... */\n    tag_142:\n        /* \"contracts/DODOMine.sol\":17196:17203  uint256 */\n      0x00\n        /* \"contracts/DODOMine.sol\":17216:17227  uint256 pid */\n      dup1\n        /* \"contracts/DODOMine.sol\":17230:17246  getPid(_lpToken) */\n      tag_346\n        /* \"contracts/DODOMine.sol\":17237:17245  _lpToken */\n      dup4\n        /* \"contracts/DODOMine.sol\":17230:17236  getPid */\n      tag_70\n        /* \"contracts/DODOMine.sol\":17230:17246  getPid(_lpToken) */\n      jump\t// in\n    tag_346:\n        /* \"contracts/DODOMine.sol\":17216:17246  uint256 pid = getPid(_lpToken) */\n      swap1\n      pop\n        /* \"contracts/DODOMine.sol\":17257:17278  PoolInfo storage pool */\n      0x00\n        /* \"contracts/DODOMine.sol\":17281:17290  poolInfos */\n      0x04\n        /* \"contracts/DODOMine.sol\":17291:17294  pid */\n      dup3\n        /* \"contracts/DODOMine.sol\":17281:17295  poolInfos[pid] */\n      dup2\n      sload\n      dup2\n      lt\n      tag_347\n      jumpi\n      tag_348\n      tag_156\n      jump\t// in\n    tag_348:\n    tag_347:\n      swap1\n      0x00\n      mstore\n      keccak256(0x00, 0x20)\n      swap1\n      0x04\n      mul\n      add\n        /* \"contracts/DODOMine.sol\":17257:17295  PoolInfo storage pool = poolInfos[pid] */\n      swap1\n      pop\n        /* \"contracts/DODOMine.sol\":17313:17367  dodoPerBlock.mul(pool.allocPoint).div(totalAllocPoint) */\n      tag_350\n        /* \"contracts/DODOMine.sol\":17351:17366  totalAllocPoint */\n      sload(0x08)\n        /* \"contracts/DODOMine.sol\":17313:17346  dodoPerBlock.mul(pool.allocPoint) */\n      tag_351\n        /* \"contracts/DODOMine.sol\":17330:17334  pool */\n      dup4\n        /* \"contracts/DODOMine.sol\":17330:17345  pool.allocPoint */\n      0x01\n      add\n      sload\n        /* \"contracts/DODOMine.sol\":17313:17325  dodoPerBlock */\n      sload(0x03)\n        /* \"contracts/DODOMine.sol\":17313:17329  dodoPerBlock.mul */\n      tag_229\n      swap1\n        /* \"contracts/DODOMine.sol\":17313:17346  dodoPerBlock.mul(pool.allocPoint) */\n      swap2\n      swap1\n      0xffffffff\n      and\n      jump\t// in\n    tag_351:\n        /* \"contracts/DODOMine.sol\":17313:17350  dodoPerBlock.mul(pool.allocPoint).div */\n      tag_230\n      swap1\n        /* \"contracts/DODOMine.sol\":17313:17367  dodoPerBlock.mul(pool.allocPoint).div(totalAllocPoint) */\n      swap2\n      swap1\n      0xffffffff\n      and\n      jump\t// in\n    tag_350:\n        /* \"contracts/DODOMine.sol\":17306:17367  return dodoPerBlock.mul(pool.allocPoint).div(totalAllocPoint) */\n      swap3\n      pop\n      pop\n      pop\n        /* \"contracts/DODOMine.sol\":17128:17375  function getDlpMiningSpeed(address _lpToken) external view returns (uint256) {... */\n      swap2\n      swap1\n      pop\n      jump\t// out\n        /* \"contracts/DODOMine.sol\":14894:15754  function getPendingReward(address _lpToken, address _user) external view returns (uint256) {... */\n    tag_146:\n        /* \"contracts/DODOMine.sol\":14976:14983  uint256 */\n      0x00\n        /* \"contracts/DODOMine.sol\":14996:15007  uint256 pid */\n      dup1\n        /* \"contracts/DODOMine.sol\":15010:15026  getPid(_lpToken) */\n      tag_353\n        /* \"contracts/DODOMine.sol\":15017:15025  _lpToken */\n      dup5\n        /* \"contracts/DODOMine.sol\":15010:15016  getPid */\n      tag_70\n        /* \"contracts/DODOMine.sol\":15010:15026  getPid(_lpToken) */\n      jump\t// in\n    tag_353:\n        /* \"contracts/DODOMine.sol\":14996:15026  uint256 pid = getPid(_lpToken) */\n      swap1\n      pop\n        /* \"contracts/DODOMine.sol\":15037:15058  PoolInfo storage pool */\n      0x00\n        /* \"contracts/DODOMine.sol\":15061:15070  poolInfos */\n      0x04\n        /* \"contracts/DODOMine.sol\":15071:15074  pid */\n      dup3\n        /* \"contracts/DODOMine.sol\":15061:15075  poolInfos[pid] */\n      dup2\n      sload\n      dup2\n      lt\n      tag_354\n      jumpi\n      tag_355\n      tag_156\n      jump\t// in\n    tag_355:\n    tag_354:\n      swap1\n      0x00\n      mstore\n      keccak256(0x00, 0x20)\n      swap1\n      0x04\n      mul\n      add\n        /* \"contracts/DODOMine.sol\":15037:15075  PoolInfo storage pool = poolInfos[pid] */\n      swap1\n      pop\n        /* \"contracts/DODOMine.sol\":15086:15107  UserInfo storage user */\n      0x00\n        /* \"contracts/DODOMine.sol\":15110:15118  userInfo */\n      0x06\n        /* \"contracts/DODOMine.sol\":15110:15123  userInfo[pid] */\n      0x00\n        /* \"contracts/DODOMine.sol\":15119:15122  pid */\n      dup5\n        /* \"contracts/DODOMine.sol\":15110:15123  userInfo[pid] */\n      dup2\n      mstore\n      0x20\n      add\n      swap1\n      dup2\n      mstore\n      0x20\n      add\n      0x00\n      keccak256\n        /* \"contracts/DODOMine.sol\":15110:15130  userInfo[pid][_user] */\n      0x00\n        /* \"contracts/DODOMine.sol\":15124:15129  _user */\n      dup7\n        /* \"contracts/DODOMine.sol\":15110:15130  userInfo[pid][_user] */\n      0xffffffffffffffffffffffffffffffffffffffff\n      and\n      0xffffffffffffffffffffffffffffffffffffffff\n      and\n      dup2\n      mstore\n      0x20\n      add\n      swap1\n      dup2\n      mstore\n      0x20\n      add\n      0x00\n      keccak256\n        /* \"contracts/DODOMine.sol\":15086:15130  UserInfo storage user = userInfo[pid][_user] */\n      swap1\n      pop\n        /* \"contracts/DODOMine.sol\":15141:15164  uint256 accDODOPerShare */\n      0x00\n        /* \"contracts/DODOMine.sol\":15167:15171  pool */\n      dup3\n        /* \"contracts/DODOMine.sol\":15167:15187  pool.accDODOPerShare */\n      0x03\n      add\n      sload\n        /* \"contracts/DODOMine.sol\":15141:15187  uint256 accDODOPerShare = pool.accDODOPerShare */\n      swap1\n      pop\n        /* \"contracts/DODOMine.sol\":15198:15214  uint256 lpSupply */\n      0x00\n        /* \"contracts/DODOMine.sol\":15224:15228  pool */\n      dup4\n        /* \"contracts/DODOMine.sol\":15224:15236  pool.lpToken */\n      0x00\n      add\n      0x00\n      swap1\n      sload\n      swap1\n      0x0100\n      exp\n      swap1\n      div\n      0xffffffffffffffffffffffffffffffffffffffff\n      and\n        /* \"contracts/DODOMine.sol\":15217:15247  IERC20(pool.lpToken).balanceOf */\n      0xffffffffffffffffffffffffffffffffffffffff\n      and\n      0x70a08231\n        /* \"contracts/DODOMine.sol\":15256:15260  this */\n      address\n        /* \"contracts/DODOMine.sol\":15217:15262  IERC20(pool.lpToken).balanceOf(address(this)) */\n      mload(0x40)\n      dup3\n      0xffffffff\n      and\n      0xe0\n      shl\n      dup2\n      mstore\n      0x04\n      add\n      tag_357\n      swap2\n      swap1\n      tag_47\n      jump\t// in\n    tag_357:\n      0x20\n      mload(0x40)\n      dup1\n      dup4\n      sub\n      dup2\n      dup7\n      dup1\n      extcodesize\n      iszero\n      dup1\n      iszero\n      tag_358\n      jumpi\n      0x00\n      dup1\n      revert\n    tag_358:\n      pop\n      gas\n      staticcall\n      iszero\n      dup1\n      iszero\n      tag_360\n      jumpi\n      returndatasize\n      0x00\n      dup1\n      returndatacopy\n      revert(0x00, returndatasize)\n    tag_360:\n      pop\n      pop\n      pop\n      pop\n      mload(0x40)\n      returndatasize\n      not(0x1f)\n      0x1f\n      dup3\n      add\n      and\n      dup3\n      add\n      dup1\n      0x40\n      mstore\n      pop\n      dup2\n      add\n      swap1\n      tag_361\n      swap2\n      swap1\n      tag_223\n      jump\t// in\n    tag_361:\n        /* \"contracts/DODOMine.sol\":15198:15262  uint256 lpSupply = IERC20(pool.lpToken).balanceOf(address(this)) */\n      swap1\n      pop\n        /* \"contracts/DODOMine.sol\":15292:15296  pool */\n      dup4\n        /* \"contracts/DODOMine.sol\":15292:15312  pool.lastRewardBlock */\n      0x02\n      add\n      sload\n        /* \"contracts/DODOMine.sol\":15277:15289  block.number */\n      number\n        /* \"contracts/DODOMine.sol\":15277:15312  block.number > pool.lastRewardBlock */\n      gt\n        /* \"contracts/DODOMine.sol\":15277:15329  block.number > pool.lastRewardBlock && lpSupply != 0 */\n      dup1\n      iszero\n      tag_362\n      jumpi\n      pop\n        /* \"contracts/DODOMine.sol\":15328:15329  0 */\n      0x00\n        /* \"contracts/DODOMine.sol\":15316:15324  lpSupply */\n      dup2\n        /* \"contracts/DODOMine.sol\":15316:15329  lpSupply != 0 */\n      eq\n      iszero\n        /* \"contracts/DODOMine.sol\":15277:15329  block.number > pool.lastRewardBlock && lpSupply != 0 */\n    tag_362:\n        /* \"contracts/DODOMine.sol\":15273:15663  if (block.number > pool.lastRewardBlock && lpSupply != 0) {... */\n      iszero\n      tag_363\n      jumpi\n        /* \"contracts/DODOMine.sol\":15346:15364  uint256 DODOReward */\n      0x00\n        /* \"contracts/DODOMine.sol\":15367:15555  block... */\n      tag_364\n        /* \"contracts/DODOMine.sol\":15539:15554  totalAllocPoint */\n      sload(0x08)\n        /* \"contracts/DODOMine.sol\":15367:15516  block... */\n      tag_365\n        /* \"contracts/DODOMine.sol\":15500:15504  pool */\n      dup8\n        /* \"contracts/DODOMine.sol\":15500:15515  pool.allocPoint */\n      0x01\n      add\n      sload\n        /* \"contracts/DODOMine.sol\":15367:15477  block... */\n      tag_366\n        /* \"contracts/DODOMine.sol\":15464:15476  dodoPerBlock */\n      sload(0x03)\n        /* \"contracts/DODOMine.sol\":15367:15441  block... */\n      tag_367\n        /* \"contracts/DODOMine.sol\":15420:15424  pool */\n      dup12\n        /* \"contracts/DODOMine.sol\":15420:15440  pool.lastRewardBlock */\n      0x02\n      add\n      sload\n        /* \"contracts/DODOMine.sol\":15367:15397  block... */\n      number\n        /* \"contracts/DODOMine.sol\":15367:15419  block... */\n      tag_166\n      swap1\n        /* \"contracts/DODOMine.sol\":15367:15441  block... */\n      swap2\n      swap1\n      0xffffffff\n      and\n      jump\t// in\n    tag_367:\n        /* \"contracts/DODOMine.sol\":15367:15463  block... */\n      tag_229\n      swap1\n        /* \"contracts/DODOMine.sol\":15367:15477  block... */\n      swap2\n      swap1\n      0xffffffff\n      and\n      jump\t// in\n    tag_366:\n        /* \"contracts/DODOMine.sol\":15367:15499  block... */\n      tag_229\n      swap1\n        /* \"contracts/DODOMine.sol\":15367:15516  block... */\n      swap2\n      swap1\n      0xffffffff\n      and\n      jump\t// in\n    tag_365:\n        /* \"contracts/DODOMine.sol\":15367:15538  block... */\n      tag_230\n      swap1\n        /* \"contracts/DODOMine.sol\":15367:15555  block... */\n      swap2\n      swap1\n      0xffffffff\n      and\n      jump\t// in\n    tag_364:\n        /* \"contracts/DODOMine.sol\":15346:15555  uint256 DODOReward = block... */\n      swap1\n      pop\n        /* \"contracts/DODOMine.sol\":15588:15651  accDODOPerShare.add(DecimalMath.divFloor(DODOReward, lpSupply)) */\n      tag_368\n        /* \"contracts/DODOMine.sol\":15608:15650  DecimalMath.divFloor(DODOReward, lpSupply) */\n      tag_369\n        /* \"contracts/DODOMine.sol\":15629:15639  DODOReward */\n      dup3\n        /* \"contracts/DODOMine.sol\":15641:15649  lpSupply */\n      dup5\n        /* \"contracts/DODOMine.sol\":15608:15628  DecimalMath.divFloor */\n      tag_233\n        /* \"contracts/DODOMine.sol\":15608:15650  DecimalMath.divFloor(DODOReward, lpSupply) */\n      jump\t// in\n    tag_369:\n        /* \"contracts/DODOMine.sol\":15588:15603  accDODOPerShare */\n      dup5\n        /* \"contracts/DODOMine.sol\":15588:15607  accDODOPerShare.add */\n      tag_183\n      swap1\n        /* \"contracts/DODOMine.sol\":15588:15651  accDODOPerShare.add(DecimalMath.divFloor(DODOReward, lpSupply)) */\n      swap2\n      swap1\n      0xffffffff\n      and\n      jump\t// in\n    tag_368:\n        /* \"contracts/DODOMine.sol\":15570:15651  accDODOPerShare = accDODOPerShare.add(DecimalMath.divFloor(DODOReward, lpSupply)) */\n      swap3\n      pop\n        /* \"contracts/DODOMine.sol\":15331:15663  {... */\n      pop\n        /* \"contracts/DODOMine.sol\":15273:15663  if (block.number > pool.lastRewardBlock && lpSupply != 0) {... */\n    tag_363:\n        /* \"contracts/DODOMine.sol\":15680:15746  DecimalMath.mul(user.amount, accDODOPerShare).sub(user.rewardDebt) */\n      tag_370\n        /* \"contracts/DODOMine.sol\":15730:15734  user */\n      dup4\n        /* \"contracts/DODOMine.sol\":15730:15745  user.rewardDebt */\n      0x01\n      add\n      sload\n        /* \"contracts/DODOMine.sol\":15680:15725  DecimalMath.mul(user.amount, accDODOPerShare) */\n      tag_371\n        /* \"contracts/DODOMine.sol\":15696:15700  user */\n      dup6\n        /* \"contracts/DODOMine.sol\":15696:15707  user.amount */\n      0x00\n      add\n      sload\n        /* \"contracts/DODOMine.sol\":15709:15724  accDODOPerShare */\n      dup6\n        /* \"contracts/DODOMine.sol\":15680:15695  DecimalMath.mul */\n      tag_165\n        /* \"contracts/DODOMine.sol\":15680:15725  DecimalMath.mul(user.amount, accDODOPerShare) */\n      jump\t// in\n    tag_371:\n        /* \"contracts/DODOMine.sol\":15680:15729  DecimalMath.mul(user.amount, accDODOPerShare).sub */\n      tag_166\n      swap1\n        /* \"contracts/DODOMine.sol\":15680:15746  DecimalMath.mul(user.amount, accDODOPerShare).sub(user.rewardDebt) */\n      swap2\n      swap1\n      0xffffffff\n      and\n      jump\t// in\n    tag_370:\n        /* \"contracts/DODOMine.sol\":15673:15746  return DecimalMath.mul(user.amount, accDODOPerShare).sub(user.rewardDebt) */\n      swap6\n      pop\n      pop\n      pop\n      pop\n      pop\n      pop\n        /* \"contracts/DODOMine.sol\":14894:15754  function getPendingReward(address _lpToken, address _user) external view returns (uint256) {... */\n      swap3\n      swap2\n      pop\n      pop\n      jump\t// out\n        /* \"contracts/DODOMine.sol\":3279:3396  function mul(uint256 target, uint256 d) internal pure returns (uint256) {... */\n    tag_165:\n        /* \"contracts/DODOMine.sol\":3342:3349  uint256 */\n      0x00\n        /* \"contracts/DODOMine.sol\":3264:3270  10**18 */\n      0x0de0b6b3a7640000\n        /* \"contracts/DODOMine.sol\":3369:3382  target.mul(d) */\n      tag_373\n        /* \"contracts/DODOMine.sol\":3380:3381  d */\n      dup4\n        /* \"contracts/DODOMine.sol\":3369:3375  target */\n      dup6\n        /* \"contracts/DODOMine.sol\":3369:3379  target.mul */\n      tag_229\n      swap1\n        /* \"contracts/DODOMine.sol\":3369:3382  target.mul(d) */\n      swap2\n      swap1\n      0xffffffff\n      and\n      jump\t// in\n    tag_373:\n        /* \"contracts/DODOMine.sol\":3369:3388  target.mul(d) / ONE */\n      tag_374\n      swap2\n      swap1\n      tag_375\n      jump\t// in\n    tag_374:\n        /* \"contracts/DODOMine.sol\":3362:3388  return target.mul(d) / ONE */\n      swap1\n      pop\n        /* \"contracts/DODOMine.sol\":3279:3396  function mul(uint256 target, uint256 d) internal pure returns (uint256) {... */\n      swap3\n      swap2\n      pop\n      pop\n      jump\t// out\n        /* \"contracts/DODOMine.sol\":2441:2578  function sub(uint256 a, uint256 b) internal pure returns (uint256) {... */\n    tag_166:\n        /* \"contracts/DODOMine.sol\":2499:2506  uint256 */\n      0x00\n        /* \"contracts/DODOMine.sol\":2532:2533  a */\n      dup3\n        /* \"contracts/DODOMine.sol\":2527:2528  b */\n      dup3\n        /* \"contracts/DODOMine.sol\":2527:2533  b <= a */\n      gt\n      iszero\n        /* \"contracts/DODOMine.sol\":2519:2547  require(b <= a, \"SUB_ERROR\") */\n      tag_377\n      jumpi\n      mload(0x40)\n      0x08c379a000000000000000000000000000000000000000000000000000000000\n      dup2\n      mstore\n      0x04\n      add\n      tag_378\n      swap1\n      tag_379\n      jump\t// in\n    tag_378:\n      mload(0x40)\n      dup1\n      swap2\n      sub\n      swap1\n      revert\n    tag_377:\n        /* \"contracts/DODOMine.sol\":2569:2570  b */\n      dup2\n        /* \"contracts/DODOMine.sol\":2565:2566  a */\n      dup4\n        /* \"contracts/DODOMine.sol\":2565:2570  a - b */\n      tag_380\n      swap2\n      swap1\n      tag_193\n      jump\t// in\n    tag_380:\n        /* \"contracts/DODOMine.sol\":2558:2570  return a - b */\n      swap1\n      pop\n        /* \"contracts/DODOMine.sol\":2441:2578  function sub(uint256 a, uint256 b) internal pure returns (uint256) {... */\n      swap3\n      swap2\n      pop\n      pop\n      jump\t// out\n        /* \"contracts/DODOMine.sol\":22098:22336  function safeDODOTransfer(address _to, uint256 _amount) internal {... */\n    tag_169:\n        /* \"contracts/DODOMine.sol\":22191:22206  dodoRewardVault */\n      0x02\n      0x00\n      swap1\n      sload\n      swap1\n      0x0100\n      exp\n      swap1\n      div\n      0xffffffffffffffffffffffffffffffffffffffff\n      and\n        /* \"contracts/DODOMine.sol\":22174:22214  IDODORewardVault(dodoRewardVault).reward */\n      0xffffffffffffffffffffffffffffffffffffffff\n      and\n      0x21670f22\n        /* \"contracts/DODOMine.sol\":22215:22218  _to */\n      dup4\n        /* \"contracts/DODOMine.sol\":22220:22227  _amount */\n      dup4\n        /* \"contracts/DODOMine.sol\":22174:22228  IDODORewardVault(dodoRewardVault).reward(_to, _amount) */\n      mload(0x40)\n      dup4\n      0xffffffff\n      and\n      0xe0\n      shl\n      dup2\n      mstore\n      0x04\n      add\n      tag_382\n      swap3\n      swap2\n      swap1\n      tag_383\n      jump\t// in\n    tag_382:\n      0x00\n      mload(0x40)\n      dup1\n      dup4\n      sub\n      dup2\n      0x00\n      dup8\n      dup1\n      extcodesize\n      iszero\n      dup1\n      iszero\n      tag_384\n      jumpi\n      0x00\n      dup1\n      revert\n    tag_384:\n      pop\n      gas\n      call\n      iszero\n      dup1\n      iszero\n      tag_386\n      jumpi\n      returndatasize\n      0x00\n      dup1\n      returndatacopy\n      revert(0x00, returndatasize)\n    tag_386:\n      pop\n      pop\n      pop\n      pop\n        /* \"contracts/DODOMine.sol\":22261:22293  realizedReward[_to].add(_amount) */\n      tag_387\n        /* \"contracts/DODOMine.sol\":22285:22292  _amount */\n      dup2\n        /* \"contracts/DODOMine.sol\":22261:22275  realizedReward */\n      0x07\n        /* \"contracts/DODOMine.sol\":22261:22280  realizedReward[_to] */\n      0x00\n        /* \"contracts/DODOMine.sol\":22276:22279  _to */\n      dup6\n        /* \"contracts/DODOMine.sol\":22261:22280  realizedReward[_to] */\n      0xffffffffffffffffffffffffffffffffffffffff\n      and\n      0xffffffffffffffffffffffffffffffffffffffff\n      and\n      dup2\n      mstore\n      0x20\n      add\n      swap1\n      dup2\n      mstore\n      0x20\n      add\n      0x00\n      keccak256\n      sload\n        /* \"contracts/DODOMine.sol\":22261:22284  realizedReward[_to].add */\n      tag_183\n      swap1\n        /* \"contracts/DODOMine.sol\":22261:22293  realizedReward[_to].add(_amount) */\n      swap2\n      swap1\n      0xffffffff\n      and\n      jump\t// in\n    tag_387:\n        /* \"contracts/DODOMine.sol\":22239:22253  realizedReward */\n      0x07\n        /* \"contracts/DODOMine.sol\":22239:22258  realizedReward[_to] */\n      0x00\n        /* \"contracts/DODOMine.sol\":22254:22257  _to */\n      dup5\n        /* \"contracts/DODOMine.sol\":22239:22258  realizedReward[_to] */\n      0xffffffffffffffffffffffffffffffffffffffff\n      and\n      0xffffffffffffffffffffffffffffffffffffffff\n      and\n      dup2\n      mstore\n      0x20\n      add\n      swap1\n      dup2\n      mstore\n      0x20\n      add\n      0x00\n      keccak256\n        /* \"contracts/DODOMine.sol\":22239:22293  realizedReward[_to] = realizedReward[_to].add(_amount) */\n      dup2\n      swap1\n      sstore\n      pop\n        /* \"contracts/DODOMine.sol\":22315:22318  _to */\n      dup2\n        /* \"contracts/DODOMine.sol\":22309:22328  Claim(_to, _amount) */\n      0xffffffffffffffffffffffffffffffffffffffff\n      and\n      0x47cee97cb7acd717b3c0aa1435d004cd5b3c8c57d70dbceb4e4458bbd60e39d4\n        /* \"contracts/DODOMine.sol\":22320:22327  _amount */\n      dup3\n        /* \"contracts/DODOMine.sol\":22309:22328  Claim(_to, _amount) */\n      mload(0x40)\n      tag_388\n      swap2\n      swap1\n      tag_43\n      jump\t// in\n    tag_388:\n      mload(0x40)\n      dup1\n      swap2\n      sub\n      swap1\n      log2\n        /* \"contracts/DODOMine.sol\":22098:22336  function safeDODOTransfer(address _to, uint256 _amount) internal {... */\n      pop\n      pop\n      jump\t// out\n        /* \"contracts/DODOMine.sol\":2586:2747  function add(uint256 a, uint256 b) internal pure returns (uint256) {... */\n    tag_183:\n        /* \"contracts/DODOMine.sol\":2644:2651  uint256 */\n      0x00\n        /* \"contracts/DODOMine.sol\":2664:2673  uint256 c */\n      dup1\n        /* \"contracts/DODOMine.sol\":2680:2681  b */\n      dup3\n        /* \"contracts/DODOMine.sol\":2676:2677  a */\n      dup5\n        /* \"contracts/DODOMine.sol\":2676:2681  a + b */\n      tag_390\n      swap2\n      swap1\n      tag_391\n      jump\t// in\n    tag_390:\n        /* \"contracts/DODOMine.sol\":2664:2681  uint256 c = a + b */\n      swap1\n      pop\n        /* \"contracts/DODOMine.sol\":2705:2706  a */\n      dup4\n        /* \"contracts/DODOMine.sol\":2700:2701  c */\n      dup2\n        /* \"contracts/DODOMine.sol\":2700:2706  c >= a */\n      lt\n      iszero\n        /* \"contracts/DODOMine.sol\":2692:2720  require(c >= a, \"ADD_ERROR\") */\n      tag_392\n      jumpi\n      mload(0x40)\n      0x08c379a000000000000000000000000000000000000000000000000000000000\n      dup2\n      mstore\n      0x04\n      add\n      tag_393\n      swap1\n      tag_394\n      jump\t// in\n    tag_393:\n      mload(0x40)\n      dup1\n      swap2\n      sub\n      swap1\n      revert\n    tag_392:\n        /* \"contracts/DODOMine.sol\":2738:2739  c */\n      dup1\n        /* \"contracts/DODOMine.sol\":2731:2739  return c */\n      swap2\n      pop\n      pop\n        /* \"contracts/DODOMine.sol\":2586:2747  function add(uint256 a, uint256 b) internal pure returns (uint256) {... */\n      swap3\n      swap2\n      pop\n      pop\n      jump\t// out\n        /* \"contracts/DODOMine.sol\":7256:7541  function safeTransferFrom(... */\n    tag_205:\n        /* \"contracts/DODOMine.sol\":7400:7533  _callOptionalReturn(... */\n      tag_396\n        /* \"contracts/DODOMine.sol\":7434:7439  token */\n      dup5\n        /* \"contracts/DODOMine.sol\":7477:7504  token.transferFrom.selector */\n      shl(0xe0, 0x23b872dd)\n        /* \"contracts/DODOMine.sol\":7506:7510  from */\n      dup6\n        /* \"contracts/DODOMine.sol\":7512:7514  to */\n      dup6\n        /* \"contracts/DODOMine.sol\":7516:7521  value */\n      dup6\n        /* \"contracts/DODOMine.sol\":7454:7522  abi.encodeWithSelector(token.transferFrom.selector, from, to, value) */\n      add(0x24, mload(0x40))\n      tag_397\n      swap4\n      swap3\n      swap2\n      swap1\n      tag_398\n      jump\t// in\n    tag_397:\n      mload(0x40)\n      0x20\n      dup2\n      dup4\n      sub\n      sub\n      dup2\n      mstore\n      swap1\n      0x40\n      mstore\n      swap1\n      not(0xffffffffffffffffffffffffffffffffffffffffffffffffffffffff)\n      and\n      0x20\n      dup3\n      add\n      dup1\n      mload\n      0xffffffffffffffffffffffffffffffffffffffffffffffffffffffff\n      dup4\n      dup2\n      dup4\n      and\n      or\n      dup4\n      mstore\n      pop\n      pop\n      pop\n      pop\n        /* \"contracts/DODOMine.sol\":7400:7419  _callOptionalReturn */\n      tag_399\n        /* \"contracts/DODOMine.sol\":7400:7533  _callOptionalReturn(... */\n      jump\t// in\n    tag_396:\n        /* \"contracts/DODOMine.sol\":7256:7541  function safeTransferFrom(... */\n      pop\n      pop\n      pop\n      pop\n      jump\t// out\n        /* \"contracts/DODOMine.sol\":1762:1988  function mul(uint256 a, uint256 b) internal pure returns (uint256) {... */\n    tag_229:\n        /* \"contracts/DODOMine.sol\":1820:1827  uint256 */\n      0x00\n        /* \"contracts/DODOMine.sol\":1849:1850  0 */\n      dup1\n        /* \"contracts/DODOMine.sol\":1844:1845  a */\n      dup4\n        /* \"contracts/DODOMine.sol\":1844:1850  a == 0 */\n      eq\n        /* \"contracts/DODOMine.sol\":1840:1887  if (a == 0) {... */\n      iszero\n      tag_401\n      jumpi\n        /* \"contracts/DODOMine.sol\":1874:1875  0 */\n      0x00\n        /* \"contracts/DODOMine.sol\":1867:1875  return 0 */\n      swap1\n      pop\n      jump(tag_400)\n        /* \"contracts/DODOMine.sol\":1840:1887  if (a == 0) {... */\n    tag_401:\n        /* \"contracts/DODOMine.sol\":1899:1908  uint256 c */\n      0x00\n        /* \"contracts/DODOMine.sol\":1915:1916  b */\n      dup3\n        /* \"contracts/DODOMine.sol\":1911:1912  a */\n      dup5\n        /* \"contracts/DODOMine.sol\":1911:1916  a * b */\n      tag_402\n      swap2\n      swap1\n      tag_403\n      jump\t// in\n    tag_402:\n        /* \"contracts/DODOMine.sol\":1899:1916  uint256 c = a * b */\n      swap1\n      pop\n        /* \"contracts/DODOMine.sol\":1944:1945  b */\n      dup3\n        /* \"contracts/DODOMine.sol\":1939:1940  a */\n      dup5\n        /* \"contracts/DODOMine.sol\":1935:1936  c */\n      dup3\n        /* \"contracts/DODOMine.sol\":1935:1940  c / a */\n      tag_404\n      swap2\n      swap1\n      tag_375\n      jump\t// in\n    tag_404:\n        /* \"contracts/DODOMine.sol\":1935:1945  c / a == b */\n      eq\n        /* \"contracts/DODOMine.sol\":1927:1959  require(c / a == b, \"MUL_ERROR\") */\n      tag_405\n      jumpi\n      mload(0x40)\n      0x08c379a000000000000000000000000000000000000000000000000000000000\n      dup2\n      mstore\n      0x04\n      add\n      tag_406\n      swap1\n      tag_407\n      jump\t// in\n    tag_406:\n      mload(0x40)\n      dup1\n      swap2\n      sub\n      swap1\n      revert\n    tag_405:\n        /* \"contracts/DODOMine.sol\":1979:1980  c */\n      dup1\n        /* \"contracts/DODOMine.sol\":1972:1980  return c */\n      swap2\n      pop\n      pop\n        /* \"contracts/DODOMine.sol\":1762:1988  function mul(uint256 a, uint256 b) internal pure returns (uint256) {... */\n    tag_400:\n      swap3\n      swap2\n      pop\n      pop\n      jump\t// out\n        /* \"contracts/DODOMine.sol\":1996:2137  function div(uint256 a, uint256 b) internal pure returns (uint256) {... */\n    tag_230:\n        /* \"contracts/DODOMine.sol\":2054:2061  uint256 */\n      0x00\n        /* \"contracts/DODOMine.sol\":2086:2087  0 */\n      dup1\n        /* \"contracts/DODOMine.sol\":2082:2083  b */\n      dup3\n        /* \"contracts/DODOMine.sol\":2082:2087  b > 0 */\n      gt\n        /* \"contracts/DODOMine.sol\":2074:2106  require(b > 0, \"DIVIDING_ERROR\") */\n      tag_409\n      jumpi\n      mload(0x40)\n      0x08c379a000000000000000000000000000000000000000000000000000000000\n      dup2\n      mstore\n      0x04\n      add\n      tag_410\n      swap1\n      tag_411\n      jump\t// in\n    tag_410:\n      mload(0x40)\n      dup1\n      swap2\n      sub\n      swap1\n      revert\n    tag_409:\n        /* \"contracts/DODOMine.sol\":2128:2129  b */\n      dup2\n        /* \"contracts/DODOMine.sol\":2124:2125  a */\n      dup4\n        /* \"contracts/DODOMine.sol\":2124:2129  a / b */\n      tag_412\n      swap2\n      swap1\n      tag_375\n      jump\t// in\n    tag_412:\n        /* \"contracts/DODOMine.sol\":2117:2129  return a / b */\n      swap1\n      pop\n        /* \"contracts/DODOMine.sol\":1996:2137  function div(uint256 a, uint256 b) internal pure returns (uint256) {... */\n      swap3\n      swap2\n      pop\n      pop\n      jump\t// out\n        /* \"contracts/DODOMine.sol\":3540:3665  function divFloor(uint256 target, uint256 d) internal pure returns (uint256) {... */\n    tag_233:\n        /* \"contracts/DODOMine.sol\":3608:3615  uint256 */\n      0x00\n        /* \"contracts/DODOMine.sol\":3635:3657  target.mul(ONE).div(d) */\n      tag_414\n        /* \"contracts/DODOMine.sol\":3655:3656  d */\n      dup3\n        /* \"contracts/DODOMine.sol\":3635:3650  target.mul(ONE) */\n      tag_415\n        /* \"contracts/DODOMine.sol\":3264:3270  10**18 */\n      0x0de0b6b3a7640000\n        /* \"contracts/DODOMine.sol\":3635:3641  target */\n      dup7\n        /* \"contracts/DODOMine.sol\":3635:3645  target.mul */\n      tag_229\n      swap1\n        /* \"contracts/DODOMine.sol\":3635:3650  target.mul(ONE) */\n      swap2\n      swap1\n      0xffffffff\n      and\n      jump\t// in\n    tag_415:\n        /* \"contracts/DODOMine.sol\":3635:3654  target.mul(ONE).div */\n      tag_230\n      swap1\n        /* \"contracts/DODOMine.sol\":3635:3657  target.mul(ONE).div(d) */\n      swap2\n      swap1\n      0xffffffff\n      and\n      jump\t// in\n    tag_414:\n        /* \"contracts/DODOMine.sol\":3628:3657  return target.mul(ONE).div(d) */\n      swap1\n      pop\n        /* \"contracts/DODOMine.sol\":3540:3665  function divFloor(uint256 target, uint256 d) internal pure returns (uint256) {... */\n      swap3\n      swap2\n      pop\n      pop\n      jump\t// out\n        /* \"contracts/DODOMine.sol\":7037:7248  function safeTransfer(... */\n    tag_250:\n        /* \"contracts/DODOMine.sol\":7154:7240  _callOptionalReturn(token, abi.encodeWithSelector(token.transfer.selector, to, value)) */\n      tag_417\n        /* \"contracts/DODOMine.sol\":7174:7179  token */\n      dup4\n        /* \"contracts/DODOMine.sol\":7204:7227  token.transfer.selector */\n      shl(0xe0, 0xa9059cbb)\n        /* \"contracts/DODOMine.sol\":7229:7231  to */\n      dup5\n        /* \"contracts/DODOMine.sol\":7233:7238  value */\n      dup5\n        /* \"contracts/DODOMine.sol\":7181:7239  abi.encodeWithSelector(token.transfer.selector, to, value) */\n      add(0x24, mload(0x40))\n      tag_418\n      swap3\n      swap2\n      swap1\n      tag_383\n      jump\t// in\n    tag_418:\n      mload(0x40)\n      0x20\n      dup2\n      dup4\n      sub\n      sub\n      dup2\n      mstore\n      swap1\n      0x40\n      mstore\n      swap1\n      not(0xffffffffffffffffffffffffffffffffffffffffffffffffffffffff)\n      and\n      0x20\n      dup3\n      add\n      dup1\n      mload\n      0xffffffffffffffffffffffffffffffffffffffffffffffffffffffff\n      dup4\n      dup2\n      dup4\n      and\n      or\n      dup4\n      mstore\n      pop\n      pop\n      pop\n      pop\n        /* \"contracts/DODOMine.sol\":7154:7173  _callOptionalReturn */\n      tag_399\n        /* \"contracts/DODOMine.sol\":7154:7240  _callOptionalReturn(token, abi.encodeWithSelector(token.transfer.selector, to, value)) */\n      jump\t// in\n    tag_417:\n        /* \"contracts/DODOMine.sol\":7037:7248  function safeTransfer(... */\n      pop\n      pop\n      pop\n      jump\t// out\n        /* \"contracts/DODOMine.sol\":8610:9656  function _callOptionalReturn(IERC20 token, bytes memory data) private {... */\n    tag_399:\n        /* \"contracts/DODOMine.sol\":9270:9282  bool success */\n      0x00\n        /* \"contracts/DODOMine.sol\":9284:9307  bytes memory returndata */\n      dup1\n        /* \"contracts/DODOMine.sol\":9319:9324  token */\n      dup4\n        /* \"contracts/DODOMine.sol\":9311:9330  address(token).call */\n      0xffffffffffffffffffffffffffffffffffffffff\n      and\n        /* \"contracts/DODOMine.sol\":9331:9335  data */\n      dup4\n        /* \"contracts/DODOMine.sol\":9311:9336  address(token).call(data) */\n      mload(0x40)\n      tag_420\n      swap2\n      swap1\n      tag_421\n      jump\t// in\n    tag_420:\n      0x00\n      mload(0x40)\n      dup1\n      dup4\n      sub\n      dup2\n      0x00\n      dup7\n      gas\n      call\n      swap2\n      pop\n      pop\n      returndatasize\n      dup1\n      0x00\n      dup2\n      eq\n      tag_424\n      jumpi\n      mload(0x40)\n      swap2\n      pop\n      and(add(returndatasize, 0x3f), not(0x1f))\n      dup3\n      add\n      0x40\n      mstore\n      returndatasize\n      dup3\n      mstore\n      returndatasize\n      0x00\n      0x20\n      dup5\n      add\n      returndatacopy\n      jump(tag_423)\n    tag_424:\n      0x60\n      swap2\n      pop\n    tag_423:\n      pop\n        /* \"contracts/DODOMine.sol\":9269:9336  (bool success, bytes memory returndata) = address(token).call(data) */\n      swap2\n      pop\n      swap2\n      pop\n        /* \"contracts/DODOMine.sol\":9355:9362  success */\n      dup2\n        /* \"contracts/DODOMine.sol\":9347:9399  require(success, \"SafeERC20: low-level call failed\") */\n      tag_425\n      jumpi\n      mload(0x40)\n      0x08c379a000000000000000000000000000000000000000000000000000000000\n      dup2\n      mstore\n      0x04\n      add\n      tag_426\n      swap1\n      tag_427\n      jump\t// in\n    tag_426:\n      mload(0x40)\n      dup1\n      swap2\n      sub\n      swap1\n      revert\n    tag_425:\n        /* \"contracts/DODOMine.sol\":9436:9437  0 */\n      0x00\n        /* \"contracts/DODOMine.sol\":9416:9426  returndata */\n      dup2\n        /* \"contracts/DODOMine.sol\":9416:9433  returndata.length */\n      mload\n        /* \"contracts/DODOMine.sol\":9416:9437  returndata.length > 0 */\n      gt\n        /* \"contracts/DODOMine.sol\":9412:9649  if (returndata.length > 0) {... */\n      iszero\n      tag_428\n      jumpi\n        /* \"contracts/DODOMine.sol\":9571:9581  returndata */\n      dup1\n        /* \"contracts/DODOMine.sol\":9560:9590  abi.decode(returndata, (bool)) */\n      dup1\n      0x20\n      add\n      swap1\n      mload\n      dup2\n      add\n      swap1\n      tag_429\n      swap2\n      swap1\n      tag_430\n      jump\t// in\n    tag_429:\n        /* \"contracts/DODOMine.sol\":9552:9637  require(abi.decode(returndata, (bool)), \"SafeERC20: ERC20 operation did not succeed\") */\n      tag_431\n      jumpi\n      mload(0x40)\n      0x08c379a000000000000000000000000000000000000000000000000000000000\n      dup2\n      mstore\n      0x04\n      add\n      tag_432\n      swap1\n      tag_433\n      jump\t// in\n    tag_432:\n      mload(0x40)\n      dup1\n      swap2\n      sub\n      swap1\n      revert\n    tag_431:\n        /* \"contracts/DODOMine.sol\":9412:9649  if (returndata.length > 0) {... */\n    tag_428:\n        /* \"contracts/DODOMine.sol\":8680:9656  {... */\n      pop\n      pop\n        /* \"contracts/DODOMine.sol\":8610:9656  function _callOptionalReturn(IERC20 token, bytes memory data) private {... */\n      pop\n      pop\n      jump\t// out\n        /* \"#utility.yul\":7:84   */\n    tag_434:\n        /* \"#utility.yul\":44:51   */\n      0x00\n        /* \"#utility.yul\":73:78   */\n      dup2\n        /* \"#utility.yul\":62:78   */\n      swap1\n      pop\n        /* \"#utility.yul\":7:84   */\n      swap2\n      swap1\n      pop\n      jump\t// out\n        /* \"#utility.yul\":90:208   */\n    tag_435:\n        /* \"#utility.yul\":177:201   */\n      tag_485\n        /* \"#utility.yul\":195:200   */\n      dup2\n        /* \"#utility.yul\":177:201   */\n      tag_434\n      jump\t// in\n    tag_485:\n        /* \"#utility.yul\":172:175   */\n      dup3\n        /* \"#utility.yul\":165:202   */\n      mstore\n        /* \"#utility.yul\":90:208   */\n      pop\n      pop\n      jump\t// out\n        /* \"#utility.yul\":214:436   */\n    tag_43:\n        /* \"#utility.yul\":307:311   */\n      0x00\n        /* \"#utility.yul\":345:347   */\n      0x20\n        /* \"#utility.yul\":334:343   */\n      dup3\n        /* \"#utility.yul\":330:348   */\n      add\n        /* \"#utility.yul\":322:348   */\n      swap1\n      pop\n        /* \"#utility.yul\":358:429   */\n      tag_487\n        /* \"#utility.yul\":426:427   */\n      0x00\n        /* \"#utility.yul\":415:424   */\n      dup4\n        /* \"#utility.yul\":411:428   */\n      add\n        /* \"#utility.yul\":402:408   */\n      dup5\n        /* \"#utility.yul\":358:429   */\n      tag_435\n      jump\t// in\n    tag_487:\n        /* \"#utility.yul\":214:436   */\n      swap3\n      swap2\n      pop\n      pop\n      jump\t// out\n        /* \"#utility.yul\":442:568   */\n    tag_436:\n        /* \"#utility.yul\":479:486   */\n      0x00\n        /* \"#utility.yul\":519:561   */\n      0xffffffffffffffffffffffffffffffffffffffff\n        /* \"#utility.yul\":512:517   */\n      dup3\n        /* \"#utility.yul\":508:562   */\n      and\n        /* \"#utility.yul\":497:562   */\n      swap1\n      pop\n        /* \"#utility.yul\":442:568   */\n      swap2\n      swap1\n      pop\n      jump\t// out\n        /* \"#utility.yul\":574:670   */\n    tag_437:\n        /* \"#utility.yul\":611:618   */\n      0x00\n        /* \"#utility.yul\":640:664   */\n      tag_490\n        /* \"#utility.yul\":658:663   */\n      dup3\n        /* \"#utility.yul\":640:664   */\n      tag_436\n      jump\t// in\n    tag_490:\n        /* \"#utility.yul\":629:664   */\n      swap1\n      pop\n        /* \"#utility.yul\":574:670   */\n      swap2\n      swap1\n      pop\n      jump\t// out\n        /* \"#utility.yul\":676:794   */\n    tag_438:\n        /* \"#utility.yul\":763:787   */\n      tag_492\n        /* \"#utility.yul\":781:786   */\n      dup2\n        /* \"#utility.yul\":763:787   */\n      tag_437\n      jump\t// in\n    tag_492:\n        /* \"#utility.yul\":758:761   */\n      dup3\n        /* \"#utility.yul\":751:788   */\n      mstore\n        /* \"#utility.yul\":676:794   */\n      pop\n      pop\n      jump\t// out\n        /* \"#utility.yul\":800:1022   */\n    tag_47:\n        /* \"#utility.yul\":893:897   */\n      0x00\n        /* \"#utility.yul\":931:933   */\n      0x20\n        /* \"#utility.yul\":920:929   */\n      dup3\n        /* \"#utility.yul\":916:934   */\n      add\n        /* \"#utility.yul\":908:934   */\n      swap1\n      pop\n        /* \"#utility.yul\":944:1015   */\n      tag_494\n        /* \"#utility.yul\":1012:1013   */\n      0x00\n        /* \"#utility.yul\":1001:1010   */\n      dup4\n        /* \"#utility.yul\":997:1014   */\n      add\n        /* \"#utility.yul\":988:994   */\n      dup5\n        /* \"#utility.yul\":944:1015   */\n      tag_438\n      jump\t// in\n    tag_494:\n        /* \"#utility.yul\":800:1022   */\n      swap3\n      swap2\n      pop\n      pop\n      jump\t// out\n        /* \"#utility.yul\":1109:1226   */\n    tag_440:\n        /* \"#utility.yul\":1218:1219   */\n      0x00\n        /* \"#utility.yul\":1215:1216   */\n      dup1\n        /* \"#utility.yul\":1208:1220   */\n      revert\n        /* \"#utility.yul\":1355:1477   */\n    tag_442:\n        /* \"#utility.yul\":1428:1452   */\n      tag_499\n        /* \"#utility.yul\":1446:1451   */\n      dup2\n        /* \"#utility.yul\":1428:1452   */\n      tag_437\n      jump\t// in\n    tag_499:\n        /* \"#utility.yul\":1421:1426   */\n      dup2\n        /* \"#utility.yul\":1418:1453   */\n      eq\n        /* \"#utility.yul\":1408:1471   */\n      tag_500\n      jumpi\n        /* \"#utility.yul\":1467:1468   */\n      0x00\n        /* \"#utility.yul\":1464:1465   */\n      dup1\n        /* \"#utility.yul\":1457:1469   */\n      revert\n        /* \"#utility.yul\":1408:1471   */\n    tag_500:\n        /* \"#utility.yul\":1355:1477   */\n      pop\n      jump\t// out\n        /* \"#utility.yul\":1483:1622   */\n    tag_443:\n        /* \"#utility.yul\":1529:1534   */\n      0x00\n        /* \"#utility.yul\":1567:1573   */\n      dup2\n        /* \"#utility.yul\":1554:1574   */\n      calldataload\n        /* \"#utility.yul\":1545:1574   */\n      swap1\n      pop\n        /* \"#utility.yul\":1583:1616   */\n      tag_502\n        /* \"#utility.yul\":1610:1615   */\n      dup2\n        /* \"#utility.yul\":1583:1616   */\n      tag_442\n      jump\t// in\n    tag_502:\n        /* \"#utility.yul\":1483:1622   */\n      swap3\n      swap2\n      pop\n      pop\n      jump\t// out\n        /* \"#utility.yul\":1628:2102   */\n    tag_53:\n        /* \"#utility.yul\":1696:1702   */\n      0x00\n        /* \"#utility.yul\":1704:1710   */\n      dup1\n        /* \"#utility.yul\":1753:1755   */\n      0x40\n        /* \"#utility.yul\":1741:1750   */\n      dup4\n        /* \"#utility.yul\":1732:1739   */\n      dup6\n        /* \"#utility.yul\":1728:1751   */\n      sub\n        /* \"#utility.yul\":1724:1756   */\n      slt\n        /* \"#utility.yul\":1721:1840   */\n      iszero\n      tag_504\n      jumpi\n        /* \"#utility.yul\":1759:1838   */\n      tag_505\n      tag_440\n      jump\t// in\n    tag_505:\n        /* \"#utility.yul\":1721:1840   */\n    tag_504:\n        /* \"#utility.yul\":1879:1880   */\n      0x00\n        /* \"#utility.yul\":1904:1957   */\n      tag_506\n        /* \"#utility.yul\":1949:1956   */\n      dup6\n        /* \"#utility.yul\":1940:1946   */\n      dup3\n        /* \"#utility.yul\":1929:1938   */\n      dup7\n        /* \"#utility.yul\":1925:1947   */\n      add\n        /* \"#utility.yul\":1904:1957   */\n      tag_443\n      jump\t// in\n    tag_506:\n        /* \"#utility.yul\":1894:1957   */\n      swap3\n      pop\n        /* \"#utility.yul\":1850:1967   */\n      pop\n        /* \"#utility.yul\":2006:2008   */\n      0x20\n        /* \"#utility.yul\":2032:2085   */\n      tag_507\n        /* \"#utility.yul\":2077:2084   */\n      dup6\n        /* \"#utility.yul\":2068:2074   */\n      dup3\n        /* \"#utility.yul\":2057:2066   */\n      dup7\n        /* \"#utility.yul\":2053:2075   */\n      add\n        /* \"#utility.yul\":2032:2085   */\n      tag_443\n      jump\t// in\n    tag_507:\n        /* \"#utility.yul\":2022:2085   */\n      swap2\n      pop\n        /* \"#utility.yul\":1977:2095   */\n      pop\n        /* \"#utility.yul\":1628:2102   */\n      swap3\n      pop\n      swap3\n      swap1\n      pop\n      jump\t// out\n        /* \"#utility.yul\":2108:2437   */\n    tag_58:\n        /* \"#utility.yul\":2167:2173   */\n      0x00\n        /* \"#utility.yul\":2216:2218   */\n      0x20\n        /* \"#utility.yul\":2204:2213   */\n      dup3\n        /* \"#utility.yul\":2195:2202   */\n      dup5\n        /* \"#utility.yul\":2191:2214   */\n      sub\n        /* \"#utility.yul\":2187:2219   */\n      slt\n        /* \"#utility.yul\":2184:2303   */\n      iszero\n      tag_509\n      jumpi\n        /* \"#utility.yul\":2222:2301   */\n      tag_510\n      tag_440\n      jump\t// in\n    tag_510:\n        /* \"#utility.yul\":2184:2303   */\n    tag_509:\n        /* \"#utility.yul\":2342:2343   */\n      0x00\n        /* \"#utility.yul\":2367:2420   */\n      tag_511\n        /* \"#utility.yul\":2412:2419   */\n      dup5\n        /* \"#utility.yul\":2403:2409   */\n      dup3\n        /* \"#utility.yul\":2392:2401   */\n      dup6\n        /* \"#utility.yul\":2388:2410   */\n      add\n        /* \"#utility.yul\":2367:2420   */\n      tag_443\n      jump\t// in\n    tag_511:\n        /* \"#utility.yul\":2357:2420   */\n      swap2\n      pop\n        /* \"#utility.yul\":2313:2430   */\n      pop\n        /* \"#utility.yul\":2108:2437   */\n      swap3\n      swap2\n      pop\n      pop\n      jump\t// out\n        /* \"#utility.yul\":2443:2565   */\n    tag_444:\n        /* \"#utility.yul\":2516:2540   */\n      tag_513\n        /* \"#utility.yul\":2534:2539   */\n      dup2\n        /* \"#utility.yul\":2516:2540   */\n      tag_434\n      jump\t// in\n    tag_513:\n        /* \"#utility.yul\":2509:2514   */\n      dup2\n        /* \"#utility.yul\":2506:2541   */\n      eq\n        /* \"#utility.yul\":2496:2559   */\n      tag_514\n      jumpi\n        /* \"#utility.yul\":2555:2556   */\n      0x00\n        /* \"#utility.yul\":2552:2553   */\n      dup1\n        /* \"#utility.yul\":2545:2557   */\n      revert\n        /* \"#utility.yul\":2496:2559   */\n    tag_514:\n        /* \"#utility.yul\":2443:2565   */\n      pop\n      jump\t// out\n        /* \"#utility.yul\":2571:2710   */\n    tag_445:\n        /* \"#utility.yul\":2617:2622   */\n      0x00\n        /* \"#utility.yul\":2655:2661   */\n      dup2\n        /* \"#utility.yul\":2642:2662   */\n      calldataload\n        /* \"#utility.yul\":2633:2662   */\n      swap1\n      pop\n        /* \"#utility.yul\":2671:2704   */\n      tag_516\n        /* \"#utility.yul\":2698:2703   */\n      dup2\n        /* \"#utility.yul\":2671:2704   */\n      tag_444\n      jump\t// in\n    tag_516:\n        /* \"#utility.yul\":2571:2710   */\n      swap3\n      swap2\n      pop\n      pop\n      jump\t// out\n        /* \"#utility.yul\":2716:2806   */\n    tag_446:\n        /* \"#utility.yul\":2750:2757   */\n      0x00\n        /* \"#utility.yul\":2793:2798   */\n      dup2\n        /* \"#utility.yul\":2786:2799   */\n      iszero\n        /* \"#utility.yul\":2779:2800   */\n      iszero\n        /* \"#utility.yul\":2768:2800   */\n      swap1\n      pop\n        /* \"#utility.yul\":2716:2806   */\n      swap2\n      swap1\n      pop\n      jump\t// out\n        /* \"#utility.yul\":2812:2928   */\n    tag_447:\n        /* \"#utility.yul\":2882:2903   */\n      tag_519\n        /* \"#utility.yul\":2897:2902   */\n      dup2\n        /* \"#utility.yul\":2882:2903   */\n      tag_446\n      jump\t// in\n    tag_519:\n        /* \"#utility.yul\":2875:2880   */\n      dup2\n        /* \"#utility.yul\":2872:2904   */\n      eq\n        /* \"#utility.yul\":2862:2922   */\n      tag_520\n      jumpi\n        /* \"#utility.yul\":2918:2919   */\n      0x00\n        /* \"#utility.yul\":2915:2916   */\n      dup1\n        /* \"#utility.yul\":2908:2920   */\n      revert\n        /* \"#utility.yul\":2862:2922   */\n    tag_520:\n        /* \"#utility.yul\":2812:2928   */\n      pop\n      jump\t// out\n        /* \"#utility.yul\":2934:3067   */\n    tag_448:\n        /* \"#utility.yul\":2977:2982   */\n      0x00\n        /* \"#utility.yul\":3015:3021   */\n      dup2\n        /* \"#utility.yul\":3002:3022   */\n      calldataload\n        /* \"#utility.yul\":2993:3022   */\n      swap1\n      pop\n        /* \"#utility.yul\":3031:3061   */\n      tag_522\n        /* \"#utility.yul\":3055:3060   */\n      dup2\n        /* \"#utility.yul\":3031:3061   */\n      tag_447\n      jump\t// in\n    tag_522:\n        /* \"#utility.yul\":2934:3067   */\n      swap3\n      swap2\n      pop\n      pop\n      jump\t// out\n        /* \"#utility.yul\":3073:3686   */\n    tag_62:\n        /* \"#utility.yul\":3147:3153   */\n      0x00\n        /* \"#utility.yul\":3155:3161   */\n      dup1\n        /* \"#utility.yul\":3163:3169   */\n      0x00\n        /* \"#utility.yul\":3212:3214   */\n      0x60\n        /* \"#utility.yul\":3200:3209   */\n      dup5\n        /* \"#utility.yul\":3191:3198   */\n      dup7\n        /* \"#utility.yul\":3187:3210   */\n      sub\n        /* \"#utility.yul\":3183:3215   */\n      slt\n        /* \"#utility.yul\":3180:3299   */\n      iszero\n      tag_524\n      jumpi\n        /* \"#utility.yul\":3218:3297   */\n      tag_525\n      tag_440\n      jump\t// in\n    tag_525:\n        /* \"#utility.yul\":3180:3299   */\n    tag_524:\n        /* \"#utility.yul\":3338:3339   */\n      0x00\n        /* \"#utility.yul\":3363:3416   */\n      tag_526\n        /* \"#utility.yul\":3408:3415   */\n      dup7\n        /* \"#utility.yul\":3399:3405   */\n      dup3\n        /* \"#utility.yul\":3388:3397   */\n      dup8\n        /* \"#utility.yul\":3384:3406   */\n      add\n        /* \"#utility.yul\":3363:3416   */\n      tag_443\n      jump\t// in\n    tag_526:\n        /* \"#utility.yul\":3353:3416   */\n      swap4\n      pop\n        /* \"#utility.yul\":3309:3426   */\n      pop\n        /* \"#utility.yul\":3465:3467   */\n      0x20\n        /* \"#utility.yul\":3491:3544   */\n      tag_527\n        /* \"#utility.yul\":3536:3543   */\n      dup7\n        /* \"#utility.yul\":3527:3533   */\n      dup3\n        /* \"#utility.yul\":3516:3525   */\n      dup8\n        /* \"#utility.yul\":3512:3534   */\n      add\n        /* \"#utility.yul\":3491:3544   */\n      tag_445\n      jump\t// in\n    tag_527:\n        /* \"#utility.yul\":3481:3544   */\n      swap3\n      pop\n        /* \"#utility.yul\":3436:3554   */\n      pop\n        /* \"#utility.yul\":3593:3595   */\n      0x40\n        /* \"#utility.yul\":3619:3669   */\n      tag_528\n        /* \"#utility.yul\":3661:3668   */\n      dup7\n        /* \"#utility.yul\":3652:3658   */\n      dup3\n        /* \"#utility.yul\":3641:3650   */\n      dup8\n        /* \"#utility.yul\":3637:3659   */\n      add\n        /* \"#utility.yul\":3619:3669   */\n      tag_448\n      jump\t// in\n    tag_528:\n        /* \"#utility.yul\":3609:3669   */\n      swap2\n      pop\n        /* \"#utility.yul\":3564:3679   */\n      pop\n        /* \"#utility.yul\":3073:3686   */\n      swap3\n      pop\n      swap3\n      pop\n      swap3\n      jump\t// out\n        /* \"#utility.yul\":3692:4166   */\n    tag_74:\n        /* \"#utility.yul\":3760:3766   */\n      0x00\n        /* \"#utility.yul\":3768:3774   */\n      dup1\n        /* \"#utility.yul\":3817:3819   */\n      0x40\n        /* \"#utility.yul\":3805:3814   */\n      dup4\n        /* \"#utility.yul\":3796:3803   */\n      dup6\n        /* \"#utility.yul\":3792:3815   */\n      sub\n        /* \"#utility.yul\":3788:3820   */\n      slt\n        /* \"#utility.yul\":3785:3904   */\n      iszero\n      tag_530\n      jumpi\n        /* \"#utility.yul\":3823:3902   */\n      tag_531\n      tag_440\n      jump\t// in\n    tag_531:\n        /* \"#utility.yul\":3785:3904   */\n    tag_530:\n        /* \"#utility.yul\":3943:3944   */\n      0x00\n        /* \"#utility.yul\":3968:4021   */\n      tag_532\n        /* \"#utility.yul\":4013:4020   */\n      dup6\n        /* \"#utility.yul\":4004:4010   */\n      dup3\n        /* \"#utility.yul\":3993:4002   */\n      dup7\n        /* \"#utility.yul\":3989:4011   */\n      add\n        /* \"#utility.yul\":3968:4021   */\n      tag_443\n      jump\t// in\n    tag_532:\n        /* \"#utility.yul\":3958:4021   */\n      swap3\n      pop\n        /* \"#utility.yul\":3914:4031   */\n      pop\n        /* \"#utility.yul\":4070:4072   */\n      0x20\n        /* \"#utility.yul\":4096:4149   */\n      tag_533\n        /* \"#utility.yul\":4141:4148   */\n      dup6\n        /* \"#utility.yul\":4132:4138   */\n      dup3\n        /* \"#utility.yul\":4121:4130   */\n      dup7\n        /* \"#utility.yul\":4117:4139   */\n      add\n        /* \"#utility.yul\":4096:4149   */\n      tag_445\n      jump\t// in\n    tag_533:\n        /* \"#utility.yul\":4086:4149   */\n      swap2\n      pop\n        /* \"#utility.yul\":4041:4159   */\n      pop\n        /* \"#utility.yul\":3692:4166   */\n      swap3\n      pop\n      swap3\n      swap1\n      pop\n      jump\t// out\n        /* \"#utility.yul\":4172:4501   */\n    tag_83:\n        /* \"#utility.yul\":4231:4237   */\n      0x00\n        /* \"#utility.yul\":4280:4282   */\n      0x20\n        /* \"#utility.yul\":4268:4277   */\n      dup3\n        /* \"#utility.yul\":4259:4266   */\n      dup5\n        /* \"#utility.yul\":4255:4278   */\n      sub\n        /* \"#utility.yul\":4251:4283   */\n      slt\n        /* \"#utility.yul\":4248:4367   */\n      iszero\n      tag_535\n      jumpi\n        /* \"#utility.yul\":4286:4365   */\n      tag_536\n      tag_440\n      jump\t// in\n    tag_536:\n        /* \"#utility.yul\":4248:4367   */\n    tag_535:\n        /* \"#utility.yul\":4406:4407   */\n      0x00\n        /* \"#utility.yul\":4431:4484   */\n      tag_537\n        /* \"#utility.yul\":4476:4483   */\n      dup5\n        /* \"#utility.yul\":4467:4473   */\n      dup3\n        /* \"#utility.yul\":4456:4465   */\n      dup6\n        /* \"#utility.yul\":4452:4474   */\n      add\n        /* \"#utility.yul\":4431:4484   */\n      tag_445\n      jump\t// in\n    tag_537:\n        /* \"#utility.yul\":4421:4484   */\n      swap2\n      pop\n        /* \"#utility.yul\":4377:4494   */\n      pop\n        /* \"#utility.yul\":4172:4501   */\n      swap3\n      swap2\n      pop\n      pop\n      jump\t// out\n        /* \"#utility.yul\":4507:5060   */\n    tag_91:\n        /* \"#utility.yul\":4684:4688   */\n      0x00\n        /* \"#utility.yul\":4722:4725   */\n      0x80\n        /* \"#utility.yul\":4711:4720   */\n      dup3\n        /* \"#utility.yul\":4707:4726   */\n      add\n        /* \"#utility.yul\":4699:4726   */\n      swap1\n      pop\n        /* \"#utility.yul\":4736:4807   */\n      tag_539\n        /* \"#utility.yul\":4804:4805   */\n      0x00\n        /* \"#utility.yul\":4793:4802   */\n      dup4\n        /* \"#utility.yul\":4789:4806   */\n      add\n        /* \"#utility.yul\":4780:4786   */\n      dup8\n        /* \"#utility.yul\":4736:4807   */\n      tag_438\n      jump\t// in\n    tag_539:\n        /* \"#utility.yul\":4817:4889   */\n      tag_540\n        /* \"#utility.yul\":4885:4887   */\n      0x20\n        /* \"#utility.yul\":4874:4883   */\n      dup4\n        /* \"#utility.yul\":4870:4888   */\n      add\n        /* \"#utility.yul\":4861:4867   */\n      dup7\n        /* \"#utility.yul\":4817:4889   */\n      tag_435\n      jump\t// in\n    tag_540:\n        /* \"#utility.yul\":4899:4971   */\n      tag_541\n        /* \"#utility.yul\":4967:4969   */\n      0x40\n        /* \"#utility.yul\":4956:4965   */\n      dup4\n        /* \"#utility.yul\":4952:4970   */\n      add\n        /* \"#utility.yul\":4943:4949   */\n      dup6\n        /* \"#utility.yul\":4899:4971   */\n      tag_435\n      jump\t// in\n    tag_541:\n        /* \"#utility.yul\":4981:5053   */\n      tag_542\n        /* \"#utility.yul\":5049:5051   */\n      0x60\n        /* \"#utility.yul\":5038:5047   */\n      dup4\n        /* \"#utility.yul\":5034:5052   */\n      add\n        /* \"#utility.yul\":5025:5031   */\n      dup5\n        /* \"#utility.yul\":4981:5053   */\n      tag_435\n      jump\t// in\n    tag_542:\n        /* \"#utility.yul\":4507:5060   */\n      swap6\n      swap5\n      pop\n      pop\n      pop\n      pop\n      pop\n      jump\t// out\n        /* \"#utility.yul\":5066:5534   */\n    tag_101:\n        /* \"#utility.yul\":5131:5137   */\n      0x00\n        /* \"#utility.yul\":5139:5145   */\n      dup1\n        /* \"#utility.yul\":5188:5190   */\n      0x40\n        /* \"#utility.yul\":5176:5185   */\n      dup4\n        /* \"#utility.yul\":5167:5174   */\n      dup6\n        /* \"#utility.yul\":5163:5186   */\n      sub\n        /* \"#utility.yul\":5159:5191   */\n      slt\n        /* \"#utility.yul\":5156:5275   */\n      iszero\n      tag_544\n      jumpi\n        /* \"#utility.yul\":5194:5273   */\n      tag_545\n      tag_440\n      jump\t// in\n    tag_545:\n        /* \"#utility.yul\":5156:5275   */\n    tag_544:\n        /* \"#utility.yul\":5314:5315   */\n      0x00\n        /* \"#utility.yul\":5339:5392   */\n      tag_546\n        /* \"#utility.yul\":5384:5391   */\n      dup6\n        /* \"#utility.yul\":5375:5381   */\n      dup3\n        /* \"#utility.yul\":5364:5373   */\n      dup7\n        /* \"#utility.yul\":5360:5382   */\n      add\n        /* \"#utility.yul\":5339:5392   */\n      tag_445\n      jump\t// in\n    tag_546:\n        /* \"#utility.yul\":5329:5392   */\n      swap3\n      pop\n        /* \"#utility.yul\":5285:5402   */\n      pop\n        /* \"#utility.yul\":5441:5443   */\n      0x20\n        /* \"#utility.yul\":5467:5517   */\n      tag_547\n        /* \"#utility.yul\":5509:5516   */\n      dup6\n        /* \"#utility.yul\":5500:5506   */\n      dup3\n        /* \"#utility.yul\":5489:5498   */\n      dup7\n        /* \"#utility.yul\":5485:5507   */\n      add\n        /* \"#utility.yul\":5467:5517   */\n      tag_448\n      jump\t// in\n    tag_547:\n        /* \"#utility.yul\":5457:5517   */\n      swap2\n      pop\n        /* \"#utility.yul\":5412:5527   */\n      pop\n        /* \"#utility.yul\":5066:5534   */\n      swap3\n      pop\n      swap3\n      swap1\n      pop\n      jump\t// out\n        /* \"#utility.yul\":5540:6014   */\n    tag_111:\n        /* \"#utility.yul\":5608:5614   */\n      0x00\n        /* \"#utility.yul\":5616:5622   */\n      dup1\n        /* \"#utility.yul\":5665:5667   */\n      0x40\n        /* \"#utility.yul\":5653:5662   */\n      dup4\n        /* \"#utility.yul\":5644:5651   */\n      dup6\n        /* \"#utility.yul\":5640:5663   */\n      sub\n        /* \"#utility.yul\":5636:5668   */\n      slt\n        /* \"#utility.yul\":5633:5752   */\n      iszero\n      tag_549\n      jumpi\n        /* \"#utility.yul\":5671:5750   */\n      tag_550\n      tag_440\n      jump\t// in\n    tag_550:\n        /* \"#utility.yul\":5633:5752   */\n    tag_549:\n        /* \"#utility.yul\":5791:5792   */\n      0x00\n        /* \"#utility.yul\":5816:5869   */\n      tag_551\n        /* \"#utility.yul\":5861:5868   */\n      dup6\n        /* \"#utility.yul\":5852:5858   */\n      dup3\n        /* \"#utility.yul\":5841:5850   */\n      dup7\n        /* \"#utility.yul\":5837:5859   */\n      add\n        /* \"#utility.yul\":5816:5869   */\n      tag_445\n      jump\t// in\n    tag_551:\n        /* \"#utility.yul\":5806:5869   */\n      swap3\n      pop\n        /* \"#utility.yul\":5762:5879   */\n      pop\n        /* \"#utility.yul\":5918:5920   */\n      0x20\n        /* \"#utility.yul\":5944:5997   */\n      tag_552\n        /* \"#utility.yul\":5989:5996   */\n      dup6\n        /* \"#utility.yul\":5980:5986   */\n      dup3\n        /* \"#utility.yul\":5969:5978   */\n      dup7\n        /* \"#utility.yul\":5965:5987   */\n      add\n        /* \"#utility.yul\":5944:5997   */\n      tag_443\n      jump\t// in\n    tag_552:\n        /* \"#utility.yul\":5934:5997   */\n      swap2\n      pop\n        /* \"#utility.yul\":5889:6007   */\n      pop\n        /* \"#utility.yul\":5540:6014   */\n      swap3\n      pop\n      swap3\n      swap1\n      pop\n      jump\t// out\n        /* \"#utility.yul\":6020:6352   */\n    tag_114:\n        /* \"#utility.yul\":6141:6145   */\n      0x00\n        /* \"#utility.yul\":6179:6181   */\n      0x40\n        /* \"#utility.yul\":6168:6177   */\n      dup3\n        /* \"#utility.yul\":6164:6182   */\n      add\n        /* \"#utility.yul\":6156:6182   */\n      swap1\n      pop\n        /* \"#utility.yul\":6192:6263   */\n      tag_554\n        /* \"#utility.yul\":6260:6261   */\n      0x00\n        /* \"#utility.yul\":6249:6258   */\n      dup4\n        /* \"#utility.yul\":6245:6262   */\n      add\n        /* \"#utility.yul\":6236:6242   */\n      dup6\n        /* \"#utility.yul\":6192:6263   */\n      tag_435\n      jump\t// in\n    tag_554:\n        /* \"#utility.yul\":6273:6345   */\n      tag_555\n        /* \"#utility.yul\":6341:6343   */\n      0x20\n        /* \"#utility.yul\":6330:6339   */\n      dup4\n        /* \"#utility.yul\":6326:6344   */\n      add\n        /* \"#utility.yul\":6317:6323   */\n      dup5\n        /* \"#utility.yul\":6273:6345   */\n      tag_435\n      jump\t// in\n    tag_555:\n        /* \"#utility.yul\":6020:6352   */\n      swap4\n      swap3\n      pop\n      pop\n      pop\n      jump\t// out\n        /* \"#utility.yul\":6358:6538   */\n    tag_156:\n        /* \"#utility.yul\":6406:6483   */\n      0x4e487b7100000000000000000000000000000000000000000000000000000000\n        /* \"#utility.yul\":6403:6404   */\n      0x00\n        /* \"#utility.yul\":6396:6484   */\n      mstore\n        /* \"#utility.yul\":6503:6507   */\n      0x32\n        /* \"#utility.yul\":6500:6501   */\n      0x04\n        /* \"#utility.yul\":6493:6508   */\n      mstore\n        /* \"#utility.yul\":6527:6531   */\n      0x24\n        /* \"#utility.yul\":6524:6525   */\n      0x00\n        /* \"#utility.yul\":6517:6532   */\n      revert\n        /* \"#utility.yul\":6544:6713   */\n    tag_449:\n        /* \"#utility.yul\":6628:6639   */\n      0x00\n        /* \"#utility.yul\":6662:6668   */\n      dup3\n        /* \"#utility.yul\":6657:6660   */\n      dup3\n        /* \"#utility.yul\":6650:6669   */\n      mstore\n        /* \"#utility.yul\":6702:6706   */\n      0x20\n        /* \"#utility.yul\":6697:6700   */\n      dup3\n        /* \"#utility.yul\":6693:6707   */\n      add\n        /* \"#utility.yul\":6678:6707   */\n      swap1\n      pop\n        /* \"#utility.yul\":6544:6713   */\n      swap3\n      swap2\n      pop\n      pop\n      jump\t// out\n        /* \"#utility.yul\":6719:6878   */\n    tag_450:\n        /* \"#utility.yul\":6859:6870   */\n      0x4e4f545f4f574e45520000000000000000000000000000000000000000000000\n        /* \"#utility.yul\":6855:6856   */\n      0x00\n        /* \"#utility.yul\":6847:6853   */\n      dup3\n        /* \"#utility.yul\":6843:6857   */\n      add\n        /* \"#utility.yul\":6836:6871   */\n      mstore\n        /* \"#utility.yul\":6719:6878   */\n      pop\n      jump\t// out\n        /* \"#utility.yul\":6884:7249   */\n    tag_451:\n        /* \"#utility.yul\":7026:7029   */\n      0x00\n        /* \"#utility.yul\":7047:7113   */\n      tag_560\n        /* \"#utility.yul\":7111:7112   */\n      0x09\n        /* \"#utility.yul\":7106:7109   */\n      dup4\n        /* \"#utility.yul\":7047:7113   */\n      tag_449\n      jump\t// in\n    tag_560:\n        /* \"#utility.yul\":7040:7113   */\n      swap2\n      pop\n        /* \"#utility.yul\":7122:7215   */\n      tag_561\n        /* \"#utility.yul\":7211:7214   */\n      dup3\n        /* \"#utility.yul\":7122:7215   */\n      tag_450\n      jump\t// in\n    tag_561:\n        /* \"#utility.yul\":7240:7242   */\n      0x20\n        /* \"#utility.yul\":7235:7238   */\n      dup3\n        /* \"#utility.yul\":7231:7243   */\n      add\n        /* \"#utility.yul\":7224:7243   */\n      swap1\n      pop\n        /* \"#utility.yul\":6884:7249   */\n      swap2\n      swap1\n      pop\n      jump\t// out\n        /* \"#utility.yul\":7255:7674   */\n    tag_173:\n        /* \"#utility.yul\":7421:7425   */\n      0x00\n        /* \"#utility.yul\":7459:7461   */\n      0x20\n        /* \"#utility.yul\":7448:7457   */\n      dup3\n        /* \"#utility.yul\":7444:7462   */\n      add\n        /* \"#utility.yul\":7436:7462   */\n      swap1\n      pop\n        /* \"#utility.yul\":7508:7517   */\n      dup2\n        /* \"#utility.yul\":7502:7506   */\n      dup2\n        /* \"#utility.yul\":7498:7518   */\n      sub\n        /* \"#utility.yul\":7494:7495   */\n      0x00\n        /* \"#utility.yul\":7483:7492   */\n      dup4\n        /* \"#utility.yul\":7479:7496   */\n      add\n        /* \"#utility.yul\":7472:7519   */\n      mstore\n        /* \"#utility.yul\":7536:7667   */\n      tag_563\n        /* \"#utility.yul\":7662:7666   */\n      dup2\n        /* \"#utility.yul\":7536:7667   */\n      tag_451\n      jump\t// in\n    tag_563:\n        /* \"#utility.yul\":7528:7667   */\n      swap1\n      pop\n        /* \"#utility.yul\":7255:7674   */\n      swap2\n      swap1\n      pop\n      jump\t// out\n        /* \"#utility.yul\":7680:7848   */\n    tag_452:\n        /* \"#utility.yul\":7820:7840   */\n      0x4c5020546f6b656e204e6f742045786973740000000000000000000000000000\n        /* \"#utility.yul\":7816:7817   */\n      0x00\n        /* \"#utility.yul\":7808:7814   */\n      dup3\n        /* \"#utility.yul\":7804:7818   */\n      add\n        /* \"#utility.yul\":7797:7841   */\n      mstore\n        /* \"#utility.yul\":7680:7848   */\n      pop\n      jump\t// out\n        /* \"#utility.yul\":7854:8220   */\n    tag_453:\n        /* \"#utility.yul\":7996:7999   */\n      0x00\n        /* \"#utility.yul\":8017:8084   */\n      tag_566\n        /* \"#utility.yul\":8081:8083   */\n      0x12\n        /* \"#utility.yul\":8076:8079   */\n      dup4\n        /* \"#utility.yul\":8017:8084   */\n      tag_449\n      jump\t// in\n    tag_566:\n        /* \"#utility.yul\":8010:8084   */\n      swap2\n      pop\n        /* \"#utility.yul\":8093:8186   */\n      tag_567\n        /* \"#utility.yul\":8182:8185   */\n      dup3\n        /* \"#utility.yul\":8093:8186   */\n      tag_452\n      jump\t// in\n    tag_567:\n        /* \"#utility.yul\":8211:8213   */\n      0x20\n        /* \"#utility.yul\":8206:8209   */\n      dup3\n        /* \"#utility.yul\":8202:8214   */\n      add\n        /* \"#utility.yul\":8195:8214   */\n      swap1\n      pop\n        /* \"#utility.yul\":7854:8220   */\n      swap2\n      swap1\n      pop\n      jump\t// out\n        /* \"#utility.yul\":8226:8645   */\n    tag_190:\n        /* \"#utility.yul\":8392:8396   */\n      0x00\n        /* \"#utility.yul\":8430:8432   */\n      0x20\n        /* \"#utility.yul\":8419:8428   */\n      dup3\n        /* \"#utility.yul\":8415:8433   */\n      add\n        /* \"#utility.yul\":8407:8433   */\n      swap1\n      pop\n        /* \"#utility.yul\":8479:8488   */\n      dup2\n        /* \"#utility.yul\":8473:8477   */\n      dup2\n        /* \"#utility.yul\":8469:8489   */\n      sub\n        /* \"#utility.yul\":8465:8466   */\n      0x00\n        /* \"#utility.yul\":8454:8463   */\n      dup4\n        /* \"#utility.yul\":8450:8467   */\n      add\n        /* \"#utility.yul\":8443:8490   */\n      mstore\n        /* \"#utility.yul\":8507:8638   */\n      tag_569\n        /* \"#utility.yul\":8633:8637   */\n      dup2\n        /* \"#utility.yul\":8507:8638   */\n      tag_453\n      jump\t// in\n    tag_569:\n        /* \"#utility.yul\":8499:8638   */\n      swap1\n      pop\n        /* \"#utility.yul\":8226:8645   */\n      swap2\n      swap1\n      pop\n      jump\t// out\n        /* \"#utility.yul\":8651:8831   */\n    tag_454:\n        /* \"#utility.yul\":8699:8776   */\n      0x4e487b7100000000000000000000000000000000000000000000000000000000\n        /* \"#utility.yul\":8696:8697   */\n      0x00\n        /* \"#utility.yul\":8689:8777   */\n      mstore\n        /* \"#utility.yul\":8796:8800   */\n      0x11\n        /* \"#utility.yul\":8793:8794   */\n      0x04\n        /* \"#utility.yul\":8786:8801   */\n      mstore\n        /* \"#utility.yul\":8820:8824   */\n      0x24\n        /* \"#utility.yul\":8817:8818   */\n      0x00\n        /* \"#utility.yul\":8810:8825   */\n      revert\n        /* \"#utility.yul\":8837:9028   */\n    tag_193:\n        /* \"#utility.yul\":8877:8881   */\n      0x00\n        /* \"#utility.yul\":8897:8917   */\n      tag_572\n        /* \"#utility.yul\":8915:8916   */\n      dup3\n        /* \"#utility.yul\":8897:8917   */\n      tag_434\n      jump\t// in\n    tag_572:\n        /* \"#utility.yul\":8892:8917   */\n      swap2\n      pop\n        /* \"#utility.yul\":8931:8951   */\n      tag_573\n        /* \"#utility.yul\":8949:8950   */\n      dup4\n        /* \"#utility.yul\":8931:8951   */\n      tag_434\n      jump\t// in\n    tag_573:\n        /* \"#utility.yul\":8926:8951   */\n      swap3\n      pop\n        /* \"#utility.yul\":8970:8971   */\n      dup3\n        /* \"#utility.yul\":8967:8968   */\n      dup3\n        /* \"#utility.yul\":8964:8972   */\n      lt\n        /* \"#utility.yul\":8961:8995   */\n      iszero\n      tag_574\n      jumpi\n        /* \"#utility.yul\":8975:8993   */\n      tag_575\n      tag_454\n      jump\t// in\n    tag_575:\n        /* \"#utility.yul\":8961:8995   */\n    tag_574:\n        /* \"#utility.yul\":9020:9021   */\n      dup3\n        /* \"#utility.yul\":9017:9018   */\n      dup3\n        /* \"#utility.yul\":9013:9022   */\n      sub\n        /* \"#utility.yul\":9005:9022   */\n      swap1\n      pop\n        /* \"#utility.yul\":8837:9028   */\n      swap3\n      swap2\n      pop\n      pop\n      jump\t// out\n        /* \"#utility.yul\":9034:9197   */\n    tag_455:\n        /* \"#utility.yul\":9174:9189   */\n      0x494e56414c49445f434c41494d00000000000000000000000000000000000000\n        /* \"#utility.yul\":9170:9171   */\n      0x00\n        /* \"#utility.yul\":9162:9168   */\n      dup3\n        /* \"#utility.yul\":9158:9172   */\n      add\n        /* \"#utility.yul\":9151:9190   */\n      mstore\n        /* \"#utility.yul\":9034:9197   */\n      pop\n      jump\t// out\n        /* \"#utility.yul\":9203:9569   */\n    tag_456:\n        /* \"#utility.yul\":9345:9348   */\n      0x00\n        /* \"#utility.yul\":9366:9433   */\n      tag_578\n        /* \"#utility.yul\":9430:9432   */\n      0x0d\n        /* \"#utility.yul\":9425:9428   */\n      dup4\n        /* \"#utility.yul\":9366:9433   */\n      tag_449\n      jump\t// in\n    tag_578:\n        /* \"#utility.yul\":9359:9433   */\n      swap2\n      pop\n        /* \"#utility.yul\":9442:9535   */\n      tag_579\n        /* \"#utility.yul\":9531:9534   */\n      dup3\n        /* \"#utility.yul\":9442:9535   */\n      tag_455\n      jump\t// in\n    tag_579:\n        /* \"#utility.yul\":9560:9562   */\n      0x20\n        /* \"#utility.yul\":9555:9558   */\n      dup3\n        /* \"#utility.yul\":9551:9563   */\n      add\n        /* \"#utility.yul\":9544:9563   */\n      swap1\n      pop\n        /* \"#utility.yul\":9203:9569   */\n      swap2\n      swap1\n      pop\n      jump\t// out\n        /* \"#utility.yul\":9575:9994   */\n    tag_212:\n        /* \"#utility.yul\":9741:9745   */\n      0x00\n        /* \"#utility.yul\":9779:9781   */\n      0x20\n        /* \"#utility.yul\":9768:9777   */\n      dup3\n        /* \"#utility.yul\":9764:9782   */\n      add\n        /* \"#utility.yul\":9756:9782   */\n      swap1\n      pop\n        /* \"#utility.yul\":9828:9837   */\n      dup2\n        /* \"#utility.yul\":9822:9826   */\n      dup2\n        /* \"#utility.yul\":9818:9838   */\n      sub\n        /* \"#utility.yul\":9814:9815   */\n      0x00\n        /* \"#utility.yul\":9803:9812   */\n      dup4\n        /* \"#utility.yul\":9799:9816   */\n      add\n        /* \"#utility.yul\":9792:9839   */\n      mstore\n        /* \"#utility.yul\":9856:9987   */\n      tag_581\n        /* \"#utility.yul\":9982:9986   */\n      dup2\n        /* \"#utility.yul\":9856:9987   */\n      tag_456\n      jump\t// in\n    tag_581:\n        /* \"#utility.yul\":9848:9987   */\n      swap1\n      pop\n        /* \"#utility.yul\":9575:9994   */\n      swap2\n      swap1\n      pop\n      jump\t// out\n        /* \"#utility.yul\":10000:10143   */\n    tag_457:\n        /* \"#utility.yul\":10057:10062   */\n      0x00\n        /* \"#utility.yul\":10088:10094   */\n      dup2\n        /* \"#utility.yul\":10082:10095   */\n      mload\n        /* \"#utility.yul\":10073:10095   */\n      swap1\n      pop\n        /* \"#utility.yul\":10104:10137   */\n      tag_583\n        /* \"#utility.yul\":10131:10136   */\n      dup2\n        /* \"#utility.yul\":10104:10137   */\n      tag_444\n      jump\t// in\n    tag_583:\n        /* \"#utility.yul\":10000:10143   */\n      swap3\n      swap2\n      pop\n      pop\n      jump\t// out\n        /* \"#utility.yul\":10149:10500   */\n    tag_223:\n        /* \"#utility.yul\":10219:10225   */\n      0x00\n        /* \"#utility.yul\":10268:10270   */\n      0x20\n        /* \"#utility.yul\":10256:10265   */\n      dup3\n        /* \"#utility.yul\":10247:10254   */\n      dup5\n        /* \"#utility.yul\":10243:10266   */\n      sub\n        /* \"#utility.yul\":10239:10271   */\n      slt\n        /* \"#utility.yul\":10236:10355   */\n      iszero\n      tag_585\n      jumpi\n        /* \"#utility.yul\":10274:10353   */\n      tag_586\n      tag_440\n      jump\t// in\n    tag_586:\n        /* \"#utility.yul\":10236:10355   */\n    tag_585:\n        /* \"#utility.yul\":10394:10395   */\n      0x00\n        /* \"#utility.yul\":10419:10483   */\n      tag_587\n        /* \"#utility.yul\":10475:10482   */\n      dup5\n        /* \"#utility.yul\":10466:10472   */\n      dup3\n        /* \"#utility.yul\":10455:10464   */\n      dup6\n        /* \"#utility.yul\":10451:10473   */\n      add\n        /* \"#utility.yul\":10419:10483   */\n      tag_457\n      jump\t// in\n    tag_587:\n        /* \"#utility.yul\":10409:10483   */\n      swap2\n      pop\n        /* \"#utility.yul\":10365:10493   */\n      pop\n        /* \"#utility.yul\":10149:10500   */\n      swap3\n      swap2\n      pop\n      pop\n      jump\t// out\n        /* \"#utility.yul\":10506:10739   */\n    tag_240:\n        /* \"#utility.yul\":10545:10548   */\n      0x00\n        /* \"#utility.yul\":10568:10592   */\n      tag_589\n        /* \"#utility.yul\":10586:10591   */\n      dup3\n        /* \"#utility.yul\":10568:10592   */\n      tag_434\n      jump\t// in\n    tag_589:\n        /* \"#utility.yul\":10559:10592   */\n      swap2\n      pop\n        /* \"#utility.yul\":10614:10680   */\n      0xffffffffffffffffffffffffffffffffffffffffffffffffffffffffffffffff\n        /* \"#utility.yul\":10607:10612   */\n      dup3\n        /* \"#utility.yul\":10604:10681   */\n      eq\n        /* \"#utility.yul\":10601:10704   */\n      iszero\n      tag_590\n      jumpi\n        /* \"#utility.yul\":10684:10702   */\n      tag_591\n      tag_454\n      jump\t// in\n    tag_591:\n        /* \"#utility.yul\":10601:10704   */\n    tag_590:\n        /* \"#utility.yul\":10731:10732   */\n      0x01\n        /* \"#utility.yul\":10724:10729   */\n      dup3\n        /* \"#utility.yul\":10720:10733   */\n      add\n        /* \"#utility.yul\":10713:10733   */\n      swap1\n      pop\n        /* \"#utility.yul\":10506:10739   */\n      swap2\n      swap1\n      pop\n      jump\t// out\n        /* \"#utility.yul\":10745:10917   */\n    tag_458:\n        /* \"#utility.yul\":10885:10909   */\n      0x4c5020546f6b656e20416c726561647920457869737400000000000000000000\n        /* \"#utility.yul\":10881:10882   */\n      0x00\n        /* \"#utility.yul\":10873:10879   */\n      dup3\n        /* \"#utility.yul\":10869:10883   */\n      add\n        /* \"#utility.yul\":10862:10910   */\n      mstore\n        /* \"#utility.yul\":10745:10917   */\n      pop\n      jump\t// out\n        /* \"#utility.yul\":10923:11289   */\n    tag_459:\n        /* \"#utility.yul\":11065:11068   */\n      0x00\n        /* \"#utility.yul\":11086:11153   */\n      tag_594\n        /* \"#utility.yul\":11150:11152   */\n      0x16\n        /* \"#utility.yul\":11145:11148   */\n      dup4\n        /* \"#utility.yul\":11086:11153   */\n      tag_449\n      jump\t// in\n    tag_594:\n        /* \"#utility.yul\":11079:11153   */\n      swap2\n      pop\n        /* \"#utility.yul\":11162:11255   */\n      tag_595\n        /* \"#utility.yul\":11251:11254   */\n      dup3\n        /* \"#utility.yul\":11162:11255   */\n      tag_458\n      jump\t// in\n    tag_595:\n        /* \"#utility.yul\":11280:11282   */\n      0x20\n        /* \"#utility.yul\":11275:11278   */\n      dup3\n        /* \"#utility.yul\":11271:11283   */\n      add\n        /* \"#utility.yul\":11264:11283   */\n      swap1\n      pop\n        /* \"#utility.yul\":10923:11289   */\n      swap2\n      swap1\n      pop\n      jump\t// out\n        /* \"#utility.yul\":11295:11714   */\n    tag_260:\n        /* \"#utility.yul\":11461:11465   */\n      0x00\n        /* \"#utility.yul\":11499:11501   */\n      0x20\n        /* \"#utility.yul\":11488:11497   */\n      dup3\n        /* \"#utility.yul\":11484:11502   */\n      add\n        /* \"#utility.yul\":11476:11502   */\n      swap1\n      pop\n        /* \"#utility.yul\":11548:11557   */\n      dup2\n        /* \"#utility.yul\":11542:11546   */\n      dup2\n        /* \"#utility.yul\":11538:11558   */\n      sub\n        /* \"#utility.yul\":11534:11535   */\n      0x00\n        /* \"#utility.yul\":11523:11532   */\n      dup4\n        /* \"#utility.yul\":11519:11536   */\n      add\n        /* \"#utility.yul\":11512:11559   */\n      mstore\n        /* \"#utility.yul\":11576:11707   */\n      tag_597\n        /* \"#utility.yul\":11702:11706   */\n      dup2\n        /* \"#utility.yul\":11576:11707   */\n      tag_459\n      jump\t// in\n    tag_597:\n        /* \"#utility.yul\":11568:11707   */\n      swap1\n      pop\n        /* \"#utility.yul\":11295:11714   */\n      swap2\n      swap1\n      pop\n      jump\t// out\n        /* \"#utility.yul\":11720:11883   */\n    tag_460:\n        /* \"#utility.yul\":11860:11875   */\n      0x494e56414c49445f4f574e455200000000000000000000000000000000000000\n        /* \"#utility.yul\":11856:11857   */\n      0x00\n        /* \"#utility.yul\":11848:11854   */\n      dup3\n        /* \"#utility.yul\":11844:11858   */\n      add\n        /* \"#utility.yul\":11837:11876   */\n      mstore\n        /* \"#utility.yul\":11720:11883   */\n      pop\n      jump\t// out\n        /* \"#utility.yul\":11889:12255   */\n    tag_461:\n        /* \"#utility.yul\":12031:12034   */\n      0x00\n        /* \"#utility.yul\":12052:12119   */\n      tag_600\n        /* \"#utility.yul\":12116:12118   */\n      0x0d\n        /* \"#utility.yul\":12111:12114   */\n      dup4\n        /* \"#utility.yul\":12052:12119   */\n      tag_449\n      jump\t// in\n    tag_600:\n        /* \"#utility.yul\":12045:12119   */\n      swap2\n      pop\n        /* \"#utility.yul\":12128:12221   */\n      tag_601\n        /* \"#utility.yul\":12217:12220   */\n      dup3\n        /* \"#utility.yul\":12128:12221   */\n      tag_460\n      jump\t// in\n    tag_601:\n        /* \"#utility.yul\":12246:12248   */\n      0x20\n        /* \"#utility.yul\":12241:12244   */\n      dup3\n        /* \"#utility.yul\":12237:12249   */\n      add\n        /* \"#utility.yul\":12230:12249   */\n      swap1\n      pop\n        /* \"#utility.yul\":11889:12255   */\n      swap2\n      swap1\n      pop\n      jump\t// out\n        /* \"#utility.yul\":12261:12680   */\n    tag_325:\n        /* \"#utility.yul\":12427:12431   */\n      0x00\n        /* \"#utility.yul\":12465:12467   */\n      0x20\n        /* \"#utility.yul\":12454:12463   */\n      dup3\n        /* \"#utility.yul\":12450:12468   */\n      add\n        /* \"#utility.yul\":12442:12468   */\n      swap1\n      pop\n        /* \"#utility.yul\":12514:12523   */\n      dup2\n        /* \"#utility.yul\":12508:12512   */\n      dup2\n        /* \"#utility.yul\":12504:12524   */\n      sub\n        /* \"#utility.yul\":12500:12501   */\n      0x00\n        /* \"#utility.yul\":12489:12498   */\n      dup4\n        /* \"#utility.yul\":12485:12502   */\n      add\n        /* \"#utility.yul\":12478:12525   */\n      mstore\n        /* \"#utility.yul\":12542:12673   */\n      tag_603\n        /* \"#utility.yul\":12668:12672   */\n      dup2\n        /* \"#utility.yul\":12542:12673   */\n      tag_461\n      jump\t// in\n    tag_603:\n        /* \"#utility.yul\":12534:12673   */\n      swap1\n      pop\n        /* \"#utility.yul\":12261:12680   */\n      swap2\n      swap1\n      pop\n      jump\t// out\n        /* \"#utility.yul\":12686:12853   */\n    tag_462:\n        /* \"#utility.yul\":12826:12845   */\n      0x776974686472617720746f6f206d756368000000000000000000000000000000\n        /* \"#utility.yul\":12822:12823   */\n      0x00\n        /* \"#utility.yul\":12814:12820   */\n      dup3\n        /* \"#utility.yul\":12810:12824   */\n      add\n        /* \"#utility.yul\":12803:12846   */\n      mstore\n        /* \"#utility.yul\":12686:12853   */\n      pop\n      jump\t// out\n        /* \"#utility.yul\":12859:13225   */\n    tag_463:\n        /* \"#utility.yul\":13001:13004   */\n      0x00\n        /* \"#utility.yul\":13022:13089   */\n      tag_606\n        /* \"#utility.yul\":13086:13088   */\n      0x11\n        /* \"#utility.yul\":13081:13084   */\n      dup4\n        /* \"#utility.yul\":13022:13089   */\n      tag_449\n      jump\t// in\n    tag_606:\n        /* \"#utility.yul\":13015:13089   */\n      swap2\n      pop\n        /* \"#utility.yul\":13098:13191   */\n      tag_607\n        /* \"#utility.yul\":13187:13190   */\n      dup3\n        /* \"#utility.yul\":13098:13191   */\n      tag_462\n      jump\t// in\n    tag_607:\n        /* \"#utility.yul\":13216:13218   */\n      0x20\n        /* \"#utility.yul\":13211:13214   */\n      dup3\n        /* \"#utility.yul\":13207:13219   */\n      add\n        /* \"#utility.yul\":13200:13219   */\n      swap1\n      pop\n        /* \"#utility.yul\":12859:13225   */\n      swap2\n      swap1\n      pop\n      jump\t// out\n        /* \"#utility.yul\":13231:13650   */\n    tag_333:\n        /* \"#utility.yul\":13397:13401   */\n      0x00\n        /* \"#utility.yul\":13435:13437   */\n      0x20\n        /* \"#utility.yul\":13424:13433   */\n      dup3\n        /* \"#utility.yul\":13420:13438   */\n      add\n        /* \"#utility.yul\":13412:13438   */\n      swap1\n      pop\n        /* \"#utility.yul\":13484:13493   */\n      dup2\n        /* \"#utility.yul\":13478:13482   */\n      dup2\n        /* \"#utility.yul\":13474:13494   */\n      sub\n        /* \"#utility.yul\":13470:13471   */\n      0x00\n        /* \"#utility.yul\":13459:13468   */\n      dup4\n        /* \"#utility.yul\":13455:13472   */\n      add\n        /* \"#utility.yul\":13448:13495   */\n      mstore\n        /* \"#utility.yul\":13512:13643   */\n      tag_609\n        /* \"#utility.yul\":13638:13642   */\n      dup2\n        /* \"#utility.yul\":13512:13643   */\n      tag_463\n      jump\t// in\n    tag_609:\n        /* \"#utility.yul\":13504:13643   */\n      swap1\n      pop\n        /* \"#utility.yul\":13231:13650   */\n      swap2\n      swap1\n      pop\n      jump\t// out\n        /* \"#utility.yul\":13656:13836   */\n    tag_464:\n        /* \"#utility.yul\":13704:13781   */\n      0x4e487b7100000000000000000000000000000000000000000000000000000000\n        /* \"#utility.yul\":13701:13702   */\n      0x00\n        /* \"#utility.yul\":13694:13782   */\n      mstore\n        /* \"#utility.yul\":13801:13805   */\n      0x12\n        /* \"#utility.yul\":13798:13799   */\n      0x04\n        /* \"#utility.yul\":13791:13806   */\n      mstore\n        /* \"#utility.yul\":13825:13829   */\n      0x24\n        /* \"#utility.yul\":13822:13823   */\n      0x00\n        /* \"#utility.yul\":13815:13830   */\n      revert\n        /* \"#utility.yul\":13842:14027   */\n    tag_375:\n        /* \"#utility.yul\":13882:13883   */\n      0x00\n        /* \"#utility.yul\":13899:13919   */\n      tag_612\n        /* \"#utility.yul\":13917:13918   */\n      dup3\n        /* \"#utility.yul\":13899:13919   */\n      tag_434\n      jump\t// in\n    tag_612:\n        /* \"#utility.yul\":13894:13919   */\n      swap2\n      pop\n        /* \"#utility.yul\":13933:13953   */\n      tag_613\n        /* \"#utility.yul\":13951:13952   */\n      dup4\n        /* \"#utility.yul\":13933:13953   */\n      tag_434\n      jump\t// in\n    tag_613:\n        /* \"#utility.yul\":13928:13953   */\n      swap3\n      pop\n        /* \"#utility.yul\":13972:13973   */\n      dup3\n        /* \"#utility.yul\":13962:13997   */\n      tag_614\n      jumpi\n        /* \"#utility.yul\":13977:13995   */\n      tag_615\n      tag_464\n      jump\t// in\n    tag_615:\n        /* \"#utility.yul\":13962:13997   */\n    tag_614:\n        /* \"#utility.yul\":14019:14020   */\n      dup3\n        /* \"#utility.yul\":14016:14017   */\n      dup3\n        /* \"#utility.yul\":14012:14021   */\n      div\n        /* \"#utility.yul\":14007:14021   */\n      swap1\n      pop\n        /* \"#utility.yul\":13842:14027   */\n      swap3\n      swap2\n      pop\n      pop\n      jump\t// out\n        /* \"#utility.yul\":14033:14192   */\n    tag_465:\n        /* \"#utility.yul\":14173:14184   */\n      0x5355425f4552524f520000000000000000000000000000000000000000000000\n        /* \"#utility.yul\":14169:14170   */\n      0x00\n        /* \"#utility.yul\":14161:14167   */\n      dup3\n        /* \"#utility.yul\":14157:14171   */\n      add\n        /* \"#utility.yul\":14150:14185   */\n      mstore\n        /* \"#utility.yul\":14033:14192   */\n      pop\n      jump\t// out\n        /* \"#utility.yul\":14198:14563   */\n    tag_466:\n        /* \"#utility.yul\":14340:14343   */\n      0x00\n        /* \"#utility.yul\":14361:14427   */\n      tag_618\n        /* \"#utility.yul\":14425:14426   */\n      0x09\n        /* \"#utility.yul\":14420:14423   */\n      dup4\n        /* \"#utility.yul\":14361:14427   */\n      tag_449\n      jump\t// in\n    tag_618:\n        /* \"#utility.yul\":14354:14427   */\n      swap2\n      pop\n        /* \"#utility.yul\":14436:14529   */\n      tag_619\n        /* \"#utility.yul\":14525:14528   */\n      dup3\n        /* \"#utility.yul\":14436:14529   */\n      tag_465\n      jump\t// in\n    tag_619:\n        /* \"#utility.yul\":14554:14556   */\n      0x20\n        /* \"#utility.yul\":14549:14552   */\n      dup3\n        /* \"#utility.yul\":14545:14557   */\n      add\n        /* \"#utility.yul\":14538:14557   */\n      swap1\n      pop\n        /* \"#utility.yul\":14198:14563   */\n      swap2\n      swap1\n      pop\n      jump\t// out\n        /* \"#utility.yul\":14569:14988   */\n    tag_379:\n        /* \"#utility.yul\":14735:14739   */\n      0x00\n        /* \"#utility.yul\":14773:14775   */\n      0x20\n        /* \"#utility.yul\":14762:14771   */\n      dup3\n        /* \"#utility.yul\":14758:14776   */\n      add\n        /* \"#utility.yul\":14750:14776   */\n      swap1\n      pop\n        /* \"#utility.yul\":14822:14831   */\n      dup2\n        /* \"#utility.yul\":14816:14820   */\n      dup2\n        /* \"#utility.yul\":14812:14832   */\n      sub\n        /* \"#utility.yul\":14808:14809   */\n      0x00\n        /* \"#utility.yul\":14797:14806   */\n      dup4\n        /* \"#utility.yul\":14793:14810   */\n      add\n        /* \"#utility.yul\":14786:14833   */\n      mstore\n        /* \"#utility.yul\":14850:14981   */\n      tag_621\n        /* \"#utility.yul\":14976:14980   */\n      dup2\n        /* \"#utility.yul\":14850:14981   */\n      tag_466\n      jump\t// in\n    tag_621:\n        /* \"#utility.yul\":14842:14981   */\n      swap1\n      pop\n        /* \"#utility.yul\":14569:14988   */\n      swap2\n      swap1\n      pop\n      jump\t// out\n        /* \"#utility.yul\":14994:15326   */\n    tag_383:\n        /* \"#utility.yul\":15115:15119   */\n      0x00\n        /* \"#utility.yul\":15153:15155   */\n      0x40\n        /* \"#utility.yul\":15142:15151   */\n      dup3\n        /* \"#utility.yul\":15138:15156   */\n      add\n        /* \"#utility.yul\":15130:15156   */\n      swap1\n      pop\n        /* \"#utility.yul\":15166:15237   */\n      tag_623\n        /* \"#utility.yul\":15234:15235   */\n      0x00\n        /* \"#utility.yul\":15223:15232   */\n      dup4\n        /* \"#utility.yul\":15219:15236   */\n      add\n        /* \"#utility.yul\":15210:15216   */\n      dup6\n        /* \"#utility.yul\":15166:15237   */\n      tag_438\n      jump\t// in\n    tag_623:\n        /* \"#utility.yul\":15247:15319   */\n      tag_624\n        /* \"#utility.yul\":15315:15317   */\n      0x20\n        /* \"#utility.yul\":15304:15313   */\n      dup4\n        /* \"#utility.yul\":15300:15318   */\n      add\n        /* \"#utility.yul\":15291:15297   */\n      dup5\n        /* \"#utility.yul\":15247:15319   */\n      tag_435\n      jump\t// in\n    tag_624:\n        /* \"#utility.yul\":14994:15326   */\n      swap4\n      swap3\n      pop\n      pop\n      pop\n      jump\t// out\n        /* \"#utility.yul\":15332:15637   */\n    tag_391:\n        /* \"#utility.yul\":15372:15375   */\n      0x00\n        /* \"#utility.yul\":15391:15411   */\n      tag_626\n        /* \"#utility.yul\":15409:15410   */\n      dup3\n        /* \"#utility.yul\":15391:15411   */\n      tag_434\n      jump\t// in\n    tag_626:\n        /* \"#utility.yul\":15386:15411   */\n      swap2\n      pop\n        /* \"#utility.yul\":15425:15445   */\n      tag_627\n        /* \"#utility.yul\":15443:15444   */\n      dup4\n        /* \"#utility.yul\":15425:15445   */\n      tag_434\n      jump\t// in\n    tag_627:\n        /* \"#utility.yul\":15420:15445   */\n      swap3\n      pop\n        /* \"#utility.yul\":15579:15580   */\n      dup3\n        /* \"#utility.yul\":15511:15577   */\n      0xffffffffffffffffffffffffffffffffffffffffffffffffffffffffffffffff\n        /* \"#utility.yul\":15507:15581   */\n      sub\n        /* \"#utility.yul\":15504:15505   */\n      dup3\n        /* \"#utility.yul\":15501:15582   */\n      gt\n        /* \"#utility.yul\":15498:15605   */\n      iszero\n      tag_628\n      jumpi\n        /* \"#utility.yul\":15585:15603   */\n      tag_629\n      tag_454\n      jump\t// in\n    tag_629:\n        /* \"#utility.yul\":15498:15605   */\n    tag_628:\n        /* \"#utility.yul\":15629:15630   */\n      dup3\n        /* \"#utility.yul\":15626:15627   */\n      dup3\n        /* \"#utility.yul\":15622:15631   */\n      add\n        /* \"#utility.yul\":15615:15631   */\n      swap1\n      pop\n        /* \"#utility.yul\":15332:15637   */\n      swap3\n      swap2\n      pop\n      pop\n      jump\t// out\n        /* \"#utility.yul\":15643:15802   */\n    tag_467:\n        /* \"#utility.yul\":15783:15794   */\n      0x4144445f4552524f520000000000000000000000000000000000000000000000\n        /* \"#utility.yul\":15779:15780   */\n      0x00\n        /* \"#utility.yul\":15771:15777   */\n      dup3\n        /* \"#utility.yul\":15767:15781   */\n      add\n        /* \"#utility.yul\":15760:15795   */\n      mstore\n        /* \"#utility.yul\":15643:15802   */\n      pop\n      jump\t// out\n        /* \"#utility.yul\":15808:16173   */\n    tag_468:\n        /* \"#utility.yul\":15950:15953   */\n      0x00\n        /* \"#utility.yul\":15971:16037   */\n      tag_632\n        /* \"#utility.yul\":16035:16036   */\n      0x09\n        /* \"#utility.yul\":16030:16033   */\n      dup4\n        /* \"#utility.yul\":15971:16037   */\n      tag_449\n      jump\t// in\n    tag_632:\n        /* \"#utility.yul\":15964:16037   */\n      swap2\n      pop\n        /* \"#utility.yul\":16046:16139   */\n      tag_633\n        /* \"#utility.yul\":16135:16138   */\n      dup3\n        /* \"#utility.yul\":16046:16139   */\n      tag_467\n      jump\t// in\n    tag_633:\n        /* \"#utility.yul\":16164:16166   */\n      0x20\n        /* \"#utility.yul\":16159:16162   */\n      dup3\n        /* \"#utility.yul\":16155:16167   */\n      add\n        /* \"#utility.yul\":16148:16167   */\n      swap1\n      pop\n        /* \"#utility.yul\":15808:16173   */\n      swap2\n      swap1\n      pop\n      jump\t// out\n        /* \"#utility.yul\":16179:16598   */\n    tag_394:\n        /* \"#utility.yul\":16345:16349   */\n      0x00\n        /* \"#utility.yul\":16383:16385   */\n      0x20\n        /* \"#utility.yul\":16372:16381   */\n      dup3\n        /* \"#utility.yul\":16368:16386   */\n      add\n        /* \"#utility.yul\":16360:16386   */\n      swap1\n      pop\n        /* \"#utility.yul\":16432:16441   */\n      dup2\n        /* \"#utility.yul\":16426:16430   */\n      dup2\n        /* \"#utility.yul\":16422:16442   */\n      sub\n        /* \"#utility.yul\":16418:16419   */\n      0x00\n        /* \"#utility.yul\":16407:16416   */\n      dup4\n        /* \"#utility.yul\":16403:16420   */\n      add\n        /* \"#utility.yul\":16396:16443   */\n      mstore\n        /* \"#utility.yul\":16460:16591   */\n      tag_635\n        /* \"#utility.yul\":16586:16590   */\n      dup2\n        /* \"#utility.yul\":16460:16591   */\n      tag_468\n      jump\t// in\n    tag_635:\n        /* \"#utility.yul\":16452:16591   */\n      swap1\n      pop\n        /* \"#utility.yul\":16179:16598   */\n      swap2\n      swap1\n      pop\n      jump\t// out\n        /* \"#utility.yul\":16604:17046   */\n    tag_398:\n        /* \"#utility.yul\":16753:16757   */\n      0x00\n        /* \"#utility.yul\":16791:16793   */\n      0x60\n        /* \"#utility.yul\":16780:16789   */\n      dup3\n        /* \"#utility.yul\":16776:16794   */\n      add\n        /* \"#utility.yul\":16768:16794   */\n      swap1\n      pop\n        /* \"#utility.yul\":16804:16875   */\n      tag_637\n        /* \"#utility.yul\":16872:16873   */\n      0x00\n        /* \"#utility.yul\":16861:16870   */\n      dup4\n        /* \"#utility.yul\":16857:16874   */\n      add\n        /* \"#utility.yul\":16848:16854   */\n      dup7\n        /* \"#utility.yul\":16804:16875   */\n      tag_438\n      jump\t// in\n    tag_637:\n        /* \"#utility.yul\":16885:16957   */\n      tag_638\n        /* \"#utility.yul\":16953:16955   */\n      0x20\n        /* \"#utility.yul\":16942:16951   */\n      dup4\n        /* \"#utility.yul\":16938:16956   */\n      add\n        /* \"#utility.yul\":16929:16935   */\n      dup6\n        /* \"#utility.yul\":16885:16957   */\n      tag_438\n      jump\t// in\n    tag_638:\n        /* \"#utility.yul\":16967:17039   */\n      tag_639\n        /* \"#utility.yul\":17035:17037   */\n      0x40\n        /* \"#utility.yul\":17024:17033   */\n      dup4\n        /* \"#utility.yul\":17020:17038   */\n      add\n        /* \"#utility.yul\":17011:17017   */\n      dup5\n        /* \"#utility.yul\":16967:17039   */\n      tag_435\n      jump\t// in\n    tag_639:\n        /* \"#utility.yul\":16604:17046   */\n      swap5\n      swap4\n      pop\n      pop\n      pop\n      pop\n      jump\t// out\n        /* \"#utility.yul\":17052:17400   */\n    tag_403:\n        /* \"#utility.yul\":17092:17099   */\n      0x00\n        /* \"#utility.yul\":17115:17135   */\n      tag_641\n        /* \"#utility.yul\":17133:17134   */\n      dup3\n        /* \"#utility.yul\":17115:17135   */\n      tag_434\n      jump\t// in\n    tag_641:\n        /* \"#utility.yul\":17110:17135   */\n      swap2\n      pop\n        /* \"#utility.yul\":17149:17169   */\n      tag_642\n        /* \"#utility.yul\":17167:17168   */\n      dup4\n        /* \"#utility.yul\":17149:17169   */\n      tag_434\n      jump\t// in\n    tag_642:\n        /* \"#utility.yul\":17144:17169   */\n      swap3\n      pop\n        /* \"#utility.yul\":17337:17338   */\n      dup2\n        /* \"#utility.yul\":17269:17335   */\n      0xffffffffffffffffffffffffffffffffffffffffffffffffffffffffffffffff\n        /* \"#utility.yul\":17265:17339   */\n      div\n        /* \"#utility.yul\":17262:17263   */\n      dup4\n        /* \"#utility.yul\":17259:17340   */\n      gt\n        /* \"#utility.yul\":17254:17255   */\n      dup3\n        /* \"#utility.yul\":17247:17256   */\n      iszero\n        /* \"#utility.yul\":17240:17257   */\n      iszero\n        /* \"#utility.yul\":17236:17341   */\n      and\n        /* \"#utility.yul\":17233:17364   */\n      iszero\n      tag_643\n      jumpi\n        /* \"#utility.yul\":17344:17362   */\n      tag_644\n      tag_454\n      jump\t// in\n    tag_644:\n        /* \"#utility.yul\":17233:17364   */\n    tag_643:\n        /* \"#utility.yul\":17392:17393   */\n      dup3\n        /* \"#utility.yul\":17389:17390   */\n      dup3\n        /* \"#utility.yul\":17385:17394   */\n      mul\n        /* \"#utility.yul\":17374:17394   */\n      swap1\n      pop\n        /* \"#utility.yul\":17052:17400   */\n      swap3\n      swap2\n      pop\n      pop\n      jump\t// out\n        /* \"#utility.yul\":17406:17565   */\n    tag_469:\n        /* \"#utility.yul\":17546:17557   */\n      0x4d554c5f4552524f520000000000000000000000000000000000000000000000\n        /* \"#utility.yul\":17542:17543   */\n      0x00\n        /* \"#utility.yul\":17534:17540   */\n      dup3\n        /* \"#utility.yul\":17530:17544   */\n      add\n        /* \"#utility.yul\":17523:17558   */\n      mstore\n        /* \"#utility.yul\":17406:17565   */\n      pop\n      jump\t// out\n        /* \"#utility.yul\":17571:17936   */\n    tag_470:\n        /* \"#utility.yul\":17713:17716   */\n      0x00\n        /* \"#utility.yul\":17734:17800   */\n      tag_647\n        /* \"#utility.yul\":17798:17799   */\n      0x09\n        /* \"#utility.yul\":17793:17796   */\n      dup4\n        /* \"#utility.yul\":17734:17800   */\n      tag_449\n      jump\t// in\n    tag_647:\n        /* \"#utility.yul\":17727:17800   */\n      swap2\n      pop\n        /* \"#utility.yul\":17809:17902   */\n      tag_648\n        /* \"#utility.yul\":17898:17901   */\n      dup3\n        /* \"#utility.yul\":17809:17902   */\n      tag_469\n      jump\t// in\n    tag_648:\n        /* \"#utility.yul\":17927:17929   */\n      0x20\n        /* \"#utility.yul\":17922:17925   */\n      dup3\n        /* \"#utility.yul\":17918:17930   */\n      add\n        /* \"#utility.yul\":17911:17930   */\n      swap1\n      pop\n        /* \"#utility.yul\":17571:17936   */\n      swap2\n      swap1\n      pop\n      jump\t// out\n        /* \"#utility.yul\":17942:18361   */\n    tag_407:\n        /* \"#utility.yul\":18108:18112   */\n      0x00\n        /* \"#utility.yul\":18146:18148   */\n      0x20\n        /* \"#utility.yul\":18135:18144   */\n      dup3\n        /* \"#utility.yul\":18131:18149   */\n      add\n        /* \"#utility.yul\":18123:18149   */\n      swap1\n      pop\n        /* \"#utility.yul\":18195:18204   */\n      dup2\n        /* \"#utility.yul\":18189:18193   */\n      dup2\n        /* \"#utility.yul\":18185:18205   */\n      sub\n        /* \"#utility.yul\":18181:18182   */\n      0x00\n        /* \"#utility.yul\":18170:18179   */\n      dup4\n        /* \"#utility.yul\":18166:18183   */\n      add\n        /* \"#utility.yul\":18159:18206   */\n      mstore\n        /* \"#utility.yul\":18223:18354   */\n      tag_650\n        /* \"#utility.yul\":18349:18353   */\n      dup2\n        /* \"#utility.yul\":18223:18354   */\n      tag_470\n      jump\t// in\n    tag_650:\n        /* \"#utility.yul\":18215:18354   */\n      swap1\n      pop\n        /* \"#utility.yul\":17942:18361   */\n      swap2\n      swap1\n      pop\n      jump\t// out\n        /* \"#utility.yul\":18367:18531   */\n    tag_471:\n        /* \"#utility.yul\":18507:18523   */\n      0x4449564944494e475f4552524f52000000000000000000000000000000000000\n        /* \"#utility.yul\":18503:18504   */\n      0x00\n        /* \"#utility.yul\":18495:18501   */\n      dup3\n        /* \"#utility.yul\":18491:18505   */\n      add\n        /* \"#utility.yul\":18484:18524   */\n      mstore\n        /* \"#utility.yul\":18367:18531   */\n      pop\n      jump\t// out\n        /* \"#utility.yul\":18537:18903   */\n    tag_472:\n        /* \"#utility.yul\":18679:18682   */\n      0x00\n        /* \"#utility.yul\":18700:18767   */\n      tag_653\n        /* \"#utility.yul\":18764:18766   */\n      0x0e\n        /* \"#utility.yul\":18759:18762   */\n      dup4\n        /* \"#utility.yul\":18700:18767   */\n      tag_449\n      jump\t// in\n    tag_653:\n        /* \"#utility.yul\":18693:18767   */\n      swap2\n      pop\n        /* \"#utility.yul\":18776:18869   */\n      tag_654\n        /* \"#utility.yul\":18865:18868   */\n      dup3\n        /* \"#utility.yul\":18776:18869   */\n      tag_471\n      jump\t// in\n    tag_654:\n        /* \"#utility.yul\":18894:18896   */\n      0x20\n        /* \"#utility.yul\":18889:18892   */\n      dup3\n        /* \"#utility.yul\":18885:18897   */\n      add\n        /* \"#utility.yul\":18878:18897   */\n      swap1\n      pop\n        /* \"#utility.yul\":18537:18903   */\n      swap2\n      swap1\n      pop\n      jump\t// out\n        /* \"#utility.yul\":18909:19328   */\n    tag_411:\n        /* \"#utility.yul\":19075:19079   */\n      0x00\n        /* \"#utility.yul\":19113:19115   */\n      0x20\n        /* \"#utility.yul\":19102:19111   */\n      dup3\n        /* \"#utility.yul\":19098:19116   */\n      add\n        /* \"#utility.yul\":19090:19116   */\n      swap1\n      pop\n        /* \"#utility.yul\":19162:19171   */\n      dup2\n        /* \"#utility.yul\":19156:19160   */\n      dup2\n        /* \"#utility.yul\":19152:19172   */\n      sub\n        /* \"#utility.yul\":19148:19149   */\n      0x00\n        /* \"#utility.yul\":19137:19146   */\n      dup4\n        /* \"#utility.yul\":19133:19150   */\n      add\n        /* \"#utility.yul\":19126:19173   */\n      mstore\n        /* \"#utility.yul\":19190:19321   */\n      tag_656\n        /* \"#utility.yul\":19316:19320   */\n      dup2\n        /* \"#utility.yul\":19190:19321   */\n      tag_472\n      jump\t// in\n    tag_656:\n        /* \"#utility.yul\":19182:19321   */\n      swap1\n      pop\n        /* \"#utility.yul\":18909:19328   */\n      swap2\n      swap1\n      pop\n      jump\t// out\n        /* \"#utility.yul\":19334:19432   */\n    tag_473:\n        /* \"#utility.yul\":19385:19391   */\n      0x00\n        /* \"#utility.yul\":19419:19424   */\n      dup2\n        /* \"#utility.yul\":19413:19425   */\n      mload\n        /* \"#utility.yul\":19403:19425   */\n      swap1\n      pop\n        /* \"#utility.yul\":19334:19432   */\n      swap2\n      swap1\n      pop\n      jump\t// out\n        /* \"#utility.yul\":19438:19585   */\n    tag_474:\n        /* \"#utility.yul\":19539:19550   */\n      0x00\n        /* \"#utility.yul\":19576:19579   */\n      dup2\n        /* \"#utility.yul\":19561:19579   */\n      swap1\n      pop\n        /* \"#utility.yul\":19438:19585   */\n      swap3\n      swap2\n      pop\n      pop\n      jump\t// out\n        /* \"#utility.yul\":19591:19898   */\n    tag_475:\n        /* \"#utility.yul\":19659:19660   */\n      0x00\n        /* \"#utility.yul\":19669:19782   */\n    tag_660:\n        /* \"#utility.yul\":19683:19689   */\n      dup4\n        /* \"#utility.yul\":19680:19681   */\n      dup2\n        /* \"#utility.yul\":19677:19690   */\n      lt\n        /* \"#utility.yul\":19669:19782   */\n      iszero\n      tag_662\n      jumpi\n        /* \"#utility.yul\":19768:19769   */\n      dup1\n        /* \"#utility.yul\":19763:19766   */\n      dup3\n        /* \"#utility.yul\":19759:19770   */\n      add\n        /* \"#utility.yul\":19753:19771   */\n      mload\n        /* \"#utility.yul\":19749:19750   */\n      dup2\n        /* \"#utility.yul\":19744:19747   */\n      dup5\n        /* \"#utility.yul\":19740:19751   */\n      add\n        /* \"#utility.yul\":19733:19772   */\n      mstore\n        /* \"#utility.yul\":19705:19707   */\n      0x20\n        /* \"#utility.yul\":19702:19703   */\n      dup2\n        /* \"#utility.yul\":19698:19708   */\n      add\n        /* \"#utility.yul\":19693:19708   */\n      swap1\n      pop\n        /* \"#utility.yul\":19669:19782   */\n      jump(tag_660)\n    tag_662:\n        /* \"#utility.yul\":19800:19806   */\n      dup4\n        /* \"#utility.yul\":19797:19798   */\n      dup2\n        /* \"#utility.yul\":19794:19807   */\n      gt\n        /* \"#utility.yul\":19791:19892   */\n      iszero\n      tag_663\n      jumpi\n        /* \"#utility.yul\":19880:19881   */\n      0x00\n        /* \"#utility.yul\":19871:19877   */\n      dup5\n        /* \"#utility.yul\":19866:19869   */\n      dup5\n        /* \"#utility.yul\":19862:19878   */\n      add\n        /* \"#utility.yul\":19855:19882   */\n      mstore\n        /* \"#utility.yul\":19791:19892   */\n    tag_663:\n        /* \"#utility.yul\":19640:19898   */\n      pop\n        /* \"#utility.yul\":19591:19898   */\n      pop\n      pop\n      pop\n      jump\t// out\n        /* \"#utility.yul\":19904:20277   */\n    tag_476:\n        /* \"#utility.yul\":20008:20011   */\n      0x00\n        /* \"#utility.yul\":20036:20074   */\n      tag_665\n        /* \"#utility.yul\":20068:20073   */\n      dup3\n        /* \"#utility.yul\":20036:20074   */\n      tag_473\n      jump\t// in\n    tag_665:\n        /* \"#utility.yul\":20090:20178   */\n      tag_666\n        /* \"#utility.yul\":20171:20177   */\n      dup2\n        /* \"#utility.yul\":20166:20169   */\n      dup6\n        /* \"#utility.yul\":20090:20178   */\n      tag_474\n      jump\t// in\n    tag_666:\n        /* \"#utility.yul\":20083:20178   */\n      swap4\n      pop\n        /* \"#utility.yul\":20187:20239   */\n      tag_667\n        /* \"#utility.yul\":20232:20238   */\n      dup2\n        /* \"#utility.yul\":20227:20230   */\n      dup6\n        /* \"#utility.yul\":20220:20224   */\n      0x20\n        /* \"#utility.yul\":20213:20218   */\n      dup7\n        /* \"#utility.yul\":20209:20225   */\n      add\n        /* \"#utility.yul\":20187:20239   */\n      tag_475\n      jump\t// in\n    tag_667:\n        /* \"#utility.yul\":20264:20270   */\n      dup1\n        /* \"#utility.yul\":20259:20262   */\n      dup5\n        /* \"#utility.yul\":20255:20271   */\n      add\n        /* \"#utility.yul\":20248:20271   */\n      swap2\n      pop\n        /* \"#utility.yul\":20012:20277   */\n      pop\n        /* \"#utility.yul\":19904:20277   */\n      swap3\n      swap2\n      pop\n      pop\n      jump\t// out\n        /* \"#utility.yul\":20283:20554   */\n    tag_421:\n        /* \"#utility.yul\":20413:20416   */\n      0x00\n        /* \"#utility.yul\":20435:20528   */\n      tag_669\n        /* \"#utility.yul\":20524:20527   */\n      dup3\n        /* \"#utility.yul\":20515:20521   */\n      dup5\n        /* \"#utility.yul\":20435:20528   */\n      tag_476\n      jump\t// in\n    tag_669:\n        /* \"#utility.yul\":20428:20528   */\n      swap2\n      pop\n        /* \"#utility.yul\":20545:20548   */\n      dup2\n        /* \"#utility.yul\":20538:20548   */\n      swap1\n      pop\n        /* \"#utility.yul\":20283:20554   */\n      swap3\n      swap2\n      pop\n      pop\n      jump\t// out\n        /* \"#utility.yul\":20560:20742   */\n    tag_477:\n        /* \"#utility.yul\":20700:20734   */\n      0x5361666545524332303a206c6f772d6c6576656c2063616c6c206661696c6564\n        /* \"#utility.yul\":20696:20697   */\n      0x00\n        /* \"#utility.yul\":20688:20694   */\n      dup3\n        /* \"#utility.yul\":20684:20698   */\n      add\n        /* \"#utility.yul\":20677:20735   */\n      mstore\n        /* \"#utility.yul\":20560:20742   */\n      pop\n      jump\t// out\n        /* \"#utility.yul\":20748:21114   */\n    tag_478:\n        /* \"#utility.yul\":20890:20893   */\n      0x00\n        /* \"#utility.yul\":20911:20978   */\n      tag_672\n        /* \"#utility.yul\":20975:20977   */\n      0x20\n        /* \"#utility.yul\":20970:20973   */\n      dup4\n        /* \"#utility.yul\":20911:20978   */\n      tag_449\n      jump\t// in\n    tag_672:\n        /* \"#utility.yul\":20904:20978   */\n      swap2\n      pop\n        /* \"#utility.yul\":20987:21080   */\n      tag_673\n        /* \"#utility.yul\":21076:21079   */\n      dup3\n        /* \"#utility.yul\":20987:21080   */\n      tag_477\n      jump\t// in\n    tag_673:\n        /* \"#utility.yul\":21105:21107   */\n      0x20\n        /* \"#utility.yul\":21100:21103   */\n      dup3\n        /* \"#utility.yul\":21096:21108   */\n      add\n        /* \"#utility.yul\":21089:21108   */\n      swap1\n      pop\n        /* \"#utility.yul\":20748:21114   */\n      swap2\n      swap1\n      pop\n      jump\t// out\n        /* \"#utility.yul\":21120:21539   */\n    tag_427:\n        /* \"#utility.yul\":21286:21290   */\n      0x00\n        /* \"#utility.yul\":21324:21326   */\n      0x20\n        /* \"#utility.yul\":21313:21322   */\n      dup3\n        /* \"#utility.yul\":21309:21327   */\n      add\n        /* \"#utility.yul\":21301:21327   */\n      swap1\n      pop\n        /* \"#utility.yul\":21373:21382   */\n      dup2\n        /* \"#utility.yul\":21367:21371   */\n      dup2\n        /* \"#utility.yul\":21363:21383   */\n      sub\n        /* \"#utility.yul\":21359:21360   */\n      0x00\n        /* \"#utility.yul\":21348:21357   */\n      dup4\n        /* \"#utility.yul\":21344:21361   */\n      add\n        /* \"#utility.yul\":21337:21384   */\n      mstore\n        /* \"#utility.yul\":21401:21532   */\n      tag_675\n        /* \"#utility.yul\":21527:21531   */\n      dup2\n        /* \"#utility.yul\":21401:21532   */\n      tag_478\n      jump\t// in\n    tag_675:\n        /* \"#utility.yul\":21393:21532   */\n      swap1\n      pop\n        /* \"#utility.yul\":21120:21539   */\n      swap2\n      swap1\n      pop\n      jump\t// out\n        /* \"#utility.yul\":21545:21682   */\n    tag_479:\n        /* \"#utility.yul\":21599:21604   */\n      0x00\n        /* \"#utility.yul\":21630:21636   */\n      dup2\n        /* \"#utility.yul\":21624:21637   */\n      mload\n        /* \"#utility.yul\":21615:21637   */\n      swap1\n      pop\n        /* \"#utility.yul\":21646:21676   */\n      tag_677\n        /* \"#utility.yul\":21670:21675   */\n      dup2\n        /* \"#utility.yul\":21646:21676   */\n      tag_447\n      jump\t// in\n    tag_677:\n        /* \"#utility.yul\":21545:21682   */\n      swap3\n      swap2\n      pop\n      pop\n      jump\t// out\n        /* \"#utility.yul\":21688:22033   */\n    tag_430:\n        /* \"#utility.yul\":21755:21761   */\n      0x00\n        /* \"#utility.yul\":21804:21806   */\n      0x20\n        /* \"#utility.yul\":21792:21801   */\n      dup3\n        /* \"#utility.yul\":21783:21790   */\n      dup5\n        /* \"#utility.yul\":21779:21802   */\n      sub\n        /* \"#utility.yul\":21775:21807   */\n      slt\n        /* \"#utility.yul\":21772:21891   */\n      iszero\n      tag_679\n      jumpi\n        /* \"#utility.yul\":21810:21889   */\n      tag_680\n      tag_440\n      jump\t// in\n    tag_680:\n        /* \"#utility.yul\":21772:21891   */\n    tag_679:\n        /* \"#utility.yul\":21930:21931   */\n      0x00\n        /* \"#utility.yul\":21955:22016   */\n      tag_681\n        /* \"#utility.yul\":22008:22015   */\n      dup5\n        /* \"#utility.yul\":21999:22005   */\n      dup3\n        /* \"#utility.yul\":21988:21997   */\n      dup6\n        /* \"#utility.yul\":21984:22006   */\n      add\n        /* \"#utility.yul\":21955:22016   */\n      tag_479\n      jump\t// in\n    tag_681:\n        /* \"#utility.yul\":21945:22016   */\n      swap2\n      pop\n        /* \"#utility.yul\":21901:22026   */\n      pop\n        /* \"#utility.yul\":21688:22033   */\n      swap3\n      swap2\n      pop\n      pop\n      jump\t// out\n        /* \"#utility.yul\":22039:22268   */\n    tag_480:\n        /* \"#utility.yul\":22179:22213   */\n      0x5361666545524332303a204552433230206f7065726174696f6e20646964206e\n        /* \"#utility.yul\":22175:22176   */\n      0x00\n        /* \"#utility.yul\":22167:22173   */\n      dup3\n        /* \"#utility.yul\":22163:22177   */\n      add\n        /* \"#utility.yul\":22156:22214   */\n      mstore\n        /* \"#utility.yul\":22248:22260   */\n      0x6f74207375636365656400000000000000000000000000000000000000000000\n        /* \"#utility.yul\":22243:22245   */\n      0x20\n        /* \"#utility.yul\":22235:22241   */\n      dup3\n        /* \"#utility.yul\":22231:22246   */\n      add\n        /* \"#utility.yul\":22224:22261   */\n      mstore\n        /* \"#utility.yul\":22039:22268   */\n      pop\n      jump\t// out\n        /* \"#utility.yul\":22274:22640   */\n    tag_481:\n        /* \"#utility.yul\":22416:22419   */\n      0x00\n        /* \"#utility.yul\":22437:22504   */\n      tag_684\n        /* \"#utility.yul\":22501:22503   */\n      0x2a\n        /* \"#utility.yul\":22496:22499   */\n      dup4\n        /* \"#utility.yul\":22437:22504   */\n      tag_449\n      jump\t// in\n    tag_684:\n        /* \"#utility.yul\":22430:22504   */\n      swap2\n      pop\n        /* \"#utility.yul\":22513:22606   */\n      tag_685\n        /* \"#utility.yul\":22602:22605   */\n      dup3\n        /* \"#utility.yul\":22513:22606   */\n      tag_480\n      jump\t// in\n    tag_685:\n        /* \"#utility.yul\":22631:22633   */\n      0x40\n        /* \"#utility.yul\":22626:22629   */\n      dup3\n        /* \"#utility.yul\":22622:22634   */\n      add\n        /* \"#utility.yul\":22615:22634   */\n      swap1\n      pop\n        /* \"#utility.yul\":22274:22640   */\n      swap2\n      swap1\n      pop\n      jump\t// out\n        /* \"#utility.yul\":22646:23065   */\n    tag_433:\n        /* \"#utility.yul\":22812:22816   */\n      0x00\n        /* \"#utility.yul\":22850:22852   */\n      0x20\n        /* \"#utility.yul\":22839:22848   */\n      dup3\n        /* \"#utility.yul\":22835:22853   */\n      add\n        /* \"#utility.yul\":22827:22853   */\n      swap1\n      pop\n        /* \"#utility.yul\":22899:22908   */\n      dup2\n        /* \"#utility.yul\":22893:22897   */\n      dup2\n        /* \"#utility.yul\":22889:22909   */\n      sub\n        /* \"#utility.yul\":22885:22886   */\n      0x00\n        /* \"#utility.yul\":22874:22883   */\n      dup4\n        /* \"#utility.yul\":22870:22887   */\n      add\n        /* \"#utility.yul\":22863:22910   */\n      mstore\n        /* \"#utility.yul\":22927:23058   */\n      tag_687\n        /* \"#utility.yul\":23053:23057   */\n      dup2\n        /* \"#utility.yul\":22927:23058   */\n      tag_481\n      jump\t// in\n    tag_687:\n        /* \"#utility.yul\":22919:23058   */\n      swap1\n      pop\n        /* \"#utility.yul\":22646:23065   */\n      swap2\n      swap1\n      pop\n      jump\t// out\n\n    auxdata: 0xa26469706673582212202f64a7339c27b5e99bd2254cc29d3e14fa706c52d107fb1cdfb95b9518a73ead64736f6c63430008090033\n}\n\nsub_1: assembly {\n        /* \"contracts/DODOMine.sol\":9853:10221  contract DODORewardVault is Ownable {... */\n      mstore(0x40, 0x80)\n        /* \"contracts/DODOMine.sol\":10013:10086  constructor(address _dodoToken) {... */\n      callvalue\n      dup1\n      iszero\n      tag_1\n      jumpi\n      0x00\n      dup1\n      revert\n    tag_1:\n      pop\n      mload(0x40)\n      sub(codesize, bytecodeSize)\n      dup1\n      bytecodeSize\n      dup4\n      codecopy\n      dup2\n      dup2\n      add\n      0x40\n      mstore\n      dup2\n      add\n      swap1\n      tag_2\n      swap2\n      swap1\n      tag_3\n      jump\t// in\n    tag_2:\n        /* \"contracts/DODOMine.sol\":974:984  msg.sender */\n      caller\n        /* \"contracts/DODOMine.sol\":964:971  _OWNER_ */\n      0x00\n      dup1\n        /* \"contracts/DODOMine.sol\":964:984  _OWNER_ = msg.sender */\n      0x0100\n      exp\n      dup2\n      sload\n      dup2\n      0xffffffffffffffffffffffffffffffffffffffff\n      mul\n      not\n      and\n      swap1\n      dup4\n      0xffffffffffffffffffffffffffffffffffffffff\n      and\n      mul\n      or\n      swap1\n      sstore\n      pop\n        /* \"contracts/DODOMine.sol\":1033:1040  _OWNER_ */\n      0x00\n      dup1\n      sload\n      swap1\n      0x0100\n      exp\n      swap1\n      div\n      0xffffffffffffffffffffffffffffffffffffffff\n      and\n        /* \"contracts/DODOMine.sol\":1000:1041  OwnershipTransferred(address(0), _OWNER_) */\n      0xffffffffffffffffffffffffffffffffffffffff\n      and\n        /* \"contracts/DODOMine.sol\":1029:1030  0 */\n      0x00\n        /* \"contracts/DODOMine.sol\":1000:1041  OwnershipTransferred(address(0), _OWNER_) */\n      0xffffffffffffffffffffffffffffffffffffffff\n      and\n      0x8be0079c531659141344cd1fd0a4f28419497f9722a3daafe3b4186f6b6457e0\n      mload(0x40)\n      mload(0x40)\n      dup1\n      swap2\n      sub\n      swap1\n      log3\n        /* \"contracts/DODOMine.sol\":10068:10078  _dodoToken */\n      dup1\n        /* \"contracts/DODOMine.sol\":10056:10065  dodoToken */\n      0x02\n      0x00\n        /* \"contracts/DODOMine.sol\":10056:10078  dodoToken = _dodoToken */\n      0x0100\n      exp\n      dup2\n      sload\n      dup2\n      0xffffffffffffffffffffffffffffffffffffffff\n      mul\n      not\n      and\n      swap1\n      dup4\n      0xffffffffffffffffffffffffffffffffffffffff\n      and\n      mul\n      or\n      swap1\n      sstore\n      pop\n        /* \"contracts/DODOMine.sol\":10013:10086  constructor(address _dodoToken) {... */\n      pop\n        /* \"contracts/DODOMine.sol\":9853:10221  contract DODORewardVault is Ownable {... */\n      jump(tag_8)\n        /* \"#utility.yul\":88:205   */\n    tag_10:\n        /* \"#utility.yul\":197:198   */\n      0x00\n        /* \"#utility.yul\":194:195   */\n      dup1\n        /* \"#utility.yul\":187:199   */\n      revert\n        /* \"#utility.yul\":334:460   */\n    tag_12:\n        /* \"#utility.yul\":371:378   */\n      0x00\n        /* \"#utility.yul\":411:453   */\n      0xffffffffffffffffffffffffffffffffffffffff\n        /* \"#utility.yul\":404:409   */\n      dup3\n        /* \"#utility.yul\":400:454   */\n      and\n        /* \"#utility.yul\":389:454   */\n      swap1\n      pop\n        /* \"#utility.yul\":334:460   */\n      swap2\n      swap1\n      pop\n      jump\t// out\n        /* \"#utility.yul\":466:562   */\n    tag_13:\n        /* \"#utility.yul\":503:510   */\n      0x00\n        /* \"#utility.yul\":532:556   */\n      tag_22\n        /* \"#utility.yul\":550:555   */\n      dup3\n        /* \"#utility.yul\":532:556   */\n      tag_12\n      jump\t// in\n    tag_22:\n        /* \"#utility.yul\":521:556   */\n      swap1\n      pop\n        /* \"#utility.yul\":466:562   */\n      swap2\n      swap1\n      pop\n      jump\t// out\n        /* \"#utility.yul\":568:690   */\n    tag_14:\n        /* \"#utility.yul\":641:665   */\n      tag_24\n        /* \"#utility.yul\":659:664   */\n      dup2\n        /* \"#utility.yul\":641:665   */\n      tag_13\n      jump\t// in\n    tag_24:\n        /* \"#utility.yul\":634:639   */\n      dup2\n        /* \"#utility.yul\":631:666   */\n      eq\n        /* \"#utility.yul\":621:684   */\n      tag_25\n      jumpi\n        /* \"#utility.yul\":680:681   */\n      0x00\n        /* \"#utility.yul\":677:678   */\n      dup1\n        /* \"#utility.yul\":670:682   */\n      revert\n        /* \"#utility.yul\":621:684   */\n    tag_25:\n        /* \"#utility.yul\":568:690   */\n      pop\n      jump\t// out\n        /* \"#utility.yul\":696:839   */\n    tag_15:\n        /* \"#utility.yul\":753:758   */\n      0x00\n        /* \"#utility.yul\":784:790   */\n      dup2\n        /* \"#utility.yul\":778:791   */\n      mload\n        /* \"#utility.yul\":769:791   */\n      swap1\n      pop\n        /* \"#utility.yul\":800:833   */\n      tag_27\n        /* \"#utility.yul\":827:832   */\n      dup2\n        /* \"#utility.yul\":800:833   */\n      tag_14\n      jump\t// in\n    tag_27:\n        /* \"#utility.yul\":696:839   */\n      swap3\n      swap2\n      pop\n      pop\n      jump\t// out\n        /* \"#utility.yul\":845:1196   */\n    tag_3:\n        /* \"#utility.yul\":915:921   */\n      0x00\n        /* \"#utility.yul\":964:966   */\n      0x20\n        /* \"#utility.yul\":952:961   */\n      dup3\n        /* \"#utility.yul\":943:950   */\n      dup5\n        /* \"#utility.yul\":939:962   */\n      sub\n        /* \"#utility.yul\":935:967   */\n      slt\n        /* \"#utility.yul\":932:1051   */\n      iszero\n      tag_29\n      jumpi\n        /* \"#utility.yul\":970:1049   */\n      tag_30\n      tag_10\n      jump\t// in\n    tag_30:\n        /* \"#utility.yul\":932:1051   */\n    tag_29:\n        /* \"#utility.yul\":1090:1091   */\n      0x00\n        /* \"#utility.yul\":1115:1179   */\n      tag_31\n        /* \"#utility.yul\":1171:1178   */\n      dup5\n        /* \"#utility.yul\":1162:1168   */\n      dup3\n        /* \"#utility.yul\":1151:1160   */\n      dup6\n        /* \"#utility.yul\":1147:1169   */\n      add\n        /* \"#utility.yul\":1115:1179   */\n      tag_15\n      jump\t// in\n    tag_31:\n        /* \"#utility.yul\":1105:1179   */\n      swap2\n      pop\n        /* \"#utility.yul\":1061:1189   */\n      pop\n        /* \"#utility.yul\":845:1196   */\n      swap3\n      swap2\n      pop\n      pop\n      jump\t// out\n        /* \"contracts/DODOMine.sol\":9853:10221  contract DODORewardVault is Ownable {... */\n    tag_8:\n      dataSize(sub_0)\n      dup1\n      dataOffset(sub_0)\n      0x00\n      codecopy\n      0x00\n      return\n    stop\n\n    sub_0: assembly {\n            /* \"contracts/DODOMine.sol\":9853:10221  contract DODORewardVault is Ownable {... */\n          mstore(0x40, 0x80)\n          callvalue\n          dup1\n          iszero\n          tag_1\n          jumpi\n          0x00\n          dup1\n          revert\n        tag_1:\n          pop\n          jumpi(tag_2, lt(calldatasize, 0x04))\n          shr(0xe0, calldataload(0x00))\n          dup1\n          0x16048bc4\n          eq\n          tag_3\n          jumpi\n          dup1\n          0x21670f22\n          eq\n          tag_4\n          jumpi\n          dup1\n          0x4e71e0c8\n          eq\n          tag_5\n          jumpi\n          dup1\n          0x75123ff9\n          eq\n          tag_6\n          jumpi\n          dup1\n          0x8456db15\n          eq\n          tag_7\n          jumpi\n          dup1\n          0xf2fde38b\n          eq\n          tag_8\n          jumpi\n        tag_2:\n          0x00\n          dup1\n          revert\n            /* \"contracts/DODOMine.sol\":415:437  address public _OWNER_ */\n        tag_3:\n          tag_9\n          tag_10\n          jump\t// in\n        tag_9:\n          mload(0x40)\n          tag_11\n          swap2\n          swap1\n          tag_12\n          jump\t// in\n        tag_11:\n          mload(0x40)\n          dup1\n          swap2\n          sub\n          swap1\n          return\n            /* \"contracts/DODOMine.sol\":10094:10218  function reward(address to, uint256 amount) external onlyOwner {... */\n        tag_4:\n          tag_13\n          0x04\n          dup1\n          calldatasize\n          sub\n          dup2\n          add\n          swap1\n          tag_14\n          swap2\n          swap1\n          tag_15\n          jump\t// in\n        tag_14:\n          tag_16\n          jump\t// in\n        tag_13:\n          stop\n            /* \"contracts/DODOMine.sol\":1289:1519  function claimOwnership() external {... */\n        tag_5:\n          tag_17\n          tag_18\n          jump\t// in\n        tag_17:\n          stop\n            /* \"contracts/DODOMine.sol\":9931:9955  address public dodoToken */\n        tag_6:\n          tag_19\n          tag_20\n          jump\t// in\n        tag_19:\n          mload(0x40)\n          tag_21\n          swap2\n          swap1\n          tag_12\n          jump\t// in\n        tag_21:\n          mload(0x40)\n          dup1\n          swap2\n          sub\n          swap1\n          return\n            /* \"contracts/DODOMine.sol\":444:470  address public _NEW_OWNER_ */\n        tag_7:\n          tag_22\n          tag_23\n          jump\t// in\n        tag_22:\n          mload(0x40)\n          tag_24\n          swap2\n          swap1\n          tag_12\n          jump\t// in\n        tag_24:\n          mload(0x40)\n          dup1\n          swap2\n          sub\n          swap1\n          return\n            /* \"contracts/DODOMine.sol\":1057:1281  function transferOwnership(address newOwner) external onlyOwner {... */\n        tag_8:\n          tag_25\n          0x04\n          dup1\n          calldatasize\n          sub\n          dup2\n          add\n          swap1\n          tag_26\n          swap2\n          swap1\n          tag_27\n          jump\t// in\n        tag_26:\n          tag_28\n          jump\t// in\n        tag_25:\n          stop\n            /* \"contracts/DODOMine.sol\":415:437  address public _OWNER_ */\n        tag_10:\n          0x00\n          dup1\n          sload\n          swap1\n          0x0100\n          exp\n          swap1\n          div\n          0xffffffffffffffffffffffffffffffffffffffff\n          and\n          dup2\n          jump\t// out\n            /* \"contracts/DODOMine.sol\":10094:10218  function reward(address to, uint256 amount) external onlyOwner {... */\n        tag_16:\n            /* \"contracts/DODOMine.sol\":811:818  _OWNER_ */\n          0x00\n          dup1\n          sload\n          swap1\n          0x0100\n          exp\n          swap1\n          div\n          0xffffffffffffffffffffffffffffffffffffffff\n          and\n            /* \"contracts/DODOMine.sol\":797:818  msg.sender == _OWNER_ */\n          0xffffffffffffffffffffffffffffffffffffffff\n          and\n            /* \"contracts/DODOMine.sol\":797:807  msg.sender */\n          caller\n            /* \"contracts/DODOMine.sol\":797:818  msg.sender == _OWNER_ */\n          0xffffffffffffffffffffffffffffffffffffffff\n          and\n          eq\n            /* \"contracts/DODOMine.sol\":789:832  require(msg.sender == _OWNER_, \"NOT_OWNER\") */\n          tag_30\n          jumpi\n          mload(0x40)\n          0x08c379a000000000000000000000000000000000000000000000000000000000\n          dup2\n          mstore\n          0x04\n          add\n          tag_31\n          swap1\n          tag_32\n          jump\t// in\n        tag_31:\n          mload(0x40)\n          dup1\n          swap2\n          sub\n          swap1\n          revert\n        tag_30:\n            /* \"contracts/DODOMine.sol\":10168:10210  IERC20(dodoToken).safeTransfer(to, amount) */\n          tag_34\n            /* \"contracts/DODOMine.sol\":10199:10201  to */\n          dup3\n            /* \"contracts/DODOMine.sol\":10203:10209  amount */\n          dup3\n            /* \"contracts/DODOMine.sol\":10175:10184  dodoToken */\n          0x02\n          0x00\n          swap1\n          sload\n          swap1\n          0x0100\n          exp\n          swap1\n          div\n          0xffffffffffffffffffffffffffffffffffffffff\n          and\n            /* \"contracts/DODOMine.sol\":10168:10198  IERC20(dodoToken).safeTransfer */\n          0xffffffffffffffffffffffffffffffffffffffff\n          and\n          tag_35\n          swap1\n            /* \"contracts/DODOMine.sol\":10168:10210  IERC20(dodoToken).safeTransfer(to, amount) */\n          swap3\n          swap2\n          swap1\n          0xffffffff\n          and\n          jump\t// in\n        tag_34:\n            /* \"contracts/DODOMine.sol\":10094:10218  function reward(address to, uint256 amount) external onlyOwner {... */\n          pop\n          pop\n          jump\t// out\n            /* \"contracts/DODOMine.sol\":1289:1519  function claimOwnership() external {... */\n        tag_18:\n            /* \"contracts/DODOMine.sol\":1357:1368  _NEW_OWNER_ */\n          0x01\n          0x00\n          swap1\n          sload\n          swap1\n          0x0100\n          exp\n          swap1\n          div\n          0xffffffffffffffffffffffffffffffffffffffff\n          and\n            /* \"contracts/DODOMine.sol\":1343:1368  msg.sender == _NEW_OWNER_ */\n          0xffffffffffffffffffffffffffffffffffffffff\n          and\n            /* \"contracts/DODOMine.sol\":1343:1353  msg.sender */\n          caller\n            /* \"contracts/DODOMine.sol\":1343:1368  msg.sender == _NEW_OWNER_ */\n          0xffffffffffffffffffffffffffffffffffffffff\n          and\n          eq\n            /* \"contracts/DODOMine.sol\":1335:1386  require(msg.sender == _NEW_OWNER_, \"INVALID_CLAIM\") */\n          tag_37\n          jumpi\n          mload(0x40)\n          0x08c379a000000000000000000000000000000000000000000000000000000000\n          dup2\n          mstore\n          0x04\n          add\n          tag_38\n          swap1\n          tag_39\n          jump\t// in\n        tag_38:\n          mload(0x40)\n          dup1\n          swap2\n          sub\n          swap1\n          revert\n        tag_37:\n            /* \"contracts/DODOMine.sol\":1432:1443  _NEW_OWNER_ */\n          0x01\n          0x00\n          swap1\n          sload\n          swap1\n          0x0100\n          exp\n          swap1\n          div\n          0xffffffffffffffffffffffffffffffffffffffff\n          and\n            /* \"contracts/DODOMine.sol\":1402:1444  OwnershipTransferred(_OWNER_, _NEW_OWNER_) */\n          0xffffffffffffffffffffffffffffffffffffffff\n          and\n            /* \"contracts/DODOMine.sol\":1423:1430  _OWNER_ */\n          0x00\n          dup1\n          sload\n          swap1\n          0x0100\n          exp\n          swap1\n          div\n          0xffffffffffffffffffffffffffffffffffffffff\n          and\n            /* \"contracts/DODOMine.sol\":1402:1444  OwnershipTransferred(_OWNER_, _NEW_OWNER_) */\n          0xffffffffffffffffffffffffffffffffffffffff\n          and\n          0x8be0079c531659141344cd1fd0a4f28419497f9722a3daafe3b4186f6b6457e0\n          mload(0x40)\n          mload(0x40)\n          dup1\n          swap2\n          sub\n          swap1\n          log3\n            /* \"contracts/DODOMine.sol\":1465:1476  _NEW_OWNER_ */\n          0x01\n          0x00\n          swap1\n          sload\n          swap1\n          0x0100\n          exp\n          swap1\n          div\n          0xffffffffffffffffffffffffffffffffffffffff\n          and\n            /* \"contracts/DODOMine.sol\":1455:1462  _OWNER_ */\n          0x00\n          dup1\n            /* \"contracts/DODOMine.sol\":1455:1476  _OWNER_ = _NEW_OWNER_ */\n          0x0100\n          exp\n          dup2\n          sload\n          dup2\n          0xffffffffffffffffffffffffffffffffffffffff\n          mul\n          not\n          and\n          swap1\n          dup4\n          0xffffffffffffffffffffffffffffffffffffffff\n          and\n          mul\n          or\n          swap1\n          sstore\n          pop\n            /* \"contracts/DODOMine.sol\":1509:1510  0 */\n          0x00\n            /* \"contracts/DODOMine.sol\":1487:1498  _NEW_OWNER_ */\n          0x01\n          0x00\n            /* \"contracts/DODOMine.sol\":1487:1511  _NEW_OWNER_ = address(0) */\n          0x0100\n          exp\n          dup2\n          sload\n          dup2\n          0xffffffffffffffffffffffffffffffffffffffff\n          mul\n          not\n          and\n          swap1\n          dup4\n          0xffffffffffffffffffffffffffffffffffffffff\n          and\n          mul\n          or\n          swap1\n          sstore\n          pop\n            /* \"contracts/DODOMine.sol\":1289:1519  function claimOwnership() external {... */\n          jump\t// out\n            /* \"contracts/DODOMine.sol\":9931:9955  address public dodoToken */\n        tag_20:\n          0x02\n          0x00\n          swap1\n          sload\n          swap1\n          0x0100\n          exp\n          swap1\n          div\n          0xffffffffffffffffffffffffffffffffffffffff\n          and\n          dup2\n          jump\t// out\n            /* \"contracts/DODOMine.sol\":444:470  address public _NEW_OWNER_ */\n        tag_23:\n          0x01\n          0x00\n          swap1\n          sload\n          swap1\n          0x0100\n          exp\n          swap1\n          div\n          0xffffffffffffffffffffffffffffffffffffffff\n          and\n          dup2\n          jump\t// out\n            /* \"contracts/DODOMine.sol\":1057:1281  function transferOwnership(address newOwner) external onlyOwner {... */\n        tag_28:\n            /* \"contracts/DODOMine.sol\":811:818  _OWNER_ */\n          0x00\n          dup1\n          sload\n          swap1\n          0x0100\n          exp\n          swap1\n          div\n          0xffffffffffffffffffffffffffffffffffffffff\n          and\n            /* \"contracts/DODOMine.sol\":797:818  msg.sender == _OWNER_ */\n          0xffffffffffffffffffffffffffffffffffffffff\n          and\n            /* \"contracts/DODOMine.sol\":797:807  msg.sender */\n          caller\n            /* \"contracts/DODOMine.sol\":797:818  msg.sender == _OWNER_ */\n          0xffffffffffffffffffffffffffffffffffffffff\n          and\n          eq\n            /* \"contracts/DODOMine.sol\":789:832  require(msg.sender == _OWNER_, \"NOT_OWNER\") */\n          tag_41\n          jumpi\n          mload(0x40)\n          0x08c379a000000000000000000000000000000000000000000000000000000000\n          dup2\n          mstore\n          0x04\n          add\n          tag_42\n          swap1\n          tag_32\n          jump\t// in\n        tag_42:\n          mload(0x40)\n          dup1\n          swap2\n          sub\n          swap1\n          revert\n        tag_41:\n            /* \"contracts/DODOMine.sol\":1160:1161  0 */\n          0x00\n            /* \"contracts/DODOMine.sol\":1140:1162  newOwner != address(0) */\n          0xffffffffffffffffffffffffffffffffffffffff\n          and\n            /* \"contracts/DODOMine.sol\":1140:1148  newOwner */\n          dup2\n            /* \"contracts/DODOMine.sol\":1140:1162  newOwner != address(0) */\n          0xffffffffffffffffffffffffffffffffffffffff\n          and\n          eq\n          iszero\n            /* \"contracts/DODOMine.sol\":1132:1180  require(newOwner != address(0), \"INVALID_OWNER\") */\n          tag_44\n          jumpi\n          mload(0x40)\n          0x08c379a000000000000000000000000000000000000000000000000000000000\n          dup2\n          mstore\n          0x04\n          add\n          tag_45\n          swap1\n          tag_46\n          jump\t// in\n        tag_45:\n          mload(0x40)\n          dup1\n          swap2\n          sub\n          swap1\n          revert\n        tag_44:\n            /* \"contracts/DODOMine.sol\":1231:1239  newOwner */\n          dup1\n            /* \"contracts/DODOMine.sol\":1196:1240  OwnershipTransferPrepared(_OWNER_, newOwner) */\n          0xffffffffffffffffffffffffffffffffffffffff\n          and\n            /* \"contracts/DODOMine.sol\":1222:1229  _OWNER_ */\n          0x00\n          dup1\n          sload\n          swap1\n          0x0100\n          exp\n          swap1\n          div\n          0xffffffffffffffffffffffffffffffffffffffff\n          and\n            /* \"contracts/DODOMine.sol\":1196:1240  OwnershipTransferPrepared(_OWNER_, newOwner) */\n          0xffffffffffffffffffffffffffffffffffffffff\n          and\n          0xdcf55418cee3220104fef63f979ff3c4097ad240c0c43dcb33ce837748983e62\n          mload(0x40)\n          mload(0x40)\n          dup1\n          swap2\n          sub\n          swap1\n          log3\n            /* \"contracts/DODOMine.sol\":1265:1273  newOwner */\n          dup1\n            /* \"contracts/DODOMine.sol\":1251:1262  _NEW_OWNER_ */\n          0x01\n          0x00\n            /* \"contracts/DODOMine.sol\":1251:1273  _NEW_OWNER_ = newOwner */\n          0x0100\n          exp\n          dup2\n          sload\n          dup2\n          0xffffffffffffffffffffffffffffffffffffffff\n          mul\n          not\n          and\n          swap1\n          dup4\n          0xffffffffffffffffffffffffffffffffffffffff\n          and\n          mul\n          or\n          swap1\n          sstore\n          pop\n            /* \"contracts/DODOMine.sol\":1057:1281  function transferOwnership(address newOwner) external onlyOwner {... */\n          pop\n          jump\t// out\n            /* \"contracts/DODOMine.sol\":7037:7248  function safeTransfer(... */\n        tag_35:\n            /* \"contracts/DODOMine.sol\":7154:7240  _callOptionalReturn(token, abi.encodeWithSelector(token.transfer.selector, to, value)) */\n          tag_48\n            /* \"contracts/DODOMine.sol\":7174:7179  token */\n          dup4\n            /* \"contracts/DODOMine.sol\":7204:7227  token.transfer.selector */\n          shl(0xe0, 0xa9059cbb)\n            /* \"contracts/DODOMine.sol\":7229:7231  to */\n          dup5\n            /* \"contracts/DODOMine.sol\":7233:7238  value */\n          dup5\n            /* \"contracts/DODOMine.sol\":7181:7239  abi.encodeWithSelector(token.transfer.selector, to, value) */\n          add(0x24, mload(0x40))\n          tag_49\n          swap3\n          swap2\n          swap1\n          tag_50\n          jump\t// in\n        tag_49:\n          mload(0x40)\n          0x20\n          dup2\n          dup4\n          sub\n          sub\n          dup2\n          mstore\n          swap1\n          0x40\n          mstore\n          swap1\n          not(0xffffffffffffffffffffffffffffffffffffffffffffffffffffffff)\n          and\n          0x20\n          dup3\n          add\n          dup1\n          mload\n          0xffffffffffffffffffffffffffffffffffffffffffffffffffffffff\n          dup4\n          dup2\n          dup4\n          and\n          or\n          dup4\n          mstore\n          pop\n          pop\n          pop\n          pop\n            /* \"contracts/DODOMine.sol\":7154:7173  _callOptionalReturn */\n          tag_51\n            /* \"contracts/DODOMine.sol\":7154:7240  _callOptionalReturn(token, abi.encodeWithSelector(token.transfer.selector, to, value)) */\n          jump\t// in\n        tag_48:\n            /* \"contracts/DODOMine.sol\":7037:7248  function safeTransfer(... */\n          pop\n          pop\n          pop\n          jump\t// out\n            /* \"contracts/DODOMine.sol\":8610:9656  function _callOptionalReturn(IERC20 token, bytes memory data) private {... */\n        tag_51:\n            /* \"contracts/DODOMine.sol\":9270:9282  bool success */\n          0x00\n            /* \"contracts/DODOMine.sol\":9284:9307  bytes memory returndata */\n          dup1\n            /* \"contracts/DODOMine.sol\":9319:9324  token */\n          dup4\n            /* \"contracts/DODOMine.sol\":9311:9330  address(token).call */\n          0xffffffffffffffffffffffffffffffffffffffff\n          and\n            /* \"contracts/DODOMine.sol\":9331:9335  data */\n          dup4\n            /* \"contracts/DODOMine.sol\":9311:9336  address(token).call(data) */\n          mload(0x40)\n          tag_53\n          swap2\n          swap1\n          tag_54\n          jump\t// in\n        tag_53:\n          0x00\n          mload(0x40)\n          dup1\n          dup4\n          sub\n          dup2\n          0x00\n          dup7\n          gas\n          call\n          swap2\n          pop\n          pop\n          returndatasize\n          dup1\n          0x00\n          dup2\n          eq\n          tag_57\n          jumpi\n          mload(0x40)\n          swap2\n          pop\n          and(add(returndatasize, 0x3f), not(0x1f))\n          dup3\n          add\n          0x40\n          mstore\n          returndatasize\n          dup3\n          mstore\n          returndatasize\n          0x00\n          0x20\n          dup5\n          add\n          returndatacopy\n          jump(tag_56)\n        tag_57:\n          0x60\n          swap2\n          pop\n        tag_56:\n          pop\n            /* \"contracts/DODOMine.sol\":9269:9336  (bool success, bytes memory returndata) = address(token).call(data) */\n          swap2\n          pop\n          swap2\n          pop\n            /* \"contracts/DODOMine.sol\":9355:9362  success */\n          dup2\n            /* \"contracts/DODOMine.sol\":9347:9399  require(success, \"SafeERC20: low-level call failed\") */\n          tag_58\n          jumpi\n          mload(0x40)\n          0x08c379a000000000000000000000000000000000000000000000000000000000\n          dup2\n          mstore\n          0x04\n          add\n          tag_59\n          swap1\n          tag_60\n          jump\t// in\n        tag_59:\n          mload(0x40)\n          dup1\n          swap2\n          sub\n          swap1\n          revert\n        tag_58:\n            /* \"contracts/DODOMine.sol\":9436:9437  0 */\n          0x00\n            /* \"contracts/DODOMine.sol\":9416:9426  returndata */\n          dup2\n            /* \"contracts/DODOMine.sol\":9416:9433  returndata.length */\n          mload\n            /* \"contracts/DODOMine.sol\":9416:9437  returndata.length > 0 */\n          gt\n            /* \"contracts/DODOMine.sol\":9412:9649  if (returndata.length > 0) {... */\n          iszero\n          tag_61\n          jumpi\n            /* \"contracts/DODOMine.sol\":9571:9581  returndata */\n          dup1\n            /* \"contracts/DODOMine.sol\":9560:9590  abi.decode(returndata, (bool)) */\n          dup1\n          0x20\n          add\n          swap1\n          mload\n          dup2\n          add\n          swap1\n          tag_62\n          swap2\n          swap1\n          tag_63\n          jump\t// in\n        tag_62:\n            /* \"contracts/DODOMine.sol\":9552:9637  require(abi.decode(returndata, (bool)), \"SafeERC20: ERC20 operation did not succeed\") */\n          tag_64\n          jumpi\n          mload(0x40)\n          0x08c379a000000000000000000000000000000000000000000000000000000000\n          dup2\n          mstore\n          0x04\n          add\n          tag_65\n          swap1\n          tag_66\n          jump\t// in\n        tag_65:\n          mload(0x40)\n          dup1\n          swap2\n          sub\n          swap1\n          revert\n        tag_64:\n            /* \"contracts/DODOMine.sol\":9412:9649  if (returndata.length > 0) {... */\n        tag_61:\n            /* \"contracts/DODOMine.sol\":8680:9656  {... */\n          pop\n          pop\n            /* \"contracts/DODOMine.sol\":8610:9656  function _callOptionalReturn(IERC20 token, bytes memory data) private {... */\n          pop\n          pop\n          jump\t// out\n            /* \"#utility.yul\":7:133   */\n        tag_67:\n            /* \"#utility.yul\":44:51   */\n          0x00\n            /* \"#utility.yul\":84:126   */\n          0xffffffffffffffffffffffffffffffffffffffff\n            /* \"#utility.yul\":77:82   */\n          dup3\n            /* \"#utility.yul\":73:127   */\n          and\n            /* \"#utility.yul\":62:127   */\n          swap1\n          pop\n            /* \"#utility.yul\":7:133   */\n          swap2\n          swap1\n          pop\n          jump\t// out\n            /* \"#utility.yul\":139:235   */\n        tag_68:\n            /* \"#utility.yul\":176:183   */\n          0x00\n            /* \"#utility.yul\":205:229   */\n          tag_100\n            /* \"#utility.yul\":223:228   */\n          dup3\n            /* \"#utility.yul\":205:229   */\n          tag_67\n          jump\t// in\n        tag_100:\n            /* \"#utility.yul\":194:229   */\n          swap1\n          pop\n            /* \"#utility.yul\":139:235   */\n          swap2\n          swap1\n          pop\n          jump\t// out\n            /* \"#utility.yul\":241:359   */\n        tag_69:\n            /* \"#utility.yul\":328:352   */\n          tag_102\n            /* \"#utility.yul\":346:351   */\n          dup2\n            /* \"#utility.yul\":328:352   */\n          tag_68\n          jump\t// in\n        tag_102:\n            /* \"#utility.yul\":323:326   */\n          dup3\n            /* \"#utility.yul\":316:353   */\n          mstore\n            /* \"#utility.yul\":241:359   */\n          pop\n          pop\n          jump\t// out\n            /* \"#utility.yul\":365:587   */\n        tag_12:\n            /* \"#utility.yul\":458:462   */\n          0x00\n            /* \"#utility.yul\":496:498   */\n          0x20\n            /* \"#utility.yul\":485:494   */\n          dup3\n            /* \"#utility.yul\":481:499   */\n          add\n            /* \"#utility.yul\":473:499   */\n          swap1\n          pop\n            /* \"#utility.yul\":509:580   */\n          tag_104\n            /* \"#utility.yul\":577:578   */\n          0x00\n            /* \"#utility.yul\":566:575   */\n          dup4\n            /* \"#utility.yul\":562:579   */\n          add\n            /* \"#utility.yul\":553:559   */\n          dup5\n            /* \"#utility.yul\":509:580   */\n          tag_69\n          jump\t// in\n        tag_104:\n            /* \"#utility.yul\":365:587   */\n          swap3\n          swap2\n          pop\n          pop\n          jump\t// out\n            /* \"#utility.yul\":674:791   */\n        tag_71:\n            /* \"#utility.yul\":783:784   */\n          0x00\n            /* \"#utility.yul\":780:781   */\n          dup1\n            /* \"#utility.yul\":773:785   */\n          revert\n            /* \"#utility.yul\":920:1042   */\n        tag_73:\n            /* \"#utility.yul\":993:1017   */\n          tag_109\n            /* \"#utility.yul\":1011:1016   */\n          dup2\n            /* \"#utility.yul\":993:1017   */\n          tag_68\n          jump\t// in\n        tag_109:\n            /* \"#utility.yul\":986:991   */\n          dup2\n            /* \"#utility.yul\":983:1018   */\n          eq\n            /* \"#utility.yul\":973:1036   */\n          tag_110\n          jumpi\n            /* \"#utility.yul\":1032:1033   */\n          0x00\n            /* \"#utility.yul\":1029:1030   */\n          dup1\n            /* \"#utility.yul\":1022:1034   */\n          revert\n            /* \"#utility.yul\":973:1036   */\n        tag_110:\n            /* \"#utility.yul\":920:1042   */\n          pop\n          jump\t// out\n            /* \"#utility.yul\":1048:1187   */\n        tag_74:\n            /* \"#utility.yul\":1094:1099   */\n          0x00\n            /* \"#utility.yul\":1132:1138   */\n          dup2\n            /* \"#utility.yul\":1119:1139   */\n          calldataload\n            /* \"#utility.yul\":1110:1139   */\n          swap1\n          pop\n            /* \"#utility.yul\":1148:1181   */\n          tag_112\n            /* \"#utility.yul\":1175:1180   */\n          dup2\n            /* \"#utility.yul\":1148:1181   */\n          tag_73\n          jump\t// in\n        tag_112:\n            /* \"#utility.yul\":1048:1187   */\n          swap3\n          swap2\n          pop\n          pop\n          jump\t// out\n            /* \"#utility.yul\":1193:1270   */\n        tag_75:\n            /* \"#utility.yul\":1230:1237   */\n          0x00\n            /* \"#utility.yul\":1259:1264   */\n          dup2\n            /* \"#utility.yul\":1248:1264   */\n          swap1\n          pop\n            /* \"#utility.yul\":1193:1270   */\n          swap2\n          swap1\n          pop\n          jump\t// out\n            /* \"#utility.yul\":1276:1398   */\n        tag_76:\n            /* \"#utility.yul\":1349:1373   */\n          tag_115\n            /* \"#utility.yul\":1367:1372   */\n          dup2\n            /* \"#utility.yul\":1349:1373   */\n          tag_75\n          jump\t// in\n        tag_115:\n            /* \"#utility.yul\":1342:1347   */\n          dup2\n            /* \"#utility.yul\":1339:1374   */\n          eq\n            /* \"#utility.yul\":1329:1392   */\n          tag_116\n          jumpi\n            /* \"#utility.yul\":1388:1389   */\n          0x00\n            /* \"#utility.yul\":1385:1386   */\n          dup1\n            /* \"#utility.yul\":1378:1390   */\n          revert\n            /* \"#utility.yul\":1329:1392   */\n        tag_116:\n            /* \"#utility.yul\":1276:1398   */\n          pop\n          jump\t// out\n            /* \"#utility.yul\":1404:1543   */\n        tag_77:\n            /* \"#utility.yul\":1450:1455   */\n          0x00\n            /* \"#utility.yul\":1488:1494   */\n          dup2\n            /* \"#utility.yul\":1475:1495   */\n          calldataload\n            /* \"#utility.yul\":1466:1495   */\n          swap1\n          pop\n            /* \"#utility.yul\":1504:1537   */\n          tag_118\n            /* \"#utility.yul\":1531:1536   */\n          dup2\n            /* \"#utility.yul\":1504:1537   */\n          tag_76\n          jump\t// in\n        tag_118:\n            /* \"#utility.yul\":1404:1543   */\n          swap3\n          swap2\n          pop\n          pop\n          jump\t// out\n            /* \"#utility.yul\":1549:2023   */\n        tag_15:\n            /* \"#utility.yul\":1617:1623   */\n          0x00\n            /* \"#utility.yul\":1625:1631   */\n          dup1\n            /* \"#utility.yul\":1674:1676   */\n          0x40\n            /* \"#utility.yul\":1662:1671   */\n          dup4\n            /* \"#utility.yul\":1653:1660   */\n          dup6\n            /* \"#utility.yul\":1649:1672   */\n          sub\n            /* \"#utility.yul\":1645:1677   */\n          slt\n            /* \"#utility.yul\":1642:1761   */\n          iszero\n          tag_120\n          jumpi\n            /* \"#utility.yul\":1680:1759   */\n          tag_121\n          tag_71\n          jump\t// in\n        tag_121:\n            /* \"#utility.yul\":1642:1761   */\n        tag_120:\n            /* \"#utility.yul\":1800:1801   */\n          0x00\n            /* \"#utility.yul\":1825:1878   */\n          tag_122\n            /* \"#utility.yul\":1870:1877   */\n          dup6\n            /* \"#utility.yul\":1861:1867   */\n          dup3\n            /* \"#utility.yul\":1850:1859   */\n          dup7\n            /* \"#utility.yul\":1846:1868   */\n          add\n            /* \"#utility.yul\":1825:1878   */\n          tag_74\n          jump\t// in\n        tag_122:\n            /* \"#utility.yul\":1815:1878   */\n          swap3\n          pop\n            /* \"#utility.yul\":1771:1888   */\n          pop\n            /* \"#utility.yul\":1927:1929   */\n          0x20\n            /* \"#utility.yul\":1953:2006   */\n          tag_123\n            /* \"#utility.yul\":1998:2005   */\n          dup6\n            /* \"#utility.yul\":1989:1995   */\n          dup3\n            /* \"#utility.yul\":1978:1987   */\n          dup7\n            /* \"#utility.yul\":1974:1996   */\n          add\n            /* \"#utility.yul\":1953:2006   */\n          tag_77\n          jump\t// in\n        tag_123:\n            /* \"#utility.yul\":1943:2006   */\n          swap2\n          pop\n            /* \"#utility.yul\":1898:2016   */\n          pop\n            /* \"#utility.yul\":1549:2023   */\n          swap3\n          pop\n          swap3\n          swap1\n          pop\n          jump\t// out\n            /* \"#utility.yul\":2029:2358   */\n        tag_27:\n            /* \"#utility.yul\":2088:2094   */\n          0x00\n            /* \"#utility.yul\":2137:2139   */\n          0x20\n            /* \"#utility.yul\":2125:2134   */\n          dup3\n            /* \"#utility.yul\":2116:2123   */\n          dup5\n            /* \"#utility.yul\":2112:2135   */\n          sub\n            /* \"#utility.yul\":2108:2140   */\n          slt\n            /* \"#utility.yul\":2105:2224   */\n          iszero\n          tag_125\n          jumpi\n            /* \"#utility.yul\":2143:2222   */\n          tag_126\n          tag_71\n          jump\t// in\n        tag_126:\n            /* \"#utility.yul\":2105:2224   */\n        tag_125:\n            /* \"#utility.yul\":2263:2264   */\n          0x00\n            /* \"#utility.yul\":2288:2341   */\n          tag_127\n            /* \"#utility.yul\":2333:2340   */\n          dup5\n            /* \"#utility.yul\":2324:2330   */\n          dup3\n            /* \"#utility.yul\":2313:2322   */\n          dup6\n            /* \"#utility.yul\":2309:2331   */\n          add\n            /* \"#utility.yul\":2288:2341   */\n          tag_74\n          jump\t// in\n        tag_127:\n            /* \"#utility.yul\":2278:2341   */\n          swap2\n          pop\n            /* \"#utility.yul\":2234:2351   */\n          pop\n            /* \"#utility.yul\":2029:2358   */\n          swap3\n          swap2\n          pop\n          pop\n          jump\t// out\n            /* \"#utility.yul\":2364:2533   */\n        tag_78:\n            /* \"#utility.yul\":2448:2459   */\n          0x00\n            /* \"#utility.yul\":2482:2488   */\n          dup3\n            /* \"#utility.yul\":2477:2480   */\n          dup3\n            /* \"#utility.yul\":2470:2489   */\n          mstore\n            /* \"#utility.yul\":2522:2526   */\n          0x20\n            /* \"#utility.yul\":2517:2520   */\n          dup3\n            /* \"#utility.yul\":2513:2527   */\n          add\n            /* \"#utility.yul\":2498:2527   */\n          swap1\n          pop\n            /* \"#utility.yul\":2364:2533   */\n          swap3\n          swap2\n          pop\n          pop\n          jump\t// out\n            /* \"#utility.yul\":2539:2698   */\n        tag_79:\n            /* \"#utility.yul\":2679:2690   */\n          0x4e4f545f4f574e45520000000000000000000000000000000000000000000000\n            /* \"#utility.yul\":2675:2676   */\n          0x00\n            /* \"#utility.yul\":2667:2673   */\n          dup3\n            /* \"#utility.yul\":2663:2677   */\n          add\n            /* \"#utility.yul\":2656:2691   */\n          mstore\n            /* \"#utility.yul\":2539:2698   */\n          pop\n          jump\t// out\n            /* \"#utility.yul\":2704:3069   */\n        tag_80:\n            /* \"#utility.yul\":2846:2849   */\n          0x00\n            /* \"#utility.yul\":2867:2933   */\n          tag_131\n            /* \"#utility.yul\":2931:2932   */\n          0x09\n            /* \"#utility.yul\":2926:2929   */\n          dup4\n            /* \"#utility.yul\":2867:2933   */\n          tag_78\n          jump\t// in\n        tag_131:\n            /* \"#utility.yul\":2860:2933   */\n          swap2\n          pop\n            /* \"#utility.yul\":2942:3035   */\n          tag_132\n            /* \"#utility.yul\":3031:3034   */\n          dup3\n            /* \"#utility.yul\":2942:3035   */\n          tag_79\n          jump\t// in\n        tag_132:\n            /* \"#utility.yul\":3060:3062   */\n          0x20\n            /* \"#utility.yul\":3055:3058   */\n          dup3\n            /* \"#utility.yul\":3051:3063   */\n          add\n            /* \"#utility.yul\":3044:3063   */\n          swap1\n          pop\n            /* \"#utility.yul\":2704:3069   */\n          swap2\n          swap1\n          pop\n          jump\t// out\n            /* \"#utility.yul\":3075:3494   */\n        tag_32:\n            /* \"#utility.yul\":3241:3245   */\n          0x00\n            /* \"#utility.yul\":3279:3281   */\n          0x20\n            /* \"#utility.yul\":3268:3277   */\n          dup3\n            /* \"#utility.yul\":3264:3282   */\n          add\n            /* \"#utility.yul\":3256:3282   */\n          swap1\n          pop\n            /* \"#utility.yul\":3328:3337   */\n          dup2\n            /* \"#utility.yul\":3322:3326   */\n          dup2\n            /* \"#utility.yul\":3318:3338   */\n          sub\n            /* \"#utility.yul\":3314:3315   */\n          0x00\n            /* \"#utility.yul\":3303:3312   */\n          dup4\n            /* \"#utility.yul\":3299:3316   */\n          add\n            /* \"#utility.yul\":3292:3339   */\n          mstore\n            /* \"#utility.yul\":3356:3487   */\n          tag_134\n            /* \"#utility.yul\":3482:3486   */\n          dup2\n            /* \"#utility.yul\":3356:3487   */\n          tag_80\n          jump\t// in\n        tag_134:\n            /* \"#utility.yul\":3348:3487   */\n          swap1\n          pop\n            /* \"#utility.yul\":3075:3494   */\n          swap2\n          swap1\n          pop\n          jump\t// out\n            /* \"#utility.yul\":3500:3663   */\n        tag_81:\n            /* \"#utility.yul\":3640:3655   */\n          0x494e56414c49445f434c41494d00000000000000000000000000000000000000\n            /* \"#utility.yul\":3636:3637   */\n          0x00\n            /* \"#utility.yul\":3628:3634   */\n          dup3\n            /* \"#utility.yul\":3624:3638   */\n          add\n            /* \"#utility.yul\":3617:3656   */\n          mstore\n            /* \"#utility.yul\":3500:3663   */\n          pop\n          jump\t// out\n            /* \"#utility.yul\":3669:4035   */\n        tag_82:\n            /* \"#utility.yul\":3811:3814   */\n          0x00\n            /* \"#utility.yul\":3832:3899   */\n          tag_137\n            /* \"#utility.yul\":3896:3898   */\n          0x0d\n            /* \"#utility.yul\":3891:3894   */\n          dup4\n            /* \"#utility.yul\":3832:3899   */\n          tag_78\n          jump\t// in\n        tag_137:\n            /* \"#utility.yul\":3825:3899   */\n          swap2\n          pop\n            /* \"#utility.yul\":3908:4001   */\n          tag_138\n            /* \"#utility.yul\":3997:4000   */\n          dup3\n            /* \"#utility.yul\":3908:4001   */\n          tag_81\n          jump\t// in\n        tag_138:\n            /* \"#utility.yul\":4026:4028   */\n          0x20\n            /* \"#utility.yul\":4021:4024   */\n          dup3\n            /* \"#utility.yul\":4017:4029   */\n          add\n            /* \"#utility.yul\":4010:4029   */\n          swap1\n          pop\n            /* \"#utility.yul\":3669:4035   */\n          swap2\n          swap1\n          pop\n          jump\t// out\n            /* \"#utility.yul\":4041:4460   */\n        tag_39:\n            /* \"#utility.yul\":4207:4211   */\n          0x00\n            /* \"#utility.yul\":4245:4247   */\n          0x20\n            /* \"#utility.yul\":4234:4243   */\n          dup3\n            /* \"#utility.yul\":4230:4248   */\n          add\n            /* \"#utility.yul\":4222:4248   */\n          swap1\n          pop\n            /* \"#utility.yul\":4294:4303   */\n          dup2\n            /* \"#utility.yul\":4288:4292   */\n          dup2\n            /* \"#utility.yul\":4284:4304   */\n          sub\n            /* \"#utility.yul\":4280:4281   */\n          0x00\n            /* \"#utility.yul\":4269:4278   */\n          dup4\n            /* \"#utility.yul\":4265:4282   */\n          add\n            /* \"#utility.yul\":4258:4305   */\n          mstore\n            /* \"#utility.yul\":4322:4453   */\n          tag_140\n            /* \"#utility.yul\":4448:4452   */\n          dup2\n            /* \"#utility.yul\":4322:4453   */\n          tag_82\n          jump\t// in\n        tag_140:\n            /* \"#utility.yul\":4314:4453   */\n          swap1\n          pop\n            /* \"#utility.yul\":4041:4460   */\n          swap2\n          swap1\n          pop\n          jump\t// out\n            /* \"#utility.yul\":4466:4629   */\n        tag_83:\n            /* \"#utility.yul\":4606:4621   */\n          0x494e56414c49445f4f574e455200000000000000000000000000000000000000\n            /* \"#utility.yul\":4602:4603   */\n          0x00\n            /* \"#utility.yul\":4594:4600   */\n          dup3\n            /* \"#utility.yul\":4590:4604   */\n          add\n            /* \"#utility.yul\":4583:4622   */\n          mstore\n            /* \"#utility.yul\":4466:4629   */\n          pop\n          jump\t// out\n            /* \"#utility.yul\":4635:5001   */\n        tag_84:\n            /* \"#utility.yul\":4777:4780   */\n          0x00\n            /* \"#utility.yul\":4798:4865   */\n          tag_143\n            /* \"#utility.yul\":4862:4864   */\n          0x0d\n            /* \"#utility.yul\":4857:4860   */\n          dup4\n            /* \"#utility.yul\":4798:4865   */\n          tag_78\n          jump\t// in\n        tag_143:\n            /* \"#utility.yul\":4791:4865   */\n          swap2\n          pop\n            /* \"#utility.yul\":4874:4967   */\n          tag_144\n            /* \"#utility.yul\":4963:4966   */\n          dup3\n            /* \"#utility.yul\":4874:4967   */\n          tag_83\n          jump\t// in\n        tag_144:\n            /* \"#utility.yul\":4992:4994   */\n          0x20\n            /* \"#utility.yul\":4987:4990   */\n          dup3\n            /* \"#utility.yul\":4983:4995   */\n          add\n            /* \"#utility.yul\":4976:4995   */\n          swap1\n          pop\n            /* \"#utility.yul\":4635:5001   */\n          swap2\n          swap1\n          pop\n          jump\t// out\n            /* \"#utility.yul\":5007:5426   */\n        tag_46:\n            /* \"#utility.yul\":5173:5177   */\n          0x00\n            /* \"#utility.yul\":5211:5213   */\n          0x20\n            /* \"#utility.yul\":5200:5209   */\n          dup3\n            /* \"#utility.yul\":5196:5214   */\n          add\n            /* \"#utility.yul\":5188:5214   */\n          swap1\n          pop\n            /* \"#utility.yul\":5260:5269   */\n          dup2\n            /* \"#utility.yul\":5254:5258   */\n          dup2\n            /* \"#utility.yul\":5250:5270   */\n          sub\n            /* \"#utility.yul\":5246:5247   */\n          0x00\n            /* \"#utility.yul\":5235:5244   */\n          dup4\n            /* \"#utility.yul\":5231:5248   */\n          add\n            /* \"#utility.yul\":5224:5271   */\n          mstore\n            /* \"#utility.yul\":5288:5419   */\n          tag_146\n            /* \"#utility.yul\":5414:5418   */\n          dup2\n            /* \"#utility.yul\":5288:5419   */\n          tag_84\n          jump\t// in\n        tag_146:\n            /* \"#utility.yul\":5280:5419   */\n          swap1\n          pop\n            /* \"#utility.yul\":5007:5426   */\n          swap2\n          swap1\n          pop\n          jump\t// out\n            /* \"#utility.yul\":5432:5550   */\n        tag_85:\n            /* \"#utility.yul\":5519:5543   */\n          tag_148\n            /* \"#utility.yul\":5537:5542   */\n          dup2\n            /* \"#utility.yul\":5519:5543   */\n          tag_75\n          jump\t// in\n        tag_148:\n            /* \"#utility.yul\":5514:5517   */\n          dup3\n            /* \"#utility.yul\":5507:5544   */\n          mstore\n            /* \"#utility.yul\":5432:5550   */\n          pop\n          pop\n          jump\t// out\n            /* \"#utility.yul\":5556:5888   */\n        tag_50:\n            /* \"#utility.yul\":5677:5681   */\n          0x00\n            /* \"#utility.yul\":5715:5717   */\n          0x40\n            /* \"#utility.yul\":5704:5713   */\n          dup3\n            /* \"#utility.yul\":5700:5718   */\n          add\n            /* \"#utility.yul\":5692:5718   */\n          swap1\n          pop\n            /* \"#utility.yul\":5728:5799   */\n          tag_150\n            /* \"#utility.yul\":5796:5797   */\n          0x00\n            /* \"#utility.yul\":5785:5794   */\n          dup4\n            /* \"#utility.yul\":5781:5798   */\n          add\n            /* \"#utility.yul\":5772:5778   */\n          dup6\n            /* \"#utility.yul\":5728:5799   */\n          tag_69\n          jump\t// in\n        tag_150:\n            /* \"#utility.yul\":5809:5881   */\n          tag_151\n            /* \"#utility.yul\":5877:5879   */\n          0x20\n            /* \"#utility.yul\":5866:5875   */\n          dup4\n            /* \"#utility.yul\":5862:5880   */\n          add\n            /* \"#utility.yul\":5853:5859   */\n          dup5\n            /* \"#utility.yul\":5809:5881   */\n          tag_85\n          jump\t// in\n        tag_151:\n            /* \"#utility.yul\":5556:5888   */\n          swap4\n          swap3\n          pop\n          pop\n          pop\n          jump\t// out\n            /* \"#utility.yul\":5894:5992   */\n        tag_86:\n            /* \"#utility.yul\":5945:5951   */\n          0x00\n            /* \"#utility.yul\":5979:5984   */\n          dup2\n            /* \"#utility.yul\":5973:5985   */\n          mload\n            /* \"#utility.yul\":5963:5985   */\n          swap1\n          pop\n            /* \"#utility.yul\":5894:5992   */\n          swap2\n          swap1\n          pop\n          jump\t// out\n            /* \"#utility.yul\":5998:6145   */\n        tag_87:\n            /* \"#utility.yul\":6099:6110   */\n          0x00\n            /* \"#utility.yul\":6136:6139   */\n          dup2\n            /* \"#utility.yul\":6121:6139   */\n          swap1\n          pop\n            /* \"#utility.yul\":5998:6145   */\n          swap3\n          swap2\n          pop\n          pop\n          jump\t// out\n            /* \"#utility.yul\":6151:6458   */\n        tag_88:\n            /* \"#utility.yul\":6219:6220   */\n          0x00\n            /* \"#utility.yul\":6229:6342   */\n        tag_155:\n            /* \"#utility.yul\":6243:6249   */\n          dup4\n            /* \"#utility.yul\":6240:6241   */\n          dup2\n            /* \"#utility.yul\":6237:6250   */\n          lt\n            /* \"#utility.yul\":6229:6342   */\n          iszero\n          tag_157\n          jumpi\n            /* \"#utility.yul\":6328:6329   */\n          dup1\n            /* \"#utility.yul\":6323:6326   */\n          dup3\n            /* \"#utility.yul\":6319:6330   */\n          add\n            /* \"#utility.yul\":6313:6331   */\n          mload\n            /* \"#utility.yul\":6309:6310   */\n          dup2\n            /* \"#utility.yul\":6304:6307   */\n          dup5\n            /* \"#utility.yul\":6300:6311   */\n          add\n            /* \"#utility.yul\":6293:6332   */\n          mstore\n            /* \"#utility.yul\":6265:6267   */\n          0x20\n            /* \"#utility.yul\":6262:6263   */\n          dup2\n            /* \"#utility.yul\":6258:6268   */\n          add\n            /* \"#utility.yul\":6253:6268   */\n          swap1\n          pop\n            /* \"#utility.yul\":6229:6342   */\n          jump(tag_155)\n        tag_157:\n            /* \"#utility.yul\":6360:6366   */\n          dup4\n            /* \"#utility.yul\":6357:6358   */\n          dup2\n            /* \"#utility.yul\":6354:6367   */\n          gt\n            /* \"#utility.yul\":6351:6452   */\n          iszero\n          tag_158\n          jumpi\n            /* \"#utility.yul\":6440:6441   */\n          0x00\n            /* \"#utility.yul\":6431:6437   */\n          dup5\n            /* \"#utility.yul\":6426:6429   */\n          dup5\n            /* \"#utility.yul\":6422:6438   */\n          add\n            /* \"#utility.yul\":6415:6442   */\n          mstore\n            /* \"#utility.yul\":6351:6452   */\n        tag_158:\n            /* \"#utility.yul\":6200:6458   */\n          pop\n            /* \"#utility.yul\":6151:6458   */\n          pop\n          pop\n          pop\n          jump\t// out\n            /* \"#utility.yul\":6464:6837   */\n        tag_89:\n            /* \"#utility.yul\":6568:6571   */\n          0x00\n            /* \"#utility.yul\":6596:6634   */\n          tag_160\n            /* \"#utility.yul\":6628:6633   */\n          dup3\n            /* \"#utility.yul\":6596:6634   */\n          tag_86\n          jump\t// in\n        tag_160:\n            /* \"#utility.yul\":6650:6738   */\n          tag_161\n            /* \"#utility.yul\":6731:6737   */\n          dup2\n            /* \"#utility.yul\":6726:6729   */\n          dup6\n            /* \"#utility.yul\":6650:6738   */\n          tag_87\n          jump\t// in\n        tag_161:\n            /* \"#utility.yul\":6643:6738   */\n          swap4\n          pop\n            /* \"#utility.yul\":6747:6799   */\n          tag_162\n            /* \"#utility.yul\":6792:6798   */\n          dup2\n            /* \"#utility.yul\":6787:6790   */\n          dup6\n            /* \"#utility.yul\":6780:6784   */\n          0x20\n            /* \"#utility.yul\":6773:6778   */\n          dup7\n            /* \"#utility.yul\":6769:6785   */\n          add\n            /* \"#utility.yul\":6747:6799   */\n          tag_88\n          jump\t// in\n        tag_162:\n            /* \"#utility.yul\":6824:6830   */\n          dup1\n            /* \"#utility.yul\":6819:6822   */\n          dup5\n            /* \"#utility.yul\":6815:6831   */\n          add\n            /* \"#utility.yul\":6808:6831   */\n          swap2\n          pop\n            /* \"#utility.yul\":6572:6837   */\n          pop\n            /* \"#utility.yul\":6464:6837   */\n          swap3\n          swap2\n          pop\n          pop\n          jump\t// out\n            /* \"#utility.yul\":6843:7114   */\n        tag_54:\n            /* \"#utility.yul\":6973:6976   */\n          0x00\n            /* \"#utility.yul\":6995:7088   */\n          tag_164\n            /* \"#utility.yul\":7084:7087   */\n          dup3\n            /* \"#utility.yul\":7075:7081   */\n          dup5\n            /* \"#utility.yul\":6995:7088   */\n          tag_89\n          jump\t// in\n        tag_164:\n            /* \"#utility.yul\":6988:7088   */\n          swap2\n          pop\n            /* \"#utility.yul\":7105:7108   */\n          dup2\n            /* \"#utility.yul\":7098:7108   */\n          swap1\n          pop\n            /* \"#utility.yul\":6843:7114   */\n          swap3\n          swap2\n          pop\n          pop\n          jump\t// out\n            /* \"#utility.yul\":7120:7302   */\n        tag_90:\n            /* \"#utility.yul\":7260:7294   */\n          0x5361666545524332303a206c6f772d6c6576656c2063616c6c206661696c6564\n            /* \"#utility.yul\":7256:7257   */\n          0x00\n            /* \"#utility.yul\":7248:7254   */\n          dup3\n            /* \"#utility.yul\":7244:7258   */\n          add\n            /* \"#utility.yul\":7237:7295   */\n          mstore\n            /* \"#utility.yul\":7120:7302   */\n          pop\n          jump\t// out\n            /* \"#utility.yul\":7308:7674   */\n        tag_91:\n            /* \"#utility.yul\":7450:7453   */\n          0x00\n            /* \"#utility.yul\":7471:7538   */\n          tag_167\n            /* \"#utility.yul\":7535:7537   */\n          0x20\n            /* \"#utility.yul\":7530:7533   */\n          dup4\n            /* \"#utility.yul\":7471:7538   */\n          tag_78\n          jump\t// in\n        tag_167:\n            /* \"#utility.yul\":7464:7538   */\n          swap2\n          pop\n            /* \"#utility.yul\":7547:7640   */\n          tag_168\n            /* \"#utility.yul\":7636:7639   */\n          dup3\n            /* \"#utility.yul\":7547:7640   */\n          tag_90\n          jump\t// in\n        tag_168:\n            /* \"#utility.yul\":7665:7667   */\n          0x20\n            /* \"#utility.yul\":7660:7663   */\n          dup3\n            /* \"#utility.yul\":7656:7668   */\n          add\n            /* \"#utility.yul\":7649:7668   */\n          swap1\n          pop\n            /* \"#utility.yul\":7308:7674   */\n          swap2\n          swap1\n          pop\n          jump\t// out\n            /* \"#utility.yul\":7680:8099   */\n        tag_60:\n            /* \"#utility.yul\":7846:7850   */\n          0x00\n            /* \"#utility.yul\":7884:7886   */\n          0x20\n            /* \"#utility.yul\":7873:7882   */\n          dup3\n            /* \"#utility.yul\":7869:7887   */\n          add\n            /* \"#utility.yul\":7861:7887   */\n          swap1\n          pop\n            /* \"#utility.yul\":7933:7942   */\n          dup2\n            /* \"#utility.yul\":7927:7931   */\n          dup2\n            /* \"#utility.yul\":7923:7943   */\n          sub\n            /* \"#utility.yul\":7919:7920   */\n          0x00\n            /* \"#utility.yul\":7908:7917   */\n          dup4\n            /* \"#utility.yul\":7904:7921   */\n          add\n            /* \"#utility.yul\":7897:7944   */\n          mstore\n            /* \"#utility.yul\":7961:8092   */\n          tag_170\n            /* \"#utility.yul\":8087:8091   */\n          dup2\n            /* \"#utility.yul\":7961:8092   */\n          tag_91\n          jump\t// in\n        tag_170:\n            /* \"#utility.yul\":7953:8092   */\n          swap1\n          pop\n            /* \"#utility.yul\":7680:8099   */\n          swap2\n          swap1\n          pop\n          jump\t// out\n            /* \"#utility.yul\":8105:8195   */\n        tag_92:\n            /* \"#utility.yul\":8139:8146   */\n          0x00\n            /* \"#utility.yul\":8182:8187   */\n          dup2\n            /* \"#utility.yul\":8175:8188   */\n          iszero\n            /* \"#utility.yul\":8168:8189   */\n          iszero\n            /* \"#utility.yul\":8157:8189   */\n          swap1\n          pop\n            /* \"#utility.yul\":8105:8195   */\n          swap2\n          swap1\n          pop\n          jump\t// out\n            /* \"#utility.yul\":8201:8317   */\n        tag_93:\n            /* \"#utility.yul\":8271:8292   */\n          tag_173\n            /* \"#utility.yul\":8286:8291   */\n          dup2\n            /* \"#utility.yul\":8271:8292   */\n          tag_92\n          jump\t// in\n        tag_173:\n            /* \"#utility.yul\":8264:8269   */\n          dup2\n            /* \"#utility.yul\":8261:8293   */\n          eq\n            /* \"#utility.yul\":8251:8311   */\n          tag_174\n          jumpi\n            /* \"#utility.yul\":8307:8308   */\n          0x00\n            /* \"#utility.yul\":8304:8305   */\n          dup1\n            /* \"#utility.yul\":8297:8309   */\n          revert\n            /* \"#utility.yul\":8251:8311   */\n        tag_174:\n            /* \"#utility.yul\":8201:8317   */\n          pop\n          jump\t// out\n            /* \"#utility.yul\":8323:8460   */\n        tag_94:\n            /* \"#utility.yul\":8377:8382   */\n          0x00\n            /* \"#utility.yul\":8408:8414   */\n          dup2\n            /* \"#utility.yul\":8402:8415   */\n          mload\n            /* \"#utility.yul\":8393:8415   */\n          swap1\n          pop\n            /* \"#utility.yul\":8424:8454   */\n          tag_176\n            /* \"#utility.yul\":8448:8453   */\n          dup2\n            /* \"#utility.yul\":8424:8454   */\n          tag_93\n          jump\t// in\n        tag_176:\n            /* \"#utility.yul\":8323:8460   */\n          swap3\n          swap2\n          pop\n          pop\n          jump\t// out\n            /* \"#utility.yul\":8466:8811   */\n        tag_63:\n            /* \"#utility.yul\":8533:8539   */\n          0x00\n            /* \"#utility.yul\":8582:8584   */\n          0x20\n            /* \"#utility.yul\":8570:8579   */\n          dup3\n            /* \"#utility.yul\":8561:8568   */\n          dup5\n            /* \"#utility.yul\":8557:8580   */\n          sub\n            /* \"#utility.yul\":8553:8585   */\n          slt\n            /* \"#utility.yul\":8550:8669   */\n          iszero\n          tag_178\n          jumpi\n            /* \"#utility.yul\":8588:8667   */\n          tag_179\n          tag_71\n          jump\t// in\n        tag_179:\n            /* \"#utility.yul\":8550:8669   */\n        tag_178:\n            /* \"#utility.yul\":8708:8709   */\n          0x00\n            /* \"#utility.yul\":8733:8794   */\n          tag_180\n            /* \"#utility.yul\":8786:8793   */\n          dup5\n            /* \"#utility.yul\":8777:8783   */\n          dup3\n            /* \"#utility.yul\":8766:8775   */\n          dup6\n            /* \"#utility.yul\":8762:8784   */\n          add\n            /* \"#utility.yul\":8733:8794   */\n          tag_94\n          jump\t// in\n        tag_180:\n            /* \"#utility.yul\":8723:8794   */\n          swap2\n          pop\n            /* \"#utility.yul\":8679:8804   */\n          pop\n            /* \"#utility.yul\":8466:8811   */\n          swap3\n          swap2\n          pop\n          pop\n          jump\t// out\n            /* \"#utility.yul\":8817:9046   */\n        tag_95:\n            /* \"#utility.yul\":8957:8991   */\n          0x5361666545524332303a204552433230206f7065726174696f6e20646964206e\n            /* \"#utility.yul\":8953:8954   */\n          0x00\n            /* \"#utility.yul\":8945:8951   */\n          dup3\n            /* \"#utility.yul\":8941:8955   */\n          add\n            /* \"#utility.yul\":8934:8992   */\n          mstore\n            /* \"#utility.yul\":9026:9038   */\n          0x6f74207375636365656400000000000000000000000000000000000000000000\n            /* \"#utility.yul\":9021:9023   */\n          0x20\n            /* \"#utility.yul\":9013:9019   */\n          dup3\n            /* \"#utility.yul\":9009:9024   */\n          add\n            /* \"#utility.yul\":9002:9039   */\n          mstore\n            /* \"#utility.yul\":8817:9046   */\n          pop\n          jump\t// out\n            /* \"#utility.yul\":9052:9418   */\n        tag_96:\n            /* \"#utility.yul\":9194:9197   */\n          0x00\n            /* \"#utility.yul\":9215:9282   */\n          tag_183\n            /* \"#utility.yul\":9279:9281   */\n          0x2a\n            /* \"#utility.yul\":9274:9277   */\n          dup4\n            /* \"#utility.yul\":9215:9282   */\n          tag_78\n          jump\t// in\n        tag_183:\n            /* \"#utility.yul\":9208:9282   */\n          swap2\n          pop\n            /* \"#utility.yul\":9291:9384   */\n          tag_184\n            /* \"#utility.yul\":9380:9383   */\n          dup3\n            /* \"#utility.yul\":9291:9384   */\n          tag_95\n          jump\t// in\n        tag_184:\n            /* \"#utility.yul\":9409:9411   */\n          0x40\n            /* \"#utility.yul\":9404:9407   */\n          dup3\n            /* \"#utility.yul\":9400:9412   */\n          add\n            /* \"#utility.yul\":9393:9412   */\n          swap1\n          pop\n            /* \"#utility.yul\":9052:9418   */\n          swap2\n          swap1\n          pop\n          jump\t// out\n            /* \"#utility.yul\":9424:9843   */\n        tag_66:\n            /* \"#utility.yul\":9590:9594   */\n          0x00\n            /* \"#utility.yul\":9628:9630   */\n          0x20\n            /* \"#utility.yul\":9617:9626   */\n          dup3\n            /* \"#utility.yul\":9613:9631   */\n          add\n            /* \"#utility.yul\":9605:9631   */\n          swap1\n          pop\n            /* \"#utility.yul\":9677:9686   */\n          dup2\n            /* \"#utility.yul\":9671:9675   */\n          dup2\n            /* \"#utility.yul\":9667:9687   */\n          sub\n            /* \"#utility.yul\":9663:9664   */\n          0x00\n            /* \"#utility.yul\":9652:9661   */\n          dup4\n            /* \"#utility.yul\":9648:9665   */\n          add\n            /* \"#utility.yul\":9641:9688   */\n          mstore\n            /* \"#utility.yul\":9705:9836   */\n          tag_186\n            /* \"#utility.yul\":9831:9835   */\n          dup2\n            /* \"#utility.yul\":9705:9836   */\n          tag_96\n          jump\t// in\n        tag_186:\n            /* \"#utility.yul\":9697:9836   */\n          swap1\n          pop\n            /* \"#utility.yul\":9424:9843   */\n          swap2\n          swap1\n          pop\n          jump\t// out\n\n        auxdata: 0xa264697066735822122063f1d6870f265f656240a1299a5a794ac1d0417a521e920e1378e826a58fab7064736f6c63430008090033\n    }\n}\n",
				"bytecode": {
					"linkReferences": {},
					"object": "608060405260006008553480156200001657600080fd5b50604051620041cf380380620041cf83398181016040528101906200003c919062000232565b336000806101000a81548173ffffffffffffffffffffffffffffffffffffffff021916908373ffffffffffffffffffffffffffffffffffffffff16021790555060008054906101000a900473ffffffffffffffffffffffffffffffffffffffff1673ffffffffffffffffffffffffffffffffffffffff16600073ffffffffffffffffffffffffffffffffffffffff167f8be0079c531659141344cd1fd0a4f28419497f9722a3daafe3b4186f6b6457e060405160405180910390a38160405162000106906200017f565b6200011291906200028a565b604051809103906000f0801580156200012f573d6000803e3d6000fd5b50600260006101000a81548173ffffffffffffffffffffffffffffffffffffffff021916908373ffffffffffffffffffffffffffffffffffffffff160217905550806009819055505050620002a7565b610e33806200339c83390190565b600080fd5b600073ffffffffffffffffffffffffffffffffffffffff82169050919050565b6000620001bf8262000192565b9050919050565b620001d181620001b2565b8114620001dd57600080fd5b50565b600081519050620001f181620001c6565b92915050565b6000819050919050565b6200020c81620001f7565b81146200021857600080fd5b50565b6000815190506200022c8162000201565b92915050565b600080604083850312156200024c576200024b6200018d565b5b60006200025c85828601620001e0565b92505060206200026f858286016200021b565b9150509250929050565b6200028481620001b2565b82525050565b6000602082019050620002a1600083018462000279565b92915050565b6130e580620002b76000396000f3fe608060405234801561001057600080fd5b50600436106101da5760003560e01c80636ff1c9bc11610104578063d1058e59116100a2578063f3fef3a311610071578063f3fef3a314610533578063fa09e6301461054f578063fb7276f41461056b578063fe0f3a131461059b576101da565b8063d1058e59146104ad578063ec83a76a146104b7578063f146b809146104e7578063f2fde38b14610517576101da565b80638af70336116100de5780638af703361461042457806393f1a40b146104425780639599af1314610473578063bea006e014610491576101da565b80636ff1c9bc146103ce5780637f10179f146103ea5780638456db1514610406576101da565b806343b55f351161017c57806351eb05a61161014b57806351eb05a614610345578063630b5ba114610361578063689d84e41461036b5780636dc2cc8c1461039e576101da565b806343b55f35146102d157806347e7ef241461030157806348cd4cb11461031d5780634e71e0c81461033b576101da565b806319a78f55116101b857806319a78f55146102395780631e83409a1461026957806334ea5389146102855780633d16433e146102a1576101da565b8063081e3eda146101df57806316048bc4146101fd57806317caf6f11461021b575b600080fd5b6101e76105cb565b6040516101f491906124e1565b60405180910390f35b6102056105d8565b604051610212919061253d565b60405180910390f35b6102236105fc565b60405161023091906124e1565b60405180910390f35b610253600480360381019061024e9190612589565b610602565b60405161026091906124e1565b60405180910390f35b610283600480360381019061027e91906125c9565b61066d565b005b61029f600480360381019061029a919061265a565b6107e7565b005b6102bb60048036038101906102b691906125c9565b610913565b6040516102c891906124e1565b60405180910390f35b6102eb60048036038101906102e691906125c9565b61092b565b6040516102f891906124e1565b60405180910390f35b61031b600480360381019061031691906126ad565b610a04565b005b610325610bb9565b60405161033291906124e1565b60405180910390f35b610343610bbf565b005b61035f600480360381019061035a91906126ed565b610d91565b005b610369610f23565b005b610385600480360381019061038091906126ed565b610f56565b604051610395949392919061271a565b60405180910390f35b6103b860048036038101906103b391906125c9565b610fb6565b6040516103c591906124e1565b60405180910390f35b6103e860048036038101906103e391906125c9565b610fff565b005b61040460048036038101906103ff919061275f565b6110f3565b005b61040e61119b565b60405161041b919061253d565b60405180910390f35b61042c6111c1565b60405161043991906124e1565b60405180910390f35b61045c6004803603810190610457919061279f565b6111c7565b60405161046a9291906127df565b60405180910390f35b61047b6111f8565b604051610488919061253d565b60405180910390f35b6104ab60048036038101906104a6919061265a565b61121e565b005b6104b561148a565b005b6104d160048036038101906104cc91906125c9565b61162d565b6040516104de91906124e1565b60405180910390f35b61050160048036038101906104fc91906125c9565b611645565b60405161050e91906124e1565b60405180910390f35b610531600480360381019061052c91906125c9565b61190c565b005b61054d600480360381019061054891906126ad565b611ac8565b005b610569600480360381019061056491906125c9565b611cb4565b005b610585600480360381019061058091906125c9565b611cd0565b60405161059291906124e1565b60405180910390f35b6105b560048036038101906105b09190612589565b611d3a565b6040516105c291906124e1565b60405180910390f35b6000600480549050905090565b60008054906101000a900473ffffffffffffffffffffffffffffffffffffffff1681565b60085481565b60008061060e8461092b565b90506006600082815260200190815260200160002060008473ffffffffffffffffffffffffffffffffffffffff1673ffffffffffffffffffffffffffffffffffffffff1681526020019081526020016000206000015491505092915050565b60006106788261092b565b905060006006600083815260200190815260200160002060003373ffffffffffffffffffffffffffffffffffffffff1673ffffffffffffffffffffffffffffffffffffffff16815260200190815260200160002060000154148061070157506000600482815481106106ed576106ec612808565b5b906000526020600020906004020160010154145b1561070c57506107e4565b60006004828154811061072257610721612808565b5b9060005260206000209060040201905060006006600084815260200190815260200160002060003373ffffffffffffffffffffffffffffffffffffffff1673ffffffffffffffffffffffffffffffffffffffff168152602001908152602001600020905061078f83610d91565b60006107b982600101546107ab84600001548660030154611f3f565b611f6f90919063ffffffff16565b90506107cd82600001548460030154611f3f565b82600101819055506107df3382611fc8565b505050505b50565b60008054906101000a900473ffffffffffffffffffffffffffffffffffffffff1673ffffffffffffffffffffffffffffffffffffffff163373ffffffffffffffffffffffffffffffffffffffff1614610875576040517f08c379a000000000000000000000000000000000000000000000000000000000815260040161086c90612894565b60405180910390fd5b801561088457610883610f23565b5b600061088f8461092b565b90506108dd836108cf600484815481106108ac576108ab612808565b5b906000526020600020906004020160010154600854611f6f90919063ffffffff16565b61213e90919063ffffffff16565b60088190555082600482815481106108f8576108f7612808565b5b90600052602060002090600402016001018190555050505050565b60056020528060005260406000206000915090505481565b6000816000600560008373ffffffffffffffffffffffffffffffffffffffff1673ffffffffffffffffffffffffffffffffffffffff16815260200190815260200160002054116109b0576040517f08c379a00000000000000000000000000000000000000000000000000000000081526004016109a790612900565b60405180910390fd5b6001600560008573ffffffffffffffffffffffffffffffffffffffff1673ffffffffffffffffffffffffffffffffffffffff168152602001908152602001600020546109fc919061294f565b915050919050565b6000610a0f8361092b565b9050600060048281548110610a2757610a26612808565b5b9060005260206000209060040201905060006006600084815260200190815260200160002060003373ffffffffffffffffffffffffffffffffffffffff1673ffffffffffffffffffffffffffffffffffffffff1681526020019081526020016000209050610a9483610d91565b600081600001541115610ad9576000610acb8260010154610abd84600001548660030154611f3f565b611f6f90919063ffffffff16565b9050610ad73382611fc8565b505b610b2a3330868560000160009054906101000a900473ffffffffffffffffffffffffffffffffffffffff1673ffffffffffffffffffffffffffffffffffffffff1661219c909392919063ffffffff16565b610b4184826000015461213e90919063ffffffff16565b8160000181905550610b5b81600001548360030154611f3f565b8160010181905550823373ffffffffffffffffffffffffffffffffffffffff167f90890809c654f11d6e72a28fa60149770a0d11ec6c92319d6ceb2bb0a4ea1a1586604051610baa91906124e1565b60405180910390a35050505050565b60095481565b600160009054906101000a900473ffffffffffffffffffffffffffffffffffffffff1673ffffffffffffffffffffffffffffffffffffffff163373ffffffffffffffffffffffffffffffffffffffff1614610c4f576040517f08c379a0000000000000000000000000000000000000000000000000000000008152600401610c46906129cf565b60405180910390fd5b600160009054906101000a900473ffffffffffffffffffffffffffffffffffffffff1673ffffffffffffffffffffffffffffffffffffffff1660008054906101000a900473ffffffffffffffffffffffffffffffffffffffff1673ffffffffffffffffffffffffffffffffffffffff167f8be0079c531659141344cd1fd0a4f28419497f9722a3daafe3b4186f6b6457e060405160405180910390a3600160009054906101000a900473ffffffffffffffffffffffffffffffffffffffff166000806101000a81548173ffffffffffffffffffffffffffffffffffffffff021916908373ffffffffffffffffffffffffffffffffffffffff1602179055506000600160006101000a81548173ffffffffffffffffffffffffffffffffffffffff021916908373ffffffffffffffffffffffffffffffffffffffff160217905550565b600060048281548110610da757610da6612808565b5b9060005260206000209060040201905080600201544311610dc85750610f20565b60008160000160009054906101000a900473ffffffffffffffffffffffffffffffffffffffff1673ffffffffffffffffffffffffffffffffffffffff166370a08231306040518263ffffffff1660e01b8152600401610e27919061253d565b60206040518083038186803b158015610e3f57600080fd5b505afa158015610e53573d6000803e3d6000fd5b505050506040513d601f19601f82011682018060405250810190610e779190612a04565b90506000811415610e92574382600201819055505050610f20565b6000610ee9600854610edb8560010154610ecd600354610ebf896002015443611f6f90919063ffffffff16565b61222590919063ffffffff16565b61222590919063ffffffff16565b6122a090919063ffffffff16565b9050610f0b610ef882846122f8565b846003015461213e90919063ffffffff16565b83600301819055504383600201819055505050505b50565b6000600480549050905060005b81811015610f5257610f4181610d91565b80610f4b90612a31565b9050610f30565b5050565b60048181548110610f6657600080fd5b90600052602060002090600402016000915090508060000160009054906101000a900473ffffffffffffffffffffffffffffffffffffffff16908060010154908060020154908060030154905084565b6000600760008373ffffffffffffffffffffffffffffffffffffffff1673ffffffffffffffffffffffffffffffffffffffff168152602001908152602001600020549050919050565b600061100a8261092b565b905060006004828154811061102257611021612808565b5b9060005260206000209060040201905060006006600084815260200190815260200160002060003373ffffffffffffffffffffffffffffffffffffffff1673ffffffffffffffffffffffffffffffffffffffff16815260200190815260200160002090506110d93382600001548460000160009054906101000a900473ffffffffffffffffffffffffffffffffffffffff1673ffffffffffffffffffffffffffffffffffffffff1661232f9092919063ffffffff16565b600081600001819055506000816001018190555050505050565b60008054906101000a900473ffffffffffffffffffffffffffffffffffffffff1673ffffffffffffffffffffffffffffffffffffffff163373ffffffffffffffffffffffffffffffffffffffff1614611181576040517f08c379a000000000000000000000000000000000000000000000000000000000815260040161117890612894565b60405180910390fd5b80156111905761118f610f23565b5b816003819055505050565b600160009054906101000a900473ffffffffffffffffffffffffffffffffffffffff1681565b60035481565b6006602052816000526040600020602052806000526040600020600091509150508060000154908060010154905082565b600260009054906101000a900473ffffffffffffffffffffffffffffffffffffffff1681565b826000600560008373ffffffffffffffffffffffffffffffffffffffff1673ffffffffffffffffffffffffffffffffffffffff16815260200190815260200160002054146112a1576040517f08c379a000000000000000000000000000000000000000000000000000000000815260040161129890612ac6565b60405180910390fd5b60008054906101000a900473ffffffffffffffffffffffffffffffffffffffff1673ffffffffffffffffffffffffffffffffffffffff163373ffffffffffffffffffffffffffffffffffffffff161461132f576040517f08c379a000000000000000000000000000000000000000000000000000000000815260040161132690612894565b60405180910390fd5b811561133e5761133d610f23565b5b6000600954431161135157600954611353565b435b905061136a8460085461213e90919063ffffffff16565b600881905550600460405180608001604052808773ffffffffffffffffffffffffffffffffffffffff1681526020018681526020018381526020016000815250908060018154018082558091505060019003906000526020600020906004020160009091909190915060008201518160000160006101000a81548173ffffffffffffffffffffffffffffffffffffffff021916908373ffffffffffffffffffffffffffffffffffffffff1602179055506020820151816001015560408201518160020155606082015181600301555050600480549050600560008773ffffffffffffffffffffffffffffffffffffffff1673ffffffffffffffffffffffffffffffffffffffff168152602001908152602001600020819055505050505050565b600060048054905090506000805b8281101561161e5760006006600083815260200190815260200160002060003373ffffffffffffffffffffffffffffffffffffffff1673ffffffffffffffffffffffffffffffffffffffff168152602001908152602001600020600001541480611527575060006004828154811061151357611512612808565b5b906000526020600020906004020160010154145b156115315761160d565b60006004828154811061154757611546612808565b5b9060005260206000209060040201905060006006600084815260200190815260200160002060003373ffffffffffffffffffffffffffffffffffffffff1673ffffffffffffffffffffffffffffffffffffffff16815260200190815260200160002090506115b483610d91565b6115ee6115df82600101546115d184600001548660030154611f3f565b611f6f90919063ffffffff16565b8561213e90919063ffffffff16565b935061160281600001548360030154611f3f565b816001018190555050505b8061161790612a31565b9050611498565b506116293382611fc8565b5050565b60076020528060005260406000206000915090505481565b60008060048054905090506000805b828110156119015760006006600083815260200190815260200160002060008773ffffffffffffffffffffffffffffffffffffffff1673ffffffffffffffffffffffffffffffffffffffff1681526020019081526020016000206000015414806116e357506000600482815481106116cf576116ce612808565b5b906000526020600020906004020160010154145b156116ed576118f0565b60006004828154811061170357611702612808565b5b9060005260206000209060040201905060006006600084815260200190815260200160002060008873ffffffffffffffffffffffffffffffffffffffff1673ffffffffffffffffffffffffffffffffffffffff168152602001908152602001600020905060008260030154905060008360000160009054906101000a900473ffffffffffffffffffffffffffffffffffffffff1673ffffffffffffffffffffffffffffffffffffffff166370a08231306040518263ffffffff1660e01b81526004016117cf919061253d565b60206040518083038186803b1580156117e757600080fd5b505afa1580156117fb573d6000803e3d6000fd5b505050506040513d601f19601f8201168201806040525081019061181f9190612a04565b9050836002015443118015611835575060008114155b156118b357600061189160085461188387600101546118756003546118678b6002015443611f6f90919063ffffffff16565b61222590919063ffffffff16565b61222590919063ffffffff16565b6122a090919063ffffffff16565b90506118af6118a082846122f8565b8461213e90919063ffffffff16565b9250505b6118e96118da84600101546118cc866000015486611f3f565b611f6f90919063ffffffff16565b8761213e90919063ffffffff16565b9550505050505b806118fa90612a31565b9050611654565b508092505050919050565b60008054906101000a900473ffffffffffffffffffffffffffffffffffffffff1673ffffffffffffffffffffffffffffffffffffffff163373ffffffffffffffffffffffffffffffffffffffff161461199a576040517f08c379a000000000000000000000000000000000000000000000000000000000815260040161199190612894565b60405180910390fd5b600073ffffffffffffffffffffffffffffffffffffffff168173ffffffffffffffffffffffffffffffffffffffff161415611a0a576040517f08c379a0000000000000000000000000000000000000000000000000000000008152600401611a0190612b32565b60405180910390fd5b8073ffffffffffffffffffffffffffffffffffffffff1660008054906101000a900473ffffffffffffffffffffffffffffffffffffffff1673ffffffffffffffffffffffffffffffffffffffff167fdcf55418cee3220104fef63f979ff3c4097ad240c0c43dcb33ce837748983e6260405160405180910390a380600160006101000a81548173ffffffffffffffffffffffffffffffffffffffff021916908373ffffffffffffffffffffffffffffffffffffffff16021790555050565b6000611ad38361092b565b9050600060048281548110611aeb57611aea612808565b5b9060005260206000209060040201905060006006600084815260200190815260200160002060003373ffffffffffffffffffffffffffffffffffffffff1673ffffffffffffffffffffffffffffffffffffffff16815260200190815260200160002090508381600001541015611b96576040517f08c379a0000000000000000000000000000000000000000000000000000000008152600401611b8d90612b9e565b60405180910390fd5b611b9f83610d91565b6000611bc98260010154611bbb84600001548660030154611f3f565b611f6f90919063ffffffff16565b9050611bd53382611fc8565b611bec858360000154611f6f90919063ffffffff16565b8260000181905550611c0682600001548460030154611f3f565b8260010181905550611c5d33868560000160009054906101000a900473ffffffffffffffffffffffffffffffffffffffff1673ffffffffffffffffffffffffffffffffffffffff1661232f9092919063ffffffff16565b833373ffffffffffffffffffffffffffffffffffffffff167ff279e6a1f5e320cca91135676d9cb6e44ca8a08c0b88342bcdb1144f6511b56887604051611ca491906124e1565b60405180910390a3505050505050565b6000611cc08233610602565b9050611ccc8282611ac8565b5050565b600080611cdc8361092b565b9050600060048281548110611cf457611cf3612808565b5b90600052602060002090600402019050611d31600854611d23836001015460035461222590919063ffffffff16565b6122a090919063ffffffff16565b92505050919050565b600080611d468461092b565b9050600060048281548110611d5e57611d5d612808565b5b9060005260206000209060040201905060006006600084815260200190815260200160002060008673ffffffffffffffffffffffffffffffffffffffff1673ffffffffffffffffffffffffffffffffffffffff168152602001908152602001600020905060008260030154905060008360000160009054906101000a900473ffffffffffffffffffffffffffffffffffffffff1673ffffffffffffffffffffffffffffffffffffffff166370a08231306040518263ffffffff1660e01b8152600401611e2a919061253d565b60206040518083038186803b158015611e4257600080fd5b505afa158015611e56573d6000803e3d6000fd5b505050506040513d601f19601f82011682018060405250810190611e7a9190612a04565b9050836002015443118015611e90575060008114155b15611f0e576000611eec600854611ede8760010154611ed0600354611ec28b6002015443611f6f90919063ffffffff16565b61222590919063ffffffff16565b61222590919063ffffffff16565b6122a090919063ffffffff16565b9050611f0a611efb82846122f8565b8461213e90919063ffffffff16565b9250505b611f328360010154611f24856000015485611f3f565b611f6f90919063ffffffff16565b9550505050505092915050565b6000670de0b6b3a7640000611f5d838561222590919063ffffffff16565b611f679190612bed565b905092915050565b600082821115611fb4576040517f08c379a0000000000000000000000000000000000000000000000000000000008152600401611fab90612c6a565b60405180910390fd5b8183611fc0919061294f565b905092915050565b600260009054906101000a900473ffffffffffffffffffffffffffffffffffffffff1673ffffffffffffffffffffffffffffffffffffffff166321670f2283836040518363ffffffff1660e01b8152600401612025929190612c8a565b600060405180830381600087803b15801561203f57600080fd5b505af1158015612053573d6000803e3d6000fd5b505050506120a981600760008573ffffffffffffffffffffffffffffffffffffffff1673ffffffffffffffffffffffffffffffffffffffff1681526020019081526020016000205461213e90919063ffffffff16565b600760008473ffffffffffffffffffffffffffffffffffffffff1673ffffffffffffffffffffffffffffffffffffffff168152602001908152602001600020819055508173ffffffffffffffffffffffffffffffffffffffff167f47cee97cb7acd717b3c0aa1435d004cd5b3c8c57d70dbceb4e4458bbd60e39d48260405161213291906124e1565b60405180910390a25050565b600080828461214d9190612cb3565b905083811015612192576040517f08c379a000000000000000000000000000000000000000000000000000000000815260040161218990612d55565b60405180910390fd5b8091505092915050565b61221f846323b872dd60e01b8585856040516024016121bd93929190612d75565b604051602081830303815290604052907bffffffffffffffffffffffffffffffffffffffffffffffffffffffff19166020820180517bffffffffffffffffffffffffffffffffffffffffffffffffffffffff83818316178352505050506123b5565b50505050565b600080831415612238576000905061229a565b600082846122469190612dac565b90508284826122559190612bed565b14612295576040517f08c379a000000000000000000000000000000000000000000000000000000000815260040161228c90612e52565b60405180910390fd5b809150505b92915050565b60008082116122e4576040517f08c379a00000000000000000000000000000000000000000000000000000000081526004016122db90612ebe565b60405180910390fd5b81836122f09190612bed565b905092915050565b600061232782612319670de0b6b3a76400008661222590919063ffffffff16565b6122a090919063ffffffff16565b905092915050565b6123b08363a9059cbb60e01b848460405160240161234e929190612c8a565b604051602081830303815290604052907bffffffffffffffffffffffffffffffffffffffffffffffffffffffff19166020820180517bffffffffffffffffffffffffffffffffffffffffffffffffffffffff83818316178352505050506123b5565b505050565b6000808373ffffffffffffffffffffffffffffffffffffffff16836040516123dd9190612f58565b6000604051808303816000865af19150503d806000811461241a576040519150601f19603f3d011682016040523d82523d6000602084013e61241f565b606091505b509150915081612464576040517f08c379a000000000000000000000000000000000000000000000000000000000815260040161245b90612fbb565b60405180910390fd5b6000815111156124c257808060200190518101906124829190612ff0565b6124c1576040517f08c379a00000000000000000000000000000000000000000000000000000000081526004016124b89061308f565b60405180910390fd5b5b50505050565b6000819050919050565b6124db816124c8565b82525050565b60006020820190506124f660008301846124d2565b92915050565b600073ffffffffffffffffffffffffffffffffffffffff82169050919050565b6000612527826124fc565b9050919050565b6125378161251c565b82525050565b6000602082019050612552600083018461252e565b92915050565b600080fd5b6125668161251c565b811461257157600080fd5b50565b6000813590506125838161255d565b92915050565b600080604083850312156125a05761259f612558565b5b60006125ae85828601612574565b92505060206125bf85828601612574565b9150509250929050565b6000602082840312156125df576125de612558565b5b60006125ed84828501612574565b91505092915050565b6125ff816124c8565b811461260a57600080fd5b50565b60008135905061261c816125f6565b92915050565b60008115159050919050565b61263781612622565b811461264257600080fd5b50565b6000813590506126548161262e565b92915050565b60008060006060848603121561267357612672612558565b5b600061268186828701612574565b93505060206126928682870161260d565b92505060406126a386828701612645565b9150509250925092565b600080604083850312156126c4576126c3612558565b5b60006126d285828601612574565b92505060206126e38582860161260d565b9150509250929050565b60006020828403121561270357612702612558565b5b60006127118482850161260d565b91505092915050565b600060808201905061272f600083018761252e565b61273c60208301866124d2565b61274960408301856124d2565b61275660608301846124d2565b95945050505050565b6000806040838503121561277657612775612558565b5b60006127848582860161260d565b925050602061279585828601612645565b9150509250929050565b600080604083850312156127b6576127b5612558565b5b60006127c48582860161260d565b92505060206127d585828601612574565b9150509250929050565b60006040820190506127f460008301856124d2565b61280160208301846124d2565b9392505050565b7f4e487b7100000000000000000000000000000000000000000000000000000000600052603260045260246000fd5b600082825260208201905092915050565b7f4e4f545f4f574e45520000000000000000000000000000000000000000000000600082015250565b600061287e600983612837565b915061288982612848565b602082019050919050565b600060208201905081810360008301526128ad81612871565b9050919050565b7f4c5020546f6b656e204e6f742045786973740000000000000000000000000000600082015250565b60006128ea601283612837565b91506128f5826128b4565b602082019050919050565b60006020820190508181036000830152612919816128dd565b9050919050565b7f4e487b7100000000000000000000000000000000000000000000000000000000600052601160045260246000fd5b600061295a826124c8565b9150612965836124c8565b92508282101561297857612977612920565b5b828203905092915050565b7f494e56414c49445f434c41494d00000000000000000000000000000000000000600082015250565b60006129b9600d83612837565b91506129c482612983565b602082019050919050565b600060208201905081810360008301526129e8816129ac565b9050919050565b6000815190506129fe816125f6565b92915050565b600060208284031215612a1a57612a19612558565b5b6000612a28848285016129ef565b91505092915050565b6000612a3c826124c8565b91507fffffffffffffffffffffffffffffffffffffffffffffffffffffffffffffffff821415612a6f57612a6e612920565b5b600182019050919050565b7f4c5020546f6b656e20416c726561647920457869737400000000000000000000600082015250565b6000612ab0601683612837565b9150612abb82612a7a565b602082019050919050565b60006020820190508181036000830152612adf81612aa3565b9050919050565b7f494e56414c49445f4f574e455200000000000000000000000000000000000000600082015250565b6000612b1c600d83612837565b9150612b2782612ae6565b602082019050919050565b60006020820190508181036000830152612b4b81612b0f565b9050919050565b7f776974686472617720746f6f206d756368000000000000000000000000000000600082015250565b6000612b88601183612837565b9150612b9382612b52565b602082019050919050565b60006020820190508181036000830152612bb781612b7b565b9050919050565b7f4e487b7100000000000000000000000000000000000000000000000000000000600052601260045260246000fd5b6000612bf8826124c8565b9150612c03836124c8565b925082612c1357612c12612bbe565b5b828204905092915050565b7f5355425f4552524f520000000000000000000000000000000000000000000000600082015250565b6000612c54600983612837565b9150612c5f82612c1e565b602082019050919050565b60006020820190508181036000830152612c8381612c47565b9050919050565b6000604082019050612c9f600083018561252e565b612cac60208301846124d2565b9392505050565b6000612cbe826124c8565b9150612cc9836124c8565b9250827fffffffffffffffffffffffffffffffffffffffffffffffffffffffffffffffff03821115612cfe57612cfd612920565b5b828201905092915050565b7f4144445f4552524f520000000000000000000000000000000000000000000000600082015250565b6000612d3f600983612837565b9150612d4a82612d09565b602082019050919050565b60006020820190508181036000830152612d6e81612d32565b9050919050565b6000606082019050612d8a600083018661252e565b612d97602083018561252e565b612da460408301846124d2565b949350505050565b6000612db7826124c8565b9150612dc2836124c8565b9250817fffffffffffffffffffffffffffffffffffffffffffffffffffffffffffffffff0483118215151615612dfb57612dfa612920565b5b828202905092915050565b7f4d554c5f4552524f520000000000000000000000000000000000000000000000600082015250565b6000612e3c600983612837565b9150612e4782612e06565b602082019050919050565b60006020820190508181036000830152612e6b81612e2f565b9050919050565b7f4449564944494e475f4552524f52000000000000000000000000000000000000600082015250565b6000612ea8600e83612837565b9150612eb382612e72565b602082019050919050565b60006020820190508181036000830152612ed781612e9b565b9050919050565b600081519050919050565b600081905092915050565b60005b83811015612f12578082015181840152602081019050612ef7565b83811115612f21576000848401525b50505050565b6000612f3282612ede565b612f3c8185612ee9565b9350612f4c818560208601612ef4565b80840191505092915050565b6000612f648284612f27565b915081905092915050565b7f5361666545524332303a206c6f772d6c6576656c2063616c6c206661696c6564600082015250565b6000612fa5602083612837565b9150612fb082612f6f565b602082019050919050565b60006020820190508181036000830152612fd481612f98565b9050919050565b600081519050612fea8161262e565b92915050565b60006020828403121561300657613005612558565b5b600061301484828501612fdb565b91505092915050565b7f5361666545524332303a204552433230206f7065726174696f6e20646964206e60008201527f6f74207375636365656400000000000000000000000000000000000000000000602082015250565b6000613079602a83612837565b91506130848261301d565b604082019050919050565b600060208201905081810360008301526130a88161306c565b905091905056fea26469706673582212202f64a7339c27b5e99bd2254cc29d3e14fa706c52d107fb1cdfb95b9518a73ead64736f6c63430008090033608060405234801561001057600080fd5b50604051610e33380380610e3383398181016040528101906100329190610197565b336000806101000a81548173ffffffffffffffffffffffffffffffffffffffff021916908373ffffffffffffffffffffffffffffffffffffffff16021790555060008054906101000a900473ffffffffffffffffffffffffffffffffffffffff1673ffffffffffffffffffffffffffffffffffffffff16600073ffffffffffffffffffffffffffffffffffffffff167f8be0079c531659141344cd1fd0a4f28419497f9722a3daafe3b4186f6b6457e060405160405180910390a380600260006101000a81548173ffffffffffffffffffffffffffffffffffffffff021916908373ffffffffffffffffffffffffffffffffffffffff160217905550506101c4565b600080fd5b600073ffffffffffffffffffffffffffffffffffffffff82169050919050565b600061016482610139565b9050919050565b61017481610159565b811461017f57600080fd5b50565b6000815190506101918161016b565b92915050565b6000602082840312156101ad576101ac610134565b5b60006101bb84828501610182565b91505092915050565b610c60806101d36000396000f3fe608060405234801561001057600080fd5b50600436106100625760003560e01c806316048bc41461006757806321670f22146100855780634e71e0c8146100a157806375123ff9146100ab5780638456db15146100c9578063f2fde38b146100e7575b600080fd5b61006f610103565b60405161007c91906107ba565b60405180910390f35b61009f600480360381019061009a919061083c565b610127565b005b6100a9610206565b005b6100b36103d8565b6040516100c091906107ba565b60405180910390f35b6100d16103fe565b6040516100de91906107ba565b60405180910390f35b61010160048036038101906100fc919061087c565b610424565b005b60008054906101000a900473ffffffffffffffffffffffffffffffffffffffff1681565b60008054906101000a900473ffffffffffffffffffffffffffffffffffffffff1673ffffffffffffffffffffffffffffffffffffffff163373ffffffffffffffffffffffffffffffffffffffff16146101b5576040517f08c379a00000000000000000000000000000000000000000000000000000000081526004016101ac90610906565b60405180910390fd5b6102028282600260009054906101000a900473ffffffffffffffffffffffffffffffffffffffff1673ffffffffffffffffffffffffffffffffffffffff166105e09092919063ffffffff16565b5050565b600160009054906101000a900473ffffffffffffffffffffffffffffffffffffffff1673ffffffffffffffffffffffffffffffffffffffff163373ffffffffffffffffffffffffffffffffffffffff1614610296576040517f08c379a000000000000000000000000000000000000000000000000000000000815260040161028d90610972565b60405180910390fd5b600160009054906101000a900473ffffffffffffffffffffffffffffffffffffffff1673ffffffffffffffffffffffffffffffffffffffff1660008054906101000a900473ffffffffffffffffffffffffffffffffffffffff1673ffffffffffffffffffffffffffffffffffffffff167f8be0079c531659141344cd1fd0a4f28419497f9722a3daafe3b4186f6b6457e060405160405180910390a3600160009054906101000a900473ffffffffffffffffffffffffffffffffffffffff166000806101000a81548173ffffffffffffffffffffffffffffffffffffffff021916908373ffffffffffffffffffffffffffffffffffffffff1602179055506000600160006101000a81548173ffffffffffffffffffffffffffffffffffffffff021916908373ffffffffffffffffffffffffffffffffffffffff160217905550565b600260009054906101000a900473ffffffffffffffffffffffffffffffffffffffff1681565b600160009054906101000a900473ffffffffffffffffffffffffffffffffffffffff1681565b60008054906101000a900473ffffffffffffffffffffffffffffffffffffffff1673ffffffffffffffffffffffffffffffffffffffff163373ffffffffffffffffffffffffffffffffffffffff16146104b2576040517f08c379a00000000000000000000000000000000000000000000000000000000081526004016104a990610906565b60405180910390fd5b600073ffffffffffffffffffffffffffffffffffffffff168173ffffffffffffffffffffffffffffffffffffffff161415610522576040517f08c379a0000000000000000000000000000000000000000000000000000000008152600401610519906109de565b60405180910390fd5b8073ffffffffffffffffffffffffffffffffffffffff1660008054906101000a900473ffffffffffffffffffffffffffffffffffffffff1673ffffffffffffffffffffffffffffffffffffffff167fdcf55418cee3220104fef63f979ff3c4097ad240c0c43dcb33ce837748983e6260405160405180910390a380600160006101000a81548173ffffffffffffffffffffffffffffffffffffffff021916908373ffffffffffffffffffffffffffffffffffffffff16021790555050565b6106618363a9059cbb60e01b84846040516024016105ff929190610a0d565b604051602081830303815290604052907bffffffffffffffffffffffffffffffffffffffffffffffffffffffff19166020820180517bffffffffffffffffffffffffffffffffffffffffffffffffffffffff8381831617835250505050610666565b505050565b6000808373ffffffffffffffffffffffffffffffffffffffff168360405161068e9190610ab0565b6000604051808303816000865af19150503d80600081146106cb576040519150601f19603f3d011682016040523d82523d6000602084013e6106d0565b606091505b509150915081610715576040517f08c379a000000000000000000000000000000000000000000000000000000000815260040161070c90610b13565b60405180910390fd5b60008151111561077357808060200190518101906107339190610b6b565b610772576040517f08c379a000000000000000000000000000000000000000000000000000000000815260040161076990610c0a565b60405180910390fd5b5b50505050565b600073ffffffffffffffffffffffffffffffffffffffff82169050919050565b60006107a482610779565b9050919050565b6107b481610799565b82525050565b60006020820190506107cf60008301846107ab565b92915050565b600080fd5b6107e381610799565b81146107ee57600080fd5b50565b600081359050610800816107da565b92915050565b6000819050919050565b61081981610806565b811461082457600080fd5b50565b60008135905061083681610810565b92915050565b60008060408385031215610853576108526107d5565b5b6000610861858286016107f1565b925050602061087285828601610827565b9150509250929050565b600060208284031215610892576108916107d5565b5b60006108a0848285016107f1565b91505092915050565b600082825260208201905092915050565b7f4e4f545f4f574e45520000000000000000000000000000000000000000000000600082015250565b60006108f06009836108a9565b91506108fb826108ba565b602082019050919050565b6000602082019050818103600083015261091f816108e3565b9050919050565b7f494e56414c49445f434c41494d00000000000000000000000000000000000000600082015250565b600061095c600d836108a9565b915061096782610926565b602082019050919050565b6000602082019050818103600083015261098b8161094f565b9050919050565b7f494e56414c49445f4f574e455200000000000000000000000000000000000000600082015250565b60006109c8600d836108a9565b91506109d382610992565b602082019050919050565b600060208201905081810360008301526109f7816109bb565b9050919050565b610a0781610806565b82525050565b6000604082019050610a2260008301856107ab565b610a2f60208301846109fe565b9392505050565b600081519050919050565b600081905092915050565b60005b83811015610a6a578082015181840152602081019050610a4f565b83811115610a79576000848401525b50505050565b6000610a8a82610a36565b610a948185610a41565b9350610aa4818560208601610a4c565b80840191505092915050565b6000610abc8284610a7f565b915081905092915050565b7f5361666545524332303a206c6f772d6c6576656c2063616c6c206661696c6564600082015250565b6000610afd6020836108a9565b9150610b0882610ac7565b602082019050919050565b60006020820190508181036000830152610b2c81610af0565b9050919050565b60008115159050919050565b610b4881610b33565b8114610b5357600080fd5b50565b600081519050610b6581610b3f565b92915050565b600060208284031215610b8157610b806107d5565b5b6000610b8f84828501610b56565b91505092915050565b7f5361666545524332303a204552433230206f7065726174696f6e20646964206e60008201527f6f74207375636365656400000000000000000000000000000000000000000000602082015250565b6000610bf4602a836108a9565b9150610bff82610b98565b604082019050919050565b60006020820190508181036000830152610c2381610be7565b905091905056fea264697066735822122063f1d6870f265f656240a1299a5a794ac1d0417a521e920e1378e826a58fab7064736f6c63430008090033",
					"opcodes": "PUSH1 0x80 PUSH1 0x40 MSTORE PUSH1 0x0 PUSH1 0x8 SSTORE CALLVALUE DUP1 ISZERO PUSH3 0x16 JUMPI PUSH1 0x0 DUP1 REVERT JUMPDEST POP PUSH1 0x40 MLOAD PUSH3 0x41CF CODESIZE SUB DUP1 PUSH3 0x41CF DUP4 CODECOPY DUP2 DUP2 ADD PUSH1 0x40 MSTORE DUP2 ADD SWAP1 PUSH3 0x3C SWAP2 SWAP1 PUSH3 0x232 JUMP JUMPDEST CALLER PUSH1 0x0 DUP1 PUSH2 0x100 EXP DUP2 SLOAD DUP2 PUSH20 0xFFFFFFFFFFFFFFFFFFFFFFFFFFFFFFFFFFFFFFFF MUL NOT AND SWAP1 DUP4 PUSH20 0xFFFFFFFFFFFFFFFFFFFFFFFFFFFFFFFFFFFFFFFF AND MUL OR SWAP1 SSTORE POP PUSH1 0x0 DUP1 SLOAD SWAP1 PUSH2 0x100 EXP SWAP1 DIV PUSH20 0xFFFFFFFFFFFFFFFFFFFFFFFFFFFFFFFFFFFFFFFF AND PUSH20 0xFFFFFFFFFFFFFFFFFFFFFFFFFFFFFFFFFFFFFFFF AND PUSH1 0x0 PUSH20 0xFFFFFFFFFFFFFFFFFFFFFFFFFFFFFFFFFFFFFFFF AND PUSH32 0x8BE0079C531659141344CD1FD0A4F28419497F9722A3DAAFE3B4186F6B6457E0 PUSH1 0x40 MLOAD PUSH1 0x40 MLOAD DUP1 SWAP2 SUB SWAP1 LOG3 DUP2 PUSH1 0x40 MLOAD PUSH3 0x106 SWAP1 PUSH3 0x17F JUMP JUMPDEST PUSH3 0x112 SWAP2 SWAP1 PUSH3 0x28A JUMP JUMPDEST PUSH1 0x40 MLOAD DUP1 SWAP2 SUB SWAP1 PUSH1 0x0 CREATE DUP1 ISZERO DUP1 ISZERO PUSH3 0x12F JUMPI RETURNDATASIZE PUSH1 0x0 DUP1 RETURNDATACOPY RETURNDATASIZE PUSH1 0x0 REVERT JUMPDEST POP PUSH1 0x2 PUSH1 0x0 PUSH2 0x100 EXP DUP2 SLOAD DUP2 PUSH20 0xFFFFFFFFFFFFFFFFFFFFFFFFFFFFFFFFFFFFFFFF MUL NOT AND SWAP1 DUP4 PUSH20 0xFFFFFFFFFFFFFFFFFFFFFFFFFFFFFFFFFFFFFFFF AND MUL OR SWAP1 SSTORE POP DUP1 PUSH1 0x9 DUP2 SWAP1 SSTORE POP POP POP PUSH3 0x2A7 JUMP JUMPDEST PUSH2 0xE33 DUP1 PUSH3 0x339C DUP4 CODECOPY ADD SWAP1 JUMP JUMPDEST PUSH1 0x0 DUP1 REVERT JUMPDEST PUSH1 0x0 PUSH20 0xFFFFFFFFFFFFFFFFFFFFFFFFFFFFFFFFFFFFFFFF DUP3 AND SWAP1 POP SWAP2 SWAP1 POP JUMP JUMPDEST PUSH1 0x0 PUSH3 0x1BF DUP3 PUSH3 0x192 JUMP JUMPDEST SWAP1 POP SWAP2 SWAP1 POP JUMP JUMPDEST PUSH3 0x1D1 DUP2 PUSH3 0x1B2 JUMP JUMPDEST DUP2 EQ PUSH3 0x1DD JUMPI PUSH1 0x0 DUP1 REVERT JUMPDEST POP JUMP JUMPDEST PUSH1 0x0 DUP2 MLOAD SWAP1 POP PUSH3 0x1F1 DUP2 PUSH3 0x1C6 JUMP JUMPDEST SWAP3 SWAP2 POP POP JUMP JUMPDEST PUSH1 0x0 DUP2 SWAP1 POP SWAP2 SWAP1 POP JUMP JUMPDEST PUSH3 0x20C DUP2 PUSH3 0x1F7 JUMP JUMPDEST DUP2 EQ PUSH3 0x218 JUMPI PUSH1 0x0 DUP1 REVERT JUMPDEST POP JUMP JUMPDEST PUSH1 0x0 DUP2 MLOAD SWAP1 POP PUSH3 0x22C DUP2 PUSH3 0x201 JUMP JUMPDEST SWAP3 SWAP2 POP POP JUMP JUMPDEST PUSH1 0x0 DUP1 PUSH1 0x40 DUP4 DUP6 SUB SLT ISZERO PUSH3 0x24C JUMPI PUSH3 0x24B PUSH3 0x18D JUMP JUMPDEST JUMPDEST PUSH1 0x0 PUSH3 0x25C DUP6 DUP3 DUP7 ADD PUSH3 0x1E0 JUMP JUMPDEST SWAP3 POP POP PUSH1 0x20 PUSH3 0x26F DUP6 DUP3 DUP7 ADD PUSH3 0x21B JUMP JUMPDEST SWAP2 POP POP SWAP3 POP SWAP3 SWAP1 POP JUMP JUMPDEST PUSH3 0x284 DUP2 PUSH3 0x1B2 JUMP JUMPDEST DUP3 MSTORE POP POP JUMP JUMPDEST PUSH1 0x0 PUSH1 0x20 DUP3 ADD SWAP1 POP PUSH3 0x2A1 PUSH1 0x0 DUP4 ADD DUP5 PUSH3 0x279 JUMP JUMPDEST SWAP3 SWAP2 POP POP JUMP JUMPDEST PUSH2 0x30E5 DUP1 PUSH3 0x2B7 PUSH1 0x0 CODECOPY PUSH1 0x0 RETURN INVALID PUSH1 0x80 PUSH1 0x40 MSTORE CALLVALUE DUP1 ISZERO PUSH2 0x10 JUMPI PUSH1 0x0 DUP1 REVERT JUMPDEST POP PUSH1 0x4 CALLDATASIZE LT PUSH2 0x1DA JUMPI PUSH1 0x0 CALLDATALOAD PUSH1 0xE0 SHR DUP1 PUSH4 0x6FF1C9BC GT PUSH2 0x104 JUMPI DUP1 PUSH4 0xD1058E59 GT PUSH2 0xA2 JUMPI DUP1 PUSH4 0xF3FEF3A3 GT PUSH2 0x71 JUMPI DUP1 PUSH4 0xF3FEF3A3 EQ PUSH2 0x533 JUMPI DUP1 PUSH4 0xFA09E630 EQ PUSH2 0x54F JUMPI DUP1 PUSH4 0xFB7276F4 EQ PUSH2 0x56B JUMPI DUP1 PUSH4 0xFE0F3A13 EQ PUSH2 0x59B JUMPI PUSH2 0x1DA JUMP JUMPDEST DUP1 PUSH4 0xD1058E59 EQ PUSH2 0x4AD JUMPI DUP1 PUSH4 0xEC83A76A EQ PUSH2 0x4B7 JUMPI DUP1 PUSH4 0xF146B809 EQ PUSH2 0x4E7 JUMPI DUP1 PUSH4 0xF2FDE38B EQ PUSH2 0x517 JUMPI PUSH2 0x1DA JUMP JUMPDEST DUP1 PUSH4 0x8AF70336 GT PUSH2 0xDE JUMPI DUP1 PUSH4 0x8AF70336 EQ PUSH2 0x424 JUMPI DUP1 PUSH4 0x93F1A40B EQ PUSH2 0x442 JUMPI DUP1 PUSH4 0x9599AF13 EQ PUSH2 0x473 JUMPI DUP1 PUSH4 0xBEA006E0 EQ PUSH2 0x491 JUMPI PUSH2 0x1DA JUMP JUMPDEST DUP1 PUSH4 0x6FF1C9BC EQ PUSH2 0x3CE JUMPI DUP1 PUSH4 0x7F10179F EQ PUSH2 0x3EA JUMPI DUP1 PUSH4 0x8456DB15 EQ PUSH2 0x406 JUMPI PUSH2 0x1DA JUMP JUMPDEST DUP1 PUSH4 0x43B55F35 GT PUSH2 0x17C JUMPI DUP1 PUSH4 0x51EB05A6 GT PUSH2 0x14B JUMPI DUP1 PUSH4 0x51EB05A6 EQ PUSH2 0x345 JUMPI DUP1 PUSH4 0x630B5BA1 EQ PUSH2 0x361 JUMPI DUP1 PUSH4 0x689D84E4 EQ PUSH2 0x36B JUMPI DUP1 PUSH4 0x6DC2CC8C EQ PUSH2 0x39E JUMPI PUSH2 0x1DA JUMP JUMPDEST DUP1 PUSH4 0x43B55F35 EQ PUSH2 0x2D1 JUMPI DUP1 PUSH4 0x47E7EF24 EQ PUSH2 0x301 JUMPI DUP1 PUSH4 0x48CD4CB1 EQ PUSH2 0x31D JUMPI DUP1 PUSH4 0x4E71E0C8 EQ PUSH2 0x33B JUMPI PUSH2 0x1DA JUMP JUMPDEST DUP1 PUSH4 0x19A78F55 GT PUSH2 0x1B8 JUMPI DUP1 PUSH4 0x19A78F55 EQ PUSH2 0x239 JUMPI DUP1 PUSH4 0x1E83409A EQ PUSH2 0x269 JUMPI DUP1 PUSH4 0x34EA5389 EQ PUSH2 0x285 JUMPI DUP1 PUSH4 0x3D16433E EQ PUSH2 0x2A1 JUMPI PUSH2 0x1DA JUMP JUMPDEST DUP1 PUSH4 0x81E3EDA EQ PUSH2 0x1DF JUMPI DUP1 PUSH4 0x16048BC4 EQ PUSH2 0x1FD JUMPI DUP1 PUSH4 0x17CAF6F1 EQ PUSH2 0x21B JUMPI JUMPDEST PUSH1 0x0 DUP1 REVERT JUMPDEST PUSH2 0x1E7 PUSH2 0x5CB JUMP JUMPDEST PUSH1 0x40 MLOAD PUSH2 0x1F4 SWAP2 SWAP1 PUSH2 0x24E1 JUMP JUMPDEST PUSH1 0x40 MLOAD DUP1 SWAP2 SUB SWAP1 RETURN JUMPDEST PUSH2 0x205 PUSH2 0x5D8 JUMP JUMPDEST PUSH1 0x40 MLOAD PUSH2 0x212 SWAP2 SWAP1 PUSH2 0x253D JUMP JUMPDEST PUSH1 0x40 MLOAD DUP1 SWAP2 SUB SWAP1 RETURN JUMPDEST PUSH2 0x223 PUSH2 0x5FC JUMP JUMPDEST PUSH1 0x40 MLOAD PUSH2 0x230 SWAP2 SWAP1 PUSH2 0x24E1 JUMP JUMPDEST PUSH1 0x40 MLOAD DUP1 SWAP2 SUB SWAP1 RETURN JUMPDEST PUSH2 0x253 PUSH1 0x4 DUP1 CALLDATASIZE SUB DUP2 ADD SWAP1 PUSH2 0x24E SWAP2 SWAP1 PUSH2 0x2589 JUMP JUMPDEST PUSH2 0x602 JUMP JUMPDEST PUSH1 0x40 MLOAD PUSH2 0x260 SWAP2 SWAP1 PUSH2 0x24E1 JUMP JUMPDEST PUSH1 0x40 MLOAD DUP1 SWAP2 SUB SWAP1 RETURN JUMPDEST PUSH2 0x283 PUSH1 0x4 DUP1 CALLDATASIZE SUB DUP2 ADD SWAP1 PUSH2 0x27E SWAP2 SWAP1 PUSH2 0x25C9 JUMP JUMPDEST PUSH2 0x66D JUMP JUMPDEST STOP JUMPDEST PUSH2 0x29F PUSH1 0x4 DUP1 CALLDATASIZE SUB DUP2 ADD SWAP1 PUSH2 0x29A SWAP2 SWAP1 PUSH2 0x265A JUMP JUMPDEST PUSH2 0x7E7 JUMP JUMPDEST STOP JUMPDEST PUSH2 0x2BB PUSH1 0x4 DUP1 CALLDATASIZE SUB DUP2 ADD SWAP1 PUSH2 0x2B6 SWAP2 SWAP1 PUSH2 0x25C9 JUMP JUMPDEST PUSH2 0x913 JUMP JUMPDEST PUSH1 0x40 MLOAD PUSH2 0x2C8 SWAP2 SWAP1 PUSH2 0x24E1 JUMP JUMPDEST PUSH1 0x40 MLOAD DUP1 SWAP2 SUB SWAP1 RETURN JUMPDEST PUSH2 0x2EB PUSH1 0x4 DUP1 CALLDATASIZE SUB DUP2 ADD SWAP1 PUSH2 0x2E6 SWAP2 SWAP1 PUSH2 0x25C9 JUMP JUMPDEST PUSH2 0x92B JUMP JUMPDEST PUSH1 0x40 MLOAD PUSH2 0x2F8 SWAP2 SWAP1 PUSH2 0x24E1 JUMP JUMPDEST PUSH1 0x40 MLOAD DUP1 SWAP2 SUB SWAP1 RETURN JUMPDEST PUSH2 0x31B PUSH1 0x4 DUP1 CALLDATASIZE SUB DUP2 ADD SWAP1 PUSH2 0x316 SWAP2 SWAP1 PUSH2 0x26AD JUMP JUMPDEST PUSH2 0xA04 JUMP JUMPDEST STOP JUMPDEST PUSH2 0x325 PUSH2 0xBB9 JUMP JUMPDEST PUSH1 0x40 MLOAD PUSH2 0x332 SWAP2 SWAP1 PUSH2 0x24E1 JUMP JUMPDEST PUSH1 0x40 MLOAD DUP1 SWAP2 SUB SWAP1 RETURN JUMPDEST PUSH2 0x343 PUSH2 0xBBF JUMP JUMPDEST STOP JUMPDEST PUSH2 0x35F PUSH1 0x4 DUP1 CALLDATASIZE SUB DUP2 ADD SWAP1 PUSH2 0x35A SWAP2 SWAP1 PUSH2 0x26ED JUMP JUMPDEST PUSH2 0xD91 JUMP JUMPDEST STOP JUMPDEST PUSH2 0x369 PUSH2 0xF23 JUMP JUMPDEST STOP JUMPDEST PUSH2 0x385 PUSH1 0x4 DUP1 CALLDATASIZE SUB DUP2 ADD SWAP1 PUSH2 0x380 SWAP2 SWAP1 PUSH2 0x26ED JUMP JUMPDEST PUSH2 0xF56 JUMP JUMPDEST PUSH1 0x40 MLOAD PUSH2 0x395 SWAP5 SWAP4 SWAP3 SWAP2 SWAP1 PUSH2 0x271A JUMP JUMPDEST PUSH1 0x40 MLOAD DUP1 SWAP2 SUB SWAP1 RETURN JUMPDEST PUSH2 0x3B8 PUSH1 0x4 DUP1 CALLDATASIZE SUB DUP2 ADD SWAP1 PUSH2 0x3B3 SWAP2 SWAP1 PUSH2 0x25C9 JUMP JUMPDEST PUSH2 0xFB6 JUMP JUMPDEST PUSH1 0x40 MLOAD PUSH2 0x3C5 SWAP2 SWAP1 PUSH2 0x24E1 JUMP JUMPDEST PUSH1 0x40 MLOAD DUP1 SWAP2 SUB SWAP1 RETURN JUMPDEST PUSH2 0x3E8 PUSH1 0x4 DUP1 CALLDATASIZE SUB DUP2 ADD SWAP1 PUSH2 0x3E3 SWAP2 SWAP1 PUSH2 0x25C9 JUMP JUMPDEST PUSH2 0xFFF JUMP JUMPDEST STOP JUMPDEST PUSH2 0x404 PUSH1 0x4 DUP1 CALLDATASIZE SUB DUP2 ADD SWAP1 PUSH2 0x3FF SWAP2 SWAP1 PUSH2 0x275F JUMP JUMPDEST PUSH2 0x10F3 JUMP JUMPDEST STOP JUMPDEST PUSH2 0x40E PUSH2 0x119B JUMP JUMPDEST PUSH1 0x40 MLOAD PUSH2 0x41B SWAP2 SWAP1 PUSH2 0x253D JUMP JUMPDEST PUSH1 0x40 MLOAD DUP1 SWAP2 SUB SWAP1 RETURN JUMPDEST PUSH2 0x42C PUSH2 0x11C1 JUMP JUMPDEST PUSH1 0x40 MLOAD PUSH2 0x439 SWAP2 SWAP1 PUSH2 0x24E1 JUMP JUMPDEST PUSH1 0x40 MLOAD DUP1 SWAP2 SUB SWAP1 RETURN JUMPDEST PUSH2 0x45C PUSH1 0x4 DUP1 CALLDATASIZE SUB DUP2 ADD SWAP1 PUSH2 0x457 SWAP2 SWAP1 PUSH2 0x279F JUMP JUMPDEST PUSH2 0x11C7 JUMP JUMPDEST PUSH1 0x40 MLOAD PUSH2 0x46A SWAP3 SWAP2 SWAP1 PUSH2 0x27DF JUMP JUMPDEST PUSH1 0x40 MLOAD DUP1 SWAP2 SUB SWAP1 RETURN JUMPDEST PUSH2 0x47B PUSH2 0x11F8 JUMP JUMPDEST PUSH1 0x40 MLOAD PUSH2 0x488 SWAP2 SWAP1 PUSH2 0x253D JUMP JUMPDEST PUSH1 0x40 MLOAD DUP1 SWAP2 SUB SWAP1 RETURN JUMPDEST PUSH2 0x4AB PUSH1 0x4 DUP1 CALLDATASIZE SUB DUP2 ADD SWAP1 PUSH2 0x4A6 SWAP2 SWAP1 PUSH2 0x265A JUMP JUMPDEST PUSH2 0x121E JUMP JUMPDEST STOP JUMPDEST PUSH2 0x4B5 PUSH2 0x148A JUMP JUMPDEST STOP JUMPDEST PUSH2 0x4D1 PUSH1 0x4 DUP1 CALLDATASIZE SUB DUP2 ADD SWAP1 PUSH2 0x4CC SWAP2 SWAP1 PUSH2 0x25C9 JUMP JUMPDEST PUSH2 0x162D JUMP JUMPDEST PUSH1 0x40 MLOAD PUSH2 0x4DE SWAP2 SWAP1 PUSH2 0x24E1 JUMP JUMPDEST PUSH1 0x40 MLOAD DUP1 SWAP2 SUB SWAP1 RETURN JUMPDEST PUSH2 0x501 PUSH1 0x4 DUP1 CALLDATASIZE SUB DUP2 ADD SWAP1 PUSH2 0x4FC SWAP2 SWAP1 PUSH2 0x25C9 JUMP JUMPDEST PUSH2 0x1645 JUMP JUMPDEST PUSH1 0x40 MLOAD PUSH2 0x50E SWAP2 SWAP1 PUSH2 0x24E1 JUMP JUMPDEST PUSH1 0x40 MLOAD DUP1 SWAP2 SUB SWAP1 RETURN JUMPDEST PUSH2 0x531 PUSH1 0x4 DUP1 CALLDATASIZE SUB DUP2 ADD SWAP1 PUSH2 0x52C SWAP2 SWAP1 PUSH2 0x25C9 JUMP JUMPDEST PUSH2 0x190C JUMP JUMPDEST STOP JUMPDEST PUSH2 0x54D PUSH1 0x4 DUP1 CALLDATASIZE SUB DUP2 ADD SWAP1 PUSH2 0x548 SWAP2 SWAP1 PUSH2 0x26AD JUMP JUMPDEST PUSH2 0x1AC8 JUMP JUMPDEST STOP JUMPDEST PUSH2 0x569 PUSH1 0x4 DUP1 CALLDATASIZE SUB DUP2 ADD SWAP1 PUSH2 0x564 SWAP2 SWAP1 PUSH2 0x25C9 JUMP JUMPDEST PUSH2 0x1CB4 JUMP JUMPDEST STOP JUMPDEST PUSH2 0x585 PUSH1 0x4 DUP1 CALLDATASIZE SUB DUP2 ADD SWAP1 PUSH2 0x580 SWAP2 SWAP1 PUSH2 0x25C9 JUMP JUMPDEST PUSH2 0x1CD0 JUMP JUMPDEST PUSH1 0x40 MLOAD PUSH2 0x592 SWAP2 SWAP1 PUSH2 0x24E1 JUMP JUMPDEST PUSH1 0x40 MLOAD DUP1 SWAP2 SUB SWAP1 RETURN JUMPDEST PUSH2 0x5B5 PUSH1 0x4 DUP1 CALLDATASIZE SUB DUP2 ADD SWAP1 PUSH2 0x5B0 SWAP2 SWAP1 PUSH2 0x2589 JUMP JUMPDEST PUSH2 0x1D3A JUMP JUMPDEST PUSH1 0x40 MLOAD PUSH2 0x5C2 SWAP2 SWAP1 PUSH2 0x24E1 JUMP JUMPDEST PUSH1 0x40 MLOAD DUP1 SWAP2 SUB SWAP1 RETURN JUMPDEST PUSH1 0x0 PUSH1 0x4 DUP1 SLOAD SWAP1 POP SWAP1 POP SWAP1 JUMP JUMPDEST PUSH1 0x0 DUP1 SLOAD SWAP1 PUSH2 0x100 EXP SWAP1 DIV PUSH20 0xFFFFFFFFFFFFFFFFFFFFFFFFFFFFFFFFFFFFFFFF AND DUP2 JUMP JUMPDEST PUSH1 0x8 SLOAD DUP2 JUMP JUMPDEST PUSH1 0x0 DUP1 PUSH2 0x60E DUP5 PUSH2 0x92B JUMP JUMPDEST SWAP1 POP PUSH1 0x6 PUSH1 0x0 DUP3 DUP2 MSTORE PUSH1 0x20 ADD SWAP1 DUP2 MSTORE PUSH1 0x20 ADD PUSH1 0x0 KECCAK256 PUSH1 0x0 DUP5 PUSH20 0xFFFFFFFFFFFFFFFFFFFFFFFFFFFFFFFFFFFFFFFF AND PUSH20 0xFFFFFFFFFFFFFFFFFFFFFFFFFFFFFFFFFFFFFFFF AND DUP2 MSTORE PUSH1 0x20 ADD SWAP1 DUP2 MSTORE PUSH1 0x20 ADD PUSH1 0x0 KECCAK256 PUSH1 0x0 ADD SLOAD SWAP2 POP POP SWAP3 SWAP2 POP POP JUMP JUMPDEST PUSH1 0x0 PUSH2 0x678 DUP3 PUSH2 0x92B JUMP JUMPDEST SWAP1 POP PUSH1 0x0 PUSH1 0x6 PUSH1 0x0 DUP4 DUP2 MSTORE PUSH1 0x20 ADD SWAP1 DUP2 MSTORE PUSH1 0x20 ADD PUSH1 0x0 KECCAK256 PUSH1 0x0 CALLER PUSH20 0xFFFFFFFFFFFFFFFFFFFFFFFFFFFFFFFFFFFFFFFF AND PUSH20 0xFFFFFFFFFFFFFFFFFFFFFFFFFFFFFFFFFFFFFFFF AND DUP2 MSTORE PUSH1 0x20 ADD SWAP1 DUP2 MSTORE PUSH1 0x20 ADD PUSH1 0x0 KECCAK256 PUSH1 0x0 ADD SLOAD EQ DUP1 PUSH2 0x701 JUMPI POP PUSH1 0x0 PUSH1 0x4 DUP3 DUP2 SLOAD DUP2 LT PUSH2 0x6ED JUMPI PUSH2 0x6EC PUSH2 0x2808 JUMP JUMPDEST JUMPDEST SWAP1 PUSH1 0x0 MSTORE PUSH1 0x20 PUSH1 0x0 KECCAK256 SWAP1 PUSH1 0x4 MUL ADD PUSH1 0x1 ADD SLOAD EQ JUMPDEST ISZERO PUSH2 0x70C JUMPI POP PUSH2 0x7E4 JUMP JUMPDEST PUSH1 0x0 PUSH1 0x4 DUP3 DUP2 SLOAD DUP2 LT PUSH2 0x722 JUMPI PUSH2 0x721 PUSH2 0x2808 JUMP JUMPDEST JUMPDEST SWAP1 PUSH1 0x0 MSTORE PUSH1 0x20 PUSH1 0x0 KECCAK256 SWAP1 PUSH1 0x4 MUL ADD SWAP1 POP PUSH1 0x0 PUSH1 0x6 PUSH1 0x0 DUP5 DUP2 MSTORE PUSH1 0x20 ADD SWAP1 DUP2 MSTORE PUSH1 0x20 ADD PUSH1 0x0 KECCAK256 PUSH1 0x0 CALLER PUSH20 0xFFFFFFFFFFFFFFFFFFFFFFFFFFFFFFFFFFFFFFFF AND PUSH20 0xFFFFFFFFFFFFFFFFFFFFFFFFFFFFFFFFFFFFFFFF AND DUP2 MSTORE PUSH1 0x20 ADD SWAP1 DUP2 MSTORE PUSH1 0x20 ADD PUSH1 0x0 KECCAK256 SWAP1 POP PUSH2 0x78F DUP4 PUSH2 0xD91 JUMP JUMPDEST PUSH1 0x0 PUSH2 0x7B9 DUP3 PUSH1 0x1 ADD SLOAD PUSH2 0x7AB DUP5 PUSH1 0x0 ADD SLOAD DUP7 PUSH1 0x3 ADD SLOAD PUSH2 0x1F3F JUMP JUMPDEST PUSH2 0x1F6F SWAP1 SWAP2 SWAP1 PUSH4 0xFFFFFFFF AND JUMP JUMPDEST SWAP1 POP PUSH2 0x7CD DUP3 PUSH1 0x0 ADD SLOAD DUP5 PUSH1 0x3 ADD SLOAD PUSH2 0x1F3F JUMP JUMPDEST DUP3 PUSH1 0x1 ADD DUP2 SWAP1 SSTORE POP PUSH2 0x7DF CALLER DUP3 PUSH2 0x1FC8 JUMP JUMPDEST POP POP POP POP JUMPDEST POP JUMP JUMPDEST PUSH1 0x0 DUP1 SLOAD SWAP1 PUSH2 0x100 EXP SWAP1 DIV PUSH20 0xFFFFFFFFFFFFFFFFFFFFFFFFFFFFFFFFFFFFFFFF AND PUSH20 0xFFFFFFFFFFFFFFFFFFFFFFFFFFFFFFFFFFFFFFFF AND CALLER PUSH20 0xFFFFFFFFFFFFFFFFFFFFFFFFFFFFFFFFFFFFFFFF AND EQ PUSH2 0x875 JUMPI PUSH1 0x40 MLOAD PUSH32 0x8C379A000000000000000000000000000000000000000000000000000000000 DUP2 MSTORE PUSH1 0x4 ADD PUSH2 0x86C SWAP1 PUSH2 0x2894 JUMP JUMPDEST PUSH1 0x40 MLOAD DUP1 SWAP2 SUB SWAP1 REVERT JUMPDEST DUP1 ISZERO PUSH2 0x884 JUMPI PUSH2 0x883 PUSH2 0xF23 JUMP JUMPDEST JUMPDEST PUSH1 0x0 PUSH2 0x88F DUP5 PUSH2 0x92B JUMP JUMPDEST SWAP1 POP PUSH2 0x8DD DUP4 PUSH2 0x8CF PUSH1 0x4 DUP5 DUP2 SLOAD DUP2 LT PUSH2 0x8AC JUMPI PUSH2 0x8AB PUSH2 0x2808 JUMP JUMPDEST JUMPDEST SWAP1 PUSH1 0x0 MSTORE PUSH1 0x20 PUSH1 0x0 KECCAK256 SWAP1 PUSH1 0x4 MUL ADD PUSH1 0x1 ADD SLOAD PUSH1 0x8 SLOAD PUSH2 0x1F6F SWAP1 SWAP2 SWAP1 PUSH4 0xFFFFFFFF AND JUMP JUMPDEST PUSH2 0x213E SWAP1 SWAP2 SWAP1 PUSH4 0xFFFFFFFF AND JUMP JUMPDEST PUSH1 0x8 DUP2 SWAP1 SSTORE POP DUP3 PUSH1 0x4 DUP3 DUP2 SLOAD DUP2 LT PUSH2 0x8F8 JUMPI PUSH2 0x8F7 PUSH2 0x2808 JUMP JUMPDEST JUMPDEST SWAP1 PUSH1 0x0 MSTORE PUSH1 0x20 PUSH1 0x0 KECCAK256 SWAP1 PUSH1 0x4 MUL ADD PUSH1 0x1 ADD DUP2 SWAP1 SSTORE POP POP POP POP POP JUMP JUMPDEST PUSH1 0x5 PUSH1 0x20 MSTORE DUP1 PUSH1 0x0 MSTORE PUSH1 0x40 PUSH1 0x0 KECCAK256 PUSH1 0x0 SWAP2 POP SWAP1 POP SLOAD DUP2 JUMP JUMPDEST PUSH1 0x0 DUP2 PUSH1 0x0 PUSH1 0x5 PUSH1 0x0 DUP4 PUSH20 0xFFFFFFFFFFFFFFFFFFFFFFFFFFFFFFFFFFFFFFFF AND PUSH20 0xFFFFFFFFFFFFFFFFFFFFFFFFFFFFFFFFFFFFFFFF AND DUP2 MSTORE PUSH1 0x20 ADD SWAP1 DUP2 MSTORE PUSH1 0x20 ADD PUSH1 0x0 KECCAK256 SLOAD GT PUSH2 0x9B0 JUMPI PUSH1 0x40 MLOAD PUSH32 0x8C379A000000000000000000000000000000000000000000000000000000000 DUP2 MSTORE PUSH1 0x4 ADD PUSH2 0x9A7 SWAP1 PUSH2 0x2900 JUMP JUMPDEST PUSH1 0x40 MLOAD DUP1 SWAP2 SUB SWAP1 REVERT JUMPDEST PUSH1 0x1 PUSH1 0x5 PUSH1 0x0 DUP6 PUSH20 0xFFFFFFFFFFFFFFFFFFFFFFFFFFFFFFFFFFFFFFFF AND PUSH20 0xFFFFFFFFFFFFFFFFFFFFFFFFFFFFFFFFFFFFFFFF AND DUP2 MSTORE PUSH1 0x20 ADD SWAP1 DUP2 MSTORE PUSH1 0x20 ADD PUSH1 0x0 KECCAK256 SLOAD PUSH2 0x9FC SWAP2 SWAP1 PUSH2 0x294F JUMP JUMPDEST SWAP2 POP POP SWAP2 SWAP1 POP JUMP JUMPDEST PUSH1 0x0 PUSH2 0xA0F DUP4 PUSH2 0x92B JUMP JUMPDEST SWAP1 POP PUSH1 0x0 PUSH1 0x4 DUP3 DUP2 SLOAD DUP2 LT PUSH2 0xA27 JUMPI PUSH2 0xA26 PUSH2 0x2808 JUMP JUMPDEST JUMPDEST SWAP1 PUSH1 0x0 MSTORE PUSH1 0x20 PUSH1 0x0 KECCAK256 SWAP1 PUSH1 0x4 MUL ADD SWAP1 POP PUSH1 0x0 PUSH1 0x6 PUSH1 0x0 DUP5 DUP2 MSTORE PUSH1 0x20 ADD SWAP1 DUP2 MSTORE PUSH1 0x20 ADD PUSH1 0x0 KECCAK256 PUSH1 0x0 CALLER PUSH20 0xFFFFFFFFFFFFFFFFFFFFFFFFFFFFFFFFFFFFFFFF AND PUSH20 0xFFFFFFFFFFFFFFFFFFFFFFFFFFFFFFFFFFFFFFFF AND DUP2 MSTORE PUSH1 0x20 ADD SWAP1 DUP2 MSTORE PUSH1 0x20 ADD PUSH1 0x0 KECCAK256 SWAP1 POP PUSH2 0xA94 DUP4 PUSH2 0xD91 JUMP JUMPDEST PUSH1 0x0 DUP2 PUSH1 0x0 ADD SLOAD GT ISZERO PUSH2 0xAD9 JUMPI PUSH1 0x0 PUSH2 0xACB DUP3 PUSH1 0x1 ADD SLOAD PUSH2 0xABD DUP5 PUSH1 0x0 ADD SLOAD DUP7 PUSH1 0x3 ADD SLOAD PUSH2 0x1F3F JUMP JUMPDEST PUSH2 0x1F6F SWAP1 SWAP2 SWAP1 PUSH4 0xFFFFFFFF AND JUMP JUMPDEST SWAP1 POP PUSH2 0xAD7 CALLER DUP3 PUSH2 0x1FC8 JUMP JUMPDEST POP JUMPDEST PUSH2 0xB2A CALLER ADDRESS DUP7 DUP6 PUSH1 0x0 ADD PUSH1 0x0 SWAP1 SLOAD SWAP1 PUSH2 0x100 EXP SWAP1 DIV PUSH20 0xFFFFFFFFFFFFFFFFFFFFFFFFFFFFFFFFFFFFFFFF AND PUSH20 0xFFFFFFFFFFFFFFFFFFFFFFFFFFFFFFFFFFFFFFFF AND PUSH2 0x219C SWAP1 SWAP4 SWAP3 SWAP2 SWAP1 PUSH4 0xFFFFFFFF AND JUMP JUMPDEST PUSH2 0xB41 DUP5 DUP3 PUSH1 0x0 ADD SLOAD PUSH2 0x213E SWAP1 SWAP2 SWAP1 PUSH4 0xFFFFFFFF AND JUMP JUMPDEST DUP2 PUSH1 0x0 ADD DUP2 SWAP1 SSTORE POP PUSH2 0xB5B DUP2 PUSH1 0x0 ADD SLOAD DUP4 PUSH1 0x3 ADD SLOAD PUSH2 0x1F3F JUMP JUMPDEST DUP2 PUSH1 0x1 ADD DUP2 SWAP1 SSTORE POP DUP3 CALLER PUSH20 0xFFFFFFFFFFFFFFFFFFFFFFFFFFFFFFFFFFFFFFFF AND PUSH32 0x90890809C654F11D6E72A28FA60149770A0D11EC6C92319D6CEB2BB0A4EA1A15 DUP7 PUSH1 0x40 MLOAD PUSH2 0xBAA SWAP2 SWAP1 PUSH2 0x24E1 JUMP JUMPDEST PUSH1 0x40 MLOAD DUP1 SWAP2 SUB SWAP1 LOG3 POP POP POP POP POP JUMP JUMPDEST PUSH1 0x9 SLOAD DUP2 JUMP JUMPDEST PUSH1 0x1 PUSH1 0x0 SWAP1 SLOAD SWAP1 PUSH2 0x100 EXP SWAP1 DIV PUSH20 0xFFFFFFFFFFFFFFFFFFFFFFFFFFFFFFFFFFFFFFFF AND PUSH20 0xFFFFFFFFFFFFFFFFFFFFFFFFFFFFFFFFFFFFFFFF AND CALLER PUSH20 0xFFFFFFFFFFFFFFFFFFFFFFFFFFFFFFFFFFFFFFFF AND EQ PUSH2 0xC4F JUMPI PUSH1 0x40 MLOAD PUSH32 0x8C379A000000000000000000000000000000000000000000000000000000000 DUP2 MSTORE PUSH1 0x4 ADD PUSH2 0xC46 SWAP1 PUSH2 0x29CF JUMP JUMPDEST PUSH1 0x40 MLOAD DUP1 SWAP2 SUB SWAP1 REVERT JUMPDEST PUSH1 0x1 PUSH1 0x0 SWAP1 SLOAD SWAP1 PUSH2 0x100 EXP SWAP1 DIV PUSH20 0xFFFFFFFFFFFFFFFFFFFFFFFFFFFFFFFFFFFFFFFF AND PUSH20 0xFFFFFFFFFFFFFFFFFFFFFFFFFFFFFFFFFFFFFFFF AND PUSH1 0x0 DUP1 SLOAD SWAP1 PUSH2 0x100 EXP SWAP1 DIV PUSH20 0xFFFFFFFFFFFFFFFFFFFFFFFFFFFFFFFFFFFFFFFF AND PUSH20 0xFFFFFFFFFFFFFFFFFFFFFFFFFFFFFFFFFFFFFFFF AND PUSH32 0x8BE0079C531659141344CD1FD0A4F28419497F9722A3DAAFE3B4186F6B6457E0 PUSH1 0x40 MLOAD PUSH1 0x40 MLOAD DUP1 SWAP2 SUB SWAP1 LOG3 PUSH1 0x1 PUSH1 0x0 SWAP1 SLOAD SWAP1 PUSH2 0x100 EXP SWAP1 DIV PUSH20 0xFFFFFFFFFFFFFFFFFFFFFFFFFFFFFFFFFFFFFFFF AND PUSH1 0x0 DUP1 PUSH2 0x100 EXP DUP2 SLOAD DUP2 PUSH20 0xFFFFFFFFFFFFFFFFFFFFFFFFFFFFFFFFFFFFFFFF MUL NOT AND SWAP1 DUP4 PUSH20 0xFFFFFFFFFFFFFFFFFFFFFFFFFFFFFFFFFFFFFFFF AND MUL OR SWAP1 SSTORE POP PUSH1 0x0 PUSH1 0x1 PUSH1 0x0 PUSH2 0x100 EXP DUP2 SLOAD DUP2 PUSH20 0xFFFFFFFFFFFFFFFFFFFFFFFFFFFFFFFFFFFFFFFF MUL NOT AND SWAP1 DUP4 PUSH20 0xFFFFFFFFFFFFFFFFFFFFFFFFFFFFFFFFFFFFFFFF AND MUL OR SWAP1 SSTORE POP JUMP JUMPDEST PUSH1 0x0 PUSH1 0x4 DUP3 DUP2 SLOAD DUP2 LT PUSH2 0xDA7 JUMPI PUSH2 0xDA6 PUSH2 0x2808 JUMP JUMPDEST JUMPDEST SWAP1 PUSH1 0x0 MSTORE PUSH1 0x20 PUSH1 0x0 KECCAK256 SWAP1 PUSH1 0x4 MUL ADD SWAP1 POP DUP1 PUSH1 0x2 ADD SLOAD NUMBER GT PUSH2 0xDC8 JUMPI POP PUSH2 0xF20 JUMP JUMPDEST PUSH1 0x0 DUP2 PUSH1 0x0 ADD PUSH1 0x0 SWAP1 SLOAD SWAP1 PUSH2 0x100 EXP SWAP1 DIV PUSH20 0xFFFFFFFFFFFFFFFFFFFFFFFFFFFFFFFFFFFFFFFF AND PUSH20 0xFFFFFFFFFFFFFFFFFFFFFFFFFFFFFFFFFFFFFFFF AND PUSH4 0x70A08231 ADDRESS PUSH1 0x40 MLOAD DUP3 PUSH4 0xFFFFFFFF AND PUSH1 0xE0 SHL DUP2 MSTORE PUSH1 0x4 ADD PUSH2 0xE27 SWAP2 SWAP1 PUSH2 0x253D JUMP JUMPDEST PUSH1 0x20 PUSH1 0x40 MLOAD DUP1 DUP4 SUB DUP2 DUP7 DUP1 EXTCODESIZE ISZERO DUP1 ISZERO PUSH2 0xE3F JUMPI PUSH1 0x0 DUP1 REVERT JUMPDEST POP GAS STATICCALL ISZERO DUP1 ISZERO PUSH2 0xE53 JUMPI RETURNDATASIZE PUSH1 0x0 DUP1 RETURNDATACOPY RETURNDATASIZE PUSH1 0x0 REVERT JUMPDEST POP POP POP POP PUSH1 0x40 MLOAD RETURNDATASIZE PUSH1 0x1F NOT PUSH1 0x1F DUP3 ADD AND DUP3 ADD DUP1 PUSH1 0x40 MSTORE POP DUP2 ADD SWAP1 PUSH2 0xE77 SWAP2 SWAP1 PUSH2 0x2A04 JUMP JUMPDEST SWAP1 POP PUSH1 0x0 DUP2 EQ ISZERO PUSH2 0xE92 JUMPI NUMBER DUP3 PUSH1 0x2 ADD DUP2 SWAP1 SSTORE POP POP POP PUSH2 0xF20 JUMP JUMPDEST PUSH1 0x0 PUSH2 0xEE9 PUSH1 0x8 SLOAD PUSH2 0xEDB DUP6 PUSH1 0x1 ADD SLOAD PUSH2 0xECD PUSH1 0x3 SLOAD PUSH2 0xEBF DUP10 PUSH1 0x2 ADD SLOAD NUMBER PUSH2 0x1F6F SWAP1 SWAP2 SWAP1 PUSH4 0xFFFFFFFF AND JUMP JUMPDEST PUSH2 0x2225 SWAP1 SWAP2 SWAP1 PUSH4 0xFFFFFFFF AND JUMP JUMPDEST PUSH2 0x2225 SWAP1 SWAP2 SWAP1 PUSH4 0xFFFFFFFF AND JUMP JUMPDEST PUSH2 0x22A0 SWAP1 SWAP2 SWAP1 PUSH4 0xFFFFFFFF AND JUMP JUMPDEST SWAP1 POP PUSH2 0xF0B PUSH2 0xEF8 DUP3 DUP5 PUSH2 0x22F8 JUMP JUMPDEST DUP5 PUSH1 0x3 ADD SLOAD PUSH2 0x213E SWAP1 SWAP2 SWAP1 PUSH4 0xFFFFFFFF AND JUMP JUMPDEST DUP4 PUSH1 0x3 ADD DUP2 SWAP1 SSTORE POP NUMBER DUP4 PUSH1 0x2 ADD DUP2 SWAP1 SSTORE POP POP POP POP JUMPDEST POP JUMP JUMPDEST PUSH1 0x0 PUSH1 0x4 DUP1 SLOAD SWAP1 POP SWAP1 POP PUSH1 0x0 JUMPDEST DUP2 DUP2 LT ISZERO PUSH2 0xF52 JUMPI PUSH2 0xF41 DUP2 PUSH2 0xD91 JUMP JUMPDEST DUP1 PUSH2 0xF4B SWAP1 PUSH2 0x2A31 JUMP JUMPDEST SWAP1 POP PUSH2 0xF30 JUMP JUMPDEST POP POP JUMP JUMPDEST PUSH1 0x4 DUP2 DUP2 SLOAD DUP2 LT PUSH2 0xF66 JUMPI PUSH1 0x0 DUP1 REVERT JUMPDEST SWAP1 PUSH1 0x0 MSTORE PUSH1 0x20 PUSH1 0x0 KECCAK256 SWAP1 PUSH1 0x4 MUL ADD PUSH1 0x0 SWAP2 POP SWAP1 POP DUP1 PUSH1 0x0 ADD PUSH1 0x0 SWAP1 SLOAD SWAP1 PUSH2 0x100 EXP SWAP1 DIV PUSH20 0xFFFFFFFFFFFFFFFFFFFFFFFFFFFFFFFFFFFFFFFF AND SWAP1 DUP1 PUSH1 0x1 ADD SLOAD SWAP1 DUP1 PUSH1 0x2 ADD SLOAD SWAP1 DUP1 PUSH1 0x3 ADD SLOAD SWAP1 POP DUP5 JUMP JUMPDEST PUSH1 0x0 PUSH1 0x7 PUSH1 0x0 DUP4 PUSH20 0xFFFFFFFFFFFFFFFFFFFFFFFFFFFFFFFFFFFFFFFF AND PUSH20 0xFFFFFFFFFFFFFFFFFFFFFFFFFFFFFFFFFFFFFFFF AND DUP2 MSTORE PUSH1 0x20 ADD SWAP1 DUP2 MSTORE PUSH1 0x20 ADD PUSH1 0x0 KECCAK256 SLOAD SWAP1 POP SWAP2 SWAP1 POP JUMP JUMPDEST PUSH1 0x0 PUSH2 0x100A DUP3 PUSH2 0x92B JUMP JUMPDEST SWAP1 POP PUSH1 0x0 PUSH1 0x4 DUP3 DUP2 SLOAD DUP2 LT PUSH2 0x1022 JUMPI PUSH2 0x1021 PUSH2 0x2808 JUMP JUMPDEST JUMPDEST SWAP1 PUSH1 0x0 MSTORE PUSH1 0x20 PUSH1 0x0 KECCAK256 SWAP1 PUSH1 0x4 MUL ADD SWAP1 POP PUSH1 0x0 PUSH1 0x6 PUSH1 0x0 DUP5 DUP2 MSTORE PUSH1 0x20 ADD SWAP1 DUP2 MSTORE PUSH1 0x20 ADD PUSH1 0x0 KECCAK256 PUSH1 0x0 CALLER PUSH20 0xFFFFFFFFFFFFFFFFFFFFFFFFFFFFFFFFFFFFFFFF AND PUSH20 0xFFFFFFFFFFFFFFFFFFFFFFFFFFFFFFFFFFFFFFFF AND DUP2 MSTORE PUSH1 0x20 ADD SWAP1 DUP2 MSTORE PUSH1 0x20 ADD PUSH1 0x0 KECCAK256 SWAP1 POP PUSH2 0x10D9 CALLER DUP3 PUSH1 0x0 ADD SLOAD DUP5 PUSH1 0x0 ADD PUSH1 0x0 SWAP1 SLOAD SWAP1 PUSH2 0x100 EXP SWAP1 DIV PUSH20 0xFFFFFFFFFFFFFFFFFFFFFFFFFFFFFFFFFFFFFFFF AND PUSH20 0xFFFFFFFFFFFFFFFFFFFFFFFFFFFFFFFFFFFFFFFF AND PUSH2 0x232F SWAP1 SWAP3 SWAP2 SWAP1 PUSH4 0xFFFFFFFF AND JUMP JUMPDEST PUSH1 0x0 DUP2 PUSH1 0x0 ADD DUP2 SWAP1 SSTORE POP PUSH1 0x0 DUP2 PUSH1 0x1 ADD DUP2 SWAP1 SSTORE POP POP POP POP POP JUMP JUMPDEST PUSH1 0x0 DUP1 SLOAD SWAP1 PUSH2 0x100 EXP SWAP1 DIV PUSH20 0xFFFFFFFFFFFFFFFFFFFFFFFFFFFFFFFFFFFFFFFF AND PUSH20 0xFFFFFFFFFFFFFFFFFFFFFFFFFFFFFFFFFFFFFFFF AND CALLER PUSH20 0xFFFFFFFFFFFFFFFFFFFFFFFFFFFFFFFFFFFFFFFF AND EQ PUSH2 0x1181 JUMPI PUSH1 0x40 MLOAD PUSH32 0x8C379A000000000000000000000000000000000000000000000000000000000 DUP2 MSTORE PUSH1 0x4 ADD PUSH2 0x1178 SWAP1 PUSH2 0x2894 JUMP JUMPDEST PUSH1 0x40 MLOAD DUP1 SWAP2 SUB SWAP1 REVERT JUMPDEST DUP1 ISZERO PUSH2 0x1190 JUMPI PUSH2 0x118F PUSH2 0xF23 JUMP JUMPDEST JUMPDEST DUP2 PUSH1 0x3 DUP2 SWAP1 SSTORE POP POP POP JUMP JUMPDEST PUSH1 0x1 PUSH1 0x0 SWAP1 SLOAD SWAP1 PUSH2 0x100 EXP SWAP1 DIV PUSH20 0xFFFFFFFFFFFFFFFFFFFFFFFFFFFFFFFFFFFFFFFF AND DUP2 JUMP JUMPDEST PUSH1 0x3 SLOAD DUP2 JUMP JUMPDEST PUSH1 0x6 PUSH1 0x20 MSTORE DUP2 PUSH1 0x0 MSTORE PUSH1 0x40 PUSH1 0x0 KECCAK256 PUSH1 0x20 MSTORE DUP1 PUSH1 0x0 MSTORE PUSH1 0x40 PUSH1 0x0 KECCAK256 PUSH1 0x0 SWAP2 POP SWAP2 POP POP DUP1 PUSH1 0x0 ADD SLOAD SWAP1 DUP1 PUSH1 0x1 ADD SLOAD SWAP1 POP DUP3 JUMP JUMPDEST PUSH1 0x2 PUSH1 0x0 SWAP1 SLOAD SWAP1 PUSH2 0x100 EXP SWAP1 DIV PUSH20 0xFFFFFFFFFFFFFFFFFFFFFFFFFFFFFFFFFFFFFFFF AND DUP2 JUMP JUMPDEST DUP3 PUSH1 0x0 PUSH1 0x5 PUSH1 0x0 DUP4 PUSH20 0xFFFFFFFFFFFFFFFFFFFFFFFFFFFFFFFFFFFFFFFF AND PUSH20 0xFFFFFFFFFFFFFFFFFFFFFFFFFFFFFFFFFFFFFFFF AND DUP2 MSTORE PUSH1 0x20 ADD SWAP1 DUP2 MSTORE PUSH1 0x20 ADD PUSH1 0x0 KECCAK256 SLOAD EQ PUSH2 0x12A1 JUMPI PUSH1 0x40 MLOAD PUSH32 0x8C379A000000000000000000000000000000000000000000000000000000000 DUP2 MSTORE PUSH1 0x4 ADD PUSH2 0x1298 SWAP1 PUSH2 0x2AC6 JUMP JUMPDEST PUSH1 0x40 MLOAD DUP1 SWAP2 SUB SWAP1 REVERT JUMPDEST PUSH1 0x0 DUP1 SLOAD SWAP1 PUSH2 0x100 EXP SWAP1 DIV PUSH20 0xFFFFFFFFFFFFFFFFFFFFFFFFFFFFFFFFFFFFFFFF AND PUSH20 0xFFFFFFFFFFFFFFFFFFFFFFFFFFFFFFFFFFFFFFFF AND CALLER PUSH20 0xFFFFFFFFFFFFFFFFFFFFFFFFFFFFFFFFFFFFFFFF AND EQ PUSH2 0x132F JUMPI PUSH1 0x40 MLOAD PUSH32 0x8C379A000000000000000000000000000000000000000000000000000000000 DUP2 MSTORE PUSH1 0x4 ADD PUSH2 0x1326 SWAP1 PUSH2 0x2894 JUMP JUMPDEST PUSH1 0x40 MLOAD DUP1 SWAP2 SUB SWAP1 REVERT JUMPDEST DUP2 ISZERO PUSH2 0x133E JUMPI PUSH2 0x133D PUSH2 0xF23 JUMP JUMPDEST JUMPDEST PUSH1 0x0 PUSH1 0x9 SLOAD NUMBER GT PUSH2 0x1351 JUMPI PUSH1 0x9 SLOAD PUSH2 0x1353 JUMP JUMPDEST NUMBER JUMPDEST SWAP1 POP PUSH2 0x136A DUP5 PUSH1 0x8 SLOAD PUSH2 0x213E SWAP1 SWAP2 SWAP1 PUSH4 0xFFFFFFFF AND JUMP JUMPDEST PUSH1 0x8 DUP2 SWAP1 SSTORE POP PUSH1 0x4 PUSH1 0x40 MLOAD DUP1 PUSH1 0x80 ADD PUSH1 0x40 MSTORE DUP1 DUP8 PUSH20 0xFFFFFFFFFFFFFFFFFFFFFFFFFFFFFFFFFFFFFFFF AND DUP2 MSTORE PUSH1 0x20 ADD DUP7 DUP2 MSTORE PUSH1 0x20 ADD DUP4 DUP2 MSTORE PUSH1 0x20 ADD PUSH1 0x0 DUP2 MSTORE POP SWAP1 DUP1 PUSH1 0x1 DUP2 SLOAD ADD DUP1 DUP3 SSTORE DUP1 SWAP2 POP POP PUSH1 0x1 SWAP1 SUB SWAP1 PUSH1 0x0 MSTORE PUSH1 0x20 PUSH1 0x0 KECCAK256 SWAP1 PUSH1 0x4 MUL ADD PUSH1 0x0 SWAP1 SWAP2 SWAP1 SWAP2 SWAP1 SWAP2 POP PUSH1 0x0 DUP3 ADD MLOAD DUP2 PUSH1 0x0 ADD PUSH1 0x0 PUSH2 0x100 EXP DUP2 SLOAD DUP2 PUSH20 0xFFFFFFFFFFFFFFFFFFFFFFFFFFFFFFFFFFFFFFFF MUL NOT AND SWAP1 DUP4 PUSH20 0xFFFFFFFFFFFFFFFFFFFFFFFFFFFFFFFFFFFFFFFF AND MUL OR SWAP1 SSTORE POP PUSH1 0x20 DUP3 ADD MLOAD DUP2 PUSH1 0x1 ADD SSTORE PUSH1 0x40 DUP3 ADD MLOAD DUP2 PUSH1 0x2 ADD SSTORE PUSH1 0x60 DUP3 ADD MLOAD DUP2 PUSH1 0x3 ADD SSTORE POP POP PUSH1 0x4 DUP1 SLOAD SWAP1 POP PUSH1 0x5 PUSH1 0x0 DUP8 PUSH20 0xFFFFFFFFFFFFFFFFFFFFFFFFFFFFFFFFFFFFFFFF AND PUSH20 0xFFFFFFFFFFFFFFFFFFFFFFFFFFFFFFFFFFFFFFFF AND DUP2 MSTORE PUSH1 0x20 ADD SWAP1 DUP2 MSTORE PUSH1 0x20 ADD PUSH1 0x0 KECCAK256 DUP2 SWAP1 SSTORE POP POP POP POP POP POP JUMP JUMPDEST PUSH1 0x0 PUSH1 0x4 DUP1 SLOAD SWAP1 POP SWAP1 POP PUSH1 0x0 DUP1 JUMPDEST DUP3 DUP2 LT ISZERO PUSH2 0x161E JUMPI PUSH1 0x0 PUSH1 0x6 PUSH1 0x0 DUP4 DUP2 MSTORE PUSH1 0x20 ADD SWAP1 DUP2 MSTORE PUSH1 0x20 ADD PUSH1 0x0 KECCAK256 PUSH1 0x0 CALLER PUSH20 0xFFFFFFFFFFFFFFFFFFFFFFFFFFFFFFFFFFFFFFFF AND PUSH20 0xFFFFFFFFFFFFFFFFFFFFFFFFFFFFFFFFFFFFFFFF AND DUP2 MSTORE PUSH1 0x20 ADD SWAP1 DUP2 MSTORE PUSH1 0x20 ADD PUSH1 0x0 KECCAK256 PUSH1 0x0 ADD SLOAD EQ DUP1 PUSH2 0x1527 JUMPI POP PUSH1 0x0 PUSH1 0x4 DUP3 DUP2 SLOAD DUP2 LT PUSH2 0x1513 JUMPI PUSH2 0x1512 PUSH2 0x2808 JUMP JUMPDEST JUMPDEST SWAP1 PUSH1 0x0 MSTORE PUSH1 0x20 PUSH1 0x0 KECCAK256 SWAP1 PUSH1 0x4 MUL ADD PUSH1 0x1 ADD SLOAD EQ JUMPDEST ISZERO PUSH2 0x1531 JUMPI PUSH2 0x160D JUMP JUMPDEST PUSH1 0x0 PUSH1 0x4 DUP3 DUP2 SLOAD DUP2 LT PUSH2 0x1547 JUMPI PUSH2 0x1546 PUSH2 0x2808 JUMP JUMPDEST JUMPDEST SWAP1 PUSH1 0x0 MSTORE PUSH1 0x20 PUSH1 0x0 KECCAK256 SWAP1 PUSH1 0x4 MUL ADD SWAP1 POP PUSH1 0x0 PUSH1 0x6 PUSH1 0x0 DUP5 DUP2 MSTORE PUSH1 0x20 ADD SWAP1 DUP2 MSTORE PUSH1 0x20 ADD PUSH1 0x0 KECCAK256 PUSH1 0x0 CALLER PUSH20 0xFFFFFFFFFFFFFFFFFFFFFFFFFFFFFFFFFFFFFFFF AND PUSH20 0xFFFFFFFFFFFFFFFFFFFFFFFFFFFFFFFFFFFFFFFF AND DUP2 MSTORE PUSH1 0x20 ADD SWAP1 DUP2 MSTORE PUSH1 0x20 ADD PUSH1 0x0 KECCAK256 SWAP1 POP PUSH2 0x15B4 DUP4 PUSH2 0xD91 JUMP JUMPDEST PUSH2 0x15EE PUSH2 0x15DF DUP3 PUSH1 0x1 ADD SLOAD PUSH2 0x15D1 DUP5 PUSH1 0x0 ADD SLOAD DUP7 PUSH1 0x3 ADD SLOAD PUSH2 0x1F3F JUMP JUMPDEST PUSH2 0x1F6F SWAP1 SWAP2 SWAP1 PUSH4 0xFFFFFFFF AND JUMP JUMPDEST DUP6 PUSH2 0x213E SWAP1 SWAP2 SWAP1 PUSH4 0xFFFFFFFF AND JUMP JUMPDEST SWAP4 POP PUSH2 0x1602 DUP2 PUSH1 0x0 ADD SLOAD DUP4 PUSH1 0x3 ADD SLOAD PUSH2 0x1F3F JUMP JUMPDEST DUP2 PUSH1 0x1 ADD DUP2 SWAP1 SSTORE POP POP POP JUMPDEST DUP1 PUSH2 0x1617 SWAP1 PUSH2 0x2A31 JUMP JUMPDEST SWAP1 POP PUSH2 0x1498 JUMP JUMPDEST POP PUSH2 0x1629 CALLER DUP3 PUSH2 0x1FC8 JUMP JUMPDEST POP POP JUMP JUMPDEST PUSH1 0x7 PUSH1 0x20 MSTORE DUP1 PUSH1 0x0 MSTORE PUSH1 0x40 PUSH1 0x0 KECCAK256 PUSH1 0x0 SWAP2 POP SWAP1 POP SLOAD DUP2 JUMP JUMPDEST PUSH1 0x0 DUP1 PUSH1 0x4 DUP1 SLOAD SWAP1 POP SWAP1 POP PUSH1 0x0 DUP1 JUMPDEST DUP3 DUP2 LT ISZERO PUSH2 0x1901 JUMPI PUSH1 0x0 PUSH1 0x6 PUSH1 0x0 DUP4 DUP2 MSTORE PUSH1 0x20 ADD SWAP1 DUP2 MSTORE PUSH1 0x20 ADD PUSH1 0x0 KECCAK256 PUSH1 0x0 DUP8 PUSH20 0xFFFFFFFFFFFFFFFFFFFFFFFFFFFFFFFFFFFFFFFF AND PUSH20 0xFFFFFFFFFFFFFFFFFFFFFFFFFFFFFFFFFFFFFFFF AND DUP2 MSTORE PUSH1 0x20 ADD SWAP1 DUP2 MSTORE PUSH1 0x20 ADD PUSH1 0x0 KECCAK256 PUSH1 0x0 ADD SLOAD EQ DUP1 PUSH2 0x16E3 JUMPI POP PUSH1 0x0 PUSH1 0x4 DUP3 DUP2 SLOAD DUP2 LT PUSH2 0x16CF JUMPI PUSH2 0x16CE PUSH2 0x2808 JUMP JUMPDEST JUMPDEST SWAP1 PUSH1 0x0 MSTORE PUSH1 0x20 PUSH1 0x0 KECCAK256 SWAP1 PUSH1 0x4 MUL ADD PUSH1 0x1 ADD SLOAD EQ JUMPDEST ISZERO PUSH2 0x16ED JUMPI PUSH2 0x18F0 JUMP JUMPDEST PUSH1 0x0 PUSH1 0x4 DUP3 DUP2 SLOAD DUP2 LT PUSH2 0x1703 JUMPI PUSH2 0x1702 PUSH2 0x2808 JUMP JUMPDEST JUMPDEST SWAP1 PUSH1 0x0 MSTORE PUSH1 0x20 PUSH1 0x0 KECCAK256 SWAP1 PUSH1 0x4 MUL ADD SWAP1 POP PUSH1 0x0 PUSH1 0x6 PUSH1 0x0 DUP5 DUP2 MSTORE PUSH1 0x20 ADD SWAP1 DUP2 MSTORE PUSH1 0x20 ADD PUSH1 0x0 KECCAK256 PUSH1 0x0 DUP9 PUSH20 0xFFFFFFFFFFFFFFFFFFFFFFFFFFFFFFFFFFFFFFFF AND PUSH20 0xFFFFFFFFFFFFFFFFFFFFFFFFFFFFFFFFFFFFFFFF AND DUP2 MSTORE PUSH1 0x20 ADD SWAP1 DUP2 MSTORE PUSH1 0x20 ADD PUSH1 0x0 KECCAK256 SWAP1 POP PUSH1 0x0 DUP3 PUSH1 0x3 ADD SLOAD SWAP1 POP PUSH1 0x0 DUP4 PUSH1 0x0 ADD PUSH1 0x0 SWAP1 SLOAD SWAP1 PUSH2 0x100 EXP SWAP1 DIV PUSH20 0xFFFFFFFFFFFFFFFFFFFFFFFFFFFFFFFFFFFFFFFF AND PUSH20 0xFFFFFFFFFFFFFFFFFFFFFFFFFFFFFFFFFFFFFFFF AND PUSH4 0x70A08231 ADDRESS PUSH1 0x40 MLOAD DUP3 PUSH4 0xFFFFFFFF AND PUSH1 0xE0 SHL DUP2 MSTORE PUSH1 0x4 ADD PUSH2 0x17CF SWAP2 SWAP1 PUSH2 0x253D JUMP JUMPDEST PUSH1 0x20 PUSH1 0x40 MLOAD DUP1 DUP4 SUB DUP2 DUP7 DUP1 EXTCODESIZE ISZERO DUP1 ISZERO PUSH2 0x17E7 JUMPI PUSH1 0x0 DUP1 REVERT JUMPDEST POP GAS STATICCALL ISZERO DUP1 ISZERO PUSH2 0x17FB JUMPI RETURNDATASIZE PUSH1 0x0 DUP1 RETURNDATACOPY RETURNDATASIZE PUSH1 0x0 REVERT JUMPDEST POP POP POP POP PUSH1 0x40 MLOAD RETURNDATASIZE PUSH1 0x1F NOT PUSH1 0x1F DUP3 ADD AND DUP3 ADD DUP1 PUSH1 0x40 MSTORE POP DUP2 ADD SWAP1 PUSH2 0x181F SWAP2 SWAP1 PUSH2 0x2A04 JUMP JUMPDEST SWAP1 POP DUP4 PUSH1 0x2 ADD SLOAD NUMBER GT DUP1 ISZERO PUSH2 0x1835 JUMPI POP PUSH1 0x0 DUP2 EQ ISZERO JUMPDEST ISZERO PUSH2 0x18B3 JUMPI PUSH1 0x0 PUSH2 0x1891 PUSH1 0x8 SLOAD PUSH2 0x1883 DUP8 PUSH1 0x1 ADD SLOAD PUSH2 0x1875 PUSH1 0x3 SLOAD PUSH2 0x1867 DUP12 PUSH1 0x2 ADD SLOAD NUMBER PUSH2 0x1F6F SWAP1 SWAP2 SWAP1 PUSH4 0xFFFFFFFF AND JUMP JUMPDEST PUSH2 0x2225 SWAP1 SWAP2 SWAP1 PUSH4 0xFFFFFFFF AND JUMP JUMPDEST PUSH2 0x2225 SWAP1 SWAP2 SWAP1 PUSH4 0xFFFFFFFF AND JUMP JUMPDEST PUSH2 0x22A0 SWAP1 SWAP2 SWAP1 PUSH4 0xFFFFFFFF AND JUMP JUMPDEST SWAP1 POP PUSH2 0x18AF PUSH2 0x18A0 DUP3 DUP5 PUSH2 0x22F8 JUMP JUMPDEST DUP5 PUSH2 0x213E SWAP1 SWAP2 SWAP1 PUSH4 0xFFFFFFFF AND JUMP JUMPDEST SWAP3 POP POP JUMPDEST PUSH2 0x18E9 PUSH2 0x18DA DUP5 PUSH1 0x1 ADD SLOAD PUSH2 0x18CC DUP7 PUSH1 0x0 ADD SLOAD DUP7 PUSH2 0x1F3F JUMP JUMPDEST PUSH2 0x1F6F SWAP1 SWAP2 SWAP1 PUSH4 0xFFFFFFFF AND JUMP JUMPDEST DUP8 PUSH2 0x213E SWAP1 SWAP2 SWAP1 PUSH4 0xFFFFFFFF AND JUMP JUMPDEST SWAP6 POP POP POP POP POP JUMPDEST DUP1 PUSH2 0x18FA SWAP1 PUSH2 0x2A31 JUMP JUMPDEST SWAP1 POP PUSH2 0x1654 JUMP JUMPDEST POP DUP1 SWAP3 POP POP POP SWAP2 SWAP1 POP JUMP JUMPDEST PUSH1 0x0 DUP1 SLOAD SWAP1 PUSH2 0x100 EXP SWAP1 DIV PUSH20 0xFFFFFFFFFFFFFFFFFFFFFFFFFFFFFFFFFFFFFFFF AND PUSH20 0xFFFFFFFFFFFFFFFFFFFFFFFFFFFFFFFFFFFFFFFF AND CALLER PUSH20 0xFFFFFFFFFFFFFFFFFFFFFFFFFFFFFFFFFFFFFFFF AND EQ PUSH2 0x199A JUMPI PUSH1 0x40 MLOAD PUSH32 0x8C379A000000000000000000000000000000000000000000000000000000000 DUP2 MSTORE PUSH1 0x4 ADD PUSH2 0x1991 SWAP1 PUSH2 0x2894 JUMP JUMPDEST PUSH1 0x40 MLOAD DUP1 SWAP2 SUB SWAP1 REVERT JUMPDEST PUSH1 0x0 PUSH20 0xFFFFFFFFFFFFFFFFFFFFFFFFFFFFFFFFFFFFFFFF AND DUP2 PUSH20 0xFFFFFFFFFFFFFFFFFFFFFFFFFFFFFFFFFFFFFFFF AND EQ ISZERO PUSH2 0x1A0A JUMPI PUSH1 0x40 MLOAD PUSH32 0x8C379A000000000000000000000000000000000000000000000000000000000 DUP2 MSTORE PUSH1 0x4 ADD PUSH2 0x1A01 SWAP1 PUSH2 0x2B32 JUMP JUMPDEST PUSH1 0x40 MLOAD DUP1 SWAP2 SUB SWAP1 REVERT JUMPDEST DUP1 PUSH20 0xFFFFFFFFFFFFFFFFFFFFFFFFFFFFFFFFFFFFFFFF AND PUSH1 0x0 DUP1 SLOAD SWAP1 PUSH2 0x100 EXP SWAP1 DIV PUSH20 0xFFFFFFFFFFFFFFFFFFFFFFFFFFFFFFFFFFFFFFFF AND PUSH20 0xFFFFFFFFFFFFFFFFFFFFFFFFFFFFFFFFFFFFFFFF AND PUSH32 0xDCF55418CEE3220104FEF63F979FF3C4097AD240C0C43DCB33CE837748983E62 PUSH1 0x40 MLOAD PUSH1 0x40 MLOAD DUP1 SWAP2 SUB SWAP1 LOG3 DUP1 PUSH1 0x1 PUSH1 0x0 PUSH2 0x100 EXP DUP2 SLOAD DUP2 PUSH20 0xFFFFFFFFFFFFFFFFFFFFFFFFFFFFFFFFFFFFFFFF MUL NOT AND SWAP1 DUP4 PUSH20 0xFFFFFFFFFFFFFFFFFFFFFFFFFFFFFFFFFFFFFFFF AND MUL OR SWAP1 SSTORE POP POP JUMP JUMPDEST PUSH1 0x0 PUSH2 0x1AD3 DUP4 PUSH2 0x92B JUMP JUMPDEST SWAP1 POP PUSH1 0x0 PUSH1 0x4 DUP3 DUP2 SLOAD DUP2 LT PUSH2 0x1AEB JUMPI PUSH2 0x1AEA PUSH2 0x2808 JUMP JUMPDEST JUMPDEST SWAP1 PUSH1 0x0 MSTORE PUSH1 0x20 PUSH1 0x0 KECCAK256 SWAP1 PUSH1 0x4 MUL ADD SWAP1 POP PUSH1 0x0 PUSH1 0x6 PUSH1 0x0 DUP5 DUP2 MSTORE PUSH1 0x20 ADD SWAP1 DUP2 MSTORE PUSH1 0x20 ADD PUSH1 0x0 KECCAK256 PUSH1 0x0 CALLER PUSH20 0xFFFFFFFFFFFFFFFFFFFFFFFFFFFFFFFFFFFFFFFF AND PUSH20 0xFFFFFFFFFFFFFFFFFFFFFFFFFFFFFFFFFFFFFFFF AND DUP2 MSTORE PUSH1 0x20 ADD SWAP1 DUP2 MSTORE PUSH1 0x20 ADD PUSH1 0x0 KECCAK256 SWAP1 POP DUP4 DUP2 PUSH1 0x0 ADD SLOAD LT ISZERO PUSH2 0x1B96 JUMPI PUSH1 0x40 MLOAD PUSH32 0x8C379A000000000000000000000000000000000000000000000000000000000 DUP2 MSTORE PUSH1 0x4 ADD PUSH2 0x1B8D SWAP1 PUSH2 0x2B9E JUMP JUMPDEST PUSH1 0x40 MLOAD DUP1 SWAP2 SUB SWAP1 REVERT JUMPDEST PUSH2 0x1B9F DUP4 PUSH2 0xD91 JUMP JUMPDEST PUSH1 0x0 PUSH2 0x1BC9 DUP3 PUSH1 0x1 ADD SLOAD PUSH2 0x1BBB DUP5 PUSH1 0x0 ADD SLOAD DUP7 PUSH1 0x3 ADD SLOAD PUSH2 0x1F3F JUMP JUMPDEST PUSH2 0x1F6F SWAP1 SWAP2 SWAP1 PUSH4 0xFFFFFFFF AND JUMP JUMPDEST SWAP1 POP PUSH2 0x1BD5 CALLER DUP3 PUSH2 0x1FC8 JUMP JUMPDEST PUSH2 0x1BEC DUP6 DUP4 PUSH1 0x0 ADD SLOAD PUSH2 0x1F6F SWAP1 SWAP2 SWAP1 PUSH4 0xFFFFFFFF AND JUMP JUMPDEST DUP3 PUSH1 0x0 ADD DUP2 SWAP1 SSTORE POP PUSH2 0x1C06 DUP3 PUSH1 0x0 ADD SLOAD DUP5 PUSH1 0x3 ADD SLOAD PUSH2 0x1F3F JUMP JUMPDEST DUP3 PUSH1 0x1 ADD DUP2 SWAP1 SSTORE POP PUSH2 0x1C5D CALLER DUP7 DUP6 PUSH1 0x0 ADD PUSH1 0x0 SWAP1 SLOAD SWAP1 PUSH2 0x100 EXP SWAP1 DIV PUSH20 0xFFFFFFFFFFFFFFFFFFFFFFFFFFFFFFFFFFFFFFFF AND PUSH20 0xFFFFFFFFFFFFFFFFFFFFFFFFFFFFFFFFFFFFFFFF AND PUSH2 0x232F SWAP1 SWAP3 SWAP2 SWAP1 PUSH4 0xFFFFFFFF AND JUMP JUMPDEST DUP4 CALLER PUSH20 0xFFFFFFFFFFFFFFFFFFFFFFFFFFFFFFFFFFFFFFFF AND PUSH32 0xF279E6A1F5E320CCA91135676D9CB6E44CA8A08C0B88342BCDB1144F6511B568 DUP8 PUSH1 0x40 MLOAD PUSH2 0x1CA4 SWAP2 SWAP1 PUSH2 0x24E1 JUMP JUMPDEST PUSH1 0x40 MLOAD DUP1 SWAP2 SUB SWAP1 LOG3 POP POP POP POP POP POP JUMP JUMPDEST PUSH1 0x0 PUSH2 0x1CC0 DUP3 CALLER PUSH2 0x602 JUMP JUMPDEST SWAP1 POP PUSH2 0x1CCC DUP3 DUP3 PUSH2 0x1AC8 JUMP JUMPDEST POP POP JUMP JUMPDEST PUSH1 0x0 DUP1 PUSH2 0x1CDC DUP4 PUSH2 0x92B JUMP JUMPDEST SWAP1 POP PUSH1 0x0 PUSH1 0x4 DUP3 DUP2 SLOAD DUP2 LT PUSH2 0x1CF4 JUMPI PUSH2 0x1CF3 PUSH2 0x2808 JUMP JUMPDEST JUMPDEST SWAP1 PUSH1 0x0 MSTORE PUSH1 0x20 PUSH1 0x0 KECCAK256 SWAP1 PUSH1 0x4 MUL ADD SWAP1 POP PUSH2 0x1D31 PUSH1 0x8 SLOAD PUSH2 0x1D23 DUP4 PUSH1 0x1 ADD SLOAD PUSH1 0x3 SLOAD PUSH2 0x2225 SWAP1 SWAP2 SWAP1 PUSH4 0xFFFFFFFF AND JUMP JUMPDEST PUSH2 0x22A0 SWAP1 SWAP2 SWAP1 PUSH4 0xFFFFFFFF AND JUMP JUMPDEST SWAP3 POP POP POP SWAP2 SWAP1 POP JUMP JUMPDEST PUSH1 0x0 DUP1 PUSH2 0x1D46 DUP5 PUSH2 0x92B JUMP JUMPDEST SWAP1 POP PUSH1 0x0 PUSH1 0x4 DUP3 DUP2 SLOAD DUP2 LT PUSH2 0x1D5E JUMPI PUSH2 0x1D5D PUSH2 0x2808 JUMP JUMPDEST JUMPDEST SWAP1 PUSH1 0x0 MSTORE PUSH1 0x20 PUSH1 0x0 KECCAK256 SWAP1 PUSH1 0x4 MUL ADD SWAP1 POP PUSH1 0x0 PUSH1 0x6 PUSH1 0x0 DUP5 DUP2 MSTORE PUSH1 0x20 ADD SWAP1 DUP2 MSTORE PUSH1 0x20 ADD PUSH1 0x0 KECCAK256 PUSH1 0x0 DUP7 PUSH20 0xFFFFFFFFFFFFFFFFFFFFFFFFFFFFFFFFFFFFFFFF AND PUSH20 0xFFFFFFFFFFFFFFFFFFFFFFFFFFFFFFFFFFFFFFFF AND DUP2 MSTORE PUSH1 0x20 ADD SWAP1 DUP2 MSTORE PUSH1 0x20 ADD PUSH1 0x0 KECCAK256 SWAP1 POP PUSH1 0x0 DUP3 PUSH1 0x3 ADD SLOAD SWAP1 POP PUSH1 0x0 DUP4 PUSH1 0x0 ADD PUSH1 0x0 SWAP1 SLOAD SWAP1 PUSH2 0x100 EXP SWAP1 DIV PUSH20 0xFFFFFFFFFFFFFFFFFFFFFFFFFFFFFFFFFFFFFFFF AND PUSH20 0xFFFFFFFFFFFFFFFFFFFFFFFFFFFFFFFFFFFFFFFF AND PUSH4 0x70A08231 ADDRESS PUSH1 0x40 MLOAD DUP3 PUSH4 0xFFFFFFFF AND PUSH1 0xE0 SHL DUP2 MSTORE PUSH1 0x4 ADD PUSH2 0x1E2A SWAP2 SWAP1 PUSH2 0x253D JUMP JUMPDEST PUSH1 0x20 PUSH1 0x40 MLOAD DUP1 DUP4 SUB DUP2 DUP7 DUP1 EXTCODESIZE ISZERO DUP1 ISZERO PUSH2 0x1E42 JUMPI PUSH1 0x0 DUP1 REVERT JUMPDEST POP GAS STATICCALL ISZERO DUP1 ISZERO PUSH2 0x1E56 JUMPI RETURNDATASIZE PUSH1 0x0 DUP1 RETURNDATACOPY RETURNDATASIZE PUSH1 0x0 REVERT JUMPDEST POP POP POP POP PUSH1 0x40 MLOAD RETURNDATASIZE PUSH1 0x1F NOT PUSH1 0x1F DUP3 ADD AND DUP3 ADD DUP1 PUSH1 0x40 MSTORE POP DUP2 ADD SWAP1 PUSH2 0x1E7A SWAP2 SWAP1 PUSH2 0x2A04 JUMP JUMPDEST SWAP1 POP DUP4 PUSH1 0x2 ADD SLOAD NUMBER GT DUP1 ISZERO PUSH2 0x1E90 JUMPI POP PUSH1 0x0 DUP2 EQ ISZERO JUMPDEST ISZERO PUSH2 0x1F0E JUMPI PUSH1 0x0 PUSH2 0x1EEC PUSH1 0x8 SLOAD PUSH2 0x1EDE DUP8 PUSH1 0x1 ADD SLOAD PUSH2 0x1ED0 PUSH1 0x3 SLOAD PUSH2 0x1EC2 DUP12 PUSH1 0x2 ADD SLOAD NUMBER PUSH2 0x1F6F SWAP1 SWAP2 SWAP1 PUSH4 0xFFFFFFFF AND JUMP JUMPDEST PUSH2 0x2225 SWAP1 SWAP2 SWAP1 PUSH4 0xFFFFFFFF AND JUMP JUMPDEST PUSH2 0x2225 SWAP1 SWAP2 SWAP1 PUSH4 0xFFFFFFFF AND JUMP JUMPDEST PUSH2 0x22A0 SWAP1 SWAP2 SWAP1 PUSH4 0xFFFFFFFF AND JUMP JUMPDEST SWAP1 POP PUSH2 0x1F0A PUSH2 0x1EFB DUP3 DUP5 PUSH2 0x22F8 JUMP JUMPDEST DUP5 PUSH2 0x213E SWAP1 SWAP2 SWAP1 PUSH4 0xFFFFFFFF AND JUMP JUMPDEST SWAP3 POP POP JUMPDEST PUSH2 0x1F32 DUP4 PUSH1 0x1 ADD SLOAD PUSH2 0x1F24 DUP6 PUSH1 0x0 ADD SLOAD DUP6 PUSH2 0x1F3F JUMP JUMPDEST PUSH2 0x1F6F SWAP1 SWAP2 SWAP1 PUSH4 0xFFFFFFFF AND JUMP JUMPDEST SWAP6 POP POP POP POP POP POP SWAP3 SWAP2 POP POP JUMP JUMPDEST PUSH1 0x0 PUSH8 0xDE0B6B3A7640000 PUSH2 0x1F5D DUP4 DUP6 PUSH2 0x2225 SWAP1 SWAP2 SWAP1 PUSH4 0xFFFFFFFF AND JUMP JUMPDEST PUSH2 0x1F67 SWAP2 SWAP1 PUSH2 0x2BED JUMP JUMPDEST SWAP1 POP SWAP3 SWAP2 POP POP JUMP JUMPDEST PUSH1 0x0 DUP3 DUP3 GT ISZERO PUSH2 0x1FB4 JUMPI PUSH1 0x40 MLOAD PUSH32 0x8C379A000000000000000000000000000000000000000000000000000000000 DUP2 MSTORE PUSH1 0x4 ADD PUSH2 0x1FAB SWAP1 PUSH2 0x2C6A JUMP JUMPDEST PUSH1 0x40 MLOAD DUP1 SWAP2 SUB SWAP1 REVERT JUMPDEST DUP2 DUP4 PUSH2 0x1FC0 SWAP2 SWAP1 PUSH2 0x294F JUMP JUMPDEST SWAP1 POP SWAP3 SWAP2 POP POP JUMP JUMPDEST PUSH1 0x2 PUSH1 0x0 SWAP1 SLOAD SWAP1 PUSH2 0x100 EXP SWAP1 DIV PUSH20 0xFFFFFFFFFFFFFFFFFFFFFFFFFFFFFFFFFFFFFFFF AND PUSH20 0xFFFFFFFFFFFFFFFFFFFFFFFFFFFFFFFFFFFFFFFF AND PUSH4 0x21670F22 DUP4 DUP4 PUSH1 0x40 MLOAD DUP4 PUSH4 0xFFFFFFFF AND PUSH1 0xE0 SHL DUP2 MSTORE PUSH1 0x4 ADD PUSH2 0x2025 SWAP3 SWAP2 SWAP1 PUSH2 0x2C8A JUMP JUMPDEST PUSH1 0x0 PUSH1 0x40 MLOAD DUP1 DUP4 SUB DUP2 PUSH1 0x0 DUP8 DUP1 EXTCODESIZE ISZERO DUP1 ISZERO PUSH2 0x203F JUMPI PUSH1 0x0 DUP1 REVERT JUMPDEST POP GAS CALL ISZERO DUP1 ISZERO PUSH2 0x2053 JUMPI RETURNDATASIZE PUSH1 0x0 DUP1 RETURNDATACOPY RETURNDATASIZE PUSH1 0x0 REVERT JUMPDEST POP POP POP POP PUSH2 0x20A9 DUP2 PUSH1 0x7 PUSH1 0x0 DUP6 PUSH20 0xFFFFFFFFFFFFFFFFFFFFFFFFFFFFFFFFFFFFFFFF AND PUSH20 0xFFFFFFFFFFFFFFFFFFFFFFFFFFFFFFFFFFFFFFFF AND DUP2 MSTORE PUSH1 0x20 ADD SWAP1 DUP2 MSTORE PUSH1 0x20 ADD PUSH1 0x0 KECCAK256 SLOAD PUSH2 0x213E SWAP1 SWAP2 SWAP1 PUSH4 0xFFFFFFFF AND JUMP JUMPDEST PUSH1 0x7 PUSH1 0x0 DUP5 PUSH20 0xFFFFFFFFFFFFFFFFFFFFFFFFFFFFFFFFFFFFFFFF AND PUSH20 0xFFFFFFFFFFFFFFFFFFFFFFFFFFFFFFFFFFFFFFFF AND DUP2 MSTORE PUSH1 0x20 ADD SWAP1 DUP2 MSTORE PUSH1 0x20 ADD PUSH1 0x0 KECCAK256 DUP2 SWAP1 SSTORE POP DUP2 PUSH20 0xFFFFFFFFFFFFFFFFFFFFFFFFFFFFFFFFFFFFFFFF AND PUSH32 0x47CEE97CB7ACD717B3C0AA1435D004CD5B3C8C57D70DBCEB4E4458BBD60E39D4 DUP3 PUSH1 0x40 MLOAD PUSH2 0x2132 SWAP2 SWAP1 PUSH2 0x24E1 JUMP JUMPDEST PUSH1 0x40 MLOAD DUP1 SWAP2 SUB SWAP1 LOG2 POP POP JUMP JUMPDEST PUSH1 0x0 DUP1 DUP3 DUP5 PUSH2 0x214D SWAP2 SWAP1 PUSH2 0x2CB3 JUMP JUMPDEST SWAP1 POP DUP4 DUP2 LT ISZERO PUSH2 0x2192 JUMPI PUSH1 0x40 MLOAD PUSH32 0x8C379A000000000000000000000000000000000000000000000000000000000 DUP2 MSTORE PUSH1 0x4 ADD PUSH2 0x2189 SWAP1 PUSH2 0x2D55 JUMP JUMPDEST PUSH1 0x40 MLOAD DUP1 SWAP2 SUB SWAP1 REVERT JUMPDEST DUP1 SWAP2 POP POP SWAP3 SWAP2 POP POP JUMP JUMPDEST PUSH2 0x221F DUP5 PUSH4 0x23B872DD PUSH1 0xE0 SHL DUP6 DUP6 DUP6 PUSH1 0x40 MLOAD PUSH1 0x24 ADD PUSH2 0x21BD SWAP4 SWAP3 SWAP2 SWAP1 PUSH2 0x2D75 JUMP JUMPDEST PUSH1 0x40 MLOAD PUSH1 0x20 DUP2 DUP4 SUB SUB DUP2 MSTORE SWAP1 PUSH1 0x40 MSTORE SWAP1 PUSH28 0xFFFFFFFFFFFFFFFFFFFFFFFFFFFFFFFFFFFFFFFFFFFFFFFFFFFFFFFF NOT AND PUSH1 0x20 DUP3 ADD DUP1 MLOAD PUSH28 0xFFFFFFFFFFFFFFFFFFFFFFFFFFFFFFFFFFFFFFFFFFFFFFFFFFFFFFFF DUP4 DUP2 DUP4 AND OR DUP4 MSTORE POP POP POP POP PUSH2 0x23B5 JUMP JUMPDEST POP POP POP POP JUMP JUMPDEST PUSH1 0x0 DUP1 DUP4 EQ ISZERO PUSH2 0x2238 JUMPI PUSH1 0x0 SWAP1 POP PUSH2 0x229A JUMP JUMPDEST PUSH1 0x0 DUP3 DUP5 PUSH2 0x2246 SWAP2 SWAP1 PUSH2 0x2DAC JUMP JUMPDEST SWAP1 POP DUP3 DUP5 DUP3 PUSH2 0x2255 SWAP2 SWAP1 PUSH2 0x2BED JUMP JUMPDEST EQ PUSH2 0x2295 JUMPI PUSH1 0x40 MLOAD PUSH32 0x8C379A000000000000000000000000000000000000000000000000000000000 DUP2 MSTORE PUSH1 0x4 ADD PUSH2 0x228C SWAP1 PUSH2 0x2E52 JUMP JUMPDEST PUSH1 0x40 MLOAD DUP1 SWAP2 SUB SWAP1 REVERT JUMPDEST DUP1 SWAP2 POP POP JUMPDEST SWAP3 SWAP2 POP POP JUMP JUMPDEST PUSH1 0x0 DUP1 DUP3 GT PUSH2 0x22E4 JUMPI PUSH1 0x40 MLOAD PUSH32 0x8C379A000000000000000000000000000000000000000000000000000000000 DUP2 MSTORE PUSH1 0x4 ADD PUSH2 0x22DB SWAP1 PUSH2 0x2EBE JUMP JUMPDEST PUSH1 0x40 MLOAD DUP1 SWAP2 SUB SWAP1 REVERT JUMPDEST DUP2 DUP4 PUSH2 0x22F0 SWAP2 SWAP1 PUSH2 0x2BED JUMP JUMPDEST SWAP1 POP SWAP3 SWAP2 POP POP JUMP JUMPDEST PUSH1 0x0 PUSH2 0x2327 DUP3 PUSH2 0x2319 PUSH8 0xDE0B6B3A7640000 DUP7 PUSH2 0x2225 SWAP1 SWAP2 SWAP1 PUSH4 0xFFFFFFFF AND JUMP JUMPDEST PUSH2 0x22A0 SWAP1 SWAP2 SWAP1 PUSH4 0xFFFFFFFF AND JUMP JUMPDEST SWAP1 POP SWAP3 SWAP2 POP POP JUMP JUMPDEST PUSH2 0x23B0 DUP4 PUSH4 0xA9059CBB PUSH1 0xE0 SHL DUP5 DUP5 PUSH1 0x40 MLOAD PUSH1 0x24 ADD PUSH2 0x234E SWAP3 SWAP2 SWAP1 PUSH2 0x2C8A JUMP JUMPDEST PUSH1 0x40 MLOAD PUSH1 0x20 DUP2 DUP4 SUB SUB DUP2 MSTORE SWAP1 PUSH1 0x40 MSTORE SWAP1 PUSH28 0xFFFFFFFFFFFFFFFFFFFFFFFFFFFFFFFFFFFFFFFFFFFFFFFFFFFFFFFF NOT AND PUSH1 0x20 DUP3 ADD DUP1 MLOAD PUSH28 0xFFFFFFFFFFFFFFFFFFFFFFFFFFFFFFFFFFFFFFFFFFFFFFFFFFFFFFFF DUP4 DUP2 DUP4 AND OR DUP4 MSTORE POP POP POP POP PUSH2 0x23B5 JUMP JUMPDEST POP POP POP JUMP JUMPDEST PUSH1 0x0 DUP1 DUP4 PUSH20 0xFFFFFFFFFFFFFFFFFFFFFFFFFFFFFFFFFFFFFFFF AND DUP4 PUSH1 0x40 MLOAD PUSH2 0x23DD SWAP2 SWAP1 PUSH2 0x2F58 JUMP JUMPDEST PUSH1 0x0 PUSH1 0x40 MLOAD DUP1 DUP4 SUB DUP2 PUSH1 0x0 DUP7 GAS CALL SWAP2 POP POP RETURNDATASIZE DUP1 PUSH1 0x0 DUP2 EQ PUSH2 0x241A JUMPI PUSH1 0x40 MLOAD SWAP2 POP PUSH1 0x1F NOT PUSH1 0x3F RETURNDATASIZE ADD AND DUP3 ADD PUSH1 0x40 MSTORE RETURNDATASIZE DUP3 MSTORE RETURNDATASIZE PUSH1 0x0 PUSH1 0x20 DUP5 ADD RETURNDATACOPY PUSH2 0x241F JUMP JUMPDEST PUSH1 0x60 SWAP2 POP JUMPDEST POP SWAP2 POP SWAP2 POP DUP2 PUSH2 0x2464 JUMPI PUSH1 0x40 MLOAD PUSH32 0x8C379A000000000000000000000000000000000000000000000000000000000 DUP2 MSTORE PUSH1 0x4 ADD PUSH2 0x245B SWAP1 PUSH2 0x2FBB JUMP JUMPDEST PUSH1 0x40 MLOAD DUP1 SWAP2 SUB SWAP1 REVERT JUMPDEST PUSH1 0x0 DUP2 MLOAD GT ISZERO PUSH2 0x24C2 JUMPI DUP1 DUP1 PUSH1 0x20 ADD SWAP1 MLOAD DUP2 ADD SWAP1 PUSH2 0x2482 SWAP2 SWAP1 PUSH2 0x2FF0 JUMP JUMPDEST PUSH2 0x24C1 JUMPI PUSH1 0x40 MLOAD PUSH32 0x8C379A000000000000000000000000000000000000000000000000000000000 DUP2 MSTORE PUSH1 0x4 ADD PUSH2 0x24B8 SWAP1 PUSH2 0x308F JUMP JUMPDEST PUSH1 0x40 MLOAD DUP1 SWAP2 SUB SWAP1 REVERT JUMPDEST JUMPDEST POP POP POP POP JUMP JUMPDEST PUSH1 0x0 DUP2 SWAP1 POP SWAP2 SWAP1 POP JUMP JUMPDEST PUSH2 0x24DB DUP2 PUSH2 0x24C8 JUMP JUMPDEST DUP3 MSTORE POP POP JUMP JUMPDEST PUSH1 0x0 PUSH1 0x20 DUP3 ADD SWAP1 POP PUSH2 0x24F6 PUSH1 0x0 DUP4 ADD DUP5 PUSH2 0x24D2 JUMP JUMPDEST SWAP3 SWAP2 POP POP JUMP JUMPDEST PUSH1 0x0 PUSH20 0xFFFFFFFFFFFFFFFFFFFFFFFFFFFFFFFFFFFFFFFF DUP3 AND SWAP1 POP SWAP2 SWAP1 POP JUMP JUMPDEST PUSH1 0x0 PUSH2 0x2527 DUP3 PUSH2 0x24FC JUMP JUMPDEST SWAP1 POP SWAP2 SWAP1 POP JUMP JUMPDEST PUSH2 0x2537 DUP2 PUSH2 0x251C JUMP JUMPDEST DUP3 MSTORE POP POP JUMP JUMPDEST PUSH1 0x0 PUSH1 0x20 DUP3 ADD SWAP1 POP PUSH2 0x2552 PUSH1 0x0 DUP4 ADD DUP5 PUSH2 0x252E JUMP JUMPDEST SWAP3 SWAP2 POP POP JUMP JUMPDEST PUSH1 0x0 DUP1 REVERT JUMPDEST PUSH2 0x2566 DUP2 PUSH2 0x251C JUMP JUMPDEST DUP2 EQ PUSH2 0x2571 JUMPI PUSH1 0x0 DUP1 REVERT JUMPDEST POP JUMP JUMPDEST PUSH1 0x0 DUP2 CALLDATALOAD SWAP1 POP PUSH2 0x2583 DUP2 PUSH2 0x255D JUMP JUMPDEST SWAP3 SWAP2 POP POP JUMP JUMPDEST PUSH1 0x0 DUP1 PUSH1 0x40 DUP4 DUP6 SUB SLT ISZERO PUSH2 0x25A0 JUMPI PUSH2 0x259F PUSH2 0x2558 JUMP JUMPDEST JUMPDEST PUSH1 0x0 PUSH2 0x25AE DUP6 DUP3 DUP7 ADD PUSH2 0x2574 JUMP JUMPDEST SWAP3 POP POP PUSH1 0x20 PUSH2 0x25BF DUP6 DUP3 DUP7 ADD PUSH2 0x2574 JUMP JUMPDEST SWAP2 POP POP SWAP3 POP SWAP3 SWAP1 POP JUMP JUMPDEST PUSH1 0x0 PUSH1 0x20 DUP3 DUP5 SUB SLT ISZERO PUSH2 0x25DF JUMPI PUSH2 0x25DE PUSH2 0x2558 JUMP JUMPDEST JUMPDEST PUSH1 0x0 PUSH2 0x25ED DUP5 DUP3 DUP6 ADD PUSH2 0x2574 JUMP JUMPDEST SWAP2 POP POP SWAP3 SWAP2 POP POP JUMP JUMPDEST PUSH2 0x25FF DUP2 PUSH2 0x24C8 JUMP JUMPDEST DUP2 EQ PUSH2 0x260A JUMPI PUSH1 0x0 DUP1 REVERT JUMPDEST POP JUMP JUMPDEST PUSH1 0x0 DUP2 CALLDATALOAD SWAP1 POP PUSH2 0x261C DUP2 PUSH2 0x25F6 JUMP JUMPDEST SWAP3 SWAP2 POP POP JUMP JUMPDEST PUSH1 0x0 DUP2 ISZERO ISZERO SWAP1 POP SWAP2 SWAP1 POP JUMP JUMPDEST PUSH2 0x2637 DUP2 PUSH2 0x2622 JUMP JUMPDEST DUP2 EQ PUSH2 0x2642 JUMPI PUSH1 0x0 DUP1 REVERT JUMPDEST POP JUMP JUMPDEST PUSH1 0x0 DUP2 CALLDATALOAD SWAP1 POP PUSH2 0x2654 DUP2 PUSH2 0x262E JUMP JUMPDEST SWAP3 SWAP2 POP POP JUMP JUMPDEST PUSH1 0x0 DUP1 PUSH1 0x0 PUSH1 0x60 DUP5 DUP7 SUB SLT ISZERO PUSH2 0x2673 JUMPI PUSH2 0x2672 PUSH2 0x2558 JUMP JUMPDEST JUMPDEST PUSH1 0x0 PUSH2 0x2681 DUP7 DUP3 DUP8 ADD PUSH2 0x2574 JUMP JUMPDEST SWAP4 POP POP PUSH1 0x20 PUSH2 0x2692 DUP7 DUP3 DUP8 ADD PUSH2 0x260D JUMP JUMPDEST SWAP3 POP POP PUSH1 0x40 PUSH2 0x26A3 DUP7 DUP3 DUP8 ADD PUSH2 0x2645 JUMP JUMPDEST SWAP2 POP POP SWAP3 POP SWAP3 POP SWAP3 JUMP JUMPDEST PUSH1 0x0 DUP1 PUSH1 0x40 DUP4 DUP6 SUB SLT ISZERO PUSH2 0x26C4 JUMPI PUSH2 0x26C3 PUSH2 0x2558 JUMP JUMPDEST JUMPDEST PUSH1 0x0 PUSH2 0x26D2 DUP6 DUP3 DUP7 ADD PUSH2 0x2574 JUMP JUMPDEST SWAP3 POP POP PUSH1 0x20 PUSH2 0x26E3 DUP6 DUP3 DUP7 ADD PUSH2 0x260D JUMP JUMPDEST SWAP2 POP POP SWAP3 POP SWAP3 SWAP1 POP JUMP JUMPDEST PUSH1 0x0 PUSH1 0x20 DUP3 DUP5 SUB SLT ISZERO PUSH2 0x2703 JUMPI PUSH2 0x2702 PUSH2 0x2558 JUMP JUMPDEST JUMPDEST PUSH1 0x0 PUSH2 0x2711 DUP5 DUP3 DUP6 ADD PUSH2 0x260D JUMP JUMPDEST SWAP2 POP POP SWAP3 SWAP2 POP POP JUMP JUMPDEST PUSH1 0x0 PUSH1 0x80 DUP3 ADD SWAP1 POP PUSH2 0x272F PUSH1 0x0 DUP4 ADD DUP8 PUSH2 0x252E JUMP JUMPDEST PUSH2 0x273C PUSH1 0x20 DUP4 ADD DUP7 PUSH2 0x24D2 JUMP JUMPDEST PUSH2 0x2749 PUSH1 0x40 DUP4 ADD DUP6 PUSH2 0x24D2 JUMP JUMPDEST PUSH2 0x2756 PUSH1 0x60 DUP4 ADD DUP5 PUSH2 0x24D2 JUMP JUMPDEST SWAP6 SWAP5 POP POP POP POP POP JUMP JUMPDEST PUSH1 0x0 DUP1 PUSH1 0x40 DUP4 DUP6 SUB SLT ISZERO PUSH2 0x2776 JUMPI PUSH2 0x2775 PUSH2 0x2558 JUMP JUMPDEST JUMPDEST PUSH1 0x0 PUSH2 0x2784 DUP6 DUP3 DUP7 ADD PUSH2 0x260D JUMP JUMPDEST SWAP3 POP POP PUSH1 0x20 PUSH2 0x2795 DUP6 DUP3 DUP7 ADD PUSH2 0x2645 JUMP JUMPDEST SWAP2 POP POP SWAP3 POP SWAP3 SWAP1 POP JUMP JUMPDEST PUSH1 0x0 DUP1 PUSH1 0x40 DUP4 DUP6 SUB SLT ISZERO PUSH2 0x27B6 JUMPI PUSH2 0x27B5 PUSH2 0x2558 JUMP JUMPDEST JUMPDEST PUSH1 0x0 PUSH2 0x27C4 DUP6 DUP3 DUP7 ADD PUSH2 0x260D JUMP JUMPDEST SWAP3 POP POP PUSH1 0x20 PUSH2 0x27D5 DUP6 DUP3 DUP7 ADD PUSH2 0x2574 JUMP JUMPDEST SWAP2 POP POP SWAP3 POP SWAP3 SWAP1 POP JUMP JUMPDEST PUSH1 0x0 PUSH1 0x40 DUP3 ADD SWAP1 POP PUSH2 0x27F4 PUSH1 0x0 DUP4 ADD DUP6 PUSH2 0x24D2 JUMP JUMPDEST PUSH2 0x2801 PUSH1 0x20 DUP4 ADD DUP5 PUSH2 0x24D2 JUMP JUMPDEST SWAP4 SWAP3 POP POP POP JUMP JUMPDEST PUSH32 0x4E487B7100000000000000000000000000000000000000000000000000000000 PUSH1 0x0 MSTORE PUSH1 0x32 PUSH1 0x4 MSTORE PUSH1 0x24 PUSH1 0x0 REVERT JUMPDEST PUSH1 0x0 DUP3 DUP3 MSTORE PUSH1 0x20 DUP3 ADD SWAP1 POP SWAP3 SWAP2 POP POP JUMP JUMPDEST PUSH32 0x4E4F545F4F574E45520000000000000000000000000000000000000000000000 PUSH1 0x0 DUP3 ADD MSTORE POP JUMP JUMPDEST PUSH1 0x0 PUSH2 0x287E PUSH1 0x9 DUP4 PUSH2 0x2837 JUMP JUMPDEST SWAP2 POP PUSH2 0x2889 DUP3 PUSH2 0x2848 JUMP JUMPDEST PUSH1 0x20 DUP3 ADD SWAP1 POP SWAP2 SWAP1 POP JUMP JUMPDEST PUSH1 0x0 PUSH1 0x20 DUP3 ADD SWAP1 POP DUP2 DUP2 SUB PUSH1 0x0 DUP4 ADD MSTORE PUSH2 0x28AD DUP2 PUSH2 0x2871 JUMP JUMPDEST SWAP1 POP SWAP2 SWAP1 POP JUMP JUMPDEST PUSH32 0x4C5020546F6B656E204E6F742045786973740000000000000000000000000000 PUSH1 0x0 DUP3 ADD MSTORE POP JUMP JUMPDEST PUSH1 0x0 PUSH2 0x28EA PUSH1 0x12 DUP4 PUSH2 0x2837 JUMP JUMPDEST SWAP2 POP PUSH2 0x28F5 DUP3 PUSH2 0x28B4 JUMP JUMPDEST PUSH1 0x20 DUP3 ADD SWAP1 POP SWAP2 SWAP1 POP JUMP JUMPDEST PUSH1 0x0 PUSH1 0x20 DUP3 ADD SWAP1 POP DUP2 DUP2 SUB PUSH1 0x0 DUP4 ADD MSTORE PUSH2 0x2919 DUP2 PUSH2 0x28DD JUMP JUMPDEST SWAP1 POP SWAP2 SWAP1 POP JUMP JUMPDEST PUSH32 0x4E487B7100000000000000000000000000000000000000000000000000000000 PUSH1 0x0 MSTORE PUSH1 0x11 PUSH1 0x4 MSTORE PUSH1 0x24 PUSH1 0x0 REVERT JUMPDEST PUSH1 0x0 PUSH2 0x295A DUP3 PUSH2 0x24C8 JUMP JUMPDEST SWAP2 POP PUSH2 0x2965 DUP4 PUSH2 0x24C8 JUMP JUMPDEST SWAP3 POP DUP3 DUP3 LT ISZERO PUSH2 0x2978 JUMPI PUSH2 0x2977 PUSH2 0x2920 JUMP JUMPDEST JUMPDEST DUP3 DUP3 SUB SWAP1 POP SWAP3 SWAP2 POP POP JUMP JUMPDEST PUSH32 0x494E56414C49445F434C41494D00000000000000000000000000000000000000 PUSH1 0x0 DUP3 ADD MSTORE POP JUMP JUMPDEST PUSH1 0x0 PUSH2 0x29B9 PUSH1 0xD DUP4 PUSH2 0x2837 JUMP JUMPDEST SWAP2 POP PUSH2 0x29C4 DUP3 PUSH2 0x2983 JUMP JUMPDEST PUSH1 0x20 DUP3 ADD SWAP1 POP SWAP2 SWAP1 POP JUMP JUMPDEST PUSH1 0x0 PUSH1 0x20 DUP3 ADD SWAP1 POP DUP2 DUP2 SUB PUSH1 0x0 DUP4 ADD MSTORE PUSH2 0x29E8 DUP2 PUSH2 0x29AC JUMP JUMPDEST SWAP1 POP SWAP2 SWAP1 POP JUMP JUMPDEST PUSH1 0x0 DUP2 MLOAD SWAP1 POP PUSH2 0x29FE DUP2 PUSH2 0x25F6 JUMP JUMPDEST SWAP3 SWAP2 POP POP JUMP JUMPDEST PUSH1 0x0 PUSH1 0x20 DUP3 DUP5 SUB SLT ISZERO PUSH2 0x2A1A JUMPI PUSH2 0x2A19 PUSH2 0x2558 JUMP JUMPDEST JUMPDEST PUSH1 0x0 PUSH2 0x2A28 DUP5 DUP3 DUP6 ADD PUSH2 0x29EF JUMP JUMPDEST SWAP2 POP POP SWAP3 SWAP2 POP POP JUMP JUMPDEST PUSH1 0x0 PUSH2 0x2A3C DUP3 PUSH2 0x24C8 JUMP JUMPDEST SWAP2 POP PUSH32 0xFFFFFFFFFFFFFFFFFFFFFFFFFFFFFFFFFFFFFFFFFFFFFFFFFFFFFFFFFFFFFFFF DUP3 EQ ISZERO PUSH2 0x2A6F JUMPI PUSH2 0x2A6E PUSH2 0x2920 JUMP JUMPDEST JUMPDEST PUSH1 0x1 DUP3 ADD SWAP1 POP SWAP2 SWAP1 POP JUMP JUMPDEST PUSH32 0x4C5020546F6B656E20416C726561647920457869737400000000000000000000 PUSH1 0x0 DUP3 ADD MSTORE POP JUMP JUMPDEST PUSH1 0x0 PUSH2 0x2AB0 PUSH1 0x16 DUP4 PUSH2 0x2837 JUMP JUMPDEST SWAP2 POP PUSH2 0x2ABB DUP3 PUSH2 0x2A7A JUMP JUMPDEST PUSH1 0x20 DUP3 ADD SWAP1 POP SWAP2 SWAP1 POP JUMP JUMPDEST PUSH1 0x0 PUSH1 0x20 DUP3 ADD SWAP1 POP DUP2 DUP2 SUB PUSH1 0x0 DUP4 ADD MSTORE PUSH2 0x2ADF DUP2 PUSH2 0x2AA3 JUMP JUMPDEST SWAP1 POP SWAP2 SWAP1 POP JUMP JUMPDEST PUSH32 0x494E56414C49445F4F574E455200000000000000000000000000000000000000 PUSH1 0x0 DUP3 ADD MSTORE POP JUMP JUMPDEST PUSH1 0x0 PUSH2 0x2B1C PUSH1 0xD DUP4 PUSH2 0x2837 JUMP JUMPDEST SWAP2 POP PUSH2 0x2B27 DUP3 PUSH2 0x2AE6 JUMP JUMPDEST PUSH1 0x20 DUP3 ADD SWAP1 POP SWAP2 SWAP1 POP JUMP JUMPDEST PUSH1 0x0 PUSH1 0x20 DUP3 ADD SWAP1 POP DUP2 DUP2 SUB PUSH1 0x0 DUP4 ADD MSTORE PUSH2 0x2B4B DUP2 PUSH2 0x2B0F JUMP JUMPDEST SWAP1 POP SWAP2 SWAP1 POP JUMP JUMPDEST PUSH32 0x776974686472617720746F6F206D756368000000000000000000000000000000 PUSH1 0x0 DUP3 ADD MSTORE POP JUMP JUMPDEST PUSH1 0x0 PUSH2 0x2B88 PUSH1 0x11 DUP4 PUSH2 0x2837 JUMP JUMPDEST SWAP2 POP PUSH2 0x2B93 DUP3 PUSH2 0x2B52 JUMP JUMPDEST PUSH1 0x20 DUP3 ADD SWAP1 POP SWAP2 SWAP1 POP JUMP JUMPDEST PUSH1 0x0 PUSH1 0x20 DUP3 ADD SWAP1 POP DUP2 DUP2 SUB PUSH1 0x0 DUP4 ADD MSTORE PUSH2 0x2BB7 DUP2 PUSH2 0x2B7B JUMP JUMPDEST SWAP1 POP SWAP2 SWAP1 POP JUMP JUMPDEST PUSH32 0x4E487B7100000000000000000000000000000000000000000000000000000000 PUSH1 0x0 MSTORE PUSH1 0x12 PUSH1 0x4 MSTORE PUSH1 0x24 PUSH1 0x0 REVERT JUMPDEST PUSH1 0x0 PUSH2 0x2BF8 DUP3 PUSH2 0x24C8 JUMP JUMPDEST SWAP2 POP PUSH2 0x2C03 DUP4 PUSH2 0x24C8 JUMP JUMPDEST SWAP3 POP DUP3 PUSH2 0x2C13 JUMPI PUSH2 0x2C12 PUSH2 0x2BBE JUMP JUMPDEST JUMPDEST DUP3 DUP3 DIV SWAP1 POP SWAP3 SWAP2 POP POP JUMP JUMPDEST PUSH32 0x5355425F4552524F520000000000000000000000000000000000000000000000 PUSH1 0x0 DUP3 ADD MSTORE POP JUMP JUMPDEST PUSH1 0x0 PUSH2 0x2C54 PUSH1 0x9 DUP4 PUSH2 0x2837 JUMP JUMPDEST SWAP2 POP PUSH2 0x2C5F DUP3 PUSH2 0x2C1E JUMP JUMPDEST PUSH1 0x20 DUP3 ADD SWAP1 POP SWAP2 SWAP1 POP JUMP JUMPDEST PUSH1 0x0 PUSH1 0x20 DUP3 ADD SWAP1 POP DUP2 DUP2 SUB PUSH1 0x0 DUP4 ADD MSTORE PUSH2 0x2C83 DUP2 PUSH2 0x2C47 JUMP JUMPDEST SWAP1 POP SWAP2 SWAP1 POP JUMP JUMPDEST PUSH1 0x0 PUSH1 0x40 DUP3 ADD SWAP1 POP PUSH2 0x2C9F PUSH1 0x0 DUP4 ADD DUP6 PUSH2 0x252E JUMP JUMPDEST PUSH2 0x2CAC PUSH1 0x20 DUP4 ADD DUP5 PUSH2 0x24D2 JUMP JUMPDEST SWAP4 SWAP3 POP POP POP JUMP JUMPDEST PUSH1 0x0 PUSH2 0x2CBE DUP3 PUSH2 0x24C8 JUMP JUMPDEST SWAP2 POP PUSH2 0x2CC9 DUP4 PUSH2 0x24C8 JUMP JUMPDEST SWAP3 POP DUP3 PUSH32 0xFFFFFFFFFFFFFFFFFFFFFFFFFFFFFFFFFFFFFFFFFFFFFFFFFFFFFFFFFFFFFFFF SUB DUP3 GT ISZERO PUSH2 0x2CFE JUMPI PUSH2 0x2CFD PUSH2 0x2920 JUMP JUMPDEST JUMPDEST DUP3 DUP3 ADD SWAP1 POP SWAP3 SWAP2 POP POP JUMP JUMPDEST PUSH32 0x4144445F4552524F520000000000000000000000000000000000000000000000 PUSH1 0x0 DUP3 ADD MSTORE POP JUMP JUMPDEST PUSH1 0x0 PUSH2 0x2D3F PUSH1 0x9 DUP4 PUSH2 0x2837 JUMP JUMPDEST SWAP2 POP PUSH2 0x2D4A DUP3 PUSH2 0x2D09 JUMP JUMPDEST PUSH1 0x20 DUP3 ADD SWAP1 POP SWAP2 SWAP1 POP JUMP JUMPDEST PUSH1 0x0 PUSH1 0x20 DUP3 ADD SWAP1 POP DUP2 DUP2 SUB PUSH1 0x0 DUP4 ADD MSTORE PUSH2 0x2D6E DUP2 PUSH2 0x2D32 JUMP JUMPDEST SWAP1 POP SWAP2 SWAP1 POP JUMP JUMPDEST PUSH1 0x0 PUSH1 0x60 DUP3 ADD SWAP1 POP PUSH2 0x2D8A PUSH1 0x0 DUP4 ADD DUP7 PUSH2 0x252E JUMP JUMPDEST PUSH2 0x2D97 PUSH1 0x20 DUP4 ADD DUP6 PUSH2 0x252E JUMP JUMPDEST PUSH2 0x2DA4 PUSH1 0x40 DUP4 ADD DUP5 PUSH2 0x24D2 JUMP JUMPDEST SWAP5 SWAP4 POP POP POP POP JUMP JUMPDEST PUSH1 0x0 PUSH2 0x2DB7 DUP3 PUSH2 0x24C8 JUMP JUMPDEST SWAP2 POP PUSH2 0x2DC2 DUP4 PUSH2 0x24C8 JUMP JUMPDEST SWAP3 POP DUP2 PUSH32 0xFFFFFFFFFFFFFFFFFFFFFFFFFFFFFFFFFFFFFFFFFFFFFFFFFFFFFFFFFFFFFFFF DIV DUP4 GT DUP3 ISZERO ISZERO AND ISZERO PUSH2 0x2DFB JUMPI PUSH2 0x2DFA PUSH2 0x2920 JUMP JUMPDEST JUMPDEST DUP3 DUP3 MUL SWAP1 POP SWAP3 SWAP2 POP POP JUMP JUMPDEST PUSH32 0x4D554C5F4552524F520000000000000000000000000000000000000000000000 PUSH1 0x0 DUP3 ADD MSTORE POP JUMP JUMPDEST PUSH1 0x0 PUSH2 0x2E3C PUSH1 0x9 DUP4 PUSH2 0x2837 JUMP JUMPDEST SWAP2 POP PUSH2 0x2E47 DUP3 PUSH2 0x2E06 JUMP JUMPDEST PUSH1 0x20 DUP3 ADD SWAP1 POP SWAP2 SWAP1 POP JUMP JUMPDEST PUSH1 0x0 PUSH1 0x20 DUP3 ADD SWAP1 POP DUP2 DUP2 SUB PUSH1 0x0 DUP4 ADD MSTORE PUSH2 0x2E6B DUP2 PUSH2 0x2E2F JUMP JUMPDEST SWAP1 POP SWAP2 SWAP1 POP JUMP JUMPDEST PUSH32 0x4449564944494E475F4552524F52000000000000000000000000000000000000 PUSH1 0x0 DUP3 ADD MSTORE POP JUMP JUMPDEST PUSH1 0x0 PUSH2 0x2EA8 PUSH1 0xE DUP4 PUSH2 0x2837 JUMP JUMPDEST SWAP2 POP PUSH2 0x2EB3 DUP3 PUSH2 0x2E72 JUMP JUMPDEST PUSH1 0x20 DUP3 ADD SWAP1 POP SWAP2 SWAP1 POP JUMP JUMPDEST PUSH1 0x0 PUSH1 0x20 DUP3 ADD SWAP1 POP DUP2 DUP2 SUB PUSH1 0x0 DUP4 ADD MSTORE PUSH2 0x2ED7 DUP2 PUSH2 0x2E9B JUMP JUMPDEST SWAP1 POP SWAP2 SWAP1 POP JUMP JUMPDEST PUSH1 0x0 DUP2 MLOAD SWAP1 POP SWAP2 SWAP1 POP JUMP JUMPDEST PUSH1 0x0 DUP2 SWAP1 POP SWAP3 SWAP2 POP POP JUMP JUMPDEST PUSH1 0x0 JUMPDEST DUP4 DUP2 LT ISZERO PUSH2 0x2F12 JUMPI DUP1 DUP3 ADD MLOAD DUP2 DUP5 ADD MSTORE PUSH1 0x20 DUP2 ADD SWAP1 POP PUSH2 0x2EF7 JUMP JUMPDEST DUP4 DUP2 GT ISZERO PUSH2 0x2F21 JUMPI PUSH1 0x0 DUP5 DUP5 ADD MSTORE JUMPDEST POP POP POP POP JUMP JUMPDEST PUSH1 0x0 PUSH2 0x2F32 DUP3 PUSH2 0x2EDE JUMP JUMPDEST PUSH2 0x2F3C DUP2 DUP6 PUSH2 0x2EE9 JUMP JUMPDEST SWAP4 POP PUSH2 0x2F4C DUP2 DUP6 PUSH1 0x20 DUP7 ADD PUSH2 0x2EF4 JUMP JUMPDEST DUP1 DUP5 ADD SWAP2 POP POP SWAP3 SWAP2 POP POP JUMP JUMPDEST PUSH1 0x0 PUSH2 0x2F64 DUP3 DUP5 PUSH2 0x2F27 JUMP JUMPDEST SWAP2 POP DUP2 SWAP1 POP SWAP3 SWAP2 POP POP JUMP JUMPDEST PUSH32 0x5361666545524332303A206C6F772D6C6576656C2063616C6C206661696C6564 PUSH1 0x0 DUP3 ADD MSTORE POP JUMP JUMPDEST PUSH1 0x0 PUSH2 0x2FA5 PUSH1 0x20 DUP4 PUSH2 0x2837 JUMP JUMPDEST SWAP2 POP PUSH2 0x2FB0 DUP3 PUSH2 0x2F6F JUMP JUMPDEST PUSH1 0x20 DUP3 ADD SWAP1 POP SWAP2 SWAP1 POP JUMP JUMPDEST PUSH1 0x0 PUSH1 0x20 DUP3 ADD SWAP1 POP DUP2 DUP2 SUB PUSH1 0x0 DUP4 ADD MSTORE PUSH2 0x2FD4 DUP2 PUSH2 0x2F98 JUMP JUMPDEST SWAP1 POP SWAP2 SWAP1 POP JUMP JUMPDEST PUSH1 0x0 DUP2 MLOAD SWAP1 POP PUSH2 0x2FEA DUP2 PUSH2 0x262E JUMP JUMPDEST SWAP3 SWAP2 POP POP JUMP JUMPDEST PUSH1 0x0 PUSH1 0x20 DUP3 DUP5 SUB SLT ISZERO PUSH2 0x3006 JUMPI PUSH2 0x3005 PUSH2 0x2558 JUMP JUMPDEST JUMPDEST PUSH1 0x0 PUSH2 0x3014 DUP5 DUP3 DUP6 ADD PUSH2 0x2FDB JUMP JUMPDEST SWAP2 POP POP SWAP3 SWAP2 POP POP JUMP JUMPDEST PUSH32 0x5361666545524332303A204552433230206F7065726174696F6E20646964206E PUSH1 0x0 DUP3 ADD MSTORE PUSH32 0x6F74207375636365656400000000000000000000000000000000000000000000 PUSH1 0x20 DUP3 ADD MSTORE POP JUMP JUMPDEST PUSH1 0x0 PUSH2 0x3079 PUSH1 0x2A DUP4 PUSH2 0x2837 JUMP JUMPDEST SWAP2 POP PUSH2 0x3084 DUP3 PUSH2 0x301D JUMP JUMPDEST PUSH1 0x40 DUP3 ADD SWAP1 POP SWAP2 SWAP1 POP JUMP JUMPDEST PUSH1 0x0 PUSH1 0x20 DUP3 ADD SWAP1 POP DUP2 DUP2 SUB PUSH1 0x0 DUP4 ADD MSTORE PUSH2 0x30A8 DUP2 PUSH2 0x306C JUMP JUMPDEST SWAP1 POP SWAP2 SWAP1 POP JUMP INVALID LOG2 PUSH5 0x6970667358 0x22 SLT KECCAK256 0x2F PUSH5 0xA7339C27B5 0xE9 SWAP12 0xD2 0x25 0x4C 0xC2 SWAP14 RETURNDATACOPY EQ STATICCALL PUSH17 0x6C52D107FB1CDFB95B9518A73EAD64736F PUSH13 0x63430008090033608060405234 DUP1 ISZERO PUSH2 0x10 JUMPI PUSH1 0x0 DUP1 REVERT JUMPDEST POP PUSH1 0x40 MLOAD PUSH2 0xE33 CODESIZE SUB DUP1 PUSH2 0xE33 DUP4 CODECOPY DUP2 DUP2 ADD PUSH1 0x40 MSTORE DUP2 ADD SWAP1 PUSH2 0x32 SWAP2 SWAP1 PUSH2 0x197 JUMP JUMPDEST CALLER PUSH1 0x0 DUP1 PUSH2 0x100 EXP DUP2 SLOAD DUP2 PUSH20 0xFFFFFFFFFFFFFFFFFFFFFFFFFFFFFFFFFFFFFFFF MUL NOT AND SWAP1 DUP4 PUSH20 0xFFFFFFFFFFFFFFFFFFFFFFFFFFFFFFFFFFFFFFFF AND MUL OR SWAP1 SSTORE POP PUSH1 0x0 DUP1 SLOAD SWAP1 PUSH2 0x100 EXP SWAP1 DIV PUSH20 0xFFFFFFFFFFFFFFFFFFFFFFFFFFFFFFFFFFFFFFFF AND PUSH20 0xFFFFFFFFFFFFFFFFFFFFFFFFFFFFFFFFFFFFFFFF AND PUSH1 0x0 PUSH20 0xFFFFFFFFFFFFFFFFFFFFFFFFFFFFFFFFFFFFFFFF AND PUSH32 0x8BE0079C531659141344CD1FD0A4F28419497F9722A3DAAFE3B4186F6B6457E0 PUSH1 0x40 MLOAD PUSH1 0x40 MLOAD DUP1 SWAP2 SUB SWAP1 LOG3 DUP1 PUSH1 0x2 PUSH1 0x0 PUSH2 0x100 EXP DUP2 SLOAD DUP2 PUSH20 0xFFFFFFFFFFFFFFFFFFFFFFFFFFFFFFFFFFFFFFFF MUL NOT AND SWAP1 DUP4 PUSH20 0xFFFFFFFFFFFFFFFFFFFFFFFFFFFFFFFFFFFFFFFF AND MUL OR SWAP1 SSTORE POP POP PUSH2 0x1C4 JUMP JUMPDEST PUSH1 0x0 DUP1 REVERT JUMPDEST PUSH1 0x0 PUSH20 0xFFFFFFFFFFFFFFFFFFFFFFFFFFFFFFFFFFFFFFFF DUP3 AND SWAP1 POP SWAP2 SWAP1 POP JUMP JUMPDEST PUSH1 0x0 PUSH2 0x164 DUP3 PUSH2 0x139 JUMP JUMPDEST SWAP1 POP SWAP2 SWAP1 POP JUMP JUMPDEST PUSH2 0x174 DUP2 PUSH2 0x159 JUMP JUMPDEST DUP2 EQ PUSH2 0x17F JUMPI PUSH1 0x0 DUP1 REVERT JUMPDEST POP JUMP JUMPDEST PUSH1 0x0 DUP2 MLOAD SWAP1 POP PUSH2 0x191 DUP2 PUSH2 0x16B JUMP JUMPDEST SWAP3 SWAP2 POP POP JUMP JUMPDEST PUSH1 0x0 PUSH1 0x20 DUP3 DUP5 SUB SLT ISZERO PUSH2 0x1AD JUMPI PUSH2 0x1AC PUSH2 0x134 JUMP JUMPDEST JUMPDEST PUSH1 0x0 PUSH2 0x1BB DUP5 DUP3 DUP6 ADD PUSH2 0x182 JUMP JUMPDEST SWAP2 POP POP SWAP3 SWAP2 POP POP JUMP JUMPDEST PUSH2 0xC60 DUP1 PUSH2 0x1D3 PUSH1 0x0 CODECOPY PUSH1 0x0 RETURN INVALID PUSH1 0x80 PUSH1 0x40 MSTORE CALLVALUE DUP1 ISZERO PUSH2 0x10 JUMPI PUSH1 0x0 DUP1 REVERT JUMPDEST POP PUSH1 0x4 CALLDATASIZE LT PUSH2 0x62 JUMPI PUSH1 0x0 CALLDATALOAD PUSH1 0xE0 SHR DUP1 PUSH4 0x16048BC4 EQ PUSH2 0x67 JUMPI DUP1 PUSH4 0x21670F22 EQ PUSH2 0x85 JUMPI DUP1 PUSH4 0x4E71E0C8 EQ PUSH2 0xA1 JUMPI DUP1 PUSH4 0x75123FF9 EQ PUSH2 0xAB JUMPI DUP1 PUSH4 0x8456DB15 EQ PUSH2 0xC9 JUMPI DUP1 PUSH4 0xF2FDE38B EQ PUSH2 0xE7 JUMPI JUMPDEST PUSH1 0x0 DUP1 REVERT JUMPDEST PUSH2 0x6F PUSH2 0x103 JUMP JUMPDEST PUSH1 0x40 MLOAD PUSH2 0x7C SWAP2 SWAP1 PUSH2 0x7BA JUMP JUMPDEST PUSH1 0x40 MLOAD DUP1 SWAP2 SUB SWAP1 RETURN JUMPDEST PUSH2 0x9F PUSH1 0x4 DUP1 CALLDATASIZE SUB DUP2 ADD SWAP1 PUSH2 0x9A SWAP2 SWAP1 PUSH2 0x83C JUMP JUMPDEST PUSH2 0x127 JUMP JUMPDEST STOP JUMPDEST PUSH2 0xA9 PUSH2 0x206 JUMP JUMPDEST STOP JUMPDEST PUSH2 0xB3 PUSH2 0x3D8 JUMP JUMPDEST PUSH1 0x40 MLOAD PUSH2 0xC0 SWAP2 SWAP1 PUSH2 0x7BA JUMP JUMPDEST PUSH1 0x40 MLOAD DUP1 SWAP2 SUB SWAP1 RETURN JUMPDEST PUSH2 0xD1 PUSH2 0x3FE JUMP JUMPDEST PUSH1 0x40 MLOAD PUSH2 0xDE SWAP2 SWAP1 PUSH2 0x7BA JUMP JUMPDEST PUSH1 0x40 MLOAD DUP1 SWAP2 SUB SWAP1 RETURN JUMPDEST PUSH2 0x101 PUSH1 0x4 DUP1 CALLDATASIZE SUB DUP2 ADD SWAP1 PUSH2 0xFC SWAP2 SWAP1 PUSH2 0x87C JUMP JUMPDEST PUSH2 0x424 JUMP JUMPDEST STOP JUMPDEST PUSH1 0x0 DUP1 SLOAD SWAP1 PUSH2 0x100 EXP SWAP1 DIV PUSH20 0xFFFFFFFFFFFFFFFFFFFFFFFFFFFFFFFFFFFFFFFF AND DUP2 JUMP JUMPDEST PUSH1 0x0 DUP1 SLOAD SWAP1 PUSH2 0x100 EXP SWAP1 DIV PUSH20 0xFFFFFFFFFFFFFFFFFFFFFFFFFFFFFFFFFFFFFFFF AND PUSH20 0xFFFFFFFFFFFFFFFFFFFFFFFFFFFFFFFFFFFFFFFF AND CALLER PUSH20 0xFFFFFFFFFFFFFFFFFFFFFFFFFFFFFFFFFFFFFFFF AND EQ PUSH2 0x1B5 JUMPI PUSH1 0x40 MLOAD PUSH32 0x8C379A000000000000000000000000000000000000000000000000000000000 DUP2 MSTORE PUSH1 0x4 ADD PUSH2 0x1AC SWAP1 PUSH2 0x906 JUMP JUMPDEST PUSH1 0x40 MLOAD DUP1 SWAP2 SUB SWAP1 REVERT JUMPDEST PUSH2 0x202 DUP3 DUP3 PUSH1 0x2 PUSH1 0x0 SWAP1 SLOAD SWAP1 PUSH2 0x100 EXP SWAP1 DIV PUSH20 0xFFFFFFFFFFFFFFFFFFFFFFFFFFFFFFFFFFFFFFFF AND PUSH20 0xFFFFFFFFFFFFFFFFFFFFFFFFFFFFFFFFFFFFFFFF AND PUSH2 0x5E0 SWAP1 SWAP3 SWAP2 SWAP1 PUSH4 0xFFFFFFFF AND JUMP JUMPDEST POP POP JUMP JUMPDEST PUSH1 0x1 PUSH1 0x0 SWAP1 SLOAD SWAP1 PUSH2 0x100 EXP SWAP1 DIV PUSH20 0xFFFFFFFFFFFFFFFFFFFFFFFFFFFFFFFFFFFFFFFF AND PUSH20 0xFFFFFFFFFFFFFFFFFFFFFFFFFFFFFFFFFFFFFFFF AND CALLER PUSH20 0xFFFFFFFFFFFFFFFFFFFFFFFFFFFFFFFFFFFFFFFF AND EQ PUSH2 0x296 JUMPI PUSH1 0x40 MLOAD PUSH32 0x8C379A000000000000000000000000000000000000000000000000000000000 DUP2 MSTORE PUSH1 0x4 ADD PUSH2 0x28D SWAP1 PUSH2 0x972 JUMP JUMPDEST PUSH1 0x40 MLOAD DUP1 SWAP2 SUB SWAP1 REVERT JUMPDEST PUSH1 0x1 PUSH1 0x0 SWAP1 SLOAD SWAP1 PUSH2 0x100 EXP SWAP1 DIV PUSH20 0xFFFFFFFFFFFFFFFFFFFFFFFFFFFFFFFFFFFFFFFF AND PUSH20 0xFFFFFFFFFFFFFFFFFFFFFFFFFFFFFFFFFFFFFFFF AND PUSH1 0x0 DUP1 SLOAD SWAP1 PUSH2 0x100 EXP SWAP1 DIV PUSH20 0xFFFFFFFFFFFFFFFFFFFFFFFFFFFFFFFFFFFFFFFF AND PUSH20 0xFFFFFFFFFFFFFFFFFFFFFFFFFFFFFFFFFFFFFFFF AND PUSH32 0x8BE0079C531659141344CD1FD0A4F28419497F9722A3DAAFE3B4186F6B6457E0 PUSH1 0x40 MLOAD PUSH1 0x40 MLOAD DUP1 SWAP2 SUB SWAP1 LOG3 PUSH1 0x1 PUSH1 0x0 SWAP1 SLOAD SWAP1 PUSH2 0x100 EXP SWAP1 DIV PUSH20 0xFFFFFFFFFFFFFFFFFFFFFFFFFFFFFFFFFFFFFFFF AND PUSH1 0x0 DUP1 PUSH2 0x100 EXP DUP2 SLOAD DUP2 PUSH20 0xFFFFFFFFFFFFFFFFFFFFFFFFFFFFFFFFFFFFFFFF MUL NOT AND SWAP1 DUP4 PUSH20 0xFFFFFFFFFFFFFFFFFFFFFFFFFFFFFFFFFFFFFFFF AND MUL OR SWAP1 SSTORE POP PUSH1 0x0 PUSH1 0x1 PUSH1 0x0 PUSH2 0x100 EXP DUP2 SLOAD DUP2 PUSH20 0xFFFFFFFFFFFFFFFFFFFFFFFFFFFFFFFFFFFFFFFF MUL NOT AND SWAP1 DUP4 PUSH20 0xFFFFFFFFFFFFFFFFFFFFFFFFFFFFFFFFFFFFFFFF AND MUL OR SWAP1 SSTORE POP JUMP JUMPDEST PUSH1 0x2 PUSH1 0x0 SWAP1 SLOAD SWAP1 PUSH2 0x100 EXP SWAP1 DIV PUSH20 0xFFFFFFFFFFFFFFFFFFFFFFFFFFFFFFFFFFFFFFFF AND DUP2 JUMP JUMPDEST PUSH1 0x1 PUSH1 0x0 SWAP1 SLOAD SWAP1 PUSH2 0x100 EXP SWAP1 DIV PUSH20 0xFFFFFFFFFFFFFFFFFFFFFFFFFFFFFFFFFFFFFFFF AND DUP2 JUMP JUMPDEST PUSH1 0x0 DUP1 SLOAD SWAP1 PUSH2 0x100 EXP SWAP1 DIV PUSH20 0xFFFFFFFFFFFFFFFFFFFFFFFFFFFFFFFFFFFFFFFF AND PUSH20 0xFFFFFFFFFFFFFFFFFFFFFFFFFFFFFFFFFFFFFFFF AND CALLER PUSH20 0xFFFFFFFFFFFFFFFFFFFFFFFFFFFFFFFFFFFFFFFF AND EQ PUSH2 0x4B2 JUMPI PUSH1 0x40 MLOAD PUSH32 0x8C379A000000000000000000000000000000000000000000000000000000000 DUP2 MSTORE PUSH1 0x4 ADD PUSH2 0x4A9 SWAP1 PUSH2 0x906 JUMP JUMPDEST PUSH1 0x40 MLOAD DUP1 SWAP2 SUB SWAP1 REVERT JUMPDEST PUSH1 0x0 PUSH20 0xFFFFFFFFFFFFFFFFFFFFFFFFFFFFFFFFFFFFFFFF AND DUP2 PUSH20 0xFFFFFFFFFFFFFFFFFFFFFFFFFFFFFFFFFFFFFFFF AND EQ ISZERO PUSH2 0x522 JUMPI PUSH1 0x40 MLOAD PUSH32 0x8C379A000000000000000000000000000000000000000000000000000000000 DUP2 MSTORE PUSH1 0x4 ADD PUSH2 0x519 SWAP1 PUSH2 0x9DE JUMP JUMPDEST PUSH1 0x40 MLOAD DUP1 SWAP2 SUB SWAP1 REVERT JUMPDEST DUP1 PUSH20 0xFFFFFFFFFFFFFFFFFFFFFFFFFFFFFFFFFFFFFFFF AND PUSH1 0x0 DUP1 SLOAD SWAP1 PUSH2 0x100 EXP SWAP1 DIV PUSH20 0xFFFFFFFFFFFFFFFFFFFFFFFFFFFFFFFFFFFFFFFF AND PUSH20 0xFFFFFFFFFFFFFFFFFFFFFFFFFFFFFFFFFFFFFFFF AND PUSH32 0xDCF55418CEE3220104FEF63F979FF3C4097AD240C0C43DCB33CE837748983E62 PUSH1 0x40 MLOAD PUSH1 0x40 MLOAD DUP1 SWAP2 SUB SWAP1 LOG3 DUP1 PUSH1 0x1 PUSH1 0x0 PUSH2 0x100 EXP DUP2 SLOAD DUP2 PUSH20 0xFFFFFFFFFFFFFFFFFFFFFFFFFFFFFFFFFFFFFFFF MUL NOT AND SWAP1 DUP4 PUSH20 0xFFFFFFFFFFFFFFFFFFFFFFFFFFFFFFFFFFFFFFFF AND MUL OR SWAP1 SSTORE POP POP JUMP JUMPDEST PUSH2 0x661 DUP4 PUSH4 0xA9059CBB PUSH1 0xE0 SHL DUP5 DUP5 PUSH1 0x40 MLOAD PUSH1 0x24 ADD PUSH2 0x5FF SWAP3 SWAP2 SWAP1 PUSH2 0xA0D JUMP JUMPDEST PUSH1 0x40 MLOAD PUSH1 0x20 DUP2 DUP4 SUB SUB DUP2 MSTORE SWAP1 PUSH1 0x40 MSTORE SWAP1 PUSH28 0xFFFFFFFFFFFFFFFFFFFFFFFFFFFFFFFFFFFFFFFFFFFFFFFFFFFFFFFF NOT AND PUSH1 0x20 DUP3 ADD DUP1 MLOAD PUSH28 0xFFFFFFFFFFFFFFFFFFFFFFFFFFFFFFFFFFFFFFFFFFFFFFFFFFFFFFFF DUP4 DUP2 DUP4 AND OR DUP4 MSTORE POP POP POP POP PUSH2 0x666 JUMP JUMPDEST POP POP POP JUMP JUMPDEST PUSH1 0x0 DUP1 DUP4 PUSH20 0xFFFFFFFFFFFFFFFFFFFFFFFFFFFFFFFFFFFFFFFF AND DUP4 PUSH1 0x40 MLOAD PUSH2 0x68E SWAP2 SWAP1 PUSH2 0xAB0 JUMP JUMPDEST PUSH1 0x0 PUSH1 0x40 MLOAD DUP1 DUP4 SUB DUP2 PUSH1 0x0 DUP7 GAS CALL SWAP2 POP POP RETURNDATASIZE DUP1 PUSH1 0x0 DUP2 EQ PUSH2 0x6CB JUMPI PUSH1 0x40 MLOAD SWAP2 POP PUSH1 0x1F NOT PUSH1 0x3F RETURNDATASIZE ADD AND DUP3 ADD PUSH1 0x40 MSTORE RETURNDATASIZE DUP3 MSTORE RETURNDATASIZE PUSH1 0x0 PUSH1 0x20 DUP5 ADD RETURNDATACOPY PUSH2 0x6D0 JUMP JUMPDEST PUSH1 0x60 SWAP2 POP JUMPDEST POP SWAP2 POP SWAP2 POP DUP2 PUSH2 0x715 JUMPI PUSH1 0x40 MLOAD PUSH32 0x8C379A000000000000000000000000000000000000000000000000000000000 DUP2 MSTORE PUSH1 0x4 ADD PUSH2 0x70C SWAP1 PUSH2 0xB13 JUMP JUMPDEST PUSH1 0x40 MLOAD DUP1 SWAP2 SUB SWAP1 REVERT JUMPDEST PUSH1 0x0 DUP2 MLOAD GT ISZERO PUSH2 0x773 JUMPI DUP1 DUP1 PUSH1 0x20 ADD SWAP1 MLOAD DUP2 ADD SWAP1 PUSH2 0x733 SWAP2 SWAP1 PUSH2 0xB6B JUMP JUMPDEST PUSH2 0x772 JUMPI PUSH1 0x40 MLOAD PUSH32 0x8C379A000000000000000000000000000000000000000000000000000000000 DUP2 MSTORE PUSH1 0x4 ADD PUSH2 0x769 SWAP1 PUSH2 0xC0A JUMP JUMPDEST PUSH1 0x40 MLOAD DUP1 SWAP2 SUB SWAP1 REVERT JUMPDEST JUMPDEST POP POP POP POP JUMP JUMPDEST PUSH1 0x0 PUSH20 0xFFFFFFFFFFFFFFFFFFFFFFFFFFFFFFFFFFFFFFFF DUP3 AND SWAP1 POP SWAP2 SWAP1 POP JUMP JUMPDEST PUSH1 0x0 PUSH2 0x7A4 DUP3 PUSH2 0x779 JUMP JUMPDEST SWAP1 POP SWAP2 SWAP1 POP JUMP JUMPDEST PUSH2 0x7B4 DUP2 PUSH2 0x799 JUMP JUMPDEST DUP3 MSTORE POP POP JUMP JUMPDEST PUSH1 0x0 PUSH1 0x20 DUP3 ADD SWAP1 POP PUSH2 0x7CF PUSH1 0x0 DUP4 ADD DUP5 PUSH2 0x7AB JUMP JUMPDEST SWAP3 SWAP2 POP POP JUMP JUMPDEST PUSH1 0x0 DUP1 REVERT JUMPDEST PUSH2 0x7E3 DUP2 PUSH2 0x799 JUMP JUMPDEST DUP2 EQ PUSH2 0x7EE JUMPI PUSH1 0x0 DUP1 REVERT JUMPDEST POP JUMP JUMPDEST PUSH1 0x0 DUP2 CALLDATALOAD SWAP1 POP PUSH2 0x800 DUP2 PUSH2 0x7DA JUMP JUMPDEST SWAP3 SWAP2 POP POP JUMP JUMPDEST PUSH1 0x0 DUP2 SWAP1 POP SWAP2 SWAP1 POP JUMP JUMPDEST PUSH2 0x819 DUP2 PUSH2 0x806 JUMP JUMPDEST DUP2 EQ PUSH2 0x824 JUMPI PUSH1 0x0 DUP1 REVERT JUMPDEST POP JUMP JUMPDEST PUSH1 0x0 DUP2 CALLDATALOAD SWAP1 POP PUSH2 0x836 DUP2 PUSH2 0x810 JUMP JUMPDEST SWAP3 SWAP2 POP POP JUMP JUMPDEST PUSH1 0x0 DUP1 PUSH1 0x40 DUP4 DUP6 SUB SLT ISZERO PUSH2 0x853 JUMPI PUSH2 0x852 PUSH2 0x7D5 JUMP JUMPDEST JUMPDEST PUSH1 0x0 PUSH2 0x861 DUP6 DUP3 DUP7 ADD PUSH2 0x7F1 JUMP JUMPDEST SWAP3 POP POP PUSH1 0x20 PUSH2 0x872 DUP6 DUP3 DUP7 ADD PUSH2 0x827 JUMP JUMPDEST SWAP2 POP POP SWAP3 POP SWAP3 SWAP1 POP JUMP JUMPDEST PUSH1 0x0 PUSH1 0x20 DUP3 DUP5 SUB SLT ISZERO PUSH2 0x892 JUMPI PUSH2 0x891 PUSH2 0x7D5 JUMP JUMPDEST JUMPDEST PUSH1 0x0 PUSH2 0x8A0 DUP5 DUP3 DUP6 ADD PUSH2 0x7F1 JUMP JUMPDEST SWAP2 POP POP SWAP3 SWAP2 POP POP JUMP JUMPDEST PUSH1 0x0 DUP3 DUP3 MSTORE PUSH1 0x20 DUP3 ADD SWAP1 POP SWAP3 SWAP2 POP POP JUMP JUMPDEST PUSH32 0x4E4F545F4F574E45520000000000000000000000000000000000000000000000 PUSH1 0x0 DUP3 ADD MSTORE POP JUMP JUMPDEST PUSH1 0x0 PUSH2 0x8F0 PUSH1 0x9 DUP4 PUSH2 0x8A9 JUMP JUMPDEST SWAP2 POP PUSH2 0x8FB DUP3 PUSH2 0x8BA JUMP JUMPDEST PUSH1 0x20 DUP3 ADD SWAP1 POP SWAP2 SWAP1 POP JUMP JUMPDEST PUSH1 0x0 PUSH1 0x20 DUP3 ADD SWAP1 POP DUP2 DUP2 SUB PUSH1 0x0 DUP4 ADD MSTORE PUSH2 0x91F DUP2 PUSH2 0x8E3 JUMP JUMPDEST SWAP1 POP SWAP2 SWAP1 POP JUMP JUMPDEST PUSH32 0x494E56414C49445F434C41494D00000000000000000000000000000000000000 PUSH1 0x0 DUP3 ADD MSTORE POP JUMP JUMPDEST PUSH1 0x0 PUSH2 0x95C PUSH1 0xD DUP4 PUSH2 0x8A9 JUMP JUMPDEST SWAP2 POP PUSH2 0x967 DUP3 PUSH2 0x926 JUMP JUMPDEST PUSH1 0x20 DUP3 ADD SWAP1 POP SWAP2 SWAP1 POP JUMP JUMPDEST PUSH1 0x0 PUSH1 0x20 DUP3 ADD SWAP1 POP DUP2 DUP2 SUB PUSH1 0x0 DUP4 ADD MSTORE PUSH2 0x98B DUP2 PUSH2 0x94F JUMP JUMPDEST SWAP1 POP SWAP2 SWAP1 POP JUMP JUMPDEST PUSH32 0x494E56414C49445F4F574E455200000000000000000000000000000000000000 PUSH1 0x0 DUP3 ADD MSTORE POP JUMP JUMPDEST PUSH1 0x0 PUSH2 0x9C8 PUSH1 0xD DUP4 PUSH2 0x8A9 JUMP JUMPDEST SWAP2 POP PUSH2 0x9D3 DUP3 PUSH2 0x992 JUMP JUMPDEST PUSH1 0x20 DUP3 ADD SWAP1 POP SWAP2 SWAP1 POP JUMP JUMPDEST PUSH1 0x0 PUSH1 0x20 DUP3 ADD SWAP1 POP DUP2 DUP2 SUB PUSH1 0x0 DUP4 ADD MSTORE PUSH2 0x9F7 DUP2 PUSH2 0x9BB JUMP JUMPDEST SWAP1 POP SWAP2 SWAP1 POP JUMP JUMPDEST PUSH2 0xA07 DUP2 PUSH2 0x806 JUMP JUMPDEST DUP3 MSTORE POP POP JUMP JUMPDEST PUSH1 0x0 PUSH1 0x40 DUP3 ADD SWAP1 POP PUSH2 0xA22 PUSH1 0x0 DUP4 ADD DUP6 PUSH2 0x7AB JUMP JUMPDEST PUSH2 0xA2F PUSH1 0x20 DUP4 ADD DUP5 PUSH2 0x9FE JUMP JUMPDEST SWAP4 SWAP3 POP POP POP JUMP JUMPDEST PUSH1 0x0 DUP2 MLOAD SWAP1 POP SWAP2 SWAP1 POP JUMP JUMPDEST PUSH1 0x0 DUP2 SWAP1 POP SWAP3 SWAP2 POP POP JUMP JUMPDEST PUSH1 0x0 JUMPDEST DUP4 DUP2 LT ISZERO PUSH2 0xA6A JUMPI DUP1 DUP3 ADD MLOAD DUP2 DUP5 ADD MSTORE PUSH1 0x20 DUP2 ADD SWAP1 POP PUSH2 0xA4F JUMP JUMPDEST DUP4 DUP2 GT ISZERO PUSH2 0xA79 JUMPI PUSH1 0x0 DUP5 DUP5 ADD MSTORE JUMPDEST POP POP POP POP JUMP JUMPDEST PUSH1 0x0 PUSH2 0xA8A DUP3 PUSH2 0xA36 JUMP JUMPDEST PUSH2 0xA94 DUP2 DUP6 PUSH2 0xA41 JUMP JUMPDEST SWAP4 POP PUSH2 0xAA4 DUP2 DUP6 PUSH1 0x20 DUP7 ADD PUSH2 0xA4C JUMP JUMPDEST DUP1 DUP5 ADD SWAP2 POP POP SWAP3 SWAP2 POP POP JUMP JUMPDEST PUSH1 0x0 PUSH2 0xABC DUP3 DUP5 PUSH2 0xA7F JUMP JUMPDEST SWAP2 POP DUP2 SWAP1 POP SWAP3 SWAP2 POP POP JUMP JUMPDEST PUSH32 0x5361666545524332303A206C6F772D6C6576656C2063616C6C206661696C6564 PUSH1 0x0 DUP3 ADD MSTORE POP JUMP JUMPDEST PUSH1 0x0 PUSH2 0xAFD PUSH1 0x20 DUP4 PUSH2 0x8A9 JUMP JUMPDEST SWAP2 POP PUSH2 0xB08 DUP3 PUSH2 0xAC7 JUMP JUMPDEST PUSH1 0x20 DUP3 ADD SWAP1 POP SWAP2 SWAP1 POP JUMP JUMPDEST PUSH1 0x0 PUSH1 0x20 DUP3 ADD SWAP1 POP DUP2 DUP2 SUB PUSH1 0x0 DUP4 ADD MSTORE PUSH2 0xB2C DUP2 PUSH2 0xAF0 JUMP JUMPDEST SWAP1 POP SWAP2 SWAP1 POP JUMP JUMPDEST PUSH1 0x0 DUP2 ISZERO ISZERO SWAP1 POP SWAP2 SWAP1 POP JUMP JUMPDEST PUSH2 0xB48 DUP2 PUSH2 0xB33 JUMP JUMPDEST DUP2 EQ PUSH2 0xB53 JUMPI PUSH1 0x0 DUP1 REVERT JUMPDEST POP JUMP JUMPDEST PUSH1 0x0 DUP2 MLOAD SWAP1 POP PUSH2 0xB65 DUP2 PUSH2 0xB3F JUMP JUMPDEST SWAP3 SWAP2 POP POP JUMP JUMPDEST PUSH1 0x0 PUSH1 0x20 DUP3 DUP5 SUB SLT ISZERO PUSH2 0xB81 JUMPI PUSH2 0xB80 PUSH2 0x7D5 JUMP JUMPDEST JUMPDEST PUSH1 0x0 PUSH2 0xB8F DUP5 DUP3 DUP6 ADD PUSH2 0xB56 JUMP JUMPDEST SWAP2 POP POP SWAP3 SWAP2 POP POP JUMP JUMPDEST PUSH32 0x5361666545524332303A204552433230206F7065726174696F6E20646964206E PUSH1 0x0 DUP3 ADD MSTORE PUSH32 0x6F74207375636365656400000000000000000000000000000000000000000000 PUSH1 0x20 DUP3 ADD MSTORE POP JUMP JUMPDEST PUSH1 0x0 PUSH2 0xBF4 PUSH1 0x2A DUP4 PUSH2 0x8A9 JUMP JUMPDEST SWAP2 POP PUSH2 0xBFF DUP3 PUSH2 0xB98 JUMP JUMPDEST PUSH1 0x40 DUP3 ADD SWAP1 POP SWAP2 SWAP1 POP JUMP JUMPDEST PUSH1 0x0 PUSH1 0x20 DUP3 ADD SWAP1 POP DUP2 DUP2 SUB PUSH1 0x0 DUP4 ADD MSTORE PUSH2 0xC23 DUP2 PUSH2 0xBE7 JUMP JUMPDEST SWAP1 POP SWAP2 SWAP1 POP JUMP INVALID LOG2 PUSH5 0x6970667358 0x22 SLT KECCAK256 PUSH4 0xF1D6870F 0x26 0x5F PUSH6 0x6240A1299A5A PUSH26 0x4AC1D0417A521E920E1378E826A58FAB7064736F6C6343000809 STOP CALLER "
				},
				"gasEstimates": {
					"creation": {
						"codeDepositCost": "2503400",
						"executionCost": "infinite",
						"totalCost": "infinite"
					},
					"external": {
						"_NEW_OWNER_()": "2604",
						"_OWNER_()": "2580",
						"addLpToken(address,uint256,bool)": "infinite",
						"claim(address)": "infinite",
						"claimAll()": "infinite",
						"claimOwnership()": "58910",
						"deposit(address,uint256)": "infinite",
						"dodoPerBlock()": "2474",
						"dodoRewardVault()": "2603",
						"emergencyWithdraw(address)": "infinite",
						"getAllPendingReward(address)": "infinite",
						"getDlpMiningSpeed(address)": "infinite",
						"getPendingReward(address,address)": "infinite",
						"getPid(address)": "infinite",
						"getRealizedReward(address)": "2952",
						"getUserLpBalance(address,address)": "infinite",
						"lpTokenRegistry(address)": "2926",
						"massUpdatePools()": "infinite",
						"poolInfos(uint256)": "infinite",
						"poolLength()": "2492",
						"realizedReward(address)": "2881",
						"setLpToken(address,uint256,bool)": "infinite",
						"setReward(uint256,bool)": "infinite",
						"startBlock()": "2519",
						"totalAllocPoint()": "2520",
						"transferOwnership(address)": "30716",
						"updatePool(uint256)": "infinite",
						"userInfo(uint256,address)": "infinite",
						"withdraw(address,uint256)": "infinite",
						"withdrawAll(address)": "infinite"
					},
					"internal": {
						"safeDODOTransfer(address,uint256)": "infinite"
					}
				},
				"methodIdentifiers": {
					"_NEW_OWNER_()": "8456db15",
					"_OWNER_()": "16048bc4",
					"addLpToken(address,uint256,bool)": "bea006e0",
					"claim(address)": "1e83409a",
					"claimAll()": "d1058e59",
					"claimOwnership()": "4e71e0c8",
					"deposit(address,uint256)": "47e7ef24",
					"dodoPerBlock()": "8af70336",
					"dodoRewardVault()": "9599af13",
					"emergencyWithdraw(address)": "6ff1c9bc",
					"getAllPendingReward(address)": "f146b809",
					"getDlpMiningSpeed(address)": "fb7276f4",
					"getPendingReward(address,address)": "fe0f3a13",
					"getPid(address)": "43b55f35",
					"getRealizedReward(address)": "6dc2cc8c",
					"getUserLpBalance(address,address)": "19a78f55",
					"lpTokenRegistry(address)": "3d16433e",
					"massUpdatePools()": "630b5ba1",
					"poolInfos(uint256)": "689d84e4",
					"poolLength()": "081e3eda",
					"realizedReward(address)": "ec83a76a",
					"setLpToken(address,uint256,bool)": "34ea5389",
					"setReward(uint256,bool)": "7f10179f",
					"startBlock()": "48cd4cb1",
					"totalAllocPoint()": "17caf6f1",
					"transferOwnership(address)": "f2fde38b",
					"updatePool(uint256)": "51eb05a6",
					"userInfo(uint256,address)": "93f1a40b",
					"withdraw(address,uint256)": "f3fef3a3",
					"withdrawAll(address)": "fa09e630"
				}
			},
			"storageLayout": {
				"storage": [
					{
						"astId": 5,
						"contract": "contracts/DODOMine.sol:DODOMine",
						"label": "_OWNER_",
						"offset": 0,
						"slot": "0",
						"type": "t_address"
					},
					{
						"astId": 7,
						"contract": "contracts/DODOMine.sol:DODOMine",
						"label": "_NEW_OWNER_",
						"offset": 0,
						"slot": "1",
						"type": "t_address"
					},
					{
						"astId": 644,
						"contract": "contracts/DODOMine.sol:DODOMine",
						"label": "dodoRewardVault",
						"offset": 0,
						"slot": "2",
						"type": "t_address"
					},
					{
						"astId": 646,
						"contract": "contracts/DODOMine.sol:DODOMine",
						"label": "dodoPerBlock",
						"offset": 0,
						"slot": "3",
						"type": "t_uint256"
					},
					{
						"astId": 650,
						"contract": "contracts/DODOMine.sol:DODOMine",
						"label": "poolInfos",
						"offset": 0,
						"slot": "4",
						"type": "t_array(t_struct(PoolInfo)642_storage)dyn_storage"
					},
					{
						"astId": 654,
						"contract": "contracts/DODOMine.sol:DODOMine",
						"label": "lpTokenRegistry",
						"offset": 0,
						"slot": "5",
						"type": "t_mapping(t_address,t_uint256)"
					},
					{
						"astId": 661,
						"contract": "contracts/DODOMine.sol:DODOMine",
						"label": "userInfo",
						"offset": 0,
						"slot": "6",
						"type": "t_mapping(t_uint256,t_mapping(t_address,t_struct(UserInfo)633_storage))"
					},
					{
						"astId": 665,
						"contract": "contracts/DODOMine.sol:DODOMine",
						"label": "realizedReward",
						"offset": 0,
						"slot": "7",
						"type": "t_mapping(t_address,t_uint256)"
					},
					{
						"astId": 668,
						"contract": "contracts/DODOMine.sol:DODOMine",
						"label": "totalAllocPoint",
						"offset": 0,
						"slot": "8",
						"type": "t_uint256"
					},
					{
						"astId": 670,
						"contract": "contracts/DODOMine.sol:DODOMine",
						"label": "startBlock",
						"offset": 0,
						"slot": "9",
						"type": "t_uint256"
					}
				],
				"types": {
					"t_address": {
						"encoding": "inplace",
						"label": "address",
						"numberOfBytes": "20"
					},
					"t_array(t_struct(PoolInfo)642_storage)dyn_storage": {
						"base": "t_struct(PoolInfo)642_storage",
						"encoding": "dynamic_array",
						"label": "struct DODOMine.PoolInfo[]",
						"numberOfBytes": "32"
					},
					"t_mapping(t_address,t_struct(UserInfo)633_storage)": {
						"encoding": "mapping",
						"key": "t_address",
						"label": "mapping(address => struct DODOMine.UserInfo)",
						"numberOfBytes": "32",
						"value": "t_struct(UserInfo)633_storage"
					},
					"t_mapping(t_address,t_uint256)": {
						"encoding": "mapping",
						"key": "t_address",
						"label": "mapping(address => uint256)",
						"numberOfBytes": "32",
						"value": "t_uint256"
					},
					"t_mapping(t_uint256,t_mapping(t_address,t_struct(UserInfo)633_storage))": {
						"encoding": "mapping",
						"key": "t_uint256",
						"label": "mapping(uint256 => mapping(address => struct DODOMine.UserInfo))",
						"numberOfBytes": "32",
						"value": "t_mapping(t_address,t_struct(UserInfo)633_storage)"
					},
					"t_struct(PoolInfo)642_storage": {
						"encoding": "inplace",
						"label": "struct DODOMine.PoolInfo",
						"members": [
							{
								"astId": 635,
								"contract": "contracts/DODOMine.sol:DODOMine",
								"label": "lpToken",
								"offset": 0,
								"slot": "0",
								"type": "t_address"
							},
							{
								"astId": 637,
								"contract": "contracts/DODOMine.sol:DODOMine",
								"label": "allocPoint",
								"offset": 0,
								"slot": "1",
								"type": "t_uint256"
							},
							{
								"astId": 639,
								"contract": "contracts/DODOMine.sol:DODOMine",
								"label": "lastRewardBlock",
								"offset": 0,
								"slot": "2",
								"type": "t_uint256"
							},
							{
								"astId": 641,
								"contract": "contracts/DODOMine.sol:DODOMine",
								"label": "accDODOPerShare",
								"offset": 0,
								"slot": "3",
								"type": "t_uint256"
							}
						],
						"numberOfBytes": "128"
					},
					"t_struct(UserInfo)633_storage": {
						"encoding": "inplace",
						"label": "struct DODOMine.UserInfo",
						"members": [
							{
								"astId": 630,
								"contract": "contracts/DODOMine.sol:DODOMine",
								"label": "amount",
								"offset": 0,
								"slot": "0",
								"type": "t_uint256"
							},
							{
								"astId": 632,
								"contract": "contracts/DODOMine.sol:DODOMine",
								"label": "rewardDebt",
								"offset": 0,
								"slot": "1",
								"type": "t_uint256"
							}
						],
						"numberOfBytes": "64"
					},
					"t_uint256": {
						"encoding": "inplace",
						"label": "uint256",
						"numberOfBytes": "32"
					}
				}
			},
			"userdoc": {
				"kind": "user",
				"methods": {},
				"version": 1
			}
		}
	}
}