{
	"contracts/CrowdFundingSingleFile.sol": {
		"CrowdFundingSingleFile": {
			"abi": [
				{
					"inputs": [],
					"stateMutability": "nonpayable",
					"type": "constructor"
				},
				{
					"inputs": [
						{
							"internalType": "uint256",
							"name": "CampaignID",
							"type": "uint256"
						}
					],
					"name": "bid",
					"outputs": [],
					"stateMutability": "payable",
					"type": "function"
				},
				{
					"inputs": [
						{
							"internalType": "uint256",
							"name": "",
							"type": "uint256"
						},
						{
							"internalType": "address",
							"name": "",
							"type": "address"
						}
					],
					"name": "isPaticipated",
					"outputs": [
						{
							"internalType": "bool",
							"name": "",
							"type": "bool"
						}
					],
					"stateMutability": "view",
					"type": "function"
				},
				{
					"inputs": [
						{
							"internalType": "address payable",
							"name": "receiver",
							"type": "address"
						},
						{
							"internalType": "uint256",
							"name": "goal",
							"type": "uint256"
						}
					],
					"name": "newCampaign",
					"outputs": [
						{
							"internalType": "uint256",
							"name": "CampaignID",
							"type": "uint256"
						}
					],
					"stateMutability": "nonpayable",
					"type": "function"
				},
				{
					"inputs": [],
					"name": "numCampaigns",
					"outputs": [
						{
							"internalType": "uint256",
							"name": "",
							"type": "uint256"
						}
					],
					"stateMutability": "view",
					"type": "function"
				},
				{
					"inputs": [
						{
							"internalType": "uint256",
							"name": "CampaignID",
							"type": "uint256"
						}
					],
					"name": "withdraw",
					"outputs": [
						{
							"internalType": "bool",
							"name": "reached",
							"type": "bool"
						}
					],
					"stateMutability": "nonpayable",
					"type": "function"
				}
			],
			"devdoc": {
				"kind": "dev",
				"methods": {},
				"version": 1
			},
			"evm": {
				"assembly": "    /* \"contracts/CrowdFundingSingleFile.sol\":391:2459  contract CrowdFundingSingleFile {\r... */\n  mstore(0x40, 0xa0)\n    /* \"contracts/CrowdFundingSingleFile.sol\":911:962  constructor() {\r... */\n  callvalue\n  dup1\n  iszero\n  tag_1\n  jumpi\n  0x00\n  dup1\n  revert\ntag_1:\n  pop\n    /* \"contracts/CrowdFundingSingleFile.sol\":944:954  msg.sender */\n  caller\n    /* \"contracts/CrowdFundingSingleFile.sol\":936:954  owner = msg.sender */\n  0xffffffffffffffffffffffffffffffffffffffff\n  and\n  0x80\n  dup2\n  0xffffffffffffffffffffffffffffffffffffffff\n  and\n  0x60\n  shl\n  dup2\n  mstore\n  pop\n  pop\n    /* \"contracts/CrowdFundingSingleFile.sol\":391:2459  contract CrowdFundingSingleFile {\r... */\n  shr(0x60, mload(0x80))\n  codecopy(0x00, dataOffset(sub_0), dataSize(sub_0))\n  0x00\n  assignImmutable(\"0x2a80e1ef1d7842f27f2e6be0972bb708b9a135c38860dbe73c27c3486c34f4de\")\n  return(0x00, dataSize(sub_0))\nstop\n\nsub_0: assembly {\n        /* \"contracts/CrowdFundingSingleFile.sol\":391:2459  contract CrowdFundingSingleFile {\r... */\n      mstore(0x40, 0x80)\n      jumpi(tag_1, lt(calldatasize, 0x04))\n      shr(0xe0, calldataload(0x00))\n      dup1\n      0x2c0f7b6f\n      eq\n      tag_2\n      jumpi\n      dup1\n      0x2e1a7d4d\n      eq\n      tag_3\n      jumpi\n      dup1\n      0x454a2ab3\n      eq\n      tag_4\n      jumpi\n      dup1\n      0x72174d57\n      eq\n      tag_5\n      jumpi\n      dup1\n      0xf7572cf3\n      eq\n      tag_6\n      jumpi\n    tag_1:\n      0x00\n      dup1\n      revert\n        /* \"contracts/CrowdFundingSingleFile.sol\":727:751  uint public numCampaigns */\n    tag_2:\n      callvalue\n      dup1\n      iszero\n      tag_7\n      jumpi\n      0x00\n      dup1\n      revert\n    tag_7:\n      pop\n      tag_8\n      tag_9\n      jump\t// in\n    tag_8:\n      mload(0x40)\n      tag_10\n      swap2\n      swap1\n      tag_11\n      jump\t// in\n    tag_10:\n      mload(0x40)\n      dup1\n      swap2\n      sub\n      swap1\n      return\n        /* \"contracts/CrowdFundingSingleFile.sol\":2031:2456  function withdraw(uint CampaignID) external returns (bool reached) {\r... */\n    tag_3:\n      callvalue\n      dup1\n      iszero\n      tag_12\n      jumpi\n      0x00\n      dup1\n      revert\n    tag_12:\n      pop\n      tag_13\n      0x04\n      dup1\n      calldatasize\n      sub\n      dup2\n      add\n      swap1\n      tag_14\n      swap2\n      swap1\n      tag_15\n      jump\t// in\n    tag_14:\n      tag_16\n      jump\t// in\n    tag_13:\n      mload(0x40)\n      tag_17\n      swap2\n      swap1\n      tag_18\n      jump\t// in\n    tag_17:\n      mload(0x40)\n      dup1\n      swap2\n      sub\n      swap1\n      return\n        /* \"contracts/CrowdFundingSingleFile.sol\":1580:2023  function bid(uint CampaignID) external payable judgePaticipate(CampaignID) { // modifier的参数已经在函数定义时进行了定义\r... */\n    tag_4:\n      tag_19\n      0x04\n      dup1\n      calldatasize\n      sub\n      dup2\n      add\n      swap1\n      tag_20\n      swap2\n      swap1\n      tag_15\n      jump\t// in\n    tag_20:\n      tag_21\n      jump\t// in\n    tag_19:\n      stop\n        /* \"contracts/CrowdFundingSingleFile.sol\":840:902  mapping(uint => mapping(address => bool)) public isPaticipated */\n    tag_5:\n      callvalue\n      dup1\n      iszero\n      tag_22\n      jumpi\n      0x00\n      dup1\n      revert\n    tag_22:\n      pop\n      tag_23\n      0x04\n      dup1\n      calldatasize\n      sub\n      dup2\n      add\n      swap1\n      tag_24\n      swap2\n      swap1\n      tag_25\n      jump\t// in\n    tag_24:\n      tag_26\n      jump\t// in\n    tag_23:\n      mload(0x40)\n      tag_27\n      swap2\n      swap1\n      tag_18\n      jump\t// in\n    tag_27:\n      mload(0x40)\n      dup1\n      swap2\n      sub\n      swap1\n      return\n        /* \"contracts/CrowdFundingSingleFile.sol\":1240:1505  function newCampaign(address payable receiver, uint goal) external isOwner() returns (uint CampaignID) {\r... */\n    tag_6:\n      callvalue\n      dup1\n      iszero\n      tag_28\n      jumpi\n      0x00\n      dup1\n      revert\n    tag_28:\n      pop\n      tag_29\n      0x04\n      dup1\n      calldatasize\n      sub\n      dup2\n      add\n      swap1\n      tag_30\n      swap2\n      swap1\n      tag_31\n      jump\t// in\n    tag_30:\n      tag_32\n      jump\t// in\n    tag_29:\n      mload(0x40)\n      tag_33\n      swap2\n      swap1\n      tag_11\n      jump\t// in\n    tag_33:\n      mload(0x40)\n      dup1\n      swap2\n      sub\n      swap1\n      return\n        /* \"contracts/CrowdFundingSingleFile.sol\":727:751  uint public numCampaigns */\n    tag_9:\n      sload(0x00)\n      dup2\n      jump\t// out\n        /* \"contracts/CrowdFundingSingleFile.sol\":2031:2456  function withdraw(uint CampaignID) external returns (bool reached) {\r... */\n    tag_16:\n        /* \"contracts/CrowdFundingSingleFile.sol\":2084:2096  bool reached */\n      0x00\n        /* \"contracts/CrowdFundingSingleFile.sol\":2109:2127  Campaign storage c */\n      dup1\n        /* \"contracts/CrowdFundingSingleFile.sol\":2130:2139  campaigns */\n      0x01\n        /* \"contracts/CrowdFundingSingleFile.sol\":2130:2151  campaigns[CampaignID] */\n      0x00\n        /* \"contracts/CrowdFundingSingleFile.sol\":2140:2150  CampaignID */\n      dup5\n        /* \"contracts/CrowdFundingSingleFile.sol\":2130:2151  campaigns[CampaignID] */\n      dup2\n      mstore\n      0x20\n      add\n      swap1\n      dup2\n      mstore\n      0x20\n      add\n      0x00\n      keccak256\n        /* \"contracts/CrowdFundingSingleFile.sol\":2109:2151  Campaign storage c = campaigns[CampaignID] */\n      swap1\n      pop\n        /* \"contracts/CrowdFundingSingleFile.sol\":2189:2190  c */\n      dup1\n        /* \"contracts/CrowdFundingSingleFile.sol\":2189:2202  c.fundingGoal */\n      0x02\n      add\n      sload\n        /* \"contracts/CrowdFundingSingleFile.sol\":2167:2168  c */\n      dup2\n        /* \"contracts/CrowdFundingSingleFile.sol\":2167:2186  c.totalRaisedAmount */\n      0x03\n      add\n      sload\n        /* \"contracts/CrowdFundingSingleFile.sol\":2167:2202  c.totalRaisedAmount < c.fundingGoal */\n      lt\n        /* \"contracts/CrowdFundingSingleFile.sol\":2164:2229  if(c.totalRaisedAmount < c.fundingGoal)\r... */\n      iszero\n      tag_35\n      jumpi\n        /* \"contracts/CrowdFundingSingleFile.sol\":2224:2229  false */\n      0x00\n        /* \"contracts/CrowdFundingSingleFile.sol\":2217:2229  return false */\n      swap2\n      pop\n      pop\n      jump(tag_34)\n        /* \"contracts/CrowdFundingSingleFile.sol\":2164:2229  if(c.totalRaisedAmount < c.fundingGoal)\r... */\n    tag_35:\n        /* \"contracts/CrowdFundingSingleFile.sol\":2250:2261  uint amount */\n      0x00\n        /* \"contracts/CrowdFundingSingleFile.sol\":2264:2265  c */\n      dup2\n        /* \"contracts/CrowdFundingSingleFile.sol\":2264:2283  c.totalRaisedAmount */\n      0x03\n      add\n      sload\n        /* \"contracts/CrowdFundingSingleFile.sol\":2250:2283  uint amount = c.totalRaisedAmount */\n      swap1\n      pop\n        /* \"contracts/CrowdFundingSingleFile.sol\":2316:2317  0 */\n      0x00\n        /* \"contracts/CrowdFundingSingleFile.sol\":2294:2295  c */\n      dup3\n        /* \"contracts/CrowdFundingSingleFile.sol\":2294:2313  c.totalRaisedAmount */\n      0x03\n      add\n        /* \"contracts/CrowdFundingSingleFile.sol\":2294:2317  c.totalRaisedAmount = 0 */\n      dup2\n      swap1\n      sstore\n      pop\n        /* \"contracts/CrowdFundingSingleFile.sol\":2328:2329  c */\n      dup2\n        /* \"contracts/CrowdFundingSingleFile.sol\":2328:2338  c.receiver */\n      0x00\n      add\n      0x00\n      swap1\n      sload\n      swap1\n      0x0100\n      exp\n      swap1\n      div\n      0xffffffffffffffffffffffffffffffffffffffff\n      and\n        /* \"contracts/CrowdFundingSingleFile.sol\":2328:2347  c.receiver.transfer */\n      0xffffffffffffffffffffffffffffffffffffffff\n      and\n        /* \"contracts/CrowdFundingSingleFile.sol\":2328:2355  c.receiver.transfer(amount) */\n      0x08fc\n        /* \"contracts/CrowdFundingSingleFile.sol\":2348:2354  amount */\n      dup3\n        /* \"contracts/CrowdFundingSingleFile.sol\":2328:2355  c.receiver.transfer(amount) */\n      swap1\n      dup2\n      iszero\n      mul\n      swap1\n      mload(0x40)\n      0x00\n      mload(0x40)\n      dup1\n      dup4\n      sub\n      dup2\n      dup6\n      dup9\n      dup9\n      call\n      swap4\n      pop\n      pop\n      pop\n      pop\n      iszero\n      dup1\n      iszero\n      tag_37\n      jumpi\n      returndatasize\n      0x00\n      dup1\n      returndatacopy\n      revert(0x00, returndatasize)\n    tag_37:\n      pop\n        /* \"contracts/CrowdFundingSingleFile.sol\":2444:2448  true */\n      0x01\n        /* \"contracts/CrowdFundingSingleFile.sol\":2437:2448  return true */\n      swap3\n      pop\n      pop\n      pop\n        /* \"contracts/CrowdFundingSingleFile.sol\":2031:2456  function withdraw(uint CampaignID) external returns (bool reached) {\r... */\n    tag_34:\n      swap2\n      swap1\n      pop\n      jump\t// out\n        /* \"contracts/CrowdFundingSingleFile.sol\":1580:2023  function bid(uint CampaignID) external payable judgePaticipate(CampaignID) { // modifier的参数已经在函数定义时进行了定义\r... */\n    tag_21:\n        /* \"contracts/CrowdFundingSingleFile.sol\":1643:1653  CampaignID */\n      dup1\n        /* \"contracts/CrowdFundingSingleFile.sol\":1072:1077  false */\n      0x00\n        /* \"contracts/CrowdFundingSingleFile.sol\":1031:1077  isPaticipated[CampaignID][msg.sender] == false */\n      iszero\n      iszero\n        /* \"contracts/CrowdFundingSingleFile.sol\":1031:1044  isPaticipated */\n      0x03\n        /* \"contracts/CrowdFundingSingleFile.sol\":1031:1056  isPaticipated[CampaignID] */\n      0x00\n        /* \"contracts/CrowdFundingSingleFile.sol\":1045:1055  CampaignID */\n      dup4\n        /* \"contracts/CrowdFundingSingleFile.sol\":1031:1056  isPaticipated[CampaignID] */\n      dup2\n      mstore\n      0x20\n      add\n      swap1\n      dup2\n      mstore\n      0x20\n      add\n      0x00\n      keccak256\n        /* \"contracts/CrowdFundingSingleFile.sol\":1031:1068  isPaticipated[CampaignID][msg.sender] */\n      0x00\n        /* \"contracts/CrowdFundingSingleFile.sol\":1057:1067  msg.sender */\n      caller\n        /* \"contracts/CrowdFundingSingleFile.sol\":1031:1068  isPaticipated[CampaignID][msg.sender] */\n      0xffffffffffffffffffffffffffffffffffffffff\n      and\n      0xffffffffffffffffffffffffffffffffffffffff\n      and\n      dup2\n      mstore\n      0x20\n      add\n      swap1\n      dup2\n      mstore\n      0x20\n      add\n      0x00\n      keccak256\n      0x00\n      swap1\n      sload\n      swap1\n      0x0100\n      exp\n      swap1\n      div\n      0xff\n      and\n        /* \"contracts/CrowdFundingSingleFile.sol\":1031:1077  isPaticipated[CampaignID][msg.sender] == false */\n      iszero\n      iszero\n      eq\n        /* \"contracts/CrowdFundingSingleFile.sol\":1023:1078  require(isPaticipated[CampaignID][msg.sender] == false) */\n      tag_39\n      jumpi\n      0x00\n      dup1\n      revert\n    tag_39:\n        /* \"contracts/CrowdFundingSingleFile.sol\":1726:1744  Campaign storage c */\n      0x00\n        /* \"contracts/CrowdFundingSingleFile.sol\":1747:1756  campaigns */\n      0x01\n        /* \"contracts/CrowdFundingSingleFile.sol\":1747:1768  campaigns[CampaignID] */\n      0x00\n        /* \"contracts/CrowdFundingSingleFile.sol\":1757:1767  CampaignID */\n      dup5\n        /* \"contracts/CrowdFundingSingleFile.sol\":1747:1768  campaigns[CampaignID] */\n      dup2\n      mstore\n      0x20\n      add\n      swap1\n      dup2\n      mstore\n      0x20\n      add\n      0x00\n      keccak256\n        /* \"contracts/CrowdFundingSingleFile.sol\":1726:1768  Campaign storage c = campaigns[CampaignID] */\n      swap1\n      pop\n        /* \"contracts/CrowdFundingSingleFile.sol\":1802:1811  msg.value */\n      callvalue\n        /* \"contracts/CrowdFundingSingleFile.sol\":1779:1780  c */\n      dup2\n        /* \"contracts/CrowdFundingSingleFile.sol\":1779:1798  c.totalRaisedAmount */\n      0x03\n      add\n      0x00\n        /* \"contracts/CrowdFundingSingleFile.sol\":1779:1811  c.totalRaisedAmount += msg.value */\n      dup3\n      dup3\n      sload\n      tag_41\n      swap2\n      swap1\n      tag_42\n      jump\t// in\n    tag_41:\n      swap3\n      pop\n      pop\n      dup2\n      swap1\n      sstore\n      pop\n        /* \"contracts/CrowdFundingSingleFile.sol\":1838:1839  1 */\n      0x01\n        /* \"contracts/CrowdFundingSingleFile.sol\":1822:1823  c */\n      dup2\n        /* \"contracts/CrowdFundingSingleFile.sol\":1822:1834  c.numFunders */\n      0x01\n      add\n      0x00\n        /* \"contracts/CrowdFundingSingleFile.sol\":1822:1839  c.numFunders += 1 */\n      dup3\n      dup3\n      sload\n      tag_43\n      swap2\n      swap1\n      tag_42\n      jump\t// in\n    tag_43:\n      swap3\n      pop\n      pop\n      dup2\n      swap1\n      sstore\n      pop\n        /* \"contracts/CrowdFundingSingleFile.sol\":1852:1859  funders */\n      0x02\n        /* \"contracts/CrowdFundingSingleFile.sol\":1852:1871  funders[CampaignID] */\n      0x00\n        /* \"contracts/CrowdFundingSingleFile.sol\":1860:1870  CampaignID */\n      dup5\n        /* \"contracts/CrowdFundingSingleFile.sol\":1852:1871  funders[CampaignID] */\n      dup2\n      mstore\n      0x20\n      add\n      swap1\n      dup2\n      mstore\n      0x20\n      add\n      0x00\n      keccak256\n        /* \"contracts/CrowdFundingSingleFile.sol\":1877:1959  Funder({\r... */\n      mload(0x40)\n      dup1\n      0x40\n      add\n      0x40\n      mstore\n      dup1\n        /* \"contracts/CrowdFundingSingleFile.sol\":1905:1915  msg.sender */\n      caller\n        /* \"contracts/CrowdFundingSingleFile.sol\":1877:1959  Funder({\r... */\n      0xffffffffffffffffffffffffffffffffffffffff\n      and\n      dup2\n      mstore\n      0x20\n      add\n        /* \"contracts/CrowdFundingSingleFile.sol\":1938:1947  msg.value */\n      callvalue\n        /* \"contracts/CrowdFundingSingleFile.sol\":1877:1959  Funder({\r... */\n      dup2\n      mstore\n      pop\n        /* \"contracts/CrowdFundingSingleFile.sol\":1852:1960  funders[CampaignID].push(Funder({\r... */\n      swap1\n      dup1\n      0x01\n      dup2\n      sload\n      add\n      dup1\n      dup3\n      sstore\n      dup1\n      swap2\n      pop\n      pop\n      0x01\n      swap1\n      sub\n      swap1\n      0x00\n      mstore\n      keccak256(0x00, 0x20)\n      swap1\n      0x02\n      mul\n      add\n      0x00\n      swap1\n      swap2\n      swap1\n      swap2\n      swap1\n      swap2\n      pop\n      0x00\n      dup3\n      add\n      mload\n      dup2\n      0x00\n      add\n      exp(0x0100, 0x00)\n      dup2\n      sload\n      dup2\n      0xffffffffffffffffffffffffffffffffffffffff\n      mul\n      not\n      and\n      swap1\n      dup4\n      0xffffffffffffffffffffffffffffffffffffffff\n      and\n      mul\n      or\n      swap1\n      sstore\n      pop\n      0x20\n      dup3\n      add\n      mload\n      dup2\n      0x01\n      add\n      sstore\n      pop\n      pop\n        /* \"contracts/CrowdFundingSingleFile.sol\":2011:2015  true */\n      0x01\n        /* \"contracts/CrowdFundingSingleFile.sol\":1971:1984  isPaticipated */\n      0x03\n        /* \"contracts/CrowdFundingSingleFile.sol\":1971:1996  isPaticipated[CampaignID] */\n      0x00\n        /* \"contracts/CrowdFundingSingleFile.sol\":1985:1995  CampaignID */\n      dup6\n        /* \"contracts/CrowdFundingSingleFile.sol\":1971:1996  isPaticipated[CampaignID] */\n      dup2\n      mstore\n      0x20\n      add\n      swap1\n      dup2\n      mstore\n      0x20\n      add\n      0x00\n      keccak256\n        /* \"contracts/CrowdFundingSingleFile.sol\":1971:2008  isPaticipated[CampaignID][msg.sender] */\n      0x00\n        /* \"contracts/CrowdFundingSingleFile.sol\":1997:2007  msg.sender */\n      caller\n        /* \"contracts/CrowdFundingSingleFile.sol\":1971:2008  isPaticipated[CampaignID][msg.sender] */\n      0xffffffffffffffffffffffffffffffffffffffff\n      and\n      0xffffffffffffffffffffffffffffffffffffffff\n      and\n      dup2\n      mstore\n      0x20\n      add\n      swap1\n      dup2\n      mstore\n      0x20\n      add\n      0x00\n      keccak256\n      0x00\n        /* \"contracts/CrowdFundingSingleFile.sol\":1971:2015  isPaticipated[CampaignID][msg.sender] = true */\n      0x0100\n      exp\n      dup2\n      sload\n      dup2\n      0xff\n      mul\n      not\n      and\n      swap1\n      dup4\n      iszero\n      iszero\n      mul\n      or\n      swap1\n      sstore\n      pop\n        /* \"contracts/CrowdFundingSingleFile.sol\":1655:2023  { // modifier的参数已经在函数定义时进行了定义\r... */\n      pop\n        /* \"contracts/CrowdFundingSingleFile.sol\":1580:2023  function bid(uint CampaignID) external payable judgePaticipate(CampaignID) { // modifier的参数已经在函数定义时进行了定义\r... */\n      pop\n      pop\n      jump\t// out\n        /* \"contracts/CrowdFundingSingleFile.sol\":840:902  mapping(uint => mapping(address => bool)) public isPaticipated */\n    tag_26:\n      mstore(0x20, 0x03)\n      dup2\n      0x00\n      mstore\n      mstore(0x20, keccak256(0x00, 0x40))\n      dup1\n      0x00\n      mstore\n      keccak256(0x00, 0x40)\n      0x00\n      swap2\n      pop\n      swap2\n      pop\n      swap1\n      sload\n      swap1\n      0x0100\n      exp\n      swap1\n      div\n      0xff\n      and\n      dup2\n      jump\t// out\n        /* \"contracts/CrowdFundingSingleFile.sol\":1240:1505  function newCampaign(address payable receiver, uint goal) external isOwner() returns (uint CampaignID) {\r... */\n    tag_32:\n        /* \"contracts/CrowdFundingSingleFile.sol\":1326:1341  uint CampaignID */\n      0x00\n        /* \"contracts/CrowdFundingSingleFile.sol\":1198:1203  owner */\n      immutable(\"0x2a80e1ef1d7842f27f2e6be0972bb708b9a135c38860dbe73c27c3486c34f4de\")\n        /* \"contracts/CrowdFundingSingleFile.sol\":1184:1203  msg.sender == owner */\n      0xffffffffffffffffffffffffffffffffffffffff\n      and\n        /* \"contracts/CrowdFundingSingleFile.sol\":1184:1194  msg.sender */\n      caller\n        /* \"contracts/CrowdFundingSingleFile.sol\":1184:1203  msg.sender == owner */\n      0xffffffffffffffffffffffffffffffffffffffff\n      and\n      eq\n        /* \"contracts/CrowdFundingSingleFile.sol\":1176:1204  require(msg.sender == owner) */\n      tag_46\n      jumpi\n      0x00\n      dup1\n      revert\n    tag_46:\n        /* \"contracts/CrowdFundingSingleFile.sol\":1367:1379  numCampaigns */\n      0x00\n      dup1\n        /* \"contracts/CrowdFundingSingleFile.sol\":1367:1381  numCampaigns++ */\n      dup2\n      sload\n      dup1\n      swap3\n      swap2\n      swap1\n      tag_48\n      swap1\n      tag_49\n      jump\t// in\n    tag_48:\n      swap2\n      swap1\n      pop\n      sstore\n        /* \"contracts/CrowdFundingSingleFile.sol\":1354:1381  CampaignID = numCampaigns++ */\n      swap1\n      pop\n        /* \"contracts/CrowdFundingSingleFile.sol\":1392:1410  Campaign storage c */\n      0x00\n        /* \"contracts/CrowdFundingSingleFile.sol\":1413:1422  campaigns */\n      0x01\n        /* \"contracts/CrowdFundingSingleFile.sol\":1413:1434  campaigns[CampaignID] */\n      0x00\n        /* \"contracts/CrowdFundingSingleFile.sol\":1423:1433  CampaignID */\n      dup4\n        /* \"contracts/CrowdFundingSingleFile.sol\":1413:1434  campaigns[CampaignID] */\n      dup2\n      mstore\n      0x20\n      add\n      swap1\n      dup2\n      mstore\n      0x20\n      add\n      0x00\n      keccak256\n        /* \"contracts/CrowdFundingSingleFile.sol\":1392:1434  Campaign storage c = campaigns[CampaignID] */\n      swap1\n      pop\n        /* \"contracts/CrowdFundingSingleFile.sol\":1458:1466  receiver */\n      dup4\n        /* \"contracts/CrowdFundingSingleFile.sol\":1445:1446  c */\n      dup2\n        /* \"contracts/CrowdFundingSingleFile.sol\":1445:1455  c.receiver */\n      0x00\n      add\n      0x00\n        /* \"contracts/CrowdFundingSingleFile.sol\":1445:1466  c.receiver = receiver */\n      0x0100\n      exp\n      dup2\n      sload\n      dup2\n      0xffffffffffffffffffffffffffffffffffffffff\n      mul\n      not\n      and\n      swap1\n      dup4\n      0xffffffffffffffffffffffffffffffffffffffff\n      and\n      mul\n      or\n      swap1\n      sstore\n      pop\n        /* \"contracts/CrowdFundingSingleFile.sol\":1493:1497  goal */\n      dup3\n        /* \"contracts/CrowdFundingSingleFile.sol\":1477:1478  c */\n      dup2\n        /* \"contracts/CrowdFundingSingleFile.sol\":1477:1490  c.fundingGoal */\n      0x02\n      add\n        /* \"contracts/CrowdFundingSingleFile.sol\":1477:1497  c.fundingGoal = goal */\n      dup2\n      swap1\n      sstore\n      pop\n        /* \"contracts/CrowdFundingSingleFile.sol\":1343:1505  {\r... */\n      pop\n        /* \"contracts/CrowdFundingSingleFile.sol\":1240:1505  function newCampaign(address payable receiver, uint goal) external isOwner() returns (uint CampaignID) {\r... */\n      swap3\n      swap2\n      pop\n      pop\n      jump\t// out\n        /* \"#utility.yul\":7:146   */\n    tag_51:\n        /* \"#utility.yul\":53:58   */\n      0x00\n        /* \"#utility.yul\":91:97   */\n      dup2\n        /* \"#utility.yul\":78:98   */\n      calldataload\n        /* \"#utility.yul\":69:98   */\n      swap1\n      pop\n        /* \"#utility.yul\":107:140   */\n      tag_53\n        /* \"#utility.yul\":134:139   */\n      dup2\n        /* \"#utility.yul\":107:140   */\n      tag_54\n      jump\t// in\n    tag_53:\n        /* \"#utility.yul\":7:146   */\n      swap3\n      swap2\n      pop\n      pop\n      jump\t// out\n        /* \"#utility.yul\":152:307   */\n    tag_55:\n        /* \"#utility.yul\":206:211   */\n      0x00\n        /* \"#utility.yul\":244:250   */\n      dup2\n        /* \"#utility.yul\":231:251   */\n      calldataload\n        /* \"#utility.yul\":222:251   */\n      swap1\n      pop\n        /* \"#utility.yul\":260:301   */\n      tag_57\n        /* \"#utility.yul\":295:300   */\n      dup2\n        /* \"#utility.yul\":260:301   */\n      tag_58\n      jump\t// in\n    tag_57:\n        /* \"#utility.yul\":152:307   */\n      swap3\n      swap2\n      pop\n      pop\n      jump\t// out\n        /* \"#utility.yul\":313:452   */\n    tag_59:\n        /* \"#utility.yul\":359:364   */\n      0x00\n        /* \"#utility.yul\":397:403   */\n      dup2\n        /* \"#utility.yul\":384:404   */\n      calldataload\n        /* \"#utility.yul\":375:404   */\n      swap1\n      pop\n        /* \"#utility.yul\":413:446   */\n      tag_61\n        /* \"#utility.yul\":440:445   */\n      dup2\n        /* \"#utility.yul\":413:446   */\n      tag_62\n      jump\t// in\n    tag_61:\n        /* \"#utility.yul\":313:452   */\n      swap3\n      swap2\n      pop\n      pop\n      jump\t// out\n        /* \"#utility.yul\":458:948   */\n    tag_31:\n        /* \"#utility.yul\":534:540   */\n      0x00\n        /* \"#utility.yul\":542:548   */\n      dup1\n        /* \"#utility.yul\":591:593   */\n      0x40\n        /* \"#utility.yul\":579:588   */\n      dup4\n        /* \"#utility.yul\":570:577   */\n      dup6\n        /* \"#utility.yul\":566:589   */\n      sub\n        /* \"#utility.yul\":562:594   */\n      slt\n        /* \"#utility.yul\":559:678   */\n      iszero\n      tag_64\n      jumpi\n        /* \"#utility.yul\":597:676   */\n      tag_65\n      tag_66\n      jump\t// in\n    tag_65:\n        /* \"#utility.yul\":559:678   */\n    tag_64:\n        /* \"#utility.yul\":717:718   */\n      0x00\n        /* \"#utility.yul\":742:803   */\n      tag_67\n        /* \"#utility.yul\":795:802   */\n      dup6\n        /* \"#utility.yul\":786:792   */\n      dup3\n        /* \"#utility.yul\":775:784   */\n      dup7\n        /* \"#utility.yul\":771:793   */\n      add\n        /* \"#utility.yul\":742:803   */\n      tag_55\n      jump\t// in\n    tag_67:\n        /* \"#utility.yul\":732:803   */\n      swap3\n      pop\n        /* \"#utility.yul\":688:813   */\n      pop\n        /* \"#utility.yul\":852:854   */\n      0x20\n        /* \"#utility.yul\":878:931   */\n      tag_68\n        /* \"#utility.yul\":923:930   */\n      dup6\n        /* \"#utility.yul\":914:920   */\n      dup3\n        /* \"#utility.yul\":903:912   */\n      dup7\n        /* \"#utility.yul\":899:921   */\n      add\n        /* \"#utility.yul\":878:931   */\n      tag_59\n      jump\t// in\n    tag_68:\n        /* \"#utility.yul\":868:931   */\n      swap2\n      pop\n        /* \"#utility.yul\":823:941   */\n      pop\n        /* \"#utility.yul\":458:948   */\n      swap3\n      pop\n      swap3\n      swap1\n      pop\n      jump\t// out\n        /* \"#utility.yul\":954:1283   */\n    tag_15:\n        /* \"#utility.yul\":1013:1019   */\n      0x00\n        /* \"#utility.yul\":1062:1064   */\n      0x20\n        /* \"#utility.yul\":1050:1059   */\n      dup3\n        /* \"#utility.yul\":1041:1048   */\n      dup5\n        /* \"#utility.yul\":1037:1060   */\n      sub\n        /* \"#utility.yul\":1033:1065   */\n      slt\n        /* \"#utility.yul\":1030:1149   */\n      iszero\n      tag_70\n      jumpi\n        /* \"#utility.yul\":1068:1147   */\n      tag_71\n      tag_66\n      jump\t// in\n    tag_71:\n        /* \"#utility.yul\":1030:1149   */\n    tag_70:\n        /* \"#utility.yul\":1188:1189   */\n      0x00\n        /* \"#utility.yul\":1213:1266   */\n      tag_72\n        /* \"#utility.yul\":1258:1265   */\n      dup5\n        /* \"#utility.yul\":1249:1255   */\n      dup3\n        /* \"#utility.yul\":1238:1247   */\n      dup6\n        /* \"#utility.yul\":1234:1256   */\n      add\n        /* \"#utility.yul\":1213:1266   */\n      tag_59\n      jump\t// in\n    tag_72:\n        /* \"#utility.yul\":1203:1266   */\n      swap2\n      pop\n        /* \"#utility.yul\":1159:1276   */\n      pop\n        /* \"#utility.yul\":954:1283   */\n      swap3\n      swap2\n      pop\n      pop\n      jump\t// out\n        /* \"#utility.yul\":1289:1763   */\n    tag_25:\n        /* \"#utility.yul\":1357:1363   */\n      0x00\n        /* \"#utility.yul\":1365:1371   */\n      dup1\n        /* \"#utility.yul\":1414:1416   */\n      0x40\n        /* \"#utility.yul\":1402:1411   */\n      dup4\n        /* \"#utility.yul\":1393:1400   */\n      dup6\n        /* \"#utility.yul\":1389:1412   */\n      sub\n        /* \"#utility.yul\":1385:1417   */\n      slt\n        /* \"#utility.yul\":1382:1501   */\n      iszero\n      tag_74\n      jumpi\n        /* \"#utility.yul\":1420:1499   */\n      tag_75\n      tag_66\n      jump\t// in\n    tag_75:\n        /* \"#utility.yul\":1382:1501   */\n    tag_74:\n        /* \"#utility.yul\":1540:1541   */\n      0x00\n        /* \"#utility.yul\":1565:1618   */\n      tag_76\n        /* \"#utility.yul\":1610:1617   */\n      dup6\n        /* \"#utility.yul\":1601:1607   */\n      dup3\n        /* \"#utility.yul\":1590:1599   */\n      dup7\n        /* \"#utility.yul\":1586:1608   */\n      add\n        /* \"#utility.yul\":1565:1618   */\n      tag_59\n      jump\t// in\n    tag_76:\n        /* \"#utility.yul\":1555:1618   */\n      swap3\n      pop\n        /* \"#utility.yul\":1511:1628   */\n      pop\n        /* \"#utility.yul\":1667:1669   */\n      0x20\n        /* \"#utility.yul\":1693:1746   */\n      tag_77\n        /* \"#utility.yul\":1738:1745   */\n      dup6\n        /* \"#utility.yul\":1729:1735   */\n      dup3\n        /* \"#utility.yul\":1718:1727   */\n      dup7\n        /* \"#utility.yul\":1714:1736   */\n      add\n        /* \"#utility.yul\":1693:1746   */\n      tag_51\n      jump\t// in\n    tag_77:\n        /* \"#utility.yul\":1683:1746   */\n      swap2\n      pop\n        /* \"#utility.yul\":1638:1756   */\n      pop\n        /* \"#utility.yul\":1289:1763   */\n      swap3\n      pop\n      swap3\n      swap1\n      pop\n      jump\t// out\n        /* \"#utility.yul\":1769:1878   */\n    tag_78:\n        /* \"#utility.yul\":1850:1871   */\n      tag_80\n        /* \"#utility.yul\":1865:1870   */\n      dup2\n        /* \"#utility.yul\":1850:1871   */\n      tag_81\n      jump\t// in\n    tag_80:\n        /* \"#utility.yul\":1845:1848   */\n      dup3\n        /* \"#utility.yul\":1838:1872   */\n      mstore\n        /* \"#utility.yul\":1769:1878   */\n      pop\n      pop\n      jump\t// out\n        /* \"#utility.yul\":1884:2002   */\n    tag_82:\n        /* \"#utility.yul\":1971:1995   */\n      tag_84\n        /* \"#utility.yul\":1989:1994   */\n      dup2\n        /* \"#utility.yul\":1971:1995   */\n      tag_85\n      jump\t// in\n    tag_84:\n        /* \"#utility.yul\":1966:1969   */\n      dup3\n        /* \"#utility.yul\":1959:1996   */\n      mstore\n        /* \"#utility.yul\":1884:2002   */\n      pop\n      pop\n      jump\t// out\n        /* \"#utility.yul\":2008:2218   */\n    tag_18:\n        /* \"#utility.yul\":2095:2099   */\n      0x00\n        /* \"#utility.yul\":2133:2135   */\n      0x20\n        /* \"#utility.yul\":2122:2131   */\n      dup3\n        /* \"#utility.yul\":2118:2136   */\n      add\n        /* \"#utility.yul\":2110:2136   */\n      swap1\n      pop\n        /* \"#utility.yul\":2146:2211   */\n      tag_87\n        /* \"#utility.yul\":2208:2209   */\n      0x00\n        /* \"#utility.yul\":2197:2206   */\n      dup4\n        /* \"#utility.yul\":2193:2210   */\n      add\n        /* \"#utility.yul\":2184:2190   */\n      dup5\n        /* \"#utility.yul\":2146:2211   */\n      tag_78\n      jump\t// in\n    tag_87:\n        /* \"#utility.yul\":2008:2218   */\n      swap3\n      swap2\n      pop\n      pop\n      jump\t// out\n        /* \"#utility.yul\":2224:2446   */\n    tag_11:\n        /* \"#utility.yul\":2317:2321   */\n      0x00\n        /* \"#utility.yul\":2355:2357   */\n      0x20\n        /* \"#utility.yul\":2344:2353   */\n      dup3\n        /* \"#utility.yul\":2340:2358   */\n      add\n        /* \"#utility.yul\":2332:2358   */\n      swap1\n      pop\n        /* \"#utility.yul\":2368:2439   */\n      tag_89\n        /* \"#utility.yul\":2436:2437   */\n      0x00\n        /* \"#utility.yul\":2425:2434   */\n      dup4\n        /* \"#utility.yul\":2421:2438   */\n      add\n        /* \"#utility.yul\":2412:2418   */\n      dup5\n        /* \"#utility.yul\":2368:2439   */\n      tag_82\n      jump\t// in\n    tag_89:\n        /* \"#utility.yul\":2224:2446   */\n      swap3\n      swap2\n      pop\n      pop\n      jump\t// out\n        /* \"#utility.yul\":2533:2838   */\n    tag_42:\n        /* \"#utility.yul\":2573:2576   */\n      0x00\n        /* \"#utility.yul\":2592:2612   */\n      tag_93\n        /* \"#utility.yul\":2610:2611   */\n      dup3\n        /* \"#utility.yul\":2592:2612   */\n      tag_85\n      jump\t// in\n    tag_93:\n        /* \"#utility.yul\":2587:2612   */\n      swap2\n      pop\n        /* \"#utility.yul\":2626:2646   */\n      tag_94\n        /* \"#utility.yul\":2644:2645   */\n      dup4\n        /* \"#utility.yul\":2626:2646   */\n      tag_85\n      jump\t// in\n    tag_94:\n        /* \"#utility.yul\":2621:2646   */\n      swap3\n      pop\n        /* \"#utility.yul\":2780:2781   */\n      dup3\n        /* \"#utility.yul\":2712:2778   */\n      0xffffffffffffffffffffffffffffffffffffffffffffffffffffffffffffffff\n        /* \"#utility.yul\":2708:2782   */\n      sub\n        /* \"#utility.yul\":2705:2706   */\n      dup3\n        /* \"#utility.yul\":2702:2783   */\n      gt\n        /* \"#utility.yul\":2699:2806   */\n      iszero\n      tag_95\n      jumpi\n        /* \"#utility.yul\":2786:2804   */\n      tag_96\n      tag_97\n      jump\t// in\n    tag_96:\n        /* \"#utility.yul\":2699:2806   */\n    tag_95:\n        /* \"#utility.yul\":2830:2831   */\n      dup3\n        /* \"#utility.yul\":2827:2828   */\n      dup3\n        /* \"#utility.yul\":2823:2832   */\n      add\n        /* \"#utility.yul\":2816:2832   */\n      swap1\n      pop\n        /* \"#utility.yul\":2533:2838   */\n      swap3\n      swap2\n      pop\n      pop\n      jump\t// out\n        /* \"#utility.yul\":2844:2940   */\n    tag_98:\n        /* \"#utility.yul\":2881:2888   */\n      0x00\n        /* \"#utility.yul\":2910:2934   */\n      tag_100\n        /* \"#utility.yul\":2928:2933   */\n      dup3\n        /* \"#utility.yul\":2910:2934   */\n      tag_101\n      jump\t// in\n    tag_100:\n        /* \"#utility.yul\":2899:2934   */\n      swap1\n      pop\n        /* \"#utility.yul\":2844:2940   */\n      swap2\n      swap1\n      pop\n      jump\t// out\n        /* \"#utility.yul\":2946:3050   */\n    tag_102:\n        /* \"#utility.yul\":2991:2998   */\n      0x00\n        /* \"#utility.yul\":3020:3044   */\n      tag_104\n        /* \"#utility.yul\":3038:3043   */\n      dup3\n        /* \"#utility.yul\":3020:3044   */\n      tag_101\n      jump\t// in\n    tag_104:\n        /* \"#utility.yul\":3009:3044   */\n      swap1\n      pop\n        /* \"#utility.yul\":2946:3050   */\n      swap2\n      swap1\n      pop\n      jump\t// out\n        /* \"#utility.yul\":3056:3146   */\n    tag_81:\n        /* \"#utility.yul\":3090:3097   */\n      0x00\n        /* \"#utility.yul\":3133:3138   */\n      dup2\n        /* \"#utility.yul\":3126:3139   */\n      iszero\n        /* \"#utility.yul\":3119:3140   */\n      iszero\n        /* \"#utility.yul\":3108:3140   */\n      swap1\n      pop\n        /* \"#utility.yul\":3056:3146   */\n      swap2\n      swap1\n      pop\n      jump\t// out\n        /* \"#utility.yul\":3152:3278   */\n    tag_101:\n        /* \"#utility.yul\":3189:3196   */\n      0x00\n        /* \"#utility.yul\":3229:3271   */\n      0xffffffffffffffffffffffffffffffffffffffff\n        /* \"#utility.yul\":3222:3227   */\n      dup3\n        /* \"#utility.yul\":3218:3272   */\n      and\n        /* \"#utility.yul\":3207:3272   */\n      swap1\n      pop\n        /* \"#utility.yul\":3152:3278   */\n      swap2\n      swap1\n      pop\n      jump\t// out\n        /* \"#utility.yul\":3284:3361   */\n    tag_85:\n        /* \"#utility.yul\":3321:3328   */\n      0x00\n        /* \"#utility.yul\":3350:3355   */\n      dup2\n        /* \"#utility.yul\":3339:3355   */\n      swap1\n      pop\n        /* \"#utility.yul\":3284:3361   */\n      swap2\n      swap1\n      pop\n      jump\t// out\n        /* \"#utility.yul\":3367:3600   */\n    tag_49:\n        /* \"#utility.yul\":3406:3409   */\n      0x00\n        /* \"#utility.yul\":3429:3453   */\n      tag_109\n        /* \"#utility.yul\":3447:3452   */\n      dup3\n        /* \"#utility.yul\":3429:3453   */\n      tag_85\n      jump\t// in\n    tag_109:\n        /* \"#utility.yul\":3420:3453   */\n      swap2\n      pop\n        /* \"#utility.yul\":3475:3541   */\n      0xffffffffffffffffffffffffffffffffffffffffffffffffffffffffffffffff\n        /* \"#utility.yul\":3468:3473   */\n      dup3\n        /* \"#utility.yul\":3465:3542   */\n      eq\n        /* \"#utility.yul\":3462:3565   */\n      iszero\n      tag_110\n      jumpi\n        /* \"#utility.yul\":3545:3563   */\n      tag_111\n      tag_97\n      jump\t// in\n    tag_111:\n        /* \"#utility.yul\":3462:3565   */\n    tag_110:\n        /* \"#utility.yul\":3592:3593   */\n      0x01\n        /* \"#utility.yul\":3585:3590   */\n      dup3\n        /* \"#utility.yul\":3581:3594   */\n      add\n        /* \"#utility.yul\":3574:3594   */\n      swap1\n      pop\n        /* \"#utility.yul\":3367:3600   */\n      swap2\n      swap1\n      pop\n      jump\t// out\n        /* \"#utility.yul\":3606:3786   */\n    tag_97:\n        /* \"#utility.yul\":3654:3731   */\n      0x4e487b7100000000000000000000000000000000000000000000000000000000\n        /* \"#utility.yul\":3651:3652   */\n      0x00\n        /* \"#utility.yul\":3644:3732   */\n      mstore\n        /* \"#utility.yul\":3751:3755   */\n      0x11\n        /* \"#utility.yul\":3748:3749   */\n      0x04\n        /* \"#utility.yul\":3741:3756   */\n      mstore\n        /* \"#utility.yul\":3775:3779   */\n      0x24\n        /* \"#utility.yul\":3772:3773   */\n      0x00\n        /* \"#utility.yul\":3765:3780   */\n      revert\n        /* \"#utility.yul\":3915:4032   */\n    tag_66:\n        /* \"#utility.yul\":4024:4025   */\n      0x00\n        /* \"#utility.yul\":4021:4022   */\n      dup1\n        /* \"#utility.yul\":4014:4026   */\n      revert\n        /* \"#utility.yul\":4038:4160   */\n    tag_54:\n        /* \"#utility.yul\":4111:4135   */\n      tag_117\n        /* \"#utility.yul\":4129:4134   */\n      dup2\n        /* \"#utility.yul\":4111:4135   */\n      tag_98\n      jump\t// in\n    tag_117:\n        /* \"#utility.yul\":4104:4109   */\n      dup2\n        /* \"#utility.yul\":4101:4136   */\n      eq\n        /* \"#utility.yul\":4091:4154   */\n      tag_118\n      jumpi\n        /* \"#utility.yul\":4150:4151   */\n      0x00\n        /* \"#utility.yul\":4147:4148   */\n      dup1\n        /* \"#utility.yul\":4140:4152   */\n      revert\n        /* \"#utility.yul\":4091:4154   */\n    tag_118:\n        /* \"#utility.yul\":4038:4160   */\n      pop\n      jump\t// out\n        /* \"#utility.yul\":4166:4304   */\n    tag_58:\n        /* \"#utility.yul\":4247:4279   */\n      tag_120\n        /* \"#utility.yul\":4273:4278   */\n      dup2\n        /* \"#utility.yul\":4247:4279   */\n      tag_102\n      jump\t// in\n    tag_120:\n        /* \"#utility.yul\":4240:4245   */\n      dup2\n        /* \"#utility.yul\":4237:4280   */\n      eq\n        /* \"#utility.yul\":4227:4298   */\n      tag_121\n      jumpi\n        /* \"#utility.yul\":4294:4295   */\n      0x00\n        /* \"#utility.yul\":4291:4292   */\n      dup1\n        /* \"#utility.yul\":4284:4296   */\n      revert\n        /* \"#utility.yul\":4227:4298   */\n    tag_121:\n        /* \"#utility.yul\":4166:4304   */\n      pop\n      jump\t// out\n        /* \"#utility.yul\":4310:4432   */\n    tag_62:\n        /* \"#utility.yul\":4383:4407   */\n      tag_123\n        /* \"#utility.yul\":4401:4406   */\n      dup2\n        /* \"#utility.yul\":4383:4407   */\n      tag_85\n      jump\t// in\n    tag_123:\n        /* \"#utility.yul\":4376:4381   */\n      dup2\n        /* \"#utility.yul\":4373:4408   */\n      eq\n        /* \"#utility.yul\":4363:4426   */\n      tag_124\n      jumpi\n        /* \"#utility.yul\":4422:4423   */\n      0x00\n        /* \"#utility.yul\":4419:4420   */\n      dup1\n        /* \"#utility.yul\":4412:4424   */\n      revert\n        /* \"#utility.yul\":4363:4426   */\n    tag_124:\n        /* \"#utility.yul\":4310:4432   */\n      pop\n      jump\t// out\n\n    auxdata: 0xa2646970667358221220a0add235747cfd8d98e529de0592e518b5cd6154975927a94a217ce3e884bfc364736f6c63430008070033\n}\n",
				"bytecode": {
					"linkReferences": {},
					"object": "60a060405234801561001057600080fd5b503373ffffffffffffffffffffffffffffffffffffffff1660808173ffffffffffffffffffffffffffffffffffffffff1660601b8152505060805160601c6107e7610066600039600061042701526107e76000f3fe60806040526004361061004a5760003560e01c80632c0f7b6f1461004f5780632e1a7d4d1461007a578063454a2ab3146100b757806372174d57146100d3578063f7572cf314610110575b600080fd5b34801561005b57600080fd5b5061006461014d565b6040516100719190610624565b60405180910390f35b34801561008657600080fd5b506100a1600480360381019061009c919061057e565b610153565b6040516100ae9190610609565b60405180910390f35b6100d160048036038101906100cc919061057e565b61020f565b005b3480156100df57600080fd5b506100fa60048036038101906100f591906105ab565b6103f4565b6040516101079190610609565b60405180910390f35b34801561011c57600080fd5b506101376004803603810190610132919061053e565b610423565b6040516101449190610624565b60405180910390f35b60005481565b60008060016000848152602001908152602001600020905080600201548160030154101561018557600091505061020a565b600081600301549050600082600301819055508160000160009054906101000a900473ffffffffffffffffffffffffffffffffffffffff1673ffffffffffffffffffffffffffffffffffffffff166108fc829081150290604051600060405180830381858888f19350505050158015610202573d6000803e3d6000fd5b506001925050505b919050565b80600015156003600083815260200190815260200160002060003373ffffffffffffffffffffffffffffffffffffffff1673ffffffffffffffffffffffffffffffffffffffff16815260200190815260200160002060009054906101000a900460ff1615151461027e57600080fd5b6000600160008481526020019081526020016000209050348160030160008282546102a9919061063f565b9250508190555060018160010160008282546102c5919061063f565b925050819055506002600084815260200190815260200160002060405180604001604052803373ffffffffffffffffffffffffffffffffffffffff16815260200134815250908060018154018082558091505060019003906000526020600020906002020160009091909190915060008201518160000160006101000a81548173ffffffffffffffffffffffffffffffffffffffff021916908373ffffffffffffffffffffffffffffffffffffffff16021790555060208201518160010155505060016003600085815260200190815260200160002060003373ffffffffffffffffffffffffffffffffffffffff1673ffffffffffffffffffffffffffffffffffffffff16815260200190815260200160002060006101000a81548160ff021916908315150217905550505050565b60036020528160005260406000206020528060005260406000206000915091509054906101000a900460ff1681565b60007f000000000000000000000000000000000000000000000000000000000000000073ffffffffffffffffffffffffffffffffffffffff163373ffffffffffffffffffffffffffffffffffffffff161461047d57600080fd5b60008081548092919061048f906106ef565b9190505590506000600160008381526020019081526020016000209050838160000160006101000a81548173ffffffffffffffffffffffffffffffffffffffff021916908373ffffffffffffffffffffffffffffffffffffffff1602179055508281600201819055505092915050565b60008135905061050e8161076c565b92915050565b60008135905061052381610783565b92915050565b6000813590506105388161079a565b92915050565b6000806040838503121561055557610554610767565b5b600061056385828601610514565b925050602061057485828601610529565b9150509250929050565b60006020828403121561059457610593610767565b5b60006105a284828501610529565b91505092915050565b600080604083850312156105c2576105c1610767565b5b60006105d085828601610529565b92505060206105e1858286016104ff565b9150509250929050565b6105f4816106b9565b82525050565b610603816106e5565b82525050565b600060208201905061061e60008301846105eb565b92915050565b600060208201905061063960008301846105fa565b92915050565b600061064a826106e5565b9150610655836106e5565b9250827fffffffffffffffffffffffffffffffffffffffffffffffffffffffffffffffff0382111561068a57610689610738565b5b828201905092915050565b60006106a0826106c5565b9050919050565b60006106b2826106c5565b9050919050565b60008115159050919050565b600073ffffffffffffffffffffffffffffffffffffffff82169050919050565b6000819050919050565b60006106fa826106e5565b91507fffffffffffffffffffffffffffffffffffffffffffffffffffffffffffffffff82141561072d5761072c610738565b5b600182019050919050565b7f4e487b7100000000000000000000000000000000000000000000000000000000600052601160045260246000fd5b600080fd5b61077581610695565b811461078057600080fd5b50565b61078c816106a7565b811461079757600080fd5b50565b6107a3816106e5565b81146107ae57600080fd5b5056fea2646970667358221220a0add235747cfd8d98e529de0592e518b5cd6154975927a94a217ce3e884bfc364736f6c63430008070033",
					"opcodes": "PUSH1 0xA0 PUSH1 0x40 MSTORE CALLVALUE DUP1 ISZERO PUSH2 0x10 JUMPI PUSH1 0x0 DUP1 REVERT JUMPDEST POP CALLER PUSH20 0xFFFFFFFFFFFFFFFFFFFFFFFFFFFFFFFFFFFFFFFF AND PUSH1 0x80 DUP2 PUSH20 0xFFFFFFFFFFFFFFFFFFFFFFFFFFFFFFFFFFFFFFFF AND PUSH1 0x60 SHL DUP2 MSTORE POP POP PUSH1 0x80 MLOAD PUSH1 0x60 SHR PUSH2 0x7E7 PUSH2 0x66 PUSH1 0x0 CODECOPY PUSH1 0x0 PUSH2 0x427 ADD MSTORE PUSH2 0x7E7 PUSH1 0x0 RETURN INVALID PUSH1 0x80 PUSH1 0x40 MSTORE PUSH1 0x4 CALLDATASIZE LT PUSH2 0x4A JUMPI PUSH1 0x0 CALLDATALOAD PUSH1 0xE0 SHR DUP1 PUSH4 0x2C0F7B6F EQ PUSH2 0x4F JUMPI DUP1 PUSH4 0x2E1A7D4D EQ PUSH2 0x7A JUMPI DUP1 PUSH4 0x454A2AB3 EQ PUSH2 0xB7 JUMPI DUP1 PUSH4 0x72174D57 EQ PUSH2 0xD3 JUMPI DUP1 PUSH4 0xF7572CF3 EQ PUSH2 0x110 JUMPI JUMPDEST PUSH1 0x0 DUP1 REVERT JUMPDEST CALLVALUE DUP1 ISZERO PUSH2 0x5B JUMPI PUSH1 0x0 DUP1 REVERT JUMPDEST POP PUSH2 0x64 PUSH2 0x14D JUMP JUMPDEST PUSH1 0x40 MLOAD PUSH2 0x71 SWAP2 SWAP1 PUSH2 0x624 JUMP JUMPDEST PUSH1 0x40 MLOAD DUP1 SWAP2 SUB SWAP1 RETURN JUMPDEST CALLVALUE DUP1 ISZERO PUSH2 0x86 JUMPI PUSH1 0x0 DUP1 REVERT JUMPDEST POP PUSH2 0xA1 PUSH1 0x4 DUP1 CALLDATASIZE SUB DUP2 ADD SWAP1 PUSH2 0x9C SWAP2 SWAP1 PUSH2 0x57E JUMP JUMPDEST PUSH2 0x153 JUMP JUMPDEST PUSH1 0x40 MLOAD PUSH2 0xAE SWAP2 SWAP1 PUSH2 0x609 JUMP JUMPDEST PUSH1 0x40 MLOAD DUP1 SWAP2 SUB SWAP1 RETURN JUMPDEST PUSH2 0xD1 PUSH1 0x4 DUP1 CALLDATASIZE SUB DUP2 ADD SWAP1 PUSH2 0xCC SWAP2 SWAP1 PUSH2 0x57E JUMP JUMPDEST PUSH2 0x20F JUMP JUMPDEST STOP JUMPDEST CALLVALUE DUP1 ISZERO PUSH2 0xDF JUMPI PUSH1 0x0 DUP1 REVERT JUMPDEST POP PUSH2 0xFA PUSH1 0x4 DUP1 CALLDATASIZE SUB DUP2 ADD SWAP1 PUSH2 0xF5 SWAP2 SWAP1 PUSH2 0x5AB JUMP JUMPDEST PUSH2 0x3F4 JUMP JUMPDEST PUSH1 0x40 MLOAD PUSH2 0x107 SWAP2 SWAP1 PUSH2 0x609 JUMP JUMPDEST PUSH1 0x40 MLOAD DUP1 SWAP2 SUB SWAP1 RETURN JUMPDEST CALLVALUE DUP1 ISZERO PUSH2 0x11C JUMPI PUSH1 0x0 DUP1 REVERT JUMPDEST POP PUSH2 0x137 PUSH1 0x4 DUP1 CALLDATASIZE SUB DUP2 ADD SWAP1 PUSH2 0x132 SWAP2 SWAP1 PUSH2 0x53E JUMP JUMPDEST PUSH2 0x423 JUMP JUMPDEST PUSH1 0x40 MLOAD PUSH2 0x144 SWAP2 SWAP1 PUSH2 0x624 JUMP JUMPDEST PUSH1 0x40 MLOAD DUP1 SWAP2 SUB SWAP1 RETURN JUMPDEST PUSH1 0x0 SLOAD DUP2 JUMP JUMPDEST PUSH1 0x0 DUP1 PUSH1 0x1 PUSH1 0x0 DUP5 DUP2 MSTORE PUSH1 0x20 ADD SWAP1 DUP2 MSTORE PUSH1 0x20 ADD PUSH1 0x0 KECCAK256 SWAP1 POP DUP1 PUSH1 0x2 ADD SLOAD DUP2 PUSH1 0x3 ADD SLOAD LT ISZERO PUSH2 0x185 JUMPI PUSH1 0x0 SWAP2 POP POP PUSH2 0x20A JUMP JUMPDEST PUSH1 0x0 DUP2 PUSH1 0x3 ADD SLOAD SWAP1 POP PUSH1 0x0 DUP3 PUSH1 0x3 ADD DUP2 SWAP1 SSTORE POP DUP2 PUSH1 0x0 ADD PUSH1 0x0 SWAP1 SLOAD SWAP1 PUSH2 0x100 EXP SWAP1 DIV PUSH20 0xFFFFFFFFFFFFFFFFFFFFFFFFFFFFFFFFFFFFFFFF AND PUSH20 0xFFFFFFFFFFFFFFFFFFFFFFFFFFFFFFFFFFFFFFFF AND PUSH2 0x8FC DUP3 SWAP1 DUP2 ISZERO MUL SWAP1 PUSH1 0x40 MLOAD PUSH1 0x0 PUSH1 0x40 MLOAD DUP1 DUP4 SUB DUP2 DUP6 DUP9 DUP9 CALL SWAP4 POP POP POP POP ISZERO DUP1 ISZERO PUSH2 0x202 JUMPI RETURNDATASIZE PUSH1 0x0 DUP1 RETURNDATACOPY RETURNDATASIZE PUSH1 0x0 REVERT JUMPDEST POP PUSH1 0x1 SWAP3 POP POP POP JUMPDEST SWAP2 SWAP1 POP JUMP JUMPDEST DUP1 PUSH1 0x0 ISZERO ISZERO PUSH1 0x3 PUSH1 0x0 DUP4 DUP2 MSTORE PUSH1 0x20 ADD SWAP1 DUP2 MSTORE PUSH1 0x20 ADD PUSH1 0x0 KECCAK256 PUSH1 0x0 CALLER PUSH20 0xFFFFFFFFFFFFFFFFFFFFFFFFFFFFFFFFFFFFFFFF AND PUSH20 0xFFFFFFFFFFFFFFFFFFFFFFFFFFFFFFFFFFFFFFFF AND DUP2 MSTORE PUSH1 0x20 ADD SWAP1 DUP2 MSTORE PUSH1 0x20 ADD PUSH1 0x0 KECCAK256 PUSH1 0x0 SWAP1 SLOAD SWAP1 PUSH2 0x100 EXP SWAP1 DIV PUSH1 0xFF AND ISZERO ISZERO EQ PUSH2 0x27E JUMPI PUSH1 0x0 DUP1 REVERT JUMPDEST PUSH1 0x0 PUSH1 0x1 PUSH1 0x0 DUP5 DUP2 MSTORE PUSH1 0x20 ADD SWAP1 DUP2 MSTORE PUSH1 0x20 ADD PUSH1 0x0 KECCAK256 SWAP1 POP CALLVALUE DUP2 PUSH1 0x3 ADD PUSH1 0x0 DUP3 DUP3 SLOAD PUSH2 0x2A9 SWAP2 SWAP1 PUSH2 0x63F JUMP JUMPDEST SWAP3 POP POP DUP2 SWAP1 SSTORE POP PUSH1 0x1 DUP2 PUSH1 0x1 ADD PUSH1 0x0 DUP3 DUP3 SLOAD PUSH2 0x2C5 SWAP2 SWAP1 PUSH2 0x63F JUMP JUMPDEST SWAP3 POP POP DUP2 SWAP1 SSTORE POP PUSH1 0x2 PUSH1 0x0 DUP5 DUP2 MSTORE PUSH1 0x20 ADD SWAP1 DUP2 MSTORE PUSH1 0x20 ADD PUSH1 0x0 KECCAK256 PUSH1 0x40 MLOAD DUP1 PUSH1 0x40 ADD PUSH1 0x40 MSTORE DUP1 CALLER PUSH20 0xFFFFFFFFFFFFFFFFFFFFFFFFFFFFFFFFFFFFFFFF AND DUP2 MSTORE PUSH1 0x20 ADD CALLVALUE DUP2 MSTORE POP SWAP1 DUP1 PUSH1 0x1 DUP2 SLOAD ADD DUP1 DUP3 SSTORE DUP1 SWAP2 POP POP PUSH1 0x1 SWAP1 SUB SWAP1 PUSH1 0x0 MSTORE PUSH1 0x20 PUSH1 0x0 KECCAK256 SWAP1 PUSH1 0x2 MUL ADD PUSH1 0x0 SWAP1 SWAP2 SWAP1 SWAP2 SWAP1 SWAP2 POP PUSH1 0x0 DUP3 ADD MLOAD DUP2 PUSH1 0x0 ADD PUSH1 0x0 PUSH2 0x100 EXP DUP2 SLOAD DUP2 PUSH20 0xFFFFFFFFFFFFFFFFFFFFFFFFFFFFFFFFFFFFFFFF MUL NOT AND SWAP1 DUP4 PUSH20 0xFFFFFFFFFFFFFFFFFFFFFFFFFFFFFFFFFFFFFFFF AND MUL OR SWAP1 SSTORE POP PUSH1 0x20 DUP3 ADD MLOAD DUP2 PUSH1 0x1 ADD SSTORE POP POP PUSH1 0x1 PUSH1 0x3 PUSH1 0x0 DUP6 DUP2 MSTORE PUSH1 0x20 ADD SWAP1 DUP2 MSTORE PUSH1 0x20 ADD PUSH1 0x0 KECCAK256 PUSH1 0x0 CALLER PUSH20 0xFFFFFFFFFFFFFFFFFFFFFFFFFFFFFFFFFFFFFFFF AND PUSH20 0xFFFFFFFFFFFFFFFFFFFFFFFFFFFFFFFFFFFFFFFF AND DUP2 MSTORE PUSH1 0x20 ADD SWAP1 DUP2 MSTORE PUSH1 0x20 ADD PUSH1 0x0 KECCAK256 PUSH1 0x0 PUSH2 0x100 EXP DUP2 SLOAD DUP2 PUSH1 0xFF MUL NOT AND SWAP1 DUP4 ISZERO ISZERO MUL OR SWAP1 SSTORE POP POP POP POP JUMP JUMPDEST PUSH1 0x3 PUSH1 0x20 MSTORE DUP2 PUSH1 0x0 MSTORE PUSH1 0x40 PUSH1 0x0 KECCAK256 PUSH1 0x20 MSTORE DUP1 PUSH1 0x0 MSTORE PUSH1 0x40 PUSH1 0x0 KECCAK256 PUSH1 0x0 SWAP2 POP SWAP2 POP SWAP1 SLOAD SWAP1 PUSH2 0x100 EXP SWAP1 DIV PUSH1 0xFF AND DUP2 JUMP JUMPDEST PUSH1 0x0 PUSH32 0x0 PUSH20 0xFFFFFFFFFFFFFFFFFFFFFFFFFFFFFFFFFFFFFFFF AND CALLER PUSH20 0xFFFFFFFFFFFFFFFFFFFFFFFFFFFFFFFFFFFFFFFF AND EQ PUSH2 0x47D JUMPI PUSH1 0x0 DUP1 REVERT JUMPDEST PUSH1 0x0 DUP1 DUP2 SLOAD DUP1 SWAP3 SWAP2 SWAP1 PUSH2 0x48F SWAP1 PUSH2 0x6EF JUMP JUMPDEST SWAP2 SWAP1 POP SSTORE SWAP1 POP PUSH1 0x0 PUSH1 0x1 PUSH1 0x0 DUP4 DUP2 MSTORE PUSH1 0x20 ADD SWAP1 DUP2 MSTORE PUSH1 0x20 ADD PUSH1 0x0 KECCAK256 SWAP1 POP DUP4 DUP2 PUSH1 0x0 ADD PUSH1 0x0 PUSH2 0x100 EXP DUP2 SLOAD DUP2 PUSH20 0xFFFFFFFFFFFFFFFFFFFFFFFFFFFFFFFFFFFFFFFF MUL NOT AND SWAP1 DUP4 PUSH20 0xFFFFFFFFFFFFFFFFFFFFFFFFFFFFFFFFFFFFFFFF AND MUL OR SWAP1 SSTORE POP DUP3 DUP2 PUSH1 0x2 ADD DUP2 SWAP1 SSTORE POP POP SWAP3 SWAP2 POP POP JUMP JUMPDEST PUSH1 0x0 DUP2 CALLDATALOAD SWAP1 POP PUSH2 0x50E DUP2 PUSH2 0x76C JUMP JUMPDEST SWAP3 SWAP2 POP POP JUMP JUMPDEST PUSH1 0x0 DUP2 CALLDATALOAD SWAP1 POP PUSH2 0x523 DUP2 PUSH2 0x783 JUMP JUMPDEST SWAP3 SWAP2 POP POP JUMP JUMPDEST PUSH1 0x0 DUP2 CALLDATALOAD SWAP1 POP PUSH2 0x538 DUP2 PUSH2 0x79A JUMP JUMPDEST SWAP3 SWAP2 POP POP JUMP JUMPDEST PUSH1 0x0 DUP1 PUSH1 0x40 DUP4 DUP6 SUB SLT ISZERO PUSH2 0x555 JUMPI PUSH2 0x554 PUSH2 0x767 JUMP JUMPDEST JUMPDEST PUSH1 0x0 PUSH2 0x563 DUP6 DUP3 DUP7 ADD PUSH2 0x514 JUMP JUMPDEST SWAP3 POP POP PUSH1 0x20 PUSH2 0x574 DUP6 DUP3 DUP7 ADD PUSH2 0x529 JUMP JUMPDEST SWAP2 POP POP SWAP3 POP SWAP3 SWAP1 POP JUMP JUMPDEST PUSH1 0x0 PUSH1 0x20 DUP3 DUP5 SUB SLT ISZERO PUSH2 0x594 JUMPI PUSH2 0x593 PUSH2 0x767 JUMP JUMPDEST JUMPDEST PUSH1 0x0 PUSH2 0x5A2 DUP5 DUP3 DUP6 ADD PUSH2 0x529 JUMP JUMPDEST SWAP2 POP POP SWAP3 SWAP2 POP POP JUMP JUMPDEST PUSH1 0x0 DUP1 PUSH1 0x40 DUP4 DUP6 SUB SLT ISZERO PUSH2 0x5C2 JUMPI PUSH2 0x5C1 PUSH2 0x767 JUMP JUMPDEST JUMPDEST PUSH1 0x0 PUSH2 0x5D0 DUP6 DUP3 DUP7 ADD PUSH2 0x529 JUMP JUMPDEST SWAP3 POP POP PUSH1 0x20 PUSH2 0x5E1 DUP6 DUP3 DUP7 ADD PUSH2 0x4FF JUMP JUMPDEST SWAP2 POP POP SWAP3 POP SWAP3 SWAP1 POP JUMP JUMPDEST PUSH2 0x5F4 DUP2 PUSH2 0x6B9 JUMP JUMPDEST DUP3 MSTORE POP POP JUMP JUMPDEST PUSH2 0x603 DUP2 PUSH2 0x6E5 JUMP JUMPDEST DUP3 MSTORE POP POP JUMP JUMPDEST PUSH1 0x0 PUSH1 0x20 DUP3 ADD SWAP1 POP PUSH2 0x61E PUSH1 0x0 DUP4 ADD DUP5 PUSH2 0x5EB JUMP JUMPDEST SWAP3 SWAP2 POP POP JUMP JUMPDEST PUSH1 0x0 PUSH1 0x20 DUP3 ADD SWAP1 POP PUSH2 0x639 PUSH1 0x0 DUP4 ADD DUP5 PUSH2 0x5FA JUMP JUMPDEST SWAP3 SWAP2 POP POP JUMP JUMPDEST PUSH1 0x0 PUSH2 0x64A DUP3 PUSH2 0x6E5 JUMP JUMPDEST SWAP2 POP PUSH2 0x655 DUP4 PUSH2 0x6E5 JUMP JUMPDEST SWAP3 POP DUP3 PUSH32 0xFFFFFFFFFFFFFFFFFFFFFFFFFFFFFFFFFFFFFFFFFFFFFFFFFFFFFFFFFFFFFFFF SUB DUP3 GT ISZERO PUSH2 0x68A JUMPI PUSH2 0x689 PUSH2 0x738 JUMP JUMPDEST JUMPDEST DUP3 DUP3 ADD SWAP1 POP SWAP3 SWAP2 POP POP JUMP JUMPDEST PUSH1 0x0 PUSH2 0x6A0 DUP3 PUSH2 0x6C5 JUMP JUMPDEST SWAP1 POP SWAP2 SWAP1 POP JUMP JUMPDEST PUSH1 0x0 PUSH2 0x6B2 DUP3 PUSH2 0x6C5 JUMP JUMPDEST SWAP1 POP SWAP2 SWAP1 POP JUMP JUMPDEST PUSH1 0x0 DUP2 ISZERO ISZERO SWAP1 POP SWAP2 SWAP1 POP JUMP JUMPDEST PUSH1 0x0 PUSH20 0xFFFFFFFFFFFFFFFFFFFFFFFFFFFFFFFFFFFFFFFF DUP3 AND SWAP1 POP SWAP2 SWAP1 POP JUMP JUMPDEST PUSH1 0x0 DUP2 SWAP1 POP SWAP2 SWAP1 POP JUMP JUMPDEST PUSH1 0x0 PUSH2 0x6FA DUP3 PUSH2 0x6E5 JUMP JUMPDEST SWAP2 POP PUSH32 0xFFFFFFFFFFFFFFFFFFFFFFFFFFFFFFFFFFFFFFFFFFFFFFFFFFFFFFFFFFFFFFFF DUP3 EQ ISZERO PUSH2 0x72D JUMPI PUSH2 0x72C PUSH2 0x738 JUMP JUMPDEST JUMPDEST PUSH1 0x1 DUP3 ADD SWAP1 POP SWAP2 SWAP1 POP JUMP JUMPDEST PUSH32 0x4E487B7100000000000000000000000000000000000000000000000000000000 PUSH1 0x0 MSTORE PUSH1 0x11 PUSH1 0x4 MSTORE PUSH1 0x24 PUSH1 0x0 REVERT JUMPDEST PUSH1 0x0 DUP1 REVERT JUMPDEST PUSH2 0x775 DUP2 PUSH2 0x695 JUMP JUMPDEST DUP2 EQ PUSH2 0x780 JUMPI PUSH1 0x0 DUP1 REVERT JUMPDEST POP JUMP JUMPDEST PUSH2 0x78C DUP2 PUSH2 0x6A7 JUMP JUMPDEST DUP2 EQ PUSH2 0x797 JUMPI PUSH1 0x0 DUP1 REVERT JUMPDEST POP JUMP JUMPDEST PUSH2 0x7A3 DUP2 PUSH2 0x6E5 JUMP JUMPDEST DUP2 EQ PUSH2 0x7AE JUMPI PUSH1 0x0 DUP1 REVERT JUMPDEST POP JUMP INVALID LOG2 PUSH5 0x6970667358 0x22 SLT KECCAK256 LOG0 0xAD 0xD2 CALLDATALOAD PUSH21 0x7CFD8D98E529DE0592E518B5CD6154975927A94A21 PUSH29 0xE3E884BFC364736F6C6343000807003300000000000000000000000000 "
				},
				"gasEstimates": {
					"creation": {
						"codeDepositCost": "404600",
						"executionCost": "infinite",
						"totalCost": "infinite"
					},
					"external": {
						"bid(uint256)": "infinite",
						"isPaticipated(uint256,address)": "3131",
						"newCampaign(address,uint256)": "infinite",
						"numCampaigns()": "2407",
						"withdraw(uint256)": "infinite"
					}
				},
				"methodIdentifiers": {
					"bid(uint256)": "454a2ab3",
					"isPaticipated(uint256,address)": "72174d57",
					"newCampaign(address,uint256)": "f7572cf3",
					"numCampaigns()": "2c0f7b6f",
					"withdraw(uint256)": "2e1a7d4d"
				}
			},
			"storageLayout": {
				"storage": [
					{
						"astId": 19,
						"contract": "contracts/CrowdFundingSingleFile.sol:CrowdFundingSingleFile",
						"label": "numCampaigns",
						"offset": 0,
						"slot": "0",
						"type": "t_uint256"
					},
					{
						"astId": 24,
						"contract": "contracts/CrowdFundingSingleFile.sol:CrowdFundingSingleFile",
						"label": "campaigns",
						"offset": 0,
						"slot": "1",
						"type": "t_mapping(t_uint256,t_struct(Campaign)12_storage)"
					},
					{
						"astId": 30,
						"contract": "contracts/CrowdFundingSingleFile.sol:CrowdFundingSingleFile",
						"label": "funders",
						"offset": 0,
						"slot": "2",
						"type": "t_mapping(t_uint256,t_array(t_struct(Funder)17_storage)dyn_storage)"
					},
					{
						"astId": 36,
						"contract": "contracts/CrowdFundingSingleFile.sol:CrowdFundingSingleFile",
						"label": "isPaticipated",
						"offset": 0,
						"slot": "3",
						"type": "t_mapping(t_uint256,t_mapping(t_address,t_bool))"
					}
				],
				"types": {
					"t_address": {
						"encoding": "inplace",
						"label": "address",
						"numberOfBytes": "20"
					},
					"t_address_payable": {
						"encoding": "inplace",
						"label": "address payable",
						"numberOfBytes": "20"
					},
					"t_array(t_struct(Funder)17_storage)dyn_storage": {
						"base": "t_struct(Funder)17_storage",
						"encoding": "dynamic_array",
						"label": "struct CrowdFundingSingleFile.Funder[]",
						"numberOfBytes": "32"
					},
					"t_bool": {
						"encoding": "inplace",
						"label": "bool",
						"numberOfBytes": "1"
					},
					"t_mapping(t_address,t_bool)": {
						"encoding": "mapping",
						"key": "t_address",
						"label": "mapping(address => bool)",
						"numberOfBytes": "32",
						"value": "t_bool"
					},
					"t_mapping(t_uint256,t_array(t_struct(Funder)17_storage)dyn_storage)": {
						"encoding": "mapping",
						"key": "t_uint256",
						"label": "mapping(uint256 => struct CrowdFundingSingleFile.Funder[])",
						"numberOfBytes": "32",
						"value": "t_array(t_struct(Funder)17_storage)dyn_storage"
					},
					"t_mapping(t_uint256,t_mapping(t_address,t_bool))": {
						"encoding": "mapping",
						"key": "t_uint256",
						"label": "mapping(uint256 => mapping(address => bool))",
						"numberOfBytes": "32",
						"value": "t_mapping(t_address,t_bool)"
					},
					"t_mapping(t_uint256,t_struct(Campaign)12_storage)": {
						"encoding": "mapping",
						"key": "t_uint256",
						"label": "mapping(uint256 => struct CrowdFundingSingleFile.Campaign)",
						"numberOfBytes": "32",
						"value": "t_struct(Campaign)12_storage"
					},
					"t_struct(Campaign)12_storage": {
						"encoding": "inplace",
						"label": "struct CrowdFundingSingleFile.Campaign",
						"members": [
							{
								"astId": 5,
								"contract": "contracts/CrowdFundingSingleFile.sol:CrowdFundingSingleFile",
								"label": "receiver",
								"offset": 0,
								"slot": "0",
								"type": "t_address_payable"
							},
							{
								"astId": 7,
								"contract": "contracts/CrowdFundingSingleFile.sol:CrowdFundingSingleFile",
								"label": "numFunders",
								"offset": 0,
								"slot": "1",
								"type": "t_uint256"
							},
							{
								"astId": 9,
								"contract": "contracts/CrowdFundingSingleFile.sol:CrowdFundingSingleFile",
								"label": "fundingGoal",
								"offset": 0,
								"slot": "2",
								"type": "t_uint256"
							},
							{
								"astId": 11,
								"contract": "contracts/CrowdFundingSingleFile.sol:CrowdFundingSingleFile",
								"label": "totalRaisedAmount",
								"offset": 0,
								"slot": "3",
								"type": "t_uint256"
							}
						],
						"numberOfBytes": "128"
					},
					"t_struct(Funder)17_storage": {
						"encoding": "inplace",
						"label": "struct CrowdFundingSingleFile.Funder",
						"members": [
							{
								"astId": 14,
								"contract": "contracts/CrowdFundingSingleFile.sol:CrowdFundingSingleFile",
								"label": "addr",
								"offset": 0,
								"slot": "0",
								"type": "t_address"
							},
							{
								"astId": 16,
								"contract": "contracts/CrowdFundingSingleFile.sol:CrowdFundingSingleFile",
								"label": "amount",
								"offset": 0,
								"slot": "1",
								"type": "t_uint256"
							}
						],
						"numberOfBytes": "64"
					},
					"t_uint256": {
						"encoding": "inplace",
						"label": "uint256",
						"numberOfBytes": "32"
					}
				}
			},
			"userdoc": {
				"kind": "user",
				"methods": {},
				"version": 1
			}
		}
	}
}