{
	"contracts/InitializableERC20.sol": {
		"InitializableERC20": {
			"abi": [
				{
					"anonymous": false,
					"inputs": [
						{
							"indexed": true,
							"internalType": "address",
							"name": "owner",
							"type": "address"
						},
						{
							"indexed": true,
							"internalType": "address",
							"name": "spender",
							"type": "address"
						},
						{
							"indexed": false,
							"internalType": "uint256",
							"name": "amount",
							"type": "uint256"
						}
					],
					"name": "Approval",
					"type": "event"
				},
				{
					"anonymous": false,
					"inputs": [
						{
							"indexed": true,
							"internalType": "address",
							"name": "from",
							"type": "address"
						},
						{
							"indexed": true,
							"internalType": "address",
							"name": "to",
							"type": "address"
						},
						{
							"indexed": false,
							"internalType": "uint256",
							"name": "amount",
							"type": "uint256"
						}
					],
					"name": "Transfer",
					"type": "event"
				},
				{
					"inputs": [
						{
							"internalType": "address",
							"name": "owner",
							"type": "address"
						},
						{
							"internalType": "address",
							"name": "spender",
							"type": "address"
						}
					],
					"name": "allowance",
					"outputs": [
						{
							"internalType": "uint256",
							"name": "",
							"type": "uint256"
						}
					],
					"stateMutability": "view",
					"type": "function"
				},
				{
					"inputs": [
						{
							"internalType": "address",
							"name": "spender",
							"type": "address"
						},
						{
							"internalType": "uint256",
							"name": "amount",
							"type": "uint256"
						}
					],
					"name": "approve",
					"outputs": [
						{
							"internalType": "bool",
							"name": "",
							"type": "bool"
						}
					],
					"stateMutability": "nonpayable",
					"type": "function"
				},
				{
					"inputs": [
						{
							"internalType": "address",
							"name": "owner",
							"type": "address"
						}
					],
					"name": "balanceOf",
					"outputs": [
						{
							"internalType": "uint256",
							"name": "balance",
							"type": "uint256"
						}
					],
					"stateMutability": "view",
					"type": "function"
				},
				{
					"inputs": [],
					"name": "decimals",
					"outputs": [
						{
							"internalType": "uint8",
							"name": "",
							"type": "uint8"
						}
					],
					"stateMutability": "view",
					"type": "function"
				},
				{
					"inputs": [
						{
							"internalType": "address",
							"name": "_creator",
							"type": "address"
						},
						{
							"internalType": "uint256",
							"name": "_totalSupply",
							"type": "uint256"
						},
						{
							"internalType": "string",
							"name": "_name",
							"type": "string"
						},
						{
							"internalType": "string",
							"name": "_symbol",
							"type": "string"
						},
						{
							"internalType": "uint8",
							"name": "_decimals",
							"type": "uint8"
						}
					],
					"name": "init",
					"outputs": [],
					"stateMutability": "nonpayable",
					"type": "function"
				},
				{
					"inputs": [],
					"name": "initialized",
					"outputs": [
						{
							"internalType": "bool",
							"name": "",
							"type": "bool"
						}
					],
					"stateMutability": "view",
					"type": "function"
				},
				{
					"inputs": [],
					"name": "name",
					"outputs": [
						{
							"internalType": "string",
							"name": "",
							"type": "string"
						}
					],
					"stateMutability": "view",
					"type": "function"
				},
				{
					"inputs": [],
					"name": "symbol",
					"outputs": [
						{
							"internalType": "string",
							"name": "",
							"type": "string"
						}
					],
					"stateMutability": "view",
					"type": "function"
				},
				{
					"inputs": [],
					"name": "totalSupply",
					"outputs": [
						{
							"internalType": "uint256",
							"name": "",
							"type": "uint256"
						}
					],
					"stateMutability": "view",
					"type": "function"
				},
				{
					"inputs": [
						{
							"internalType": "address",
							"name": "to",
							"type": "address"
						},
						{
							"internalType": "uint256",
							"name": "amount",
							"type": "uint256"
						}
					],
					"name": "transfer",
					"outputs": [
						{
							"internalType": "bool",
							"name": "",
							"type": "bool"
						}
					],
					"stateMutability": "nonpayable",
					"type": "function"
				},
				{
					"inputs": [
						{
							"internalType": "address",
							"name": "from",
							"type": "address"
						},
						{
							"internalType": "address",
							"name": "to",
							"type": "address"
						},
						{
							"internalType": "uint256",
							"name": "amount",
							"type": "uint256"
						}
					],
					"name": "transferFrom",
					"outputs": [
						{
							"internalType": "bool",
							"name": "",
							"type": "bool"
						}
					],
					"stateMutability": "nonpayable",
					"type": "function"
				}
			],
			"devdoc": {
				"kind": "dev",
				"methods": {},
				"version": 1
			},
			"evm": {
				"assembly": "    /* \"contracts/InitializableERC20.sol\":1718:4165  contract InitializableERC20 {\r... */\n  mstore(0x40, 0x80)\n  callvalue\n  dup1\n  iszero\n  tag_1\n  jumpi\n  0x00\n  dup1\n  revert\ntag_1:\n  pop\n  dataSize(sub_0)\n  dup1\n  dataOffset(sub_0)\n  0x00\n  codecopy\n  0x00\n  return\nstop\n\nsub_0: assembly {\n        /* \"contracts/InitializableERC20.sol\":1718:4165  contract InitializableERC20 {\r... */\n      mstore(0x40, 0x80)\n      callvalue\n      dup1\n      iszero\n      tag_1\n      jumpi\n      0x00\n      dup1\n      revert\n    tag_1:\n      pop\n      jumpi(tag_2, lt(calldatasize, 0x04))\n      shr(0xe0, calldataload(0x00))\n      dup1\n      0x313ce567\n      gt\n      tag_14\n      jumpi\n      dup1\n      0x313ce567\n      eq\n      tag_8\n      jumpi\n      dup1\n      0x70a08231\n      eq\n      tag_9\n      jumpi\n      dup1\n      0x95d89b41\n      eq\n      tag_10\n      jumpi\n      dup1\n      0xa9059cbb\n      eq\n      tag_11\n      jumpi\n      dup1\n      0xdd62ed3e\n      eq\n      tag_12\n      jumpi\n      dup1\n      0xfc90ef18\n      eq\n      tag_13\n      jumpi\n      jump(tag_2)\n    tag_14:\n      dup1\n      0x06fdde03\n      eq\n      tag_3\n      jumpi\n      dup1\n      0x095ea7b3\n      eq\n      tag_4\n      jumpi\n      dup1\n      0x158ef93e\n      eq\n      tag_5\n      jumpi\n      dup1\n      0x18160ddd\n      eq\n      tag_6\n      jumpi\n      dup1\n      0x23b872dd\n      eq\n      tag_7\n      jumpi\n    tag_2:\n      0x00\n      dup1\n      revert\n        /* \"contracts/InitializableERC20.sol\":1788:1806  string public name */\n    tag_3:\n      tag_15\n      tag_16\n      jump\t// in\n    tag_15:\n      mload(0x40)\n      tag_17\n      swap2\n      swap1\n      tag_18\n      jump\t// in\n    tag_17:\n      mload(0x40)\n      dup1\n      swap2\n      sub\n      swap1\n      return\n        /* \"contracts/InitializableERC20.sol\":3821:4024  function approve(address spender, uint256 amount) public returns (bool) {\r... */\n    tag_4:\n      tag_19\n      0x04\n      dup1\n      calldatasize\n      sub\n      dup2\n      add\n      swap1\n      tag_20\n      swap2\n      swap1\n      tag_21\n      jump\t// in\n    tag_20:\n      tag_22\n      jump\t// in\n    tag_19:\n      mload(0x40)\n      tag_23\n      swap2\n      swap1\n      tag_24\n      jump\t// in\n    tag_23:\n      mload(0x40)\n      dup1\n      swap2\n      sub\n      swap1\n      return\n        /* \"contracts/InitializableERC20.sol\":1903:1926  bool public initialized */\n    tag_5:\n      tag_25\n      tag_26\n      jump\t// in\n    tag_25:\n      mload(0x40)\n      tag_27\n      swap2\n      swap1\n      tag_24\n      jump\t// in\n    tag_27:\n      mload(0x40)\n      dup1\n      swap2\n      sub\n      swap1\n      return\n        /* \"contracts/InitializableERC20.sol\":1868:1894  uint256 public totalSupply */\n    tag_6:\n      tag_28\n      tag_29\n      jump\t// in\n    tag_28:\n      mload(0x40)\n      tag_30\n      swap2\n      swap1\n      tag_31\n      jump\t// in\n    tag_30:\n      mload(0x40)\n      dup1\n      swap2\n      sub\n      swap1\n      return\n        /* \"contracts/InitializableERC20.sol\":3235:3813  function transferFrom(\r... */\n    tag_7:\n      tag_32\n      0x04\n      dup1\n      calldatasize\n      sub\n      dup2\n      add\n      swap1\n      tag_33\n      swap2\n      swap1\n      tag_34\n      jump\t// in\n    tag_33:\n      tag_35\n      jump\t// in\n    tag_32:\n      mload(0x40)\n      tag_36\n      swap2\n      swap1\n      tag_24\n      jump\t// in\n    tag_36:\n      mload(0x40)\n      dup1\n      swap2\n      sub\n      swap1\n      return\n        /* \"contracts/InitializableERC20.sol\":1813:1834  uint8 public decimals */\n    tag_8:\n      tag_37\n      tag_38\n      jump\t// in\n    tag_37:\n      mload(0x40)\n      tag_39\n      swap2\n      swap1\n      tag_40\n      jump\t// in\n    tag_39:\n      mload(0x40)\n      dup1\n      swap2\n      sub\n      swap1\n      return\n        /* \"contracts/InitializableERC20.sol\":3114:3227  function balanceOf(address owner) public view returns (uint256 balance) {\r... */\n    tag_9:\n      tag_41\n      0x04\n      dup1\n      calldatasize\n      sub\n      dup2\n      add\n      swap1\n      tag_42\n      swap2\n      swap1\n      tag_43\n      jump\t// in\n    tag_42:\n      tag_44\n      jump\t// in\n    tag_41:\n      mload(0x40)\n      tag_45\n      swap2\n      swap1\n      tag_31\n      jump\t// in\n    tag_45:\n      mload(0x40)\n      dup1\n      swap2\n      sub\n      swap1\n      return\n        /* \"contracts/InitializableERC20.sol\":1841:1861  string public symbol */\n    tag_10:\n      tag_46\n      tag_47\n      jump\t// in\n    tag_46:\n      mload(0x40)\n      tag_48\n      swap2\n      swap1\n      tag_18\n      jump\t// in\n    tag_48:\n      mload(0x40)\n      dup1\n      swap2\n      sub\n      swap1\n      return\n        /* \"contracts/InitializableERC20.sol\":2711:3106  function transfer(address to, uint256 amount) public returns (bool) {\r... */\n    tag_11:\n      tag_49\n      0x04\n      dup1\n      calldatasize\n      sub\n      dup2\n      add\n      swap1\n      tag_50\n      swap2\n      swap1\n      tag_21\n      jump\t// in\n    tag_50:\n      tag_51\n      jump\t// in\n    tag_49:\n      mload(0x40)\n      tag_52\n      swap2\n      swap1\n      tag_24\n      jump\t// in\n    tag_52:\n      mload(0x40)\n      dup1\n      swap2\n      sub\n      swap1\n      return\n        /* \"contracts/InitializableERC20.sol\":4032:4162  function allowance(address owner, address spender) public view returns (uint256) {\r... */\n    tag_12:\n      tag_53\n      0x04\n      dup1\n      calldatasize\n      sub\n      dup2\n      add\n      swap1\n      tag_54\n      swap2\n      swap1\n      tag_55\n      jump\t// in\n    tag_54:\n      tag_56\n      jump\t// in\n    tag_53:\n      mload(0x40)\n      tag_57\n      swap2\n      swap1\n      tag_31\n      jump\t// in\n    tag_57:\n      mload(0x40)\n      dup1\n      swap2\n      sub\n      swap1\n      return\n        /* \"contracts/InitializableERC20.sol\":2217:2703  function init(\r... */\n    tag_13:\n      tag_58\n      0x04\n      dup1\n      calldatasize\n      sub\n      dup2\n      add\n      swap1\n      tag_59\n      swap2\n      swap1\n      tag_60\n      jump\t// in\n    tag_59:\n      tag_61\n      jump\t// in\n    tag_58:\n      stop\n        /* \"contracts/InitializableERC20.sol\":1788:1806  string public name */\n    tag_16:\n      0x00\n      dup1\n      sload\n      tag_62\n      swap1\n      tag_63\n      jump\t// in\n    tag_62:\n      dup1\n      0x1f\n      add\n      0x20\n      dup1\n      swap2\n      div\n      mul\n      0x20\n      add\n      mload(0x40)\n      swap1\n      dup2\n      add\n      0x40\n      mstore\n      dup1\n      swap3\n      swap2\n      swap1\n      dup2\n      dup2\n      mstore\n      0x20\n      add\n      dup3\n      dup1\n      sload\n      tag_64\n      swap1\n      tag_63\n      jump\t// in\n    tag_64:\n      dup1\n      iszero\n      tag_65\n      jumpi\n      dup1\n      0x1f\n      lt\n      tag_66\n      jumpi\n      0x0100\n      dup1\n      dup4\n      sload\n      div\n      mul\n      dup4\n      mstore\n      swap2\n      0x20\n      add\n      swap2\n      jump(tag_65)\n    tag_66:\n      dup3\n      add\n      swap2\n      swap1\n      0x00\n      mstore\n      keccak256(0x00, 0x20)\n      swap1\n    tag_67:\n      dup2\n      sload\n      dup2\n      mstore\n      swap1\n      0x01\n      add\n      swap1\n      0x20\n      add\n      dup1\n      dup4\n      gt\n      tag_67\n      jumpi\n      dup3\n      swap1\n      sub\n      0x1f\n      and\n      dup3\n      add\n      swap2\n    tag_65:\n      pop\n      pop\n      pop\n      pop\n      pop\n      dup2\n      jump\t// out\n        /* \"contracts/InitializableERC20.sol\":3821:4024  function approve(address spender, uint256 amount) public returns (bool) {\r... */\n    tag_22:\n        /* \"contracts/InitializableERC20.sol\":3887:3891  bool */\n      0x00\n        /* \"contracts/InitializableERC20.sol\":3935:3941  amount */\n      dup2\n        /* \"contracts/InitializableERC20.sol\":3904:3911  allowed */\n      0x06\n        /* \"contracts/InitializableERC20.sol\":3904:3923  allowed[msg.sender] */\n      0x00\n        /* \"contracts/InitializableERC20.sol\":3912:3922  msg.sender */\n      caller\n        /* \"contracts/InitializableERC20.sol\":3904:3923  allowed[msg.sender] */\n      0xffffffffffffffffffffffffffffffffffffffff\n      and\n      0xffffffffffffffffffffffffffffffffffffffff\n      and\n      dup2\n      mstore\n      0x20\n      add\n      swap1\n      dup2\n      mstore\n      0x20\n      add\n      0x00\n      keccak256\n        /* \"contracts/InitializableERC20.sol\":3904:3932  allowed[msg.sender][spender] */\n      0x00\n        /* \"contracts/InitializableERC20.sol\":3924:3931  spender */\n      dup6\n        /* \"contracts/InitializableERC20.sol\":3904:3932  allowed[msg.sender][spender] */\n      0xffffffffffffffffffffffffffffffffffffffff\n      and\n      0xffffffffffffffffffffffffffffffffffffffff\n      and\n      dup2\n      mstore\n      0x20\n      add\n      swap1\n      dup2\n      mstore\n      0x20\n      add\n      0x00\n      keccak256\n        /* \"contracts/InitializableERC20.sol\":3904:3941  allowed[msg.sender][spender] = amount */\n      dup2\n      swap1\n      sstore\n      pop\n        /* \"contracts/InitializableERC20.sol\":3978:3985  spender */\n      dup3\n        /* \"contracts/InitializableERC20.sol\":3957:3994  Approval(msg.sender, spender, amount) */\n      0xffffffffffffffffffffffffffffffffffffffff\n      and\n        /* \"contracts/InitializableERC20.sol\":3966:3976  msg.sender */\n      caller\n        /* \"contracts/InitializableERC20.sol\":3957:3994  Approval(msg.sender, spender, amount) */\n      0xffffffffffffffffffffffffffffffffffffffff\n      and\n      0x8c5be1e5ebec7d5bd14f71427d1e84f3dd0314c0f7b2291e5b200ac8c7c3b925\n        /* \"contracts/InitializableERC20.sol\":3987:3993  amount */\n      dup5\n        /* \"contracts/InitializableERC20.sol\":3957:3994  Approval(msg.sender, spender, amount) */\n      mload(0x40)\n      tag_69\n      swap2\n      swap1\n      tag_31\n      jump\t// in\n    tag_69:\n      mload(0x40)\n      dup1\n      swap2\n      sub\n      swap1\n      log3\n        /* \"contracts/InitializableERC20.sol\":4012:4016  true */\n      0x01\n        /* \"contracts/InitializableERC20.sol\":4005:4016  return true */\n      swap1\n      pop\n        /* \"contracts/InitializableERC20.sol\":3821:4024  function approve(address spender, uint256 amount) public returns (bool) {\r... */\n      swap3\n      swap2\n      pop\n      pop\n      jump\t// out\n        /* \"contracts/InitializableERC20.sol\":1903:1926  bool public initialized */\n    tag_26:\n      0x04\n      0x00\n      swap1\n      sload\n      swap1\n      0x0100\n      exp\n      swap1\n      div\n      0xff\n      and\n      dup2\n      jump\t// out\n        /* \"contracts/InitializableERC20.sol\":1868:1894  uint256 public totalSupply */\n    tag_29:\n      sload(0x03)\n      dup2\n      jump\t// out\n        /* \"contracts/InitializableERC20.sol\":3235:3813  function transferFrom(\r... */\n    tag_35:\n        /* \"contracts/InitializableERC20.sol\":3349:3353  bool */\n      0x00\n        /* \"contracts/InitializableERC20.sol\":3388:3389  0 */\n      dup1\n        /* \"contracts/InitializableERC20.sol\":3374:3390  to != address(0) */\n      0xffffffffffffffffffffffffffffffffffffffff\n      and\n        /* \"contracts/InitializableERC20.sol\":3374:3376  to */\n      dup4\n        /* \"contracts/InitializableERC20.sol\":3374:3390  to != address(0) */\n      0xffffffffffffffffffffffffffffffffffffffff\n      and\n      eq\n      iszero\n        /* \"contracts/InitializableERC20.sol\":3366:3414  require(to != address(0), \"TO_ADDRESS_IS_EMPTY\") */\n      tag_71\n      jumpi\n      mload(0x40)\n      0x08c379a000000000000000000000000000000000000000000000000000000000\n      dup2\n      mstore\n      0x04\n      add\n      tag_72\n      swap1\n      tag_73\n      jump\t// in\n    tag_72:\n      mload(0x40)\n      dup1\n      swap2\n      sub\n      swap1\n      revert\n    tag_71:\n        /* \"contracts/InitializableERC20.sol\":3443:3451  balances */\n      0x05\n        /* \"contracts/InitializableERC20.sol\":3443:3457  balances[from] */\n      0x00\n        /* \"contracts/InitializableERC20.sol\":3452:3456  from */\n      dup6\n        /* \"contracts/InitializableERC20.sol\":3443:3457  balances[from] */\n      0xffffffffffffffffffffffffffffffffffffffff\n      and\n      0xffffffffffffffffffffffffffffffffffffffff\n      and\n      dup2\n      mstore\n      0x20\n      add\n      swap1\n      dup2\n      mstore\n      0x20\n      add\n      0x00\n      keccak256\n      sload\n        /* \"contracts/InitializableERC20.sol\":3433:3439  amount */\n      dup3\n        /* \"contracts/InitializableERC20.sol\":3433:3457  amount <= balances[from] */\n      gt\n      iszero\n        /* \"contracts/InitializableERC20.sol\":3425:3480  require(amount <= balances[from], \"BALANCE_NOT_ENOUGH\") */\n      tag_74\n      jumpi\n      mload(0x40)\n      0x08c379a000000000000000000000000000000000000000000000000000000000\n      dup2\n      mstore\n      0x04\n      add\n      tag_75\n      swap1\n      tag_76\n      jump\t// in\n    tag_75:\n      mload(0x40)\n      dup1\n      swap2\n      sub\n      swap1\n      revert\n    tag_74:\n        /* \"contracts/InitializableERC20.sol\":3509:3516  allowed */\n      0x06\n        /* \"contracts/InitializableERC20.sol\":3509:3522  allowed[from] */\n      0x00\n        /* \"contracts/InitializableERC20.sol\":3517:3521  from */\n      dup6\n        /* \"contracts/InitializableERC20.sol\":3509:3522  allowed[from] */\n      0xffffffffffffffffffffffffffffffffffffffff\n      and\n      0xffffffffffffffffffffffffffffffffffffffff\n      and\n      dup2\n      mstore\n      0x20\n      add\n      swap1\n      dup2\n      mstore\n      0x20\n      add\n      0x00\n      keccak256\n        /* \"contracts/InitializableERC20.sol\":3509:3534  allowed[from][msg.sender] */\n      0x00\n        /* \"contracts/InitializableERC20.sol\":3523:3533  msg.sender */\n      caller\n        /* \"contracts/InitializableERC20.sol\":3509:3534  allowed[from][msg.sender] */\n      0xffffffffffffffffffffffffffffffffffffffff\n      and\n      0xffffffffffffffffffffffffffffffffffffffff\n      and\n      dup2\n      mstore\n      0x20\n      add\n      swap1\n      dup2\n      mstore\n      0x20\n      add\n      0x00\n      keccak256\n      sload\n        /* \"contracts/InitializableERC20.sol\":3499:3505  amount */\n      dup3\n        /* \"contracts/InitializableERC20.sol\":3499:3534  amount <= allowed[from][msg.sender] */\n      gt\n      iszero\n        /* \"contracts/InitializableERC20.sol\":3491:3559  require(amount <= allowed[from][msg.sender], \"ALLOWANCE_NOT_ENOUGH\") */\n      tag_77\n      jumpi\n      mload(0x40)\n      0x08c379a000000000000000000000000000000000000000000000000000000000\n      dup2\n      mstore\n      0x04\n      add\n      tag_78\n      swap1\n      tag_79\n      jump\t// in\n    tag_78:\n      mload(0x40)\n      dup1\n      swap2\n      sub\n      swap1\n      revert\n    tag_77:\n        /* \"contracts/InitializableERC20.sol\":3589:3615  balances[from].sub(amount) */\n      tag_80\n        /* \"contracts/InitializableERC20.sol\":3608:3614  amount */\n      dup3\n        /* \"contracts/InitializableERC20.sol\":3589:3597  balances */\n      0x05\n        /* \"contracts/InitializableERC20.sol\":3589:3603  balances[from] */\n      0x00\n        /* \"contracts/InitializableERC20.sol\":3598:3602  from */\n      dup8\n        /* \"contracts/InitializableERC20.sol\":3589:3603  balances[from] */\n      0xffffffffffffffffffffffffffffffffffffffff\n      and\n      0xffffffffffffffffffffffffffffffffffffffff\n      and\n      dup2\n      mstore\n      0x20\n      add\n      swap1\n      dup2\n      mstore\n      0x20\n      add\n      0x00\n      keccak256\n      sload\n        /* \"contracts/InitializableERC20.sol\":3589:3607  balances[from].sub */\n      tag_81\n      swap1\n        /* \"contracts/InitializableERC20.sol\":3589:3615  balances[from].sub(amount) */\n      swap2\n      swap1\n      0xffffffff\n      and\n      jump\t// in\n    tag_80:\n        /* \"contracts/InitializableERC20.sol\":3572:3580  balances */\n      0x05\n        /* \"contracts/InitializableERC20.sol\":3572:3586  balances[from] */\n      0x00\n        /* \"contracts/InitializableERC20.sol\":3581:3585  from */\n      dup7\n        /* \"contracts/InitializableERC20.sol\":3572:3586  balances[from] */\n      0xffffffffffffffffffffffffffffffffffffffff\n      and\n      0xffffffffffffffffffffffffffffffffffffffff\n      and\n      dup2\n      mstore\n      0x20\n      add\n      swap1\n      dup2\n      mstore\n      0x20\n      add\n      0x00\n      keccak256\n        /* \"contracts/InitializableERC20.sol\":3572:3615  balances[from] = balances[from].sub(amount) */\n      dup2\n      swap1\n      sstore\n      pop\n        /* \"contracts/InitializableERC20.sol\":3641:3665  balances[to].add(amount) */\n      tag_82\n        /* \"contracts/InitializableERC20.sol\":3658:3664  amount */\n      dup3\n        /* \"contracts/InitializableERC20.sol\":3641:3649  balances */\n      0x05\n        /* \"contracts/InitializableERC20.sol\":3641:3653  balances[to] */\n      0x00\n        /* \"contracts/InitializableERC20.sol\":3650:3652  to */\n      dup7\n        /* \"contracts/InitializableERC20.sol\":3641:3653  balances[to] */\n      0xffffffffffffffffffffffffffffffffffffffff\n      and\n      0xffffffffffffffffffffffffffffffffffffffff\n      and\n      dup2\n      mstore\n      0x20\n      add\n      swap1\n      dup2\n      mstore\n      0x20\n      add\n      0x00\n      keccak256\n      sload\n        /* \"contracts/InitializableERC20.sol\":3641:3657  balances[to].add */\n      tag_83\n      swap1\n        /* \"contracts/InitializableERC20.sol\":3641:3665  balances[to].add(amount) */\n      swap2\n      swap1\n      0xffffffff\n      and\n      jump\t// in\n    tag_82:\n        /* \"contracts/InitializableERC20.sol\":3626:3634  balances */\n      0x05\n        /* \"contracts/InitializableERC20.sol\":3626:3638  balances[to] */\n      0x00\n        /* \"contracts/InitializableERC20.sol\":3635:3637  to */\n      dup6\n        /* \"contracts/InitializableERC20.sol\":3626:3638  balances[to] */\n      0xffffffffffffffffffffffffffffffffffffffff\n      and\n      0xffffffffffffffffffffffffffffffffffffffff\n      and\n      dup2\n      mstore\n      0x20\n      add\n      swap1\n      dup2\n      mstore\n      0x20\n      add\n      0x00\n      keccak256\n        /* \"contracts/InitializableERC20.sol\":3626:3665  balances[to] = balances[to].add(amount) */\n      dup2\n      swap1\n      sstore\n      pop\n        /* \"contracts/InitializableERC20.sol\":3704:3741  allowed[from][msg.sender].sub(amount) */\n      tag_84\n        /* \"contracts/InitializableERC20.sol\":3734:3740  amount */\n      dup3\n        /* \"contracts/InitializableERC20.sol\":3704:3711  allowed */\n      0x06\n        /* \"contracts/InitializableERC20.sol\":3704:3717  allowed[from] */\n      0x00\n        /* \"contracts/InitializableERC20.sol\":3712:3716  from */\n      dup8\n        /* \"contracts/InitializableERC20.sol\":3704:3717  allowed[from] */\n      0xffffffffffffffffffffffffffffffffffffffff\n      and\n      0xffffffffffffffffffffffffffffffffffffffff\n      and\n      dup2\n      mstore\n      0x20\n      add\n      swap1\n      dup2\n      mstore\n      0x20\n      add\n      0x00\n      keccak256\n        /* \"contracts/InitializableERC20.sol\":3704:3729  allowed[from][msg.sender] */\n      0x00\n        /* \"contracts/InitializableERC20.sol\":3718:3728  msg.sender */\n      caller\n        /* \"contracts/InitializableERC20.sol\":3704:3729  allowed[from][msg.sender] */\n      0xffffffffffffffffffffffffffffffffffffffff\n      and\n      0xffffffffffffffffffffffffffffffffffffffff\n      and\n      dup2\n      mstore\n      0x20\n      add\n      swap1\n      dup2\n      mstore\n      0x20\n      add\n      0x00\n      keccak256\n      sload\n        /* \"contracts/InitializableERC20.sol\":3704:3733  allowed[from][msg.sender].sub */\n      tag_81\n      swap1\n        /* \"contracts/InitializableERC20.sol\":3704:3741  allowed[from][msg.sender].sub(amount) */\n      swap2\n      swap1\n      0xffffffff\n      and\n      jump\t// in\n    tag_84:\n        /* \"contracts/InitializableERC20.sol\":3676:3683  allowed */\n      0x06\n        /* \"contracts/InitializableERC20.sol\":3676:3689  allowed[from] */\n      0x00\n        /* \"contracts/InitializableERC20.sol\":3684:3688  from */\n      dup7\n        /* \"contracts/InitializableERC20.sol\":3676:3689  allowed[from] */\n      0xffffffffffffffffffffffffffffffffffffffff\n      and\n      0xffffffffffffffffffffffffffffffffffffffff\n      and\n      dup2\n      mstore\n      0x20\n      add\n      swap1\n      dup2\n      mstore\n      0x20\n      add\n      0x00\n      keccak256\n        /* \"contracts/InitializableERC20.sol\":3676:3701  allowed[from][msg.sender] */\n      0x00\n        /* \"contracts/InitializableERC20.sol\":3690:3700  msg.sender */\n      caller\n        /* \"contracts/InitializableERC20.sol\":3676:3701  allowed[from][msg.sender] */\n      0xffffffffffffffffffffffffffffffffffffffff\n      and\n      0xffffffffffffffffffffffffffffffffffffffff\n      and\n      dup2\n      mstore\n      0x20\n      add\n      swap1\n      dup2\n      mstore\n      0x20\n      add\n      0x00\n      keccak256\n        /* \"contracts/InitializableERC20.sol\":3676:3741  allowed[from][msg.sender] = allowed[from][msg.sender].sub(amount) */\n      dup2\n      swap1\n      sstore\n      pop\n        /* \"contracts/InitializableERC20.sol\":3772:3774  to */\n      dup3\n        /* \"contracts/InitializableERC20.sol\":3757:3783  Transfer(from, to, amount) */\n      0xffffffffffffffffffffffffffffffffffffffff\n      and\n        /* \"contracts/InitializableERC20.sol\":3766:3770  from */\n      dup5\n        /* \"contracts/InitializableERC20.sol\":3757:3783  Transfer(from, to, amount) */\n      0xffffffffffffffffffffffffffffffffffffffff\n      and\n      0xddf252ad1be2c89b69c2b068fc378daa952ba7f163c4a11628f55a4df523b3ef\n        /* \"contracts/InitializableERC20.sol\":3776:3782  amount */\n      dup5\n        /* \"contracts/InitializableERC20.sol\":3757:3783  Transfer(from, to, amount) */\n      mload(0x40)\n      tag_85\n      swap2\n      swap1\n      tag_31\n      jump\t// in\n    tag_85:\n      mload(0x40)\n      dup1\n      swap2\n      sub\n      swap1\n      log3\n        /* \"contracts/InitializableERC20.sol\":3801:3805  true */\n      0x01\n        /* \"contracts/InitializableERC20.sol\":3794:3805  return true */\n      swap1\n      pop\n        /* \"contracts/InitializableERC20.sol\":3235:3813  function transferFrom(\r... */\n      swap4\n      swap3\n      pop\n      pop\n      pop\n      jump\t// out\n        /* \"contracts/InitializableERC20.sol\":1813:1834  uint8 public decimals */\n    tag_38:\n      0x01\n      0x00\n      swap1\n      sload\n      swap1\n      0x0100\n      exp\n      swap1\n      div\n      0xff\n      and\n      dup2\n      jump\t// out\n        /* \"contracts/InitializableERC20.sol\":3114:3227  function balanceOf(address owner) public view returns (uint256 balance) {\r... */\n    tag_44:\n        /* \"contracts/InitializableERC20.sol\":3169:3184  uint256 balance */\n      0x00\n        /* \"contracts/InitializableERC20.sol\":3204:3212  balances */\n      0x05\n        /* \"contracts/InitializableERC20.sol\":3204:3219  balances[owner] */\n      0x00\n        /* \"contracts/InitializableERC20.sol\":3213:3218  owner */\n      dup4\n        /* \"contracts/InitializableERC20.sol\":3204:3219  balances[owner] */\n      0xffffffffffffffffffffffffffffffffffffffff\n      and\n      0xffffffffffffffffffffffffffffffffffffffff\n      and\n      dup2\n      mstore\n      0x20\n      add\n      swap1\n      dup2\n      mstore\n      0x20\n      add\n      0x00\n      keccak256\n      sload\n        /* \"contracts/InitializableERC20.sol\":3197:3219  return balances[owner] */\n      swap1\n      pop\n        /* \"contracts/InitializableERC20.sol\":3114:3227  function balanceOf(address owner) public view returns (uint256 balance) {\r... */\n      swap2\n      swap1\n      pop\n      jump\t// out\n        /* \"contracts/InitializableERC20.sol\":1841:1861  string public symbol */\n    tag_47:\n      0x02\n      dup1\n      sload\n      tag_87\n      swap1\n      tag_63\n      jump\t// in\n    tag_87:\n      dup1\n      0x1f\n      add\n      0x20\n      dup1\n      swap2\n      div\n      mul\n      0x20\n      add\n      mload(0x40)\n      swap1\n      dup2\n      add\n      0x40\n      mstore\n      dup1\n      swap3\n      swap2\n      swap1\n      dup2\n      dup2\n      mstore\n      0x20\n      add\n      dup3\n      dup1\n      sload\n      tag_88\n      swap1\n      tag_63\n      jump\t// in\n    tag_88:\n      dup1\n      iszero\n      tag_89\n      jumpi\n      dup1\n      0x1f\n      lt\n      tag_90\n      jumpi\n      0x0100\n      dup1\n      dup4\n      sload\n      div\n      mul\n      dup4\n      mstore\n      swap2\n      0x20\n      add\n      swap2\n      jump(tag_89)\n    tag_90:\n      dup3\n      add\n      swap2\n      swap1\n      0x00\n      mstore\n      keccak256(0x00, 0x20)\n      swap1\n    tag_91:\n      dup2\n      sload\n      dup2\n      mstore\n      swap1\n      0x01\n      add\n      swap1\n      0x20\n      add\n      dup1\n      dup4\n      gt\n      tag_91\n      jumpi\n      dup3\n      swap1\n      sub\n      0x1f\n      and\n      dup3\n      add\n      swap2\n    tag_89:\n      pop\n      pop\n      pop\n      pop\n      pop\n      dup2\n      jump\t// out\n        /* \"contracts/InitializableERC20.sol\":2711:3106  function transfer(address to, uint256 amount) public returns (bool) {\r... */\n    tag_51:\n        /* \"contracts/InitializableERC20.sol\":2773:2777  bool */\n      0x00\n        /* \"contracts/InitializableERC20.sol\":2812:2813  0 */\n      dup1\n        /* \"contracts/InitializableERC20.sol\":2798:2814  to != address(0) */\n      0xffffffffffffffffffffffffffffffffffffffff\n      and\n        /* \"contracts/InitializableERC20.sol\":2798:2800  to */\n      dup4\n        /* \"contracts/InitializableERC20.sol\":2798:2814  to != address(0) */\n      0xffffffffffffffffffffffffffffffffffffffff\n      and\n      eq\n      iszero\n        /* \"contracts/InitializableERC20.sol\":2790:2838  require(to != address(0), \"TO_ADDRESS_IS_EMPTY\") */\n      tag_93\n      jumpi\n      mload(0x40)\n      0x08c379a000000000000000000000000000000000000000000000000000000000\n      dup2\n      mstore\n      0x04\n      add\n      tag_94\n      swap1\n      tag_73\n      jump\t// in\n    tag_94:\n      mload(0x40)\n      dup1\n      swap2\n      sub\n      swap1\n      revert\n    tag_93:\n        /* \"contracts/InitializableERC20.sol\":2867:2875  balances */\n      0x05\n        /* \"contracts/InitializableERC20.sol\":2867:2887  balances[msg.sender] */\n      0x00\n        /* \"contracts/InitializableERC20.sol\":2876:2886  msg.sender */\n      caller\n        /* \"contracts/InitializableERC20.sol\":2867:2887  balances[msg.sender] */\n      0xffffffffffffffffffffffffffffffffffffffff\n      and\n      0xffffffffffffffffffffffffffffffffffffffff\n      and\n      dup2\n      mstore\n      0x20\n      add\n      swap1\n      dup2\n      mstore\n      0x20\n      add\n      0x00\n      keccak256\n      sload\n        /* \"contracts/InitializableERC20.sol\":2857:2863  amount */\n      dup3\n        /* \"contracts/InitializableERC20.sol\":2857:2887  amount <= balances[msg.sender] */\n      gt\n      iszero\n        /* \"contracts/InitializableERC20.sol\":2849:2910  require(amount <= balances[msg.sender], \"BALANCE_NOT_ENOUGH\") */\n      tag_95\n      jumpi\n      mload(0x40)\n      0x08c379a000000000000000000000000000000000000000000000000000000000\n      dup2\n      mstore\n      0x04\n      add\n      tag_96\n      swap1\n      tag_76\n      jump\t// in\n    tag_96:\n      mload(0x40)\n      dup1\n      swap2\n      sub\n      swap1\n      revert\n    tag_95:\n        /* \"contracts/InitializableERC20.sol\":2946:2978  balances[msg.sender].sub(amount) */\n      tag_97\n        /* \"contracts/InitializableERC20.sol\":2971:2977  amount */\n      dup3\n        /* \"contracts/InitializableERC20.sol\":2946:2954  balances */\n      0x05\n        /* \"contracts/InitializableERC20.sol\":2946:2966  balances[msg.sender] */\n      0x00\n        /* \"contracts/InitializableERC20.sol\":2955:2965  msg.sender */\n      caller\n        /* \"contracts/InitializableERC20.sol\":2946:2966  balances[msg.sender] */\n      0xffffffffffffffffffffffffffffffffffffffff\n      and\n      0xffffffffffffffffffffffffffffffffffffffff\n      and\n      dup2\n      mstore\n      0x20\n      add\n      swap1\n      dup2\n      mstore\n      0x20\n      add\n      0x00\n      keccak256\n      sload\n        /* \"contracts/InitializableERC20.sol\":2946:2970  balances[msg.sender].sub */\n      tag_81\n      swap1\n        /* \"contracts/InitializableERC20.sol\":2946:2978  balances[msg.sender].sub(amount) */\n      swap2\n      swap1\n      0xffffffff\n      and\n      jump\t// in\n    tag_97:\n        /* \"contracts/InitializableERC20.sol\":2923:2931  balances */\n      0x05\n        /* \"contracts/InitializableERC20.sol\":2923:2943  balances[msg.sender] */\n      0x00\n        /* \"contracts/InitializableERC20.sol\":2932:2942  msg.sender */\n      caller\n        /* \"contracts/InitializableERC20.sol\":2923:2943  balances[msg.sender] */\n      0xffffffffffffffffffffffffffffffffffffffff\n      and\n      0xffffffffffffffffffffffffffffffffffffffff\n      and\n      dup2\n      mstore\n      0x20\n      add\n      swap1\n      dup2\n      mstore\n      0x20\n      add\n      0x00\n      keccak256\n        /* \"contracts/InitializableERC20.sol\":2923:2978  balances[msg.sender] = balances[msg.sender].sub(amount) */\n      dup2\n      swap1\n      sstore\n      pop\n        /* \"contracts/InitializableERC20.sol\":3004:3028  balances[to].add(amount) */\n      tag_98\n        /* \"contracts/InitializableERC20.sol\":3021:3027  amount */\n      dup3\n        /* \"contracts/InitializableERC20.sol\":3004:3012  balances */\n      0x05\n        /* \"contracts/InitializableERC20.sol\":3004:3016  balances[to] */\n      0x00\n        /* \"contracts/InitializableERC20.sol\":3013:3015  to */\n      dup7\n        /* \"contracts/InitializableERC20.sol\":3004:3016  balances[to] */\n      0xffffffffffffffffffffffffffffffffffffffff\n      and\n      0xffffffffffffffffffffffffffffffffffffffff\n      and\n      dup2\n      mstore\n      0x20\n      add\n      swap1\n      dup2\n      mstore\n      0x20\n      add\n      0x00\n      keccak256\n      sload\n        /* \"contracts/InitializableERC20.sol\":3004:3020  balances[to].add */\n      tag_83\n      swap1\n        /* \"contracts/InitializableERC20.sol\":3004:3028  balances[to].add(amount) */\n      swap2\n      swap1\n      0xffffffff\n      and\n      jump\t// in\n    tag_98:\n        /* \"contracts/InitializableERC20.sol\":2989:2997  balances */\n      0x05\n        /* \"contracts/InitializableERC20.sol\":2989:3001  balances[to] */\n      0x00\n        /* \"contracts/InitializableERC20.sol\":2998:3000  to */\n      dup6\n        /* \"contracts/InitializableERC20.sol\":2989:3001  balances[to] */\n      0xffffffffffffffffffffffffffffffffffffffff\n      and\n      0xffffffffffffffffffffffffffffffffffffffff\n      and\n      dup2\n      mstore\n      0x20\n      add\n      swap1\n      dup2\n      mstore\n      0x20\n      add\n      0x00\n      keccak256\n        /* \"contracts/InitializableERC20.sol\":2989:3028  balances[to] = balances[to].add(amount) */\n      dup2\n      swap1\n      sstore\n      pop\n        /* \"contracts/InitializableERC20.sol\":3065:3067  to */\n      dup3\n        /* \"contracts/InitializableERC20.sol\":3044:3076  Transfer(msg.sender, to, amount) */\n      0xffffffffffffffffffffffffffffffffffffffff\n      and\n        /* \"contracts/InitializableERC20.sol\":3053:3063  msg.sender */\n      caller\n        /* \"contracts/InitializableERC20.sol\":3044:3076  Transfer(msg.sender, to, amount) */\n      0xffffffffffffffffffffffffffffffffffffffff\n      and\n      0xddf252ad1be2c89b69c2b068fc378daa952ba7f163c4a11628f55a4df523b3ef\n        /* \"contracts/InitializableERC20.sol\":3069:3075  amount */\n      dup5\n        /* \"contracts/InitializableERC20.sol\":3044:3076  Transfer(msg.sender, to, amount) */\n      mload(0x40)\n      tag_99\n      swap2\n      swap1\n      tag_31\n      jump\t// in\n    tag_99:\n      mload(0x40)\n      dup1\n      swap2\n      sub\n      swap1\n      log3\n        /* \"contracts/InitializableERC20.sol\":3094:3098  true */\n      0x01\n        /* \"contracts/InitializableERC20.sol\":3087:3098  return true */\n      swap1\n      pop\n        /* \"contracts/InitializableERC20.sol\":2711:3106  function transfer(address to, uint256 amount) public returns (bool) {\r... */\n      swap3\n      swap2\n      pop\n      pop\n      jump\t// out\n        /* \"contracts/InitializableERC20.sol\":4032:4162  function allowance(address owner, address spender) public view returns (uint256) {\r... */\n    tag_56:\n        /* \"contracts/InitializableERC20.sol\":4104:4111  uint256 */\n      0x00\n        /* \"contracts/InitializableERC20.sol\":4131:4138  allowed */\n      0x06\n        /* \"contracts/InitializableERC20.sol\":4131:4145  allowed[owner] */\n      0x00\n        /* \"contracts/InitializableERC20.sol\":4139:4144  owner */\n      dup5\n        /* \"contracts/InitializableERC20.sol\":4131:4145  allowed[owner] */\n      0xffffffffffffffffffffffffffffffffffffffff\n      and\n      0xffffffffffffffffffffffffffffffffffffffff\n      and\n      dup2\n      mstore\n      0x20\n      add\n      swap1\n      dup2\n      mstore\n      0x20\n      add\n      0x00\n      keccak256\n        /* \"contracts/InitializableERC20.sol\":4131:4154  allowed[owner][spender] */\n      0x00\n        /* \"contracts/InitializableERC20.sol\":4146:4153  spender */\n      dup4\n        /* \"contracts/InitializableERC20.sol\":4131:4154  allowed[owner][spender] */\n      0xffffffffffffffffffffffffffffffffffffffff\n      and\n      0xffffffffffffffffffffffffffffffffffffffff\n      and\n      dup2\n      mstore\n      0x20\n      add\n      swap1\n      dup2\n      mstore\n      0x20\n      add\n      0x00\n      keccak256\n      sload\n        /* \"contracts/InitializableERC20.sol\":4124:4154  return allowed[owner][spender] */\n      swap1\n      pop\n        /* \"contracts/InitializableERC20.sol\":4032:4162  function allowance(address owner, address spender) public view returns (uint256) {\r... */\n      swap3\n      swap2\n      pop\n      pop\n      jump\t// out\n        /* \"contracts/InitializableERC20.sol\":2217:2703  function init(\r... */\n    tag_61:\n        /* \"contracts/InitializableERC20.sol\":2411:2422  initialized */\n      0x04\n      0x00\n      swap1\n      sload\n      swap1\n      0x0100\n      exp\n      swap1\n      div\n      0xff\n      and\n        /* \"contracts/InitializableERC20.sol\":2410:2422  !initialized */\n      iszero\n        /* \"contracts/InitializableERC20.sol\":2402:2444  require(!initialized, \"TOKEN_INITIALIZED\") */\n      tag_102\n      jumpi\n      mload(0x40)\n      0x08c379a000000000000000000000000000000000000000000000000000000000\n      dup2\n      mstore\n      0x04\n      add\n      tag_103\n      swap1\n      tag_104\n      jump\t// in\n    tag_103:\n      mload(0x40)\n      dup1\n      swap2\n      sub\n      swap1\n      revert\n    tag_102:\n        /* \"contracts/InitializableERC20.sol\":2469:2473  true */\n      0x01\n        /* \"contracts/InitializableERC20.sol\":2455:2466  initialized */\n      0x04\n      0x00\n        /* \"contracts/InitializableERC20.sol\":2455:2473  initialized = true */\n      0x0100\n      exp\n      dup2\n      sload\n      dup2\n      0xff\n      mul\n      not\n      and\n      swap1\n      dup4\n      iszero\n      iszero\n      mul\n      or\n      swap1\n      sstore\n      pop\n        /* \"contracts/InitializableERC20.sol\":2498:2510  _totalSupply */\n      dup4\n        /* \"contracts/InitializableERC20.sol\":2484:2495  totalSupply */\n      0x03\n        /* \"contracts/InitializableERC20.sol\":2484:2510  totalSupply = _totalSupply */\n      dup2\n      swap1\n      sstore\n      pop\n        /* \"contracts/InitializableERC20.sol\":2542:2554  _totalSupply */\n      dup4\n        /* \"contracts/InitializableERC20.sol\":2521:2529  balances */\n      0x05\n        /* \"contracts/InitializableERC20.sol\":2521:2539  balances[_creator] */\n      0x00\n        /* \"contracts/InitializableERC20.sol\":2530:2538  _creator */\n      dup8\n        /* \"contracts/InitializableERC20.sol\":2521:2539  balances[_creator] */\n      0xffffffffffffffffffffffffffffffffffffffff\n      and\n      0xffffffffffffffffffffffffffffffffffffffff\n      and\n      dup2\n      mstore\n      0x20\n      add\n      swap1\n      dup2\n      mstore\n      0x20\n      add\n      0x00\n      keccak256\n        /* \"contracts/InitializableERC20.sol\":2521:2554  balances[_creator] = _totalSupply */\n      dup2\n      swap1\n      sstore\n      pop\n        /* \"contracts/InitializableERC20.sol\":2572:2577  _name */\n      dup3\n        /* \"contracts/InitializableERC20.sol\":2565:2569  name */\n      0x00\n        /* \"contracts/InitializableERC20.sol\":2565:2577  name = _name */\n      swap1\n      dup1\n      mload\n      swap1\n      0x20\n      add\n      swap1\n      tag_105\n      swap3\n      swap2\n      swap1\n      tag_106\n      jump\t// in\n    tag_105:\n      pop\n        /* \"contracts/InitializableERC20.sol\":2597:2604  _symbol */\n      dup2\n        /* \"contracts/InitializableERC20.sol\":2588:2594  symbol */\n      0x02\n        /* \"contracts/InitializableERC20.sol\":2588:2604  symbol = _symbol */\n      swap1\n      dup1\n      mload\n      swap1\n      0x20\n      add\n      swap1\n      tag_107\n      swap3\n      swap2\n      swap1\n      tag_106\n      jump\t// in\n    tag_107:\n      pop\n        /* \"contracts/InitializableERC20.sol\":2626:2635  _decimals */\n      dup1\n        /* \"contracts/InitializableERC20.sol\":2615:2623  decimals */\n      0x01\n      0x00\n        /* \"contracts/InitializableERC20.sol\":2615:2635  decimals = _decimals */\n      0x0100\n      exp\n      dup2\n      sload\n      dup2\n      0xff\n      mul\n      not\n      and\n      swap1\n      dup4\n      0xff\n      and\n      mul\n      or\n      swap1\n      sstore\n      pop\n        /* \"contracts/InitializableERC20.sol\":2672:2680  _creator */\n      dup5\n        /* \"contracts/InitializableERC20.sol\":2651:2695  Transfer(address(0), _creator, _totalSupply) */\n      0xffffffffffffffffffffffffffffffffffffffff\n      and\n        /* \"contracts/InitializableERC20.sol\":2668:2669  0 */\n      0x00\n        /* \"contracts/InitializableERC20.sol\":2651:2695  Transfer(address(0), _creator, _totalSupply) */\n      0xffffffffffffffffffffffffffffffffffffffff\n      and\n      0xddf252ad1be2c89b69c2b068fc378daa952ba7f163c4a11628f55a4df523b3ef\n        /* \"contracts/InitializableERC20.sol\":2682:2694  _totalSupply */\n      dup7\n        /* \"contracts/InitializableERC20.sol\":2651:2695  Transfer(address(0), _creator, _totalSupply) */\n      mload(0x40)\n      tag_108\n      swap2\n      swap1\n      tag_31\n      jump\t// in\n    tag_108:\n      mload(0x40)\n      dup1\n      swap2\n      sub\n      swap1\n      log3\n        /* \"contracts/InitializableERC20.sol\":2217:2703  function init(\r... */\n      pop\n      pop\n      pop\n      pop\n      pop\n      jump\t// out\n        /* \"contracts/InitializableERC20.sol\":1132:1269  function sub(uint256 a, uint256 b) internal pure returns (uint256) {\r... */\n    tag_81:\n        /* \"contracts/InitializableERC20.sol\":1190:1197  uint256 */\n      0x00\n        /* \"contracts/InitializableERC20.sol\":1223:1224  a */\n      dup3\n        /* \"contracts/InitializableERC20.sol\":1218:1219  b */\n      dup3\n        /* \"contracts/InitializableERC20.sol\":1218:1224  b <= a */\n      gt\n      iszero\n        /* \"contracts/InitializableERC20.sol\":1210:1238  require(b <= a, \"SUB_ERROR\") */\n      tag_110\n      jumpi\n      mload(0x40)\n      0x08c379a000000000000000000000000000000000000000000000000000000000\n      dup2\n      mstore\n      0x04\n      add\n      tag_111\n      swap1\n      tag_112\n      jump\t// in\n    tag_111:\n      mload(0x40)\n      dup1\n      swap2\n      sub\n      swap1\n      revert\n    tag_110:\n        /* \"contracts/InitializableERC20.sol\":1260:1261  b */\n      dup2\n        /* \"contracts/InitializableERC20.sol\":1256:1257  a */\n      dup4\n        /* \"contracts/InitializableERC20.sol\":1256:1261  a - b */\n      tag_113\n      swap2\n      swap1\n      tag_114\n      jump\t// in\n    tag_113:\n        /* \"contracts/InitializableERC20.sol\":1249:1261  return a - b */\n      swap1\n      pop\n        /* \"contracts/InitializableERC20.sol\":1132:1269  function sub(uint256 a, uint256 b) internal pure returns (uint256) {\r... */\n      swap3\n      swap2\n      pop\n      pop\n      jump\t// out\n        /* \"contracts/InitializableERC20.sol\":1277:1438  function add(uint256 a, uint256 b) internal pure returns (uint256) {\r... */\n    tag_83:\n        /* \"contracts/InitializableERC20.sol\":1335:1342  uint256 */\n      0x00\n        /* \"contracts/InitializableERC20.sol\":1355:1364  uint256 c */\n      dup1\n        /* \"contracts/InitializableERC20.sol\":1371:1372  b */\n      dup3\n        /* \"contracts/InitializableERC20.sol\":1367:1368  a */\n      dup5\n        /* \"contracts/InitializableERC20.sol\":1367:1372  a + b */\n      tag_116\n      swap2\n      swap1\n      tag_117\n      jump\t// in\n    tag_116:\n        /* \"contracts/InitializableERC20.sol\":1355:1372  uint256 c = a + b */\n      swap1\n      pop\n        /* \"contracts/InitializableERC20.sol\":1396:1397  a */\n      dup4\n        /* \"contracts/InitializableERC20.sol\":1391:1392  c */\n      dup2\n        /* \"contracts/InitializableERC20.sol\":1391:1397  c >= a */\n      lt\n      iszero\n        /* \"contracts/InitializableERC20.sol\":1383:1411  require(c >= a, \"ADD_ERROR\") */\n      tag_118\n      jumpi\n      mload(0x40)\n      0x08c379a000000000000000000000000000000000000000000000000000000000\n      dup2\n      mstore\n      0x04\n      add\n      tag_119\n      swap1\n      tag_120\n      jump\t// in\n    tag_119:\n      mload(0x40)\n      dup1\n      swap2\n      sub\n      swap1\n      revert\n    tag_118:\n        /* \"contracts/InitializableERC20.sol\":1429:1430  c */\n      dup1\n        /* \"contracts/InitializableERC20.sol\":1422:1430  return c */\n      swap2\n      pop\n      pop\n        /* \"contracts/InitializableERC20.sol\":1277:1438  function add(uint256 a, uint256 b) internal pure returns (uint256) {\r... */\n      swap3\n      swap2\n      pop\n      pop\n      jump\t// out\n    tag_106:\n      dup3\n      dup1\n      sload\n      tag_121\n      swap1\n      tag_63\n      jump\t// in\n    tag_121:\n      swap1\n      0x00\n      mstore\n      keccak256(0x00, 0x20)\n      swap1\n      0x1f\n      add\n      0x20\n      swap1\n      div\n      dup2\n      add\n      swap3\n      dup3\n      tag_123\n      jumpi\n      0x00\n      dup6\n      sstore\n      jump(tag_122)\n    tag_123:\n      dup3\n      0x1f\n      lt\n      tag_124\n      jumpi\n      dup1\n      mload\n      not(0xff)\n      and\n      dup4\n      dup1\n      add\n      or\n      dup6\n      sstore\n      jump(tag_122)\n    tag_124:\n      dup3\n      dup1\n      add\n      0x01\n      add\n      dup6\n      sstore\n      dup3\n      iszero\n      tag_122\n      jumpi\n      swap2\n      dup3\n      add\n    tag_125:\n      dup3\n      dup2\n      gt\n      iszero\n      tag_126\n      jumpi\n      dup3\n      mload\n      dup3\n      sstore\n      swap2\n      0x20\n      add\n      swap2\n      swap1\n      0x01\n      add\n      swap1\n      jump(tag_125)\n    tag_126:\n    tag_122:\n      pop\n      swap1\n      pop\n      tag_127\n      swap2\n      swap1\n      tag_128\n      jump\t// in\n    tag_127:\n      pop\n      swap1\n      jump\t// out\n    tag_128:\n    tag_129:\n      dup1\n      dup3\n      gt\n      iszero\n      tag_130\n      jumpi\n      0x00\n      dup2\n      0x00\n      swap1\n      sstore\n      pop\n      0x01\n      add\n      jump(tag_129)\n    tag_130:\n      pop\n      swap1\n      jump\t// out\n        /* \"#utility.yul\":7:419   */\n    tag_132:\n        /* \"#utility.yul\":85:90   */\n      0x00\n        /* \"#utility.yul\":110:176   */\n      tag_134\n        /* \"#utility.yul\":126:175   */\n      tag_135\n        /* \"#utility.yul\":168:174   */\n      dup5\n        /* \"#utility.yul\":126:175   */\n      tag_136\n      jump\t// in\n    tag_135:\n        /* \"#utility.yul\":110:176   */\n      tag_137\n      jump\t// in\n    tag_134:\n        /* \"#utility.yul\":101:176   */\n      swap1\n      pop\n        /* \"#utility.yul\":199:205   */\n      dup3\n        /* \"#utility.yul\":192:197   */\n      dup2\n        /* \"#utility.yul\":185:206   */\n      mstore\n        /* \"#utility.yul\":237:241   */\n      0x20\n        /* \"#utility.yul\":230:235   */\n      dup2\n        /* \"#utility.yul\":226:242   */\n      add\n        /* \"#utility.yul\":275:278   */\n      dup5\n        /* \"#utility.yul\":266:272   */\n      dup5\n        /* \"#utility.yul\":261:264   */\n      dup5\n        /* \"#utility.yul\":257:273   */\n      add\n        /* \"#utility.yul\":254:279   */\n      gt\n        /* \"#utility.yul\":251:363   */\n      iszero\n      tag_138\n      jumpi\n        /* \"#utility.yul\":282:361   */\n      tag_139\n      tag_140\n      jump\t// in\n    tag_139:\n        /* \"#utility.yul\":251:363   */\n    tag_138:\n        /* \"#utility.yul\":372:413   */\n      tag_141\n        /* \"#utility.yul\":406:412   */\n      dup5\n        /* \"#utility.yul\":401:404   */\n      dup3\n        /* \"#utility.yul\":396:399   */\n      dup6\n        /* \"#utility.yul\":372:413   */\n      tag_142\n      jump\t// in\n    tag_141:\n        /* \"#utility.yul\":91:419   */\n      pop\n        /* \"#utility.yul\":7:419   */\n      swap4\n      swap3\n      pop\n      pop\n      pop\n      jump\t// out\n        /* \"#utility.yul\":425:564   */\n    tag_143:\n        /* \"#utility.yul\":471:476   */\n      0x00\n        /* \"#utility.yul\":509:515   */\n      dup2\n        /* \"#utility.yul\":496:516   */\n      calldataload\n        /* \"#utility.yul\":487:516   */\n      swap1\n      pop\n        /* \"#utility.yul\":525:558   */\n      tag_145\n        /* \"#utility.yul\":552:557   */\n      dup2\n        /* \"#utility.yul\":525:558   */\n      tag_146\n      jump\t// in\n    tag_145:\n        /* \"#utility.yul\":425:564   */\n      swap3\n      swap2\n      pop\n      pop\n      jump\t// out\n        /* \"#utility.yul\":584:924   */\n    tag_147:\n        /* \"#utility.yul\":640:645   */\n      0x00\n        /* \"#utility.yul\":689:692   */\n      dup3\n        /* \"#utility.yul\":682:686   */\n      0x1f\n        /* \"#utility.yul\":674:680   */\n      dup4\n        /* \"#utility.yul\":670:687   */\n      add\n        /* \"#utility.yul\":666:693   */\n      slt\n        /* \"#utility.yul\":656:778   */\n      tag_149\n      jumpi\n        /* \"#utility.yul\":697:776   */\n      tag_150\n      tag_151\n      jump\t// in\n    tag_150:\n        /* \"#utility.yul\":656:778   */\n    tag_149:\n        /* \"#utility.yul\":814:820   */\n      dup2\n        /* \"#utility.yul\":801:821   */\n      calldataload\n        /* \"#utility.yul\":839:918   */\n      tag_152\n        /* \"#utility.yul\":914:917   */\n      dup5\n        /* \"#utility.yul\":906:912   */\n      dup3\n        /* \"#utility.yul\":899:903   */\n      0x20\n        /* \"#utility.yul\":891:897   */\n      dup7\n        /* \"#utility.yul\":887:904   */\n      add\n        /* \"#utility.yul\":839:918   */\n      tag_132\n      jump\t// in\n    tag_152:\n        /* \"#utility.yul\":830:918   */\n      swap2\n      pop\n        /* \"#utility.yul\":646:924   */\n      pop\n        /* \"#utility.yul\":584:924   */\n      swap3\n      swap2\n      pop\n      pop\n      jump\t// out\n        /* \"#utility.yul\":930:1069   */\n    tag_153:\n        /* \"#utility.yul\":976:981   */\n      0x00\n        /* \"#utility.yul\":1014:1020   */\n      dup2\n        /* \"#utility.yul\":1001:1021   */\n      calldataload\n        /* \"#utility.yul\":992:1021   */\n      swap1\n      pop\n        /* \"#utility.yul\":1030:1063   */\n      tag_155\n        /* \"#utility.yul\":1057:1062   */\n      dup2\n        /* \"#utility.yul\":1030:1063   */\n      tag_156\n      jump\t// in\n    tag_155:\n        /* \"#utility.yul\":930:1069   */\n      swap3\n      swap2\n      pop\n      pop\n      jump\t// out\n        /* \"#utility.yul\":1075:1210   */\n    tag_157:\n        /* \"#utility.yul\":1119:1124   */\n      0x00\n        /* \"#utility.yul\":1157:1163   */\n      dup2\n        /* \"#utility.yul\":1144:1164   */\n      calldataload\n        /* \"#utility.yul\":1135:1164   */\n      swap1\n      pop\n        /* \"#utility.yul\":1173:1204   */\n      tag_159\n        /* \"#utility.yul\":1198:1203   */\n      dup2\n        /* \"#utility.yul\":1173:1204   */\n      tag_160\n      jump\t// in\n    tag_159:\n        /* \"#utility.yul\":1075:1210   */\n      swap3\n      swap2\n      pop\n      pop\n      jump\t// out\n        /* \"#utility.yul\":1216:1545   */\n    tag_43:\n        /* \"#utility.yul\":1275:1281   */\n      0x00\n        /* \"#utility.yul\":1324:1326   */\n      0x20\n        /* \"#utility.yul\":1312:1321   */\n      dup3\n        /* \"#utility.yul\":1303:1310   */\n      dup5\n        /* \"#utility.yul\":1299:1322   */\n      sub\n        /* \"#utility.yul\":1295:1327   */\n      slt\n        /* \"#utility.yul\":1292:1411   */\n      iszero\n      tag_162\n      jumpi\n        /* \"#utility.yul\":1330:1409   */\n      tag_163\n      tag_164\n      jump\t// in\n    tag_163:\n        /* \"#utility.yul\":1292:1411   */\n    tag_162:\n        /* \"#utility.yul\":1450:1451   */\n      0x00\n        /* \"#utility.yul\":1475:1528   */\n      tag_165\n        /* \"#utility.yul\":1520:1527   */\n      dup5\n        /* \"#utility.yul\":1511:1517   */\n      dup3\n        /* \"#utility.yul\":1500:1509   */\n      dup6\n        /* \"#utility.yul\":1496:1518   */\n      add\n        /* \"#utility.yul\":1475:1528   */\n      tag_143\n      jump\t// in\n    tag_165:\n        /* \"#utility.yul\":1465:1528   */\n      swap2\n      pop\n        /* \"#utility.yul\":1421:1538   */\n      pop\n        /* \"#utility.yul\":1216:1545   */\n      swap3\n      swap2\n      pop\n      pop\n      jump\t// out\n        /* \"#utility.yul\":1551:2025   */\n    tag_55:\n        /* \"#utility.yul\":1619:1625   */\n      0x00\n        /* \"#utility.yul\":1627:1633   */\n      dup1\n        /* \"#utility.yul\":1676:1678   */\n      0x40\n        /* \"#utility.yul\":1664:1673   */\n      dup4\n        /* \"#utility.yul\":1655:1662   */\n      dup6\n        /* \"#utility.yul\":1651:1674   */\n      sub\n        /* \"#utility.yul\":1647:1679   */\n      slt\n        /* \"#utility.yul\":1644:1763   */\n      iszero\n      tag_167\n      jumpi\n        /* \"#utility.yul\":1682:1761   */\n      tag_168\n      tag_164\n      jump\t// in\n    tag_168:\n        /* \"#utility.yul\":1644:1763   */\n    tag_167:\n        /* \"#utility.yul\":1802:1803   */\n      0x00\n        /* \"#utility.yul\":1827:1880   */\n      tag_169\n        /* \"#utility.yul\":1872:1879   */\n      dup6\n        /* \"#utility.yul\":1863:1869   */\n      dup3\n        /* \"#utility.yul\":1852:1861   */\n      dup7\n        /* \"#utility.yul\":1848:1870   */\n      add\n        /* \"#utility.yul\":1827:1880   */\n      tag_143\n      jump\t// in\n    tag_169:\n        /* \"#utility.yul\":1817:1880   */\n      swap3\n      pop\n        /* \"#utility.yul\":1773:1890   */\n      pop\n        /* \"#utility.yul\":1929:1931   */\n      0x20\n        /* \"#utility.yul\":1955:2008   */\n      tag_170\n        /* \"#utility.yul\":2000:2007   */\n      dup6\n        /* \"#utility.yul\":1991:1997   */\n      dup3\n        /* \"#utility.yul\":1980:1989   */\n      dup7\n        /* \"#utility.yul\":1976:1998   */\n      add\n        /* \"#utility.yul\":1955:2008   */\n      tag_143\n      jump\t// in\n    tag_170:\n        /* \"#utility.yul\":1945:2008   */\n      swap2\n      pop\n        /* \"#utility.yul\":1900:2018   */\n      pop\n        /* \"#utility.yul\":1551:2025   */\n      swap3\n      pop\n      swap3\n      swap1\n      pop\n      jump\t// out\n        /* \"#utility.yul\":2031:2650   */\n    tag_34:\n        /* \"#utility.yul\":2108:2114   */\n      0x00\n        /* \"#utility.yul\":2116:2122   */\n      dup1\n        /* \"#utility.yul\":2124:2130   */\n      0x00\n        /* \"#utility.yul\":2173:2175   */\n      0x60\n        /* \"#utility.yul\":2161:2170   */\n      dup5\n        /* \"#utility.yul\":2152:2159   */\n      dup7\n        /* \"#utility.yul\":2148:2171   */\n      sub\n        /* \"#utility.yul\":2144:2176   */\n      slt\n        /* \"#utility.yul\":2141:2260   */\n      iszero\n      tag_172\n      jumpi\n        /* \"#utility.yul\":2179:2258   */\n      tag_173\n      tag_164\n      jump\t// in\n    tag_173:\n        /* \"#utility.yul\":2141:2260   */\n    tag_172:\n        /* \"#utility.yul\":2299:2300   */\n      0x00\n        /* \"#utility.yul\":2324:2377   */\n      tag_174\n        /* \"#utility.yul\":2369:2376   */\n      dup7\n        /* \"#utility.yul\":2360:2366   */\n      dup3\n        /* \"#utility.yul\":2349:2358   */\n      dup8\n        /* \"#utility.yul\":2345:2367   */\n      add\n        /* \"#utility.yul\":2324:2377   */\n      tag_143\n      jump\t// in\n    tag_174:\n        /* \"#utility.yul\":2314:2377   */\n      swap4\n      pop\n        /* \"#utility.yul\":2270:2387   */\n      pop\n        /* \"#utility.yul\":2426:2428   */\n      0x20\n        /* \"#utility.yul\":2452:2505   */\n      tag_175\n        /* \"#utility.yul\":2497:2504   */\n      dup7\n        /* \"#utility.yul\":2488:2494   */\n      dup3\n        /* \"#utility.yul\":2477:2486   */\n      dup8\n        /* \"#utility.yul\":2473:2495   */\n      add\n        /* \"#utility.yul\":2452:2505   */\n      tag_143\n      jump\t// in\n    tag_175:\n        /* \"#utility.yul\":2442:2505   */\n      swap3\n      pop\n        /* \"#utility.yul\":2397:2515   */\n      pop\n        /* \"#utility.yul\":2554:2556   */\n      0x40\n        /* \"#utility.yul\":2580:2633   */\n      tag_176\n        /* \"#utility.yul\":2625:2632   */\n      dup7\n        /* \"#utility.yul\":2616:2622   */\n      dup3\n        /* \"#utility.yul\":2605:2614   */\n      dup8\n        /* \"#utility.yul\":2601:2623   */\n      add\n        /* \"#utility.yul\":2580:2633   */\n      tag_153\n      jump\t// in\n    tag_176:\n        /* \"#utility.yul\":2570:2633   */\n      swap2\n      pop\n        /* \"#utility.yul\":2525:2643   */\n      pop\n        /* \"#utility.yul\":2031:2650   */\n      swap3\n      pop\n      swap3\n      pop\n      swap3\n      jump\t// out\n        /* \"#utility.yul\":2656:3130   */\n    tag_21:\n        /* \"#utility.yul\":2724:2730   */\n      0x00\n        /* \"#utility.yul\":2732:2738   */\n      dup1\n        /* \"#utility.yul\":2781:2783   */\n      0x40\n        /* \"#utility.yul\":2769:2778   */\n      dup4\n        /* \"#utility.yul\":2760:2767   */\n      dup6\n        /* \"#utility.yul\":2756:2779   */\n      sub\n        /* \"#utility.yul\":2752:2784   */\n      slt\n        /* \"#utility.yul\":2749:2868   */\n      iszero\n      tag_178\n      jumpi\n        /* \"#utility.yul\":2787:2866   */\n      tag_179\n      tag_164\n      jump\t// in\n    tag_179:\n        /* \"#utility.yul\":2749:2868   */\n    tag_178:\n        /* \"#utility.yul\":2907:2908   */\n      0x00\n        /* \"#utility.yul\":2932:2985   */\n      tag_180\n        /* \"#utility.yul\":2977:2984   */\n      dup6\n        /* \"#utility.yul\":2968:2974   */\n      dup3\n        /* \"#utility.yul\":2957:2966   */\n      dup7\n        /* \"#utility.yul\":2953:2975   */\n      add\n        /* \"#utility.yul\":2932:2985   */\n      tag_143\n      jump\t// in\n    tag_180:\n        /* \"#utility.yul\":2922:2985   */\n      swap3\n      pop\n        /* \"#utility.yul\":2878:2995   */\n      pop\n        /* \"#utility.yul\":3034:3036   */\n      0x20\n        /* \"#utility.yul\":3060:3113   */\n      tag_181\n        /* \"#utility.yul\":3105:3112   */\n      dup6\n        /* \"#utility.yul\":3096:3102   */\n      dup3\n        /* \"#utility.yul\":3085:3094   */\n      dup7\n        /* \"#utility.yul\":3081:3103   */\n      add\n        /* \"#utility.yul\":3060:3113   */\n      tag_153\n      jump\t// in\n    tag_181:\n        /* \"#utility.yul\":3050:3113   */\n      swap2\n      pop\n        /* \"#utility.yul\":3005:3123   */\n      pop\n        /* \"#utility.yul\":2656:3130   */\n      swap3\n      pop\n      swap3\n      swap1\n      pop\n      jump\t// out\n        /* \"#utility.yul\":3136:4403   */\n    tag_60:\n        /* \"#utility.yul\":3249:3255   */\n      0x00\n        /* \"#utility.yul\":3257:3263   */\n      dup1\n        /* \"#utility.yul\":3265:3271   */\n      0x00\n        /* \"#utility.yul\":3273:3279   */\n      dup1\n        /* \"#utility.yul\":3281:3287   */\n      0x00\n        /* \"#utility.yul\":3330:3333   */\n      0xa0\n        /* \"#utility.yul\":3318:3327   */\n      dup7\n        /* \"#utility.yul\":3309:3316   */\n      dup9\n        /* \"#utility.yul\":3305:3328   */\n      sub\n        /* \"#utility.yul\":3301:3334   */\n      slt\n        /* \"#utility.yul\":3298:3418   */\n      iszero\n      tag_183\n      jumpi\n        /* \"#utility.yul\":3337:3416   */\n      tag_184\n      tag_164\n      jump\t// in\n    tag_184:\n        /* \"#utility.yul\":3298:3418   */\n    tag_183:\n        /* \"#utility.yul\":3457:3458   */\n      0x00\n        /* \"#utility.yul\":3482:3535   */\n      tag_185\n        /* \"#utility.yul\":3527:3534   */\n      dup9\n        /* \"#utility.yul\":3518:3524   */\n      dup3\n        /* \"#utility.yul\":3507:3516   */\n      dup10\n        /* \"#utility.yul\":3503:3525   */\n      add\n        /* \"#utility.yul\":3482:3535   */\n      tag_143\n      jump\t// in\n    tag_185:\n        /* \"#utility.yul\":3472:3535   */\n      swap6\n      pop\n        /* \"#utility.yul\":3428:3545   */\n      pop\n        /* \"#utility.yul\":3584:3586   */\n      0x20\n        /* \"#utility.yul\":3610:3663   */\n      tag_186\n        /* \"#utility.yul\":3655:3662   */\n      dup9\n        /* \"#utility.yul\":3646:3652   */\n      dup3\n        /* \"#utility.yul\":3635:3644   */\n      dup10\n        /* \"#utility.yul\":3631:3653   */\n      add\n        /* \"#utility.yul\":3610:3663   */\n      tag_153\n      jump\t// in\n    tag_186:\n        /* \"#utility.yul\":3600:3663   */\n      swap5\n      pop\n        /* \"#utility.yul\":3555:3673   */\n      pop\n        /* \"#utility.yul\":3740:3742   */\n      0x40\n        /* \"#utility.yul\":3729:3738   */\n      dup7\n        /* \"#utility.yul\":3725:3743   */\n      add\n        /* \"#utility.yul\":3712:3744   */\n      calldataload\n        /* \"#utility.yul\":3771:3789   */\n      0xffffffffffffffff\n        /* \"#utility.yul\":3763:3769   */\n      dup2\n        /* \"#utility.yul\":3760:3790   */\n      gt\n        /* \"#utility.yul\":3757:3874   */\n      iszero\n      tag_187\n      jumpi\n        /* \"#utility.yul\":3793:3872   */\n      tag_188\n      tag_189\n      jump\t// in\n    tag_188:\n        /* \"#utility.yul\":3757:3874   */\n    tag_187:\n        /* \"#utility.yul\":3898:3961   */\n      tag_190\n        /* \"#utility.yul\":3953:3960   */\n      dup9\n        /* \"#utility.yul\":3944:3950   */\n      dup3\n        /* \"#utility.yul\":3933:3942   */\n      dup10\n        /* \"#utility.yul\":3929:3951   */\n      add\n        /* \"#utility.yul\":3898:3961   */\n      tag_147\n      jump\t// in\n    tag_190:\n        /* \"#utility.yul\":3888:3961   */\n      swap4\n      pop\n        /* \"#utility.yul\":3683:3971   */\n      pop\n        /* \"#utility.yul\":4038:4040   */\n      0x60\n        /* \"#utility.yul\":4027:4036   */\n      dup7\n        /* \"#utility.yul\":4023:4041   */\n      add\n        /* \"#utility.yul\":4010:4042   */\n      calldataload\n        /* \"#utility.yul\":4069:4087   */\n      0xffffffffffffffff\n        /* \"#utility.yul\":4061:4067   */\n      dup2\n        /* \"#utility.yul\":4058:4088   */\n      gt\n        /* \"#utility.yul\":4055:4172   */\n      iszero\n      tag_191\n      jumpi\n        /* \"#utility.yul\":4091:4170   */\n      tag_192\n      tag_189\n      jump\t// in\n    tag_192:\n        /* \"#utility.yul\":4055:4172   */\n    tag_191:\n        /* \"#utility.yul\":4196:4259   */\n      tag_193\n        /* \"#utility.yul\":4251:4258   */\n      dup9\n        /* \"#utility.yul\":4242:4248   */\n      dup3\n        /* \"#utility.yul\":4231:4240   */\n      dup10\n        /* \"#utility.yul\":4227:4249   */\n      add\n        /* \"#utility.yul\":4196:4259   */\n      tag_147\n      jump\t// in\n    tag_193:\n        /* \"#utility.yul\":4186:4259   */\n      swap3\n      pop\n        /* \"#utility.yul\":3981:4269   */\n      pop\n        /* \"#utility.yul\":4308:4311   */\n      0x80\n        /* \"#utility.yul\":4335:4386   */\n      tag_194\n        /* \"#utility.yul\":4378:4385   */\n      dup9\n        /* \"#utility.yul\":4369:4375   */\n      dup3\n        /* \"#utility.yul\":4358:4367   */\n      dup10\n        /* \"#utility.yul\":4354:4376   */\n      add\n        /* \"#utility.yul\":4335:4386   */\n      tag_157\n      jump\t// in\n    tag_194:\n        /* \"#utility.yul\":4325:4386   */\n      swap2\n      pop\n        /* \"#utility.yul\":4279:4396   */\n      pop\n        /* \"#utility.yul\":3136:4403   */\n      swap3\n      swap6\n      pop\n      swap3\n      swap6\n      swap1\n      swap4\n      pop\n      jump\t// out\n        /* \"#utility.yul\":4409:4518   */\n    tag_195:\n        /* \"#utility.yul\":4490:4511   */\n      tag_197\n        /* \"#utility.yul\":4505:4510   */\n      dup2\n        /* \"#utility.yul\":4490:4511   */\n      tag_198\n      jump\t// in\n    tag_197:\n        /* \"#utility.yul\":4485:4488   */\n      dup3\n        /* \"#utility.yul\":4478:4512   */\n      mstore\n        /* \"#utility.yul\":4409:4518   */\n      pop\n      pop\n      jump\t// out\n        /* \"#utility.yul\":4524:4888   */\n    tag_199:\n        /* \"#utility.yul\":4612:4615   */\n      0x00\n        /* \"#utility.yul\":4640:4679   */\n      tag_201\n        /* \"#utility.yul\":4673:4678   */\n      dup3\n        /* \"#utility.yul\":4640:4679   */\n      tag_202\n      jump\t// in\n    tag_201:\n        /* \"#utility.yul\":4695:4766   */\n      tag_203\n        /* \"#utility.yul\":4759:4765   */\n      dup2\n        /* \"#utility.yul\":4754:4757   */\n      dup6\n        /* \"#utility.yul\":4695:4766   */\n      tag_204\n      jump\t// in\n    tag_203:\n        /* \"#utility.yul\":4688:4766   */\n      swap4\n      pop\n        /* \"#utility.yul\":4775:4827   */\n      tag_205\n        /* \"#utility.yul\":4820:4826   */\n      dup2\n        /* \"#utility.yul\":4815:4818   */\n      dup6\n        /* \"#utility.yul\":4808:4812   */\n      0x20\n        /* \"#utility.yul\":4801:4806   */\n      dup7\n        /* \"#utility.yul\":4797:4813   */\n      add\n        /* \"#utility.yul\":4775:4827   */\n      tag_206\n      jump\t// in\n    tag_205:\n        /* \"#utility.yul\":4852:4881   */\n      tag_207\n        /* \"#utility.yul\":4874:4880   */\n      dup2\n        /* \"#utility.yul\":4852:4881   */\n      tag_208\n      jump\t// in\n    tag_207:\n        /* \"#utility.yul\":4847:4850   */\n      dup5\n        /* \"#utility.yul\":4843:4882   */\n      add\n        /* \"#utility.yul\":4836:4882   */\n      swap2\n      pop\n        /* \"#utility.yul\":4616:4888   */\n      pop\n        /* \"#utility.yul\":4524:4888   */\n      swap3\n      swap2\n      pop\n      pop\n      jump\t// out\n        /* \"#utility.yul\":4894:5260   */\n    tag_209:\n        /* \"#utility.yul\":5036:5039   */\n      0x00\n        /* \"#utility.yul\":5057:5124   */\n      tag_211\n        /* \"#utility.yul\":5121:5123   */\n      0x11\n        /* \"#utility.yul\":5116:5119   */\n      dup4\n        /* \"#utility.yul\":5057:5124   */\n      tag_204\n      jump\t// in\n    tag_211:\n        /* \"#utility.yul\":5050:5124   */\n      swap2\n      pop\n        /* \"#utility.yul\":5133:5226   */\n      tag_212\n        /* \"#utility.yul\":5222:5225   */\n      dup3\n        /* \"#utility.yul\":5133:5226   */\n      tag_213\n      jump\t// in\n    tag_212:\n        /* \"#utility.yul\":5251:5253   */\n      0x20\n        /* \"#utility.yul\":5246:5249   */\n      dup3\n        /* \"#utility.yul\":5242:5254   */\n      add\n        /* \"#utility.yul\":5235:5254   */\n      swap1\n      pop\n        /* \"#utility.yul\":4894:5260   */\n      swap2\n      swap1\n      pop\n      jump\t// out\n        /* \"#utility.yul\":5266:5632   */\n    tag_214:\n        /* \"#utility.yul\":5408:5411   */\n      0x00\n        /* \"#utility.yul\":5429:5496   */\n      tag_216\n        /* \"#utility.yul\":5493:5495   */\n      0x14\n        /* \"#utility.yul\":5488:5491   */\n      dup4\n        /* \"#utility.yul\":5429:5496   */\n      tag_204\n      jump\t// in\n    tag_216:\n        /* \"#utility.yul\":5422:5496   */\n      swap2\n      pop\n        /* \"#utility.yul\":5505:5598   */\n      tag_217\n        /* \"#utility.yul\":5594:5597   */\n      dup3\n        /* \"#utility.yul\":5505:5598   */\n      tag_218\n      jump\t// in\n    tag_217:\n        /* \"#utility.yul\":5623:5625   */\n      0x20\n        /* \"#utility.yul\":5618:5621   */\n      dup3\n        /* \"#utility.yul\":5614:5626   */\n      add\n        /* \"#utility.yul\":5607:5626   */\n      swap1\n      pop\n        /* \"#utility.yul\":5266:5632   */\n      swap2\n      swap1\n      pop\n      jump\t// out\n        /* \"#utility.yul\":5638:6003   */\n    tag_219:\n        /* \"#utility.yul\":5780:5783   */\n      0x00\n        /* \"#utility.yul\":5801:5867   */\n      tag_221\n        /* \"#utility.yul\":5865:5866   */\n      0x09\n        /* \"#utility.yul\":5860:5863   */\n      dup4\n        /* \"#utility.yul\":5801:5867   */\n      tag_204\n      jump\t// in\n    tag_221:\n        /* \"#utility.yul\":5794:5867   */\n      swap2\n      pop\n        /* \"#utility.yul\":5876:5969   */\n      tag_222\n        /* \"#utility.yul\":5965:5968   */\n      dup3\n        /* \"#utility.yul\":5876:5969   */\n      tag_223\n      jump\t// in\n    tag_222:\n        /* \"#utility.yul\":5994:5996   */\n      0x20\n        /* \"#utility.yul\":5989:5992   */\n      dup3\n        /* \"#utility.yul\":5985:5997   */\n      add\n        /* \"#utility.yul\":5978:5997   */\n      swap1\n      pop\n        /* \"#utility.yul\":5638:6003   */\n      swap2\n      swap1\n      pop\n      jump\t// out\n        /* \"#utility.yul\":6009:6375   */\n    tag_224:\n        /* \"#utility.yul\":6151:6154   */\n      0x00\n        /* \"#utility.yul\":6172:6239   */\n      tag_226\n        /* \"#utility.yul\":6236:6238   */\n      0x12\n        /* \"#utility.yul\":6231:6234   */\n      dup4\n        /* \"#utility.yul\":6172:6239   */\n      tag_204\n      jump\t// in\n    tag_226:\n        /* \"#utility.yul\":6165:6239   */\n      swap2\n      pop\n        /* \"#utility.yul\":6248:6341   */\n      tag_227\n        /* \"#utility.yul\":6337:6340   */\n      dup3\n        /* \"#utility.yul\":6248:6341   */\n      tag_228\n      jump\t// in\n    tag_227:\n        /* \"#utility.yul\":6366:6368   */\n      0x20\n        /* \"#utility.yul\":6361:6364   */\n      dup3\n        /* \"#utility.yul\":6357:6369   */\n      add\n        /* \"#utility.yul\":6350:6369   */\n      swap1\n      pop\n        /* \"#utility.yul\":6009:6375   */\n      swap2\n      swap1\n      pop\n      jump\t// out\n        /* \"#utility.yul\":6381:6746   */\n    tag_229:\n        /* \"#utility.yul\":6523:6526   */\n      0x00\n        /* \"#utility.yul\":6544:6610   */\n      tag_231\n        /* \"#utility.yul\":6608:6609   */\n      0x09\n        /* \"#utility.yul\":6603:6606   */\n      dup4\n        /* \"#utility.yul\":6544:6610   */\n      tag_204\n      jump\t// in\n    tag_231:\n        /* \"#utility.yul\":6537:6610   */\n      swap2\n      pop\n        /* \"#utility.yul\":6619:6712   */\n      tag_232\n        /* \"#utility.yul\":6708:6711   */\n      dup3\n        /* \"#utility.yul\":6619:6712   */\n      tag_233\n      jump\t// in\n    tag_232:\n        /* \"#utility.yul\":6737:6739   */\n      0x20\n        /* \"#utility.yul\":6732:6735   */\n      dup3\n        /* \"#utility.yul\":6728:6740   */\n      add\n        /* \"#utility.yul\":6721:6740   */\n      swap1\n      pop\n        /* \"#utility.yul\":6381:6746   */\n      swap2\n      swap1\n      pop\n      jump\t// out\n        /* \"#utility.yul\":6752:7118   */\n    tag_234:\n        /* \"#utility.yul\":6894:6897   */\n      0x00\n        /* \"#utility.yul\":6915:6982   */\n      tag_236\n        /* \"#utility.yul\":6979:6981   */\n      0x13\n        /* \"#utility.yul\":6974:6977   */\n      dup4\n        /* \"#utility.yul\":6915:6982   */\n      tag_204\n      jump\t// in\n    tag_236:\n        /* \"#utility.yul\":6908:6982   */\n      swap2\n      pop\n        /* \"#utility.yul\":6991:7084   */\n      tag_237\n        /* \"#utility.yul\":7080:7083   */\n      dup3\n        /* \"#utility.yul\":6991:7084   */\n      tag_238\n      jump\t// in\n    tag_237:\n        /* \"#utility.yul\":7109:7111   */\n      0x20\n        /* \"#utility.yul\":7104:7107   */\n      dup3\n        /* \"#utility.yul\":7100:7112   */\n      add\n        /* \"#utility.yul\":7093:7112   */\n      swap1\n      pop\n        /* \"#utility.yul\":6752:7118   */\n      swap2\n      swap1\n      pop\n      jump\t// out\n        /* \"#utility.yul\":7124:7242   */\n    tag_239:\n        /* \"#utility.yul\":7211:7235   */\n      tag_241\n        /* \"#utility.yul\":7229:7234   */\n      dup2\n        /* \"#utility.yul\":7211:7235   */\n      tag_242\n      jump\t// in\n    tag_241:\n        /* \"#utility.yul\":7206:7209   */\n      dup3\n        /* \"#utility.yul\":7199:7236   */\n      mstore\n        /* \"#utility.yul\":7124:7242   */\n      pop\n      pop\n      jump\t// out\n        /* \"#utility.yul\":7248:7360   */\n    tag_243:\n        /* \"#utility.yul\":7331:7353   */\n      tag_245\n        /* \"#utility.yul\":7347:7352   */\n      dup2\n        /* \"#utility.yul\":7331:7353   */\n      tag_246\n      jump\t// in\n    tag_245:\n        /* \"#utility.yul\":7326:7329   */\n      dup3\n        /* \"#utility.yul\":7319:7354   */\n      mstore\n        /* \"#utility.yul\":7248:7360   */\n      pop\n      pop\n      jump\t// out\n        /* \"#utility.yul\":7366:7576   */\n    tag_24:\n        /* \"#utility.yul\":7453:7457   */\n      0x00\n        /* \"#utility.yul\":7491:7493   */\n      0x20\n        /* \"#utility.yul\":7480:7489   */\n      dup3\n        /* \"#utility.yul\":7476:7494   */\n      add\n        /* \"#utility.yul\":7468:7494   */\n      swap1\n      pop\n        /* \"#utility.yul\":7504:7569   */\n      tag_248\n        /* \"#utility.yul\":7566:7567   */\n      0x00\n        /* \"#utility.yul\":7555:7564   */\n      dup4\n        /* \"#utility.yul\":7551:7568   */\n      add\n        /* \"#utility.yul\":7542:7548   */\n      dup5\n        /* \"#utility.yul\":7504:7569   */\n      tag_195\n      jump\t// in\n    tag_248:\n        /* \"#utility.yul\":7366:7576   */\n      swap3\n      swap2\n      pop\n      pop\n      jump\t// out\n        /* \"#utility.yul\":7582:7895   */\n    tag_18:\n        /* \"#utility.yul\":7695:7699   */\n      0x00\n        /* \"#utility.yul\":7733:7735   */\n      0x20\n        /* \"#utility.yul\":7722:7731   */\n      dup3\n        /* \"#utility.yul\":7718:7736   */\n      add\n        /* \"#utility.yul\":7710:7736   */\n      swap1\n      pop\n        /* \"#utility.yul\":7782:7791   */\n      dup2\n        /* \"#utility.yul\":7776:7780   */\n      dup2\n        /* \"#utility.yul\":7772:7792   */\n      sub\n        /* \"#utility.yul\":7768:7769   */\n      0x00\n        /* \"#utility.yul\":7757:7766   */\n      dup4\n        /* \"#utility.yul\":7753:7770   */\n      add\n        /* \"#utility.yul\":7746:7793   */\n      mstore\n        /* \"#utility.yul\":7810:7888   */\n      tag_250\n        /* \"#utility.yul\":7883:7887   */\n      dup2\n        /* \"#utility.yul\":7874:7880   */\n      dup5\n        /* \"#utility.yul\":7810:7888   */\n      tag_199\n      jump\t// in\n    tag_250:\n        /* \"#utility.yul\":7802:7888   */\n      swap1\n      pop\n        /* \"#utility.yul\":7582:7895   */\n      swap3\n      swap2\n      pop\n      pop\n      jump\t// out\n        /* \"#utility.yul\":7901:8320   */\n    tag_104:\n        /* \"#utility.yul\":8067:8071   */\n      0x00\n        /* \"#utility.yul\":8105:8107   */\n      0x20\n        /* \"#utility.yul\":8094:8103   */\n      dup3\n        /* \"#utility.yul\":8090:8108   */\n      add\n        /* \"#utility.yul\":8082:8108   */\n      swap1\n      pop\n        /* \"#utility.yul\":8154:8163   */\n      dup2\n        /* \"#utility.yul\":8148:8152   */\n      dup2\n        /* \"#utility.yul\":8144:8164   */\n      sub\n        /* \"#utility.yul\":8140:8141   */\n      0x00\n        /* \"#utility.yul\":8129:8138   */\n      dup4\n        /* \"#utility.yul\":8125:8142   */\n      add\n        /* \"#utility.yul\":8118:8165   */\n      mstore\n        /* \"#utility.yul\":8182:8313   */\n      tag_252\n        /* \"#utility.yul\":8308:8312   */\n      dup2\n        /* \"#utility.yul\":8182:8313   */\n      tag_209\n      jump\t// in\n    tag_252:\n        /* \"#utility.yul\":8174:8313   */\n      swap1\n      pop\n        /* \"#utility.yul\":7901:8320   */\n      swap2\n      swap1\n      pop\n      jump\t// out\n        /* \"#utility.yul\":8326:8745   */\n    tag_79:\n        /* \"#utility.yul\":8492:8496   */\n      0x00\n        /* \"#utility.yul\":8530:8532   */\n      0x20\n        /* \"#utility.yul\":8519:8528   */\n      dup3\n        /* \"#utility.yul\":8515:8533   */\n      add\n        /* \"#utility.yul\":8507:8533   */\n      swap1\n      pop\n        /* \"#utility.yul\":8579:8588   */\n      dup2\n        /* \"#utility.yul\":8573:8577   */\n      dup2\n        /* \"#utility.yul\":8569:8589   */\n      sub\n        /* \"#utility.yul\":8565:8566   */\n      0x00\n        /* \"#utility.yul\":8554:8563   */\n      dup4\n        /* \"#utility.yul\":8550:8567   */\n      add\n        /* \"#utility.yul\":8543:8590   */\n      mstore\n        /* \"#utility.yul\":8607:8738   */\n      tag_254\n        /* \"#utility.yul\":8733:8737   */\n      dup2\n        /* \"#utility.yul\":8607:8738   */\n      tag_214\n      jump\t// in\n    tag_254:\n        /* \"#utility.yul\":8599:8738   */\n      swap1\n      pop\n        /* \"#utility.yul\":8326:8745   */\n      swap2\n      swap1\n      pop\n      jump\t// out\n        /* \"#utility.yul\":8751:9170   */\n    tag_112:\n        /* \"#utility.yul\":8917:8921   */\n      0x00\n        /* \"#utility.yul\":8955:8957   */\n      0x20\n        /* \"#utility.yul\":8944:8953   */\n      dup3\n        /* \"#utility.yul\":8940:8958   */\n      add\n        /* \"#utility.yul\":8932:8958   */\n      swap1\n      pop\n        /* \"#utility.yul\":9004:9013   */\n      dup2\n        /* \"#utility.yul\":8998:9002   */\n      dup2\n        /* \"#utility.yul\":8994:9014   */\n      sub\n        /* \"#utility.yul\":8990:8991   */\n      0x00\n        /* \"#utility.yul\":8979:8988   */\n      dup4\n        /* \"#utility.yul\":8975:8992   */\n      add\n        /* \"#utility.yul\":8968:9015   */\n      mstore\n        /* \"#utility.yul\":9032:9163   */\n      tag_256\n        /* \"#utility.yul\":9158:9162   */\n      dup2\n        /* \"#utility.yul\":9032:9163   */\n      tag_219\n      jump\t// in\n    tag_256:\n        /* \"#utility.yul\":9024:9163   */\n      swap1\n      pop\n        /* \"#utility.yul\":8751:9170   */\n      swap2\n      swap1\n      pop\n      jump\t// out\n        /* \"#utility.yul\":9176:9595   */\n    tag_76:\n        /* \"#utility.yul\":9342:9346   */\n      0x00\n        /* \"#utility.yul\":9380:9382   */\n      0x20\n        /* \"#utility.yul\":9369:9378   */\n      dup3\n        /* \"#utility.yul\":9365:9383   */\n      add\n        /* \"#utility.yul\":9357:9383   */\n      swap1\n      pop\n        /* \"#utility.yul\":9429:9438   */\n      dup2\n        /* \"#utility.yul\":9423:9427   */\n      dup2\n        /* \"#utility.yul\":9419:9439   */\n      sub\n        /* \"#utility.yul\":9415:9416   */\n      0x00\n        /* \"#utility.yul\":9404:9413   */\n      dup4\n        /* \"#utility.yul\":9400:9417   */\n      add\n        /* \"#utility.yul\":9393:9440   */\n      mstore\n        /* \"#utility.yul\":9457:9588   */\n      tag_258\n        /* \"#utility.yul\":9583:9587   */\n      dup2\n        /* \"#utility.yul\":9457:9588   */\n      tag_224\n      jump\t// in\n    tag_258:\n        /* \"#utility.yul\":9449:9588   */\n      swap1\n      pop\n        /* \"#utility.yul\":9176:9595   */\n      swap2\n      swap1\n      pop\n      jump\t// out\n        /* \"#utility.yul\":9601:10020   */\n    tag_120:\n        /* \"#utility.yul\":9767:9771   */\n      0x00\n        /* \"#utility.yul\":9805:9807   */\n      0x20\n        /* \"#utility.yul\":9794:9803   */\n      dup3\n        /* \"#utility.yul\":9790:9808   */\n      add\n        /* \"#utility.yul\":9782:9808   */\n      swap1\n      pop\n        /* \"#utility.yul\":9854:9863   */\n      dup2\n        /* \"#utility.yul\":9848:9852   */\n      dup2\n        /* \"#utility.yul\":9844:9864   */\n      sub\n        /* \"#utility.yul\":9840:9841   */\n      0x00\n        /* \"#utility.yul\":9829:9838   */\n      dup4\n        /* \"#utility.yul\":9825:9842   */\n      add\n        /* \"#utility.yul\":9818:9865   */\n      mstore\n        /* \"#utility.yul\":9882:10013   */\n      tag_260\n        /* \"#utility.yul\":10008:10012   */\n      dup2\n        /* \"#utility.yul\":9882:10013   */\n      tag_229\n      jump\t// in\n    tag_260:\n        /* \"#utility.yul\":9874:10013   */\n      swap1\n      pop\n        /* \"#utility.yul\":9601:10020   */\n      swap2\n      swap1\n      pop\n      jump\t// out\n        /* \"#utility.yul\":10026:10445   */\n    tag_73:\n        /* \"#utility.yul\":10192:10196   */\n      0x00\n        /* \"#utility.yul\":10230:10232   */\n      0x20\n        /* \"#utility.yul\":10219:10228   */\n      dup3\n        /* \"#utility.yul\":10215:10233   */\n      add\n        /* \"#utility.yul\":10207:10233   */\n      swap1\n      pop\n        /* \"#utility.yul\":10279:10288   */\n      dup2\n        /* \"#utility.yul\":10273:10277   */\n      dup2\n        /* \"#utility.yul\":10269:10289   */\n      sub\n        /* \"#utility.yul\":10265:10266   */\n      0x00\n        /* \"#utility.yul\":10254:10263   */\n      dup4\n        /* \"#utility.yul\":10250:10267   */\n      add\n        /* \"#utility.yul\":10243:10290   */\n      mstore\n        /* \"#utility.yul\":10307:10438   */\n      tag_262\n        /* \"#utility.yul\":10433:10437   */\n      dup2\n        /* \"#utility.yul\":10307:10438   */\n      tag_234\n      jump\t// in\n    tag_262:\n        /* \"#utility.yul\":10299:10438   */\n      swap1\n      pop\n        /* \"#utility.yul\":10026:10445   */\n      swap2\n      swap1\n      pop\n      jump\t// out\n        /* \"#utility.yul\":10451:10673   */\n    tag_31:\n        /* \"#utility.yul\":10544:10548   */\n      0x00\n        /* \"#utility.yul\":10582:10584   */\n      0x20\n        /* \"#utility.yul\":10571:10580   */\n      dup3\n        /* \"#utility.yul\":10567:10585   */\n      add\n        /* \"#utility.yul\":10559:10585   */\n      swap1\n      pop\n        /* \"#utility.yul\":10595:10666   */\n      tag_264\n        /* \"#utility.yul\":10663:10664   */\n      0x00\n        /* \"#utility.yul\":10652:10661   */\n      dup4\n        /* \"#utility.yul\":10648:10665   */\n      add\n        /* \"#utility.yul\":10639:10645   */\n      dup5\n        /* \"#utility.yul\":10595:10666   */\n      tag_239\n      jump\t// in\n    tag_264:\n        /* \"#utility.yul\":10451:10673   */\n      swap3\n      swap2\n      pop\n      pop\n      jump\t// out\n        /* \"#utility.yul\":10679:10893   */\n    tag_40:\n        /* \"#utility.yul\":10768:10772   */\n      0x00\n        /* \"#utility.yul\":10806:10808   */\n      0x20\n        /* \"#utility.yul\":10795:10804   */\n      dup3\n        /* \"#utility.yul\":10791:10809   */\n      add\n        /* \"#utility.yul\":10783:10809   */\n      swap1\n      pop\n        /* \"#utility.yul\":10819:10886   */\n      tag_266\n        /* \"#utility.yul\":10883:10884   */\n      0x00\n        /* \"#utility.yul\":10872:10881   */\n      dup4\n        /* \"#utility.yul\":10868:10885   */\n      add\n        /* \"#utility.yul\":10859:10865   */\n      dup5\n        /* \"#utility.yul\":10819:10886   */\n      tag_243\n      jump\t// in\n    tag_266:\n        /* \"#utility.yul\":10679:10893   */\n      swap3\n      swap2\n      pop\n      pop\n      jump\t// out\n        /* \"#utility.yul\":10899:11028   */\n    tag_137:\n        /* \"#utility.yul\":10933:10939   */\n      0x00\n        /* \"#utility.yul\":10960:10980   */\n      tag_268\n      tag_269\n      jump\t// in\n    tag_268:\n        /* \"#utility.yul\":10950:10980   */\n      swap1\n      pop\n        /* \"#utility.yul\":10989:11022   */\n      tag_270\n        /* \"#utility.yul\":11017:11021   */\n      dup3\n        /* \"#utility.yul\":11009:11015   */\n      dup3\n        /* \"#utility.yul\":10989:11022   */\n      tag_271\n      jump\t// in\n    tag_270:\n        /* \"#utility.yul\":10899:11028   */\n      swap2\n      swap1\n      pop\n      jump\t// out\n        /* \"#utility.yul\":11034:11109   */\n    tag_269:\n        /* \"#utility.yul\":11067:11073   */\n      0x00\n        /* \"#utility.yul\":11100:11102   */\n      0x40\n        /* \"#utility.yul\":11094:11103   */\n      mload\n        /* \"#utility.yul\":11084:11103   */\n      swap1\n      pop\n        /* \"#utility.yul\":11034:11109   */\n      swap1\n      jump\t// out\n        /* \"#utility.yul\":11115:11423   */\n    tag_136:\n        /* \"#utility.yul\":11177:11181   */\n      0x00\n        /* \"#utility.yul\":11267:11285   */\n      0xffffffffffffffff\n        /* \"#utility.yul\":11259:11265   */\n      dup3\n        /* \"#utility.yul\":11256:11286   */\n      gt\n        /* \"#utility.yul\":11253:11309   */\n      iszero\n      tag_274\n      jumpi\n        /* \"#utility.yul\":11289:11307   */\n      tag_275\n      tag_276\n      jump\t// in\n    tag_275:\n        /* \"#utility.yul\":11253:11309   */\n    tag_274:\n        /* \"#utility.yul\":11327:11356   */\n      tag_277\n        /* \"#utility.yul\":11349:11355   */\n      dup3\n        /* \"#utility.yul\":11327:11356   */\n      tag_208\n      jump\t// in\n    tag_277:\n        /* \"#utility.yul\":11319:11356   */\n      swap1\n      pop\n        /* \"#utility.yul\":11411:11415   */\n      0x20\n        /* \"#utility.yul\":11405:11409   */\n      dup2\n        /* \"#utility.yul\":11401:11416   */\n      add\n        /* \"#utility.yul\":11393:11416   */\n      swap1\n      pop\n        /* \"#utility.yul\":11115:11423   */\n      swap2\n      swap1\n      pop\n      jump\t// out\n        /* \"#utility.yul\":11429:11528   */\n    tag_202:\n        /* \"#utility.yul\":11481:11487   */\n      0x00\n        /* \"#utility.yul\":11515:11520   */\n      dup2\n        /* \"#utility.yul\":11509:11521   */\n      mload\n        /* \"#utility.yul\":11499:11521   */\n      swap1\n      pop\n        /* \"#utility.yul\":11429:11528   */\n      swap2\n      swap1\n      pop\n      jump\t// out\n        /* \"#utility.yul\":11534:11703   */\n    tag_204:\n        /* \"#utility.yul\":11618:11629   */\n      0x00\n        /* \"#utility.yul\":11652:11658   */\n      dup3\n        /* \"#utility.yul\":11647:11650   */\n      dup3\n        /* \"#utility.yul\":11640:11659   */\n      mstore\n        /* \"#utility.yul\":11692:11696   */\n      0x20\n        /* \"#utility.yul\":11687:11690   */\n      dup3\n        /* \"#utility.yul\":11683:11697   */\n      add\n        /* \"#utility.yul\":11668:11697   */\n      swap1\n      pop\n        /* \"#utility.yul\":11534:11703   */\n      swap3\n      swap2\n      pop\n      pop\n      jump\t// out\n        /* \"#utility.yul\":11709:12014   */\n    tag_117:\n        /* \"#utility.yul\":11749:11752   */\n      0x00\n        /* \"#utility.yul\":11768:11788   */\n      tag_281\n        /* \"#utility.yul\":11786:11787   */\n      dup3\n        /* \"#utility.yul\":11768:11788   */\n      tag_242\n      jump\t// in\n    tag_281:\n        /* \"#utility.yul\":11763:11788   */\n      swap2\n      pop\n        /* \"#utility.yul\":11802:11822   */\n      tag_282\n        /* \"#utility.yul\":11820:11821   */\n      dup4\n        /* \"#utility.yul\":11802:11822   */\n      tag_242\n      jump\t// in\n    tag_282:\n        /* \"#utility.yul\":11797:11822   */\n      swap3\n      pop\n        /* \"#utility.yul\":11956:11957   */\n      dup3\n        /* \"#utility.yul\":11888:11954   */\n      0xffffffffffffffffffffffffffffffffffffffffffffffffffffffffffffffff\n        /* \"#utility.yul\":11884:11958   */\n      sub\n        /* \"#utility.yul\":11881:11882   */\n      dup3\n        /* \"#utility.yul\":11878:11959   */\n      gt\n        /* \"#utility.yul\":11875:11982   */\n      iszero\n      tag_283\n      jumpi\n        /* \"#utility.yul\":11962:11980   */\n      tag_284\n      tag_285\n      jump\t// in\n    tag_284:\n        /* \"#utility.yul\":11875:11982   */\n    tag_283:\n        /* \"#utility.yul\":12006:12007   */\n      dup3\n        /* \"#utility.yul\":12003:12004   */\n      dup3\n        /* \"#utility.yul\":11999:12008   */\n      add\n        /* \"#utility.yul\":11992:12008   */\n      swap1\n      pop\n        /* \"#utility.yul\":11709:12014   */\n      swap3\n      swap2\n      pop\n      pop\n      jump\t// out\n        /* \"#utility.yul\":12020:12211   */\n    tag_114:\n        /* \"#utility.yul\":12060:12064   */\n      0x00\n        /* \"#utility.yul\":12080:12100   */\n      tag_287\n        /* \"#utility.yul\":12098:12099   */\n      dup3\n        /* \"#utility.yul\":12080:12100   */\n      tag_242\n      jump\t// in\n    tag_287:\n        /* \"#utility.yul\":12075:12100   */\n      swap2\n      pop\n        /* \"#utility.yul\":12114:12134   */\n      tag_288\n        /* \"#utility.yul\":12132:12133   */\n      dup4\n        /* \"#utility.yul\":12114:12134   */\n      tag_242\n      jump\t// in\n    tag_288:\n        /* \"#utility.yul\":12109:12134   */\n      swap3\n      pop\n        /* \"#utility.yul\":12153:12154   */\n      dup3\n        /* \"#utility.yul\":12150:12151   */\n      dup3\n        /* \"#utility.yul\":12147:12155   */\n      lt\n        /* \"#utility.yul\":12144:12178   */\n      iszero\n      tag_289\n      jumpi\n        /* \"#utility.yul\":12158:12176   */\n      tag_290\n      tag_285\n      jump\t// in\n    tag_290:\n        /* \"#utility.yul\":12144:12178   */\n    tag_289:\n        /* \"#utility.yul\":12203:12204   */\n      dup3\n        /* \"#utility.yul\":12200:12201   */\n      dup3\n        /* \"#utility.yul\":12196:12205   */\n      sub\n        /* \"#utility.yul\":12188:12205   */\n      swap1\n      pop\n        /* \"#utility.yul\":12020:12211   */\n      swap3\n      swap2\n      pop\n      pop\n      jump\t// out\n        /* \"#utility.yul\":12217:12313   */\n    tag_291:\n        /* \"#utility.yul\":12254:12261   */\n      0x00\n        /* \"#utility.yul\":12283:12307   */\n      tag_293\n        /* \"#utility.yul\":12301:12306   */\n      dup3\n        /* \"#utility.yul\":12283:12307   */\n      tag_294\n      jump\t// in\n    tag_293:\n        /* \"#utility.yul\":12272:12307   */\n      swap1\n      pop\n        /* \"#utility.yul\":12217:12313   */\n      swap2\n      swap1\n      pop\n      jump\t// out\n        /* \"#utility.yul\":12319:12409   */\n    tag_198:\n        /* \"#utility.yul\":12353:12360   */\n      0x00\n        /* \"#utility.yul\":12396:12401   */\n      dup2\n        /* \"#utility.yul\":12389:12402   */\n      iszero\n        /* \"#utility.yul\":12382:12403   */\n      iszero\n        /* \"#utility.yul\":12371:12403   */\n      swap1\n      pop\n        /* \"#utility.yul\":12319:12409   */\n      swap2\n      swap1\n      pop\n      jump\t// out\n        /* \"#utility.yul\":12415:12541   */\n    tag_294:\n        /* \"#utility.yul\":12452:12459   */\n      0x00\n        /* \"#utility.yul\":12492:12534   */\n      0xffffffffffffffffffffffffffffffffffffffff\n        /* \"#utility.yul\":12485:12490   */\n      dup3\n        /* \"#utility.yul\":12481:12535   */\n      and\n        /* \"#utility.yul\":12470:12535   */\n      swap1\n      pop\n        /* \"#utility.yul\":12415:12541   */\n      swap2\n      swap1\n      pop\n      jump\t// out\n        /* \"#utility.yul\":12547:12624   */\n    tag_242:\n        /* \"#utility.yul\":12584:12591   */\n      0x00\n        /* \"#utility.yul\":12613:12618   */\n      dup2\n        /* \"#utility.yul\":12602:12618   */\n      swap1\n      pop\n        /* \"#utility.yul\":12547:12624   */\n      swap2\n      swap1\n      pop\n      jump\t// out\n        /* \"#utility.yul\":12630:12716   */\n    tag_246:\n        /* \"#utility.yul\":12665:12672   */\n      0x00\n        /* \"#utility.yul\":12705:12709   */\n      0xff\n        /* \"#utility.yul\":12698:12703   */\n      dup3\n        /* \"#utility.yul\":12694:12710   */\n      and\n        /* \"#utility.yul\":12683:12710   */\n      swap1\n      pop\n        /* \"#utility.yul\":12630:12716   */\n      swap2\n      swap1\n      pop\n      jump\t// out\n        /* \"#utility.yul\":12722:12876   */\n    tag_142:\n        /* \"#utility.yul\":12806:12812   */\n      dup3\n        /* \"#utility.yul\":12801:12804   */\n      dup2\n        /* \"#utility.yul\":12796:12799   */\n      dup4\n        /* \"#utility.yul\":12783:12813   */\n      calldatacopy\n        /* \"#utility.yul\":12868:12869   */\n      0x00\n        /* \"#utility.yul\":12859:12865   */\n      dup4\n        /* \"#utility.yul\":12854:12857   */\n      dup4\n        /* \"#utility.yul\":12850:12866   */\n      add\n        /* \"#utility.yul\":12843:12870   */\n      mstore\n        /* \"#utility.yul\":12722:12876   */\n      pop\n      pop\n      pop\n      jump\t// out\n        /* \"#utility.yul\":12882:13189   */\n    tag_206:\n        /* \"#utility.yul\":12950:12951   */\n      0x00\n        /* \"#utility.yul\":12960:13073   */\n    tag_301:\n        /* \"#utility.yul\":12974:12980   */\n      dup4\n        /* \"#utility.yul\":12971:12972   */\n      dup2\n        /* \"#utility.yul\":12968:12981   */\n      lt\n        /* \"#utility.yul\":12960:13073   */\n      iszero\n      tag_303\n      jumpi\n        /* \"#utility.yul\":13059:13060   */\n      dup1\n        /* \"#utility.yul\":13054:13057   */\n      dup3\n        /* \"#utility.yul\":13050:13061   */\n      add\n        /* \"#utility.yul\":13044:13062   */\n      mload\n        /* \"#utility.yul\":13040:13041   */\n      dup2\n        /* \"#utility.yul\":13035:13038   */\n      dup5\n        /* \"#utility.yul\":13031:13042   */\n      add\n        /* \"#utility.yul\":13024:13063   */\n      mstore\n        /* \"#utility.yul\":12996:12998   */\n      0x20\n        /* \"#utility.yul\":12993:12994   */\n      dup2\n        /* \"#utility.yul\":12989:12999   */\n      add\n        /* \"#utility.yul\":12984:12999   */\n      swap1\n      pop\n        /* \"#utility.yul\":12960:13073   */\n      jump(tag_301)\n    tag_303:\n        /* \"#utility.yul\":13091:13097   */\n      dup4\n        /* \"#utility.yul\":13088:13089   */\n      dup2\n        /* \"#utility.yul\":13085:13098   */\n      gt\n        /* \"#utility.yul\":13082:13183   */\n      iszero\n      tag_304\n      jumpi\n        /* \"#utility.yul\":13171:13172   */\n      0x00\n        /* \"#utility.yul\":13162:13168   */\n      dup5\n        /* \"#utility.yul\":13157:13160   */\n      dup5\n        /* \"#utility.yul\":13153:13169   */\n      add\n        /* \"#utility.yul\":13146:13173   */\n      mstore\n        /* \"#utility.yul\":13082:13183   */\n    tag_304:\n        /* \"#utility.yul\":12931:13189   */\n      pop\n        /* \"#utility.yul\":12882:13189   */\n      pop\n      pop\n      pop\n      jump\t// out\n        /* \"#utility.yul\":13195:13515   */\n    tag_63:\n        /* \"#utility.yul\":13239:13245   */\n      0x00\n        /* \"#utility.yul\":13276:13277   */\n      0x02\n        /* \"#utility.yul\":13270:13274   */\n      dup3\n        /* \"#utility.yul\":13266:13278   */\n      div\n        /* \"#utility.yul\":13256:13278   */\n      swap1\n      pop\n        /* \"#utility.yul\":13323:13324   */\n      0x01\n        /* \"#utility.yul\":13317:13321   */\n      dup3\n        /* \"#utility.yul\":13313:13325   */\n      and\n        /* \"#utility.yul\":13344:13362   */\n      dup1\n        /* \"#utility.yul\":13334:13415   */\n      tag_306\n      jumpi\n        /* \"#utility.yul\":13400:13404   */\n      0x7f\n        /* \"#utility.yul\":13392:13398   */\n      dup3\n        /* \"#utility.yul\":13388:13405   */\n      and\n        /* \"#utility.yul\":13378:13405   */\n      swap2\n      pop\n        /* \"#utility.yul\":13334:13415   */\n    tag_306:\n        /* \"#utility.yul\":13462:13464   */\n      0x20\n        /* \"#utility.yul\":13454:13460   */\n      dup3\n        /* \"#utility.yul\":13451:13465   */\n      lt\n        /* \"#utility.yul\":13431:13449   */\n      dup2\n        /* \"#utility.yul\":13428:13466   */\n      eq\n        /* \"#utility.yul\":13425:13509   */\n      iszero\n      tag_307\n      jumpi\n        /* \"#utility.yul\":13481:13499   */\n      tag_308\n      tag_309\n      jump\t// in\n    tag_308:\n        /* \"#utility.yul\":13425:13509   */\n    tag_307:\n        /* \"#utility.yul\":13246:13515   */\n      pop\n        /* \"#utility.yul\":13195:13515   */\n      swap2\n      swap1\n      pop\n      jump\t// out\n        /* \"#utility.yul\":13521:13802   */\n    tag_271:\n        /* \"#utility.yul\":13604:13631   */\n      tag_311\n        /* \"#utility.yul\":13626:13630   */\n      dup3\n        /* \"#utility.yul\":13604:13631   */\n      tag_208\n      jump\t// in\n    tag_311:\n        /* \"#utility.yul\":13596:13602   */\n      dup2\n        /* \"#utility.yul\":13592:13632   */\n      add\n        /* \"#utility.yul\":13734:13740   */\n      dup2\n        /* \"#utility.yul\":13722:13732   */\n      dup2\n        /* \"#utility.yul\":13719:13741   */\n      lt\n        /* \"#utility.yul\":13698:13716   */\n      0xffffffffffffffff\n        /* \"#utility.yul\":13686:13696   */\n      dup3\n        /* \"#utility.yul\":13683:13717   */\n      gt\n        /* \"#utility.yul\":13680:13742   */\n      or\n        /* \"#utility.yul\":13677:13765   */\n      iszero\n      tag_312\n      jumpi\n        /* \"#utility.yul\":13745:13763   */\n      tag_313\n      tag_276\n      jump\t// in\n    tag_313:\n        /* \"#utility.yul\":13677:13765   */\n    tag_312:\n        /* \"#utility.yul\":13785:13795   */\n      dup1\n        /* \"#utility.yul\":13781:13783   */\n      0x40\n        /* \"#utility.yul\":13774:13796   */\n      mstore\n        /* \"#utility.yul\":13564:13802   */\n      pop\n        /* \"#utility.yul\":13521:13802   */\n      pop\n      pop\n      jump\t// out\n        /* \"#utility.yul\":13808:13988   */\n    tag_285:\n        /* \"#utility.yul\":13856:13933   */\n      0x4e487b7100000000000000000000000000000000000000000000000000000000\n        /* \"#utility.yul\":13853:13854   */\n      0x00\n        /* \"#utility.yul\":13846:13934   */\n      mstore\n        /* \"#utility.yul\":13953:13957   */\n      0x11\n        /* \"#utility.yul\":13950:13951   */\n      0x04\n        /* \"#utility.yul\":13943:13958   */\n      mstore\n        /* \"#utility.yul\":13977:13981   */\n      0x24\n        /* \"#utility.yul\":13974:13975   */\n      0x00\n        /* \"#utility.yul\":13967:13982   */\n      revert\n        /* \"#utility.yul\":13994:14174   */\n    tag_309:\n        /* \"#utility.yul\":14042:14119   */\n      0x4e487b7100000000000000000000000000000000000000000000000000000000\n        /* \"#utility.yul\":14039:14040   */\n      0x00\n        /* \"#utility.yul\":14032:14120   */\n      mstore\n        /* \"#utility.yul\":14139:14143   */\n      0x22\n        /* \"#utility.yul\":14136:14137   */\n      0x04\n        /* \"#utility.yul\":14129:14144   */\n      mstore\n        /* \"#utility.yul\":14163:14167   */\n      0x24\n        /* \"#utility.yul\":14160:14161   */\n      0x00\n        /* \"#utility.yul\":14153:14168   */\n      revert\n        /* \"#utility.yul\":14180:14360   */\n    tag_276:\n        /* \"#utility.yul\":14228:14305   */\n      0x4e487b7100000000000000000000000000000000000000000000000000000000\n        /* \"#utility.yul\":14225:14226   */\n      0x00\n        /* \"#utility.yul\":14218:14306   */\n      mstore\n        /* \"#utility.yul\":14325:14329   */\n      0x41\n        /* \"#utility.yul\":14322:14323   */\n      0x04\n        /* \"#utility.yul\":14315:14330   */\n      mstore\n        /* \"#utility.yul\":14349:14353   */\n      0x24\n        /* \"#utility.yul\":14346:14347   */\n      0x00\n        /* \"#utility.yul\":14339:14354   */\n      revert\n        /* \"#utility.yul\":14366:14483   */\n    tag_151:\n        /* \"#utility.yul\":14475:14476   */\n      0x00\n        /* \"#utility.yul\":14472:14473   */\n      dup1\n        /* \"#utility.yul\":14465:14477   */\n      revert\n        /* \"#utility.yul\":14489:14606   */\n    tag_140:\n        /* \"#utility.yul\":14598:14599   */\n      0x00\n        /* \"#utility.yul\":14595:14596   */\n      dup1\n        /* \"#utility.yul\":14588:14600   */\n      revert\n        /* \"#utility.yul\":14612:14729   */\n    tag_189:\n        /* \"#utility.yul\":14721:14722   */\n      0x00\n        /* \"#utility.yul\":14718:14719   */\n      dup1\n        /* \"#utility.yul\":14711:14723   */\n      revert\n        /* \"#utility.yul\":14735:14852   */\n    tag_164:\n        /* \"#utility.yul\":14844:14845   */\n      0x00\n        /* \"#utility.yul\":14841:14842   */\n      dup1\n        /* \"#utility.yul\":14834:14846   */\n      revert\n        /* \"#utility.yul\":14858:14960   */\n    tag_208:\n        /* \"#utility.yul\":14899:14905   */\n      0x00\n        /* \"#utility.yul\":14950:14952   */\n      0x1f\n        /* \"#utility.yul\":14946:14953   */\n      not\n        /* \"#utility.yul\":14941:14943   */\n      0x1f\n        /* \"#utility.yul\":14934:14939   */\n      dup4\n        /* \"#utility.yul\":14930:14944   */\n      add\n        /* \"#utility.yul\":14926:14954   */\n      and\n        /* \"#utility.yul\":14916:14954   */\n      swap1\n      pop\n        /* \"#utility.yul\":14858:14960   */\n      swap2\n      swap1\n      pop\n      jump\t// out\n        /* \"#utility.yul\":14966:15133   */\n    tag_213:\n        /* \"#utility.yul\":15106:15125   */\n      0x544f4b454e5f494e495449414c495a4544000000000000000000000000000000\n        /* \"#utility.yul\":15102:15103   */\n      0x00\n        /* \"#utility.yul\":15094:15100   */\n      dup3\n        /* \"#utility.yul\":15090:15104   */\n      add\n        /* \"#utility.yul\":15083:15126   */\n      mstore\n        /* \"#utility.yul\":14966:15133   */\n      pop\n      jump\t// out\n        /* \"#utility.yul\":15139:15309   */\n    tag_218:\n        /* \"#utility.yul\":15279:15301   */\n      0x414c4c4f57414e43455f4e4f545f454e4f554748000000000000000000000000\n        /* \"#utility.yul\":15275:15276   */\n      0x00\n        /* \"#utility.yul\":15267:15273   */\n      dup3\n        /* \"#utility.yul\":15263:15277   */\n      add\n        /* \"#utility.yul\":15256:15302   */\n      mstore\n        /* \"#utility.yul\":15139:15309   */\n      pop\n      jump\t// out\n        /* \"#utility.yul\":15315:15474   */\n    tag_223:\n        /* \"#utility.yul\":15455:15466   */\n      0x5355425f4552524f520000000000000000000000000000000000000000000000\n        /* \"#utility.yul\":15451:15452   */\n      0x00\n        /* \"#utility.yul\":15443:15449   */\n      dup3\n        /* \"#utility.yul\":15439:15453   */\n      add\n        /* \"#utility.yul\":15432:15467   */\n      mstore\n        /* \"#utility.yul\":15315:15474   */\n      pop\n      jump\t// out\n        /* \"#utility.yul\":15480:15648   */\n    tag_228:\n        /* \"#utility.yul\":15620:15640   */\n      0x42414c414e43455f4e4f545f454e4f5547480000000000000000000000000000\n        /* \"#utility.yul\":15616:15617   */\n      0x00\n        /* \"#utility.yul\":15608:15614   */\n      dup3\n        /* \"#utility.yul\":15604:15618   */\n      add\n        /* \"#utility.yul\":15597:15641   */\n      mstore\n        /* \"#utility.yul\":15480:15648   */\n      pop\n      jump\t// out\n        /* \"#utility.yul\":15654:15813   */\n    tag_233:\n        /* \"#utility.yul\":15794:15805   */\n      0x4144445f4552524f520000000000000000000000000000000000000000000000\n        /* \"#utility.yul\":15790:15791   */\n      0x00\n        /* \"#utility.yul\":15782:15788   */\n      dup3\n        /* \"#utility.yul\":15778:15792   */\n      add\n        /* \"#utility.yul\":15771:15806   */\n      mstore\n        /* \"#utility.yul\":15654:15813   */\n      pop\n      jump\t// out\n        /* \"#utility.yul\":15819:15988   */\n    tag_238:\n        /* \"#utility.yul\":15959:15980   */\n      0x544f5f414444524553535f49535f454d50545900000000000000000000000000\n        /* \"#utility.yul\":15955:15956   */\n      0x00\n        /* \"#utility.yul\":15947:15953   */\n      dup3\n        /* \"#utility.yul\":15943:15957   */\n      add\n        /* \"#utility.yul\":15936:15981   */\n      mstore\n        /* \"#utility.yul\":15819:15988   */\n      pop\n      jump\t// out\n        /* \"#utility.yul\":15994:16116   */\n    tag_146:\n        /* \"#utility.yul\":16067:16091   */\n      tag_329\n        /* \"#utility.yul\":16085:16090   */\n      dup2\n        /* \"#utility.yul\":16067:16091   */\n      tag_291\n      jump\t// in\n    tag_329:\n        /* \"#utility.yul\":16060:16065   */\n      dup2\n        /* \"#utility.yul\":16057:16092   */\n      eq\n        /* \"#utility.yul\":16047:16110   */\n      tag_330\n      jumpi\n        /* \"#utility.yul\":16106:16107   */\n      0x00\n        /* \"#utility.yul\":16103:16104   */\n      dup1\n        /* \"#utility.yul\":16096:16108   */\n      revert\n        /* \"#utility.yul\":16047:16110   */\n    tag_330:\n        /* \"#utility.yul\":15994:16116   */\n      pop\n      jump\t// out\n        /* \"#utility.yul\":16122:16244   */\n    tag_156:\n        /* \"#utility.yul\":16195:16219   */\n      tag_332\n        /* \"#utility.yul\":16213:16218   */\n      dup2\n        /* \"#utility.yul\":16195:16219   */\n      tag_242\n      jump\t// in\n    tag_332:\n        /* \"#utility.yul\":16188:16193   */\n      dup2\n        /* \"#utility.yul\":16185:16220   */\n      eq\n        /* \"#utility.yul\":16175:16238   */\n      tag_333\n      jumpi\n        /* \"#utility.yul\":16234:16235   */\n      0x00\n        /* \"#utility.yul\":16231:16232   */\n      dup1\n        /* \"#utility.yul\":16224:16236   */\n      revert\n        /* \"#utility.yul\":16175:16238   */\n    tag_333:\n        /* \"#utility.yul\":16122:16244   */\n      pop\n      jump\t// out\n        /* \"#utility.yul\":16250:16368   */\n    tag_160:\n        /* \"#utility.yul\":16321:16343   */\n      tag_335\n        /* \"#utility.yul\":16337:16342   */\n      dup2\n        /* \"#utility.yul\":16321:16343   */\n      tag_246\n      jump\t// in\n    tag_335:\n        /* \"#utility.yul\":16314:16319   */\n      dup2\n        /* \"#utility.yul\":16311:16344   */\n      eq\n        /* \"#utility.yul\":16301:16362   */\n      tag_336\n      jumpi\n        /* \"#utility.yul\":16358:16359   */\n      0x00\n        /* \"#utility.yul\":16355:16356   */\n      dup1\n        /* \"#utility.yul\":16348:16360   */\n      revert\n        /* \"#utility.yul\":16301:16362   */\n    tag_336:\n        /* \"#utility.yul\":16250:16368   */\n      pop\n      jump\t// out\n\n    auxdata: 0xa2646970667358221220cb1e45f53296c9c5ccc3018da5c335fc82387d7348fa925c6666b36f87687c4a64736f6c63430008070033\n}\n",
				"bytecode": {
					"linkReferences": {},
					"object": "608060405234801561001057600080fd5b506117ed806100206000396000f3fe608060405234801561001057600080fd5b50600436106100a95760003560e01c8063313ce56711610071578063313ce5671461016857806370a082311461018657806395d89b41146101b6578063a9059cbb146101d4578063dd62ed3e14610204578063fc90ef1814610234576100a9565b806306fdde03146100ae578063095ea7b3146100cc578063158ef93e146100fc57806318160ddd1461011a57806323b872dd14610138575b600080fd5b6100b6610250565b6040516100c391906112bc565b60405180910390f35b6100e660048036038101906100e19190611076565b6102de565b6040516100f391906112a1565b60405180910390f35b6101046103d0565b60405161011191906112a1565b60405180910390f35b6101226103e3565b60405161012f919061139e565b60405180910390f35b610152600480360381019061014d9190611023565b6103e9565b60405161015f91906112a1565b60405180910390f35b610170610844565b60405161017d91906113b9565b60405180910390f35b6101a0600480360381019061019b9190610fb6565b610857565b6040516101ad919061139e565b60405180910390f35b6101be6108a0565b6040516101cb91906112bc565b60405180910390f35b6101ee60048036038101906101e99190611076565b61092e565b6040516101fb91906112a1565b60405180910390f35b61021e60048036038101906102199190610fe3565b610bba565b60405161022b919061139e565b60405180910390f35b61024e600480360381019061024991906110b6565b610c41565b005b6000805461025d90611567565b80601f016020809104026020016040519081016040528092919081815260200182805461028990611567565b80156102d65780601f106102ab576101008083540402835291602001916102d6565b820191906000526020600020905b8154815290600101906020018083116102b957829003601f168201915b505050505081565b600081600660003373ffffffffffffffffffffffffffffffffffffffff1673ffffffffffffffffffffffffffffffffffffffff16815260200190815260200160002060008573ffffffffffffffffffffffffffffffffffffffff1673ffffffffffffffffffffffffffffffffffffffff168152602001908152602001600020819055508273ffffffffffffffffffffffffffffffffffffffff163373ffffffffffffffffffffffffffffffffffffffff167f8c5be1e5ebec7d5bd14f71427d1e84f3dd0314c0f7b2291e5b200ac8c7c3b925846040516103be919061139e565b60405180910390a36001905092915050565b600460009054906101000a900460ff1681565b60035481565b60008073ffffffffffffffffffffffffffffffffffffffff168373ffffffffffffffffffffffffffffffffffffffff16141561045a576040517f08c379a00000000000000000000000000000000000000000000000000000000081526004016104519061137e565b60405180910390fd5b600560008573ffffffffffffffffffffffffffffffffffffffff1673ffffffffffffffffffffffffffffffffffffffff168152602001908152602001600020548211156104dc576040517f08c379a00000000000000000000000000000000000000000000000000000000081526004016104d39061133e565b60405180910390fd5b600660008573ffffffffffffffffffffffffffffffffffffffff1673ffffffffffffffffffffffffffffffffffffffff16815260200190815260200160002060003373ffffffffffffffffffffffffffffffffffffffff1673ffffffffffffffffffffffffffffffffffffffff1681526020019081526020016000205482111561059b576040517f08c379a0000000000000000000000000000000000000000000000000000000008152600401610592906112fe565b60405180910390fd5b6105ed82600560008773ffffffffffffffffffffffffffffffffffffffff1673ffffffffffffffffffffffffffffffffffffffff16815260200190815260200160002054610dad90919063ffffffff16565b600560008673ffffffffffffffffffffffffffffffffffffffff1673ffffffffffffffffffffffffffffffffffffffff1681526020019081526020016000208190555061068282600560008673ffffffffffffffffffffffffffffffffffffffff1673ffffffffffffffffffffffffffffffffffffffff16815260200190815260200160002054610e0690919063ffffffff16565b600560008573ffffffffffffffffffffffffffffffffffffffff1673ffffffffffffffffffffffffffffffffffffffff1681526020019081526020016000208190555061075482600660008773ffffffffffffffffffffffffffffffffffffffff1673ffffffffffffffffffffffffffffffffffffffff16815260200190815260200160002060003373ffffffffffffffffffffffffffffffffffffffff1673ffffffffffffffffffffffffffffffffffffffff16815260200190815260200160002054610dad90919063ffffffff16565b600660008673ffffffffffffffffffffffffffffffffffffffff1673ffffffffffffffffffffffffffffffffffffffff16815260200190815260200160002060003373ffffffffffffffffffffffffffffffffffffffff1673ffffffffffffffffffffffffffffffffffffffff168152602001908152602001600020819055508273ffffffffffffffffffffffffffffffffffffffff168473ffffffffffffffffffffffffffffffffffffffff167fddf252ad1be2c89b69c2b068fc378daa952ba7f163c4a11628f55a4df523b3ef84604051610831919061139e565b60405180910390a3600190509392505050565b600160009054906101000a900460ff1681565b6000600560008373ffffffffffffffffffffffffffffffffffffffff1673ffffffffffffffffffffffffffffffffffffffff168152602001908152602001600020549050919050565b600280546108ad90611567565b80601f01602080910402602001604051908101604052809291908181526020018280546108d990611567565b80156109265780601f106108fb57610100808354040283529160200191610926565b820191906000526020600020905b81548152906001019060200180831161090957829003601f168201915b505050505081565b60008073ffffffffffffffffffffffffffffffffffffffff168373ffffffffffffffffffffffffffffffffffffffff16141561099f576040517f08c379a00000000000000000000000000000000000000000000000000000000081526004016109969061137e565b60405180910390fd5b600560003373ffffffffffffffffffffffffffffffffffffffff1673ffffffffffffffffffffffffffffffffffffffff16815260200190815260200160002054821115610a21576040517f08c379a0000000000000000000000000000000000000000000000000000000008152600401610a189061133e565b60405180910390fd5b610a7382600560003373ffffffffffffffffffffffffffffffffffffffff1673ffffffffffffffffffffffffffffffffffffffff16815260200190815260200160002054610dad90919063ffffffff16565b600560003373ffffffffffffffffffffffffffffffffffffffff1673ffffffffffffffffffffffffffffffffffffffff16815260200190815260200160002081905550610b0882600560008673ffffffffffffffffffffffffffffffffffffffff1673ffffffffffffffffffffffffffffffffffffffff16815260200190815260200160002054610e0690919063ffffffff16565b600560008573ffffffffffffffffffffffffffffffffffffffff1673ffffffffffffffffffffffffffffffffffffffff168152602001908152602001600020819055508273ffffffffffffffffffffffffffffffffffffffff163373ffffffffffffffffffffffffffffffffffffffff167fddf252ad1be2c89b69c2b068fc378daa952ba7f163c4a11628f55a4df523b3ef84604051610ba8919061139e565b60405180910390a36001905092915050565b6000600660008473ffffffffffffffffffffffffffffffffffffffff1673ffffffffffffffffffffffffffffffffffffffff16815260200190815260200160002060008373ffffffffffffffffffffffffffffffffffffffff1673ffffffffffffffffffffffffffffffffffffffff16815260200190815260200160002054905092915050565b600460009054906101000a900460ff1615610c91576040517f08c379a0000000000000000000000000000000000000000000000000000000008152600401610c88906112de565b60405180910390fd5b6001600460006101000a81548160ff0219169083151502179055508360038190555083600560008773ffffffffffffffffffffffffffffffffffffffff1673ffffffffffffffffffffffffffffffffffffffff168152602001908152602001600020819055508260009080519060200190610d0d929190610e64565b508160029080519060200190610d24929190610e64565b5080600160006101000a81548160ff021916908360ff1602179055508473ffffffffffffffffffffffffffffffffffffffff16600073ffffffffffffffffffffffffffffffffffffffff167fddf252ad1be2c89b69c2b068fc378daa952ba7f163c4a11628f55a4df523b3ef86604051610d9e919061139e565b60405180910390a35050505050565b600082821115610df2576040517f08c379a0000000000000000000000000000000000000000000000000000000008152600401610de99061131e565b60405180910390fd5b8183610dfe919061149c565b905092915050565b6000808284610e159190611446565b905083811015610e5a576040517f08c379a0000000000000000000000000000000000000000000000000000000008152600401610e519061135e565b60405180910390fd5b8091505092915050565b828054610e7090611567565b90600052602060002090601f016020900481019282610e925760008555610ed9565b82601f10610eab57805160ff1916838001178555610ed9565b82800160010185558215610ed9579182015b82811115610ed8578251825591602001919060010190610ebd565b5b509050610ee69190610eea565b5090565b5b80821115610f03576000816000905550600101610eeb565b5090565b6000610f1a610f15846113f9565b6113d4565b905082815260208101848484011115610f3657610f3561165c565b5b610f41848285611525565b509392505050565b600081359050610f5881611772565b92915050565b600082601f830112610f7357610f72611657565b5b8135610f83848260208601610f07565b91505092915050565b600081359050610f9b81611789565b92915050565b600081359050610fb0816117a0565b92915050565b600060208284031215610fcc57610fcb611666565b5b6000610fda84828501610f49565b91505092915050565b60008060408385031215610ffa57610ff9611666565b5b600061100885828601610f49565b925050602061101985828601610f49565b9150509250929050565b60008060006060848603121561103c5761103b611666565b5b600061104a86828701610f49565b935050602061105b86828701610f49565b925050604061106c86828701610f8c565b9150509250925092565b6000806040838503121561108d5761108c611666565b5b600061109b85828601610f49565b92505060206110ac85828601610f8c565b9150509250929050565b600080600080600060a086880312156110d2576110d1611666565b5b60006110e088828901610f49565b95505060206110f188828901610f8c565b945050604086013567ffffffffffffffff81111561111257611111611661565b5b61111e88828901610f5e565b935050606086013567ffffffffffffffff81111561113f5761113e611661565b5b61114b88828901610f5e565b925050608061115c88828901610fa1565b9150509295509295909350565b611172816114e2565b82525050565b60006111838261142a565b61118d8185611435565b935061119d818560208601611534565b6111a68161166b565b840191505092915050565b60006111be601183611435565b91506111c98261167c565b602082019050919050565b60006111e1601483611435565b91506111ec826116a5565b602082019050919050565b6000611204600983611435565b915061120f826116ce565b602082019050919050565b6000611227601283611435565b9150611232826116f7565b602082019050919050565b600061124a600983611435565b915061125582611720565b602082019050919050565b600061126d601383611435565b915061127882611749565b602082019050919050565b61128c8161150e565b82525050565b61129b81611518565b82525050565b60006020820190506112b66000830184611169565b92915050565b600060208201905081810360008301526112d68184611178565b905092915050565b600060208201905081810360008301526112f7816111b1565b9050919050565b60006020820190508181036000830152611317816111d4565b9050919050565b60006020820190508181036000830152611337816111f7565b9050919050565b600060208201905081810360008301526113578161121a565b9050919050565b600060208201905081810360008301526113778161123d565b9050919050565b6000602082019050818103600083015261139781611260565b9050919050565b60006020820190506113b36000830184611283565b92915050565b60006020820190506113ce6000830184611292565b92915050565b60006113de6113ef565b90506113ea8282611599565b919050565b6000604051905090565b600067ffffffffffffffff82111561141457611413611628565b5b61141d8261166b565b9050602081019050919050565b600081519050919050565b600082825260208201905092915050565b60006114518261150e565b915061145c8361150e565b9250827fffffffffffffffffffffffffffffffffffffffffffffffffffffffffffffffff03821115611491576114906115ca565b5b828201905092915050565b60006114a78261150e565b91506114b28361150e565b9250828210156114c5576114c46115ca565b5b828203905092915050565b60006114db826114ee565b9050919050565b60008115159050919050565b600073ffffffffffffffffffffffffffffffffffffffff82169050919050565b6000819050919050565b600060ff82169050919050565b82818337600083830152505050565b60005b83811015611552578082015181840152602081019050611537565b83811115611561576000848401525b50505050565b6000600282049050600182168061157f57607f821691505b60208210811415611593576115926115f9565b5b50919050565b6115a28261166b565b810181811067ffffffffffffffff821117156115c1576115c0611628565b5b80604052505050565b7f4e487b7100000000000000000000000000000000000000000000000000000000600052601160045260246000fd5b7f4e487b7100000000000000000000000000000000000000000000000000000000600052602260045260246000fd5b7f4e487b7100000000000000000000000000000000000000000000000000000000600052604160045260246000fd5b600080fd5b600080fd5b600080fd5b600080fd5b6000601f19601f8301169050919050565b7f544f4b454e5f494e495449414c495a4544000000000000000000000000000000600082015250565b7f414c4c4f57414e43455f4e4f545f454e4f554748000000000000000000000000600082015250565b7f5355425f4552524f520000000000000000000000000000000000000000000000600082015250565b7f42414c414e43455f4e4f545f454e4f5547480000000000000000000000000000600082015250565b7f4144445f4552524f520000000000000000000000000000000000000000000000600082015250565b7f544f5f414444524553535f49535f454d50545900000000000000000000000000600082015250565b61177b816114d0565b811461178657600080fd5b50565b6117928161150e565b811461179d57600080fd5b50565b6117a981611518565b81146117b457600080fd5b5056fea2646970667358221220cb1e45f53296c9c5ccc3018da5c335fc82387d7348fa925c6666b36f87687c4a64736f6c63430008070033",
					"opcodes": "PUSH1 0x80 PUSH1 0x40 MSTORE CALLVALUE DUP1 ISZERO PUSH2 0x10 JUMPI PUSH1 0x0 DUP1 REVERT JUMPDEST POP PUSH2 0x17ED DUP1 PUSH2 0x20 PUSH1 0x0 CODECOPY PUSH1 0x0 RETURN INVALID PUSH1 0x80 PUSH1 0x40 MSTORE CALLVALUE DUP1 ISZERO PUSH2 0x10 JUMPI PUSH1 0x0 DUP1 REVERT JUMPDEST POP PUSH1 0x4 CALLDATASIZE LT PUSH2 0xA9 JUMPI PUSH1 0x0 CALLDATALOAD PUSH1 0xE0 SHR DUP1 PUSH4 0x313CE567 GT PUSH2 0x71 JUMPI DUP1 PUSH4 0x313CE567 EQ PUSH2 0x168 JUMPI DUP1 PUSH4 0x70A08231 EQ PUSH2 0x186 JUMPI DUP1 PUSH4 0x95D89B41 EQ PUSH2 0x1B6 JUMPI DUP1 PUSH4 0xA9059CBB EQ PUSH2 0x1D4 JUMPI DUP1 PUSH4 0xDD62ED3E EQ PUSH2 0x204 JUMPI DUP1 PUSH4 0xFC90EF18 EQ PUSH2 0x234 JUMPI PUSH2 0xA9 JUMP JUMPDEST DUP1 PUSH4 0x6FDDE03 EQ PUSH2 0xAE JUMPI DUP1 PUSH4 0x95EA7B3 EQ PUSH2 0xCC JUMPI DUP1 PUSH4 0x158EF93E EQ PUSH2 0xFC JUMPI DUP1 PUSH4 0x18160DDD EQ PUSH2 0x11A JUMPI DUP1 PUSH4 0x23B872DD EQ PUSH2 0x138 JUMPI JUMPDEST PUSH1 0x0 DUP1 REVERT JUMPDEST PUSH2 0xB6 PUSH2 0x250 JUMP JUMPDEST PUSH1 0x40 MLOAD PUSH2 0xC3 SWAP2 SWAP1 PUSH2 0x12BC JUMP JUMPDEST PUSH1 0x40 MLOAD DUP1 SWAP2 SUB SWAP1 RETURN JUMPDEST PUSH2 0xE6 PUSH1 0x4 DUP1 CALLDATASIZE SUB DUP2 ADD SWAP1 PUSH2 0xE1 SWAP2 SWAP1 PUSH2 0x1076 JUMP JUMPDEST PUSH2 0x2DE JUMP JUMPDEST PUSH1 0x40 MLOAD PUSH2 0xF3 SWAP2 SWAP1 PUSH2 0x12A1 JUMP JUMPDEST PUSH1 0x40 MLOAD DUP1 SWAP2 SUB SWAP1 RETURN JUMPDEST PUSH2 0x104 PUSH2 0x3D0 JUMP JUMPDEST PUSH1 0x40 MLOAD PUSH2 0x111 SWAP2 SWAP1 PUSH2 0x12A1 JUMP JUMPDEST PUSH1 0x40 MLOAD DUP1 SWAP2 SUB SWAP1 RETURN JUMPDEST PUSH2 0x122 PUSH2 0x3E3 JUMP JUMPDEST PUSH1 0x40 MLOAD PUSH2 0x12F SWAP2 SWAP1 PUSH2 0x139E JUMP JUMPDEST PUSH1 0x40 MLOAD DUP1 SWAP2 SUB SWAP1 RETURN JUMPDEST PUSH2 0x152 PUSH1 0x4 DUP1 CALLDATASIZE SUB DUP2 ADD SWAP1 PUSH2 0x14D SWAP2 SWAP1 PUSH2 0x1023 JUMP JUMPDEST PUSH2 0x3E9 JUMP JUMPDEST PUSH1 0x40 MLOAD PUSH2 0x15F SWAP2 SWAP1 PUSH2 0x12A1 JUMP JUMPDEST PUSH1 0x40 MLOAD DUP1 SWAP2 SUB SWAP1 RETURN JUMPDEST PUSH2 0x170 PUSH2 0x844 JUMP JUMPDEST PUSH1 0x40 MLOAD PUSH2 0x17D SWAP2 SWAP1 PUSH2 0x13B9 JUMP JUMPDEST PUSH1 0x40 MLOAD DUP1 SWAP2 SUB SWAP1 RETURN JUMPDEST PUSH2 0x1A0 PUSH1 0x4 DUP1 CALLDATASIZE SUB DUP2 ADD SWAP1 PUSH2 0x19B SWAP2 SWAP1 PUSH2 0xFB6 JUMP JUMPDEST PUSH2 0x857 JUMP JUMPDEST PUSH1 0x40 MLOAD PUSH2 0x1AD SWAP2 SWAP1 PUSH2 0x139E JUMP JUMPDEST PUSH1 0x40 MLOAD DUP1 SWAP2 SUB SWAP1 RETURN JUMPDEST PUSH2 0x1BE PUSH2 0x8A0 JUMP JUMPDEST PUSH1 0x40 MLOAD PUSH2 0x1CB SWAP2 SWAP1 PUSH2 0x12BC JUMP JUMPDEST PUSH1 0x40 MLOAD DUP1 SWAP2 SUB SWAP1 RETURN JUMPDEST PUSH2 0x1EE PUSH1 0x4 DUP1 CALLDATASIZE SUB DUP2 ADD SWAP1 PUSH2 0x1E9 SWAP2 SWAP1 PUSH2 0x1076 JUMP JUMPDEST PUSH2 0x92E JUMP JUMPDEST PUSH1 0x40 MLOAD PUSH2 0x1FB SWAP2 SWAP1 PUSH2 0x12A1 JUMP JUMPDEST PUSH1 0x40 MLOAD DUP1 SWAP2 SUB SWAP1 RETURN JUMPDEST PUSH2 0x21E PUSH1 0x4 DUP1 CALLDATASIZE SUB DUP2 ADD SWAP1 PUSH2 0x219 SWAP2 SWAP1 PUSH2 0xFE3 JUMP JUMPDEST PUSH2 0xBBA JUMP JUMPDEST PUSH1 0x40 MLOAD PUSH2 0x22B SWAP2 SWAP1 PUSH2 0x139E JUMP JUMPDEST PUSH1 0x40 MLOAD DUP1 SWAP2 SUB SWAP1 RETURN JUMPDEST PUSH2 0x24E PUSH1 0x4 DUP1 CALLDATASIZE SUB DUP2 ADD SWAP1 PUSH2 0x249 SWAP2 SWAP1 PUSH2 0x10B6 JUMP JUMPDEST PUSH2 0xC41 JUMP JUMPDEST STOP JUMPDEST PUSH1 0x0 DUP1 SLOAD PUSH2 0x25D SWAP1 PUSH2 0x1567 JUMP JUMPDEST DUP1 PUSH1 0x1F ADD PUSH1 0x20 DUP1 SWAP2 DIV MUL PUSH1 0x20 ADD PUSH1 0x40 MLOAD SWAP1 DUP2 ADD PUSH1 0x40 MSTORE DUP1 SWAP3 SWAP2 SWAP1 DUP2 DUP2 MSTORE PUSH1 0x20 ADD DUP3 DUP1 SLOAD PUSH2 0x289 SWAP1 PUSH2 0x1567 JUMP JUMPDEST DUP1 ISZERO PUSH2 0x2D6 JUMPI DUP1 PUSH1 0x1F LT PUSH2 0x2AB JUMPI PUSH2 0x100 DUP1 DUP4 SLOAD DIV MUL DUP4 MSTORE SWAP2 PUSH1 0x20 ADD SWAP2 PUSH2 0x2D6 JUMP JUMPDEST DUP3 ADD SWAP2 SWAP1 PUSH1 0x0 MSTORE PUSH1 0x20 PUSH1 0x0 KECCAK256 SWAP1 JUMPDEST DUP2 SLOAD DUP2 MSTORE SWAP1 PUSH1 0x1 ADD SWAP1 PUSH1 0x20 ADD DUP1 DUP4 GT PUSH2 0x2B9 JUMPI DUP3 SWAP1 SUB PUSH1 0x1F AND DUP3 ADD SWAP2 JUMPDEST POP POP POP POP POP DUP2 JUMP JUMPDEST PUSH1 0x0 DUP2 PUSH1 0x6 PUSH1 0x0 CALLER PUSH20 0xFFFFFFFFFFFFFFFFFFFFFFFFFFFFFFFFFFFFFFFF AND PUSH20 0xFFFFFFFFFFFFFFFFFFFFFFFFFFFFFFFFFFFFFFFF AND DUP2 MSTORE PUSH1 0x20 ADD SWAP1 DUP2 MSTORE PUSH1 0x20 ADD PUSH1 0x0 KECCAK256 PUSH1 0x0 DUP6 PUSH20 0xFFFFFFFFFFFFFFFFFFFFFFFFFFFFFFFFFFFFFFFF AND PUSH20 0xFFFFFFFFFFFFFFFFFFFFFFFFFFFFFFFFFFFFFFFF AND DUP2 MSTORE PUSH1 0x20 ADD SWAP1 DUP2 MSTORE PUSH1 0x20 ADD PUSH1 0x0 KECCAK256 DUP2 SWAP1 SSTORE POP DUP3 PUSH20 0xFFFFFFFFFFFFFFFFFFFFFFFFFFFFFFFFFFFFFFFF AND CALLER PUSH20 0xFFFFFFFFFFFFFFFFFFFFFFFFFFFFFFFFFFFFFFFF AND PUSH32 0x8C5BE1E5EBEC7D5BD14F71427D1E84F3DD0314C0F7B2291E5B200AC8C7C3B925 DUP5 PUSH1 0x40 MLOAD PUSH2 0x3BE SWAP2 SWAP1 PUSH2 0x139E JUMP JUMPDEST PUSH1 0x40 MLOAD DUP1 SWAP2 SUB SWAP1 LOG3 PUSH1 0x1 SWAP1 POP SWAP3 SWAP2 POP POP JUMP JUMPDEST PUSH1 0x4 PUSH1 0x0 SWAP1 SLOAD SWAP1 PUSH2 0x100 EXP SWAP1 DIV PUSH1 0xFF AND DUP2 JUMP JUMPDEST PUSH1 0x3 SLOAD DUP2 JUMP JUMPDEST PUSH1 0x0 DUP1 PUSH20 0xFFFFFFFFFFFFFFFFFFFFFFFFFFFFFFFFFFFFFFFF AND DUP4 PUSH20 0xFFFFFFFFFFFFFFFFFFFFFFFFFFFFFFFFFFFFFFFF AND EQ ISZERO PUSH2 0x45A JUMPI PUSH1 0x40 MLOAD PUSH32 0x8C379A000000000000000000000000000000000000000000000000000000000 DUP2 MSTORE PUSH1 0x4 ADD PUSH2 0x451 SWAP1 PUSH2 0x137E JUMP JUMPDEST PUSH1 0x40 MLOAD DUP1 SWAP2 SUB SWAP1 REVERT JUMPDEST PUSH1 0x5 PUSH1 0x0 DUP6 PUSH20 0xFFFFFFFFFFFFFFFFFFFFFFFFFFFFFFFFFFFFFFFF AND PUSH20 0xFFFFFFFFFFFFFFFFFFFFFFFFFFFFFFFFFFFFFFFF AND DUP2 MSTORE PUSH1 0x20 ADD SWAP1 DUP2 MSTORE PUSH1 0x20 ADD PUSH1 0x0 KECCAK256 SLOAD DUP3 GT ISZERO PUSH2 0x4DC JUMPI PUSH1 0x40 MLOAD PUSH32 0x8C379A000000000000000000000000000000000000000000000000000000000 DUP2 MSTORE PUSH1 0x4 ADD PUSH2 0x4D3 SWAP1 PUSH2 0x133E JUMP JUMPDEST PUSH1 0x40 MLOAD DUP1 SWAP2 SUB SWAP1 REVERT JUMPDEST PUSH1 0x6 PUSH1 0x0 DUP6 PUSH20 0xFFFFFFFFFFFFFFFFFFFFFFFFFFFFFFFFFFFFFFFF AND PUSH20 0xFFFFFFFFFFFFFFFFFFFFFFFFFFFFFFFFFFFFFFFF AND DUP2 MSTORE PUSH1 0x20 ADD SWAP1 DUP2 MSTORE PUSH1 0x20 ADD PUSH1 0x0 KECCAK256 PUSH1 0x0 CALLER PUSH20 0xFFFFFFFFFFFFFFFFFFFFFFFFFFFFFFFFFFFFFFFF AND PUSH20 0xFFFFFFFFFFFFFFFFFFFFFFFFFFFFFFFFFFFFFFFF AND DUP2 MSTORE PUSH1 0x20 ADD SWAP1 DUP2 MSTORE PUSH1 0x20 ADD PUSH1 0x0 KECCAK256 SLOAD DUP3 GT ISZERO PUSH2 0x59B JUMPI PUSH1 0x40 MLOAD PUSH32 0x8C379A000000000000000000000000000000000000000000000000000000000 DUP2 MSTORE PUSH1 0x4 ADD PUSH2 0x592 SWAP1 PUSH2 0x12FE JUMP JUMPDEST PUSH1 0x40 MLOAD DUP1 SWAP2 SUB SWAP1 REVERT JUMPDEST PUSH2 0x5ED DUP3 PUSH1 0x5 PUSH1 0x0 DUP8 PUSH20 0xFFFFFFFFFFFFFFFFFFFFFFFFFFFFFFFFFFFFFFFF AND PUSH20 0xFFFFFFFFFFFFFFFFFFFFFFFFFFFFFFFFFFFFFFFF AND DUP2 MSTORE PUSH1 0x20 ADD SWAP1 DUP2 MSTORE PUSH1 0x20 ADD PUSH1 0x0 KECCAK256 SLOAD PUSH2 0xDAD SWAP1 SWAP2 SWAP1 PUSH4 0xFFFFFFFF AND JUMP JUMPDEST PUSH1 0x5 PUSH1 0x0 DUP7 PUSH20 0xFFFFFFFFFFFFFFFFFFFFFFFFFFFFFFFFFFFFFFFF AND PUSH20 0xFFFFFFFFFFFFFFFFFFFFFFFFFFFFFFFFFFFFFFFF AND DUP2 MSTORE PUSH1 0x20 ADD SWAP1 DUP2 MSTORE PUSH1 0x20 ADD PUSH1 0x0 KECCAK256 DUP2 SWAP1 SSTORE POP PUSH2 0x682 DUP3 PUSH1 0x5 PUSH1 0x0 DUP7 PUSH20 0xFFFFFFFFFFFFFFFFFFFFFFFFFFFFFFFFFFFFFFFF AND PUSH20 0xFFFFFFFFFFFFFFFFFFFFFFFFFFFFFFFFFFFFFFFF AND DUP2 MSTORE PUSH1 0x20 ADD SWAP1 DUP2 MSTORE PUSH1 0x20 ADD PUSH1 0x0 KECCAK256 SLOAD PUSH2 0xE06 SWAP1 SWAP2 SWAP1 PUSH4 0xFFFFFFFF AND JUMP JUMPDEST PUSH1 0x5 PUSH1 0x0 DUP6 PUSH20 0xFFFFFFFFFFFFFFFFFFFFFFFFFFFFFFFFFFFFFFFF AND PUSH20 0xFFFFFFFFFFFFFFFFFFFFFFFFFFFFFFFFFFFFFFFF AND DUP2 MSTORE PUSH1 0x20 ADD SWAP1 DUP2 MSTORE PUSH1 0x20 ADD PUSH1 0x0 KECCAK256 DUP2 SWAP1 SSTORE POP PUSH2 0x754 DUP3 PUSH1 0x6 PUSH1 0x0 DUP8 PUSH20 0xFFFFFFFFFFFFFFFFFFFFFFFFFFFFFFFFFFFFFFFF AND PUSH20 0xFFFFFFFFFFFFFFFFFFFFFFFFFFFFFFFFFFFFFFFF AND DUP2 MSTORE PUSH1 0x20 ADD SWAP1 DUP2 MSTORE PUSH1 0x20 ADD PUSH1 0x0 KECCAK256 PUSH1 0x0 CALLER PUSH20 0xFFFFFFFFFFFFFFFFFFFFFFFFFFFFFFFFFFFFFFFF AND PUSH20 0xFFFFFFFFFFFFFFFFFFFFFFFFFFFFFFFFFFFFFFFF AND DUP2 MSTORE PUSH1 0x20 ADD SWAP1 DUP2 MSTORE PUSH1 0x20 ADD PUSH1 0x0 KECCAK256 SLOAD PUSH2 0xDAD SWAP1 SWAP2 SWAP1 PUSH4 0xFFFFFFFF AND JUMP JUMPDEST PUSH1 0x6 PUSH1 0x0 DUP7 PUSH20 0xFFFFFFFFFFFFFFFFFFFFFFFFFFFFFFFFFFFFFFFF AND PUSH20 0xFFFFFFFFFFFFFFFFFFFFFFFFFFFFFFFFFFFFFFFF AND DUP2 MSTORE PUSH1 0x20 ADD SWAP1 DUP2 MSTORE PUSH1 0x20 ADD PUSH1 0x0 KECCAK256 PUSH1 0x0 CALLER PUSH20 0xFFFFFFFFFFFFFFFFFFFFFFFFFFFFFFFFFFFFFFFF AND PUSH20 0xFFFFFFFFFFFFFFFFFFFFFFFFFFFFFFFFFFFFFFFF AND DUP2 MSTORE PUSH1 0x20 ADD SWAP1 DUP2 MSTORE PUSH1 0x20 ADD PUSH1 0x0 KECCAK256 DUP2 SWAP1 SSTORE POP DUP3 PUSH20 0xFFFFFFFFFFFFFFFFFFFFFFFFFFFFFFFFFFFFFFFF AND DUP5 PUSH20 0xFFFFFFFFFFFFFFFFFFFFFFFFFFFFFFFFFFFFFFFF AND PUSH32 0xDDF252AD1BE2C89B69C2B068FC378DAA952BA7F163C4A11628F55A4DF523B3EF DUP5 PUSH1 0x40 MLOAD PUSH2 0x831 SWAP2 SWAP1 PUSH2 0x139E JUMP JUMPDEST PUSH1 0x40 MLOAD DUP1 SWAP2 SUB SWAP1 LOG3 PUSH1 0x1 SWAP1 POP SWAP4 SWAP3 POP POP POP JUMP JUMPDEST PUSH1 0x1 PUSH1 0x0 SWAP1 SLOAD SWAP1 PUSH2 0x100 EXP SWAP1 DIV PUSH1 0xFF AND DUP2 JUMP JUMPDEST PUSH1 0x0 PUSH1 0x5 PUSH1 0x0 DUP4 PUSH20 0xFFFFFFFFFFFFFFFFFFFFFFFFFFFFFFFFFFFFFFFF AND PUSH20 0xFFFFFFFFFFFFFFFFFFFFFFFFFFFFFFFFFFFFFFFF AND DUP2 MSTORE PUSH1 0x20 ADD SWAP1 DUP2 MSTORE PUSH1 0x20 ADD PUSH1 0x0 KECCAK256 SLOAD SWAP1 POP SWAP2 SWAP1 POP JUMP JUMPDEST PUSH1 0x2 DUP1 SLOAD PUSH2 0x8AD SWAP1 PUSH2 0x1567 JUMP JUMPDEST DUP1 PUSH1 0x1F ADD PUSH1 0x20 DUP1 SWAP2 DIV MUL PUSH1 0x20 ADD PUSH1 0x40 MLOAD SWAP1 DUP2 ADD PUSH1 0x40 MSTORE DUP1 SWAP3 SWAP2 SWAP1 DUP2 DUP2 MSTORE PUSH1 0x20 ADD DUP3 DUP1 SLOAD PUSH2 0x8D9 SWAP1 PUSH2 0x1567 JUMP JUMPDEST DUP1 ISZERO PUSH2 0x926 JUMPI DUP1 PUSH1 0x1F LT PUSH2 0x8FB JUMPI PUSH2 0x100 DUP1 DUP4 SLOAD DIV MUL DUP4 MSTORE SWAP2 PUSH1 0x20 ADD SWAP2 PUSH2 0x926 JUMP JUMPDEST DUP3 ADD SWAP2 SWAP1 PUSH1 0x0 MSTORE PUSH1 0x20 PUSH1 0x0 KECCAK256 SWAP1 JUMPDEST DUP2 SLOAD DUP2 MSTORE SWAP1 PUSH1 0x1 ADD SWAP1 PUSH1 0x20 ADD DUP1 DUP4 GT PUSH2 0x909 JUMPI DUP3 SWAP1 SUB PUSH1 0x1F AND DUP3 ADD SWAP2 JUMPDEST POP POP POP POP POP DUP2 JUMP JUMPDEST PUSH1 0x0 DUP1 PUSH20 0xFFFFFFFFFFFFFFFFFFFFFFFFFFFFFFFFFFFFFFFF AND DUP4 PUSH20 0xFFFFFFFFFFFFFFFFFFFFFFFFFFFFFFFFFFFFFFFF AND EQ ISZERO PUSH2 0x99F JUMPI PUSH1 0x40 MLOAD PUSH32 0x8C379A000000000000000000000000000000000000000000000000000000000 DUP2 MSTORE PUSH1 0x4 ADD PUSH2 0x996 SWAP1 PUSH2 0x137E JUMP JUMPDEST PUSH1 0x40 MLOAD DUP1 SWAP2 SUB SWAP1 REVERT JUMPDEST PUSH1 0x5 PUSH1 0x0 CALLER PUSH20 0xFFFFFFFFFFFFFFFFFFFFFFFFFFFFFFFFFFFFFFFF AND PUSH20 0xFFFFFFFFFFFFFFFFFFFFFFFFFFFFFFFFFFFFFFFF AND DUP2 MSTORE PUSH1 0x20 ADD SWAP1 DUP2 MSTORE PUSH1 0x20 ADD PUSH1 0x0 KECCAK256 SLOAD DUP3 GT ISZERO PUSH2 0xA21 JUMPI PUSH1 0x40 MLOAD PUSH32 0x8C379A000000000000000000000000000000000000000000000000000000000 DUP2 MSTORE PUSH1 0x4 ADD PUSH2 0xA18 SWAP1 PUSH2 0x133E JUMP JUMPDEST PUSH1 0x40 MLOAD DUP1 SWAP2 SUB SWAP1 REVERT JUMPDEST PUSH2 0xA73 DUP3 PUSH1 0x5 PUSH1 0x0 CALLER PUSH20 0xFFFFFFFFFFFFFFFFFFFFFFFFFFFFFFFFFFFFFFFF AND PUSH20 0xFFFFFFFFFFFFFFFFFFFFFFFFFFFFFFFFFFFFFFFF AND DUP2 MSTORE PUSH1 0x20 ADD SWAP1 DUP2 MSTORE PUSH1 0x20 ADD PUSH1 0x0 KECCAK256 SLOAD PUSH2 0xDAD SWAP1 SWAP2 SWAP1 PUSH4 0xFFFFFFFF AND JUMP JUMPDEST PUSH1 0x5 PUSH1 0x0 CALLER PUSH20 0xFFFFFFFFFFFFFFFFFFFFFFFFFFFFFFFFFFFFFFFF AND PUSH20 0xFFFFFFFFFFFFFFFFFFFFFFFFFFFFFFFFFFFFFFFF AND DUP2 MSTORE PUSH1 0x20 ADD SWAP1 DUP2 MSTORE PUSH1 0x20 ADD PUSH1 0x0 KECCAK256 DUP2 SWAP1 SSTORE POP PUSH2 0xB08 DUP3 PUSH1 0x5 PUSH1 0x0 DUP7 PUSH20 0xFFFFFFFFFFFFFFFFFFFFFFFFFFFFFFFFFFFFFFFF AND PUSH20 0xFFFFFFFFFFFFFFFFFFFFFFFFFFFFFFFFFFFFFFFF AND DUP2 MSTORE PUSH1 0x20 ADD SWAP1 DUP2 MSTORE PUSH1 0x20 ADD PUSH1 0x0 KECCAK256 SLOAD PUSH2 0xE06 SWAP1 SWAP2 SWAP1 PUSH4 0xFFFFFFFF AND JUMP JUMPDEST PUSH1 0x5 PUSH1 0x0 DUP6 PUSH20 0xFFFFFFFFFFFFFFFFFFFFFFFFFFFFFFFFFFFFFFFF AND PUSH20 0xFFFFFFFFFFFFFFFFFFFFFFFFFFFFFFFFFFFFFFFF AND DUP2 MSTORE PUSH1 0x20 ADD SWAP1 DUP2 MSTORE PUSH1 0x20 ADD PUSH1 0x0 KECCAK256 DUP2 SWAP1 SSTORE POP DUP3 PUSH20 0xFFFFFFFFFFFFFFFFFFFFFFFFFFFFFFFFFFFFFFFF AND CALLER PUSH20 0xFFFFFFFFFFFFFFFFFFFFFFFFFFFFFFFFFFFFFFFF AND PUSH32 0xDDF252AD1BE2C89B69C2B068FC378DAA952BA7F163C4A11628F55A4DF523B3EF DUP5 PUSH1 0x40 MLOAD PUSH2 0xBA8 SWAP2 SWAP1 PUSH2 0x139E JUMP JUMPDEST PUSH1 0x40 MLOAD DUP1 SWAP2 SUB SWAP1 LOG3 PUSH1 0x1 SWAP1 POP SWAP3 SWAP2 POP POP JUMP JUMPDEST PUSH1 0x0 PUSH1 0x6 PUSH1 0x0 DUP5 PUSH20 0xFFFFFFFFFFFFFFFFFFFFFFFFFFFFFFFFFFFFFFFF AND PUSH20 0xFFFFFFFFFFFFFFFFFFFFFFFFFFFFFFFFFFFFFFFF AND DUP2 MSTORE PUSH1 0x20 ADD SWAP1 DUP2 MSTORE PUSH1 0x20 ADD PUSH1 0x0 KECCAK256 PUSH1 0x0 DUP4 PUSH20 0xFFFFFFFFFFFFFFFFFFFFFFFFFFFFFFFFFFFFFFFF AND PUSH20 0xFFFFFFFFFFFFFFFFFFFFFFFFFFFFFFFFFFFFFFFF AND DUP2 MSTORE PUSH1 0x20 ADD SWAP1 DUP2 MSTORE PUSH1 0x20 ADD PUSH1 0x0 KECCAK256 SLOAD SWAP1 POP SWAP3 SWAP2 POP POP JUMP JUMPDEST PUSH1 0x4 PUSH1 0x0 SWAP1 SLOAD SWAP1 PUSH2 0x100 EXP SWAP1 DIV PUSH1 0xFF AND ISZERO PUSH2 0xC91 JUMPI PUSH1 0x40 MLOAD PUSH32 0x8C379A000000000000000000000000000000000000000000000000000000000 DUP2 MSTORE PUSH1 0x4 ADD PUSH2 0xC88 SWAP1 PUSH2 0x12DE JUMP JUMPDEST PUSH1 0x40 MLOAD DUP1 SWAP2 SUB SWAP1 REVERT JUMPDEST PUSH1 0x1 PUSH1 0x4 PUSH1 0x0 PUSH2 0x100 EXP DUP2 SLOAD DUP2 PUSH1 0xFF MUL NOT AND SWAP1 DUP4 ISZERO ISZERO MUL OR SWAP1 SSTORE POP DUP4 PUSH1 0x3 DUP2 SWAP1 SSTORE POP DUP4 PUSH1 0x5 PUSH1 0x0 DUP8 PUSH20 0xFFFFFFFFFFFFFFFFFFFFFFFFFFFFFFFFFFFFFFFF AND PUSH20 0xFFFFFFFFFFFFFFFFFFFFFFFFFFFFFFFFFFFFFFFF AND DUP2 MSTORE PUSH1 0x20 ADD SWAP1 DUP2 MSTORE PUSH1 0x20 ADD PUSH1 0x0 KECCAK256 DUP2 SWAP1 SSTORE POP DUP3 PUSH1 0x0 SWAP1 DUP1 MLOAD SWAP1 PUSH1 0x20 ADD SWAP1 PUSH2 0xD0D SWAP3 SWAP2 SWAP1 PUSH2 0xE64 JUMP JUMPDEST POP DUP2 PUSH1 0x2 SWAP1 DUP1 MLOAD SWAP1 PUSH1 0x20 ADD SWAP1 PUSH2 0xD24 SWAP3 SWAP2 SWAP1 PUSH2 0xE64 JUMP JUMPDEST POP DUP1 PUSH1 0x1 PUSH1 0x0 PUSH2 0x100 EXP DUP2 SLOAD DUP2 PUSH1 0xFF MUL NOT AND SWAP1 DUP4 PUSH1 0xFF AND MUL OR SWAP1 SSTORE POP DUP5 PUSH20 0xFFFFFFFFFFFFFFFFFFFFFFFFFFFFFFFFFFFFFFFF AND PUSH1 0x0 PUSH20 0xFFFFFFFFFFFFFFFFFFFFFFFFFFFFFFFFFFFFFFFF AND PUSH32 0xDDF252AD1BE2C89B69C2B068FC378DAA952BA7F163C4A11628F55A4DF523B3EF DUP7 PUSH1 0x40 MLOAD PUSH2 0xD9E SWAP2 SWAP1 PUSH2 0x139E JUMP JUMPDEST PUSH1 0x40 MLOAD DUP1 SWAP2 SUB SWAP1 LOG3 POP POP POP POP POP JUMP JUMPDEST PUSH1 0x0 DUP3 DUP3 GT ISZERO PUSH2 0xDF2 JUMPI PUSH1 0x40 MLOAD PUSH32 0x8C379A000000000000000000000000000000000000000000000000000000000 DUP2 MSTORE PUSH1 0x4 ADD PUSH2 0xDE9 SWAP1 PUSH2 0x131E JUMP JUMPDEST PUSH1 0x40 MLOAD DUP1 SWAP2 SUB SWAP1 REVERT JUMPDEST DUP2 DUP4 PUSH2 0xDFE SWAP2 SWAP1 PUSH2 0x149C JUMP JUMPDEST SWAP1 POP SWAP3 SWAP2 POP POP JUMP JUMPDEST PUSH1 0x0 DUP1 DUP3 DUP5 PUSH2 0xE15 SWAP2 SWAP1 PUSH2 0x1446 JUMP JUMPDEST SWAP1 POP DUP4 DUP2 LT ISZERO PUSH2 0xE5A JUMPI PUSH1 0x40 MLOAD PUSH32 0x8C379A000000000000000000000000000000000000000000000000000000000 DUP2 MSTORE PUSH1 0x4 ADD PUSH2 0xE51 SWAP1 PUSH2 0x135E JUMP JUMPDEST PUSH1 0x40 MLOAD DUP1 SWAP2 SUB SWAP1 REVERT JUMPDEST DUP1 SWAP2 POP POP SWAP3 SWAP2 POP POP JUMP JUMPDEST DUP3 DUP1 SLOAD PUSH2 0xE70 SWAP1 PUSH2 0x1567 JUMP JUMPDEST SWAP1 PUSH1 0x0 MSTORE PUSH1 0x20 PUSH1 0x0 KECCAK256 SWAP1 PUSH1 0x1F ADD PUSH1 0x20 SWAP1 DIV DUP2 ADD SWAP3 DUP3 PUSH2 0xE92 JUMPI PUSH1 0x0 DUP6 SSTORE PUSH2 0xED9 JUMP JUMPDEST DUP3 PUSH1 0x1F LT PUSH2 0xEAB JUMPI DUP1 MLOAD PUSH1 0xFF NOT AND DUP4 DUP1 ADD OR DUP6 SSTORE PUSH2 0xED9 JUMP JUMPDEST DUP3 DUP1 ADD PUSH1 0x1 ADD DUP6 SSTORE DUP3 ISZERO PUSH2 0xED9 JUMPI SWAP2 DUP3 ADD JUMPDEST DUP3 DUP2 GT ISZERO PUSH2 0xED8 JUMPI DUP3 MLOAD DUP3 SSTORE SWAP2 PUSH1 0x20 ADD SWAP2 SWAP1 PUSH1 0x1 ADD SWAP1 PUSH2 0xEBD JUMP JUMPDEST JUMPDEST POP SWAP1 POP PUSH2 0xEE6 SWAP2 SWAP1 PUSH2 0xEEA JUMP JUMPDEST POP SWAP1 JUMP JUMPDEST JUMPDEST DUP1 DUP3 GT ISZERO PUSH2 0xF03 JUMPI PUSH1 0x0 DUP2 PUSH1 0x0 SWAP1 SSTORE POP PUSH1 0x1 ADD PUSH2 0xEEB JUMP JUMPDEST POP SWAP1 JUMP JUMPDEST PUSH1 0x0 PUSH2 0xF1A PUSH2 0xF15 DUP5 PUSH2 0x13F9 JUMP JUMPDEST PUSH2 0x13D4 JUMP JUMPDEST SWAP1 POP DUP3 DUP2 MSTORE PUSH1 0x20 DUP2 ADD DUP5 DUP5 DUP5 ADD GT ISZERO PUSH2 0xF36 JUMPI PUSH2 0xF35 PUSH2 0x165C JUMP JUMPDEST JUMPDEST PUSH2 0xF41 DUP5 DUP3 DUP6 PUSH2 0x1525 JUMP JUMPDEST POP SWAP4 SWAP3 POP POP POP JUMP JUMPDEST PUSH1 0x0 DUP2 CALLDATALOAD SWAP1 POP PUSH2 0xF58 DUP2 PUSH2 0x1772 JUMP JUMPDEST SWAP3 SWAP2 POP POP JUMP JUMPDEST PUSH1 0x0 DUP3 PUSH1 0x1F DUP4 ADD SLT PUSH2 0xF73 JUMPI PUSH2 0xF72 PUSH2 0x1657 JUMP JUMPDEST JUMPDEST DUP2 CALLDATALOAD PUSH2 0xF83 DUP5 DUP3 PUSH1 0x20 DUP7 ADD PUSH2 0xF07 JUMP JUMPDEST SWAP2 POP POP SWAP3 SWAP2 POP POP JUMP JUMPDEST PUSH1 0x0 DUP2 CALLDATALOAD SWAP1 POP PUSH2 0xF9B DUP2 PUSH2 0x1789 JUMP JUMPDEST SWAP3 SWAP2 POP POP JUMP JUMPDEST PUSH1 0x0 DUP2 CALLDATALOAD SWAP1 POP PUSH2 0xFB0 DUP2 PUSH2 0x17A0 JUMP JUMPDEST SWAP3 SWAP2 POP POP JUMP JUMPDEST PUSH1 0x0 PUSH1 0x20 DUP3 DUP5 SUB SLT ISZERO PUSH2 0xFCC JUMPI PUSH2 0xFCB PUSH2 0x1666 JUMP JUMPDEST JUMPDEST PUSH1 0x0 PUSH2 0xFDA DUP5 DUP3 DUP6 ADD PUSH2 0xF49 JUMP JUMPDEST SWAP2 POP POP SWAP3 SWAP2 POP POP JUMP JUMPDEST PUSH1 0x0 DUP1 PUSH1 0x40 DUP4 DUP6 SUB SLT ISZERO PUSH2 0xFFA JUMPI PUSH2 0xFF9 PUSH2 0x1666 JUMP JUMPDEST JUMPDEST PUSH1 0x0 PUSH2 0x1008 DUP6 DUP3 DUP7 ADD PUSH2 0xF49 JUMP JUMPDEST SWAP3 POP POP PUSH1 0x20 PUSH2 0x1019 DUP6 DUP3 DUP7 ADD PUSH2 0xF49 JUMP JUMPDEST SWAP2 POP POP SWAP3 POP SWAP3 SWAP1 POP JUMP JUMPDEST PUSH1 0x0 DUP1 PUSH1 0x0 PUSH1 0x60 DUP5 DUP7 SUB SLT ISZERO PUSH2 0x103C JUMPI PUSH2 0x103B PUSH2 0x1666 JUMP JUMPDEST JUMPDEST PUSH1 0x0 PUSH2 0x104A DUP7 DUP3 DUP8 ADD PUSH2 0xF49 JUMP JUMPDEST SWAP4 POP POP PUSH1 0x20 PUSH2 0x105B DUP7 DUP3 DUP8 ADD PUSH2 0xF49 JUMP JUMPDEST SWAP3 POP POP PUSH1 0x40 PUSH2 0x106C DUP7 DUP3 DUP8 ADD PUSH2 0xF8C JUMP JUMPDEST SWAP2 POP POP SWAP3 POP SWAP3 POP SWAP3 JUMP JUMPDEST PUSH1 0x0 DUP1 PUSH1 0x40 DUP4 DUP6 SUB SLT ISZERO PUSH2 0x108D JUMPI PUSH2 0x108C PUSH2 0x1666 JUMP JUMPDEST JUMPDEST PUSH1 0x0 PUSH2 0x109B DUP6 DUP3 DUP7 ADD PUSH2 0xF49 JUMP JUMPDEST SWAP3 POP POP PUSH1 0x20 PUSH2 0x10AC DUP6 DUP3 DUP7 ADD PUSH2 0xF8C JUMP JUMPDEST SWAP2 POP POP SWAP3 POP SWAP3 SWAP1 POP JUMP JUMPDEST PUSH1 0x0 DUP1 PUSH1 0x0 DUP1 PUSH1 0x0 PUSH1 0xA0 DUP7 DUP9 SUB SLT ISZERO PUSH2 0x10D2 JUMPI PUSH2 0x10D1 PUSH2 0x1666 JUMP JUMPDEST JUMPDEST PUSH1 0x0 PUSH2 0x10E0 DUP9 DUP3 DUP10 ADD PUSH2 0xF49 JUMP JUMPDEST SWAP6 POP POP PUSH1 0x20 PUSH2 0x10F1 DUP9 DUP3 DUP10 ADD PUSH2 0xF8C JUMP JUMPDEST SWAP5 POP POP PUSH1 0x40 DUP7 ADD CALLDATALOAD PUSH8 0xFFFFFFFFFFFFFFFF DUP2 GT ISZERO PUSH2 0x1112 JUMPI PUSH2 0x1111 PUSH2 0x1661 JUMP JUMPDEST JUMPDEST PUSH2 0x111E DUP9 DUP3 DUP10 ADD PUSH2 0xF5E JUMP JUMPDEST SWAP4 POP POP PUSH1 0x60 DUP7 ADD CALLDATALOAD PUSH8 0xFFFFFFFFFFFFFFFF DUP2 GT ISZERO PUSH2 0x113F JUMPI PUSH2 0x113E PUSH2 0x1661 JUMP JUMPDEST JUMPDEST PUSH2 0x114B DUP9 DUP3 DUP10 ADD PUSH2 0xF5E JUMP JUMPDEST SWAP3 POP POP PUSH1 0x80 PUSH2 0x115C DUP9 DUP3 DUP10 ADD PUSH2 0xFA1 JUMP JUMPDEST SWAP2 POP POP SWAP3 SWAP6 POP SWAP3 SWAP6 SWAP1 SWAP4 POP JUMP JUMPDEST PUSH2 0x1172 DUP2 PUSH2 0x14E2 JUMP JUMPDEST DUP3 MSTORE POP POP JUMP JUMPDEST PUSH1 0x0 PUSH2 0x1183 DUP3 PUSH2 0x142A JUMP JUMPDEST PUSH2 0x118D DUP2 DUP6 PUSH2 0x1435 JUMP JUMPDEST SWAP4 POP PUSH2 0x119D DUP2 DUP6 PUSH1 0x20 DUP7 ADD PUSH2 0x1534 JUMP JUMPDEST PUSH2 0x11A6 DUP2 PUSH2 0x166B JUMP JUMPDEST DUP5 ADD SWAP2 POP POP SWAP3 SWAP2 POP POP JUMP JUMPDEST PUSH1 0x0 PUSH2 0x11BE PUSH1 0x11 DUP4 PUSH2 0x1435 JUMP JUMPDEST SWAP2 POP PUSH2 0x11C9 DUP3 PUSH2 0x167C JUMP JUMPDEST PUSH1 0x20 DUP3 ADD SWAP1 POP SWAP2 SWAP1 POP JUMP JUMPDEST PUSH1 0x0 PUSH2 0x11E1 PUSH1 0x14 DUP4 PUSH2 0x1435 JUMP JUMPDEST SWAP2 POP PUSH2 0x11EC DUP3 PUSH2 0x16A5 JUMP JUMPDEST PUSH1 0x20 DUP3 ADD SWAP1 POP SWAP2 SWAP1 POP JUMP JUMPDEST PUSH1 0x0 PUSH2 0x1204 PUSH1 0x9 DUP4 PUSH2 0x1435 JUMP JUMPDEST SWAP2 POP PUSH2 0x120F DUP3 PUSH2 0x16CE JUMP JUMPDEST PUSH1 0x20 DUP3 ADD SWAP1 POP SWAP2 SWAP1 POP JUMP JUMPDEST PUSH1 0x0 PUSH2 0x1227 PUSH1 0x12 DUP4 PUSH2 0x1435 JUMP JUMPDEST SWAP2 POP PUSH2 0x1232 DUP3 PUSH2 0x16F7 JUMP JUMPDEST PUSH1 0x20 DUP3 ADD SWAP1 POP SWAP2 SWAP1 POP JUMP JUMPDEST PUSH1 0x0 PUSH2 0x124A PUSH1 0x9 DUP4 PUSH2 0x1435 JUMP JUMPDEST SWAP2 POP PUSH2 0x1255 DUP3 PUSH2 0x1720 JUMP JUMPDEST PUSH1 0x20 DUP3 ADD SWAP1 POP SWAP2 SWAP1 POP JUMP JUMPDEST PUSH1 0x0 PUSH2 0x126D PUSH1 0x13 DUP4 PUSH2 0x1435 JUMP JUMPDEST SWAP2 POP PUSH2 0x1278 DUP3 PUSH2 0x1749 JUMP JUMPDEST PUSH1 0x20 DUP3 ADD SWAP1 POP SWAP2 SWAP1 POP JUMP JUMPDEST PUSH2 0x128C DUP2 PUSH2 0x150E JUMP JUMPDEST DUP3 MSTORE POP POP JUMP JUMPDEST PUSH2 0x129B DUP2 PUSH2 0x1518 JUMP JUMPDEST DUP3 MSTORE POP POP JUMP JUMPDEST PUSH1 0x0 PUSH1 0x20 DUP3 ADD SWAP1 POP PUSH2 0x12B6 PUSH1 0x0 DUP4 ADD DUP5 PUSH2 0x1169 JUMP JUMPDEST SWAP3 SWAP2 POP POP JUMP JUMPDEST PUSH1 0x0 PUSH1 0x20 DUP3 ADD SWAP1 POP DUP2 DUP2 SUB PUSH1 0x0 DUP4 ADD MSTORE PUSH2 0x12D6 DUP2 DUP5 PUSH2 0x1178 JUMP JUMPDEST SWAP1 POP SWAP3 SWAP2 POP POP JUMP JUMPDEST PUSH1 0x0 PUSH1 0x20 DUP3 ADD SWAP1 POP DUP2 DUP2 SUB PUSH1 0x0 DUP4 ADD MSTORE PUSH2 0x12F7 DUP2 PUSH2 0x11B1 JUMP JUMPDEST SWAP1 POP SWAP2 SWAP1 POP JUMP JUMPDEST PUSH1 0x0 PUSH1 0x20 DUP3 ADD SWAP1 POP DUP2 DUP2 SUB PUSH1 0x0 DUP4 ADD MSTORE PUSH2 0x1317 DUP2 PUSH2 0x11D4 JUMP JUMPDEST SWAP1 POP SWAP2 SWAP1 POP JUMP JUMPDEST PUSH1 0x0 PUSH1 0x20 DUP3 ADD SWAP1 POP DUP2 DUP2 SUB PUSH1 0x0 DUP4 ADD MSTORE PUSH2 0x1337 DUP2 PUSH2 0x11F7 JUMP JUMPDEST SWAP1 POP SWAP2 SWAP1 POP JUMP JUMPDEST PUSH1 0x0 PUSH1 0x20 DUP3 ADD SWAP1 POP DUP2 DUP2 SUB PUSH1 0x0 DUP4 ADD MSTORE PUSH2 0x1357 DUP2 PUSH2 0x121A JUMP JUMPDEST SWAP1 POP SWAP2 SWAP1 POP JUMP JUMPDEST PUSH1 0x0 PUSH1 0x20 DUP3 ADD SWAP1 POP DUP2 DUP2 SUB PUSH1 0x0 DUP4 ADD MSTORE PUSH2 0x1377 DUP2 PUSH2 0x123D JUMP JUMPDEST SWAP1 POP SWAP2 SWAP1 POP JUMP JUMPDEST PUSH1 0x0 PUSH1 0x20 DUP3 ADD SWAP1 POP DUP2 DUP2 SUB PUSH1 0x0 DUP4 ADD MSTORE PUSH2 0x1397 DUP2 PUSH2 0x1260 JUMP JUMPDEST SWAP1 POP SWAP2 SWAP1 POP JUMP JUMPDEST PUSH1 0x0 PUSH1 0x20 DUP3 ADD SWAP1 POP PUSH2 0x13B3 PUSH1 0x0 DUP4 ADD DUP5 PUSH2 0x1283 JUMP JUMPDEST SWAP3 SWAP2 POP POP JUMP JUMPDEST PUSH1 0x0 PUSH1 0x20 DUP3 ADD SWAP1 POP PUSH2 0x13CE PUSH1 0x0 DUP4 ADD DUP5 PUSH2 0x1292 JUMP JUMPDEST SWAP3 SWAP2 POP POP JUMP JUMPDEST PUSH1 0x0 PUSH2 0x13DE PUSH2 0x13EF JUMP JUMPDEST SWAP1 POP PUSH2 0x13EA DUP3 DUP3 PUSH2 0x1599 JUMP JUMPDEST SWAP2 SWAP1 POP JUMP JUMPDEST PUSH1 0x0 PUSH1 0x40 MLOAD SWAP1 POP SWAP1 JUMP JUMPDEST PUSH1 0x0 PUSH8 0xFFFFFFFFFFFFFFFF DUP3 GT ISZERO PUSH2 0x1414 JUMPI PUSH2 0x1413 PUSH2 0x1628 JUMP JUMPDEST JUMPDEST PUSH2 0x141D DUP3 PUSH2 0x166B JUMP JUMPDEST SWAP1 POP PUSH1 0x20 DUP2 ADD SWAP1 POP SWAP2 SWAP1 POP JUMP JUMPDEST PUSH1 0x0 DUP2 MLOAD SWAP1 POP SWAP2 SWAP1 POP JUMP JUMPDEST PUSH1 0x0 DUP3 DUP3 MSTORE PUSH1 0x20 DUP3 ADD SWAP1 POP SWAP3 SWAP2 POP POP JUMP JUMPDEST PUSH1 0x0 PUSH2 0x1451 DUP3 PUSH2 0x150E JUMP JUMPDEST SWAP2 POP PUSH2 0x145C DUP4 PUSH2 0x150E JUMP JUMPDEST SWAP3 POP DUP3 PUSH32 0xFFFFFFFFFFFFFFFFFFFFFFFFFFFFFFFFFFFFFFFFFFFFFFFFFFFFFFFFFFFFFFFF SUB DUP3 GT ISZERO PUSH2 0x1491 JUMPI PUSH2 0x1490 PUSH2 0x15CA JUMP JUMPDEST JUMPDEST DUP3 DUP3 ADD SWAP1 POP SWAP3 SWAP2 POP POP JUMP JUMPDEST PUSH1 0x0 PUSH2 0x14A7 DUP3 PUSH2 0x150E JUMP JUMPDEST SWAP2 POP PUSH2 0x14B2 DUP4 PUSH2 0x150E JUMP JUMPDEST SWAP3 POP DUP3 DUP3 LT ISZERO PUSH2 0x14C5 JUMPI PUSH2 0x14C4 PUSH2 0x15CA JUMP JUMPDEST JUMPDEST DUP3 DUP3 SUB SWAP1 POP SWAP3 SWAP2 POP POP JUMP JUMPDEST PUSH1 0x0 PUSH2 0x14DB DUP3 PUSH2 0x14EE JUMP JUMPDEST SWAP1 POP SWAP2 SWAP1 POP JUMP JUMPDEST PUSH1 0x0 DUP2 ISZERO ISZERO SWAP1 POP SWAP2 SWAP1 POP JUMP JUMPDEST PUSH1 0x0 PUSH20 0xFFFFFFFFFFFFFFFFFFFFFFFFFFFFFFFFFFFFFFFF DUP3 AND SWAP1 POP SWAP2 SWAP1 POP JUMP JUMPDEST PUSH1 0x0 DUP2 SWAP1 POP SWAP2 SWAP1 POP JUMP JUMPDEST PUSH1 0x0 PUSH1 0xFF DUP3 AND SWAP1 POP SWAP2 SWAP1 POP JUMP JUMPDEST DUP3 DUP2 DUP4 CALLDATACOPY PUSH1 0x0 DUP4 DUP4 ADD MSTORE POP POP POP JUMP JUMPDEST PUSH1 0x0 JUMPDEST DUP4 DUP2 LT ISZERO PUSH2 0x1552 JUMPI DUP1 DUP3 ADD MLOAD DUP2 DUP5 ADD MSTORE PUSH1 0x20 DUP2 ADD SWAP1 POP PUSH2 0x1537 JUMP JUMPDEST DUP4 DUP2 GT ISZERO PUSH2 0x1561 JUMPI PUSH1 0x0 DUP5 DUP5 ADD MSTORE JUMPDEST POP POP POP POP JUMP JUMPDEST PUSH1 0x0 PUSH1 0x2 DUP3 DIV SWAP1 POP PUSH1 0x1 DUP3 AND DUP1 PUSH2 0x157F JUMPI PUSH1 0x7F DUP3 AND SWAP2 POP JUMPDEST PUSH1 0x20 DUP3 LT DUP2 EQ ISZERO PUSH2 0x1593 JUMPI PUSH2 0x1592 PUSH2 0x15F9 JUMP JUMPDEST JUMPDEST POP SWAP2 SWAP1 POP JUMP JUMPDEST PUSH2 0x15A2 DUP3 PUSH2 0x166B JUMP JUMPDEST DUP2 ADD DUP2 DUP2 LT PUSH8 0xFFFFFFFFFFFFFFFF DUP3 GT OR ISZERO PUSH2 0x15C1 JUMPI PUSH2 0x15C0 PUSH2 0x1628 JUMP JUMPDEST JUMPDEST DUP1 PUSH1 0x40 MSTORE POP POP POP JUMP JUMPDEST PUSH32 0x4E487B7100000000000000000000000000000000000000000000000000000000 PUSH1 0x0 MSTORE PUSH1 0x11 PUSH1 0x4 MSTORE PUSH1 0x24 PUSH1 0x0 REVERT JUMPDEST PUSH32 0x4E487B7100000000000000000000000000000000000000000000000000000000 PUSH1 0x0 MSTORE PUSH1 0x22 PUSH1 0x4 MSTORE PUSH1 0x24 PUSH1 0x0 REVERT JUMPDEST PUSH32 0x4E487B7100000000000000000000000000000000000000000000000000000000 PUSH1 0x0 MSTORE PUSH1 0x41 PUSH1 0x4 MSTORE PUSH1 0x24 PUSH1 0x0 REVERT JUMPDEST PUSH1 0x0 DUP1 REVERT JUMPDEST PUSH1 0x0 DUP1 REVERT JUMPDEST PUSH1 0x0 DUP1 REVERT JUMPDEST PUSH1 0x0 DUP1 REVERT JUMPDEST PUSH1 0x0 PUSH1 0x1F NOT PUSH1 0x1F DUP4 ADD AND SWAP1 POP SWAP2 SWAP1 POP JUMP JUMPDEST PUSH32 0x544F4B454E5F494E495449414C495A4544000000000000000000000000000000 PUSH1 0x0 DUP3 ADD MSTORE POP JUMP JUMPDEST PUSH32 0x414C4C4F57414E43455F4E4F545F454E4F554748000000000000000000000000 PUSH1 0x0 DUP3 ADD MSTORE POP JUMP JUMPDEST PUSH32 0x5355425F4552524F520000000000000000000000000000000000000000000000 PUSH1 0x0 DUP3 ADD MSTORE POP JUMP JUMPDEST PUSH32 0x42414C414E43455F4E4F545F454E4F5547480000000000000000000000000000 PUSH1 0x0 DUP3 ADD MSTORE POP JUMP JUMPDEST PUSH32 0x4144445F4552524F520000000000000000000000000000000000000000000000 PUSH1 0x0 DUP3 ADD MSTORE POP JUMP JUMPDEST PUSH32 0x544F5F414444524553535F49535F454D50545900000000000000000000000000 PUSH1 0x0 DUP3 ADD MSTORE POP JUMP JUMPDEST PUSH2 0x177B DUP2 PUSH2 0x14D0 JUMP JUMPDEST DUP2 EQ PUSH2 0x1786 JUMPI PUSH1 0x0 DUP1 REVERT JUMPDEST POP JUMP JUMPDEST PUSH2 0x1792 DUP2 PUSH2 0x150E JUMP JUMPDEST DUP2 EQ PUSH2 0x179D JUMPI PUSH1 0x0 DUP1 REVERT JUMPDEST POP JUMP JUMPDEST PUSH2 0x17A9 DUP2 PUSH2 0x1518 JUMP JUMPDEST DUP2 EQ PUSH2 0x17B4 JUMPI PUSH1 0x0 DUP1 REVERT JUMPDEST POP JUMP INVALID LOG2 PUSH5 0x6970667358 0x22 SLT KECCAK256 0xCB 0x1E GASLIMIT CREATE2 ORIGIN SWAP7 0xC9 0xC5 0xCC 0xC3 ADD DUP14 0xA5 0xC3 CALLDATALOAD 0xFC DUP3 CODESIZE PUSH30 0x7348FA925C6666B36F87687C4A64736F6C63430008070033000000000000 "
				},
				"gasEstimates": {
					"creation": {
						"codeDepositCost": "1225000",
						"executionCost": "1275",
						"totalCost": "1226275"
					},
					"external": {
						"allowance(address,address)": "infinite",
						"approve(address,uint256)": "infinite",
						"balanceOf(address)": "2863",
						"decimals()": "2471",
						"init(address,uint256,string,string,uint8)": "infinite",
						"initialized()": "2516",
						"name()": "infinite",
						"symbol()": "infinite",
						"totalSupply()": "2496",
						"transfer(address,uint256)": "infinite",
						"transferFrom(address,address,uint256)": "infinite"
					}
				},
				"methodIdentifiers": {
					"allowance(address,address)": "dd62ed3e",
					"approve(address,uint256)": "095ea7b3",
					"balanceOf(address)": "70a08231",
					"decimals()": "313ce567",
					"init(address,uint256,string,string,uint8)": "fc90ef18",
					"initialized()": "158ef93e",
					"name()": "06fdde03",
					"symbol()": "95d89b41",
					"totalSupply()": "18160ddd",
					"transfer(address,uint256)": "a9059cbb",
					"transferFrom(address,address,uint256)": "23b872dd"
				}
			},
			"storageLayout": {
				"storage": [
					{
						"astId": 186,
						"contract": "contracts/InitializableERC20.sol:InitializableERC20",
						"label": "name",
						"offset": 0,
						"slot": "0",
						"type": "t_string_storage"
					},
					{
						"astId": 188,
						"contract": "contracts/InitializableERC20.sol:InitializableERC20",
						"label": "decimals",
						"offset": 0,
						"slot": "1",
						"type": "t_uint8"
					},
					{
						"astId": 190,
						"contract": "contracts/InitializableERC20.sol:InitializableERC20",
						"label": "symbol",
						"offset": 0,
						"slot": "2",
						"type": "t_string_storage"
					},
					{
						"astId": 192,
						"contract": "contracts/InitializableERC20.sol:InitializableERC20",
						"label": "totalSupply",
						"offset": 0,
						"slot": "3",
						"type": "t_uint256"
					},
					{
						"astId": 194,
						"contract": "contracts/InitializableERC20.sol:InitializableERC20",
						"label": "initialized",
						"offset": 0,
						"slot": "4",
						"type": "t_bool"
					},
					{
						"astId": 198,
						"contract": "contracts/InitializableERC20.sol:InitializableERC20",
						"label": "balances",
						"offset": 0,
						"slot": "5",
						"type": "t_mapping(t_address,t_uint256)"
					},
					{
						"astId": 204,
						"contract": "contracts/InitializableERC20.sol:InitializableERC20",
						"label": "allowed",
						"offset": 0,
						"slot": "6",
						"type": "t_mapping(t_address,t_mapping(t_address,t_uint256))"
					}
				],
				"types": {
					"t_address": {
						"encoding": "inplace",
						"label": "address",
						"numberOfBytes": "20"
					},
					"t_bool": {
						"encoding": "inplace",
						"label": "bool",
						"numberOfBytes": "1"
					},
					"t_mapping(t_address,t_mapping(t_address,t_uint256))": {
						"encoding": "mapping",
						"key": "t_address",
						"label": "mapping(address => mapping(address => uint256))",
						"numberOfBytes": "32",
						"value": "t_mapping(t_address,t_uint256)"
					},
					"t_mapping(t_address,t_uint256)": {
						"encoding": "mapping",
						"key": "t_address",
						"label": "mapping(address => uint256)",
						"numberOfBytes": "32",
						"value": "t_uint256"
					},
					"t_string_storage": {
						"encoding": "bytes",
						"label": "string",
						"numberOfBytes": "32"
					},
					"t_uint256": {
						"encoding": "inplace",
						"label": "uint256",
						"numberOfBytes": "32"
					},
					"t_uint8": {
						"encoding": "inplace",
						"label": "uint8",
						"numberOfBytes": "1"
					}
				}
			},
			"userdoc": {
				"kind": "user",
				"methods": {},
				"version": 1
			}
		}
	}
}