{
	"contracts/Factory.sol": {
		"Factory": {
			"abi": [
				{
					"anonymous": false,
					"inputs": [
						{
							"indexed": true,
							"internalType": "address",
							"name": "previousOwner",
							"type": "address"
						},
						{
							"indexed": true,
							"internalType": "address",
							"name": "newOwner",
							"type": "address"
						}
					],
					"name": "OwnershipTransferred",
					"type": "event"
				},
				{
					"inputs": [],
					"name": "airdropModelAddr",
					"outputs": [
						{
							"internalType": "address",
							"name": "",
							"type": "address"
						}
					],
					"stateMutability": "view",
					"type": "function"
				},
				{
					"inputs": [
						{
							"internalType": "uint256",
							"name": "_authorAmount",
							"type": "uint256"
						},
						{
							"internalType": "uint256",
							"name": "_blockHeight",
							"type": "uint256"
						},
						{
							"internalType": "string",
							"name": "_stkName",
							"type": "string"
						},
						{
							"internalType": "string",
							"name": "_stkSymbol",
							"type": "string"
						},
						{
							"internalType": "string",
							"name": "_retName",
							"type": "string"
						},
						{
							"internalType": "string",
							"name": "_retSymbol",
							"type": "string"
						},
						{
							"internalType": "uint256",
							"name": "_retAmount",
							"type": "uint256"
						}
					],
					"name": "createDAO",
					"outputs": [],
					"stateMutability": "nonpayable",
					"type": "function"
				},
				{
					"inputs": [],
					"name": "faucetModelAddr",
					"outputs": [
						{
							"internalType": "address",
							"name": "",
							"type": "address"
						}
					],
					"stateMutability": "view",
					"type": "function"
				},
				{
					"inputs": [
						{
							"internalType": "uint256",
							"name": "_index",
							"type": "uint256"
						}
					],
					"name": "getDaoAddrs",
					"outputs": [
						{
							"internalType": "address[]",
							"name": "",
							"type": "address[]"
						}
					],
					"stateMutability": "view",
					"type": "function"
				},
				{
					"inputs": [],
					"name": "governModelAddr",
					"outputs": [
						{
							"internalType": "address",
							"name": "",
							"type": "address"
						}
					],
					"stateMutability": "view",
					"type": "function"
				},
				{
					"inputs": [],
					"name": "len",
					"outputs": [
						{
							"internalType": "uint256",
							"name": "",
							"type": "uint256"
						}
					],
					"stateMutability": "view",
					"type": "function"
				},
				{
					"inputs": [],
					"name": "owner",
					"outputs": [
						{
							"internalType": "address",
							"name": "",
							"type": "address"
						}
					],
					"stateMutability": "view",
					"type": "function"
				},
				{
					"inputs": [],
					"name": "poolModelAddr",
					"outputs": [
						{
							"internalType": "address",
							"name": "",
							"type": "address"
						}
					],
					"stateMutability": "view",
					"type": "function"
				},
				{
					"inputs": [],
					"name": "renounceOwnership",
					"outputs": [],
					"stateMutability": "nonpayable",
					"type": "function"
				},
				{
					"inputs": [],
					"name": "rewardModelAddr",
					"outputs": [
						{
							"internalType": "address",
							"name": "",
							"type": "address"
						}
					],
					"stateMutability": "view",
					"type": "function"
				},
				{
					"inputs": [],
					"name": "searchModelAddr",
					"outputs": [
						{
							"internalType": "address",
							"name": "",
							"type": "address"
						}
					],
					"stateMutability": "view",
					"type": "function"
				},
				{
					"inputs": [
						{
							"internalType": "address",
							"name": "_modelAddr",
							"type": "address"
						}
					],
					"name": "setAirdropModelAddr",
					"outputs": [],
					"stateMutability": "nonpayable",
					"type": "function"
				},
				{
					"inputs": [
						{
							"internalType": "address",
							"name": "_modelAddr",
							"type": "address"
						}
					],
					"name": "setFaucetModelAddr",
					"outputs": [],
					"stateMutability": "nonpayable",
					"type": "function"
				},
				{
					"inputs": [
						{
							"internalType": "address",
							"name": "_modelAddr",
							"type": "address"
						}
					],
					"name": "setGovernModelAddr",
					"outputs": [],
					"stateMutability": "nonpayable",
					"type": "function"
				},
				{
					"inputs": [
						{
							"internalType": "address",
							"name": "_modelAddr",
							"type": "address"
						}
					],
					"name": "setPoolModelAddr",
					"outputs": [],
					"stateMutability": "nonpayable",
					"type": "function"
				},
				{
					"inputs": [
						{
							"internalType": "address",
							"name": "_modelAddr",
							"type": "address"
						}
					],
					"name": "setRewardModelAddr",
					"outputs": [],
					"stateMutability": "nonpayable",
					"type": "function"
				},
				{
					"inputs": [
						{
							"internalType": "address",
							"name": "_modelAddr",
							"type": "address"
						}
					],
					"name": "setSearchModelAddr",
					"outputs": [],
					"stateMutability": "nonpayable",
					"type": "function"
				},
				{
					"inputs": [
						{
							"internalType": "address",
							"name": "newOwner",
							"type": "address"
						}
					],
					"name": "transferOwnership",
					"outputs": [],
					"stateMutability": "nonpayable",
					"type": "function"
				}
			],
			"devdoc": {
				"kind": "dev",
				"methods": {
					"owner()": {
						"details": "Returns the address of the current owner."
					},
					"renounceOwnership()": {
						"details": "Leaves the contract without owner. It will not be possible to call `onlyOwner` functions anymore. Can only be called by the current owner. NOTE: Renouncing ownership will leave the contract without an owner, thereby removing any functionality that is only available to the owner."
					},
					"transferOwnership(address)": {
						"details": "Transfers ownership of the contract to a new account (`newOwner`). Can only be called by the current owner."
					}
				},
				"version": 1
			},
			"evm": {
				"assembly": "    /* \"contracts/Factory.sol\":1672:5946  contract Factory is Ownable{\r... */\n  mstore(0x40, 0x80)\n    /* \"contracts/Factory.sol\":1772:1773  0 */\n  0x00\n    /* \"contracts/Factory.sol\":1754:1773  uint public len = 0 */\n  0x02\n  sstore\n    /* \"contracts/Factory.sol\":1672:5946  contract Factory is Ownable{\r... */\n  callvalue\n  dup1\n  iszero\n  tag_1\n  jumpi\n  0x00\n  dup1\n  revert\ntag_1:\n  pop\n    /* \"@openzeppelin/contracts/access/Ownable.sol\":936:968  _transferOwnership(_msgSender()) */\n  tag_4\n    /* \"@openzeppelin/contracts/access/Ownable.sol\":955:967  _msgSender() */\n  tag_5\n    /* \"@openzeppelin/contracts/access/Ownable.sol\":955:965  _msgSender */\n  shl(0x20, tag_6)\n    /* \"@openzeppelin/contracts/access/Ownable.sol\":955:967  _msgSender() */\n  0x20\n  shr\n  jump\t// in\ntag_5:\n    /* \"@openzeppelin/contracts/access/Ownable.sol\":936:954  _transferOwnership */\n  shl(0x20, tag_7)\n    /* \"@openzeppelin/contracts/access/Ownable.sol\":936:968  _transferOwnership(_msgSender()) */\n  0x20\n  shr\n  jump\t// in\ntag_4:\n    /* \"contracts/Factory.sol\":1672:5946  contract Factory is Ownable{\r... */\n  jump(tag_8)\n    /* \"@openzeppelin/contracts/utils/Context.sol\":640:736  function _msgSender() internal view virtual returns (address) {... */\ntag_6:\n    /* \"@openzeppelin/contracts/utils/Context.sol\":693:700  address */\n  0x00\n    /* \"@openzeppelin/contracts/utils/Context.sol\":719:729  msg.sender */\n  caller\n    /* \"@openzeppelin/contracts/utils/Context.sol\":712:729  return msg.sender */\n  swap1\n  pop\n    /* \"@openzeppelin/contracts/utils/Context.sol\":640:736  function _msgSender() internal view virtual returns (address) {... */\n  swap1\n  jump\t// out\n    /* \"@openzeppelin/contracts/access/Ownable.sol\":2433:2620  function _transferOwnership(address newOwner) internal virtual {... */\ntag_7:\n    /* \"@openzeppelin/contracts/access/Ownable.sol\":2506:2522  address oldOwner */\n  0x00\n    /* \"@openzeppelin/contracts/access/Ownable.sol\":2525:2531  _owner */\n  dup1\n  0x00\n  swap1\n  sload\n  swap1\n  0x0100\n  exp\n  swap1\n  div\n  0xffffffffffffffffffffffffffffffffffffffff\n  and\n    /* \"@openzeppelin/contracts/access/Ownable.sol\":2506:2531  address oldOwner = _owner */\n  swap1\n  pop\n    /* \"@openzeppelin/contracts/access/Ownable.sol\":2550:2558  newOwner */\n  dup2\n    /* \"@openzeppelin/contracts/access/Ownable.sol\":2541:2547  _owner */\n  0x00\n  dup1\n    /* \"@openzeppelin/contracts/access/Ownable.sol\":2541:2558  _owner = newOwner */\n  0x0100\n  exp\n  dup2\n  sload\n  dup2\n  0xffffffffffffffffffffffffffffffffffffffff\n  mul\n  not\n  and\n  swap1\n  dup4\n  0xffffffffffffffffffffffffffffffffffffffff\n  and\n  mul\n  or\n  swap1\n  sstore\n  pop\n    /* \"@openzeppelin/contracts/access/Ownable.sol\":2604:2612  newOwner */\n  dup2\n    /* \"@openzeppelin/contracts/access/Ownable.sol\":2573:2613  OwnershipTransferred(oldOwner, newOwner) */\n  0xffffffffffffffffffffffffffffffffffffffff\n  and\n    /* \"@openzeppelin/contracts/access/Ownable.sol\":2594:2602  oldOwner */\n  dup2\n    /* \"@openzeppelin/contracts/access/Ownable.sol\":2573:2613  OwnershipTransferred(oldOwner, newOwner) */\n  0xffffffffffffffffffffffffffffffffffffffff\n  and\n  0x8be0079c531659141344cd1fd0a4f28419497f9722a3daafe3b4186f6b6457e0\n  mload(0x40)\n  mload(0x40)\n  dup1\n  swap2\n  sub\n  swap1\n  log3\n    /* \"@openzeppelin/contracts/access/Ownable.sol\":2496:2620  {... */\n  pop\n    /* \"@openzeppelin/contracts/access/Ownable.sol\":2433:2620  function _transferOwnership(address newOwner) internal virtual {... */\n  pop\n  jump\t// out\n    /* \"contracts/Factory.sol\":1672:5946  contract Factory is Ownable{\r... */\ntag_8:\n  dataSize(sub_0)\n  dup1\n  dataOffset(sub_0)\n  0x00\n  codecopy\n  0x00\n  return\nstop\n\nsub_0: assembly {\n        /* \"contracts/Factory.sol\":1672:5946  contract Factory is Ownable{\r... */\n      mstore(0x40, 0x80)\n      callvalue\n      dup1\n      iszero\n      tag_1\n      jumpi\n      0x00\n      dup1\n      revert\n    tag_1:\n      pop\n      jumpi(tag_2, lt(calldatasize, 0x04))\n      shr(0xe0, calldataload(0x00))\n      dup1\n      0x74339cf7\n      gt\n      tag_21\n      jumpi\n      dup1\n      0xb28f3b8e\n      gt\n      tag_22\n      jumpi\n      dup1\n      0xb28f3b8e\n      eq\n      tag_16\n      jumpi\n      dup1\n      0xbe4c7942\n      eq\n      tag_17\n      jumpi\n      dup1\n      0xc479b452\n      eq\n      tag_18\n      jumpi\n      dup1\n      0xc62baedf\n      eq\n      tag_19\n      jumpi\n      dup1\n      0xf2fde38b\n      eq\n      tag_20\n      jumpi\n      jump(tag_2)\n    tag_22:\n      dup1\n      0x74339cf7\n      eq\n      tag_12\n      jumpi\n      dup1\n      0x8da5cb5b\n      eq\n      tag_13\n      jumpi\n      dup1\n      0xa66a8b5d\n      eq\n      tag_14\n      jumpi\n      dup1\n      0xa74adec7\n      eq\n      tag_15\n      jumpi\n      jump(tag_2)\n    tag_21:\n      dup1\n      0x4277c7cb\n      gt\n      tag_23\n      jumpi\n      dup1\n      0x4277c7cb\n      eq\n      tag_7\n      jumpi\n      dup1\n      0x51f67ff3\n      eq\n      tag_8\n      jumpi\n      dup1\n      0x56d88e27\n      eq\n      tag_9\n      jumpi\n      dup1\n      0x5c298412\n      eq\n      tag_10\n      jumpi\n      dup1\n      0x715018a6\n      eq\n      tag_11\n      jumpi\n      jump(tag_2)\n    tag_23:\n      dup1\n      0x05a2fb7c\n      eq\n      tag_3\n      jumpi\n      dup1\n      0x0fd4fa18\n      eq\n      tag_4\n      jumpi\n      dup1\n      0x18626d9a\n      eq\n      tag_5\n      jumpi\n      dup1\n      0x217366eb\n      eq\n      tag_6\n      jumpi\n    tag_2:\n      0x00\n      dup1\n      revert\n        /* \"contracts/Factory.sol\":4606:4719  function setGovernModelAddr(address _modelAddr) public onlyOwner(){\r... */\n    tag_3:\n      tag_24\n      0x04\n      dup1\n      calldatasize\n      sub\n      dup2\n      add\n      swap1\n      tag_25\n      swap2\n      swap1\n      tag_26\n      jump\t// in\n    tag_25:\n      tag_27\n      jump\t// in\n    tag_24:\n      stop\n        /* \"contracts/Factory.sol\":4967:5080  function setRewardModelAddr(address _modelAddr) public onlyOwner(){\r... */\n    tag_4:\n      tag_28\n      0x04\n      dup1\n      calldatasize\n      sub\n      dup2\n      add\n      swap1\n      tag_29\n      swap2\n      swap1\n      tag_26\n      jump\t// in\n    tag_29:\n      tag_30\n      jump\t// in\n    tag_28:\n      stop\n        /* \"contracts/Factory.sol\":2000:2031  address  public rewardModelAddr */\n    tag_5:\n      tag_31\n      tag_32\n      jump\t// in\n    tag_31:\n      mload(0x40)\n      tag_33\n      swap2\n      swap1\n      tag_34\n      jump\t// in\n    tag_33:\n      mload(0x40)\n      dup1\n      swap2\n      sub\n      swap1\n      return\n        /* \"contracts/Factory.sol\":5088:5201  function setFaucetModelAddr(address _modelAddr) public onlyOwner(){\r... */\n    tag_6:\n      tag_35\n      0x04\n      dup1\n      calldatasize\n      sub\n      dup2\n      add\n      swap1\n      tag_36\n      swap2\n      swap1\n      tag_26\n      jump\t// in\n    tag_36:\n      tag_37\n      jump\t// in\n    tag_35:\n      stop\n        /* \"contracts/Factory.sol\":2127:2157  address public searchModelAddr */\n    tag_7:\n      tag_38\n      tag_39\n      jump\t// in\n    tag_38:\n      mload(0x40)\n      tag_40\n      swap2\n      swap1\n      tag_34\n      jump\t// in\n    tag_40:\n      mload(0x40)\n      dup1\n      swap2\n      sub\n      swap1\n      return\n        /* \"contracts/Factory.sol\":2668:4598  function createDAO(\r... */\n    tag_8:\n      tag_41\n      0x04\n      dup1\n      calldatasize\n      sub\n      dup2\n      add\n      swap1\n      tag_42\n      swap2\n      swap1\n      tag_43\n      jump\t// in\n    tag_42:\n      tag_44\n      jump\t// in\n    tag_41:\n      stop\n        /* \"contracts/Factory.sol\":1754:1773  uint public len = 0 */\n    tag_9:\n      tag_45\n      tag_46\n      jump\t// in\n    tag_45:\n      mload(0x40)\n      tag_47\n      swap2\n      swap1\n      tag_48\n      jump\t// in\n    tag_47:\n      mload(0x40)\n      dup1\n      swap2\n      sub\n      swap1\n      return\n        /* \"contracts/Factory.sol\":4844:4959  function setAirdropModelAddr(address _modelAddr) public onlyOwner(){\r... */\n    tag_10:\n      tag_49\n      0x04\n      dup1\n      calldatasize\n      sub\n      dup2\n      add\n      swap1\n      tag_50\n      swap2\n      swap1\n      tag_26\n      jump\t// in\n    tag_50:\n      tag_51\n      jump\t// in\n    tag_49:\n      stop\n        /* \"@openzeppelin/contracts/access/Ownable.sol\":1831:1932  function renounceOwnership() public virtual onlyOwner {... */\n    tag_11:\n      tag_52\n      tag_53\n      jump\t// in\n    tag_52:\n      stop\n        /* \"contracts/Factory.sol\":5209:5322  function setSearchModelAddr(address _modelAddr) public onlyOwner(){\r... */\n    tag_12:\n      tag_54\n      0x04\n      dup1\n      calldatasize\n      sub\n      dup2\n      add\n      swap1\n      tag_55\n      swap2\n      swap1\n      tag_26\n      jump\t// in\n    tag_55:\n      tag_56\n      jump\t// in\n    tag_54:\n      stop\n        /* \"@openzeppelin/contracts/access/Ownable.sol\":1201:1286  function owner() public view virtual returns (address) {... */\n    tag_13:\n      tag_57\n      tag_58\n      jump\t// in\n    tag_57:\n      mload(0x40)\n      tag_59\n      swap2\n      swap1\n      tag_34\n      jump\t// in\n    tag_59:\n      mload(0x40)\n      dup1\n      swap2\n      sub\n      swap1\n      return\n        /* \"contracts/Factory.sol\":5330:5943  function getDaoAddrs(uint _index) public view returns(address[] memory){\r... */\n    tag_14:\n      tag_60\n      0x04\n      dup1\n      calldatasize\n      sub\n      dup2\n      add\n      swap1\n      tag_61\n      swap2\n      swap1\n      tag_62\n      jump\t// in\n    tag_61:\n      tag_63\n      jump\t// in\n    tag_60:\n      mload(0x40)\n      tag_64\n      swap2\n      swap1\n      tag_65\n      jump\t// in\n    tag_64:\n      mload(0x40)\n      dup1\n      swap2\n      sub\n      swap1\n      return\n        /* \"contracts/Factory.sol\":4727:4836  function setPoolModelAddr(address _modelAddr) public onlyOwner(){\r... */\n    tag_15:\n      tag_66\n      0x04\n      dup1\n      calldatasize\n      sub\n      dup2\n      add\n      swap1\n      tag_67\n      swap2\n      swap1\n      tag_26\n      jump\t// in\n    tag_67:\n      tag_68\n      jump\t// in\n    tag_66:\n      stop\n        /* \"contracts/Factory.sol\":2064:2094  address public faucetModelAddr */\n    tag_16:\n      tag_69\n      tag_70\n      jump\t// in\n    tag_69:\n      mload(0x40)\n      tag_71\n      swap2\n      swap1\n      tag_34\n      jump\t// in\n    tag_71:\n      mload(0x40)\n      dup1\n      swap2\n      sub\n      swap1\n      return\n        /* \"contracts/Factory.sol\":1935:1967  address  public airdropModelAddr */\n    tag_17:\n      tag_72\n      tag_73\n      jump\t// in\n    tag_72:\n      mload(0x40)\n      tag_74\n      swap2\n      swap1\n      tag_34\n      jump\t// in\n    tag_74:\n      mload(0x40)\n      dup1\n      swap2\n      sub\n      swap1\n      return\n        /* \"contracts/Factory.sol\":1872:1901  address  public poolModelAddr */\n    tag_18:\n      tag_75\n      tag_76\n      jump\t// in\n    tag_75:\n      mload(0x40)\n      tag_77\n      swap2\n      swap1\n      tag_34\n      jump\t// in\n    tag_77:\n      mload(0x40)\n      dup1\n      swap2\n      sub\n      swap1\n      return\n        /* \"contracts/Factory.sol\":1810:1841  address  public governModelAddr */\n    tag_19:\n      tag_78\n      tag_79\n      jump\t// in\n    tag_78:\n      mload(0x40)\n      tag_80\n      swap2\n      swap1\n      tag_34\n      jump\t// in\n    tag_80:\n      mload(0x40)\n      dup1\n      swap2\n      sub\n      swap1\n      return\n        /* \"@openzeppelin/contracts/access/Ownable.sol\":2081:2279  function transferOwnership(address newOwner) public virtual onlyOwner {... */\n    tag_20:\n      tag_81\n      0x04\n      dup1\n      calldatasize\n      sub\n      dup2\n      add\n      swap1\n      tag_82\n      swap2\n      swap1\n      tag_26\n      jump\t// in\n    tag_82:\n      tag_83\n      jump\t// in\n    tag_81:\n      stop\n        /* \"contracts/Factory.sol\":4606:4719  function setGovernModelAddr(address _modelAddr) public onlyOwner(){\r... */\n    tag_27:\n        /* \"@openzeppelin/contracts/access/Ownable.sol\":1094:1107  _checkOwner() */\n      tag_85\n        /* \"@openzeppelin/contracts/access/Ownable.sol\":1094:1105  _checkOwner */\n      tag_86\n        /* \"@openzeppelin/contracts/access/Ownable.sol\":1094:1107  _checkOwner() */\n      jump\t// in\n    tag_85:\n        /* \"contracts/Factory.sol\":4701:4711  _modelAddr */\n      dup1\n        /* \"contracts/Factory.sol\":4683:4698  governModelAddr */\n      0x03\n      0x00\n        /* \"contracts/Factory.sol\":4683:4711  governModelAddr = _modelAddr */\n      0x0100\n      exp\n      dup2\n      sload\n      dup2\n      0xffffffffffffffffffffffffffffffffffffffff\n      mul\n      not\n      and\n      swap1\n      dup4\n      0xffffffffffffffffffffffffffffffffffffffff\n      and\n      mul\n      or\n      swap1\n      sstore\n      pop\n        /* \"contracts/Factory.sol\":4606:4719  function setGovernModelAddr(address _modelAddr) public onlyOwner(){\r... */\n      pop\n      jump\t// out\n        /* \"contracts/Factory.sol\":4967:5080  function setRewardModelAddr(address _modelAddr) public onlyOwner(){\r... */\n    tag_30:\n        /* \"@openzeppelin/contracts/access/Ownable.sol\":1094:1107  _checkOwner() */\n      tag_89\n        /* \"@openzeppelin/contracts/access/Ownable.sol\":1094:1105  _checkOwner */\n      tag_86\n        /* \"@openzeppelin/contracts/access/Ownable.sol\":1094:1107  _checkOwner() */\n      jump\t// in\n    tag_89:\n        /* \"contracts/Factory.sol\":5062:5072  _modelAddr */\n      dup1\n        /* \"contracts/Factory.sol\":5044:5059  rewardModelAddr */\n      0x06\n      0x00\n        /* \"contracts/Factory.sol\":5044:5072  rewardModelAddr = _modelAddr */\n      0x0100\n      exp\n      dup2\n      sload\n      dup2\n      0xffffffffffffffffffffffffffffffffffffffff\n      mul\n      not\n      and\n      swap1\n      dup4\n      0xffffffffffffffffffffffffffffffffffffffff\n      and\n      mul\n      or\n      swap1\n      sstore\n      pop\n        /* \"contracts/Factory.sol\":4967:5080  function setRewardModelAddr(address _modelAddr) public onlyOwner(){\r... */\n      pop\n      jump\t// out\n        /* \"contracts/Factory.sol\":2000:2031  address  public rewardModelAddr */\n    tag_32:\n      0x06\n      0x00\n      swap1\n      sload\n      swap1\n      0x0100\n      exp\n      swap1\n      div\n      0xffffffffffffffffffffffffffffffffffffffff\n      and\n      dup2\n      jump\t// out\n        /* \"contracts/Factory.sol\":5088:5201  function setFaucetModelAddr(address _modelAddr) public onlyOwner(){\r... */\n    tag_37:\n        /* \"@openzeppelin/contracts/access/Ownable.sol\":1094:1107  _checkOwner() */\n      tag_92\n        /* \"@openzeppelin/contracts/access/Ownable.sol\":1094:1105  _checkOwner */\n      tag_86\n        /* \"@openzeppelin/contracts/access/Ownable.sol\":1094:1107  _checkOwner() */\n      jump\t// in\n    tag_92:\n        /* \"contracts/Factory.sol\":5183:5193  _modelAddr */\n      dup1\n        /* \"contracts/Factory.sol\":5165:5180  faucetModelAddr */\n      0x07\n      0x00\n        /* \"contracts/Factory.sol\":5165:5193  faucetModelAddr = _modelAddr */\n      0x0100\n      exp\n      dup2\n      sload\n      dup2\n      0xffffffffffffffffffffffffffffffffffffffff\n      mul\n      not\n      and\n      swap1\n      dup4\n      0xffffffffffffffffffffffffffffffffffffffff\n      and\n      mul\n      or\n      swap1\n      sstore\n      pop\n        /* \"contracts/Factory.sol\":5088:5201  function setFaucetModelAddr(address _modelAddr) public onlyOwner(){\r... */\n      pop\n      jump\t// out\n        /* \"contracts/Factory.sol\":2127:2157  address public searchModelAddr */\n    tag_39:\n      0x08\n      0x00\n      swap1\n      sload\n      swap1\n      0x0100\n      exp\n      swap1\n      div\n      0xffffffffffffffffffffffffffffffffffffffff\n      and\n      dup2\n      jump\t// out\n        /* \"contracts/Factory.sol\":2668:4598  function createDAO(\r... */\n    tag_44:\n        /* \"@openzeppelin/contracts/access/Ownable.sol\":1094:1107  _checkOwner() */\n      tag_95\n        /* \"@openzeppelin/contracts/access/Ownable.sol\":1094:1105  _checkOwner */\n      tag_86\n        /* \"@openzeppelin/contracts/access/Ownable.sol\":1094:1107  _checkOwner() */\n      jump\t// in\n    tag_95:\n        /* \"contracts/Factory.sol\":3139:3140  0 */\n      0x00\n        /* \"contracts/Factory.sol\":3112:3141  governModelAddr != address(0) */\n      0xffffffffffffffffffffffffffffffffffffffff\n      and\n        /* \"contracts/Factory.sol\":3112:3127  governModelAddr */\n      0x03\n      0x00\n      swap1\n      sload\n      swap1\n      0x0100\n      exp\n      swap1\n      div\n      0xffffffffffffffffffffffffffffffffffffffff\n      and\n        /* \"contracts/Factory.sol\":3112:3141  governModelAddr != address(0) */\n      0xffffffffffffffffffffffffffffffffffffffff\n      and\n      eq\n      iszero\n        /* \"contracts/Factory.sol\":3112:3181  governModelAddr != address(0)\r... */\n      dup1\n      iszero\n      tag_97\n      jumpi\n      pop\n        /* \"contracts/Factory.sol\":3179:3180  0 */\n      0x00\n        /* \"contracts/Factory.sol\":3154:3181  poolModelAddr != address(0) */\n      0xffffffffffffffffffffffffffffffffffffffff\n      and\n        /* \"contracts/Factory.sol\":3154:3167  poolModelAddr */\n      0x04\n      0x00\n      swap1\n      sload\n      swap1\n      0x0100\n      exp\n      swap1\n      div\n      0xffffffffffffffffffffffffffffffffffffffff\n      and\n        /* \"contracts/Factory.sol\":3154:3181  poolModelAddr != address(0) */\n      0xffffffffffffffffffffffffffffffffffffffff\n      and\n      eq\n      iszero\n        /* \"contracts/Factory.sol\":3112:3181  governModelAddr != address(0)\r... */\n    tag_97:\n        /* \"contracts/Factory.sol\":3112:3224  governModelAddr != address(0)\r... */\n      dup1\n      iszero\n      tag_98\n      jumpi\n      pop\n        /* \"contracts/Factory.sol\":3222:3223  0 */\n      0x00\n        /* \"contracts/Factory.sol\":3194:3224  airdropModelAddr != address(0) */\n      0xffffffffffffffffffffffffffffffffffffffff\n      and\n        /* \"contracts/Factory.sol\":3194:3210  airdropModelAddr */\n      0x05\n      0x00\n      swap1\n      sload\n      swap1\n      0x0100\n      exp\n      swap1\n      div\n      0xffffffffffffffffffffffffffffffffffffffff\n      and\n        /* \"contracts/Factory.sol\":3194:3224  airdropModelAddr != address(0) */\n      0xffffffffffffffffffffffffffffffffffffffff\n      and\n      eq\n      iszero\n        /* \"contracts/Factory.sol\":3112:3224  governModelAddr != address(0)\r... */\n    tag_98:\n        /* \"contracts/Factory.sol\":3112:3266  governModelAddr != address(0)\r... */\n      dup1\n      iszero\n      tag_99\n      jumpi\n      pop\n        /* \"contracts/Factory.sol\":3264:3265  0 */\n      0x00\n        /* \"contracts/Factory.sol\":3237:3266  rewardModelAddr != address(0) */\n      0xffffffffffffffffffffffffffffffffffffffff\n      and\n        /* \"contracts/Factory.sol\":3237:3252  rewardModelAddr */\n      0x06\n      0x00\n      swap1\n      sload\n      swap1\n      0x0100\n      exp\n      swap1\n      div\n      0xffffffffffffffffffffffffffffffffffffffff\n      and\n        /* \"contracts/Factory.sol\":3237:3266  rewardModelAddr != address(0) */\n      0xffffffffffffffffffffffffffffffffffffffff\n      and\n      eq\n      iszero\n        /* \"contracts/Factory.sol\":3112:3266  governModelAddr != address(0)\r... */\n    tag_99:\n        /* \"contracts/Factory.sol\":3112:3308  governModelAddr != address(0)\r... */\n      dup1\n      iszero\n      tag_100\n      jumpi\n      pop\n        /* \"contracts/Factory.sol\":3306:3307  0 */\n      0x00\n        /* \"contracts/Factory.sol\":3279:3308  faucetModelAddr != address(0) */\n      0xffffffffffffffffffffffffffffffffffffffff\n      and\n        /* \"contracts/Factory.sol\":3279:3294  faucetModelAddr */\n      0x07\n      0x00\n      swap1\n      sload\n      swap1\n      0x0100\n      exp\n      swap1\n      div\n      0xffffffffffffffffffffffffffffffffffffffff\n      and\n        /* \"contracts/Factory.sol\":3279:3308  faucetModelAddr != address(0) */\n      0xffffffffffffffffffffffffffffffffffffffff\n      and\n      eq\n      iszero\n        /* \"contracts/Factory.sol\":3112:3308  governModelAddr != address(0)\r... */\n    tag_100:\n        /* \"contracts/Factory.sol\":3112:3354  governModelAddr != address(0)\r... */\n      dup1\n      iszero\n      tag_101\n      jumpi\n      pop\n        /* \"contracts/Factory.sol\":3352:3353  0 */\n      0x00\n        /* \"contracts/Factory.sol\":3325:3354  searchModelAddr != address(0) */\n      0xffffffffffffffffffffffffffffffffffffffff\n      and\n        /* \"contracts/Factory.sol\":3325:3340  searchModelAddr */\n      0x08\n      0x00\n      swap1\n      sload\n      swap1\n      0x0100\n      exp\n      swap1\n      div\n      0xffffffffffffffffffffffffffffffffffffffff\n      and\n        /* \"contracts/Factory.sol\":3325:3354  searchModelAddr != address(0) */\n      0xffffffffffffffffffffffffffffffffffffffff\n      and\n      eq\n      iszero\n        /* \"contracts/Factory.sol\":3112:3354  governModelAddr != address(0)\r... */\n    tag_101:\n        /* \"contracts/Factory.sol\":3104:3381  require(governModelAddr != address(0)\r... */\n      tag_102\n      jumpi\n      mload(0x40)\n      0x08c379a000000000000000000000000000000000000000000000000000000000\n      dup2\n      mstore\n      0x04\n      add\n      tag_103\n      swap1\n      tag_104\n      jump\t// in\n    tag_103:\n      mload(0x40)\n      dup1\n      swap2\n      sub\n      swap1\n      revert\n    tag_102:\n        /* \"contracts/Factory.sol\":3392:3411  IGovernance Igovern */\n      0x00\n        /* \"contracts/Factory.sol\":3426:3454  createClone(governModelAddr) */\n      tag_105\n        /* \"contracts/Factory.sol\":3438:3453  governModelAddr */\n      0x03\n      0x00\n      swap1\n      sload\n      swap1\n      0x0100\n      exp\n      swap1\n      div\n      0xffffffffffffffffffffffffffffffffffffffff\n      and\n        /* \"contracts/Factory.sol\":3426:3437  createClone */\n      tag_106\n        /* \"contracts/Factory.sol\":3426:3454  createClone(governModelAddr) */\n      jump\t// in\n    tag_105:\n        /* \"contracts/Factory.sol\":3392:3455  IGovernance Igovern = IGovernance(createClone(governModelAddr)) */\n      swap1\n      pop\n        /* \"contracts/Factory.sol\":3466:3473  Igovern */\n      dup1\n        /* \"contracts/Factory.sol\":3466:3484  Igovern.initialize */\n      0xffffffffffffffffffffffffffffffffffffffff\n      and\n      0xa6ab36f2\n        /* \"contracts/Factory.sol\":3485:3498  _authorAmount */\n      dup10\n        /* \"contracts/Factory.sol\":3499:3511  _blockHeight */\n      dup10\n        /* \"contracts/Factory.sol\":3512:3522  msg.sender */\n      caller\n        /* \"contracts/Factory.sol\":3466:3523  Igovern.initialize(_authorAmount,_blockHeight,msg.sender) */\n      mload(0x40)\n      dup5\n      0xffffffff\n      and\n      0xe0\n      shl\n      dup2\n      mstore\n      0x04\n      add\n      tag_107\n      swap4\n      swap3\n      swap2\n      swap1\n      tag_108\n      jump\t// in\n    tag_107:\n      0x00\n      mload(0x40)\n      dup1\n      dup4\n      sub\n      dup2\n      0x00\n      dup8\n      dup1\n      extcodesize\n      iszero\n      dup1\n      iszero\n      tag_109\n      jumpi\n      0x00\n      dup1\n      revert\n    tag_109:\n      pop\n      gas\n      call\n      iszero\n      dup1\n      iszero\n      tag_111\n      jumpi\n      returndatasize\n      0x00\n      dup1\n      returndatacopy\n      revert(0x00, returndatasize)\n    tag_111:\n      pop\n      pop\n      pop\n      pop\n        /* \"contracts/Factory.sol\":3536:3547  IPool Ipool */\n      0x00\n        /* \"contracts/Factory.sol\":3556:3582  createClone(poolModelAddr) */\n      tag_112\n        /* \"contracts/Factory.sol\":3568:3581  poolModelAddr */\n      0x04\n      0x00\n      swap1\n      sload\n      swap1\n      0x0100\n      exp\n      swap1\n      div\n      0xffffffffffffffffffffffffffffffffffffffff\n      and\n        /* \"contracts/Factory.sol\":3556:3567  createClone */\n      tag_106\n        /* \"contracts/Factory.sol\":3556:3582  createClone(poolModelAddr) */\n      jump\t// in\n    tag_112:\n        /* \"contracts/Factory.sol\":3536:3583  IPool Ipool = IPool(createClone(poolModelAddr)) */\n      swap1\n      pop\n        /* \"contracts/Factory.sol\":3594:3599  Ipool */\n      dup1\n        /* \"contracts/Factory.sol\":3594:3610  Ipool.initialize */\n      0xffffffffffffffffffffffffffffffffffffffff\n      and\n      0x362925c2\n        /* \"contracts/Factory.sol\":3619:3626  Igovern */\n      dup4\n        /* \"contracts/Factory.sol\":3628:3638  msg.sender */\n      caller\n        /* \"contracts/Factory.sol\":3639:3647  _stkName */\n      dup11\n        /* \"contracts/Factory.sol\":3648:3658  _stkSymbol */\n      dup11\n        /* \"contracts/Factory.sol\":3659:3674  faucetModelAddr */\n      0x07\n      0x00\n      swap1\n      sload\n      swap1\n      0x0100\n      exp\n      swap1\n      div\n      0xffffffffffffffffffffffffffffffffffffffff\n      and\n        /* \"contracts/Factory.sol\":3594:3675  Ipool.initialize(address(Igovern),msg.sender,_stkName,_stkSymbol,faucetModelAddr) */\n      mload(0x40)\n      dup7\n      0xffffffff\n      and\n      0xe0\n      shl\n      dup2\n      mstore\n      0x04\n      add\n      tag_113\n      swap6\n      swap5\n      swap4\n      swap3\n      swap2\n      swap1\n      tag_114\n      jump\t// in\n    tag_113:\n      0x00\n      mload(0x40)\n      dup1\n      dup4\n      sub\n      dup2\n      0x00\n      dup8\n      dup1\n      extcodesize\n      iszero\n      dup1\n      iszero\n      tag_115\n      jumpi\n      0x00\n      dup1\n      revert\n    tag_115:\n      pop\n      gas\n      call\n      iszero\n      dup1\n      iszero\n      tag_117\n      jumpi\n      returndatasize\n      0x00\n      dup1\n      returndatacopy\n      revert(0x00, returndatasize)\n    tag_117:\n      pop\n      pop\n      pop\n      pop\n        /* \"contracts/Factory.sol\":3733:3740  Igovern */\n      dup2\n        /* \"contracts/Factory.sol\":3733:3756  Igovern.setStkTokenAddr */\n      0xffffffffffffffffffffffffffffffffffffffff\n      and\n      0x77d2e24b\n        /* \"contracts/Factory.sol\":3765:3770  Ipool */\n      dup3\n        /* \"contracts/Factory.sol\":3733:3772  Igovern.setStkTokenAddr(address(Ipool)) */\n      mload(0x40)\n      dup3\n      0xffffffff\n      and\n      0xe0\n      shl\n      dup2\n      mstore\n      0x04\n      add\n      tag_118\n      swap2\n      swap1\n      tag_34\n      jump\t// in\n    tag_118:\n      0x00\n      mload(0x40)\n      dup1\n      dup4\n      sub\n      dup2\n      0x00\n      dup8\n      dup1\n      extcodesize\n      iszero\n      dup1\n      iszero\n      tag_119\n      jumpi\n      0x00\n      dup1\n      revert\n    tag_119:\n      pop\n      gas\n      call\n      iszero\n      dup1\n      iszero\n      tag_121\n      jumpi\n      returndatasize\n      0x00\n      dup1\n      returndatacopy\n      revert(0x00, returndatasize)\n    tag_121:\n      pop\n      pop\n      pop\n      pop\n        /* \"contracts/Factory.sol\":3785:3802  IAirdrop Iairdrop */\n      0x00\n        /* \"contracts/Factory.sol\":3814:3843  createClone(airdropModelAddr) */\n      tag_122\n        /* \"contracts/Factory.sol\":3826:3842  airdropModelAddr */\n      0x05\n      0x00\n      swap1\n      sload\n      swap1\n      0x0100\n      exp\n      swap1\n      div\n      0xffffffffffffffffffffffffffffffffffffffff\n      and\n        /* \"contracts/Factory.sol\":3814:3825  createClone */\n      tag_106\n        /* \"contracts/Factory.sol\":3814:3843  createClone(airdropModelAddr) */\n      jump\t// in\n    tag_122:\n        /* \"contracts/Factory.sol\":3785:3844  IAirdrop Iairdrop = IAirdrop(createClone(airdropModelAddr)) */\n      swap1\n      pop\n        /* \"contracts/Factory.sol\":3855:3863  Iairdrop */\n      dup1\n        /* \"contracts/Factory.sol\":3855:3874  Iairdrop.initialize */\n      0xffffffffffffffffffffffffffffffffffffffff\n      and\n      0x650b4f8b\n        /* \"contracts/Factory.sol\":3883:3890  Igovern */\n      dup5\n        /* \"contracts/Factory.sol\":3892:3900  _retName */\n      dup9\n        /* \"contracts/Factory.sol\":3901:3911  _retSymbol */\n      dup9\n        /* \"contracts/Factory.sol\":3912:3922  msg.sender */\n      caller\n        /* \"contracts/Factory.sol\":3923:3933  _retAmount */\n      dup10\n        /* \"contracts/Factory.sol\":3934:3944  msg.sender */\n      caller\n        /* \"contracts/Factory.sol\":3855:3945  Iairdrop.initialize(address(Igovern),_retName,_retSymbol,msg.sender,_retAmount,msg.sender) */\n      mload(0x40)\n      dup8\n      0xffffffff\n      and\n      0xe0\n      shl\n      dup2\n      mstore\n      0x04\n      add\n      tag_123\n      swap7\n      swap6\n      swap5\n      swap4\n      swap3\n      swap2\n      swap1\n      tag_124\n      jump\t// in\n    tag_123:\n      0x00\n      mload(0x40)\n      dup1\n      dup4\n      sub\n      dup2\n      0x00\n      dup8\n      dup1\n      extcodesize\n      iszero\n      dup1\n      iszero\n      tag_125\n      jumpi\n      0x00\n      dup1\n      revert\n    tag_125:\n      pop\n      gas\n      call\n      iszero\n      dup1\n      iszero\n      tag_127\n      jumpi\n      returndatasize\n      0x00\n      dup1\n      returndatacopy\n      revert(0x00, returndatasize)\n    tag_127:\n      pop\n      pop\n      pop\n      pop\n        /* \"contracts/Factory.sol\":4003:4010  Igovern */\n      dup3\n        /* \"contracts/Factory.sol\":4003:4026  Igovern.setRetTokenAddr */\n      0xffffffffffffffffffffffffffffffffffffffff\n      and\n      0x6ec13680\n        /* \"contracts/Factory.sol\":4035:4043  Iairdrop */\n      dup3\n        /* \"contracts/Factory.sol\":4003:4045  Igovern.setRetTokenAddr(address(Iairdrop)) */\n      mload(0x40)\n      dup3\n      0xffffffff\n      and\n      0xe0\n      shl\n      dup2\n      mstore\n      0x04\n      add\n      tag_128\n      swap2\n      swap1\n      tag_34\n      jump\t// in\n    tag_128:\n      0x00\n      mload(0x40)\n      dup1\n      dup4\n      sub\n      dup2\n      0x00\n      dup8\n      dup1\n      extcodesize\n      iszero\n      dup1\n      iszero\n      tag_129\n      jumpi\n      0x00\n      dup1\n      revert\n    tag_129:\n      pop\n      gas\n      call\n      iszero\n      dup1\n      iszero\n      tag_131\n      jumpi\n      returndatasize\n      0x00\n      dup1\n      returndatacopy\n      revert(0x00, returndatasize)\n    tag_131:\n      pop\n      pop\n      pop\n      pop\n        /* \"contracts/Factory.sol\":4058:4073  IReward Ireward */\n      0x00\n        /* \"contracts/Factory.sol\":4084:4112  createClone(rewardModelAddr) */\n      tag_132\n        /* \"contracts/Factory.sol\":4096:4111  rewardModelAddr */\n      0x06\n      0x00\n      swap1\n      sload\n      swap1\n      0x0100\n      exp\n      swap1\n      div\n      0xffffffffffffffffffffffffffffffffffffffff\n      and\n        /* \"contracts/Factory.sol\":4084:4095  createClone */\n      tag_106\n        /* \"contracts/Factory.sol\":4084:4112  createClone(rewardModelAddr) */\n      jump\t// in\n    tag_132:\n        /* \"contracts/Factory.sol\":4058:4113  IReward Ireward = IReward(createClone(rewardModelAddr)) */\n      swap1\n      pop\n        /* \"contracts/Factory.sol\":4124:4131  Ireward */\n      dup1\n        /* \"contracts/Factory.sol\":4124:4142  Ireward.initialize */\n      0xffffffffffffffffffffffffffffffffffffffff\n      and\n      0x485cc955\n        /* \"contracts/Factory.sol\":4151:4158  Igovern */\n      dup6\n        /* \"contracts/Factory.sol\":4160:4170  msg.sender */\n      caller\n        /* \"contracts/Factory.sol\":4124:4171  Ireward.initialize(address(Igovern),msg.sender) */\n      mload(0x40)\n      dup4\n      0xffffffff\n      and\n      0xe0\n      shl\n      dup2\n      mstore\n      0x04\n      add\n      tag_133\n      swap3\n      swap2\n      swap1\n      tag_134\n      jump\t// in\n    tag_133:\n      0x00\n      mload(0x40)\n      dup1\n      dup4\n      sub\n      dup2\n      0x00\n      dup8\n      dup1\n      extcodesize\n      iszero\n      dup1\n      iszero\n      tag_135\n      jumpi\n      0x00\n      dup1\n      revert\n    tag_135:\n      pop\n      gas\n      call\n      iszero\n      dup1\n      iszero\n      tag_137\n      jumpi\n      returndatasize\n      0x00\n      dup1\n      returndatacopy\n      revert(0x00, returndatasize)\n    tag_137:\n      pop\n      pop\n      pop\n      pop\n        /* \"contracts/Factory.sol\":4227:4234  Igovern */\n      dup4\n        /* \"contracts/Factory.sol\":4227:4248  Igovern.setRewardAddr */\n      0xffffffffffffffffffffffffffffffffffffffff\n      and\n      0x09664afe\n        /* \"contracts/Factory.sol\":4257:4264  Ireward */\n      dup3\n        /* \"contracts/Factory.sol\":4227:4266  Igovern.setRewardAddr(address(Ireward)) */\n      mload(0x40)\n      dup3\n      0xffffffff\n      and\n      0xe0\n      shl\n      dup2\n      mstore\n      0x04\n      add\n      tag_138\n      swap2\n      swap1\n      tag_34\n      jump\t// in\n    tag_138:\n      0x00\n      mload(0x40)\n      dup1\n      dup4\n      sub\n      dup2\n      0x00\n      dup8\n      dup1\n      extcodesize\n      iszero\n      dup1\n      iszero\n      tag_139\n      jumpi\n      0x00\n      dup1\n      revert\n    tag_139:\n      pop\n      gas\n      call\n      iszero\n      dup1\n      iszero\n      tag_141\n      jumpi\n      returndatasize\n      0x00\n      dup1\n      returndatacopy\n      revert(0x00, returndatasize)\n    tag_141:\n      pop\n      pop\n      pop\n      pop\n        /* \"contracts/Factory.sol\":4279:4294  ISearch Isearch */\n      0x00\n        /* \"contracts/Factory.sol\":4305:4333  createClone(searchModelAddr) */\n      tag_142\n        /* \"contracts/Factory.sol\":4317:4332  searchModelAddr */\n      0x08\n      0x00\n      swap1\n      sload\n      swap1\n      0x0100\n      exp\n      swap1\n      div\n      0xffffffffffffffffffffffffffffffffffffffff\n      and\n        /* \"contracts/Factory.sol\":4305:4316  createClone */\n      tag_106\n        /* \"contracts/Factory.sol\":4305:4333  createClone(searchModelAddr) */\n      jump\t// in\n    tag_142:\n        /* \"contracts/Factory.sol\":4279:4334  ISearch Isearch = ISearch(createClone(searchModelAddr)) */\n      swap1\n      pop\n        /* \"contracts/Factory.sol\":4345:4352  Isearch */\n      dup1\n        /* \"contracts/Factory.sol\":4345:4363  Isearch.initialize */\n      0xffffffffffffffffffffffffffffffffffffffff\n      and\n      0xf8c8765e\n        /* \"contracts/Factory.sol\":4372:4379  Igovern */\n      dup7\n        /* \"contracts/Factory.sol\":4389:4394  Ipool */\n      dup7\n        /* \"contracts/Factory.sol\":4404:4411  Ireward */\n      dup6\n        /* \"contracts/Factory.sol\":4421:4429  Iairdrop */\n      dup8\n        /* \"contracts/Factory.sol\":4345:4431  Isearch.initialize(address(Igovern),address(Ipool),address(Ireward),address(Iairdrop)) */\n      mload(0x40)\n      dup6\n      0xffffffff\n      and\n      0xe0\n      shl\n      dup2\n      mstore\n      0x04\n      add\n      tag_143\n      swap5\n      swap4\n      swap3\n      swap2\n      swap1\n      tag_144\n      jump\t// in\n    tag_143:\n      0x00\n      mload(0x40)\n      dup1\n      dup4\n      sub\n      dup2\n      0x00\n      dup8\n      dup1\n      extcodesize\n      iszero\n      dup1\n      iszero\n      tag_145\n      jumpi\n      0x00\n      dup1\n      revert\n    tag_145:\n      pop\n      gas\n      call\n      iszero\n      dup1\n      iszero\n      tag_147\n      jumpi\n      returndatasize\n      0x00\n      dup1\n      returndatacopy\n      revert(0x00, returndatasize)\n    tag_147:\n      pop\n      pop\n      pop\n      pop\n        /* \"contracts/Factory.sol\":4487:4494  Igovern */\n      dup5\n        /* \"contracts/Factory.sol\":4487:4508  Igovern.setSearchAddr */\n      0xffffffffffffffffffffffffffffffffffffffff\n      and\n      0x3ec9807b\n        /* \"contracts/Factory.sol\":4517:4524  Isearch */\n      dup3\n        /* \"contracts/Factory.sol\":4487:4526  Igovern.setSearchAddr(address(Isearch)) */\n      mload(0x40)\n      dup3\n      0xffffffff\n      and\n      0xe0\n      shl\n      dup2\n      mstore\n      0x04\n      add\n      tag_148\n      swap2\n      swap1\n      tag_34\n      jump\t// in\n    tag_148:\n      0x00\n      mload(0x40)\n      dup1\n      dup4\n      sub\n      dup2\n      0x00\n      dup8\n      dup1\n      extcodesize\n      iszero\n      dup1\n      iszero\n      tag_149\n      jumpi\n      0x00\n      dup1\n      revert\n    tag_149:\n      pop\n      gas\n      call\n      iszero\n      dup1\n      iszero\n      tag_151\n      jumpi\n      returndatasize\n      0x00\n      dup1\n      returndatacopy\n      revert(0x00, returndatasize)\n    tag_151:\n      pop\n      pop\n      pop\n      pop\n        /* \"contracts/Factory.sol\":4563:4570  Igovern */\n      dup5\n        /* \"contracts/Factory.sol\":4539:4547  daoAddrs */\n      0x01\n        /* \"contracts/Factory.sol\":4539:4552  daoAddrs[len] */\n      0x00\n        /* \"contracts/Factory.sol\":4548:4551  len */\n      sload(0x02)\n        /* \"contracts/Factory.sol\":4539:4552  daoAddrs[len] */\n      dup2\n      mstore\n      0x20\n      add\n      swap1\n      dup2\n      mstore\n      0x20\n      add\n      0x00\n      keccak256\n      0x00\n        /* \"contracts/Factory.sol\":4539:4571  daoAddrs[len] = address(Igovern) */\n      0x0100\n      exp\n      dup2\n      sload\n      dup2\n      0xffffffffffffffffffffffffffffffffffffffff\n      mul\n      not\n      and\n      swap1\n      dup4\n      0xffffffffffffffffffffffffffffffffffffffff\n      and\n      mul\n      or\n      swap1\n      sstore\n      pop\n        /* \"contracts/Factory.sol\":4589:4590  1 */\n      0x01\n        /* \"contracts/Factory.sol\":4582:4585  len */\n      0x02\n      0x00\n        /* \"contracts/Factory.sol\":4582:4590  len += 1 */\n      dup3\n      dup3\n      sload\n      tag_152\n      swap2\n      swap1\n      tag_153\n      jump\t// in\n    tag_152:\n      swap3\n      pop\n      pop\n      dup2\n      swap1\n      sstore\n      pop\n        /* \"contracts/Factory.sol\":3093:4598  {\r... */\n      pop\n      pop\n      pop\n      pop\n      pop\n        /* \"contracts/Factory.sol\":2668:4598  function createDAO(\r... */\n      pop\n      pop\n      pop\n      pop\n      pop\n      pop\n      pop\n      jump\t// out\n        /* \"contracts/Factory.sol\":1754:1773  uint public len = 0 */\n    tag_46:\n      sload(0x02)\n      dup2\n      jump\t// out\n        /* \"contracts/Factory.sol\":4844:4959  function setAirdropModelAddr(address _modelAddr) public onlyOwner(){\r... */\n    tag_51:\n        /* \"@openzeppelin/contracts/access/Ownable.sol\":1094:1107  _checkOwner() */\n      tag_155\n        /* \"@openzeppelin/contracts/access/Ownable.sol\":1094:1105  _checkOwner */\n      tag_86\n        /* \"@openzeppelin/contracts/access/Ownable.sol\":1094:1107  _checkOwner() */\n      jump\t// in\n    tag_155:\n        /* \"contracts/Factory.sol\":4941:4951  _modelAddr */\n      dup1\n        /* \"contracts/Factory.sol\":4922:4938  airdropModelAddr */\n      0x05\n      0x00\n        /* \"contracts/Factory.sol\":4922:4951  airdropModelAddr = _modelAddr */\n      0x0100\n      exp\n      dup2\n      sload\n      dup2\n      0xffffffffffffffffffffffffffffffffffffffff\n      mul\n      not\n      and\n      swap1\n      dup4\n      0xffffffffffffffffffffffffffffffffffffffff\n      and\n      mul\n      or\n      swap1\n      sstore\n      pop\n        /* \"contracts/Factory.sol\":4844:4959  function setAirdropModelAddr(address _modelAddr) public onlyOwner(){\r... */\n      pop\n      jump\t// out\n        /* \"@openzeppelin/contracts/access/Ownable.sol\":1831:1932  function renounceOwnership() public virtual onlyOwner {... */\n    tag_53:\n        /* \"@openzeppelin/contracts/access/Ownable.sol\":1094:1107  _checkOwner() */\n      tag_158\n        /* \"@openzeppelin/contracts/access/Ownable.sol\":1094:1105  _checkOwner */\n      tag_86\n        /* \"@openzeppelin/contracts/access/Ownable.sol\":1094:1107  _checkOwner() */\n      jump\t// in\n    tag_158:\n        /* \"@openzeppelin/contracts/access/Ownable.sol\":1895:1925  _transferOwnership(address(0)) */\n      tag_160\n        /* \"@openzeppelin/contracts/access/Ownable.sol\":1922:1923  0 */\n      0x00\n        /* \"@openzeppelin/contracts/access/Ownable.sol\":1895:1913  _transferOwnership */\n      tag_161\n        /* \"@openzeppelin/contracts/access/Ownable.sol\":1895:1925  _transferOwnership(address(0)) */\n      jump\t// in\n    tag_160:\n        /* \"@openzeppelin/contracts/access/Ownable.sol\":1831:1932  function renounceOwnership() public virtual onlyOwner {... */\n      jump\t// out\n        /* \"contracts/Factory.sol\":5209:5322  function setSearchModelAddr(address _modelAddr) public onlyOwner(){\r... */\n    tag_56:\n        /* \"@openzeppelin/contracts/access/Ownable.sol\":1094:1107  _checkOwner() */\n      tag_163\n        /* \"@openzeppelin/contracts/access/Ownable.sol\":1094:1105  _checkOwner */\n      tag_86\n        /* \"@openzeppelin/contracts/access/Ownable.sol\":1094:1107  _checkOwner() */\n      jump\t// in\n    tag_163:\n        /* \"contracts/Factory.sol\":5304:5314  _modelAddr */\n      dup1\n        /* \"contracts/Factory.sol\":5286:5301  searchModelAddr */\n      0x08\n      0x00\n        /* \"contracts/Factory.sol\":5286:5314  searchModelAddr = _modelAddr */\n      0x0100\n      exp\n      dup2\n      sload\n      dup2\n      0xffffffffffffffffffffffffffffffffffffffff\n      mul\n      not\n      and\n      swap1\n      dup4\n      0xffffffffffffffffffffffffffffffffffffffff\n      and\n      mul\n      or\n      swap1\n      sstore\n      pop\n        /* \"contracts/Factory.sol\":5209:5322  function setSearchModelAddr(address _modelAddr) public onlyOwner(){\r... */\n      pop\n      jump\t// out\n        /* \"@openzeppelin/contracts/access/Ownable.sol\":1201:1286  function owner() public view virtual returns (address) {... */\n    tag_58:\n        /* \"@openzeppelin/contracts/access/Ownable.sol\":1247:1254  address */\n      0x00\n        /* \"@openzeppelin/contracts/access/Ownable.sol\":1273:1279  _owner */\n      dup1\n      0x00\n      swap1\n      sload\n      swap1\n      0x0100\n      exp\n      swap1\n      div\n      0xffffffffffffffffffffffffffffffffffffffff\n      and\n        /* \"@openzeppelin/contracts/access/Ownable.sol\":1266:1279  return _owner */\n      swap1\n      pop\n        /* \"@openzeppelin/contracts/access/Ownable.sol\":1201:1286  function owner() public view virtual returns (address) {... */\n      swap1\n      jump\t// out\n        /* \"contracts/Factory.sol\":5330:5943  function getDaoAddrs(uint _index) public view returns(address[] memory){\r... */\n    tag_63:\n        /* \"contracts/Factory.sol\":5384:5400  address[] memory */\n      0x60\n        /* \"contracts/Factory.sol\":5412:5434  address[] memory addrs */\n      0x00\n        /* \"contracts/Factory.sol\":5451:5452  6 */\n      0x06\n        /* \"contracts/Factory.sol\":5437:5453  new address[](6) */\n      0xffffffffffffffff\n      dup2\n      gt\n      iszero\n      tag_167\n      jumpi\n      tag_168\n      tag_169\n      jump\t// in\n    tag_168:\n    tag_167:\n      mload(0x40)\n      swap1\n      dup1\n      dup3\n      mstore\n      dup1\n      0x20\n      mul\n      0x20\n      add\n      dup3\n      add\n      0x40\n      mstore\n      dup1\n      iszero\n      tag_170\n      jumpi\n      dup2\n      0x20\n      add\n      0x20\n      dup3\n      mul\n      dup1\n      calldatasize\n      dup4\n      calldatacopy\n      dup1\n      dup3\n      add\n      swap2\n      pop\n      pop\n      swap1\n      pop\n    tag_170:\n      pop\n        /* \"contracts/Factory.sol\":5412:5453  address[] memory addrs = new address[](6) */\n      swap1\n      pop\n        /* \"contracts/Factory.sol\":5495:5496  0 */\n      0x00\n        /* \"contracts/Factory.sol\":5467:5497  daoAddrs[_index] != address(0) */\n      0xffffffffffffffffffffffffffffffffffffffff\n      and\n        /* \"contracts/Factory.sol\":5467:5475  daoAddrs */\n      0x01\n        /* \"contracts/Factory.sol\":5467:5483  daoAddrs[_index] */\n      0x00\n        /* \"contracts/Factory.sol\":5476:5482  _index */\n      dup6\n        /* \"contracts/Factory.sol\":5467:5483  daoAddrs[_index] */\n      dup2\n      mstore\n      0x20\n      add\n      swap1\n      dup2\n      mstore\n      0x20\n      add\n      0x00\n      keccak256\n      0x00\n      swap1\n      sload\n      swap1\n      0x0100\n      exp\n      swap1\n      div\n      0xffffffffffffffffffffffffffffffffffffffff\n      and\n        /* \"contracts/Factory.sol\":5467:5497  daoAddrs[_index] != address(0) */\n      0xffffffffffffffffffffffffffffffffffffffff\n      and\n      eq\n        /* \"contracts/Factory.sol\":5464:5913  if(daoAddrs[_index] != address(0)){\r... */\n      tag_171\n      jumpi\n        /* \"contracts/Factory.sol\":5513:5532  IGovernance Igovern */\n      0x00\n        /* \"contracts/Factory.sol\":5547:5555  daoAddrs */\n      0x01\n        /* \"contracts/Factory.sol\":5547:5563  daoAddrs[_index] */\n      0x00\n        /* \"contracts/Factory.sol\":5556:5562  _index */\n      dup6\n        /* \"contracts/Factory.sol\":5547:5563  daoAddrs[_index] */\n      dup2\n      mstore\n      0x20\n      add\n      swap1\n      dup2\n      mstore\n      0x20\n      add\n      0x00\n      keccak256\n      0x00\n      swap1\n      sload\n      swap1\n      0x0100\n      exp\n      swap1\n      div\n      0xffffffffffffffffffffffffffffffffffffffff\n      and\n        /* \"contracts/Factory.sol\":5513:5564  IGovernance Igovern = IGovernance(daoAddrs[_index]) */\n      swap1\n      pop\n        /* \"contracts/Factory.sol\":5590:5598  daoAddrs */\n      0x01\n        /* \"contracts/Factory.sol\":5590:5606  daoAddrs[_index] */\n      0x00\n        /* \"contracts/Factory.sol\":5599:5605  _index */\n      dup6\n        /* \"contracts/Factory.sol\":5590:5606  daoAddrs[_index] */\n      dup2\n      mstore\n      0x20\n      add\n      swap1\n      dup2\n      mstore\n      0x20\n      add\n      0x00\n      keccak256\n      0x00\n      swap1\n      sload\n      swap1\n      0x0100\n      exp\n      swap1\n      div\n      0xffffffffffffffffffffffffffffffffffffffff\n      and\n        /* \"contracts/Factory.sol\":5579:5584  addrs */\n      dup3\n        /* \"contracts/Factory.sol\":5585:5586  0 */\n      0x00\n        /* \"contracts/Factory.sol\":5579:5587  addrs[0] */\n      dup2\n      mload\n      dup2\n      lt\n      tag_172\n      jumpi\n      tag_173\n      tag_174\n      jump\t// in\n    tag_173:\n    tag_172:\n      0x20\n      mul\n      0x20\n      add\n      add\n        /* \"contracts/Factory.sol\":5579:5606  addrs[0] = daoAddrs[_index] */\n      swap1\n      0xffffffffffffffffffffffffffffffffffffffff\n      and\n      swap1\n      dup2\n      0xffffffffffffffffffffffffffffffffffffffff\n      and\n      dup2\n      mstore\n      pop\n      pop\n        /* \"contracts/Factory.sol\":5632:5639  Igovern */\n      dup1\n        /* \"contracts/Factory.sol\":5632:5652  Igovern.stkTokenAddr */\n      0xffffffffffffffffffffffffffffffffffffffff\n      and\n      0x08c17a4a\n        /* \"contracts/Factory.sol\":5632:5654  Igovern.stkTokenAddr() */\n      mload(0x40)\n      dup2\n      0xffffffff\n      and\n      0xe0\n      shl\n      dup2\n      mstore\n      0x04\n      add\n      0x20\n      mload(0x40)\n      dup1\n      dup4\n      sub\n      dup2\n      dup7\n      dup1\n      extcodesize\n      iszero\n      dup1\n      iszero\n      tag_175\n      jumpi\n      0x00\n      dup1\n      revert\n    tag_175:\n      pop\n      gas\n      staticcall\n      iszero\n      dup1\n      iszero\n      tag_177\n      jumpi\n      returndatasize\n      0x00\n      dup1\n      returndatacopy\n      revert(0x00, returndatasize)\n    tag_177:\n      pop\n      pop\n      pop\n      pop\n      mload(0x40)\n      returndatasize\n      not(0x1f)\n      0x1f\n      dup3\n      add\n      and\n      dup3\n      add\n      dup1\n      0x40\n      mstore\n      pop\n      dup2\n      add\n      swap1\n      tag_178\n      swap2\n      swap1\n      tag_179\n      jump\t// in\n    tag_178:\n        /* \"contracts/Factory.sol\":5621:5626  addrs */\n      dup3\n        /* \"contracts/Factory.sol\":5627:5628  1 */\n      0x01\n        /* \"contracts/Factory.sol\":5621:5629  addrs[1] */\n      dup2\n      mload\n      dup2\n      lt\n      tag_180\n      jumpi\n      tag_181\n      tag_174\n      jump\t// in\n    tag_181:\n    tag_180:\n      0x20\n      mul\n      0x20\n      add\n      add\n        /* \"contracts/Factory.sol\":5621:5654  addrs[1] = Igovern.stkTokenAddr() */\n      swap1\n      0xffffffffffffffffffffffffffffffffffffffff\n      and\n      swap1\n      dup2\n      0xffffffffffffffffffffffffffffffffffffffff\n      and\n      dup2\n      mstore\n      pop\n      pop\n        /* \"contracts/Factory.sol\":5680:5687  Igovern */\n      dup1\n        /* \"contracts/Factory.sol\":5680:5700  Igovern.retTokenAddr */\n      0xffffffffffffffffffffffffffffffffffffffff\n      and\n      0xd1d25fab\n        /* \"contracts/Factory.sol\":5680:5702  Igovern.retTokenAddr() */\n      mload(0x40)\n      dup2\n      0xffffffff\n      and\n      0xe0\n      shl\n      dup2\n      mstore\n      0x04\n      add\n      0x20\n      mload(0x40)\n      dup1\n      dup4\n      sub\n      dup2\n      dup7\n      dup1\n      extcodesize\n      iszero\n      dup1\n      iszero\n      tag_182\n      jumpi\n      0x00\n      dup1\n      revert\n    tag_182:\n      pop\n      gas\n      staticcall\n      iszero\n      dup1\n      iszero\n      tag_184\n      jumpi\n      returndatasize\n      0x00\n      dup1\n      returndatacopy\n      revert(0x00, returndatasize)\n    tag_184:\n      pop\n      pop\n      pop\n      pop\n      mload(0x40)\n      returndatasize\n      not(0x1f)\n      0x1f\n      dup3\n      add\n      and\n      dup3\n      add\n      dup1\n      0x40\n      mstore\n      pop\n      dup2\n      add\n      swap1\n      tag_185\n      swap2\n      swap1\n      tag_179\n      jump\t// in\n    tag_185:\n        /* \"contracts/Factory.sol\":5669:5674  addrs */\n      dup3\n        /* \"contracts/Factory.sol\":5675:5676  2 */\n      0x02\n        /* \"contracts/Factory.sol\":5669:5677  addrs[2] */\n      dup2\n      mload\n      dup2\n      lt\n      tag_186\n      jumpi\n      tag_187\n      tag_174\n      jump\t// in\n    tag_187:\n    tag_186:\n      0x20\n      mul\n      0x20\n      add\n      add\n        /* \"contracts/Factory.sol\":5669:5702  addrs[2] = Igovern.retTokenAddr() */\n      swap1\n      0xffffffffffffffffffffffffffffffffffffffff\n      and\n      swap1\n      dup2\n      0xffffffffffffffffffffffffffffffffffffffff\n      and\n      dup2\n      mstore\n      pop\n      pop\n        /* \"contracts/Factory.sol\":5728:5735  Igovern */\n      dup1\n        /* \"contracts/Factory.sol\":5728:5746  Igovern.rewardAddr */\n      0xffffffffffffffffffffffffffffffffffffffff\n      and\n      0x7015e95e\n        /* \"contracts/Factory.sol\":5728:5748  Igovern.rewardAddr() */\n      mload(0x40)\n      dup2\n      0xffffffff\n      and\n      0xe0\n      shl\n      dup2\n      mstore\n      0x04\n      add\n      0x20\n      mload(0x40)\n      dup1\n      dup4\n      sub\n      dup2\n      dup7\n      dup1\n      extcodesize\n      iszero\n      dup1\n      iszero\n      tag_188\n      jumpi\n      0x00\n      dup1\n      revert\n    tag_188:\n      pop\n      gas\n      staticcall\n      iszero\n      dup1\n      iszero\n      tag_190\n      jumpi\n      returndatasize\n      0x00\n      dup1\n      returndatacopy\n      revert(0x00, returndatasize)\n    tag_190:\n      pop\n      pop\n      pop\n      pop\n      mload(0x40)\n      returndatasize\n      not(0x1f)\n      0x1f\n      dup3\n      add\n      and\n      dup3\n      add\n      dup1\n      0x40\n      mstore\n      pop\n      dup2\n      add\n      swap1\n      tag_191\n      swap2\n      swap1\n      tag_179\n      jump\t// in\n    tag_191:\n        /* \"contracts/Factory.sol\":5717:5722  addrs */\n      dup3\n        /* \"contracts/Factory.sol\":5723:5724  3 */\n      0x03\n        /* \"contracts/Factory.sol\":5717:5725  addrs[3] */\n      dup2\n      mload\n      dup2\n      lt\n      tag_192\n      jumpi\n      tag_193\n      tag_174\n      jump\t// in\n    tag_193:\n    tag_192:\n      0x20\n      mul\n      0x20\n      add\n      add\n        /* \"contracts/Factory.sol\":5717:5748  addrs[3] = Igovern.rewardAddr() */\n      swap1\n      0xffffffffffffffffffffffffffffffffffffffff\n      and\n      swap1\n      dup2\n      0xffffffffffffffffffffffffffffffffffffffff\n      and\n      dup2\n      mstore\n      pop\n      pop\n        /* \"contracts/Factory.sol\":5774:5781  Igovern */\n      dup1\n        /* \"contracts/Factory.sol\":5774:5792  Igovern.searchAddr */\n      0xffffffffffffffffffffffffffffffffffffffff\n      and\n      0xbf109025\n        /* \"contracts/Factory.sol\":5774:5794  Igovern.searchAddr() */\n      mload(0x40)\n      dup2\n      0xffffffff\n      and\n      0xe0\n      shl\n      dup2\n      mstore\n      0x04\n      add\n      0x20\n      mload(0x40)\n      dup1\n      dup4\n      sub\n      dup2\n      dup7\n      dup1\n      extcodesize\n      iszero\n      dup1\n      iszero\n      tag_194\n      jumpi\n      0x00\n      dup1\n      revert\n    tag_194:\n      pop\n      gas\n      staticcall\n      iszero\n      dup1\n      iszero\n      tag_196\n      jumpi\n      returndatasize\n      0x00\n      dup1\n      returndatacopy\n      revert(0x00, returndatasize)\n    tag_196:\n      pop\n      pop\n      pop\n      pop\n      mload(0x40)\n      returndatasize\n      not(0x1f)\n      0x1f\n      dup3\n      add\n      and\n      dup3\n      add\n      dup1\n      0x40\n      mstore\n      pop\n      dup2\n      add\n      swap1\n      tag_197\n      swap2\n      swap1\n      tag_179\n      jump\t// in\n    tag_197:\n        /* \"contracts/Factory.sol\":5763:5768  addrs */\n      dup3\n        /* \"contracts/Factory.sol\":5769:5770  4 */\n      0x04\n        /* \"contracts/Factory.sol\":5763:5771  addrs[4] */\n      dup2\n      mload\n      dup2\n      lt\n      tag_198\n      jumpi\n      tag_199\n      tag_174\n      jump\t// in\n    tag_199:\n    tag_198:\n      0x20\n      mul\n      0x20\n      add\n      add\n        /* \"contracts/Factory.sol\":5763:5794  addrs[4] = Igovern.searchAddr() */\n      swap1\n      0xffffffffffffffffffffffffffffffffffffffff\n      and\n      swap1\n      dup2\n      0xffffffffffffffffffffffffffffffffffffffff\n      and\n      dup2\n      mstore\n      pop\n      pop\n        /* \"contracts/Factory.sol\":5809:5820  IPool Ipool */\n      0x00\n        /* \"contracts/Factory.sol\":5829:5836  Igovern */\n      dup2\n        /* \"contracts/Factory.sol\":5829:5849  Igovern.stkTokenAddr */\n      0xffffffffffffffffffffffffffffffffffffffff\n      and\n      0x08c17a4a\n        /* \"contracts/Factory.sol\":5829:5851  Igovern.stkTokenAddr() */\n      mload(0x40)\n      dup2\n      0xffffffff\n      and\n      0xe0\n      shl\n      dup2\n      mstore\n      0x04\n      add\n      0x20\n      mload(0x40)\n      dup1\n      dup4\n      sub\n      dup2\n      dup7\n      dup1\n      extcodesize\n      iszero\n      dup1\n      iszero\n      tag_200\n      jumpi\n      0x00\n      dup1\n      revert\n    tag_200:\n      pop\n      gas\n      staticcall\n      iszero\n      dup1\n      iszero\n      tag_202\n      jumpi\n      returndatasize\n      0x00\n      dup1\n      returndatacopy\n      revert(0x00, returndatasize)\n    tag_202:\n      pop\n      pop\n      pop\n      pop\n      mload(0x40)\n      returndatasize\n      not(0x1f)\n      0x1f\n      dup3\n      add\n      and\n      dup3\n      add\n      dup1\n      0x40\n      mstore\n      pop\n      dup2\n      add\n      swap1\n      tag_203\n      swap2\n      swap1\n      tag_179\n      jump\t// in\n    tag_203:\n        /* \"contracts/Factory.sol\":5809:5852  IPool Ipool = IPool(Igovern.stkTokenAddr()) */\n      swap1\n      pop\n        /* \"contracts/Factory.sol\":5878:5883  Ipool */\n      dup1\n        /* \"contracts/Factory.sol\":5878:5899  Ipool.faucetModelAddr */\n      0xffffffffffffffffffffffffffffffffffffffff\n      and\n      0xb28f3b8e\n        /* \"contracts/Factory.sol\":5878:5901  Ipool.faucetModelAddr() */\n      mload(0x40)\n      dup2\n      0xffffffff\n      and\n      0xe0\n      shl\n      dup2\n      mstore\n      0x04\n      add\n      0x20\n      mload(0x40)\n      dup1\n      dup4\n      sub\n      dup2\n      dup7\n      dup1\n      extcodesize\n      iszero\n      dup1\n      iszero\n      tag_204\n      jumpi\n      0x00\n      dup1\n      revert\n    tag_204:\n      pop\n      gas\n      staticcall\n      iszero\n      dup1\n      iszero\n      tag_206\n      jumpi\n      returndatasize\n      0x00\n      dup1\n      returndatacopy\n      revert(0x00, returndatasize)\n    tag_206:\n      pop\n      pop\n      pop\n      pop\n      mload(0x40)\n      returndatasize\n      not(0x1f)\n      0x1f\n      dup3\n      add\n      and\n      dup3\n      add\n      dup1\n      0x40\n      mstore\n      pop\n      dup2\n      add\n      swap1\n      tag_207\n      swap2\n      swap1\n      tag_179\n      jump\t// in\n    tag_207:\n        /* \"contracts/Factory.sol\":5867:5872  addrs */\n      dup4\n        /* \"contracts/Factory.sol\":5873:5874  5 */\n      0x05\n        /* \"contracts/Factory.sol\":5867:5875  addrs[5] */\n      dup2\n      mload\n      dup2\n      lt\n      tag_208\n      jumpi\n      tag_209\n      tag_174\n      jump\t// in\n    tag_209:\n    tag_208:\n      0x20\n      mul\n      0x20\n      add\n      add\n        /* \"contracts/Factory.sol\":5867:5901  addrs[5] = Ipool.faucetModelAddr() */\n      swap1\n      0xffffffffffffffffffffffffffffffffffffffff\n      and\n      swap1\n      dup2\n      0xffffffffffffffffffffffffffffffffffffffff\n      and\n      dup2\n      mstore\n      pop\n      pop\n        /* \"contracts/Factory.sol\":5498:5913  {\r... */\n      pop\n      pop\n        /* \"contracts/Factory.sol\":5464:5913  if(daoAddrs[_index] != address(0)){\r... */\n    tag_171:\n        /* \"contracts/Factory.sol\":5930:5935  addrs */\n      dup1\n        /* \"contracts/Factory.sol\":5923:5935  return addrs */\n      swap2\n      pop\n      pop\n        /* \"contracts/Factory.sol\":5330:5943  function getDaoAddrs(uint _index) public view returns(address[] memory){\r... */\n      swap2\n      swap1\n      pop\n      jump\t// out\n        /* \"contracts/Factory.sol\":4727:4836  function setPoolModelAddr(address _modelAddr) public onlyOwner(){\r... */\n    tag_68:\n        /* \"@openzeppelin/contracts/access/Ownable.sol\":1094:1107  _checkOwner() */\n      tag_211\n        /* \"@openzeppelin/contracts/access/Ownable.sol\":1094:1105  _checkOwner */\n      tag_86\n        /* \"@openzeppelin/contracts/access/Ownable.sol\":1094:1107  _checkOwner() */\n      jump\t// in\n    tag_211:\n        /* \"contracts/Factory.sol\":4818:4828  _modelAddr */\n      dup1\n        /* \"contracts/Factory.sol\":4802:4815  poolModelAddr */\n      0x04\n      0x00\n        /* \"contracts/Factory.sol\":4802:4828  poolModelAddr = _modelAddr */\n      0x0100\n      exp\n      dup2\n      sload\n      dup2\n      0xffffffffffffffffffffffffffffffffffffffff\n      mul\n      not\n      and\n      swap1\n      dup4\n      0xffffffffffffffffffffffffffffffffffffffff\n      and\n      mul\n      or\n      swap1\n      sstore\n      pop\n        /* \"contracts/Factory.sol\":4727:4836  function setPoolModelAddr(address _modelAddr) public onlyOwner(){\r... */\n      pop\n      jump\t// out\n        /* \"contracts/Factory.sol\":2064:2094  address public faucetModelAddr */\n    tag_70:\n      0x07\n      0x00\n      swap1\n      sload\n      swap1\n      0x0100\n      exp\n      swap1\n      div\n      0xffffffffffffffffffffffffffffffffffffffff\n      and\n      dup2\n      jump\t// out\n        /* \"contracts/Factory.sol\":1935:1967  address  public airdropModelAddr */\n    tag_73:\n      0x05\n      0x00\n      swap1\n      sload\n      swap1\n      0x0100\n      exp\n      swap1\n      div\n      0xffffffffffffffffffffffffffffffffffffffff\n      and\n      dup2\n      jump\t// out\n        /* \"contracts/Factory.sol\":1872:1901  address  public poolModelAddr */\n    tag_76:\n      0x04\n      0x00\n      swap1\n      sload\n      swap1\n      0x0100\n      exp\n      swap1\n      div\n      0xffffffffffffffffffffffffffffffffffffffff\n      and\n      dup2\n      jump\t// out\n        /* \"contracts/Factory.sol\":1810:1841  address  public governModelAddr */\n    tag_79:\n      0x03\n      0x00\n      swap1\n      sload\n      swap1\n      0x0100\n      exp\n      swap1\n      div\n      0xffffffffffffffffffffffffffffffffffffffff\n      and\n      dup2\n      jump\t// out\n        /* \"@openzeppelin/contracts/access/Ownable.sol\":2081:2279  function transferOwnership(address newOwner) public virtual onlyOwner {... */\n    tag_83:\n        /* \"@openzeppelin/contracts/access/Ownable.sol\":1094:1107  _checkOwner() */\n      tag_214\n        /* \"@openzeppelin/contracts/access/Ownable.sol\":1094:1105  _checkOwner */\n      tag_86\n        /* \"@openzeppelin/contracts/access/Ownable.sol\":1094:1107  _checkOwner() */\n      jump\t// in\n    tag_214:\n        /* \"@openzeppelin/contracts/access/Ownable.sol\":2189:2190  0 */\n      0x00\n        /* \"@openzeppelin/contracts/access/Ownable.sol\":2169:2191  newOwner != address(0) */\n      0xffffffffffffffffffffffffffffffffffffffff\n      and\n        /* \"@openzeppelin/contracts/access/Ownable.sol\":2169:2177  newOwner */\n      dup2\n        /* \"@openzeppelin/contracts/access/Ownable.sol\":2169:2191  newOwner != address(0) */\n      0xffffffffffffffffffffffffffffffffffffffff\n      and\n      eq\n      iszero\n        /* \"@openzeppelin/contracts/access/Ownable.sol\":2161:2234  require(newOwner != address(0), \"Ownable: new owner is the zero address\") */\n      tag_216\n      jumpi\n      mload(0x40)\n      0x08c379a000000000000000000000000000000000000000000000000000000000\n      dup2\n      mstore\n      0x04\n      add\n      tag_217\n      swap1\n      tag_218\n      jump\t// in\n    tag_217:\n      mload(0x40)\n      dup1\n      swap2\n      sub\n      swap1\n      revert\n    tag_216:\n        /* \"@openzeppelin/contracts/access/Ownable.sol\":2244:2272  _transferOwnership(newOwner) */\n      tag_219\n        /* \"@openzeppelin/contracts/access/Ownable.sol\":2263:2271  newOwner */\n      dup2\n        /* \"@openzeppelin/contracts/access/Ownable.sol\":2244:2262  _transferOwnership */\n      tag_161\n        /* \"@openzeppelin/contracts/access/Ownable.sol\":2244:2272  _transferOwnership(newOwner) */\n      jump\t// in\n    tag_219:\n        /* \"@openzeppelin/contracts/access/Ownable.sol\":2081:2279  function transferOwnership(address newOwner) public virtual onlyOwner {... */\n      pop\n      jump\t// out\n        /* \"@openzeppelin/contracts/access/Ownable.sol\":1359:1489  function _checkOwner() internal view virtual {... */\n    tag_86:\n        /* \"@openzeppelin/contracts/access/Ownable.sol\":1433:1445  _msgSender() */\n      tag_221\n        /* \"@openzeppelin/contracts/access/Ownable.sol\":1433:1443  _msgSender */\n      tag_222\n        /* \"@openzeppelin/contracts/access/Ownable.sol\":1433:1445  _msgSender() */\n      jump\t// in\n    tag_221:\n        /* \"@openzeppelin/contracts/access/Ownable.sol\":1422:1445  owner() == _msgSender() */\n      0xffffffffffffffffffffffffffffffffffffffff\n      and\n        /* \"@openzeppelin/contracts/access/Ownable.sol\":1422:1429  owner() */\n      tag_223\n        /* \"@openzeppelin/contracts/access/Ownable.sol\":1422:1427  owner */\n      tag_58\n        /* \"@openzeppelin/contracts/access/Ownable.sol\":1422:1429  owner() */\n      jump\t// in\n    tag_223:\n        /* \"@openzeppelin/contracts/access/Ownable.sol\":1422:1445  owner() == _msgSender() */\n      0xffffffffffffffffffffffffffffffffffffffff\n      and\n      eq\n        /* \"@openzeppelin/contracts/access/Ownable.sol\":1414:1482  require(owner() == _msgSender(), \"Ownable: caller is not the owner\") */\n      tag_224\n      jumpi\n      mload(0x40)\n      0x08c379a000000000000000000000000000000000000000000000000000000000\n      dup2\n      mstore\n      0x04\n      add\n      tag_225\n      swap1\n      tag_226\n      jump\t// in\n    tag_225:\n      mload(0x40)\n      dup1\n      swap2\n      sub\n      swap1\n      revert\n    tag_224:\n        /* \"@openzeppelin/contracts/access/Ownable.sol\":1359:1489  function _checkOwner() internal view virtual {... */\n      jump\t// out\n        /* \"contracts/Factory.sol\":2166:2660  function createClone(address target) internal returns (address result) {\r... */\n    tag_106:\n        /* \"contracts/Factory.sol\":2221:2235  address result */\n      0x00\n        /* \"contracts/Factory.sol\":2248:2267  bytes20 targetBytes */\n      dup1\n        /* \"contracts/Factory.sol\":2278:2284  target */\n      dup3\n        /* \"contracts/Factory.sol\":2270:2285  bytes20(target) */\n      0x60\n      shl\n        /* \"contracts/Factory.sol\":2248:2285  bytes20 targetBytes = bytes20(target) */\n      swap1\n      pop\n        /* \"contracts/Factory.sol\":2339:2343  0x40 */\n      0x40\n        /* \"contracts/Factory.sol\":2333:2344  mload(0x40) */\n      mload\n        /* \"contracts/Factory.sol\":2372:2438  0x3d602d80600a3d3981f3363d3d373d3d3d363d73000000000000000000000000 */\n      0x3d602d80600a3d3981f3363d3d373d3d3d363d73000000000000000000000000\n        /* \"contracts/Factory.sol\":2365:2370  clone */\n      dup2\n        /* \"contracts/Factory.sol\":2358:2439  mstore(clone, 0x3d602d80600a3d3981f3363d3d373d3d3d363d73000000000000000000000000) */\n      mstore\n        /* \"contracts/Factory.sol\":2478:2489  targetBytes */\n      dup2\n        /* \"contracts/Factory.sol\":2471:2475  0x14 */\n      0x14\n        /* \"contracts/Factory.sol\":2464:2469  clone */\n      dup3\n        /* \"contracts/Factory.sol\":2460:2476  add(clone, 0x14) */\n      add\n        /* \"contracts/Factory.sol\":2453:2490  mstore(add(clone, 0x14), targetBytes) */\n      mstore\n        /* \"contracts/Factory.sol\":2529:2595  0x5af43d82803e903d91602b57fd5bf30000000000000000000000000000000000 */\n      0x5af43d82803e903d91602b57fd5bf30000000000000000000000000000000000\n        /* \"contracts/Factory.sol\":2522:2526  0x28 */\n      0x28\n        /* \"contracts/Factory.sol\":2515:2520  clone */\n      dup3\n        /* \"contracts/Factory.sol\":2511:2527  add(clone, 0x28) */\n      add\n        /* \"contracts/Factory.sol\":2504:2596  mstore(add(clone, 0x28), 0x5af43d82803e903d91602b57fd5bf30000000000000000000000000000000000) */\n      mstore\n        /* \"contracts/Factory.sol\":2637:2641  0x37 */\n      0x37\n        /* \"contracts/Factory.sol\":2630:2635  clone */\n      dup2\n        /* \"contracts/Factory.sol\":2627:2628  0 */\n      0x00\n        /* \"contracts/Factory.sol\":2620:2642  create(0, clone, 0x37) */\n      create\n        /* \"contracts/Factory.sol\":2610:2642  result := create(0, clone, 0x37) */\n      swap3\n      pop\n        /* \"contracts/Factory.sol\":2305:2653  {\r... */\n      pop\n      pop\n        /* \"contracts/Factory.sol\":2166:2660  function createClone(address target) internal returns (address result) {\r... */\n      swap2\n      swap1\n      pop\n      jump\t// out\n        /* \"@openzeppelin/contracts/access/Ownable.sol\":2433:2620  function _transferOwnership(address newOwner) internal virtual {... */\n    tag_161:\n        /* \"@openzeppelin/contracts/access/Ownable.sol\":2506:2522  address oldOwner */\n      0x00\n        /* \"@openzeppelin/contracts/access/Ownable.sol\":2525:2531  _owner */\n      dup1\n      0x00\n      swap1\n      sload\n      swap1\n      0x0100\n      exp\n      swap1\n      div\n      0xffffffffffffffffffffffffffffffffffffffff\n      and\n        /* \"@openzeppelin/contracts/access/Ownable.sol\":2506:2531  address oldOwner = _owner */\n      swap1\n      pop\n        /* \"@openzeppelin/contracts/access/Ownable.sol\":2550:2558  newOwner */\n      dup2\n        /* \"@openzeppelin/contracts/access/Ownable.sol\":2541:2547  _owner */\n      0x00\n      dup1\n        /* \"@openzeppelin/contracts/access/Ownable.sol\":2541:2558  _owner = newOwner */\n      0x0100\n      exp\n      dup2\n      sload\n      dup2\n      0xffffffffffffffffffffffffffffffffffffffff\n      mul\n      not\n      and\n      swap1\n      dup4\n      0xffffffffffffffffffffffffffffffffffffffff\n      and\n      mul\n      or\n      swap1\n      sstore\n      pop\n        /* \"@openzeppelin/contracts/access/Ownable.sol\":2604:2612  newOwner */\n      dup2\n        /* \"@openzeppelin/contracts/access/Ownable.sol\":2573:2613  OwnershipTransferred(oldOwner, newOwner) */\n      0xffffffffffffffffffffffffffffffffffffffff\n      and\n        /* \"@openzeppelin/contracts/access/Ownable.sol\":2594:2602  oldOwner */\n      dup2\n        /* \"@openzeppelin/contracts/access/Ownable.sol\":2573:2613  OwnershipTransferred(oldOwner, newOwner) */\n      0xffffffffffffffffffffffffffffffffffffffff\n      and\n      0x8be0079c531659141344cd1fd0a4f28419497f9722a3daafe3b4186f6b6457e0\n      mload(0x40)\n      mload(0x40)\n      dup1\n      swap2\n      sub\n      swap1\n      log3\n        /* \"@openzeppelin/contracts/access/Ownable.sol\":2496:2620  {... */\n      pop\n        /* \"@openzeppelin/contracts/access/Ownable.sol\":2433:2620  function _transferOwnership(address newOwner) internal virtual {... */\n      pop\n      jump\t// out\n        /* \"@openzeppelin/contracts/utils/Context.sol\":640:736  function _msgSender() internal view virtual returns (address) {... */\n    tag_222:\n        /* \"@openzeppelin/contracts/utils/Context.sol\":693:700  address */\n      0x00\n        /* \"@openzeppelin/contracts/utils/Context.sol\":719:729  msg.sender */\n      caller\n        /* \"@openzeppelin/contracts/utils/Context.sol\":712:729  return msg.sender */\n      swap1\n      pop\n        /* \"@openzeppelin/contracts/utils/Context.sol\":640:736  function _msgSender() internal view virtual returns (address) {... */\n      swap1\n      jump\t// out\n        /* \"#utility.yul\":7:419   */\n    tag_231:\n        /* \"#utility.yul\":85:90   */\n      0x00\n        /* \"#utility.yul\":110:176   */\n      tag_233\n        /* \"#utility.yul\":126:175   */\n      tag_234\n        /* \"#utility.yul\":168:174   */\n      dup5\n        /* \"#utility.yul\":126:175   */\n      tag_235\n      jump\t// in\n    tag_234:\n        /* \"#utility.yul\":110:176   */\n      tag_236\n      jump\t// in\n    tag_233:\n        /* \"#utility.yul\":101:176   */\n      swap1\n      pop\n        /* \"#utility.yul\":199:205   */\n      dup3\n        /* \"#utility.yul\":192:197   */\n      dup2\n        /* \"#utility.yul\":185:206   */\n      mstore\n        /* \"#utility.yul\":237:241   */\n      0x20\n        /* \"#utility.yul\":230:235   */\n      dup2\n        /* \"#utility.yul\":226:242   */\n      add\n        /* \"#utility.yul\":275:278   */\n      dup5\n        /* \"#utility.yul\":266:272   */\n      dup5\n        /* \"#utility.yul\":261:264   */\n      dup5\n        /* \"#utility.yul\":257:273   */\n      add\n        /* \"#utility.yul\":254:279   */\n      gt\n        /* \"#utility.yul\":251:363   */\n      iszero\n      tag_237\n      jumpi\n        /* \"#utility.yul\":282:361   */\n      tag_238\n      tag_239\n      jump\t// in\n    tag_238:\n        /* \"#utility.yul\":251:363   */\n    tag_237:\n        /* \"#utility.yul\":372:413   */\n      tag_240\n        /* \"#utility.yul\":406:412   */\n      dup5\n        /* \"#utility.yul\":401:404   */\n      dup3\n        /* \"#utility.yul\":396:399   */\n      dup6\n        /* \"#utility.yul\":372:413   */\n      tag_241\n      jump\t// in\n    tag_240:\n        /* \"#utility.yul\":91:419   */\n      pop\n        /* \"#utility.yul\":7:419   */\n      swap4\n      swap3\n      pop\n      pop\n      pop\n      jump\t// out\n        /* \"#utility.yul\":425:564   */\n    tag_242:\n        /* \"#utility.yul\":471:476   */\n      0x00\n        /* \"#utility.yul\":509:515   */\n      dup2\n        /* \"#utility.yul\":496:516   */\n      calldataload\n        /* \"#utility.yul\":487:516   */\n      swap1\n      pop\n        /* \"#utility.yul\":525:558   */\n      tag_244\n        /* \"#utility.yul\":552:557   */\n      dup2\n        /* \"#utility.yul\":525:558   */\n      tag_245\n      jump\t// in\n    tag_244:\n        /* \"#utility.yul\":425:564   */\n      swap3\n      swap2\n      pop\n      pop\n      jump\t// out\n        /* \"#utility.yul\":570:713   */\n    tag_246:\n        /* \"#utility.yul\":627:632   */\n      0x00\n        /* \"#utility.yul\":658:664   */\n      dup2\n        /* \"#utility.yul\":652:665   */\n      mload\n        /* \"#utility.yul\":643:665   */\n      swap1\n      pop\n        /* \"#utility.yul\":674:707   */\n      tag_248\n        /* \"#utility.yul\":701:706   */\n      dup2\n        /* \"#utility.yul\":674:707   */\n      tag_245\n      jump\t// in\n    tag_248:\n        /* \"#utility.yul\":570:713   */\n      swap3\n      swap2\n      pop\n      pop\n      jump\t// out\n        /* \"#utility.yul\":733:1073   */\n    tag_249:\n        /* \"#utility.yul\":789:794   */\n      0x00\n        /* \"#utility.yul\":838:841   */\n      dup3\n        /* \"#utility.yul\":831:835   */\n      0x1f\n        /* \"#utility.yul\":823:829   */\n      dup4\n        /* \"#utility.yul\":819:836   */\n      add\n        /* \"#utility.yul\":815:842   */\n      slt\n        /* \"#utility.yul\":805:927   */\n      tag_251\n      jumpi\n        /* \"#utility.yul\":846:925   */\n      tag_252\n      tag_253\n      jump\t// in\n    tag_252:\n        /* \"#utility.yul\":805:927   */\n    tag_251:\n        /* \"#utility.yul\":963:969   */\n      dup2\n        /* \"#utility.yul\":950:970   */\n      calldataload\n        /* \"#utility.yul\":988:1067   */\n      tag_254\n        /* \"#utility.yul\":1063:1066   */\n      dup5\n        /* \"#utility.yul\":1055:1061   */\n      dup3\n        /* \"#utility.yul\":1048:1052   */\n      0x20\n        /* \"#utility.yul\":1040:1046   */\n      dup7\n        /* \"#utility.yul\":1036:1053   */\n      add\n        /* \"#utility.yul\":988:1067   */\n      tag_231\n      jump\t// in\n    tag_254:\n        /* \"#utility.yul\":979:1067   */\n      swap2\n      pop\n        /* \"#utility.yul\":795:1073   */\n      pop\n        /* \"#utility.yul\":733:1073   */\n      swap3\n      swap2\n      pop\n      pop\n      jump\t// out\n        /* \"#utility.yul\":1079:1218   */\n    tag_255:\n        /* \"#utility.yul\":1125:1130   */\n      0x00\n        /* \"#utility.yul\":1163:1169   */\n      dup2\n        /* \"#utility.yul\":1150:1170   */\n      calldataload\n        /* \"#utility.yul\":1141:1170   */\n      swap1\n      pop\n        /* \"#utility.yul\":1179:1212   */\n      tag_257\n        /* \"#utility.yul\":1206:1211   */\n      dup2\n        /* \"#utility.yul\":1179:1212   */\n      tag_258\n      jump\t// in\n    tag_257:\n        /* \"#utility.yul\":1079:1218   */\n      swap3\n      swap2\n      pop\n      pop\n      jump\t// out\n        /* \"#utility.yul\":1224:1553   */\n    tag_26:\n        /* \"#utility.yul\":1283:1289   */\n      0x00\n        /* \"#utility.yul\":1332:1334   */\n      0x20\n        /* \"#utility.yul\":1320:1329   */\n      dup3\n        /* \"#utility.yul\":1311:1318   */\n      dup5\n        /* \"#utility.yul\":1307:1330   */\n      sub\n        /* \"#utility.yul\":1303:1335   */\n      slt\n        /* \"#utility.yul\":1300:1419   */\n      iszero\n      tag_260\n      jumpi\n        /* \"#utility.yul\":1338:1417   */\n      tag_261\n      tag_262\n      jump\t// in\n    tag_261:\n        /* \"#utility.yul\":1300:1419   */\n    tag_260:\n        /* \"#utility.yul\":1458:1459   */\n      0x00\n        /* \"#utility.yul\":1483:1536   */\n      tag_263\n        /* \"#utility.yul\":1528:1535   */\n      dup5\n        /* \"#utility.yul\":1519:1525   */\n      dup3\n        /* \"#utility.yul\":1508:1517   */\n      dup6\n        /* \"#utility.yul\":1504:1526   */\n      add\n        /* \"#utility.yul\":1483:1536   */\n      tag_242\n      jump\t// in\n    tag_263:\n        /* \"#utility.yul\":1473:1536   */\n      swap2\n      pop\n        /* \"#utility.yul\":1429:1546   */\n      pop\n        /* \"#utility.yul\":1224:1553   */\n      swap3\n      swap2\n      pop\n      pop\n      jump\t// out\n        /* \"#utility.yul\":1559:1910   */\n    tag_179:\n        /* \"#utility.yul\":1629:1635   */\n      0x00\n        /* \"#utility.yul\":1678:1680   */\n      0x20\n        /* \"#utility.yul\":1666:1675   */\n      dup3\n        /* \"#utility.yul\":1657:1664   */\n      dup5\n        /* \"#utility.yul\":1653:1676   */\n      sub\n        /* \"#utility.yul\":1649:1681   */\n      slt\n        /* \"#utility.yul\":1646:1765   */\n      iszero\n      tag_265\n      jumpi\n        /* \"#utility.yul\":1684:1763   */\n      tag_266\n      tag_262\n      jump\t// in\n    tag_266:\n        /* \"#utility.yul\":1646:1765   */\n    tag_265:\n        /* \"#utility.yul\":1804:1805   */\n      0x00\n        /* \"#utility.yul\":1829:1893   */\n      tag_267\n        /* \"#utility.yul\":1885:1892   */\n      dup5\n        /* \"#utility.yul\":1876:1882   */\n      dup3\n        /* \"#utility.yul\":1865:1874   */\n      dup6\n        /* \"#utility.yul\":1861:1883   */\n      add\n        /* \"#utility.yul\":1829:1893   */\n      tag_246\n      jump\t// in\n    tag_267:\n        /* \"#utility.yul\":1819:1893   */\n      swap2\n      pop\n        /* \"#utility.yul\":1775:1903   */\n      pop\n        /* \"#utility.yul\":1559:1910   */\n      swap3\n      swap2\n      pop\n      pop\n      jump\t// out\n        /* \"#utility.yul\":1916:2245   */\n    tag_62:\n        /* \"#utility.yul\":1975:1981   */\n      0x00\n        /* \"#utility.yul\":2024:2026   */\n      0x20\n        /* \"#utility.yul\":2012:2021   */\n      dup3\n        /* \"#utility.yul\":2003:2010   */\n      dup5\n        /* \"#utility.yul\":1999:2022   */\n      sub\n        /* \"#utility.yul\":1995:2027   */\n      slt\n        /* \"#utility.yul\":1992:2111   */\n      iszero\n      tag_269\n      jumpi\n        /* \"#utility.yul\":2030:2109   */\n      tag_270\n      tag_262\n      jump\t// in\n    tag_270:\n        /* \"#utility.yul\":1992:2111   */\n    tag_269:\n        /* \"#utility.yul\":2150:2151   */\n      0x00\n        /* \"#utility.yul\":2175:2228   */\n      tag_271\n        /* \"#utility.yul\":2220:2227   */\n      dup5\n        /* \"#utility.yul\":2211:2217   */\n      dup3\n        /* \"#utility.yul\":2200:2209   */\n      dup6\n        /* \"#utility.yul\":2196:2218   */\n      add\n        /* \"#utility.yul\":2175:2228   */\n      tag_255\n      jump\t// in\n    tag_271:\n        /* \"#utility.yul\":2165:2228   */\n      swap2\n      pop\n        /* \"#utility.yul\":2121:2238   */\n      pop\n        /* \"#utility.yul\":1916:2245   */\n      swap3\n      swap2\n      pop\n      pop\n      jump\t// out\n        /* \"#utility.yul\":2251:4174   */\n    tag_43:\n        /* \"#utility.yul\":2404:2410   */\n      0x00\n        /* \"#utility.yul\":2412:2418   */\n      dup1\n        /* \"#utility.yul\":2420:2426   */\n      0x00\n        /* \"#utility.yul\":2428:2434   */\n      dup1\n        /* \"#utility.yul\":2436:2442   */\n      0x00\n        /* \"#utility.yul\":2444:2450   */\n      dup1\n        /* \"#utility.yul\":2452:2458   */\n      0x00\n        /* \"#utility.yul\":2501:2504   */\n      0xe0\n        /* \"#utility.yul\":2489:2498   */\n      dup9\n        /* \"#utility.yul\":2480:2487   */\n      dup11\n        /* \"#utility.yul\":2476:2499   */\n      sub\n        /* \"#utility.yul\":2472:2505   */\n      slt\n        /* \"#utility.yul\":2469:2589   */\n      iszero\n      tag_273\n      jumpi\n        /* \"#utility.yul\":2508:2587   */\n      tag_274\n      tag_262\n      jump\t// in\n    tag_274:\n        /* \"#utility.yul\":2469:2589   */\n    tag_273:\n        /* \"#utility.yul\":2628:2629   */\n      0x00\n        /* \"#utility.yul\":2653:2706   */\n      tag_275\n        /* \"#utility.yul\":2698:2705   */\n      dup11\n        /* \"#utility.yul\":2689:2695   */\n      dup3\n        /* \"#utility.yul\":2678:2687   */\n      dup12\n        /* \"#utility.yul\":2674:2696   */\n      add\n        /* \"#utility.yul\":2653:2706   */\n      tag_255\n      jump\t// in\n    tag_275:\n        /* \"#utility.yul\":2643:2706   */\n      swap8\n      pop\n        /* \"#utility.yul\":2599:2716   */\n      pop\n        /* \"#utility.yul\":2755:2757   */\n      0x20\n        /* \"#utility.yul\":2781:2834   */\n      tag_276\n        /* \"#utility.yul\":2826:2833   */\n      dup11\n        /* \"#utility.yul\":2817:2823   */\n      dup3\n        /* \"#utility.yul\":2806:2815   */\n      dup12\n        /* \"#utility.yul\":2802:2824   */\n      add\n        /* \"#utility.yul\":2781:2834   */\n      tag_255\n      jump\t// in\n    tag_276:\n        /* \"#utility.yul\":2771:2834   */\n      swap7\n      pop\n        /* \"#utility.yul\":2726:2844   */\n      pop\n        /* \"#utility.yul\":2911:2913   */\n      0x40\n        /* \"#utility.yul\":2900:2909   */\n      dup9\n        /* \"#utility.yul\":2896:2914   */\n      add\n        /* \"#utility.yul\":2883:2915   */\n      calldataload\n        /* \"#utility.yul\":2942:2960   */\n      0xffffffffffffffff\n        /* \"#utility.yul\":2934:2940   */\n      dup2\n        /* \"#utility.yul\":2931:2961   */\n      gt\n        /* \"#utility.yul\":2928:3045   */\n      iszero\n      tag_277\n      jumpi\n        /* \"#utility.yul\":2964:3043   */\n      tag_278\n      tag_279\n      jump\t// in\n    tag_278:\n        /* \"#utility.yul\":2928:3045   */\n    tag_277:\n        /* \"#utility.yul\":3069:3132   */\n      tag_280\n        /* \"#utility.yul\":3124:3131   */\n      dup11\n        /* \"#utility.yul\":3115:3121   */\n      dup3\n        /* \"#utility.yul\":3104:3113   */\n      dup12\n        /* \"#utility.yul\":3100:3122   */\n      add\n        /* \"#utility.yul\":3069:3132   */\n      tag_249\n      jump\t// in\n    tag_280:\n        /* \"#utility.yul\":3059:3132   */\n      swap6\n      pop\n        /* \"#utility.yul\":2854:3142   */\n      pop\n        /* \"#utility.yul\":3209:3211   */\n      0x60\n        /* \"#utility.yul\":3198:3207   */\n      dup9\n        /* \"#utility.yul\":3194:3212   */\n      add\n        /* \"#utility.yul\":3181:3213   */\n      calldataload\n        /* \"#utility.yul\":3240:3258   */\n      0xffffffffffffffff\n        /* \"#utility.yul\":3232:3238   */\n      dup2\n        /* \"#utility.yul\":3229:3259   */\n      gt\n        /* \"#utility.yul\":3226:3343   */\n      iszero\n      tag_281\n      jumpi\n        /* \"#utility.yul\":3262:3341   */\n      tag_282\n      tag_279\n      jump\t// in\n    tag_282:\n        /* \"#utility.yul\":3226:3343   */\n    tag_281:\n        /* \"#utility.yul\":3367:3430   */\n      tag_283\n        /* \"#utility.yul\":3422:3429   */\n      dup11\n        /* \"#utility.yul\":3413:3419   */\n      dup3\n        /* \"#utility.yul\":3402:3411   */\n      dup12\n        /* \"#utility.yul\":3398:3420   */\n      add\n        /* \"#utility.yul\":3367:3430   */\n      tag_249\n      jump\t// in\n    tag_283:\n        /* \"#utility.yul\":3357:3430   */\n      swap5\n      pop\n        /* \"#utility.yul\":3152:3440   */\n      pop\n        /* \"#utility.yul\":3507:3510   */\n      0x80\n        /* \"#utility.yul\":3496:3505   */\n      dup9\n        /* \"#utility.yul\":3492:3511   */\n      add\n        /* \"#utility.yul\":3479:3512   */\n      calldataload\n        /* \"#utility.yul\":3539:3557   */\n      0xffffffffffffffff\n        /* \"#utility.yul\":3531:3537   */\n      dup2\n        /* \"#utility.yul\":3528:3558   */\n      gt\n        /* \"#utility.yul\":3525:3642   */\n      iszero\n      tag_284\n      jumpi\n        /* \"#utility.yul\":3561:3640   */\n      tag_285\n      tag_279\n      jump\t// in\n    tag_285:\n        /* \"#utility.yul\":3525:3642   */\n    tag_284:\n        /* \"#utility.yul\":3666:3729   */\n      tag_286\n        /* \"#utility.yul\":3721:3728   */\n      dup11\n        /* \"#utility.yul\":3712:3718   */\n      dup3\n        /* \"#utility.yul\":3701:3710   */\n      dup12\n        /* \"#utility.yul\":3697:3719   */\n      add\n        /* \"#utility.yul\":3666:3729   */\n      tag_249\n      jump\t// in\n    tag_286:\n        /* \"#utility.yul\":3656:3729   */\n      swap4\n      pop\n        /* \"#utility.yul\":3450:3739   */\n      pop\n        /* \"#utility.yul\":3806:3809   */\n      0xa0\n        /* \"#utility.yul\":3795:3804   */\n      dup9\n        /* \"#utility.yul\":3791:3810   */\n      add\n        /* \"#utility.yul\":3778:3811   */\n      calldataload\n        /* \"#utility.yul\":3838:3856   */\n      0xffffffffffffffff\n        /* \"#utility.yul\":3830:3836   */\n      dup2\n        /* \"#utility.yul\":3827:3857   */\n      gt\n        /* \"#utility.yul\":3824:3941   */\n      iszero\n      tag_287\n      jumpi\n        /* \"#utility.yul\":3860:3939   */\n      tag_288\n      tag_279\n      jump\t// in\n    tag_288:\n        /* \"#utility.yul\":3824:3941   */\n    tag_287:\n        /* \"#utility.yul\":3965:4028   */\n      tag_289\n        /* \"#utility.yul\":4020:4027   */\n      dup11\n        /* \"#utility.yul\":4011:4017   */\n      dup3\n        /* \"#utility.yul\":4000:4009   */\n      dup12\n        /* \"#utility.yul\":3996:4018   */\n      add\n        /* \"#utility.yul\":3965:4028   */\n      tag_249\n      jump\t// in\n    tag_289:\n        /* \"#utility.yul\":3955:4028   */\n      swap3\n      pop\n        /* \"#utility.yul\":3749:4038   */\n      pop\n        /* \"#utility.yul\":4077:4080   */\n      0xc0\n        /* \"#utility.yul\":4104:4157   */\n      tag_290\n        /* \"#utility.yul\":4149:4156   */\n      dup11\n        /* \"#utility.yul\":4140:4146   */\n      dup3\n        /* \"#utility.yul\":4129:4138   */\n      dup12\n        /* \"#utility.yul\":4125:4147   */\n      add\n        /* \"#utility.yul\":4104:4157   */\n      tag_255\n      jump\t// in\n    tag_290:\n        /* \"#utility.yul\":4094:4157   */\n      swap2\n      pop\n        /* \"#utility.yul\":4048:4167   */\n      pop\n        /* \"#utility.yul\":2251:4174   */\n      swap3\n      swap6\n      swap9\n      swap2\n      swap5\n      swap8\n      pop\n      swap3\n      swap6\n      pop\n      jump\t// out\n        /* \"#utility.yul\":4180:4359   */\n    tag_291:\n        /* \"#utility.yul\":4249:4259   */\n      0x00\n        /* \"#utility.yul\":4270:4316   */\n      tag_293\n        /* \"#utility.yul\":4312:4315   */\n      dup4\n        /* \"#utility.yul\":4304:4310   */\n      dup4\n        /* \"#utility.yul\":4270:4316   */\n      tag_294\n      jump\t// in\n    tag_293:\n        /* \"#utility.yul\":4348:4352   */\n      0x20\n        /* \"#utility.yul\":4343:4346   */\n      dup4\n        /* \"#utility.yul\":4339:4353   */\n      add\n        /* \"#utility.yul\":4325:4353   */\n      swap1\n      pop\n        /* \"#utility.yul\":4180:4359   */\n      swap3\n      swap2\n      pop\n      pop\n      jump\t// out\n        /* \"#utility.yul\":4365:4473   */\n    tag_294:\n        /* \"#utility.yul\":4442:4466   */\n      tag_296\n        /* \"#utility.yul\":4460:4465   */\n      dup2\n        /* \"#utility.yul\":4442:4466   */\n      tag_297\n      jump\t// in\n    tag_296:\n        /* \"#utility.yul\":4437:4440   */\n      dup3\n        /* \"#utility.yul\":4430:4467   */\n      mstore\n        /* \"#utility.yul\":4365:4473   */\n      pop\n      pop\n      jump\t// out\n        /* \"#utility.yul\":4479:4597   */\n    tag_298:\n        /* \"#utility.yul\":4566:4590   */\n      tag_300\n        /* \"#utility.yul\":4584:4589   */\n      dup2\n        /* \"#utility.yul\":4566:4590   */\n      tag_297\n      jump\t// in\n    tag_300:\n        /* \"#utility.yul\":4561:4564   */\n      dup3\n        /* \"#utility.yul\":4554:4591   */\n      mstore\n        /* \"#utility.yul\":4479:4597   */\n      pop\n      pop\n      jump\t// out\n        /* \"#utility.yul\":4633:5365   */\n    tag_301:\n        /* \"#utility.yul\":4752:4755   */\n      0x00\n        /* \"#utility.yul\":4781:4835   */\n      tag_303\n        /* \"#utility.yul\":4829:4834   */\n      dup3\n        /* \"#utility.yul\":4781:4835   */\n      tag_304\n      jump\t// in\n    tag_303:\n        /* \"#utility.yul\":4851:4937   */\n      tag_305\n        /* \"#utility.yul\":4930:4936   */\n      dup2\n        /* \"#utility.yul\":4925:4928   */\n      dup6\n        /* \"#utility.yul\":4851:4937   */\n      tag_306\n      jump\t// in\n    tag_305:\n        /* \"#utility.yul\":4844:4937   */\n      swap4\n      pop\n        /* \"#utility.yul\":4961:5017   */\n      tag_307\n        /* \"#utility.yul\":5011:5016   */\n      dup4\n        /* \"#utility.yul\":4961:5017   */\n      tag_308\n      jump\t// in\n    tag_307:\n        /* \"#utility.yul\":5040:5047   */\n      dup1\n        /* \"#utility.yul\":5071:5072   */\n      0x00\n        /* \"#utility.yul\":5056:5340   */\n    tag_309:\n        /* \"#utility.yul\":5081:5087   */\n      dup4\n        /* \"#utility.yul\":5078:5079   */\n      dup2\n        /* \"#utility.yul\":5075:5088   */\n      lt\n        /* \"#utility.yul\":5056:5340   */\n      iszero\n      tag_311\n      jumpi\n        /* \"#utility.yul\":5157:5163   */\n      dup2\n        /* \"#utility.yul\":5151:5164   */\n      mload\n        /* \"#utility.yul\":5184:5247   */\n      tag_312\n        /* \"#utility.yul\":5243:5246   */\n      dup9\n        /* \"#utility.yul\":5228:5241   */\n      dup3\n        /* \"#utility.yul\":5184:5247   */\n      tag_291\n      jump\t// in\n    tag_312:\n        /* \"#utility.yul\":5177:5247   */\n      swap8\n      pop\n        /* \"#utility.yul\":5270:5330   */\n      tag_313\n        /* \"#utility.yul\":5323:5329   */\n      dup4\n        /* \"#utility.yul\":5270:5330   */\n      tag_314\n      jump\t// in\n    tag_313:\n        /* \"#utility.yul\":5260:5330   */\n      swap3\n      pop\n        /* \"#utility.yul\":5116:5340   */\n      pop\n        /* \"#utility.yul\":5103:5104   */\n      0x01\n        /* \"#utility.yul\":5100:5101   */\n      dup2\n        /* \"#utility.yul\":5096:5105   */\n      add\n        /* \"#utility.yul\":5091:5105   */\n      swap1\n      pop\n        /* \"#utility.yul\":5056:5340   */\n      jump(tag_309)\n    tag_311:\n        /* \"#utility.yul\":5060:5074   */\n      pop\n        /* \"#utility.yul\":5356:5359   */\n      dup6\n        /* \"#utility.yul\":5349:5359   */\n      swap4\n      pop\n        /* \"#utility.yul\":4757:5365   */\n      pop\n      pop\n      pop\n        /* \"#utility.yul\":4633:5365   */\n      swap3\n      swap2\n      pop\n      pop\n      jump\t// out\n        /* \"#utility.yul\":5371:5735   */\n    tag_315:\n        /* \"#utility.yul\":5459:5462   */\n      0x00\n        /* \"#utility.yul\":5487:5526   */\n      tag_317\n        /* \"#utility.yul\":5520:5525   */\n      dup3\n        /* \"#utility.yul\":5487:5526   */\n      tag_318\n      jump\t// in\n    tag_317:\n        /* \"#utility.yul\":5542:5613   */\n      tag_319\n        /* \"#utility.yul\":5606:5612   */\n      dup2\n        /* \"#utility.yul\":5601:5604   */\n      dup6\n        /* \"#utility.yul\":5542:5613   */\n      tag_320\n      jump\t// in\n    tag_319:\n        /* \"#utility.yul\":5535:5613   */\n      swap4\n      pop\n        /* \"#utility.yul\":5622:5674   */\n      tag_321\n        /* \"#utility.yul\":5667:5673   */\n      dup2\n        /* \"#utility.yul\":5662:5665   */\n      dup6\n        /* \"#utility.yul\":5655:5659   */\n      0x20\n        /* \"#utility.yul\":5648:5653   */\n      dup7\n        /* \"#utility.yul\":5644:5660   */\n      add\n        /* \"#utility.yul\":5622:5674   */\n      tag_322\n      jump\t// in\n    tag_321:\n        /* \"#utility.yul\":5699:5728   */\n      tag_323\n        /* \"#utility.yul\":5721:5727   */\n      dup2\n        /* \"#utility.yul\":5699:5728   */\n      tag_324\n      jump\t// in\n    tag_323:\n        /* \"#utility.yul\":5694:5697   */\n      dup5\n        /* \"#utility.yul\":5690:5729   */\n      add\n        /* \"#utility.yul\":5683:5729   */\n      swap2\n      pop\n        /* \"#utility.yul\":5463:5735   */\n      pop\n        /* \"#utility.yul\":5371:5735   */\n      swap3\n      swap2\n      pop\n      pop\n      jump\t// out\n        /* \"#utility.yul\":5741:6107   */\n    tag_325:\n        /* \"#utility.yul\":5883:5886   */\n      0x00\n        /* \"#utility.yul\":5904:5971   */\n      tag_327\n        /* \"#utility.yul\":5968:5970   */\n      0x26\n        /* \"#utility.yul\":5963:5966   */\n      dup4\n        /* \"#utility.yul\":5904:5971   */\n      tag_320\n      jump\t// in\n    tag_327:\n        /* \"#utility.yul\":5897:5971   */\n      swap2\n      pop\n        /* \"#utility.yul\":5980:6073   */\n      tag_328\n        /* \"#utility.yul\":6069:6072   */\n      dup3\n        /* \"#utility.yul\":5980:6073   */\n      tag_329\n      jump\t// in\n    tag_328:\n        /* \"#utility.yul\":6098:6100   */\n      0x40\n        /* \"#utility.yul\":6093:6096   */\n      dup3\n        /* \"#utility.yul\":6089:6101   */\n      add\n        /* \"#utility.yul\":6082:6101   */\n      swap1\n      pop\n        /* \"#utility.yul\":5741:6107   */\n      swap2\n      swap1\n      pop\n      jump\t// out\n        /* \"#utility.yul\":6113:6479   */\n    tag_330:\n        /* \"#utility.yul\":6255:6258   */\n      0x00\n        /* \"#utility.yul\":6276:6343   */\n      tag_332\n        /* \"#utility.yul\":6340:6342   */\n      0x17\n        /* \"#utility.yul\":6335:6338   */\n      dup4\n        /* \"#utility.yul\":6276:6343   */\n      tag_320\n      jump\t// in\n    tag_332:\n        /* \"#utility.yul\":6269:6343   */\n      swap2\n      pop\n        /* \"#utility.yul\":6352:6445   */\n      tag_333\n        /* \"#utility.yul\":6441:6444   */\n      dup3\n        /* \"#utility.yul\":6352:6445   */\n      tag_334\n      jump\t// in\n    tag_333:\n        /* \"#utility.yul\":6470:6472   */\n      0x20\n        /* \"#utility.yul\":6465:6468   */\n      dup3\n        /* \"#utility.yul\":6461:6473   */\n      add\n        /* \"#utility.yul\":6454:6473   */\n      swap1\n      pop\n        /* \"#utility.yul\":6113:6479   */\n      swap2\n      swap1\n      pop\n      jump\t// out\n        /* \"#utility.yul\":6485:6851   */\n    tag_335:\n        /* \"#utility.yul\":6627:6630   */\n      0x00\n        /* \"#utility.yul\":6648:6715   */\n      tag_337\n        /* \"#utility.yul\":6712:6714   */\n      0x20\n        /* \"#utility.yul\":6707:6710   */\n      dup4\n        /* \"#utility.yul\":6648:6715   */\n      tag_320\n      jump\t// in\n    tag_337:\n        /* \"#utility.yul\":6641:6715   */\n      swap2\n      pop\n        /* \"#utility.yul\":6724:6817   */\n      tag_338\n        /* \"#utility.yul\":6813:6816   */\n      dup3\n        /* \"#utility.yul\":6724:6817   */\n      tag_339\n      jump\t// in\n    tag_338:\n        /* \"#utility.yul\":6842:6844   */\n      0x20\n        /* \"#utility.yul\":6837:6840   */\n      dup3\n        /* \"#utility.yul\":6833:6845   */\n      add\n        /* \"#utility.yul\":6826:6845   */\n      swap1\n      pop\n        /* \"#utility.yul\":6485:6851   */\n      swap2\n      swap1\n      pop\n      jump\t// out\n        /* \"#utility.yul\":6857:6975   */\n    tag_340:\n        /* \"#utility.yul\":6944:6968   */\n      tag_342\n        /* \"#utility.yul\":6962:6967   */\n      dup2\n        /* \"#utility.yul\":6944:6968   */\n      tag_343\n      jump\t// in\n    tag_342:\n        /* \"#utility.yul\":6939:6942   */\n      dup3\n        /* \"#utility.yul\":6932:6969   */\n      mstore\n        /* \"#utility.yul\":6857:6975   */\n      pop\n      pop\n      jump\t// out\n        /* \"#utility.yul\":6981:7203   */\n    tag_34:\n        /* \"#utility.yul\":7074:7078   */\n      0x00\n        /* \"#utility.yul\":7112:7114   */\n      0x20\n        /* \"#utility.yul\":7101:7110   */\n      dup3\n        /* \"#utility.yul\":7097:7115   */\n      add\n        /* \"#utility.yul\":7089:7115   */\n      swap1\n      pop\n        /* \"#utility.yul\":7125:7196   */\n      tag_345\n        /* \"#utility.yul\":7193:7194   */\n      0x00\n        /* \"#utility.yul\":7182:7191   */\n      dup4\n        /* \"#utility.yul\":7178:7195   */\n      add\n        /* \"#utility.yul\":7169:7175   */\n      dup5\n        /* \"#utility.yul\":7125:7196   */\n      tag_298\n      jump\t// in\n    tag_345:\n        /* \"#utility.yul\":6981:7203   */\n      swap3\n      swap2\n      pop\n      pop\n      jump\t// out\n        /* \"#utility.yul\":7209:7541   */\n    tag_134:\n        /* \"#utility.yul\":7330:7334   */\n      0x00\n        /* \"#utility.yul\":7368:7370   */\n      0x40\n        /* \"#utility.yul\":7357:7366   */\n      dup3\n        /* \"#utility.yul\":7353:7371   */\n      add\n        /* \"#utility.yul\":7345:7371   */\n      swap1\n      pop\n        /* \"#utility.yul\":7381:7452   */\n      tag_347\n        /* \"#utility.yul\":7449:7450   */\n      0x00\n        /* \"#utility.yul\":7438:7447   */\n      dup4\n        /* \"#utility.yul\":7434:7451   */\n      add\n        /* \"#utility.yul\":7425:7431   */\n      dup6\n        /* \"#utility.yul\":7381:7452   */\n      tag_298\n      jump\t// in\n    tag_347:\n        /* \"#utility.yul\":7462:7534   */\n      tag_348\n        /* \"#utility.yul\":7530:7532   */\n      0x20\n        /* \"#utility.yul\":7519:7528   */\n      dup4\n        /* \"#utility.yul\":7515:7533   */\n      add\n        /* \"#utility.yul\":7506:7512   */\n      dup5\n        /* \"#utility.yul\":7462:7534   */\n      tag_298\n      jump\t// in\n    tag_348:\n        /* \"#utility.yul\":7209:7541   */\n      swap4\n      swap3\n      pop\n      pop\n      pop\n      jump\t// out\n        /* \"#utility.yul\":7547:8100   */\n    tag_144:\n        /* \"#utility.yul\":7724:7728   */\n      0x00\n        /* \"#utility.yul\":7762:7765   */\n      0x80\n        /* \"#utility.yul\":7751:7760   */\n      dup3\n        /* \"#utility.yul\":7747:7766   */\n      add\n        /* \"#utility.yul\":7739:7766   */\n      swap1\n      pop\n        /* \"#utility.yul\":7776:7847   */\n      tag_350\n        /* \"#utility.yul\":7844:7845   */\n      0x00\n        /* \"#utility.yul\":7833:7842   */\n      dup4\n        /* \"#utility.yul\":7829:7846   */\n      add\n        /* \"#utility.yul\":7820:7826   */\n      dup8\n        /* \"#utility.yul\":7776:7847   */\n      tag_298\n      jump\t// in\n    tag_350:\n        /* \"#utility.yul\":7857:7929   */\n      tag_351\n        /* \"#utility.yul\":7925:7927   */\n      0x20\n        /* \"#utility.yul\":7914:7923   */\n      dup4\n        /* \"#utility.yul\":7910:7928   */\n      add\n        /* \"#utility.yul\":7901:7907   */\n      dup7\n        /* \"#utility.yul\":7857:7929   */\n      tag_298\n      jump\t// in\n    tag_351:\n        /* \"#utility.yul\":7939:8011   */\n      tag_352\n        /* \"#utility.yul\":8007:8009   */\n      0x40\n        /* \"#utility.yul\":7996:8005   */\n      dup4\n        /* \"#utility.yul\":7992:8010   */\n      add\n        /* \"#utility.yul\":7983:7989   */\n      dup6\n        /* \"#utility.yul\":7939:8011   */\n      tag_298\n      jump\t// in\n    tag_352:\n        /* \"#utility.yul\":8021:8093   */\n      tag_353\n        /* \"#utility.yul\":8089:8091   */\n      0x60\n        /* \"#utility.yul\":8078:8087   */\n      dup4\n        /* \"#utility.yul\":8074:8092   */\n      add\n        /* \"#utility.yul\":8065:8071   */\n      dup5\n        /* \"#utility.yul\":8021:8093   */\n      tag_298\n      jump\t// in\n    tag_353:\n        /* \"#utility.yul\":7547:8100   */\n      swap6\n      swap5\n      pop\n      pop\n      pop\n      pop\n      pop\n      jump\t// out\n        /* \"#utility.yul\":8106:8952   */\n    tag_114:\n        /* \"#utility.yul\":8351:8355   */\n      0x00\n        /* \"#utility.yul\":8389:8392   */\n      0xa0\n        /* \"#utility.yul\":8378:8387   */\n      dup3\n        /* \"#utility.yul\":8374:8393   */\n      add\n        /* \"#utility.yul\":8366:8393   */\n      swap1\n      pop\n        /* \"#utility.yul\":8403:8474   */\n      tag_355\n        /* \"#utility.yul\":8471:8472   */\n      0x00\n        /* \"#utility.yul\":8460:8469   */\n      dup4\n        /* \"#utility.yul\":8456:8473   */\n      add\n        /* \"#utility.yul\":8447:8453   */\n      dup9\n        /* \"#utility.yul\":8403:8474   */\n      tag_298\n      jump\t// in\n    tag_355:\n        /* \"#utility.yul\":8484:8556   */\n      tag_356\n        /* \"#utility.yul\":8552:8554   */\n      0x20\n        /* \"#utility.yul\":8541:8550   */\n      dup4\n        /* \"#utility.yul\":8537:8555   */\n      add\n        /* \"#utility.yul\":8528:8534   */\n      dup8\n        /* \"#utility.yul\":8484:8556   */\n      tag_298\n      jump\t// in\n    tag_356:\n        /* \"#utility.yul\":8603:8612   */\n      dup2\n        /* \"#utility.yul\":8597:8601   */\n      dup2\n        /* \"#utility.yul\":8593:8613   */\n      sub\n        /* \"#utility.yul\":8588:8590   */\n      0x40\n        /* \"#utility.yul\":8577:8586   */\n      dup4\n        /* \"#utility.yul\":8573:8591   */\n      add\n        /* \"#utility.yul\":8566:8614   */\n      mstore\n        /* \"#utility.yul\":8631:8709   */\n      tag_357\n        /* \"#utility.yul\":8704:8708   */\n      dup2\n        /* \"#utility.yul\":8695:8701   */\n      dup7\n        /* \"#utility.yul\":8631:8709   */\n      tag_315\n      jump\t// in\n    tag_357:\n        /* \"#utility.yul\":8623:8709   */\n      swap1\n      pop\n        /* \"#utility.yul\":8756:8765   */\n      dup2\n        /* \"#utility.yul\":8750:8754   */\n      dup2\n        /* \"#utility.yul\":8746:8766   */\n      sub\n        /* \"#utility.yul\":8741:8743   */\n      0x60\n        /* \"#utility.yul\":8730:8739   */\n      dup4\n        /* \"#utility.yul\":8726:8744   */\n      add\n        /* \"#utility.yul\":8719:8767   */\n      mstore\n        /* \"#utility.yul\":8784:8862   */\n      tag_358\n        /* \"#utility.yul\":8857:8861   */\n      dup2\n        /* \"#utility.yul\":8848:8854   */\n      dup6\n        /* \"#utility.yul\":8784:8862   */\n      tag_315\n      jump\t// in\n    tag_358:\n        /* \"#utility.yul\":8776:8862   */\n      swap1\n      pop\n        /* \"#utility.yul\":8872:8945   */\n      tag_359\n        /* \"#utility.yul\":8940:8943   */\n      0x80\n        /* \"#utility.yul\":8929:8938   */\n      dup4\n        /* \"#utility.yul\":8925:8944   */\n      add\n        /* \"#utility.yul\":8916:8922   */\n      dup5\n        /* \"#utility.yul\":8872:8945   */\n      tag_298\n      jump\t// in\n    tag_359:\n        /* \"#utility.yul\":8106:8952   */\n      swap7\n      swap6\n      pop\n      pop\n      pop\n      pop\n      pop\n      pop\n      jump\t// out\n        /* \"#utility.yul\":8958:9915   */\n    tag_124:\n        /* \"#utility.yul\":9231:9235   */\n      0x00\n        /* \"#utility.yul\":9269:9272   */\n      0xc0\n        /* \"#utility.yul\":9258:9267   */\n      dup3\n        /* \"#utility.yul\":9254:9273   */\n      add\n        /* \"#utility.yul\":9246:9273   */\n      swap1\n      pop\n        /* \"#utility.yul\":9283:9354   */\n      tag_361\n        /* \"#utility.yul\":9351:9352   */\n      0x00\n        /* \"#utility.yul\":9340:9349   */\n      dup4\n        /* \"#utility.yul\":9336:9353   */\n      add\n        /* \"#utility.yul\":9327:9333   */\n      dup10\n        /* \"#utility.yul\":9283:9354   */\n      tag_298\n      jump\t// in\n    tag_361:\n        /* \"#utility.yul\":9401:9410   */\n      dup2\n        /* \"#utility.yul\":9395:9399   */\n      dup2\n        /* \"#utility.yul\":9391:9411   */\n      sub\n        /* \"#utility.yul\":9386:9388   */\n      0x20\n        /* \"#utility.yul\":9375:9384   */\n      dup4\n        /* \"#utility.yul\":9371:9389   */\n      add\n        /* \"#utility.yul\":9364:9412   */\n      mstore\n        /* \"#utility.yul\":9429:9507   */\n      tag_362\n        /* \"#utility.yul\":9502:9506   */\n      dup2\n        /* \"#utility.yul\":9493:9499   */\n      dup9\n        /* \"#utility.yul\":9429:9507   */\n      tag_315\n      jump\t// in\n    tag_362:\n        /* \"#utility.yul\":9421:9507   */\n      swap1\n      pop\n        /* \"#utility.yul\":9554:9563   */\n      dup2\n        /* \"#utility.yul\":9548:9552   */\n      dup2\n        /* \"#utility.yul\":9544:9564   */\n      sub\n        /* \"#utility.yul\":9539:9541   */\n      0x40\n        /* \"#utility.yul\":9528:9537   */\n      dup4\n        /* \"#utility.yul\":9524:9542   */\n      add\n        /* \"#utility.yul\":9517:9565   */\n      mstore\n        /* \"#utility.yul\":9582:9660   */\n      tag_363\n        /* \"#utility.yul\":9655:9659   */\n      dup2\n        /* \"#utility.yul\":9646:9652   */\n      dup8\n        /* \"#utility.yul\":9582:9660   */\n      tag_315\n      jump\t// in\n    tag_363:\n        /* \"#utility.yul\":9574:9660   */\n      swap1\n      pop\n        /* \"#utility.yul\":9670:9742   */\n      tag_364\n        /* \"#utility.yul\":9738:9740   */\n      0x60\n        /* \"#utility.yul\":9727:9736   */\n      dup4\n        /* \"#utility.yul\":9723:9741   */\n      add\n        /* \"#utility.yul\":9714:9720   */\n      dup7\n        /* \"#utility.yul\":9670:9742   */\n      tag_298\n      jump\t// in\n    tag_364:\n        /* \"#utility.yul\":9752:9825   */\n      tag_365\n        /* \"#utility.yul\":9820:9823   */\n      0x80\n        /* \"#utility.yul\":9809:9818   */\n      dup4\n        /* \"#utility.yul\":9805:9824   */\n      add\n        /* \"#utility.yul\":9796:9802   */\n      dup6\n        /* \"#utility.yul\":9752:9825   */\n      tag_340\n      jump\t// in\n    tag_365:\n        /* \"#utility.yul\":9835:9908   */\n      tag_366\n        /* \"#utility.yul\":9903:9906   */\n      0xa0\n        /* \"#utility.yul\":9892:9901   */\n      dup4\n        /* \"#utility.yul\":9888:9907   */\n      add\n        /* \"#utility.yul\":9879:9885   */\n      dup5\n        /* \"#utility.yul\":9835:9908   */\n      tag_298\n      jump\t// in\n    tag_366:\n        /* \"#utility.yul\":8958:9915   */\n      swap8\n      swap7\n      pop\n      pop\n      pop\n      pop\n      pop\n      pop\n      pop\n      jump\t// out\n        /* \"#utility.yul\":9921:10294   */\n    tag_65:\n        /* \"#utility.yul\":10064:10068   */\n      0x00\n        /* \"#utility.yul\":10102:10104   */\n      0x20\n        /* \"#utility.yul\":10091:10100   */\n      dup3\n        /* \"#utility.yul\":10087:10105   */\n      add\n        /* \"#utility.yul\":10079:10105   */\n      swap1\n      pop\n        /* \"#utility.yul\":10151:10160   */\n      dup2\n        /* \"#utility.yul\":10145:10149   */\n      dup2\n        /* \"#utility.yul\":10141:10161   */\n      sub\n        /* \"#utility.yul\":10137:10138   */\n      0x00\n        /* \"#utility.yul\":10126:10135   */\n      dup4\n        /* \"#utility.yul\":10122:10139   */\n      add\n        /* \"#utility.yul\":10115:10162   */\n      mstore\n        /* \"#utility.yul\":10179:10287   */\n      tag_368\n        /* \"#utility.yul\":10282:10286   */\n      dup2\n        /* \"#utility.yul\":10273:10279   */\n      dup5\n        /* \"#utility.yul\":10179:10287   */\n      tag_301\n      jump\t// in\n    tag_368:\n        /* \"#utility.yul\":10171:10287   */\n      swap1\n      pop\n        /* \"#utility.yul\":9921:10294   */\n      swap3\n      swap2\n      pop\n      pop\n      jump\t// out\n        /* \"#utility.yul\":10300:10719   */\n    tag_218:\n        /* \"#utility.yul\":10466:10470   */\n      0x00\n        /* \"#utility.yul\":10504:10506   */\n      0x20\n        /* \"#utility.yul\":10493:10502   */\n      dup3\n        /* \"#utility.yul\":10489:10507   */\n      add\n        /* \"#utility.yul\":10481:10507   */\n      swap1\n      pop\n        /* \"#utility.yul\":10553:10562   */\n      dup2\n        /* \"#utility.yul\":10547:10551   */\n      dup2\n        /* \"#utility.yul\":10543:10563   */\n      sub\n        /* \"#utility.yul\":10539:10540   */\n      0x00\n        /* \"#utility.yul\":10528:10537   */\n      dup4\n        /* \"#utility.yul\":10524:10541   */\n      add\n        /* \"#utility.yul\":10517:10564   */\n      mstore\n        /* \"#utility.yul\":10581:10712   */\n      tag_370\n        /* \"#utility.yul\":10707:10711   */\n      dup2\n        /* \"#utility.yul\":10581:10712   */\n      tag_325\n      jump\t// in\n    tag_370:\n        /* \"#utility.yul\":10573:10712   */\n      swap1\n      pop\n        /* \"#utility.yul\":10300:10719   */\n      swap2\n      swap1\n      pop\n      jump\t// out\n        /* \"#utility.yul\":10725:11144   */\n    tag_104:\n        /* \"#utility.yul\":10891:10895   */\n      0x00\n        /* \"#utility.yul\":10929:10931   */\n      0x20\n        /* \"#utility.yul\":10918:10927   */\n      dup3\n        /* \"#utility.yul\":10914:10932   */\n      add\n        /* \"#utility.yul\":10906:10932   */\n      swap1\n      pop\n        /* \"#utility.yul\":10978:10987   */\n      dup2\n        /* \"#utility.yul\":10972:10976   */\n      dup2\n        /* \"#utility.yul\":10968:10988   */\n      sub\n        /* \"#utility.yul\":10964:10965   */\n      0x00\n        /* \"#utility.yul\":10953:10962   */\n      dup4\n        /* \"#utility.yul\":10949:10966   */\n      add\n        /* \"#utility.yul\":10942:10989   */\n      mstore\n        /* \"#utility.yul\":11006:11137   */\n      tag_372\n        /* \"#utility.yul\":11132:11136   */\n      dup2\n        /* \"#utility.yul\":11006:11137   */\n      tag_330\n      jump\t// in\n    tag_372:\n        /* \"#utility.yul\":10998:11137   */\n      swap1\n      pop\n        /* \"#utility.yul\":10725:11144   */\n      swap2\n      swap1\n      pop\n      jump\t// out\n        /* \"#utility.yul\":11150:11569   */\n    tag_226:\n        /* \"#utility.yul\":11316:11320   */\n      0x00\n        /* \"#utility.yul\":11354:11356   */\n      0x20\n        /* \"#utility.yul\":11343:11352   */\n      dup3\n        /* \"#utility.yul\":11339:11357   */\n      add\n        /* \"#utility.yul\":11331:11357   */\n      swap1\n      pop\n        /* \"#utility.yul\":11403:11412   */\n      dup2\n        /* \"#utility.yul\":11397:11401   */\n      dup2\n        /* \"#utility.yul\":11393:11413   */\n      sub\n        /* \"#utility.yul\":11389:11390   */\n      0x00\n        /* \"#utility.yul\":11378:11387   */\n      dup4\n        /* \"#utility.yul\":11374:11391   */\n      add\n        /* \"#utility.yul\":11367:11414   */\n      mstore\n        /* \"#utility.yul\":11431:11562   */\n      tag_374\n        /* \"#utility.yul\":11557:11561   */\n      dup2\n        /* \"#utility.yul\":11431:11562   */\n      tag_335\n      jump\t// in\n    tag_374:\n        /* \"#utility.yul\":11423:11562   */\n      swap1\n      pop\n        /* \"#utility.yul\":11150:11569   */\n      swap2\n      swap1\n      pop\n      jump\t// out\n        /* \"#utility.yul\":11575:11797   */\n    tag_48:\n        /* \"#utility.yul\":11668:11672   */\n      0x00\n        /* \"#utility.yul\":11706:11708   */\n      0x20\n        /* \"#utility.yul\":11695:11704   */\n      dup3\n        /* \"#utility.yul\":11691:11709   */\n      add\n        /* \"#utility.yul\":11683:11709   */\n      swap1\n      pop\n        /* \"#utility.yul\":11719:11790   */\n      tag_376\n        /* \"#utility.yul\":11787:11788   */\n      0x00\n        /* \"#utility.yul\":11776:11785   */\n      dup4\n        /* \"#utility.yul\":11772:11789   */\n      add\n        /* \"#utility.yul\":11763:11769   */\n      dup5\n        /* \"#utility.yul\":11719:11790   */\n      tag_340\n      jump\t// in\n    tag_376:\n        /* \"#utility.yul\":11575:11797   */\n      swap3\n      swap2\n      pop\n      pop\n      jump\t// out\n        /* \"#utility.yul\":11803:12245   */\n    tag_108:\n        /* \"#utility.yul\":11952:11956   */\n      0x00\n        /* \"#utility.yul\":11990:11992   */\n      0x60\n        /* \"#utility.yul\":11979:11988   */\n      dup3\n        /* \"#utility.yul\":11975:11993   */\n      add\n        /* \"#utility.yul\":11967:11993   */\n      swap1\n      pop\n        /* \"#utility.yul\":12003:12074   */\n      tag_378\n        /* \"#utility.yul\":12071:12072   */\n      0x00\n        /* \"#utility.yul\":12060:12069   */\n      dup4\n        /* \"#utility.yul\":12056:12073   */\n      add\n        /* \"#utility.yul\":12047:12053   */\n      dup7\n        /* \"#utility.yul\":12003:12074   */\n      tag_340\n      jump\t// in\n    tag_378:\n        /* \"#utility.yul\":12084:12156   */\n      tag_379\n        /* \"#utility.yul\":12152:12154   */\n      0x20\n        /* \"#utility.yul\":12141:12150   */\n      dup4\n        /* \"#utility.yul\":12137:12155   */\n      add\n        /* \"#utility.yul\":12128:12134   */\n      dup6\n        /* \"#utility.yul\":12084:12156   */\n      tag_340\n      jump\t// in\n    tag_379:\n        /* \"#utility.yul\":12166:12238   */\n      tag_380\n        /* \"#utility.yul\":12234:12236   */\n      0x40\n        /* \"#utility.yul\":12223:12232   */\n      dup4\n        /* \"#utility.yul\":12219:12237   */\n      add\n        /* \"#utility.yul\":12210:12216   */\n      dup5\n        /* \"#utility.yul\":12166:12238   */\n      tag_298\n      jump\t// in\n    tag_380:\n        /* \"#utility.yul\":11803:12245   */\n      swap5\n      swap4\n      pop\n      pop\n      pop\n      pop\n      jump\t// out\n        /* \"#utility.yul\":12251:12380   */\n    tag_236:\n        /* \"#utility.yul\":12285:12291   */\n      0x00\n        /* \"#utility.yul\":12312:12332   */\n      tag_382\n      tag_383\n      jump\t// in\n    tag_382:\n        /* \"#utility.yul\":12302:12332   */\n      swap1\n      pop\n        /* \"#utility.yul\":12341:12374   */\n      tag_384\n        /* \"#utility.yul\":12369:12373   */\n      dup3\n        /* \"#utility.yul\":12361:12367   */\n      dup3\n        /* \"#utility.yul\":12341:12374   */\n      tag_385\n      jump\t// in\n    tag_384:\n        /* \"#utility.yul\":12251:12380   */\n      swap2\n      swap1\n      pop\n      jump\t// out\n        /* \"#utility.yul\":12386:12461   */\n    tag_383:\n        /* \"#utility.yul\":12419:12425   */\n      0x00\n        /* \"#utility.yul\":12452:12454   */\n      0x40\n        /* \"#utility.yul\":12446:12455   */\n      mload\n        /* \"#utility.yul\":12436:12455   */\n      swap1\n      pop\n        /* \"#utility.yul\":12386:12461   */\n      swap1\n      jump\t// out\n        /* \"#utility.yul\":12467:12775   */\n    tag_235:\n        /* \"#utility.yul\":12529:12533   */\n      0x00\n        /* \"#utility.yul\":12619:12637   */\n      0xffffffffffffffff\n        /* \"#utility.yul\":12611:12617   */\n      dup3\n        /* \"#utility.yul\":12608:12638   */\n      gt\n        /* \"#utility.yul\":12605:12661   */\n      iszero\n      tag_388\n      jumpi\n        /* \"#utility.yul\":12641:12659   */\n      tag_389\n      tag_169\n      jump\t// in\n    tag_389:\n        /* \"#utility.yul\":12605:12661   */\n    tag_388:\n        /* \"#utility.yul\":12679:12708   */\n      tag_390\n        /* \"#utility.yul\":12701:12707   */\n      dup3\n        /* \"#utility.yul\":12679:12708   */\n      tag_324\n      jump\t// in\n    tag_390:\n        /* \"#utility.yul\":12671:12708   */\n      swap1\n      pop\n        /* \"#utility.yul\":12763:12767   */\n      0x20\n        /* \"#utility.yul\":12757:12761   */\n      dup2\n        /* \"#utility.yul\":12753:12768   */\n      add\n        /* \"#utility.yul\":12745:12768   */\n      swap1\n      pop\n        /* \"#utility.yul\":12467:12775   */\n      swap2\n      swap1\n      pop\n      jump\t// out\n        /* \"#utility.yul\":12781:12913   */\n    tag_308:\n        /* \"#utility.yul\":12848:12852   */\n      0x00\n        /* \"#utility.yul\":12871:12874   */\n      dup2\n        /* \"#utility.yul\":12863:12874   */\n      swap1\n      pop\n        /* \"#utility.yul\":12901:12905   */\n      0x20\n        /* \"#utility.yul\":12896:12899   */\n      dup3\n        /* \"#utility.yul\":12892:12906   */\n      add\n        /* \"#utility.yul\":12884:12906   */\n      swap1\n      pop\n        /* \"#utility.yul\":12781:12913   */\n      swap2\n      swap1\n      pop\n      jump\t// out\n        /* \"#utility.yul\":12919:13033   */\n    tag_304:\n        /* \"#utility.yul\":12986:12992   */\n      0x00\n        /* \"#utility.yul\":13020:13025   */\n      dup2\n        /* \"#utility.yul\":13014:13026   */\n      mload\n        /* \"#utility.yul\":13004:13026   */\n      swap1\n      pop\n        /* \"#utility.yul\":12919:13033   */\n      swap2\n      swap1\n      pop\n      jump\t// out\n        /* \"#utility.yul\":13039:13138   */\n    tag_318:\n        /* \"#utility.yul\":13091:13097   */\n      0x00\n        /* \"#utility.yul\":13125:13130   */\n      dup2\n        /* \"#utility.yul\":13119:13131   */\n      mload\n        /* \"#utility.yul\":13109:13131   */\n      swap1\n      pop\n        /* \"#utility.yul\":13039:13138   */\n      swap2\n      swap1\n      pop\n      jump\t// out\n        /* \"#utility.yul\":13144:13257   */\n    tag_314:\n        /* \"#utility.yul\":13214:13218   */\n      0x00\n        /* \"#utility.yul\":13246:13250   */\n      0x20\n        /* \"#utility.yul\":13241:13244   */\n      dup3\n        /* \"#utility.yul\":13237:13251   */\n      add\n        /* \"#utility.yul\":13229:13251   */\n      swap1\n      pop\n        /* \"#utility.yul\":13144:13257   */\n      swap2\n      swap1\n      pop\n      jump\t// out\n        /* \"#utility.yul\":13263:13447   */\n    tag_306:\n        /* \"#utility.yul\":13362:13373   */\n      0x00\n        /* \"#utility.yul\":13396:13402   */\n      dup3\n        /* \"#utility.yul\":13391:13394   */\n      dup3\n        /* \"#utility.yul\":13384:13403   */\n      mstore\n        /* \"#utility.yul\":13436:13440   */\n      0x20\n        /* \"#utility.yul\":13431:13434   */\n      dup3\n        /* \"#utility.yul\":13427:13441   */\n      add\n        /* \"#utility.yul\":13412:13441   */\n      swap1\n      pop\n        /* \"#utility.yul\":13263:13447   */\n      swap3\n      swap2\n      pop\n      pop\n      jump\t// out\n        /* \"#utility.yul\":13453:13622   */\n    tag_320:\n        /* \"#utility.yul\":13537:13548   */\n      0x00\n        /* \"#utility.yul\":13571:13577   */\n      dup3\n        /* \"#utility.yul\":13566:13569   */\n      dup3\n        /* \"#utility.yul\":13559:13578   */\n      mstore\n        /* \"#utility.yul\":13611:13615   */\n      0x20\n        /* \"#utility.yul\":13606:13609   */\n      dup3\n        /* \"#utility.yul\":13602:13616   */\n      add\n        /* \"#utility.yul\":13587:13616   */\n      swap1\n      pop\n        /* \"#utility.yul\":13453:13622   */\n      swap3\n      swap2\n      pop\n      pop\n      jump\t// out\n        /* \"#utility.yul\":13628:13933   */\n    tag_153:\n        /* \"#utility.yul\":13668:13671   */\n      0x00\n        /* \"#utility.yul\":13687:13707   */\n      tag_398\n        /* \"#utility.yul\":13705:13706   */\n      dup3\n        /* \"#utility.yul\":13687:13707   */\n      tag_343\n      jump\t// in\n    tag_398:\n        /* \"#utility.yul\":13682:13707   */\n      swap2\n      pop\n        /* \"#utility.yul\":13721:13741   */\n      tag_399\n        /* \"#utility.yul\":13739:13740   */\n      dup4\n        /* \"#utility.yul\":13721:13741   */\n      tag_343\n      jump\t// in\n    tag_399:\n        /* \"#utility.yul\":13716:13741   */\n      swap3\n      pop\n        /* \"#utility.yul\":13875:13876   */\n      dup3\n        /* \"#utility.yul\":13807:13873   */\n      0xffffffffffffffffffffffffffffffffffffffffffffffffffffffffffffffff\n        /* \"#utility.yul\":13803:13877   */\n      sub\n        /* \"#utility.yul\":13800:13801   */\n      dup3\n        /* \"#utility.yul\":13797:13878   */\n      gt\n        /* \"#utility.yul\":13794:13901   */\n      iszero\n      tag_400\n      jumpi\n        /* \"#utility.yul\":13881:13899   */\n      tag_401\n      tag_402\n      jump\t// in\n    tag_401:\n        /* \"#utility.yul\":13794:13901   */\n    tag_400:\n        /* \"#utility.yul\":13925:13926   */\n      dup3\n        /* \"#utility.yul\":13922:13923   */\n      dup3\n        /* \"#utility.yul\":13918:13927   */\n      add\n        /* \"#utility.yul\":13911:13927   */\n      swap1\n      pop\n        /* \"#utility.yul\":13628:13933   */\n      swap3\n      swap2\n      pop\n      pop\n      jump\t// out\n        /* \"#utility.yul\":13939:14035   */\n    tag_297:\n        /* \"#utility.yul\":13976:13983   */\n      0x00\n        /* \"#utility.yul\":14005:14029   */\n      tag_404\n        /* \"#utility.yul\":14023:14028   */\n      dup3\n        /* \"#utility.yul\":14005:14029   */\n      tag_405\n      jump\t// in\n    tag_404:\n        /* \"#utility.yul\":13994:14029   */\n      swap1\n      pop\n        /* \"#utility.yul\":13939:14035   */\n      swap2\n      swap1\n      pop\n      jump\t// out\n        /* \"#utility.yul\":14041:14167   */\n    tag_405:\n        /* \"#utility.yul\":14078:14085   */\n      0x00\n        /* \"#utility.yul\":14118:14160   */\n      0xffffffffffffffffffffffffffffffffffffffff\n        /* \"#utility.yul\":14111:14116   */\n      dup3\n        /* \"#utility.yul\":14107:14161   */\n      and\n        /* \"#utility.yul\":14096:14161   */\n      swap1\n      pop\n        /* \"#utility.yul\":14041:14167   */\n      swap2\n      swap1\n      pop\n      jump\t// out\n        /* \"#utility.yul\":14173:14250   */\n    tag_343:\n        /* \"#utility.yul\":14210:14217   */\n      0x00\n        /* \"#utility.yul\":14239:14244   */\n      dup2\n        /* \"#utility.yul\":14228:14244   */\n      swap1\n      pop\n        /* \"#utility.yul\":14173:14250   */\n      swap2\n      swap1\n      pop\n      jump\t// out\n        /* \"#utility.yul\":14256:14410   */\n    tag_241:\n        /* \"#utility.yul\":14340:14346   */\n      dup3\n        /* \"#utility.yul\":14335:14338   */\n      dup2\n        /* \"#utility.yul\":14330:14333   */\n      dup4\n        /* \"#utility.yul\":14317:14347   */\n      calldatacopy\n        /* \"#utility.yul\":14402:14403   */\n      0x00\n        /* \"#utility.yul\":14393:14399   */\n      dup4\n        /* \"#utility.yul\":14388:14391   */\n      dup4\n        /* \"#utility.yul\":14384:14400   */\n      add\n        /* \"#utility.yul\":14377:14404   */\n      mstore\n        /* \"#utility.yul\":14256:14410   */\n      pop\n      pop\n      pop\n      jump\t// out\n        /* \"#utility.yul\":14416:14723   */\n    tag_322:\n        /* \"#utility.yul\":14484:14485   */\n      0x00\n        /* \"#utility.yul\":14494:14607   */\n    tag_410:\n        /* \"#utility.yul\":14508:14514   */\n      dup4\n        /* \"#utility.yul\":14505:14506   */\n      dup2\n        /* \"#utility.yul\":14502:14515   */\n      lt\n        /* \"#utility.yul\":14494:14607   */\n      iszero\n      tag_412\n      jumpi\n        /* \"#utility.yul\":14593:14594   */\n      dup1\n        /* \"#utility.yul\":14588:14591   */\n      dup3\n        /* \"#utility.yul\":14584:14595   */\n      add\n        /* \"#utility.yul\":14578:14596   */\n      mload\n        /* \"#utility.yul\":14574:14575   */\n      dup2\n        /* \"#utility.yul\":14569:14572   */\n      dup5\n        /* \"#utility.yul\":14565:14576   */\n      add\n        /* \"#utility.yul\":14558:14597   */\n      mstore\n        /* \"#utility.yul\":14530:14532   */\n      0x20\n        /* \"#utility.yul\":14527:14528   */\n      dup2\n        /* \"#utility.yul\":14523:14533   */\n      add\n        /* \"#utility.yul\":14518:14533   */\n      swap1\n      pop\n        /* \"#utility.yul\":14494:14607   */\n      jump(tag_410)\n    tag_412:\n        /* \"#utility.yul\":14625:14631   */\n      dup4\n        /* \"#utility.yul\":14622:14623   */\n      dup2\n        /* \"#utility.yul\":14619:14632   */\n      gt\n        /* \"#utility.yul\":14616:14717   */\n      iszero\n      tag_413\n      jumpi\n        /* \"#utility.yul\":14705:14706   */\n      0x00\n        /* \"#utility.yul\":14696:14702   */\n      dup5\n        /* \"#utility.yul\":14691:14694   */\n      dup5\n        /* \"#utility.yul\":14687:14703   */\n      add\n        /* \"#utility.yul\":14680:14707   */\n      mstore\n        /* \"#utility.yul\":14616:14717   */\n    tag_413:\n        /* \"#utility.yul\":14465:14723   */\n      pop\n        /* \"#utility.yul\":14416:14723   */\n      pop\n      pop\n      pop\n      jump\t// out\n        /* \"#utility.yul\":14729:15010   */\n    tag_385:\n        /* \"#utility.yul\":14812:14839   */\n      tag_415\n        /* \"#utility.yul\":14834:14838   */\n      dup3\n        /* \"#utility.yul\":14812:14839   */\n      tag_324\n      jump\t// in\n    tag_415:\n        /* \"#utility.yul\":14804:14810   */\n      dup2\n        /* \"#utility.yul\":14800:14840   */\n      add\n        /* \"#utility.yul\":14942:14948   */\n      dup2\n        /* \"#utility.yul\":14930:14940   */\n      dup2\n        /* \"#utility.yul\":14927:14949   */\n      lt\n        /* \"#utility.yul\":14906:14924   */\n      0xffffffffffffffff\n        /* \"#utility.yul\":14894:14904   */\n      dup3\n        /* \"#utility.yul\":14891:14925   */\n      gt\n        /* \"#utility.yul\":14888:14950   */\n      or\n        /* \"#utility.yul\":14885:14973   */\n      iszero\n      tag_416\n      jumpi\n        /* \"#utility.yul\":14953:14971   */\n      tag_417\n      tag_169\n      jump\t// in\n    tag_417:\n        /* \"#utility.yul\":14885:14973   */\n    tag_416:\n        /* \"#utility.yul\":14993:15003   */\n      dup1\n        /* \"#utility.yul\":14989:14991   */\n      0x40\n        /* \"#utility.yul\":14982:15004   */\n      mstore\n        /* \"#utility.yul\":14772:15010   */\n      pop\n        /* \"#utility.yul\":14729:15010   */\n      pop\n      pop\n      jump\t// out\n        /* \"#utility.yul\":15016:15196   */\n    tag_402:\n        /* \"#utility.yul\":15064:15141   */\n      0x4e487b7100000000000000000000000000000000000000000000000000000000\n        /* \"#utility.yul\":15061:15062   */\n      0x00\n        /* \"#utility.yul\":15054:15142   */\n      mstore\n        /* \"#utility.yul\":15161:15165   */\n      0x11\n        /* \"#utility.yul\":15158:15159   */\n      0x04\n        /* \"#utility.yul\":15151:15166   */\n      mstore\n        /* \"#utility.yul\":15185:15189   */\n      0x24\n        /* \"#utility.yul\":15182:15183   */\n      0x00\n        /* \"#utility.yul\":15175:15190   */\n      revert\n        /* \"#utility.yul\":15202:15382   */\n    tag_174:\n        /* \"#utility.yul\":15250:15327   */\n      0x4e487b7100000000000000000000000000000000000000000000000000000000\n        /* \"#utility.yul\":15247:15248   */\n      0x00\n        /* \"#utility.yul\":15240:15328   */\n      mstore\n        /* \"#utility.yul\":15347:15351   */\n      0x32\n        /* \"#utility.yul\":15344:15345   */\n      0x04\n        /* \"#utility.yul\":15337:15352   */\n      mstore\n        /* \"#utility.yul\":15371:15375   */\n      0x24\n        /* \"#utility.yul\":15368:15369   */\n      0x00\n        /* \"#utility.yul\":15361:15376   */\n      revert\n        /* \"#utility.yul\":15388:15568   */\n    tag_169:\n        /* \"#utility.yul\":15436:15513   */\n      0x4e487b7100000000000000000000000000000000000000000000000000000000\n        /* \"#utility.yul\":15433:15434   */\n      0x00\n        /* \"#utility.yul\":15426:15514   */\n      mstore\n        /* \"#utility.yul\":15533:15537   */\n      0x41\n        /* \"#utility.yul\":15530:15531   */\n      0x04\n        /* \"#utility.yul\":15523:15538   */\n      mstore\n        /* \"#utility.yul\":15557:15561   */\n      0x24\n        /* \"#utility.yul\":15554:15555   */\n      0x00\n        /* \"#utility.yul\":15547:15562   */\n      revert\n        /* \"#utility.yul\":15574:15691   */\n    tag_253:\n        /* \"#utility.yul\":15683:15684   */\n      0x00\n        /* \"#utility.yul\":15680:15681   */\n      dup1\n        /* \"#utility.yul\":15673:15685   */\n      revert\n        /* \"#utility.yul\":15697:15814   */\n    tag_239:\n        /* \"#utility.yul\":15806:15807   */\n      0x00\n        /* \"#utility.yul\":15803:15804   */\n      dup1\n        /* \"#utility.yul\":15796:15808   */\n      revert\n        /* \"#utility.yul\":15820:15937   */\n    tag_279:\n        /* \"#utility.yul\":15929:15930   */\n      0x00\n        /* \"#utility.yul\":15926:15927   */\n      dup1\n        /* \"#utility.yul\":15919:15931   */\n      revert\n        /* \"#utility.yul\":15943:16060   */\n    tag_262:\n        /* \"#utility.yul\":16052:16053   */\n      0x00\n        /* \"#utility.yul\":16049:16050   */\n      dup1\n        /* \"#utility.yul\":16042:16054   */\n      revert\n        /* \"#utility.yul\":16066:16168   */\n    tag_324:\n        /* \"#utility.yul\":16107:16113   */\n      0x00\n        /* \"#utility.yul\":16158:16160   */\n      0x1f\n        /* \"#utility.yul\":16154:16161   */\n      not\n        /* \"#utility.yul\":16149:16151   */\n      0x1f\n        /* \"#utility.yul\":16142:16147   */\n      dup4\n        /* \"#utility.yul\":16138:16152   */\n      add\n        /* \"#utility.yul\":16134:16162   */\n      and\n        /* \"#utility.yul\":16124:16162   */\n      swap1\n      pop\n        /* \"#utility.yul\":16066:16168   */\n      swap2\n      swap1\n      pop\n      jump\t// out\n        /* \"#utility.yul\":16174:16399   */\n    tag_329:\n        /* \"#utility.yul\":16314:16348   */\n      0x4f776e61626c653a206e6577206f776e657220697320746865207a65726f2061\n        /* \"#utility.yul\":16310:16311   */\n      0x00\n        /* \"#utility.yul\":16302:16308   */\n      dup3\n        /* \"#utility.yul\":16298:16312   */\n      add\n        /* \"#utility.yul\":16291:16349   */\n      mstore\n        /* \"#utility.yul\":16383:16391   */\n      0x6464726573730000000000000000000000000000000000000000000000000000\n        /* \"#utility.yul\":16378:16380   */\n      0x20\n        /* \"#utility.yul\":16370:16376   */\n      dup3\n        /* \"#utility.yul\":16366:16381   */\n      add\n        /* \"#utility.yul\":16359:16392   */\n      mstore\n        /* \"#utility.yul\":16174:16399   */\n      pop\n      jump\t// out\n        /* \"#utility.yul\":16405:16578   */\n    tag_334:\n        /* \"#utility.yul\":16545:16570   */\n      0x4d6f64656c41646472657373206e6f7420736574656421000000000000000000\n        /* \"#utility.yul\":16541:16542   */\n      0x00\n        /* \"#utility.yul\":16533:16539   */\n      dup3\n        /* \"#utility.yul\":16529:16543   */\n      add\n        /* \"#utility.yul\":16522:16571   */\n      mstore\n        /* \"#utility.yul\":16405:16578   */\n      pop\n      jump\t// out\n        /* \"#utility.yul\":16584:16766   */\n    tag_339:\n        /* \"#utility.yul\":16724:16758   */\n      0x4f776e61626c653a2063616c6c6572206973206e6f7420746865206f776e6572\n        /* \"#utility.yul\":16720:16721   */\n      0x00\n        /* \"#utility.yul\":16712:16718   */\n      dup3\n        /* \"#utility.yul\":16708:16722   */\n      add\n        /* \"#utility.yul\":16701:16759   */\n      mstore\n        /* \"#utility.yul\":16584:16766   */\n      pop\n      jump\t// out\n        /* \"#utility.yul\":16772:16894   */\n    tag_245:\n        /* \"#utility.yul\":16845:16869   */\n      tag_430\n        /* \"#utility.yul\":16863:16868   */\n      dup2\n        /* \"#utility.yul\":16845:16869   */\n      tag_297\n      jump\t// in\n    tag_430:\n        /* \"#utility.yul\":16838:16843   */\n      dup2\n        /* \"#utility.yul\":16835:16870   */\n      eq\n        /* \"#utility.yul\":16825:16888   */\n      tag_431\n      jumpi\n        /* \"#utility.yul\":16884:16885   */\n      0x00\n        /* \"#utility.yul\":16881:16882   */\n      dup1\n        /* \"#utility.yul\":16874:16886   */\n      revert\n        /* \"#utility.yul\":16825:16888   */\n    tag_431:\n        /* \"#utility.yul\":16772:16894   */\n      pop\n      jump\t// out\n        /* \"#utility.yul\":16900:17022   */\n    tag_258:\n        /* \"#utility.yul\":16973:16997   */\n      tag_433\n        /* \"#utility.yul\":16991:16996   */\n      dup2\n        /* \"#utility.yul\":16973:16997   */\n      tag_343\n      jump\t// in\n    tag_433:\n        /* \"#utility.yul\":16966:16971   */\n      dup2\n        /* \"#utility.yul\":16963:16998   */\n      eq\n        /* \"#utility.yul\":16953:17016   */\n      tag_434\n      jumpi\n        /* \"#utility.yul\":17012:17013   */\n      0x00\n        /* \"#utility.yul\":17009:17010   */\n      dup1\n        /* \"#utility.yul\":17002:17014   */\n      revert\n        /* \"#utility.yul\":16953:17016   */\n    tag_434:\n        /* \"#utility.yul\":16900:17022   */\n      pop\n      jump\t// out\n\n    auxdata: 0xa26469706673582212202b0cf1a922410b2574e11109451ea7512ece90ee428dca321ffac32da8e565ac64736f6c63430008070033\n}\n",
				"bytecode": {
					"linkReferences": {},
					"object": "6080604052600060025534801561001557600080fd5b5061003261002761003760201b60201c565b61003f60201b60201c565b610103565b600033905090565b60008060009054906101000a900473ffffffffffffffffffffffffffffffffffffffff169050816000806101000a81548173ffffffffffffffffffffffffffffffffffffffff021916908373ffffffffffffffffffffffffffffffffffffffff1602179055508173ffffffffffffffffffffffffffffffffffffffff168173ffffffffffffffffffffffffffffffffffffffff167f8be0079c531659141344cd1fd0a4f28419497f9722a3daafe3b4186f6b6457e060405160405180910390a35050565b611f33806101126000396000f3fe608060405234801561001057600080fd5b50600436106101165760003560e01c806374339cf7116100a2578063b28f3b8e11610071578063b28f3b8e14610291578063be4c7942146102af578063c479b452146102cd578063c62baedf146102eb578063f2fde38b1461030957610116565b806374339cf71461020b5780638da5cb5b14610227578063a66a8b5d14610245578063a74adec71461027557610116565b80634277c7cb116100e95780634277c7cb1461018d57806351f67ff3146101ab57806356d88e27146101c75780635c298412146101e5578063715018a61461020157610116565b806305a2fb7c1461011b5780630fd4fa181461013757806318626d9a14610153578063217366eb14610171575b600080fd5b610135600480360381019061013091906116c1565b610325565b005b610151600480360381019061014c91906116c1565b610371565b005b61015b6103bd565b604051610168919061199f565b60405180910390f35b61018b600480360381019061018691906116c1565b6103e3565b005b61019561042f565b6040516101a2919061199f565b60405180910390f35b6101c560048036038101906101c09190611748565b610455565b005b6101cf610c20565b6040516101dc9190611b7a565b60405180910390f35b6101ff60048036038101906101fa91906116c1565b610c26565b005b610209610c72565b005b610225600480360381019061022091906116c1565b610c86565b005b61022f610cd2565b60405161023c919061199f565b60405180910390f35b61025f600480360381019061025a919061171b565b610cfb565b60405161026c9190611af8565b60405180910390f35b61028f600480360381019061028a91906116c1565b6112f6565b005b610299611342565b6040516102a6919061199f565b60405180910390f35b6102b7611368565b6040516102c4919061199f565b60405180910390f35b6102d561138e565b6040516102e2919061199f565b60405180910390f35b6102f36113b4565b604051610300919061199f565b60405180910390f35b610323600480360381019061031e91906116c1565b6113da565b005b61032d61145e565b80600360006101000a81548173ffffffffffffffffffffffffffffffffffffffff021916908373ffffffffffffffffffffffffffffffffffffffff16021790555050565b61037961145e565b80600660006101000a81548173ffffffffffffffffffffffffffffffffffffffff021916908373ffffffffffffffffffffffffffffffffffffffff16021790555050565b600660009054906101000a900473ffffffffffffffffffffffffffffffffffffffff1681565b6103eb61145e565b80600760006101000a81548173ffffffffffffffffffffffffffffffffffffffff021916908373ffffffffffffffffffffffffffffffffffffffff16021790555050565b600860009054906101000a900473ffffffffffffffffffffffffffffffffffffffff1681565b61045d61145e565b600073ffffffffffffffffffffffffffffffffffffffff16600360009054906101000a900473ffffffffffffffffffffffffffffffffffffffff1673ffffffffffffffffffffffffffffffffffffffff161415801561050b5750600073ffffffffffffffffffffffffffffffffffffffff16600460009054906101000a900473ffffffffffffffffffffffffffffffffffffffff1673ffffffffffffffffffffffffffffffffffffffff1614155b80156105665750600073ffffffffffffffffffffffffffffffffffffffff16600560009054906101000a900473ffffffffffffffffffffffffffffffffffffffff1673ffffffffffffffffffffffffffffffffffffffff1614155b80156105c15750600073ffffffffffffffffffffffffffffffffffffffff16600660009054906101000a900473ffffffffffffffffffffffffffffffffffffffff1673ffffffffffffffffffffffffffffffffffffffff1614155b801561061c5750600073ffffffffffffffffffffffffffffffffffffffff16600760009054906101000a900473ffffffffffffffffffffffffffffffffffffffff1673ffffffffffffffffffffffffffffffffffffffff1614155b80156106775750600073ffffffffffffffffffffffffffffffffffffffff16600860009054906101000a900473ffffffffffffffffffffffffffffffffffffffff1673ffffffffffffffffffffffffffffffffffffffff1614155b6106b6576040517f08c379a00000000000000000000000000000000000000000000000000000000081526004016106ad90611b3a565b60405180910390fd5b60006106e3600360009054906101000a900473ffffffffffffffffffffffffffffffffffffffff166114dc565b90508073ffffffffffffffffffffffffffffffffffffffff1663a6ab36f28989336040518463ffffffff1660e01b815260040161072293929190611b95565b600060405180830381600087803b15801561073c57600080fd5b505af1158015610750573d6000803e3d6000fd5b505050506000610781600460009054906101000a900473ffffffffffffffffffffffffffffffffffffffff166114dc565b90508073ffffffffffffffffffffffffffffffffffffffff1663362925c283338a8a600760009054906101000a900473ffffffffffffffffffffffffffffffffffffffff166040518663ffffffff1660e01b81526004016107e6959493929190611a28565b600060405180830381600087803b15801561080057600080fd5b505af1158015610814573d6000803e3d6000fd5b505050508173ffffffffffffffffffffffffffffffffffffffff166377d2e24b826040518263ffffffff1660e01b8152600401610851919061199f565b600060405180830381600087803b15801561086b57600080fd5b505af115801561087f573d6000803e3d6000fd5b5050505060006108b0600560009054906101000a900473ffffffffffffffffffffffffffffffffffffffff166114dc565b90508073ffffffffffffffffffffffffffffffffffffffff1663650b4f8b8488883389336040518763ffffffff1660e01b81526004016108f596959493929190611a89565b600060405180830381600087803b15801561090f57600080fd5b505af1158015610923573d6000803e3d6000fd5b505050508273ffffffffffffffffffffffffffffffffffffffff16636ec13680826040518263ffffffff1660e01b8152600401610960919061199f565b600060405180830381600087803b15801561097a57600080fd5b505af115801561098e573d6000803e3d6000fd5b5050505060006109bf600660009054906101000a900473ffffffffffffffffffffffffffffffffffffffff166114dc565b90508073ffffffffffffffffffffffffffffffffffffffff1663485cc95585336040518363ffffffff1660e01b81526004016109fc9291906119ba565b600060405180830381600087803b158015610a1657600080fd5b505af1158015610a2a573d6000803e3d6000fd5b505050508373ffffffffffffffffffffffffffffffffffffffff166309664afe826040518263ffffffff1660e01b8152600401610a67919061199f565b600060405180830381600087803b158015610a8157600080fd5b505af1158015610a95573d6000803e3d6000fd5b505050506000610ac6600860009054906101000a900473ffffffffffffffffffffffffffffffffffffffff166114dc565b90508073ffffffffffffffffffffffffffffffffffffffff1663f8c8765e868685876040518563ffffffff1660e01b8152600401610b0794939291906119e3565b600060405180830381600087803b158015610b2157600080fd5b505af1158015610b35573d6000803e3d6000fd5b505050508473ffffffffffffffffffffffffffffffffffffffff16633ec9807b826040518263ffffffff1660e01b8152600401610b72919061199f565b600060405180830381600087803b158015610b8c57600080fd5b505af1158015610ba0573d6000803e3d6000fd5b505050508460016000600254815260200190815260200160002060006101000a81548173ffffffffffffffffffffffffffffffffffffffff021916908373ffffffffffffffffffffffffffffffffffffffff160217905550600160026000828254610c0b9190611c77565b92505081905550505050505050505050505050565b60025481565b610c2e61145e565b80600560006101000a81548173ffffffffffffffffffffffffffffffffffffffff021916908373ffffffffffffffffffffffffffffffffffffffff16021790555050565b610c7a61145e565b610c846000611546565b565b610c8e61145e565b80600860006101000a81548173ffffffffffffffffffffffffffffffffffffffff021916908373ffffffffffffffffffffffffffffffffffffffff16021790555050565b60008060009054906101000a900473ffffffffffffffffffffffffffffffffffffffff16905090565b60606000600667ffffffffffffffff811115610d1a57610d19611dda565b5b604051908082528060200260200182016040528015610d485781602001602082028036833780820191505090505b509050600073ffffffffffffffffffffffffffffffffffffffff166001600085815260200190815260200160002060009054906101000a900473ffffffffffffffffffffffffffffffffffffffff1673ffffffffffffffffffffffffffffffffffffffff16146112ed5760006001600085815260200190815260200160002060009054906101000a900473ffffffffffffffffffffffffffffffffffffffff1690506001600085815260200190815260200160002060009054906101000a900473ffffffffffffffffffffffffffffffffffffffff1682600081518110610e3257610e31611dab565b5b602002602001019073ffffffffffffffffffffffffffffffffffffffff16908173ffffffffffffffffffffffffffffffffffffffff16815250508073ffffffffffffffffffffffffffffffffffffffff166308c17a4a6040518163ffffffff1660e01b815260040160206040518083038186803b158015610eb257600080fd5b505afa158015610ec6573d6000803e3d6000fd5b505050506040513d601f19601f82011682018060405250810190610eea91906116ee565b82600181518110610efe57610efd611dab565b5b602002602001019073ffffffffffffffffffffffffffffffffffffffff16908173ffffffffffffffffffffffffffffffffffffffff16815250508073ffffffffffffffffffffffffffffffffffffffff1663d1d25fab6040518163ffffffff1660e01b815260040160206040518083038186803b158015610f7e57600080fd5b505afa158015610f92573d6000803e3d6000fd5b505050506040513d601f19601f82011682018060405250810190610fb691906116ee565b82600281518110610fca57610fc9611dab565b5b602002602001019073ffffffffffffffffffffffffffffffffffffffff16908173ffffffffffffffffffffffffffffffffffffffff16815250508073ffffffffffffffffffffffffffffffffffffffff16637015e95e6040518163ffffffff1660e01b815260040160206040518083038186803b15801561104a57600080fd5b505afa15801561105e573d6000803e3d6000fd5b505050506040513d601f19601f8201168201806040525081019061108291906116ee565b8260038151811061109657611095611dab565b5b602002602001019073ffffffffffffffffffffffffffffffffffffffff16908173ffffffffffffffffffffffffffffffffffffffff16815250508073ffffffffffffffffffffffffffffffffffffffff1663bf1090256040518163ffffffff1660e01b815260040160206040518083038186803b15801561111657600080fd5b505afa15801561112a573d6000803e3d6000fd5b505050506040513d601f19601f8201168201806040525081019061114e91906116ee565b8260048151811061116257611161611dab565b5b602002602001019073ffffffffffffffffffffffffffffffffffffffff16908173ffffffffffffffffffffffffffffffffffffffff168152505060008173ffffffffffffffffffffffffffffffffffffffff166308c17a4a6040518163ffffffff1660e01b815260040160206040518083038186803b1580156111e457600080fd5b505afa1580156111f8573d6000803e3d6000fd5b505050506040513d601f19601f8201168201806040525081019061121c91906116ee565b90508073ffffffffffffffffffffffffffffffffffffffff1663b28f3b8e6040518163ffffffff1660e01b815260040160206040518083038186803b15801561126457600080fd5b505afa158015611278573d6000803e3d6000fd5b505050506040513d601f19601f8201168201806040525081019061129c91906116ee565b836005815181106112b0576112af611dab565b5b602002602001019073ffffffffffffffffffffffffffffffffffffffff16908173ffffffffffffffffffffffffffffffffffffffff168152505050505b80915050919050565b6112fe61145e565b80600460006101000a81548173ffffffffffffffffffffffffffffffffffffffff021916908373ffffffffffffffffffffffffffffffffffffffff16021790555050565b600760009054906101000a900473ffffffffffffffffffffffffffffffffffffffff1681565b600560009054906101000a900473ffffffffffffffffffffffffffffffffffffffff1681565b600460009054906101000a900473ffffffffffffffffffffffffffffffffffffffff1681565b600360009054906101000a900473ffffffffffffffffffffffffffffffffffffffff1681565b6113e261145e565b600073ffffffffffffffffffffffffffffffffffffffff168173ffffffffffffffffffffffffffffffffffffffff161415611452576040517f08c379a000000000000000000000000000000000000000000000000000000000815260040161144990611b1a565b60405180910390fd5b61145b81611546565b50565b61146661160a565b73ffffffffffffffffffffffffffffffffffffffff16611484610cd2565b73ffffffffffffffffffffffffffffffffffffffff16146114da576040517f08c379a00000000000000000000000000000000000000000000000000000000081526004016114d190611b5a565b60405180910390fd5b565b6000808260601b90506040517f3d602d80600a3d3981f3363d3d373d3d3d363d7300000000000000000000000081528160148201527f5af43d82803e903d91602b57fd5bf3000000000000000000000000000000000060288201526037816000f092505050919050565b60008060009054906101000a900473ffffffffffffffffffffffffffffffffffffffff169050816000806101000a81548173ffffffffffffffffffffffffffffffffffffffff021916908373ffffffffffffffffffffffffffffffffffffffff1602179055508173ffffffffffffffffffffffffffffffffffffffff168173ffffffffffffffffffffffffffffffffffffffff167f8be0079c531659141344cd1fd0a4f28419497f9722a3daafe3b4186f6b6457e060405160405180910390a35050565b600033905090565b600061162561162084611bf1565b611bcc565b90508281526020810184848401111561164157611640611e0e565b5b61164c848285611d09565b509392505050565b60008135905061166381611ecf565b92915050565b60008151905061167881611ecf565b92915050565b600082601f83011261169357611692611e09565b5b81356116a3848260208601611612565b91505092915050565b6000813590506116bb81611ee6565b92915050565b6000602082840312156116d7576116d6611e18565b5b60006116e584828501611654565b91505092915050565b60006020828403121561170457611703611e18565b5b600061171284828501611669565b91505092915050565b60006020828403121561173157611730611e18565b5b600061173f848285016116ac565b91505092915050565b600080600080600080600060e0888a03121561176757611766611e18565b5b60006117758a828b016116ac565b97505060206117868a828b016116ac565b965050604088013567ffffffffffffffff8111156117a7576117a6611e13565b5b6117b38a828b0161167e565b955050606088013567ffffffffffffffff8111156117d4576117d3611e13565b5b6117e08a828b0161167e565b945050608088013567ffffffffffffffff81111561180157611800611e13565b5b61180d8a828b0161167e565b93505060a088013567ffffffffffffffff81111561182e5761182d611e13565b5b61183a8a828b0161167e565b92505060c061184b8a828b016116ac565b91505092959891949750929550565b60006118668383611872565b60208301905092915050565b61187b81611ccd565b82525050565b61188a81611ccd565b82525050565b600061189b82611c32565b6118a58185611c55565b93506118b083611c22565b8060005b838110156118e15781516118c8888261185a565b97506118d383611c48565b9250506001810190506118b4565b5085935050505092915050565b60006118f982611c3d565b6119038185611c66565b9350611913818560208601611d18565b61191c81611e1d565b840191505092915050565b6000611934602683611c66565b915061193f82611e2e565b604082019050919050565b6000611957601783611c66565b915061196282611e7d565b602082019050919050565b600061197a602083611c66565b915061198582611ea6565b602082019050919050565b61199981611cff565b82525050565b60006020820190506119b46000830184611881565b92915050565b60006040820190506119cf6000830185611881565b6119dc6020830184611881565b9392505050565b60006080820190506119f86000830187611881565b611a056020830186611881565b611a126040830185611881565b611a1f6060830184611881565b95945050505050565b600060a082019050611a3d6000830188611881565b611a4a6020830187611881565b8181036040830152611a5c81866118ee565b90508181036060830152611a7081856118ee565b9050611a7f6080830184611881565b9695505050505050565b600060c082019050611a9e6000830189611881565b8181036020830152611ab081886118ee565b90508181036040830152611ac481876118ee565b9050611ad36060830186611881565b611ae06080830185611990565b611aed60a0830184611881565b979650505050505050565b60006020820190508181036000830152611b128184611890565b905092915050565b60006020820190508181036000830152611b3381611927565b9050919050565b60006020820190508181036000830152611b538161194a565b9050919050565b60006020820190508181036000830152611b738161196d565b9050919050565b6000602082019050611b8f6000830184611990565b92915050565b6000606082019050611baa6000830186611990565b611bb76020830185611990565b611bc46040830184611881565b949350505050565b6000611bd6611be7565b9050611be28282611d4b565b919050565b6000604051905090565b600067ffffffffffffffff821115611c0c57611c0b611dda565b5b611c1582611e1d565b9050602081019050919050565b6000819050602082019050919050565b600081519050919050565b600081519050919050565b6000602082019050919050565b600082825260208201905092915050565b600082825260208201905092915050565b6000611c8282611cff565b9150611c8d83611cff565b9250827fffffffffffffffffffffffffffffffffffffffffffffffffffffffffffffffff03821115611cc257611cc1611d7c565b5b828201905092915050565b6000611cd882611cdf565b9050919050565b600073ffffffffffffffffffffffffffffffffffffffff82169050919050565b6000819050919050565b82818337600083830152505050565b60005b83811015611d36578082015181840152602081019050611d1b565b83811115611d45576000848401525b50505050565b611d5482611e1d565b810181811067ffffffffffffffff82111715611d7357611d72611dda565b5b80604052505050565b7f4e487b7100000000000000000000000000000000000000000000000000000000600052601160045260246000fd5b7f4e487b7100000000000000000000000000000000000000000000000000000000600052603260045260246000fd5b7f4e487b7100000000000000000000000000000000000000000000000000000000600052604160045260246000fd5b600080fd5b600080fd5b600080fd5b600080fd5b6000601f19601f8301169050919050565b7f4f776e61626c653a206e6577206f776e657220697320746865207a65726f206160008201527f6464726573730000000000000000000000000000000000000000000000000000602082015250565b7f4d6f64656c41646472657373206e6f7420736574656421000000000000000000600082015250565b7f4f776e61626c653a2063616c6c6572206973206e6f7420746865206f776e6572600082015250565b611ed881611ccd565b8114611ee357600080fd5b50565b611eef81611cff565b8114611efa57600080fd5b5056fea26469706673582212202b0cf1a922410b2574e11109451ea7512ece90ee428dca321ffac32da8e565ac64736f6c63430008070033",
					"opcodes": "PUSH1 0x80 PUSH1 0x40 MSTORE PUSH1 0x0 PUSH1 0x2 SSTORE CALLVALUE DUP1 ISZERO PUSH2 0x15 JUMPI PUSH1 0x0 DUP1 REVERT JUMPDEST POP PUSH2 0x32 PUSH2 0x27 PUSH2 0x37 PUSH1 0x20 SHL PUSH1 0x20 SHR JUMP JUMPDEST PUSH2 0x3F PUSH1 0x20 SHL PUSH1 0x20 SHR JUMP JUMPDEST PUSH2 0x103 JUMP JUMPDEST PUSH1 0x0 CALLER SWAP1 POP SWAP1 JUMP JUMPDEST PUSH1 0x0 DUP1 PUSH1 0x0 SWAP1 SLOAD SWAP1 PUSH2 0x100 EXP SWAP1 DIV PUSH20 0xFFFFFFFFFFFFFFFFFFFFFFFFFFFFFFFFFFFFFFFF AND SWAP1 POP DUP2 PUSH1 0x0 DUP1 PUSH2 0x100 EXP DUP2 SLOAD DUP2 PUSH20 0xFFFFFFFFFFFFFFFFFFFFFFFFFFFFFFFFFFFFFFFF MUL NOT AND SWAP1 DUP4 PUSH20 0xFFFFFFFFFFFFFFFFFFFFFFFFFFFFFFFFFFFFFFFF AND MUL OR SWAP1 SSTORE POP DUP2 PUSH20 0xFFFFFFFFFFFFFFFFFFFFFFFFFFFFFFFFFFFFFFFF AND DUP2 PUSH20 0xFFFFFFFFFFFFFFFFFFFFFFFFFFFFFFFFFFFFFFFF AND PUSH32 0x8BE0079C531659141344CD1FD0A4F28419497F9722A3DAAFE3B4186F6B6457E0 PUSH1 0x40 MLOAD PUSH1 0x40 MLOAD DUP1 SWAP2 SUB SWAP1 LOG3 POP POP JUMP JUMPDEST PUSH2 0x1F33 DUP1 PUSH2 0x112 PUSH1 0x0 CODECOPY PUSH1 0x0 RETURN INVALID PUSH1 0x80 PUSH1 0x40 MSTORE CALLVALUE DUP1 ISZERO PUSH2 0x10 JUMPI PUSH1 0x0 DUP1 REVERT JUMPDEST POP PUSH1 0x4 CALLDATASIZE LT PUSH2 0x116 JUMPI PUSH1 0x0 CALLDATALOAD PUSH1 0xE0 SHR DUP1 PUSH4 0x74339CF7 GT PUSH2 0xA2 JUMPI DUP1 PUSH4 0xB28F3B8E GT PUSH2 0x71 JUMPI DUP1 PUSH4 0xB28F3B8E EQ PUSH2 0x291 JUMPI DUP1 PUSH4 0xBE4C7942 EQ PUSH2 0x2AF JUMPI DUP1 PUSH4 0xC479B452 EQ PUSH2 0x2CD JUMPI DUP1 PUSH4 0xC62BAEDF EQ PUSH2 0x2EB JUMPI DUP1 PUSH4 0xF2FDE38B EQ PUSH2 0x309 JUMPI PUSH2 0x116 JUMP JUMPDEST DUP1 PUSH4 0x74339CF7 EQ PUSH2 0x20B JUMPI DUP1 PUSH4 0x8DA5CB5B EQ PUSH2 0x227 JUMPI DUP1 PUSH4 0xA66A8B5D EQ PUSH2 0x245 JUMPI DUP1 PUSH4 0xA74ADEC7 EQ PUSH2 0x275 JUMPI PUSH2 0x116 JUMP JUMPDEST DUP1 PUSH4 0x4277C7CB GT PUSH2 0xE9 JUMPI DUP1 PUSH4 0x4277C7CB EQ PUSH2 0x18D JUMPI DUP1 PUSH4 0x51F67FF3 EQ PUSH2 0x1AB JUMPI DUP1 PUSH4 0x56D88E27 EQ PUSH2 0x1C7 JUMPI DUP1 PUSH4 0x5C298412 EQ PUSH2 0x1E5 JUMPI DUP1 PUSH4 0x715018A6 EQ PUSH2 0x201 JUMPI PUSH2 0x116 JUMP JUMPDEST DUP1 PUSH4 0x5A2FB7C EQ PUSH2 0x11B JUMPI DUP1 PUSH4 0xFD4FA18 EQ PUSH2 0x137 JUMPI DUP1 PUSH4 0x18626D9A EQ PUSH2 0x153 JUMPI DUP1 PUSH4 0x217366EB EQ PUSH2 0x171 JUMPI JUMPDEST PUSH1 0x0 DUP1 REVERT JUMPDEST PUSH2 0x135 PUSH1 0x4 DUP1 CALLDATASIZE SUB DUP2 ADD SWAP1 PUSH2 0x130 SWAP2 SWAP1 PUSH2 0x16C1 JUMP JUMPDEST PUSH2 0x325 JUMP JUMPDEST STOP JUMPDEST PUSH2 0x151 PUSH1 0x4 DUP1 CALLDATASIZE SUB DUP2 ADD SWAP1 PUSH2 0x14C SWAP2 SWAP1 PUSH2 0x16C1 JUMP JUMPDEST PUSH2 0x371 JUMP JUMPDEST STOP JUMPDEST PUSH2 0x15B PUSH2 0x3BD JUMP JUMPDEST PUSH1 0x40 MLOAD PUSH2 0x168 SWAP2 SWAP1 PUSH2 0x199F JUMP JUMPDEST PUSH1 0x40 MLOAD DUP1 SWAP2 SUB SWAP1 RETURN JUMPDEST PUSH2 0x18B PUSH1 0x4 DUP1 CALLDATASIZE SUB DUP2 ADD SWAP1 PUSH2 0x186 SWAP2 SWAP1 PUSH2 0x16C1 JUMP JUMPDEST PUSH2 0x3E3 JUMP JUMPDEST STOP JUMPDEST PUSH2 0x195 PUSH2 0x42F JUMP JUMPDEST PUSH1 0x40 MLOAD PUSH2 0x1A2 SWAP2 SWAP1 PUSH2 0x199F JUMP JUMPDEST PUSH1 0x40 MLOAD DUP1 SWAP2 SUB SWAP1 RETURN JUMPDEST PUSH2 0x1C5 PUSH1 0x4 DUP1 CALLDATASIZE SUB DUP2 ADD SWAP1 PUSH2 0x1C0 SWAP2 SWAP1 PUSH2 0x1748 JUMP JUMPDEST PUSH2 0x455 JUMP JUMPDEST STOP JUMPDEST PUSH2 0x1CF PUSH2 0xC20 JUMP JUMPDEST PUSH1 0x40 MLOAD PUSH2 0x1DC SWAP2 SWAP1 PUSH2 0x1B7A JUMP JUMPDEST PUSH1 0x40 MLOAD DUP1 SWAP2 SUB SWAP1 RETURN JUMPDEST PUSH2 0x1FF PUSH1 0x4 DUP1 CALLDATASIZE SUB DUP2 ADD SWAP1 PUSH2 0x1FA SWAP2 SWAP1 PUSH2 0x16C1 JUMP JUMPDEST PUSH2 0xC26 JUMP JUMPDEST STOP JUMPDEST PUSH2 0x209 PUSH2 0xC72 JUMP JUMPDEST STOP JUMPDEST PUSH2 0x225 PUSH1 0x4 DUP1 CALLDATASIZE SUB DUP2 ADD SWAP1 PUSH2 0x220 SWAP2 SWAP1 PUSH2 0x16C1 JUMP JUMPDEST PUSH2 0xC86 JUMP JUMPDEST STOP JUMPDEST PUSH2 0x22F PUSH2 0xCD2 JUMP JUMPDEST PUSH1 0x40 MLOAD PUSH2 0x23C SWAP2 SWAP1 PUSH2 0x199F JUMP JUMPDEST PUSH1 0x40 MLOAD DUP1 SWAP2 SUB SWAP1 RETURN JUMPDEST PUSH2 0x25F PUSH1 0x4 DUP1 CALLDATASIZE SUB DUP2 ADD SWAP1 PUSH2 0x25A SWAP2 SWAP1 PUSH2 0x171B JUMP JUMPDEST PUSH2 0xCFB JUMP JUMPDEST PUSH1 0x40 MLOAD PUSH2 0x26C SWAP2 SWAP1 PUSH2 0x1AF8 JUMP JUMPDEST PUSH1 0x40 MLOAD DUP1 SWAP2 SUB SWAP1 RETURN JUMPDEST PUSH2 0x28F PUSH1 0x4 DUP1 CALLDATASIZE SUB DUP2 ADD SWAP1 PUSH2 0x28A SWAP2 SWAP1 PUSH2 0x16C1 JUMP JUMPDEST PUSH2 0x12F6 JUMP JUMPDEST STOP JUMPDEST PUSH2 0x299 PUSH2 0x1342 JUMP JUMPDEST PUSH1 0x40 MLOAD PUSH2 0x2A6 SWAP2 SWAP1 PUSH2 0x199F JUMP JUMPDEST PUSH1 0x40 MLOAD DUP1 SWAP2 SUB SWAP1 RETURN JUMPDEST PUSH2 0x2B7 PUSH2 0x1368 JUMP JUMPDEST PUSH1 0x40 MLOAD PUSH2 0x2C4 SWAP2 SWAP1 PUSH2 0x199F JUMP JUMPDEST PUSH1 0x40 MLOAD DUP1 SWAP2 SUB SWAP1 RETURN JUMPDEST PUSH2 0x2D5 PUSH2 0x138E JUMP JUMPDEST PUSH1 0x40 MLOAD PUSH2 0x2E2 SWAP2 SWAP1 PUSH2 0x199F JUMP JUMPDEST PUSH1 0x40 MLOAD DUP1 SWAP2 SUB SWAP1 RETURN JUMPDEST PUSH2 0x2F3 PUSH2 0x13B4 JUMP JUMPDEST PUSH1 0x40 MLOAD PUSH2 0x300 SWAP2 SWAP1 PUSH2 0x199F JUMP JUMPDEST PUSH1 0x40 MLOAD DUP1 SWAP2 SUB SWAP1 RETURN JUMPDEST PUSH2 0x323 PUSH1 0x4 DUP1 CALLDATASIZE SUB DUP2 ADD SWAP1 PUSH2 0x31E SWAP2 SWAP1 PUSH2 0x16C1 JUMP JUMPDEST PUSH2 0x13DA JUMP JUMPDEST STOP JUMPDEST PUSH2 0x32D PUSH2 0x145E JUMP JUMPDEST DUP1 PUSH1 0x3 PUSH1 0x0 PUSH2 0x100 EXP DUP2 SLOAD DUP2 PUSH20 0xFFFFFFFFFFFFFFFFFFFFFFFFFFFFFFFFFFFFFFFF MUL NOT AND SWAP1 DUP4 PUSH20 0xFFFFFFFFFFFFFFFFFFFFFFFFFFFFFFFFFFFFFFFF AND MUL OR SWAP1 SSTORE POP POP JUMP JUMPDEST PUSH2 0x379 PUSH2 0x145E JUMP JUMPDEST DUP1 PUSH1 0x6 PUSH1 0x0 PUSH2 0x100 EXP DUP2 SLOAD DUP2 PUSH20 0xFFFFFFFFFFFFFFFFFFFFFFFFFFFFFFFFFFFFFFFF MUL NOT AND SWAP1 DUP4 PUSH20 0xFFFFFFFFFFFFFFFFFFFFFFFFFFFFFFFFFFFFFFFF AND MUL OR SWAP1 SSTORE POP POP JUMP JUMPDEST PUSH1 0x6 PUSH1 0x0 SWAP1 SLOAD SWAP1 PUSH2 0x100 EXP SWAP1 DIV PUSH20 0xFFFFFFFFFFFFFFFFFFFFFFFFFFFFFFFFFFFFFFFF AND DUP2 JUMP JUMPDEST PUSH2 0x3EB PUSH2 0x145E JUMP JUMPDEST DUP1 PUSH1 0x7 PUSH1 0x0 PUSH2 0x100 EXP DUP2 SLOAD DUP2 PUSH20 0xFFFFFFFFFFFFFFFFFFFFFFFFFFFFFFFFFFFFFFFF MUL NOT AND SWAP1 DUP4 PUSH20 0xFFFFFFFFFFFFFFFFFFFFFFFFFFFFFFFFFFFFFFFF AND MUL OR SWAP1 SSTORE POP POP JUMP JUMPDEST PUSH1 0x8 PUSH1 0x0 SWAP1 SLOAD SWAP1 PUSH2 0x100 EXP SWAP1 DIV PUSH20 0xFFFFFFFFFFFFFFFFFFFFFFFFFFFFFFFFFFFFFFFF AND DUP2 JUMP JUMPDEST PUSH2 0x45D PUSH2 0x145E JUMP JUMPDEST PUSH1 0x0 PUSH20 0xFFFFFFFFFFFFFFFFFFFFFFFFFFFFFFFFFFFFFFFF AND PUSH1 0x3 PUSH1 0x0 SWAP1 SLOAD SWAP1 PUSH2 0x100 EXP SWAP1 DIV PUSH20 0xFFFFFFFFFFFFFFFFFFFFFFFFFFFFFFFFFFFFFFFF AND PUSH20 0xFFFFFFFFFFFFFFFFFFFFFFFFFFFFFFFFFFFFFFFF AND EQ ISZERO DUP1 ISZERO PUSH2 0x50B JUMPI POP PUSH1 0x0 PUSH20 0xFFFFFFFFFFFFFFFFFFFFFFFFFFFFFFFFFFFFFFFF AND PUSH1 0x4 PUSH1 0x0 SWAP1 SLOAD SWAP1 PUSH2 0x100 EXP SWAP1 DIV PUSH20 0xFFFFFFFFFFFFFFFFFFFFFFFFFFFFFFFFFFFFFFFF AND PUSH20 0xFFFFFFFFFFFFFFFFFFFFFFFFFFFFFFFFFFFFFFFF AND EQ ISZERO JUMPDEST DUP1 ISZERO PUSH2 0x566 JUMPI POP PUSH1 0x0 PUSH20 0xFFFFFFFFFFFFFFFFFFFFFFFFFFFFFFFFFFFFFFFF AND PUSH1 0x5 PUSH1 0x0 SWAP1 SLOAD SWAP1 PUSH2 0x100 EXP SWAP1 DIV PUSH20 0xFFFFFFFFFFFFFFFFFFFFFFFFFFFFFFFFFFFFFFFF AND PUSH20 0xFFFFFFFFFFFFFFFFFFFFFFFFFFFFFFFFFFFFFFFF AND EQ ISZERO JUMPDEST DUP1 ISZERO PUSH2 0x5C1 JUMPI POP PUSH1 0x0 PUSH20 0xFFFFFFFFFFFFFFFFFFFFFFFFFFFFFFFFFFFFFFFF AND PUSH1 0x6 PUSH1 0x0 SWAP1 SLOAD SWAP1 PUSH2 0x100 EXP SWAP1 DIV PUSH20 0xFFFFFFFFFFFFFFFFFFFFFFFFFFFFFFFFFFFFFFFF AND PUSH20 0xFFFFFFFFFFFFFFFFFFFFFFFFFFFFFFFFFFFFFFFF AND EQ ISZERO JUMPDEST DUP1 ISZERO PUSH2 0x61C JUMPI POP PUSH1 0x0 PUSH20 0xFFFFFFFFFFFFFFFFFFFFFFFFFFFFFFFFFFFFFFFF AND PUSH1 0x7 PUSH1 0x0 SWAP1 SLOAD SWAP1 PUSH2 0x100 EXP SWAP1 DIV PUSH20 0xFFFFFFFFFFFFFFFFFFFFFFFFFFFFFFFFFFFFFFFF AND PUSH20 0xFFFFFFFFFFFFFFFFFFFFFFFFFFFFFFFFFFFFFFFF AND EQ ISZERO JUMPDEST DUP1 ISZERO PUSH2 0x677 JUMPI POP PUSH1 0x0 PUSH20 0xFFFFFFFFFFFFFFFFFFFFFFFFFFFFFFFFFFFFFFFF AND PUSH1 0x8 PUSH1 0x0 SWAP1 SLOAD SWAP1 PUSH2 0x100 EXP SWAP1 DIV PUSH20 0xFFFFFFFFFFFFFFFFFFFFFFFFFFFFFFFFFFFFFFFF AND PUSH20 0xFFFFFFFFFFFFFFFFFFFFFFFFFFFFFFFFFFFFFFFF AND EQ ISZERO JUMPDEST PUSH2 0x6B6 JUMPI PUSH1 0x40 MLOAD PUSH32 0x8C379A000000000000000000000000000000000000000000000000000000000 DUP2 MSTORE PUSH1 0x4 ADD PUSH2 0x6AD SWAP1 PUSH2 0x1B3A JUMP JUMPDEST PUSH1 0x40 MLOAD DUP1 SWAP2 SUB SWAP1 REVERT JUMPDEST PUSH1 0x0 PUSH2 0x6E3 PUSH1 0x3 PUSH1 0x0 SWAP1 SLOAD SWAP1 PUSH2 0x100 EXP SWAP1 DIV PUSH20 0xFFFFFFFFFFFFFFFFFFFFFFFFFFFFFFFFFFFFFFFF AND PUSH2 0x14DC JUMP JUMPDEST SWAP1 POP DUP1 PUSH20 0xFFFFFFFFFFFFFFFFFFFFFFFFFFFFFFFFFFFFFFFF AND PUSH4 0xA6AB36F2 DUP10 DUP10 CALLER PUSH1 0x40 MLOAD DUP5 PUSH4 0xFFFFFFFF AND PUSH1 0xE0 SHL DUP2 MSTORE PUSH1 0x4 ADD PUSH2 0x722 SWAP4 SWAP3 SWAP2 SWAP1 PUSH2 0x1B95 JUMP JUMPDEST PUSH1 0x0 PUSH1 0x40 MLOAD DUP1 DUP4 SUB DUP2 PUSH1 0x0 DUP8 DUP1 EXTCODESIZE ISZERO DUP1 ISZERO PUSH2 0x73C JUMPI PUSH1 0x0 DUP1 REVERT JUMPDEST POP GAS CALL ISZERO DUP1 ISZERO PUSH2 0x750 JUMPI RETURNDATASIZE PUSH1 0x0 DUP1 RETURNDATACOPY RETURNDATASIZE PUSH1 0x0 REVERT JUMPDEST POP POP POP POP PUSH1 0x0 PUSH2 0x781 PUSH1 0x4 PUSH1 0x0 SWAP1 SLOAD SWAP1 PUSH2 0x100 EXP SWAP1 DIV PUSH20 0xFFFFFFFFFFFFFFFFFFFFFFFFFFFFFFFFFFFFFFFF AND PUSH2 0x14DC JUMP JUMPDEST SWAP1 POP DUP1 PUSH20 0xFFFFFFFFFFFFFFFFFFFFFFFFFFFFFFFFFFFFFFFF AND PUSH4 0x362925C2 DUP4 CALLER DUP11 DUP11 PUSH1 0x7 PUSH1 0x0 SWAP1 SLOAD SWAP1 PUSH2 0x100 EXP SWAP1 DIV PUSH20 0xFFFFFFFFFFFFFFFFFFFFFFFFFFFFFFFFFFFFFFFF AND PUSH1 0x40 MLOAD DUP7 PUSH4 0xFFFFFFFF AND PUSH1 0xE0 SHL DUP2 MSTORE PUSH1 0x4 ADD PUSH2 0x7E6 SWAP6 SWAP5 SWAP4 SWAP3 SWAP2 SWAP1 PUSH2 0x1A28 JUMP JUMPDEST PUSH1 0x0 PUSH1 0x40 MLOAD DUP1 DUP4 SUB DUP2 PUSH1 0x0 DUP8 DUP1 EXTCODESIZE ISZERO DUP1 ISZERO PUSH2 0x800 JUMPI PUSH1 0x0 DUP1 REVERT JUMPDEST POP GAS CALL ISZERO DUP1 ISZERO PUSH2 0x814 JUMPI RETURNDATASIZE PUSH1 0x0 DUP1 RETURNDATACOPY RETURNDATASIZE PUSH1 0x0 REVERT JUMPDEST POP POP POP POP DUP2 PUSH20 0xFFFFFFFFFFFFFFFFFFFFFFFFFFFFFFFFFFFFFFFF AND PUSH4 0x77D2E24B DUP3 PUSH1 0x40 MLOAD DUP3 PUSH4 0xFFFFFFFF AND PUSH1 0xE0 SHL DUP2 MSTORE PUSH1 0x4 ADD PUSH2 0x851 SWAP2 SWAP1 PUSH2 0x199F JUMP JUMPDEST PUSH1 0x0 PUSH1 0x40 MLOAD DUP1 DUP4 SUB DUP2 PUSH1 0x0 DUP8 DUP1 EXTCODESIZE ISZERO DUP1 ISZERO PUSH2 0x86B JUMPI PUSH1 0x0 DUP1 REVERT JUMPDEST POP GAS CALL ISZERO DUP1 ISZERO PUSH2 0x87F JUMPI RETURNDATASIZE PUSH1 0x0 DUP1 RETURNDATACOPY RETURNDATASIZE PUSH1 0x0 REVERT JUMPDEST POP POP POP POP PUSH1 0x0 PUSH2 0x8B0 PUSH1 0x5 PUSH1 0x0 SWAP1 SLOAD SWAP1 PUSH2 0x100 EXP SWAP1 DIV PUSH20 0xFFFFFFFFFFFFFFFFFFFFFFFFFFFFFFFFFFFFFFFF AND PUSH2 0x14DC JUMP JUMPDEST SWAP1 POP DUP1 PUSH20 0xFFFFFFFFFFFFFFFFFFFFFFFFFFFFFFFFFFFFFFFF AND PUSH4 0x650B4F8B DUP5 DUP9 DUP9 CALLER DUP10 CALLER PUSH1 0x40 MLOAD DUP8 PUSH4 0xFFFFFFFF AND PUSH1 0xE0 SHL DUP2 MSTORE PUSH1 0x4 ADD PUSH2 0x8F5 SWAP7 SWAP6 SWAP5 SWAP4 SWAP3 SWAP2 SWAP1 PUSH2 0x1A89 JUMP JUMPDEST PUSH1 0x0 PUSH1 0x40 MLOAD DUP1 DUP4 SUB DUP2 PUSH1 0x0 DUP8 DUP1 EXTCODESIZE ISZERO DUP1 ISZERO PUSH2 0x90F JUMPI PUSH1 0x0 DUP1 REVERT JUMPDEST POP GAS CALL ISZERO DUP1 ISZERO PUSH2 0x923 JUMPI RETURNDATASIZE PUSH1 0x0 DUP1 RETURNDATACOPY RETURNDATASIZE PUSH1 0x0 REVERT JUMPDEST POP POP POP POP DUP3 PUSH20 0xFFFFFFFFFFFFFFFFFFFFFFFFFFFFFFFFFFFFFFFF AND PUSH4 0x6EC13680 DUP3 PUSH1 0x40 MLOAD DUP3 PUSH4 0xFFFFFFFF AND PUSH1 0xE0 SHL DUP2 MSTORE PUSH1 0x4 ADD PUSH2 0x960 SWAP2 SWAP1 PUSH2 0x199F JUMP JUMPDEST PUSH1 0x0 PUSH1 0x40 MLOAD DUP1 DUP4 SUB DUP2 PUSH1 0x0 DUP8 DUP1 EXTCODESIZE ISZERO DUP1 ISZERO PUSH2 0x97A JUMPI PUSH1 0x0 DUP1 REVERT JUMPDEST POP GAS CALL ISZERO DUP1 ISZERO PUSH2 0x98E JUMPI RETURNDATASIZE PUSH1 0x0 DUP1 RETURNDATACOPY RETURNDATASIZE PUSH1 0x0 REVERT JUMPDEST POP POP POP POP PUSH1 0x0 PUSH2 0x9BF PUSH1 0x6 PUSH1 0x0 SWAP1 SLOAD SWAP1 PUSH2 0x100 EXP SWAP1 DIV PUSH20 0xFFFFFFFFFFFFFFFFFFFFFFFFFFFFFFFFFFFFFFFF AND PUSH2 0x14DC JUMP JUMPDEST SWAP1 POP DUP1 PUSH20 0xFFFFFFFFFFFFFFFFFFFFFFFFFFFFFFFFFFFFFFFF AND PUSH4 0x485CC955 DUP6 CALLER PUSH1 0x40 MLOAD DUP4 PUSH4 0xFFFFFFFF AND PUSH1 0xE0 SHL DUP2 MSTORE PUSH1 0x4 ADD PUSH2 0x9FC SWAP3 SWAP2 SWAP1 PUSH2 0x19BA JUMP JUMPDEST PUSH1 0x0 PUSH1 0x40 MLOAD DUP1 DUP4 SUB DUP2 PUSH1 0x0 DUP8 DUP1 EXTCODESIZE ISZERO DUP1 ISZERO PUSH2 0xA16 JUMPI PUSH1 0x0 DUP1 REVERT JUMPDEST POP GAS CALL ISZERO DUP1 ISZERO PUSH2 0xA2A JUMPI RETURNDATASIZE PUSH1 0x0 DUP1 RETURNDATACOPY RETURNDATASIZE PUSH1 0x0 REVERT JUMPDEST POP POP POP POP DUP4 PUSH20 0xFFFFFFFFFFFFFFFFFFFFFFFFFFFFFFFFFFFFFFFF AND PUSH4 0x9664AFE DUP3 PUSH1 0x40 MLOAD DUP3 PUSH4 0xFFFFFFFF AND PUSH1 0xE0 SHL DUP2 MSTORE PUSH1 0x4 ADD PUSH2 0xA67 SWAP2 SWAP1 PUSH2 0x199F JUMP JUMPDEST PUSH1 0x0 PUSH1 0x40 MLOAD DUP1 DUP4 SUB DUP2 PUSH1 0x0 DUP8 DUP1 EXTCODESIZE ISZERO DUP1 ISZERO PUSH2 0xA81 JUMPI PUSH1 0x0 DUP1 REVERT JUMPDEST POP GAS CALL ISZERO DUP1 ISZERO PUSH2 0xA95 JUMPI RETURNDATASIZE PUSH1 0x0 DUP1 RETURNDATACOPY RETURNDATASIZE PUSH1 0x0 REVERT JUMPDEST POP POP POP POP PUSH1 0x0 PUSH2 0xAC6 PUSH1 0x8 PUSH1 0x0 SWAP1 SLOAD SWAP1 PUSH2 0x100 EXP SWAP1 DIV PUSH20 0xFFFFFFFFFFFFFFFFFFFFFFFFFFFFFFFFFFFFFFFF AND PUSH2 0x14DC JUMP JUMPDEST SWAP1 POP DUP1 PUSH20 0xFFFFFFFFFFFFFFFFFFFFFFFFFFFFFFFFFFFFFFFF AND PUSH4 0xF8C8765E DUP7 DUP7 DUP6 DUP8 PUSH1 0x40 MLOAD DUP6 PUSH4 0xFFFFFFFF AND PUSH1 0xE0 SHL DUP2 MSTORE PUSH1 0x4 ADD PUSH2 0xB07 SWAP5 SWAP4 SWAP3 SWAP2 SWAP1 PUSH2 0x19E3 JUMP JUMPDEST PUSH1 0x0 PUSH1 0x40 MLOAD DUP1 DUP4 SUB DUP2 PUSH1 0x0 DUP8 DUP1 EXTCODESIZE ISZERO DUP1 ISZERO PUSH2 0xB21 JUMPI PUSH1 0x0 DUP1 REVERT JUMPDEST POP GAS CALL ISZERO DUP1 ISZERO PUSH2 0xB35 JUMPI RETURNDATASIZE PUSH1 0x0 DUP1 RETURNDATACOPY RETURNDATASIZE PUSH1 0x0 REVERT JUMPDEST POP POP POP POP DUP5 PUSH20 0xFFFFFFFFFFFFFFFFFFFFFFFFFFFFFFFFFFFFFFFF AND PUSH4 0x3EC9807B DUP3 PUSH1 0x40 MLOAD DUP3 PUSH4 0xFFFFFFFF AND PUSH1 0xE0 SHL DUP2 MSTORE PUSH1 0x4 ADD PUSH2 0xB72 SWAP2 SWAP1 PUSH2 0x199F JUMP JUMPDEST PUSH1 0x0 PUSH1 0x40 MLOAD DUP1 DUP4 SUB DUP2 PUSH1 0x0 DUP8 DUP1 EXTCODESIZE ISZERO DUP1 ISZERO PUSH2 0xB8C JUMPI PUSH1 0x0 DUP1 REVERT JUMPDEST POP GAS CALL ISZERO DUP1 ISZERO PUSH2 0xBA0 JUMPI RETURNDATASIZE PUSH1 0x0 DUP1 RETURNDATACOPY RETURNDATASIZE PUSH1 0x0 REVERT JUMPDEST POP POP POP POP DUP5 PUSH1 0x1 PUSH1 0x0 PUSH1 0x2 SLOAD DUP2 MSTORE PUSH1 0x20 ADD SWAP1 DUP2 MSTORE PUSH1 0x20 ADD PUSH1 0x0 KECCAK256 PUSH1 0x0 PUSH2 0x100 EXP DUP2 SLOAD DUP2 PUSH20 0xFFFFFFFFFFFFFFFFFFFFFFFFFFFFFFFFFFFFFFFF MUL NOT AND SWAP1 DUP4 PUSH20 0xFFFFFFFFFFFFFFFFFFFFFFFFFFFFFFFFFFFFFFFF AND MUL OR SWAP1 SSTORE POP PUSH1 0x1 PUSH1 0x2 PUSH1 0x0 DUP3 DUP3 SLOAD PUSH2 0xC0B SWAP2 SWAP1 PUSH2 0x1C77 JUMP JUMPDEST SWAP3 POP POP DUP2 SWAP1 SSTORE POP POP POP POP POP POP POP POP POP POP POP POP POP JUMP JUMPDEST PUSH1 0x2 SLOAD DUP2 JUMP JUMPDEST PUSH2 0xC2E PUSH2 0x145E JUMP JUMPDEST DUP1 PUSH1 0x5 PUSH1 0x0 PUSH2 0x100 EXP DUP2 SLOAD DUP2 PUSH20 0xFFFFFFFFFFFFFFFFFFFFFFFFFFFFFFFFFFFFFFFF MUL NOT AND SWAP1 DUP4 PUSH20 0xFFFFFFFFFFFFFFFFFFFFFFFFFFFFFFFFFFFFFFFF AND MUL OR SWAP1 SSTORE POP POP JUMP JUMPDEST PUSH2 0xC7A PUSH2 0x145E JUMP JUMPDEST PUSH2 0xC84 PUSH1 0x0 PUSH2 0x1546 JUMP JUMPDEST JUMP JUMPDEST PUSH2 0xC8E PUSH2 0x145E JUMP JUMPDEST DUP1 PUSH1 0x8 PUSH1 0x0 PUSH2 0x100 EXP DUP2 SLOAD DUP2 PUSH20 0xFFFFFFFFFFFFFFFFFFFFFFFFFFFFFFFFFFFFFFFF MUL NOT AND SWAP1 DUP4 PUSH20 0xFFFFFFFFFFFFFFFFFFFFFFFFFFFFFFFFFFFFFFFF AND MUL OR SWAP1 SSTORE POP POP JUMP JUMPDEST PUSH1 0x0 DUP1 PUSH1 0x0 SWAP1 SLOAD SWAP1 PUSH2 0x100 EXP SWAP1 DIV PUSH20 0xFFFFFFFFFFFFFFFFFFFFFFFFFFFFFFFFFFFFFFFF AND SWAP1 POP SWAP1 JUMP JUMPDEST PUSH1 0x60 PUSH1 0x0 PUSH1 0x6 PUSH8 0xFFFFFFFFFFFFFFFF DUP2 GT ISZERO PUSH2 0xD1A JUMPI PUSH2 0xD19 PUSH2 0x1DDA JUMP JUMPDEST JUMPDEST PUSH1 0x40 MLOAD SWAP1 DUP1 DUP3 MSTORE DUP1 PUSH1 0x20 MUL PUSH1 0x20 ADD DUP3 ADD PUSH1 0x40 MSTORE DUP1 ISZERO PUSH2 0xD48 JUMPI DUP2 PUSH1 0x20 ADD PUSH1 0x20 DUP3 MUL DUP1 CALLDATASIZE DUP4 CALLDATACOPY DUP1 DUP3 ADD SWAP2 POP POP SWAP1 POP JUMPDEST POP SWAP1 POP PUSH1 0x0 PUSH20 0xFFFFFFFFFFFFFFFFFFFFFFFFFFFFFFFFFFFFFFFF AND PUSH1 0x1 PUSH1 0x0 DUP6 DUP2 MSTORE PUSH1 0x20 ADD SWAP1 DUP2 MSTORE PUSH1 0x20 ADD PUSH1 0x0 KECCAK256 PUSH1 0x0 SWAP1 SLOAD SWAP1 PUSH2 0x100 EXP SWAP1 DIV PUSH20 0xFFFFFFFFFFFFFFFFFFFFFFFFFFFFFFFFFFFFFFFF AND PUSH20 0xFFFFFFFFFFFFFFFFFFFFFFFFFFFFFFFFFFFFFFFF AND EQ PUSH2 0x12ED JUMPI PUSH1 0x0 PUSH1 0x1 PUSH1 0x0 DUP6 DUP2 MSTORE PUSH1 0x20 ADD SWAP1 DUP2 MSTORE PUSH1 0x20 ADD PUSH1 0x0 KECCAK256 PUSH1 0x0 SWAP1 SLOAD SWAP1 PUSH2 0x100 EXP SWAP1 DIV PUSH20 0xFFFFFFFFFFFFFFFFFFFFFFFFFFFFFFFFFFFFFFFF AND SWAP1 POP PUSH1 0x1 PUSH1 0x0 DUP6 DUP2 MSTORE PUSH1 0x20 ADD SWAP1 DUP2 MSTORE PUSH1 0x20 ADD PUSH1 0x0 KECCAK256 PUSH1 0x0 SWAP1 SLOAD SWAP1 PUSH2 0x100 EXP SWAP1 DIV PUSH20 0xFFFFFFFFFFFFFFFFFFFFFFFFFFFFFFFFFFFFFFFF AND DUP3 PUSH1 0x0 DUP2 MLOAD DUP2 LT PUSH2 0xE32 JUMPI PUSH2 0xE31 PUSH2 0x1DAB JUMP JUMPDEST JUMPDEST PUSH1 0x20 MUL PUSH1 0x20 ADD ADD SWAP1 PUSH20 0xFFFFFFFFFFFFFFFFFFFFFFFFFFFFFFFFFFFFFFFF AND SWAP1 DUP2 PUSH20 0xFFFFFFFFFFFFFFFFFFFFFFFFFFFFFFFFFFFFFFFF AND DUP2 MSTORE POP POP DUP1 PUSH20 0xFFFFFFFFFFFFFFFFFFFFFFFFFFFFFFFFFFFFFFFF AND PUSH4 0x8C17A4A PUSH1 0x40 MLOAD DUP2 PUSH4 0xFFFFFFFF AND PUSH1 0xE0 SHL DUP2 MSTORE PUSH1 0x4 ADD PUSH1 0x20 PUSH1 0x40 MLOAD DUP1 DUP4 SUB DUP2 DUP7 DUP1 EXTCODESIZE ISZERO DUP1 ISZERO PUSH2 0xEB2 JUMPI PUSH1 0x0 DUP1 REVERT JUMPDEST POP GAS STATICCALL ISZERO DUP1 ISZERO PUSH2 0xEC6 JUMPI RETURNDATASIZE PUSH1 0x0 DUP1 RETURNDATACOPY RETURNDATASIZE PUSH1 0x0 REVERT JUMPDEST POP POP POP POP PUSH1 0x40 MLOAD RETURNDATASIZE PUSH1 0x1F NOT PUSH1 0x1F DUP3 ADD AND DUP3 ADD DUP1 PUSH1 0x40 MSTORE POP DUP2 ADD SWAP1 PUSH2 0xEEA SWAP2 SWAP1 PUSH2 0x16EE JUMP JUMPDEST DUP3 PUSH1 0x1 DUP2 MLOAD DUP2 LT PUSH2 0xEFE JUMPI PUSH2 0xEFD PUSH2 0x1DAB JUMP JUMPDEST JUMPDEST PUSH1 0x20 MUL PUSH1 0x20 ADD ADD SWAP1 PUSH20 0xFFFFFFFFFFFFFFFFFFFFFFFFFFFFFFFFFFFFFFFF AND SWAP1 DUP2 PUSH20 0xFFFFFFFFFFFFFFFFFFFFFFFFFFFFFFFFFFFFFFFF AND DUP2 MSTORE POP POP DUP1 PUSH20 0xFFFFFFFFFFFFFFFFFFFFFFFFFFFFFFFFFFFFFFFF AND PUSH4 0xD1D25FAB PUSH1 0x40 MLOAD DUP2 PUSH4 0xFFFFFFFF AND PUSH1 0xE0 SHL DUP2 MSTORE PUSH1 0x4 ADD PUSH1 0x20 PUSH1 0x40 MLOAD DUP1 DUP4 SUB DUP2 DUP7 DUP1 EXTCODESIZE ISZERO DUP1 ISZERO PUSH2 0xF7E JUMPI PUSH1 0x0 DUP1 REVERT JUMPDEST POP GAS STATICCALL ISZERO DUP1 ISZERO PUSH2 0xF92 JUMPI RETURNDATASIZE PUSH1 0x0 DUP1 RETURNDATACOPY RETURNDATASIZE PUSH1 0x0 REVERT JUMPDEST POP POP POP POP PUSH1 0x40 MLOAD RETURNDATASIZE PUSH1 0x1F NOT PUSH1 0x1F DUP3 ADD AND DUP3 ADD DUP1 PUSH1 0x40 MSTORE POP DUP2 ADD SWAP1 PUSH2 0xFB6 SWAP2 SWAP1 PUSH2 0x16EE JUMP JUMPDEST DUP3 PUSH1 0x2 DUP2 MLOAD DUP2 LT PUSH2 0xFCA JUMPI PUSH2 0xFC9 PUSH2 0x1DAB JUMP JUMPDEST JUMPDEST PUSH1 0x20 MUL PUSH1 0x20 ADD ADD SWAP1 PUSH20 0xFFFFFFFFFFFFFFFFFFFFFFFFFFFFFFFFFFFFFFFF AND SWAP1 DUP2 PUSH20 0xFFFFFFFFFFFFFFFFFFFFFFFFFFFFFFFFFFFFFFFF AND DUP2 MSTORE POP POP DUP1 PUSH20 0xFFFFFFFFFFFFFFFFFFFFFFFFFFFFFFFFFFFFFFFF AND PUSH4 0x7015E95E PUSH1 0x40 MLOAD DUP2 PUSH4 0xFFFFFFFF AND PUSH1 0xE0 SHL DUP2 MSTORE PUSH1 0x4 ADD PUSH1 0x20 PUSH1 0x40 MLOAD DUP1 DUP4 SUB DUP2 DUP7 DUP1 EXTCODESIZE ISZERO DUP1 ISZERO PUSH2 0x104A JUMPI PUSH1 0x0 DUP1 REVERT JUMPDEST POP GAS STATICCALL ISZERO DUP1 ISZERO PUSH2 0x105E JUMPI RETURNDATASIZE PUSH1 0x0 DUP1 RETURNDATACOPY RETURNDATASIZE PUSH1 0x0 REVERT JUMPDEST POP POP POP POP PUSH1 0x40 MLOAD RETURNDATASIZE PUSH1 0x1F NOT PUSH1 0x1F DUP3 ADD AND DUP3 ADD DUP1 PUSH1 0x40 MSTORE POP DUP2 ADD SWAP1 PUSH2 0x1082 SWAP2 SWAP1 PUSH2 0x16EE JUMP JUMPDEST DUP3 PUSH1 0x3 DUP2 MLOAD DUP2 LT PUSH2 0x1096 JUMPI PUSH2 0x1095 PUSH2 0x1DAB JUMP JUMPDEST JUMPDEST PUSH1 0x20 MUL PUSH1 0x20 ADD ADD SWAP1 PUSH20 0xFFFFFFFFFFFFFFFFFFFFFFFFFFFFFFFFFFFFFFFF AND SWAP1 DUP2 PUSH20 0xFFFFFFFFFFFFFFFFFFFFFFFFFFFFFFFFFFFFFFFF AND DUP2 MSTORE POP POP DUP1 PUSH20 0xFFFFFFFFFFFFFFFFFFFFFFFFFFFFFFFFFFFFFFFF AND PUSH4 0xBF109025 PUSH1 0x40 MLOAD DUP2 PUSH4 0xFFFFFFFF AND PUSH1 0xE0 SHL DUP2 MSTORE PUSH1 0x4 ADD PUSH1 0x20 PUSH1 0x40 MLOAD DUP1 DUP4 SUB DUP2 DUP7 DUP1 EXTCODESIZE ISZERO DUP1 ISZERO PUSH2 0x1116 JUMPI PUSH1 0x0 DUP1 REVERT JUMPDEST POP GAS STATICCALL ISZERO DUP1 ISZERO PUSH2 0x112A JUMPI RETURNDATASIZE PUSH1 0x0 DUP1 RETURNDATACOPY RETURNDATASIZE PUSH1 0x0 REVERT JUMPDEST POP POP POP POP PUSH1 0x40 MLOAD RETURNDATASIZE PUSH1 0x1F NOT PUSH1 0x1F DUP3 ADD AND DUP3 ADD DUP1 PUSH1 0x40 MSTORE POP DUP2 ADD SWAP1 PUSH2 0x114E SWAP2 SWAP1 PUSH2 0x16EE JUMP JUMPDEST DUP3 PUSH1 0x4 DUP2 MLOAD DUP2 LT PUSH2 0x1162 JUMPI PUSH2 0x1161 PUSH2 0x1DAB JUMP JUMPDEST JUMPDEST PUSH1 0x20 MUL PUSH1 0x20 ADD ADD SWAP1 PUSH20 0xFFFFFFFFFFFFFFFFFFFFFFFFFFFFFFFFFFFFFFFF AND SWAP1 DUP2 PUSH20 0xFFFFFFFFFFFFFFFFFFFFFFFFFFFFFFFFFFFFFFFF AND DUP2 MSTORE POP POP PUSH1 0x0 DUP2 PUSH20 0xFFFFFFFFFFFFFFFFFFFFFFFFFFFFFFFFFFFFFFFF AND PUSH4 0x8C17A4A PUSH1 0x40 MLOAD DUP2 PUSH4 0xFFFFFFFF AND PUSH1 0xE0 SHL DUP2 MSTORE PUSH1 0x4 ADD PUSH1 0x20 PUSH1 0x40 MLOAD DUP1 DUP4 SUB DUP2 DUP7 DUP1 EXTCODESIZE ISZERO DUP1 ISZERO PUSH2 0x11E4 JUMPI PUSH1 0x0 DUP1 REVERT JUMPDEST POP GAS STATICCALL ISZERO DUP1 ISZERO PUSH2 0x11F8 JUMPI RETURNDATASIZE PUSH1 0x0 DUP1 RETURNDATACOPY RETURNDATASIZE PUSH1 0x0 REVERT JUMPDEST POP POP POP POP PUSH1 0x40 MLOAD RETURNDATASIZE PUSH1 0x1F NOT PUSH1 0x1F DUP3 ADD AND DUP3 ADD DUP1 PUSH1 0x40 MSTORE POP DUP2 ADD SWAP1 PUSH2 0x121C SWAP2 SWAP1 PUSH2 0x16EE JUMP JUMPDEST SWAP1 POP DUP1 PUSH20 0xFFFFFFFFFFFFFFFFFFFFFFFFFFFFFFFFFFFFFFFF AND PUSH4 0xB28F3B8E PUSH1 0x40 MLOAD DUP2 PUSH4 0xFFFFFFFF AND PUSH1 0xE0 SHL DUP2 MSTORE PUSH1 0x4 ADD PUSH1 0x20 PUSH1 0x40 MLOAD DUP1 DUP4 SUB DUP2 DUP7 DUP1 EXTCODESIZE ISZERO DUP1 ISZERO PUSH2 0x1264 JUMPI PUSH1 0x0 DUP1 REVERT JUMPDEST POP GAS STATICCALL ISZERO DUP1 ISZERO PUSH2 0x1278 JUMPI RETURNDATASIZE PUSH1 0x0 DUP1 RETURNDATACOPY RETURNDATASIZE PUSH1 0x0 REVERT JUMPDEST POP POP POP POP PUSH1 0x40 MLOAD RETURNDATASIZE PUSH1 0x1F NOT PUSH1 0x1F DUP3 ADD AND DUP3 ADD DUP1 PUSH1 0x40 MSTORE POP DUP2 ADD SWAP1 PUSH2 0x129C SWAP2 SWAP1 PUSH2 0x16EE JUMP JUMPDEST DUP4 PUSH1 0x5 DUP2 MLOAD DUP2 LT PUSH2 0x12B0 JUMPI PUSH2 0x12AF PUSH2 0x1DAB JUMP JUMPDEST JUMPDEST PUSH1 0x20 MUL PUSH1 0x20 ADD ADD SWAP1 PUSH20 0xFFFFFFFFFFFFFFFFFFFFFFFFFFFFFFFFFFFFFFFF AND SWAP1 DUP2 PUSH20 0xFFFFFFFFFFFFFFFFFFFFFFFFFFFFFFFFFFFFFFFF AND DUP2 MSTORE POP POP POP POP JUMPDEST DUP1 SWAP2 POP POP SWAP2 SWAP1 POP JUMP JUMPDEST PUSH2 0x12FE PUSH2 0x145E JUMP JUMPDEST DUP1 PUSH1 0x4 PUSH1 0x0 PUSH2 0x100 EXP DUP2 SLOAD DUP2 PUSH20 0xFFFFFFFFFFFFFFFFFFFFFFFFFFFFFFFFFFFFFFFF MUL NOT AND SWAP1 DUP4 PUSH20 0xFFFFFFFFFFFFFFFFFFFFFFFFFFFFFFFFFFFFFFFF AND MUL OR SWAP1 SSTORE POP POP JUMP JUMPDEST PUSH1 0x7 PUSH1 0x0 SWAP1 SLOAD SWAP1 PUSH2 0x100 EXP SWAP1 DIV PUSH20 0xFFFFFFFFFFFFFFFFFFFFFFFFFFFFFFFFFFFFFFFF AND DUP2 JUMP JUMPDEST PUSH1 0x5 PUSH1 0x0 SWAP1 SLOAD SWAP1 PUSH2 0x100 EXP SWAP1 DIV PUSH20 0xFFFFFFFFFFFFFFFFFFFFFFFFFFFFFFFFFFFFFFFF AND DUP2 JUMP JUMPDEST PUSH1 0x4 PUSH1 0x0 SWAP1 SLOAD SWAP1 PUSH2 0x100 EXP SWAP1 DIV PUSH20 0xFFFFFFFFFFFFFFFFFFFFFFFFFFFFFFFFFFFFFFFF AND DUP2 JUMP JUMPDEST PUSH1 0x3 PUSH1 0x0 SWAP1 SLOAD SWAP1 PUSH2 0x100 EXP SWAP1 DIV PUSH20 0xFFFFFFFFFFFFFFFFFFFFFFFFFFFFFFFFFFFFFFFF AND DUP2 JUMP JUMPDEST PUSH2 0x13E2 PUSH2 0x145E JUMP JUMPDEST PUSH1 0x0 PUSH20 0xFFFFFFFFFFFFFFFFFFFFFFFFFFFFFFFFFFFFFFFF AND DUP2 PUSH20 0xFFFFFFFFFFFFFFFFFFFFFFFFFFFFFFFFFFFFFFFF AND EQ ISZERO PUSH2 0x1452 JUMPI PUSH1 0x40 MLOAD PUSH32 0x8C379A000000000000000000000000000000000000000000000000000000000 DUP2 MSTORE PUSH1 0x4 ADD PUSH2 0x1449 SWAP1 PUSH2 0x1B1A JUMP JUMPDEST PUSH1 0x40 MLOAD DUP1 SWAP2 SUB SWAP1 REVERT JUMPDEST PUSH2 0x145B DUP2 PUSH2 0x1546 JUMP JUMPDEST POP JUMP JUMPDEST PUSH2 0x1466 PUSH2 0x160A JUMP JUMPDEST PUSH20 0xFFFFFFFFFFFFFFFFFFFFFFFFFFFFFFFFFFFFFFFF AND PUSH2 0x1484 PUSH2 0xCD2 JUMP JUMPDEST PUSH20 0xFFFFFFFFFFFFFFFFFFFFFFFFFFFFFFFFFFFFFFFF AND EQ PUSH2 0x14DA JUMPI PUSH1 0x40 MLOAD PUSH32 0x8C379A000000000000000000000000000000000000000000000000000000000 DUP2 MSTORE PUSH1 0x4 ADD PUSH2 0x14D1 SWAP1 PUSH2 0x1B5A JUMP JUMPDEST PUSH1 0x40 MLOAD DUP1 SWAP2 SUB SWAP1 REVERT JUMPDEST JUMP JUMPDEST PUSH1 0x0 DUP1 DUP3 PUSH1 0x60 SHL SWAP1 POP PUSH1 0x40 MLOAD PUSH32 0x3D602D80600A3D3981F3363D3D373D3D3D363D73000000000000000000000000 DUP2 MSTORE DUP2 PUSH1 0x14 DUP3 ADD MSTORE PUSH32 0x5AF43D82803E903D91602B57FD5BF30000000000000000000000000000000000 PUSH1 0x28 DUP3 ADD MSTORE PUSH1 0x37 DUP2 PUSH1 0x0 CREATE SWAP3 POP POP POP SWAP2 SWAP1 POP JUMP JUMPDEST PUSH1 0x0 DUP1 PUSH1 0x0 SWAP1 SLOAD SWAP1 PUSH2 0x100 EXP SWAP1 DIV PUSH20 0xFFFFFFFFFFFFFFFFFFFFFFFFFFFFFFFFFFFFFFFF AND SWAP1 POP DUP2 PUSH1 0x0 DUP1 PUSH2 0x100 EXP DUP2 SLOAD DUP2 PUSH20 0xFFFFFFFFFFFFFFFFFFFFFFFFFFFFFFFFFFFFFFFF MUL NOT AND SWAP1 DUP4 PUSH20 0xFFFFFFFFFFFFFFFFFFFFFFFFFFFFFFFFFFFFFFFF AND MUL OR SWAP1 SSTORE POP DUP2 PUSH20 0xFFFFFFFFFFFFFFFFFFFFFFFFFFFFFFFFFFFFFFFF AND DUP2 PUSH20 0xFFFFFFFFFFFFFFFFFFFFFFFFFFFFFFFFFFFFFFFF AND PUSH32 0x8BE0079C531659141344CD1FD0A4F28419497F9722A3DAAFE3B4186F6B6457E0 PUSH1 0x40 MLOAD PUSH1 0x40 MLOAD DUP1 SWAP2 SUB SWAP1 LOG3 POP POP JUMP JUMPDEST PUSH1 0x0 CALLER SWAP1 POP SWAP1 JUMP JUMPDEST PUSH1 0x0 PUSH2 0x1625 PUSH2 0x1620 DUP5 PUSH2 0x1BF1 JUMP JUMPDEST PUSH2 0x1BCC JUMP JUMPDEST SWAP1 POP DUP3 DUP2 MSTORE PUSH1 0x20 DUP2 ADD DUP5 DUP5 DUP5 ADD GT ISZERO PUSH2 0x1641 JUMPI PUSH2 0x1640 PUSH2 0x1E0E JUMP JUMPDEST JUMPDEST PUSH2 0x164C DUP5 DUP3 DUP6 PUSH2 0x1D09 JUMP JUMPDEST POP SWAP4 SWAP3 POP POP POP JUMP JUMPDEST PUSH1 0x0 DUP2 CALLDATALOAD SWAP1 POP PUSH2 0x1663 DUP2 PUSH2 0x1ECF JUMP JUMPDEST SWAP3 SWAP2 POP POP JUMP JUMPDEST PUSH1 0x0 DUP2 MLOAD SWAP1 POP PUSH2 0x1678 DUP2 PUSH2 0x1ECF JUMP JUMPDEST SWAP3 SWAP2 POP POP JUMP JUMPDEST PUSH1 0x0 DUP3 PUSH1 0x1F DUP4 ADD SLT PUSH2 0x1693 JUMPI PUSH2 0x1692 PUSH2 0x1E09 JUMP JUMPDEST JUMPDEST DUP2 CALLDATALOAD PUSH2 0x16A3 DUP5 DUP3 PUSH1 0x20 DUP7 ADD PUSH2 0x1612 JUMP JUMPDEST SWAP2 POP POP SWAP3 SWAP2 POP POP JUMP JUMPDEST PUSH1 0x0 DUP2 CALLDATALOAD SWAP1 POP PUSH2 0x16BB DUP2 PUSH2 0x1EE6 JUMP JUMPDEST SWAP3 SWAP2 POP POP JUMP JUMPDEST PUSH1 0x0 PUSH1 0x20 DUP3 DUP5 SUB SLT ISZERO PUSH2 0x16D7 JUMPI PUSH2 0x16D6 PUSH2 0x1E18 JUMP JUMPDEST JUMPDEST PUSH1 0x0 PUSH2 0x16E5 DUP5 DUP3 DUP6 ADD PUSH2 0x1654 JUMP JUMPDEST SWAP2 POP POP SWAP3 SWAP2 POP POP JUMP JUMPDEST PUSH1 0x0 PUSH1 0x20 DUP3 DUP5 SUB SLT ISZERO PUSH2 0x1704 JUMPI PUSH2 0x1703 PUSH2 0x1E18 JUMP JUMPDEST JUMPDEST PUSH1 0x0 PUSH2 0x1712 DUP5 DUP3 DUP6 ADD PUSH2 0x1669 JUMP JUMPDEST SWAP2 POP POP SWAP3 SWAP2 POP POP JUMP JUMPDEST PUSH1 0x0 PUSH1 0x20 DUP3 DUP5 SUB SLT ISZERO PUSH2 0x1731 JUMPI PUSH2 0x1730 PUSH2 0x1E18 JUMP JUMPDEST JUMPDEST PUSH1 0x0 PUSH2 0x173F DUP5 DUP3 DUP6 ADD PUSH2 0x16AC JUMP JUMPDEST SWAP2 POP POP SWAP3 SWAP2 POP POP JUMP JUMPDEST PUSH1 0x0 DUP1 PUSH1 0x0 DUP1 PUSH1 0x0 DUP1 PUSH1 0x0 PUSH1 0xE0 DUP9 DUP11 SUB SLT ISZERO PUSH2 0x1767 JUMPI PUSH2 0x1766 PUSH2 0x1E18 JUMP JUMPDEST JUMPDEST PUSH1 0x0 PUSH2 0x1775 DUP11 DUP3 DUP12 ADD PUSH2 0x16AC JUMP JUMPDEST SWAP8 POP POP PUSH1 0x20 PUSH2 0x1786 DUP11 DUP3 DUP12 ADD PUSH2 0x16AC JUMP JUMPDEST SWAP7 POP POP PUSH1 0x40 DUP9 ADD CALLDATALOAD PUSH8 0xFFFFFFFFFFFFFFFF DUP2 GT ISZERO PUSH2 0x17A7 JUMPI PUSH2 0x17A6 PUSH2 0x1E13 JUMP JUMPDEST JUMPDEST PUSH2 0x17B3 DUP11 DUP3 DUP12 ADD PUSH2 0x167E JUMP JUMPDEST SWAP6 POP POP PUSH1 0x60 DUP9 ADD CALLDATALOAD PUSH8 0xFFFFFFFFFFFFFFFF DUP2 GT ISZERO PUSH2 0x17D4 JUMPI PUSH2 0x17D3 PUSH2 0x1E13 JUMP JUMPDEST JUMPDEST PUSH2 0x17E0 DUP11 DUP3 DUP12 ADD PUSH2 0x167E JUMP JUMPDEST SWAP5 POP POP PUSH1 0x80 DUP9 ADD CALLDATALOAD PUSH8 0xFFFFFFFFFFFFFFFF DUP2 GT ISZERO PUSH2 0x1801 JUMPI PUSH2 0x1800 PUSH2 0x1E13 JUMP JUMPDEST JUMPDEST PUSH2 0x180D DUP11 DUP3 DUP12 ADD PUSH2 0x167E JUMP JUMPDEST SWAP4 POP POP PUSH1 0xA0 DUP9 ADD CALLDATALOAD PUSH8 0xFFFFFFFFFFFFFFFF DUP2 GT ISZERO PUSH2 0x182E JUMPI PUSH2 0x182D PUSH2 0x1E13 JUMP JUMPDEST JUMPDEST PUSH2 0x183A DUP11 DUP3 DUP12 ADD PUSH2 0x167E JUMP JUMPDEST SWAP3 POP POP PUSH1 0xC0 PUSH2 0x184B DUP11 DUP3 DUP12 ADD PUSH2 0x16AC JUMP JUMPDEST SWAP2 POP POP SWAP3 SWAP6 SWAP9 SWAP2 SWAP5 SWAP8 POP SWAP3 SWAP6 POP JUMP JUMPDEST PUSH1 0x0 PUSH2 0x1866 DUP4 DUP4 PUSH2 0x1872 JUMP JUMPDEST PUSH1 0x20 DUP4 ADD SWAP1 POP SWAP3 SWAP2 POP POP JUMP JUMPDEST PUSH2 0x187B DUP2 PUSH2 0x1CCD JUMP JUMPDEST DUP3 MSTORE POP POP JUMP JUMPDEST PUSH2 0x188A DUP2 PUSH2 0x1CCD JUMP JUMPDEST DUP3 MSTORE POP POP JUMP JUMPDEST PUSH1 0x0 PUSH2 0x189B DUP3 PUSH2 0x1C32 JUMP JUMPDEST PUSH2 0x18A5 DUP2 DUP6 PUSH2 0x1C55 JUMP JUMPDEST SWAP4 POP PUSH2 0x18B0 DUP4 PUSH2 0x1C22 JUMP JUMPDEST DUP1 PUSH1 0x0 JUMPDEST DUP4 DUP2 LT ISZERO PUSH2 0x18E1 JUMPI DUP2 MLOAD PUSH2 0x18C8 DUP9 DUP3 PUSH2 0x185A JUMP JUMPDEST SWAP8 POP PUSH2 0x18D3 DUP4 PUSH2 0x1C48 JUMP JUMPDEST SWAP3 POP POP PUSH1 0x1 DUP2 ADD SWAP1 POP PUSH2 0x18B4 JUMP JUMPDEST POP DUP6 SWAP4 POP POP POP POP SWAP3 SWAP2 POP POP JUMP JUMPDEST PUSH1 0x0 PUSH2 0x18F9 DUP3 PUSH2 0x1C3D JUMP JUMPDEST PUSH2 0x1903 DUP2 DUP6 PUSH2 0x1C66 JUMP JUMPDEST SWAP4 POP PUSH2 0x1913 DUP2 DUP6 PUSH1 0x20 DUP7 ADD PUSH2 0x1D18 JUMP JUMPDEST PUSH2 0x191C DUP2 PUSH2 0x1E1D JUMP JUMPDEST DUP5 ADD SWAP2 POP POP SWAP3 SWAP2 POP POP JUMP JUMPDEST PUSH1 0x0 PUSH2 0x1934 PUSH1 0x26 DUP4 PUSH2 0x1C66 JUMP JUMPDEST SWAP2 POP PUSH2 0x193F DUP3 PUSH2 0x1E2E JUMP JUMPDEST PUSH1 0x40 DUP3 ADD SWAP1 POP SWAP2 SWAP1 POP JUMP JUMPDEST PUSH1 0x0 PUSH2 0x1957 PUSH1 0x17 DUP4 PUSH2 0x1C66 JUMP JUMPDEST SWAP2 POP PUSH2 0x1962 DUP3 PUSH2 0x1E7D JUMP JUMPDEST PUSH1 0x20 DUP3 ADD SWAP1 POP SWAP2 SWAP1 POP JUMP JUMPDEST PUSH1 0x0 PUSH2 0x197A PUSH1 0x20 DUP4 PUSH2 0x1C66 JUMP JUMPDEST SWAP2 POP PUSH2 0x1985 DUP3 PUSH2 0x1EA6 JUMP JUMPDEST PUSH1 0x20 DUP3 ADD SWAP1 POP SWAP2 SWAP1 POP JUMP JUMPDEST PUSH2 0x1999 DUP2 PUSH2 0x1CFF JUMP JUMPDEST DUP3 MSTORE POP POP JUMP JUMPDEST PUSH1 0x0 PUSH1 0x20 DUP3 ADD SWAP1 POP PUSH2 0x19B4 PUSH1 0x0 DUP4 ADD DUP5 PUSH2 0x1881 JUMP JUMPDEST SWAP3 SWAP2 POP POP JUMP JUMPDEST PUSH1 0x0 PUSH1 0x40 DUP3 ADD SWAP1 POP PUSH2 0x19CF PUSH1 0x0 DUP4 ADD DUP6 PUSH2 0x1881 JUMP JUMPDEST PUSH2 0x19DC PUSH1 0x20 DUP4 ADD DUP5 PUSH2 0x1881 JUMP JUMPDEST SWAP4 SWAP3 POP POP POP JUMP JUMPDEST PUSH1 0x0 PUSH1 0x80 DUP3 ADD SWAP1 POP PUSH2 0x19F8 PUSH1 0x0 DUP4 ADD DUP8 PUSH2 0x1881 JUMP JUMPDEST PUSH2 0x1A05 PUSH1 0x20 DUP4 ADD DUP7 PUSH2 0x1881 JUMP JUMPDEST PUSH2 0x1A12 PUSH1 0x40 DUP4 ADD DUP6 PUSH2 0x1881 JUMP JUMPDEST PUSH2 0x1A1F PUSH1 0x60 DUP4 ADD DUP5 PUSH2 0x1881 JUMP JUMPDEST SWAP6 SWAP5 POP POP POP POP POP JUMP JUMPDEST PUSH1 0x0 PUSH1 0xA0 DUP3 ADD SWAP1 POP PUSH2 0x1A3D PUSH1 0x0 DUP4 ADD DUP9 PUSH2 0x1881 JUMP JUMPDEST PUSH2 0x1A4A PUSH1 0x20 DUP4 ADD DUP8 PUSH2 0x1881 JUMP JUMPDEST DUP2 DUP2 SUB PUSH1 0x40 DUP4 ADD MSTORE PUSH2 0x1A5C DUP2 DUP7 PUSH2 0x18EE JUMP JUMPDEST SWAP1 POP DUP2 DUP2 SUB PUSH1 0x60 DUP4 ADD MSTORE PUSH2 0x1A70 DUP2 DUP6 PUSH2 0x18EE JUMP JUMPDEST SWAP1 POP PUSH2 0x1A7F PUSH1 0x80 DUP4 ADD DUP5 PUSH2 0x1881 JUMP JUMPDEST SWAP7 SWAP6 POP POP POP POP POP POP JUMP JUMPDEST PUSH1 0x0 PUSH1 0xC0 DUP3 ADD SWAP1 POP PUSH2 0x1A9E PUSH1 0x0 DUP4 ADD DUP10 PUSH2 0x1881 JUMP JUMPDEST DUP2 DUP2 SUB PUSH1 0x20 DUP4 ADD MSTORE PUSH2 0x1AB0 DUP2 DUP9 PUSH2 0x18EE JUMP JUMPDEST SWAP1 POP DUP2 DUP2 SUB PUSH1 0x40 DUP4 ADD MSTORE PUSH2 0x1AC4 DUP2 DUP8 PUSH2 0x18EE JUMP JUMPDEST SWAP1 POP PUSH2 0x1AD3 PUSH1 0x60 DUP4 ADD DUP7 PUSH2 0x1881 JUMP JUMPDEST PUSH2 0x1AE0 PUSH1 0x80 DUP4 ADD DUP6 PUSH2 0x1990 JUMP JUMPDEST PUSH2 0x1AED PUSH1 0xA0 DUP4 ADD DUP5 PUSH2 0x1881 JUMP JUMPDEST SWAP8 SWAP7 POP POP POP POP POP POP POP JUMP JUMPDEST PUSH1 0x0 PUSH1 0x20 DUP3 ADD SWAP1 POP DUP2 DUP2 SUB PUSH1 0x0 DUP4 ADD MSTORE PUSH2 0x1B12 DUP2 DUP5 PUSH2 0x1890 JUMP JUMPDEST SWAP1 POP SWAP3 SWAP2 POP POP JUMP JUMPDEST PUSH1 0x0 PUSH1 0x20 DUP3 ADD SWAP1 POP DUP2 DUP2 SUB PUSH1 0x0 DUP4 ADD MSTORE PUSH2 0x1B33 DUP2 PUSH2 0x1927 JUMP JUMPDEST SWAP1 POP SWAP2 SWAP1 POP JUMP JUMPDEST PUSH1 0x0 PUSH1 0x20 DUP3 ADD SWAP1 POP DUP2 DUP2 SUB PUSH1 0x0 DUP4 ADD MSTORE PUSH2 0x1B53 DUP2 PUSH2 0x194A JUMP JUMPDEST SWAP1 POP SWAP2 SWAP1 POP JUMP JUMPDEST PUSH1 0x0 PUSH1 0x20 DUP3 ADD SWAP1 POP DUP2 DUP2 SUB PUSH1 0x0 DUP4 ADD MSTORE PUSH2 0x1B73 DUP2 PUSH2 0x196D JUMP JUMPDEST SWAP1 POP SWAP2 SWAP1 POP JUMP JUMPDEST PUSH1 0x0 PUSH1 0x20 DUP3 ADD SWAP1 POP PUSH2 0x1B8F PUSH1 0x0 DUP4 ADD DUP5 PUSH2 0x1990 JUMP JUMPDEST SWAP3 SWAP2 POP POP JUMP JUMPDEST PUSH1 0x0 PUSH1 0x60 DUP3 ADD SWAP1 POP PUSH2 0x1BAA PUSH1 0x0 DUP4 ADD DUP7 PUSH2 0x1990 JUMP JUMPDEST PUSH2 0x1BB7 PUSH1 0x20 DUP4 ADD DUP6 PUSH2 0x1990 JUMP JUMPDEST PUSH2 0x1BC4 PUSH1 0x40 DUP4 ADD DUP5 PUSH2 0x1881 JUMP JUMPDEST SWAP5 SWAP4 POP POP POP POP JUMP JUMPDEST PUSH1 0x0 PUSH2 0x1BD6 PUSH2 0x1BE7 JUMP JUMPDEST SWAP1 POP PUSH2 0x1BE2 DUP3 DUP3 PUSH2 0x1D4B JUMP JUMPDEST SWAP2 SWAP1 POP JUMP JUMPDEST PUSH1 0x0 PUSH1 0x40 MLOAD SWAP1 POP SWAP1 JUMP JUMPDEST PUSH1 0x0 PUSH8 0xFFFFFFFFFFFFFFFF DUP3 GT ISZERO PUSH2 0x1C0C JUMPI PUSH2 0x1C0B PUSH2 0x1DDA JUMP JUMPDEST JUMPDEST PUSH2 0x1C15 DUP3 PUSH2 0x1E1D JUMP JUMPDEST SWAP1 POP PUSH1 0x20 DUP2 ADD SWAP1 POP SWAP2 SWAP1 POP JUMP JUMPDEST PUSH1 0x0 DUP2 SWAP1 POP PUSH1 0x20 DUP3 ADD SWAP1 POP SWAP2 SWAP1 POP JUMP JUMPDEST PUSH1 0x0 DUP2 MLOAD SWAP1 POP SWAP2 SWAP1 POP JUMP JUMPDEST PUSH1 0x0 DUP2 MLOAD SWAP1 POP SWAP2 SWAP1 POP JUMP JUMPDEST PUSH1 0x0 PUSH1 0x20 DUP3 ADD SWAP1 POP SWAP2 SWAP1 POP JUMP JUMPDEST PUSH1 0x0 DUP3 DUP3 MSTORE PUSH1 0x20 DUP3 ADD SWAP1 POP SWAP3 SWAP2 POP POP JUMP JUMPDEST PUSH1 0x0 DUP3 DUP3 MSTORE PUSH1 0x20 DUP3 ADD SWAP1 POP SWAP3 SWAP2 POP POP JUMP JUMPDEST PUSH1 0x0 PUSH2 0x1C82 DUP3 PUSH2 0x1CFF JUMP JUMPDEST SWAP2 POP PUSH2 0x1C8D DUP4 PUSH2 0x1CFF JUMP JUMPDEST SWAP3 POP DUP3 PUSH32 0xFFFFFFFFFFFFFFFFFFFFFFFFFFFFFFFFFFFFFFFFFFFFFFFFFFFFFFFFFFFFFFFF SUB DUP3 GT ISZERO PUSH2 0x1CC2 JUMPI PUSH2 0x1CC1 PUSH2 0x1D7C JUMP JUMPDEST JUMPDEST DUP3 DUP3 ADD SWAP1 POP SWAP3 SWAP2 POP POP JUMP JUMPDEST PUSH1 0x0 PUSH2 0x1CD8 DUP3 PUSH2 0x1CDF JUMP JUMPDEST SWAP1 POP SWAP2 SWAP1 POP JUMP JUMPDEST PUSH1 0x0 PUSH20 0xFFFFFFFFFFFFFFFFFFFFFFFFFFFFFFFFFFFFFFFF DUP3 AND SWAP1 POP SWAP2 SWAP1 POP JUMP JUMPDEST PUSH1 0x0 DUP2 SWAP1 POP SWAP2 SWAP1 POP JUMP JUMPDEST DUP3 DUP2 DUP4 CALLDATACOPY PUSH1 0x0 DUP4 DUP4 ADD MSTORE POP POP POP JUMP JUMPDEST PUSH1 0x0 JUMPDEST DUP4 DUP2 LT ISZERO PUSH2 0x1D36 JUMPI DUP1 DUP3 ADD MLOAD DUP2 DUP5 ADD MSTORE PUSH1 0x20 DUP2 ADD SWAP1 POP PUSH2 0x1D1B JUMP JUMPDEST DUP4 DUP2 GT ISZERO PUSH2 0x1D45 JUMPI PUSH1 0x0 DUP5 DUP5 ADD MSTORE JUMPDEST POP POP POP POP JUMP JUMPDEST PUSH2 0x1D54 DUP3 PUSH2 0x1E1D JUMP JUMPDEST DUP2 ADD DUP2 DUP2 LT PUSH8 0xFFFFFFFFFFFFFFFF DUP3 GT OR ISZERO PUSH2 0x1D73 JUMPI PUSH2 0x1D72 PUSH2 0x1DDA JUMP JUMPDEST JUMPDEST DUP1 PUSH1 0x40 MSTORE POP POP POP JUMP JUMPDEST PUSH32 0x4E487B7100000000000000000000000000000000000000000000000000000000 PUSH1 0x0 MSTORE PUSH1 0x11 PUSH1 0x4 MSTORE PUSH1 0x24 PUSH1 0x0 REVERT JUMPDEST PUSH32 0x4E487B7100000000000000000000000000000000000000000000000000000000 PUSH1 0x0 MSTORE PUSH1 0x32 PUSH1 0x4 MSTORE PUSH1 0x24 PUSH1 0x0 REVERT JUMPDEST PUSH32 0x4E487B7100000000000000000000000000000000000000000000000000000000 PUSH1 0x0 MSTORE PUSH1 0x41 PUSH1 0x4 MSTORE PUSH1 0x24 PUSH1 0x0 REVERT JUMPDEST PUSH1 0x0 DUP1 REVERT JUMPDEST PUSH1 0x0 DUP1 REVERT JUMPDEST PUSH1 0x0 DUP1 REVERT JUMPDEST PUSH1 0x0 DUP1 REVERT JUMPDEST PUSH1 0x0 PUSH1 0x1F NOT PUSH1 0x1F DUP4 ADD AND SWAP1 POP SWAP2 SWAP1 POP JUMP JUMPDEST PUSH32 0x4F776E61626C653A206E6577206F776E657220697320746865207A65726F2061 PUSH1 0x0 DUP3 ADD MSTORE PUSH32 0x6464726573730000000000000000000000000000000000000000000000000000 PUSH1 0x20 DUP3 ADD MSTORE POP JUMP JUMPDEST PUSH32 0x4D6F64656C41646472657373206E6F7420736574656421000000000000000000 PUSH1 0x0 DUP3 ADD MSTORE POP JUMP JUMPDEST PUSH32 0x4F776E61626C653A2063616C6C6572206973206E6F7420746865206F776E6572 PUSH1 0x0 DUP3 ADD MSTORE POP JUMP JUMPDEST PUSH2 0x1ED8 DUP2 PUSH2 0x1CCD JUMP JUMPDEST DUP2 EQ PUSH2 0x1EE3 JUMPI PUSH1 0x0 DUP1 REVERT JUMPDEST POP JUMP JUMPDEST PUSH2 0x1EEF DUP2 PUSH2 0x1CFF JUMP JUMPDEST DUP2 EQ PUSH2 0x1EFA JUMPI PUSH1 0x0 DUP1 REVERT JUMPDEST POP JUMP INVALID LOG2 PUSH5 0x6970667358 0x22 SLT KECCAK256 0x2B 0xC CALL 0xA9 0x22 COINBASE SIGNEXTEND 0x25 PUSH21 0xE11109451EA7512ECE90EE428DCA321FFAC32DA8E5 PUSH6 0xAC64736F6C63 NUMBER STOP ADDMOD SMOD STOP CALLER "
				},
				"gasEstimates": {
					"creation": {
						"codeDepositCost": "1597400",
						"executionCost": "infinite",
						"totalCost": "infinite"
					},
					"external": {
						"airdropModelAddr()": "2558",
						"createDAO(uint256,uint256,string,string,string,string,uint256)": "infinite",
						"faucetModelAddr()": "2536",
						"getDaoAddrs(uint256)": "infinite",
						"governModelAddr()": "2602",
						"len()": "2496",
						"owner()": "2567",
						"poolModelAddr()": "2580",
						"renounceOwnership()": "30509",
						"rewardModelAddr()": "2582",
						"searchModelAddr()": "2537",
						"setAirdropModelAddr(address)": "27075",
						"setFaucetModelAddr(address)": "27076",
						"setGovernModelAddr(address)": "27010",
						"setPoolModelAddr(address)": "27075",
						"setRewardModelAddr(address)": "27032",
						"setSearchModelAddr(address)": "27009",
						"transferOwnership(address)": "30857"
					},
					"internal": {
						"createClone(address)": "infinite"
					}
				},
				"methodIdentifiers": {
					"airdropModelAddr()": "be4c7942",
					"createDAO(uint256,uint256,string,string,string,string,uint256)": "51f67ff3",
					"faucetModelAddr()": "b28f3b8e",
					"getDaoAddrs(uint256)": "a66a8b5d",
					"governModelAddr()": "c62baedf",
					"len()": "56d88e27",
					"owner()": "8da5cb5b",
					"poolModelAddr()": "c479b452",
					"renounceOwnership()": "715018a6",
					"rewardModelAddr()": "18626d9a",
					"searchModelAddr()": "4277c7cb",
					"setAirdropModelAddr(address)": "5c298412",
					"setFaucetModelAddr(address)": "217366eb",
					"setGovernModelAddr(address)": "05a2fb7c",
					"setPoolModelAddr(address)": "a74adec7",
					"setRewardModelAddr(address)": "0fd4fa18",
					"setSearchModelAddr(address)": "74339cf7",
					"transferOwnership(address)": "f2fde38b"
				}
			},
			"storageLayout": {
				"storage": [
					{
						"astId": 7,
						"contract": "contracts/Factory.sol:Factory",
						"label": "_owner",
						"offset": 0,
						"slot": "0",
						"type": "t_address"
					},
					{
						"astId": 248,
						"contract": "contracts/Factory.sol:Factory",
						"label": "daoAddrs",
						"offset": 0,
						"slot": "1",
						"type": "t_mapping(t_uint256,t_address)"
					},
					{
						"astId": 251,
						"contract": "contracts/Factory.sol:Factory",
						"label": "len",
						"offset": 0,
						"slot": "2",
						"type": "t_uint256"
					},
					{
						"astId": 253,
						"contract": "contracts/Factory.sol:Factory",
						"label": "governModelAddr",
						"offset": 0,
						"slot": "3",
						"type": "t_address"
					},
					{
						"astId": 255,
						"contract": "contracts/Factory.sol:Factory",
						"label": "poolModelAddr",
						"offset": 0,
						"slot": "4",
						"type": "t_address"
					},
					{
						"astId": 257,
						"contract": "contracts/Factory.sol:Factory",
						"label": "airdropModelAddr",
						"offset": 0,
						"slot": "5",
						"type": "t_address"
					},
					{
						"astId": 259,
						"contract": "contracts/Factory.sol:Factory",
						"label": "rewardModelAddr",
						"offset": 0,
						"slot": "6",
						"type": "t_address"
					},
					{
						"astId": 261,
						"contract": "contracts/Factory.sol:Factory",
						"label": "faucetModelAddr",
						"offset": 0,
						"slot": "7",
						"type": "t_address"
					},
					{
						"astId": 263,
						"contract": "contracts/Factory.sol:Factory",
						"label": "searchModelAddr",
						"offset": 0,
						"slot": "8",
						"type": "t_address"
					}
				],
				"types": {
					"t_address": {
						"encoding": "inplace",
						"label": "address",
						"numberOfBytes": "20"
					},
					"t_mapping(t_uint256,t_address)": {
						"encoding": "mapping",
						"key": "t_uint256",
						"label": "mapping(uint256 => address)",
						"numberOfBytes": "32",
						"value": "t_address"
					},
					"t_uint256": {
						"encoding": "inplace",
						"label": "uint256",
						"numberOfBytes": "32"
					}
				}
			},
			"userdoc": {
				"kind": "user",
				"methods": {},
				"version": 1
			}
		}
	}
}