{
	"contracts/ERC20V3SimpleFactory.sol": {
		"InitializableOwnable": {
			"abi": [
				{
					"anonymous": false,
					"inputs": [
						{
							"indexed": true,
							"internalType": "address",
							"name": "previousOwner",
							"type": "address"
						},
						{
							"indexed": true,
							"internalType": "address",
							"name": "newOwner",
							"type": "address"
						}
					],
					"name": "OwnershipTransferPrepared",
					"type": "event"
				},
				{
					"anonymous": false,
					"inputs": [
						{
							"indexed": true,
							"internalType": "address",
							"name": "previousOwner",
							"type": "address"
						},
						{
							"indexed": true,
							"internalType": "address",
							"name": "newOwner",
							"type": "address"
						}
					],
					"name": "OwnershipTransferred",
					"type": "event"
				},
				{
					"inputs": [],
					"name": "_NEW_OWNER_",
					"outputs": [
						{
							"internalType": "address",
							"name": "",
							"type": "address"
						}
					],
					"stateMutability": "view",
					"type": "function"
				},
				{
					"inputs": [],
					"name": "_OWNER_",
					"outputs": [
						{
							"internalType": "address",
							"name": "",
							"type": "address"
						}
					],
					"stateMutability": "view",
					"type": "function"
				},
				{
					"inputs": [],
					"name": "claimOwnership",
					"outputs": [],
					"stateMutability": "nonpayable",
					"type": "function"
				},
				{
					"inputs": [
						{
							"internalType": "address",
							"name": "newOwner",
							"type": "address"
						}
					],
					"name": "initOwner",
					"outputs": [],
					"stateMutability": "nonpayable",
					"type": "function"
				},
				{
					"inputs": [
						{
							"internalType": "address",
							"name": "newOwner",
							"type": "address"
						}
					],
					"name": "transferOwnership",
					"outputs": [],
					"stateMutability": "nonpayable",
					"type": "function"
				}
			],
			"devdoc": {
				"author": "DODO Breeder",
				"kind": "dev",
				"methods": {},
				"title": "Ownable",
				"version": 1
			},
			"evm": {
				"assembly": "    /* \"contracts/ERC20V3SimpleFactory.sol\":1325:2532  contract InitializableOwnable {\r... */\n  mstore(0x40, 0x80)\n  callvalue\n  dup1\n  iszero\n  tag_1\n  jumpi\n  0x00\n  dup1\n  revert\ntag_1:\n  pop\n  dataSize(sub_0)\n  dup1\n  dataOffset(sub_0)\n  0x00\n  codecopy\n  0x00\n  return\nstop\n\nsub_0: assembly {\n        /* \"contracts/ERC20V3SimpleFactory.sol\":1325:2532  contract InitializableOwnable {\r... */\n      mstore(0x40, 0x80)\n      callvalue\n      dup1\n      iszero\n      tag_1\n      jumpi\n      0x00\n      dup1\n      revert\n    tag_1:\n      pop\n      jumpi(tag_2, lt(calldatasize, 0x04))\n      shr(0xe0, calldataload(0x00))\n      dup1\n      0x0d009297\n      eq\n      tag_3\n      jumpi\n      dup1\n      0x16048bc4\n      eq\n      tag_4\n      jumpi\n      dup1\n      0x4e71e0c8\n      eq\n      tag_5\n      jumpi\n      dup1\n      0x8456db15\n      eq\n      tag_6\n      jumpi\n      dup1\n      0xf2fde38b\n      eq\n      tag_7\n      jumpi\n    tag_2:\n      0x00\n      dup1\n      revert\n        /* \"contracts/ERC20V3SimpleFactory.sol\":1995:2122  function initOwner(address newOwner) public notInitialized {\r... */\n    tag_3:\n      tag_8\n      0x04\n      dup1\n      calldatasize\n      sub\n      dup2\n      add\n      swap1\n      tag_9\n      swap2\n      swap1\n      tag_10\n      jump\t// in\n    tag_9:\n      tag_11\n      jump\t// in\n    tag_8:\n      stop\n        /* \"contracts/ERC20V3SimpleFactory.sol\":1362:1384  address public _OWNER_ */\n    tag_4:\n      tag_12\n      tag_13\n      jump\t// in\n    tag_12:\n      mload(0x40)\n      tag_14\n      swap2\n      swap1\n      tag_15\n      jump\t// in\n    tag_14:\n      mload(0x40)\n      dup1\n      swap2\n      sub\n      swap1\n      return\n        /* \"contracts/ERC20V3SimpleFactory.sol\":2301:2529  function claimOwnership() public {\r... */\n    tag_5:\n      tag_16\n      tag_17\n      jump\t// in\n    tag_16:\n      stop\n        /* \"contracts/ERC20V3SimpleFactory.sol\":1391:1417  address public _NEW_OWNER_ */\n    tag_6:\n      tag_18\n      tag_19\n      jump\t// in\n    tag_18:\n      mload(0x40)\n      tag_20\n      swap2\n      swap1\n      tag_15\n      jump\t// in\n    tag_20:\n      mload(0x40)\n      dup1\n      swap2\n      sub\n      swap1\n      return\n        /* \"contracts/ERC20V3SimpleFactory.sol\":2130:2293  function transferOwnership(address newOwner) public onlyOwner {\r... */\n    tag_7:\n      tag_21\n      0x04\n      dup1\n      calldatasize\n      sub\n      dup2\n      add\n      swap1\n      tag_22\n      swap2\n      swap1\n      tag_10\n      jump\t// in\n    tag_22:\n      tag_23\n      jump\t// in\n    tag_21:\n      stop\n        /* \"contracts/ERC20V3SimpleFactory.sol\":1995:2122  function initOwner(address newOwner) public notInitialized {\r... */\n    tag_11:\n        /* \"contracts/ERC20V3SimpleFactory.sol\":1784:1797  _INITIALIZED_ */\n      0x01\n      0x14\n      swap1\n      sload\n      swap1\n      0x0100\n      exp\n      swap1\n      div\n      0xff\n      and\n        /* \"contracts/ERC20V3SimpleFactory.sol\":1783:1797  !_INITIALIZED_ */\n      iszero\n        /* \"contracts/ERC20V3SimpleFactory.sol\":1775:1818  require(!_INITIALIZED_, \"DODO_INITIALIZED\") */\n      tag_25\n      jumpi\n      mload(0x40)\n      0x08c379a000000000000000000000000000000000000000000000000000000000\n      dup2\n      mstore\n      0x04\n      add\n      tag_26\n      swap1\n      tag_27\n      jump\t// in\n    tag_26:\n      mload(0x40)\n      dup1\n      swap2\n      sub\n      swap1\n      revert\n    tag_25:\n        /* \"contracts/ERC20V3SimpleFactory.sol\":2081:2085  true */\n      0x01\n        /* \"contracts/ERC20V3SimpleFactory.sol\":2065:2078  _INITIALIZED_ */\n      dup1\n      0x14\n        /* \"contracts/ERC20V3SimpleFactory.sol\":2065:2085  _INITIALIZED_ = true */\n      0x0100\n      exp\n      dup2\n      sload\n      dup2\n      0xff\n      mul\n      not\n      and\n      swap1\n      dup4\n      iszero\n      iszero\n      mul\n      or\n      swap1\n      sstore\n      pop\n        /* \"contracts/ERC20V3SimpleFactory.sol\":2106:2114  newOwner */\n      dup1\n        /* \"contracts/ERC20V3SimpleFactory.sol\":2096:2103  _OWNER_ */\n      0x00\n      dup1\n        /* \"contracts/ERC20V3SimpleFactory.sol\":2096:2114  _OWNER_ = newOwner */\n      0x0100\n      exp\n      dup2\n      sload\n      dup2\n      0xffffffffffffffffffffffffffffffffffffffff\n      mul\n      not\n      and\n      swap1\n      dup4\n      0xffffffffffffffffffffffffffffffffffffffff\n      and\n      mul\n      or\n      swap1\n      sstore\n      pop\n        /* \"contracts/ERC20V3SimpleFactory.sol\":1995:2122  function initOwner(address newOwner) public notInitialized {\r... */\n      pop\n      jump\t// out\n        /* \"contracts/ERC20V3SimpleFactory.sol\":1362:1384  address public _OWNER_ */\n    tag_13:\n      0x00\n      dup1\n      sload\n      swap1\n      0x0100\n      exp\n      swap1\n      div\n      0xffffffffffffffffffffffffffffffffffffffff\n      and\n      dup2\n      jump\t// out\n        /* \"contracts/ERC20V3SimpleFactory.sol\":2301:2529  function claimOwnership() public {\r... */\n    tag_17:\n        /* \"contracts/ERC20V3SimpleFactory.sol\":2367:2378  _NEW_OWNER_ */\n      0x01\n      0x00\n      swap1\n      sload\n      swap1\n      0x0100\n      exp\n      swap1\n      div\n      0xffffffffffffffffffffffffffffffffffffffff\n      and\n        /* \"contracts/ERC20V3SimpleFactory.sol\":2353:2378  msg.sender == _NEW_OWNER_ */\n      0xffffffffffffffffffffffffffffffffffffffff\n      and\n        /* \"contracts/ERC20V3SimpleFactory.sol\":2353:2363  msg.sender */\n      caller\n        /* \"contracts/ERC20V3SimpleFactory.sol\":2353:2378  msg.sender == _NEW_OWNER_ */\n      0xffffffffffffffffffffffffffffffffffffffff\n      and\n      eq\n        /* \"contracts/ERC20V3SimpleFactory.sol\":2345:2396  require(msg.sender == _NEW_OWNER_, \"INVALID_CLAIM\") */\n      tag_30\n      jumpi\n      mload(0x40)\n      0x08c379a000000000000000000000000000000000000000000000000000000000\n      dup2\n      mstore\n      0x04\n      add\n      tag_31\n      swap1\n      tag_32\n      jump\t// in\n    tag_31:\n      mload(0x40)\n      dup1\n      swap2\n      sub\n      swap1\n      revert\n    tag_30:\n        /* \"contracts/ERC20V3SimpleFactory.sol\":2442:2453  _NEW_OWNER_ */\n      0x01\n      0x00\n      swap1\n      sload\n      swap1\n      0x0100\n      exp\n      swap1\n      div\n      0xffffffffffffffffffffffffffffffffffffffff\n      and\n        /* \"contracts/ERC20V3SimpleFactory.sol\":2412:2454  OwnershipTransferred(_OWNER_, _NEW_OWNER_) */\n      0xffffffffffffffffffffffffffffffffffffffff\n      and\n        /* \"contracts/ERC20V3SimpleFactory.sol\":2433:2440  _OWNER_ */\n      0x00\n      dup1\n      sload\n      swap1\n      0x0100\n      exp\n      swap1\n      div\n      0xffffffffffffffffffffffffffffffffffffffff\n      and\n        /* \"contracts/ERC20V3SimpleFactory.sol\":2412:2454  OwnershipTransferred(_OWNER_, _NEW_OWNER_) */\n      0xffffffffffffffffffffffffffffffffffffffff\n      and\n      0x8be0079c531659141344cd1fd0a4f28419497f9722a3daafe3b4186f6b6457e0\n      mload(0x40)\n      mload(0x40)\n      dup1\n      swap2\n      sub\n      swap1\n      log3\n        /* \"contracts/ERC20V3SimpleFactory.sol\":2475:2486  _NEW_OWNER_ */\n      0x01\n      0x00\n      swap1\n      sload\n      swap1\n      0x0100\n      exp\n      swap1\n      div\n      0xffffffffffffffffffffffffffffffffffffffff\n      and\n        /* \"contracts/ERC20V3SimpleFactory.sol\":2465:2472  _OWNER_ */\n      0x00\n      dup1\n        /* \"contracts/ERC20V3SimpleFactory.sol\":2465:2486  _OWNER_ = _NEW_OWNER_ */\n      0x0100\n      exp\n      dup2\n      sload\n      dup2\n      0xffffffffffffffffffffffffffffffffffffffff\n      mul\n      not\n      and\n      swap1\n      dup4\n      0xffffffffffffffffffffffffffffffffffffffff\n      and\n      mul\n      or\n      swap1\n      sstore\n      pop\n        /* \"contracts/ERC20V3SimpleFactory.sol\":2519:2520  0 */\n      0x00\n        /* \"contracts/ERC20V3SimpleFactory.sol\":2497:2508  _NEW_OWNER_ */\n      0x01\n      0x00\n        /* \"contracts/ERC20V3SimpleFactory.sol\":2497:2521  _NEW_OWNER_ = address(0) */\n      0x0100\n      exp\n      dup2\n      sload\n      dup2\n      0xffffffffffffffffffffffffffffffffffffffff\n      mul\n      not\n      and\n      swap1\n      dup4\n      0xffffffffffffffffffffffffffffffffffffffff\n      and\n      mul\n      or\n      swap1\n      sstore\n      pop\n        /* \"contracts/ERC20V3SimpleFactory.sol\":2301:2529  function claimOwnership() public {\r... */\n      jump\t// out\n        /* \"contracts/ERC20V3SimpleFactory.sol\":1391:1417  address public _NEW_OWNER_ */\n    tag_19:\n      0x01\n      0x00\n      swap1\n      sload\n      swap1\n      0x0100\n      exp\n      swap1\n      div\n      0xffffffffffffffffffffffffffffffffffffffff\n      and\n      dup2\n      jump\t// out\n        /* \"contracts/ERC20V3SimpleFactory.sol\":2130:2293  function transferOwnership(address newOwner) public onlyOwner {\r... */\n    tag_23:\n        /* \"contracts/ERC20V3SimpleFactory.sol\":1900:1907  _OWNER_ */\n      0x00\n      dup1\n      sload\n      swap1\n      0x0100\n      exp\n      swap1\n      div\n      0xffffffffffffffffffffffffffffffffffffffff\n      and\n        /* \"contracts/ERC20V3SimpleFactory.sol\":1886:1907  msg.sender == _OWNER_ */\n      0xffffffffffffffffffffffffffffffffffffffff\n      and\n        /* \"contracts/ERC20V3SimpleFactory.sol\":1886:1896  msg.sender */\n      caller\n        /* \"contracts/ERC20V3SimpleFactory.sol\":1886:1907  msg.sender == _OWNER_ */\n      0xffffffffffffffffffffffffffffffffffffffff\n      and\n      eq\n        /* \"contracts/ERC20V3SimpleFactory.sol\":1878:1921  require(msg.sender == _OWNER_, \"NOT_OWNER\") */\n      tag_34\n      jumpi\n      mload(0x40)\n      0x08c379a000000000000000000000000000000000000000000000000000000000\n      dup2\n      mstore\n      0x04\n      add\n      tag_35\n      swap1\n      tag_36\n      jump\t// in\n    tag_35:\n      mload(0x40)\n      dup1\n      swap2\n      sub\n      swap1\n      revert\n    tag_34:\n        /* \"contracts/ERC20V3SimpleFactory.sol\":2243:2251  newOwner */\n      dup1\n        /* \"contracts/ERC20V3SimpleFactory.sol\":2208:2252  OwnershipTransferPrepared(_OWNER_, newOwner) */\n      0xffffffffffffffffffffffffffffffffffffffff\n      and\n        /* \"contracts/ERC20V3SimpleFactory.sol\":2234:2241  _OWNER_ */\n      0x00\n      dup1\n      sload\n      swap1\n      0x0100\n      exp\n      swap1\n      div\n      0xffffffffffffffffffffffffffffffffffffffff\n      and\n        /* \"contracts/ERC20V3SimpleFactory.sol\":2208:2252  OwnershipTransferPrepared(_OWNER_, newOwner) */\n      0xffffffffffffffffffffffffffffffffffffffff\n      and\n      0xdcf55418cee3220104fef63f979ff3c4097ad240c0c43dcb33ce837748983e62\n      mload(0x40)\n      mload(0x40)\n      dup1\n      swap2\n      sub\n      swap1\n      log3\n        /* \"contracts/ERC20V3SimpleFactory.sol\":2277:2285  newOwner */\n      dup1\n        /* \"contracts/ERC20V3SimpleFactory.sol\":2263:2274  _NEW_OWNER_ */\n      0x01\n      0x00\n        /* \"contracts/ERC20V3SimpleFactory.sol\":2263:2285  _NEW_OWNER_ = newOwner */\n      0x0100\n      exp\n      dup2\n      sload\n      dup2\n      0xffffffffffffffffffffffffffffffffffffffff\n      mul\n      not\n      and\n      swap1\n      dup4\n      0xffffffffffffffffffffffffffffffffffffffff\n      and\n      mul\n      or\n      swap1\n      sstore\n      pop\n        /* \"contracts/ERC20V3SimpleFactory.sol\":2130:2293  function transferOwnership(address newOwner) public onlyOwner {\r... */\n      pop\n      jump\t// out\n        /* \"#utility.yul\":7:146   */\n    tag_39:\n        /* \"#utility.yul\":53:58   */\n      0x00\n        /* \"#utility.yul\":91:97   */\n      dup2\n        /* \"#utility.yul\":78:98   */\n      calldataload\n        /* \"#utility.yul\":69:98   */\n      swap1\n      pop\n        /* \"#utility.yul\":107:140   */\n      tag_41\n        /* \"#utility.yul\":134:139   */\n      dup2\n        /* \"#utility.yul\":107:140   */\n      tag_42\n      jump\t// in\n    tag_41:\n        /* \"#utility.yul\":7:146   */\n      swap3\n      swap2\n      pop\n      pop\n      jump\t// out\n        /* \"#utility.yul\":152:481   */\n    tag_10:\n        /* \"#utility.yul\":211:217   */\n      0x00\n        /* \"#utility.yul\":260:262   */\n      0x20\n        /* \"#utility.yul\":248:257   */\n      dup3\n        /* \"#utility.yul\":239:246   */\n      dup5\n        /* \"#utility.yul\":235:258   */\n      sub\n        /* \"#utility.yul\":231:263   */\n      slt\n        /* \"#utility.yul\":228:347   */\n      iszero\n      tag_44\n      jumpi\n        /* \"#utility.yul\":266:345   */\n      tag_45\n      tag_46\n      jump\t// in\n    tag_45:\n        /* \"#utility.yul\":228:347   */\n    tag_44:\n        /* \"#utility.yul\":386:387   */\n      0x00\n        /* \"#utility.yul\":411:464   */\n      tag_47\n        /* \"#utility.yul\":456:463   */\n      dup5\n        /* \"#utility.yul\":447:453   */\n      dup3\n        /* \"#utility.yul\":436:445   */\n      dup6\n        /* \"#utility.yul\":432:454   */\n      add\n        /* \"#utility.yul\":411:464   */\n      tag_39\n      jump\t// in\n    tag_47:\n        /* \"#utility.yul\":401:464   */\n      swap2\n      pop\n        /* \"#utility.yul\":357:474   */\n      pop\n        /* \"#utility.yul\":152:481   */\n      swap3\n      swap2\n      pop\n      pop\n      jump\t// out\n        /* \"#utility.yul\":487:605   */\n    tag_48:\n        /* \"#utility.yul\":574:598   */\n      tag_50\n        /* \"#utility.yul\":592:597   */\n      dup2\n        /* \"#utility.yul\":574:598   */\n      tag_51\n      jump\t// in\n    tag_50:\n        /* \"#utility.yul\":569:572   */\n      dup3\n        /* \"#utility.yul\":562:599   */\n      mstore\n        /* \"#utility.yul\":487:605   */\n      pop\n      pop\n      jump\t// out\n        /* \"#utility.yul\":611:977   */\n    tag_52:\n        /* \"#utility.yul\":753:756   */\n      0x00\n        /* \"#utility.yul\":774:841   */\n      tag_54\n        /* \"#utility.yul\":838:840   */\n      0x0d\n        /* \"#utility.yul\":833:836   */\n      dup4\n        /* \"#utility.yul\":774:841   */\n      tag_55\n      jump\t// in\n    tag_54:\n        /* \"#utility.yul\":767:841   */\n      swap2\n      pop\n        /* \"#utility.yul\":850:943   */\n      tag_56\n        /* \"#utility.yul\":939:942   */\n      dup3\n        /* \"#utility.yul\":850:943   */\n      tag_57\n      jump\t// in\n    tag_56:\n        /* \"#utility.yul\":968:970   */\n      0x20\n        /* \"#utility.yul\":963:966   */\n      dup3\n        /* \"#utility.yul\":959:971   */\n      add\n        /* \"#utility.yul\":952:971   */\n      swap1\n      pop\n        /* \"#utility.yul\":611:977   */\n      swap2\n      swap1\n      pop\n      jump\t// out\n        /* \"#utility.yul\":983:1349   */\n    tag_58:\n        /* \"#utility.yul\":1125:1128   */\n      0x00\n        /* \"#utility.yul\":1146:1213   */\n      tag_60\n        /* \"#utility.yul\":1210:1212   */\n      0x10\n        /* \"#utility.yul\":1205:1208   */\n      dup4\n        /* \"#utility.yul\":1146:1213   */\n      tag_55\n      jump\t// in\n    tag_60:\n        /* \"#utility.yul\":1139:1213   */\n      swap2\n      pop\n        /* \"#utility.yul\":1222:1315   */\n      tag_61\n        /* \"#utility.yul\":1311:1314   */\n      dup3\n        /* \"#utility.yul\":1222:1315   */\n      tag_62\n      jump\t// in\n    tag_61:\n        /* \"#utility.yul\":1340:1342   */\n      0x20\n        /* \"#utility.yul\":1335:1338   */\n      dup3\n        /* \"#utility.yul\":1331:1343   */\n      add\n        /* \"#utility.yul\":1324:1343   */\n      swap1\n      pop\n        /* \"#utility.yul\":983:1349   */\n      swap2\n      swap1\n      pop\n      jump\t// out\n        /* \"#utility.yul\":1355:1720   */\n    tag_63:\n        /* \"#utility.yul\":1497:1500   */\n      0x00\n        /* \"#utility.yul\":1518:1584   */\n      tag_65\n        /* \"#utility.yul\":1582:1583   */\n      0x09\n        /* \"#utility.yul\":1577:1580   */\n      dup4\n        /* \"#utility.yul\":1518:1584   */\n      tag_55\n      jump\t// in\n    tag_65:\n        /* \"#utility.yul\":1511:1584   */\n      swap2\n      pop\n        /* \"#utility.yul\":1593:1686   */\n      tag_66\n        /* \"#utility.yul\":1682:1685   */\n      dup3\n        /* \"#utility.yul\":1593:1686   */\n      tag_67\n      jump\t// in\n    tag_66:\n        /* \"#utility.yul\":1711:1713   */\n      0x20\n        /* \"#utility.yul\":1706:1709   */\n      dup3\n        /* \"#utility.yul\":1702:1714   */\n      add\n        /* \"#utility.yul\":1695:1714   */\n      swap1\n      pop\n        /* \"#utility.yul\":1355:1720   */\n      swap2\n      swap1\n      pop\n      jump\t// out\n        /* \"#utility.yul\":1726:1948   */\n    tag_15:\n        /* \"#utility.yul\":1819:1823   */\n      0x00\n        /* \"#utility.yul\":1857:1859   */\n      0x20\n        /* \"#utility.yul\":1846:1855   */\n      dup3\n        /* \"#utility.yul\":1842:1860   */\n      add\n        /* \"#utility.yul\":1834:1860   */\n      swap1\n      pop\n        /* \"#utility.yul\":1870:1941   */\n      tag_69\n        /* \"#utility.yul\":1938:1939   */\n      0x00\n        /* \"#utility.yul\":1927:1936   */\n      dup4\n        /* \"#utility.yul\":1923:1940   */\n      add\n        /* \"#utility.yul\":1914:1920   */\n      dup5\n        /* \"#utility.yul\":1870:1941   */\n      tag_48\n      jump\t// in\n    tag_69:\n        /* \"#utility.yul\":1726:1948   */\n      swap3\n      swap2\n      pop\n      pop\n      jump\t// out\n        /* \"#utility.yul\":1954:2373   */\n    tag_32:\n        /* \"#utility.yul\":2120:2124   */\n      0x00\n        /* \"#utility.yul\":2158:2160   */\n      0x20\n        /* \"#utility.yul\":2147:2156   */\n      dup3\n        /* \"#utility.yul\":2143:2161   */\n      add\n        /* \"#utility.yul\":2135:2161   */\n      swap1\n      pop\n        /* \"#utility.yul\":2207:2216   */\n      dup2\n        /* \"#utility.yul\":2201:2205   */\n      dup2\n        /* \"#utility.yul\":2197:2217   */\n      sub\n        /* \"#utility.yul\":2193:2194   */\n      0x00\n        /* \"#utility.yul\":2182:2191   */\n      dup4\n        /* \"#utility.yul\":2178:2195   */\n      add\n        /* \"#utility.yul\":2171:2218   */\n      mstore\n        /* \"#utility.yul\":2235:2366   */\n      tag_71\n        /* \"#utility.yul\":2361:2365   */\n      dup2\n        /* \"#utility.yul\":2235:2366   */\n      tag_52\n      jump\t// in\n    tag_71:\n        /* \"#utility.yul\":2227:2366   */\n      swap1\n      pop\n        /* \"#utility.yul\":1954:2373   */\n      swap2\n      swap1\n      pop\n      jump\t// out\n        /* \"#utility.yul\":2379:2798   */\n    tag_27:\n        /* \"#utility.yul\":2545:2549   */\n      0x00\n        /* \"#utility.yul\":2583:2585   */\n      0x20\n        /* \"#utility.yul\":2572:2581   */\n      dup3\n        /* \"#utility.yul\":2568:2586   */\n      add\n        /* \"#utility.yul\":2560:2586   */\n      swap1\n      pop\n        /* \"#utility.yul\":2632:2641   */\n      dup2\n        /* \"#utility.yul\":2626:2630   */\n      dup2\n        /* \"#utility.yul\":2622:2642   */\n      sub\n        /* \"#utility.yul\":2618:2619   */\n      0x00\n        /* \"#utility.yul\":2607:2616   */\n      dup4\n        /* \"#utility.yul\":2603:2620   */\n      add\n        /* \"#utility.yul\":2596:2643   */\n      mstore\n        /* \"#utility.yul\":2660:2791   */\n      tag_73\n        /* \"#utility.yul\":2786:2790   */\n      dup2\n        /* \"#utility.yul\":2660:2791   */\n      tag_58\n      jump\t// in\n    tag_73:\n        /* \"#utility.yul\":2652:2791   */\n      swap1\n      pop\n        /* \"#utility.yul\":2379:2798   */\n      swap2\n      swap1\n      pop\n      jump\t// out\n        /* \"#utility.yul\":2804:3223   */\n    tag_36:\n        /* \"#utility.yul\":2970:2974   */\n      0x00\n        /* \"#utility.yul\":3008:3010   */\n      0x20\n        /* \"#utility.yul\":2997:3006   */\n      dup3\n        /* \"#utility.yul\":2993:3011   */\n      add\n        /* \"#utility.yul\":2985:3011   */\n      swap1\n      pop\n        /* \"#utility.yul\":3057:3066   */\n      dup2\n        /* \"#utility.yul\":3051:3055   */\n      dup2\n        /* \"#utility.yul\":3047:3067   */\n      sub\n        /* \"#utility.yul\":3043:3044   */\n      0x00\n        /* \"#utility.yul\":3032:3041   */\n      dup4\n        /* \"#utility.yul\":3028:3045   */\n      add\n        /* \"#utility.yul\":3021:3068   */\n      mstore\n        /* \"#utility.yul\":3085:3216   */\n      tag_75\n        /* \"#utility.yul\":3211:3215   */\n      dup2\n        /* \"#utility.yul\":3085:3216   */\n      tag_63\n      jump\t// in\n    tag_75:\n        /* \"#utility.yul\":3077:3216   */\n      swap1\n      pop\n        /* \"#utility.yul\":2804:3223   */\n      swap2\n      swap1\n      pop\n      jump\t// out\n        /* \"#utility.yul\":3310:3479   */\n    tag_55:\n        /* \"#utility.yul\":3394:3405   */\n      0x00\n        /* \"#utility.yul\":3428:3434   */\n      dup3\n        /* \"#utility.yul\":3423:3426   */\n      dup3\n        /* \"#utility.yul\":3416:3435   */\n      mstore\n        /* \"#utility.yul\":3468:3472   */\n      0x20\n        /* \"#utility.yul\":3463:3466   */\n      dup3\n        /* \"#utility.yul\":3459:3473   */\n      add\n        /* \"#utility.yul\":3444:3473   */\n      swap1\n      pop\n        /* \"#utility.yul\":3310:3479   */\n      swap3\n      swap2\n      pop\n      pop\n      jump\t// out\n        /* \"#utility.yul\":3485:3581   */\n    tag_51:\n        /* \"#utility.yul\":3522:3529   */\n      0x00\n        /* \"#utility.yul\":3551:3575   */\n      tag_80\n        /* \"#utility.yul\":3569:3574   */\n      dup3\n        /* \"#utility.yul\":3551:3575   */\n      tag_81\n      jump\t// in\n    tag_80:\n        /* \"#utility.yul\":3540:3575   */\n      swap1\n      pop\n        /* \"#utility.yul\":3485:3581   */\n      swap2\n      swap1\n      pop\n      jump\t// out\n        /* \"#utility.yul\":3587:3713   */\n    tag_81:\n        /* \"#utility.yul\":3624:3631   */\n      0x00\n        /* \"#utility.yul\":3664:3706   */\n      0xffffffffffffffffffffffffffffffffffffffff\n        /* \"#utility.yul\":3657:3662   */\n      dup3\n        /* \"#utility.yul\":3653:3707   */\n      and\n        /* \"#utility.yul\":3642:3707   */\n      swap1\n      pop\n        /* \"#utility.yul\":3587:3713   */\n      swap2\n      swap1\n      pop\n      jump\t// out\n        /* \"#utility.yul\":3842:3959   */\n    tag_46:\n        /* \"#utility.yul\":3951:3952   */\n      0x00\n        /* \"#utility.yul\":3948:3949   */\n      dup1\n        /* \"#utility.yul\":3941:3953   */\n      revert\n        /* \"#utility.yul\":3965:4128   */\n    tag_57:\n        /* \"#utility.yul\":4105:4120   */\n      0x494e56414c49445f434c41494d00000000000000000000000000000000000000\n        /* \"#utility.yul\":4101:4102   */\n      0x00\n        /* \"#utility.yul\":4093:4099   */\n      dup3\n        /* \"#utility.yul\":4089:4103   */\n      add\n        /* \"#utility.yul\":4082:4121   */\n      mstore\n        /* \"#utility.yul\":3965:4128   */\n      pop\n      jump\t// out\n        /* \"#utility.yul\":4134:4300   */\n    tag_62:\n        /* \"#utility.yul\":4274:4292   */\n      0x444f444f5f494e495449414c495a454400000000000000000000000000000000\n        /* \"#utility.yul\":4270:4271   */\n      0x00\n        /* \"#utility.yul\":4262:4268   */\n      dup3\n        /* \"#utility.yul\":4258:4272   */\n      add\n        /* \"#utility.yul\":4251:4293   */\n      mstore\n        /* \"#utility.yul\":4134:4300   */\n      pop\n      jump\t// out\n        /* \"#utility.yul\":4306:4465   */\n    tag_67:\n        /* \"#utility.yul\":4446:4457   */\n      0x4e4f545f4f574e45520000000000000000000000000000000000000000000000\n        /* \"#utility.yul\":4442:4443   */\n      0x00\n        /* \"#utility.yul\":4434:4440   */\n      dup3\n        /* \"#utility.yul\":4430:4444   */\n      add\n        /* \"#utility.yul\":4423:4458   */\n      mstore\n        /* \"#utility.yul\":4306:4465   */\n      pop\n      jump\t// out\n        /* \"#utility.yul\":4471:4593   */\n    tag_42:\n        /* \"#utility.yul\":4544:4568   */\n      tag_90\n        /* \"#utility.yul\":4562:4567   */\n      dup2\n        /* \"#utility.yul\":4544:4568   */\n      tag_51\n      jump\t// in\n    tag_90:\n        /* \"#utility.yul\":4537:4542   */\n      dup2\n        /* \"#utility.yul\":4534:4569   */\n      eq\n        /* \"#utility.yul\":4524:4587   */\n      tag_91\n      jumpi\n        /* \"#utility.yul\":4583:4584   */\n      0x00\n        /* \"#utility.yul\":4580:4581   */\n      dup1\n        /* \"#utility.yul\":4573:4585   */\n      revert\n        /* \"#utility.yul\":4524:4587   */\n    tag_91:\n        /* \"#utility.yul\":4471:4593   */\n      pop\n      jump\t// out\n\n    auxdata: 0xa2646970667358221220b543d1de3201f5d4303d79a1b45b741e079f96c767f9a81b94209a062129e85d64736f6c63430008070033\n}\n",
				"bytecode": {
					"linkReferences": {},
					"object": "608060405234801561001057600080fd5b50610734806100206000396000f3fe608060405234801561001057600080fd5b50600436106100575760003560e01c80630d0092971461005c57806316048bc4146100785780634e71e0c8146100965780638456db15146100a0578063f2fde38b146100be575b600080fd5b61007660048036038101906100719190610504565b6100da565b005b610080610187565b60405161008d91906105a9565b60405180910390f35b61009e6101ab565b005b6100a861037d565b6040516100b591906105a9565b60405180910390f35b6100d860048036038101906100d39190610504565b6103a3565b005b600160149054906101000a900460ff161561012a576040517f08c379a0000000000000000000000000000000000000000000000000000000008152600401610121906105e4565b60405180910390fd5b60018060146101000a81548160ff021916908315150217905550806000806101000a81548173ffffffffffffffffffffffffffffffffffffffff021916908373ffffffffffffffffffffffffffffffffffffffff16021790555050565b60008054906101000a900473ffffffffffffffffffffffffffffffffffffffff1681565b600160009054906101000a900473ffffffffffffffffffffffffffffffffffffffff1673ffffffffffffffffffffffffffffffffffffffff163373ffffffffffffffffffffffffffffffffffffffff161461023b576040517f08c379a0000000000000000000000000000000000000000000000000000000008152600401610232906105c4565b60405180910390fd5b600160009054906101000a900473ffffffffffffffffffffffffffffffffffffffff1673ffffffffffffffffffffffffffffffffffffffff1660008054906101000a900473ffffffffffffffffffffffffffffffffffffffff1673ffffffffffffffffffffffffffffffffffffffff167f8be0079c531659141344cd1fd0a4f28419497f9722a3daafe3b4186f6b6457e060405160405180910390a3600160009054906101000a900473ffffffffffffffffffffffffffffffffffffffff166000806101000a81548173ffffffffffffffffffffffffffffffffffffffff021916908373ffffffffffffffffffffffffffffffffffffffff1602179055506000600160006101000a81548173ffffffffffffffffffffffffffffffffffffffff021916908373ffffffffffffffffffffffffffffffffffffffff160217905550565b600160009054906101000a900473ffffffffffffffffffffffffffffffffffffffff1681565b60008054906101000a900473ffffffffffffffffffffffffffffffffffffffff1673ffffffffffffffffffffffffffffffffffffffff163373ffffffffffffffffffffffffffffffffffffffff1614610431576040517f08c379a000000000000000000000000000000000000000000000000000000000815260040161042890610604565b60405180910390fd5b8073ffffffffffffffffffffffffffffffffffffffff1660008054906101000a900473ffffffffffffffffffffffffffffffffffffffff1673ffffffffffffffffffffffffffffffffffffffff167fdcf55418cee3220104fef63f979ff3c4097ad240c0c43dcb33ce837748983e6260405160405180910390a380600160006101000a81548173ffffffffffffffffffffffffffffffffffffffff021916908373ffffffffffffffffffffffffffffffffffffffff16021790555050565b6000813590506104fe816106e7565b92915050565b60006020828403121561051a57610519610667565b5b6000610528848285016104ef565b91505092915050565b61053a81610635565b82525050565b600061054d600d83610624565b91506105588261066c565b602082019050919050565b6000610570601083610624565b915061057b82610695565b602082019050919050565b6000610593600983610624565b915061059e826106be565b602082019050919050565b60006020820190506105be6000830184610531565b92915050565b600060208201905081810360008301526105dd81610540565b9050919050565b600060208201905081810360008301526105fd81610563565b9050919050565b6000602082019050818103600083015261061d81610586565b9050919050565b600082825260208201905092915050565b600061064082610647565b9050919050565b600073ffffffffffffffffffffffffffffffffffffffff82169050919050565b600080fd5b7f494e56414c49445f434c41494d00000000000000000000000000000000000000600082015250565b7f444f444f5f494e495449414c495a454400000000000000000000000000000000600082015250565b7f4e4f545f4f574e45520000000000000000000000000000000000000000000000600082015250565b6106f081610635565b81146106fb57600080fd5b5056fea2646970667358221220b543d1de3201f5d4303d79a1b45b741e079f96c767f9a81b94209a062129e85d64736f6c63430008070033",
					"opcodes": "PUSH1 0x80 PUSH1 0x40 MSTORE CALLVALUE DUP1 ISZERO PUSH2 0x10 JUMPI PUSH1 0x0 DUP1 REVERT JUMPDEST POP PUSH2 0x734 DUP1 PUSH2 0x20 PUSH1 0x0 CODECOPY PUSH1 0x0 RETURN INVALID PUSH1 0x80 PUSH1 0x40 MSTORE CALLVALUE DUP1 ISZERO PUSH2 0x10 JUMPI PUSH1 0x0 DUP1 REVERT JUMPDEST POP PUSH1 0x4 CALLDATASIZE LT PUSH2 0x57 JUMPI PUSH1 0x0 CALLDATALOAD PUSH1 0xE0 SHR DUP1 PUSH4 0xD009297 EQ PUSH2 0x5C JUMPI DUP1 PUSH4 0x16048BC4 EQ PUSH2 0x78 JUMPI DUP1 PUSH4 0x4E71E0C8 EQ PUSH2 0x96 JUMPI DUP1 PUSH4 0x8456DB15 EQ PUSH2 0xA0 JUMPI DUP1 PUSH4 0xF2FDE38B EQ PUSH2 0xBE JUMPI JUMPDEST PUSH1 0x0 DUP1 REVERT JUMPDEST PUSH2 0x76 PUSH1 0x4 DUP1 CALLDATASIZE SUB DUP2 ADD SWAP1 PUSH2 0x71 SWAP2 SWAP1 PUSH2 0x504 JUMP JUMPDEST PUSH2 0xDA JUMP JUMPDEST STOP JUMPDEST PUSH2 0x80 PUSH2 0x187 JUMP JUMPDEST PUSH1 0x40 MLOAD PUSH2 0x8D SWAP2 SWAP1 PUSH2 0x5A9 JUMP JUMPDEST PUSH1 0x40 MLOAD DUP1 SWAP2 SUB SWAP1 RETURN JUMPDEST PUSH2 0x9E PUSH2 0x1AB JUMP JUMPDEST STOP JUMPDEST PUSH2 0xA8 PUSH2 0x37D JUMP JUMPDEST PUSH1 0x40 MLOAD PUSH2 0xB5 SWAP2 SWAP1 PUSH2 0x5A9 JUMP JUMPDEST PUSH1 0x40 MLOAD DUP1 SWAP2 SUB SWAP1 RETURN JUMPDEST PUSH2 0xD8 PUSH1 0x4 DUP1 CALLDATASIZE SUB DUP2 ADD SWAP1 PUSH2 0xD3 SWAP2 SWAP1 PUSH2 0x504 JUMP JUMPDEST PUSH2 0x3A3 JUMP JUMPDEST STOP JUMPDEST PUSH1 0x1 PUSH1 0x14 SWAP1 SLOAD SWAP1 PUSH2 0x100 EXP SWAP1 DIV PUSH1 0xFF AND ISZERO PUSH2 0x12A JUMPI PUSH1 0x40 MLOAD PUSH32 0x8C379A000000000000000000000000000000000000000000000000000000000 DUP2 MSTORE PUSH1 0x4 ADD PUSH2 0x121 SWAP1 PUSH2 0x5E4 JUMP JUMPDEST PUSH1 0x40 MLOAD DUP1 SWAP2 SUB SWAP1 REVERT JUMPDEST PUSH1 0x1 DUP1 PUSH1 0x14 PUSH2 0x100 EXP DUP2 SLOAD DUP2 PUSH1 0xFF MUL NOT AND SWAP1 DUP4 ISZERO ISZERO MUL OR SWAP1 SSTORE POP DUP1 PUSH1 0x0 DUP1 PUSH2 0x100 EXP DUP2 SLOAD DUP2 PUSH20 0xFFFFFFFFFFFFFFFFFFFFFFFFFFFFFFFFFFFFFFFF MUL NOT AND SWAP1 DUP4 PUSH20 0xFFFFFFFFFFFFFFFFFFFFFFFFFFFFFFFFFFFFFFFF AND MUL OR SWAP1 SSTORE POP POP JUMP JUMPDEST PUSH1 0x0 DUP1 SLOAD SWAP1 PUSH2 0x100 EXP SWAP1 DIV PUSH20 0xFFFFFFFFFFFFFFFFFFFFFFFFFFFFFFFFFFFFFFFF AND DUP2 JUMP JUMPDEST PUSH1 0x1 PUSH1 0x0 SWAP1 SLOAD SWAP1 PUSH2 0x100 EXP SWAP1 DIV PUSH20 0xFFFFFFFFFFFFFFFFFFFFFFFFFFFFFFFFFFFFFFFF AND PUSH20 0xFFFFFFFFFFFFFFFFFFFFFFFFFFFFFFFFFFFFFFFF AND CALLER PUSH20 0xFFFFFFFFFFFFFFFFFFFFFFFFFFFFFFFFFFFFFFFF AND EQ PUSH2 0x23B JUMPI PUSH1 0x40 MLOAD PUSH32 0x8C379A000000000000000000000000000000000000000000000000000000000 DUP2 MSTORE PUSH1 0x4 ADD PUSH2 0x232 SWAP1 PUSH2 0x5C4 JUMP JUMPDEST PUSH1 0x40 MLOAD DUP1 SWAP2 SUB SWAP1 REVERT JUMPDEST PUSH1 0x1 PUSH1 0x0 SWAP1 SLOAD SWAP1 PUSH2 0x100 EXP SWAP1 DIV PUSH20 0xFFFFFFFFFFFFFFFFFFFFFFFFFFFFFFFFFFFFFFFF AND PUSH20 0xFFFFFFFFFFFFFFFFFFFFFFFFFFFFFFFFFFFFFFFF AND PUSH1 0x0 DUP1 SLOAD SWAP1 PUSH2 0x100 EXP SWAP1 DIV PUSH20 0xFFFFFFFFFFFFFFFFFFFFFFFFFFFFFFFFFFFFFFFF AND PUSH20 0xFFFFFFFFFFFFFFFFFFFFFFFFFFFFFFFFFFFFFFFF AND PUSH32 0x8BE0079C531659141344CD1FD0A4F28419497F9722A3DAAFE3B4186F6B6457E0 PUSH1 0x40 MLOAD PUSH1 0x40 MLOAD DUP1 SWAP2 SUB SWAP1 LOG3 PUSH1 0x1 PUSH1 0x0 SWAP1 SLOAD SWAP1 PUSH2 0x100 EXP SWAP1 DIV PUSH20 0xFFFFFFFFFFFFFFFFFFFFFFFFFFFFFFFFFFFFFFFF AND PUSH1 0x0 DUP1 PUSH2 0x100 EXP DUP2 SLOAD DUP2 PUSH20 0xFFFFFFFFFFFFFFFFFFFFFFFFFFFFFFFFFFFFFFFF MUL NOT AND SWAP1 DUP4 PUSH20 0xFFFFFFFFFFFFFFFFFFFFFFFFFFFFFFFFFFFFFFFF AND MUL OR SWAP1 SSTORE POP PUSH1 0x0 PUSH1 0x1 PUSH1 0x0 PUSH2 0x100 EXP DUP2 SLOAD DUP2 PUSH20 0xFFFFFFFFFFFFFFFFFFFFFFFFFFFFFFFFFFFFFFFF MUL NOT AND SWAP1 DUP4 PUSH20 0xFFFFFFFFFFFFFFFFFFFFFFFFFFFFFFFFFFFFFFFF AND MUL OR SWAP1 SSTORE POP JUMP JUMPDEST PUSH1 0x1 PUSH1 0x0 SWAP1 SLOAD SWAP1 PUSH2 0x100 EXP SWAP1 DIV PUSH20 0xFFFFFFFFFFFFFFFFFFFFFFFFFFFFFFFFFFFFFFFF AND DUP2 JUMP JUMPDEST PUSH1 0x0 DUP1 SLOAD SWAP1 PUSH2 0x100 EXP SWAP1 DIV PUSH20 0xFFFFFFFFFFFFFFFFFFFFFFFFFFFFFFFFFFFFFFFF AND PUSH20 0xFFFFFFFFFFFFFFFFFFFFFFFFFFFFFFFFFFFFFFFF AND CALLER PUSH20 0xFFFFFFFFFFFFFFFFFFFFFFFFFFFFFFFFFFFFFFFF AND EQ PUSH2 0x431 JUMPI PUSH1 0x40 MLOAD PUSH32 0x8C379A000000000000000000000000000000000000000000000000000000000 DUP2 MSTORE PUSH1 0x4 ADD PUSH2 0x428 SWAP1 PUSH2 0x604 JUMP JUMPDEST PUSH1 0x40 MLOAD DUP1 SWAP2 SUB SWAP1 REVERT JUMPDEST DUP1 PUSH20 0xFFFFFFFFFFFFFFFFFFFFFFFFFFFFFFFFFFFFFFFF AND PUSH1 0x0 DUP1 SLOAD SWAP1 PUSH2 0x100 EXP SWAP1 DIV PUSH20 0xFFFFFFFFFFFFFFFFFFFFFFFFFFFFFFFFFFFFFFFF AND PUSH20 0xFFFFFFFFFFFFFFFFFFFFFFFFFFFFFFFFFFFFFFFF AND PUSH32 0xDCF55418CEE3220104FEF63F979FF3C4097AD240C0C43DCB33CE837748983E62 PUSH1 0x40 MLOAD PUSH1 0x40 MLOAD DUP1 SWAP2 SUB SWAP1 LOG3 DUP1 PUSH1 0x1 PUSH1 0x0 PUSH2 0x100 EXP DUP2 SLOAD DUP2 PUSH20 0xFFFFFFFFFFFFFFFFFFFFFFFFFFFFFFFFFFFFFFFF MUL NOT AND SWAP1 DUP4 PUSH20 0xFFFFFFFFFFFFFFFFFFFFFFFFFFFFFFFFFFFFFFFF AND MUL OR SWAP1 SSTORE POP POP JUMP JUMPDEST PUSH1 0x0 DUP2 CALLDATALOAD SWAP1 POP PUSH2 0x4FE DUP2 PUSH2 0x6E7 JUMP JUMPDEST SWAP3 SWAP2 POP POP JUMP JUMPDEST PUSH1 0x0 PUSH1 0x20 DUP3 DUP5 SUB SLT ISZERO PUSH2 0x51A JUMPI PUSH2 0x519 PUSH2 0x667 JUMP JUMPDEST JUMPDEST PUSH1 0x0 PUSH2 0x528 DUP5 DUP3 DUP6 ADD PUSH2 0x4EF JUMP JUMPDEST SWAP2 POP POP SWAP3 SWAP2 POP POP JUMP JUMPDEST PUSH2 0x53A DUP2 PUSH2 0x635 JUMP JUMPDEST DUP3 MSTORE POP POP JUMP JUMPDEST PUSH1 0x0 PUSH2 0x54D PUSH1 0xD DUP4 PUSH2 0x624 JUMP JUMPDEST SWAP2 POP PUSH2 0x558 DUP3 PUSH2 0x66C JUMP JUMPDEST PUSH1 0x20 DUP3 ADD SWAP1 POP SWAP2 SWAP1 POP JUMP JUMPDEST PUSH1 0x0 PUSH2 0x570 PUSH1 0x10 DUP4 PUSH2 0x624 JUMP JUMPDEST SWAP2 POP PUSH2 0x57B DUP3 PUSH2 0x695 JUMP JUMPDEST PUSH1 0x20 DUP3 ADD SWAP1 POP SWAP2 SWAP1 POP JUMP JUMPDEST PUSH1 0x0 PUSH2 0x593 PUSH1 0x9 DUP4 PUSH2 0x624 JUMP JUMPDEST SWAP2 POP PUSH2 0x59E DUP3 PUSH2 0x6BE JUMP JUMPDEST PUSH1 0x20 DUP3 ADD SWAP1 POP SWAP2 SWAP1 POP JUMP JUMPDEST PUSH1 0x0 PUSH1 0x20 DUP3 ADD SWAP1 POP PUSH2 0x5BE PUSH1 0x0 DUP4 ADD DUP5 PUSH2 0x531 JUMP JUMPDEST SWAP3 SWAP2 POP POP JUMP JUMPDEST PUSH1 0x0 PUSH1 0x20 DUP3 ADD SWAP1 POP DUP2 DUP2 SUB PUSH1 0x0 DUP4 ADD MSTORE PUSH2 0x5DD DUP2 PUSH2 0x540 JUMP JUMPDEST SWAP1 POP SWAP2 SWAP1 POP JUMP JUMPDEST PUSH1 0x0 PUSH1 0x20 DUP3 ADD SWAP1 POP DUP2 DUP2 SUB PUSH1 0x0 DUP4 ADD MSTORE PUSH2 0x5FD DUP2 PUSH2 0x563 JUMP JUMPDEST SWAP1 POP SWAP2 SWAP1 POP JUMP JUMPDEST PUSH1 0x0 PUSH1 0x20 DUP3 ADD SWAP1 POP DUP2 DUP2 SUB PUSH1 0x0 DUP4 ADD MSTORE PUSH2 0x61D DUP2 PUSH2 0x586 JUMP JUMPDEST SWAP1 POP SWAP2 SWAP1 POP JUMP JUMPDEST PUSH1 0x0 DUP3 DUP3 MSTORE PUSH1 0x20 DUP3 ADD SWAP1 POP SWAP3 SWAP2 POP POP JUMP JUMPDEST PUSH1 0x0 PUSH2 0x640 DUP3 PUSH2 0x647 JUMP JUMPDEST SWAP1 POP SWAP2 SWAP1 POP JUMP JUMPDEST PUSH1 0x0 PUSH20 0xFFFFFFFFFFFFFFFFFFFFFFFFFFFFFFFFFFFFFFFF DUP3 AND SWAP1 POP SWAP2 SWAP1 POP JUMP JUMPDEST PUSH1 0x0 DUP1 REVERT JUMPDEST PUSH32 0x494E56414C49445F434C41494D00000000000000000000000000000000000000 PUSH1 0x0 DUP3 ADD MSTORE POP JUMP JUMPDEST PUSH32 0x444F444F5F494E495449414C495A454400000000000000000000000000000000 PUSH1 0x0 DUP3 ADD MSTORE POP JUMP JUMPDEST PUSH32 0x4E4F545F4F574E45520000000000000000000000000000000000000000000000 PUSH1 0x0 DUP3 ADD MSTORE POP JUMP JUMPDEST PUSH2 0x6F0 DUP2 PUSH2 0x635 JUMP JUMPDEST DUP2 EQ PUSH2 0x6FB JUMPI PUSH1 0x0 DUP1 REVERT JUMPDEST POP JUMP INVALID LOG2 PUSH5 0x6970667358 0x22 SLT KECCAK256 0xB5 NUMBER 0xD1 0xDE ORIGIN ADD CREATE2 0xD4 ADDRESS RETURNDATASIZE PUSH26 0xA1B45B741E079F96C767F9A81B94209A062129E85D64736F6C63 NUMBER STOP ADDMOD SMOD STOP CALLER "
				},
				"gasEstimates": {
					"creation": {
						"codeDepositCost": "368800",
						"executionCost": "405",
						"totalCost": "369205"
					},
					"external": {
						"_NEW_OWNER_()": "2558",
						"_OWNER_()": "2511",
						"claimOwnership()": "58820",
						"initOwner(address)": "51223",
						"transferOwnership(address)": "30633"
					}
				},
				"methodIdentifiers": {
					"_NEW_OWNER_()": "8456db15",
					"_OWNER_()": "16048bc4",
					"claimOwnership()": "4e71e0c8",
					"initOwner(address)": "0d009297",
					"transferOwnership(address)": "f2fde38b"
				}
			},
			"storageLayout": {
				"storage": [
					{
						"astId": 35,
						"contract": "contracts/ERC20V3SimpleFactory.sol:InitializableOwnable",
						"label": "_OWNER_",
						"offset": 0,
						"slot": "0",
						"type": "t_address"
					},
					{
						"astId": 37,
						"contract": "contracts/ERC20V3SimpleFactory.sol:InitializableOwnable",
						"label": "_NEW_OWNER_",
						"offset": 0,
						"slot": "1",
						"type": "t_address"
					},
					{
						"astId": 39,
						"contract": "contracts/ERC20V3SimpleFactory.sol:InitializableOwnable",
						"label": "_INITIALIZED_",
						"offset": 20,
						"slot": "1",
						"type": "t_bool"
					}
				],
				"types": {
					"t_address": {
						"encoding": "inplace",
						"label": "address",
						"numberOfBytes": "20"
					},
					"t_bool": {
						"encoding": "inplace",
						"label": "bool",
						"numberOfBytes": "1"
					}
				}
			},
			"userdoc": {
				"kind": "user",
				"methods": {},
				"notice": "Ownership related functions",
				"version": 1
			}
		}
	}
}