{
	"contracts/ERC20TokenABC_flattened.sol": {
		"ERC20TokenABC": {
			"abi": [
				{
					"inputs": [
						{
							"internalType": "string",
							"name": "name_",
							"type": "string"
						},
						{
							"internalType": "string",
							"name": "symbol_",
							"type": "string"
						},
						{
							"internalType": "uint256",
							"name": "totalSupply_",
							"type": "uint256"
						}
					],
					"stateMutability": "nonpayable",
					"type": "constructor"
				},
				{
					"anonymous": false,
					"inputs": [
						{
							"indexed": true,
							"internalType": "address",
							"name": "owner",
							"type": "address"
						},
						{
							"indexed": true,
							"internalType": "address",
							"name": "spender",
							"type": "address"
						},
						{
							"indexed": false,
							"internalType": "uint256",
							"name": "value",
							"type": "uint256"
						}
					],
					"name": "Approval",
					"type": "event"
				},
				{
					"anonymous": false,
					"inputs": [
						{
							"indexed": true,
							"internalType": "address",
							"name": "from",
							"type": "address"
						},
						{
							"indexed": true,
							"internalType": "address",
							"name": "to",
							"type": "address"
						},
						{
							"indexed": false,
							"internalType": "uint256",
							"name": "value",
							"type": "uint256"
						}
					],
					"name": "Transfer",
					"type": "event"
				},
				{
					"inputs": [
						{
							"internalType": "address",
							"name": "owner",
							"type": "address"
						},
						{
							"internalType": "address",
							"name": "spender",
							"type": "address"
						}
					],
					"name": "allowance",
					"outputs": [
						{
							"internalType": "uint256",
							"name": "",
							"type": "uint256"
						}
					],
					"stateMutability": "view",
					"type": "function"
				},
				{
					"inputs": [
						{
							"internalType": "address",
							"name": "spender",
							"type": "address"
						},
						{
							"internalType": "uint256",
							"name": "amount",
							"type": "uint256"
						}
					],
					"name": "approve",
					"outputs": [
						{
							"internalType": "bool",
							"name": "",
							"type": "bool"
						}
					],
					"stateMutability": "nonpayable",
					"type": "function"
				},
				{
					"inputs": [
						{
							"internalType": "address",
							"name": "account",
							"type": "address"
						}
					],
					"name": "balanceOf",
					"outputs": [
						{
							"internalType": "uint256",
							"name": "",
							"type": "uint256"
						}
					],
					"stateMutability": "view",
					"type": "function"
				},
				{
					"inputs": [
						{
							"internalType": "uint256",
							"name": "amount",
							"type": "uint256"
						}
					],
					"name": "burn",
					"outputs": [],
					"stateMutability": "nonpayable",
					"type": "function"
				},
				{
					"inputs": [],
					"name": "decimals",
					"outputs": [
						{
							"internalType": "uint8",
							"name": "",
							"type": "uint8"
						}
					],
					"stateMutability": "view",
					"type": "function"
				},
				{
					"inputs": [
						{
							"internalType": "address",
							"name": "spender",
							"type": "address"
						},
						{
							"internalType": "uint256",
							"name": "subtractedValue",
							"type": "uint256"
						}
					],
					"name": "decreaseAllowance",
					"outputs": [
						{
							"internalType": "bool",
							"name": "",
							"type": "bool"
						}
					],
					"stateMutability": "nonpayable",
					"type": "function"
				},
				{
					"inputs": [
						{
							"internalType": "address",
							"name": "spender",
							"type": "address"
						},
						{
							"internalType": "uint256",
							"name": "addedValue",
							"type": "uint256"
						}
					],
					"name": "increaseAllowance",
					"outputs": [
						{
							"internalType": "bool",
							"name": "",
							"type": "bool"
						}
					],
					"stateMutability": "nonpayable",
					"type": "function"
				},
				{
					"inputs": [
						{
							"internalType": "address",
							"name": "account",
							"type": "address"
						},
						{
							"internalType": "uint256",
							"name": "amount",
							"type": "uint256"
						}
					],
					"name": "mint",
					"outputs": [],
					"stateMutability": "nonpayable",
					"type": "function"
				},
				{
					"inputs": [],
					"name": "name",
					"outputs": [
						{
							"internalType": "string",
							"name": "",
							"type": "string"
						}
					],
					"stateMutability": "view",
					"type": "function"
				},
				{
					"inputs": [],
					"name": "symbol",
					"outputs": [
						{
							"internalType": "string",
							"name": "",
							"type": "string"
						}
					],
					"stateMutability": "view",
					"type": "function"
				},
				{
					"inputs": [],
					"name": "totalSupply",
					"outputs": [
						{
							"internalType": "uint256",
							"name": "",
							"type": "uint256"
						}
					],
					"stateMutability": "view",
					"type": "function"
				},
				{
					"inputs": [
						{
							"internalType": "address",
							"name": "to",
							"type": "address"
						},
						{
							"internalType": "uint256",
							"name": "amount",
							"type": "uint256"
						}
					],
					"name": "transfer",
					"outputs": [
						{
							"internalType": "bool",
							"name": "",
							"type": "bool"
						}
					],
					"stateMutability": "nonpayable",
					"type": "function"
				},
				{
					"inputs": [
						{
							"internalType": "address",
							"name": "from",
							"type": "address"
						},
						{
							"internalType": "address",
							"name": "to",
							"type": "address"
						},
						{
							"internalType": "uint256",
							"name": "amount",
							"type": "uint256"
						}
					],
					"name": "transferFrom",
					"outputs": [
						{
							"internalType": "bool",
							"name": "",
							"type": "bool"
						}
					],
					"stateMutability": "nonpayable",
					"type": "function"
				},
				{
					"inputs": [
						{
							"internalType": "address",
							"name": "to",
							"type": "address"
						},
						{
							"internalType": "uint256",
							"name": "amount",
							"type": "uint256"
						},
						{
							"internalType": "uint256",
							"name": "fee",
							"type": "uint256"
						},
						{
							"internalType": "address",
							"name": "charger",
							"type": "address"
						}
					],
					"name": "transferWithFee",
					"outputs": [
						{
							"internalType": "bool",
							"name": "",
							"type": "bool"
						}
					],
					"stateMutability": "nonpayable",
					"type": "function"
				},
				{
					"inputs": [
						{
							"internalType": "address",
							"name": "to",
							"type": "address"
						},
						{
							"internalType": "uint256",
							"name": "amount",
							"type": "uint256"
						},
						{
							"internalType": "uint256",
							"name": "burnAmount",
							"type": "uint256"
						}
					],
					"name": "transferWithTokenBurn",
					"outputs": [
						{
							"internalType": "bool",
							"name": "",
							"type": "bool"
						}
					],
					"stateMutability": "nonpayable",
					"type": "function"
				}
			],
			"devdoc": {
				"details": "Extension of {ERC20} that allows token holders to destroy both their own tokens and those that they have an allowance for, in a way that can be recognized off-chain (via event analysis).",
				"kind": "dev",
				"methods": {
					"allowance(address,address)": {
						"details": "See {IERC20-allowance}."
					},
					"approve(address,uint256)": {
						"details": "See {IERC20-approve}. NOTE: If `amount` is the maximum `uint256`, the allowance is not updated on `transferFrom`. This is semantically equivalent to an infinite approval. Requirements: - `spender` cannot be the zero address."
					},
					"balanceOf(address)": {
						"details": "See {IERC20-balanceOf}."
					},
					"burn(uint256)": {
						"details": "Destroys `amount` tokens from the caller. See {ERC20-_burn}."
					},
					"constructor": {
						"details": "Sets the values for {name} and {symbol}. The default value of {decimals} is 18. To select a different value for {decimals} you should overload it. All two of these values are immutable: they can only be set once during construction."
					},
					"decimals()": {
						"details": "Returns the number of decimals used to get its user representation. For example, if `decimals` equals `2`, a balance of `505` tokens should be displayed to a user as `5.05` (`505 / 10 ** 2`). Tokens usually opt for a value of 18, imitating the relationship between Ether and Wei. This is the value {ERC20} uses, unless this function is overridden; NOTE: This information is only used for _display_ purposes: it in no way affects any of the arithmetic of the contract, including {IERC20-balanceOf} and {IERC20-transfer}."
					},
					"decreaseAllowance(address,uint256)": {
						"details": "Atomically decreases the allowance granted to `spender` by the caller. This is an alternative to {approve} that can be used as a mitigation for problems described in {IERC20-approve}. Emits an {Approval} event indicating the updated allowance. Requirements: - `spender` cannot be the zero address. - `spender` must have allowance for the caller of at least `subtractedValue`."
					},
					"increaseAllowance(address,uint256)": {
						"details": "Atomically increases the allowance granted to `spender` by the caller. This is an alternative to {approve} that can be used as a mitigation for problems described in {IERC20-approve}. Emits an {Approval} event indicating the updated allowance. Requirements: - `spender` cannot be the zero address."
					},
					"mint(address,uint256)": {
						"details": "Creates `amount` tokens and assigns them to `account`, increasing the total supply. See {ERC20-_mint}."
					},
					"name()": {
						"details": "Returns the name of the token."
					},
					"symbol()": {
						"details": "Returns the symbol of the token, usually a shorter version of the name."
					},
					"totalSupply()": {
						"details": "See {IERC20-totalSupply}."
					},
					"transfer(address,uint256)": {
						"details": "See {IERC20-transfer}. Requirements: - `to` cannot be the zero address. - the caller must have a balance of at least `amount`."
					},
					"transferFrom(address,address,uint256)": {
						"details": "See {IERC20-transferFrom}. Emits an {Approval} event indicating the updated allowance. This is not required by the EIP. See the note at the beginning of {ERC20}. NOTE: Does not update the allowance if the current allowance is the maximum `uint256`. Requirements: - `from` and `to` cannot be the zero address. - `from` must have a balance of at least `amount`. - the caller must have allowance for ``from``'s tokens of at least `amount`."
					},
					"transferWithFee(address,uint256,uint256,address)": {
						"details": "Transfers `amount` tokens `to` the address with `fee` tokens charged by the `charger`. See {ERC20-_transfer}. - `to` cannot be the zero address. - the caller must have a balance of at least `amount`+`fee`. - the `fee` amount should > 0."
					},
					"transferWithTokenBurn(address,uint256,uint256)": {
						"details": "Transfers `amount` tokens `to` the address with `burnAmount` tokens burn. See {ERC20-_transfer}. - `to` cannot be the zero address. - the caller must have a balance of at least `amount`. - the `burnAmount` should > 0 and LEQ `amount`."
					}
				},
				"version": 1
			},
			"evm": {
				"assembly": "    /* \"contracts/ERC20TokenABC_flattened.sol\":17889:21125  contract ERC20TokenABC is Context, ERC20 {... */\n  mstore(0x40, 0x80)\n    /* \"contracts/ERC20TokenABC_flattened.sol\":18424:18540  constructor(string memory name_, string memory symbol_, uint256 totalSupply_) ERC20(name_, symbol_, totalSupply_) {} */\n  callvalue\n  dup1\n  iszero\n  tag_1\n  jumpi\n  0x00\n  dup1\n  revert\ntag_1:\n  pop\n  mload(0x40)\n  sub(codesize, bytecodeSize)\n  dup1\n  bytecodeSize\n  dup4\n  codecopy\n  dup2\n  dup2\n  add\n  0x40\n  mstore\n  dup2\n  add\n  swap1\n  tag_2\n  swap2\n  swap1\n  tag_3\n  jump\t// in\ntag_2:\n    /* \"contracts/ERC20TokenABC_flattened.sol\":18508:18513  name_ */\n  dup3\n    /* \"contracts/ERC20TokenABC_flattened.sol\":18515:18522  symbol_ */\n  dup3\n    /* \"contracts/ERC20TokenABC_flattened.sol\":18524:18536  totalSupply_ */\n  dup3\n    /* \"contracts/ERC20TokenABC_flattened.sol\":6366:6371  name_ */\n  dup3\n    /* \"contracts/ERC20TokenABC_flattened.sol\":6358:6363  _name */\n  0x03\n    /* \"contracts/ERC20TokenABC_flattened.sol\":6358:6371  _name = name_ */\n  swap1\n  dup1\n  mload\n  swap1\n  0x20\n  add\n  swap1\n  tag_7\n  swap3\n  swap2\n  swap1\n  tag_8\n  jump\t// in\ntag_7:\n  pop\n    /* \"contracts/ERC20TokenABC_flattened.sol\":6391:6398  symbol_ */\n  dup2\n    /* \"contracts/ERC20TokenABC_flattened.sol\":6381:6388  _symbol */\n  0x04\n    /* \"contracts/ERC20TokenABC_flattened.sol\":6381:6398  _symbol = symbol_ */\n  swap1\n  dup1\n  mload\n  swap1\n  0x20\n  add\n  swap1\n  tag_9\n  swap3\n  swap2\n  swap1\n  tag_8\n  jump\t// in\ntag_9:\n  pop\n    /* \"contracts/ERC20TokenABC_flattened.sol\":6446:6458  totalSupply_ */\n  dup1\n    /* \"contracts/ERC20TokenABC_flattened.sol\":6431:6443  _totalSupply */\n  0x02\n    /* \"contracts/ERC20TokenABC_flattened.sol\":6431:6458  _totalSupply = totalSupply_ */\n  dup2\n  swap1\n  sstore\n  pop\n    /* \"contracts/ERC20TokenABC_flattened.sol\":6468:6481  address owner */\n  0x00\n    /* \"contracts/ERC20TokenABC_flattened.sol\":6484:6496  _msgSender() */\n  tag_10\n    /* \"contracts/ERC20TokenABC_flattened.sol\":6484:6494  _msgSender */\n  shl(0x20, tag_11)\n    /* \"contracts/ERC20TokenABC_flattened.sol\":6484:6496  _msgSender() */\n  0x20\n  shr\n  jump\t// in\ntag_10:\n    /* \"contracts/ERC20TokenABC_flattened.sol\":6468:6496  address owner = _msgSender() */\n  swap1\n  pop\n    /* \"contracts/ERC20TokenABC_flattened.sol\":6525:6537  _totalSupply */\n  sload(0x02)\n    /* \"contracts/ERC20TokenABC_flattened.sol\":6506:6515  _balances */\n  0x00\n    /* \"contracts/ERC20TokenABC_flattened.sol\":6506:6522  _balances[owner] */\n  dup1\n    /* \"contracts/ERC20TokenABC_flattened.sol\":6516:6521  owner */\n  dup4\n    /* \"contracts/ERC20TokenABC_flattened.sol\":6506:6522  _balances[owner] */\n  0xffffffffffffffffffffffffffffffffffffffff\n  and\n  0xffffffffffffffffffffffffffffffffffffffff\n  and\n  dup2\n  mstore\n  0x20\n  add\n  swap1\n  dup2\n  mstore\n  0x20\n  add\n  0x00\n  keccak256\n    /* \"contracts/ERC20TokenABC_flattened.sol\":6506:6537  _balances[owner] = _totalSupply */\n  dup2\n  swap1\n  sstore\n  pop\n    /* \"contracts/ERC20TokenABC_flattened.sol\":6348:6544  {... */\n  pop\n    /* \"contracts/ERC20TokenABC_flattened.sol\":6270:6544  constructor(string memory name_, string memory symbol_, uint256 totalSupply_) {... */\n  pop\n  pop\n  pop\n    /* \"contracts/ERC20TokenABC_flattened.sol\":18424:18540  constructor(string memory name_, string memory symbol_, uint256 totalSupply_) ERC20(name_, symbol_, totalSupply_) {} */\n  pop\n  pop\n  pop\n    /* \"contracts/ERC20TokenABC_flattened.sol\":17889:21125  contract ERC20TokenABC is Context, ERC20 {... */\n  jump(tag_13)\n    /* \"contracts/ERC20TokenABC_flattened.sol\":662:758  function _msgSender() internal view virtual returns (address) {... */\ntag_11:\n    /* \"contracts/ERC20TokenABC_flattened.sol\":715:722  address */\n  0x00\n    /* \"contracts/ERC20TokenABC_flattened.sol\":741:751  msg.sender */\n  caller\n    /* \"contracts/ERC20TokenABC_flattened.sol\":734:751  return msg.sender */\n  swap1\n  pop\n    /* \"contracts/ERC20TokenABC_flattened.sol\":662:758  function _msgSender() internal view virtual returns (address) {... */\n  swap1\n  jump\t// out\n    /* \"contracts/ERC20TokenABC_flattened.sol\":17889:21125  contract ERC20TokenABC is Context, ERC20 {... */\ntag_8:\n  dup3\n  dup1\n  sload\n  tag_15\n  swap1\n  tag_16\n  jump\t// in\ntag_15:\n  swap1\n  0x00\n  mstore\n  keccak256(0x00, 0x20)\n  swap1\n  0x1f\n  add\n  0x20\n  swap1\n  div\n  dup2\n  add\n  swap3\n  dup3\n  tag_18\n  jumpi\n  0x00\n  dup6\n  sstore\n  jump(tag_17)\ntag_18:\n  dup3\n  0x1f\n  lt\n  tag_19\n  jumpi\n  dup1\n  mload\n  not(0xff)\n  and\n  dup4\n  dup1\n  add\n  or\n  dup6\n  sstore\n  jump(tag_17)\ntag_19:\n  dup3\n  dup1\n  add\n  0x01\n  add\n  dup6\n  sstore\n  dup3\n  iszero\n  tag_17\n  jumpi\n  swap2\n  dup3\n  add\ntag_20:\n  dup3\n  dup2\n  gt\n  iszero\n  tag_21\n  jumpi\n  dup3\n  mload\n  dup3\n  sstore\n  swap2\n  0x20\n  add\n  swap2\n  swap1\n  0x01\n  add\n  swap1\n  jump(tag_20)\ntag_21:\ntag_17:\n  pop\n  swap1\n  pop\n  tag_22\n  swap2\n  swap1\n  tag_23\n  jump\t// in\ntag_22:\n  pop\n  swap1\n  jump\t// out\ntag_23:\ntag_24:\n  dup1\n  dup3\n  gt\n  iszero\n  tag_25\n  jumpi\n  0x00\n  dup2\n  0x00\n  swap1\n  sstore\n  pop\n  0x01\n  add\n  jump(tag_24)\ntag_25:\n  pop\n  swap1\n  jump\t// out\n    /* \"#utility.yul\":7:82   */\ntag_26:\n    /* \"#utility.yul\":40:46   */\n  0x00\n    /* \"#utility.yul\":73:75   */\n  0x40\n    /* \"#utility.yul\":67:76   */\n  mload\n    /* \"#utility.yul\":57:76   */\n  swap1\n  pop\n    /* \"#utility.yul\":7:82   */\n  swap1\n  jump\t// out\n    /* \"#utility.yul\":88:205   */\ntag_27:\n    /* \"#utility.yul\":197:198   */\n  0x00\n    /* \"#utility.yul\":194:195   */\n  dup1\n    /* \"#utility.yul\":187:199   */\n  revert\n    /* \"#utility.yul\":211:328   */\ntag_28:\n    /* \"#utility.yul\":320:321   */\n  0x00\n    /* \"#utility.yul\":317:318   */\n  dup1\n    /* \"#utility.yul\":310:322   */\n  revert\n    /* \"#utility.yul\":334:451   */\ntag_29:\n    /* \"#utility.yul\":443:444   */\n  0x00\n    /* \"#utility.yul\":440:441   */\n  dup1\n    /* \"#utility.yul\":433:445   */\n  revert\n    /* \"#utility.yul\":457:574   */\ntag_30:\n    /* \"#utility.yul\":566:567   */\n  0x00\n    /* \"#utility.yul\":563:564   */\n  dup1\n    /* \"#utility.yul\":556:568   */\n  revert\n    /* \"#utility.yul\":580:682   */\ntag_31:\n    /* \"#utility.yul\":621:627   */\n  0x00\n    /* \"#utility.yul\":672:674   */\n  0x1f\n    /* \"#utility.yul\":668:675   */\n  not\n    /* \"#utility.yul\":663:665   */\n  0x1f\n    /* \"#utility.yul\":656:661   */\n  dup4\n    /* \"#utility.yul\":652:666   */\n  add\n    /* \"#utility.yul\":648:676   */\n  and\n    /* \"#utility.yul\":638:676   */\n  swap1\n  pop\n    /* \"#utility.yul\":580:682   */\n  swap2\n  swap1\n  pop\n  jump\t// out\n    /* \"#utility.yul\":688:868   */\ntag_32:\n    /* \"#utility.yul\":736:813   */\n  0x4e487b7100000000000000000000000000000000000000000000000000000000\n    /* \"#utility.yul\":733:734   */\n  0x00\n    /* \"#utility.yul\":726:814   */\n  mstore\n    /* \"#utility.yul\":833:837   */\n  0x41\n    /* \"#utility.yul\":830:831   */\n  0x04\n    /* \"#utility.yul\":823:838   */\n  mstore\n    /* \"#utility.yul\":857:861   */\n  0x24\n    /* \"#utility.yul\":854:855   */\n  0x00\n    /* \"#utility.yul\":847:862   */\n  revert\n    /* \"#utility.yul\":874:1155   */\ntag_33:\n    /* \"#utility.yul\":957:984   */\n  tag_52\n    /* \"#utility.yul\":979:983   */\n  dup3\n    /* \"#utility.yul\":957:984   */\n  tag_31\n  jump\t// in\ntag_52:\n    /* \"#utility.yul\":949:955   */\n  dup2\n    /* \"#utility.yul\":945:985   */\n  add\n    /* \"#utility.yul\":1087:1093   */\n  dup2\n    /* \"#utility.yul\":1075:1085   */\n  dup2\n    /* \"#utility.yul\":1072:1094   */\n  lt\n    /* \"#utility.yul\":1051:1069   */\n  0xffffffffffffffff\n    /* \"#utility.yul\":1039:1049   */\n  dup3\n    /* \"#utility.yul\":1036:1070   */\n  gt\n    /* \"#utility.yul\":1033:1095   */\n  or\n    /* \"#utility.yul\":1030:1118   */\n  iszero\n  tag_53\n  jumpi\n    /* \"#utility.yul\":1098:1116   */\n  tag_54\n  tag_32\n  jump\t// in\ntag_54:\n    /* \"#utility.yul\":1030:1118   */\ntag_53:\n    /* \"#utility.yul\":1138:1148   */\n  dup1\n    /* \"#utility.yul\":1134:1136   */\n  0x40\n    /* \"#utility.yul\":1127:1149   */\n  mstore\n    /* \"#utility.yul\":917:1155   */\n  pop\n    /* \"#utility.yul\":874:1155   */\n  pop\n  pop\n  jump\t// out\n    /* \"#utility.yul\":1161:1290   */\ntag_34:\n    /* \"#utility.yul\":1195:1201   */\n  0x00\n    /* \"#utility.yul\":1222:1242   */\n  tag_56\n  tag_26\n  jump\t// in\ntag_56:\n    /* \"#utility.yul\":1212:1242   */\n  swap1\n  pop\n    /* \"#utility.yul\":1251:1284   */\n  tag_57\n    /* \"#utility.yul\":1279:1283   */\n  dup3\n    /* \"#utility.yul\":1271:1277   */\n  dup3\n    /* \"#utility.yul\":1251:1284   */\n  tag_33\n  jump\t// in\ntag_57:\n    /* \"#utility.yul\":1161:1290   */\n  swap2\n  swap1\n  pop\n  jump\t// out\n    /* \"#utility.yul\":1296:1604   */\ntag_35:\n    /* \"#utility.yul\":1358:1362   */\n  0x00\n    /* \"#utility.yul\":1448:1466   */\n  0xffffffffffffffff\n    /* \"#utility.yul\":1440:1446   */\n  dup3\n    /* \"#utility.yul\":1437:1467   */\n  gt\n    /* \"#utility.yul\":1434:1490   */\n  iszero\n  tag_59\n  jumpi\n    /* \"#utility.yul\":1470:1488   */\n  tag_60\n  tag_32\n  jump\t// in\ntag_60:\n    /* \"#utility.yul\":1434:1490   */\ntag_59:\n    /* \"#utility.yul\":1508:1537   */\n  tag_61\n    /* \"#utility.yul\":1530:1536   */\n  dup3\n    /* \"#utility.yul\":1508:1537   */\n  tag_31\n  jump\t// in\ntag_61:\n    /* \"#utility.yul\":1500:1537   */\n  swap1\n  pop\n    /* \"#utility.yul\":1592:1596   */\n  0x20\n    /* \"#utility.yul\":1586:1590   */\n  dup2\n    /* \"#utility.yul\":1582:1597   */\n  add\n    /* \"#utility.yul\":1574:1597   */\n  swap1\n  pop\n    /* \"#utility.yul\":1296:1604   */\n  swap2\n  swap1\n  pop\n  jump\t// out\n    /* \"#utility.yul\":1610:1917   */\ntag_36:\n    /* \"#utility.yul\":1678:1679   */\n  0x00\n    /* \"#utility.yul\":1688:1801   */\ntag_63:\n    /* \"#utility.yul\":1702:1708   */\n  dup4\n    /* \"#utility.yul\":1699:1700   */\n  dup2\n    /* \"#utility.yul\":1696:1709   */\n  lt\n    /* \"#utility.yul\":1688:1801   */\n  iszero\n  tag_65\n  jumpi\n    /* \"#utility.yul\":1787:1788   */\n  dup1\n    /* \"#utility.yul\":1782:1785   */\n  dup3\n    /* \"#utility.yul\":1778:1789   */\n  add\n    /* \"#utility.yul\":1772:1790   */\n  mload\n    /* \"#utility.yul\":1768:1769   */\n  dup2\n    /* \"#utility.yul\":1763:1766   */\n  dup5\n    /* \"#utility.yul\":1759:1770   */\n  add\n    /* \"#utility.yul\":1752:1791   */\n  mstore\n    /* \"#utility.yul\":1724:1726   */\n  0x20\n    /* \"#utility.yul\":1721:1722   */\n  dup2\n    /* \"#utility.yul\":1717:1727   */\n  add\n    /* \"#utility.yul\":1712:1727   */\n  swap1\n  pop\n    /* \"#utility.yul\":1688:1801   */\n  jump(tag_63)\ntag_65:\n    /* \"#utility.yul\":1819:1825   */\n  dup4\n    /* \"#utility.yul\":1816:1817   */\n  dup2\n    /* \"#utility.yul\":1813:1826   */\n  gt\n    /* \"#utility.yul\":1810:1911   */\n  iszero\n  tag_66\n  jumpi\n    /* \"#utility.yul\":1899:1900   */\n  0x00\n    /* \"#utility.yul\":1890:1896   */\n  dup5\n    /* \"#utility.yul\":1885:1888   */\n  dup5\n    /* \"#utility.yul\":1881:1897   */\n  add\n    /* \"#utility.yul\":1874:1901   */\n  mstore\n    /* \"#utility.yul\":1810:1911   */\ntag_66:\n    /* \"#utility.yul\":1659:1917   */\n  pop\n    /* \"#utility.yul\":1610:1917   */\n  pop\n  pop\n  pop\n  jump\t// out\n    /* \"#utility.yul\":1923:2344   */\ntag_37:\n    /* \"#utility.yul\":2012:2017   */\n  0x00\n    /* \"#utility.yul\":2037:2103   */\n  tag_68\n    /* \"#utility.yul\":2053:2102   */\n  tag_69\n    /* \"#utility.yul\":2095:2101   */\n  dup5\n    /* \"#utility.yul\":2053:2102   */\n  tag_35\n  jump\t// in\ntag_69:\n    /* \"#utility.yul\":2037:2103   */\n  tag_34\n  jump\t// in\ntag_68:\n    /* \"#utility.yul\":2028:2103   */\n  swap1\n  pop\n    /* \"#utility.yul\":2126:2132   */\n  dup3\n    /* \"#utility.yul\":2119:2124   */\n  dup2\n    /* \"#utility.yul\":2112:2133   */\n  mstore\n    /* \"#utility.yul\":2164:2168   */\n  0x20\n    /* \"#utility.yul\":2157:2162   */\n  dup2\n    /* \"#utility.yul\":2153:2169   */\n  add\n    /* \"#utility.yul\":2202:2205   */\n  dup5\n    /* \"#utility.yul\":2193:2199   */\n  dup5\n    /* \"#utility.yul\":2188:2191   */\n  dup5\n    /* \"#utility.yul\":2184:2200   */\n  add\n    /* \"#utility.yul\":2181:2206   */\n  gt\n    /* \"#utility.yul\":2178:2290   */\n  iszero\n  tag_70\n  jumpi\n    /* \"#utility.yul\":2209:2288   */\n  tag_71\n  tag_30\n  jump\t// in\ntag_71:\n    /* \"#utility.yul\":2178:2290   */\ntag_70:\n    /* \"#utility.yul\":2299:2338   */\n  tag_72\n    /* \"#utility.yul\":2331:2337   */\n  dup5\n    /* \"#utility.yul\":2326:2329   */\n  dup3\n    /* \"#utility.yul\":2321:2324   */\n  dup6\n    /* \"#utility.yul\":2299:2338   */\n  tag_36\n  jump\t// in\ntag_72:\n    /* \"#utility.yul\":2018:2344   */\n  pop\n    /* \"#utility.yul\":1923:2344   */\n  swap4\n  swap3\n  pop\n  pop\n  pop\n  jump\t// out\n    /* \"#utility.yul\":2364:2719   */\ntag_38:\n    /* \"#utility.yul\":2431:2436   */\n  0x00\n    /* \"#utility.yul\":2480:2483   */\n  dup3\n    /* \"#utility.yul\":2473:2477   */\n  0x1f\n    /* \"#utility.yul\":2465:2471   */\n  dup4\n    /* \"#utility.yul\":2461:2478   */\n  add\n    /* \"#utility.yul\":2457:2484   */\n  slt\n    /* \"#utility.yul\":2447:2569   */\n  tag_74\n  jumpi\n    /* \"#utility.yul\":2488:2567   */\n  tag_75\n  tag_29\n  jump\t// in\ntag_75:\n    /* \"#utility.yul\":2447:2569   */\ntag_74:\n    /* \"#utility.yul\":2598:2604   */\n  dup2\n    /* \"#utility.yul\":2592:2605   */\n  mload\n    /* \"#utility.yul\":2623:2713   */\n  tag_76\n    /* \"#utility.yul\":2709:2712   */\n  dup5\n    /* \"#utility.yul\":2701:2707   */\n  dup3\n    /* \"#utility.yul\":2694:2698   */\n  0x20\n    /* \"#utility.yul\":2686:2692   */\n  dup7\n    /* \"#utility.yul\":2682:2699   */\n  add\n    /* \"#utility.yul\":2623:2713   */\n  tag_37\n  jump\t// in\ntag_76:\n    /* \"#utility.yul\":2614:2713   */\n  swap2\n  pop\n    /* \"#utility.yul\":2437:2719   */\n  pop\n    /* \"#utility.yul\":2364:2719   */\n  swap3\n  swap2\n  pop\n  pop\n  jump\t// out\n    /* \"#utility.yul\":2725:2802   */\ntag_39:\n    /* \"#utility.yul\":2762:2769   */\n  0x00\n    /* \"#utility.yul\":2791:2796   */\n  dup2\n    /* \"#utility.yul\":2780:2796   */\n  swap1\n  pop\n    /* \"#utility.yul\":2725:2802   */\n  swap2\n  swap1\n  pop\n  jump\t// out\n    /* \"#utility.yul\":2808:2930   */\ntag_40:\n    /* \"#utility.yul\":2881:2905   */\n  tag_79\n    /* \"#utility.yul\":2899:2904   */\n  dup2\n    /* \"#utility.yul\":2881:2905   */\n  tag_39\n  jump\t// in\ntag_79:\n    /* \"#utility.yul\":2874:2879   */\n  dup2\n    /* \"#utility.yul\":2871:2906   */\n  eq\n    /* \"#utility.yul\":2861:2924   */\n  tag_80\n  jumpi\n    /* \"#utility.yul\":2920:2921   */\n  0x00\n    /* \"#utility.yul\":2917:2918   */\n  dup1\n    /* \"#utility.yul\":2910:2922   */\n  revert\n    /* \"#utility.yul\":2861:2924   */\ntag_80:\n    /* \"#utility.yul\":2808:2930   */\n  pop\n  jump\t// out\n    /* \"#utility.yul\":2936:3079   */\ntag_41:\n    /* \"#utility.yul\":2993:2998   */\n  0x00\n    /* \"#utility.yul\":3024:3030   */\n  dup2\n    /* \"#utility.yul\":3018:3031   */\n  mload\n    /* \"#utility.yul\":3009:3031   */\n  swap1\n  pop\n    /* \"#utility.yul\":3040:3073   */\n  tag_82\n    /* \"#utility.yul\":3067:3072   */\n  dup2\n    /* \"#utility.yul\":3040:3073   */\n  tag_40\n  jump\t// in\ntag_82:\n    /* \"#utility.yul\":2936:3079   */\n  swap3\n  swap2\n  pop\n  pop\n  jump\t// out\n    /* \"#utility.yul\":3085:4094   */\ntag_3:\n    /* \"#utility.yul\":3193:3199   */\n  0x00\n    /* \"#utility.yul\":3201:3207   */\n  dup1\n    /* \"#utility.yul\":3209:3215   */\n  0x00\n    /* \"#utility.yul\":3258:3260   */\n  0x60\n    /* \"#utility.yul\":3246:3255   */\n  dup5\n    /* \"#utility.yul\":3237:3244   */\n  dup7\n    /* \"#utility.yul\":3233:3256   */\n  sub\n    /* \"#utility.yul\":3229:3261   */\n  slt\n    /* \"#utility.yul\":3226:3345   */\n  iszero\n  tag_84\n  jumpi\n    /* \"#utility.yul\":3264:3343   */\n  tag_85\n  tag_27\n  jump\t// in\ntag_85:\n    /* \"#utility.yul\":3226:3345   */\ntag_84:\n    /* \"#utility.yul\":3405:3406   */\n  0x00\n    /* \"#utility.yul\":3394:3403   */\n  dup5\n    /* \"#utility.yul\":3390:3407   */\n  add\n    /* \"#utility.yul\":3384:3408   */\n  mload\n    /* \"#utility.yul\":3435:3453   */\n  0xffffffffffffffff\n    /* \"#utility.yul\":3427:3433   */\n  dup2\n    /* \"#utility.yul\":3424:3454   */\n  gt\n    /* \"#utility.yul\":3421:3538   */\n  iszero\n  tag_86\n  jumpi\n    /* \"#utility.yul\":3457:3536   */\n  tag_87\n  tag_28\n  jump\t// in\ntag_87:\n    /* \"#utility.yul\":3421:3538   */\ntag_86:\n    /* \"#utility.yul\":3562:3636   */\n  tag_88\n    /* \"#utility.yul\":3628:3635   */\n  dup7\n    /* \"#utility.yul\":3619:3625   */\n  dup3\n    /* \"#utility.yul\":3608:3617   */\n  dup8\n    /* \"#utility.yul\":3604:3626   */\n  add\n    /* \"#utility.yul\":3562:3636   */\n  tag_38\n  jump\t// in\ntag_88:\n    /* \"#utility.yul\":3552:3636   */\n  swap4\n  pop\n    /* \"#utility.yul\":3355:3646   */\n  pop\n    /* \"#utility.yul\":3706:3708   */\n  0x20\n    /* \"#utility.yul\":3695:3704   */\n  dup5\n    /* \"#utility.yul\":3691:3709   */\n  add\n    /* \"#utility.yul\":3685:3710   */\n  mload\n    /* \"#utility.yul\":3737:3755   */\n  0xffffffffffffffff\n    /* \"#utility.yul\":3729:3735   */\n  dup2\n    /* \"#utility.yul\":3726:3756   */\n  gt\n    /* \"#utility.yul\":3723:3840   */\n  iszero\n  tag_89\n  jumpi\n    /* \"#utility.yul\":3759:3838   */\n  tag_90\n  tag_28\n  jump\t// in\ntag_90:\n    /* \"#utility.yul\":3723:3840   */\ntag_89:\n    /* \"#utility.yul\":3864:3938   */\n  tag_91\n    /* \"#utility.yul\":3930:3937   */\n  dup7\n    /* \"#utility.yul\":3921:3927   */\n  dup3\n    /* \"#utility.yul\":3910:3919   */\n  dup8\n    /* \"#utility.yul\":3906:3928   */\n  add\n    /* \"#utility.yul\":3864:3938   */\n  tag_38\n  jump\t// in\ntag_91:\n    /* \"#utility.yul\":3854:3938   */\n  swap3\n  pop\n    /* \"#utility.yul\":3656:3948   */\n  pop\n    /* \"#utility.yul\":3987:3989   */\n  0x40\n    /* \"#utility.yul\":4013:4077   */\n  tag_92\n    /* \"#utility.yul\":4069:4076   */\n  dup7\n    /* \"#utility.yul\":4060:4066   */\n  dup3\n    /* \"#utility.yul\":4049:4058   */\n  dup8\n    /* \"#utility.yul\":4045:4067   */\n  add\n    /* \"#utility.yul\":4013:4077   */\n  tag_41\n  jump\t// in\ntag_92:\n    /* \"#utility.yul\":4003:4077   */\n  swap2\n  pop\n    /* \"#utility.yul\":3958:4087   */\n  pop\n    /* \"#utility.yul\":3085:4094   */\n  swap3\n  pop\n  swap3\n  pop\n  swap3\n  jump\t// out\n    /* \"#utility.yul\":4100:4280   */\ntag_42:\n    /* \"#utility.yul\":4148:4225   */\n  0x4e487b7100000000000000000000000000000000000000000000000000000000\n    /* \"#utility.yul\":4145:4146   */\n  0x00\n    /* \"#utility.yul\":4138:4226   */\n  mstore\n    /* \"#utility.yul\":4245:4249   */\n  0x22\n    /* \"#utility.yul\":4242:4243   */\n  0x04\n    /* \"#utility.yul\":4235:4250   */\n  mstore\n    /* \"#utility.yul\":4269:4273   */\n  0x24\n    /* \"#utility.yul\":4266:4267   */\n  0x00\n    /* \"#utility.yul\":4259:4274   */\n  revert\n    /* \"#utility.yul\":4286:4606   */\ntag_16:\n    /* \"#utility.yul\":4330:4336   */\n  0x00\n    /* \"#utility.yul\":4367:4368   */\n  0x02\n    /* \"#utility.yul\":4361:4365   */\n  dup3\n    /* \"#utility.yul\":4357:4369   */\n  div\n    /* \"#utility.yul\":4347:4369   */\n  swap1\n  pop\n    /* \"#utility.yul\":4414:4415   */\n  0x01\n    /* \"#utility.yul\":4408:4412   */\n  dup3\n    /* \"#utility.yul\":4404:4416   */\n  and\n    /* \"#utility.yul\":4435:4453   */\n  dup1\n    /* \"#utility.yul\":4425:4506   */\n  tag_95\n  jumpi\n    /* \"#utility.yul\":4491:4495   */\n  0x7f\n    /* \"#utility.yul\":4483:4489   */\n  dup3\n    /* \"#utility.yul\":4479:4496   */\n  and\n    /* \"#utility.yul\":4469:4496   */\n  swap2\n  pop\n    /* \"#utility.yul\":4425:4506   */\ntag_95:\n    /* \"#utility.yul\":4553:4555   */\n  0x20\n    /* \"#utility.yul\":4545:4551   */\n  dup3\n    /* \"#utility.yul\":4542:4556   */\n  lt\n    /* \"#utility.yul\":4522:4540   */\n  dup2\n    /* \"#utility.yul\":4519:4557   */\n  eq\n    /* \"#utility.yul\":4516:4600   */\n  iszero\n  tag_96\n  jumpi\n    /* \"#utility.yul\":4572:4590   */\n  tag_97\n  tag_42\n  jump\t// in\ntag_97:\n    /* \"#utility.yul\":4516:4600   */\ntag_96:\n    /* \"#utility.yul\":4337:4606   */\n  pop\n    /* \"#utility.yul\":4286:4606   */\n  swap2\n  swap1\n  pop\n  jump\t// out\n    /* \"contracts/ERC20TokenABC_flattened.sol\":17889:21125  contract ERC20TokenABC is Context, ERC20 {... */\ntag_13:\n  dataSize(sub_0)\n  dup1\n  dataOffset(sub_0)\n  0x00\n  codecopy\n  0x00\n  return\nstop\n\nsub_0: assembly {\n        /* \"contracts/ERC20TokenABC_flattened.sol\":17889:21125  contract ERC20TokenABC is Context, ERC20 {... */\n      mstore(0x40, 0x80)\n      callvalue\n      dup1\n      iszero\n      tag_1\n      jumpi\n      0x00\n      dup1\n      revert\n    tag_1:\n      pop\n      jumpi(tag_2, lt(calldatasize, 0x04))\n      shr(0xe0, calldataload(0x00))\n      dup1\n      0x40c10f19\n      gt\n      tag_18\n      jumpi\n      dup1\n      0xa457c2d7\n      gt\n      tag_19\n      jumpi\n      dup1\n      0xa457c2d7\n      eq\n      tag_14\n      jumpi\n      dup1\n      0xa9059cbb\n      eq\n      tag_15\n      jumpi\n      dup1\n      0xbb9c1ad9\n      eq\n      tag_16\n      jumpi\n      dup1\n      0xdd62ed3e\n      eq\n      tag_17\n      jumpi\n      jump(tag_2)\n    tag_19:\n      dup1\n      0x40c10f19\n      eq\n      tag_10\n      jumpi\n      dup1\n      0x42966c68\n      eq\n      tag_11\n      jumpi\n      dup1\n      0x70a08231\n      eq\n      tag_12\n      jumpi\n      dup1\n      0x95d89b41\n      eq\n      tag_13\n      jumpi\n      jump(tag_2)\n    tag_18:\n      dup1\n      0x23b872dd\n      gt\n      tag_20\n      jumpi\n      dup1\n      0x23b872dd\n      eq\n      tag_6\n      jumpi\n      dup1\n      0x313ce567\n      eq\n      tag_7\n      jumpi\n      dup1\n      0x39509351\n      eq\n      tag_8\n      jumpi\n      dup1\n      0x3f50a705\n      eq\n      tag_9\n      jumpi\n      jump(tag_2)\n    tag_20:\n      dup1\n      0x06fdde03\n      eq\n      tag_3\n      jumpi\n      dup1\n      0x095ea7b3\n      eq\n      tag_4\n      jumpi\n      dup1\n      0x18160ddd\n      eq\n      tag_5\n      jumpi\n    tag_2:\n      0x00\n      dup1\n      revert\n        /* \"contracts/ERC20TokenABC_flattened.sol\":18605:18702  function name() public view override returns (string memory) {... */\n    tag_3:\n      tag_21\n      tag_22\n      jump\t// in\n    tag_21:\n      mload(0x40)\n      tag_23\n      swap2\n      swap1\n      tag_24\n      jump\t// in\n    tag_23:\n      mload(0x40)\n      dup1\n      swap2\n      sub\n      swap1\n      return\n        /* \"contracts/ERC20TokenABC_flattened.sol\":8886:9083  function approve(address spender, uint256 amount) public virtual override returns (bool) {... */\n    tag_4:\n      tag_25\n      0x04\n      dup1\n      calldatasize\n      sub\n      dup2\n      add\n      swap1\n      tag_26\n      swap2\n      swap1\n      tag_27\n      jump\t// in\n    tag_26:\n      tag_28\n      jump\t// in\n    tag_25:\n      mload(0x40)\n      tag_29\n      swap2\n      swap1\n      tag_30\n      jump\t// in\n    tag_29:\n      mload(0x40)\n      dup1\n      swap2\n      sub\n      swap1\n      return\n        /* \"contracts/ERC20TokenABC_flattened.sol\":18976:19081  function totalSupply() public view override returns (uint256) {... */\n    tag_5:\n      tag_31\n      tag_32\n      jump\t// in\n    tag_31:\n      mload(0x40)\n      tag_33\n      swap2\n      swap1\n      tag_34\n      jump\t// in\n    tag_33:\n      mload(0x40)\n      dup1\n      swap2\n      sub\n      swap1\n      return\n        /* \"contracts/ERC20TokenABC_flattened.sol\":9645:9931  function transferFrom(... */\n    tag_6:\n      tag_35\n      0x04\n      dup1\n      calldatasize\n      sub\n      dup2\n      add\n      swap1\n      tag_36\n      swap2\n      swap1\n      tag_37\n      jump\t// in\n    tag_36:\n      tag_38\n      jump\t// in\n    tag_35:\n      mload(0x40)\n      tag_39\n      swap2\n      swap1\n      tag_30\n      jump\t// in\n    tag_39:\n      mload(0x40)\n      dup1\n      swap2\n      sub\n      swap1\n      return\n        /* \"contracts/ERC20TokenABC_flattened.sol\":7546:7637  function decimals() public view virtual override returns (uint8) {... */\n    tag_7:\n      tag_40\n      tag_41\n      jump\t// in\n    tag_40:\n      mload(0x40)\n      tag_42\n      swap2\n      swap1\n      tag_43\n      jump\t// in\n    tag_42:\n      mload(0x40)\n      dup1\n      swap2\n      sub\n      swap1\n      return\n        /* \"contracts/ERC20TokenABC_flattened.sol\":10326:10560  function increaseAllowance(address spender, uint256 addedValue) public virtual returns (bool) {... */\n    tag_8:\n      tag_44\n      0x04\n      dup1\n      calldatasize\n      sub\n      dup2\n      add\n      swap1\n      tag_45\n      swap2\n      swap1\n      tag_27\n      jump\t// in\n    tag_45:\n      tag_46\n      jump\t// in\n    tag_44:\n      mload(0x40)\n      tag_47\n      swap2\n      swap1\n      tag_30\n      jump\t// in\n    tag_47:\n      mload(0x40)\n      dup1\n      swap2\n      sub\n      swap1\n      return\n        /* \"contracts/ERC20TokenABC_flattened.sol\":20016:20331  function transferWithFee(address to, uint256 amount, uint256 fee, address charger) public returns (bool) {... */\n    tag_9:\n      tag_48\n      0x04\n      dup1\n      calldatasize\n      sub\n      dup2\n      add\n      swap1\n      tag_49\n      swap2\n      swap1\n      tag_50\n      jump\t// in\n    tag_49:\n      tag_51\n      jump\t// in\n    tag_48:\n      mload(0x40)\n      tag_52\n      swap2\n      swap1\n      tag_30\n      jump\t// in\n    tag_52:\n      mload(0x40)\n      dup1\n      swap2\n      sub\n      swap1\n      return\n        /* \"contracts/ERC20TokenABC_flattened.sol\":19420:19513  function mint(address account, uint256 amount) public {... */\n    tag_10:\n      tag_53\n      0x04\n      dup1\n      calldatasize\n      sub\n      dup2\n      add\n      swap1\n      tag_54\n      swap2\n      swap1\n      tag_27\n      jump\t// in\n    tag_54:\n      tag_55\n      jump\t// in\n    tag_53:\n      stop\n        /* \"contracts/ERC20TokenABC_flattened.sol\":19622:19703  function burn(uint256 amount) public {... */\n    tag_11:\n      tag_56\n      0x04\n      dup1\n      calldatasize\n      sub\n      dup2\n      add\n      swap1\n      tag_57\n      swap2\n      swap1\n      tag_58\n      jump\t// in\n    tag_57:\n      tag_59\n      jump\t// in\n    tag_56:\n      stop\n        /* \"contracts/ERC20TokenABC_flattened.sol\":19139:19262  function balanceOf(address account) public view override returns (uint256) {... */\n    tag_12:\n      tag_60\n      0x04\n      dup1\n      calldatasize\n      sub\n      dup2\n      add\n      swap1\n      tag_61\n      swap2\n      swap1\n      tag_62\n      jump\t// in\n    tag_61:\n      tag_63\n      jump\t// in\n    tag_60:\n      mload(0x40)\n      tag_64\n      swap2\n      swap1\n      tag_34\n      jump\t// in\n    tag_64:\n      mload(0x40)\n      dup1\n      swap2\n      sub\n      swap1\n      return\n        /* \"contracts/ERC20TokenABC_flattened.sol\":18815:18916  function symbol() public view override returns (string memory) {... */\n    tag_13:\n      tag_65\n      tag_66\n      jump\t// in\n    tag_65:\n      mload(0x40)\n      tag_67\n      swap2\n      swap1\n      tag_24\n      jump\t// in\n    tag_67:\n      mload(0x40)\n      dup1\n      swap2\n      sub\n      swap1\n      return\n        /* \"contracts/ERC20TokenABC_flattened.sol\":11047:11474  function decreaseAllowance(address spender, uint256 subtractedValue) public virtual returns (bool) {... */\n    tag_14:\n      tag_68\n      0x04\n      dup1\n      calldatasize\n      sub\n      dup2\n      add\n      swap1\n      tag_69\n      swap2\n      swap1\n      tag_27\n      jump\t// in\n    tag_69:\n      tag_70\n      jump\t// in\n    tag_68:\n      mload(0x40)\n      tag_71\n      swap2\n      swap1\n      tag_30\n      jump\t// in\n    tag_71:\n      mload(0x40)\n      dup1\n      swap2\n      sub\n      swap1\n      return\n        /* \"contracts/ERC20TokenABC_flattened.sol\":8182:8371  function transfer(address to, uint256 amount) public virtual override returns (bool) {... */\n    tag_15:\n      tag_72\n      0x04\n      dup1\n      calldatasize\n      sub\n      dup2\n      add\n      swap1\n      tag_73\n      swap2\n      swap1\n      tag_27\n      jump\t// in\n    tag_73:\n      tag_74\n      jump\t// in\n    tag_72:\n      mload(0x40)\n      tag_75\n      swap2\n      swap1\n      tag_30\n      jump\t// in\n    tag_75:\n      mload(0x40)\n      dup1\n      swap2\n      sub\n      swap1\n      return\n        /* \"contracts/ERC20TokenABC_flattened.sol\":20642:21123  function transferWithTokenBurn(address to, uint256 amount, uint256 burnAmount) public returns (bool) {... */\n    tag_16:\n      tag_76\n      0x04\n      dup1\n      calldatasize\n      sub\n      dup2\n      add\n      swap1\n      tag_77\n      swap2\n      swap1\n      tag_78\n      jump\t// in\n    tag_77:\n      tag_79\n      jump\t// in\n    tag_76:\n      mload(0x40)\n      tag_80\n      swap2\n      swap1\n      tag_30\n      jump\t// in\n    tag_80:\n      mload(0x40)\n      dup1\n      swap2\n      sub\n      swap1\n      return\n        /* \"contracts/ERC20TokenABC_flattened.sol\":8429:8578  function allowance(address owner, address spender) public view virtual override returns (uint256) {... */\n    tag_17:\n      tag_81\n      0x04\n      dup1\n      calldatasize\n      sub\n      dup2\n      add\n      swap1\n      tag_82\n      swap2\n      swap1\n      tag_83\n      jump\t// in\n    tag_82:\n      tag_84\n      jump\t// in\n    tag_81:\n      mload(0x40)\n      tag_85\n      swap2\n      swap1\n      tag_34\n      jump\t// in\n    tag_85:\n      mload(0x40)\n      dup1\n      swap2\n      sub\n      swap1\n      return\n        /* \"contracts/ERC20TokenABC_flattened.sol\":18605:18702  function name() public view override returns (string memory) {... */\n    tag_22:\n        /* \"contracts/ERC20TokenABC_flattened.sol\":18651:18664  string memory */\n      0x60\n        /* \"contracts/ERC20TokenABC_flattened.sol\":18683:18695  super.name() */\n      tag_87\n        /* \"contracts/ERC20TokenABC_flattened.sol\":18683:18693  super.name */\n      tag_88\n        /* \"contracts/ERC20TokenABC_flattened.sol\":18683:18695  super.name() */\n      jump\t// in\n    tag_87:\n        /* \"contracts/ERC20TokenABC_flattened.sol\":18676:18695  return super.name() */\n      swap1\n      pop\n        /* \"contracts/ERC20TokenABC_flattened.sol\":18605:18702  function name() public view override returns (string memory) {... */\n      swap1\n      jump\t// out\n        /* \"contracts/ERC20TokenABC_flattened.sol\":8886:9083  function approve(address spender, uint256 amount) public virtual override returns (bool) {... */\n    tag_28:\n        /* \"contracts/ERC20TokenABC_flattened.sol\":8969:8973  bool */\n      0x00\n        /* \"contracts/ERC20TokenABC_flattened.sol\":8985:8998  address owner */\n      dup1\n        /* \"contracts/ERC20TokenABC_flattened.sol\":9001:9013  _msgSender() */\n      tag_90\n        /* \"contracts/ERC20TokenABC_flattened.sol\":9001:9011  _msgSender */\n      tag_91\n        /* \"contracts/ERC20TokenABC_flattened.sol\":9001:9013  _msgSender() */\n      jump\t// in\n    tag_90:\n        /* \"contracts/ERC20TokenABC_flattened.sol\":8985:9013  address owner = _msgSender() */\n      swap1\n      pop\n        /* \"contracts/ERC20TokenABC_flattened.sol\":9023:9055  _approve(owner, spender, amount) */\n      tag_92\n        /* \"contracts/ERC20TokenABC_flattened.sol\":9032:9037  owner */\n      dup2\n        /* \"contracts/ERC20TokenABC_flattened.sol\":9039:9046  spender */\n      dup6\n        /* \"contracts/ERC20TokenABC_flattened.sol\":9048:9054  amount */\n      dup6\n        /* \"contracts/ERC20TokenABC_flattened.sol\":9023:9031  _approve */\n      tag_93\n        /* \"contracts/ERC20TokenABC_flattened.sol\":9023:9055  _approve(owner, spender, amount) */\n      jump\t// in\n    tag_92:\n        /* \"contracts/ERC20TokenABC_flattened.sol\":9072:9076  true */\n      0x01\n        /* \"contracts/ERC20TokenABC_flattened.sol\":9065:9076  return true */\n      swap2\n      pop\n      pop\n        /* \"contracts/ERC20TokenABC_flattened.sol\":8886:9083  function approve(address spender, uint256 amount) public virtual override returns (bool) {... */\n      swap3\n      swap2\n      pop\n      pop\n      jump\t// out\n        /* \"contracts/ERC20TokenABC_flattened.sol\":18976:19081  function totalSupply() public view override returns (uint256) {... */\n    tag_32:\n        /* \"contracts/ERC20TokenABC_flattened.sol\":19029:19036  uint256 */\n      0x00\n        /* \"contracts/ERC20TokenABC_flattened.sol\":19055:19074  super.totalSupply() */\n      tag_95\n        /* \"contracts/ERC20TokenABC_flattened.sol\":19055:19072  super.totalSupply */\n      tag_96\n        /* \"contracts/ERC20TokenABC_flattened.sol\":19055:19074  super.totalSupply() */\n      jump\t// in\n    tag_95:\n        /* \"contracts/ERC20TokenABC_flattened.sol\":19048:19074  return super.totalSupply() */\n      swap1\n      pop\n        /* \"contracts/ERC20TokenABC_flattened.sol\":18976:19081  function totalSupply() public view override returns (uint256) {... */\n      swap1\n      jump\t// out\n        /* \"contracts/ERC20TokenABC_flattened.sol\":9645:9931  function transferFrom(... */\n    tag_38:\n        /* \"contracts/ERC20TokenABC_flattened.sol\":9772:9776  bool */\n      0x00\n        /* \"contracts/ERC20TokenABC_flattened.sol\":9788:9803  address spender */\n      dup1\n        /* \"contracts/ERC20TokenABC_flattened.sol\":9806:9818  _msgSender() */\n      tag_98\n        /* \"contracts/ERC20TokenABC_flattened.sol\":9806:9816  _msgSender */\n      tag_91\n        /* \"contracts/ERC20TokenABC_flattened.sol\":9806:9818  _msgSender() */\n      jump\t// in\n    tag_98:\n        /* \"contracts/ERC20TokenABC_flattened.sol\":9788:9818  address spender = _msgSender() */\n      swap1\n      pop\n        /* \"contracts/ERC20TokenABC_flattened.sol\":9828:9866  _spendAllowance(from, spender, amount) */\n      tag_99\n        /* \"contracts/ERC20TokenABC_flattened.sol\":9844:9848  from */\n      dup6\n        /* \"contracts/ERC20TokenABC_flattened.sol\":9850:9857  spender */\n      dup3\n        /* \"contracts/ERC20TokenABC_flattened.sol\":9859:9865  amount */\n      dup6\n        /* \"contracts/ERC20TokenABC_flattened.sol\":9828:9843  _spendAllowance */\n      tag_100\n        /* \"contracts/ERC20TokenABC_flattened.sol\":9828:9866  _spendAllowance(from, spender, amount) */\n      jump\t// in\n    tag_99:\n        /* \"contracts/ERC20TokenABC_flattened.sol\":9876:9903  _transfer(from, to, amount) */\n      tag_101\n        /* \"contracts/ERC20TokenABC_flattened.sol\":9886:9890  from */\n      dup6\n        /* \"contracts/ERC20TokenABC_flattened.sol\":9892:9894  to */\n      dup6\n        /* \"contracts/ERC20TokenABC_flattened.sol\":9896:9902  amount */\n      dup6\n        /* \"contracts/ERC20TokenABC_flattened.sol\":9876:9885  _transfer */\n      tag_102\n        /* \"contracts/ERC20TokenABC_flattened.sol\":9876:9903  _transfer(from, to, amount) */\n      jump\t// in\n    tag_101:\n        /* \"contracts/ERC20TokenABC_flattened.sol\":9920:9924  true */\n      0x01\n        /* \"contracts/ERC20TokenABC_flattened.sol\":9913:9924  return true */\n      swap2\n      pop\n      pop\n        /* \"contracts/ERC20TokenABC_flattened.sol\":9645:9931  function transferFrom(... */\n      swap4\n      swap3\n      pop\n      pop\n      pop\n      jump\t// out\n        /* \"contracts/ERC20TokenABC_flattened.sol\":7546:7637  function decimals() public view virtual override returns (uint8) {... */\n    tag_41:\n        /* \"contracts/ERC20TokenABC_flattened.sol\":7604:7609  uint8 */\n      0x00\n        /* \"contracts/ERC20TokenABC_flattened.sol\":7628:7630  18 */\n      0x12\n        /* \"contracts/ERC20TokenABC_flattened.sol\":7621:7630  return 18 */\n      swap1\n      pop\n        /* \"contracts/ERC20TokenABC_flattened.sol\":7546:7637  function decimals() public view virtual override returns (uint8) {... */\n      swap1\n      jump\t// out\n        /* \"contracts/ERC20TokenABC_flattened.sol\":10326:10560  function increaseAllowance(address spender, uint256 addedValue) public virtual returns (bool) {... */\n    tag_46:\n        /* \"contracts/ERC20TokenABC_flattened.sol\":10414:10418  bool */\n      0x00\n        /* \"contracts/ERC20TokenABC_flattened.sol\":10430:10443  address owner */\n      dup1\n        /* \"contracts/ERC20TokenABC_flattened.sol\":10446:10458  _msgSender() */\n      tag_105\n        /* \"contracts/ERC20TokenABC_flattened.sol\":10446:10456  _msgSender */\n      tag_91\n        /* \"contracts/ERC20TokenABC_flattened.sol\":10446:10458  _msgSender() */\n      jump\t// in\n    tag_105:\n        /* \"contracts/ERC20TokenABC_flattened.sol\":10430:10458  address owner = _msgSender() */\n      swap1\n      pop\n        /* \"contracts/ERC20TokenABC_flattened.sol\":10468:10532  _approve(owner, spender, allowance(owner, spender) + addedValue) */\n      tag_106\n        /* \"contracts/ERC20TokenABC_flattened.sol\":10477:10482  owner */\n      dup2\n        /* \"contracts/ERC20TokenABC_flattened.sol\":10484:10491  spender */\n      dup6\n        /* \"contracts/ERC20TokenABC_flattened.sol\":10521:10531  addedValue */\n      dup6\n        /* \"contracts/ERC20TokenABC_flattened.sol\":10493:10518  allowance(owner, spender) */\n      tag_107\n        /* \"contracts/ERC20TokenABC_flattened.sol\":10503:10508  owner */\n      dup6\n        /* \"contracts/ERC20TokenABC_flattened.sol\":10510:10517  spender */\n      dup10\n        /* \"contracts/ERC20TokenABC_flattened.sol\":10493:10502  allowance */\n      tag_84\n        /* \"contracts/ERC20TokenABC_flattened.sol\":10493:10518  allowance(owner, spender) */\n      jump\t// in\n    tag_107:\n        /* \"contracts/ERC20TokenABC_flattened.sol\":10493:10531  allowance(owner, spender) + addedValue */\n      tag_108\n      swap2\n      swap1\n      tag_109\n      jump\t// in\n    tag_108:\n        /* \"contracts/ERC20TokenABC_flattened.sol\":10468:10476  _approve */\n      tag_93\n        /* \"contracts/ERC20TokenABC_flattened.sol\":10468:10532  _approve(owner, spender, allowance(owner, spender) + addedValue) */\n      jump\t// in\n    tag_106:\n        /* \"contracts/ERC20TokenABC_flattened.sol\":10549:10553  true */\n      0x01\n        /* \"contracts/ERC20TokenABC_flattened.sol\":10542:10553  return true */\n      swap2\n      pop\n      pop\n        /* \"contracts/ERC20TokenABC_flattened.sol\":10326:10560  function increaseAllowance(address spender, uint256 addedValue) public virtual returns (bool) {... */\n      swap3\n      swap2\n      pop\n      pop\n      jump\t// out\n        /* \"contracts/ERC20TokenABC_flattened.sol\":20016:20331  function transferWithFee(address to, uint256 amount, uint256 fee, address charger) public returns (bool) {... */\n    tag_51:\n        /* \"contracts/ERC20TokenABC_flattened.sol\":20115:20119  bool */\n      0x00\n        /* \"contracts/ERC20TokenABC_flattened.sol\":20145:20146  0 */\n      dup1\n        /* \"contracts/ERC20TokenABC_flattened.sol\":20139:20142  fee */\n      dup4\n        /* \"contracts/ERC20TokenABC_flattened.sol\":20139:20146  fee > 0 */\n      gt\n        /* \"contracts/ERC20TokenABC_flattened.sol\":20131:20187  require(fee > 0, \"Fee amount must be greater than zero\") */\n      tag_111\n      jumpi\n      mload(0x40)\n      0x08c379a000000000000000000000000000000000000000000000000000000000\n      dup2\n      mstore\n      0x04\n      add\n      tag_112\n      swap1\n      tag_113\n      jump\t// in\n    tag_112:\n      mload(0x40)\n      dup1\n      swap2\n      sub\n      swap1\n      revert\n    tag_111:\n        /* \"contracts/ERC20TokenABC_flattened.sol\":20197:20210  address owner */\n      0x00\n        /* \"contracts/ERC20TokenABC_flattened.sol\":20213:20225  _msgSender() */\n      tag_114\n        /* \"contracts/ERC20TokenABC_flattened.sol\":20213:20223  _msgSender */\n      tag_91\n        /* \"contracts/ERC20TokenABC_flattened.sol\":20213:20225  _msgSender() */\n      jump\t// in\n    tag_114:\n        /* \"contracts/ERC20TokenABC_flattened.sol\":20197:20225  address owner = _msgSender() */\n      swap1\n      pop\n        /* \"contracts/ERC20TokenABC_flattened.sol\":20235:20265  _transfer(owner, charger, fee) */\n      tag_115\n        /* \"contracts/ERC20TokenABC_flattened.sol\":20245:20250  owner */\n      dup2\n        /* \"contracts/ERC20TokenABC_flattened.sol\":20252:20259  charger */\n      dup5\n        /* \"contracts/ERC20TokenABC_flattened.sol\":20261:20264  fee */\n      dup7\n        /* \"contracts/ERC20TokenABC_flattened.sol\":20235:20244  _transfer */\n      tag_102\n        /* \"contracts/ERC20TokenABC_flattened.sol\":20235:20265  _transfer(owner, charger, fee) */\n      jump\t// in\n    tag_115:\n        /* \"contracts/ERC20TokenABC_flattened.sol\":20275:20303  _transfer(owner, to, amount) */\n      tag_116\n        /* \"contracts/ERC20TokenABC_flattened.sol\":20285:20290  owner */\n      dup2\n        /* \"contracts/ERC20TokenABC_flattened.sol\":20292:20294  to */\n      dup8\n        /* \"contracts/ERC20TokenABC_flattened.sol\":20296:20302  amount */\n      dup8\n        /* \"contracts/ERC20TokenABC_flattened.sol\":20275:20284  _transfer */\n      tag_102\n        /* \"contracts/ERC20TokenABC_flattened.sol\":20275:20303  _transfer(owner, to, amount) */\n      jump\t// in\n    tag_116:\n        /* \"contracts/ERC20TokenABC_flattened.sol\":20320:20324  true */\n      0x01\n        /* \"contracts/ERC20TokenABC_flattened.sol\":20313:20324  return true */\n      swap2\n      pop\n      pop\n        /* \"contracts/ERC20TokenABC_flattened.sol\":20016:20331  function transferWithFee(address to, uint256 amount, uint256 fee, address charger) public returns (bool) {... */\n      swap5\n      swap4\n      pop\n      pop\n      pop\n      pop\n      jump\t// out\n        /* \"contracts/ERC20TokenABC_flattened.sol\":19420:19513  function mint(address account, uint256 amount) public {... */\n    tag_55:\n        /* \"contracts/ERC20TokenABC_flattened.sol\":19484:19506  _mint(account, amount) */\n      tag_118\n        /* \"contracts/ERC20TokenABC_flattened.sol\":19490:19497  account */\n      dup3\n        /* \"contracts/ERC20TokenABC_flattened.sol\":19499:19505  amount */\n      dup3\n        /* \"contracts/ERC20TokenABC_flattened.sol\":19484:19489  _mint */\n      tag_119\n        /* \"contracts/ERC20TokenABC_flattened.sol\":19484:19506  _mint(account, amount) */\n      jump\t// in\n    tag_118:\n        /* \"contracts/ERC20TokenABC_flattened.sol\":19420:19513  function mint(address account, uint256 amount) public {... */\n      pop\n      pop\n      jump\t// out\n        /* \"contracts/ERC20TokenABC_flattened.sol\":19622:19703  function burn(uint256 amount) public {... */\n    tag_59:\n        /* \"contracts/ERC20TokenABC_flattened.sol\":19669:19696  _burn(_msgSender(), amount) */\n      tag_121\n        /* \"contracts/ERC20TokenABC_flattened.sol\":19675:19687  _msgSender() */\n      tag_122\n        /* \"contracts/ERC20TokenABC_flattened.sol\":19675:19685  _msgSender */\n      tag_91\n        /* \"contracts/ERC20TokenABC_flattened.sol\":19675:19687  _msgSender() */\n      jump\t// in\n    tag_122:\n        /* \"contracts/ERC20TokenABC_flattened.sol\":19689:19695  amount */\n      dup3\n        /* \"contracts/ERC20TokenABC_flattened.sol\":19669:19674  _burn */\n      tag_123\n        /* \"contracts/ERC20TokenABC_flattened.sol\":19669:19696  _burn(_msgSender(), amount) */\n      jump\t// in\n    tag_121:\n        /* \"contracts/ERC20TokenABC_flattened.sol\":19622:19703  function burn(uint256 amount) public {... */\n      pop\n      jump\t// out\n        /* \"contracts/ERC20TokenABC_flattened.sol\":19139:19262  function balanceOf(address account) public view override returns (uint256) {... */\n    tag_63:\n        /* \"contracts/ERC20TokenABC_flattened.sol\":19205:19212  uint256 */\n      0x00\n        /* \"contracts/ERC20TokenABC_flattened.sol\":19231:19255  super.balanceOf(account) */\n      tag_125\n        /* \"contracts/ERC20TokenABC_flattened.sol\":19247:19254  account */\n      dup3\n        /* \"contracts/ERC20TokenABC_flattened.sol\":19231:19246  super.balanceOf */\n      tag_126\n        /* \"contracts/ERC20TokenABC_flattened.sol\":19231:19255  super.balanceOf(account) */\n      jump\t// in\n    tag_125:\n        /* \"contracts/ERC20TokenABC_flattened.sol\":19224:19255  return super.balanceOf(account) */\n      swap1\n      pop\n        /* \"contracts/ERC20TokenABC_flattened.sol\":19139:19262  function balanceOf(address account) public view override returns (uint256) {... */\n      swap2\n      swap1\n      pop\n      jump\t// out\n        /* \"contracts/ERC20TokenABC_flattened.sol\":18815:18916  function symbol() public view override returns (string memory) {... */\n    tag_66:\n        /* \"contracts/ERC20TokenABC_flattened.sol\":18863:18876  string memory */\n      0x60\n        /* \"contracts/ERC20TokenABC_flattened.sol\":18895:18909  super.symbol() */\n      tag_128\n        /* \"contracts/ERC20TokenABC_flattened.sol\":18895:18907  super.symbol */\n      tag_129\n        /* \"contracts/ERC20TokenABC_flattened.sol\":18895:18909  super.symbol() */\n      jump\t// in\n    tag_128:\n        /* \"contracts/ERC20TokenABC_flattened.sol\":18888:18909  return super.symbol() */\n      swap1\n      pop\n        /* \"contracts/ERC20TokenABC_flattened.sol\":18815:18916  function symbol() public view override returns (string memory) {... */\n      swap1\n      jump\t// out\n        /* \"contracts/ERC20TokenABC_flattened.sol\":11047:11474  function decreaseAllowance(address spender, uint256 subtractedValue) public virtual returns (bool) {... */\n    tag_70:\n        /* \"contracts/ERC20TokenABC_flattened.sol\":11140:11144  bool */\n      0x00\n        /* \"contracts/ERC20TokenABC_flattened.sol\":11156:11169  address owner */\n      dup1\n        /* \"contracts/ERC20TokenABC_flattened.sol\":11172:11184  _msgSender() */\n      tag_131\n        /* \"contracts/ERC20TokenABC_flattened.sol\":11172:11182  _msgSender */\n      tag_91\n        /* \"contracts/ERC20TokenABC_flattened.sol\":11172:11184  _msgSender() */\n      jump\t// in\n    tag_131:\n        /* \"contracts/ERC20TokenABC_flattened.sol\":11156:11184  address owner = _msgSender() */\n      swap1\n      pop\n        /* \"contracts/ERC20TokenABC_flattened.sol\":11194:11218  uint256 currentAllowance */\n      0x00\n        /* \"contracts/ERC20TokenABC_flattened.sol\":11221:11246  allowance(owner, spender) */\n      tag_132\n        /* \"contracts/ERC20TokenABC_flattened.sol\":11231:11236  owner */\n      dup3\n        /* \"contracts/ERC20TokenABC_flattened.sol\":11238:11245  spender */\n      dup7\n        /* \"contracts/ERC20TokenABC_flattened.sol\":11221:11230  allowance */\n      tag_84\n        /* \"contracts/ERC20TokenABC_flattened.sol\":11221:11246  allowance(owner, spender) */\n      jump\t// in\n    tag_132:\n        /* \"contracts/ERC20TokenABC_flattened.sol\":11194:11246  uint256 currentAllowance = allowance(owner, spender) */\n      swap1\n      pop\n        /* \"contracts/ERC20TokenABC_flattened.sol\":11284:11299  subtractedValue */\n      dup4\n        /* \"contracts/ERC20TokenABC_flattened.sol\":11264:11280  currentAllowance */\n      dup2\n        /* \"contracts/ERC20TokenABC_flattened.sol\":11264:11299  currentAllowance >= subtractedValue */\n      lt\n      iszero\n        /* \"contracts/ERC20TokenABC_flattened.sol\":11256:11341  require(currentAllowance >= subtractedValue, \"ERC20: decreased allowance below zero\") */\n      tag_133\n      jumpi\n      mload(0x40)\n      0x08c379a000000000000000000000000000000000000000000000000000000000\n      dup2\n      mstore\n      0x04\n      add\n      tag_134\n      swap1\n      tag_135\n      jump\t// in\n    tag_134:\n      mload(0x40)\n      dup1\n      swap2\n      sub\n      swap1\n      revert\n    tag_133:\n        /* \"contracts/ERC20TokenABC_flattened.sol\":11375:11435  _approve(owner, spender, currentAllowance - subtractedValue) */\n      tag_136\n        /* \"contracts/ERC20TokenABC_flattened.sol\":11384:11389  owner */\n      dup3\n        /* \"contracts/ERC20TokenABC_flattened.sol\":11391:11398  spender */\n      dup7\n        /* \"contracts/ERC20TokenABC_flattened.sol\":11419:11434  subtractedValue */\n      dup7\n        /* \"contracts/ERC20TokenABC_flattened.sol\":11400:11416  currentAllowance */\n      dup5\n        /* \"contracts/ERC20TokenABC_flattened.sol\":11400:11434  currentAllowance - subtractedValue */\n      sub\n        /* \"contracts/ERC20TokenABC_flattened.sol\":11375:11383  _approve */\n      tag_93\n        /* \"contracts/ERC20TokenABC_flattened.sol\":11375:11435  _approve(owner, spender, currentAllowance - subtractedValue) */\n      jump\t// in\n    tag_136:\n        /* \"contracts/ERC20TokenABC_flattened.sol\":11463:11467  true */\n      0x01\n        /* \"contracts/ERC20TokenABC_flattened.sol\":11456:11467  return true */\n      swap3\n      pop\n      pop\n      pop\n        /* \"contracts/ERC20TokenABC_flattened.sol\":11047:11474  function decreaseAllowance(address spender, uint256 subtractedValue) public virtual returns (bool) {... */\n      swap3\n      swap2\n      pop\n      pop\n      jump\t// out\n        /* \"contracts/ERC20TokenABC_flattened.sol\":8182:8371  function transfer(address to, uint256 amount) public virtual override returns (bool) {... */\n    tag_74:\n        /* \"contracts/ERC20TokenABC_flattened.sol\":8261:8265  bool */\n      0x00\n        /* \"contracts/ERC20TokenABC_flattened.sol\":8277:8290  address owner */\n      dup1\n        /* \"contracts/ERC20TokenABC_flattened.sol\":8293:8305  _msgSender() */\n      tag_138\n        /* \"contracts/ERC20TokenABC_flattened.sol\":8293:8303  _msgSender */\n      tag_91\n        /* \"contracts/ERC20TokenABC_flattened.sol\":8293:8305  _msgSender() */\n      jump\t// in\n    tag_138:\n        /* \"contracts/ERC20TokenABC_flattened.sol\":8277:8305  address owner = _msgSender() */\n      swap1\n      pop\n        /* \"contracts/ERC20TokenABC_flattened.sol\":8315:8343  _transfer(owner, to, amount) */\n      tag_139\n        /* \"contracts/ERC20TokenABC_flattened.sol\":8325:8330  owner */\n      dup2\n        /* \"contracts/ERC20TokenABC_flattened.sol\":8332:8334  to */\n      dup6\n        /* \"contracts/ERC20TokenABC_flattened.sol\":8336:8342  amount */\n      dup6\n        /* \"contracts/ERC20TokenABC_flattened.sol\":8315:8324  _transfer */\n      tag_102\n        /* \"contracts/ERC20TokenABC_flattened.sol\":8315:8343  _transfer(owner, to, amount) */\n      jump\t// in\n    tag_139:\n        /* \"contracts/ERC20TokenABC_flattened.sol\":8360:8364  true */\n      0x01\n        /* \"contracts/ERC20TokenABC_flattened.sol\":8353:8364  return true */\n      swap2\n      pop\n      pop\n        /* \"contracts/ERC20TokenABC_flattened.sol\":8182:8371  function transfer(address to, uint256 amount) public virtual override returns (bool) {... */\n      swap3\n      swap2\n      pop\n      pop\n      jump\t// out\n        /* \"contracts/ERC20TokenABC_flattened.sol\":20642:21123  function transferWithTokenBurn(address to, uint256 amount, uint256 burnAmount) public returns (bool) {... */\n    tag_79:\n        /* \"contracts/ERC20TokenABC_flattened.sol\":20737:20741  bool */\n      0x00\n        /* \"contracts/ERC20TokenABC_flattened.sol\":20774:20775  0 */\n      dup1\n        /* \"contracts/ERC20TokenABC_flattened.sol\":20761:20771  burnAmount */\n      dup3\n        /* \"contracts/ERC20TokenABC_flattened.sol\":20761:20775  burnAmount > 0 */\n      gt\n        /* \"contracts/ERC20TokenABC_flattened.sol\":20753:20817  require(burnAmount > 0, \"Burn amount must be greater than zero\") */\n      tag_141\n      jumpi\n      mload(0x40)\n      0x08c379a000000000000000000000000000000000000000000000000000000000\n      dup2\n      mstore\n      0x04\n      add\n      tag_142\n      swap1\n      tag_143\n      jump\t// in\n    tag_142:\n      mload(0x40)\n      dup1\n      swap2\n      sub\n      swap1\n      revert\n    tag_141:\n        /* \"contracts/ERC20TokenABC_flattened.sol\":20849:20855  amount */\n      dup3\n        /* \"contracts/ERC20TokenABC_flattened.sol\":20835:20845  burnAmount */\n      dup3\n        /* \"contracts/ERC20TokenABC_flattened.sol\":20835:20855  burnAmount <= amount */\n      gt\n      iszero\n        /* \"contracts/ERC20TokenABC_flattened.sol\":20827:20921  require(burnAmount <= amount, \"Burn amount must be less than or equal to the transfer amount\") */\n      tag_144\n      jumpi\n      mload(0x40)\n      0x08c379a000000000000000000000000000000000000000000000000000000000\n      dup2\n      mstore\n      0x04\n      add\n      tag_145\n      swap1\n      tag_146\n      jump\t// in\n    tag_145:\n      mload(0x40)\n      dup1\n      swap2\n      sub\n      swap1\n      revert\n    tag_144:\n        /* \"contracts/ERC20TokenABC_flattened.sol\":20931:20944  address owner */\n      0x00\n        /* \"contracts/ERC20TokenABC_flattened.sol\":20947:20959  _msgSender() */\n      tag_147\n        /* \"contracts/ERC20TokenABC_flattened.sol\":20947:20957  _msgSender */\n      tag_91\n        /* \"contracts/ERC20TokenABC_flattened.sol\":20947:20959  _msgSender() */\n      jump\t// in\n    tag_147:\n        /* \"contracts/ERC20TokenABC_flattened.sol\":20931:20959  address owner = _msgSender() */\n      swap1\n      pop\n        /* \"contracts/ERC20TokenABC_flattened.sol\":20969:20992  uint256 transfterAmount */\n      0x00\n        /* \"contracts/ERC20TokenABC_flattened.sol\":21004:21014  burnAmount */\n      dup4\n        /* \"contracts/ERC20TokenABC_flattened.sol\":20995:21001  amount */\n      dup6\n        /* \"contracts/ERC20TokenABC_flattened.sol\":20995:21014  amount - burnAmount */\n      tag_148\n      swap2\n      swap1\n      tag_149\n      jump\t// in\n    tag_148:\n        /* \"contracts/ERC20TokenABC_flattened.sol\":20969:21014  uint256 transfterAmount = amount - burnAmount */\n      swap1\n      pop\n        /* \"contracts/ERC20TokenABC_flattened.sol\":21024:21048  _burn(owner, burnAmount) */\n      tag_150\n        /* \"contracts/ERC20TokenABC_flattened.sol\":21030:21035  owner */\n      dup3\n        /* \"contracts/ERC20TokenABC_flattened.sol\":21037:21047  burnAmount */\n      dup6\n        /* \"contracts/ERC20TokenABC_flattened.sol\":21024:21029  _burn */\n      tag_123\n        /* \"contracts/ERC20TokenABC_flattened.sol\":21024:21048  _burn(owner, burnAmount) */\n      jump\t// in\n    tag_150:\n        /* \"contracts/ERC20TokenABC_flattened.sol\":21058:21095  _transfer(owner, to, transfterAmount) */\n      tag_151\n        /* \"contracts/ERC20TokenABC_flattened.sol\":21068:21073  owner */\n      dup3\n        /* \"contracts/ERC20TokenABC_flattened.sol\":21075:21077  to */\n      dup8\n        /* \"contracts/ERC20TokenABC_flattened.sol\":21079:21094  transfterAmount */\n      dup4\n        /* \"contracts/ERC20TokenABC_flattened.sol\":21058:21067  _transfer */\n      tag_102\n        /* \"contracts/ERC20TokenABC_flattened.sol\":21058:21095  _transfer(owner, to, transfterAmount) */\n      jump\t// in\n    tag_151:\n        /* \"contracts/ERC20TokenABC_flattened.sol\":21112:21116  true */\n      0x01\n        /* \"contracts/ERC20TokenABC_flattened.sol\":21105:21116  return true */\n      swap3\n      pop\n      pop\n      pop\n        /* \"contracts/ERC20TokenABC_flattened.sol\":20642:21123  function transferWithTokenBurn(address to, uint256 amount, uint256 burnAmount) public returns (bool) {... */\n      swap4\n      swap3\n      pop\n      pop\n      pop\n      jump\t// out\n        /* \"contracts/ERC20TokenABC_flattened.sol\":8429:8578  function allowance(address owner, address spender) public view virtual override returns (uint256) {... */\n    tag_84:\n        /* \"contracts/ERC20TokenABC_flattened.sol\":8518:8525  uint256 */\n      0x00\n        /* \"contracts/ERC20TokenABC_flattened.sol\":8544:8555  _allowances */\n      0x01\n        /* \"contracts/ERC20TokenABC_flattened.sol\":8544:8562  _allowances[owner] */\n      0x00\n        /* \"contracts/ERC20TokenABC_flattened.sol\":8556:8561  owner */\n      dup5\n        /* \"contracts/ERC20TokenABC_flattened.sol\":8544:8562  _allowances[owner] */\n      0xffffffffffffffffffffffffffffffffffffffff\n      and\n      0xffffffffffffffffffffffffffffffffffffffff\n      and\n      dup2\n      mstore\n      0x20\n      add\n      swap1\n      dup2\n      mstore\n      0x20\n      add\n      0x00\n      keccak256\n        /* \"contracts/ERC20TokenABC_flattened.sol\":8544:8571  _allowances[owner][spender] */\n      0x00\n        /* \"contracts/ERC20TokenABC_flattened.sol\":8563:8570  spender */\n      dup4\n        /* \"contracts/ERC20TokenABC_flattened.sol\":8544:8571  _allowances[owner][spender] */\n      0xffffffffffffffffffffffffffffffffffffffff\n      and\n      0xffffffffffffffffffffffffffffffffffffffff\n      and\n      dup2\n      mstore\n      0x20\n      add\n      swap1\n      dup2\n      mstore\n      0x20\n      add\n      0x00\n      keccak256\n      sload\n        /* \"contracts/ERC20TokenABC_flattened.sol\":8537:8571  return _allowances[owner][spender] */\n      swap1\n      pop\n        /* \"contracts/ERC20TokenABC_flattened.sol\":8429:8578  function allowance(address owner, address spender) public view virtual override returns (uint256) {... */\n      swap3\n      swap2\n      pop\n      pop\n      jump\t// out\n        /* \"contracts/ERC20TokenABC_flattened.sol\":6609:6707  function name() public view virtual override returns (string memory) {... */\n    tag_88:\n        /* \"contracts/ERC20TokenABC_flattened.sol\":6663:6676  string memory */\n      0x60\n        /* \"contracts/ERC20TokenABC_flattened.sol\":6695:6700  _name */\n      0x03\n        /* \"contracts/ERC20TokenABC_flattened.sol\":6688:6700  return _name */\n      dup1\n      sload\n      tag_154\n      swap1\n      tag_155\n      jump\t// in\n    tag_154:\n      dup1\n      0x1f\n      add\n      0x20\n      dup1\n      swap2\n      div\n      mul\n      0x20\n      add\n      mload(0x40)\n      swap1\n      dup2\n      add\n      0x40\n      mstore\n      dup1\n      swap3\n      swap2\n      swap1\n      dup2\n      dup2\n      mstore\n      0x20\n      add\n      dup3\n      dup1\n      sload\n      tag_156\n      swap1\n      tag_155\n      jump\t// in\n    tag_156:\n      dup1\n      iszero\n      tag_157\n      jumpi\n      dup1\n      0x1f\n      lt\n      tag_158\n      jumpi\n      0x0100\n      dup1\n      dup4\n      sload\n      div\n      mul\n      dup4\n      mstore\n      swap2\n      0x20\n      add\n      swap2\n      jump(tag_157)\n    tag_158:\n      dup3\n      add\n      swap2\n      swap1\n      0x00\n      mstore\n      keccak256(0x00, 0x20)\n      swap1\n    tag_159:\n      dup2\n      sload\n      dup2\n      mstore\n      swap1\n      0x01\n      add\n      swap1\n      0x20\n      add\n      dup1\n      dup4\n      gt\n      tag_159\n      jumpi\n      dup3\n      swap1\n      sub\n      0x1f\n      and\n      dup3\n      add\n      swap2\n    tag_157:\n      pop\n      pop\n      pop\n      pop\n      pop\n      swap1\n      pop\n        /* \"contracts/ERC20TokenABC_flattened.sol\":6609:6707  function name() public view virtual override returns (string memory) {... */\n      swap1\n      jump\t// out\n        /* \"contracts/ERC20TokenABC_flattened.sol\":662:758  function _msgSender() internal view virtual returns (address) {... */\n    tag_91:\n        /* \"contracts/ERC20TokenABC_flattened.sol\":715:722  address */\n      0x00\n        /* \"contracts/ERC20TokenABC_flattened.sol\":741:751  msg.sender */\n      caller\n        /* \"contracts/ERC20TokenABC_flattened.sol\":734:751  return msg.sender */\n      swap1\n      pop\n        /* \"contracts/ERC20TokenABC_flattened.sol\":662:758  function _msgSender() internal view virtual returns (address) {... */\n      swap1\n      jump\t// out\n        /* \"contracts/ERC20TokenABC_flattened.sol\":14959:15329  function _approve(... */\n    tag_93:\n        /* \"contracts/ERC20TokenABC_flattened.sol\":15107:15108  0 */\n      0x00\n        /* \"contracts/ERC20TokenABC_flattened.sol\":15090:15109  owner != address(0) */\n      0xffffffffffffffffffffffffffffffffffffffff\n      and\n        /* \"contracts/ERC20TokenABC_flattened.sol\":15090:15095  owner */\n      dup4\n        /* \"contracts/ERC20TokenABC_flattened.sol\":15090:15109  owner != address(0) */\n      0xffffffffffffffffffffffffffffffffffffffff\n      and\n      eq\n      iszero\n        /* \"contracts/ERC20TokenABC_flattened.sol\":15082:15150  require(owner != address(0), \"ERC20: approve from the zero address\") */\n      tag_162\n      jumpi\n      mload(0x40)\n      0x08c379a000000000000000000000000000000000000000000000000000000000\n      dup2\n      mstore\n      0x04\n      add\n      tag_163\n      swap1\n      tag_164\n      jump\t// in\n    tag_163:\n      mload(0x40)\n      dup1\n      swap2\n      sub\n      swap1\n      revert\n    tag_162:\n        /* \"contracts/ERC20TokenABC_flattened.sol\":15187:15188  0 */\n      0x00\n        /* \"contracts/ERC20TokenABC_flattened.sol\":15168:15189  spender != address(0) */\n      0xffffffffffffffffffffffffffffffffffffffff\n      and\n        /* \"contracts/ERC20TokenABC_flattened.sol\":15168:15175  spender */\n      dup3\n        /* \"contracts/ERC20TokenABC_flattened.sol\":15168:15189  spender != address(0) */\n      0xffffffffffffffffffffffffffffffffffffffff\n      and\n      eq\n      iszero\n        /* \"contracts/ERC20TokenABC_flattened.sol\":15160:15228  require(spender != address(0), \"ERC20: approve to the zero address\") */\n      tag_165\n      jumpi\n      mload(0x40)\n      0x08c379a000000000000000000000000000000000000000000000000000000000\n      dup2\n      mstore\n      0x04\n      add\n      tag_166\n      swap1\n      tag_167\n      jump\t// in\n    tag_166:\n      mload(0x40)\n      dup1\n      swap2\n      sub\n      swap1\n      revert\n    tag_165:\n        /* \"contracts/ERC20TokenABC_flattened.sol\":15269:15275  amount */\n      dup1\n        /* \"contracts/ERC20TokenABC_flattened.sol\":15239:15250  _allowances */\n      0x01\n        /* \"contracts/ERC20TokenABC_flattened.sol\":15239:15257  _allowances[owner] */\n      0x00\n        /* \"contracts/ERC20TokenABC_flattened.sol\":15251:15256  owner */\n      dup6\n        /* \"contracts/ERC20TokenABC_flattened.sol\":15239:15257  _allowances[owner] */\n      0xffffffffffffffffffffffffffffffffffffffff\n      and\n      0xffffffffffffffffffffffffffffffffffffffff\n      and\n      dup2\n      mstore\n      0x20\n      add\n      swap1\n      dup2\n      mstore\n      0x20\n      add\n      0x00\n      keccak256\n        /* \"contracts/ERC20TokenABC_flattened.sol\":15239:15266  _allowances[owner][spender] */\n      0x00\n        /* \"contracts/ERC20TokenABC_flattened.sol\":15258:15265  spender */\n      dup5\n        /* \"contracts/ERC20TokenABC_flattened.sol\":15239:15266  _allowances[owner][spender] */\n      0xffffffffffffffffffffffffffffffffffffffff\n      and\n      0xffffffffffffffffffffffffffffffffffffffff\n      and\n      dup2\n      mstore\n      0x20\n      add\n      swap1\n      dup2\n      mstore\n      0x20\n      add\n      0x00\n      keccak256\n        /* \"contracts/ERC20TokenABC_flattened.sol\":15239:15275  _allowances[owner][spender] = amount */\n      dup2\n      swap1\n      sstore\n      pop\n        /* \"contracts/ERC20TokenABC_flattened.sol\":15306:15313  spender */\n      dup2\n        /* \"contracts/ERC20TokenABC_flattened.sol\":15290:15322  Approval(owner, spender, amount) */\n      0xffffffffffffffffffffffffffffffffffffffff\n      and\n        /* \"contracts/ERC20TokenABC_flattened.sol\":15299:15304  owner */\n      dup4\n        /* \"contracts/ERC20TokenABC_flattened.sol\":15290:15322  Approval(owner, spender, amount) */\n      0xffffffffffffffffffffffffffffffffffffffff\n      and\n      0x8c5be1e5ebec7d5bd14f71427d1e84f3dd0314c0f7b2291e5b200ac8c7c3b925\n        /* \"contracts/ERC20TokenABC_flattened.sol\":15315:15321  amount */\n      dup4\n        /* \"contracts/ERC20TokenABC_flattened.sol\":15290:15322  Approval(owner, spender, amount) */\n      mload(0x40)\n      tag_168\n      swap2\n      swap1\n      tag_34\n      jump\t// in\n    tag_168:\n      mload(0x40)\n      dup1\n      swap2\n      sub\n      swap1\n      log3\n        /* \"contracts/ERC20TokenABC_flattened.sol\":14959:15329  function _approve(... */\n      pop\n      pop\n      pop\n      jump\t// out\n        /* \"contracts/ERC20TokenABC_flattened.sol\":7697:7803  function totalSupply() public view virtual override returns (uint256) {... */\n    tag_96:\n        /* \"contracts/ERC20TokenABC_flattened.sol\":7758:7765  uint256 */\n      0x00\n        /* \"contracts/ERC20TokenABC_flattened.sol\":7784:7796  _totalSupply */\n      sload(0x02)\n        /* \"contracts/ERC20TokenABC_flattened.sol\":7777:7796  return _totalSupply */\n      swap1\n      pop\n        /* \"contracts/ERC20TokenABC_flattened.sol\":7697:7803  function totalSupply() public view virtual override returns (uint256) {... */\n      swap1\n      jump\t// out\n        /* \"contracts/ERC20TokenABC_flattened.sol\":15610:16051  function _spendAllowance(... */\n    tag_100:\n        /* \"contracts/ERC20TokenABC_flattened.sol\":15740:15764  uint256 currentAllowance */\n      0x00\n        /* \"contracts/ERC20TokenABC_flattened.sol\":15767:15792  allowance(owner, spender) */\n      tag_171\n        /* \"contracts/ERC20TokenABC_flattened.sol\":15777:15782  owner */\n      dup5\n        /* \"contracts/ERC20TokenABC_flattened.sol\":15784:15791  spender */\n      dup5\n        /* \"contracts/ERC20TokenABC_flattened.sol\":15767:15776  allowance */\n      tag_84\n        /* \"contracts/ERC20TokenABC_flattened.sol\":15767:15792  allowance(owner, spender) */\n      jump\t// in\n    tag_171:\n        /* \"contracts/ERC20TokenABC_flattened.sol\":15740:15792  uint256 currentAllowance = allowance(owner, spender) */\n      swap1\n      pop\n        /* \"contracts/ERC20TokenABC_flattened.sol\":15826:15843  type(uint256).max */\n      0xffffffffffffffffffffffffffffffffffffffffffffffffffffffffffffffff\n        /* \"contracts/ERC20TokenABC_flattened.sol\":15806:15822  currentAllowance */\n      dup2\n        /* \"contracts/ERC20TokenABC_flattened.sol\":15806:15843  currentAllowance != type(uint256).max */\n      eq\n        /* \"contracts/ERC20TokenABC_flattened.sol\":15802:16045  if (currentAllowance != type(uint256).max) {... */\n      tag_172\n      jumpi\n        /* \"contracts/ERC20TokenABC_flattened.sol\":15887:15893  amount */\n      dup2\n        /* \"contracts/ERC20TokenABC_flattened.sol\":15867:15883  currentAllowance */\n      dup2\n        /* \"contracts/ERC20TokenABC_flattened.sol\":15867:15893  currentAllowance >= amount */\n      lt\n      iszero\n        /* \"contracts/ERC20TokenABC_flattened.sol\":15859:15927  require(currentAllowance >= amount, \"ERC20: insufficient allowance\") */\n      tag_173\n      jumpi\n      mload(0x40)\n      0x08c379a000000000000000000000000000000000000000000000000000000000\n      dup2\n      mstore\n      0x04\n      add\n      tag_174\n      swap1\n      tag_175\n      jump\t// in\n    tag_174:\n      mload(0x40)\n      dup1\n      swap2\n      sub\n      swap1\n      revert\n    tag_173:\n        /* \"contracts/ERC20TokenABC_flattened.sol\":15969:16020  _approve(owner, spender, currentAllowance - amount) */\n      tag_176\n        /* \"contracts/ERC20TokenABC_flattened.sol\":15978:15983  owner */\n      dup5\n        /* \"contracts/ERC20TokenABC_flattened.sol\":15985:15992  spender */\n      dup5\n        /* \"contracts/ERC20TokenABC_flattened.sol\":16013:16019  amount */\n      dup5\n        /* \"contracts/ERC20TokenABC_flattened.sol\":15994:16010  currentAllowance */\n      dup5\n        /* \"contracts/ERC20TokenABC_flattened.sol\":15994:16019  currentAllowance - amount */\n      sub\n        /* \"contracts/ERC20TokenABC_flattened.sol\":15969:15977  _approve */\n      tag_93\n        /* \"contracts/ERC20TokenABC_flattened.sol\":15969:16020  _approve(owner, spender, currentAllowance - amount) */\n      jump\t// in\n    tag_176:\n        /* \"contracts/ERC20TokenABC_flattened.sol\":15802:16045  if (currentAllowance != type(uint256).max) {... */\n    tag_172:\n        /* \"contracts/ERC20TokenABC_flattened.sol\":15730:16051  {... */\n      pop\n        /* \"contracts/ERC20TokenABC_flattened.sol\":15610:16051  function _spendAllowance(... */\n      pop\n      pop\n      pop\n      jump\t// out\n        /* \"contracts/ERC20TokenABC_flattened.sol\":11928:12746  function _transfer(... */\n    tag_102:\n        /* \"contracts/ERC20TokenABC_flattened.sol\":12070:12071  0 */\n      0x00\n        /* \"contracts/ERC20TokenABC_flattened.sol\":12054:12072  from != address(0) */\n      0xffffffffffffffffffffffffffffffffffffffff\n      and\n        /* \"contracts/ERC20TokenABC_flattened.sol\":12054:12058  from */\n      dup4\n        /* \"contracts/ERC20TokenABC_flattened.sol\":12054:12072  from != address(0) */\n      0xffffffffffffffffffffffffffffffffffffffff\n      and\n      eq\n      iszero\n        /* \"contracts/ERC20TokenABC_flattened.sol\":12046:12114  require(from != address(0), \"ERC20: transfer from the zero address\") */\n      tag_178\n      jumpi\n      mload(0x40)\n      0x08c379a000000000000000000000000000000000000000000000000000000000\n      dup2\n      mstore\n      0x04\n      add\n      tag_179\n      swap1\n      tag_180\n      jump\t// in\n    tag_179:\n      mload(0x40)\n      dup1\n      swap2\n      sub\n      swap1\n      revert\n    tag_178:\n        /* \"contracts/ERC20TokenABC_flattened.sol\":12146:12147  0 */\n      0x00\n        /* \"contracts/ERC20TokenABC_flattened.sol\":12132:12148  to != address(0) */\n      0xffffffffffffffffffffffffffffffffffffffff\n      and\n        /* \"contracts/ERC20TokenABC_flattened.sol\":12132:12134  to */\n      dup3\n        /* \"contracts/ERC20TokenABC_flattened.sol\":12132:12148  to != address(0) */\n      0xffffffffffffffffffffffffffffffffffffffff\n      and\n      eq\n      iszero\n        /* \"contracts/ERC20TokenABC_flattened.sol\":12124:12188  require(to != address(0), \"ERC20: transfer to the zero address\") */\n      tag_181\n      jumpi\n      mload(0x40)\n      0x08c379a000000000000000000000000000000000000000000000000000000000\n      dup2\n      mstore\n      0x04\n      add\n      tag_182\n      swap1\n      tag_183\n      jump\t// in\n    tag_182:\n      mload(0x40)\n      dup1\n      swap2\n      sub\n      swap1\n      revert\n    tag_181:\n        /* \"contracts/ERC20TokenABC_flattened.sol\":12199:12237  _beforeTokenTransfer(from, to, amount) */\n      tag_184\n        /* \"contracts/ERC20TokenABC_flattened.sol\":12220:12224  from */\n      dup4\n        /* \"contracts/ERC20TokenABC_flattened.sol\":12226:12228  to */\n      dup4\n        /* \"contracts/ERC20TokenABC_flattened.sol\":12230:12236  amount */\n      dup4\n        /* \"contracts/ERC20TokenABC_flattened.sol\":12199:12219  _beforeTokenTransfer */\n      tag_185\n        /* \"contracts/ERC20TokenABC_flattened.sol\":12199:12237  _beforeTokenTransfer(from, to, amount) */\n      jump\t// in\n    tag_184:\n        /* \"contracts/ERC20TokenABC_flattened.sol\":12248:12267  uint256 fromBalance */\n      0x00\n        /* \"contracts/ERC20TokenABC_flattened.sol\":12270:12279  _balances */\n      dup1\n        /* \"contracts/ERC20TokenABC_flattened.sol\":12270:12285  _balances[from] */\n      0x00\n        /* \"contracts/ERC20TokenABC_flattened.sol\":12280:12284  from */\n      dup6\n        /* \"contracts/ERC20TokenABC_flattened.sol\":12270:12285  _balances[from] */\n      0xffffffffffffffffffffffffffffffffffffffff\n      and\n      0xffffffffffffffffffffffffffffffffffffffff\n      and\n      dup2\n      mstore\n      0x20\n      add\n      swap1\n      dup2\n      mstore\n      0x20\n      add\n      0x00\n      keccak256\n      sload\n        /* \"contracts/ERC20TokenABC_flattened.sol\":12248:12285  uint256 fromBalance = _balances[from] */\n      swap1\n      pop\n        /* \"contracts/ERC20TokenABC_flattened.sol\":12318:12324  amount */\n      dup2\n        /* \"contracts/ERC20TokenABC_flattened.sol\":12303:12314  fromBalance */\n      dup2\n        /* \"contracts/ERC20TokenABC_flattened.sol\":12303:12324  fromBalance >= amount */\n      lt\n      iszero\n        /* \"contracts/ERC20TokenABC_flattened.sol\":12295:12367  require(fromBalance >= amount, \"ERC20: transfer amount exceeds balance\") */\n      tag_186\n      jumpi\n      mload(0x40)\n      0x08c379a000000000000000000000000000000000000000000000000000000000\n      dup2\n      mstore\n      0x04\n      add\n      tag_187\n      swap1\n      tag_188\n      jump\t// in\n    tag_187:\n      mload(0x40)\n      dup1\n      swap2\n      sub\n      swap1\n      revert\n    tag_186:\n        /* \"contracts/ERC20TokenABC_flattened.sol\":12433:12439  amount */\n      dup2\n        /* \"contracts/ERC20TokenABC_flattened.sol\":12419:12430  fromBalance */\n      dup2\n        /* \"contracts/ERC20TokenABC_flattened.sol\":12419:12439  fromBalance - amount */\n      sub\n        /* \"contracts/ERC20TokenABC_flattened.sol\":12401:12410  _balances */\n      0x00\n        /* \"contracts/ERC20TokenABC_flattened.sol\":12401:12416  _balances[from] */\n      dup1\n        /* \"contracts/ERC20TokenABC_flattened.sol\":12411:12415  from */\n      dup7\n        /* \"contracts/ERC20TokenABC_flattened.sol\":12401:12416  _balances[from] */\n      0xffffffffffffffffffffffffffffffffffffffff\n      and\n      0xffffffffffffffffffffffffffffffffffffffff\n      and\n      dup2\n      mstore\n      0x20\n      add\n      swap1\n      dup2\n      mstore\n      0x20\n      add\n      0x00\n      keccak256\n        /* \"contracts/ERC20TokenABC_flattened.sol\":12401:12439  _balances[from] = fromBalance - amount */\n      dup2\n      swap1\n      sstore\n      pop\n        /* \"contracts/ERC20TokenABC_flattened.sol\":12633:12639  amount */\n      dup2\n        /* \"contracts/ERC20TokenABC_flattened.sol\":12616:12625  _balances */\n      0x00\n        /* \"contracts/ERC20TokenABC_flattened.sol\":12616:12629  _balances[to] */\n      dup1\n        /* \"contracts/ERC20TokenABC_flattened.sol\":12626:12628  to */\n      dup6\n        /* \"contracts/ERC20TokenABC_flattened.sol\":12616:12629  _balances[to] */\n      0xffffffffffffffffffffffffffffffffffffffff\n      and\n      0xffffffffffffffffffffffffffffffffffffffff\n      and\n      dup2\n      mstore\n      0x20\n      add\n      swap1\n      dup2\n      mstore\n      0x20\n      add\n      0x00\n      keccak256\n      0x00\n        /* \"contracts/ERC20TokenABC_flattened.sol\":12616:12639  _balances[to] += amount */\n      dup3\n      dup3\n      sload\n      add\n      swap3\n      pop\n      pop\n      dup2\n      swap1\n      sstore\n      pop\n        /* \"contracts/ERC20TokenABC_flattened.sol\":12680:12682  to */\n      dup3\n        /* \"contracts/ERC20TokenABC_flattened.sol\":12665:12691  Transfer(from, to, amount) */\n      0xffffffffffffffffffffffffffffffffffffffff\n      and\n        /* \"contracts/ERC20TokenABC_flattened.sol\":12674:12678  from */\n      dup5\n        /* \"contracts/ERC20TokenABC_flattened.sol\":12665:12691  Transfer(from, to, amount) */\n      0xffffffffffffffffffffffffffffffffffffffff\n      and\n      0xddf252ad1be2c89b69c2b068fc378daa952ba7f163c4a11628f55a4df523b3ef\n        /* \"contracts/ERC20TokenABC_flattened.sol\":12684:12690  amount */\n      dup5\n        /* \"contracts/ERC20TokenABC_flattened.sol\":12665:12691  Transfer(from, to, amount) */\n      mload(0x40)\n      tag_189\n      swap2\n      swap1\n      tag_34\n      jump\t// in\n    tag_189:\n      mload(0x40)\n      dup1\n      swap2\n      sub\n      swap1\n      log3\n        /* \"contracts/ERC20TokenABC_flattened.sol\":12702:12739  _afterTokenTransfer(from, to, amount) */\n      tag_190\n        /* \"contracts/ERC20TokenABC_flattened.sol\":12722:12726  from */\n      dup5\n        /* \"contracts/ERC20TokenABC_flattened.sol\":12728:12730  to */\n      dup5\n        /* \"contracts/ERC20TokenABC_flattened.sol\":12732:12738  amount */\n      dup5\n        /* \"contracts/ERC20TokenABC_flattened.sol\":12702:12721  _afterTokenTransfer */\n      tag_191\n        /* \"contracts/ERC20TokenABC_flattened.sol\":12702:12739  _afterTokenTransfer(from, to, amount) */\n      jump\t// in\n    tag_190:\n        /* \"contracts/ERC20TokenABC_flattened.sol\":12036:12746  {... */\n      pop\n        /* \"contracts/ERC20TokenABC_flattened.sol\":11928:12746  function _transfer(... */\n      pop\n      pop\n      pop\n      jump\t// out\n        /* \"contracts/ERC20TokenABC_flattened.sol\":13022:13557  function _mint(address account, uint256 amount) internal virtual {... */\n    tag_119:\n        /* \"contracts/ERC20TokenABC_flattened.sol\":13124:13125  0 */\n      0x00\n        /* \"contracts/ERC20TokenABC_flattened.sol\":13105:13126  account != address(0) */\n      0xffffffffffffffffffffffffffffffffffffffff\n      and\n        /* \"contracts/ERC20TokenABC_flattened.sol\":13105:13112  account */\n      dup3\n        /* \"contracts/ERC20TokenABC_flattened.sol\":13105:13126  account != address(0) */\n      0xffffffffffffffffffffffffffffffffffffffff\n      and\n      eq\n      iszero\n        /* \"contracts/ERC20TokenABC_flattened.sol\":13097:13162  require(account != address(0), \"ERC20: mint to the zero address\") */\n      tag_193\n      jumpi\n      mload(0x40)\n      0x08c379a000000000000000000000000000000000000000000000000000000000\n      dup2\n      mstore\n      0x04\n      add\n      tag_194\n      swap1\n      tag_195\n      jump\t// in\n    tag_194:\n      mload(0x40)\n      dup1\n      swap2\n      sub\n      swap1\n      revert\n    tag_193:\n        /* \"contracts/ERC20TokenABC_flattened.sol\":13173:13222  _beforeTokenTransfer(address(0), account, amount) */\n      tag_196\n        /* \"contracts/ERC20TokenABC_flattened.sol\":13202:13203  0 */\n      0x00\n        /* \"contracts/ERC20TokenABC_flattened.sol\":13206:13213  account */\n      dup4\n        /* \"contracts/ERC20TokenABC_flattened.sol\":13215:13221  amount */\n      dup4\n        /* \"contracts/ERC20TokenABC_flattened.sol\":13173:13193  _beforeTokenTransfer */\n      tag_185\n        /* \"contracts/ERC20TokenABC_flattened.sol\":13173:13222  _beforeTokenTransfer(address(0), account, amount) */\n      jump\t// in\n    tag_196:\n        /* \"contracts/ERC20TokenABC_flattened.sol\":13249:13255  amount */\n      dup1\n        /* \"contracts/ERC20TokenABC_flattened.sol\":13233:13245  _totalSupply */\n      0x02\n      0x00\n        /* \"contracts/ERC20TokenABC_flattened.sol\":13233:13255  _totalSupply += amount */\n      dup3\n      dup3\n      sload\n      tag_197\n      swap2\n      swap1\n      tag_109\n      jump\t// in\n    tag_197:\n      swap3\n      pop\n      pop\n      dup2\n      swap1\n      sstore\n      pop\n        /* \"contracts/ERC20TokenABC_flattened.sol\":13423:13429  amount */\n      dup1\n        /* \"contracts/ERC20TokenABC_flattened.sol\":13401:13410  _balances */\n      0x00\n        /* \"contracts/ERC20TokenABC_flattened.sol\":13401:13419  _balances[account] */\n      dup1\n        /* \"contracts/ERC20TokenABC_flattened.sol\":13411:13418  account */\n      dup5\n        /* \"contracts/ERC20TokenABC_flattened.sol\":13401:13419  _balances[account] */\n      0xffffffffffffffffffffffffffffffffffffffff\n      and\n      0xffffffffffffffffffffffffffffffffffffffff\n      and\n      dup2\n      mstore\n      0x20\n      add\n      swap1\n      dup2\n      mstore\n      0x20\n      add\n      0x00\n      keccak256\n      0x00\n        /* \"contracts/ERC20TokenABC_flattened.sol\":13401:13429  _balances[account] += amount */\n      dup3\n      dup3\n      sload\n      add\n      swap3\n      pop\n      pop\n      dup2\n      swap1\n      sstore\n      pop\n        /* \"contracts/ERC20TokenABC_flattened.sol\":13475:13482  account */\n      dup2\n        /* \"contracts/ERC20TokenABC_flattened.sol\":13454:13491  Transfer(address(0), account, amount) */\n      0xffffffffffffffffffffffffffffffffffffffff\n      and\n        /* \"contracts/ERC20TokenABC_flattened.sol\":13471:13472  0 */\n      0x00\n        /* \"contracts/ERC20TokenABC_flattened.sol\":13454:13491  Transfer(address(0), account, amount) */\n      0xffffffffffffffffffffffffffffffffffffffff\n      and\n      0xddf252ad1be2c89b69c2b068fc378daa952ba7f163c4a11628f55a4df523b3ef\n        /* \"contracts/ERC20TokenABC_flattened.sol\":13484:13490  amount */\n      dup4\n        /* \"contracts/ERC20TokenABC_flattened.sol\":13454:13491  Transfer(address(0), account, amount) */\n      mload(0x40)\n      tag_198\n      swap2\n      swap1\n      tag_34\n      jump\t// in\n    tag_198:\n      mload(0x40)\n      dup1\n      swap2\n      sub\n      swap1\n      log3\n        /* \"contracts/ERC20TokenABC_flattened.sol\":13502:13550  _afterTokenTransfer(address(0), account, amount) */\n      tag_199\n        /* \"contracts/ERC20TokenABC_flattened.sol\":13530:13531  0 */\n      0x00\n        /* \"contracts/ERC20TokenABC_flattened.sol\":13534:13541  account */\n      dup4\n        /* \"contracts/ERC20TokenABC_flattened.sol\":13543:13549  amount */\n      dup4\n        /* \"contracts/ERC20TokenABC_flattened.sol\":13502:13521  _afterTokenTransfer */\n      tag_191\n        /* \"contracts/ERC20TokenABC_flattened.sol\":13502:13550  _afterTokenTransfer(address(0), account, amount) */\n      jump\t// in\n    tag_199:\n        /* \"contracts/ERC20TokenABC_flattened.sol\":13022:13557  function _mint(address account, uint256 amount) internal virtual {... */\n      pop\n      pop\n      jump\t// out\n        /* \"contracts/ERC20TokenABC_flattened.sol\":13877:14536  function _burn(address account, uint256 amount) internal virtual {... */\n    tag_123:\n        /* \"contracts/ERC20TokenABC_flattened.sol\":13979:13980  0 */\n      0x00\n        /* \"contracts/ERC20TokenABC_flattened.sol\":13960:13981  account != address(0) */\n      0xffffffffffffffffffffffffffffffffffffffff\n      and\n        /* \"contracts/ERC20TokenABC_flattened.sol\":13960:13967  account */\n      dup3\n        /* \"contracts/ERC20TokenABC_flattened.sol\":13960:13981  account != address(0) */\n      0xffffffffffffffffffffffffffffffffffffffff\n      and\n      eq\n      iszero\n        /* \"contracts/ERC20TokenABC_flattened.sol\":13952:14019  require(account != address(0), \"ERC20: burn from the zero address\") */\n      tag_201\n      jumpi\n      mload(0x40)\n      0x08c379a000000000000000000000000000000000000000000000000000000000\n      dup2\n      mstore\n      0x04\n      add\n      tag_202\n      swap1\n      tag_203\n      jump\t// in\n    tag_202:\n      mload(0x40)\n      dup1\n      swap2\n      sub\n      swap1\n      revert\n    tag_201:\n        /* \"contracts/ERC20TokenABC_flattened.sol\":14030:14079  _beforeTokenTransfer(account, address(0), amount) */\n      tag_204\n        /* \"contracts/ERC20TokenABC_flattened.sol\":14051:14058  account */\n      dup3\n        /* \"contracts/ERC20TokenABC_flattened.sol\":14068:14069  0 */\n      0x00\n        /* \"contracts/ERC20TokenABC_flattened.sol\":14072:14078  amount */\n      dup4\n        /* \"contracts/ERC20TokenABC_flattened.sol\":14030:14050  _beforeTokenTransfer */\n      tag_185\n        /* \"contracts/ERC20TokenABC_flattened.sol\":14030:14079  _beforeTokenTransfer(account, address(0), amount) */\n      jump\t// in\n    tag_204:\n        /* \"contracts/ERC20TokenABC_flattened.sol\":14090:14112  uint256 accountBalance */\n      0x00\n        /* \"contracts/ERC20TokenABC_flattened.sol\":14115:14124  _balances */\n      dup1\n        /* \"contracts/ERC20TokenABC_flattened.sol\":14115:14133  _balances[account] */\n      0x00\n        /* \"contracts/ERC20TokenABC_flattened.sol\":14125:14132  account */\n      dup5\n        /* \"contracts/ERC20TokenABC_flattened.sol\":14115:14133  _balances[account] */\n      0xffffffffffffffffffffffffffffffffffffffff\n      and\n      0xffffffffffffffffffffffffffffffffffffffff\n      and\n      dup2\n      mstore\n      0x20\n      add\n      swap1\n      dup2\n      mstore\n      0x20\n      add\n      0x00\n      keccak256\n      sload\n        /* \"contracts/ERC20TokenABC_flattened.sol\":14090:14133  uint256 accountBalance = _balances[account] */\n      swap1\n      pop\n        /* \"contracts/ERC20TokenABC_flattened.sol\":14169:14175  amount */\n      dup2\n        /* \"contracts/ERC20TokenABC_flattened.sol\":14151:14165  accountBalance */\n      dup2\n        /* \"contracts/ERC20TokenABC_flattened.sol\":14151:14175  accountBalance >= amount */\n      lt\n      iszero\n        /* \"contracts/ERC20TokenABC_flattened.sol\":14143:14214  require(accountBalance >= amount, \"ERC20: burn amount exceeds balance\") */\n      tag_205\n      jumpi\n      mload(0x40)\n      0x08c379a000000000000000000000000000000000000000000000000000000000\n      dup2\n      mstore\n      0x04\n      add\n      tag_206\n      swap1\n      tag_207\n      jump\t// in\n    tag_206:\n      mload(0x40)\n      dup1\n      swap2\n      sub\n      swap1\n      revert\n    tag_205:\n        /* \"contracts/ERC20TokenABC_flattened.sol\":14286:14292  amount */\n      dup2\n        /* \"contracts/ERC20TokenABC_flattened.sol\":14269:14283  accountBalance */\n      dup2\n        /* \"contracts/ERC20TokenABC_flattened.sol\":14269:14292  accountBalance - amount */\n      sub\n        /* \"contracts/ERC20TokenABC_flattened.sol\":14248:14257  _balances */\n      0x00\n        /* \"contracts/ERC20TokenABC_flattened.sol\":14248:14266  _balances[account] */\n      dup1\n        /* \"contracts/ERC20TokenABC_flattened.sol\":14258:14265  account */\n      dup6\n        /* \"contracts/ERC20TokenABC_flattened.sol\":14248:14266  _balances[account] */\n      0xffffffffffffffffffffffffffffffffffffffff\n      and\n      0xffffffffffffffffffffffffffffffffffffffff\n      and\n      dup2\n      mstore\n      0x20\n      add\n      swap1\n      dup2\n      mstore\n      0x20\n      add\n      0x00\n      keccak256\n        /* \"contracts/ERC20TokenABC_flattened.sol\":14248:14292  _balances[account] = accountBalance - amount */\n      dup2\n      swap1\n      sstore\n      pop\n        /* \"contracts/ERC20TokenABC_flattened.sol\":14401:14407  amount */\n      dup2\n        /* \"contracts/ERC20TokenABC_flattened.sol\":14385:14397  _totalSupply */\n      0x02\n      0x00\n        /* \"contracts/ERC20TokenABC_flattened.sol\":14385:14407  _totalSupply -= amount */\n      dup3\n      dup3\n      sload\n      sub\n      swap3\n      pop\n      pop\n      dup2\n      swap1\n      sstore\n      pop\n        /* \"contracts/ERC20TokenABC_flattened.sol\":14459:14460  0 */\n      0x00\n        /* \"contracts/ERC20TokenABC_flattened.sol\":14433:14470  Transfer(account, address(0), amount) */\n      0xffffffffffffffffffffffffffffffffffffffff\n      and\n        /* \"contracts/ERC20TokenABC_flattened.sol\":14442:14449  account */\n      dup4\n        /* \"contracts/ERC20TokenABC_flattened.sol\":14433:14470  Transfer(account, address(0), amount) */\n      0xffffffffffffffffffffffffffffffffffffffff\n      and\n      0xddf252ad1be2c89b69c2b068fc378daa952ba7f163c4a11628f55a4df523b3ef\n        /* \"contracts/ERC20TokenABC_flattened.sol\":14463:14469  amount */\n      dup5\n        /* \"contracts/ERC20TokenABC_flattened.sol\":14433:14470  Transfer(account, address(0), amount) */\n      mload(0x40)\n      tag_208\n      swap2\n      swap1\n      tag_34\n      jump\t// in\n    tag_208:\n      mload(0x40)\n      dup1\n      swap2\n      sub\n      swap1\n      log3\n        /* \"contracts/ERC20TokenABC_flattened.sol\":14481:14529  _afterTokenTransfer(account, address(0), amount) */\n      tag_209\n        /* \"contracts/ERC20TokenABC_flattened.sol\":14501:14508  account */\n      dup4\n        /* \"contracts/ERC20TokenABC_flattened.sol\":14518:14519  0 */\n      0x00\n        /* \"contracts/ERC20TokenABC_flattened.sol\":14522:14528  amount */\n      dup5\n        /* \"contracts/ERC20TokenABC_flattened.sol\":14481:14500  _afterTokenTransfer */\n      tag_191\n        /* \"contracts/ERC20TokenABC_flattened.sol\":14481:14529  _afterTokenTransfer(account, address(0), amount) */\n      jump\t// in\n    tag_209:\n        /* \"contracts/ERC20TokenABC_flattened.sol\":13942:14536  {... */\n      pop\n        /* \"contracts/ERC20TokenABC_flattened.sol\":13877:14536  function _burn(address account, uint256 amount) internal virtual {... */\n      pop\n      pop\n      jump\t// out\n        /* \"contracts/ERC20TokenABC_flattened.sol\":7861:7986  function balanceOf(address account) public view virtual override returns (uint256) {... */\n    tag_126:\n        /* \"contracts/ERC20TokenABC_flattened.sol\":7935:7942  uint256 */\n      0x00\n        /* \"contracts/ERC20TokenABC_flattened.sol\":7961:7970  _balances */\n      dup1\n        /* \"contracts/ERC20TokenABC_flattened.sol\":7961:7979  _balances[account] */\n      0x00\n        /* \"contracts/ERC20TokenABC_flattened.sol\":7971:7978  account */\n      dup4\n        /* \"contracts/ERC20TokenABC_flattened.sol\":7961:7979  _balances[account] */\n      0xffffffffffffffffffffffffffffffffffffffff\n      and\n      0xffffffffffffffffffffffffffffffffffffffff\n      and\n      dup2\n      mstore\n      0x20\n      add\n      swap1\n      dup2\n      mstore\n      0x20\n      add\n      0x00\n      keccak256\n      sload\n        /* \"contracts/ERC20TokenABC_flattened.sol\":7954:7979  return _balances[account] */\n      swap1\n      pop\n        /* \"contracts/ERC20TokenABC_flattened.sol\":7861:7986  function balanceOf(address account) public view virtual override returns (uint256) {... */\n      swap2\n      swap1\n      pop\n      jump\t// out\n        /* \"contracts/ERC20TokenABC_flattened.sol\":6820:6922  function symbol() public view virtual override returns (string memory) {... */\n    tag_129:\n        /* \"contracts/ERC20TokenABC_flattened.sol\":6876:6889  string memory */\n      0x60\n        /* \"contracts/ERC20TokenABC_flattened.sol\":6908:6915  _symbol */\n      0x04\n        /* \"contracts/ERC20TokenABC_flattened.sol\":6901:6915  return _symbol */\n      dup1\n      sload\n      tag_212\n      swap1\n      tag_155\n      jump\t// in\n    tag_212:\n      dup1\n      0x1f\n      add\n      0x20\n      dup1\n      swap2\n      div\n      mul\n      0x20\n      add\n      mload(0x40)\n      swap1\n      dup2\n      add\n      0x40\n      mstore\n      dup1\n      swap3\n      swap2\n      swap1\n      dup2\n      dup2\n      mstore\n      0x20\n      add\n      dup3\n      dup1\n      sload\n      tag_213\n      swap1\n      tag_155\n      jump\t// in\n    tag_213:\n      dup1\n      iszero\n      tag_214\n      jumpi\n      dup1\n      0x1f\n      lt\n      tag_215\n      jumpi\n      0x0100\n      dup1\n      dup4\n      sload\n      div\n      mul\n      dup4\n      mstore\n      swap2\n      0x20\n      add\n      swap2\n      jump(tag_214)\n    tag_215:\n      dup3\n      add\n      swap2\n      swap1\n      0x00\n      mstore\n      keccak256(0x00, 0x20)\n      swap1\n    tag_216:\n      dup2\n      sload\n      dup2\n      mstore\n      swap1\n      0x01\n      add\n      swap1\n      0x20\n      add\n      dup1\n      dup4\n      gt\n      tag_216\n      jumpi\n      dup3\n      swap1\n      sub\n      0x1f\n      and\n      dup3\n      add\n      swap2\n    tag_214:\n      pop\n      pop\n      pop\n      pop\n      pop\n      swap1\n      pop\n        /* \"contracts/ERC20TokenABC_flattened.sol\":6820:6922  function symbol() public view virtual override returns (string memory) {... */\n      swap1\n      jump\t// out\n        /* \"contracts/ERC20TokenABC_flattened.sol\":16635:16756  function _beforeTokenTransfer(... */\n    tag_185:\n      pop\n      pop\n      pop\n      jump\t// out\n        /* \"contracts/ERC20TokenABC_flattened.sol\":17344:17464  function _afterTokenTransfer(... */\n    tag_191:\n      pop\n      pop\n      pop\n      jump\t// out\n        /* \"#utility.yul\":7:106   */\n    tag_219:\n        /* \"#utility.yul\":59:65   */\n      0x00\n        /* \"#utility.yul\":93:98   */\n      dup2\n        /* \"#utility.yul\":87:99   */\n      mload\n        /* \"#utility.yul\":77:99   */\n      swap1\n      pop\n        /* \"#utility.yul\":7:106   */\n      swap2\n      swap1\n      pop\n      jump\t// out\n        /* \"#utility.yul\":112:281   */\n    tag_220:\n        /* \"#utility.yul\":196:207   */\n      0x00\n        /* \"#utility.yul\":230:236   */\n      dup3\n        /* \"#utility.yul\":225:228   */\n      dup3\n        /* \"#utility.yul\":218:237   */\n      mstore\n        /* \"#utility.yul\":270:274   */\n      0x20\n        /* \"#utility.yul\":265:268   */\n      dup3\n        /* \"#utility.yul\":261:275   */\n      add\n        /* \"#utility.yul\":246:275   */\n      swap1\n      pop\n        /* \"#utility.yul\":112:281   */\n      swap3\n      swap2\n      pop\n      pop\n      jump\t// out\n        /* \"#utility.yul\":287:594   */\n    tag_221:\n        /* \"#utility.yul\":355:356   */\n      0x00\n        /* \"#utility.yul\":365:478   */\n    tag_271:\n        /* \"#utility.yul\":379:385   */\n      dup4\n        /* \"#utility.yul\":376:377   */\n      dup2\n        /* \"#utility.yul\":373:386   */\n      lt\n        /* \"#utility.yul\":365:478   */\n      iszero\n      tag_273\n      jumpi\n        /* \"#utility.yul\":464:465   */\n      dup1\n        /* \"#utility.yul\":459:462   */\n      dup3\n        /* \"#utility.yul\":455:466   */\n      add\n        /* \"#utility.yul\":449:467   */\n      mload\n        /* \"#utility.yul\":445:446   */\n      dup2\n        /* \"#utility.yul\":440:443   */\n      dup5\n        /* \"#utility.yul\":436:447   */\n      add\n        /* \"#utility.yul\":429:468   */\n      mstore\n        /* \"#utility.yul\":401:403   */\n      0x20\n        /* \"#utility.yul\":398:399   */\n      dup2\n        /* \"#utility.yul\":394:404   */\n      add\n        /* \"#utility.yul\":389:404   */\n      swap1\n      pop\n        /* \"#utility.yul\":365:478   */\n      jump(tag_271)\n    tag_273:\n        /* \"#utility.yul\":496:502   */\n      dup4\n        /* \"#utility.yul\":493:494   */\n      dup2\n        /* \"#utility.yul\":490:503   */\n      gt\n        /* \"#utility.yul\":487:588   */\n      iszero\n      tag_274\n      jumpi\n        /* \"#utility.yul\":576:577   */\n      0x00\n        /* \"#utility.yul\":567:573   */\n      dup5\n        /* \"#utility.yul\":562:565   */\n      dup5\n        /* \"#utility.yul\":558:574   */\n      add\n        /* \"#utility.yul\":551:578   */\n      mstore\n        /* \"#utility.yul\":487:588   */\n    tag_274:\n        /* \"#utility.yul\":336:594   */\n      pop\n        /* \"#utility.yul\":287:594   */\n      pop\n      pop\n      pop\n      jump\t// out\n        /* \"#utility.yul\":600:702   */\n    tag_222:\n        /* \"#utility.yul\":641:647   */\n      0x00\n        /* \"#utility.yul\":692:694   */\n      0x1f\n        /* \"#utility.yul\":688:695   */\n      not\n        /* \"#utility.yul\":683:685   */\n      0x1f\n        /* \"#utility.yul\":676:681   */\n      dup4\n        /* \"#utility.yul\":672:686   */\n      add\n        /* \"#utility.yul\":668:696   */\n      and\n        /* \"#utility.yul\":658:696   */\n      swap1\n      pop\n        /* \"#utility.yul\":600:702   */\n      swap2\n      swap1\n      pop\n      jump\t// out\n        /* \"#utility.yul\":708:1072   */\n    tag_223:\n        /* \"#utility.yul\":796:799   */\n      0x00\n        /* \"#utility.yul\":824:863   */\n      tag_277\n        /* \"#utility.yul\":857:862   */\n      dup3\n        /* \"#utility.yul\":824:863   */\n      tag_219\n      jump\t// in\n    tag_277:\n        /* \"#utility.yul\":879:950   */\n      tag_278\n        /* \"#utility.yul\":943:949   */\n      dup2\n        /* \"#utility.yul\":938:941   */\n      dup6\n        /* \"#utility.yul\":879:950   */\n      tag_220\n      jump\t// in\n    tag_278:\n        /* \"#utility.yul\":872:950   */\n      swap4\n      pop\n        /* \"#utility.yul\":959:1011   */\n      tag_279\n        /* \"#utility.yul\":1004:1010   */\n      dup2\n        /* \"#utility.yul\":999:1002   */\n      dup6\n        /* \"#utility.yul\":992:996   */\n      0x20\n        /* \"#utility.yul\":985:990   */\n      dup7\n        /* \"#utility.yul\":981:997   */\n      add\n        /* \"#utility.yul\":959:1011   */\n      tag_221\n      jump\t// in\n    tag_279:\n        /* \"#utility.yul\":1036:1065   */\n      tag_280\n        /* \"#utility.yul\":1058:1064   */\n      dup2\n        /* \"#utility.yul\":1036:1065   */\n      tag_222\n      jump\t// in\n    tag_280:\n        /* \"#utility.yul\":1031:1034   */\n      dup5\n        /* \"#utility.yul\":1027:1066   */\n      add\n        /* \"#utility.yul\":1020:1066   */\n      swap2\n      pop\n        /* \"#utility.yul\":800:1072   */\n      pop\n        /* \"#utility.yul\":708:1072   */\n      swap3\n      swap2\n      pop\n      pop\n      jump\t// out\n        /* \"#utility.yul\":1078:1391   */\n    tag_24:\n        /* \"#utility.yul\":1191:1195   */\n      0x00\n        /* \"#utility.yul\":1229:1231   */\n      0x20\n        /* \"#utility.yul\":1218:1227   */\n      dup3\n        /* \"#utility.yul\":1214:1232   */\n      add\n        /* \"#utility.yul\":1206:1232   */\n      swap1\n      pop\n        /* \"#utility.yul\":1278:1287   */\n      dup2\n        /* \"#utility.yul\":1272:1276   */\n      dup2\n        /* \"#utility.yul\":1268:1288   */\n      sub\n        /* \"#utility.yul\":1264:1265   */\n      0x00\n        /* \"#utility.yul\":1253:1262   */\n      dup4\n        /* \"#utility.yul\":1249:1266   */\n      add\n        /* \"#utility.yul\":1242:1289   */\n      mstore\n        /* \"#utility.yul\":1306:1384   */\n      tag_282\n        /* \"#utility.yul\":1379:1383   */\n      dup2\n        /* \"#utility.yul\":1370:1376   */\n      dup5\n        /* \"#utility.yul\":1306:1384   */\n      tag_223\n      jump\t// in\n    tag_282:\n        /* \"#utility.yul\":1298:1384   */\n      swap1\n      pop\n        /* \"#utility.yul\":1078:1391   */\n      swap3\n      swap2\n      pop\n      pop\n      jump\t// out\n        /* \"#utility.yul\":1478:1595   */\n    tag_225:\n        /* \"#utility.yul\":1587:1588   */\n      0x00\n        /* \"#utility.yul\":1584:1585   */\n      dup1\n        /* \"#utility.yul\":1577:1589   */\n      revert\n        /* \"#utility.yul\":1724:1850   */\n    tag_227:\n        /* \"#utility.yul\":1761:1768   */\n      0x00\n        /* \"#utility.yul\":1801:1843   */\n      0xffffffffffffffffffffffffffffffffffffffff\n        /* \"#utility.yul\":1794:1799   */\n      dup3\n        /* \"#utility.yul\":1790:1844   */\n      and\n        /* \"#utility.yul\":1779:1844   */\n      swap1\n      pop\n        /* \"#utility.yul\":1724:1850   */\n      swap2\n      swap1\n      pop\n      jump\t// out\n        /* \"#utility.yul\":1856:1952   */\n    tag_228:\n        /* \"#utility.yul\":1893:1900   */\n      0x00\n        /* \"#utility.yul\":1922:1946   */\n      tag_288\n        /* \"#utility.yul\":1940:1945   */\n      dup3\n        /* \"#utility.yul\":1922:1946   */\n      tag_227\n      jump\t// in\n    tag_288:\n        /* \"#utility.yul\":1911:1946   */\n      swap1\n      pop\n        /* \"#utility.yul\":1856:1952   */\n      swap2\n      swap1\n      pop\n      jump\t// out\n        /* \"#utility.yul\":1958:2080   */\n    tag_229:\n        /* \"#utility.yul\":2031:2055   */\n      tag_290\n        /* \"#utility.yul\":2049:2054   */\n      dup2\n        /* \"#utility.yul\":2031:2055   */\n      tag_228\n      jump\t// in\n    tag_290:\n        /* \"#utility.yul\":2024:2029   */\n      dup2\n        /* \"#utility.yul\":2021:2056   */\n      eq\n        /* \"#utility.yul\":2011:2074   */\n      tag_291\n      jumpi\n        /* \"#utility.yul\":2070:2071   */\n      0x00\n        /* \"#utility.yul\":2067:2068   */\n      dup1\n        /* \"#utility.yul\":2060:2072   */\n      revert\n        /* \"#utility.yul\":2011:2074   */\n    tag_291:\n        /* \"#utility.yul\":1958:2080   */\n      pop\n      jump\t// out\n        /* \"#utility.yul\":2086:2225   */\n    tag_230:\n        /* \"#utility.yul\":2132:2137   */\n      0x00\n        /* \"#utility.yul\":2170:2176   */\n      dup2\n        /* \"#utility.yul\":2157:2177   */\n      calldataload\n        /* \"#utility.yul\":2148:2177   */\n      swap1\n      pop\n        /* \"#utility.yul\":2186:2219   */\n      tag_293\n        /* \"#utility.yul\":2213:2218   */\n      dup2\n        /* \"#utility.yul\":2186:2219   */\n      tag_229\n      jump\t// in\n    tag_293:\n        /* \"#utility.yul\":2086:2225   */\n      swap3\n      swap2\n      pop\n      pop\n      jump\t// out\n        /* \"#utility.yul\":2231:2308   */\n    tag_231:\n        /* \"#utility.yul\":2268:2275   */\n      0x00\n        /* \"#utility.yul\":2297:2302   */\n      dup2\n        /* \"#utility.yul\":2286:2302   */\n      swap1\n      pop\n        /* \"#utility.yul\":2231:2308   */\n      swap2\n      swap1\n      pop\n      jump\t// out\n        /* \"#utility.yul\":2314:2436   */\n    tag_232:\n        /* \"#utility.yul\":2387:2411   */\n      tag_296\n        /* \"#utility.yul\":2405:2410   */\n      dup2\n        /* \"#utility.yul\":2387:2411   */\n      tag_231\n      jump\t// in\n    tag_296:\n        /* \"#utility.yul\":2380:2385   */\n      dup2\n        /* \"#utility.yul\":2377:2412   */\n      eq\n        /* \"#utility.yul\":2367:2430   */\n      tag_297\n      jumpi\n        /* \"#utility.yul\":2426:2427   */\n      0x00\n        /* \"#utility.yul\":2423:2424   */\n      dup1\n        /* \"#utility.yul\":2416:2428   */\n      revert\n        /* \"#utility.yul\":2367:2430   */\n    tag_297:\n        /* \"#utility.yul\":2314:2436   */\n      pop\n      jump\t// out\n        /* \"#utility.yul\":2442:2581   */\n    tag_233:\n        /* \"#utility.yul\":2488:2493   */\n      0x00\n        /* \"#utility.yul\":2526:2532   */\n      dup2\n        /* \"#utility.yul\":2513:2533   */\n      calldataload\n        /* \"#utility.yul\":2504:2533   */\n      swap1\n      pop\n        /* \"#utility.yul\":2542:2575   */\n      tag_299\n        /* \"#utility.yul\":2569:2574   */\n      dup2\n        /* \"#utility.yul\":2542:2575   */\n      tag_232\n      jump\t// in\n    tag_299:\n        /* \"#utility.yul\":2442:2581   */\n      swap3\n      swap2\n      pop\n      pop\n      jump\t// out\n        /* \"#utility.yul\":2587:3061   */\n    tag_27:\n        /* \"#utility.yul\":2655:2661   */\n      0x00\n        /* \"#utility.yul\":2663:2669   */\n      dup1\n        /* \"#utility.yul\":2712:2714   */\n      0x40\n        /* \"#utility.yul\":2700:2709   */\n      dup4\n        /* \"#utility.yul\":2691:2698   */\n      dup6\n        /* \"#utility.yul\":2687:2710   */\n      sub\n        /* \"#utility.yul\":2683:2715   */\n      slt\n        /* \"#utility.yul\":2680:2799   */\n      iszero\n      tag_301\n      jumpi\n        /* \"#utility.yul\":2718:2797   */\n      tag_302\n      tag_225\n      jump\t// in\n    tag_302:\n        /* \"#utility.yul\":2680:2799   */\n    tag_301:\n        /* \"#utility.yul\":2838:2839   */\n      0x00\n        /* \"#utility.yul\":2863:2916   */\n      tag_303\n        /* \"#utility.yul\":2908:2915   */\n      dup6\n        /* \"#utility.yul\":2899:2905   */\n      dup3\n        /* \"#utility.yul\":2888:2897   */\n      dup7\n        /* \"#utility.yul\":2884:2906   */\n      add\n        /* \"#utility.yul\":2863:2916   */\n      tag_230\n      jump\t// in\n    tag_303:\n        /* \"#utility.yul\":2853:2916   */\n      swap3\n      pop\n        /* \"#utility.yul\":2809:2926   */\n      pop\n        /* \"#utility.yul\":2965:2967   */\n      0x20\n        /* \"#utility.yul\":2991:3044   */\n      tag_304\n        /* \"#utility.yul\":3036:3043   */\n      dup6\n        /* \"#utility.yul\":3027:3033   */\n      dup3\n        /* \"#utility.yul\":3016:3025   */\n      dup7\n        /* \"#utility.yul\":3012:3034   */\n      add\n        /* \"#utility.yul\":2991:3044   */\n      tag_233\n      jump\t// in\n    tag_304:\n        /* \"#utility.yul\":2981:3044   */\n      swap2\n      pop\n        /* \"#utility.yul\":2936:3054   */\n      pop\n        /* \"#utility.yul\":2587:3061   */\n      swap3\n      pop\n      swap3\n      swap1\n      pop\n      jump\t// out\n        /* \"#utility.yul\":3067:3157   */\n    tag_234:\n        /* \"#utility.yul\":3101:3108   */\n      0x00\n        /* \"#utility.yul\":3144:3149   */\n      dup2\n        /* \"#utility.yul\":3137:3150   */\n      iszero\n        /* \"#utility.yul\":3130:3151   */\n      iszero\n        /* \"#utility.yul\":3119:3151   */\n      swap1\n      pop\n        /* \"#utility.yul\":3067:3157   */\n      swap2\n      swap1\n      pop\n      jump\t// out\n        /* \"#utility.yul\":3163:3272   */\n    tag_235:\n        /* \"#utility.yul\":3244:3265   */\n      tag_307\n        /* \"#utility.yul\":3259:3264   */\n      dup2\n        /* \"#utility.yul\":3244:3265   */\n      tag_234\n      jump\t// in\n    tag_307:\n        /* \"#utility.yul\":3239:3242   */\n      dup3\n        /* \"#utility.yul\":3232:3266   */\n      mstore\n        /* \"#utility.yul\":3163:3272   */\n      pop\n      pop\n      jump\t// out\n        /* \"#utility.yul\":3278:3488   */\n    tag_30:\n        /* \"#utility.yul\":3365:3369   */\n      0x00\n        /* \"#utility.yul\":3403:3405   */\n      0x20\n        /* \"#utility.yul\":3392:3401   */\n      dup3\n        /* \"#utility.yul\":3388:3406   */\n      add\n        /* \"#utility.yul\":3380:3406   */\n      swap1\n      pop\n        /* \"#utility.yul\":3416:3481   */\n      tag_309\n        /* \"#utility.yul\":3478:3479   */\n      0x00\n        /* \"#utility.yul\":3467:3476   */\n      dup4\n        /* \"#utility.yul\":3463:3480   */\n      add\n        /* \"#utility.yul\":3454:3460   */\n      dup5\n        /* \"#utility.yul\":3416:3481   */\n      tag_235\n      jump\t// in\n    tag_309:\n        /* \"#utility.yul\":3278:3488   */\n      swap3\n      swap2\n      pop\n      pop\n      jump\t// out\n        /* \"#utility.yul\":3494:3612   */\n    tag_236:\n        /* \"#utility.yul\":3581:3605   */\n      tag_311\n        /* \"#utility.yul\":3599:3604   */\n      dup2\n        /* \"#utility.yul\":3581:3605   */\n      tag_231\n      jump\t// in\n    tag_311:\n        /* \"#utility.yul\":3576:3579   */\n      dup3\n        /* \"#utility.yul\":3569:3606   */\n      mstore\n        /* \"#utility.yul\":3494:3612   */\n      pop\n      pop\n      jump\t// out\n        /* \"#utility.yul\":3618:3840   */\n    tag_34:\n        /* \"#utility.yul\":3711:3715   */\n      0x00\n        /* \"#utility.yul\":3749:3751   */\n      0x20\n        /* \"#utility.yul\":3738:3747   */\n      dup3\n        /* \"#utility.yul\":3734:3752   */\n      add\n        /* \"#utility.yul\":3726:3752   */\n      swap1\n      pop\n        /* \"#utility.yul\":3762:3833   */\n      tag_313\n        /* \"#utility.yul\":3830:3831   */\n      0x00\n        /* \"#utility.yul\":3819:3828   */\n      dup4\n        /* \"#utility.yul\":3815:3832   */\n      add\n        /* \"#utility.yul\":3806:3812   */\n      dup5\n        /* \"#utility.yul\":3762:3833   */\n      tag_236\n      jump\t// in\n    tag_313:\n        /* \"#utility.yul\":3618:3840   */\n      swap3\n      swap2\n      pop\n      pop\n      jump\t// out\n        /* \"#utility.yul\":3846:4465   */\n    tag_37:\n        /* \"#utility.yul\":3923:3929   */\n      0x00\n        /* \"#utility.yul\":3931:3937   */\n      dup1\n        /* \"#utility.yul\":3939:3945   */\n      0x00\n        /* \"#utility.yul\":3988:3990   */\n      0x60\n        /* \"#utility.yul\":3976:3985   */\n      dup5\n        /* \"#utility.yul\":3967:3974   */\n      dup7\n        /* \"#utility.yul\":3963:3986   */\n      sub\n        /* \"#utility.yul\":3959:3991   */\n      slt\n        /* \"#utility.yul\":3956:4075   */\n      iszero\n      tag_315\n      jumpi\n        /* \"#utility.yul\":3994:4073   */\n      tag_316\n      tag_225\n      jump\t// in\n    tag_316:\n        /* \"#utility.yul\":3956:4075   */\n    tag_315:\n        /* \"#utility.yul\":4114:4115   */\n      0x00\n        /* \"#utility.yul\":4139:4192   */\n      tag_317\n        /* \"#utility.yul\":4184:4191   */\n      dup7\n        /* \"#utility.yul\":4175:4181   */\n      dup3\n        /* \"#utility.yul\":4164:4173   */\n      dup8\n        /* \"#utility.yul\":4160:4182   */\n      add\n        /* \"#utility.yul\":4139:4192   */\n      tag_230\n      jump\t// in\n    tag_317:\n        /* \"#utility.yul\":4129:4192   */\n      swap4\n      pop\n        /* \"#utility.yul\":4085:4202   */\n      pop\n        /* \"#utility.yul\":4241:4243   */\n      0x20\n        /* \"#utility.yul\":4267:4320   */\n      tag_318\n        /* \"#utility.yul\":4312:4319   */\n      dup7\n        /* \"#utility.yul\":4303:4309   */\n      dup3\n        /* \"#utility.yul\":4292:4301   */\n      dup8\n        /* \"#utility.yul\":4288:4310   */\n      add\n        /* \"#utility.yul\":4267:4320   */\n      tag_230\n      jump\t// in\n    tag_318:\n        /* \"#utility.yul\":4257:4320   */\n      swap3\n      pop\n        /* \"#utility.yul\":4212:4330   */\n      pop\n        /* \"#utility.yul\":4369:4371   */\n      0x40\n        /* \"#utility.yul\":4395:4448   */\n      tag_319\n        /* \"#utility.yul\":4440:4447   */\n      dup7\n        /* \"#utility.yul\":4431:4437   */\n      dup3\n        /* \"#utility.yul\":4420:4429   */\n      dup8\n        /* \"#utility.yul\":4416:4438   */\n      add\n        /* \"#utility.yul\":4395:4448   */\n      tag_233\n      jump\t// in\n    tag_319:\n        /* \"#utility.yul\":4385:4448   */\n      swap2\n      pop\n        /* \"#utility.yul\":4340:4458   */\n      pop\n        /* \"#utility.yul\":3846:4465   */\n      swap3\n      pop\n      swap3\n      pop\n      swap3\n      jump\t// out\n        /* \"#utility.yul\":4471:4557   */\n    tag_237:\n        /* \"#utility.yul\":4506:4513   */\n      0x00\n        /* \"#utility.yul\":4546:4550   */\n      0xff\n        /* \"#utility.yul\":4539:4544   */\n      dup3\n        /* \"#utility.yul\":4535:4551   */\n      and\n        /* \"#utility.yul\":4524:4551   */\n      swap1\n      pop\n        /* \"#utility.yul\":4471:4557   */\n      swap2\n      swap1\n      pop\n      jump\t// out\n        /* \"#utility.yul\":4563:4675   */\n    tag_238:\n        /* \"#utility.yul\":4646:4668   */\n      tag_322\n        /* \"#utility.yul\":4662:4667   */\n      dup2\n        /* \"#utility.yul\":4646:4668   */\n      tag_237\n      jump\t// in\n    tag_322:\n        /* \"#utility.yul\":4641:4644   */\n      dup3\n        /* \"#utility.yul\":4634:4669   */\n      mstore\n        /* \"#utility.yul\":4563:4675   */\n      pop\n      pop\n      jump\t// out\n        /* \"#utility.yul\":4681:4895   */\n    tag_43:\n        /* \"#utility.yul\":4770:4774   */\n      0x00\n        /* \"#utility.yul\":4808:4810   */\n      0x20\n        /* \"#utility.yul\":4797:4806   */\n      dup3\n        /* \"#utility.yul\":4793:4811   */\n      add\n        /* \"#utility.yul\":4785:4811   */\n      swap1\n      pop\n        /* \"#utility.yul\":4821:4888   */\n      tag_324\n        /* \"#utility.yul\":4885:4886   */\n      0x00\n        /* \"#utility.yul\":4874:4883   */\n      dup4\n        /* \"#utility.yul\":4870:4887   */\n      add\n        /* \"#utility.yul\":4861:4867   */\n      dup5\n        /* \"#utility.yul\":4821:4888   */\n      tag_238\n      jump\t// in\n    tag_324:\n        /* \"#utility.yul\":4681:4895   */\n      swap3\n      swap2\n      pop\n      pop\n      jump\t// out\n        /* \"#utility.yul\":4901:5666   */\n    tag_50:\n        /* \"#utility.yul\":4987:4993   */\n      0x00\n        /* \"#utility.yul\":4995:5001   */\n      dup1\n        /* \"#utility.yul\":5003:5009   */\n      0x00\n        /* \"#utility.yul\":5011:5017   */\n      dup1\n        /* \"#utility.yul\":5060:5063   */\n      0x80\n        /* \"#utility.yul\":5048:5057   */\n      dup6\n        /* \"#utility.yul\":5039:5046   */\n      dup8\n        /* \"#utility.yul\":5035:5058   */\n      sub\n        /* \"#utility.yul\":5031:5064   */\n      slt\n        /* \"#utility.yul\":5028:5148   */\n      iszero\n      tag_326\n      jumpi\n        /* \"#utility.yul\":5067:5146   */\n      tag_327\n      tag_225\n      jump\t// in\n    tag_327:\n        /* \"#utility.yul\":5028:5148   */\n    tag_326:\n        /* \"#utility.yul\":5187:5188   */\n      0x00\n        /* \"#utility.yul\":5212:5265   */\n      tag_328\n        /* \"#utility.yul\":5257:5264   */\n      dup8\n        /* \"#utility.yul\":5248:5254   */\n      dup3\n        /* \"#utility.yul\":5237:5246   */\n      dup9\n        /* \"#utility.yul\":5233:5255   */\n      add\n        /* \"#utility.yul\":5212:5265   */\n      tag_230\n      jump\t// in\n    tag_328:\n        /* \"#utility.yul\":5202:5265   */\n      swap5\n      pop\n        /* \"#utility.yul\":5158:5275   */\n      pop\n        /* \"#utility.yul\":5314:5316   */\n      0x20\n        /* \"#utility.yul\":5340:5393   */\n      tag_329\n        /* \"#utility.yul\":5385:5392   */\n      dup8\n        /* \"#utility.yul\":5376:5382   */\n      dup3\n        /* \"#utility.yul\":5365:5374   */\n      dup9\n        /* \"#utility.yul\":5361:5383   */\n      add\n        /* \"#utility.yul\":5340:5393   */\n      tag_233\n      jump\t// in\n    tag_329:\n        /* \"#utility.yul\":5330:5393   */\n      swap4\n      pop\n        /* \"#utility.yul\":5285:5403   */\n      pop\n        /* \"#utility.yul\":5442:5444   */\n      0x40\n        /* \"#utility.yul\":5468:5521   */\n      tag_330\n        /* \"#utility.yul\":5513:5520   */\n      dup8\n        /* \"#utility.yul\":5504:5510   */\n      dup3\n        /* \"#utility.yul\":5493:5502   */\n      dup9\n        /* \"#utility.yul\":5489:5511   */\n      add\n        /* \"#utility.yul\":5468:5521   */\n      tag_233\n      jump\t// in\n    tag_330:\n        /* \"#utility.yul\":5458:5521   */\n      swap3\n      pop\n        /* \"#utility.yul\":5413:5531   */\n      pop\n        /* \"#utility.yul\":5570:5572   */\n      0x60\n        /* \"#utility.yul\":5596:5649   */\n      tag_331\n        /* \"#utility.yul\":5641:5648   */\n      dup8\n        /* \"#utility.yul\":5632:5638   */\n      dup3\n        /* \"#utility.yul\":5621:5630   */\n      dup9\n        /* \"#utility.yul\":5617:5639   */\n      add\n        /* \"#utility.yul\":5596:5649   */\n      tag_230\n      jump\t// in\n    tag_331:\n        /* \"#utility.yul\":5586:5649   */\n      swap2\n      pop\n        /* \"#utility.yul\":5541:5659   */\n      pop\n        /* \"#utility.yul\":4901:5666   */\n      swap3\n      swap6\n      swap2\n      swap5\n      pop\n      swap3\n      pop\n      jump\t// out\n        /* \"#utility.yul\":5672:6001   */\n    tag_58:\n        /* \"#utility.yul\":5731:5737   */\n      0x00\n        /* \"#utility.yul\":5780:5782   */\n      0x20\n        /* \"#utility.yul\":5768:5777   */\n      dup3\n        /* \"#utility.yul\":5759:5766   */\n      dup5\n        /* \"#utility.yul\":5755:5778   */\n      sub\n        /* \"#utility.yul\":5751:5783   */\n      slt\n        /* \"#utility.yul\":5748:5867   */\n      iszero\n      tag_333\n      jumpi\n        /* \"#utility.yul\":5786:5865   */\n      tag_334\n      tag_225\n      jump\t// in\n    tag_334:\n        /* \"#utility.yul\":5748:5867   */\n    tag_333:\n        /* \"#utility.yul\":5906:5907   */\n      0x00\n        /* \"#utility.yul\":5931:5984   */\n      tag_335\n        /* \"#utility.yul\":5976:5983   */\n      dup5\n        /* \"#utility.yul\":5967:5973   */\n      dup3\n        /* \"#utility.yul\":5956:5965   */\n      dup6\n        /* \"#utility.yul\":5952:5974   */\n      add\n        /* \"#utility.yul\":5931:5984   */\n      tag_233\n      jump\t// in\n    tag_335:\n        /* \"#utility.yul\":5921:5984   */\n      swap2\n      pop\n        /* \"#utility.yul\":5877:5994   */\n      pop\n        /* \"#utility.yul\":5672:6001   */\n      swap3\n      swap2\n      pop\n      pop\n      jump\t// out\n        /* \"#utility.yul\":6007:6336   */\n    tag_62:\n        /* \"#utility.yul\":6066:6072   */\n      0x00\n        /* \"#utility.yul\":6115:6117   */\n      0x20\n        /* \"#utility.yul\":6103:6112   */\n      dup3\n        /* \"#utility.yul\":6094:6101   */\n      dup5\n        /* \"#utility.yul\":6090:6113   */\n      sub\n        /* \"#utility.yul\":6086:6118   */\n      slt\n        /* \"#utility.yul\":6083:6202   */\n      iszero\n      tag_337\n      jumpi\n        /* \"#utility.yul\":6121:6200   */\n      tag_338\n      tag_225\n      jump\t// in\n    tag_338:\n        /* \"#utility.yul\":6083:6202   */\n    tag_337:\n        /* \"#utility.yul\":6241:6242   */\n      0x00\n        /* \"#utility.yul\":6266:6319   */\n      tag_339\n        /* \"#utility.yul\":6311:6318   */\n      dup5\n        /* \"#utility.yul\":6302:6308   */\n      dup3\n        /* \"#utility.yul\":6291:6300   */\n      dup6\n        /* \"#utility.yul\":6287:6309   */\n      add\n        /* \"#utility.yul\":6266:6319   */\n      tag_230\n      jump\t// in\n    tag_339:\n        /* \"#utility.yul\":6256:6319   */\n      swap2\n      pop\n        /* \"#utility.yul\":6212:6329   */\n      pop\n        /* \"#utility.yul\":6007:6336   */\n      swap3\n      swap2\n      pop\n      pop\n      jump\t// out\n        /* \"#utility.yul\":6342:6961   */\n    tag_78:\n        /* \"#utility.yul\":6419:6425   */\n      0x00\n        /* \"#utility.yul\":6427:6433   */\n      dup1\n        /* \"#utility.yul\":6435:6441   */\n      0x00\n        /* \"#utility.yul\":6484:6486   */\n      0x60\n        /* \"#utility.yul\":6472:6481   */\n      dup5\n        /* \"#utility.yul\":6463:6470   */\n      dup7\n        /* \"#utility.yul\":6459:6482   */\n      sub\n        /* \"#utility.yul\":6455:6487   */\n      slt\n        /* \"#utility.yul\":6452:6571   */\n      iszero\n      tag_341\n      jumpi\n        /* \"#utility.yul\":6490:6569   */\n      tag_342\n      tag_225\n      jump\t// in\n    tag_342:\n        /* \"#utility.yul\":6452:6571   */\n    tag_341:\n        /* \"#utility.yul\":6610:6611   */\n      0x00\n        /* \"#utility.yul\":6635:6688   */\n      tag_343\n        /* \"#utility.yul\":6680:6687   */\n      dup7\n        /* \"#utility.yul\":6671:6677   */\n      dup3\n        /* \"#utility.yul\":6660:6669   */\n      dup8\n        /* \"#utility.yul\":6656:6678   */\n      add\n        /* \"#utility.yul\":6635:6688   */\n      tag_230\n      jump\t// in\n    tag_343:\n        /* \"#utility.yul\":6625:6688   */\n      swap4\n      pop\n        /* \"#utility.yul\":6581:6698   */\n      pop\n        /* \"#utility.yul\":6737:6739   */\n      0x20\n        /* \"#utility.yul\":6763:6816   */\n      tag_344\n        /* \"#utility.yul\":6808:6815   */\n      dup7\n        /* \"#utility.yul\":6799:6805   */\n      dup3\n        /* \"#utility.yul\":6788:6797   */\n      dup8\n        /* \"#utility.yul\":6784:6806   */\n      add\n        /* \"#utility.yul\":6763:6816   */\n      tag_233\n      jump\t// in\n    tag_344:\n        /* \"#utility.yul\":6753:6816   */\n      swap3\n      pop\n        /* \"#utility.yul\":6708:6826   */\n      pop\n        /* \"#utility.yul\":6865:6867   */\n      0x40\n        /* \"#utility.yul\":6891:6944   */\n      tag_345\n        /* \"#utility.yul\":6936:6943   */\n      dup7\n        /* \"#utility.yul\":6927:6933   */\n      dup3\n        /* \"#utility.yul\":6916:6925   */\n      dup8\n        /* \"#utility.yul\":6912:6934   */\n      add\n        /* \"#utility.yul\":6891:6944   */\n      tag_233\n      jump\t// in\n    tag_345:\n        /* \"#utility.yul\":6881:6944   */\n      swap2\n      pop\n        /* \"#utility.yul\":6836:6954   */\n      pop\n        /* \"#utility.yul\":6342:6961   */\n      swap3\n      pop\n      swap3\n      pop\n      swap3\n      jump\t// out\n        /* \"#utility.yul\":6967:7441   */\n    tag_83:\n        /* \"#utility.yul\":7035:7041   */\n      0x00\n        /* \"#utility.yul\":7043:7049   */\n      dup1\n        /* \"#utility.yul\":7092:7094   */\n      0x40\n        /* \"#utility.yul\":7080:7089   */\n      dup4\n        /* \"#utility.yul\":7071:7078   */\n      dup6\n        /* \"#utility.yul\":7067:7090   */\n      sub\n        /* \"#utility.yul\":7063:7095   */\n      slt\n        /* \"#utility.yul\":7060:7179   */\n      iszero\n      tag_347\n      jumpi\n        /* \"#utility.yul\":7098:7177   */\n      tag_348\n      tag_225\n      jump\t// in\n    tag_348:\n        /* \"#utility.yul\":7060:7179   */\n    tag_347:\n        /* \"#utility.yul\":7218:7219   */\n      0x00\n        /* \"#utility.yul\":7243:7296   */\n      tag_349\n        /* \"#utility.yul\":7288:7295   */\n      dup6\n        /* \"#utility.yul\":7279:7285   */\n      dup3\n        /* \"#utility.yul\":7268:7277   */\n      dup7\n        /* \"#utility.yul\":7264:7286   */\n      add\n        /* \"#utility.yul\":7243:7296   */\n      tag_230\n      jump\t// in\n    tag_349:\n        /* \"#utility.yul\":7233:7296   */\n      swap3\n      pop\n        /* \"#utility.yul\":7189:7306   */\n      pop\n        /* \"#utility.yul\":7345:7347   */\n      0x20\n        /* \"#utility.yul\":7371:7424   */\n      tag_350\n        /* \"#utility.yul\":7416:7423   */\n      dup6\n        /* \"#utility.yul\":7407:7413   */\n      dup3\n        /* \"#utility.yul\":7396:7405   */\n      dup7\n        /* \"#utility.yul\":7392:7414   */\n      add\n        /* \"#utility.yul\":7371:7424   */\n      tag_230\n      jump\t// in\n    tag_350:\n        /* \"#utility.yul\":7361:7424   */\n      swap2\n      pop\n        /* \"#utility.yul\":7316:7434   */\n      pop\n        /* \"#utility.yul\":6967:7441   */\n      swap3\n      pop\n      swap3\n      swap1\n      pop\n      jump\t// out\n        /* \"#utility.yul\":7447:7627   */\n    tag_239:\n        /* \"#utility.yul\":7495:7572   */\n      0x4e487b7100000000000000000000000000000000000000000000000000000000\n        /* \"#utility.yul\":7492:7493   */\n      0x00\n        /* \"#utility.yul\":7485:7573   */\n      mstore\n        /* \"#utility.yul\":7592:7596   */\n      0x11\n        /* \"#utility.yul\":7589:7590   */\n      0x04\n        /* \"#utility.yul\":7582:7597   */\n      mstore\n        /* \"#utility.yul\":7616:7620   */\n      0x24\n        /* \"#utility.yul\":7613:7614   */\n      0x00\n        /* \"#utility.yul\":7606:7621   */\n      revert\n        /* \"#utility.yul\":7633:7938   */\n    tag_109:\n        /* \"#utility.yul\":7673:7676   */\n      0x00\n        /* \"#utility.yul\":7692:7712   */\n      tag_353\n        /* \"#utility.yul\":7710:7711   */\n      dup3\n        /* \"#utility.yul\":7692:7712   */\n      tag_231\n      jump\t// in\n    tag_353:\n        /* \"#utility.yul\":7687:7712   */\n      swap2\n      pop\n        /* \"#utility.yul\":7726:7746   */\n      tag_354\n        /* \"#utility.yul\":7744:7745   */\n      dup4\n        /* \"#utility.yul\":7726:7746   */\n      tag_231\n      jump\t// in\n    tag_354:\n        /* \"#utility.yul\":7721:7746   */\n      swap3\n      pop\n        /* \"#utility.yul\":7880:7881   */\n      dup3\n        /* \"#utility.yul\":7812:7878   */\n      0xffffffffffffffffffffffffffffffffffffffffffffffffffffffffffffffff\n        /* \"#utility.yul\":7808:7882   */\n      sub\n        /* \"#utility.yul\":7805:7806   */\n      dup3\n        /* \"#utility.yul\":7802:7883   */\n      gt\n        /* \"#utility.yul\":7799:7906   */\n      iszero\n      tag_355\n      jumpi\n        /* \"#utility.yul\":7886:7904   */\n      tag_356\n      tag_239\n      jump\t// in\n    tag_356:\n        /* \"#utility.yul\":7799:7906   */\n    tag_355:\n        /* \"#utility.yul\":7930:7931   */\n      dup3\n        /* \"#utility.yul\":7927:7928   */\n      dup3\n        /* \"#utility.yul\":7923:7932   */\n      add\n        /* \"#utility.yul\":7916:7932   */\n      swap1\n      pop\n        /* \"#utility.yul\":7633:7938   */\n      swap3\n      swap2\n      pop\n      pop\n      jump\t// out\n        /* \"#utility.yul\":7944:8167   */\n    tag_240:\n        /* \"#utility.yul\":8084:8118   */\n      0x46656520616d6f756e74206d7573742062652067726561746572207468616e20\n        /* \"#utility.yul\":8080:8081   */\n      0x00\n        /* \"#utility.yul\":8072:8078   */\n      dup3\n        /* \"#utility.yul\":8068:8082   */\n      add\n        /* \"#utility.yul\":8061:8119   */\n      mstore\n        /* \"#utility.yul\":8153:8159   */\n      0x7a65726f00000000000000000000000000000000000000000000000000000000\n        /* \"#utility.yul\":8148:8150   */\n      0x20\n        /* \"#utility.yul\":8140:8146   */\n      dup3\n        /* \"#utility.yul\":8136:8151   */\n      add\n        /* \"#utility.yul\":8129:8160   */\n      mstore\n        /* \"#utility.yul\":7944:8167   */\n      pop\n      jump\t// out\n        /* \"#utility.yul\":8173:8539   */\n    tag_241:\n        /* \"#utility.yul\":8315:8318   */\n      0x00\n        /* \"#utility.yul\":8336:8403   */\n      tag_359\n        /* \"#utility.yul\":8400:8402   */\n      0x24\n        /* \"#utility.yul\":8395:8398   */\n      dup4\n        /* \"#utility.yul\":8336:8403   */\n      tag_220\n      jump\t// in\n    tag_359:\n        /* \"#utility.yul\":8329:8403   */\n      swap2\n      pop\n        /* \"#utility.yul\":8412:8505   */\n      tag_360\n        /* \"#utility.yul\":8501:8504   */\n      dup3\n        /* \"#utility.yul\":8412:8505   */\n      tag_240\n      jump\t// in\n    tag_360:\n        /* \"#utility.yul\":8530:8532   */\n      0x40\n        /* \"#utility.yul\":8525:8528   */\n      dup3\n        /* \"#utility.yul\":8521:8533   */\n      add\n        /* \"#utility.yul\":8514:8533   */\n      swap1\n      pop\n        /* \"#utility.yul\":8173:8539   */\n      swap2\n      swap1\n      pop\n      jump\t// out\n        /* \"#utility.yul\":8545:8964   */\n    tag_113:\n        /* \"#utility.yul\":8711:8715   */\n      0x00\n        /* \"#utility.yul\":8749:8751   */\n      0x20\n        /* \"#utility.yul\":8738:8747   */\n      dup3\n        /* \"#utility.yul\":8734:8752   */\n      add\n        /* \"#utility.yul\":8726:8752   */\n      swap1\n      pop\n        /* \"#utility.yul\":8798:8807   */\n      dup2\n        /* \"#utility.yul\":8792:8796   */\n      dup2\n        /* \"#utility.yul\":8788:8808   */\n      sub\n        /* \"#utility.yul\":8784:8785   */\n      0x00\n        /* \"#utility.yul\":8773:8782   */\n      dup4\n        /* \"#utility.yul\":8769:8786   */\n      add\n        /* \"#utility.yul\":8762:8809   */\n      mstore\n        /* \"#utility.yul\":8826:8957   */\n      tag_362\n        /* \"#utility.yul\":8952:8956   */\n      dup2\n        /* \"#utility.yul\":8826:8957   */\n      tag_241\n      jump\t// in\n    tag_362:\n        /* \"#utility.yul\":8818:8957   */\n      swap1\n      pop\n        /* \"#utility.yul\":8545:8964   */\n      swap2\n      swap1\n      pop\n      jump\t// out\n        /* \"#utility.yul\":8970:9194   */\n    tag_242:\n        /* \"#utility.yul\":9110:9144   */\n      0x45524332303a2064656372656173656420616c6c6f77616e63652062656c6f77\n        /* \"#utility.yul\":9106:9107   */\n      0x00\n        /* \"#utility.yul\":9098:9104   */\n      dup3\n        /* \"#utility.yul\":9094:9108   */\n      add\n        /* \"#utility.yul\":9087:9145   */\n      mstore\n        /* \"#utility.yul\":9179:9186   */\n      0x207a65726f000000000000000000000000000000000000000000000000000000\n        /* \"#utility.yul\":9174:9176   */\n      0x20\n        /* \"#utility.yul\":9166:9172   */\n      dup3\n        /* \"#utility.yul\":9162:9177   */\n      add\n        /* \"#utility.yul\":9155:9187   */\n      mstore\n        /* \"#utility.yul\":8970:9194   */\n      pop\n      jump\t// out\n        /* \"#utility.yul\":9200:9566   */\n    tag_243:\n        /* \"#utility.yul\":9342:9345   */\n      0x00\n        /* \"#utility.yul\":9363:9430   */\n      tag_365\n        /* \"#utility.yul\":9427:9429   */\n      0x25\n        /* \"#utility.yul\":9422:9425   */\n      dup4\n        /* \"#utility.yul\":9363:9430   */\n      tag_220\n      jump\t// in\n    tag_365:\n        /* \"#utility.yul\":9356:9430   */\n      swap2\n      pop\n        /* \"#utility.yul\":9439:9532   */\n      tag_366\n        /* \"#utility.yul\":9528:9531   */\n      dup3\n        /* \"#utility.yul\":9439:9532   */\n      tag_242\n      jump\t// in\n    tag_366:\n        /* \"#utility.yul\":9557:9559   */\n      0x40\n        /* \"#utility.yul\":9552:9555   */\n      dup3\n        /* \"#utility.yul\":9548:9560   */\n      add\n        /* \"#utility.yul\":9541:9560   */\n      swap1\n      pop\n        /* \"#utility.yul\":9200:9566   */\n      swap2\n      swap1\n      pop\n      jump\t// out\n        /* \"#utility.yul\":9572:9991   */\n    tag_135:\n        /* \"#utility.yul\":9738:9742   */\n      0x00\n        /* \"#utility.yul\":9776:9778   */\n      0x20\n        /* \"#utility.yul\":9765:9774   */\n      dup3\n        /* \"#utility.yul\":9761:9779   */\n      add\n        /* \"#utility.yul\":9753:9779   */\n      swap1\n      pop\n        /* \"#utility.yul\":9825:9834   */\n      dup2\n        /* \"#utility.yul\":9819:9823   */\n      dup2\n        /* \"#utility.yul\":9815:9835   */\n      sub\n        /* \"#utility.yul\":9811:9812   */\n      0x00\n        /* \"#utility.yul\":9800:9809   */\n      dup4\n        /* \"#utility.yul\":9796:9813   */\n      add\n        /* \"#utility.yul\":9789:9836   */\n      mstore\n        /* \"#utility.yul\":9853:9984   */\n      tag_368\n        /* \"#utility.yul\":9979:9983   */\n      dup2\n        /* \"#utility.yul\":9853:9984   */\n      tag_243\n      jump\t// in\n    tag_368:\n        /* \"#utility.yul\":9845:9984   */\n      swap1\n      pop\n        /* \"#utility.yul\":9572:9991   */\n      swap2\n      swap1\n      pop\n      jump\t// out\n        /* \"#utility.yul\":9997:10221   */\n    tag_244:\n        /* \"#utility.yul\":10137:10171   */\n      0x4275726e20616d6f756e74206d7573742062652067726561746572207468616e\n        /* \"#utility.yul\":10133:10134   */\n      0x00\n        /* \"#utility.yul\":10125:10131   */\n      dup3\n        /* \"#utility.yul\":10121:10135   */\n      add\n        /* \"#utility.yul\":10114:10172   */\n      mstore\n        /* \"#utility.yul\":10206:10213   */\n      0x207a65726f000000000000000000000000000000000000000000000000000000\n        /* \"#utility.yul\":10201:10203   */\n      0x20\n        /* \"#utility.yul\":10193:10199   */\n      dup3\n        /* \"#utility.yul\":10189:10204   */\n      add\n        /* \"#utility.yul\":10182:10214   */\n      mstore\n        /* \"#utility.yul\":9997:10221   */\n      pop\n      jump\t// out\n        /* \"#utility.yul\":10227:10593   */\n    tag_245:\n        /* \"#utility.yul\":10369:10372   */\n      0x00\n        /* \"#utility.yul\":10390:10457   */\n      tag_371\n        /* \"#utility.yul\":10454:10456   */\n      0x25\n        /* \"#utility.yul\":10449:10452   */\n      dup4\n        /* \"#utility.yul\":10390:10457   */\n      tag_220\n      jump\t// in\n    tag_371:\n        /* \"#utility.yul\":10383:10457   */\n      swap2\n      pop\n        /* \"#utility.yul\":10466:10559   */\n      tag_372\n        /* \"#utility.yul\":10555:10558   */\n      dup3\n        /* \"#utility.yul\":10466:10559   */\n      tag_244\n      jump\t// in\n    tag_372:\n        /* \"#utility.yul\":10584:10586   */\n      0x40\n        /* \"#utility.yul\":10579:10582   */\n      dup3\n        /* \"#utility.yul\":10575:10587   */\n      add\n        /* \"#utility.yul\":10568:10587   */\n      swap1\n      pop\n        /* \"#utility.yul\":10227:10593   */\n      swap2\n      swap1\n      pop\n      jump\t// out\n        /* \"#utility.yul\":10599:11018   */\n    tag_143:\n        /* \"#utility.yul\":10765:10769   */\n      0x00\n        /* \"#utility.yul\":10803:10805   */\n      0x20\n        /* \"#utility.yul\":10792:10801   */\n      dup3\n        /* \"#utility.yul\":10788:10806   */\n      add\n        /* \"#utility.yul\":10780:10806   */\n      swap1\n      pop\n        /* \"#utility.yul\":10852:10861   */\n      dup2\n        /* \"#utility.yul\":10846:10850   */\n      dup2\n        /* \"#utility.yul\":10842:10862   */\n      sub\n        /* \"#utility.yul\":10838:10839   */\n      0x00\n        /* \"#utility.yul\":10827:10836   */\n      dup4\n        /* \"#utility.yul\":10823:10840   */\n      add\n        /* \"#utility.yul\":10816:10863   */\n      mstore\n        /* \"#utility.yul\":10880:11011   */\n      tag_374\n        /* \"#utility.yul\":11006:11010   */\n      dup2\n        /* \"#utility.yul\":10880:11011   */\n      tag_245\n      jump\t// in\n    tag_374:\n        /* \"#utility.yul\":10872:11011   */\n      swap1\n      pop\n        /* \"#utility.yul\":10599:11018   */\n      swap2\n      swap1\n      pop\n      jump\t// out\n        /* \"#utility.yul\":11024:11272   */\n    tag_246:\n        /* \"#utility.yul\":11164:11198   */\n      0x4275726e20616d6f756e74206d757374206265206c657373207468616e206f72\n        /* \"#utility.yul\":11160:11161   */\n      0x00\n        /* \"#utility.yul\":11152:11158   */\n      dup3\n        /* \"#utility.yul\":11148:11162   */\n      add\n        /* \"#utility.yul\":11141:11199   */\n      mstore\n        /* \"#utility.yul\":11233:11264   */\n      0x20657175616c20746f20746865207472616e7366657220616d6f756e74000000\n        /* \"#utility.yul\":11228:11230   */\n      0x20\n        /* \"#utility.yul\":11220:11226   */\n      dup3\n        /* \"#utility.yul\":11216:11231   */\n      add\n        /* \"#utility.yul\":11209:11265   */\n      mstore\n        /* \"#utility.yul\":11024:11272   */\n      pop\n      jump\t// out\n        /* \"#utility.yul\":11278:11644   */\n    tag_247:\n        /* \"#utility.yul\":11420:11423   */\n      0x00\n        /* \"#utility.yul\":11441:11508   */\n      tag_377\n        /* \"#utility.yul\":11505:11507   */\n      0x3d\n        /* \"#utility.yul\":11500:11503   */\n      dup4\n        /* \"#utility.yul\":11441:11508   */\n      tag_220\n      jump\t// in\n    tag_377:\n        /* \"#utility.yul\":11434:11508   */\n      swap2\n      pop\n        /* \"#utility.yul\":11517:11610   */\n      tag_378\n        /* \"#utility.yul\":11606:11609   */\n      dup3\n        /* \"#utility.yul\":11517:11610   */\n      tag_246\n      jump\t// in\n    tag_378:\n        /* \"#utility.yul\":11635:11637   */\n      0x40\n        /* \"#utility.yul\":11630:11633   */\n      dup3\n        /* \"#utility.yul\":11626:11638   */\n      add\n        /* \"#utility.yul\":11619:11638   */\n      swap1\n      pop\n        /* \"#utility.yul\":11278:11644   */\n      swap2\n      swap1\n      pop\n      jump\t// out\n        /* \"#utility.yul\":11650:12069   */\n    tag_146:\n        /* \"#utility.yul\":11816:11820   */\n      0x00\n        /* \"#utility.yul\":11854:11856   */\n      0x20\n        /* \"#utility.yul\":11843:11852   */\n      dup3\n        /* \"#utility.yul\":11839:11857   */\n      add\n        /* \"#utility.yul\":11831:11857   */\n      swap1\n      pop\n        /* \"#utility.yul\":11903:11912   */\n      dup2\n        /* \"#utility.yul\":11897:11901   */\n      dup2\n        /* \"#utility.yul\":11893:11913   */\n      sub\n        /* \"#utility.yul\":11889:11890   */\n      0x00\n        /* \"#utility.yul\":11878:11887   */\n      dup4\n        /* \"#utility.yul\":11874:11891   */\n      add\n        /* \"#utility.yul\":11867:11914   */\n      mstore\n        /* \"#utility.yul\":11931:12062   */\n      tag_380\n        /* \"#utility.yul\":12057:12061   */\n      dup2\n        /* \"#utility.yul\":11931:12062   */\n      tag_247\n      jump\t// in\n    tag_380:\n        /* \"#utility.yul\":11923:12062   */\n      swap1\n      pop\n        /* \"#utility.yul\":11650:12069   */\n      swap2\n      swap1\n      pop\n      jump\t// out\n        /* \"#utility.yul\":12075:12266   */\n    tag_149:\n        /* \"#utility.yul\":12115:12119   */\n      0x00\n        /* \"#utility.yul\":12135:12155   */\n      tag_382\n        /* \"#utility.yul\":12153:12154   */\n      dup3\n        /* \"#utility.yul\":12135:12155   */\n      tag_231\n      jump\t// in\n    tag_382:\n        /* \"#utility.yul\":12130:12155   */\n      swap2\n      pop\n        /* \"#utility.yul\":12169:12189   */\n      tag_383\n        /* \"#utility.yul\":12187:12188   */\n      dup4\n        /* \"#utility.yul\":12169:12189   */\n      tag_231\n      jump\t// in\n    tag_383:\n        /* \"#utility.yul\":12164:12189   */\n      swap3\n      pop\n        /* \"#utility.yul\":12208:12209   */\n      dup3\n        /* \"#utility.yul\":12205:12206   */\n      dup3\n        /* \"#utility.yul\":12202:12210   */\n      lt\n        /* \"#utility.yul\":12199:12233   */\n      iszero\n      tag_384\n      jumpi\n        /* \"#utility.yul\":12213:12231   */\n      tag_385\n      tag_239\n      jump\t// in\n    tag_385:\n        /* \"#utility.yul\":12199:12233   */\n    tag_384:\n        /* \"#utility.yul\":12258:12259   */\n      dup3\n        /* \"#utility.yul\":12255:12256   */\n      dup3\n        /* \"#utility.yul\":12251:12260   */\n      sub\n        /* \"#utility.yul\":12243:12260   */\n      swap1\n      pop\n        /* \"#utility.yul\":12075:12266   */\n      swap3\n      swap2\n      pop\n      pop\n      jump\t// out\n        /* \"#utility.yul\":12272:12452   */\n    tag_248:\n        /* \"#utility.yul\":12320:12397   */\n      0x4e487b7100000000000000000000000000000000000000000000000000000000\n        /* \"#utility.yul\":12317:12318   */\n      0x00\n        /* \"#utility.yul\":12310:12398   */\n      mstore\n        /* \"#utility.yul\":12417:12421   */\n      0x22\n        /* \"#utility.yul\":12414:12415   */\n      0x04\n        /* \"#utility.yul\":12407:12422   */\n      mstore\n        /* \"#utility.yul\":12441:12445   */\n      0x24\n        /* \"#utility.yul\":12438:12439   */\n      0x00\n        /* \"#utility.yul\":12431:12446   */\n      revert\n        /* \"#utility.yul\":12458:12778   */\n    tag_155:\n        /* \"#utility.yul\":12502:12508   */\n      0x00\n        /* \"#utility.yul\":12539:12540   */\n      0x02\n        /* \"#utility.yul\":12533:12537   */\n      dup3\n        /* \"#utility.yul\":12529:12541   */\n      div\n        /* \"#utility.yul\":12519:12541   */\n      swap1\n      pop\n        /* \"#utility.yul\":12586:12587   */\n      0x01\n        /* \"#utility.yul\":12580:12584   */\n      dup3\n        /* \"#utility.yul\":12576:12588   */\n      and\n        /* \"#utility.yul\":12607:12625   */\n      dup1\n        /* \"#utility.yul\":12597:12678   */\n      tag_388\n      jumpi\n        /* \"#utility.yul\":12663:12667   */\n      0x7f\n        /* \"#utility.yul\":12655:12661   */\n      dup3\n        /* \"#utility.yul\":12651:12668   */\n      and\n        /* \"#utility.yul\":12641:12668   */\n      swap2\n      pop\n        /* \"#utility.yul\":12597:12678   */\n    tag_388:\n        /* \"#utility.yul\":12725:12727   */\n      0x20\n        /* \"#utility.yul\":12717:12723   */\n      dup3\n        /* \"#utility.yul\":12714:12728   */\n      lt\n        /* \"#utility.yul\":12694:12712   */\n      dup2\n        /* \"#utility.yul\":12691:12729   */\n      eq\n        /* \"#utility.yul\":12688:12772   */\n      iszero\n      tag_389\n      jumpi\n        /* \"#utility.yul\":12744:12762   */\n      tag_390\n      tag_248\n      jump\t// in\n    tag_390:\n        /* \"#utility.yul\":12688:12772   */\n    tag_389:\n        /* \"#utility.yul\":12509:12778   */\n      pop\n        /* \"#utility.yul\":12458:12778   */\n      swap2\n      swap1\n      pop\n      jump\t// out\n        /* \"#utility.yul\":12784:13007   */\n    tag_249:\n        /* \"#utility.yul\":12924:12958   */\n      0x45524332303a20617070726f76652066726f6d20746865207a65726f20616464\n        /* \"#utility.yul\":12920:12921   */\n      0x00\n        /* \"#utility.yul\":12912:12918   */\n      dup3\n        /* \"#utility.yul\":12908:12922   */\n      add\n        /* \"#utility.yul\":12901:12959   */\n      mstore\n        /* \"#utility.yul\":12993:12999   */\n      0x7265737300000000000000000000000000000000000000000000000000000000\n        /* \"#utility.yul\":12988:12990   */\n      0x20\n        /* \"#utility.yul\":12980:12986   */\n      dup3\n        /* \"#utility.yul\":12976:12991   */\n      add\n        /* \"#utility.yul\":12969:13000   */\n      mstore\n        /* \"#utility.yul\":12784:13007   */\n      pop\n      jump\t// out\n        /* \"#utility.yul\":13013:13379   */\n    tag_250:\n        /* \"#utility.yul\":13155:13158   */\n      0x00\n        /* \"#utility.yul\":13176:13243   */\n      tag_393\n        /* \"#utility.yul\":13240:13242   */\n      0x24\n        /* \"#utility.yul\":13235:13238   */\n      dup4\n        /* \"#utility.yul\":13176:13243   */\n      tag_220\n      jump\t// in\n    tag_393:\n        /* \"#utility.yul\":13169:13243   */\n      swap2\n      pop\n        /* \"#utility.yul\":13252:13345   */\n      tag_394\n        /* \"#utility.yul\":13341:13344   */\n      dup3\n        /* \"#utility.yul\":13252:13345   */\n      tag_249\n      jump\t// in\n    tag_394:\n        /* \"#utility.yul\":13370:13372   */\n      0x40\n        /* \"#utility.yul\":13365:13368   */\n      dup3\n        /* \"#utility.yul\":13361:13373   */\n      add\n        /* \"#utility.yul\":13354:13373   */\n      swap1\n      pop\n        /* \"#utility.yul\":13013:13379   */\n      swap2\n      swap1\n      pop\n      jump\t// out\n        /* \"#utility.yul\":13385:13804   */\n    tag_164:\n        /* \"#utility.yul\":13551:13555   */\n      0x00\n        /* \"#utility.yul\":13589:13591   */\n      0x20\n        /* \"#utility.yul\":13578:13587   */\n      dup3\n        /* \"#utility.yul\":13574:13592   */\n      add\n        /* \"#utility.yul\":13566:13592   */\n      swap1\n      pop\n        /* \"#utility.yul\":13638:13647   */\n      dup2\n        /* \"#utility.yul\":13632:13636   */\n      dup2\n        /* \"#utility.yul\":13628:13648   */\n      sub\n        /* \"#utility.yul\":13624:13625   */\n      0x00\n        /* \"#utility.yul\":13613:13622   */\n      dup4\n        /* \"#utility.yul\":13609:13626   */\n      add\n        /* \"#utility.yul\":13602:13649   */\n      mstore\n        /* \"#utility.yul\":13666:13797   */\n      tag_396\n        /* \"#utility.yul\":13792:13796   */\n      dup2\n        /* \"#utility.yul\":13666:13797   */\n      tag_250\n      jump\t// in\n    tag_396:\n        /* \"#utility.yul\":13658:13797   */\n      swap1\n      pop\n        /* \"#utility.yul\":13385:13804   */\n      swap2\n      swap1\n      pop\n      jump\t// out\n        /* \"#utility.yul\":13810:14031   */\n    tag_251:\n        /* \"#utility.yul\":13950:13984   */\n      0x45524332303a20617070726f766520746f20746865207a65726f206164647265\n        /* \"#utility.yul\":13946:13947   */\n      0x00\n        /* \"#utility.yul\":13938:13944   */\n      dup3\n        /* \"#utility.yul\":13934:13948   */\n      add\n        /* \"#utility.yul\":13927:13985   */\n      mstore\n        /* \"#utility.yul\":14019:14023   */\n      0x7373000000000000000000000000000000000000000000000000000000000000\n        /* \"#utility.yul\":14014:14016   */\n      0x20\n        /* \"#utility.yul\":14006:14012   */\n      dup3\n        /* \"#utility.yul\":14002:14017   */\n      add\n        /* \"#utility.yul\":13995:14024   */\n      mstore\n        /* \"#utility.yul\":13810:14031   */\n      pop\n      jump\t// out\n        /* \"#utility.yul\":14037:14403   */\n    tag_252:\n        /* \"#utility.yul\":14179:14182   */\n      0x00\n        /* \"#utility.yul\":14200:14267   */\n      tag_399\n        /* \"#utility.yul\":14264:14266   */\n      0x22\n        /* \"#utility.yul\":14259:14262   */\n      dup4\n        /* \"#utility.yul\":14200:14267   */\n      tag_220\n      jump\t// in\n    tag_399:\n        /* \"#utility.yul\":14193:14267   */\n      swap2\n      pop\n        /* \"#utility.yul\":14276:14369   */\n      tag_400\n        /* \"#utility.yul\":14365:14368   */\n      dup3\n        /* \"#utility.yul\":14276:14369   */\n      tag_251\n      jump\t// in\n    tag_400:\n        /* \"#utility.yul\":14394:14396   */\n      0x40\n        /* \"#utility.yul\":14389:14392   */\n      dup3\n        /* \"#utility.yul\":14385:14397   */\n      add\n        /* \"#utility.yul\":14378:14397   */\n      swap1\n      pop\n        /* \"#utility.yul\":14037:14403   */\n      swap2\n      swap1\n      pop\n      jump\t// out\n        /* \"#utility.yul\":14409:14828   */\n    tag_167:\n        /* \"#utility.yul\":14575:14579   */\n      0x00\n        /* \"#utility.yul\":14613:14615   */\n      0x20\n        /* \"#utility.yul\":14602:14611   */\n      dup3\n        /* \"#utility.yul\":14598:14616   */\n      add\n        /* \"#utility.yul\":14590:14616   */\n      swap1\n      pop\n        /* \"#utility.yul\":14662:14671   */\n      dup2\n        /* \"#utility.yul\":14656:14660   */\n      dup2\n        /* \"#utility.yul\":14652:14672   */\n      sub\n        /* \"#utility.yul\":14648:14649   */\n      0x00\n        /* \"#utility.yul\":14637:14646   */\n      dup4\n        /* \"#utility.yul\":14633:14650   */\n      add\n        /* \"#utility.yul\":14626:14673   */\n      mstore\n        /* \"#utility.yul\":14690:14821   */\n      tag_402\n        /* \"#utility.yul\":14816:14820   */\n      dup2\n        /* \"#utility.yul\":14690:14821   */\n      tag_252\n      jump\t// in\n    tag_402:\n        /* \"#utility.yul\":14682:14821   */\n      swap1\n      pop\n        /* \"#utility.yul\":14409:14828   */\n      swap2\n      swap1\n      pop\n      jump\t// out\n        /* \"#utility.yul\":14834:15013   */\n    tag_253:\n        /* \"#utility.yul\":14974:15005   */\n      0x45524332303a20696e73756666696369656e7420616c6c6f77616e6365000000\n        /* \"#utility.yul\":14970:14971   */\n      0x00\n        /* \"#utility.yul\":14962:14968   */\n      dup3\n        /* \"#utility.yul\":14958:14972   */\n      add\n        /* \"#utility.yul\":14951:15006   */\n      mstore\n        /* \"#utility.yul\":14834:15013   */\n      pop\n      jump\t// out\n        /* \"#utility.yul\":15019:15385   */\n    tag_254:\n        /* \"#utility.yul\":15161:15164   */\n      0x00\n        /* \"#utility.yul\":15182:15249   */\n      tag_405\n        /* \"#utility.yul\":15246:15248   */\n      0x1d\n        /* \"#utility.yul\":15241:15244   */\n      dup4\n        /* \"#utility.yul\":15182:15249   */\n      tag_220\n      jump\t// in\n    tag_405:\n        /* \"#utility.yul\":15175:15249   */\n      swap2\n      pop\n        /* \"#utility.yul\":15258:15351   */\n      tag_406\n        /* \"#utility.yul\":15347:15350   */\n      dup3\n        /* \"#utility.yul\":15258:15351   */\n      tag_253\n      jump\t// in\n    tag_406:\n        /* \"#utility.yul\":15376:15378   */\n      0x20\n        /* \"#utility.yul\":15371:15374   */\n      dup3\n        /* \"#utility.yul\":15367:15379   */\n      add\n        /* \"#utility.yul\":15360:15379   */\n      swap1\n      pop\n        /* \"#utility.yul\":15019:15385   */\n      swap2\n      swap1\n      pop\n      jump\t// out\n        /* \"#utility.yul\":15391:15810   */\n    tag_175:\n        /* \"#utility.yul\":15557:15561   */\n      0x00\n        /* \"#utility.yul\":15595:15597   */\n      0x20\n        /* \"#utility.yul\":15584:15593   */\n      dup3\n        /* \"#utility.yul\":15580:15598   */\n      add\n        /* \"#utility.yul\":15572:15598   */\n      swap1\n      pop\n        /* \"#utility.yul\":15644:15653   */\n      dup2\n        /* \"#utility.yul\":15638:15642   */\n      dup2\n        /* \"#utility.yul\":15634:15654   */\n      sub\n        /* \"#utility.yul\":15630:15631   */\n      0x00\n        /* \"#utility.yul\":15619:15628   */\n      dup4\n        /* \"#utility.yul\":15615:15632   */\n      add\n        /* \"#utility.yul\":15608:15655   */\n      mstore\n        /* \"#utility.yul\":15672:15803   */\n      tag_408\n        /* \"#utility.yul\":15798:15802   */\n      dup2\n        /* \"#utility.yul\":15672:15803   */\n      tag_254\n      jump\t// in\n    tag_408:\n        /* \"#utility.yul\":15664:15803   */\n      swap1\n      pop\n        /* \"#utility.yul\":15391:15810   */\n      swap2\n      swap1\n      pop\n      jump\t// out\n        /* \"#utility.yul\":15816:16040   */\n    tag_255:\n        /* \"#utility.yul\":15956:15990   */\n      0x45524332303a207472616e736665722066726f6d20746865207a65726f206164\n        /* \"#utility.yul\":15952:15953   */\n      0x00\n        /* \"#utility.yul\":15944:15950   */\n      dup3\n        /* \"#utility.yul\":15940:15954   */\n      add\n        /* \"#utility.yul\":15933:15991   */\n      mstore\n        /* \"#utility.yul\":16025:16032   */\n      0x6472657373000000000000000000000000000000000000000000000000000000\n        /* \"#utility.yul\":16020:16022   */\n      0x20\n        /* \"#utility.yul\":16012:16018   */\n      dup3\n        /* \"#utility.yul\":16008:16023   */\n      add\n        /* \"#utility.yul\":16001:16033   */\n      mstore\n        /* \"#utility.yul\":15816:16040   */\n      pop\n      jump\t// out\n        /* \"#utility.yul\":16046:16412   */\n    tag_256:\n        /* \"#utility.yul\":16188:16191   */\n      0x00\n        /* \"#utility.yul\":16209:16276   */\n      tag_411\n        /* \"#utility.yul\":16273:16275   */\n      0x25\n        /* \"#utility.yul\":16268:16271   */\n      dup4\n        /* \"#utility.yul\":16209:16276   */\n      tag_220\n      jump\t// in\n    tag_411:\n        /* \"#utility.yul\":16202:16276   */\n      swap2\n      pop\n        /* \"#utility.yul\":16285:16378   */\n      tag_412\n        /* \"#utility.yul\":16374:16377   */\n      dup3\n        /* \"#utility.yul\":16285:16378   */\n      tag_255\n      jump\t// in\n    tag_412:\n        /* \"#utility.yul\":16403:16405   */\n      0x40\n        /* \"#utility.yul\":16398:16401   */\n      dup3\n        /* \"#utility.yul\":16394:16406   */\n      add\n        /* \"#utility.yul\":16387:16406   */\n      swap1\n      pop\n        /* \"#utility.yul\":16046:16412   */\n      swap2\n      swap1\n      pop\n      jump\t// out\n        /* \"#utility.yul\":16418:16837   */\n    tag_180:\n        /* \"#utility.yul\":16584:16588   */\n      0x00\n        /* \"#utility.yul\":16622:16624   */\n      0x20\n        /* \"#utility.yul\":16611:16620   */\n      dup3\n        /* \"#utility.yul\":16607:16625   */\n      add\n        /* \"#utility.yul\":16599:16625   */\n      swap1\n      pop\n        /* \"#utility.yul\":16671:16680   */\n      dup2\n        /* \"#utility.yul\":16665:16669   */\n      dup2\n        /* \"#utility.yul\":16661:16681   */\n      sub\n        /* \"#utility.yul\":16657:16658   */\n      0x00\n        /* \"#utility.yul\":16646:16655   */\n      dup4\n        /* \"#utility.yul\":16642:16659   */\n      add\n        /* \"#utility.yul\":16635:16682   */\n      mstore\n        /* \"#utility.yul\":16699:16830   */\n      tag_414\n        /* \"#utility.yul\":16825:16829   */\n      dup2\n        /* \"#utility.yul\":16699:16830   */\n      tag_256\n      jump\t// in\n    tag_414:\n        /* \"#utility.yul\":16691:16830   */\n      swap1\n      pop\n        /* \"#utility.yul\":16418:16837   */\n      swap2\n      swap1\n      pop\n      jump\t// out\n        /* \"#utility.yul\":16843:17065   */\n    tag_257:\n        /* \"#utility.yul\":16983:17017   */\n      0x45524332303a207472616e7366657220746f20746865207a65726f2061646472\n        /* \"#utility.yul\":16979:16980   */\n      0x00\n        /* \"#utility.yul\":16971:16977   */\n      dup3\n        /* \"#utility.yul\":16967:16981   */\n      add\n        /* \"#utility.yul\":16960:17018   */\n      mstore\n        /* \"#utility.yul\":17052:17057   */\n      0x6573730000000000000000000000000000000000000000000000000000000000\n        /* \"#utility.yul\":17047:17049   */\n      0x20\n        /* \"#utility.yul\":17039:17045   */\n      dup3\n        /* \"#utility.yul\":17035:17050   */\n      add\n        /* \"#utility.yul\":17028:17058   */\n      mstore\n        /* \"#utility.yul\":16843:17065   */\n      pop\n      jump\t// out\n        /* \"#utility.yul\":17071:17437   */\n    tag_258:\n        /* \"#utility.yul\":17213:17216   */\n      0x00\n        /* \"#utility.yul\":17234:17301   */\n      tag_417\n        /* \"#utility.yul\":17298:17300   */\n      0x23\n        /* \"#utility.yul\":17293:17296   */\n      dup4\n        /* \"#utility.yul\":17234:17301   */\n      tag_220\n      jump\t// in\n    tag_417:\n        /* \"#utility.yul\":17227:17301   */\n      swap2\n      pop\n        /* \"#utility.yul\":17310:17403   */\n      tag_418\n        /* \"#utility.yul\":17399:17402   */\n      dup3\n        /* \"#utility.yul\":17310:17403   */\n      tag_257\n      jump\t// in\n    tag_418:\n        /* \"#utility.yul\":17428:17430   */\n      0x40\n        /* \"#utility.yul\":17423:17426   */\n      dup3\n        /* \"#utility.yul\":17419:17431   */\n      add\n        /* \"#utility.yul\":17412:17431   */\n      swap1\n      pop\n        /* \"#utility.yul\":17071:17437   */\n      swap2\n      swap1\n      pop\n      jump\t// out\n        /* \"#utility.yul\":17443:17862   */\n    tag_183:\n        /* \"#utility.yul\":17609:17613   */\n      0x00\n        /* \"#utility.yul\":17647:17649   */\n      0x20\n        /* \"#utility.yul\":17636:17645   */\n      dup3\n        /* \"#utility.yul\":17632:17650   */\n      add\n        /* \"#utility.yul\":17624:17650   */\n      swap1\n      pop\n        /* \"#utility.yul\":17696:17705   */\n      dup2\n        /* \"#utility.yul\":17690:17694   */\n      dup2\n        /* \"#utility.yul\":17686:17706   */\n      sub\n        /* \"#utility.yul\":17682:17683   */\n      0x00\n        /* \"#utility.yul\":17671:17680   */\n      dup4\n        /* \"#utility.yul\":17667:17684   */\n      add\n        /* \"#utility.yul\":17660:17707   */\n      mstore\n        /* \"#utility.yul\":17724:17855   */\n      tag_420\n        /* \"#utility.yul\":17850:17854   */\n      dup2\n        /* \"#utility.yul\":17724:17855   */\n      tag_258\n      jump\t// in\n    tag_420:\n        /* \"#utility.yul\":17716:17855   */\n      swap1\n      pop\n        /* \"#utility.yul\":17443:17862   */\n      swap2\n      swap1\n      pop\n      jump\t// out\n        /* \"#utility.yul\":17868:18093   */\n    tag_259:\n        /* \"#utility.yul\":18008:18042   */\n      0x45524332303a207472616e7366657220616d6f756e7420657863656564732062\n        /* \"#utility.yul\":18004:18005   */\n      0x00\n        /* \"#utility.yul\":17996:18002   */\n      dup3\n        /* \"#utility.yul\":17992:18006   */\n      add\n        /* \"#utility.yul\":17985:18043   */\n      mstore\n        /* \"#utility.yul\":18077:18085   */\n      0x616c616e63650000000000000000000000000000000000000000000000000000\n        /* \"#utility.yul\":18072:18074   */\n      0x20\n        /* \"#utility.yul\":18064:18070   */\n      dup3\n        /* \"#utility.yul\":18060:18075   */\n      add\n        /* \"#utility.yul\":18053:18086   */\n      mstore\n        /* \"#utility.yul\":17868:18093   */\n      pop\n      jump\t// out\n        /* \"#utility.yul\":18099:18465   */\n    tag_260:\n        /* \"#utility.yul\":18241:18244   */\n      0x00\n        /* \"#utility.yul\":18262:18329   */\n      tag_423\n        /* \"#utility.yul\":18326:18328   */\n      0x26\n        /* \"#utility.yul\":18321:18324   */\n      dup4\n        /* \"#utility.yul\":18262:18329   */\n      tag_220\n      jump\t// in\n    tag_423:\n        /* \"#utility.yul\":18255:18329   */\n      swap2\n      pop\n        /* \"#utility.yul\":18338:18431   */\n      tag_424\n        /* \"#utility.yul\":18427:18430   */\n      dup3\n        /* \"#utility.yul\":18338:18431   */\n      tag_259\n      jump\t// in\n    tag_424:\n        /* \"#utility.yul\":18456:18458   */\n      0x40\n        /* \"#utility.yul\":18451:18454   */\n      dup3\n        /* \"#utility.yul\":18447:18459   */\n      add\n        /* \"#utility.yul\":18440:18459   */\n      swap1\n      pop\n        /* \"#utility.yul\":18099:18465   */\n      swap2\n      swap1\n      pop\n      jump\t// out\n        /* \"#utility.yul\":18471:18890   */\n    tag_188:\n        /* \"#utility.yul\":18637:18641   */\n      0x00\n        /* \"#utility.yul\":18675:18677   */\n      0x20\n        /* \"#utility.yul\":18664:18673   */\n      dup3\n        /* \"#utility.yul\":18660:18678   */\n      add\n        /* \"#utility.yul\":18652:18678   */\n      swap1\n      pop\n        /* \"#utility.yul\":18724:18733   */\n      dup2\n        /* \"#utility.yul\":18718:18722   */\n      dup2\n        /* \"#utility.yul\":18714:18734   */\n      sub\n        /* \"#utility.yul\":18710:18711   */\n      0x00\n        /* \"#utility.yul\":18699:18708   */\n      dup4\n        /* \"#utility.yul\":18695:18712   */\n      add\n        /* \"#utility.yul\":18688:18735   */\n      mstore\n        /* \"#utility.yul\":18752:18883   */\n      tag_426\n        /* \"#utility.yul\":18878:18882   */\n      dup2\n        /* \"#utility.yul\":18752:18883   */\n      tag_260\n      jump\t// in\n    tag_426:\n        /* \"#utility.yul\":18744:18883   */\n      swap1\n      pop\n        /* \"#utility.yul\":18471:18890   */\n      swap2\n      swap1\n      pop\n      jump\t// out\n        /* \"#utility.yul\":18896:19077   */\n    tag_261:\n        /* \"#utility.yul\":19036:19069   */\n      0x45524332303a206d696e7420746f20746865207a65726f206164647265737300\n        /* \"#utility.yul\":19032:19033   */\n      0x00\n        /* \"#utility.yul\":19024:19030   */\n      dup3\n        /* \"#utility.yul\":19020:19034   */\n      add\n        /* \"#utility.yul\":19013:19070   */\n      mstore\n        /* \"#utility.yul\":18896:19077   */\n      pop\n      jump\t// out\n        /* \"#utility.yul\":19083:19449   */\n    tag_262:\n        /* \"#utility.yul\":19225:19228   */\n      0x00\n        /* \"#utility.yul\":19246:19313   */\n      tag_429\n        /* \"#utility.yul\":19310:19312   */\n      0x1f\n        /* \"#utility.yul\":19305:19308   */\n      dup4\n        /* \"#utility.yul\":19246:19313   */\n      tag_220\n      jump\t// in\n    tag_429:\n        /* \"#utility.yul\":19239:19313   */\n      swap2\n      pop\n        /* \"#utility.yul\":19322:19415   */\n      tag_430\n        /* \"#utility.yul\":19411:19414   */\n      dup3\n        /* \"#utility.yul\":19322:19415   */\n      tag_261\n      jump\t// in\n    tag_430:\n        /* \"#utility.yul\":19440:19442   */\n      0x20\n        /* \"#utility.yul\":19435:19438   */\n      dup3\n        /* \"#utility.yul\":19431:19443   */\n      add\n        /* \"#utility.yul\":19424:19443   */\n      swap1\n      pop\n        /* \"#utility.yul\":19083:19449   */\n      swap2\n      swap1\n      pop\n      jump\t// out\n        /* \"#utility.yul\":19455:19874   */\n    tag_195:\n        /* \"#utility.yul\":19621:19625   */\n      0x00\n        /* \"#utility.yul\":19659:19661   */\n      0x20\n        /* \"#utility.yul\":19648:19657   */\n      dup3\n        /* \"#utility.yul\":19644:19662   */\n      add\n        /* \"#utility.yul\":19636:19662   */\n      swap1\n      pop\n        /* \"#utility.yul\":19708:19717   */\n      dup2\n        /* \"#utility.yul\":19702:19706   */\n      dup2\n        /* \"#utility.yul\":19698:19718   */\n      sub\n        /* \"#utility.yul\":19694:19695   */\n      0x00\n        /* \"#utility.yul\":19683:19692   */\n      dup4\n        /* \"#utility.yul\":19679:19696   */\n      add\n        /* \"#utility.yul\":19672:19719   */\n      mstore\n        /* \"#utility.yul\":19736:19867   */\n      tag_432\n        /* \"#utility.yul\":19862:19866   */\n      dup2\n        /* \"#utility.yul\":19736:19867   */\n      tag_262\n      jump\t// in\n    tag_432:\n        /* \"#utility.yul\":19728:19867   */\n      swap1\n      pop\n        /* \"#utility.yul\":19455:19874   */\n      swap2\n      swap1\n      pop\n      jump\t// out\n        /* \"#utility.yul\":19880:20100   */\n    tag_263:\n        /* \"#utility.yul\":20020:20054   */\n      0x45524332303a206275726e2066726f6d20746865207a65726f20616464726573\n        /* \"#utility.yul\":20016:20017   */\n      0x00\n        /* \"#utility.yul\":20008:20014   */\n      dup3\n        /* \"#utility.yul\":20004:20018   */\n      add\n        /* \"#utility.yul\":19997:20055   */\n      mstore\n        /* \"#utility.yul\":20089:20092   */\n      0x7300000000000000000000000000000000000000000000000000000000000000\n        /* \"#utility.yul\":20084:20086   */\n      0x20\n        /* \"#utility.yul\":20076:20082   */\n      dup3\n        /* \"#utility.yul\":20072:20087   */\n      add\n        /* \"#utility.yul\":20065:20093   */\n      mstore\n        /* \"#utility.yul\":19880:20100   */\n      pop\n      jump\t// out\n        /* \"#utility.yul\":20106:20472   */\n    tag_264:\n        /* \"#utility.yul\":20248:20251   */\n      0x00\n        /* \"#utility.yul\":20269:20336   */\n      tag_435\n        /* \"#utility.yul\":20333:20335   */\n      0x21\n        /* \"#utility.yul\":20328:20331   */\n      dup4\n        /* \"#utility.yul\":20269:20336   */\n      tag_220\n      jump\t// in\n    tag_435:\n        /* \"#utility.yul\":20262:20336   */\n      swap2\n      pop\n        /* \"#utility.yul\":20345:20438   */\n      tag_436\n        /* \"#utility.yul\":20434:20437   */\n      dup3\n        /* \"#utility.yul\":20345:20438   */\n      tag_263\n      jump\t// in\n    tag_436:\n        /* \"#utility.yul\":20463:20465   */\n      0x40\n        /* \"#utility.yul\":20458:20461   */\n      dup3\n        /* \"#utility.yul\":20454:20466   */\n      add\n        /* \"#utility.yul\":20447:20466   */\n      swap1\n      pop\n        /* \"#utility.yul\":20106:20472   */\n      swap2\n      swap1\n      pop\n      jump\t// out\n        /* \"#utility.yul\":20478:20897   */\n    tag_203:\n        /* \"#utility.yul\":20644:20648   */\n      0x00\n        /* \"#utility.yul\":20682:20684   */\n      0x20\n        /* \"#utility.yul\":20671:20680   */\n      dup3\n        /* \"#utility.yul\":20667:20685   */\n      add\n        /* \"#utility.yul\":20659:20685   */\n      swap1\n      pop\n        /* \"#utility.yul\":20731:20740   */\n      dup2\n        /* \"#utility.yul\":20725:20729   */\n      dup2\n        /* \"#utility.yul\":20721:20741   */\n      sub\n        /* \"#utility.yul\":20717:20718   */\n      0x00\n        /* \"#utility.yul\":20706:20715   */\n      dup4\n        /* \"#utility.yul\":20702:20719   */\n      add\n        /* \"#utility.yul\":20695:20742   */\n      mstore\n        /* \"#utility.yul\":20759:20890   */\n      tag_438\n        /* \"#utility.yul\":20885:20889   */\n      dup2\n        /* \"#utility.yul\":20759:20890   */\n      tag_264\n      jump\t// in\n    tag_438:\n        /* \"#utility.yul\":20751:20890   */\n      swap1\n      pop\n        /* \"#utility.yul\":20478:20897   */\n      swap2\n      swap1\n      pop\n      jump\t// out\n        /* \"#utility.yul\":20903:21124   */\n    tag_265:\n        /* \"#utility.yul\":21043:21077   */\n      0x45524332303a206275726e20616d6f756e7420657863656564732062616c616e\n        /* \"#utility.yul\":21039:21040   */\n      0x00\n        /* \"#utility.yul\":21031:21037   */\n      dup3\n        /* \"#utility.yul\":21027:21041   */\n      add\n        /* \"#utility.yul\":21020:21078   */\n      mstore\n        /* \"#utility.yul\":21112:21116   */\n      0x6365000000000000000000000000000000000000000000000000000000000000\n        /* \"#utility.yul\":21107:21109   */\n      0x20\n        /* \"#utility.yul\":21099:21105   */\n      dup3\n        /* \"#utility.yul\":21095:21110   */\n      add\n        /* \"#utility.yul\":21088:21117   */\n      mstore\n        /* \"#utility.yul\":20903:21124   */\n      pop\n      jump\t// out\n        /* \"#utility.yul\":21130:21496   */\n    tag_266:\n        /* \"#utility.yul\":21272:21275   */\n      0x00\n        /* \"#utility.yul\":21293:21360   */\n      tag_441\n        /* \"#utility.yul\":21357:21359   */\n      0x22\n        /* \"#utility.yul\":21352:21355   */\n      dup4\n        /* \"#utility.yul\":21293:21360   */\n      tag_220\n      jump\t// in\n    tag_441:\n        /* \"#utility.yul\":21286:21360   */\n      swap2\n      pop\n        /* \"#utility.yul\":21369:21462   */\n      tag_442\n        /* \"#utility.yul\":21458:21461   */\n      dup3\n        /* \"#utility.yul\":21369:21462   */\n      tag_265\n      jump\t// in\n    tag_442:\n        /* \"#utility.yul\":21487:21489   */\n      0x40\n        /* \"#utility.yul\":21482:21485   */\n      dup3\n        /* \"#utility.yul\":21478:21490   */\n      add\n        /* \"#utility.yul\":21471:21490   */\n      swap1\n      pop\n        /* \"#utility.yul\":21130:21496   */\n      swap2\n      swap1\n      pop\n      jump\t// out\n        /* \"#utility.yul\":21502:21921   */\n    tag_207:\n        /* \"#utility.yul\":21668:21672   */\n      0x00\n        /* \"#utility.yul\":21706:21708   */\n      0x20\n        /* \"#utility.yul\":21695:21704   */\n      dup3\n        /* \"#utility.yul\":21691:21709   */\n      add\n        /* \"#utility.yul\":21683:21709   */\n      swap1\n      pop\n        /* \"#utility.yul\":21755:21764   */\n      dup2\n        /* \"#utility.yul\":21749:21753   */\n      dup2\n        /* \"#utility.yul\":21745:21765   */\n      sub\n        /* \"#utility.yul\":21741:21742   */\n      0x00\n        /* \"#utility.yul\":21730:21739   */\n      dup4\n        /* \"#utility.yul\":21726:21743   */\n      add\n        /* \"#utility.yul\":21719:21766   */\n      mstore\n        /* \"#utility.yul\":21783:21914   */\n      tag_444\n        /* \"#utility.yul\":21909:21913   */\n      dup2\n        /* \"#utility.yul\":21783:21914   */\n      tag_266\n      jump\t// in\n    tag_444:\n        /* \"#utility.yul\":21775:21914   */\n      swap1\n      pop\n        /* \"#utility.yul\":21502:21921   */\n      swap2\n      swap1\n      pop\n      jump\t// out\n\n    auxdata: 0xa2646970667358221220afaca366dc354a1aceacf1b27afa057cae3d1d73cabb3722f3151d7b7b85a5d964736f6c63430008090033\n}\n",
				"bytecode": {
					"linkReferences": {},
					"object": "60806040523480156200001157600080fd5b50604051620020da380380620020da833981810160405281019062000037919062000369565b828282826003908051906020019062000052929190620000e1565b5081600490805190602001906200006b929190620000e1565b5080600281905550600062000085620000d960201b60201c565b90506002546000808373ffffffffffffffffffffffffffffffffffffffff1673ffffffffffffffffffffffffffffffffffffffff168152602001908152602001600020819055505050505050505062000468565b600033905090565b828054620000ef9062000432565b90600052602060002090601f0160209004810192826200011357600085556200015f565b82601f106200012e57805160ff19168380011785556200015f565b828001600101855582156200015f579182015b828111156200015e57825182559160200191906001019062000141565b5b5090506200016e919062000172565b5090565b5b808211156200018d57600081600090555060010162000173565b5090565b6000604051905090565b600080fd5b600080fd5b600080fd5b600080fd5b6000601f19601f8301169050919050565b7f4e487b7100000000000000000000000000000000000000000000000000000000600052604160045260246000fd5b620001fa82620001af565b810181811067ffffffffffffffff821117156200021c576200021b620001c0565b5b80604052505050565b60006200023162000191565b90506200023f8282620001ef565b919050565b600067ffffffffffffffff821115620002625762000261620001c0565b5b6200026d82620001af565b9050602081019050919050565b60005b838110156200029a5780820151818401526020810190506200027d565b83811115620002aa576000848401525b50505050565b6000620002c7620002c18462000244565b62000225565b905082815260208101848484011115620002e657620002e5620001aa565b5b620002f38482856200027a565b509392505050565b600082601f830112620003135762000312620001a5565b5b815162000325848260208601620002b0565b91505092915050565b6000819050919050565b62000343816200032e565b81146200034f57600080fd5b50565b600081519050620003638162000338565b92915050565b6000806000606084860312156200038557620003846200019b565b5b600084015167ffffffffffffffff811115620003a657620003a5620001a0565b5b620003b486828701620002fb565b935050602084015167ffffffffffffffff811115620003d857620003d7620001a0565b5b620003e686828701620002fb565b9250506040620003f98682870162000352565b9150509250925092565b7f4e487b7100000000000000000000000000000000000000000000000000000000600052602260045260246000fd5b600060028204905060018216806200044b57607f821691505b6020821081141562000462576200046162000403565b5b50919050565b611c6280620004786000396000f3fe608060405234801561001057600080fd5b50600436106100f55760003560e01c806340c10f1911610097578063a457c2d711610066578063a457c2d71461029a578063a9059cbb146102ca578063bb9c1ad9146102fa578063dd62ed3e1461032a576100f5565b806340c10f191461021457806342966c681461023057806370a082311461024c57806395d89b411461027c576100f5565b806323b872dd116100d357806323b872dd14610166578063313ce5671461019657806339509351146101b45780633f50a705146101e4576100f5565b806306fdde03146100fa578063095ea7b31461011857806318160ddd14610148575b600080fd5b61010261035a565b60405161010f91906110bb565b60405180910390f35b610132600480360381019061012d9190611176565b610369565b60405161013f91906111d1565b60405180910390f35b61015061038c565b60405161015d91906111fb565b60405180910390f35b610180600480360381019061017b9190611216565b61039b565b60405161018d91906111d1565b60405180910390f35b61019e6103ca565b6040516101ab9190611285565b60405180910390f35b6101ce60048036038101906101c99190611176565b6103d3565b6040516101db91906111d1565b60405180910390f35b6101fe60048036038101906101f991906112a0565b61040a565b60405161020b91906111d1565b60405180910390f35b61022e60048036038101906102299190611176565b61047d565b005b61024a60048036038101906102459190611307565b61048b565b005b61026660048036038101906102619190611334565b61049f565b60405161027391906111fb565b60405180910390f35b6102846104b1565b60405161029191906110bb565b60405180910390f35b6102b460048036038101906102af9190611176565b6104c0565b6040516102c191906111d1565b60405180910390f35b6102e460048036038101906102df9190611176565b610537565b6040516102f191906111d1565b60405180910390f35b610314600480360381019061030f9190611361565b61055a565b60405161032191906111d1565b60405180910390f35b610344600480360381019061033f91906113b4565b61061f565b60405161035191906111fb565b60405180910390f35b60606103646106a6565b905090565b600080610374610738565b9050610381818585610740565b600191505092915050565b600061039661090b565b905090565b6000806103a6610738565b90506103b3858285610915565b6103be8585856109a1565b60019150509392505050565b60006012905090565b6000806103de610738565b90506103ff8185856103f0858961061f565b6103fa9190611423565b610740565b600191505092915050565b600080831161044e576040517f08c379a0000000000000000000000000000000000000000000000000000000008152600401610445906114eb565b60405180910390fd5b6000610458610738565b90506104658184866109a1565b6104708187876109a1565b6001915050949350505050565b6104878282610c19565b5050565b61049c610496610738565b82610d70565b50565b60006104aa82610f3e565b9050919050565b60606104bb610f86565b905090565b6000806104cb610738565b905060006104d9828661061f565b90508381101561051e576040517f08c379a00000000000000000000000000000000000000000000000000000000081526004016105159061157d565b60405180910390fd5b61052b8286868403610740565b60019250505092915050565b600080610542610738565b905061054f8185856109a1565b600191505092915050565b600080821161059e576040517f08c379a00000000000000000000000000000000000000000000000000000000081526004016105959061160f565b60405180910390fd5b828211156105e1576040517f08c379a00000000000000000000000000000000000000000000000000000000081526004016105d8906116a1565b60405180910390fd5b60006105eb610738565b9050600083856105fb91906116c1565b90506106078285610d70565b6106128287836109a1565b6001925050509392505050565b6000600160008473ffffffffffffffffffffffffffffffffffffffff1673ffffffffffffffffffffffffffffffffffffffff16815260200190815260200160002060008373ffffffffffffffffffffffffffffffffffffffff1673ffffffffffffffffffffffffffffffffffffffff16815260200190815260200160002054905092915050565b6060600380546106b590611724565b80601f01602080910402602001604051908101604052809291908181526020018280546106e190611724565b801561072e5780601f106107035761010080835404028352916020019161072e565b820191906000526020600020905b81548152906001019060200180831161071157829003601f168201915b5050505050905090565b600033905090565b600073ffffffffffffffffffffffffffffffffffffffff168373ffffffffffffffffffffffffffffffffffffffff1614156107b0576040517f08c379a00000000000000000000000000000000000000000000000000000000081526004016107a7906117c8565b60405180910390fd5b600073ffffffffffffffffffffffffffffffffffffffff168273ffffffffffffffffffffffffffffffffffffffff161415610820576040517f08c379a00000000000000000000000000000000000000000000000000000000081526004016108179061185a565b60405180910390fd5b80600160008573ffffffffffffffffffffffffffffffffffffffff1673ffffffffffffffffffffffffffffffffffffffff16815260200190815260200160002060008473ffffffffffffffffffffffffffffffffffffffff1673ffffffffffffffffffffffffffffffffffffffff168152602001908152602001600020819055508173ffffffffffffffffffffffffffffffffffffffff168373ffffffffffffffffffffffffffffffffffffffff167f8c5be1e5ebec7d5bd14f71427d1e84f3dd0314c0f7b2291e5b200ac8c7c3b925836040516108fe91906111fb565b60405180910390a3505050565b6000600254905090565b6000610921848461061f565b90507fffffffffffffffffffffffffffffffffffffffffffffffffffffffffffffffff811461099b578181101561098d576040517f08c379a0000000000000000000000000000000000000000000000000000000008152600401610984906118c6565b60405180910390fd5b61099a8484848403610740565b5b50505050565b600073ffffffffffffffffffffffffffffffffffffffff168373ffffffffffffffffffffffffffffffffffffffff161415610a11576040517f08c379a0000000000000000000000000000000000000000000000000000000008152600401610a0890611958565b60405180910390fd5b600073ffffffffffffffffffffffffffffffffffffffff168273ffffffffffffffffffffffffffffffffffffffff161415610a81576040517f08c379a0000000000000000000000000000000000000000000000000000000008152600401610a78906119ea565b60405180910390fd5b610a8c838383611018565b60008060008573ffffffffffffffffffffffffffffffffffffffff1673ffffffffffffffffffffffffffffffffffffffff16815260200190815260200160002054905081811015610b12576040517f08c379a0000000000000000000000000000000000000000000000000000000008152600401610b0990611a7c565b60405180910390fd5b8181036000808673ffffffffffffffffffffffffffffffffffffffff1673ffffffffffffffffffffffffffffffffffffffff16815260200190815260200160002081905550816000808573ffffffffffffffffffffffffffffffffffffffff1673ffffffffffffffffffffffffffffffffffffffff168152602001908152602001600020600082825401925050819055508273ffffffffffffffffffffffffffffffffffffffff168473ffffffffffffffffffffffffffffffffffffffff167fddf252ad1be2c89b69c2b068fc378daa952ba7f163c4a11628f55a4df523b3ef84604051610c0091906111fb565b60405180910390a3610c1384848461101d565b50505050565b600073ffffffffffffffffffffffffffffffffffffffff168273ffffffffffffffffffffffffffffffffffffffff161415610c89576040517f08c379a0000000000000000000000000000000000000000000000000000000008152600401610c8090611ae8565b60405180910390fd5b610c9560008383611018565b8060026000828254610ca79190611423565b92505081905550806000808473ffffffffffffffffffffffffffffffffffffffff1673ffffffffffffffffffffffffffffffffffffffff168152602001908152602001600020600082825401925050819055508173ffffffffffffffffffffffffffffffffffffffff16600073ffffffffffffffffffffffffffffffffffffffff167fddf252ad1be2c89b69c2b068fc378daa952ba7f163c4a11628f55a4df523b3ef83604051610d5891906111fb565b60405180910390a3610d6c6000838361101d565b5050565b600073ffffffffffffffffffffffffffffffffffffffff168273ffffffffffffffffffffffffffffffffffffffff161415610de0576040517f08c379a0000000000000000000000000000000000000000000000000000000008152600401610dd790611b7a565b60405180910390fd5b610dec82600083611018565b60008060008473ffffffffffffffffffffffffffffffffffffffff1673ffffffffffffffffffffffffffffffffffffffff16815260200190815260200160002054905081811015610e72576040517f08c379a0000000000000000000000000000000000000000000000000000000008152600401610e6990611c0c565b60405180910390fd5b8181036000808573ffffffffffffffffffffffffffffffffffffffff1673ffffffffffffffffffffffffffffffffffffffff1681526020019081526020016000208190555081600260008282540392505081905550600073ffffffffffffffffffffffffffffffffffffffff168373ffffffffffffffffffffffffffffffffffffffff167fddf252ad1be2c89b69c2b068fc378daa952ba7f163c4a11628f55a4df523b3ef84604051610f2591906111fb565b60405180910390a3610f398360008461101d565b505050565b60008060008373ffffffffffffffffffffffffffffffffffffffff1673ffffffffffffffffffffffffffffffffffffffff168152602001908152602001600020549050919050565b606060048054610f9590611724565b80601f0160208091040260200160405190810160405280929190818152602001828054610fc190611724565b801561100e5780601f10610fe35761010080835404028352916020019161100e565b820191906000526020600020905b815481529060010190602001808311610ff157829003601f168201915b5050505050905090565b505050565b505050565b600081519050919050565b600082825260208201905092915050565b60005b8381101561105c578082015181840152602081019050611041565b8381111561106b576000848401525b50505050565b6000601f19601f8301169050919050565b600061108d82611022565b611097818561102d565b93506110a781856020860161103e565b6110b081611071565b840191505092915050565b600060208201905081810360008301526110d58184611082565b905092915050565b600080fd5b600073ffffffffffffffffffffffffffffffffffffffff82169050919050565b600061110d826110e2565b9050919050565b61111d81611102565b811461112857600080fd5b50565b60008135905061113a81611114565b92915050565b6000819050919050565b61115381611140565b811461115e57600080fd5b50565b6000813590506111708161114a565b92915050565b6000806040838503121561118d5761118c6110dd565b5b600061119b8582860161112b565b92505060206111ac85828601611161565b9150509250929050565b60008115159050919050565b6111cb816111b6565b82525050565b60006020820190506111e660008301846111c2565b92915050565b6111f581611140565b82525050565b600060208201905061121060008301846111ec565b92915050565b60008060006060848603121561122f5761122e6110dd565b5b600061123d8682870161112b565b935050602061124e8682870161112b565b925050604061125f86828701611161565b9150509250925092565b600060ff82169050919050565b61127f81611269565b82525050565b600060208201905061129a6000830184611276565b92915050565b600080600080608085870312156112ba576112b96110dd565b5b60006112c88782880161112b565b94505060206112d987828801611161565b93505060406112ea87828801611161565b92505060606112fb8782880161112b565b91505092959194509250565b60006020828403121561131d5761131c6110dd565b5b600061132b84828501611161565b91505092915050565b60006020828403121561134a576113496110dd565b5b60006113588482850161112b565b91505092915050565b60008060006060848603121561137a576113796110dd565b5b60006113888682870161112b565b935050602061139986828701611161565b92505060406113aa86828701611161565b9150509250925092565b600080604083850312156113cb576113ca6110dd565b5b60006113d98582860161112b565b92505060206113ea8582860161112b565b9150509250929050565b7f4e487b7100000000000000000000000000000000000000000000000000000000600052601160045260246000fd5b600061142e82611140565b915061143983611140565b9250827fffffffffffffffffffffffffffffffffffffffffffffffffffffffffffffffff0382111561146e5761146d6113f4565b5b828201905092915050565b7f46656520616d6f756e74206d7573742062652067726561746572207468616e2060008201527f7a65726f00000000000000000000000000000000000000000000000000000000602082015250565b60006114d560248361102d565b91506114e082611479565b604082019050919050565b60006020820190508181036000830152611504816114c8565b9050919050565b7f45524332303a2064656372656173656420616c6c6f77616e63652062656c6f7760008201527f207a65726f000000000000000000000000000000000000000000000000000000602082015250565b600061156760258361102d565b91506115728261150b565b604082019050919050565b600060208201905081810360008301526115968161155a565b9050919050565b7f4275726e20616d6f756e74206d7573742062652067726561746572207468616e60008201527f207a65726f000000000000000000000000000000000000000000000000000000602082015250565b60006115f960258361102d565b91506116048261159d565b604082019050919050565b60006020820190508181036000830152611628816115ec565b9050919050565b7f4275726e20616d6f756e74206d757374206265206c657373207468616e206f7260008201527f20657175616c20746f20746865207472616e7366657220616d6f756e74000000602082015250565b600061168b603d8361102d565b91506116968261162f565b604082019050919050565b600060208201905081810360008301526116ba8161167e565b9050919050565b60006116cc82611140565b91506116d783611140565b9250828210156116ea576116e96113f4565b5b828203905092915050565b7f4e487b7100000000000000000000000000000000000000000000000000000000600052602260045260246000fd5b6000600282049050600182168061173c57607f821691505b602082108114156117505761174f6116f5565b5b50919050565b7f45524332303a20617070726f76652066726f6d20746865207a65726f2061646460008201527f7265737300000000000000000000000000000000000000000000000000000000602082015250565b60006117b260248361102d565b91506117bd82611756565b604082019050919050565b600060208201905081810360008301526117e1816117a5565b9050919050565b7f45524332303a20617070726f766520746f20746865207a65726f20616464726560008201527f7373000000000000000000000000000000000000000000000000000000000000602082015250565b600061184460228361102d565b915061184f826117e8565b604082019050919050565b6000602082019050818103600083015261187381611837565b9050919050565b7f45524332303a20696e73756666696369656e7420616c6c6f77616e6365000000600082015250565b60006118b0601d8361102d565b91506118bb8261187a565b602082019050919050565b600060208201905081810360008301526118df816118a3565b9050919050565b7f45524332303a207472616e736665722066726f6d20746865207a65726f20616460008201527f6472657373000000000000000000000000000000000000000000000000000000602082015250565b600061194260258361102d565b915061194d826118e6565b604082019050919050565b6000602082019050818103600083015261197181611935565b9050919050565b7f45524332303a207472616e7366657220746f20746865207a65726f206164647260008201527f6573730000000000000000000000000000000000000000000000000000000000602082015250565b60006119d460238361102d565b91506119df82611978565b604082019050919050565b60006020820190508181036000830152611a03816119c7565b9050919050565b7f45524332303a207472616e7366657220616d6f756e742065786365656473206260008201527f616c616e63650000000000000000000000000000000000000000000000000000602082015250565b6000611a6660268361102d565b9150611a7182611a0a565b604082019050919050565b60006020820190508181036000830152611a9581611a59565b9050919050565b7f45524332303a206d696e7420746f20746865207a65726f206164647265737300600082015250565b6000611ad2601f8361102d565b9150611add82611a9c565b602082019050919050565b60006020820190508181036000830152611b0181611ac5565b9050919050565b7f45524332303a206275726e2066726f6d20746865207a65726f2061646472657360008201527f7300000000000000000000000000000000000000000000000000000000000000602082015250565b6000611b6460218361102d565b9150611b6f82611b08565b604082019050919050565b60006020820190508181036000830152611b9381611b57565b9050919050565b7f45524332303a206275726e20616d6f756e7420657863656564732062616c616e60008201527f6365000000000000000000000000000000000000000000000000000000000000602082015250565b6000611bf660228361102d565b9150611c0182611b9a565b604082019050919050565b60006020820190508181036000830152611c2581611be9565b905091905056fea2646970667358221220afaca366dc354a1aceacf1b27afa057cae3d1d73cabb3722f3151d7b7b85a5d964736f6c63430008090033",
					"opcodes": "PUSH1 0x80 PUSH1 0x40 MSTORE CALLVALUE DUP1 ISZERO PUSH3 0x11 JUMPI PUSH1 0x0 DUP1 REVERT JUMPDEST POP PUSH1 0x40 MLOAD PUSH3 0x20DA CODESIZE SUB DUP1 PUSH3 0x20DA DUP4 CODECOPY DUP2 DUP2 ADD PUSH1 0x40 MSTORE DUP2 ADD SWAP1 PUSH3 0x37 SWAP2 SWAP1 PUSH3 0x369 JUMP JUMPDEST DUP3 DUP3 DUP3 DUP3 PUSH1 0x3 SWAP1 DUP1 MLOAD SWAP1 PUSH1 0x20 ADD SWAP1 PUSH3 0x52 SWAP3 SWAP2 SWAP1 PUSH3 0xE1 JUMP JUMPDEST POP DUP2 PUSH1 0x4 SWAP1 DUP1 MLOAD SWAP1 PUSH1 0x20 ADD SWAP1 PUSH3 0x6B SWAP3 SWAP2 SWAP1 PUSH3 0xE1 JUMP JUMPDEST POP DUP1 PUSH1 0x2 DUP2 SWAP1 SSTORE POP PUSH1 0x0 PUSH3 0x85 PUSH3 0xD9 PUSH1 0x20 SHL PUSH1 0x20 SHR JUMP JUMPDEST SWAP1 POP PUSH1 0x2 SLOAD PUSH1 0x0 DUP1 DUP4 PUSH20 0xFFFFFFFFFFFFFFFFFFFFFFFFFFFFFFFFFFFFFFFF AND PUSH20 0xFFFFFFFFFFFFFFFFFFFFFFFFFFFFFFFFFFFFFFFF AND DUP2 MSTORE PUSH1 0x20 ADD SWAP1 DUP2 MSTORE PUSH1 0x20 ADD PUSH1 0x0 KECCAK256 DUP2 SWAP1 SSTORE POP POP POP POP POP POP POP POP PUSH3 0x468 JUMP JUMPDEST PUSH1 0x0 CALLER SWAP1 POP SWAP1 JUMP JUMPDEST DUP3 DUP1 SLOAD PUSH3 0xEF SWAP1 PUSH3 0x432 JUMP JUMPDEST SWAP1 PUSH1 0x0 MSTORE PUSH1 0x20 PUSH1 0x0 KECCAK256 SWAP1 PUSH1 0x1F ADD PUSH1 0x20 SWAP1 DIV DUP2 ADD SWAP3 DUP3 PUSH3 0x113 JUMPI PUSH1 0x0 DUP6 SSTORE PUSH3 0x15F JUMP JUMPDEST DUP3 PUSH1 0x1F LT PUSH3 0x12E JUMPI DUP1 MLOAD PUSH1 0xFF NOT AND DUP4 DUP1 ADD OR DUP6 SSTORE PUSH3 0x15F JUMP JUMPDEST DUP3 DUP1 ADD PUSH1 0x1 ADD DUP6 SSTORE DUP3 ISZERO PUSH3 0x15F JUMPI SWAP2 DUP3 ADD JUMPDEST DUP3 DUP2 GT ISZERO PUSH3 0x15E JUMPI DUP3 MLOAD DUP3 SSTORE SWAP2 PUSH1 0x20 ADD SWAP2 SWAP1 PUSH1 0x1 ADD SWAP1 PUSH3 0x141 JUMP JUMPDEST JUMPDEST POP SWAP1 POP PUSH3 0x16E SWAP2 SWAP1 PUSH3 0x172 JUMP JUMPDEST POP SWAP1 JUMP JUMPDEST JUMPDEST DUP1 DUP3 GT ISZERO PUSH3 0x18D JUMPI PUSH1 0x0 DUP2 PUSH1 0x0 SWAP1 SSTORE POP PUSH1 0x1 ADD PUSH3 0x173 JUMP JUMPDEST POP SWAP1 JUMP JUMPDEST PUSH1 0x0 PUSH1 0x40 MLOAD SWAP1 POP SWAP1 JUMP JUMPDEST PUSH1 0x0 DUP1 REVERT JUMPDEST PUSH1 0x0 DUP1 REVERT JUMPDEST PUSH1 0x0 DUP1 REVERT JUMPDEST PUSH1 0x0 DUP1 REVERT JUMPDEST PUSH1 0x0 PUSH1 0x1F NOT PUSH1 0x1F DUP4 ADD AND SWAP1 POP SWAP2 SWAP1 POP JUMP JUMPDEST PUSH32 0x4E487B7100000000000000000000000000000000000000000000000000000000 PUSH1 0x0 MSTORE PUSH1 0x41 PUSH1 0x4 MSTORE PUSH1 0x24 PUSH1 0x0 REVERT JUMPDEST PUSH3 0x1FA DUP3 PUSH3 0x1AF JUMP JUMPDEST DUP2 ADD DUP2 DUP2 LT PUSH8 0xFFFFFFFFFFFFFFFF DUP3 GT OR ISZERO PUSH3 0x21C JUMPI PUSH3 0x21B PUSH3 0x1C0 JUMP JUMPDEST JUMPDEST DUP1 PUSH1 0x40 MSTORE POP POP POP JUMP JUMPDEST PUSH1 0x0 PUSH3 0x231 PUSH3 0x191 JUMP JUMPDEST SWAP1 POP PUSH3 0x23F DUP3 DUP3 PUSH3 0x1EF JUMP JUMPDEST SWAP2 SWAP1 POP JUMP JUMPDEST PUSH1 0x0 PUSH8 0xFFFFFFFFFFFFFFFF DUP3 GT ISZERO PUSH3 0x262 JUMPI PUSH3 0x261 PUSH3 0x1C0 JUMP JUMPDEST JUMPDEST PUSH3 0x26D DUP3 PUSH3 0x1AF JUMP JUMPDEST SWAP1 POP PUSH1 0x20 DUP2 ADD SWAP1 POP SWAP2 SWAP1 POP JUMP JUMPDEST PUSH1 0x0 JUMPDEST DUP4 DUP2 LT ISZERO PUSH3 0x29A JUMPI DUP1 DUP3 ADD MLOAD DUP2 DUP5 ADD MSTORE PUSH1 0x20 DUP2 ADD SWAP1 POP PUSH3 0x27D JUMP JUMPDEST DUP4 DUP2 GT ISZERO PUSH3 0x2AA JUMPI PUSH1 0x0 DUP5 DUP5 ADD MSTORE JUMPDEST POP POP POP POP JUMP JUMPDEST PUSH1 0x0 PUSH3 0x2C7 PUSH3 0x2C1 DUP5 PUSH3 0x244 JUMP JUMPDEST PUSH3 0x225 JUMP JUMPDEST SWAP1 POP DUP3 DUP2 MSTORE PUSH1 0x20 DUP2 ADD DUP5 DUP5 DUP5 ADD GT ISZERO PUSH3 0x2E6 JUMPI PUSH3 0x2E5 PUSH3 0x1AA JUMP JUMPDEST JUMPDEST PUSH3 0x2F3 DUP5 DUP3 DUP6 PUSH3 0x27A JUMP JUMPDEST POP SWAP4 SWAP3 POP POP POP JUMP JUMPDEST PUSH1 0x0 DUP3 PUSH1 0x1F DUP4 ADD SLT PUSH3 0x313 JUMPI PUSH3 0x312 PUSH3 0x1A5 JUMP JUMPDEST JUMPDEST DUP2 MLOAD PUSH3 0x325 DUP5 DUP3 PUSH1 0x20 DUP7 ADD PUSH3 0x2B0 JUMP JUMPDEST SWAP2 POP POP SWAP3 SWAP2 POP POP JUMP JUMPDEST PUSH1 0x0 DUP2 SWAP1 POP SWAP2 SWAP1 POP JUMP JUMPDEST PUSH3 0x343 DUP2 PUSH3 0x32E JUMP JUMPDEST DUP2 EQ PUSH3 0x34F JUMPI PUSH1 0x0 DUP1 REVERT JUMPDEST POP JUMP JUMPDEST PUSH1 0x0 DUP2 MLOAD SWAP1 POP PUSH3 0x363 DUP2 PUSH3 0x338 JUMP JUMPDEST SWAP3 SWAP2 POP POP JUMP JUMPDEST PUSH1 0x0 DUP1 PUSH1 0x0 PUSH1 0x60 DUP5 DUP7 SUB SLT ISZERO PUSH3 0x385 JUMPI PUSH3 0x384 PUSH3 0x19B JUMP JUMPDEST JUMPDEST PUSH1 0x0 DUP5 ADD MLOAD PUSH8 0xFFFFFFFFFFFFFFFF DUP2 GT ISZERO PUSH3 0x3A6 JUMPI PUSH3 0x3A5 PUSH3 0x1A0 JUMP JUMPDEST JUMPDEST PUSH3 0x3B4 DUP7 DUP3 DUP8 ADD PUSH3 0x2FB JUMP JUMPDEST SWAP4 POP POP PUSH1 0x20 DUP5 ADD MLOAD PUSH8 0xFFFFFFFFFFFFFFFF DUP2 GT ISZERO PUSH3 0x3D8 JUMPI PUSH3 0x3D7 PUSH3 0x1A0 JUMP JUMPDEST JUMPDEST PUSH3 0x3E6 DUP7 DUP3 DUP8 ADD PUSH3 0x2FB JUMP JUMPDEST SWAP3 POP POP PUSH1 0x40 PUSH3 0x3F9 DUP7 DUP3 DUP8 ADD PUSH3 0x352 JUMP JUMPDEST SWAP2 POP POP SWAP3 POP SWAP3 POP SWAP3 JUMP JUMPDEST PUSH32 0x4E487B7100000000000000000000000000000000000000000000000000000000 PUSH1 0x0 MSTORE PUSH1 0x22 PUSH1 0x4 MSTORE PUSH1 0x24 PUSH1 0x0 REVERT JUMPDEST PUSH1 0x0 PUSH1 0x2 DUP3 DIV SWAP1 POP PUSH1 0x1 DUP3 AND DUP1 PUSH3 0x44B JUMPI PUSH1 0x7F DUP3 AND SWAP2 POP JUMPDEST PUSH1 0x20 DUP3 LT DUP2 EQ ISZERO PUSH3 0x462 JUMPI PUSH3 0x461 PUSH3 0x403 JUMP JUMPDEST JUMPDEST POP SWAP2 SWAP1 POP JUMP JUMPDEST PUSH2 0x1C62 DUP1 PUSH3 0x478 PUSH1 0x0 CODECOPY PUSH1 0x0 RETURN INVALID PUSH1 0x80 PUSH1 0x40 MSTORE CALLVALUE DUP1 ISZERO PUSH2 0x10 JUMPI PUSH1 0x0 DUP1 REVERT JUMPDEST POP PUSH1 0x4 CALLDATASIZE LT PUSH2 0xF5 JUMPI PUSH1 0x0 CALLDATALOAD PUSH1 0xE0 SHR DUP1 PUSH4 0x40C10F19 GT PUSH2 0x97 JUMPI DUP1 PUSH4 0xA457C2D7 GT PUSH2 0x66 JUMPI DUP1 PUSH4 0xA457C2D7 EQ PUSH2 0x29A JUMPI DUP1 PUSH4 0xA9059CBB EQ PUSH2 0x2CA JUMPI DUP1 PUSH4 0xBB9C1AD9 EQ PUSH2 0x2FA JUMPI DUP1 PUSH4 0xDD62ED3E EQ PUSH2 0x32A JUMPI PUSH2 0xF5 JUMP JUMPDEST DUP1 PUSH4 0x40C10F19 EQ PUSH2 0x214 JUMPI DUP1 PUSH4 0x42966C68 EQ PUSH2 0x230 JUMPI DUP1 PUSH4 0x70A08231 EQ PUSH2 0x24C JUMPI DUP1 PUSH4 0x95D89B41 EQ PUSH2 0x27C JUMPI PUSH2 0xF5 JUMP JUMPDEST DUP1 PUSH4 0x23B872DD GT PUSH2 0xD3 JUMPI DUP1 PUSH4 0x23B872DD EQ PUSH2 0x166 JUMPI DUP1 PUSH4 0x313CE567 EQ PUSH2 0x196 JUMPI DUP1 PUSH4 0x39509351 EQ PUSH2 0x1B4 JUMPI DUP1 PUSH4 0x3F50A705 EQ PUSH2 0x1E4 JUMPI PUSH2 0xF5 JUMP JUMPDEST DUP1 PUSH4 0x6FDDE03 EQ PUSH2 0xFA JUMPI DUP1 PUSH4 0x95EA7B3 EQ PUSH2 0x118 JUMPI DUP1 PUSH4 0x18160DDD EQ PUSH2 0x148 JUMPI JUMPDEST PUSH1 0x0 DUP1 REVERT JUMPDEST PUSH2 0x102 PUSH2 0x35A JUMP JUMPDEST PUSH1 0x40 MLOAD PUSH2 0x10F SWAP2 SWAP1 PUSH2 0x10BB JUMP JUMPDEST PUSH1 0x40 MLOAD DUP1 SWAP2 SUB SWAP1 RETURN JUMPDEST PUSH2 0x132 PUSH1 0x4 DUP1 CALLDATASIZE SUB DUP2 ADD SWAP1 PUSH2 0x12D SWAP2 SWAP1 PUSH2 0x1176 JUMP JUMPDEST PUSH2 0x369 JUMP JUMPDEST PUSH1 0x40 MLOAD PUSH2 0x13F SWAP2 SWAP1 PUSH2 0x11D1 JUMP JUMPDEST PUSH1 0x40 MLOAD DUP1 SWAP2 SUB SWAP1 RETURN JUMPDEST PUSH2 0x150 PUSH2 0x38C JUMP JUMPDEST PUSH1 0x40 MLOAD PUSH2 0x15D SWAP2 SWAP1 PUSH2 0x11FB JUMP JUMPDEST PUSH1 0x40 MLOAD DUP1 SWAP2 SUB SWAP1 RETURN JUMPDEST PUSH2 0x180 PUSH1 0x4 DUP1 CALLDATASIZE SUB DUP2 ADD SWAP1 PUSH2 0x17B SWAP2 SWAP1 PUSH2 0x1216 JUMP JUMPDEST PUSH2 0x39B JUMP JUMPDEST PUSH1 0x40 MLOAD PUSH2 0x18D SWAP2 SWAP1 PUSH2 0x11D1 JUMP JUMPDEST PUSH1 0x40 MLOAD DUP1 SWAP2 SUB SWAP1 RETURN JUMPDEST PUSH2 0x19E PUSH2 0x3CA JUMP JUMPDEST PUSH1 0x40 MLOAD PUSH2 0x1AB SWAP2 SWAP1 PUSH2 0x1285 JUMP JUMPDEST PUSH1 0x40 MLOAD DUP1 SWAP2 SUB SWAP1 RETURN JUMPDEST PUSH2 0x1CE PUSH1 0x4 DUP1 CALLDATASIZE SUB DUP2 ADD SWAP1 PUSH2 0x1C9 SWAP2 SWAP1 PUSH2 0x1176 JUMP JUMPDEST PUSH2 0x3D3 JUMP JUMPDEST PUSH1 0x40 MLOAD PUSH2 0x1DB SWAP2 SWAP1 PUSH2 0x11D1 JUMP JUMPDEST PUSH1 0x40 MLOAD DUP1 SWAP2 SUB SWAP1 RETURN JUMPDEST PUSH2 0x1FE PUSH1 0x4 DUP1 CALLDATASIZE SUB DUP2 ADD SWAP1 PUSH2 0x1F9 SWAP2 SWAP1 PUSH2 0x12A0 JUMP JUMPDEST PUSH2 0x40A JUMP JUMPDEST PUSH1 0x40 MLOAD PUSH2 0x20B SWAP2 SWAP1 PUSH2 0x11D1 JUMP JUMPDEST PUSH1 0x40 MLOAD DUP1 SWAP2 SUB SWAP1 RETURN JUMPDEST PUSH2 0x22E PUSH1 0x4 DUP1 CALLDATASIZE SUB DUP2 ADD SWAP1 PUSH2 0x229 SWAP2 SWAP1 PUSH2 0x1176 JUMP JUMPDEST PUSH2 0x47D JUMP JUMPDEST STOP JUMPDEST PUSH2 0x24A PUSH1 0x4 DUP1 CALLDATASIZE SUB DUP2 ADD SWAP1 PUSH2 0x245 SWAP2 SWAP1 PUSH2 0x1307 JUMP JUMPDEST PUSH2 0x48B JUMP JUMPDEST STOP JUMPDEST PUSH2 0x266 PUSH1 0x4 DUP1 CALLDATASIZE SUB DUP2 ADD SWAP1 PUSH2 0x261 SWAP2 SWAP1 PUSH2 0x1334 JUMP JUMPDEST PUSH2 0x49F JUMP JUMPDEST PUSH1 0x40 MLOAD PUSH2 0x273 SWAP2 SWAP1 PUSH2 0x11FB JUMP JUMPDEST PUSH1 0x40 MLOAD DUP1 SWAP2 SUB SWAP1 RETURN JUMPDEST PUSH2 0x284 PUSH2 0x4B1 JUMP JUMPDEST PUSH1 0x40 MLOAD PUSH2 0x291 SWAP2 SWAP1 PUSH2 0x10BB JUMP JUMPDEST PUSH1 0x40 MLOAD DUP1 SWAP2 SUB SWAP1 RETURN JUMPDEST PUSH2 0x2B4 PUSH1 0x4 DUP1 CALLDATASIZE SUB DUP2 ADD SWAP1 PUSH2 0x2AF SWAP2 SWAP1 PUSH2 0x1176 JUMP JUMPDEST PUSH2 0x4C0 JUMP JUMPDEST PUSH1 0x40 MLOAD PUSH2 0x2C1 SWAP2 SWAP1 PUSH2 0x11D1 JUMP JUMPDEST PUSH1 0x40 MLOAD DUP1 SWAP2 SUB SWAP1 RETURN JUMPDEST PUSH2 0x2E4 PUSH1 0x4 DUP1 CALLDATASIZE SUB DUP2 ADD SWAP1 PUSH2 0x2DF SWAP2 SWAP1 PUSH2 0x1176 JUMP JUMPDEST PUSH2 0x537 JUMP JUMPDEST PUSH1 0x40 MLOAD PUSH2 0x2F1 SWAP2 SWAP1 PUSH2 0x11D1 JUMP JUMPDEST PUSH1 0x40 MLOAD DUP1 SWAP2 SUB SWAP1 RETURN JUMPDEST PUSH2 0x314 PUSH1 0x4 DUP1 CALLDATASIZE SUB DUP2 ADD SWAP1 PUSH2 0x30F SWAP2 SWAP1 PUSH2 0x1361 JUMP JUMPDEST PUSH2 0x55A JUMP JUMPDEST PUSH1 0x40 MLOAD PUSH2 0x321 SWAP2 SWAP1 PUSH2 0x11D1 JUMP JUMPDEST PUSH1 0x40 MLOAD DUP1 SWAP2 SUB SWAP1 RETURN JUMPDEST PUSH2 0x344 PUSH1 0x4 DUP1 CALLDATASIZE SUB DUP2 ADD SWAP1 PUSH2 0x33F SWAP2 SWAP1 PUSH2 0x13B4 JUMP JUMPDEST PUSH2 0x61F JUMP JUMPDEST PUSH1 0x40 MLOAD PUSH2 0x351 SWAP2 SWAP1 PUSH2 0x11FB JUMP JUMPDEST PUSH1 0x40 MLOAD DUP1 SWAP2 SUB SWAP1 RETURN JUMPDEST PUSH1 0x60 PUSH2 0x364 PUSH2 0x6A6 JUMP JUMPDEST SWAP1 POP SWAP1 JUMP JUMPDEST PUSH1 0x0 DUP1 PUSH2 0x374 PUSH2 0x738 JUMP JUMPDEST SWAP1 POP PUSH2 0x381 DUP2 DUP6 DUP6 PUSH2 0x740 JUMP JUMPDEST PUSH1 0x1 SWAP2 POP POP SWAP3 SWAP2 POP POP JUMP JUMPDEST PUSH1 0x0 PUSH2 0x396 PUSH2 0x90B JUMP JUMPDEST SWAP1 POP SWAP1 JUMP JUMPDEST PUSH1 0x0 DUP1 PUSH2 0x3A6 PUSH2 0x738 JUMP JUMPDEST SWAP1 POP PUSH2 0x3B3 DUP6 DUP3 DUP6 PUSH2 0x915 JUMP JUMPDEST PUSH2 0x3BE DUP6 DUP6 DUP6 PUSH2 0x9A1 JUMP JUMPDEST PUSH1 0x1 SWAP2 POP POP SWAP4 SWAP3 POP POP POP JUMP JUMPDEST PUSH1 0x0 PUSH1 0x12 SWAP1 POP SWAP1 JUMP JUMPDEST PUSH1 0x0 DUP1 PUSH2 0x3DE PUSH2 0x738 JUMP JUMPDEST SWAP1 POP PUSH2 0x3FF DUP2 DUP6 DUP6 PUSH2 0x3F0 DUP6 DUP10 PUSH2 0x61F JUMP JUMPDEST PUSH2 0x3FA SWAP2 SWAP1 PUSH2 0x1423 JUMP JUMPDEST PUSH2 0x740 JUMP JUMPDEST PUSH1 0x1 SWAP2 POP POP SWAP3 SWAP2 POP POP JUMP JUMPDEST PUSH1 0x0 DUP1 DUP4 GT PUSH2 0x44E JUMPI PUSH1 0x40 MLOAD PUSH32 0x8C379A000000000000000000000000000000000000000000000000000000000 DUP2 MSTORE PUSH1 0x4 ADD PUSH2 0x445 SWAP1 PUSH2 0x14EB JUMP JUMPDEST PUSH1 0x40 MLOAD DUP1 SWAP2 SUB SWAP1 REVERT JUMPDEST PUSH1 0x0 PUSH2 0x458 PUSH2 0x738 JUMP JUMPDEST SWAP1 POP PUSH2 0x465 DUP2 DUP5 DUP7 PUSH2 0x9A1 JUMP JUMPDEST PUSH2 0x470 DUP2 DUP8 DUP8 PUSH2 0x9A1 JUMP JUMPDEST PUSH1 0x1 SWAP2 POP POP SWAP5 SWAP4 POP POP POP POP JUMP JUMPDEST PUSH2 0x487 DUP3 DUP3 PUSH2 0xC19 JUMP JUMPDEST POP POP JUMP JUMPDEST PUSH2 0x49C PUSH2 0x496 PUSH2 0x738 JUMP JUMPDEST DUP3 PUSH2 0xD70 JUMP JUMPDEST POP JUMP JUMPDEST PUSH1 0x0 PUSH2 0x4AA DUP3 PUSH2 0xF3E JUMP JUMPDEST SWAP1 POP SWAP2 SWAP1 POP JUMP JUMPDEST PUSH1 0x60 PUSH2 0x4BB PUSH2 0xF86 JUMP JUMPDEST SWAP1 POP SWAP1 JUMP JUMPDEST PUSH1 0x0 DUP1 PUSH2 0x4CB PUSH2 0x738 JUMP JUMPDEST SWAP1 POP PUSH1 0x0 PUSH2 0x4D9 DUP3 DUP7 PUSH2 0x61F JUMP JUMPDEST SWAP1 POP DUP4 DUP2 LT ISZERO PUSH2 0x51E JUMPI PUSH1 0x40 MLOAD PUSH32 0x8C379A000000000000000000000000000000000000000000000000000000000 DUP2 MSTORE PUSH1 0x4 ADD PUSH2 0x515 SWAP1 PUSH2 0x157D JUMP JUMPDEST PUSH1 0x40 MLOAD DUP1 SWAP2 SUB SWAP1 REVERT JUMPDEST PUSH2 0x52B DUP3 DUP7 DUP7 DUP5 SUB PUSH2 0x740 JUMP JUMPDEST PUSH1 0x1 SWAP3 POP POP POP SWAP3 SWAP2 POP POP JUMP JUMPDEST PUSH1 0x0 DUP1 PUSH2 0x542 PUSH2 0x738 JUMP JUMPDEST SWAP1 POP PUSH2 0x54F DUP2 DUP6 DUP6 PUSH2 0x9A1 JUMP JUMPDEST PUSH1 0x1 SWAP2 POP POP SWAP3 SWAP2 POP POP JUMP JUMPDEST PUSH1 0x0 DUP1 DUP3 GT PUSH2 0x59E JUMPI PUSH1 0x40 MLOAD PUSH32 0x8C379A000000000000000000000000000000000000000000000000000000000 DUP2 MSTORE PUSH1 0x4 ADD PUSH2 0x595 SWAP1 PUSH2 0x160F JUMP JUMPDEST PUSH1 0x40 MLOAD DUP1 SWAP2 SUB SWAP1 REVERT JUMPDEST DUP3 DUP3 GT ISZERO PUSH2 0x5E1 JUMPI PUSH1 0x40 MLOAD PUSH32 0x8C379A000000000000000000000000000000000000000000000000000000000 DUP2 MSTORE PUSH1 0x4 ADD PUSH2 0x5D8 SWAP1 PUSH2 0x16A1 JUMP JUMPDEST PUSH1 0x40 MLOAD DUP1 SWAP2 SUB SWAP1 REVERT JUMPDEST PUSH1 0x0 PUSH2 0x5EB PUSH2 0x738 JUMP JUMPDEST SWAP1 POP PUSH1 0x0 DUP4 DUP6 PUSH2 0x5FB SWAP2 SWAP1 PUSH2 0x16C1 JUMP JUMPDEST SWAP1 POP PUSH2 0x607 DUP3 DUP6 PUSH2 0xD70 JUMP JUMPDEST PUSH2 0x612 DUP3 DUP8 DUP4 PUSH2 0x9A1 JUMP JUMPDEST PUSH1 0x1 SWAP3 POP POP POP SWAP4 SWAP3 POP POP POP JUMP JUMPDEST PUSH1 0x0 PUSH1 0x1 PUSH1 0x0 DUP5 PUSH20 0xFFFFFFFFFFFFFFFFFFFFFFFFFFFFFFFFFFFFFFFF AND PUSH20 0xFFFFFFFFFFFFFFFFFFFFFFFFFFFFFFFFFFFFFFFF AND DUP2 MSTORE PUSH1 0x20 ADD SWAP1 DUP2 MSTORE PUSH1 0x20 ADD PUSH1 0x0 KECCAK256 PUSH1 0x0 DUP4 PUSH20 0xFFFFFFFFFFFFFFFFFFFFFFFFFFFFFFFFFFFFFFFF AND PUSH20 0xFFFFFFFFFFFFFFFFFFFFFFFFFFFFFFFFFFFFFFFF AND DUP2 MSTORE PUSH1 0x20 ADD SWAP1 DUP2 MSTORE PUSH1 0x20 ADD PUSH1 0x0 KECCAK256 SLOAD SWAP1 POP SWAP3 SWAP2 POP POP JUMP JUMPDEST PUSH1 0x60 PUSH1 0x3 DUP1 SLOAD PUSH2 0x6B5 SWAP1 PUSH2 0x1724 JUMP JUMPDEST DUP1 PUSH1 0x1F ADD PUSH1 0x20 DUP1 SWAP2 DIV MUL PUSH1 0x20 ADD PUSH1 0x40 MLOAD SWAP1 DUP2 ADD PUSH1 0x40 MSTORE DUP1 SWAP3 SWAP2 SWAP1 DUP2 DUP2 MSTORE PUSH1 0x20 ADD DUP3 DUP1 SLOAD PUSH2 0x6E1 SWAP1 PUSH2 0x1724 JUMP JUMPDEST DUP1 ISZERO PUSH2 0x72E JUMPI DUP1 PUSH1 0x1F LT PUSH2 0x703 JUMPI PUSH2 0x100 DUP1 DUP4 SLOAD DIV MUL DUP4 MSTORE SWAP2 PUSH1 0x20 ADD SWAP2 PUSH2 0x72E JUMP JUMPDEST DUP3 ADD SWAP2 SWAP1 PUSH1 0x0 MSTORE PUSH1 0x20 PUSH1 0x0 KECCAK256 SWAP1 JUMPDEST DUP2 SLOAD DUP2 MSTORE SWAP1 PUSH1 0x1 ADD SWAP1 PUSH1 0x20 ADD DUP1 DUP4 GT PUSH2 0x711 JUMPI DUP3 SWAP1 SUB PUSH1 0x1F AND DUP3 ADD SWAP2 JUMPDEST POP POP POP POP POP SWAP1 POP SWAP1 JUMP JUMPDEST PUSH1 0x0 CALLER SWAP1 POP SWAP1 JUMP JUMPDEST PUSH1 0x0 PUSH20 0xFFFFFFFFFFFFFFFFFFFFFFFFFFFFFFFFFFFFFFFF AND DUP4 PUSH20 0xFFFFFFFFFFFFFFFFFFFFFFFFFFFFFFFFFFFFFFFF AND EQ ISZERO PUSH2 0x7B0 JUMPI PUSH1 0x40 MLOAD PUSH32 0x8C379A000000000000000000000000000000000000000000000000000000000 DUP2 MSTORE PUSH1 0x4 ADD PUSH2 0x7A7 SWAP1 PUSH2 0x17C8 JUMP JUMPDEST PUSH1 0x40 MLOAD DUP1 SWAP2 SUB SWAP1 REVERT JUMPDEST PUSH1 0x0 PUSH20 0xFFFFFFFFFFFFFFFFFFFFFFFFFFFFFFFFFFFFFFFF AND DUP3 PUSH20 0xFFFFFFFFFFFFFFFFFFFFFFFFFFFFFFFFFFFFFFFF AND EQ ISZERO PUSH2 0x820 JUMPI PUSH1 0x40 MLOAD PUSH32 0x8C379A000000000000000000000000000000000000000000000000000000000 DUP2 MSTORE PUSH1 0x4 ADD PUSH2 0x817 SWAP1 PUSH2 0x185A JUMP JUMPDEST PUSH1 0x40 MLOAD DUP1 SWAP2 SUB SWAP1 REVERT JUMPDEST DUP1 PUSH1 0x1 PUSH1 0x0 DUP6 PUSH20 0xFFFFFFFFFFFFFFFFFFFFFFFFFFFFFFFFFFFFFFFF AND PUSH20 0xFFFFFFFFFFFFFFFFFFFFFFFFFFFFFFFFFFFFFFFF AND DUP2 MSTORE PUSH1 0x20 ADD SWAP1 DUP2 MSTORE PUSH1 0x20 ADD PUSH1 0x0 KECCAK256 PUSH1 0x0 DUP5 PUSH20 0xFFFFFFFFFFFFFFFFFFFFFFFFFFFFFFFFFFFFFFFF AND PUSH20 0xFFFFFFFFFFFFFFFFFFFFFFFFFFFFFFFFFFFFFFFF AND DUP2 MSTORE PUSH1 0x20 ADD SWAP1 DUP2 MSTORE PUSH1 0x20 ADD PUSH1 0x0 KECCAK256 DUP2 SWAP1 SSTORE POP DUP2 PUSH20 0xFFFFFFFFFFFFFFFFFFFFFFFFFFFFFFFFFFFFFFFF AND DUP4 PUSH20 0xFFFFFFFFFFFFFFFFFFFFFFFFFFFFFFFFFFFFFFFF AND PUSH32 0x8C5BE1E5EBEC7D5BD14F71427D1E84F3DD0314C0F7B2291E5B200AC8C7C3B925 DUP4 PUSH1 0x40 MLOAD PUSH2 0x8FE SWAP2 SWAP1 PUSH2 0x11FB JUMP JUMPDEST PUSH1 0x40 MLOAD DUP1 SWAP2 SUB SWAP1 LOG3 POP POP POP JUMP JUMPDEST PUSH1 0x0 PUSH1 0x2 SLOAD SWAP1 POP SWAP1 JUMP JUMPDEST PUSH1 0x0 PUSH2 0x921 DUP5 DUP5 PUSH2 0x61F JUMP JUMPDEST SWAP1 POP PUSH32 0xFFFFFFFFFFFFFFFFFFFFFFFFFFFFFFFFFFFFFFFFFFFFFFFFFFFFFFFFFFFFFFFF DUP2 EQ PUSH2 0x99B JUMPI DUP2 DUP2 LT ISZERO PUSH2 0x98D JUMPI PUSH1 0x40 MLOAD PUSH32 0x8C379A000000000000000000000000000000000000000000000000000000000 DUP2 MSTORE PUSH1 0x4 ADD PUSH2 0x984 SWAP1 PUSH2 0x18C6 JUMP JUMPDEST PUSH1 0x40 MLOAD DUP1 SWAP2 SUB SWAP1 REVERT JUMPDEST PUSH2 0x99A DUP5 DUP5 DUP5 DUP5 SUB PUSH2 0x740 JUMP JUMPDEST JUMPDEST POP POP POP POP JUMP JUMPDEST PUSH1 0x0 PUSH20 0xFFFFFFFFFFFFFFFFFFFFFFFFFFFFFFFFFFFFFFFF AND DUP4 PUSH20 0xFFFFFFFFFFFFFFFFFFFFFFFFFFFFFFFFFFFFFFFF AND EQ ISZERO PUSH2 0xA11 JUMPI PUSH1 0x40 MLOAD PUSH32 0x8C379A000000000000000000000000000000000000000000000000000000000 DUP2 MSTORE PUSH1 0x4 ADD PUSH2 0xA08 SWAP1 PUSH2 0x1958 JUMP JUMPDEST PUSH1 0x40 MLOAD DUP1 SWAP2 SUB SWAP1 REVERT JUMPDEST PUSH1 0x0 PUSH20 0xFFFFFFFFFFFFFFFFFFFFFFFFFFFFFFFFFFFFFFFF AND DUP3 PUSH20 0xFFFFFFFFFFFFFFFFFFFFFFFFFFFFFFFFFFFFFFFF AND EQ ISZERO PUSH2 0xA81 JUMPI PUSH1 0x40 MLOAD PUSH32 0x8C379A000000000000000000000000000000000000000000000000000000000 DUP2 MSTORE PUSH1 0x4 ADD PUSH2 0xA78 SWAP1 PUSH2 0x19EA JUMP JUMPDEST PUSH1 0x40 MLOAD DUP1 SWAP2 SUB SWAP1 REVERT JUMPDEST PUSH2 0xA8C DUP4 DUP4 DUP4 PUSH2 0x1018 JUMP JUMPDEST PUSH1 0x0 DUP1 PUSH1 0x0 DUP6 PUSH20 0xFFFFFFFFFFFFFFFFFFFFFFFFFFFFFFFFFFFFFFFF AND PUSH20 0xFFFFFFFFFFFFFFFFFFFFFFFFFFFFFFFFFFFFFFFF AND DUP2 MSTORE PUSH1 0x20 ADD SWAP1 DUP2 MSTORE PUSH1 0x20 ADD PUSH1 0x0 KECCAK256 SLOAD SWAP1 POP DUP2 DUP2 LT ISZERO PUSH2 0xB12 JUMPI PUSH1 0x40 MLOAD PUSH32 0x8C379A000000000000000000000000000000000000000000000000000000000 DUP2 MSTORE PUSH1 0x4 ADD PUSH2 0xB09 SWAP1 PUSH2 0x1A7C JUMP JUMPDEST PUSH1 0x40 MLOAD DUP1 SWAP2 SUB SWAP1 REVERT JUMPDEST DUP2 DUP2 SUB PUSH1 0x0 DUP1 DUP7 PUSH20 0xFFFFFFFFFFFFFFFFFFFFFFFFFFFFFFFFFFFFFFFF AND PUSH20 0xFFFFFFFFFFFFFFFFFFFFFFFFFFFFFFFFFFFFFFFF AND DUP2 MSTORE PUSH1 0x20 ADD SWAP1 DUP2 MSTORE PUSH1 0x20 ADD PUSH1 0x0 KECCAK256 DUP2 SWAP1 SSTORE POP DUP2 PUSH1 0x0 DUP1 DUP6 PUSH20 0xFFFFFFFFFFFFFFFFFFFFFFFFFFFFFFFFFFFFFFFF AND PUSH20 0xFFFFFFFFFFFFFFFFFFFFFFFFFFFFFFFFFFFFFFFF AND DUP2 MSTORE PUSH1 0x20 ADD SWAP1 DUP2 MSTORE PUSH1 0x20 ADD PUSH1 0x0 KECCAK256 PUSH1 0x0 DUP3 DUP3 SLOAD ADD SWAP3 POP POP DUP2 SWAP1 SSTORE POP DUP3 PUSH20 0xFFFFFFFFFFFFFFFFFFFFFFFFFFFFFFFFFFFFFFFF AND DUP5 PUSH20 0xFFFFFFFFFFFFFFFFFFFFFFFFFFFFFFFFFFFFFFFF AND PUSH32 0xDDF252AD1BE2C89B69C2B068FC378DAA952BA7F163C4A11628F55A4DF523B3EF DUP5 PUSH1 0x40 MLOAD PUSH2 0xC00 SWAP2 SWAP1 PUSH2 0x11FB JUMP JUMPDEST PUSH1 0x40 MLOAD DUP1 SWAP2 SUB SWAP1 LOG3 PUSH2 0xC13 DUP5 DUP5 DUP5 PUSH2 0x101D JUMP JUMPDEST POP POP POP POP JUMP JUMPDEST PUSH1 0x0 PUSH20 0xFFFFFFFFFFFFFFFFFFFFFFFFFFFFFFFFFFFFFFFF AND DUP3 PUSH20 0xFFFFFFFFFFFFFFFFFFFFFFFFFFFFFFFFFFFFFFFF AND EQ ISZERO PUSH2 0xC89 JUMPI PUSH1 0x40 MLOAD PUSH32 0x8C379A000000000000000000000000000000000000000000000000000000000 DUP2 MSTORE PUSH1 0x4 ADD PUSH2 0xC80 SWAP1 PUSH2 0x1AE8 JUMP JUMPDEST PUSH1 0x40 MLOAD DUP1 SWAP2 SUB SWAP1 REVERT JUMPDEST PUSH2 0xC95 PUSH1 0x0 DUP4 DUP4 PUSH2 0x1018 JUMP JUMPDEST DUP1 PUSH1 0x2 PUSH1 0x0 DUP3 DUP3 SLOAD PUSH2 0xCA7 SWAP2 SWAP1 PUSH2 0x1423 JUMP JUMPDEST SWAP3 POP POP DUP2 SWAP1 SSTORE POP DUP1 PUSH1 0x0 DUP1 DUP5 PUSH20 0xFFFFFFFFFFFFFFFFFFFFFFFFFFFFFFFFFFFFFFFF AND PUSH20 0xFFFFFFFFFFFFFFFFFFFFFFFFFFFFFFFFFFFFFFFF AND DUP2 MSTORE PUSH1 0x20 ADD SWAP1 DUP2 MSTORE PUSH1 0x20 ADD PUSH1 0x0 KECCAK256 PUSH1 0x0 DUP3 DUP3 SLOAD ADD SWAP3 POP POP DUP2 SWAP1 SSTORE POP DUP2 PUSH20 0xFFFFFFFFFFFFFFFFFFFFFFFFFFFFFFFFFFFFFFFF AND PUSH1 0x0 PUSH20 0xFFFFFFFFFFFFFFFFFFFFFFFFFFFFFFFFFFFFFFFF AND PUSH32 0xDDF252AD1BE2C89B69C2B068FC378DAA952BA7F163C4A11628F55A4DF523B3EF DUP4 PUSH1 0x40 MLOAD PUSH2 0xD58 SWAP2 SWAP1 PUSH2 0x11FB JUMP JUMPDEST PUSH1 0x40 MLOAD DUP1 SWAP2 SUB SWAP1 LOG3 PUSH2 0xD6C PUSH1 0x0 DUP4 DUP4 PUSH2 0x101D JUMP JUMPDEST POP POP JUMP JUMPDEST PUSH1 0x0 PUSH20 0xFFFFFFFFFFFFFFFFFFFFFFFFFFFFFFFFFFFFFFFF AND DUP3 PUSH20 0xFFFFFFFFFFFFFFFFFFFFFFFFFFFFFFFFFFFFFFFF AND EQ ISZERO PUSH2 0xDE0 JUMPI PUSH1 0x40 MLOAD PUSH32 0x8C379A000000000000000000000000000000000000000000000000000000000 DUP2 MSTORE PUSH1 0x4 ADD PUSH2 0xDD7 SWAP1 PUSH2 0x1B7A JUMP JUMPDEST PUSH1 0x40 MLOAD DUP1 SWAP2 SUB SWAP1 REVERT JUMPDEST PUSH2 0xDEC DUP3 PUSH1 0x0 DUP4 PUSH2 0x1018 JUMP JUMPDEST PUSH1 0x0 DUP1 PUSH1 0x0 DUP5 PUSH20 0xFFFFFFFFFFFFFFFFFFFFFFFFFFFFFFFFFFFFFFFF AND PUSH20 0xFFFFFFFFFFFFFFFFFFFFFFFFFFFFFFFFFFFFFFFF AND DUP2 MSTORE PUSH1 0x20 ADD SWAP1 DUP2 MSTORE PUSH1 0x20 ADD PUSH1 0x0 KECCAK256 SLOAD SWAP1 POP DUP2 DUP2 LT ISZERO PUSH2 0xE72 JUMPI PUSH1 0x40 MLOAD PUSH32 0x8C379A000000000000000000000000000000000000000000000000000000000 DUP2 MSTORE PUSH1 0x4 ADD PUSH2 0xE69 SWAP1 PUSH2 0x1C0C JUMP JUMPDEST PUSH1 0x40 MLOAD DUP1 SWAP2 SUB SWAP1 REVERT JUMPDEST DUP2 DUP2 SUB PUSH1 0x0 DUP1 DUP6 PUSH20 0xFFFFFFFFFFFFFFFFFFFFFFFFFFFFFFFFFFFFFFFF AND PUSH20 0xFFFFFFFFFFFFFFFFFFFFFFFFFFFFFFFFFFFFFFFF AND DUP2 MSTORE PUSH1 0x20 ADD SWAP1 DUP2 MSTORE PUSH1 0x20 ADD PUSH1 0x0 KECCAK256 DUP2 SWAP1 SSTORE POP DUP2 PUSH1 0x2 PUSH1 0x0 DUP3 DUP3 SLOAD SUB SWAP3 POP POP DUP2 SWAP1 SSTORE POP PUSH1 0x0 PUSH20 0xFFFFFFFFFFFFFFFFFFFFFFFFFFFFFFFFFFFFFFFF AND DUP4 PUSH20 0xFFFFFFFFFFFFFFFFFFFFFFFFFFFFFFFFFFFFFFFF AND PUSH32 0xDDF252AD1BE2C89B69C2B068FC378DAA952BA7F163C4A11628F55A4DF523B3EF DUP5 PUSH1 0x40 MLOAD PUSH2 0xF25 SWAP2 SWAP1 PUSH2 0x11FB JUMP JUMPDEST PUSH1 0x40 MLOAD DUP1 SWAP2 SUB SWAP1 LOG3 PUSH2 0xF39 DUP4 PUSH1 0x0 DUP5 PUSH2 0x101D JUMP JUMPDEST POP POP POP JUMP JUMPDEST PUSH1 0x0 DUP1 PUSH1 0x0 DUP4 PUSH20 0xFFFFFFFFFFFFFFFFFFFFFFFFFFFFFFFFFFFFFFFF AND PUSH20 0xFFFFFFFFFFFFFFFFFFFFFFFFFFFFFFFFFFFFFFFF AND DUP2 MSTORE PUSH1 0x20 ADD SWAP1 DUP2 MSTORE PUSH1 0x20 ADD PUSH1 0x0 KECCAK256 SLOAD SWAP1 POP SWAP2 SWAP1 POP JUMP JUMPDEST PUSH1 0x60 PUSH1 0x4 DUP1 SLOAD PUSH2 0xF95 SWAP1 PUSH2 0x1724 JUMP JUMPDEST DUP1 PUSH1 0x1F ADD PUSH1 0x20 DUP1 SWAP2 DIV MUL PUSH1 0x20 ADD PUSH1 0x40 MLOAD SWAP1 DUP2 ADD PUSH1 0x40 MSTORE DUP1 SWAP3 SWAP2 SWAP1 DUP2 DUP2 MSTORE PUSH1 0x20 ADD DUP3 DUP1 SLOAD PUSH2 0xFC1 SWAP1 PUSH2 0x1724 JUMP JUMPDEST DUP1 ISZERO PUSH2 0x100E JUMPI DUP1 PUSH1 0x1F LT PUSH2 0xFE3 JUMPI PUSH2 0x100 DUP1 DUP4 SLOAD DIV MUL DUP4 MSTORE SWAP2 PUSH1 0x20 ADD SWAP2 PUSH2 0x100E JUMP JUMPDEST DUP3 ADD SWAP2 SWAP1 PUSH1 0x0 MSTORE PUSH1 0x20 PUSH1 0x0 KECCAK256 SWAP1 JUMPDEST DUP2 SLOAD DUP2 MSTORE SWAP1 PUSH1 0x1 ADD SWAP1 PUSH1 0x20 ADD DUP1 DUP4 GT PUSH2 0xFF1 JUMPI DUP3 SWAP1 SUB PUSH1 0x1F AND DUP3 ADD SWAP2 JUMPDEST POP POP POP POP POP SWAP1 POP SWAP1 JUMP JUMPDEST POP POP POP JUMP JUMPDEST POP POP POP JUMP JUMPDEST PUSH1 0x0 DUP2 MLOAD SWAP1 POP SWAP2 SWAP1 POP JUMP JUMPDEST PUSH1 0x0 DUP3 DUP3 MSTORE PUSH1 0x20 DUP3 ADD SWAP1 POP SWAP3 SWAP2 POP POP JUMP JUMPDEST PUSH1 0x0 JUMPDEST DUP4 DUP2 LT ISZERO PUSH2 0x105C JUMPI DUP1 DUP3 ADD MLOAD DUP2 DUP5 ADD MSTORE PUSH1 0x20 DUP2 ADD SWAP1 POP PUSH2 0x1041 JUMP JUMPDEST DUP4 DUP2 GT ISZERO PUSH2 0x106B JUMPI PUSH1 0x0 DUP5 DUP5 ADD MSTORE JUMPDEST POP POP POP POP JUMP JUMPDEST PUSH1 0x0 PUSH1 0x1F NOT PUSH1 0x1F DUP4 ADD AND SWAP1 POP SWAP2 SWAP1 POP JUMP JUMPDEST PUSH1 0x0 PUSH2 0x108D DUP3 PUSH2 0x1022 JUMP JUMPDEST PUSH2 0x1097 DUP2 DUP6 PUSH2 0x102D JUMP JUMPDEST SWAP4 POP PUSH2 0x10A7 DUP2 DUP6 PUSH1 0x20 DUP7 ADD PUSH2 0x103E JUMP JUMPDEST PUSH2 0x10B0 DUP2 PUSH2 0x1071 JUMP JUMPDEST DUP5 ADD SWAP2 POP POP SWAP3 SWAP2 POP POP JUMP JUMPDEST PUSH1 0x0 PUSH1 0x20 DUP3 ADD SWAP1 POP DUP2 DUP2 SUB PUSH1 0x0 DUP4 ADD MSTORE PUSH2 0x10D5 DUP2 DUP5 PUSH2 0x1082 JUMP JUMPDEST SWAP1 POP SWAP3 SWAP2 POP POP JUMP JUMPDEST PUSH1 0x0 DUP1 REVERT JUMPDEST PUSH1 0x0 PUSH20 0xFFFFFFFFFFFFFFFFFFFFFFFFFFFFFFFFFFFFFFFF DUP3 AND SWAP1 POP SWAP2 SWAP1 POP JUMP JUMPDEST PUSH1 0x0 PUSH2 0x110D DUP3 PUSH2 0x10E2 JUMP JUMPDEST SWAP1 POP SWAP2 SWAP1 POP JUMP JUMPDEST PUSH2 0x111D DUP2 PUSH2 0x1102 JUMP JUMPDEST DUP2 EQ PUSH2 0x1128 JUMPI PUSH1 0x0 DUP1 REVERT JUMPDEST POP JUMP JUMPDEST PUSH1 0x0 DUP2 CALLDATALOAD SWAP1 POP PUSH2 0x113A DUP2 PUSH2 0x1114 JUMP JUMPDEST SWAP3 SWAP2 POP POP JUMP JUMPDEST PUSH1 0x0 DUP2 SWAP1 POP SWAP2 SWAP1 POP JUMP JUMPDEST PUSH2 0x1153 DUP2 PUSH2 0x1140 JUMP JUMPDEST DUP2 EQ PUSH2 0x115E JUMPI PUSH1 0x0 DUP1 REVERT JUMPDEST POP JUMP JUMPDEST PUSH1 0x0 DUP2 CALLDATALOAD SWAP1 POP PUSH2 0x1170 DUP2 PUSH2 0x114A JUMP JUMPDEST SWAP3 SWAP2 POP POP JUMP JUMPDEST PUSH1 0x0 DUP1 PUSH1 0x40 DUP4 DUP6 SUB SLT ISZERO PUSH2 0x118D JUMPI PUSH2 0x118C PUSH2 0x10DD JUMP JUMPDEST JUMPDEST PUSH1 0x0 PUSH2 0x119B DUP6 DUP3 DUP7 ADD PUSH2 0x112B JUMP JUMPDEST SWAP3 POP POP PUSH1 0x20 PUSH2 0x11AC DUP6 DUP3 DUP7 ADD PUSH2 0x1161 JUMP JUMPDEST SWAP2 POP POP SWAP3 POP SWAP3 SWAP1 POP JUMP JUMPDEST PUSH1 0x0 DUP2 ISZERO ISZERO SWAP1 POP SWAP2 SWAP1 POP JUMP JUMPDEST PUSH2 0x11CB DUP2 PUSH2 0x11B6 JUMP JUMPDEST DUP3 MSTORE POP POP JUMP JUMPDEST PUSH1 0x0 PUSH1 0x20 DUP3 ADD SWAP1 POP PUSH2 0x11E6 PUSH1 0x0 DUP4 ADD DUP5 PUSH2 0x11C2 JUMP JUMPDEST SWAP3 SWAP2 POP POP JUMP JUMPDEST PUSH2 0x11F5 DUP2 PUSH2 0x1140 JUMP JUMPDEST DUP3 MSTORE POP POP JUMP JUMPDEST PUSH1 0x0 PUSH1 0x20 DUP3 ADD SWAP1 POP PUSH2 0x1210 PUSH1 0x0 DUP4 ADD DUP5 PUSH2 0x11EC JUMP JUMPDEST SWAP3 SWAP2 POP POP JUMP JUMPDEST PUSH1 0x0 DUP1 PUSH1 0x0 PUSH1 0x60 DUP5 DUP7 SUB SLT ISZERO PUSH2 0x122F JUMPI PUSH2 0x122E PUSH2 0x10DD JUMP JUMPDEST JUMPDEST PUSH1 0x0 PUSH2 0x123D DUP7 DUP3 DUP8 ADD PUSH2 0x112B JUMP JUMPDEST SWAP4 POP POP PUSH1 0x20 PUSH2 0x124E DUP7 DUP3 DUP8 ADD PUSH2 0x112B JUMP JUMPDEST SWAP3 POP POP PUSH1 0x40 PUSH2 0x125F DUP7 DUP3 DUP8 ADD PUSH2 0x1161 JUMP JUMPDEST SWAP2 POP POP SWAP3 POP SWAP3 POP SWAP3 JUMP JUMPDEST PUSH1 0x0 PUSH1 0xFF DUP3 AND SWAP1 POP SWAP2 SWAP1 POP JUMP JUMPDEST PUSH2 0x127F DUP2 PUSH2 0x1269 JUMP JUMPDEST DUP3 MSTORE POP POP JUMP JUMPDEST PUSH1 0x0 PUSH1 0x20 DUP3 ADD SWAP1 POP PUSH2 0x129A PUSH1 0x0 DUP4 ADD DUP5 PUSH2 0x1276 JUMP JUMPDEST SWAP3 SWAP2 POP POP JUMP JUMPDEST PUSH1 0x0 DUP1 PUSH1 0x0 DUP1 PUSH1 0x80 DUP6 DUP8 SUB SLT ISZERO PUSH2 0x12BA JUMPI PUSH2 0x12B9 PUSH2 0x10DD JUMP JUMPDEST JUMPDEST PUSH1 0x0 PUSH2 0x12C8 DUP8 DUP3 DUP9 ADD PUSH2 0x112B JUMP JUMPDEST SWAP5 POP POP PUSH1 0x20 PUSH2 0x12D9 DUP8 DUP3 DUP9 ADD PUSH2 0x1161 JUMP JUMPDEST SWAP4 POP POP PUSH1 0x40 PUSH2 0x12EA DUP8 DUP3 DUP9 ADD PUSH2 0x1161 JUMP JUMPDEST SWAP3 POP POP PUSH1 0x60 PUSH2 0x12FB DUP8 DUP3 DUP9 ADD PUSH2 0x112B JUMP JUMPDEST SWAP2 POP POP SWAP3 SWAP6 SWAP2 SWAP5 POP SWAP3 POP JUMP JUMPDEST PUSH1 0x0 PUSH1 0x20 DUP3 DUP5 SUB SLT ISZERO PUSH2 0x131D JUMPI PUSH2 0x131C PUSH2 0x10DD JUMP JUMPDEST JUMPDEST PUSH1 0x0 PUSH2 0x132B DUP5 DUP3 DUP6 ADD PUSH2 0x1161 JUMP JUMPDEST SWAP2 POP POP SWAP3 SWAP2 POP POP JUMP JUMPDEST PUSH1 0x0 PUSH1 0x20 DUP3 DUP5 SUB SLT ISZERO PUSH2 0x134A JUMPI PUSH2 0x1349 PUSH2 0x10DD JUMP JUMPDEST JUMPDEST PUSH1 0x0 PUSH2 0x1358 DUP5 DUP3 DUP6 ADD PUSH2 0x112B JUMP JUMPDEST SWAP2 POP POP SWAP3 SWAP2 POP POP JUMP JUMPDEST PUSH1 0x0 DUP1 PUSH1 0x0 PUSH1 0x60 DUP5 DUP7 SUB SLT ISZERO PUSH2 0x137A JUMPI PUSH2 0x1379 PUSH2 0x10DD JUMP JUMPDEST JUMPDEST PUSH1 0x0 PUSH2 0x1388 DUP7 DUP3 DUP8 ADD PUSH2 0x112B JUMP JUMPDEST SWAP4 POP POP PUSH1 0x20 PUSH2 0x1399 DUP7 DUP3 DUP8 ADD PUSH2 0x1161 JUMP JUMPDEST SWAP3 POP POP PUSH1 0x40 PUSH2 0x13AA DUP7 DUP3 DUP8 ADD PUSH2 0x1161 JUMP JUMPDEST SWAP2 POP POP SWAP3 POP SWAP3 POP SWAP3 JUMP JUMPDEST PUSH1 0x0 DUP1 PUSH1 0x40 DUP4 DUP6 SUB SLT ISZERO PUSH2 0x13CB JUMPI PUSH2 0x13CA PUSH2 0x10DD JUMP JUMPDEST JUMPDEST PUSH1 0x0 PUSH2 0x13D9 DUP6 DUP3 DUP7 ADD PUSH2 0x112B JUMP JUMPDEST SWAP3 POP POP PUSH1 0x20 PUSH2 0x13EA DUP6 DUP3 DUP7 ADD PUSH2 0x112B JUMP JUMPDEST SWAP2 POP POP SWAP3 POP SWAP3 SWAP1 POP JUMP JUMPDEST PUSH32 0x4E487B7100000000000000000000000000000000000000000000000000000000 PUSH1 0x0 MSTORE PUSH1 0x11 PUSH1 0x4 MSTORE PUSH1 0x24 PUSH1 0x0 REVERT JUMPDEST PUSH1 0x0 PUSH2 0x142E DUP3 PUSH2 0x1140 JUMP JUMPDEST SWAP2 POP PUSH2 0x1439 DUP4 PUSH2 0x1140 JUMP JUMPDEST SWAP3 POP DUP3 PUSH32 0xFFFFFFFFFFFFFFFFFFFFFFFFFFFFFFFFFFFFFFFFFFFFFFFFFFFFFFFFFFFFFFFF SUB DUP3 GT ISZERO PUSH2 0x146E JUMPI PUSH2 0x146D PUSH2 0x13F4 JUMP JUMPDEST JUMPDEST DUP3 DUP3 ADD SWAP1 POP SWAP3 SWAP2 POP POP JUMP JUMPDEST PUSH32 0x46656520616D6F756E74206D7573742062652067726561746572207468616E20 PUSH1 0x0 DUP3 ADD MSTORE PUSH32 0x7A65726F00000000000000000000000000000000000000000000000000000000 PUSH1 0x20 DUP3 ADD MSTORE POP JUMP JUMPDEST PUSH1 0x0 PUSH2 0x14D5 PUSH1 0x24 DUP4 PUSH2 0x102D JUMP JUMPDEST SWAP2 POP PUSH2 0x14E0 DUP3 PUSH2 0x1479 JUMP JUMPDEST PUSH1 0x40 DUP3 ADD SWAP1 POP SWAP2 SWAP1 POP JUMP JUMPDEST PUSH1 0x0 PUSH1 0x20 DUP3 ADD SWAP1 POP DUP2 DUP2 SUB PUSH1 0x0 DUP4 ADD MSTORE PUSH2 0x1504 DUP2 PUSH2 0x14C8 JUMP JUMPDEST SWAP1 POP SWAP2 SWAP1 POP JUMP JUMPDEST PUSH32 0x45524332303A2064656372656173656420616C6C6F77616E63652062656C6F77 PUSH1 0x0 DUP3 ADD MSTORE PUSH32 0x207A65726F000000000000000000000000000000000000000000000000000000 PUSH1 0x20 DUP3 ADD MSTORE POP JUMP JUMPDEST PUSH1 0x0 PUSH2 0x1567 PUSH1 0x25 DUP4 PUSH2 0x102D JUMP JUMPDEST SWAP2 POP PUSH2 0x1572 DUP3 PUSH2 0x150B JUMP JUMPDEST PUSH1 0x40 DUP3 ADD SWAP1 POP SWAP2 SWAP1 POP JUMP JUMPDEST PUSH1 0x0 PUSH1 0x20 DUP3 ADD SWAP1 POP DUP2 DUP2 SUB PUSH1 0x0 DUP4 ADD MSTORE PUSH2 0x1596 DUP2 PUSH2 0x155A JUMP JUMPDEST SWAP1 POP SWAP2 SWAP1 POP JUMP JUMPDEST PUSH32 0x4275726E20616D6F756E74206D7573742062652067726561746572207468616E PUSH1 0x0 DUP3 ADD MSTORE PUSH32 0x207A65726F000000000000000000000000000000000000000000000000000000 PUSH1 0x20 DUP3 ADD MSTORE POP JUMP JUMPDEST PUSH1 0x0 PUSH2 0x15F9 PUSH1 0x25 DUP4 PUSH2 0x102D JUMP JUMPDEST SWAP2 POP PUSH2 0x1604 DUP3 PUSH2 0x159D JUMP JUMPDEST PUSH1 0x40 DUP3 ADD SWAP1 POP SWAP2 SWAP1 POP JUMP JUMPDEST PUSH1 0x0 PUSH1 0x20 DUP3 ADD SWAP1 POP DUP2 DUP2 SUB PUSH1 0x0 DUP4 ADD MSTORE PUSH2 0x1628 DUP2 PUSH2 0x15EC JUMP JUMPDEST SWAP1 POP SWAP2 SWAP1 POP JUMP JUMPDEST PUSH32 0x4275726E20616D6F756E74206D757374206265206C657373207468616E206F72 PUSH1 0x0 DUP3 ADD MSTORE PUSH32 0x20657175616C20746F20746865207472616E7366657220616D6F756E74000000 PUSH1 0x20 DUP3 ADD MSTORE POP JUMP JUMPDEST PUSH1 0x0 PUSH2 0x168B PUSH1 0x3D DUP4 PUSH2 0x102D JUMP JUMPDEST SWAP2 POP PUSH2 0x1696 DUP3 PUSH2 0x162F JUMP JUMPDEST PUSH1 0x40 DUP3 ADD SWAP1 POP SWAP2 SWAP1 POP JUMP JUMPDEST PUSH1 0x0 PUSH1 0x20 DUP3 ADD SWAP1 POP DUP2 DUP2 SUB PUSH1 0x0 DUP4 ADD MSTORE PUSH2 0x16BA DUP2 PUSH2 0x167E JUMP JUMPDEST SWAP1 POP SWAP2 SWAP1 POP JUMP JUMPDEST PUSH1 0x0 PUSH2 0x16CC DUP3 PUSH2 0x1140 JUMP JUMPDEST SWAP2 POP PUSH2 0x16D7 DUP4 PUSH2 0x1140 JUMP JUMPDEST SWAP3 POP DUP3 DUP3 LT ISZERO PUSH2 0x16EA JUMPI PUSH2 0x16E9 PUSH2 0x13F4 JUMP JUMPDEST JUMPDEST DUP3 DUP3 SUB SWAP1 POP SWAP3 SWAP2 POP POP JUMP JUMPDEST PUSH32 0x4E487B7100000000000000000000000000000000000000000000000000000000 PUSH1 0x0 MSTORE PUSH1 0x22 PUSH1 0x4 MSTORE PUSH1 0x24 PUSH1 0x0 REVERT JUMPDEST PUSH1 0x0 PUSH1 0x2 DUP3 DIV SWAP1 POP PUSH1 0x1 DUP3 AND DUP1 PUSH2 0x173C JUMPI PUSH1 0x7F DUP3 AND SWAP2 POP JUMPDEST PUSH1 0x20 DUP3 LT DUP2 EQ ISZERO PUSH2 0x1750 JUMPI PUSH2 0x174F PUSH2 0x16F5 JUMP JUMPDEST JUMPDEST POP SWAP2 SWAP1 POP JUMP JUMPDEST PUSH32 0x45524332303A20617070726F76652066726F6D20746865207A65726F20616464 PUSH1 0x0 DUP3 ADD MSTORE PUSH32 0x7265737300000000000000000000000000000000000000000000000000000000 PUSH1 0x20 DUP3 ADD MSTORE POP JUMP JUMPDEST PUSH1 0x0 PUSH2 0x17B2 PUSH1 0x24 DUP4 PUSH2 0x102D JUMP JUMPDEST SWAP2 POP PUSH2 0x17BD DUP3 PUSH2 0x1756 JUMP JUMPDEST PUSH1 0x40 DUP3 ADD SWAP1 POP SWAP2 SWAP1 POP JUMP JUMPDEST PUSH1 0x0 PUSH1 0x20 DUP3 ADD SWAP1 POP DUP2 DUP2 SUB PUSH1 0x0 DUP4 ADD MSTORE PUSH2 0x17E1 DUP2 PUSH2 0x17A5 JUMP JUMPDEST SWAP1 POP SWAP2 SWAP1 POP JUMP JUMPDEST PUSH32 0x45524332303A20617070726F766520746F20746865207A65726F206164647265 PUSH1 0x0 DUP3 ADD MSTORE PUSH32 0x7373000000000000000000000000000000000000000000000000000000000000 PUSH1 0x20 DUP3 ADD MSTORE POP JUMP JUMPDEST PUSH1 0x0 PUSH2 0x1844 PUSH1 0x22 DUP4 PUSH2 0x102D JUMP JUMPDEST SWAP2 POP PUSH2 0x184F DUP3 PUSH2 0x17E8 JUMP JUMPDEST PUSH1 0x40 DUP3 ADD SWAP1 POP SWAP2 SWAP1 POP JUMP JUMPDEST PUSH1 0x0 PUSH1 0x20 DUP3 ADD SWAP1 POP DUP2 DUP2 SUB PUSH1 0x0 DUP4 ADD MSTORE PUSH2 0x1873 DUP2 PUSH2 0x1837 JUMP JUMPDEST SWAP1 POP SWAP2 SWAP1 POP JUMP JUMPDEST PUSH32 0x45524332303A20696E73756666696369656E7420616C6C6F77616E6365000000 PUSH1 0x0 DUP3 ADD MSTORE POP JUMP JUMPDEST PUSH1 0x0 PUSH2 0x18B0 PUSH1 0x1D DUP4 PUSH2 0x102D JUMP JUMPDEST SWAP2 POP PUSH2 0x18BB DUP3 PUSH2 0x187A JUMP JUMPDEST PUSH1 0x20 DUP3 ADD SWAP1 POP SWAP2 SWAP1 POP JUMP JUMPDEST PUSH1 0x0 PUSH1 0x20 DUP3 ADD SWAP1 POP DUP2 DUP2 SUB PUSH1 0x0 DUP4 ADD MSTORE PUSH2 0x18DF DUP2 PUSH2 0x18A3 JUMP JUMPDEST SWAP1 POP SWAP2 SWAP1 POP JUMP JUMPDEST PUSH32 0x45524332303A207472616E736665722066726F6D20746865207A65726F206164 PUSH1 0x0 DUP3 ADD MSTORE PUSH32 0x6472657373000000000000000000000000000000000000000000000000000000 PUSH1 0x20 DUP3 ADD MSTORE POP JUMP JUMPDEST PUSH1 0x0 PUSH2 0x1942 PUSH1 0x25 DUP4 PUSH2 0x102D JUMP JUMPDEST SWAP2 POP PUSH2 0x194D DUP3 PUSH2 0x18E6 JUMP JUMPDEST PUSH1 0x40 DUP3 ADD SWAP1 POP SWAP2 SWAP1 POP JUMP JUMPDEST PUSH1 0x0 PUSH1 0x20 DUP3 ADD SWAP1 POP DUP2 DUP2 SUB PUSH1 0x0 DUP4 ADD MSTORE PUSH2 0x1971 DUP2 PUSH2 0x1935 JUMP JUMPDEST SWAP1 POP SWAP2 SWAP1 POP JUMP JUMPDEST PUSH32 0x45524332303A207472616E7366657220746F20746865207A65726F2061646472 PUSH1 0x0 DUP3 ADD MSTORE PUSH32 0x6573730000000000000000000000000000000000000000000000000000000000 PUSH1 0x20 DUP3 ADD MSTORE POP JUMP JUMPDEST PUSH1 0x0 PUSH2 0x19D4 PUSH1 0x23 DUP4 PUSH2 0x102D JUMP JUMPDEST SWAP2 POP PUSH2 0x19DF DUP3 PUSH2 0x1978 JUMP JUMPDEST PUSH1 0x40 DUP3 ADD SWAP1 POP SWAP2 SWAP1 POP JUMP JUMPDEST PUSH1 0x0 PUSH1 0x20 DUP3 ADD SWAP1 POP DUP2 DUP2 SUB PUSH1 0x0 DUP4 ADD MSTORE PUSH2 0x1A03 DUP2 PUSH2 0x19C7 JUMP JUMPDEST SWAP1 POP SWAP2 SWAP1 POP JUMP JUMPDEST PUSH32 0x45524332303A207472616E7366657220616D6F756E7420657863656564732062 PUSH1 0x0 DUP3 ADD MSTORE PUSH32 0x616C616E63650000000000000000000000000000000000000000000000000000 PUSH1 0x20 DUP3 ADD MSTORE POP JUMP JUMPDEST PUSH1 0x0 PUSH2 0x1A66 PUSH1 0x26 DUP4 PUSH2 0x102D JUMP JUMPDEST SWAP2 POP PUSH2 0x1A71 DUP3 PUSH2 0x1A0A JUMP JUMPDEST PUSH1 0x40 DUP3 ADD SWAP1 POP SWAP2 SWAP1 POP JUMP JUMPDEST PUSH1 0x0 PUSH1 0x20 DUP3 ADD SWAP1 POP DUP2 DUP2 SUB PUSH1 0x0 DUP4 ADD MSTORE PUSH2 0x1A95 DUP2 PUSH2 0x1A59 JUMP JUMPDEST SWAP1 POP SWAP2 SWAP1 POP JUMP JUMPDEST PUSH32 0x45524332303A206D696E7420746F20746865207A65726F206164647265737300 PUSH1 0x0 DUP3 ADD MSTORE POP JUMP JUMPDEST PUSH1 0x0 PUSH2 0x1AD2 PUSH1 0x1F DUP4 PUSH2 0x102D JUMP JUMPDEST SWAP2 POP PUSH2 0x1ADD DUP3 PUSH2 0x1A9C JUMP JUMPDEST PUSH1 0x20 DUP3 ADD SWAP1 POP SWAP2 SWAP1 POP JUMP JUMPDEST PUSH1 0x0 PUSH1 0x20 DUP3 ADD SWAP1 POP DUP2 DUP2 SUB PUSH1 0x0 DUP4 ADD MSTORE PUSH2 0x1B01 DUP2 PUSH2 0x1AC5 JUMP JUMPDEST SWAP1 POP SWAP2 SWAP1 POP JUMP JUMPDEST PUSH32 0x45524332303A206275726E2066726F6D20746865207A65726F20616464726573 PUSH1 0x0 DUP3 ADD MSTORE PUSH32 0x7300000000000000000000000000000000000000000000000000000000000000 PUSH1 0x20 DUP3 ADD MSTORE POP JUMP JUMPDEST PUSH1 0x0 PUSH2 0x1B64 PUSH1 0x21 DUP4 PUSH2 0x102D JUMP JUMPDEST SWAP2 POP PUSH2 0x1B6F DUP3 PUSH2 0x1B08 JUMP JUMPDEST PUSH1 0x40 DUP3 ADD SWAP1 POP SWAP2 SWAP1 POP JUMP JUMPDEST PUSH1 0x0 PUSH1 0x20 DUP3 ADD SWAP1 POP DUP2 DUP2 SUB PUSH1 0x0 DUP4 ADD MSTORE PUSH2 0x1B93 DUP2 PUSH2 0x1B57 JUMP JUMPDEST SWAP1 POP SWAP2 SWAP1 POP JUMP JUMPDEST PUSH32 0x45524332303A206275726E20616D6F756E7420657863656564732062616C616E PUSH1 0x0 DUP3 ADD MSTORE PUSH32 0x6365000000000000000000000000000000000000000000000000000000000000 PUSH1 0x20 DUP3 ADD MSTORE POP JUMP JUMPDEST PUSH1 0x0 PUSH2 0x1BF6 PUSH1 0x22 DUP4 PUSH2 0x102D JUMP JUMPDEST SWAP2 POP PUSH2 0x1C01 DUP3 PUSH2 0x1B9A JUMP JUMPDEST PUSH1 0x40 DUP3 ADD SWAP1 POP SWAP2 SWAP1 POP JUMP JUMPDEST PUSH1 0x0 PUSH1 0x20 DUP3 ADD SWAP1 POP DUP2 DUP2 SUB PUSH1 0x0 DUP4 ADD MSTORE PUSH2 0x1C25 DUP2 PUSH2 0x1BE9 JUMP JUMPDEST SWAP1 POP SWAP2 SWAP1 POP JUMP INVALID LOG2 PUSH5 0x6970667358 0x22 SLT KECCAK256 0xAF 0xAC LOG3 PUSH7 0xDC354A1ACEACF1 0xB2 PUSH27 0xFA057CAE3D1D73CABB3722F3151D7B7B85A5D964736F6C63430008 MULMOD STOP CALLER "
				},
				"gasEstimates": {
					"creation": {
						"codeDepositCost": "1453200",
						"executionCost": "infinite",
						"totalCost": "infinite"
					},
					"external": {
						"allowance(address,address)": "infinite",
						"approve(address,uint256)": "infinite",
						"balanceOf(address)": "2951",
						"burn(uint256)": "infinite",
						"decimals()": "388",
						"decreaseAllowance(address,uint256)": "infinite",
						"increaseAllowance(address,uint256)": "infinite",
						"mint(address,uint256)": "infinite",
						"name()": "infinite",
						"symbol()": "infinite",
						"totalSupply()": "2540",
						"transfer(address,uint256)": "infinite",
						"transferFrom(address,address,uint256)": "infinite",
						"transferWithFee(address,uint256,uint256,address)": "infinite",
						"transferWithTokenBurn(address,uint256,uint256)": "infinite"
					}
				},
				"methodIdentifiers": {
					"allowance(address,address)": "dd62ed3e",
					"approve(address,uint256)": "095ea7b3",
					"balanceOf(address)": "70a08231",
					"burn(uint256)": "42966c68",
					"decimals()": "313ce567",
					"decreaseAllowance(address,uint256)": "a457c2d7",
					"increaseAllowance(address,uint256)": "39509351",
					"mint(address,uint256)": "40c10f19",
					"name()": "06fdde03",
					"symbol()": "95d89b41",
					"totalSupply()": "18160ddd",
					"transfer(address,uint256)": "a9059cbb",
					"transferFrom(address,address,uint256)": "23b872dd",
					"transferWithFee(address,uint256,uint256,address)": "3f50a705",
					"transferWithTokenBurn(address,uint256,uint256)": "bb9c1ad9"
				}
			},
			"storageLayout": {
				"storage": [
					{
						"astId": 133,
						"contract": "contracts/ERC20TokenABC_flattened.sol:ERC20TokenABC",
						"label": "_balances",
						"offset": 0,
						"slot": "0",
						"type": "t_mapping(t_address,t_uint256)"
					},
					{
						"astId": 139,
						"contract": "contracts/ERC20TokenABC_flattened.sol:ERC20TokenABC",
						"label": "_allowances",
						"offset": 0,
						"slot": "1",
						"type": "t_mapping(t_address,t_mapping(t_address,t_uint256))"
					},
					{
						"astId": 141,
						"contract": "contracts/ERC20TokenABC_flattened.sol:ERC20TokenABC",
						"label": "_totalSupply",
						"offset": 0,
						"slot": "2",
						"type": "t_uint256"
					},
					{
						"astId": 143,
						"contract": "contracts/ERC20TokenABC_flattened.sol:ERC20TokenABC",
						"label": "_name",
						"offset": 0,
						"slot": "3",
						"type": "t_string_storage"
					},
					{
						"astId": 145,
						"contract": "contracts/ERC20TokenABC_flattened.sol:ERC20TokenABC",
						"label": "_symbol",
						"offset": 0,
						"slot": "4",
						"type": "t_string_storage"
					}
				],
				"types": {
					"t_address": {
						"encoding": "inplace",
						"label": "address",
						"numberOfBytes": "20"
					},
					"t_mapping(t_address,t_mapping(t_address,t_uint256))": {
						"encoding": "mapping",
						"key": "t_address",
						"label": "mapping(address => mapping(address => uint256))",
						"numberOfBytes": "32",
						"value": "t_mapping(t_address,t_uint256)"
					},
					"t_mapping(t_address,t_uint256)": {
						"encoding": "mapping",
						"key": "t_address",
						"label": "mapping(address => uint256)",
						"numberOfBytes": "32",
						"value": "t_uint256"
					},
					"t_string_storage": {
						"encoding": "bytes",
						"label": "string",
						"numberOfBytes": "32"
					},
					"t_uint256": {
						"encoding": "inplace",
						"label": "uint256",
						"numberOfBytes": "32"
					}
				}
			},
			"userdoc": {
				"kind": "user",
				"methods": {},
				"version": 1
			}
		}
	}
}